{
	"casaApuestas.sol": {
		"casaApuestas": {
			"abi": [
				{
					"inputs": [],
					"stateMutability": "nonpayable",
					"type": "constructor"
				},
				{
					"inputs": [],
					"name": "anfitrion",
					"outputs": [
						{
							"internalType": "address",
							"name": "",
							"type": "address"
						}
					],
					"stateMutability": "view",
					"type": "function"
				},
				{
					"inputs": [
						{
							"internalType": "uint256",
							"name": "",
							"type": "uint256"
						}
					],
					"name": "caballos",
					"outputs": [
						{
							"internalType": "uint256",
							"name": "codigo",
							"type": "uint256"
						},
						{
							"internalType": "string",
							"name": "nombre",
							"type": "string"
						}
					],
					"stateMutability": "view",
					"type": "function"
				},
				{
					"inputs": [
						{
							"internalType": "uint256",
							"name": "",
							"type": "uint256"
						}
					],
					"name": "carreras",
					"outputs": [
						{
							"internalType": "uint256",
							"name": "codigo",
							"type": "uint256"
						},
						{
							"internalType": "string",
							"name": "nombre",
							"type": "string"
						},
						{
							"internalType": "enum casaApuestas.Estado",
							"name": "estadoCarrera",
							"type": "uint8"
						}
					],
					"stateMutability": "view",
					"type": "function"
				},
				{
					"inputs": [
						{
							"internalType": "uint256",
							"name": "",
							"type": "uint256"
						},
						{
							"internalType": "uint256",
							"name": "",
							"type": "uint256"
						}
					],
					"name": "competencias",
					"outputs": [
						{
							"internalType": "uint256",
							"name": "",
							"type": "uint256"
						}
					],
					"stateMutability": "view",
					"type": "function"
				},
				{
					"inputs": [
						{
							"internalType": "uint256",
							"name": "_codigo",
							"type": "uint256"
						},
						{
							"internalType": "string",
							"name": "_nombre",
							"type": "string"
						}
					],
					"name": "crearCarrera",
					"outputs": [],
					"stateMutability": "nonpayable",
					"type": "function"
				},
				{
					"inputs": [
						{
							"internalType": "uint256",
							"name": "_codigo",
							"type": "uint256"
						},
						{
							"internalType": "string",
							"name": "_nombre",
							"type": "string"
						}
					],
					"name": "registrarCaballo",
					"outputs": [],
					"stateMutability": "nonpayable",
					"type": "function"
				},
				{
					"inputs": [
						{
							"internalType": "uint256",
							"name": "_codCarrera",
							"type": "uint256"
						}
					],
					"name": "registrarCarrera",
					"outputs": [],
					"stateMutability": "nonpayable",
					"type": "function"
				},
				{
					"inputs": [
						{
							"internalType": "uint256",
							"name": "_codCaballo",
							"type": "uint256"
						},
						{
							"internalType": "uint256",
							"name": "_codCarrera",
							"type": "uint256"
						}
					],
					"name": "registrarEnCompetencia",
					"outputs": [],
					"stateMutability": "nonpayable",
					"type": "function"
				},
				{
					"inputs": [],
					"name": "totalCarreras",
					"outputs": [
						{
							"internalType": "uint256",
							"name": "",
							"type": "uint256"
						}
					],
					"stateMutability": "view",
					"type": "function"
				}
			],
			"devdoc": {
				"kind": "dev",
				"methods": {},
				"version": 1
			},
			"evm": {
				"assembly": "    /* \"casaApuestas.sol\":26:2816  contract casaApuestas{... */\n  mstore(0x40, 0x80)\n    /* \"casaApuestas.sol\":540:601  constructor() public{... */\n  callvalue\n  dup1\n  iszero\n  tag_1\n  jumpi\n  0x00\n  dup1\n  revert\ntag_1:\n  pop\n    /* \"casaApuestas.sol\":583:593  msg.sender */\n  caller\n    /* \"casaApuestas.sol\":571:580  anfitrion */\n  0x00\n  dup1\n    /* \"casaApuestas.sol\":571:593  anfitrion = msg.sender */\n  0x0100\n  exp\n  dup2\n  sload\n  dup2\n  0xffffffffffffffffffffffffffffffffffffffff\n  mul\n  not\n  and\n  swap1\n  dup4\n  0xffffffffffffffffffffffffffffffffffffffff\n  and\n  mul\n  or\n  swap1\n  sstore\n  pop\n    /* \"casaApuestas.sol\":26:2816  contract casaApuestas{... */\n  dataSize(sub_0)\n  dup1\n  dataOffset(sub_0)\n  0x00\n  codecopy\n  0x00\n  return\nstop\n\nsub_0: assembly {\n        /* \"casaApuestas.sol\":26:2816  contract casaApuestas{... */\n      mstore(0x40, 0x80)\n      callvalue\n      dup1\n      iszero\n      tag_1\n      jumpi\n      0x00\n      dup1\n      revert\n    tag_1:\n      pop\n      jumpi(tag_2, lt(calldatasize, 0x04))\n      shr(0xe0, calldataload(0x00))\n      dup1\n      0xe9ec5583\n      gt\n      tag_12\n      jumpi\n      dup1\n      0xe9ec5583\n      eq\n      tag_7\n      jumpi\n      dup1\n      0xf0b73b54\n      eq\n      tag_8\n      jumpi\n      dup1\n      0xf7edd6db\n      eq\n      tag_9\n      jumpi\n      dup1\n      0xf9d32e49\n      eq\n      tag_10\n      jumpi\n      dup1\n      0xfb34d0f7\n      eq\n      tag_11\n      jumpi\n      jump(tag_2)\n    tag_12:\n      dup1\n      0x456f4b57\n      eq\n      tag_3\n      jumpi\n      dup1\n      0x5194f59c\n      eq\n      tag_4\n      jumpi\n      dup1\n      0x5ee81666\n      eq\n      tag_5\n      jumpi\n      dup1\n      0xd75262f3\n      eq\n      tag_6\n      jumpi\n    tag_2:\n      0x00\n      dup1\n      revert\n        /* \"casaApuestas.sol\":54:78  address public anfitrion */\n    tag_3:\n      tag_13\n      tag_14\n      jump\t// in\n    tag_13:\n      mload(0x40)\n      tag_15\n      swap2\n      swap1\n      tag_16\n      jump\t// in\n    tag_15:\n      mload(0x40)\n      dup1\n      swap2\n      sub\n      swap1\n      return\n        /* \"casaApuestas.sol\":1803:1948  function registrarCaballo(uint _codigo, string memory _nombre) public isAnfitrion{... */\n    tag_4:\n      tag_17\n      0x04\n      dup1\n      calldatasize\n      sub\n      dup2\n      add\n      swap1\n      tag_18\n      swap2\n      swap1\n      tag_19\n      jump\t// in\n    tag_18:\n      tag_20\n      jump\t// in\n    tag_17:\n      stop\n        /* \"casaApuestas.sol\":134:174  mapping(uint => Carrera) public carreras */\n    tag_5:\n      tag_21\n      0x04\n      dup1\n      calldatasize\n      sub\n      dup2\n      add\n      swap1\n      tag_22\n      swap2\n      swap1\n      tag_23\n      jump\t// in\n    tag_22:\n      tag_24\n      jump\t// in\n    tag_21:\n      mload(0x40)\n      tag_25\n      swap4\n      swap3\n      swap2\n      swap1\n      tag_26\n      jump\t// in\n    tag_25:\n      mload(0x40)\n      dup1\n      swap2\n      sub\n      swap1\n      return\n        /* \"casaApuestas.sol\":1956:2601  function registrarEnCompetencia(uint _codCaballo, uint _codCarrera) public ... */\n    tag_6:\n      tag_27\n      0x04\n      dup1\n      calldatasize\n      sub\n      dup2\n      add\n      swap1\n      tag_28\n      swap2\n      swap1\n      tag_29\n      jump\t// in\n    tag_28:\n      tag_30\n      jump\t// in\n    tag_27:\n      stop\n        /* \"casaApuestas.sol\":272:297  uint public totalCarreras */\n    tag_7:\n      tag_31\n      tag_32\n      jump\t// in\n    tag_31:\n      mload(0x40)\n      tag_33\n      swap2\n      swap1\n      tag_34\n      jump\t// in\n    tag_33:\n      mload(0x40)\n      dup1\n      swap2\n      sub\n      swap1\n      return\n        /* \"casaApuestas.sol\":203:243  mapping(uint => Caballo) public caballos */\n    tag_8:\n      tag_35\n      0x04\n      dup1\n      calldatasize\n      sub\n      dup2\n      add\n      swap1\n      tag_36\n      swap2\n      swap1\n      tag_23\n      jump\t// in\n    tag_36:\n      tag_37\n      jump\t// in\n    tag_35:\n      mload(0x40)\n      tag_38\n      swap3\n      swap2\n      swap1\n      tag_39\n      jump\t// in\n    tag_38:\n      mload(0x40)\n      dup1\n      swap2\n      sub\n      swap1\n      return\n        /* \"casaApuestas.sol\":2609:2811  function registrarCarrera(uint _codCarrera) public ... */\n    tag_9:\n      tag_40\n      0x04\n      dup1\n      calldatasize\n      sub\n      dup2\n      add\n      swap1\n      tag_41\n      swap2\n      swap1\n      tag_23\n      jump\t// in\n    tag_41:\n      tag_42\n      jump\t// in\n    tag_40:\n      stop\n        /* \"casaApuestas.sol\":1610:1795  function crearCarrera(uint _codigo, string memory _nombre) public isAnfitrion{... */\n    tag_10:\n      tag_43\n      0x04\n      dup1\n      calldatasize\n      sub\n      dup2\n      add\n      swap1\n      tag_44\n      swap2\n      swap1\n      tag_19\n      jump\t// in\n    tag_44:\n      tag_45\n      jump\t// in\n    tag_43:\n      stop\n        /* \"casaApuestas.sol\":304:347  mapping(uint => uint[]) public competencias */\n    tag_11:\n      tag_46\n      0x04\n      dup1\n      calldatasize\n      sub\n      dup2\n      add\n      swap1\n      tag_47\n      swap2\n      swap1\n      tag_29\n      jump\t// in\n    tag_47:\n      tag_48\n      jump\t// in\n    tag_46:\n      mload(0x40)\n      tag_49\n      swap2\n      swap1\n      tag_34\n      jump\t// in\n    tag_49:\n      mload(0x40)\n      dup1\n      swap2\n      sub\n      swap1\n      return\n        /* \"casaApuestas.sol\":54:78  address public anfitrion */\n    tag_14:\n      0x00\n      dup1\n      sload\n      swap1\n      0x0100\n      exp\n      swap1\n      div\n      0xffffffffffffffffffffffffffffffffffffffff\n      and\n      dup2\n      jump\t// out\n        /* \"casaApuestas.sol\":1803:1948  function registrarCaballo(uint _codigo, string memory _nombre) public isAnfitrion{... */\n    tag_20:\n        /* \"casaApuestas.sol\":664:673  anfitrion */\n      0x00\n      dup1\n      sload\n      swap1\n      0x0100\n      exp\n      swap1\n      div\n      0xffffffffffffffffffffffffffffffffffffffff\n      and\n        /* \"casaApuestas.sol\":650:673  msg.sender == anfitrion */\n      0xffffffffffffffffffffffffffffffffffffffff\n      and\n        /* \"casaApuestas.sol\":650:660  msg.sender */\n      caller\n        /* \"casaApuestas.sol\":650:673  msg.sender == anfitrion */\n      0xffffffffffffffffffffffffffffffffffffffff\n      and\n      eq\n        /* \"casaApuestas.sol\":642:712  require(msg.sender == anfitrion, \"El invocador debe ser el anfitrion\") */\n      tag_51\n      jumpi\n      mload(0x40)\n      0x08c379a000000000000000000000000000000000000000000000000000000000\n      dup2\n      mstore\n      0x04\n      add\n      tag_52\n      swap1\n      tag_53\n      jump\t// in\n    tag_52:\n      mload(0x40)\n      dup1\n      swap2\n      sub\n      swap1\n      revert\n    tag_51:\n        /* \"casaApuestas.sol\":1915:1940  Caballo(_codigo, _nombre) */\n      mload(0x40)\n      dup1\n      0x40\n      add\n      0x40\n      mstore\n      dup1\n        /* \"casaApuestas.sol\":1923:1930  _codigo */\n      dup4\n        /* \"casaApuestas.sol\":1915:1940  Caballo(_codigo, _nombre) */\n      dup2\n      mstore\n      0x20\n      add\n        /* \"casaApuestas.sol\":1932:1939  _nombre */\n      dup3\n        /* \"casaApuestas.sol\":1915:1940  Caballo(_codigo, _nombre) */\n      dup2\n      mstore\n      pop\n        /* \"casaApuestas.sol\":1895:1903  caballos */\n      0x02\n        /* \"casaApuestas.sol\":1895:1912  caballos[_codigo] */\n      0x00\n        /* \"casaApuestas.sol\":1904:1911  _codigo */\n      dup5\n        /* \"casaApuestas.sol\":1895:1912  caballos[_codigo] */\n      dup2\n      mstore\n      0x20\n      add\n      swap1\n      dup2\n      mstore\n      0x20\n      add\n      0x00\n      keccak256\n        /* \"casaApuestas.sol\":1895:1940  caballos[_codigo] = Caballo(_codigo, _nombre) */\n      0x00\n      dup3\n      add\n      mload\n      dup2\n      0x00\n      add\n      sstore\n      0x20\n      dup3\n      add\n      mload\n      dup2\n      0x01\n      add\n      swap1\n      dup2\n      tag_55\n      swap2\n      swap1\n      tag_56\n      jump\t// in\n    tag_55:\n      pop\n      swap1\n      pop\n      pop\n        /* \"casaApuestas.sol\":1803:1948  function registrarCaballo(uint _codigo, string memory _nombre) public isAnfitrion{... */\n      pop\n      pop\n      jump\t// out\n        /* \"casaApuestas.sol\":134:174  mapping(uint => Carrera) public carreras */\n    tag_24:\n      mstore(0x20, 0x01)\n      dup1\n      0x00\n      mstore\n      keccak256(0x00, 0x40)\n      0x00\n      swap2\n      pop\n      swap1\n      pop\n      dup1\n      0x00\n      add\n      sload\n      swap1\n      dup1\n      0x01\n      add\n      dup1\n      sload\n      tag_57\n      swap1\n      tag_58\n      jump\t// in\n    tag_57:\n      dup1\n      0x1f\n      add\n      0x20\n      dup1\n      swap2\n      div\n      mul\n      0x20\n      add\n      mload(0x40)\n      swap1\n      dup2\n      add\n      0x40\n      mstore\n      dup1\n      swap3\n      swap2\n      swap1\n      dup2\n      dup2\n      mstore\n      0x20\n      add\n      dup3\n      dup1\n      sload\n      tag_59\n      swap1\n      tag_58\n      jump\t// in\n    tag_59:\n      dup1\n      iszero\n      tag_60\n      jumpi\n      dup1\n      0x1f\n      lt\n      tag_61\n      jumpi\n      0x0100\n      dup1\n      dup4\n      sload\n      div\n      mul\n      dup4\n      mstore\n      swap2\n      0x20\n      add\n      swap2\n      jump(tag_60)\n    tag_61:\n      dup3\n      add\n      swap2\n      swap1\n      0x00\n      mstore\n      keccak256(0x00, 0x20)\n      swap1\n    tag_62:\n      dup2\n      sload\n      dup2\n      mstore\n      swap1\n      0x01\n      add\n      swap1\n      0x20\n      add\n      dup1\n      dup4\n      gt\n      tag_62\n      jumpi\n      dup3\n      swap1\n      sub\n      0x1f\n      and\n      dup3\n      add\n      swap2\n    tag_60:\n      pop\n      pop\n      pop\n      pop\n      pop\n      swap1\n      dup1\n      0x02\n      add\n      0x00\n      swap1\n      sload\n      swap1\n      0x0100\n      exp\n      swap1\n      div\n      0xff\n      and\n      swap1\n      pop\n      dup4\n      jump\t// out\n        /* \"casaApuestas.sol\":1956:2601  function registrarEnCompetencia(uint _codCaballo, uint _codCarrera) public ... */\n    tag_30:\n        /* \"casaApuestas.sol\":664:673  anfitrion */\n      0x00\n      dup1\n      sload\n      swap1\n      0x0100\n      exp\n      swap1\n      div\n      0xffffffffffffffffffffffffffffffffffffffff\n      and\n        /* \"casaApuestas.sol\":650:673  msg.sender == anfitrion */\n      0xffffffffffffffffffffffffffffffffffffffff\n      and\n        /* \"casaApuestas.sol\":650:660  msg.sender */\n      caller\n        /* \"casaApuestas.sol\":650:673  msg.sender == anfitrion */\n      0xffffffffffffffffffffffffffffffffffffffff\n      and\n      eq\n        /* \"casaApuestas.sol\":642:712  require(msg.sender == anfitrion, \"El invocador debe ser el anfitrion\") */\n      tag_64\n      jumpi\n      mload(0x40)\n      0x08c379a000000000000000000000000000000000000000000000000000000000\n      dup2\n      mstore\n      0x04\n      add\n      tag_65\n      swap1\n      tag_53\n      jump\t// in\n    tag_65:\n      mload(0x40)\n      dup1\n      swap2\n      sub\n      swap1\n      revert\n    tag_64:\n        /* \"casaApuestas.sol\":2064:2075  _codCarrera */\n      dup1\n        /* \"casaApuestas.sol\":2077:2090  Estado.Creada */\n      0x00\n        /* \"casaApuestas.sol\":850:857  _estado */\n      dup1\n        /* \"casaApuestas.sol\":811:857  carreras[_codCarrera].estadoCarrera == _estado */\n      0x02\n      dup2\n      gt\n      iszero\n      tag_67\n      jumpi\n      tag_68\n      tag_69\n      jump\t// in\n    tag_68:\n    tag_67:\n        /* \"casaApuestas.sol\":811:819  carreras */\n      0x01\n        /* \"casaApuestas.sol\":811:832  carreras[_codCarrera] */\n      0x00\n        /* \"casaApuestas.sol\":820:831  _codCarrera */\n      dup5\n        /* \"casaApuestas.sol\":811:832  carreras[_codCarrera] */\n      dup2\n      mstore\n      0x20\n      add\n      swap1\n      dup2\n      mstore\n      0x20\n      add\n      0x00\n      keccak256\n        /* \"casaApuestas.sol\":811:846  carreras[_codCarrera].estadoCarrera */\n      0x02\n      add\n      0x00\n      swap1\n      sload\n      swap1\n      0x0100\n      exp\n      swap1\n      div\n      0xff\n      and\n        /* \"casaApuestas.sol\":811:857  carreras[_codCarrera].estadoCarrera == _estado */\n      0x02\n      dup2\n      gt\n      iszero\n      tag_70\n      jumpi\n      tag_71\n      tag_69\n      jump\t// in\n    tag_71:\n    tag_70:\n      eq\n        /* \"casaApuestas.sol\":803:906  require(carreras[_codCarrera].estadoCarrera == _estado, \"La carrera no cumple con el estado requerido\") */\n      tag_72\n      jumpi\n      mload(0x40)\n      0x08c379a000000000000000000000000000000000000000000000000000000000\n      dup2\n      mstore\n      0x04\n      add\n      tag_73\n      swap1\n      tag_74\n      jump\t// in\n    tag_73:\n      mload(0x40)\n      dup1\n      swap2\n      sub\n      swap1\n      revert\n    tag_72:\n        /* \"casaApuestas.sol\":2107:2118  _codCarrera */\n      dup3\n        /* \"casaApuestas.sol\":1028:1029  5 */\n      0x05\n        /* \"casaApuestas.sol\":993:1005  competencias */\n      0x04\n        /* \"casaApuestas.sol\":993:1018  competencias[_codCarrera] */\n      0x00\n        /* \"casaApuestas.sol\":1006:1017  _codCarrera */\n      dup4\n        /* \"casaApuestas.sol\":993:1018  competencias[_codCarrera] */\n      dup2\n      mstore\n      0x20\n      add\n      swap1\n      dup2\n      mstore\n      0x20\n      add\n      0x00\n      keccak256\n        /* \"casaApuestas.sol\":993:1025  competencias[_codCarrera].length */\n      dup1\n      sload\n      swap1\n      pop\n        /* \"casaApuestas.sol\":993:1029  competencias[_codCarrera].length < 5 */\n      lt\n        /* \"casaApuestas.sol\":985:1069  require(competencias[_codCarrera].length < 5, \"La carrera ya cuenta con 5 caballos\") */\n      tag_76\n      jumpi\n      mload(0x40)\n      0x08c379a000000000000000000000000000000000000000000000000000000000\n      dup2\n      mstore\n      0x04\n      add\n      tag_77\n      swap1\n      tag_78\n      jump\t// in\n    tag_77:\n      mload(0x40)\n      dup1\n      swap2\n      sub\n      swap1\n      revert\n    tag_76:\n        /* \"casaApuestas.sol\":2139:2150  _codCaballo */\n      dup5\n        /* \"casaApuestas.sol\":1373:1374  0 */\n      0x00\n        /* \"casaApuestas.sol\":1333:1341  caballos */\n      0x02\n        /* \"casaApuestas.sol\":1333:1354  caballos[_codCaballo] */\n      0x00\n        /* \"casaApuestas.sol\":1342:1353  _codCaballo */\n      dup4\n        /* \"casaApuestas.sol\":1333:1354  caballos[_codCaballo] */\n      dup2\n      mstore\n      0x20\n      add\n      swap1\n      dup2\n      mstore\n      0x20\n      add\n      0x00\n      keccak256\n        /* \"casaApuestas.sol\":1333:1361  caballos[_codCaballo].nombre */\n      0x01\n      add\n        /* \"casaApuestas.sol\":1327:1369  bytes(caballos[_codCaballo].nombre).length */\n      dup1\n      sload\n      tag_80\n      swap1\n      tag_58\n      jump\t// in\n    tag_80:\n      swap1\n      pop\n        /* \"casaApuestas.sol\":1327:1374  bytes(caballos[_codCaballo].nombre).length != 0 */\n      sub\n        /* \"casaApuestas.sol\":1319:1409  require(bytes(caballos[_codCaballo].nombre).length != 0, \"El caballo ingresado no existe\") */\n      tag_81\n      jumpi\n      mload(0x40)\n      0x08c379a000000000000000000000000000000000000000000000000000000000\n      dup2\n      mstore\n      0x04\n      add\n      tag_82\n      swap1\n      tag_83\n      jump\t// in\n    tag_82:\n      mload(0x40)\n      dup1\n      swap2\n      sub\n      swap1\n      revert\n    tag_81:\n        /* \"casaApuestas.sol\":2171:2182  _codCarrera */\n      dup5\n        /* \"casaApuestas.sol\":1542:1543  0 */\n      0x00\n        /* \"casaApuestas.sol\":1502:1510  caballos */\n      0x02\n        /* \"casaApuestas.sol\":1502:1523  caballos[_codCarrera] */\n      0x00\n        /* \"casaApuestas.sol\":1511:1522  _codCarrera */\n      dup4\n        /* \"casaApuestas.sol\":1502:1523  caballos[_codCarrera] */\n      dup2\n      mstore\n      0x20\n      add\n      swap1\n      dup2\n      mstore\n      0x20\n      add\n      0x00\n      keccak256\n        /* \"casaApuestas.sol\":1502:1530  caballos[_codCarrera].nombre */\n      0x01\n      add\n        /* \"casaApuestas.sol\":1496:1538  bytes(caballos[_codCarrera].nombre).length */\n      dup1\n      sload\n      tag_85\n      swap1\n      tag_58\n      jump\t// in\n    tag_85:\n      swap1\n      pop\n        /* \"casaApuestas.sol\":1496:1543  bytes(caballos[_codCarrera].nombre).length != 0 */\n      sub\n        /* \"casaApuestas.sol\":1488:1578  require(bytes(caballos[_codCarrera].nombre).length != 0, \"La carrera ingresada no existe\") */\n      tag_86\n      jumpi\n      mload(0x40)\n      0x08c379a000000000000000000000000000000000000000000000000000000000\n      dup2\n      mstore\n      0x04\n      add\n      tag_87\n      swap1\n      tag_88\n      jump\t// in\n    tag_87:\n      mload(0x40)\n      dup1\n      swap2\n      sub\n      swap1\n      revert\n    tag_86:\n        /* \"casaApuestas.sol\":2495:2507  competencias */\n      0x04\n        /* \"casaApuestas.sol\":2495:2520  competencias[_codCarrera] */\n      0x00\n        /* \"casaApuestas.sol\":2508:2519  _codCarrera */\n      dup8\n        /* \"casaApuestas.sol\":2495:2520  competencias[_codCarrera] */\n      dup2\n      mstore\n      0x20\n      add\n      swap1\n      dup2\n      mstore\n      0x20\n      add\n      0x00\n      keccak256\n        /* \"casaApuestas.sol\":2526:2537  _codCaballo */\n      dup8\n        /* \"casaApuestas.sol\":2495:2538  competencias[_codCarrera].push(_codCaballo) */\n      swap1\n      dup1\n      0x01\n      dup2\n      sload\n      add\n      dup1\n      dup3\n      sstore\n      dup1\n      swap2\n      pop\n      pop\n      0x01\n      swap1\n      sub\n      swap1\n      0x00\n      mstore\n      keccak256(0x00, 0x20)\n      add\n      0x00\n      swap1\n      swap2\n      swap1\n      swap2\n      swap1\n      swap2\n      pop\n      sstore\n        /* \"casaApuestas.sol\":1420:1421  _ */\n      pop\n        /* \"casaApuestas.sol\":1080:1081  _ */\n      pop\n        /* \"casaApuestas.sol\":917:918  _ */\n      pop\n        /* \"casaApuestas.sol\":723:724  _ */\n      pop\n      pop\n        /* \"casaApuestas.sol\":1956:2601  function registrarEnCompetencia(uint _codCaballo, uint _codCarrera) public ... */\n      pop\n      pop\n      jump\t// out\n        /* \"casaApuestas.sol\":272:297  uint public totalCarreras */\n    tag_32:\n      sload(0x03)\n      dup2\n      jump\t// out\n        /* \"casaApuestas.sol\":203:243  mapping(uint => Caballo) public caballos */\n    tag_37:\n      mstore(0x20, 0x02)\n      dup1\n      0x00\n      mstore\n      keccak256(0x00, 0x40)\n      0x00\n      swap2\n      pop\n      swap1\n      pop\n      dup1\n      0x00\n      add\n      sload\n      swap1\n      dup1\n      0x01\n      add\n      dup1\n      sload\n      tag_91\n      swap1\n      tag_58\n      jump\t// in\n    tag_91:\n      dup1\n      0x1f\n      add\n      0x20\n      dup1\n      swap2\n      div\n      mul\n      0x20\n      add\n      mload(0x40)\n      swap1\n      dup2\n      add\n      0x40\n      mstore\n      dup1\n      swap3\n      swap2\n      swap1\n      dup2\n      dup2\n      mstore\n      0x20\n      add\n      dup3\n      dup1\n      sload\n      tag_92\n      swap1\n      tag_58\n      jump\t// in\n    tag_92:\n      dup1\n      iszero\n      tag_93\n      jumpi\n      dup1\n      0x1f\n      lt\n      tag_94\n      jumpi\n      0x0100\n      dup1\n      dup4\n      sload\n      div\n      mul\n      dup4\n      mstore\n      swap2\n      0x20\n      add\n      swap2\n      jump(tag_93)\n    tag_94:\n      dup3\n      add\n      swap2\n      swap1\n      0x00\n      mstore\n      keccak256(0x00, 0x20)\n      swap1\n    tag_95:\n      dup2\n      sload\n      dup2\n      mstore\n      swap1\n      0x01\n      add\n      swap1\n      0x20\n      add\n      dup1\n      dup4\n      gt\n      tag_95\n      jumpi\n      dup3\n      swap1\n      sub\n      0x1f\n      and\n      dup3\n      add\n      swap2\n    tag_93:\n      pop\n      pop\n      pop\n      pop\n      pop\n      swap1\n      pop\n      dup3\n      jump\t// out\n        /* \"casaApuestas.sol\":2609:2811  function registrarCarrera(uint _codCarrera) public ... */\n    tag_42:\n        /* \"casaApuestas.sol\":664:673  anfitrion */\n      0x00\n      dup1\n      sload\n      swap1\n      0x0100\n      exp\n      swap1\n      div\n      0xffffffffffffffffffffffffffffffffffffffff\n      and\n        /* \"casaApuestas.sol\":650:673  msg.sender == anfitrion */\n      0xffffffffffffffffffffffffffffffffffffffff\n      and\n        /* \"casaApuestas.sol\":650:660  msg.sender */\n      caller\n        /* \"casaApuestas.sol\":650:673  msg.sender == anfitrion */\n      0xffffffffffffffffffffffffffffffffffffffff\n      and\n      eq\n        /* \"casaApuestas.sol\":642:712  require(msg.sender == anfitrion, \"El invocador debe ser el anfitrion\") */\n      tag_97\n      jumpi\n      mload(0x40)\n      0x08c379a000000000000000000000000000000000000000000000000000000000\n      dup2\n      mstore\n      0x04\n      add\n      tag_98\n      swap1\n      tag_53\n      jump\t// in\n    tag_98:\n      mload(0x40)\n      dup1\n      swap2\n      sub\n      swap1\n      revert\n    tag_97:\n        /* \"casaApuestas.sol\":2697:2708  _codCarrera */\n      dup1\n        /* \"casaApuestas.sol\":1542:1543  0 */\n      0x00\n        /* \"casaApuestas.sol\":1502:1510  caballos */\n      0x02\n        /* \"casaApuestas.sol\":1502:1523  caballos[_codCarrera] */\n      0x00\n        /* \"casaApuestas.sol\":1511:1522  _codCarrera */\n      dup4\n        /* \"casaApuestas.sol\":1502:1523  caballos[_codCarrera] */\n      dup2\n      mstore\n      0x20\n      add\n      swap1\n      dup2\n      mstore\n      0x20\n      add\n      0x00\n      keccak256\n        /* \"casaApuestas.sol\":1502:1530  caballos[_codCarrera].nombre */\n      0x01\n      add\n        /* \"casaApuestas.sol\":1496:1538  bytes(caballos[_codCarrera].nombre).length */\n      dup1\n      sload\n      tag_100\n      swap1\n      tag_58\n      jump\t// in\n    tag_100:\n      swap1\n      pop\n        /* \"casaApuestas.sol\":1496:1543  bytes(caballos[_codCarrera].nombre).length != 0 */\n      sub\n        /* \"casaApuestas.sol\":1488:1578  require(bytes(caballos[_codCarrera].nombre).length != 0, \"La carrera ingresada no existe\") */\n      tag_101\n      jumpi\n      mload(0x40)\n      0x08c379a000000000000000000000000000000000000000000000000000000000\n      dup2\n      mstore\n      0x04\n      add\n      tag_102\n      swap1\n      tag_88\n      jump\t// in\n    tag_102:\n      mload(0x40)\n      dup1\n      swap2\n      sub\n      swap1\n      revert\n    tag_101:\n        /* \"casaApuestas.sol\":2725:2736  _codCarrera */\n      dup2\n        /* \"casaApuestas.sol\":1188:1189  2 */\n      0x02\n        /* \"casaApuestas.sol\":1152:1164  competencias */\n      0x04\n        /* \"casaApuestas.sol\":1152:1177  competencias[_codCarrera] */\n      0x00\n        /* \"casaApuestas.sol\":1165:1176  _codCarrera */\n      dup4\n        /* \"casaApuestas.sol\":1152:1177  competencias[_codCarrera] */\n      dup2\n      mstore\n      0x20\n      add\n      swap1\n      dup2\n      mstore\n      0x20\n      add\n      0x00\n      keccak256\n        /* \"casaApuestas.sol\":1152:1184  competencias[_codCarrera].length */\n      dup1\n      sload\n      swap1\n      pop\n        /* \"casaApuestas.sol\":1152:1189  competencias[_codCarrera].length >= 2 */\n      lt\n      iszero\n        /* \"casaApuestas.sol\":1144:1240  require(competencias[_codCarrera].length >= 2, \"La carrera debe contar con al menos 2 caballos\") */\n      tag_104\n      jumpi\n      mload(0x40)\n      0x08c379a000000000000000000000000000000000000000000000000000000000\n      dup2\n      mstore\n      0x04\n      add\n      tag_105\n      swap1\n      tag_106\n      jump\t// in\n    tag_105:\n      mload(0x40)\n      dup1\n      swap2\n      sub\n      swap1\n      revert\n    tag_104:\n        /* \"casaApuestas.sol\":2786:2803  Estado.Registrada */\n      0x01\n        /* \"casaApuestas.sol\":2748:2756  carreras */\n      dup1\n        /* \"casaApuestas.sol\":2748:2769  carreras[_codCarrera] */\n      0x00\n        /* \"casaApuestas.sol\":2757:2768  _codCarrera */\n      dup6\n        /* \"casaApuestas.sol\":2748:2769  carreras[_codCarrera] */\n      dup2\n      mstore\n      0x20\n      add\n      swap1\n      dup2\n      mstore\n      0x20\n      add\n      0x00\n      keccak256\n        /* \"casaApuestas.sol\":2748:2783  carreras[_codCarrera].estadoCarrera */\n      0x02\n      add\n      0x00\n        /* \"casaApuestas.sol\":2748:2803  carreras[_codCarrera].estadoCarrera = Estado.Registrada */\n      0x0100\n      exp\n      dup2\n      sload\n      dup2\n      0xff\n      mul\n      not\n      and\n      swap1\n      dup4\n      0x02\n      dup2\n      gt\n      iszero\n      tag_108\n      jumpi\n      tag_109\n      tag_69\n      jump\t// in\n    tag_109:\n    tag_108:\n      mul\n      or\n      swap1\n      sstore\n      pop\n        /* \"casaApuestas.sol\":1589:1590  _ */\n      pop\n        /* \"casaApuestas.sol\":723:724  _ */\n      pop\n        /* \"casaApuestas.sol\":2609:2811  function registrarCarrera(uint _codCarrera) public ... */\n      pop\n      jump\t// out\n        /* \"casaApuestas.sol\":1610:1795  function crearCarrera(uint _codigo, string memory _nombre) public isAnfitrion{... */\n    tag_45:\n        /* \"casaApuestas.sol\":664:673  anfitrion */\n      0x00\n      dup1\n      sload\n      swap1\n      0x0100\n      exp\n      swap1\n      div\n      0xffffffffffffffffffffffffffffffffffffffff\n      and\n        /* \"casaApuestas.sol\":650:673  msg.sender == anfitrion */\n      0xffffffffffffffffffffffffffffffffffffffff\n      and\n        /* \"casaApuestas.sol\":650:660  msg.sender */\n      caller\n        /* \"casaApuestas.sol\":650:673  msg.sender == anfitrion */\n      0xffffffffffffffffffffffffffffffffffffffff\n      and\n      eq\n        /* \"casaApuestas.sol\":642:712  require(msg.sender == anfitrion, \"El invocador debe ser el anfitrion\") */\n      tag_111\n      jumpi\n      mload(0x40)\n      0x08c379a000000000000000000000000000000000000000000000000000000000\n      dup2\n      mstore\n      0x04\n      add\n      tag_112\n      swap1\n      tag_53\n      jump\t// in\n    tag_112:\n      mload(0x40)\n      dup1\n      swap2\n      sub\n      swap1\n      revert\n    tag_111:\n        /* \"casaApuestas.sol\":1718:1758  Carrera(_codigo, _nombre, Estado.Creada) */\n      mload(0x40)\n      dup1\n      0x60\n      add\n      0x40\n      mstore\n      dup1\n        /* \"casaApuestas.sol\":1726:1733  _codigo */\n      dup4\n        /* \"casaApuestas.sol\":1718:1758  Carrera(_codigo, _nombre, Estado.Creada) */\n      dup2\n      mstore\n      0x20\n      add\n        /* \"casaApuestas.sol\":1735:1742  _nombre */\n      dup3\n        /* \"casaApuestas.sol\":1718:1758  Carrera(_codigo, _nombre, Estado.Creada) */\n      dup2\n      mstore\n      0x20\n      add\n        /* \"casaApuestas.sol\":1744:1757  Estado.Creada */\n      0x00\n        /* \"casaApuestas.sol\":1718:1758  Carrera(_codigo, _nombre, Estado.Creada) */\n      0x02\n      dup2\n      gt\n      iszero\n      tag_114\n      jumpi\n      tag_115\n      tag_69\n      jump\t// in\n    tag_115:\n    tag_114:\n      dup2\n      mstore\n      pop\n        /* \"casaApuestas.sol\":1698:1706  carreras */\n      0x01\n        /* \"casaApuestas.sol\":1698:1715  carreras[_codigo] */\n      0x00\n        /* \"casaApuestas.sol\":1707:1714  _codigo */\n      dup5\n        /* \"casaApuestas.sol\":1698:1715  carreras[_codigo] */\n      dup2\n      mstore\n      0x20\n      add\n      swap1\n      dup2\n      mstore\n      0x20\n      add\n      0x00\n      keccak256\n        /* \"casaApuestas.sol\":1698:1758  carreras[_codigo] = Carrera(_codigo, _nombre, Estado.Creada) */\n      0x00\n      dup3\n      add\n      mload\n      dup2\n      0x00\n      add\n      sstore\n      0x20\n      dup3\n      add\n      mload\n      dup2\n      0x01\n      add\n      swap1\n      dup2\n      tag_116\n      swap2\n      swap1\n      tag_56\n      jump\t// in\n    tag_116:\n      pop\n      0x40\n      dup3\n      add\n      mload\n      dup2\n      0x02\n      add\n      exp(0x0100, 0x00)\n      dup2\n      sload\n      dup2\n      0xff\n      mul\n      not\n      and\n      swap1\n      dup4\n      0x02\n      dup2\n      gt\n      iszero\n      tag_117\n      jumpi\n      tag_118\n      tag_69\n      jump\t// in\n    tag_118:\n    tag_117:\n      mul\n      or\n      swap1\n      sstore\n      pop\n      swap1\n      pop\n      pop\n        /* \"casaApuestas.sol\":1786:1787  1 */\n      0x01\n        /* \"casaApuestas.sol\":1769:1782  totalCarreras */\n      0x03\n      0x00\n        /* \"casaApuestas.sol\":1769:1787  totalCarreras += 1 */\n      dup3\n      dup3\n      sload\n      tag_119\n      swap2\n      swap1\n      tag_120\n      jump\t// in\n    tag_119:\n      swap3\n      pop\n      pop\n      dup2\n      swap1\n      sstore\n      pop\n        /* \"casaApuestas.sol\":1610:1795  function crearCarrera(uint _codigo, string memory _nombre) public isAnfitrion{... */\n      pop\n      pop\n      jump\t// out\n        /* \"casaApuestas.sol\":304:347  mapping(uint => uint[]) public competencias */\n    tag_48:\n      mstore(0x20, 0x04)\n      dup2\n      0x00\n      mstore\n      keccak256(0x00, 0x40)\n      dup2\n      dup2\n      sload\n      dup2\n      lt\n      tag_121\n      jumpi\n      0x00\n      dup1\n      revert\n    tag_121:\n      swap1\n      0x00\n      mstore\n      keccak256(0x00, 0x20)\n      add\n      0x00\n      swap2\n      pop\n      swap2\n      pop\n      pop\n      sload\n      dup2\n      jump\t// out\n        /* \"#utility.yul\":7:133   */\n    tag_123:\n        /* \"#utility.yul\":44:51   */\n      0x00\n        /* \"#utility.yul\":84:126   */\n      0xffffffffffffffffffffffffffffffffffffffff\n        /* \"#utility.yul\":77:82   */\n      dup3\n        /* \"#utility.yul\":73:127   */\n      and\n        /* \"#utility.yul\":62:127   */\n      swap1\n      pop\n        /* \"#utility.yul\":7:133   */\n      swap2\n      swap1\n      pop\n      jump\t// out\n        /* \"#utility.yul\":139:235   */\n    tag_124:\n        /* \"#utility.yul\":176:183   */\n      0x00\n        /* \"#utility.yul\":205:229   */\n      tag_183\n        /* \"#utility.yul\":223:228   */\n      dup3\n        /* \"#utility.yul\":205:229   */\n      tag_123\n      jump\t// in\n    tag_183:\n        /* \"#utility.yul\":194:229   */\n      swap1\n      pop\n        /* \"#utility.yul\":139:235   */\n      swap2\n      swap1\n      pop\n      jump\t// out\n        /* \"#utility.yul\":241:359   */\n    tag_125:\n        /* \"#utility.yul\":328:352   */\n      tag_185\n        /* \"#utility.yul\":346:351   */\n      dup2\n        /* \"#utility.yul\":328:352   */\n      tag_124\n      jump\t// in\n    tag_185:\n        /* \"#utility.yul\":323:326   */\n      dup3\n        /* \"#utility.yul\":316:353   */\n      mstore\n        /* \"#utility.yul\":241:359   */\n      pop\n      pop\n      jump\t// out\n        /* \"#utility.yul\":365:587   */\n    tag_16:\n        /* \"#utility.yul\":458:462   */\n      0x00\n        /* \"#utility.yul\":496:498   */\n      0x20\n        /* \"#utility.yul\":485:494   */\n      dup3\n        /* \"#utility.yul\":481:499   */\n      add\n        /* \"#utility.yul\":473:499   */\n      swap1\n      pop\n        /* \"#utility.yul\":509:580   */\n      tag_187\n        /* \"#utility.yul\":577:578   */\n      0x00\n        /* \"#utility.yul\":566:575   */\n      dup4\n        /* \"#utility.yul\":562:579   */\n      add\n        /* \"#utility.yul\":553:559   */\n      dup5\n        /* \"#utility.yul\":509:580   */\n      tag_125\n      jump\t// in\n    tag_187:\n        /* \"#utility.yul\":365:587   */\n      swap3\n      swap2\n      pop\n      pop\n      jump\t// out\n        /* \"#utility.yul\":593:668   */\n    tag_126:\n        /* \"#utility.yul\":626:632   */\n      0x00\n        /* \"#utility.yul\":659:661   */\n      0x40\n        /* \"#utility.yul\":653:662   */\n      mload\n        /* \"#utility.yul\":643:662   */\n      swap1\n      pop\n        /* \"#utility.yul\":593:668   */\n      swap1\n      jump\t// out\n        /* \"#utility.yul\":674:791   */\n    tag_127:\n        /* \"#utility.yul\":783:784   */\n      0x00\n        /* \"#utility.yul\":780:781   */\n      dup1\n        /* \"#utility.yul\":773:785   */\n      revert\n        /* \"#utility.yul\":797:914   */\n    tag_128:\n        /* \"#utility.yul\":906:907   */\n      0x00\n        /* \"#utility.yul\":903:904   */\n      dup1\n        /* \"#utility.yul\":896:908   */\n      revert\n        /* \"#utility.yul\":920:997   */\n    tag_129:\n        /* \"#utility.yul\":957:964   */\n      0x00\n        /* \"#utility.yul\":986:991   */\n      dup2\n        /* \"#utility.yul\":975:991   */\n      swap1\n      pop\n        /* \"#utility.yul\":920:997   */\n      swap2\n      swap1\n      pop\n      jump\t// out\n        /* \"#utility.yul\":1003:1125   */\n    tag_130:\n        /* \"#utility.yul\":1076:1100   */\n      tag_193\n        /* \"#utility.yul\":1094:1099   */\n      dup2\n        /* \"#utility.yul\":1076:1100   */\n      tag_129\n      jump\t// in\n    tag_193:\n        /* \"#utility.yul\":1069:1074   */\n      dup2\n        /* \"#utility.yul\":1066:1101   */\n      eq\n        /* \"#utility.yul\":1056:1119   */\n      tag_194\n      jumpi\n        /* \"#utility.yul\":1115:1116   */\n      0x00\n        /* \"#utility.yul\":1112:1113   */\n      dup1\n        /* \"#utility.yul\":1105:1117   */\n      revert\n        /* \"#utility.yul\":1056:1119   */\n    tag_194:\n        /* \"#utility.yul\":1003:1125   */\n      pop\n      jump\t// out\n        /* \"#utility.yul\":1131:1270   */\n    tag_131:\n        /* \"#utility.yul\":1177:1182   */\n      0x00\n        /* \"#utility.yul\":1215:1221   */\n      dup2\n        /* \"#utility.yul\":1202:1222   */\n      calldataload\n        /* \"#utility.yul\":1193:1222   */\n      swap1\n      pop\n        /* \"#utility.yul\":1231:1264   */\n      tag_196\n        /* \"#utility.yul\":1258:1263   */\n      dup2\n        /* \"#utility.yul\":1231:1264   */\n      tag_130\n      jump\t// in\n    tag_196:\n        /* \"#utility.yul\":1131:1270   */\n      swap3\n      swap2\n      pop\n      pop\n      jump\t// out\n        /* \"#utility.yul\":1276:1393   */\n    tag_132:\n        /* \"#utility.yul\":1385:1386   */\n      0x00\n        /* \"#utility.yul\":1382:1383   */\n      dup1\n        /* \"#utility.yul\":1375:1387   */\n      revert\n        /* \"#utility.yul\":1399:1516   */\n    tag_133:\n        /* \"#utility.yul\":1508:1509   */\n      0x00\n        /* \"#utility.yul\":1505:1506   */\n      dup1\n        /* \"#utility.yul\":1498:1510   */\n      revert\n        /* \"#utility.yul\":1522:1624   */\n    tag_134:\n        /* \"#utility.yul\":1563:1569   */\n      0x00\n        /* \"#utility.yul\":1614:1616   */\n      0x1f\n        /* \"#utility.yul\":1610:1617   */\n      not\n        /* \"#utility.yul\":1605:1607   */\n      0x1f\n        /* \"#utility.yul\":1598:1603   */\n      dup4\n        /* \"#utility.yul\":1594:1608   */\n      add\n        /* \"#utility.yul\":1590:1618   */\n      and\n        /* \"#utility.yul\":1580:1618   */\n      swap1\n      pop\n        /* \"#utility.yul\":1522:1624   */\n      swap2\n      swap1\n      pop\n      jump\t// out\n        /* \"#utility.yul\":1630:1810   */\n    tag_135:\n        /* \"#utility.yul\":1678:1755   */\n      0x4e487b7100000000000000000000000000000000000000000000000000000000\n        /* \"#utility.yul\":1675:1676   */\n      0x00\n        /* \"#utility.yul\":1668:1756   */\n      mstore\n        /* \"#utility.yul\":1775:1779   */\n      0x41\n        /* \"#utility.yul\":1772:1773   */\n      0x04\n        /* \"#utility.yul\":1765:1780   */\n      mstore\n        /* \"#utility.yul\":1799:1803   */\n      0x24\n        /* \"#utility.yul\":1796:1797   */\n      0x00\n        /* \"#utility.yul\":1789:1804   */\n      revert\n        /* \"#utility.yul\":1816:2097   */\n    tag_136:\n        /* \"#utility.yul\":1899:1926   */\n      tag_202\n        /* \"#utility.yul\":1921:1925   */\n      dup3\n        /* \"#utility.yul\":1899:1926   */\n      tag_134\n      jump\t// in\n    tag_202:\n        /* \"#utility.yul\":1891:1897   */\n      dup2\n        /* \"#utility.yul\":1887:1927   */\n      add\n        /* \"#utility.yul\":2029:2035   */\n      dup2\n        /* \"#utility.yul\":2017:2027   */\n      dup2\n        /* \"#utility.yul\":2014:2036   */\n      lt\n        /* \"#utility.yul\":1993:2011   */\n      0xffffffffffffffff\n        /* \"#utility.yul\":1981:1991   */\n      dup3\n        /* \"#utility.yul\":1978:2012   */\n      gt\n        /* \"#utility.yul\":1975:2037   */\n      or\n        /* \"#utility.yul\":1972:2060   */\n      iszero\n      tag_203\n      jumpi\n        /* \"#utility.yul\":2040:2058   */\n      tag_204\n      tag_135\n      jump\t// in\n    tag_204:\n        /* \"#utility.yul\":1972:2060   */\n    tag_203:\n        /* \"#utility.yul\":2080:2090   */\n      dup1\n        /* \"#utility.yul\":2076:2078   */\n      0x40\n        /* \"#utility.yul\":2069:2091   */\n      mstore\n        /* \"#utility.yul\":1859:2097   */\n      pop\n        /* \"#utility.yul\":1816:2097   */\n      pop\n      pop\n      jump\t// out\n        /* \"#utility.yul\":2103:2232   */\n    tag_137:\n        /* \"#utility.yul\":2137:2143   */\n      0x00\n        /* \"#utility.yul\":2164:2184   */\n      tag_206\n      tag_126\n      jump\t// in\n    tag_206:\n        /* \"#utility.yul\":2154:2184   */\n      swap1\n      pop\n        /* \"#utility.yul\":2193:2226   */\n      tag_207\n        /* \"#utility.yul\":2221:2225   */\n      dup3\n        /* \"#utility.yul\":2213:2219   */\n      dup3\n        /* \"#utility.yul\":2193:2226   */\n      tag_136\n      jump\t// in\n    tag_207:\n        /* \"#utility.yul\":2103:2232   */\n      swap2\n      swap1\n      pop\n      jump\t// out\n        /* \"#utility.yul\":2238:2546   */\n    tag_138:\n        /* \"#utility.yul\":2300:2304   */\n      0x00\n        /* \"#utility.yul\":2390:2408   */\n      0xffffffffffffffff\n        /* \"#utility.yul\":2382:2388   */\n      dup3\n        /* \"#utility.yul\":2379:2409   */\n      gt\n        /* \"#utility.yul\":2376:2432   */\n      iszero\n      tag_209\n      jumpi\n        /* \"#utility.yul\":2412:2430   */\n      tag_210\n      tag_135\n      jump\t// in\n    tag_210:\n        /* \"#utility.yul\":2376:2432   */\n    tag_209:\n        /* \"#utility.yul\":2450:2479   */\n      tag_211\n        /* \"#utility.yul\":2472:2478   */\n      dup3\n        /* \"#utility.yul\":2450:2479   */\n      tag_134\n      jump\t// in\n    tag_211:\n        /* \"#utility.yul\":2442:2479   */\n      swap1\n      pop\n        /* \"#utility.yul\":2534:2538   */\n      0x20\n        /* \"#utility.yul\":2528:2532   */\n      dup2\n        /* \"#utility.yul\":2524:2539   */\n      add\n        /* \"#utility.yul\":2516:2539   */\n      swap1\n      pop\n        /* \"#utility.yul\":2238:2546   */\n      swap2\n      swap1\n      pop\n      jump\t// out\n        /* \"#utility.yul\":2552:2698   */\n    tag_139:\n        /* \"#utility.yul\":2649:2655   */\n      dup3\n        /* \"#utility.yul\":2644:2647   */\n      dup2\n        /* \"#utility.yul\":2639:2642   */\n      dup4\n        /* \"#utility.yul\":2626:2656   */\n      calldatacopy\n        /* \"#utility.yul\":2690:2691   */\n      0x00\n        /* \"#utility.yul\":2681:2687   */\n      dup4\n        /* \"#utility.yul\":2676:2679   */\n      dup4\n        /* \"#utility.yul\":2672:2688   */\n      add\n        /* \"#utility.yul\":2665:2692   */\n      mstore\n        /* \"#utility.yul\":2552:2698   */\n      pop\n      pop\n      pop\n      jump\t// out\n        /* \"#utility.yul\":2704:3129   */\n    tag_140:\n        /* \"#utility.yul\":2782:2787   */\n      0x00\n        /* \"#utility.yul\":2807:2873   */\n      tag_214\n        /* \"#utility.yul\":2823:2872   */\n      tag_215\n        /* \"#utility.yul\":2865:2871   */\n      dup5\n        /* \"#utility.yul\":2823:2872   */\n      tag_138\n      jump\t// in\n    tag_215:\n        /* \"#utility.yul\":2807:2873   */\n      tag_137\n      jump\t// in\n    tag_214:\n        /* \"#utility.yul\":2798:2873   */\n      swap1\n      pop\n        /* \"#utility.yul\":2896:2902   */\n      dup3\n        /* \"#utility.yul\":2889:2894   */\n      dup2\n        /* \"#utility.yul\":2882:2903   */\n      mstore\n        /* \"#utility.yul\":2934:2938   */\n      0x20\n        /* \"#utility.yul\":2927:2932   */\n      dup2\n        /* \"#utility.yul\":2923:2939   */\n      add\n        /* \"#utility.yul\":2972:2975   */\n      dup5\n        /* \"#utility.yul\":2963:2969   */\n      dup5\n        /* \"#utility.yul\":2958:2961   */\n      dup5\n        /* \"#utility.yul\":2954:2970   */\n      add\n        /* \"#utility.yul\":2951:2976   */\n      gt\n        /* \"#utility.yul\":2948:3060   */\n      iszero\n      tag_216\n      jumpi\n        /* \"#utility.yul\":2979:3058   */\n      tag_217\n      tag_133\n      jump\t// in\n    tag_217:\n        /* \"#utility.yul\":2948:3060   */\n    tag_216:\n        /* \"#utility.yul\":3069:3123   */\n      tag_218\n        /* \"#utility.yul\":3116:3122   */\n      dup5\n        /* \"#utility.yul\":3111:3114   */\n      dup3\n        /* \"#utility.yul\":3106:3109   */\n      dup6\n        /* \"#utility.yul\":3069:3123   */\n      tag_139\n      jump\t// in\n    tag_218:\n        /* \"#utility.yul\":2788:3129   */\n      pop\n        /* \"#utility.yul\":2704:3129   */\n      swap4\n      swap3\n      pop\n      pop\n      pop\n      jump\t// out\n        /* \"#utility.yul\":3149:3489   */\n    tag_141:\n        /* \"#utility.yul\":3205:3210   */\n      0x00\n        /* \"#utility.yul\":3254:3257   */\n      dup3\n        /* \"#utility.yul\":3247:3251   */\n      0x1f\n        /* \"#utility.yul\":3239:3245   */\n      dup4\n        /* \"#utility.yul\":3235:3252   */\n      add\n        /* \"#utility.yul\":3231:3258   */\n      slt\n        /* \"#utility.yul\":3221:3343   */\n      tag_220\n      jumpi\n        /* \"#utility.yul\":3262:3341   */\n      tag_221\n      tag_132\n      jump\t// in\n    tag_221:\n        /* \"#utility.yul\":3221:3343   */\n    tag_220:\n        /* \"#utility.yul\":3379:3385   */\n      dup2\n        /* \"#utility.yul\":3366:3386   */\n      calldataload\n        /* \"#utility.yul\":3404:3483   */\n      tag_222\n        /* \"#utility.yul\":3479:3482   */\n      dup5\n        /* \"#utility.yul\":3471:3477   */\n      dup3\n        /* \"#utility.yul\":3464:3468   */\n      0x20\n        /* \"#utility.yul\":3456:3462   */\n      dup7\n        /* \"#utility.yul\":3452:3469   */\n      add\n        /* \"#utility.yul\":3404:3483   */\n      tag_140\n      jump\t// in\n    tag_222:\n        /* \"#utility.yul\":3395:3483   */\n      swap2\n      pop\n        /* \"#utility.yul\":3211:3489   */\n      pop\n        /* \"#utility.yul\":3149:3489   */\n      swap3\n      swap2\n      pop\n      pop\n      jump\t// out\n        /* \"#utility.yul\":3495:4149   */\n    tag_19:\n        /* \"#utility.yul\":3573:3579   */\n      0x00\n        /* \"#utility.yul\":3581:3587   */\n      dup1\n        /* \"#utility.yul\":3630:3632   */\n      0x40\n        /* \"#utility.yul\":3618:3627   */\n      dup4\n        /* \"#utility.yul\":3609:3616   */\n      dup6\n        /* \"#utility.yul\":3605:3628   */\n      sub\n        /* \"#utility.yul\":3601:3633   */\n      slt\n        /* \"#utility.yul\":3598:3717   */\n      iszero\n      tag_224\n      jumpi\n        /* \"#utility.yul\":3636:3715   */\n      tag_225\n      tag_127\n      jump\t// in\n    tag_225:\n        /* \"#utility.yul\":3598:3717   */\n    tag_224:\n        /* \"#utility.yul\":3756:3757   */\n      0x00\n        /* \"#utility.yul\":3781:3834   */\n      tag_226\n        /* \"#utility.yul\":3826:3833   */\n      dup6\n        /* \"#utility.yul\":3817:3823   */\n      dup3\n        /* \"#utility.yul\":3806:3815   */\n      dup7\n        /* \"#utility.yul\":3802:3824   */\n      add\n        /* \"#utility.yul\":3781:3834   */\n      tag_131\n      jump\t// in\n    tag_226:\n        /* \"#utility.yul\":3771:3834   */\n      swap3\n      pop\n        /* \"#utility.yul\":3727:3844   */\n      pop\n        /* \"#utility.yul\":3911:3913   */\n      0x20\n        /* \"#utility.yul\":3900:3909   */\n      dup4\n        /* \"#utility.yul\":3896:3914   */\n      add\n        /* \"#utility.yul\":3883:3915   */\n      calldataload\n        /* \"#utility.yul\":3942:3960   */\n      0xffffffffffffffff\n        /* \"#utility.yul\":3934:3940   */\n      dup2\n        /* \"#utility.yul\":3931:3961   */\n      gt\n        /* \"#utility.yul\":3928:4045   */\n      iszero\n      tag_227\n      jumpi\n        /* \"#utility.yul\":3964:4043   */\n      tag_228\n      tag_128\n      jump\t// in\n    tag_228:\n        /* \"#utility.yul\":3928:4045   */\n    tag_227:\n        /* \"#utility.yul\":4069:4132   */\n      tag_229\n        /* \"#utility.yul\":4124:4131   */\n      dup6\n        /* \"#utility.yul\":4115:4121   */\n      dup3\n        /* \"#utility.yul\":4104:4113   */\n      dup7\n        /* \"#utility.yul\":4100:4122   */\n      add\n        /* \"#utility.yul\":4069:4132   */\n      tag_141\n      jump\t// in\n    tag_229:\n        /* \"#utility.yul\":4059:4132   */\n      swap2\n      pop\n        /* \"#utility.yul\":3854:4142   */\n      pop\n        /* \"#utility.yul\":3495:4149   */\n      swap3\n      pop\n      swap3\n      swap1\n      pop\n      jump\t// out\n        /* \"#utility.yul\":4155:4484   */\n    tag_23:\n        /* \"#utility.yul\":4214:4220   */\n      0x00\n        /* \"#utility.yul\":4263:4265   */\n      0x20\n        /* \"#utility.yul\":4251:4260   */\n      dup3\n        /* \"#utility.yul\":4242:4249   */\n      dup5\n        /* \"#utility.yul\":4238:4261   */\n      sub\n        /* \"#utility.yul\":4234:4266   */\n      slt\n        /* \"#utility.yul\":4231:4350   */\n      iszero\n      tag_231\n      jumpi\n        /* \"#utility.yul\":4269:4348   */\n      tag_232\n      tag_127\n      jump\t// in\n    tag_232:\n        /* \"#utility.yul\":4231:4350   */\n    tag_231:\n        /* \"#utility.yul\":4389:4390   */\n      0x00\n        /* \"#utility.yul\":4414:4467   */\n      tag_233\n        /* \"#utility.yul\":4459:4466   */\n      dup5\n        /* \"#utility.yul\":4450:4456   */\n      dup3\n        /* \"#utility.yul\":4439:4448   */\n      dup6\n        /* \"#utility.yul\":4435:4457   */\n      add\n        /* \"#utility.yul\":4414:4467   */\n      tag_131\n      jump\t// in\n    tag_233:\n        /* \"#utility.yul\":4404:4467   */\n      swap2\n      pop\n        /* \"#utility.yul\":4360:4477   */\n      pop\n        /* \"#utility.yul\":4155:4484   */\n      swap3\n      swap2\n      pop\n      pop\n      jump\t// out\n        /* \"#utility.yul\":4490:4608   */\n    tag_142:\n        /* \"#utility.yul\":4577:4601   */\n      tag_235\n        /* \"#utility.yul\":4595:4600   */\n      dup2\n        /* \"#utility.yul\":4577:4601   */\n      tag_129\n      jump\t// in\n    tag_235:\n        /* \"#utility.yul\":4572:4575   */\n      dup3\n        /* \"#utility.yul\":4565:4602   */\n      mstore\n        /* \"#utility.yul\":4490:4608   */\n      pop\n      pop\n      jump\t// out\n        /* \"#utility.yul\":4614:4713   */\n    tag_143:\n        /* \"#utility.yul\":4666:4672   */\n      0x00\n        /* \"#utility.yul\":4700:4705   */\n      dup2\n        /* \"#utility.yul\":4694:4706   */\n      mload\n        /* \"#utility.yul\":4684:4706   */\n      swap1\n      pop\n        /* \"#utility.yul\":4614:4713   */\n      swap2\n      swap1\n      pop\n      jump\t// out\n        /* \"#utility.yul\":4719:4888   */\n    tag_144:\n        /* \"#utility.yul\":4803:4814   */\n      0x00\n        /* \"#utility.yul\":4837:4843   */\n      dup3\n        /* \"#utility.yul\":4832:4835   */\n      dup3\n        /* \"#utility.yul\":4825:4844   */\n      mstore\n        /* \"#utility.yul\":4877:4881   */\n      0x20\n        /* \"#utility.yul\":4872:4875   */\n      dup3\n        /* \"#utility.yul\":4868:4882   */\n      add\n        /* \"#utility.yul\":4853:4882   */\n      swap1\n      pop\n        /* \"#utility.yul\":4719:4888   */\n      swap3\n      swap2\n      pop\n      pop\n      jump\t// out\n        /* \"#utility.yul\":4894:5140   */\n    tag_145:\n        /* \"#utility.yul\":4975:4976   */\n      0x00\n        /* \"#utility.yul\":4985:5098   */\n    tag_239:\n        /* \"#utility.yul\":4999:5005   */\n      dup4\n        /* \"#utility.yul\":4996:4997   */\n      dup2\n        /* \"#utility.yul\":4993:5006   */\n      lt\n        /* \"#utility.yul\":4985:5098   */\n      iszero\n      tag_241\n      jumpi\n        /* \"#utility.yul\":5084:5085   */\n      dup1\n        /* \"#utility.yul\":5079:5082   */\n      dup3\n        /* \"#utility.yul\":5075:5086   */\n      add\n        /* \"#utility.yul\":5069:5087   */\n      mload\n        /* \"#utility.yul\":5065:5066   */\n      dup2\n        /* \"#utility.yul\":5060:5063   */\n      dup5\n        /* \"#utility.yul\":5056:5067   */\n      add\n        /* \"#utility.yul\":5049:5088   */\n      mstore\n        /* \"#utility.yul\":5021:5023   */\n      0x20\n        /* \"#utility.yul\":5018:5019   */\n      dup2\n        /* \"#utility.yul\":5014:5024   */\n      add\n        /* \"#utility.yul\":5009:5024   */\n      swap1\n      pop\n        /* \"#utility.yul\":4985:5098   */\n      jump(tag_239)\n    tag_241:\n        /* \"#utility.yul\":5132:5133   */\n      0x00\n        /* \"#utility.yul\":5123:5129   */\n      dup5\n        /* \"#utility.yul\":5118:5121   */\n      dup5\n        /* \"#utility.yul\":5114:5130   */\n      add\n        /* \"#utility.yul\":5107:5134   */\n      mstore\n        /* \"#utility.yul\":4956:5140   */\n      pop\n        /* \"#utility.yul\":4894:5140   */\n      pop\n      pop\n      pop\n      jump\t// out\n        /* \"#utility.yul\":5146:5523   */\n    tag_146:\n        /* \"#utility.yul\":5234:5237   */\n      0x00\n        /* \"#utility.yul\":5262:5301   */\n      tag_243\n        /* \"#utility.yul\":5295:5300   */\n      dup3\n        /* \"#utility.yul\":5262:5301   */\n      tag_143\n      jump\t// in\n    tag_243:\n        /* \"#utility.yul\":5317:5388   */\n      tag_244\n        /* \"#utility.yul\":5381:5387   */\n      dup2\n        /* \"#utility.yul\":5376:5379   */\n      dup6\n        /* \"#utility.yul\":5317:5388   */\n      tag_144\n      jump\t// in\n    tag_244:\n        /* \"#utility.yul\":5310:5388   */\n      swap4\n      pop\n        /* \"#utility.yul\":5397:5462   */\n      tag_245\n        /* \"#utility.yul\":5455:5461   */\n      dup2\n        /* \"#utility.yul\":5450:5453   */\n      dup6\n        /* \"#utility.yul\":5443:5447   */\n      0x20\n        /* \"#utility.yul\":5436:5441   */\n      dup7\n        /* \"#utility.yul\":5432:5448   */\n      add\n        /* \"#utility.yul\":5397:5462   */\n      tag_145\n      jump\t// in\n    tag_245:\n        /* \"#utility.yul\":5487:5516   */\n      tag_246\n        /* \"#utility.yul\":5509:5515   */\n      dup2\n        /* \"#utility.yul\":5487:5516   */\n      tag_134\n      jump\t// in\n    tag_246:\n        /* \"#utility.yul\":5482:5485   */\n      dup5\n        /* \"#utility.yul\":5478:5517   */\n      add\n        /* \"#utility.yul\":5471:5517   */\n      swap2\n      pop\n        /* \"#utility.yul\":5238:5523   */\n      pop\n        /* \"#utility.yul\":5146:5523   */\n      swap3\n      swap2\n      pop\n      pop\n      jump\t// out\n        /* \"#utility.yul\":5529:5709   */\n    tag_69:\n        /* \"#utility.yul\":5577:5654   */\n      0x4e487b7100000000000000000000000000000000000000000000000000000000\n        /* \"#utility.yul\":5574:5575   */\n      0x00\n        /* \"#utility.yul\":5567:5655   */\n      mstore\n        /* \"#utility.yul\":5674:5678   */\n      0x21\n        /* \"#utility.yul\":5671:5672   */\n      0x04\n        /* \"#utility.yul\":5664:5679   */\n      mstore\n        /* \"#utility.yul\":5698:5702   */\n      0x24\n        /* \"#utility.yul\":5695:5696   */\n      0x00\n        /* \"#utility.yul\":5688:5703   */\n      revert\n        /* \"#utility.yul\":5715:5828   */\n    tag_147:\n        /* \"#utility.yul\":5796:5797   */\n      0x03\n        /* \"#utility.yul\":5789:5794   */\n      dup2\n        /* \"#utility.yul\":5786:5798   */\n      lt\n        /* \"#utility.yul\":5776:5822   */\n      tag_249\n      jumpi\n        /* \"#utility.yul\":5802:5820   */\n      tag_250\n      tag_69\n      jump\t// in\n    tag_250:\n        /* \"#utility.yul\":5776:5822   */\n    tag_249:\n        /* \"#utility.yul\":5715:5828   */\n      pop\n      jump\t// out\n        /* \"#utility.yul\":5834:5961   */\n    tag_148:\n        /* \"#utility.yul\":5879:5886   */\n      0x00\n        /* \"#utility.yul\":5908:5913   */\n      dup2\n        /* \"#utility.yul\":5897:5913   */\n      swap1\n      pop\n        /* \"#utility.yul\":5914:5955   */\n      tag_252\n        /* \"#utility.yul\":5949:5954   */\n      dup3\n        /* \"#utility.yul\":5914:5955   */\n      tag_147\n      jump\t// in\n    tag_252:\n        /* \"#utility.yul\":5834:5961   */\n      swap2\n      swap1\n      pop\n      jump\t// out\n        /* \"#utility.yul\":5967:6094   */\n    tag_149:\n        /* \"#utility.yul\":6023:6032   */\n      0x00\n        /* \"#utility.yul\":6056:6088   */\n      tag_254\n        /* \"#utility.yul\":6082:6087   */\n      dup3\n        /* \"#utility.yul\":6056:6088   */\n      tag_148\n      jump\t// in\n    tag_254:\n        /* \"#utility.yul\":6043:6088   */\n      swap1\n      pop\n        /* \"#utility.yul\":5967:6094   */\n      swap2\n      swap1\n      pop\n      jump\t// out\n        /* \"#utility.yul\":6100:6243   */\n    tag_150:\n        /* \"#utility.yul\":6193:6236   */\n      tag_256\n        /* \"#utility.yul\":6230:6235   */\n      dup2\n        /* \"#utility.yul\":6193:6236   */\n      tag_149\n      jump\t// in\n    tag_256:\n        /* \"#utility.yul\":6188:6191   */\n      dup3\n        /* \"#utility.yul\":6181:6237   */\n      mstore\n        /* \"#utility.yul\":6100:6243   */\n      pop\n      pop\n      jump\t// out\n        /* \"#utility.yul\":6249:6794   */\n    tag_26:\n        /* \"#utility.yul\":6424:6428   */\n      0x00\n        /* \"#utility.yul\":6462:6464   */\n      0x60\n        /* \"#utility.yul\":6451:6460   */\n      dup3\n        /* \"#utility.yul\":6447:6465   */\n      add\n        /* \"#utility.yul\":6439:6465   */\n      swap1\n      pop\n        /* \"#utility.yul\":6475:6546   */\n      tag_258\n        /* \"#utility.yul\":6543:6544   */\n      0x00\n        /* \"#utility.yul\":6532:6541   */\n      dup4\n        /* \"#utility.yul\":6528:6545   */\n      add\n        /* \"#utility.yul\":6519:6525   */\n      dup7\n        /* \"#utility.yul\":6475:6546   */\n      tag_142\n      jump\t// in\n    tag_258:\n        /* \"#utility.yul\":6593:6602   */\n      dup2\n        /* \"#utility.yul\":6587:6591   */\n      dup2\n        /* \"#utility.yul\":6583:6603   */\n      sub\n        /* \"#utility.yul\":6578:6580   */\n      0x20\n        /* \"#utility.yul\":6567:6576   */\n      dup4\n        /* \"#utility.yul\":6563:6581   */\n      add\n        /* \"#utility.yul\":6556:6604   */\n      mstore\n        /* \"#utility.yul\":6621:6699   */\n      tag_259\n        /* \"#utility.yul\":6694:6698   */\n      dup2\n        /* \"#utility.yul\":6685:6691   */\n      dup6\n        /* \"#utility.yul\":6621:6699   */\n      tag_146\n      jump\t// in\n    tag_259:\n        /* \"#utility.yul\":6613:6699   */\n      swap1\n      pop\n        /* \"#utility.yul\":6709:6787   */\n      tag_260\n        /* \"#utility.yul\":6783:6785   */\n      0x40\n        /* \"#utility.yul\":6772:6781   */\n      dup4\n        /* \"#utility.yul\":6768:6786   */\n      add\n        /* \"#utility.yul\":6759:6765   */\n      dup5\n        /* \"#utility.yul\":6709:6787   */\n      tag_150\n      jump\t// in\n    tag_260:\n        /* \"#utility.yul\":6249:6794   */\n      swap5\n      swap4\n      pop\n      pop\n      pop\n      pop\n      jump\t// out\n        /* \"#utility.yul\":6800:7274   */\n    tag_29:\n        /* \"#utility.yul\":6868:6874   */\n      0x00\n        /* \"#utility.yul\":6876:6882   */\n      dup1\n        /* \"#utility.yul\":6925:6927   */\n      0x40\n        /* \"#utility.yul\":6913:6922   */\n      dup4\n        /* \"#utility.yul\":6904:6911   */\n      dup6\n        /* \"#utility.yul\":6900:6923   */\n      sub\n        /* \"#utility.yul\":6896:6928   */\n      slt\n        /* \"#utility.yul\":6893:7012   */\n      iszero\n      tag_262\n      jumpi\n        /* \"#utility.yul\":6931:7010   */\n      tag_263\n      tag_127\n      jump\t// in\n    tag_263:\n        /* \"#utility.yul\":6893:7012   */\n    tag_262:\n        /* \"#utility.yul\":7051:7052   */\n      0x00\n        /* \"#utility.yul\":7076:7129   */\n      tag_264\n        /* \"#utility.yul\":7121:7128   */\n      dup6\n        /* \"#utility.yul\":7112:7118   */\n      dup3\n        /* \"#utility.yul\":7101:7110   */\n      dup7\n        /* \"#utility.yul\":7097:7119   */\n      add\n        /* \"#utility.yul\":7076:7129   */\n      tag_131\n      jump\t// in\n    tag_264:\n        /* \"#utility.yul\":7066:7129   */\n      swap3\n      pop\n        /* \"#utility.yul\":7022:7139   */\n      pop\n        /* \"#utility.yul\":7178:7180   */\n      0x20\n        /* \"#utility.yul\":7204:7257   */\n      tag_265\n        /* \"#utility.yul\":7249:7256   */\n      dup6\n        /* \"#utility.yul\":7240:7246   */\n      dup3\n        /* \"#utility.yul\":7229:7238   */\n      dup7\n        /* \"#utility.yul\":7225:7247   */\n      add\n        /* \"#utility.yul\":7204:7257   */\n      tag_131\n      jump\t// in\n    tag_265:\n        /* \"#utility.yul\":7194:7257   */\n      swap2\n      pop\n        /* \"#utility.yul\":7149:7267   */\n      pop\n        /* \"#utility.yul\":6800:7274   */\n      swap3\n      pop\n      swap3\n      swap1\n      pop\n      jump\t// out\n        /* \"#utility.yul\":7280:7502   */\n    tag_34:\n        /* \"#utility.yul\":7373:7377   */\n      0x00\n        /* \"#utility.yul\":7411:7413   */\n      0x20\n        /* \"#utility.yul\":7400:7409   */\n      dup3\n        /* \"#utility.yul\":7396:7414   */\n      add\n        /* \"#utility.yul\":7388:7414   */\n      swap1\n      pop\n        /* \"#utility.yul\":7424:7495   */\n      tag_267\n        /* \"#utility.yul\":7492:7493   */\n      0x00\n        /* \"#utility.yul\":7481:7490   */\n      dup4\n        /* \"#utility.yul\":7477:7494   */\n      add\n        /* \"#utility.yul\":7468:7474   */\n      dup5\n        /* \"#utility.yul\":7424:7495   */\n      tag_142\n      jump\t// in\n    tag_267:\n        /* \"#utility.yul\":7280:7502   */\n      swap3\n      swap2\n      pop\n      pop\n      jump\t// out\n        /* \"#utility.yul\":7508:7931   */\n    tag_39:\n        /* \"#utility.yul\":7649:7653   */\n      0x00\n        /* \"#utility.yul\":7687:7689   */\n      0x40\n        /* \"#utility.yul\":7676:7685   */\n      dup3\n        /* \"#utility.yul\":7672:7690   */\n      add\n        /* \"#utility.yul\":7664:7690   */\n      swap1\n      pop\n        /* \"#utility.yul\":7700:7771   */\n      tag_269\n        /* \"#utility.yul\":7768:7769   */\n      0x00\n        /* \"#utility.yul\":7757:7766   */\n      dup4\n        /* \"#utility.yul\":7753:7770   */\n      add\n        /* \"#utility.yul\":7744:7750   */\n      dup6\n        /* \"#utility.yul\":7700:7771   */\n      tag_142\n      jump\t// in\n    tag_269:\n        /* \"#utility.yul\":7818:7827   */\n      dup2\n        /* \"#utility.yul\":7812:7816   */\n      dup2\n        /* \"#utility.yul\":7808:7828   */\n      sub\n        /* \"#utility.yul\":7803:7805   */\n      0x20\n        /* \"#utility.yul\":7792:7801   */\n      dup4\n        /* \"#utility.yul\":7788:7806   */\n      add\n        /* \"#utility.yul\":7781:7829   */\n      mstore\n        /* \"#utility.yul\":7846:7924   */\n      tag_270\n        /* \"#utility.yul\":7919:7923   */\n      dup2\n        /* \"#utility.yul\":7910:7916   */\n      dup5\n        /* \"#utility.yul\":7846:7924   */\n      tag_146\n      jump\t// in\n    tag_270:\n        /* \"#utility.yul\":7838:7924   */\n      swap1\n      pop\n        /* \"#utility.yul\":7508:7931   */\n      swap4\n      swap3\n      pop\n      pop\n      pop\n      jump\t// out\n        /* \"#utility.yul\":7937:8158   */\n    tag_151:\n        /* \"#utility.yul\":8077:8111   */\n      0x456c20696e766f6361646f7220646562652073657220656c20616e6669747269\n        /* \"#utility.yul\":8073:8074   */\n      0x00\n        /* \"#utility.yul\":8065:8071   */\n      dup3\n        /* \"#utility.yul\":8061:8075   */\n      add\n        /* \"#utility.yul\":8054:8112   */\n      mstore\n        /* \"#utility.yul\":8146:8150   */\n      0x6f6e000000000000000000000000000000000000000000000000000000000000\n        /* \"#utility.yul\":8141:8143   */\n      0x20\n        /* \"#utility.yul\":8133:8139   */\n      dup3\n        /* \"#utility.yul\":8129:8144   */\n      add\n        /* \"#utility.yul\":8122:8151   */\n      mstore\n        /* \"#utility.yul\":7937:8158   */\n      pop\n      jump\t// out\n        /* \"#utility.yul\":8164:8530   */\n    tag_152:\n        /* \"#utility.yul\":8306:8309   */\n      0x00\n        /* \"#utility.yul\":8327:8394   */\n      tag_273\n        /* \"#utility.yul\":8391:8393   */\n      0x22\n        /* \"#utility.yul\":8386:8389   */\n      dup4\n        /* \"#utility.yul\":8327:8394   */\n      tag_144\n      jump\t// in\n    tag_273:\n        /* \"#utility.yul\":8320:8394   */\n      swap2\n      pop\n        /* \"#utility.yul\":8403:8496   */\n      tag_274\n        /* \"#utility.yul\":8492:8495   */\n      dup3\n        /* \"#utility.yul\":8403:8496   */\n      tag_151\n      jump\t// in\n    tag_274:\n        /* \"#utility.yul\":8521:8523   */\n      0x40\n        /* \"#utility.yul\":8516:8519   */\n      dup3\n        /* \"#utility.yul\":8512:8524   */\n      add\n        /* \"#utility.yul\":8505:8524   */\n      swap1\n      pop\n        /* \"#utility.yul\":8164:8530   */\n      swap2\n      swap1\n      pop\n      jump\t// out\n        /* \"#utility.yul\":8536:8955   */\n    tag_53:\n        /* \"#utility.yul\":8702:8706   */\n      0x00\n        /* \"#utility.yul\":8740:8742   */\n      0x20\n        /* \"#utility.yul\":8729:8738   */\n      dup3\n        /* \"#utility.yul\":8725:8743   */\n      add\n        /* \"#utility.yul\":8717:8743   */\n      swap1\n      pop\n        /* \"#utility.yul\":8789:8798   */\n      dup2\n        /* \"#utility.yul\":8783:8787   */\n      dup2\n        /* \"#utility.yul\":8779:8799   */\n      sub\n        /* \"#utility.yul\":8775:8776   */\n      0x00\n        /* \"#utility.yul\":8764:8773   */\n      dup4\n        /* \"#utility.yul\":8760:8777   */\n      add\n        /* \"#utility.yul\":8753:8800   */\n      mstore\n        /* \"#utility.yul\":8817:8948   */\n      tag_276\n        /* \"#utility.yul\":8943:8947   */\n      dup2\n        /* \"#utility.yul\":8817:8948   */\n      tag_152\n      jump\t// in\n    tag_276:\n        /* \"#utility.yul\":8809:8948   */\n      swap1\n      pop\n        /* \"#utility.yul\":8536:8955   */\n      swap2\n      swap1\n      pop\n      jump\t// out\n        /* \"#utility.yul\":8961:9141   */\n    tag_153:\n        /* \"#utility.yul\":9009:9086   */\n      0x4e487b7100000000000000000000000000000000000000000000000000000000\n        /* \"#utility.yul\":9006:9007   */\n      0x00\n        /* \"#utility.yul\":8999:9087   */\n      mstore\n        /* \"#utility.yul\":9106:9110   */\n      0x22\n        /* \"#utility.yul\":9103:9104   */\n      0x04\n        /* \"#utility.yul\":9096:9111   */\n      mstore\n        /* \"#utility.yul\":9130:9134   */\n      0x24\n        /* \"#utility.yul\":9127:9128   */\n      0x00\n        /* \"#utility.yul\":9120:9135   */\n      revert\n        /* \"#utility.yul\":9147:9467   */\n    tag_58:\n        /* \"#utility.yul\":9191:9197   */\n      0x00\n        /* \"#utility.yul\":9228:9229   */\n      0x02\n        /* \"#utility.yul\":9222:9226   */\n      dup3\n        /* \"#utility.yul\":9218:9230   */\n      div\n        /* \"#utility.yul\":9208:9230   */\n      swap1\n      pop\n        /* \"#utility.yul\":9275:9276   */\n      0x01\n        /* \"#utility.yul\":9269:9273   */\n      dup3\n        /* \"#utility.yul\":9265:9277   */\n      and\n        /* \"#utility.yul\":9296:9314   */\n      dup1\n        /* \"#utility.yul\":9286:9367   */\n      tag_279\n      jumpi\n        /* \"#utility.yul\":9352:9356   */\n      0x7f\n        /* \"#utility.yul\":9344:9350   */\n      dup3\n        /* \"#utility.yul\":9340:9357   */\n      and\n        /* \"#utility.yul\":9330:9357   */\n      swap2\n      pop\n        /* \"#utility.yul\":9286:9367   */\n    tag_279:\n        /* \"#utility.yul\":9414:9416   */\n      0x20\n        /* \"#utility.yul\":9406:9412   */\n      dup3\n        /* \"#utility.yul\":9403:9417   */\n      lt\n        /* \"#utility.yul\":9383:9401   */\n      dup2\n        /* \"#utility.yul\":9380:9418   */\n      sub\n        /* \"#utility.yul\":9377:9461   */\n      tag_280\n      jumpi\n        /* \"#utility.yul\":9433:9451   */\n      tag_281\n      tag_153\n      jump\t// in\n    tag_281:\n        /* \"#utility.yul\":9377:9461   */\n    tag_280:\n        /* \"#utility.yul\":9198:9467   */\n      pop\n        /* \"#utility.yul\":9147:9467   */\n      swap2\n      swap1\n      pop\n      jump\t// out\n        /* \"#utility.yul\":9473:9614   */\n    tag_154:\n        /* \"#utility.yul\":9522:9526   */\n      0x00\n        /* \"#utility.yul\":9545:9548   */\n      dup2\n        /* \"#utility.yul\":9537:9548   */\n      swap1\n      pop\n        /* \"#utility.yul\":9568:9571   */\n      dup2\n        /* \"#utility.yul\":9565:9566   */\n      0x00\n        /* \"#utility.yul\":9558:9572   */\n      mstore\n        /* \"#utility.yul\":9602:9606   */\n      0x20\n        /* \"#utility.yul\":9599:9600   */\n      0x00\n        /* \"#utility.yul\":9589:9607   */\n      keccak256\n        /* \"#utility.yul\":9581:9607   */\n      swap1\n      pop\n        /* \"#utility.yul\":9473:9614   */\n      swap2\n      swap1\n      pop\n      jump\t// out\n        /* \"#utility.yul\":9620:9713   */\n    tag_155:\n        /* \"#utility.yul\":9657:9663   */\n      0x00\n        /* \"#utility.yul\":9704:9706   */\n      0x20\n        /* \"#utility.yul\":9699:9701   */\n      0x1f\n        /* \"#utility.yul\":9692:9697   */\n      dup4\n        /* \"#utility.yul\":9688:9702   */\n      add\n        /* \"#utility.yul\":9684:9707   */\n      div\n        /* \"#utility.yul\":9674:9707   */\n      swap1\n      pop\n        /* \"#utility.yul\":9620:9713   */\n      swap2\n      swap1\n      pop\n      jump\t// out\n        /* \"#utility.yul\":9719:9826   */\n    tag_156:\n        /* \"#utility.yul\":9763:9771   */\n      0x00\n        /* \"#utility.yul\":9813:9818   */\n      dup3\n        /* \"#utility.yul\":9807:9811   */\n      dup3\n        /* \"#utility.yul\":9803:9819   */\n      shl\n        /* \"#utility.yul\":9782:9819   */\n      swap1\n      pop\n        /* \"#utility.yul\":9719:9826   */\n      swap3\n      swap2\n      pop\n      pop\n      jump\t// out\n        /* \"#utility.yul\":9832:10225   */\n    tag_157:\n        /* \"#utility.yul\":9901:9907   */\n      0x00\n        /* \"#utility.yul\":9951:9952   */\n      0x08\n        /* \"#utility.yul\":9939:9949   */\n      dup4\n        /* \"#utility.yul\":9935:9953   */\n      mul\n        /* \"#utility.yul\":9974:10071   */\n      tag_286\n        /* \"#utility.yul\":10004:10070   */\n      0xffffffffffffffffffffffffffffffffffffffffffffffffffffffffffffffff\n        /* \"#utility.yul\":9993:10002   */\n      dup3\n        /* \"#utility.yul\":9974:10071   */\n      tag_156\n      jump\t// in\n    tag_286:\n        /* \"#utility.yul\":10092:10131   */\n      tag_287\n        /* \"#utility.yul\":10122:10130   */\n      dup7\n        /* \"#utility.yul\":10111:10120   */\n      dup4\n        /* \"#utility.yul\":10092:10131   */\n      tag_156\n      jump\t// in\n    tag_287:\n        /* \"#utility.yul\":10080:10131   */\n      swap6\n      pop\n        /* \"#utility.yul\":10164:10168   */\n      dup1\n        /* \"#utility.yul\":10160:10169   */\n      not\n        /* \"#utility.yul\":10153:10158   */\n      dup5\n        /* \"#utility.yul\":10149:10170   */\n      and\n        /* \"#utility.yul\":10140:10170   */\n      swap4\n      pop\n        /* \"#utility.yul\":10213:10217   */\n      dup1\n        /* \"#utility.yul\":10203:10211   */\n      dup7\n        /* \"#utility.yul\":10199:10218   */\n      and\n        /* \"#utility.yul\":10192:10197   */\n      dup5\n        /* \"#utility.yul\":10189:10219   */\n      or\n        /* \"#utility.yul\":10179:10219   */\n      swap3\n      pop\n        /* \"#utility.yul\":9908:10225   */\n      pop\n      pop\n        /* \"#utility.yul\":9832:10225   */\n      swap4\n      swap3\n      pop\n      pop\n      pop\n      jump\t// out\n        /* \"#utility.yul\":10231:10291   */\n    tag_158:\n        /* \"#utility.yul\":10259:10262   */\n      0x00\n        /* \"#utility.yul\":10280:10285   */\n      dup2\n        /* \"#utility.yul\":10273:10285   */\n      swap1\n      pop\n        /* \"#utility.yul\":10231:10291   */\n      swap2\n      swap1\n      pop\n      jump\t// out\n        /* \"#utility.yul\":10297:10439   */\n    tag_159:\n        /* \"#utility.yul\":10347:10356   */\n      0x00\n        /* \"#utility.yul\":10380:10433   */\n      tag_290\n        /* \"#utility.yul\":10398:10432   */\n      tag_291\n        /* \"#utility.yul\":10407:10431   */\n      tag_292\n        /* \"#utility.yul\":10425:10430   */\n      dup5\n        /* \"#utility.yul\":10407:10431   */\n      tag_129\n      jump\t// in\n    tag_292:\n        /* \"#utility.yul\":10398:10432   */\n      tag_158\n      jump\t// in\n    tag_291:\n        /* \"#utility.yul\":10380:10433   */\n      tag_129\n      jump\t// in\n    tag_290:\n        /* \"#utility.yul\":10367:10433   */\n      swap1\n      pop\n        /* \"#utility.yul\":10297:10439   */\n      swap2\n      swap1\n      pop\n      jump\t// out\n        /* \"#utility.yul\":10445:10520   */\n    tag_160:\n        /* \"#utility.yul\":10488:10491   */\n      0x00\n        /* \"#utility.yul\":10509:10514   */\n      dup2\n        /* \"#utility.yul\":10502:10514   */\n      swap1\n      pop\n        /* \"#utility.yul\":10445:10520   */\n      swap2\n      swap1\n      pop\n      jump\t// out\n        /* \"#utility.yul\":10526:10795   */\n    tag_161:\n        /* \"#utility.yul\":10636:10675   */\n      tag_295\n        /* \"#utility.yul\":10667:10674   */\n      dup4\n        /* \"#utility.yul\":10636:10675   */\n      tag_159\n      jump\t// in\n    tag_295:\n        /* \"#utility.yul\":10697:10788   */\n      tag_296\n        /* \"#utility.yul\":10746:10787   */\n      tag_297\n        /* \"#utility.yul\":10770:10786   */\n      dup3\n        /* \"#utility.yul\":10746:10787   */\n      tag_160\n      jump\t// in\n    tag_297:\n        /* \"#utility.yul\":10738:10744   */\n      dup5\n        /* \"#utility.yul\":10731:10735   */\n      dup5\n        /* \"#utility.yul\":10725:10736   */\n      sload\n        /* \"#utility.yul\":10697:10788   */\n      tag_157\n      jump\t// in\n    tag_296:\n        /* \"#utility.yul\":10691:10695   */\n      dup3\n        /* \"#utility.yul\":10684:10789   */\n      sstore\n        /* \"#utility.yul\":10602:10795   */\n      pop\n        /* \"#utility.yul\":10526:10795   */\n      pop\n      pop\n      pop\n      jump\t// out\n        /* \"#utility.yul\":10801:10874   */\n    tag_162:\n        /* \"#utility.yul\":10846:10849   */\n      0x00\n        /* \"#utility.yul\":10801:10874   */\n      swap1\n      jump\t// out\n        /* \"#utility.yul\":10880:11069   */\n    tag_163:\n        /* \"#utility.yul\":10957:10989   */\n      tag_300\n      tag_162\n      jump\t// in\n    tag_300:\n        /* \"#utility.yul\":10998:11063   */\n      tag_301\n        /* \"#utility.yul\":11056:11062   */\n      dup2\n        /* \"#utility.yul\":11048:11054   */\n      dup5\n        /* \"#utility.yul\":11042:11046   */\n      dup5\n        /* \"#utility.yul\":10998:11063   */\n      tag_161\n      jump\t// in\n    tag_301:\n        /* \"#utility.yul\":10933:11069   */\n      pop\n        /* \"#utility.yul\":10880:11069   */\n      pop\n      pop\n      jump\t// out\n        /* \"#utility.yul\":11075:11261   */\n    tag_164:\n        /* \"#utility.yul\":11135:11255   */\n    tag_303:\n        /* \"#utility.yul\":11152:11155   */\n      dup2\n        /* \"#utility.yul\":11145:11150   */\n      dup2\n        /* \"#utility.yul\":11142:11156   */\n      lt\n        /* \"#utility.yul\":11135:11255   */\n      iszero\n      tag_305\n      jumpi\n        /* \"#utility.yul\":11206:11245   */\n      tag_306\n        /* \"#utility.yul\":11243:11244   */\n      0x00\n        /* \"#utility.yul\":11236:11241   */\n      dup3\n        /* \"#utility.yul\":11206:11245   */\n      tag_163\n      jump\t// in\n    tag_306:\n        /* \"#utility.yul\":11179:11180   */\n      0x01\n        /* \"#utility.yul\":11172:11177   */\n      dup2\n        /* \"#utility.yul\":11168:11181   */\n      add\n        /* \"#utility.yul\":11159:11181   */\n      swap1\n      pop\n        /* \"#utility.yul\":11135:11255   */\n      jump(tag_303)\n    tag_305:\n        /* \"#utility.yul\":11075:11261   */\n      pop\n      pop\n      jump\t// out\n        /* \"#utility.yul\":11267:11810   */\n    tag_165:\n        /* \"#utility.yul\":11368:11370   */\n      0x1f\n        /* \"#utility.yul\":11363:11366   */\n      dup3\n        /* \"#utility.yul\":11360:11371   */\n      gt\n        /* \"#utility.yul\":11357:11803   */\n      iszero\n      tag_308\n      jumpi\n        /* \"#utility.yul\":11402:11440   */\n      tag_309\n        /* \"#utility.yul\":11434:11439   */\n      dup2\n        /* \"#utility.yul\":11402:11440   */\n      tag_154\n      jump\t// in\n    tag_309:\n        /* \"#utility.yul\":11486:11515   */\n      tag_310\n        /* \"#utility.yul\":11504:11514   */\n      dup5\n        /* \"#utility.yul\":11486:11515   */\n      tag_155\n      jump\t// in\n    tag_310:\n        /* \"#utility.yul\":11476:11484   */\n      dup2\n        /* \"#utility.yul\":11472:11516   */\n      add\n        /* \"#utility.yul\":11669:11671   */\n      0x20\n        /* \"#utility.yul\":11657:11667   */\n      dup6\n        /* \"#utility.yul\":11654:11672   */\n      lt\n        /* \"#utility.yul\":11651:11700   */\n      iszero\n      tag_311\n      jumpi\n        /* \"#utility.yul\":11690:11698   */\n      dup2\n        /* \"#utility.yul\":11675:11698   */\n      swap1\n      pop\n        /* \"#utility.yul\":11651:11700   */\n    tag_311:\n        /* \"#utility.yul\":11713:11793   */\n      tag_312\n        /* \"#utility.yul\":11769:11791   */\n      tag_313\n        /* \"#utility.yul\":11787:11790   */\n      dup6\n        /* \"#utility.yul\":11769:11791   */\n      tag_155\n      jump\t// in\n    tag_313:\n        /* \"#utility.yul\":11759:11767   */\n      dup4\n        /* \"#utility.yul\":11755:11792   */\n      add\n        /* \"#utility.yul\":11742:11753   */\n      dup3\n        /* \"#utility.yul\":11713:11793   */\n      tag_164\n      jump\t// in\n    tag_312:\n        /* \"#utility.yul\":11372:11803   */\n      pop\n      pop\n        /* \"#utility.yul\":11357:11803   */\n    tag_308:\n        /* \"#utility.yul\":11267:11810   */\n      pop\n      pop\n      pop\n      jump\t// out\n        /* \"#utility.yul\":11816:11933   */\n    tag_166:\n        /* \"#utility.yul\":11870:11878   */\n      0x00\n        /* \"#utility.yul\":11920:11925   */\n      dup3\n        /* \"#utility.yul\":11914:11918   */\n      dup3\n        /* \"#utility.yul\":11910:11926   */\n      shr\n        /* \"#utility.yul\":11889:11926   */\n      swap1\n      pop\n        /* \"#utility.yul\":11816:11933   */\n      swap3\n      swap2\n      pop\n      pop\n      jump\t// out\n        /* \"#utility.yul\":11939:12108   */\n    tag_167:\n        /* \"#utility.yul\":11983:11989   */\n      0x00\n        /* \"#utility.yul\":12016:12067   */\n      tag_316\n        /* \"#utility.yul\":12064:12065   */\n      0x00\n        /* \"#utility.yul\":12060:12066   */\n      not\n        /* \"#utility.yul\":12052:12057   */\n      dup5\n        /* \"#utility.yul\":12049:12050   */\n      0x08\n        /* \"#utility.yul\":12045:12058   */\n      mul\n        /* \"#utility.yul\":12016:12067   */\n      tag_166\n      jump\t// in\n    tag_316:\n        /* \"#utility.yul\":12012:12068   */\n      not\n        /* \"#utility.yul\":12097:12101   */\n      dup1\n        /* \"#utility.yul\":12091:12095   */\n      dup4\n        /* \"#utility.yul\":12087:12102   */\n      and\n        /* \"#utility.yul\":12077:12102   */\n      swap2\n      pop\n        /* \"#utility.yul\":11990:12108   */\n      pop\n        /* \"#utility.yul\":11939:12108   */\n      swap3\n      swap2\n      pop\n      pop\n      jump\t// out\n        /* \"#utility.yul\":12113:12408   */\n    tag_168:\n        /* \"#utility.yul\":12189:12193   */\n      0x00\n        /* \"#utility.yul\":12335:12364   */\n      tag_318\n        /* \"#utility.yul\":12360:12363   */\n      dup4\n        /* \"#utility.yul\":12354:12358   */\n      dup4\n        /* \"#utility.yul\":12335:12364   */\n      tag_167\n      jump\t// in\n    tag_318:\n        /* \"#utility.yul\":12327:12364   */\n      swap2\n      pop\n        /* \"#utility.yul\":12397:12400   */\n      dup3\n        /* \"#utility.yul\":12394:12395   */\n      0x02\n        /* \"#utility.yul\":12390:12401   */\n      mul\n        /* \"#utility.yul\":12384:12388   */\n      dup3\n        /* \"#utility.yul\":12381:12402   */\n      or\n        /* \"#utility.yul\":12373:12402   */\n      swap1\n      pop\n        /* \"#utility.yul\":12113:12408   */\n      swap3\n      swap2\n      pop\n      pop\n      jump\t// out\n        /* \"#utility.yul\":12413:13808   */\n    tag_56:\n        /* \"#utility.yul\":12530:12567   */\n      tag_320\n        /* \"#utility.yul\":12563:12566   */\n      dup3\n        /* \"#utility.yul\":12530:12567   */\n      tag_143\n      jump\t// in\n    tag_320:\n        /* \"#utility.yul\":12632:12650   */\n      0xffffffffffffffff\n        /* \"#utility.yul\":12624:12630   */\n      dup2\n        /* \"#utility.yul\":12621:12651   */\n      gt\n        /* \"#utility.yul\":12618:12674   */\n      iszero\n      tag_321\n      jumpi\n        /* \"#utility.yul\":12654:12672   */\n      tag_322\n      tag_135\n      jump\t// in\n    tag_322:\n        /* \"#utility.yul\":12618:12674   */\n    tag_321:\n        /* \"#utility.yul\":12698:12736   */\n      tag_323\n        /* \"#utility.yul\":12730:12734   */\n      dup3\n        /* \"#utility.yul\":12724:12735   */\n      sload\n        /* \"#utility.yul\":12698:12736   */\n      tag_58\n      jump\t// in\n    tag_323:\n        /* \"#utility.yul\":12783:12850   */\n      tag_324\n        /* \"#utility.yul\":12843:12849   */\n      dup3\n        /* \"#utility.yul\":12835:12841   */\n      dup3\n        /* \"#utility.yul\":12829:12833   */\n      dup6\n        /* \"#utility.yul\":12783:12850   */\n      tag_165\n      jump\t// in\n    tag_324:\n        /* \"#utility.yul\":12877:12878   */\n      0x00\n        /* \"#utility.yul\":12901:12905   */\n      0x20\n        /* \"#utility.yul\":12888:12905   */\n      swap1\n      pop\n        /* \"#utility.yul\":12933:12935   */\n      0x1f\n        /* \"#utility.yul\":12925:12931   */\n      dup4\n        /* \"#utility.yul\":12922:12936   */\n      gt\n        /* \"#utility.yul\":12950:12951   */\n      0x01\n        /* \"#utility.yul\":12945:13563   */\n      dup2\n      eq\n      tag_326\n      jumpi\n        /* \"#utility.yul\":13607:13608   */\n      0x00\n        /* \"#utility.yul\":13624:13630   */\n      dup5\n        /* \"#utility.yul\":13621:13698   */\n      iszero\n      tag_327\n      jumpi\n        /* \"#utility.yul\":13673:13682   */\n      dup3\n        /* \"#utility.yul\":13668:13671   */\n      dup8\n        /* \"#utility.yul\":13664:13683   */\n      add\n        /* \"#utility.yul\":13658:13684   */\n      mload\n        /* \"#utility.yul\":13649:13684   */\n      swap1\n      pop\n        /* \"#utility.yul\":13621:13698   */\n    tag_327:\n        /* \"#utility.yul\":13724:13791   */\n      tag_328\n        /* \"#utility.yul\":13784:13790   */\n      dup6\n        /* \"#utility.yul\":13777:13782   */\n      dup3\n        /* \"#utility.yul\":13724:13791   */\n      tag_168\n      jump\t// in\n    tag_328:\n        /* \"#utility.yul\":13718:13722   */\n      dup7\n        /* \"#utility.yul\":13711:13792   */\n      sstore\n        /* \"#utility.yul\":13580:13802   */\n      pop\n        /* \"#utility.yul\":12915:13802   */\n      jump(tag_325)\n        /* \"#utility.yul\":12945:13563   */\n    tag_326:\n        /* \"#utility.yul\":12997:13001   */\n      0x1f\n        /* \"#utility.yul\":12993:13002   */\n      not\n        /* \"#utility.yul\":12985:12991   */\n      dup5\n        /* \"#utility.yul\":12981:13003   */\n      and\n        /* \"#utility.yul\":13031:13068   */\n      tag_329\n        /* \"#utility.yul\":13063:13067   */\n      dup7\n        /* \"#utility.yul\":13031:13068   */\n      tag_154\n      jump\t// in\n    tag_329:\n        /* \"#utility.yul\":13090:13091   */\n      0x00\n        /* \"#utility.yul\":13104:13312   */\n    tag_330:\n        /* \"#utility.yul\":13118:13125   */\n      dup3\n        /* \"#utility.yul\":13115:13116   */\n      dup2\n        /* \"#utility.yul\":13112:13126   */\n      lt\n        /* \"#utility.yul\":13104:13312   */\n      iszero\n      tag_332\n      jumpi\n        /* \"#utility.yul\":13197:13206   */\n      dup5\n        /* \"#utility.yul\":13192:13195   */\n      dup10\n        /* \"#utility.yul\":13188:13207   */\n      add\n        /* \"#utility.yul\":13182:13208   */\n      mload\n        /* \"#utility.yul\":13174:13180   */\n      dup3\n        /* \"#utility.yul\":13167:13209   */\n      sstore\n        /* \"#utility.yul\":13248:13249   */\n      0x01\n        /* \"#utility.yul\":13240:13246   */\n      dup3\n        /* \"#utility.yul\":13236:13250   */\n      add\n        /* \"#utility.yul\":13226:13250   */\n      swap2\n      pop\n        /* \"#utility.yul\":13295:13297   */\n      0x20\n        /* \"#utility.yul\":13284:13293   */\n      dup6\n        /* \"#utility.yul\":13280:13298   */\n      add\n        /* \"#utility.yul\":13267:13298   */\n      swap5\n      pop\n        /* \"#utility.yul\":13141:13145   */\n      0x20\n        /* \"#utility.yul\":13138:13139   */\n      dup2\n        /* \"#utility.yul\":13134:13146   */\n      add\n        /* \"#utility.yul\":13129:13146   */\n      swap1\n      pop\n        /* \"#utility.yul\":13104:13312   */\n      jump(tag_330)\n    tag_332:\n        /* \"#utility.yul\":13340:13346   */\n      dup7\n        /* \"#utility.yul\":13331:13338   */\n      dup4\n        /* \"#utility.yul\":13328:13347   */\n      lt\n        /* \"#utility.yul\":13325:13504   */\n      iszero\n      tag_333\n      jumpi\n        /* \"#utility.yul\":13398:13407   */\n      dup5\n        /* \"#utility.yul\":13393:13396   */\n      dup10\n        /* \"#utility.yul\":13389:13408   */\n      add\n        /* \"#utility.yul\":13383:13409   */\n      mload\n        /* \"#utility.yul\":13441:13489   */\n      tag_334\n        /* \"#utility.yul\":13483:13487   */\n      0x1f\n        /* \"#utility.yul\":13475:13481   */\n      dup10\n        /* \"#utility.yul\":13471:13488   */\n      and\n        /* \"#utility.yul\":13460:13469   */\n      dup3\n        /* \"#utility.yul\":13441:13489   */\n      tag_167\n      jump\t// in\n    tag_334:\n        /* \"#utility.yul\":13433:13439   */\n      dup4\n        /* \"#utility.yul\":13426:13490   */\n      sstore\n        /* \"#utility.yul\":13348:13504   */\n      pop\n        /* \"#utility.yul\":13325:13504   */\n    tag_333:\n        /* \"#utility.yul\":13550:13551   */\n      0x01\n        /* \"#utility.yul\":13546:13547   */\n      0x02\n        /* \"#utility.yul\":13538:13544   */\n      dup9\n        /* \"#utility.yul\":13534:13548   */\n      mul\n        /* \"#utility.yul\":13530:13552   */\n      add\n        /* \"#utility.yul\":13524:13528   */\n      dup9\n        /* \"#utility.yul\":13517:13553   */\n      sstore\n        /* \"#utility.yul\":12952:13563   */\n      pop\n      pop\n      pop\n        /* \"#utility.yul\":12915:13802   */\n    tag_325:\n      pop\n        /* \"#utility.yul\":12505:13808   */\n      pop\n      pop\n      pop\n        /* \"#utility.yul\":12413:13808   */\n      pop\n      pop\n      jump\t// out\n        /* \"#utility.yul\":13814:14045   */\n    tag_169:\n        /* \"#utility.yul\":13954:13988   */\n      0x4c612063617272657261206e6f2063756d706c6520636f6e20656c2065737461\n        /* \"#utility.yul\":13950:13951   */\n      0x00\n        /* \"#utility.yul\":13942:13948   */\n      dup3\n        /* \"#utility.yul\":13938:13952   */\n      add\n        /* \"#utility.yul\":13931:13989   */\n      mstore\n        /* \"#utility.yul\":14023:14037   */\n      0x646f2072657175657269646f0000000000000000000000000000000000000000\n        /* \"#utility.yul\":14018:14020   */\n      0x20\n        /* \"#utility.yul\":14010:14016   */\n      dup3\n        /* \"#utility.yul\":14006:14021   */\n      add\n        /* \"#utility.yul\":13999:14038   */\n      mstore\n        /* \"#utility.yul\":13814:14045   */\n      pop\n      jump\t// out\n        /* \"#utility.yul\":14051:14417   */\n    tag_170:\n        /* \"#utility.yul\":14193:14196   */\n      0x00\n        /* \"#utility.yul\":14214:14281   */\n      tag_337\n        /* \"#utility.yul\":14278:14280   */\n      0x2c\n        /* \"#utility.yul\":14273:14276   */\n      dup4\n        /* \"#utility.yul\":14214:14281   */\n      tag_144\n      jump\t// in\n    tag_337:\n        /* \"#utility.yul\":14207:14281   */\n      swap2\n      pop\n        /* \"#utility.yul\":14290:14383   */\n      tag_338\n        /* \"#utility.yul\":14379:14382   */\n      dup3\n        /* \"#utility.yul\":14290:14383   */\n      tag_169\n      jump\t// in\n    tag_338:\n        /* \"#utility.yul\":14408:14410   */\n      0x40\n        /* \"#utility.yul\":14403:14406   */\n      dup3\n        /* \"#utility.yul\":14399:14411   */\n      add\n        /* \"#utility.yul\":14392:14411   */\n      swap1\n      pop\n        /* \"#utility.yul\":14051:14417   */\n      swap2\n      swap1\n      pop\n      jump\t// out\n        /* \"#utility.yul\":14423:14842   */\n    tag_74:\n        /* \"#utility.yul\":14589:14593   */\n      0x00\n        /* \"#utility.yul\":14627:14629   */\n      0x20\n        /* \"#utility.yul\":14616:14625   */\n      dup3\n        /* \"#utility.yul\":14612:14630   */\n      add\n        /* \"#utility.yul\":14604:14630   */\n      swap1\n      pop\n        /* \"#utility.yul\":14676:14685   */\n      dup2\n        /* \"#utility.yul\":14670:14674   */\n      dup2\n        /* \"#utility.yul\":14666:14686   */\n      sub\n        /* \"#utility.yul\":14662:14663   */\n      0x00\n        /* \"#utility.yul\":14651:14660   */\n      dup4\n        /* \"#utility.yul\":14647:14664   */\n      add\n        /* \"#utility.yul\":14640:14687   */\n      mstore\n        /* \"#utility.yul\":14704:14835   */\n      tag_340\n        /* \"#utility.yul\":14830:14834   */\n      dup2\n        /* \"#utility.yul\":14704:14835   */\n      tag_170\n      jump\t// in\n    tag_340:\n        /* \"#utility.yul\":14696:14835   */\n      swap1\n      pop\n        /* \"#utility.yul\":14423:14842   */\n      swap2\n      swap1\n      pop\n      jump\t// out\n        /* \"#utility.yul\":14848:15070   */\n    tag_171:\n        /* \"#utility.yul\":14988:15022   */\n      0x4c612063617272657261207961206375656e746120636f6e203520636162616c\n        /* \"#utility.yul\":14984:14985   */\n      0x00\n        /* \"#utility.yul\":14976:14982   */\n      dup3\n        /* \"#utility.yul\":14972:14986   */\n      add\n        /* \"#utility.yul\":14965:15023   */\n      mstore\n        /* \"#utility.yul\":15057:15062   */\n      0x6c6f730000000000000000000000000000000000000000000000000000000000\n        /* \"#utility.yul\":15052:15054   */\n      0x20\n        /* \"#utility.yul\":15044:15050   */\n      dup3\n        /* \"#utility.yul\":15040:15055   */\n      add\n        /* \"#utility.yul\":15033:15063   */\n      mstore\n        /* \"#utility.yul\":14848:15070   */\n      pop\n      jump\t// out\n        /* \"#utility.yul\":15076:15442   */\n    tag_172:\n        /* \"#utility.yul\":15218:15221   */\n      0x00\n        /* \"#utility.yul\":15239:15306   */\n      tag_343\n        /* \"#utility.yul\":15303:15305   */\n      0x23\n        /* \"#utility.yul\":15298:15301   */\n      dup4\n        /* \"#utility.yul\":15239:15306   */\n      tag_144\n      jump\t// in\n    tag_343:\n        /* \"#utility.yul\":15232:15306   */\n      swap2\n      pop\n        /* \"#utility.yul\":15315:15408   */\n      tag_344\n        /* \"#utility.yul\":15404:15407   */\n      dup3\n        /* \"#utility.yul\":15315:15408   */\n      tag_171\n      jump\t// in\n    tag_344:\n        /* \"#utility.yul\":15433:15435   */\n      0x40\n        /* \"#utility.yul\":15428:15431   */\n      dup3\n        /* \"#utility.yul\":15424:15436   */\n      add\n        /* \"#utility.yul\":15417:15436   */\n      swap1\n      pop\n        /* \"#utility.yul\":15076:15442   */\n      swap2\n      swap1\n      pop\n      jump\t// out\n        /* \"#utility.yul\":15448:15867   */\n    tag_78:\n        /* \"#utility.yul\":15614:15618   */\n      0x00\n        /* \"#utility.yul\":15652:15654   */\n      0x20\n        /* \"#utility.yul\":15641:15650   */\n      dup3\n        /* \"#utility.yul\":15637:15655   */\n      add\n        /* \"#utility.yul\":15629:15655   */\n      swap1\n      pop\n        /* \"#utility.yul\":15701:15710   */\n      dup2\n        /* \"#utility.yul\":15695:15699   */\n      dup2\n        /* \"#utility.yul\":15691:15711   */\n      sub\n        /* \"#utility.yul\":15687:15688   */\n      0x00\n        /* \"#utility.yul\":15676:15685   */\n      dup4\n        /* \"#utility.yul\":15672:15689   */\n      add\n        /* \"#utility.yul\":15665:15712   */\n      mstore\n        /* \"#utility.yul\":15729:15860   */\n      tag_346\n        /* \"#utility.yul\":15855:15859   */\n      dup2\n        /* \"#utility.yul\":15729:15860   */\n      tag_172\n      jump\t// in\n    tag_346:\n        /* \"#utility.yul\":15721:15860   */\n      swap1\n      pop\n        /* \"#utility.yul\":15448:15867   */\n      swap2\n      swap1\n      pop\n      jump\t// out\n        /* \"#utility.yul\":15873:16053   */\n    tag_173:\n        /* \"#utility.yul\":16013:16045   */\n      0x456c20636162616c6c6f20696e6772657361646f206e6f206578697374650000\n        /* \"#utility.yul\":16009:16010   */\n      0x00\n        /* \"#utility.yul\":16001:16007   */\n      dup3\n        /* \"#utility.yul\":15997:16011   */\n      add\n        /* \"#utility.yul\":15990:16046   */\n      mstore\n        /* \"#utility.yul\":15873:16053   */\n      pop\n      jump\t// out\n        /* \"#utility.yul\":16059:16425   */\n    tag_174:\n        /* \"#utility.yul\":16201:16204   */\n      0x00\n        /* \"#utility.yul\":16222:16289   */\n      tag_349\n        /* \"#utility.yul\":16286:16288   */\n      0x1e\n        /* \"#utility.yul\":16281:16284   */\n      dup4\n        /* \"#utility.yul\":16222:16289   */\n      tag_144\n      jump\t// in\n    tag_349:\n        /* \"#utility.yul\":16215:16289   */\n      swap2\n      pop\n        /* \"#utility.yul\":16298:16391   */\n      tag_350\n        /* \"#utility.yul\":16387:16390   */\n      dup3\n        /* \"#utility.yul\":16298:16391   */\n      tag_173\n      jump\t// in\n    tag_350:\n        /* \"#utility.yul\":16416:16418   */\n      0x20\n        /* \"#utility.yul\":16411:16414   */\n      dup3\n        /* \"#utility.yul\":16407:16419   */\n      add\n        /* \"#utility.yul\":16400:16419   */\n      swap1\n      pop\n        /* \"#utility.yul\":16059:16425   */\n      swap2\n      swap1\n      pop\n      jump\t// out\n        /* \"#utility.yul\":16431:16850   */\n    tag_83:\n        /* \"#utility.yul\":16597:16601   */\n      0x00\n        /* \"#utility.yul\":16635:16637   */\n      0x20\n        /* \"#utility.yul\":16624:16633   */\n      dup3\n        /* \"#utility.yul\":16620:16638   */\n      add\n        /* \"#utility.yul\":16612:16638   */\n      swap1\n      pop\n        /* \"#utility.yul\":16684:16693   */\n      dup2\n        /* \"#utility.yul\":16678:16682   */\n      dup2\n        /* \"#utility.yul\":16674:16694   */\n      sub\n        /* \"#utility.yul\":16670:16671   */\n      0x00\n        /* \"#utility.yul\":16659:16668   */\n      dup4\n        /* \"#utility.yul\":16655:16672   */\n      add\n        /* \"#utility.yul\":16648:16695   */\n      mstore\n        /* \"#utility.yul\":16712:16843   */\n      tag_352\n        /* \"#utility.yul\":16838:16842   */\n      dup2\n        /* \"#utility.yul\":16712:16843   */\n      tag_174\n      jump\t// in\n    tag_352:\n        /* \"#utility.yul\":16704:16843   */\n      swap1\n      pop\n        /* \"#utility.yul\":16431:16850   */\n      swap2\n      swap1\n      pop\n      jump\t// out\n        /* \"#utility.yul\":16856:17036   */\n    tag_175:\n        /* \"#utility.yul\":16996:17028   */\n      0x4c61206361727265726120696e67726573616461206e6f206578697374650000\n        /* \"#utility.yul\":16992:16993   */\n      0x00\n        /* \"#utility.yul\":16984:16990   */\n      dup3\n        /* \"#utility.yul\":16980:16994   */\n      add\n        /* \"#utility.yul\":16973:17029   */\n      mstore\n        /* \"#utility.yul\":16856:17036   */\n      pop\n      jump\t// out\n        /* \"#utility.yul\":17042:17408   */\n    tag_176:\n        /* \"#utility.yul\":17184:17187   */\n      0x00\n        /* \"#utility.yul\":17205:17272   */\n      tag_355\n        /* \"#utility.yul\":17269:17271   */\n      0x1e\n        /* \"#utility.yul\":17264:17267   */\n      dup4\n        /* \"#utility.yul\":17205:17272   */\n      tag_144\n      jump\t// in\n    tag_355:\n        /* \"#utility.yul\":17198:17272   */\n      swap2\n      pop\n        /* \"#utility.yul\":17281:17374   */\n      tag_356\n        /* \"#utility.yul\":17370:17373   */\n      dup3\n        /* \"#utility.yul\":17281:17374   */\n      tag_175\n      jump\t// in\n    tag_356:\n        /* \"#utility.yul\":17399:17401   */\n      0x20\n        /* \"#utility.yul\":17394:17397   */\n      dup3\n        /* \"#utility.yul\":17390:17402   */\n      add\n        /* \"#utility.yul\":17383:17402   */\n      swap1\n      pop\n        /* \"#utility.yul\":17042:17408   */\n      swap2\n      swap1\n      pop\n      jump\t// out\n        /* \"#utility.yul\":17414:17833   */\n    tag_88:\n        /* \"#utility.yul\":17580:17584   */\n      0x00\n        /* \"#utility.yul\":17618:17620   */\n      0x20\n        /* \"#utility.yul\":17607:17616   */\n      dup3\n        /* \"#utility.yul\":17603:17621   */\n      add\n        /* \"#utility.yul\":17595:17621   */\n      swap1\n      pop\n        /* \"#utility.yul\":17667:17676   */\n      dup2\n        /* \"#utility.yul\":17661:17665   */\n      dup2\n        /* \"#utility.yul\":17657:17677   */\n      sub\n        /* \"#utility.yul\":17653:17654   */\n      0x00\n        /* \"#utility.yul\":17642:17651   */\n      dup4\n        /* \"#utility.yul\":17638:17655   */\n      add\n        /* \"#utility.yul\":17631:17678   */\n      mstore\n        /* \"#utility.yul\":17695:17826   */\n      tag_358\n        /* \"#utility.yul\":17821:17825   */\n      dup2\n        /* \"#utility.yul\":17695:17826   */\n      tag_176\n      jump\t// in\n    tag_358:\n        /* \"#utility.yul\":17687:17826   */\n      swap1\n      pop\n        /* \"#utility.yul\":17414:17833   */\n      swap2\n      swap1\n      pop\n      jump\t// out\n        /* \"#utility.yul\":17839:18072   */\n    tag_177:\n        /* \"#utility.yul\":17979:18013   */\n      0x4c612063617272657261206465626520636f6e74617220636f6e20616c206d65\n        /* \"#utility.yul\":17975:17976   */\n      0x00\n        /* \"#utility.yul\":17967:17973   */\n      dup3\n        /* \"#utility.yul\":17963:17977   */\n      add\n        /* \"#utility.yul\":17956:18014   */\n      mstore\n        /* \"#utility.yul\":18048:18064   */\n      0x6e6f73203220636162616c6c6f73000000000000000000000000000000000000\n        /* \"#utility.yul\":18043:18045   */\n      0x20\n        /* \"#utility.yul\":18035:18041   */\n      dup3\n        /* \"#utility.yul\":18031:18046   */\n      add\n        /* \"#utility.yul\":18024:18065   */\n      mstore\n        /* \"#utility.yul\":17839:18072   */\n      pop\n      jump\t// out\n        /* \"#utility.yul\":18078:18444   */\n    tag_178:\n        /* \"#utility.yul\":18220:18223   */\n      0x00\n        /* \"#utility.yul\":18241:18308   */\n      tag_361\n        /* \"#utility.yul\":18305:18307   */\n      0x2e\n        /* \"#utility.yul\":18300:18303   */\n      dup4\n        /* \"#utility.yul\":18241:18308   */\n      tag_144\n      jump\t// in\n    tag_361:\n        /* \"#utility.yul\":18234:18308   */\n      swap2\n      pop\n        /* \"#utility.yul\":18317:18410   */\n      tag_362\n        /* \"#utility.yul\":18406:18409   */\n      dup3\n        /* \"#utility.yul\":18317:18410   */\n      tag_177\n      jump\t// in\n    tag_362:\n        /* \"#utility.yul\":18435:18437   */\n      0x40\n        /* \"#utility.yul\":18430:18433   */\n      dup3\n        /* \"#utility.yul\":18426:18438   */\n      add\n        /* \"#utility.yul\":18419:18438   */\n      swap1\n      pop\n        /* \"#utility.yul\":18078:18444   */\n      swap2\n      swap1\n      pop\n      jump\t// out\n        /* \"#utility.yul\":18450:18869   */\n    tag_106:\n        /* \"#utility.yul\":18616:18620   */\n      0x00\n        /* \"#utility.yul\":18654:18656   */\n      0x20\n        /* \"#utility.yul\":18643:18652   */\n      dup3\n        /* \"#utility.yul\":18639:18657   */\n      add\n        /* \"#utility.yul\":18631:18657   */\n      swap1\n      pop\n        /* \"#utility.yul\":18703:18712   */\n      dup2\n        /* \"#utility.yul\":18697:18701   */\n      dup2\n        /* \"#utility.yul\":18693:18713   */\n      sub\n        /* \"#utility.yul\":18689:18690   */\n      0x00\n        /* \"#utility.yul\":18678:18687   */\n      dup4\n        /* \"#utility.yul\":18674:18691   */\n      add\n        /* \"#utility.yul\":18667:18714   */\n      mstore\n        /* \"#utility.yul\":18731:18862   */\n      tag_364\n        /* \"#utility.yul\":18857:18861   */\n      dup2\n        /* \"#utility.yul\":18731:18862   */\n      tag_178\n      jump\t// in\n    tag_364:\n        /* \"#utility.yul\":18723:18862   */\n      swap1\n      pop\n        /* \"#utility.yul\":18450:18869   */\n      swap2\n      swap1\n      pop\n      jump\t// out\n        /* \"#utility.yul\":18875:19055   */\n    tag_179:\n        /* \"#utility.yul\":18923:19000   */\n      0x4e487b7100000000000000000000000000000000000000000000000000000000\n        /* \"#utility.yul\":18920:18921   */\n      0x00\n        /* \"#utility.yul\":18913:19001   */\n      mstore\n        /* \"#utility.yul\":19020:19024   */\n      0x11\n        /* \"#utility.yul\":19017:19018   */\n      0x04\n        /* \"#utility.yul\":19010:19025   */\n      mstore\n        /* \"#utility.yul\":19044:19048   */\n      0x24\n        /* \"#utility.yul\":19041:19042   */\n      0x00\n        /* \"#utility.yul\":19034:19049   */\n      revert\n        /* \"#utility.yul\":19061:19252   */\n    tag_120:\n        /* \"#utility.yul\":19101:19104   */\n      0x00\n        /* \"#utility.yul\":19120:19140   */\n      tag_367\n        /* \"#utility.yul\":19138:19139   */\n      dup3\n        /* \"#utility.yul\":19120:19140   */\n      tag_129\n      jump\t// in\n    tag_367:\n        /* \"#utility.yul\":19115:19140   */\n      swap2\n      pop\n        /* \"#utility.yul\":19154:19174   */\n      tag_368\n        /* \"#utility.yul\":19172:19173   */\n      dup4\n        /* \"#utility.yul\":19154:19174   */\n      tag_129\n      jump\t// in\n    tag_368:\n        /* \"#utility.yul\":19149:19174   */\n      swap3\n      pop\n        /* \"#utility.yul\":19197:19198   */\n      dup3\n        /* \"#utility.yul\":19194:19195   */\n      dup3\n        /* \"#utility.yul\":19190:19199   */\n      add\n        /* \"#utility.yul\":19183:19199   */\n      swap1\n      pop\n        /* \"#utility.yul\":19218:19221   */\n      dup1\n        /* \"#utility.yul\":19215:19216   */\n      dup3\n        /* \"#utility.yul\":19212:19222   */\n      gt\n        /* \"#utility.yul\":19209:19245   */\n      iszero\n      tag_369\n      jumpi\n        /* \"#utility.yul\":19225:19243   */\n      tag_370\n      tag_179\n      jump\t// in\n    tag_370:\n        /* \"#utility.yul\":19209:19245   */\n    tag_369:\n        /* \"#utility.yul\":19061:19252   */\n      swap3\n      swap2\n      pop\n      pop\n      jump\t// out\n\n    auxdata: 0xa264697066735822122040050cefe79f3db7dcc531fbf22d5ef57b2cb910546383149ffc3c25e712facc64736f6c63430008110033\n}\n",
				"bytecode": {
					"linkReferences": {},
					"object": "608060405234801561001057600080fd5b50336000806101000a81548173ffffffffffffffffffffffffffffffffffffffff021916908373ffffffffffffffffffffffffffffffffffffffff1602179055506114a9806100606000396000f3fe608060405234801561001057600080fd5b50600436106100935760003560e01c8063e9ec558311610066578063e9ec558314610120578063f0b73b541461013e578063f7edd6db1461016f578063f9d32e491461018b578063fb34d0f7146101a757610093565b8063456f4b57146100985780635194f59c146100b65780635ee81666146100d2578063d75262f314610104575b600080fd5b6100a06101d7565b6040516100ad9190610a10565b60405180910390f35b6100d060048036038101906100cb9190610bbb565b6101fb565b005b6100ec60048036038101906100e79190610c17565b6102d8565b6040516100fb93929190610d49565b60405180910390f35b61011e60048036038101906101199190610d87565b610397565b005b61012861061a565b6040516101359190610dc7565b60405180910390f35b61015860048036038101906101539190610c17565b610620565b604051610166929190610de2565b60405180910390f35b61018960048036038101906101849190610c17565b6106cc565b005b6101a560048036038101906101a09190610bbb565b61085e565b005b6101c160048036038101906101bc9190610d87565b61099e565b6040516101ce9190610dc7565b60405180910390f35b60008054906101000a900473ffffffffffffffffffffffffffffffffffffffff1681565b60008054906101000a900473ffffffffffffffffffffffffffffffffffffffff1673ffffffffffffffffffffffffffffffffffffffff163373ffffffffffffffffffffffffffffffffffffffff1614610289576040517f08c379a000000000000000000000000000000000000000000000000000000000815260040161028090610e84565b60405180910390fd5b604051806040016040528083815260200182815250600260008481526020019081526020016000206000820151816000015560208201518160010190816102d091906110b0565b509050505050565b600160205280600052604060002060009150905080600001549080600101805461030190610ed3565b80601f016020809104026020016040519081016040528092919081815260200182805461032d90610ed3565b801561037a5780601f1061034f5761010080835404028352916020019161037a565b820191906000526020600020905b81548152906001019060200180831161035d57829003601f168201915b5050505050908060020160009054906101000a900460ff16905083565b60008054906101000a900473ffffffffffffffffffffffffffffffffffffffff1673ffffffffffffffffffffffffffffffffffffffff163373ffffffffffffffffffffffffffffffffffffffff1614610425576040517f08c379a000000000000000000000000000000000000000000000000000000000815260040161041c90610e84565b60405180910390fd5b80600080600281111561043b5761043a610cd2565b5b6001600084815260200190815260200160002060020160009054906101000a900460ff16600281111561047157610470610cd2565b5b146104b1576040517f08c379a00000000000000000000000000000000000000000000000000000000081526004016104a8906111f4565b60405180910390fd5b82600560046000838152602001908152602001600020805490501061050b576040517f08c379a000000000000000000000000000000000000000000000000000000000815260040161050290611286565b60405180910390fd5b84600060026000838152602001908152602001600020600101805461052f90610ed3565b905003610571576040517f08c379a0000000000000000000000000000000000000000000000000000000008152600401610568906112f2565b60405180910390fd5b84600060026000838152602001908152602001600020600101805461059590610ed3565b9050036105d7576040517f08c379a00000000000000000000000000000000000000000000000000000000081526004016105ce9061135e565b60405180910390fd5b6004600087815260200190815260200160002087908060018154018082558091505060019003906000526020600020016000909190919091505550505050505050565b60035481565b600260205280600052604060002060009150905080600001549080600101805461064990610ed3565b80601f016020809104026020016040519081016040528092919081815260200182805461067590610ed3565b80156106c25780601f10610697576101008083540402835291602001916106c2565b820191906000526020600020905b8154815290600101906020018083116106a557829003601f168201915b5050505050905082565b60008054906101000a900473ffffffffffffffffffffffffffffffffffffffff1673ffffffffffffffffffffffffffffffffffffffff163373ffffffffffffffffffffffffffffffffffffffff161461075a576040517f08c379a000000000000000000000000000000000000000000000000000000000815260040161075190610e84565b60405180910390fd5b80600060026000838152602001908152602001600020600101805461077e90610ed3565b9050036107c0576040517f08c379a00000000000000000000000000000000000000000000000000000000081526004016107b79061135e565b60405180910390fd5b8160026004600083815260200190815260200160002080549050101561081b576040517f08c379a0000000000000000000000000000000000000000000000000000000008152600401610812906113f0565b60405180910390fd5b600180600085815260200190815260200160002060020160006101000a81548160ff0219169083600281111561085457610853610cd2565b5b0217905550505050565b60008054906101000a900473ffffffffffffffffffffffffffffffffffffffff1673ffffffffffffffffffffffffffffffffffffffff163373ffffffffffffffffffffffffffffffffffffffff16146108ec576040517f08c379a00000000000000000000000000000000000000000000000000000000081526004016108e390610e84565b60405180910390fd5b60405180606001604052808381526020018281526020016000600281111561091757610916610cd2565b5b8152506001600084815260200190815260200160002060008201518160000155602082015181600101908161094c91906110b0565b5060408201518160020160006101000a81548160ff0219169083600281111561097857610977610cd2565b5b0217905550905050600160036000828254610993919061143f565b925050819055505050565b600460205281600052604060002081815481106109ba57600080fd5b90600052602060002001600091509150505481565b600073ffffffffffffffffffffffffffffffffffffffff82169050919050565b60006109fa826109cf565b9050919050565b610a0a816109ef565b82525050565b6000602082019050610a256000830184610a01565b92915050565b6000604051905090565b600080fd5b600080fd5b6000819050919050565b610a5281610a3f565b8114610a5d57600080fd5b50565b600081359050610a6f81610a49565b92915050565b600080fd5b600080fd5b6000601f19601f8301169050919050565b7f4e487b7100000000000000000000000000000000000000000000000000000000600052604160045260246000fd5b610ac882610a7f565b810181811067ffffffffffffffff82111715610ae757610ae6610a90565b5b80604052505050565b6000610afa610a2b565b9050610b068282610abf565b919050565b600067ffffffffffffffff821115610b2657610b25610a90565b5b610b2f82610a7f565b9050602081019050919050565b82818337600083830152505050565b6000610b5e610b5984610b0b565b610af0565b905082815260208101848484011115610b7a57610b79610a7a565b5b610b85848285610b3c565b509392505050565b600082601f830112610ba257610ba1610a75565b5b8135610bb2848260208601610b4b565b91505092915050565b60008060408385031215610bd257610bd1610a35565b5b6000610be085828601610a60565b925050602083013567ffffffffffffffff811115610c0157610c00610a3a565b5b610c0d85828601610b8d565b9150509250929050565b600060208284031215610c2d57610c2c610a35565b5b6000610c3b84828501610a60565b91505092915050565b610c4d81610a3f565b82525050565b600081519050919050565b600082825260208201905092915050565b60005b83811015610c8d578082015181840152602081019050610c72565b60008484015250505050565b6000610ca482610c53565b610cae8185610c5e565b9350610cbe818560208601610c6f565b610cc781610a7f565b840191505092915050565b7f4e487b7100000000000000000000000000000000000000000000000000000000600052602160045260246000fd5b60038110610d1257610d11610cd2565b5b50565b6000819050610d2382610d01565b919050565b6000610d3382610d15565b9050919050565b610d4381610d28565b82525050565b6000606082019050610d5e6000830186610c44565b8181036020830152610d708185610c99565b9050610d7f6040830184610d3a565b949350505050565b60008060408385031215610d9e57610d9d610a35565b5b6000610dac85828601610a60565b9250506020610dbd85828601610a60565b9150509250929050565b6000602082019050610ddc6000830184610c44565b92915050565b6000604082019050610df76000830185610c44565b8181036020830152610e098184610c99565b90509392505050565b7f456c20696e766f6361646f7220646562652073657220656c20616e666974726960008201527f6f6e000000000000000000000000000000000000000000000000000000000000602082015250565b6000610e6e602283610c5e565b9150610e7982610e12565b604082019050919050565b60006020820190508181036000830152610e9d81610e61565b9050919050565b7f4e487b7100000000000000000000000000000000000000000000000000000000600052602260045260246000fd5b60006002820490506001821680610eeb57607f821691505b602082108103610efe57610efd610ea4565b5b50919050565b60008190508160005260206000209050919050565b60006020601f8301049050919050565b600082821b905092915050565b600060088302610f667fffffffffffffffffffffffffffffffffffffffffffffffffffffffffffffffff82610f29565b610f708683610f29565b95508019841693508086168417925050509392505050565b6000819050919050565b6000610fad610fa8610fa384610a3f565b610f88565b610a3f565b9050919050565b6000819050919050565b610fc783610f92565b610fdb610fd382610fb4565b848454610f36565b825550505050565b600090565b610ff0610fe3565b610ffb818484610fbe565b505050565b5b8181101561101f57611014600082610fe8565b600181019050611001565b5050565b601f8211156110645761103581610f04565b61103e84610f19565b8101602085101561104d578190505b61106161105985610f19565b830182611000565b50505b505050565b600082821c905092915050565b600061108760001984600802611069565b1980831691505092915050565b60006110a08383611076565b9150826002028217905092915050565b6110b982610c53565b67ffffffffffffffff8111156110d2576110d1610a90565b5b6110dc8254610ed3565b6110e7828285611023565b600060209050601f83116001811461111a5760008415611108578287015190505b6111128582611094565b86555061117a565b601f19841661112886610f04565b60005b828110156111505784890151825560018201915060208501945060208101905061112b565b8683101561116d5784890151611169601f891682611076565b8355505b6001600288020188555050505b505050505050565b7f4c612063617272657261206e6f2063756d706c6520636f6e20656c206573746160008201527f646f2072657175657269646f0000000000000000000000000000000000000000602082015250565b60006111de602c83610c5e565b91506111e982611182565b604082019050919050565b6000602082019050818103600083015261120d816111d1565b9050919050565b7f4c612063617272657261207961206375656e746120636f6e203520636162616c60008201527f6c6f730000000000000000000000000000000000000000000000000000000000602082015250565b6000611270602383610c5e565b915061127b82611214565b604082019050919050565b6000602082019050818103600083015261129f81611263565b9050919050565b7f456c20636162616c6c6f20696e6772657361646f206e6f206578697374650000600082015250565b60006112dc601e83610c5e565b91506112e7826112a6565b602082019050919050565b6000602082019050818103600083015261130b816112cf565b9050919050565b7f4c61206361727265726120696e67726573616461206e6f206578697374650000600082015250565b6000611348601e83610c5e565b915061135382611312565b602082019050919050565b600060208201905081810360008301526113778161133b565b9050919050565b7f4c612063617272657261206465626520636f6e74617220636f6e20616c206d6560008201527f6e6f73203220636162616c6c6f73000000000000000000000000000000000000602082015250565b60006113da602e83610c5e565b91506113e58261137e565b604082019050919050565b60006020820190508181036000830152611409816113cd565b9050919050565b7f4e487b7100000000000000000000000000000000000000000000000000000000600052601160045260246000fd5b600061144a82610a3f565b915061145583610a3f565b925082820190508082111561146d5761146c611410565b5b9291505056fea264697066735822122040050cefe79f3db7dcc531fbf22d5ef57b2cb910546383149ffc3c25e712facc64736f6c63430008110033",
					"opcodes": "PUSH1 0x80 PUSH1 0x40 MSTORE CALLVALUE DUP1 ISZERO PUSH2 0x10 JUMPI PUSH1 0x0 DUP1 REVERT JUMPDEST POP CALLER PUSH1 0x0 DUP1 PUSH2 0x100 EXP DUP2 SLOAD DUP2 PUSH20 0xFFFFFFFFFFFFFFFFFFFFFFFFFFFFFFFFFFFFFFFF MUL NOT AND SWAP1 DUP4 PUSH20 0xFFFFFFFFFFFFFFFFFFFFFFFFFFFFFFFFFFFFFFFF AND MUL OR SWAP1 SSTORE POP PUSH2 0x14A9 DUP1 PUSH2 0x60 PUSH1 0x0 CODECOPY PUSH1 0x0 RETURN INVALID PUSH1 0x80 PUSH1 0x40 MSTORE CALLVALUE DUP1 ISZERO PUSH2 0x10 JUMPI PUSH1 0x0 DUP1 REVERT JUMPDEST POP PUSH1 0x4 CALLDATASIZE LT PUSH2 0x93 JUMPI PUSH1 0x0 CALLDATALOAD PUSH1 0xE0 SHR DUP1 PUSH4 0xE9EC5583 GT PUSH2 0x66 JUMPI DUP1 PUSH4 0xE9EC5583 EQ PUSH2 0x120 JUMPI DUP1 PUSH4 0xF0B73B54 EQ PUSH2 0x13E JUMPI DUP1 PUSH4 0xF7EDD6DB EQ PUSH2 0x16F JUMPI DUP1 PUSH4 0xF9D32E49 EQ PUSH2 0x18B JUMPI DUP1 PUSH4 0xFB34D0F7 EQ PUSH2 0x1A7 JUMPI PUSH2 0x93 JUMP JUMPDEST DUP1 PUSH4 0x456F4B57 EQ PUSH2 0x98 JUMPI DUP1 PUSH4 0x5194F59C EQ PUSH2 0xB6 JUMPI DUP1 PUSH4 0x5EE81666 EQ PUSH2 0xD2 JUMPI DUP1 PUSH4 0xD75262F3 EQ PUSH2 0x104 JUMPI JUMPDEST PUSH1 0x0 DUP1 REVERT JUMPDEST PUSH2 0xA0 PUSH2 0x1D7 JUMP JUMPDEST PUSH1 0x40 MLOAD PUSH2 0xAD SWAP2 SWAP1 PUSH2 0xA10 JUMP JUMPDEST PUSH1 0x40 MLOAD DUP1 SWAP2 SUB SWAP1 RETURN JUMPDEST PUSH2 0xD0 PUSH1 0x4 DUP1 CALLDATASIZE SUB DUP2 ADD SWAP1 PUSH2 0xCB SWAP2 SWAP1 PUSH2 0xBBB JUMP JUMPDEST PUSH2 0x1FB JUMP JUMPDEST STOP JUMPDEST PUSH2 0xEC PUSH1 0x4 DUP1 CALLDATASIZE SUB DUP2 ADD SWAP1 PUSH2 0xE7 SWAP2 SWAP1 PUSH2 0xC17 JUMP JUMPDEST PUSH2 0x2D8 JUMP JUMPDEST PUSH1 0x40 MLOAD PUSH2 0xFB SWAP4 SWAP3 SWAP2 SWAP1 PUSH2 0xD49 JUMP JUMPDEST PUSH1 0x40 MLOAD DUP1 SWAP2 SUB SWAP1 RETURN JUMPDEST PUSH2 0x11E PUSH1 0x4 DUP1 CALLDATASIZE SUB DUP2 ADD SWAP1 PUSH2 0x119 SWAP2 SWAP1 PUSH2 0xD87 JUMP JUMPDEST PUSH2 0x397 JUMP JUMPDEST STOP JUMPDEST PUSH2 0x128 PUSH2 0x61A JUMP JUMPDEST PUSH1 0x40 MLOAD PUSH2 0x135 SWAP2 SWAP1 PUSH2 0xDC7 JUMP JUMPDEST PUSH1 0x40 MLOAD DUP1 SWAP2 SUB SWAP1 RETURN JUMPDEST PUSH2 0x158 PUSH1 0x4 DUP1 CALLDATASIZE SUB DUP2 ADD SWAP1 PUSH2 0x153 SWAP2 SWAP1 PUSH2 0xC17 JUMP JUMPDEST PUSH2 0x620 JUMP JUMPDEST PUSH1 0x40 MLOAD PUSH2 0x166 SWAP3 SWAP2 SWAP1 PUSH2 0xDE2 JUMP JUMPDEST PUSH1 0x40 MLOAD DUP1 SWAP2 SUB SWAP1 RETURN JUMPDEST PUSH2 0x189 PUSH1 0x4 DUP1 CALLDATASIZE SUB DUP2 ADD SWAP1 PUSH2 0x184 SWAP2 SWAP1 PUSH2 0xC17 JUMP JUMPDEST PUSH2 0x6CC JUMP JUMPDEST STOP JUMPDEST PUSH2 0x1A5 PUSH1 0x4 DUP1 CALLDATASIZE SUB DUP2 ADD SWAP1 PUSH2 0x1A0 SWAP2 SWAP1 PUSH2 0xBBB JUMP JUMPDEST PUSH2 0x85E JUMP JUMPDEST STOP JUMPDEST PUSH2 0x1C1 PUSH1 0x4 DUP1 CALLDATASIZE SUB DUP2 ADD SWAP1 PUSH2 0x1BC SWAP2 SWAP1 PUSH2 0xD87 JUMP JUMPDEST PUSH2 0x99E JUMP JUMPDEST PUSH1 0x40 MLOAD PUSH2 0x1CE SWAP2 SWAP1 PUSH2 0xDC7 JUMP JUMPDEST PUSH1 0x40 MLOAD DUP1 SWAP2 SUB SWAP1 RETURN JUMPDEST PUSH1 0x0 DUP1 SLOAD SWAP1 PUSH2 0x100 EXP SWAP1 DIV PUSH20 0xFFFFFFFFFFFFFFFFFFFFFFFFFFFFFFFFFFFFFFFF AND DUP2 JUMP JUMPDEST PUSH1 0x0 DUP1 SLOAD SWAP1 PUSH2 0x100 EXP SWAP1 DIV PUSH20 0xFFFFFFFFFFFFFFFFFFFFFFFFFFFFFFFFFFFFFFFF AND PUSH20 0xFFFFFFFFFFFFFFFFFFFFFFFFFFFFFFFFFFFFFFFF AND CALLER PUSH20 0xFFFFFFFFFFFFFFFFFFFFFFFFFFFFFFFFFFFFFFFF AND EQ PUSH2 0x289 JUMPI PUSH1 0x40 MLOAD PUSH32 0x8C379A000000000000000000000000000000000000000000000000000000000 DUP2 MSTORE PUSH1 0x4 ADD PUSH2 0x280 SWAP1 PUSH2 0xE84 JUMP JUMPDEST PUSH1 0x40 MLOAD DUP1 SWAP2 SUB SWAP1 REVERT JUMPDEST PUSH1 0x40 MLOAD DUP1 PUSH1 0x40 ADD PUSH1 0x40 MSTORE DUP1 DUP4 DUP2 MSTORE PUSH1 0x20 ADD DUP3 DUP2 MSTORE POP PUSH1 0x2 PUSH1 0x0 DUP5 DUP2 MSTORE PUSH1 0x20 ADD SWAP1 DUP2 MSTORE PUSH1 0x20 ADD PUSH1 0x0 KECCAK256 PUSH1 0x0 DUP3 ADD MLOAD DUP2 PUSH1 0x0 ADD SSTORE PUSH1 0x20 DUP3 ADD MLOAD DUP2 PUSH1 0x1 ADD SWAP1 DUP2 PUSH2 0x2D0 SWAP2 SWAP1 PUSH2 0x10B0 JUMP JUMPDEST POP SWAP1 POP POP POP POP JUMP JUMPDEST PUSH1 0x1 PUSH1 0x20 MSTORE DUP1 PUSH1 0x0 MSTORE PUSH1 0x40 PUSH1 0x0 KECCAK256 PUSH1 0x0 SWAP2 POP SWAP1 POP DUP1 PUSH1 0x0 ADD SLOAD SWAP1 DUP1 PUSH1 0x1 ADD DUP1 SLOAD PUSH2 0x301 SWAP1 PUSH2 0xED3 JUMP JUMPDEST DUP1 PUSH1 0x1F ADD PUSH1 0x20 DUP1 SWAP2 DIV MUL PUSH1 0x20 ADD PUSH1 0x40 MLOAD SWAP1 DUP2 ADD PUSH1 0x40 MSTORE DUP1 SWAP3 SWAP2 SWAP1 DUP2 DUP2 MSTORE PUSH1 0x20 ADD DUP3 DUP1 SLOAD PUSH2 0x32D SWAP1 PUSH2 0xED3 JUMP JUMPDEST DUP1 ISZERO PUSH2 0x37A JUMPI DUP1 PUSH1 0x1F LT PUSH2 0x34F JUMPI PUSH2 0x100 DUP1 DUP4 SLOAD DIV MUL DUP4 MSTORE SWAP2 PUSH1 0x20 ADD SWAP2 PUSH2 0x37A JUMP JUMPDEST DUP3 ADD SWAP2 SWAP1 PUSH1 0x0 MSTORE PUSH1 0x20 PUSH1 0x0 KECCAK256 SWAP1 JUMPDEST DUP2 SLOAD DUP2 MSTORE SWAP1 PUSH1 0x1 ADD SWAP1 PUSH1 0x20 ADD DUP1 DUP4 GT PUSH2 0x35D JUMPI DUP3 SWAP1 SUB PUSH1 0x1F AND DUP3 ADD SWAP2 JUMPDEST POP POP POP POP POP SWAP1 DUP1 PUSH1 0x2 ADD PUSH1 0x0 SWAP1 SLOAD SWAP1 PUSH2 0x100 EXP SWAP1 DIV PUSH1 0xFF AND SWAP1 POP DUP4 JUMP JUMPDEST PUSH1 0x0 DUP1 SLOAD SWAP1 PUSH2 0x100 EXP SWAP1 DIV PUSH20 0xFFFFFFFFFFFFFFFFFFFFFFFFFFFFFFFFFFFFFFFF AND PUSH20 0xFFFFFFFFFFFFFFFFFFFFFFFFFFFFFFFFFFFFFFFF AND CALLER PUSH20 0xFFFFFFFFFFFFFFFFFFFFFFFFFFFFFFFFFFFFFFFF AND EQ PUSH2 0x425 JUMPI PUSH1 0x40 MLOAD PUSH32 0x8C379A000000000000000000000000000000000000000000000000000000000 DUP2 MSTORE PUSH1 0x4 ADD PUSH2 0x41C SWAP1 PUSH2 0xE84 JUMP JUMPDEST PUSH1 0x40 MLOAD DUP1 SWAP2 SUB SWAP1 REVERT JUMPDEST DUP1 PUSH1 0x0 DUP1 PUSH1 0x2 DUP2 GT ISZERO PUSH2 0x43B JUMPI PUSH2 0x43A PUSH2 0xCD2 JUMP JUMPDEST JUMPDEST PUSH1 0x1 PUSH1 0x0 DUP5 DUP2 MSTORE PUSH1 0x20 ADD SWAP1 DUP2 MSTORE PUSH1 0x20 ADD PUSH1 0x0 KECCAK256 PUSH1 0x2 ADD PUSH1 0x0 SWAP1 SLOAD SWAP1 PUSH2 0x100 EXP SWAP1 DIV PUSH1 0xFF AND PUSH1 0x2 DUP2 GT ISZERO PUSH2 0x471 JUMPI PUSH2 0x470 PUSH2 0xCD2 JUMP JUMPDEST JUMPDEST EQ PUSH2 0x4B1 JUMPI PUSH1 0x40 MLOAD PUSH32 0x8C379A000000000000000000000000000000000000000000000000000000000 DUP2 MSTORE PUSH1 0x4 ADD PUSH2 0x4A8 SWAP1 PUSH2 0x11F4 JUMP JUMPDEST PUSH1 0x40 MLOAD DUP1 SWAP2 SUB SWAP1 REVERT JUMPDEST DUP3 PUSH1 0x5 PUSH1 0x4 PUSH1 0x0 DUP4 DUP2 MSTORE PUSH1 0x20 ADD SWAP1 DUP2 MSTORE PUSH1 0x20 ADD PUSH1 0x0 KECCAK256 DUP1 SLOAD SWAP1 POP LT PUSH2 0x50B JUMPI PUSH1 0x40 MLOAD PUSH32 0x8C379A000000000000000000000000000000000000000000000000000000000 DUP2 MSTORE PUSH1 0x4 ADD PUSH2 0x502 SWAP1 PUSH2 0x1286 JUMP JUMPDEST PUSH1 0x40 MLOAD DUP1 SWAP2 SUB SWAP1 REVERT JUMPDEST DUP5 PUSH1 0x0 PUSH1 0x2 PUSH1 0x0 DUP4 DUP2 MSTORE PUSH1 0x20 ADD SWAP1 DUP2 MSTORE PUSH1 0x20 ADD PUSH1 0x0 KECCAK256 PUSH1 0x1 ADD DUP1 SLOAD PUSH2 0x52F SWAP1 PUSH2 0xED3 JUMP JUMPDEST SWAP1 POP SUB PUSH2 0x571 JUMPI PUSH1 0x40 MLOAD PUSH32 0x8C379A000000000000000000000000000000000000000000000000000000000 DUP2 MSTORE PUSH1 0x4 ADD PUSH2 0x568 SWAP1 PUSH2 0x12F2 JUMP JUMPDEST PUSH1 0x40 MLOAD DUP1 SWAP2 SUB SWAP1 REVERT JUMPDEST DUP5 PUSH1 0x0 PUSH1 0x2 PUSH1 0x0 DUP4 DUP2 MSTORE PUSH1 0x20 ADD SWAP1 DUP2 MSTORE PUSH1 0x20 ADD PUSH1 0x0 KECCAK256 PUSH1 0x1 ADD DUP1 SLOAD PUSH2 0x595 SWAP1 PUSH2 0xED3 JUMP JUMPDEST SWAP1 POP SUB PUSH2 0x5D7 JUMPI PUSH1 0x40 MLOAD PUSH32 0x8C379A000000000000000000000000000000000000000000000000000000000 DUP2 MSTORE PUSH1 0x4 ADD PUSH2 0x5CE SWAP1 PUSH2 0x135E JUMP JUMPDEST PUSH1 0x40 MLOAD DUP1 SWAP2 SUB SWAP1 REVERT JUMPDEST PUSH1 0x4 PUSH1 0x0 DUP8 DUP2 MSTORE PUSH1 0x20 ADD SWAP1 DUP2 MSTORE PUSH1 0x20 ADD PUSH1 0x0 KECCAK256 DUP8 SWAP1 DUP1 PUSH1 0x1 DUP2 SLOAD ADD DUP1 DUP3 SSTORE DUP1 SWAP2 POP POP PUSH1 0x1 SWAP1 SUB SWAP1 PUSH1 0x0 MSTORE PUSH1 0x20 PUSH1 0x0 KECCAK256 ADD PUSH1 0x0 SWAP1 SWAP2 SWAP1 SWAP2 SWAP1 SWAP2 POP SSTORE POP POP POP POP POP POP POP JUMP JUMPDEST PUSH1 0x3 SLOAD DUP2 JUMP JUMPDEST PUSH1 0x2 PUSH1 0x20 MSTORE DUP1 PUSH1 0x0 MSTORE PUSH1 0x40 PUSH1 0x0 KECCAK256 PUSH1 0x0 SWAP2 POP SWAP1 POP DUP1 PUSH1 0x0 ADD SLOAD SWAP1 DUP1 PUSH1 0x1 ADD DUP1 SLOAD PUSH2 0x649 SWAP1 PUSH2 0xED3 JUMP JUMPDEST DUP1 PUSH1 0x1F ADD PUSH1 0x20 DUP1 SWAP2 DIV MUL PUSH1 0x20 ADD PUSH1 0x40 MLOAD SWAP1 DUP2 ADD PUSH1 0x40 MSTORE DUP1 SWAP3 SWAP2 SWAP1 DUP2 DUP2 MSTORE PUSH1 0x20 ADD DUP3 DUP1 SLOAD PUSH2 0x675 SWAP1 PUSH2 0xED3 JUMP JUMPDEST DUP1 ISZERO PUSH2 0x6C2 JUMPI DUP1 PUSH1 0x1F LT PUSH2 0x697 JUMPI PUSH2 0x100 DUP1 DUP4 SLOAD DIV MUL DUP4 MSTORE SWAP2 PUSH1 0x20 ADD SWAP2 PUSH2 0x6C2 JUMP JUMPDEST DUP3 ADD SWAP2 SWAP1 PUSH1 0x0 MSTORE PUSH1 0x20 PUSH1 0x0 KECCAK256 SWAP1 JUMPDEST DUP2 SLOAD DUP2 MSTORE SWAP1 PUSH1 0x1 ADD SWAP1 PUSH1 0x20 ADD DUP1 DUP4 GT PUSH2 0x6A5 JUMPI DUP3 SWAP1 SUB PUSH1 0x1F AND DUP3 ADD SWAP2 JUMPDEST POP POP POP POP POP SWAP1 POP DUP3 JUMP JUMPDEST PUSH1 0x0 DUP1 SLOAD SWAP1 PUSH2 0x100 EXP SWAP1 DIV PUSH20 0xFFFFFFFFFFFFFFFFFFFFFFFFFFFFFFFFFFFFFFFF AND PUSH20 0xFFFFFFFFFFFFFFFFFFFFFFFFFFFFFFFFFFFFFFFF AND CALLER PUSH20 0xFFFFFFFFFFFFFFFFFFFFFFFFFFFFFFFFFFFFFFFF AND EQ PUSH2 0x75A JUMPI PUSH1 0x40 MLOAD PUSH32 0x8C379A000000000000000000000000000000000000000000000000000000000 DUP2 MSTORE PUSH1 0x4 ADD PUSH2 0x751 SWAP1 PUSH2 0xE84 JUMP JUMPDEST PUSH1 0x40 MLOAD DUP1 SWAP2 SUB SWAP1 REVERT JUMPDEST DUP1 PUSH1 0x0 PUSH1 0x2 PUSH1 0x0 DUP4 DUP2 MSTORE PUSH1 0x20 ADD SWAP1 DUP2 MSTORE PUSH1 0x20 ADD PUSH1 0x0 KECCAK256 PUSH1 0x1 ADD DUP1 SLOAD PUSH2 0x77E SWAP1 PUSH2 0xED3 JUMP JUMPDEST SWAP1 POP SUB PUSH2 0x7C0 JUMPI PUSH1 0x40 MLOAD PUSH32 0x8C379A000000000000000000000000000000000000000000000000000000000 DUP2 MSTORE PUSH1 0x4 ADD PUSH2 0x7B7 SWAP1 PUSH2 0x135E JUMP JUMPDEST PUSH1 0x40 MLOAD DUP1 SWAP2 SUB SWAP1 REVERT JUMPDEST DUP2 PUSH1 0x2 PUSH1 0x4 PUSH1 0x0 DUP4 DUP2 MSTORE PUSH1 0x20 ADD SWAP1 DUP2 MSTORE PUSH1 0x20 ADD PUSH1 0x0 KECCAK256 DUP1 SLOAD SWAP1 POP LT ISZERO PUSH2 0x81B JUMPI PUSH1 0x40 MLOAD PUSH32 0x8C379A000000000000000000000000000000000000000000000000000000000 DUP2 MSTORE PUSH1 0x4 ADD PUSH2 0x812 SWAP1 PUSH2 0x13F0 JUMP JUMPDEST PUSH1 0x40 MLOAD DUP1 SWAP2 SUB SWAP1 REVERT JUMPDEST PUSH1 0x1 DUP1 PUSH1 0x0 DUP6 DUP2 MSTORE PUSH1 0x20 ADD SWAP1 DUP2 MSTORE PUSH1 0x20 ADD PUSH1 0x0 KECCAK256 PUSH1 0x2 ADD PUSH1 0x0 PUSH2 0x100 EXP DUP2 SLOAD DUP2 PUSH1 0xFF MUL NOT AND SWAP1 DUP4 PUSH1 0x2 DUP2 GT ISZERO PUSH2 0x854 JUMPI PUSH2 0x853 PUSH2 0xCD2 JUMP JUMPDEST JUMPDEST MUL OR SWAP1 SSTORE POP POP POP POP JUMP JUMPDEST PUSH1 0x0 DUP1 SLOAD SWAP1 PUSH2 0x100 EXP SWAP1 DIV PUSH20 0xFFFFFFFFFFFFFFFFFFFFFFFFFFFFFFFFFFFFFFFF AND PUSH20 0xFFFFFFFFFFFFFFFFFFFFFFFFFFFFFFFFFFFFFFFF AND CALLER PUSH20 0xFFFFFFFFFFFFFFFFFFFFFFFFFFFFFFFFFFFFFFFF AND EQ PUSH2 0x8EC JUMPI PUSH1 0x40 MLOAD PUSH32 0x8C379A000000000000000000000000000000000000000000000000000000000 DUP2 MSTORE PUSH1 0x4 ADD PUSH2 0x8E3 SWAP1 PUSH2 0xE84 JUMP JUMPDEST PUSH1 0x40 MLOAD DUP1 SWAP2 SUB SWAP1 REVERT JUMPDEST PUSH1 0x40 MLOAD DUP1 PUSH1 0x60 ADD PUSH1 0x40 MSTORE DUP1 DUP4 DUP2 MSTORE PUSH1 0x20 ADD DUP3 DUP2 MSTORE PUSH1 0x20 ADD PUSH1 0x0 PUSH1 0x2 DUP2 GT ISZERO PUSH2 0x917 JUMPI PUSH2 0x916 PUSH2 0xCD2 JUMP JUMPDEST JUMPDEST DUP2 MSTORE POP PUSH1 0x1 PUSH1 0x0 DUP5 DUP2 MSTORE PUSH1 0x20 ADD SWAP1 DUP2 MSTORE PUSH1 0x20 ADD PUSH1 0x0 KECCAK256 PUSH1 0x0 DUP3 ADD MLOAD DUP2 PUSH1 0x0 ADD SSTORE PUSH1 0x20 DUP3 ADD MLOAD DUP2 PUSH1 0x1 ADD SWAP1 DUP2 PUSH2 0x94C SWAP2 SWAP1 PUSH2 0x10B0 JUMP JUMPDEST POP PUSH1 0x40 DUP3 ADD MLOAD DUP2 PUSH1 0x2 ADD PUSH1 0x0 PUSH2 0x100 EXP DUP2 SLOAD DUP2 PUSH1 0xFF MUL NOT AND SWAP1 DUP4 PUSH1 0x2 DUP2 GT ISZERO PUSH2 0x978 JUMPI PUSH2 0x977 PUSH2 0xCD2 JUMP JUMPDEST JUMPDEST MUL OR SWAP1 SSTORE POP SWAP1 POP POP PUSH1 0x1 PUSH1 0x3 PUSH1 0x0 DUP3 DUP3 SLOAD PUSH2 0x993 SWAP2 SWAP1 PUSH2 0x143F JUMP JUMPDEST SWAP3 POP POP DUP2 SWAP1 SSTORE POP POP POP JUMP JUMPDEST PUSH1 0x4 PUSH1 0x20 MSTORE DUP2 PUSH1 0x0 MSTORE PUSH1 0x40 PUSH1 0x0 KECCAK256 DUP2 DUP2 SLOAD DUP2 LT PUSH2 0x9BA JUMPI PUSH1 0x0 DUP1 REVERT JUMPDEST SWAP1 PUSH1 0x0 MSTORE PUSH1 0x20 PUSH1 0x0 KECCAK256 ADD PUSH1 0x0 SWAP2 POP SWAP2 POP POP SLOAD DUP2 JUMP JUMPDEST PUSH1 0x0 PUSH20 0xFFFFFFFFFFFFFFFFFFFFFFFFFFFFFFFFFFFFFFFF DUP3 AND SWAP1 POP SWAP2 SWAP1 POP JUMP JUMPDEST PUSH1 0x0 PUSH2 0x9FA DUP3 PUSH2 0x9CF JUMP JUMPDEST SWAP1 POP SWAP2 SWAP1 POP JUMP JUMPDEST PUSH2 0xA0A DUP2 PUSH2 0x9EF JUMP JUMPDEST DUP3 MSTORE POP POP JUMP JUMPDEST PUSH1 0x0 PUSH1 0x20 DUP3 ADD SWAP1 POP PUSH2 0xA25 PUSH1 0x0 DUP4 ADD DUP5 PUSH2 0xA01 JUMP JUMPDEST SWAP3 SWAP2 POP POP JUMP JUMPDEST PUSH1 0x0 PUSH1 0x40 MLOAD SWAP1 POP SWAP1 JUMP JUMPDEST PUSH1 0x0 DUP1 REVERT JUMPDEST PUSH1 0x0 DUP1 REVERT JUMPDEST PUSH1 0x0 DUP2 SWAP1 POP SWAP2 SWAP1 POP JUMP JUMPDEST PUSH2 0xA52 DUP2 PUSH2 0xA3F JUMP JUMPDEST DUP2 EQ PUSH2 0xA5D JUMPI PUSH1 0x0 DUP1 REVERT JUMPDEST POP JUMP JUMPDEST PUSH1 0x0 DUP2 CALLDATALOAD SWAP1 POP PUSH2 0xA6F DUP2 PUSH2 0xA49 JUMP JUMPDEST SWAP3 SWAP2 POP POP JUMP JUMPDEST PUSH1 0x0 DUP1 REVERT JUMPDEST PUSH1 0x0 DUP1 REVERT JUMPDEST PUSH1 0x0 PUSH1 0x1F NOT PUSH1 0x1F DUP4 ADD AND SWAP1 POP SWAP2 SWAP1 POP JUMP JUMPDEST PUSH32 0x4E487B7100000000000000000000000000000000000000000000000000000000 PUSH1 0x0 MSTORE PUSH1 0x41 PUSH1 0x4 MSTORE PUSH1 0x24 PUSH1 0x0 REVERT JUMPDEST PUSH2 0xAC8 DUP3 PUSH2 0xA7F JUMP JUMPDEST DUP2 ADD DUP2 DUP2 LT PUSH8 0xFFFFFFFFFFFFFFFF DUP3 GT OR ISZERO PUSH2 0xAE7 JUMPI PUSH2 0xAE6 PUSH2 0xA90 JUMP JUMPDEST JUMPDEST DUP1 PUSH1 0x40 MSTORE POP POP POP JUMP JUMPDEST PUSH1 0x0 PUSH2 0xAFA PUSH2 0xA2B JUMP JUMPDEST SWAP1 POP PUSH2 0xB06 DUP3 DUP3 PUSH2 0xABF JUMP JUMPDEST SWAP2 SWAP1 POP JUMP JUMPDEST PUSH1 0x0 PUSH8 0xFFFFFFFFFFFFFFFF DUP3 GT ISZERO PUSH2 0xB26 JUMPI PUSH2 0xB25 PUSH2 0xA90 JUMP JUMPDEST JUMPDEST PUSH2 0xB2F DUP3 PUSH2 0xA7F JUMP JUMPDEST SWAP1 POP PUSH1 0x20 DUP2 ADD SWAP1 POP SWAP2 SWAP1 POP JUMP JUMPDEST DUP3 DUP2 DUP4 CALLDATACOPY PUSH1 0x0 DUP4 DUP4 ADD MSTORE POP POP POP JUMP JUMPDEST PUSH1 0x0 PUSH2 0xB5E PUSH2 0xB59 DUP5 PUSH2 0xB0B JUMP JUMPDEST PUSH2 0xAF0 JUMP JUMPDEST SWAP1 POP DUP3 DUP2 MSTORE PUSH1 0x20 DUP2 ADD DUP5 DUP5 DUP5 ADD GT ISZERO PUSH2 0xB7A JUMPI PUSH2 0xB79 PUSH2 0xA7A JUMP JUMPDEST JUMPDEST PUSH2 0xB85 DUP5 DUP3 DUP6 PUSH2 0xB3C JUMP JUMPDEST POP SWAP4 SWAP3 POP POP POP JUMP JUMPDEST PUSH1 0x0 DUP3 PUSH1 0x1F DUP4 ADD SLT PUSH2 0xBA2 JUMPI PUSH2 0xBA1 PUSH2 0xA75 JUMP JUMPDEST JUMPDEST DUP2 CALLDATALOAD PUSH2 0xBB2 DUP5 DUP3 PUSH1 0x20 DUP7 ADD PUSH2 0xB4B JUMP JUMPDEST SWAP2 POP POP SWAP3 SWAP2 POP POP JUMP JUMPDEST PUSH1 0x0 DUP1 PUSH1 0x40 DUP4 DUP6 SUB SLT ISZERO PUSH2 0xBD2 JUMPI PUSH2 0xBD1 PUSH2 0xA35 JUMP JUMPDEST JUMPDEST PUSH1 0x0 PUSH2 0xBE0 DUP6 DUP3 DUP7 ADD PUSH2 0xA60 JUMP JUMPDEST SWAP3 POP POP PUSH1 0x20 DUP4 ADD CALLDATALOAD PUSH8 0xFFFFFFFFFFFFFFFF DUP2 GT ISZERO PUSH2 0xC01 JUMPI PUSH2 0xC00 PUSH2 0xA3A JUMP JUMPDEST JUMPDEST PUSH2 0xC0D DUP6 DUP3 DUP7 ADD PUSH2 0xB8D JUMP JUMPDEST SWAP2 POP POP SWAP3 POP SWAP3 SWAP1 POP JUMP JUMPDEST PUSH1 0x0 PUSH1 0x20 DUP3 DUP5 SUB SLT ISZERO PUSH2 0xC2D JUMPI PUSH2 0xC2C PUSH2 0xA35 JUMP JUMPDEST JUMPDEST PUSH1 0x0 PUSH2 0xC3B DUP5 DUP3 DUP6 ADD PUSH2 0xA60 JUMP JUMPDEST SWAP2 POP POP SWAP3 SWAP2 POP POP JUMP JUMPDEST PUSH2 0xC4D DUP2 PUSH2 0xA3F JUMP JUMPDEST DUP3 MSTORE POP POP JUMP JUMPDEST PUSH1 0x0 DUP2 MLOAD SWAP1 POP SWAP2 SWAP1 POP JUMP JUMPDEST PUSH1 0x0 DUP3 DUP3 MSTORE PUSH1 0x20 DUP3 ADD SWAP1 POP SWAP3 SWAP2 POP POP JUMP JUMPDEST PUSH1 0x0 JUMPDEST DUP4 DUP2 LT ISZERO PUSH2 0xC8D JUMPI DUP1 DUP3 ADD MLOAD DUP2 DUP5 ADD MSTORE PUSH1 0x20 DUP2 ADD SWAP1 POP PUSH2 0xC72 JUMP JUMPDEST PUSH1 0x0 DUP5 DUP5 ADD MSTORE POP POP POP POP JUMP JUMPDEST PUSH1 0x0 PUSH2 0xCA4 DUP3 PUSH2 0xC53 JUMP JUMPDEST PUSH2 0xCAE DUP2 DUP6 PUSH2 0xC5E JUMP JUMPDEST SWAP4 POP PUSH2 0xCBE DUP2 DUP6 PUSH1 0x20 DUP7 ADD PUSH2 0xC6F JUMP JUMPDEST PUSH2 0xCC7 DUP2 PUSH2 0xA7F JUMP JUMPDEST DUP5 ADD SWAP2 POP POP SWAP3 SWAP2 POP POP JUMP JUMPDEST PUSH32 0x4E487B7100000000000000000000000000000000000000000000000000000000 PUSH1 0x0 MSTORE PUSH1 0x21 PUSH1 0x4 MSTORE PUSH1 0x24 PUSH1 0x0 REVERT JUMPDEST PUSH1 0x3 DUP2 LT PUSH2 0xD12 JUMPI PUSH2 0xD11 PUSH2 0xCD2 JUMP JUMPDEST JUMPDEST POP JUMP JUMPDEST PUSH1 0x0 DUP2 SWAP1 POP PUSH2 0xD23 DUP3 PUSH2 0xD01 JUMP JUMPDEST SWAP2 SWAP1 POP JUMP JUMPDEST PUSH1 0x0 PUSH2 0xD33 DUP3 PUSH2 0xD15 JUMP JUMPDEST SWAP1 POP SWAP2 SWAP1 POP JUMP JUMPDEST PUSH2 0xD43 DUP2 PUSH2 0xD28 JUMP JUMPDEST DUP3 MSTORE POP POP JUMP JUMPDEST PUSH1 0x0 PUSH1 0x60 DUP3 ADD SWAP1 POP PUSH2 0xD5E PUSH1 0x0 DUP4 ADD DUP7 PUSH2 0xC44 JUMP JUMPDEST DUP2 DUP2 SUB PUSH1 0x20 DUP4 ADD MSTORE PUSH2 0xD70 DUP2 DUP6 PUSH2 0xC99 JUMP JUMPDEST SWAP1 POP PUSH2 0xD7F PUSH1 0x40 DUP4 ADD DUP5 PUSH2 0xD3A JUMP JUMPDEST SWAP5 SWAP4 POP POP POP POP JUMP JUMPDEST PUSH1 0x0 DUP1 PUSH1 0x40 DUP4 DUP6 SUB SLT ISZERO PUSH2 0xD9E JUMPI PUSH2 0xD9D PUSH2 0xA35 JUMP JUMPDEST JUMPDEST PUSH1 0x0 PUSH2 0xDAC DUP6 DUP3 DUP7 ADD PUSH2 0xA60 JUMP JUMPDEST SWAP3 POP POP PUSH1 0x20 PUSH2 0xDBD DUP6 DUP3 DUP7 ADD PUSH2 0xA60 JUMP JUMPDEST SWAP2 POP POP SWAP3 POP SWAP3 SWAP1 POP JUMP JUMPDEST PUSH1 0x0 PUSH1 0x20 DUP3 ADD SWAP1 POP PUSH2 0xDDC PUSH1 0x0 DUP4 ADD DUP5 PUSH2 0xC44 JUMP JUMPDEST SWAP3 SWAP2 POP POP JUMP JUMPDEST PUSH1 0x0 PUSH1 0x40 DUP3 ADD SWAP1 POP PUSH2 0xDF7 PUSH1 0x0 DUP4 ADD DUP6 PUSH2 0xC44 JUMP JUMPDEST DUP2 DUP2 SUB PUSH1 0x20 DUP4 ADD MSTORE PUSH2 0xE09 DUP2 DUP5 PUSH2 0xC99 JUMP JUMPDEST SWAP1 POP SWAP4 SWAP3 POP POP POP JUMP JUMPDEST PUSH32 0x456C20696E766F6361646F7220646562652073657220656C20616E6669747269 PUSH1 0x0 DUP3 ADD MSTORE PUSH32 0x6F6E000000000000000000000000000000000000000000000000000000000000 PUSH1 0x20 DUP3 ADD MSTORE POP JUMP JUMPDEST PUSH1 0x0 PUSH2 0xE6E PUSH1 0x22 DUP4 PUSH2 0xC5E JUMP JUMPDEST SWAP2 POP PUSH2 0xE79 DUP3 PUSH2 0xE12 JUMP JUMPDEST PUSH1 0x40 DUP3 ADD SWAP1 POP SWAP2 SWAP1 POP JUMP JUMPDEST PUSH1 0x0 PUSH1 0x20 DUP3 ADD SWAP1 POP DUP2 DUP2 SUB PUSH1 0x0 DUP4 ADD MSTORE PUSH2 0xE9D DUP2 PUSH2 0xE61 JUMP JUMPDEST SWAP1 POP SWAP2 SWAP1 POP JUMP JUMPDEST PUSH32 0x4E487B7100000000000000000000000000000000000000000000000000000000 PUSH1 0x0 MSTORE PUSH1 0x22 PUSH1 0x4 MSTORE PUSH1 0x24 PUSH1 0x0 REVERT JUMPDEST PUSH1 0x0 PUSH1 0x2 DUP3 DIV SWAP1 POP PUSH1 0x1 DUP3 AND DUP1 PUSH2 0xEEB JUMPI PUSH1 0x7F DUP3 AND SWAP2 POP JUMPDEST PUSH1 0x20 DUP3 LT DUP2 SUB PUSH2 0xEFE JUMPI PUSH2 0xEFD PUSH2 0xEA4 JUMP JUMPDEST JUMPDEST POP SWAP2 SWAP1 POP JUMP JUMPDEST PUSH1 0x0 DUP2 SWAP1 POP DUP2 PUSH1 0x0 MSTORE PUSH1 0x20 PUSH1 0x0 KECCAK256 SWAP1 POP SWAP2 SWAP1 POP JUMP JUMPDEST PUSH1 0x0 PUSH1 0x20 PUSH1 0x1F DUP4 ADD DIV SWAP1 POP SWAP2 SWAP1 POP JUMP JUMPDEST PUSH1 0x0 DUP3 DUP3 SHL SWAP1 POP SWAP3 SWAP2 POP POP JUMP JUMPDEST PUSH1 0x0 PUSH1 0x8 DUP4 MUL PUSH2 0xF66 PUSH32 0xFFFFFFFFFFFFFFFFFFFFFFFFFFFFFFFFFFFFFFFFFFFFFFFFFFFFFFFFFFFFFFFF DUP3 PUSH2 0xF29 JUMP JUMPDEST PUSH2 0xF70 DUP7 DUP4 PUSH2 0xF29 JUMP JUMPDEST SWAP6 POP DUP1 NOT DUP5 AND SWAP4 POP DUP1 DUP7 AND DUP5 OR SWAP3 POP POP POP SWAP4 SWAP3 POP POP POP JUMP JUMPDEST PUSH1 0x0 DUP2 SWAP1 POP SWAP2 SWAP1 POP JUMP JUMPDEST PUSH1 0x0 PUSH2 0xFAD PUSH2 0xFA8 PUSH2 0xFA3 DUP5 PUSH2 0xA3F JUMP JUMPDEST PUSH2 0xF88 JUMP JUMPDEST PUSH2 0xA3F JUMP JUMPDEST SWAP1 POP SWAP2 SWAP1 POP JUMP JUMPDEST PUSH1 0x0 DUP2 SWAP1 POP SWAP2 SWAP1 POP JUMP JUMPDEST PUSH2 0xFC7 DUP4 PUSH2 0xF92 JUMP JUMPDEST PUSH2 0xFDB PUSH2 0xFD3 DUP3 PUSH2 0xFB4 JUMP JUMPDEST DUP5 DUP5 SLOAD PUSH2 0xF36 JUMP JUMPDEST DUP3 SSTORE POP POP POP POP JUMP JUMPDEST PUSH1 0x0 SWAP1 JUMP JUMPDEST PUSH2 0xFF0 PUSH2 0xFE3 JUMP JUMPDEST PUSH2 0xFFB DUP2 DUP5 DUP5 PUSH2 0xFBE JUMP JUMPDEST POP POP POP JUMP JUMPDEST JUMPDEST DUP2 DUP2 LT ISZERO PUSH2 0x101F JUMPI PUSH2 0x1014 PUSH1 0x0 DUP3 PUSH2 0xFE8 JUMP JUMPDEST PUSH1 0x1 DUP2 ADD SWAP1 POP PUSH2 0x1001 JUMP JUMPDEST POP POP JUMP JUMPDEST PUSH1 0x1F DUP3 GT ISZERO PUSH2 0x1064 JUMPI PUSH2 0x1035 DUP2 PUSH2 0xF04 JUMP JUMPDEST PUSH2 0x103E DUP5 PUSH2 0xF19 JUMP JUMPDEST DUP2 ADD PUSH1 0x20 DUP6 LT ISZERO PUSH2 0x104D JUMPI DUP2 SWAP1 POP JUMPDEST PUSH2 0x1061 PUSH2 0x1059 DUP6 PUSH2 0xF19 JUMP JUMPDEST DUP4 ADD DUP3 PUSH2 0x1000 JUMP JUMPDEST POP POP JUMPDEST POP POP POP JUMP JUMPDEST PUSH1 0x0 DUP3 DUP3 SHR SWAP1 POP SWAP3 SWAP2 POP POP JUMP JUMPDEST PUSH1 0x0 PUSH2 0x1087 PUSH1 0x0 NOT DUP5 PUSH1 0x8 MUL PUSH2 0x1069 JUMP JUMPDEST NOT DUP1 DUP4 AND SWAP2 POP POP SWAP3 SWAP2 POP POP JUMP JUMPDEST PUSH1 0x0 PUSH2 0x10A0 DUP4 DUP4 PUSH2 0x1076 JUMP JUMPDEST SWAP2 POP DUP3 PUSH1 0x2 MUL DUP3 OR SWAP1 POP SWAP3 SWAP2 POP POP JUMP JUMPDEST PUSH2 0x10B9 DUP3 PUSH2 0xC53 JUMP JUMPDEST PUSH8 0xFFFFFFFFFFFFFFFF DUP2 GT ISZERO PUSH2 0x10D2 JUMPI PUSH2 0x10D1 PUSH2 0xA90 JUMP JUMPDEST JUMPDEST PUSH2 0x10DC DUP3 SLOAD PUSH2 0xED3 JUMP JUMPDEST PUSH2 0x10E7 DUP3 DUP3 DUP6 PUSH2 0x1023 JUMP JUMPDEST PUSH1 0x0 PUSH1 0x20 SWAP1 POP PUSH1 0x1F DUP4 GT PUSH1 0x1 DUP2 EQ PUSH2 0x111A JUMPI PUSH1 0x0 DUP5 ISZERO PUSH2 0x1108 JUMPI DUP3 DUP8 ADD MLOAD SWAP1 POP JUMPDEST PUSH2 0x1112 DUP6 DUP3 PUSH2 0x1094 JUMP JUMPDEST DUP7 SSTORE POP PUSH2 0x117A JUMP JUMPDEST PUSH1 0x1F NOT DUP5 AND PUSH2 0x1128 DUP7 PUSH2 0xF04 JUMP JUMPDEST PUSH1 0x0 JUMPDEST DUP3 DUP2 LT ISZERO PUSH2 0x1150 JUMPI DUP5 DUP10 ADD MLOAD DUP3 SSTORE PUSH1 0x1 DUP3 ADD SWAP2 POP PUSH1 0x20 DUP6 ADD SWAP5 POP PUSH1 0x20 DUP2 ADD SWAP1 POP PUSH2 0x112B JUMP JUMPDEST DUP7 DUP4 LT ISZERO PUSH2 0x116D JUMPI DUP5 DUP10 ADD MLOAD PUSH2 0x1169 PUSH1 0x1F DUP10 AND DUP3 PUSH2 0x1076 JUMP JUMPDEST DUP4 SSTORE POP JUMPDEST PUSH1 0x1 PUSH1 0x2 DUP9 MUL ADD DUP9 SSTORE POP POP POP JUMPDEST POP POP POP POP POP POP JUMP JUMPDEST PUSH32 0x4C612063617272657261206E6F2063756D706C6520636F6E20656C2065737461 PUSH1 0x0 DUP3 ADD MSTORE PUSH32 0x646F2072657175657269646F0000000000000000000000000000000000000000 PUSH1 0x20 DUP3 ADD MSTORE POP JUMP JUMPDEST PUSH1 0x0 PUSH2 0x11DE PUSH1 0x2C DUP4 PUSH2 0xC5E JUMP JUMPDEST SWAP2 POP PUSH2 0x11E9 DUP3 PUSH2 0x1182 JUMP JUMPDEST PUSH1 0x40 DUP3 ADD SWAP1 POP SWAP2 SWAP1 POP JUMP JUMPDEST PUSH1 0x0 PUSH1 0x20 DUP3 ADD SWAP1 POP DUP2 DUP2 SUB PUSH1 0x0 DUP4 ADD MSTORE PUSH2 0x120D DUP2 PUSH2 0x11D1 JUMP JUMPDEST SWAP1 POP SWAP2 SWAP1 POP JUMP JUMPDEST PUSH32 0x4C612063617272657261207961206375656E746120636F6E203520636162616C PUSH1 0x0 DUP3 ADD MSTORE PUSH32 0x6C6F730000000000000000000000000000000000000000000000000000000000 PUSH1 0x20 DUP3 ADD MSTORE POP JUMP JUMPDEST PUSH1 0x0 PUSH2 0x1270 PUSH1 0x23 DUP4 PUSH2 0xC5E JUMP JUMPDEST SWAP2 POP PUSH2 0x127B DUP3 PUSH2 0x1214 JUMP JUMPDEST PUSH1 0x40 DUP3 ADD SWAP1 POP SWAP2 SWAP1 POP JUMP JUMPDEST PUSH1 0x0 PUSH1 0x20 DUP3 ADD SWAP1 POP DUP2 DUP2 SUB PUSH1 0x0 DUP4 ADD MSTORE PUSH2 0x129F DUP2 PUSH2 0x1263 JUMP JUMPDEST SWAP1 POP SWAP2 SWAP1 POP JUMP JUMPDEST PUSH32 0x456C20636162616C6C6F20696E6772657361646F206E6F206578697374650000 PUSH1 0x0 DUP3 ADD MSTORE POP JUMP JUMPDEST PUSH1 0x0 PUSH2 0x12DC PUSH1 0x1E DUP4 PUSH2 0xC5E JUMP JUMPDEST SWAP2 POP PUSH2 0x12E7 DUP3 PUSH2 0x12A6 JUMP JUMPDEST PUSH1 0x20 DUP3 ADD SWAP1 POP SWAP2 SWAP1 POP JUMP JUMPDEST PUSH1 0x0 PUSH1 0x20 DUP3 ADD SWAP1 POP DUP2 DUP2 SUB PUSH1 0x0 DUP4 ADD MSTORE PUSH2 0x130B DUP2 PUSH2 0x12CF JUMP JUMPDEST SWAP1 POP SWAP2 SWAP1 POP JUMP JUMPDEST PUSH32 0x4C61206361727265726120696E67726573616461206E6F206578697374650000 PUSH1 0x0 DUP3 ADD MSTORE POP JUMP JUMPDEST PUSH1 0x0 PUSH2 0x1348 PUSH1 0x1E DUP4 PUSH2 0xC5E JUMP JUMPDEST SWAP2 POP PUSH2 0x1353 DUP3 PUSH2 0x1312 JUMP JUMPDEST PUSH1 0x20 DUP3 ADD SWAP1 POP SWAP2 SWAP1 POP JUMP JUMPDEST PUSH1 0x0 PUSH1 0x20 DUP3 ADD SWAP1 POP DUP2 DUP2 SUB PUSH1 0x0 DUP4 ADD MSTORE PUSH2 0x1377 DUP2 PUSH2 0x133B JUMP JUMPDEST SWAP1 POP SWAP2 SWAP1 POP JUMP JUMPDEST PUSH32 0x4C612063617272657261206465626520636F6E74617220636F6E20616C206D65 PUSH1 0x0 DUP3 ADD MSTORE PUSH32 0x6E6F73203220636162616C6C6F73000000000000000000000000000000000000 PUSH1 0x20 DUP3 ADD MSTORE POP JUMP JUMPDEST PUSH1 0x0 PUSH2 0x13DA PUSH1 0x2E DUP4 PUSH2 0xC5E JUMP JUMPDEST SWAP2 POP PUSH2 0x13E5 DUP3 PUSH2 0x137E JUMP JUMPDEST PUSH1 0x40 DUP3 ADD SWAP1 POP SWAP2 SWAP1 POP JUMP JUMPDEST PUSH1 0x0 PUSH1 0x20 DUP3 ADD SWAP1 POP DUP2 DUP2 SUB PUSH1 0x0 DUP4 ADD MSTORE PUSH2 0x1409 DUP2 PUSH2 0x13CD JUMP JUMPDEST SWAP1 POP SWAP2 SWAP1 POP JUMP JUMPDEST PUSH32 0x4E487B7100000000000000000000000000000000000000000000000000000000 PUSH1 0x0 MSTORE PUSH1 0x11 PUSH1 0x4 MSTORE PUSH1 0x24 PUSH1 0x0 REVERT JUMPDEST PUSH1 0x0 PUSH2 0x144A DUP3 PUSH2 0xA3F JUMP JUMPDEST SWAP2 POP PUSH2 0x1455 DUP4 PUSH2 0xA3F JUMP JUMPDEST SWAP3 POP DUP3 DUP3 ADD SWAP1 POP DUP1 DUP3 GT ISZERO PUSH2 0x146D JUMPI PUSH2 0x146C PUSH2 0x1410 JUMP JUMPDEST JUMPDEST SWAP3 SWAP2 POP POP JUMP INVALID LOG2 PUSH5 0x6970667358 0x22 SLT KECCAK256 BLOCKHASH SDIV 0xC 0xEF 0xE7 SWAP16 RETURNDATASIZE 0xB7 0xDC 0xC5 BALANCE 0xFB CALLCODE 0x2D 0x5E CREATE2 PUSH28 0x2CB910546383149FFC3C25E712FACC64736F6C634300081100330000 "
				},
				"gasEstimates": {
					"creation": {
						"codeDepositCost": "1057800",
						"executionCost": "25366",
						"totalCost": "1083166"
					},
					"external": {
						"anfitrion()": "2512",
						"caballos(uint256)": "infinite",
						"carreras(uint256)": "infinite",
						"competencias(uint256,uint256)": "infinite",
						"crearCarrera(uint256,string)": "infinite",
						"registrarCaballo(uint256,string)": "infinite",
						"registrarCarrera(uint256)": "31550",
						"registrarEnCompetencia(uint256,uint256)": "infinite",
						"totalCarreras()": "2429"
					}
				},
				"methodIdentifiers": {
					"anfitrion()": "456f4b57",
					"caballos(uint256)": "f0b73b54",
					"carreras(uint256)": "5ee81666",
					"competencias(uint256,uint256)": "fb34d0f7",
					"crearCarrera(uint256,string)": "f9d32e49",
					"registrarCaballo(uint256,string)": "5194f59c",
					"registrarCarrera(uint256)": "f7edd6db",
					"registrarEnCompetencia(uint256,uint256)": "d75262f3",
					"totalCarreras()": "e9ec5583"
				}
			},
			"storageLayout": {
				"storage": [
					{
						"astId": 3,
						"contract": "casaApuestas.sol:casaApuestas",
						"label": "anfitrion",
						"offset": 0,
						"slot": "0",
						"type": "t_address"
					},
					{
						"astId": 12,
						"contract": "casaApuestas.sol:casaApuestas",
						"label": "carreras",
						"offset": 0,
						"slot": "1",
						"type": "t_mapping(t_uint256,t_struct(Carrera)32_storage)"
					},
					{
						"astId": 17,
						"contract": "casaApuestas.sol:casaApuestas",
						"label": "caballos",
						"offset": 0,
						"slot": "2",
						"type": "t_mapping(t_uint256,t_struct(Caballo)37_storage)"
					},
					{
						"astId": 19,
						"contract": "casaApuestas.sol:casaApuestas",
						"label": "totalCarreras",
						"offset": 0,
						"slot": "3",
						"type": "t_uint256"
					},
					{
						"astId": 24,
						"contract": "casaApuestas.sol:casaApuestas",
						"label": "competencias",
						"offset": 0,
						"slot": "4",
						"type": "t_mapping(t_uint256,t_array(t_uint256)dyn_storage)"
					}
				],
				"types": {
					"t_address": {
						"encoding": "inplace",
						"label": "address",
						"numberOfBytes": "20"
					},
					"t_array(t_uint256)dyn_storage": {
						"base": "t_uint256",
						"encoding": "dynamic_array",
						"label": "uint256[]",
						"numberOfBytes": "32"
					},
					"t_enum(Estado)7": {
						"encoding": "inplace",
						"label": "enum casaApuestas.Estado",
						"numberOfBytes": "1"
					},
					"t_mapping(t_uint256,t_array(t_uint256)dyn_storage)": {
						"encoding": "mapping",
						"key": "t_uint256",
						"label": "mapping(uint256 => uint256[])",
						"numberOfBytes": "32",
						"value": "t_array(t_uint256)dyn_storage"
					},
					"t_mapping(t_uint256,t_struct(Caballo)37_storage)": {
						"encoding": "mapping",
						"key": "t_uint256",
						"label": "mapping(uint256 => struct casaApuestas.Caballo)",
						"numberOfBytes": "32",
						"value": "t_struct(Caballo)37_storage"
					},
					"t_mapping(t_uint256,t_struct(Carrera)32_storage)": {
						"encoding": "mapping",
						"key": "t_uint256",
						"label": "mapping(uint256 => struct casaApuestas.Carrera)",
						"numberOfBytes": "32",
						"value": "t_struct(Carrera)32_storage"
					},
					"t_string_storage": {
						"encoding": "bytes",
						"label": "string",
						"numberOfBytes": "32"
					},
					"t_struct(Caballo)37_storage": {
						"encoding": "inplace",
						"label": "struct casaApuestas.Caballo",
						"members": [
							{
								"astId": 34,
								"contract": "casaApuestas.sol:casaApuestas",
								"label": "codigo",
								"offset": 0,
								"slot": "0",
								"type": "t_uint256"
							},
							{
								"astId": 36,
								"contract": "casaApuestas.sol:casaApuestas",
								"label": "nombre",
								"offset": 0,
								"slot": "1",
								"type": "t_string_storage"
							}
						],
						"numberOfBytes": "64"
					},
					"t_struct(Carrera)32_storage": {
						"encoding": "inplace",
						"label": "struct casaApuestas.Carrera",
						"members": [
							{
								"astId": 26,
								"contract": "casaApuestas.sol:casaApuestas",
								"label": "codigo",
								"offset": 0,
								"slot": "0",
								"type": "t_uint256"
							},
							{
								"astId": 28,
								"contract": "casaApuestas.sol:casaApuestas",
								"label": "nombre",
								"offset": 0,
								"slot": "1",
								"type": "t_string_storage"
							},
							{
								"astId": 31,
								"contract": "casaApuestas.sol:casaApuestas",
								"label": "estadoCarrera",
								"offset": 0,
								"slot": "2",
								"type": "t_enum(Estado)7"
							}
						],
						"numberOfBytes": "96"
					},
					"t_uint256": {
						"encoding": "inplace",
						"label": "uint256",
						"numberOfBytes": "32"
					}
				}
			},
			"userdoc": {
				"kind": "user",
				"methods": {},
				"version": 1
			}
		}
	}
}