{
	"Solidity_BD2/casaApuestas.sol": {
		"casaApuestas": {
			"abi": [
				{
					"inputs": [],
					"stateMutability": "nonpayable",
					"type": "constructor"
				},
				{
					"anonymous": false,
					"inputs": [
						{
							"indexed": false,
							"internalType": "uint256",
							"name": "valor",
							"type": "uint256"
						}
					],
					"name": "Printazo",
					"type": "event"
				},
				{
					"inputs": [],
					"name": "anfitrion",
					"outputs": [
						{
							"internalType": "address",
							"name": "",
							"type": "address"
						}
					],
					"stateMutability": "view",
					"type": "function"
				},
				{
					"inputs": [
						{
							"internalType": "uint256",
							"name": "",
							"type": "uint256"
						},
						{
							"internalType": "uint256",
							"name": "",
							"type": "uint256"
						}
					],
					"name": "apostadores",
					"outputs": [
						{
							"internalType": "address",
							"name": "",
							"type": "address"
						}
					],
					"stateMutability": "view",
					"type": "function"
				},
				{
					"inputs": [
						{
							"internalType": "uint256",
							"name": "_codCaballo",
							"type": "uint256"
						},
						{
							"internalType": "uint256",
							"name": "_codCarrera",
							"type": "uint256"
						}
					],
					"name": "apostar",
					"outputs": [],
					"stateMutability": "payable",
					"type": "function"
				},
				{
					"inputs": [
						{
							"internalType": "uint256",
							"name": "",
							"type": "uint256"
						}
					],
					"name": "caballos",
					"outputs": [
						{
							"internalType": "uint256",
							"name": "codigo",
							"type": "uint256"
						},
						{
							"internalType": "string",
							"name": "nombre",
							"type": "string"
						}
					],
					"stateMutability": "view",
					"type": "function"
				},
				{
					"inputs": [
						{
							"internalType": "uint256",
							"name": "",
							"type": "uint256"
						}
					],
					"name": "carreras",
					"outputs": [
						{
							"internalType": "uint256",
							"name": "codigo",
							"type": "uint256"
						},
						{
							"internalType": "string",
							"name": "nombre",
							"type": "string"
						},
						{
							"internalType": "enum casaApuestas.Estado",
							"name": "estadoCarrera",
							"type": "uint8"
						},
						{
							"internalType": "uint256",
							"name": "montoTotal",
							"type": "uint256"
						},
						{
							"internalType": "uint256",
							"name": "numeroCaballos",
							"type": "uint256"
						},
						{
							"internalType": "uint256",
							"name": "caballoGanador",
							"type": "uint256"
						}
					],
					"stateMutability": "view",
					"type": "function"
				},
				{
					"inputs": [
						{
							"internalType": "uint256",
							"name": "",
							"type": "uint256"
						},
						{
							"internalType": "uint256",
							"name": "",
							"type": "uint256"
						}
					],
					"name": "competencias",
					"outputs": [
						{
							"internalType": "uint256",
							"name": "",
							"type": "uint256"
						}
					],
					"stateMutability": "view",
					"type": "function"
				},
				{
					"inputs": [
						{
							"internalType": "uint256",
							"name": "_codigo",
							"type": "uint256"
						},
						{
							"internalType": "string",
							"name": "_nombre",
							"type": "string"
						}
					],
					"name": "crearCarrera",
					"outputs": [],
					"stateMutability": "nonpayable",
					"type": "function"
				},
				{
					"inputs": [
						{
							"internalType": "uint256",
							"name": "_indiceApostador",
							"type": "uint256"
						},
						{
							"internalType": "uint256",
							"name": "_codCarrera",
							"type": "uint256"
						}
					],
					"name": "getAddressApostador",
					"outputs": [
						{
							"internalType": "address",
							"name": "",
							"type": "address"
						}
					],
					"stateMutability": "view",
					"type": "function"
				},
				{
					"inputs": [
						{
							"internalType": "uint256",
							"name": "_codCarrera",
							"type": "uint256"
						}
					],
					"name": "getApostadorGanador",
					"outputs": [
						{
							"internalType": "string",
							"name": "",
							"type": "string"
						}
					],
					"stateMutability": "view",
					"type": "function"
				},
				{
					"inputs": [
						{
							"internalType": "uint256",
							"name": "_codCarrera",
							"type": "uint256"
						}
					],
					"name": "getCaballoGanador",
					"outputs": [
						{
							"internalType": "uint256",
							"name": "",
							"type": "uint256"
						}
					],
					"stateMutability": "view",
					"type": "function"
				},
				{
					"inputs": [
						{
							"internalType": "uint256",
							"name": "_codCarrera",
							"type": "uint256"
						}
					],
					"name": "getCaballosEnCarrera",
					"outputs": [
						{
							"internalType": "string",
							"name": "",
							"type": "string"
						}
					],
					"stateMutability": "view",
					"type": "function"
				},
				{
					"inputs": [
						{
							"internalType": "uint256",
							"name": "_codCarrera",
							"type": "uint256"
						}
					],
					"name": "getEstadoCarrera",
					"outputs": [
						{
							"internalType": "string",
							"name": "",
							"type": "string"
						}
					],
					"stateMutability": "view",
					"type": "function"
				},
				{
					"inputs": [
						{
							"internalType": "uint256",
							"name": "_codigo",
							"type": "uint256"
						},
						{
							"internalType": "string",
							"name": "_nombre",
							"type": "string"
						}
					],
					"name": "registrarCaballo",
					"outputs": [],
					"stateMutability": "nonpayable",
					"type": "function"
				},
				{
					"inputs": [
						{
							"internalType": "uint256",
							"name": "_codCarrera",
							"type": "uint256"
						}
					],
					"name": "registrarCarrera",
					"outputs": [],
					"stateMutability": "nonpayable",
					"type": "function"
				},
				{
					"inputs": [
						{
							"internalType": "uint256",
							"name": "_codCaballo",
							"type": "uint256"
						},
						{
							"internalType": "uint256",
							"name": "_codCarrera",
							"type": "uint256"
						}
					],
					"name": "registrarEnCarrera",
					"outputs": [],
					"stateMutability": "nonpayable",
					"type": "function"
				},
				{
					"inputs": [
						{
							"internalType": "uint256",
							"name": "_codCarrera",
							"type": "uint256"
						}
					],
					"name": "terminarCarrera",
					"outputs": [],
					"stateMutability": "payable",
					"type": "function"
				},
				{
					"inputs": [],
					"name": "totalCarreras",
					"outputs": [
						{
							"internalType": "uint256",
							"name": "",
							"type": "uint256"
						}
					],
					"stateMutability": "view",
					"type": "function"
				}
			],
			"devdoc": {
				"methods": {}
			},
			"evm": {
				"assembly": "    /* \"Solidity_BD2/casaApuestas.sol\":27:13130  contract casaApuestas{\r... */\n  mstore(0x40, 0x80)\n    /* \"Solidity_BD2/casaApuestas.sol\":1139:1201  constructor() public {\r... */\n  callvalue\n    /* \"--CODEGEN--\":8:17   */\n  dup1\n    /* \"--CODEGEN--\":5:7   */\n  iszero\n  tag_1\n  jumpi\n    /* \"--CODEGEN--\":30:31   */\n  0x00\n    /* \"--CODEGEN--\":27:28   */\n  dup1\n    /* \"--CODEGEN--\":20:32   */\n  revert\n    /* \"--CODEGEN--\":5:7   */\ntag_1:\n    /* \"Solidity_BD2/casaApuestas.sol\":1139:1201  constructor() public {\r... */\n  pop\n    /* \"Solidity_BD2/casaApuestas.sol\":1183:1193  msg.sender */\n  caller\n    /* \"Solidity_BD2/casaApuestas.sol\":1171:1180  anfitrion */\n  0x00\n  dup1\n    /* \"Solidity_BD2/casaApuestas.sol\":1171:1193  anfitrion = msg.sender */\n  0x0100\n  exp\n  dup2\n  sload\n  dup2\n  0xffffffffffffffffffffffffffffffffffffffff\n  mul\n  not\n  and\n  swap1\n  dup4\n  0xffffffffffffffffffffffffffffffffffffffff\n  and\n  mul\n  or\n  swap1\n  sstore\n  pop\n    /* \"Solidity_BD2/casaApuestas.sol\":27:13130  contract casaApuestas{\r... */\n  dataSize(sub_0)\n  dup1\n  dataOffset(sub_0)\n  0x00\n  codecopy\n  0x00\n  return\nstop\n\nsub_0: assembly {\n        /* \"Solidity_BD2/casaApuestas.sol\":27:13130  contract casaApuestas{\r... */\n      mstore(0x40, 0x80)\n      jumpi(tag_1, lt(calldatasize, 0x04))\n      shr(0xe0, calldataload(0x00))\n      dup1\n      0xd066cebe\n      gt\n      tag_19\n      jumpi\n      dup1\n      0xf0b73b54\n      gt\n      tag_20\n      jumpi\n      dup1\n      0xf0b73b54\n      eq\n      tag_14\n      jumpi\n      dup1\n      0xf2f6da3e\n      eq\n      tag_15\n      jumpi\n      dup1\n      0xf7edd6db\n      eq\n      tag_16\n      jumpi\n      dup1\n      0xf9d32e49\n      eq\n      tag_17\n      jumpi\n      dup1\n      0xfb34d0f7\n      eq\n      tag_18\n      jumpi\n      jump(tag_1)\n    tag_20:\n      dup1\n      0xd066cebe\n      eq\n      tag_10\n      jumpi\n      dup1\n      0xdfe22b5f\n      eq\n      tag_11\n      jumpi\n      dup1\n      0xe6581b9d\n      eq\n      tag_12\n      jumpi\n      dup1\n      0xe9ec5583\n      eq\n      tag_13\n      jumpi\n      jump(tag_1)\n    tag_19:\n      dup1\n      0x456f4b57\n      gt\n      tag_21\n      jumpi\n      dup1\n      0x456f4b57\n      eq\n      tag_6\n      jumpi\n      dup1\n      0x5194f59c\n      eq\n      tag_7\n      jumpi\n      dup1\n      0x5ee81666\n      eq\n      tag_8\n      jumpi\n      dup1\n      0x79b31e69\n      eq\n      tag_9\n      jumpi\n      jump(tag_1)\n    tag_21:\n      dup1\n      0x010a0e95\n      eq\n      tag_2\n      jumpi\n      dup1\n      0x1b895c2f\n      eq\n      tag_3\n      jumpi\n      dup1\n      0x26d1c7d0\n      eq\n      tag_4\n      jumpi\n      dup1\n      0x286f6b4c\n      eq\n      tag_5\n      jumpi\n    tag_1:\n      0x00\n      dup1\n      revert\n        /* \"Solidity_BD2/casaApuestas.sol\":7037:9440  function terminarCarrera(uint _codCarrera) payable public\r... */\n    tag_2:\n      tag_22\n      0x04\n      dup1\n      calldatasize\n      sub\n        /* \"--CODEGEN--\":13:15   */\n      0x20\n        /* \"--CODEGEN--\":8:11   */\n      dup2\n        /* \"--CODEGEN--\":5:16   */\n      lt\n        /* \"--CODEGEN--\":2:4   */\n      iszero\n      tag_23\n      jumpi\n        /* \"--CODEGEN--\":29:30   */\n      0x00\n        /* \"--CODEGEN--\":26:27   */\n      dup1\n        /* \"--CODEGEN--\":19:31   */\n      revert\n        /* \"--CODEGEN--\":2:4   */\n    tag_23:\n        /* \"Solidity_BD2/casaApuestas.sol\":7037:9440  function terminarCarrera(uint _codCarrera) payable public\r... */\n      dup2\n      add\n      swap1\n      dup1\n      dup1\n      calldataload\n      swap1\n      0x20\n      add\n      swap1\n      swap3\n      swap2\n      swap1\n      pop\n      pop\n      pop\n      tag_24\n      jump\t// in\n    tag_22:\n      stop\n        /* \"Solidity_BD2/casaApuestas.sol\":9448:10434  function getCaballosEnCarrera(uint _codCarrera) public \r... */\n    tag_3:\n      callvalue\n        /* \"--CODEGEN--\":8:17   */\n      dup1\n        /* \"--CODEGEN--\":5:7   */\n      iszero\n      tag_25\n      jumpi\n        /* \"--CODEGEN--\":30:31   */\n      0x00\n        /* \"--CODEGEN--\":27:28   */\n      dup1\n        /* \"--CODEGEN--\":20:32   */\n      revert\n        /* \"--CODEGEN--\":5:7   */\n    tag_25:\n        /* \"Solidity_BD2/casaApuestas.sol\":9448:10434  function getCaballosEnCarrera(uint _codCarrera) public \r... */\n      pop\n      tag_26\n      0x04\n      dup1\n      calldatasize\n      sub\n        /* \"--CODEGEN--\":13:15   */\n      0x20\n        /* \"--CODEGEN--\":8:11   */\n      dup2\n        /* \"--CODEGEN--\":5:16   */\n      lt\n        /* \"--CODEGEN--\":2:4   */\n      iszero\n      tag_27\n      jumpi\n        /* \"--CODEGEN--\":29:30   */\n      0x00\n        /* \"--CODEGEN--\":26:27   */\n      dup1\n        /* \"--CODEGEN--\":19:31   */\n      revert\n        /* \"--CODEGEN--\":2:4   */\n    tag_27:\n        /* \"Solidity_BD2/casaApuestas.sol\":9448:10434  function getCaballosEnCarrera(uint _codCarrera) public \r... */\n      dup2\n      add\n      swap1\n      dup1\n      dup1\n      calldataload\n      swap1\n      0x20\n      add\n      swap1\n      swap3\n      swap2\n      swap1\n      pop\n      pop\n      pop\n      tag_28\n      jump\t// in\n    tag_26:\n      mload(0x40)\n      dup1\n      dup1\n      0x20\n      add\n      dup3\n      dup2\n      sub\n      dup3\n      mstore\n      dup4\n      dup2\n      dup2\n      mload\n      dup2\n      mstore\n      0x20\n      add\n      swap2\n      pop\n      dup1\n      mload\n      swap1\n      0x20\n      add\n      swap1\n      dup1\n      dup4\n      dup4\n        /* \"--CODEGEN--\":23:24   */\n      0x00\n        /* \"--CODEGEN--\":8:108   */\n    tag_29:\n        /* \"--CODEGEN--\":33:36   */\n      dup4\n        /* \"--CODEGEN--\":30:31   */\n      dup2\n        /* \"--CODEGEN--\":27:37   */\n      lt\n        /* \"--CODEGEN--\":8:108   */\n      iszero\n      tag_31\n      jumpi\n        /* \"--CODEGEN--\":99:100   */\n      dup1\n        /* \"--CODEGEN--\":94:97   */\n      dup3\n        /* \"--CODEGEN--\":90:101   */\n      add\n        /* \"--CODEGEN--\":84:102   */\n      mload\n        /* \"--CODEGEN--\":80:81   */\n      dup2\n        /* \"--CODEGEN--\":75:78   */\n      dup5\n        /* \"--CODEGEN--\":71:82   */\n      add\n        /* \"--CODEGEN--\":64:103   */\n      mstore\n        /* \"--CODEGEN--\":52:54   */\n      0x20\n        /* \"--CODEGEN--\":49:50   */\n      dup2\n        /* \"--CODEGEN--\":45:55   */\n      add\n        /* \"--CODEGEN--\":40:55   */\n      swap1\n      pop\n        /* \"--CODEGEN--\":8:108   */\n      jump(tag_29)\n    tag_31:\n        /* \"--CODEGEN--\":12:26   */\n      pop\n        /* \"Solidity_BD2/casaApuestas.sol\":9448:10434  function getCaballosEnCarrera(uint _codCarrera) public \r... */\n      pop\n      pop\n      pop\n      swap1\n      pop\n      swap1\n      dup2\n      add\n      swap1\n      0x1f\n      and\n      dup1\n      iszero\n      tag_32\n      jumpi\n      dup1\n      dup3\n      sub\n      dup1\n      mload\n      0x01\n      dup4\n      0x20\n      sub\n      0x0100\n      exp\n      sub\n      not\n      and\n      dup2\n      mstore\n      0x20\n      add\n      swap2\n      pop\n    tag_32:\n      pop\n      swap3\n      pop\n      pop\n      pop\n      mload(0x40)\n      dup1\n      swap2\n      sub\n      swap1\n      return\n        /* \"Solidity_BD2/casaApuestas.sol\":4911:5297  function registrarEnCarrera(uint _codCaballo, uint _codCarrera) public \r... */\n    tag_4:\n      callvalue\n        /* \"--CODEGEN--\":8:17   */\n      dup1\n        /* \"--CODEGEN--\":5:7   */\n      iszero\n      tag_33\n      jumpi\n        /* \"--CODEGEN--\":30:31   */\n      0x00\n        /* \"--CODEGEN--\":27:28   */\n      dup1\n        /* \"--CODEGEN--\":20:32   */\n      revert\n        /* \"--CODEGEN--\":5:7   */\n    tag_33:\n        /* \"Solidity_BD2/casaApuestas.sol\":4911:5297  function registrarEnCarrera(uint _codCaballo, uint _codCarrera) public \r... */\n      pop\n      tag_34\n      0x04\n      dup1\n      calldatasize\n      sub\n        /* \"--CODEGEN--\":13:15   */\n      0x40\n        /* \"--CODEGEN--\":8:11   */\n      dup2\n        /* \"--CODEGEN--\":5:16   */\n      lt\n        /* \"--CODEGEN--\":2:4   */\n      iszero\n      tag_35\n      jumpi\n        /* \"--CODEGEN--\":29:30   */\n      0x00\n        /* \"--CODEGEN--\":26:27   */\n      dup1\n        /* \"--CODEGEN--\":19:31   */\n      revert\n        /* \"--CODEGEN--\":2:4   */\n    tag_35:\n        /* \"Solidity_BD2/casaApuestas.sol\":4911:5297  function registrarEnCarrera(uint _codCaballo, uint _codCarrera) public \r... */\n      dup2\n      add\n      swap1\n      dup1\n      dup1\n      calldataload\n      swap1\n      0x20\n      add\n      swap1\n      swap3\n      swap2\n      swap1\n      dup1\n      calldataload\n      swap1\n      0x20\n      add\n      swap1\n      swap3\n      swap2\n      swap1\n      pop\n      pop\n      pop\n      tag_36\n      jump\t// in\n    tag_34:\n      stop\n        /* \"Solidity_BD2/casaApuestas.sol\":10442:11675  function getApostadorGanador(uint _codCarrera) public \r... */\n    tag_5:\n      callvalue\n        /* \"--CODEGEN--\":8:17   */\n      dup1\n        /* \"--CODEGEN--\":5:7   */\n      iszero\n      tag_37\n      jumpi\n        /* \"--CODEGEN--\":30:31   */\n      0x00\n        /* \"--CODEGEN--\":27:28   */\n      dup1\n        /* \"--CODEGEN--\":20:32   */\n      revert\n        /* \"--CODEGEN--\":5:7   */\n    tag_37:\n        /* \"Solidity_BD2/casaApuestas.sol\":10442:11675  function getApostadorGanador(uint _codCarrera) public \r... */\n      pop\n      tag_38\n      0x04\n      dup1\n      calldatasize\n      sub\n        /* \"--CODEGEN--\":13:15   */\n      0x20\n        /* \"--CODEGEN--\":8:11   */\n      dup2\n        /* \"--CODEGEN--\":5:16   */\n      lt\n        /* \"--CODEGEN--\":2:4   */\n      iszero\n      tag_39\n      jumpi\n        /* \"--CODEGEN--\":29:30   */\n      0x00\n        /* \"--CODEGEN--\":26:27   */\n      dup1\n        /* \"--CODEGEN--\":19:31   */\n      revert\n        /* \"--CODEGEN--\":2:4   */\n    tag_39:\n        /* \"Solidity_BD2/casaApuestas.sol\":10442:11675  function getApostadorGanador(uint _codCarrera) public \r... */\n      dup2\n      add\n      swap1\n      dup1\n      dup1\n      calldataload\n      swap1\n      0x20\n      add\n      swap1\n      swap3\n      swap2\n      swap1\n      pop\n      pop\n      pop\n      tag_40\n      jump\t// in\n    tag_38:\n      mload(0x40)\n      dup1\n      dup1\n      0x20\n      add\n      dup3\n      dup2\n      sub\n      dup3\n      mstore\n      dup4\n      dup2\n      dup2\n      mload\n      dup2\n      mstore\n      0x20\n      add\n      swap2\n      pop\n      dup1\n      mload\n      swap1\n      0x20\n      add\n      swap1\n      dup1\n      dup4\n      dup4\n        /* \"--CODEGEN--\":23:24   */\n      0x00\n        /* \"--CODEGEN--\":8:108   */\n    tag_41:\n        /* \"--CODEGEN--\":33:36   */\n      dup4\n        /* \"--CODEGEN--\":30:31   */\n      dup2\n        /* \"--CODEGEN--\":27:37   */\n      lt\n        /* \"--CODEGEN--\":8:108   */\n      iszero\n      tag_43\n      jumpi\n        /* \"--CODEGEN--\":99:100   */\n      dup1\n        /* \"--CODEGEN--\":94:97   */\n      dup3\n        /* \"--CODEGEN--\":90:101   */\n      add\n        /* \"--CODEGEN--\":84:102   */\n      mload\n        /* \"--CODEGEN--\":80:81   */\n      dup2\n        /* \"--CODEGEN--\":75:78   */\n      dup5\n        /* \"--CODEGEN--\":71:82   */\n      add\n        /* \"--CODEGEN--\":64:103   */\n      mstore\n        /* \"--CODEGEN--\":52:54   */\n      0x20\n        /* \"--CODEGEN--\":49:50   */\n      dup2\n        /* \"--CODEGEN--\":45:55   */\n      add\n        /* \"--CODEGEN--\":40:55   */\n      swap1\n      pop\n        /* \"--CODEGEN--\":8:108   */\n      jump(tag_41)\n    tag_43:\n        /* \"--CODEGEN--\":12:26   */\n      pop\n        /* \"Solidity_BD2/casaApuestas.sol\":10442:11675  function getApostadorGanador(uint _codCarrera) public \r... */\n      pop\n      pop\n      pop\n      swap1\n      pop\n      swap1\n      dup2\n      add\n      swap1\n      0x1f\n      and\n      dup1\n      iszero\n      tag_44\n      jumpi\n      dup1\n      dup3\n      sub\n      dup1\n      mload\n      0x01\n      dup4\n      0x20\n      sub\n      0x0100\n      exp\n      sub\n      not\n      and\n      dup2\n      mstore\n      0x20\n      add\n      swap2\n      pop\n    tag_44:\n      pop\n      swap3\n      pop\n      pop\n      pop\n      mload(0x40)\n      dup1\n      swap2\n      sub\n      swap1\n      return\n        /* \"Solidity_BD2/casaApuestas.sol\":55:79  address public anfitrion */\n    tag_6:\n      callvalue\n        /* \"--CODEGEN--\":8:17   */\n      dup1\n        /* \"--CODEGEN--\":5:7   */\n      iszero\n      tag_45\n      jumpi\n        /* \"--CODEGEN--\":30:31   */\n      0x00\n        /* \"--CODEGEN--\":27:28   */\n      dup1\n        /* \"--CODEGEN--\":20:32   */\n      revert\n        /* \"--CODEGEN--\":5:7   */\n    tag_45:\n        /* \"Solidity_BD2/casaApuestas.sol\":55:79  address public anfitrion */\n      pop\n      tag_46\n      tag_47\n      jump\t// in\n    tag_46:\n      mload(0x40)\n      dup1\n      dup3\n      0xffffffffffffffffffffffffffffffffffffffff\n      and\n      0xffffffffffffffffffffffffffffffffffffffff\n      and\n      dup2\n      mstore\n      0x20\n      add\n      swap2\n      pop\n      pop\n      mload(0x40)\n      dup1\n      swap2\n      sub\n      swap1\n      return\n        /* \"Solidity_BD2/casaApuestas.sol\":4681:4862  function registrarCaballo(uint _codigo, string memory _nombre) public \r... */\n    tag_7:\n      callvalue\n        /* \"--CODEGEN--\":8:17   */\n      dup1\n        /* \"--CODEGEN--\":5:7   */\n      iszero\n      tag_48\n      jumpi\n        /* \"--CODEGEN--\":30:31   */\n      0x00\n        /* \"--CODEGEN--\":27:28   */\n      dup1\n        /* \"--CODEGEN--\":20:32   */\n      revert\n        /* \"--CODEGEN--\":5:7   */\n    tag_48:\n        /* \"Solidity_BD2/casaApuestas.sol\":4681:4862  function registrarCaballo(uint _codigo, string memory _nombre) public \r... */\n      pop\n      tag_49\n      0x04\n      dup1\n      calldatasize\n      sub\n        /* \"--CODEGEN--\":13:15   */\n      0x40\n        /* \"--CODEGEN--\":8:11   */\n      dup2\n        /* \"--CODEGEN--\":5:16   */\n      lt\n        /* \"--CODEGEN--\":2:4   */\n      iszero\n      tag_50\n      jumpi\n        /* \"--CODEGEN--\":29:30   */\n      0x00\n        /* \"--CODEGEN--\":26:27   */\n      dup1\n        /* \"--CODEGEN--\":19:31   */\n      revert\n        /* \"--CODEGEN--\":2:4   */\n    tag_50:\n        /* \"Solidity_BD2/casaApuestas.sol\":4681:4862  function registrarCaballo(uint _codigo, string memory _nombre) public \r... */\n      dup2\n      add\n      swap1\n      dup1\n      dup1\n      calldataload\n      swap1\n      0x20\n      add\n      swap1\n      swap3\n      swap2\n      swap1\n      dup1\n      calldataload\n      swap1\n      0x20\n      add\n      swap1\n        /* \"--CODEGEN--\":21:32   */\n      0x0100000000\n        /* \"--CODEGEN--\":8:19   */\n      dup2\n        /* \"--CODEGEN--\":5:33   */\n      gt\n        /* \"--CODEGEN--\":2:4   */\n      iszero\n      tag_51\n      jumpi\n        /* \"--CODEGEN--\":46:47   */\n      0x00\n        /* \"--CODEGEN--\":43:44   */\n      dup1\n        /* \"--CODEGEN--\":36:48   */\n      revert\n        /* \"--CODEGEN--\":2:4   */\n    tag_51:\n        /* \"Solidity_BD2/casaApuestas.sol\":4681:4862  function registrarCaballo(uint _codigo, string memory _nombre) public \r... */\n      dup3\n      add\n        /* \"--CODEGEN--\":35:44   */\n      dup4\n        /* \"--CODEGEN--\":28:32   */\n      0x20\n        /* \"--CODEGEN--\":12:26   */\n      dup3\n        /* \"--CODEGEN--\":8:33   */\n      add\n        /* \"--CODEGEN--\":5:45   */\n      gt\n        /* \"--CODEGEN--\":2:4   */\n      iszero\n      tag_52\n      jumpi\n        /* \"--CODEGEN--\":58:59   */\n      0x00\n        /* \"--CODEGEN--\":55:56   */\n      dup1\n        /* \"--CODEGEN--\":48:60   */\n      revert\n        /* \"--CODEGEN--\":2:4   */\n    tag_52:\n        /* \"Solidity_BD2/casaApuestas.sol\":4681:4862  function registrarCaballo(uint _codigo, string memory _nombre) public \r... */\n      dup1\n      calldataload\n      swap1\n      0x20\n      add\n      swap2\n        /* \"--CODEGEN--\":100:109   */\n      dup5\n        /* \"--CODEGEN--\":95:96   */\n      0x01\n        /* \"--CODEGEN--\":81:93   */\n      dup4\n        /* \"--CODEGEN--\":77:97   */\n      mul\n        /* \"--CODEGEN--\":67:75   */\n      dup5\n        /* \"--CODEGEN--\":63:98   */\n      add\n        /* \"--CODEGEN--\":60:110   */\n      gt\n        /* \"--CODEGEN--\":39:50   */\n      0x0100000000\n        /* \"--CODEGEN--\":25:37   */\n      dup4\n        /* \"--CODEGEN--\":22:51   */\n      gt\n        /* \"--CODEGEN--\":11:118   */\n      or\n        /* \"--CODEGEN--\":8:10   */\n      iszero\n      tag_53\n      jumpi\n        /* \"--CODEGEN--\":131:132   */\n      0x00\n        /* \"--CODEGEN--\":128:129   */\n      dup1\n        /* \"--CODEGEN--\":121:133   */\n      revert\n        /* \"--CODEGEN--\":8:10   */\n    tag_53:\n        /* \"Solidity_BD2/casaApuestas.sol\":4681:4862  function registrarCaballo(uint _codigo, string memory _nombre) public \r... */\n      swap2\n      swap1\n      dup1\n      dup1\n      0x1f\n      add\n      0x20\n      dup1\n      swap2\n      div\n      mul\n      0x20\n      add\n      mload(0x40)\n      swap1\n      dup2\n      add\n      0x40\n      mstore\n      dup1\n      swap4\n      swap3\n      swap2\n      swap1\n      dup2\n      dup2\n      mstore\n      0x20\n      add\n      dup4\n      dup4\n        /* \"--CODEGEN--\":30:33   */\n      dup1\n        /* \"--CODEGEN--\":22:28   */\n      dup3\n        /* \"--CODEGEN--\":14:20   */\n      dup5\n        /* \"--CODEGEN--\":1:34   */\n      calldatacopy\n        /* \"--CODEGEN--\":99:100   */\n      0x00\n        /* \"--CODEGEN--\":93:96   */\n      dup2\n        /* \"--CODEGEN--\":85:91   */\n      dup5\n        /* \"--CODEGEN--\":81:97   */\n      add\n        /* \"--CODEGEN--\":74:101   */\n      mstore\n        /* \"--CODEGEN--\":137:141   */\n      0x1f\n        /* \"--CODEGEN--\":133:142   */\n      not\n        /* \"--CODEGEN--\":126:130   */\n      0x1f\n        /* \"--CODEGEN--\":121:124   */\n      dup3\n        /* \"--CODEGEN--\":117:131   */\n      add\n        /* \"--CODEGEN--\":113:143   */\n      and\n        /* \"--CODEGEN--\":106:143   */\n      swap1\n      pop\n        /* \"--CODEGEN--\":169:172   */\n      dup1\n        /* \"--CODEGEN--\":161:167   */\n      dup4\n        /* \"--CODEGEN--\":157:173   */\n      add\n        /* \"--CODEGEN--\":147:173   */\n      swap3\n      pop\n        /* \"Solidity_BD2/casaApuestas.sol\":4681:4862  function registrarCaballo(uint _codigo, string memory _nombre) public \r... */\n      pop\n      pop\n      pop\n      pop\n      pop\n      pop\n      swap2\n      swap3\n      swap2\n      swap3\n      swap1\n      pop\n      pop\n      pop\n      tag_54\n      jump\t// in\n    tag_49:\n      stop\n        /* \"Solidity_BD2/casaApuestas.sol\":200:240  mapping(uint => Carrera) public carreras */\n    tag_8:\n      callvalue\n        /* \"--CODEGEN--\":8:17   */\n      dup1\n        /* \"--CODEGEN--\":5:7   */\n      iszero\n      tag_55\n      jumpi\n        /* \"--CODEGEN--\":30:31   */\n      0x00\n        /* \"--CODEGEN--\":27:28   */\n      dup1\n        /* \"--CODEGEN--\":20:32   */\n      revert\n        /* \"--CODEGEN--\":5:7   */\n    tag_55:\n        /* \"Solidity_BD2/casaApuestas.sol\":200:240  mapping(uint => Carrera) public carreras */\n      pop\n      tag_56\n      0x04\n      dup1\n      calldatasize\n      sub\n        /* \"--CODEGEN--\":13:15   */\n      0x20\n        /* \"--CODEGEN--\":8:11   */\n      dup2\n        /* \"--CODEGEN--\":5:16   */\n      lt\n        /* \"--CODEGEN--\":2:4   */\n      iszero\n      tag_57\n      jumpi\n        /* \"--CODEGEN--\":29:30   */\n      0x00\n        /* \"--CODEGEN--\":26:27   */\n      dup1\n        /* \"--CODEGEN--\":19:31   */\n      revert\n        /* \"--CODEGEN--\":2:4   */\n    tag_57:\n        /* \"Solidity_BD2/casaApuestas.sol\":200:240  mapping(uint => Carrera) public carreras */\n      dup2\n      add\n      swap1\n      dup1\n      dup1\n      calldataload\n      swap1\n      0x20\n      add\n      swap1\n      swap3\n      swap2\n      swap1\n      pop\n      pop\n      pop\n      tag_58\n      jump\t// in\n    tag_56:\n      mload(0x40)\n      dup1\n      dup8\n      dup2\n      mstore\n      0x20\n      add\n      dup1\n      0x20\n      add\n      dup7\n      0x02\n      dup2\n      gt\n      iszero\n      tag_59\n      jumpi\n      invalid\n    tag_59:\n      0xff\n      and\n      dup2\n      mstore\n      0x20\n      add\n      dup6\n      dup2\n      mstore\n      0x20\n      add\n      dup5\n      dup2\n      mstore\n      0x20\n      add\n      dup4\n      dup2\n      mstore\n      0x20\n      add\n      dup3\n      dup2\n      sub\n      dup3\n      mstore\n      dup8\n      dup2\n      dup2\n      mload\n      dup2\n      mstore\n      0x20\n      add\n      swap2\n      pop\n      dup1\n      mload\n      swap1\n      0x20\n      add\n      swap1\n      dup1\n      dup4\n      dup4\n        /* \"--CODEGEN--\":23:24   */\n      0x00\n        /* \"--CODEGEN--\":8:108   */\n    tag_60:\n        /* \"--CODEGEN--\":33:36   */\n      dup4\n        /* \"--CODEGEN--\":30:31   */\n      dup2\n        /* \"--CODEGEN--\":27:37   */\n      lt\n        /* \"--CODEGEN--\":8:108   */\n      iszero\n      tag_62\n      jumpi\n        /* \"--CODEGEN--\":99:100   */\n      dup1\n        /* \"--CODEGEN--\":94:97   */\n      dup3\n        /* \"--CODEGEN--\":90:101   */\n      add\n        /* \"--CODEGEN--\":84:102   */\n      mload\n        /* \"--CODEGEN--\":80:81   */\n      dup2\n        /* \"--CODEGEN--\":75:78   */\n      dup5\n        /* \"--CODEGEN--\":71:82   */\n      add\n        /* \"--CODEGEN--\":64:103   */\n      mstore\n        /* \"--CODEGEN--\":52:54   */\n      0x20\n        /* \"--CODEGEN--\":49:50   */\n      dup2\n        /* \"--CODEGEN--\":45:55   */\n      add\n        /* \"--CODEGEN--\":40:55   */\n      swap1\n      pop\n        /* \"--CODEGEN--\":8:108   */\n      jump(tag_60)\n    tag_62:\n        /* \"--CODEGEN--\":12:26   */\n      pop\n        /* \"Solidity_BD2/casaApuestas.sol\":200:240  mapping(uint => Carrera) public carreras */\n      pop\n      pop\n      pop\n      swap1\n      pop\n      swap1\n      dup2\n      add\n      swap1\n      0x1f\n      and\n      dup1\n      iszero\n      tag_63\n      jumpi\n      dup1\n      dup3\n      sub\n      dup1\n      mload\n      0x01\n      dup4\n      0x20\n      sub\n      0x0100\n      exp\n      sub\n      not\n      and\n      dup2\n      mstore\n      0x20\n      add\n      swap2\n      pop\n    tag_63:\n      pop\n      swap8\n      pop\n      pop\n      pop\n      pop\n      pop\n      pop\n      pop\n      pop\n      mload(0x40)\n      dup1\n      swap2\n      sub\n      swap1\n      return\n        /* \"Solidity_BD2/casaApuestas.sol\":12007:12226  function getCaballoGanador(uint _codCarrera) public \r... */\n    tag_9:\n      callvalue\n        /* \"--CODEGEN--\":8:17   */\n      dup1\n        /* \"--CODEGEN--\":5:7   */\n      iszero\n      tag_64\n      jumpi\n        /* \"--CODEGEN--\":30:31   */\n      0x00\n        /* \"--CODEGEN--\":27:28   */\n      dup1\n        /* \"--CODEGEN--\":20:32   */\n      revert\n        /* \"--CODEGEN--\":5:7   */\n    tag_64:\n        /* \"Solidity_BD2/casaApuestas.sol\":12007:12226  function getCaballoGanador(uint _codCarrera) public \r... */\n      pop\n      tag_65\n      0x04\n      dup1\n      calldatasize\n      sub\n        /* \"--CODEGEN--\":13:15   */\n      0x20\n        /* \"--CODEGEN--\":8:11   */\n      dup2\n        /* \"--CODEGEN--\":5:16   */\n      lt\n        /* \"--CODEGEN--\":2:4   */\n      iszero\n      tag_66\n      jumpi\n        /* \"--CODEGEN--\":29:30   */\n      0x00\n        /* \"--CODEGEN--\":26:27   */\n      dup1\n        /* \"--CODEGEN--\":19:31   */\n      revert\n        /* \"--CODEGEN--\":2:4   */\n    tag_66:\n        /* \"Solidity_BD2/casaApuestas.sol\":12007:12226  function getCaballoGanador(uint _codCarrera) public \r... */\n      dup2\n      add\n      swap1\n      dup1\n      dup1\n      calldataload\n      swap1\n      0x20\n      add\n      swap1\n      swap3\n      swap2\n      swap1\n      pop\n      pop\n      pop\n      tag_67\n      jump\t// in\n    tag_65:\n      mload(0x40)\n      dup1\n      dup3\n      dup2\n      mstore\n      0x20\n      add\n      swap2\n      pop\n      pop\n      mload(0x40)\n      dup1\n      swap2\n      sub\n      swap1\n      return\n        /* \"Solidity_BD2/casaApuestas.sol\":11761:11999  function getAddressApostador(uint _indiceApostador, uint _codCarrera) public \r... */\n    tag_10:\n      callvalue\n        /* \"--CODEGEN--\":8:17   */\n      dup1\n        /* \"--CODEGEN--\":5:7   */\n      iszero\n      tag_68\n      jumpi\n        /* \"--CODEGEN--\":30:31   */\n      0x00\n        /* \"--CODEGEN--\":27:28   */\n      dup1\n        /* \"--CODEGEN--\":20:32   */\n      revert\n        /* \"--CODEGEN--\":5:7   */\n    tag_68:\n        /* \"Solidity_BD2/casaApuestas.sol\":11761:11999  function getAddressApostador(uint _indiceApostador, uint _codCarrera) public \r... */\n      pop\n      tag_69\n      0x04\n      dup1\n      calldatasize\n      sub\n        /* \"--CODEGEN--\":13:15   */\n      0x40\n        /* \"--CODEGEN--\":8:11   */\n      dup2\n        /* \"--CODEGEN--\":5:16   */\n      lt\n        /* \"--CODEGEN--\":2:4   */\n      iszero\n      tag_70\n      jumpi\n        /* \"--CODEGEN--\":29:30   */\n      0x00\n        /* \"--CODEGEN--\":26:27   */\n      dup1\n        /* \"--CODEGEN--\":19:31   */\n      revert\n        /* \"--CODEGEN--\":2:4   */\n    tag_70:\n        /* \"Solidity_BD2/casaApuestas.sol\":11761:11999  function getAddressApostador(uint _indiceApostador, uint _codCarrera) public \r... */\n      dup2\n      add\n      swap1\n      dup1\n      dup1\n      calldataload\n      swap1\n      0x20\n      add\n      swap1\n      swap3\n      swap2\n      swap1\n      dup1\n      calldataload\n      swap1\n      0x20\n      add\n      swap1\n      swap3\n      swap2\n      swap1\n      pop\n      pop\n      pop\n      tag_71\n      jump\t// in\n    tag_69:\n      mload(0x40)\n      dup1\n      dup3\n      0xffffffffffffffffffffffffffffffffffffffff\n      and\n      0xffffffffffffffffffffffffffffffffffffffff\n      and\n      dup2\n      mstore\n      0x20\n      add\n      swap2\n      pop\n      pop\n      mload(0x40)\n      dup1\n      swap2\n      sub\n      swap1\n      return\n        /* \"Solidity_BD2/casaApuestas.sol\":438:483  mapping(uint => address[]) public apostadores */\n    tag_11:\n      callvalue\n        /* \"--CODEGEN--\":8:17   */\n      dup1\n        /* \"--CODEGEN--\":5:7   */\n      iszero\n      tag_72\n      jumpi\n        /* \"--CODEGEN--\":30:31   */\n      0x00\n        /* \"--CODEGEN--\":27:28   */\n      dup1\n        /* \"--CODEGEN--\":20:32   */\n      revert\n        /* \"--CODEGEN--\":5:7   */\n    tag_72:\n        /* \"Solidity_BD2/casaApuestas.sol\":438:483  mapping(uint => address[]) public apostadores */\n      pop\n      tag_73\n      0x04\n      dup1\n      calldatasize\n      sub\n        /* \"--CODEGEN--\":13:15   */\n      0x40\n        /* \"--CODEGEN--\":8:11   */\n      dup2\n        /* \"--CODEGEN--\":5:16   */\n      lt\n        /* \"--CODEGEN--\":2:4   */\n      iszero\n      tag_74\n      jumpi\n        /* \"--CODEGEN--\":29:30   */\n      0x00\n        /* \"--CODEGEN--\":26:27   */\n      dup1\n        /* \"--CODEGEN--\":19:31   */\n      revert\n        /* \"--CODEGEN--\":2:4   */\n    tag_74:\n        /* \"Solidity_BD2/casaApuestas.sol\":438:483  mapping(uint => address[]) public apostadores */\n      dup2\n      add\n      swap1\n      dup1\n      dup1\n      calldataload\n      swap1\n      0x20\n      add\n      swap1\n      swap3\n      swap2\n      swap1\n      dup1\n      calldataload\n      swap1\n      0x20\n      add\n      swap1\n      swap3\n      swap2\n      swap1\n      pop\n      pop\n      pop\n      tag_75\n      jump\t// in\n    tag_73:\n      mload(0x40)\n      dup1\n      dup3\n      0xffffffffffffffffffffffffffffffffffffffff\n      and\n      0xffffffffffffffffffffffffffffffffffffffff\n      and\n      dup2\n      mstore\n      0x20\n      add\n      swap2\n      pop\n      pop\n      mload(0x40)\n      dup1\n      swap2\n      sub\n      swap1\n      return\n        /* \"Solidity_BD2/casaApuestas.sol\":12234:12635  function getEstadoCarrera(uint _codCarrera) public \r... */\n    tag_12:\n      callvalue\n        /* \"--CODEGEN--\":8:17   */\n      dup1\n        /* \"--CODEGEN--\":5:7   */\n      iszero\n      tag_76\n      jumpi\n        /* \"--CODEGEN--\":30:31   */\n      0x00\n        /* \"--CODEGEN--\":27:28   */\n      dup1\n        /* \"--CODEGEN--\":20:32   */\n      revert\n        /* \"--CODEGEN--\":5:7   */\n    tag_76:\n        /* \"Solidity_BD2/casaApuestas.sol\":12234:12635  function getEstadoCarrera(uint _codCarrera) public \r... */\n      pop\n      tag_77\n      0x04\n      dup1\n      calldatasize\n      sub\n        /* \"--CODEGEN--\":13:15   */\n      0x20\n        /* \"--CODEGEN--\":8:11   */\n      dup2\n        /* \"--CODEGEN--\":5:16   */\n      lt\n        /* \"--CODEGEN--\":2:4   */\n      iszero\n      tag_78\n      jumpi\n        /* \"--CODEGEN--\":29:30   */\n      0x00\n        /* \"--CODEGEN--\":26:27   */\n      dup1\n        /* \"--CODEGEN--\":19:31   */\n      revert\n        /* \"--CODEGEN--\":2:4   */\n    tag_78:\n        /* \"Solidity_BD2/casaApuestas.sol\":12234:12635  function getEstadoCarrera(uint _codCarrera) public \r... */\n      dup2\n      add\n      swap1\n      dup1\n      dup1\n      calldataload\n      swap1\n      0x20\n      add\n      swap1\n      swap3\n      swap2\n      swap1\n      pop\n      pop\n      pop\n      tag_79\n      jump\t// in\n    tag_77:\n      mload(0x40)\n      dup1\n      dup1\n      0x20\n      add\n      dup3\n      dup2\n      sub\n      dup3\n      mstore\n      dup4\n      dup2\n      dup2\n      mload\n      dup2\n      mstore\n      0x20\n      add\n      swap2\n      pop\n      dup1\n      mload\n      swap1\n      0x20\n      add\n      swap1\n      dup1\n      dup4\n      dup4\n        /* \"--CODEGEN--\":23:24   */\n      0x00\n        /* \"--CODEGEN--\":8:108   */\n    tag_80:\n        /* \"--CODEGEN--\":33:36   */\n      dup4\n        /* \"--CODEGEN--\":30:31   */\n      dup2\n        /* \"--CODEGEN--\":27:37   */\n      lt\n        /* \"--CODEGEN--\":8:108   */\n      iszero\n      tag_82\n      jumpi\n        /* \"--CODEGEN--\":99:100   */\n      dup1\n        /* \"--CODEGEN--\":94:97   */\n      dup3\n        /* \"--CODEGEN--\":90:101   */\n      add\n        /* \"--CODEGEN--\":84:102   */\n      mload\n        /* \"--CODEGEN--\":80:81   */\n      dup2\n        /* \"--CODEGEN--\":75:78   */\n      dup5\n        /* \"--CODEGEN--\":71:82   */\n      add\n        /* \"--CODEGEN--\":64:103   */\n      mstore\n        /* \"--CODEGEN--\":52:54   */\n      0x20\n        /* \"--CODEGEN--\":49:50   */\n      dup2\n        /* \"--CODEGEN--\":45:55   */\n      add\n        /* \"--CODEGEN--\":40:55   */\n      swap1\n      pop\n        /* \"--CODEGEN--\":8:108   */\n      jump(tag_80)\n    tag_82:\n        /* \"--CODEGEN--\":12:26   */\n      pop\n        /* \"Solidity_BD2/casaApuestas.sol\":12234:12635  function getEstadoCarrera(uint _codCarrera) public \r... */\n      pop\n      pop\n      pop\n      swap1\n      pop\n      swap1\n      dup2\n      add\n      swap1\n      0x1f\n      and\n      dup1\n      iszero\n      tag_83\n      jumpi\n      dup1\n      dup3\n      sub\n      dup1\n      mload\n      0x01\n      dup4\n      0x20\n      sub\n      0x0100\n      exp\n      sub\n      not\n      and\n      dup2\n      mstore\n      0x20\n      add\n      swap2\n      pop\n    tag_83:\n      pop\n      swap3\n      pop\n      pop\n      pop\n      mload(0x40)\n      dup1\n      swap2\n      sub\n      swap1\n      return\n        /* \"Solidity_BD2/casaApuestas.sol\":135:160  uint public totalCarreras */\n    tag_13:\n      callvalue\n        /* \"--CODEGEN--\":8:17   */\n      dup1\n        /* \"--CODEGEN--\":5:7   */\n      iszero\n      tag_84\n      jumpi\n        /* \"--CODEGEN--\":30:31   */\n      0x00\n        /* \"--CODEGEN--\":27:28   */\n      dup1\n        /* \"--CODEGEN--\":20:32   */\n      revert\n        /* \"--CODEGEN--\":5:7   */\n    tag_84:\n        /* \"Solidity_BD2/casaApuestas.sol\":135:160  uint public totalCarreras */\n      pop\n      tag_85\n      tag_86\n      jump\t// in\n    tag_85:\n      mload(0x40)\n      dup1\n      dup3\n      dup2\n      mstore\n      0x20\n      add\n      swap2\n      pop\n      pop\n      mload(0x40)\n      dup1\n      swap2\n      sub\n      swap1\n      return\n        /* \"Solidity_BD2/casaApuestas.sol\":269:309  mapping(uint => Caballo) public caballos */\n    tag_14:\n      callvalue\n        /* \"--CODEGEN--\":8:17   */\n      dup1\n        /* \"--CODEGEN--\":5:7   */\n      iszero\n      tag_87\n      jumpi\n        /* \"--CODEGEN--\":30:31   */\n      0x00\n        /* \"--CODEGEN--\":27:28   */\n      dup1\n        /* \"--CODEGEN--\":20:32   */\n      revert\n        /* \"--CODEGEN--\":5:7   */\n    tag_87:\n        /* \"Solidity_BD2/casaApuestas.sol\":269:309  mapping(uint => Caballo) public caballos */\n      pop\n      tag_88\n      0x04\n      dup1\n      calldatasize\n      sub\n        /* \"--CODEGEN--\":13:15   */\n      0x20\n        /* \"--CODEGEN--\":8:11   */\n      dup2\n        /* \"--CODEGEN--\":5:16   */\n      lt\n        /* \"--CODEGEN--\":2:4   */\n      iszero\n      tag_89\n      jumpi\n        /* \"--CODEGEN--\":29:30   */\n      0x00\n        /* \"--CODEGEN--\":26:27   */\n      dup1\n        /* \"--CODEGEN--\":19:31   */\n      revert\n        /* \"--CODEGEN--\":2:4   */\n    tag_89:\n        /* \"Solidity_BD2/casaApuestas.sol\":269:309  mapping(uint => Caballo) public caballos */\n      dup2\n      add\n      swap1\n      dup1\n      dup1\n      calldataload\n      swap1\n      0x20\n      add\n      swap1\n      swap3\n      swap2\n      swap1\n      pop\n      pop\n      pop\n      tag_90\n      jump\t// in\n    tag_88:\n      mload(0x40)\n      dup1\n      dup4\n      dup2\n      mstore\n      0x20\n      add\n      dup1\n      0x20\n      add\n      dup3\n      dup2\n      sub\n      dup3\n      mstore\n      dup4\n      dup2\n      dup2\n      mload\n      dup2\n      mstore\n      0x20\n      add\n      swap2\n      pop\n      dup1\n      mload\n      swap1\n      0x20\n      add\n      swap1\n      dup1\n      dup4\n      dup4\n        /* \"--CODEGEN--\":23:24   */\n      0x00\n        /* \"--CODEGEN--\":8:108   */\n    tag_91:\n        /* \"--CODEGEN--\":33:36   */\n      dup4\n        /* \"--CODEGEN--\":30:31   */\n      dup2\n        /* \"--CODEGEN--\":27:37   */\n      lt\n        /* \"--CODEGEN--\":8:108   */\n      iszero\n      tag_93\n      jumpi\n        /* \"--CODEGEN--\":99:100   */\n      dup1\n        /* \"--CODEGEN--\":94:97   */\n      dup3\n        /* \"--CODEGEN--\":90:101   */\n      add\n        /* \"--CODEGEN--\":84:102   */\n      mload\n        /* \"--CODEGEN--\":80:81   */\n      dup2\n        /* \"--CODEGEN--\":75:78   */\n      dup5\n        /* \"--CODEGEN--\":71:82   */\n      add\n        /* \"--CODEGEN--\":64:103   */\n      mstore\n        /* \"--CODEGEN--\":52:54   */\n      0x20\n        /* \"--CODEGEN--\":49:50   */\n      dup2\n        /* \"--CODEGEN--\":45:55   */\n      add\n        /* \"--CODEGEN--\":40:55   */\n      swap1\n      pop\n        /* \"--CODEGEN--\":8:108   */\n      jump(tag_91)\n    tag_93:\n        /* \"--CODEGEN--\":12:26   */\n      pop\n        /* \"Solidity_BD2/casaApuestas.sol\":269:309  mapping(uint => Caballo) public caballos */\n      pop\n      pop\n      pop\n      swap1\n      pop\n      swap1\n      dup2\n      add\n      swap1\n      0x1f\n      and\n      dup1\n      iszero\n      tag_94\n      jumpi\n      dup1\n      dup3\n      sub\n      dup1\n      mload\n      0x01\n      dup4\n      0x20\n      sub\n      0x0100\n      exp\n      sub\n      not\n      and\n      dup2\n      mstore\n      0x20\n      add\n      swap2\n      pop\n    tag_94:\n      pop\n      swap4\n      pop\n      pop\n      pop\n      pop\n      mload(0x40)\n      dup1\n      swap2\n      sub\n      swap1\n      return\n        /* \"Solidity_BD2/casaApuestas.sol\":5558:6778  function apostar(uint _codCaballo, uint _codCarrera) payable public \r... */\n    tag_15:\n      tag_95\n      0x04\n      dup1\n      calldatasize\n      sub\n        /* \"--CODEGEN--\":13:15   */\n      0x40\n        /* \"--CODEGEN--\":8:11   */\n      dup2\n        /* \"--CODEGEN--\":5:16   */\n      lt\n        /* \"--CODEGEN--\":2:4   */\n      iszero\n      tag_96\n      jumpi\n        /* \"--CODEGEN--\":29:30   */\n      0x00\n        /* \"--CODEGEN--\":26:27   */\n      dup1\n        /* \"--CODEGEN--\":19:31   */\n      revert\n        /* \"--CODEGEN--\":2:4   */\n    tag_96:\n        /* \"Solidity_BD2/casaApuestas.sol\":5558:6778  function apostar(uint _codCaballo, uint _codCarrera) payable public \r... */\n      dup2\n      add\n      swap1\n      dup1\n      dup1\n      calldataload\n      swap1\n      0x20\n      add\n      swap1\n      swap3\n      swap2\n      swap1\n      dup1\n      calldataload\n      swap1\n      0x20\n      add\n      swap1\n      swap3\n      swap2\n      swap1\n      pop\n      pop\n      pop\n      tag_97\n      jump\t// in\n    tag_95:\n      stop\n        /* \"Solidity_BD2/casaApuestas.sol\":5305:5550  function registrarCarrera(uint _codCarrera) public \r... */\n    tag_16:\n      callvalue\n        /* \"--CODEGEN--\":8:17   */\n      dup1\n        /* \"--CODEGEN--\":5:7   */\n      iszero\n      tag_98\n      jumpi\n        /* \"--CODEGEN--\":30:31   */\n      0x00\n        /* \"--CODEGEN--\":27:28   */\n      dup1\n        /* \"--CODEGEN--\":20:32   */\n      revert\n        /* \"--CODEGEN--\":5:7   */\n    tag_98:\n        /* \"Solidity_BD2/casaApuestas.sol\":5305:5550  function registrarCarrera(uint _codCarrera) public \r... */\n      pop\n      tag_99\n      0x04\n      dup1\n      calldatasize\n      sub\n        /* \"--CODEGEN--\":13:15   */\n      0x20\n        /* \"--CODEGEN--\":8:11   */\n      dup2\n        /* \"--CODEGEN--\":5:16   */\n      lt\n        /* \"--CODEGEN--\":2:4   */\n      iszero\n      tag_100\n      jumpi\n        /* \"--CODEGEN--\":29:30   */\n      0x00\n        /* \"--CODEGEN--\":26:27   */\n      dup1\n        /* \"--CODEGEN--\":19:31   */\n      revert\n        /* \"--CODEGEN--\":2:4   */\n    tag_100:\n        /* \"Solidity_BD2/casaApuestas.sol\":5305:5550  function registrarCarrera(uint _codCarrera) public \r... */\n      dup2\n      add\n      swap1\n      dup1\n      dup1\n      calldataload\n      swap1\n      0x20\n      add\n      swap1\n      swap3\n      swap2\n      swap1\n      pop\n      pop\n      pop\n      tag_101\n      jump\t// in\n    tag_99:\n      stop\n        /* \"Solidity_BD2/casaApuestas.sol\":4443:4673  function crearCarrera(uint _codigo, string memory _nombre) public \r... */\n    tag_17:\n      callvalue\n        /* \"--CODEGEN--\":8:17   */\n      dup1\n        /* \"--CODEGEN--\":5:7   */\n      iszero\n      tag_102\n      jumpi\n        /* \"--CODEGEN--\":30:31   */\n      0x00\n        /* \"--CODEGEN--\":27:28   */\n      dup1\n        /* \"--CODEGEN--\":20:32   */\n      revert\n        /* \"--CODEGEN--\":5:7   */\n    tag_102:\n        /* \"Solidity_BD2/casaApuestas.sol\":4443:4673  function crearCarrera(uint _codigo, string memory _nombre) public \r... */\n      pop\n      tag_103\n      0x04\n      dup1\n      calldatasize\n      sub\n        /* \"--CODEGEN--\":13:15   */\n      0x40\n        /* \"--CODEGEN--\":8:11   */\n      dup2\n        /* \"--CODEGEN--\":5:16   */\n      lt\n        /* \"--CODEGEN--\":2:4   */\n      iszero\n      tag_104\n      jumpi\n        /* \"--CODEGEN--\":29:30   */\n      0x00\n        /* \"--CODEGEN--\":26:27   */\n      dup1\n        /* \"--CODEGEN--\":19:31   */\n      revert\n        /* \"--CODEGEN--\":2:4   */\n    tag_104:\n        /* \"Solidity_BD2/casaApuestas.sol\":4443:4673  function crearCarrera(uint _codigo, string memory _nombre) public \r... */\n      dup2\n      add\n      swap1\n      dup1\n      dup1\n      calldataload\n      swap1\n      0x20\n      add\n      swap1\n      swap3\n      swap2\n      swap1\n      dup1\n      calldataload\n      swap1\n      0x20\n      add\n      swap1\n        /* \"--CODEGEN--\":21:32   */\n      0x0100000000\n        /* \"--CODEGEN--\":8:19   */\n      dup2\n        /* \"--CODEGEN--\":5:33   */\n      gt\n        /* \"--CODEGEN--\":2:4   */\n      iszero\n      tag_105\n      jumpi\n        /* \"--CODEGEN--\":46:47   */\n      0x00\n        /* \"--CODEGEN--\":43:44   */\n      dup1\n        /* \"--CODEGEN--\":36:48   */\n      revert\n        /* \"--CODEGEN--\":2:4   */\n    tag_105:\n        /* \"Solidity_BD2/casaApuestas.sol\":4443:4673  function crearCarrera(uint _codigo, string memory _nombre) public \r... */\n      dup3\n      add\n        /* \"--CODEGEN--\":35:44   */\n      dup4\n        /* \"--CODEGEN--\":28:32   */\n      0x20\n        /* \"--CODEGEN--\":12:26   */\n      dup3\n        /* \"--CODEGEN--\":8:33   */\n      add\n        /* \"--CODEGEN--\":5:45   */\n      gt\n        /* \"--CODEGEN--\":2:4   */\n      iszero\n      tag_106\n      jumpi\n        /* \"--CODEGEN--\":58:59   */\n      0x00\n        /* \"--CODEGEN--\":55:56   */\n      dup1\n        /* \"--CODEGEN--\":48:60   */\n      revert\n        /* \"--CODEGEN--\":2:4   */\n    tag_106:\n        /* \"Solidity_BD2/casaApuestas.sol\":4443:4673  function crearCarrera(uint _codigo, string memory _nombre) public \r... */\n      dup1\n      calldataload\n      swap1\n      0x20\n      add\n      swap2\n        /* \"--CODEGEN--\":100:109   */\n      dup5\n        /* \"--CODEGEN--\":95:96   */\n      0x01\n        /* \"--CODEGEN--\":81:93   */\n      dup4\n        /* \"--CODEGEN--\":77:97   */\n      mul\n        /* \"--CODEGEN--\":67:75   */\n      dup5\n        /* \"--CODEGEN--\":63:98   */\n      add\n        /* \"--CODEGEN--\":60:110   */\n      gt\n        /* \"--CODEGEN--\":39:50   */\n      0x0100000000\n        /* \"--CODEGEN--\":25:37   */\n      dup4\n        /* \"--CODEGEN--\":22:51   */\n      gt\n        /* \"--CODEGEN--\":11:118   */\n      or\n        /* \"--CODEGEN--\":8:10   */\n      iszero\n      tag_107\n      jumpi\n        /* \"--CODEGEN--\":131:132   */\n      0x00\n        /* \"--CODEGEN--\":128:129   */\n      dup1\n        /* \"--CODEGEN--\":121:133   */\n      revert\n        /* \"--CODEGEN--\":8:10   */\n    tag_107:\n        /* \"Solidity_BD2/casaApuestas.sol\":4443:4673  function crearCarrera(uint _codigo, string memory _nombre) public \r... */\n      swap2\n      swap1\n      dup1\n      dup1\n      0x1f\n      add\n      0x20\n      dup1\n      swap2\n      div\n      mul\n      0x20\n      add\n      mload(0x40)\n      swap1\n      dup2\n      add\n      0x40\n      mstore\n      dup1\n      swap4\n      swap3\n      swap2\n      swap1\n      dup2\n      dup2\n      mstore\n      0x20\n      add\n      dup4\n      dup4\n        /* \"--CODEGEN--\":30:33   */\n      dup1\n        /* \"--CODEGEN--\":22:28   */\n      dup3\n        /* \"--CODEGEN--\":14:20   */\n      dup5\n        /* \"--CODEGEN--\":1:34   */\n      calldatacopy\n        /* \"--CODEGEN--\":99:100   */\n      0x00\n        /* \"--CODEGEN--\":93:96   */\n      dup2\n        /* \"--CODEGEN--\":85:91   */\n      dup5\n        /* \"--CODEGEN--\":81:97   */\n      add\n        /* \"--CODEGEN--\":74:101   */\n      mstore\n        /* \"--CODEGEN--\":137:141   */\n      0x1f\n        /* \"--CODEGEN--\":133:142   */\n      not\n        /* \"--CODEGEN--\":126:130   */\n      0x1f\n        /* \"--CODEGEN--\":121:124   */\n      dup3\n        /* \"--CODEGEN--\":117:131   */\n      add\n        /* \"--CODEGEN--\":113:143   */\n      and\n        /* \"--CODEGEN--\":106:143   */\n      swap1\n      pop\n        /* \"--CODEGEN--\":169:172   */\n      dup1\n        /* \"--CODEGEN--\":161:167   */\n      dup4\n        /* \"--CODEGEN--\":157:173   */\n      add\n        /* \"--CODEGEN--\":147:173   */\n      swap3\n      pop\n        /* \"Solidity_BD2/casaApuestas.sol\":4443:4673  function crearCarrera(uint _codigo, string memory _nombre) public \r... */\n      pop\n      pop\n      pop\n      pop\n      pop\n      pop\n      swap2\n      swap3\n      swap2\n      swap3\n      swap1\n      pop\n      pop\n      pop\n      tag_108\n      jump\t// in\n    tag_103:\n      stop\n        /* \"Solidity_BD2/casaApuestas.sol\":338:381  mapping(uint => uint[]) public competencias */\n    tag_18:\n      callvalue\n        /* \"--CODEGEN--\":8:17   */\n      dup1\n        /* \"--CODEGEN--\":5:7   */\n      iszero\n      tag_109\n      jumpi\n        /* \"--CODEGEN--\":30:31   */\n      0x00\n        /* \"--CODEGEN--\":27:28   */\n      dup1\n        /* \"--CODEGEN--\":20:32   */\n      revert\n        /* \"--CODEGEN--\":5:7   */\n    tag_109:\n        /* \"Solidity_BD2/casaApuestas.sol\":338:381  mapping(uint => uint[]) public competencias */\n      pop\n      tag_110\n      0x04\n      dup1\n      calldatasize\n      sub\n        /* \"--CODEGEN--\":13:15   */\n      0x40\n        /* \"--CODEGEN--\":8:11   */\n      dup2\n        /* \"--CODEGEN--\":5:16   */\n      lt\n        /* \"--CODEGEN--\":2:4   */\n      iszero\n      tag_111\n      jumpi\n        /* \"--CODEGEN--\":29:30   */\n      0x00\n        /* \"--CODEGEN--\":26:27   */\n      dup1\n        /* \"--CODEGEN--\":19:31   */\n      revert\n        /* \"--CODEGEN--\":2:4   */\n    tag_111:\n        /* \"Solidity_BD2/casaApuestas.sol\":338:381  mapping(uint => uint[]) public competencias */\n      dup2\n      add\n      swap1\n      dup1\n      dup1\n      calldataload\n      swap1\n      0x20\n      add\n      swap1\n      swap3\n      swap2\n      swap1\n      dup1\n      calldataload\n      swap1\n      0x20\n      add\n      swap1\n      swap3\n      swap2\n      swap1\n      pop\n      pop\n      pop\n      tag_112\n      jump\t// in\n    tag_110:\n      mload(0x40)\n      dup1\n      dup3\n      dup2\n      mstore\n      0x20\n      add\n      swap2\n      pop\n      pop\n      mload(0x40)\n      dup1\n      swap2\n      sub\n      swap1\n      return\n        /* \"Solidity_BD2/casaApuestas.sol\":7037:9440  function terminarCarrera(uint _codCarrera) payable public\r... */\n    tag_24:\n        /* \"Solidity_BD2/casaApuestas.sol\":1317:1326  anfitrion */\n      0x00\n      dup1\n      swap1\n      sload\n      swap1\n      0x0100\n      exp\n      swap1\n      div\n      0xffffffffffffffffffffffffffffffffffffffff\n      and\n        /* \"Solidity_BD2/casaApuestas.sol\":1303:1326  msg.sender == anfitrion */\n      0xffffffffffffffffffffffffffffffffffffffff\n      and\n        /* \"Solidity_BD2/casaApuestas.sol\":1303:1313  msg.sender */\n      caller\n        /* \"Solidity_BD2/casaApuestas.sol\":1303:1326  msg.sender == anfitrion */\n      0xffffffffffffffffffffffffffffffffffffffff\n      and\n      eq\n        /* \"Solidity_BD2/casaApuestas.sol\":1295:1365  require(msg.sender == anfitrion, \"El invocador debe ser el anfitrion\") */\n      tag_114\n      jumpi\n      mload(0x40)\n      0x08c379a000000000000000000000000000000000000000000000000000000000\n      dup2\n      mstore\n      0x04\n      add\n      dup1\n      dup1\n      0x20\n      add\n      dup3\n      dup2\n      sub\n      dup3\n      mstore\n      0x22\n      dup2\n      mstore\n      0x20\n      add\n      dup1\n      data_445dd79b894b98a34a1cc7c38a5bd2de2e19478d6390b1e445457362fd7001d8\n      0x22\n      swap2\n      codecopy\n      0x40\n      add\n      swap2\n      pop\n      pop\n      mload(0x40)\n      dup1\n      swap2\n      sub\n      swap1\n      revert\n    tag_114:\n        /* \"Solidity_BD2/casaApuestas.sol\":7131:7142  _codCarrera */\n      dup1\n        /* \"Solidity_BD2/casaApuestas.sol\":2597:2598  0 */\n      0x00\n        /* \"Solidity_BD2/casaApuestas.sol\":2557:2565  carreras */\n      0x02\n        /* \"Solidity_BD2/casaApuestas.sol\":2557:2578  carreras[_codCarrera] */\n      0x00\n        /* \"Solidity_BD2/casaApuestas.sol\":2566:2577  _codCarrera */\n      dup4\n        /* \"Solidity_BD2/casaApuestas.sol\":2557:2578  carreras[_codCarrera] */\n      dup2\n      mstore\n      0x20\n      add\n      swap1\n      dup2\n      mstore\n      0x20\n      add\n      0x00\n      keccak256\n        /* \"Solidity_BD2/casaApuestas.sol\":2557:2585  carreras[_codCarrera].nombre */\n      0x01\n      add\n        /* \"Solidity_BD2/casaApuestas.sol\":2551:2593  bytes(carreras[_codCarrera].nombre).length */\n      dup1\n      sload\n      0x01\n      dup2\n      0x01\n      and\n      iszero\n      0x0100\n      mul\n      sub\n      and\n      0x02\n      swap1\n      div\n      swap1\n      pop\n        /* \"Solidity_BD2/casaApuestas.sol\":2551:2598  bytes(carreras[_codCarrera].nombre).length != 0 */\n      eq\n      iszero\n        /* \"Solidity_BD2/casaApuestas.sol\":2543:2633  require(bytes(carreras[_codCarrera].nombre).length != 0, \"La carrera ingresada no existe\") */\n      tag_116\n      jumpi\n      mload(0x40)\n      0x08c379a000000000000000000000000000000000000000000000000000000000\n      dup2\n      mstore\n      0x04\n      add\n      dup1\n      dup1\n      0x20\n      add\n      dup3\n      dup2\n      sub\n      dup3\n      mstore\n      0x1e\n      dup2\n      mstore\n      0x20\n      add\n      dup1\n      0x4c61206361727265726120696e67726573616461206e6f206578697374650000\n      dup2\n      mstore\n      pop\n      0x20\n      add\n      swap2\n      pop\n      pop\n      mload(0x40)\n      dup1\n      swap2\n      sub\n      swap1\n      revert\n    tag_116:\n        /* \"Solidity_BD2/casaApuestas.sol\":7159:7170  _codCarrera */\n      dup2\n        /* \"Solidity_BD2/casaApuestas.sol\":7172:7189  Estado.Registrada */\n      0x01\n        /* \"Solidity_BD2/casaApuestas.sol\":1783:1790  _estado */\n      dup1\n        /* \"Solidity_BD2/casaApuestas.sol\":1744:1790  carreras[_codCarrera].estadoCarrera == _estado */\n      0x02\n      dup2\n      gt\n      iszero\n      tag_118\n      jumpi\n      invalid\n    tag_118:\n        /* \"Solidity_BD2/casaApuestas.sol\":1744:1752  carreras */\n      0x02\n        /* \"Solidity_BD2/casaApuestas.sol\":1744:1765  carreras[_codCarrera] */\n      0x00\n        /* \"Solidity_BD2/casaApuestas.sol\":1753:1764  _codCarrera */\n      dup5\n        /* \"Solidity_BD2/casaApuestas.sol\":1744:1765  carreras[_codCarrera] */\n      dup2\n      mstore\n      0x20\n      add\n      swap1\n      dup2\n      mstore\n      0x20\n      add\n      0x00\n      keccak256\n        /* \"Solidity_BD2/casaApuestas.sol\":1744:1779  carreras[_codCarrera].estadoCarrera */\n      0x02\n      add\n      0x00\n      swap1\n      sload\n      swap1\n      0x0100\n      exp\n      swap1\n      div\n      0xff\n      and\n        /* \"Solidity_BD2/casaApuestas.sol\":1744:1790  carreras[_codCarrera].estadoCarrera == _estado */\n      0x02\n      dup2\n      gt\n      iszero\n      tag_119\n      jumpi\n      invalid\n    tag_119:\n      eq\n        /* \"Solidity_BD2/casaApuestas.sol\":1736:1839  require(carreras[_codCarrera].estadoCarrera == _estado, \"La carrera no cumple con el estado requerido\") */\n      tag_120\n      jumpi\n      mload(0x40)\n      0x08c379a000000000000000000000000000000000000000000000000000000000\n      dup2\n      mstore\n      0x04\n      add\n      dup1\n      dup1\n      0x20\n      add\n      dup3\n      dup2\n      sub\n      dup3\n      mstore\n      0x2c\n      dup2\n      mstore\n      0x20\n      add\n      dup1\n      data_e91ca438e9e3f1e0e0a5b1a72a508ed5ae254b3cb59572817ac1ec6e2a488952\n      0x2c\n      swap2\n      codecopy\n      0x40\n      add\n      swap2\n      pop\n      pop\n      mload(0x40)\n      dup1\n      swap2\n      sub\n      swap1\n      revert\n    tag_120:\n        /* \"Solidity_BD2/casaApuestas.sol\":7201:7226  uint indiceCaballoGanador */\n      0x00\n        /* \"Solidity_BD2/casaApuestas.sol\":7229:7283  generarAleatorio(carreras[_codCarrera].numeroCaballos) */\n      tag_122\n        /* \"Solidity_BD2/casaApuestas.sol\":7246:7254  carreras */\n      0x02\n        /* \"Solidity_BD2/casaApuestas.sol\":7246:7267  carreras[_codCarrera] */\n      0x00\n        /* \"Solidity_BD2/casaApuestas.sol\":7255:7266  _codCarrera */\n      dup8\n        /* \"Solidity_BD2/casaApuestas.sol\":7246:7267  carreras[_codCarrera] */\n      dup2\n      mstore\n      0x20\n      add\n      swap1\n      dup2\n      mstore\n      0x20\n      add\n      0x00\n      keccak256\n        /* \"Solidity_BD2/casaApuestas.sol\":7246:7282  carreras[_codCarrera].numeroCaballos */\n      0x04\n      add\n      sload\n        /* \"Solidity_BD2/casaApuestas.sol\":7229:7245  generarAleatorio */\n      tag_123\n        /* \"Solidity_BD2/casaApuestas.sol\":7229:7283  generarAleatorio(carreras[_codCarrera].numeroCaballos) */\n      jump\t// in\n    tag_122:\n        /* \"Solidity_BD2/casaApuestas.sol\":7201:7283  uint indiceCaballoGanador = generarAleatorio(carreras[_codCarrera].numeroCaballos) */\n      swap1\n      pop\n        /* \"Solidity_BD2/casaApuestas.sol\":7347:7372  uint apostadoPorGanadores */\n      0x00\n        /* \"Solidity_BD2/casaApuestas.sol\":7375:7376  0 */\n      dup1\n        /* \"Solidity_BD2/casaApuestas.sol\":7347:7376  uint apostadoPorGanadores = 0 */\n      swap1\n      pop\n        /* \"Solidity_BD2/casaApuestas.sol\":7497:7509  competencias */\n      0x04\n        /* \"Solidity_BD2/casaApuestas.sol\":7497:7522  competencias[_codCarrera] */\n      0x00\n        /* \"Solidity_BD2/casaApuestas.sol\":7510:7521  _codCarrera */\n      dup8\n        /* \"Solidity_BD2/casaApuestas.sol\":7497:7522  competencias[_codCarrera] */\n      dup2\n      mstore\n      0x20\n      add\n      swap1\n      dup2\n      mstore\n      0x20\n      add\n      0x00\n      keccak256\n        /* \"Solidity_BD2/casaApuestas.sol\":7523:7543  indiceCaballoGanador */\n      dup3\n        /* \"Solidity_BD2/casaApuestas.sol\":7497:7544  competencias[_codCarrera][indiceCaballoGanador] */\n      dup2\n      sload\n      dup2\n      lt\n      tag_124\n      jumpi\n      invalid\n    tag_124:\n      swap1\n      0x00\n      mstore\n      keccak256(0x00, 0x20)\n      add\n      sload\n        /* \"Solidity_BD2/casaApuestas.sol\":7458:7466  carreras */\n      0x02\n        /* \"Solidity_BD2/casaApuestas.sol\":7458:7479  carreras[_codCarrera] */\n      0x00\n        /* \"Solidity_BD2/casaApuestas.sol\":7467:7478  _codCarrera */\n      dup9\n        /* \"Solidity_BD2/casaApuestas.sol\":7458:7479  carreras[_codCarrera] */\n      dup2\n      mstore\n      0x20\n      add\n      swap1\n      dup2\n      mstore\n      0x20\n      add\n      0x00\n      keccak256\n        /* \"Solidity_BD2/casaApuestas.sol\":7458:7494  carreras[_codCarrera].caballoGanador */\n      0x05\n      add\n        /* \"Solidity_BD2/casaApuestas.sol\":7458:7544  carreras[_codCarrera].caballoGanador = competencias[_codCarrera][indiceCaballoGanador] */\n      dup2\n      swap1\n      sstore\n      pop\n        /* \"Solidity_BD2/casaApuestas.sol\":7628:7634  uint i */\n      0x00\n        /* \"Solidity_BD2/casaApuestas.sol\":7637:7638  0 */\n      dup1\n        /* \"Solidity_BD2/casaApuestas.sol\":7628:7638  uint i = 0 */\n      swap1\n      pop\n        /* \"Solidity_BD2/casaApuestas.sol\":7623:8127  for (uint i = 0; i < apostadores[_codCarrera].length; i++) {  // Total de apostadores para esta carrera\r... */\n    tag_126:\n        /* \"Solidity_BD2/casaApuestas.sol\":7644:7655  apostadores */\n      0x05\n        /* \"Solidity_BD2/casaApuestas.sol\":7644:7668  apostadores[_codCarrera] */\n      0x00\n        /* \"Solidity_BD2/casaApuestas.sol\":7656:7667  _codCarrera */\n      dup9\n        /* \"Solidity_BD2/casaApuestas.sol\":7644:7668  apostadores[_codCarrera] */\n      dup2\n      mstore\n      0x20\n      add\n      swap1\n      dup2\n      mstore\n      0x20\n      add\n      0x00\n      keccak256\n        /* \"Solidity_BD2/casaApuestas.sol\":7644:7675  apostadores[_codCarrera].length */\n      dup1\n      sload\n      swap1\n      pop\n        /* \"Solidity_BD2/casaApuestas.sol\":7640:7641  i */\n      dup2\n        /* \"Solidity_BD2/casaApuestas.sol\":7640:7675  i < apostadores[_codCarrera].length */\n      lt\n        /* \"Solidity_BD2/casaApuestas.sol\":7623:8127  for (uint i = 0; i < apostadores[_codCarrera].length; i++) {  // Total de apostadores para esta carrera\r... */\n      iszero\n      tag_127\n      jumpi\n        /* \"Solidity_BD2/casaApuestas.sol\":7740:7757  address direccion */\n      0x00\n        /* \"Solidity_BD2/casaApuestas.sol\":7760:7771  apostadores */\n      0x05\n        /* \"Solidity_BD2/casaApuestas.sol\":7760:7784  apostadores[_codCarrera] */\n      0x00\n        /* \"Solidity_BD2/casaApuestas.sol\":7772:7783  _codCarrera */\n      dup10\n        /* \"Solidity_BD2/casaApuestas.sol\":7760:7784  apostadores[_codCarrera] */\n      dup2\n      mstore\n      0x20\n      add\n      swap1\n      dup2\n      mstore\n      0x20\n      add\n      0x00\n      keccak256\n        /* \"Solidity_BD2/casaApuestas.sol\":7785:7786  i */\n      dup3\n        /* \"Solidity_BD2/casaApuestas.sol\":7760:7787  apostadores[_codCarrera][i] */\n      dup2\n      sload\n      dup2\n      lt\n      tag_129\n      jumpi\n      invalid\n    tag_129:\n      swap1\n      0x00\n      mstore\n      keccak256(0x00, 0x20)\n      add\n      0x00\n      swap1\n      sload\n      swap1\n      0x0100\n      exp\n      swap1\n      div\n      0xffffffffffffffffffffffffffffffffffffffff\n      and\n        /* \"Solidity_BD2/casaApuestas.sol\":7740:7787  address direccion = apostadores[_codCarrera][i] */\n      swap1\n      pop\n        /* \"Solidity_BD2/casaApuestas.sol\":7962:7974  competencias */\n      0x04\n        /* \"Solidity_BD2/casaApuestas.sol\":7962:7987  competencias[_codCarrera] */\n      0x00\n        /* \"Solidity_BD2/casaApuestas.sol\":7975:7986  _codCarrera */\n      dup10\n        /* \"Solidity_BD2/casaApuestas.sol\":7962:7987  competencias[_codCarrera] */\n      dup2\n      mstore\n      0x20\n      add\n      swap1\n      dup2\n      mstore\n      0x20\n      add\n      0x00\n      keccak256\n        /* \"Solidity_BD2/casaApuestas.sol\":7988:8008  indiceCaballoGanador */\n      dup5\n        /* \"Solidity_BD2/casaApuestas.sol\":7962:8009  competencias[_codCarrera][indiceCaballoGanador] */\n      dup2\n      sload\n      dup2\n      lt\n      tag_131\n      jumpi\n      invalid\n    tag_131:\n      swap1\n      0x00\n      mstore\n      keccak256(0x00, 0x20)\n      add\n      sload\n        /* \"Solidity_BD2/casaApuestas.sol\":7906:7914  carreras */\n      0x02\n        /* \"Solidity_BD2/casaApuestas.sol\":7906:7927  carreras[_codCarrera] */\n      0x00\n        /* \"Solidity_BD2/casaApuestas.sol\":7915:7926  _codCarrera */\n      dup11\n        /* \"Solidity_BD2/casaApuestas.sol\":7906:7927  carreras[_codCarrera] */\n      dup2\n      mstore\n      0x20\n      add\n      swap1\n      dup2\n      mstore\n      0x20\n      add\n      0x00\n      keccak256\n        /* \"Solidity_BD2/casaApuestas.sol\":7906:7936  carreras[_codCarrera].apuestas */\n      0x06\n      add\n        /* \"Solidity_BD2/casaApuestas.sol\":7906:7947  carreras[_codCarrera].apuestas[direccion] */\n      0x00\n        /* \"Solidity_BD2/casaApuestas.sol\":7937:7946  direccion */\n      dup4\n        /* \"Solidity_BD2/casaApuestas.sol\":7906:7947  carreras[_codCarrera].apuestas[direccion] */\n      0xffffffffffffffffffffffffffffffffffffffff\n      and\n      0xffffffffffffffffffffffffffffffffffffffff\n      and\n      dup2\n      mstore\n      0x20\n      add\n      swap1\n      dup2\n      mstore\n      0x20\n      add\n      0x00\n      keccak256\n        /* \"Solidity_BD2/casaApuestas.sol\":7906:7958  carreras[_codCarrera].apuestas[direccion].codCaballo */\n      0x01\n      add\n      sload\n        /* \"Solidity_BD2/casaApuestas.sol\":7906:8009  carreras[_codCarrera].apuestas[direccion].codCaballo == competencias[_codCarrera][indiceCaballoGanador] */\n      eq\n        /* \"Solidity_BD2/casaApuestas.sol\":7902:8116  if (carreras[_codCarrera].apuestas[direccion].codCaballo == competencias[_codCarrera][indiceCaballoGanador]){\r... */\n      iszero\n      tag_133\n      jumpi\n        /* \"Solidity_BD2/casaApuestas.sol\":8053:8061  carreras */\n      0x02\n        /* \"Solidity_BD2/casaApuestas.sol\":8053:8074  carreras[_codCarrera] */\n      0x00\n        /* \"Solidity_BD2/casaApuestas.sol\":8062:8073  _codCarrera */\n      dup10\n        /* \"Solidity_BD2/casaApuestas.sol\":8053:8074  carreras[_codCarrera] */\n      dup2\n      mstore\n      0x20\n      add\n      swap1\n      dup2\n      mstore\n      0x20\n      add\n      0x00\n      keccak256\n        /* \"Solidity_BD2/casaApuestas.sol\":8053:8083  carreras[_codCarrera].apuestas */\n      0x06\n      add\n        /* \"Solidity_BD2/casaApuestas.sol\":8053:8094  carreras[_codCarrera].apuestas[direccion] */\n      0x00\n        /* \"Solidity_BD2/casaApuestas.sol\":8084:8093  direccion */\n      dup3\n        /* \"Solidity_BD2/casaApuestas.sol\":8053:8094  carreras[_codCarrera].apuestas[direccion] */\n      0xffffffffffffffffffffffffffffffffffffffff\n      and\n      0xffffffffffffffffffffffffffffffffffffffff\n      and\n      dup2\n      mstore\n      0x20\n      add\n      swap1\n      dup2\n      mstore\n      0x20\n      add\n      0x00\n      keccak256\n        /* \"Solidity_BD2/casaApuestas.sol\":8053:8100  carreras[_codCarrera].apuestas[direccion].monto */\n      0x00\n      add\n      sload\n        /* \"Solidity_BD2/casaApuestas.sol\":8029:8100  apostadoPorGanadores += carreras[_codCarrera].apuestas[direccion].monto */\n      dup4\n      add\n      swap3\n      pop\n        /* \"Solidity_BD2/casaApuestas.sol\":7902:8116  if (carreras[_codCarrera].apuestas[direccion].codCaballo == competencias[_codCarrera][indiceCaballoGanador]){\r... */\n    tag_133:\n        /* \"Solidity_BD2/casaApuestas.sol\":7623:8127  for (uint i = 0; i < apostadores[_codCarrera].length; i++) {  // Total de apostadores para esta carrera\r... */\n      pop\n        /* \"Solidity_BD2/casaApuestas.sol\":7677:7680  i++ */\n      dup1\n      dup1\n      0x01\n      add\n      swap2\n      pop\n      pop\n        /* \"Solidity_BD2/casaApuestas.sol\":7623:8127  for (uint i = 0; i < apostadores[_codCarrera].length; i++) {  // Total de apostadores para esta carrera\r... */\n      jump(tag_126)\n    tag_127:\n      pop\n        /* \"Solidity_BD2/casaApuestas.sol\":8169:8170  0 */\n      0x00\n        /* \"Solidity_BD2/casaApuestas.sol\":8145:8165  apostadoPorGanadores */\n      dup2\n        /* \"Solidity_BD2/casaApuestas.sol\":8145:8170  apostadoPorGanadores != 0 */\n      eq\n        /* \"Solidity_BD2/casaApuestas.sol\":8141:9368  if (apostadoPorGanadores != 0){\r... */\n      tag_134\n      jumpi\n        /* \"Solidity_BD2/casaApuestas.sol\":8254:8260  uint i */\n      0x00\n        /* \"Solidity_BD2/casaApuestas.sol\":8263:8264  0 */\n      dup1\n        /* \"Solidity_BD2/casaApuestas.sol\":8254:8264  uint i = 0 */\n      swap1\n      pop\n        /* \"Solidity_BD2/casaApuestas.sol\":8249:9200  for (uint i = 0; i < apostadores[_codCarrera].length; i++) {\r... */\n    tag_135:\n        /* \"Solidity_BD2/casaApuestas.sol\":8270:8281  apostadores */\n      0x05\n        /* \"Solidity_BD2/casaApuestas.sol\":8270:8294  apostadores[_codCarrera] */\n      0x00\n        /* \"Solidity_BD2/casaApuestas.sol\":8282:8293  _codCarrera */\n      dup9\n        /* \"Solidity_BD2/casaApuestas.sol\":8270:8294  apostadores[_codCarrera] */\n      dup2\n      mstore\n      0x20\n      add\n      swap1\n      dup2\n      mstore\n      0x20\n      add\n      0x00\n      keccak256\n        /* \"Solidity_BD2/casaApuestas.sol\":8270:8301  apostadores[_codCarrera].length */\n      dup1\n      sload\n      swap1\n      pop\n        /* \"Solidity_BD2/casaApuestas.sol\":8266:8267  i */\n      dup2\n        /* \"Solidity_BD2/casaApuestas.sol\":8266:8301  i < apostadores[_codCarrera].length */\n      lt\n        /* \"Solidity_BD2/casaApuestas.sol\":8249:9200  for (uint i = 0; i < apostadores[_codCarrera].length; i++) {\r... */\n      iszero\n      tag_136\n      jumpi\n        /* \"Solidity_BD2/casaApuestas.sol\":8327:8344  address direccion */\n      0x00\n        /* \"Solidity_BD2/casaApuestas.sol\":8347:8358  apostadores */\n      0x05\n        /* \"Solidity_BD2/casaApuestas.sol\":8347:8371  apostadores[_codCarrera] */\n      0x00\n        /* \"Solidity_BD2/casaApuestas.sol\":8359:8370  _codCarrera */\n      dup10\n        /* \"Solidity_BD2/casaApuestas.sol\":8347:8371  apostadores[_codCarrera] */\n      dup2\n      mstore\n      0x20\n      add\n      swap1\n      dup2\n      mstore\n      0x20\n      add\n      0x00\n      keccak256\n        /* \"Solidity_BD2/casaApuestas.sol\":8372:8373  i */\n      dup3\n        /* \"Solidity_BD2/casaApuestas.sol\":8347:8374  apostadores[_codCarrera][i] */\n      dup2\n      sload\n      dup2\n      lt\n      tag_138\n      jumpi\n      invalid\n    tag_138:\n      swap1\n      0x00\n      mstore\n      keccak256(0x00, 0x20)\n      add\n      0x00\n      swap1\n      sload\n      swap1\n      0x0100\n      exp\n      swap1\n      div\n      0xffffffffffffffffffffffffffffffffffffffff\n      and\n        /* \"Solidity_BD2/casaApuestas.sol\":8327:8374  address direccion = apostadores[_codCarrera][i] */\n      swap1\n      pop\n        /* \"Solidity_BD2/casaApuestas.sol\":8453:8465  competencias */\n      0x04\n        /* \"Solidity_BD2/casaApuestas.sol\":8453:8478  competencias[_codCarrera] */\n      0x00\n        /* \"Solidity_BD2/casaApuestas.sol\":8466:8477  _codCarrera */\n      dup10\n        /* \"Solidity_BD2/casaApuestas.sol\":8453:8478  competencias[_codCarrera] */\n      dup2\n      mstore\n      0x20\n      add\n      swap1\n      dup2\n      mstore\n      0x20\n      add\n      0x00\n      keccak256\n        /* \"Solidity_BD2/casaApuestas.sol\":8479:8499  indiceCaballoGanador */\n      dup5\n        /* \"Solidity_BD2/casaApuestas.sol\":8453:8500  competencias[_codCarrera][indiceCaballoGanador] */\n      dup2\n      sload\n      dup2\n      lt\n      tag_140\n      jumpi\n      invalid\n    tag_140:\n      swap1\n      0x00\n      mstore\n      keccak256(0x00, 0x20)\n      add\n      sload\n        /* \"Solidity_BD2/casaApuestas.sol\":8397:8405  carreras */\n      0x02\n        /* \"Solidity_BD2/casaApuestas.sol\":8397:8418  carreras[_codCarrera] */\n      0x00\n        /* \"Solidity_BD2/casaApuestas.sol\":8406:8417  _codCarrera */\n      dup11\n        /* \"Solidity_BD2/casaApuestas.sol\":8397:8418  carreras[_codCarrera] */\n      dup2\n      mstore\n      0x20\n      add\n      swap1\n      dup2\n      mstore\n      0x20\n      add\n      0x00\n      keccak256\n        /* \"Solidity_BD2/casaApuestas.sol\":8397:8427  carreras[_codCarrera].apuestas */\n      0x06\n      add\n        /* \"Solidity_BD2/casaApuestas.sol\":8397:8438  carreras[_codCarrera].apuestas[direccion] */\n      0x00\n        /* \"Solidity_BD2/casaApuestas.sol\":8428:8437  direccion */\n      dup4\n        /* \"Solidity_BD2/casaApuestas.sol\":8397:8438  carreras[_codCarrera].apuestas[direccion] */\n      0xffffffffffffffffffffffffffffffffffffffff\n      and\n      0xffffffffffffffffffffffffffffffffffffffff\n      and\n      dup2\n      mstore\n      0x20\n      add\n      swap1\n      dup2\n      mstore\n      0x20\n      add\n      0x00\n      keccak256\n        /* \"Solidity_BD2/casaApuestas.sol\":8397:8449  carreras[_codCarrera].apuestas[direccion].codCaballo */\n      0x01\n      add\n      sload\n        /* \"Solidity_BD2/casaApuestas.sol\":8397:8500  carreras[_codCarrera].apuestas[direccion].codCaballo == competencias[_codCarrera][indiceCaballoGanador] */\n      eq\n        /* \"Solidity_BD2/casaApuestas.sol\":8393:9185  if (carreras[_codCarrera].apuestas[direccion].codCaballo == competencias[_codCarrera][indiceCaballoGanador]){\r... */\n      iszero\n      tag_142\n      jumpi\n        /* \"Solidity_BD2/casaApuestas.sol\":8630:8650  apostadoPorGanadores */\n      dup3\n        /* \"Solidity_BD2/casaApuestas.sol\":8580:8588  carreras */\n      0x02\n        /* \"Solidity_BD2/casaApuestas.sol\":8580:8601  carreras[_codCarrera] */\n      0x00\n        /* \"Solidity_BD2/casaApuestas.sol\":8589:8600  _codCarrera */\n      dup11\n        /* \"Solidity_BD2/casaApuestas.sol\":8580:8601  carreras[_codCarrera] */\n      dup2\n      mstore\n      0x20\n      add\n      swap1\n      dup2\n      mstore\n      0x20\n      add\n      0x00\n      keccak256\n        /* \"Solidity_BD2/casaApuestas.sol\":8580:8610  carreras[_codCarrera].apuestas */\n      0x06\n      add\n        /* \"Solidity_BD2/casaApuestas.sol\":8580:8621  carreras[_codCarrera].apuestas[direccion] */\n      0x00\n        /* \"Solidity_BD2/casaApuestas.sol\":8611:8620  direccion */\n      dup4\n        /* \"Solidity_BD2/casaApuestas.sol\":8580:8621  carreras[_codCarrera].apuestas[direccion] */\n      0xffffffffffffffffffffffffffffffffffffffff\n      and\n      0xffffffffffffffffffffffffffffffffffffffff\n      and\n      dup2\n      mstore\n      0x20\n      add\n      swap1\n      dup2\n      mstore\n      0x20\n      add\n      0x00\n      keccak256\n        /* \"Solidity_BD2/casaApuestas.sol\":8580:8627  carreras[_codCarrera].apuestas[direccion].monto */\n      0x00\n      add\n      sload\n        /* \"Solidity_BD2/casaApuestas.sol\":8580:8650  carreras[_codCarrera].apuestas[direccion].monto / apostadoPorGanadores */\n      dup2\n      tag_143\n      jumpi\n      invalid\n    tag_143:\n      div\n        /* \"Solidity_BD2/casaApuestas.sol\":8524:8532  carreras */\n      0x02\n        /* \"Solidity_BD2/casaApuestas.sol\":8524:8545  carreras[_codCarrera] */\n      0x00\n        /* \"Solidity_BD2/casaApuestas.sol\":8533:8544  _codCarrera */\n      dup11\n        /* \"Solidity_BD2/casaApuestas.sol\":8524:8545  carreras[_codCarrera] */\n      dup2\n      mstore\n      0x20\n      add\n      swap1\n      dup2\n      mstore\n      0x20\n      add\n      0x00\n      keccak256\n        /* \"Solidity_BD2/casaApuestas.sol\":8524:8554  carreras[_codCarrera].apuestas */\n      0x06\n      add\n        /* \"Solidity_BD2/casaApuestas.sol\":8524:8565  carreras[_codCarrera].apuestas[direccion] */\n      0x00\n        /* \"Solidity_BD2/casaApuestas.sol\":8555:8564  direccion */\n      dup4\n        /* \"Solidity_BD2/casaApuestas.sol\":8524:8565  carreras[_codCarrera].apuestas[direccion] */\n      0xffffffffffffffffffffffffffffffffffffffff\n      and\n      0xffffffffffffffffffffffffffffffffffffffff\n      and\n      dup2\n      mstore\n      0x20\n      add\n      swap1\n      dup2\n      mstore\n      0x20\n      add\n      0x00\n      keccak256\n        /* \"Solidity_BD2/casaApuestas.sol\":8524:8576  carreras[_codCarrera].apuestas[direccion].proporcion */\n      0x03\n      add\n        /* \"Solidity_BD2/casaApuestas.sol\":8524:8651  carreras[_codCarrera].apuestas[direccion].proporcion = (carreras[_codCarrera].apuestas[direccion].monto / apostadoPorGanadores) */\n      dup2\n      swap1\n      sstore\n      pop\n        /* \"Solidity_BD2/casaApuestas.sol\":8725:8734  direccion */\n      dup1\n        /* \"Solidity_BD2/casaApuestas.sol\":8717:8744  payable(direccion).transfer */\n      0xffffffffffffffffffffffffffffffffffffffff\n      and\n        /* \"Solidity_BD2/casaApuestas.sol\":8717:8913  payable(direccion).transfer(((carreras[_codCarrera].apuestas[direccion].monto * 10000) / apostadoPorGanadores) * (carreras[_codCarrera].montoTotal - (carreras[_codCarrera].montoTotal / 4)) /10000) */\n      0x08fc\n        /* \"Solidity_BD2/casaApuestas.sol\":8907:8912  10000 */\n      0x2710\n        /* \"Solidity_BD2/casaApuestas.sol\":8902:8903  4 */\n      0x04\n        /* \"Solidity_BD2/casaApuestas.sol\":8867:8875  carreras */\n      0x02\n        /* \"Solidity_BD2/casaApuestas.sol\":8867:8888  carreras[_codCarrera] */\n      0x00\n        /* \"Solidity_BD2/casaApuestas.sol\":8876:8887  _codCarrera */\n      dup14\n        /* \"Solidity_BD2/casaApuestas.sol\":8867:8888  carreras[_codCarrera] */\n      dup2\n      mstore\n      0x20\n      add\n      swap1\n      dup2\n      mstore\n      0x20\n      add\n      0x00\n      keccak256\n        /* \"Solidity_BD2/casaApuestas.sol\":8867:8899  carreras[_codCarrera].montoTotal */\n      0x03\n      add\n      sload\n        /* \"Solidity_BD2/casaApuestas.sol\":8867:8903  carreras[_codCarrera].montoTotal / 4 */\n      dup2\n      tag_144\n      jumpi\n      invalid\n    tag_144:\n      div\n        /* \"Solidity_BD2/casaApuestas.sol\":8831:8839  carreras */\n      0x02\n        /* \"Solidity_BD2/casaApuestas.sol\":8831:8852  carreras[_codCarrera] */\n      0x00\n        /* \"Solidity_BD2/casaApuestas.sol\":8840:8851  _codCarrera */\n      dup14\n        /* \"Solidity_BD2/casaApuestas.sol\":8831:8852  carreras[_codCarrera] */\n      dup2\n      mstore\n      0x20\n      add\n      swap1\n      dup2\n      mstore\n      0x20\n      add\n      0x00\n      keccak256\n        /* \"Solidity_BD2/casaApuestas.sol\":8831:8863  carreras[_codCarrera].montoTotal */\n      0x03\n      add\n      sload\n        /* \"Solidity_BD2/casaApuestas.sol\":8831:8904  carreras[_codCarrera].montoTotal - (carreras[_codCarrera].montoTotal / 4) */\n      sub\n        /* \"Solidity_BD2/casaApuestas.sol\":8806:8826  apostadoPorGanadores */\n      dup7\n        /* \"Solidity_BD2/casaApuestas.sol\":8797:8802  10000 */\n      0x2710\n        /* \"Solidity_BD2/casaApuestas.sol\":8747:8755  carreras */\n      0x02\n        /* \"Solidity_BD2/casaApuestas.sol\":8747:8768  carreras[_codCarrera] */\n      0x00\n        /* \"Solidity_BD2/casaApuestas.sol\":8756:8767  _codCarrera */\n      dup16\n        /* \"Solidity_BD2/casaApuestas.sol\":8747:8768  carreras[_codCarrera] */\n      dup2\n      mstore\n      0x20\n      add\n      swap1\n      dup2\n      mstore\n      0x20\n      add\n      0x00\n      keccak256\n        /* \"Solidity_BD2/casaApuestas.sol\":8747:8777  carreras[_codCarrera].apuestas */\n      0x06\n      add\n        /* \"Solidity_BD2/casaApuestas.sol\":8747:8788  carreras[_codCarrera].apuestas[direccion] */\n      0x00\n        /* \"Solidity_BD2/casaApuestas.sol\":8778:8787  direccion */\n      dup9\n        /* \"Solidity_BD2/casaApuestas.sol\":8747:8788  carreras[_codCarrera].apuestas[direccion] */\n      0xffffffffffffffffffffffffffffffffffffffff\n      and\n      0xffffffffffffffffffffffffffffffffffffffff\n      and\n      dup2\n      mstore\n      0x20\n      add\n      swap1\n      dup2\n      mstore\n      0x20\n      add\n      0x00\n      keccak256\n        /* \"Solidity_BD2/casaApuestas.sol\":8747:8794  carreras[_codCarrera].apuestas[direccion].monto */\n      0x00\n      add\n      sload\n        /* \"Solidity_BD2/casaApuestas.sol\":8747:8802  carreras[_codCarrera].apuestas[direccion].monto * 10000 */\n      mul\n        /* \"Solidity_BD2/casaApuestas.sol\":8746:8826  (carreras[_codCarrera].apuestas[direccion].monto * 10000) / apostadoPorGanadores */\n      dup2\n      tag_145\n      jumpi\n      invalid\n    tag_145:\n      div\n        /* \"Solidity_BD2/casaApuestas.sol\":8745:8905  ((carreras[_codCarrera].apuestas[direccion].monto * 10000) / apostadoPorGanadores) * (carreras[_codCarrera].montoTotal - (carreras[_codCarrera].montoTotal / 4)) */\n      mul\n        /* \"Solidity_BD2/casaApuestas.sol\":8745:8912  ((carreras[_codCarrera].apuestas[direccion].monto * 10000) / apostadoPorGanadores) * (carreras[_codCarrera].montoTotal - (carreras[_codCarrera].montoTotal / 4)) /10000 */\n      dup2\n      tag_146\n      jumpi\n      invalid\n    tag_146:\n      div\n        /* \"Solidity_BD2/casaApuestas.sol\":8717:8913  payable(direccion).transfer(((carreras[_codCarrera].apuestas[direccion].monto * 10000) / apostadoPorGanadores) * (carreras[_codCarrera].montoTotal - (carreras[_codCarrera].montoTotal / 4)) /10000) */\n      swap1\n      dup2\n      iszero\n      mul\n      swap1\n      mload(0x40)\n      0x00\n      mload(0x40)\n      dup1\n      dup4\n      sub\n      dup2\n      dup6\n      dup9\n      dup9\n      call\n      swap4\n      pop\n      pop\n      pop\n      pop\n      iszero\n        /* \"--CODEGEN--\":8:17   */\n      dup1\n        /* \"--CODEGEN--\":5:7   */\n      iszero\n      tag_148\n      jumpi\n        /* \"--CODEGEN--\":45:61   */\n      returndatasize\n        /* \"--CODEGEN--\":42:43   */\n      0x00\n        /* \"--CODEGEN--\":39:40   */\n      dup1\n        /* \"--CODEGEN--\":24:62   */\n      returndatacopy\n        /* \"--CODEGEN--\":77:93   */\n      returndatasize\n        /* \"--CODEGEN--\":74:75   */\n      0x00\n        /* \"--CODEGEN--\":67:94   */\n      revert\n        /* \"--CODEGEN--\":5:7   */\n    tag_148:\n        /* \"Solidity_BD2/casaApuestas.sol\":8717:8913  payable(direccion).transfer(((carreras[_codCarrera].apuestas[direccion].monto * 10000) / apostadoPorGanadores) * (carreras[_codCarrera].montoTotal - (carreras[_codCarrera].montoTotal / 4)) /10000) */\n      pop\n        /* \"Solidity_BD2/casaApuestas.sol\":9160:9165  10000 */\n      0x2710\n        /* \"Solidity_BD2/casaApuestas.sol\":9155:9156  4 */\n      0x04\n        /* \"Solidity_BD2/casaApuestas.sol\":9120:9128  carreras */\n      0x02\n        /* \"Solidity_BD2/casaApuestas.sol\":9120:9141  carreras[_codCarrera] */\n      0x00\n        /* \"Solidity_BD2/casaApuestas.sol\":9129:9140  _codCarrera */\n      dup12\n        /* \"Solidity_BD2/casaApuestas.sol\":9120:9141  carreras[_codCarrera] */\n      dup2\n      mstore\n      0x20\n      add\n      swap1\n      dup2\n      mstore\n      0x20\n      add\n      0x00\n      keccak256\n        /* \"Solidity_BD2/casaApuestas.sol\":9120:9152  carreras[_codCarrera].montoTotal */\n      0x03\n      add\n      sload\n        /* \"Solidity_BD2/casaApuestas.sol\":9120:9156  carreras[_codCarrera].montoTotal / 4 */\n      dup2\n      tag_149\n      jumpi\n      invalid\n    tag_149:\n      div\n        /* \"Solidity_BD2/casaApuestas.sol\":9084:9092  carreras */\n      0x02\n        /* \"Solidity_BD2/casaApuestas.sol\":9084:9105  carreras[_codCarrera] */\n      0x00\n        /* \"Solidity_BD2/casaApuestas.sol\":9093:9104  _codCarrera */\n      dup12\n        /* \"Solidity_BD2/casaApuestas.sol\":9084:9105  carreras[_codCarrera] */\n      dup2\n      mstore\n      0x20\n      add\n      swap1\n      dup2\n      mstore\n      0x20\n      add\n      0x00\n      keccak256\n        /* \"Solidity_BD2/casaApuestas.sol\":9084:9116  carreras[_codCarrera].montoTotal */\n      0x03\n      add\n      sload\n        /* \"Solidity_BD2/casaApuestas.sol\":9084:9157  carreras[_codCarrera].montoTotal - (carreras[_codCarrera].montoTotal / 4) */\n      sub\n        /* \"Solidity_BD2/casaApuestas.sol\":9059:9079  apostadoPorGanadores */\n      dup5\n        /* \"Solidity_BD2/casaApuestas.sol\":9050:9055  10000 */\n      0x2710\n        /* \"Solidity_BD2/casaApuestas.sol\":9000:9008  carreras */\n      0x02\n        /* \"Solidity_BD2/casaApuestas.sol\":9000:9021  carreras[_codCarrera] */\n      0x00\n        /* \"Solidity_BD2/casaApuestas.sol\":9009:9020  _codCarrera */\n      dup14\n        /* \"Solidity_BD2/casaApuestas.sol\":9000:9021  carreras[_codCarrera] */\n      dup2\n      mstore\n      0x20\n      add\n      swap1\n      dup2\n      mstore\n      0x20\n      add\n      0x00\n      keccak256\n        /* \"Solidity_BD2/casaApuestas.sol\":9000:9030  carreras[_codCarrera].apuestas */\n      0x06\n      add\n        /* \"Solidity_BD2/casaApuestas.sol\":9000:9041  carreras[_codCarrera].apuestas[direccion] */\n      0x00\n        /* \"Solidity_BD2/casaApuestas.sol\":9031:9040  direccion */\n      dup7\n        /* \"Solidity_BD2/casaApuestas.sol\":9000:9041  carreras[_codCarrera].apuestas[direccion] */\n      0xffffffffffffffffffffffffffffffffffffffff\n      and\n      0xffffffffffffffffffffffffffffffffffffffff\n      and\n      dup2\n      mstore\n      0x20\n      add\n      swap1\n      dup2\n      mstore\n      0x20\n      add\n      0x00\n      keccak256\n        /* \"Solidity_BD2/casaApuestas.sol\":9000:9047  carreras[_codCarrera].apuestas[direccion].monto */\n      0x00\n      add\n      sload\n        /* \"Solidity_BD2/casaApuestas.sol\":9000:9055  carreras[_codCarrera].apuestas[direccion].monto * 10000 */\n      mul\n        /* \"Solidity_BD2/casaApuestas.sol\":8999:9079  (carreras[_codCarrera].apuestas[direccion].monto * 10000) / apostadoPorGanadores */\n      dup2\n      tag_150\n      jumpi\n      invalid\n    tag_150:\n      div\n        /* \"Solidity_BD2/casaApuestas.sol\":8998:9158  ((carreras[_codCarrera].apuestas[direccion].monto * 10000) / apostadoPorGanadores) * (carreras[_codCarrera].montoTotal - (carreras[_codCarrera].montoTotal / 4)) */\n      mul\n        /* \"Solidity_BD2/casaApuestas.sol\":8998:9165  ((carreras[_codCarrera].apuestas[direccion].monto * 10000) / apostadoPorGanadores) * (carreras[_codCarrera].montoTotal - (carreras[_codCarrera].montoTotal / 4)) /10000 */\n      dup2\n      tag_151\n      jumpi\n      invalid\n    tag_151:\n      div\n        /* \"Solidity_BD2/casaApuestas.sol\":8936:8944  carreras */\n      0x02\n        /* \"Solidity_BD2/casaApuestas.sol\":8936:8957  carreras[_codCarrera] */\n      0x00\n        /* \"Solidity_BD2/casaApuestas.sol\":8945:8956  _codCarrera */\n      dup11\n        /* \"Solidity_BD2/casaApuestas.sol\":8936:8957  carreras[_codCarrera] */\n      dup2\n      mstore\n      0x20\n      add\n      swap1\n      dup2\n      mstore\n      0x20\n      add\n      0x00\n      keccak256\n        /* \"Solidity_BD2/casaApuestas.sol\":8936:8966  carreras[_codCarrera].apuestas */\n      0x06\n      add\n        /* \"Solidity_BD2/casaApuestas.sol\":8936:8977  carreras[_codCarrera].apuestas[direccion] */\n      0x00\n        /* \"Solidity_BD2/casaApuestas.sol\":8967:8976  direccion */\n      dup4\n        /* \"Solidity_BD2/casaApuestas.sol\":8936:8977  carreras[_codCarrera].apuestas[direccion] */\n      0xffffffffffffffffffffffffffffffffffffffff\n      and\n      0xffffffffffffffffffffffffffffffffffffffff\n      and\n      dup2\n      mstore\n      0x20\n      add\n      swap1\n      dup2\n      mstore\n      0x20\n      add\n      0x00\n      keccak256\n        /* \"Solidity_BD2/casaApuestas.sol\":8936:8995  carreras[_codCarrera].apuestas[direccion].dineroTransferido */\n      0x04\n      add\n        /* \"Solidity_BD2/casaApuestas.sol\":8936:9165  carreras[_codCarrera].apuestas[direccion].dineroTransferido = ((carreras[_codCarrera].apuestas[direccion].monto * 10000) / apostadoPorGanadores) * (carreras[_codCarrera].montoTotal - (carreras[_codCarrera].montoTotal / 4)) /10000 */\n      dup2\n      swap1\n      sstore\n      pop\n        /* \"Solidity_BD2/casaApuestas.sol\":8393:9185  if (carreras[_codCarrera].apuestas[direccion].codCaballo == competencias[_codCarrera][indiceCaballoGanador]){\r... */\n    tag_142:\n        /* \"Solidity_BD2/casaApuestas.sol\":8249:9200  for (uint i = 0; i < apostadores[_codCarrera].length; i++) {\r... */\n      pop\n        /* \"Solidity_BD2/casaApuestas.sol\":8303:8306  i++ */\n      dup1\n      dup1\n      0x01\n      add\n      swap2\n      pop\n      pop\n        /* \"Solidity_BD2/casaApuestas.sol\":8249:9200  for (uint i = 0; i < apostadores[_codCarrera].length; i++) {\r... */\n      jump(tag_135)\n    tag_136:\n      pop\n        /* \"Solidity_BD2/casaApuestas.sol\":9215:9225  msg.sender */\n      caller\n        /* \"Solidity_BD2/casaApuestas.sol\":9215:9234  msg.sender.transfer */\n      0xffffffffffffffffffffffffffffffffffffffff\n      and\n        /* \"Solidity_BD2/casaApuestas.sol\":9215:9272  msg.sender.transfer(carreras[_codCarrera].montoTotal / 4) */\n      0x08fc\n        /* \"Solidity_BD2/casaApuestas.sol\":9270:9271  4 */\n      0x04\n        /* \"Solidity_BD2/casaApuestas.sol\":9235:9243  carreras */\n      0x02\n        /* \"Solidity_BD2/casaApuestas.sol\":9235:9256  carreras[_codCarrera] */\n      0x00\n        /* \"Solidity_BD2/casaApuestas.sol\":9244:9255  _codCarrera */\n      dup11\n        /* \"Solidity_BD2/casaApuestas.sol\":9235:9256  carreras[_codCarrera] */\n      dup2\n      mstore\n      0x20\n      add\n      swap1\n      dup2\n      mstore\n      0x20\n      add\n      0x00\n      keccak256\n        /* \"Solidity_BD2/casaApuestas.sol\":9235:9267  carreras[_codCarrera].montoTotal */\n      0x03\n      add\n      sload\n        /* \"Solidity_BD2/casaApuestas.sol\":9235:9271  carreras[_codCarrera].montoTotal / 4 */\n      dup2\n      tag_152\n      jumpi\n      invalid\n    tag_152:\n      div\n        /* \"Solidity_BD2/casaApuestas.sol\":9215:9272  msg.sender.transfer(carreras[_codCarrera].montoTotal / 4) */\n      swap1\n      dup2\n      iszero\n      mul\n      swap1\n      mload(0x40)\n      0x00\n      mload(0x40)\n      dup1\n      dup4\n      sub\n      dup2\n      dup6\n      dup9\n      dup9\n      call\n      swap4\n      pop\n      pop\n      pop\n      pop\n      iszero\n        /* \"--CODEGEN--\":8:17   */\n      dup1\n        /* \"--CODEGEN--\":5:7   */\n      iszero\n      tag_154\n      jumpi\n        /* \"--CODEGEN--\":45:61   */\n      returndatasize\n        /* \"--CODEGEN--\":42:43   */\n      0x00\n        /* \"--CODEGEN--\":39:40   */\n      dup1\n        /* \"--CODEGEN--\":24:62   */\n      returndatacopy\n        /* \"--CODEGEN--\":77:93   */\n      returndatasize\n        /* \"--CODEGEN--\":74:75   */\n      0x00\n        /* \"--CODEGEN--\":67:94   */\n      revert\n        /* \"--CODEGEN--\":5:7   */\n    tag_154:\n        /* \"Solidity_BD2/casaApuestas.sol\":9215:9272  msg.sender.transfer(carreras[_codCarrera].montoTotal / 4) */\n      pop\n        /* \"Solidity_BD2/casaApuestas.sol\":8141:9368  if (apostadoPorGanadores != 0){\r... */\n      jump(tag_155)\n    tag_134:\n        /* \"Solidity_BD2/casaApuestas.sol\":9303:9313  msg.sender */\n      caller\n        /* \"Solidity_BD2/casaApuestas.sol\":9303:9322  msg.sender.transfer */\n      0xffffffffffffffffffffffffffffffffffffffff\n      and\n        /* \"Solidity_BD2/casaApuestas.sol\":9303:9356  msg.sender.transfer(carreras[_codCarrera].montoTotal) */\n      0x08fc\n        /* \"Solidity_BD2/casaApuestas.sol\":9323:9331  carreras */\n      0x02\n        /* \"Solidity_BD2/casaApuestas.sol\":9323:9344  carreras[_codCarrera] */\n      0x00\n        /* \"Solidity_BD2/casaApuestas.sol\":9332:9343  _codCarrera */\n      dup10\n        /* \"Solidity_BD2/casaApuestas.sol\":9323:9344  carreras[_codCarrera] */\n      dup2\n      mstore\n      0x20\n      add\n      swap1\n      dup2\n      mstore\n      0x20\n      add\n      0x00\n      keccak256\n        /* \"Solidity_BD2/casaApuestas.sol\":9323:9355  carreras[_codCarrera].montoTotal */\n      0x03\n      add\n      sload\n        /* \"Solidity_BD2/casaApuestas.sol\":9303:9356  msg.sender.transfer(carreras[_codCarrera].montoTotal) */\n      swap1\n      dup2\n      iszero\n      mul\n      swap1\n      mload(0x40)\n      0x00\n      mload(0x40)\n      dup1\n      dup4\n      sub\n      dup2\n      dup6\n      dup9\n      dup9\n      call\n      swap4\n      pop\n      pop\n      pop\n      pop\n      iszero\n        /* \"--CODEGEN--\":8:17   */\n      dup1\n        /* \"--CODEGEN--\":5:7   */\n      iszero\n      tag_157\n      jumpi\n        /* \"--CODEGEN--\":45:61   */\n      returndatasize\n        /* \"--CODEGEN--\":42:43   */\n      0x00\n        /* \"--CODEGEN--\":39:40   */\n      dup1\n        /* \"--CODEGEN--\":24:62   */\n      returndatacopy\n        /* \"--CODEGEN--\":77:93   */\n      returndatasize\n        /* \"--CODEGEN--\":74:75   */\n      0x00\n        /* \"--CODEGEN--\":67:94   */\n      revert\n        /* \"--CODEGEN--\":5:7   */\n    tag_157:\n        /* \"Solidity_BD2/casaApuestas.sol\":9303:9356  msg.sender.transfer(carreras[_codCarrera].montoTotal) */\n      pop\n        /* \"Solidity_BD2/casaApuestas.sol\":8141:9368  if (apostadoPorGanadores != 0){\r... */\n    tag_155:\n        /* \"Solidity_BD2/casaApuestas.sol\":9416:9432  Estado.Terminada */\n      0x02\n        /* \"Solidity_BD2/casaApuestas.sol\":9378:9386  carreras */\n      dup1\n        /* \"Solidity_BD2/casaApuestas.sol\":9378:9399  carreras[_codCarrera] */\n      0x00\n        /* \"Solidity_BD2/casaApuestas.sol\":9387:9398  _codCarrera */\n      dup9\n        /* \"Solidity_BD2/casaApuestas.sol\":9378:9399  carreras[_codCarrera] */\n      dup2\n      mstore\n      0x20\n      add\n      swap1\n      dup2\n      mstore\n      0x20\n      add\n      0x00\n      keccak256\n        /* \"Solidity_BD2/casaApuestas.sol\":9378:9413  carreras[_codCarrera].estadoCarrera */\n      0x02\n      add\n      0x00\n        /* \"Solidity_BD2/casaApuestas.sol\":9378:9432  carreras[_codCarrera].estadoCarrera = Estado.Terminada */\n      0x0100\n      exp\n      dup2\n      sload\n      dup2\n      0xff\n      mul\n      not\n      and\n      swap1\n      dup4\n      0x02\n      dup2\n      gt\n      iszero\n      tag_158\n      jumpi\n      invalid\n    tag_158:\n      mul\n      or\n      swap1\n      sstore\n      pop\n        /* \"Solidity_BD2/casaApuestas.sol\":1850:1851  _ */\n      pop\n      pop\n        /* \"Solidity_BD2/casaApuestas.sol\":2644:2645  _ */\n      pop\n      pop\n        /* \"Solidity_BD2/casaApuestas.sol\":1376:1377  _ */\n      pop\n        /* \"Solidity_BD2/casaApuestas.sol\":7037:9440  function terminarCarrera(uint _codCarrera) payable public\r... */\n      pop\n      jump\t// out\n        /* \"Solidity_BD2/casaApuestas.sol\":9448:10434  function getCaballosEnCarrera(uint _codCarrera) public \r... */\n    tag_28:\n        /* \"Solidity_BD2/casaApuestas.sol\":9601:9614  string memory */\n      0x60\n        /* \"Solidity_BD2/casaApuestas.sol\":9523:9534  _codCarrera */\n      dup2\n        /* \"Solidity_BD2/casaApuestas.sol\":2597:2598  0 */\n      0x00\n        /* \"Solidity_BD2/casaApuestas.sol\":2557:2565  carreras */\n      0x02\n        /* \"Solidity_BD2/casaApuestas.sol\":2557:2578  carreras[_codCarrera] */\n      0x00\n        /* \"Solidity_BD2/casaApuestas.sol\":2566:2577  _codCarrera */\n      dup4\n        /* \"Solidity_BD2/casaApuestas.sol\":2557:2578  carreras[_codCarrera] */\n      dup2\n      mstore\n      0x20\n      add\n      swap1\n      dup2\n      mstore\n      0x20\n      add\n      0x00\n      keccak256\n        /* \"Solidity_BD2/casaApuestas.sol\":2557:2585  carreras[_codCarrera].nombre */\n      0x01\n      add\n        /* \"Solidity_BD2/casaApuestas.sol\":2551:2593  bytes(carreras[_codCarrera].nombre).length */\n      dup1\n      sload\n      0x01\n      dup2\n      0x01\n      and\n      iszero\n      0x0100\n      mul\n      sub\n      and\n      0x02\n      swap1\n      div\n      swap1\n      pop\n        /* \"Solidity_BD2/casaApuestas.sol\":2551:2598  bytes(carreras[_codCarrera].nombre).length != 0 */\n      eq\n      iszero\n        /* \"Solidity_BD2/casaApuestas.sol\":2543:2633  require(bytes(carreras[_codCarrera].nombre).length != 0, \"La carrera ingresada no existe\") */\n      tag_160\n      jumpi\n      mload(0x40)\n      0x08c379a000000000000000000000000000000000000000000000000000000000\n      dup2\n      mstore\n      0x04\n      add\n      dup1\n      dup1\n      0x20\n      add\n      dup3\n      dup2\n      sub\n      dup3\n      mstore\n      0x1e\n      dup2\n      mstore\n      0x20\n      add\n      dup1\n      0x4c61206361727265726120696e67726573616461206e6f206578697374650000\n      dup2\n      mstore\n      pop\n      0x20\n      add\n      swap2\n      pop\n      pop\n      mload(0x40)\n      dup1\n      swap2\n      sub\n      swap1\n      revert\n    tag_160:\n        /* \"Solidity_BD2/casaApuestas.sol\":9551:9562  _codCarrera */\n      dup3\n        /* \"Solidity_BD2/casaApuestas.sol\":9564:9581  Estado.Registrada */\n      0x01\n        /* \"Solidity_BD2/casaApuestas.sol\":1783:1790  _estado */\n      dup1\n        /* \"Solidity_BD2/casaApuestas.sol\":1744:1790  carreras[_codCarrera].estadoCarrera == _estado */\n      0x02\n      dup2\n      gt\n      iszero\n      tag_162\n      jumpi\n      invalid\n    tag_162:\n        /* \"Solidity_BD2/casaApuestas.sol\":1744:1752  carreras */\n      0x02\n        /* \"Solidity_BD2/casaApuestas.sol\":1744:1765  carreras[_codCarrera] */\n      0x00\n        /* \"Solidity_BD2/casaApuestas.sol\":1753:1764  _codCarrera */\n      dup5\n        /* \"Solidity_BD2/casaApuestas.sol\":1744:1765  carreras[_codCarrera] */\n      dup2\n      mstore\n      0x20\n      add\n      swap1\n      dup2\n      mstore\n      0x20\n      add\n      0x00\n      keccak256\n        /* \"Solidity_BD2/casaApuestas.sol\":1744:1779  carreras[_codCarrera].estadoCarrera */\n      0x02\n      add\n      0x00\n      swap1\n      sload\n      swap1\n      0x0100\n      exp\n      swap1\n      div\n      0xff\n      and\n        /* \"Solidity_BD2/casaApuestas.sol\":1744:1790  carreras[_codCarrera].estadoCarrera == _estado */\n      0x02\n      dup2\n      gt\n      iszero\n      tag_163\n      jumpi\n      invalid\n    tag_163:\n      eq\n        /* \"Solidity_BD2/casaApuestas.sol\":1736:1839  require(carreras[_codCarrera].estadoCarrera == _estado, \"La carrera no cumple con el estado requerido\") */\n      tag_164\n      jumpi\n      mload(0x40)\n      0x08c379a000000000000000000000000000000000000000000000000000000000\n      dup2\n      mstore\n      0x04\n      add\n      dup1\n      dup1\n      0x20\n      add\n      dup3\n      dup2\n      sub\n      dup3\n      mstore\n      0x2c\n      dup2\n      mstore\n      0x20\n      add\n      dup1\n      data_e91ca438e9e3f1e0e0a5b1a72a508ed5ae254b3cb59572817ac1ec6e2a488952\n      0x2c\n      swap2\n      codecopy\n      0x40\n      add\n      swap2\n      pop\n      pop\n      mload(0x40)\n      dup1\n      swap2\n      sub\n      swap1\n      revert\n    tag_164:\n        /* \"Solidity_BD2/casaApuestas.sol\":9627:9650  string memory respuesta */\n      0x60\n        /* \"Solidity_BD2/casaApuestas.sol\":9627:9679  string memory respuesta = \"Caballos en la carrera #\" */\n      mload(0x40)\n      dup1\n      0x40\n      add\n      0x40\n      mstore\n      dup1\n      0x18\n      dup2\n      mstore\n      0x20\n      add\n      0x436162616c6c6f7320656e206c61206361727265726120230000000000000000\n      dup2\n      mstore\n      pop\n      swap1\n      pop\n        /* \"Solidity_BD2/casaApuestas.sol\":9690:9703  bool contiene */\n      0x00\n        /* \"Solidity_BD2/casaApuestas.sol\":9706:9711  false */\n      dup1\n        /* \"Solidity_BD2/casaApuestas.sol\":9690:9711  bool contiene = false */\n      swap1\n      pop\n        /* \"Solidity_BD2/casaApuestas.sol\":9758:9767  respuesta */\n      dup2\n        /* \"Solidity_BD2/casaApuestas.sol\":9769:9790  uint2str(_codCarrera) */\n      tag_166\n        /* \"Solidity_BD2/casaApuestas.sol\":9778:9789  _codCarrera */\n      dup9\n        /* \"Solidity_BD2/casaApuestas.sol\":9769:9777  uint2str */\n      tag_167\n        /* \"Solidity_BD2/casaApuestas.sol\":9769:9790  uint2str(_codCarrera) */\n      jump\t// in\n    tag_166:\n        /* \"Solidity_BD2/casaApuestas.sol\":9741:9791  abi.encodePacked(respuesta, uint2str(_codCarrera)) */\n      add(0x20, mload(0x40))\n      dup1\n      dup4\n      dup1\n      mload\n      swap1\n      0x20\n      add\n      swap1\n      dup1\n      dup4\n      dup4\n        /* \"--CODEGEN--\":36:189   */\n    tag_168:\n        /* \"--CODEGEN--\":66:68   */\n      0x20\n        /* \"--CODEGEN--\":61:64   */\n      dup4\n        /* \"--CODEGEN--\":58:69   */\n      lt\n        /* \"--CODEGEN--\":36:189   */\n      tag_170\n      jumpi\n        /* \"--CODEGEN--\":182:185   */\n      dup1\n        /* \"--CODEGEN--\":176:186   */\n      mload\n        /* \"--CODEGEN--\":171:174   */\n      dup3\n        /* \"--CODEGEN--\":164:187   */\n      mstore\n        /* \"--CODEGEN--\":98:100   */\n      0x20\n        /* \"--CODEGEN--\":93:96   */\n      dup3\n        /* \"--CODEGEN--\":89:101   */\n      add\n        /* \"--CODEGEN--\":82:101   */\n      swap2\n      pop\n        /* \"--CODEGEN--\":123:125   */\n      0x20\n        /* \"--CODEGEN--\":118:121   */\n      dup2\n        /* \"--CODEGEN--\":114:126   */\n      add\n        /* \"--CODEGEN--\":107:126   */\n      swap1\n      pop\n        /* \"--CODEGEN--\":148:150   */\n      0x20\n        /* \"--CODEGEN--\":143:146   */\n      dup4\n        /* \"--CODEGEN--\":139:151   */\n      sub\n        /* \"--CODEGEN--\":132:151   */\n      swap3\n      pop\n        /* \"--CODEGEN--\":36:189   */\n      jump(tag_168)\n    tag_170:\n        /* \"--CODEGEN--\":274:275   */\n      0x01\n        /* \"--CODEGEN--\":267:270   */\n      dup4\n        /* \"--CODEGEN--\":263:265   */\n      0x20\n        /* \"--CODEGEN--\":259:271   */\n      sub\n        /* \"--CODEGEN--\":254:257   */\n      0x0100\n        /* \"--CODEGEN--\":250:272   */\n      exp\n        /* \"--CODEGEN--\":246:276   */\n      sub\n        /* \"--CODEGEN--\":315:319   */\n      dup1\n        /* \"--CODEGEN--\":311:320   */\n      not\n        /* \"--CODEGEN--\":305:308   */\n      dup3\n        /* \"--CODEGEN--\":299:309   */\n      mload\n        /* \"--CODEGEN--\":295:321   */\n      and\n        /* \"--CODEGEN--\":356:360   */\n      dup2\n        /* \"--CODEGEN--\":350:353   */\n      dup5\n        /* \"--CODEGEN--\":344:354   */\n      mload\n        /* \"--CODEGEN--\":340:361   */\n      and\n        /* \"--CODEGEN--\":389:396   */\n      dup1\n        /* \"--CODEGEN--\":380:387   */\n      dup3\n        /* \"--CODEGEN--\":377:397   */\n      or\n        /* \"--CODEGEN--\":372:375   */\n      dup6\n        /* \"--CODEGEN--\":365:398   */\n      mstore\n        /* \"--CODEGEN--\":3:402   */\n      pop\n      pop\n      pop\n        /* \"Solidity_BD2/casaApuestas.sol\":9741:9791  abi.encodePacked(respuesta, uint2str(_codCarrera)) */\n      pop\n      pop\n      pop\n      swap1\n      pop\n      add\n      dup3\n      dup1\n      mload\n      swap1\n      0x20\n      add\n      swap1\n      dup1\n      dup4\n      dup4\n        /* \"--CODEGEN--\":36:189   */\n    tag_171:\n        /* \"--CODEGEN--\":66:68   */\n      0x20\n        /* \"--CODEGEN--\":61:64   */\n      dup4\n        /* \"--CODEGEN--\":58:69   */\n      lt\n        /* \"--CODEGEN--\":36:189   */\n      tag_173\n      jumpi\n        /* \"--CODEGEN--\":182:185   */\n      dup1\n        /* \"--CODEGEN--\":176:186   */\n      mload\n        /* \"--CODEGEN--\":171:174   */\n      dup3\n        /* \"--CODEGEN--\":164:187   */\n      mstore\n        /* \"--CODEGEN--\":98:100   */\n      0x20\n        /* \"--CODEGEN--\":93:96   */\n      dup3\n        /* \"--CODEGEN--\":89:101   */\n      add\n        /* \"--CODEGEN--\":82:101   */\n      swap2\n      pop\n        /* \"--CODEGEN--\":123:125   */\n      0x20\n        /* \"--CODEGEN--\":118:121   */\n      dup2\n        /* \"--CODEGEN--\":114:126   */\n      add\n        /* \"--CODEGEN--\":107:126   */\n      swap1\n      pop\n        /* \"--CODEGEN--\":148:150   */\n      0x20\n        /* \"--CODEGEN--\":143:146   */\n      dup4\n        /* \"--CODEGEN--\":139:151   */\n      sub\n        /* \"--CODEGEN--\":132:151   */\n      swap3\n      pop\n        /* \"--CODEGEN--\":36:189   */\n      jump(tag_171)\n    tag_173:\n        /* \"--CODEGEN--\":274:275   */\n      0x01\n        /* \"--CODEGEN--\":267:270   */\n      dup4\n        /* \"--CODEGEN--\":263:265   */\n      0x20\n        /* \"--CODEGEN--\":259:271   */\n      sub\n        /* \"--CODEGEN--\":254:257   */\n      0x0100\n        /* \"--CODEGEN--\":250:272   */\n      exp\n        /* \"--CODEGEN--\":246:276   */\n      sub\n        /* \"--CODEGEN--\":315:319   */\n      dup1\n        /* \"--CODEGEN--\":311:320   */\n      not\n        /* \"--CODEGEN--\":305:308   */\n      dup3\n        /* \"--CODEGEN--\":299:309   */\n      mload\n        /* \"--CODEGEN--\":295:321   */\n      and\n        /* \"--CODEGEN--\":356:360   */\n      dup2\n        /* \"--CODEGEN--\":350:353   */\n      dup5\n        /* \"--CODEGEN--\":344:354   */\n      mload\n        /* \"--CODEGEN--\":340:361   */\n      and\n        /* \"--CODEGEN--\":389:396   */\n      dup1\n        /* \"--CODEGEN--\":380:387   */\n      dup3\n        /* \"--CODEGEN--\":377:397   */\n      or\n        /* \"--CODEGEN--\":372:375   */\n      dup6\n        /* \"--CODEGEN--\":365:398   */\n      mstore\n        /* \"--CODEGEN--\":3:402   */\n      pop\n      pop\n      pop\n        /* \"Solidity_BD2/casaApuestas.sol\":9741:9791  abi.encodePacked(respuesta, uint2str(_codCarrera)) */\n      pop\n      pop\n      pop\n      swap1\n      pop\n      add\n      swap3\n      pop\n      pop\n      pop\n      mload(0x40)\n        /* \"--CODEGEN--\":49:53   */\n      0x20\n        /* \"--CODEGEN--\":39:46   */\n      dup2\n        /* \"--CODEGEN--\":30:37   */\n      dup4\n        /* \"--CODEGEN--\":26:47   */\n      sub\n        /* \"--CODEGEN--\":22:54   */\n      sub\n        /* \"--CODEGEN--\":13:20   */\n      dup2\n        /* \"--CODEGEN--\":6:55   */\n      mstore\n        /* \"Solidity_BD2/casaApuestas.sol\":9741:9791  abi.encodePacked(respuesta, uint2str(_codCarrera)) */\n      swap1\n      0x40\n      mstore\n        /* \"Solidity_BD2/casaApuestas.sol\":9722:9792  respuesta = string(abi.encodePacked(respuesta, uint2str(_codCarrera))) */\n      swap2\n      pop\n        /* \"Solidity_BD2/casaApuestas.sol\":9839:9848  respuesta */\n      dup2\n        /* \"Solidity_BD2/casaApuestas.sol\":9822:9855  abi.encodePacked(respuesta, \": \") */\n      add(0x20, mload(0x40))\n      dup1\n      dup3\n      dup1\n      mload\n      swap1\n      0x20\n      add\n      swap1\n      dup1\n      dup4\n      dup4\n        /* \"--CODEGEN--\":36:189   */\n    tag_174:\n        /* \"--CODEGEN--\":66:68   */\n      0x20\n        /* \"--CODEGEN--\":61:64   */\n      dup4\n        /* \"--CODEGEN--\":58:69   */\n      lt\n        /* \"--CODEGEN--\":36:189   */\n      tag_176\n      jumpi\n        /* \"--CODEGEN--\":182:185   */\n      dup1\n        /* \"--CODEGEN--\":176:186   */\n      mload\n        /* \"--CODEGEN--\":171:174   */\n      dup3\n        /* \"--CODEGEN--\":164:187   */\n      mstore\n        /* \"--CODEGEN--\":98:100   */\n      0x20\n        /* \"--CODEGEN--\":93:96   */\n      dup3\n        /* \"--CODEGEN--\":89:101   */\n      add\n        /* \"--CODEGEN--\":82:101   */\n      swap2\n      pop\n        /* \"--CODEGEN--\":123:125   */\n      0x20\n        /* \"--CODEGEN--\":118:121   */\n      dup2\n        /* \"--CODEGEN--\":114:126   */\n      add\n        /* \"--CODEGEN--\":107:126   */\n      swap1\n      pop\n        /* \"--CODEGEN--\":148:150   */\n      0x20\n        /* \"--CODEGEN--\":143:146   */\n      dup4\n        /* \"--CODEGEN--\":139:151   */\n      sub\n        /* \"--CODEGEN--\":132:151   */\n      swap3\n      pop\n        /* \"--CODEGEN--\":36:189   */\n      jump(tag_174)\n    tag_176:\n        /* \"--CODEGEN--\":274:275   */\n      0x01\n        /* \"--CODEGEN--\":267:270   */\n      dup4\n        /* \"--CODEGEN--\":263:265   */\n      0x20\n        /* \"--CODEGEN--\":259:271   */\n      sub\n        /* \"--CODEGEN--\":254:257   */\n      0x0100\n        /* \"--CODEGEN--\":250:272   */\n      exp\n        /* \"--CODEGEN--\":246:276   */\n      sub\n        /* \"--CODEGEN--\":315:319   */\n      dup1\n        /* \"--CODEGEN--\":311:320   */\n      not\n        /* \"--CODEGEN--\":305:308   */\n      dup3\n        /* \"--CODEGEN--\":299:309   */\n      mload\n        /* \"--CODEGEN--\":295:321   */\n      and\n        /* \"--CODEGEN--\":356:360   */\n      dup2\n        /* \"--CODEGEN--\":350:353   */\n      dup5\n        /* \"--CODEGEN--\":344:354   */\n      mload\n        /* \"--CODEGEN--\":340:361   */\n      and\n        /* \"--CODEGEN--\":389:396   */\n      dup1\n        /* \"--CODEGEN--\":380:387   */\n      dup3\n        /* \"--CODEGEN--\":377:397   */\n      or\n        /* \"--CODEGEN--\":372:375   */\n      dup6\n        /* \"--CODEGEN--\":365:398   */\n      mstore\n        /* \"--CODEGEN--\":3:402   */\n      pop\n      pop\n      pop\n        /* \"Solidity_BD2/casaApuestas.sol\":9822:9855  abi.encodePacked(respuesta, \": \") */\n      pop\n      pop\n      pop\n      swap1\n      pop\n      add\n      dup1\n      0x3a20000000000000000000000000000000000000000000000000000000000000\n      dup2\n      mstore\n      pop\n      0x02\n      add\n      swap2\n      pop\n      pop\n      mload(0x40)\n        /* \"--CODEGEN--\":49:53   */\n      0x20\n        /* \"--CODEGEN--\":39:46   */\n      dup2\n        /* \"--CODEGEN--\":30:37   */\n      dup4\n        /* \"--CODEGEN--\":26:47   */\n      sub\n        /* \"--CODEGEN--\":22:54   */\n      sub\n        /* \"--CODEGEN--\":13:20   */\n      dup2\n        /* \"--CODEGEN--\":6:55   */\n      mstore\n        /* \"Solidity_BD2/casaApuestas.sol\":9822:9855  abi.encodePacked(respuesta, \": \") */\n      swap1\n      0x40\n      mstore\n        /* \"Solidity_BD2/casaApuestas.sol\":9803:9856  respuesta = string(abi.encodePacked(respuesta, \": \")) */\n      swap2\n      pop\n        /* \"Solidity_BD2/casaApuestas.sol\":9872:9878  uint i */\n      0x00\n        /* \"Solidity_BD2/casaApuestas.sol\":9881:9882  0 */\n      dup1\n        /* \"Solidity_BD2/casaApuestas.sol\":9872:9882  uint i = 0 */\n      swap1\n      pop\n        /* \"Solidity_BD2/casaApuestas.sol\":9867:10259  for (uint i = 0; i < competencias[_codCarrera].length; i++){\r... */\n    tag_177:\n        /* \"Solidity_BD2/casaApuestas.sol\":9888:9900  competencias */\n      0x04\n        /* \"Solidity_BD2/casaApuestas.sol\":9888:9913  competencias[_codCarrera] */\n      0x00\n        /* \"Solidity_BD2/casaApuestas.sol\":9901:9912  _codCarrera */\n      dup10\n        /* \"Solidity_BD2/casaApuestas.sol\":9888:9913  competencias[_codCarrera] */\n      dup2\n      mstore\n      0x20\n      add\n      swap1\n      dup2\n      mstore\n      0x20\n      add\n      0x00\n      keccak256\n        /* \"Solidity_BD2/casaApuestas.sol\":9888:9920  competencias[_codCarrera].length */\n      dup1\n      sload\n      swap1\n      pop\n        /* \"Solidity_BD2/casaApuestas.sol\":9884:9885  i */\n      dup2\n        /* \"Solidity_BD2/casaApuestas.sol\":9884:9920  i < competencias[_codCarrera].length */\n      lt\n        /* \"Solidity_BD2/casaApuestas.sol\":9867:10259  for (uint i = 0; i < competencias[_codCarrera].length; i++){\r... */\n      iszero\n      tag_178\n      jumpi\n        /* \"Solidity_BD2/casaApuestas.sol\":9952:9956  true */\n      0x01\n        /* \"Solidity_BD2/casaApuestas.sol\":9941:9956  contiene = true */\n      swap2\n      pop\n        /* \"Solidity_BD2/casaApuestas.sol\":10007:10016  respuesta */\n      dup3\n        /* \"Solidity_BD2/casaApuestas.sol\":10017:10055  uint2str(competencias[_codCarrera][i]) */\n      tag_180\n        /* \"Solidity_BD2/casaApuestas.sol\":10026:10038  competencias */\n      0x04\n        /* \"Solidity_BD2/casaApuestas.sol\":10026:10051  competencias[_codCarrera] */\n      0x00\n        /* \"Solidity_BD2/casaApuestas.sol\":10039:10050  _codCarrera */\n      dup12\n        /* \"Solidity_BD2/casaApuestas.sol\":10026:10051  competencias[_codCarrera] */\n      dup2\n      mstore\n      0x20\n      add\n      swap1\n      dup2\n      mstore\n      0x20\n      add\n      0x00\n      keccak256\n        /* \"Solidity_BD2/casaApuestas.sol\":10052:10053  i */\n      dup4\n        /* \"Solidity_BD2/casaApuestas.sol\":10026:10054  competencias[_codCarrera][i] */\n      dup2\n      sload\n      dup2\n      lt\n      tag_181\n      jumpi\n      invalid\n    tag_181:\n      swap1\n      0x00\n      mstore\n      keccak256(0x00, 0x20)\n      add\n      sload\n        /* \"Solidity_BD2/casaApuestas.sol\":10017:10025  uint2str */\n      tag_167\n        /* \"Solidity_BD2/casaApuestas.sol\":10017:10055  uint2str(competencias[_codCarrera][i]) */\n      jump\t// in\n    tag_180:\n        /* \"Solidity_BD2/casaApuestas.sol\":9990:10056  abi.encodePacked(respuesta,uint2str(competencias[_codCarrera][i])) */\n      add(0x20, mload(0x40))\n      dup1\n      dup4\n      dup1\n      mload\n      swap1\n      0x20\n      add\n      swap1\n      dup1\n      dup4\n      dup4\n        /* \"--CODEGEN--\":36:189   */\n    tag_183:\n        /* \"--CODEGEN--\":66:68   */\n      0x20\n        /* \"--CODEGEN--\":61:64   */\n      dup4\n        /* \"--CODEGEN--\":58:69   */\n      lt\n        /* \"--CODEGEN--\":36:189   */\n      tag_185\n      jumpi\n        /* \"--CODEGEN--\":182:185   */\n      dup1\n        /* \"--CODEGEN--\":176:186   */\n      mload\n        /* \"--CODEGEN--\":171:174   */\n      dup3\n        /* \"--CODEGEN--\":164:187   */\n      mstore\n        /* \"--CODEGEN--\":98:100   */\n      0x20\n        /* \"--CODEGEN--\":93:96   */\n      dup3\n        /* \"--CODEGEN--\":89:101   */\n      add\n        /* \"--CODEGEN--\":82:101   */\n      swap2\n      pop\n        /* \"--CODEGEN--\":123:125   */\n      0x20\n        /* \"--CODEGEN--\":118:121   */\n      dup2\n        /* \"--CODEGEN--\":114:126   */\n      add\n        /* \"--CODEGEN--\":107:126   */\n      swap1\n      pop\n        /* \"--CODEGEN--\":148:150   */\n      0x20\n        /* \"--CODEGEN--\":143:146   */\n      dup4\n        /* \"--CODEGEN--\":139:151   */\n      sub\n        /* \"--CODEGEN--\":132:151   */\n      swap3\n      pop\n        /* \"--CODEGEN--\":36:189   */\n      jump(tag_183)\n    tag_185:\n        /* \"--CODEGEN--\":274:275   */\n      0x01\n        /* \"--CODEGEN--\":267:270   */\n      dup4\n        /* \"--CODEGEN--\":263:265   */\n      0x20\n        /* \"--CODEGEN--\":259:271   */\n      sub\n        /* \"--CODEGEN--\":254:257   */\n      0x0100\n        /* \"--CODEGEN--\":250:272   */\n      exp\n        /* \"--CODEGEN--\":246:276   */\n      sub\n        /* \"--CODEGEN--\":315:319   */\n      dup1\n        /* \"--CODEGEN--\":311:320   */\n      not\n        /* \"--CODEGEN--\":305:308   */\n      dup3\n        /* \"--CODEGEN--\":299:309   */\n      mload\n        /* \"--CODEGEN--\":295:321   */\n      and\n        /* \"--CODEGEN--\":356:360   */\n      dup2\n        /* \"--CODEGEN--\":350:353   */\n      dup5\n        /* \"--CODEGEN--\":344:354   */\n      mload\n        /* \"--CODEGEN--\":340:361   */\n      and\n        /* \"--CODEGEN--\":389:396   */\n      dup1\n        /* \"--CODEGEN--\":380:387   */\n      dup3\n        /* \"--CODEGEN--\":377:397   */\n      or\n        /* \"--CODEGEN--\":372:375   */\n      dup6\n        /* \"--CODEGEN--\":365:398   */\n      mstore\n        /* \"--CODEGEN--\":3:402   */\n      pop\n      pop\n      pop\n        /* \"Solidity_BD2/casaApuestas.sol\":9990:10056  abi.encodePacked(respuesta,uint2str(competencias[_codCarrera][i])) */\n      pop\n      pop\n      pop\n      swap1\n      pop\n      add\n      dup3\n      dup1\n      mload\n      swap1\n      0x20\n      add\n      swap1\n      dup1\n      dup4\n      dup4\n        /* \"--CODEGEN--\":36:189   */\n    tag_186:\n        /* \"--CODEGEN--\":66:68   */\n      0x20\n        /* \"--CODEGEN--\":61:64   */\n      dup4\n        /* \"--CODEGEN--\":58:69   */\n      lt\n        /* \"--CODEGEN--\":36:189   */\n      tag_188\n      jumpi\n        /* \"--CODEGEN--\":182:185   */\n      dup1\n        /* \"--CODEGEN--\":176:186   */\n      mload\n        /* \"--CODEGEN--\":171:174   */\n      dup3\n        /* \"--CODEGEN--\":164:187   */\n      mstore\n        /* \"--CODEGEN--\":98:100   */\n      0x20\n        /* \"--CODEGEN--\":93:96   */\n      dup3\n        /* \"--CODEGEN--\":89:101   */\n      add\n        /* \"--CODEGEN--\":82:101   */\n      swap2\n      pop\n        /* \"--CODEGEN--\":123:125   */\n      0x20\n        /* \"--CODEGEN--\":118:121   */\n      dup2\n        /* \"--CODEGEN--\":114:126   */\n      add\n        /* \"--CODEGEN--\":107:126   */\n      swap1\n      pop\n        /* \"--CODEGEN--\":148:150   */\n      0x20\n        /* \"--CODEGEN--\":143:146   */\n      dup4\n        /* \"--CODEGEN--\":139:151   */\n      sub\n        /* \"--CODEGEN--\":132:151   */\n      swap3\n      pop\n        /* \"--CODEGEN--\":36:189   */\n      jump(tag_186)\n    tag_188:\n        /* \"--CODEGEN--\":274:275   */\n      0x01\n        /* \"--CODEGEN--\":267:270   */\n      dup4\n        /* \"--CODEGEN--\":263:265   */\n      0x20\n        /* \"--CODEGEN--\":259:271   */\n      sub\n        /* \"--CODEGEN--\":254:257   */\n      0x0100\n        /* \"--CODEGEN--\":250:272   */\n      exp\n        /* \"--CODEGEN--\":246:276   */\n      sub\n        /* \"--CODEGEN--\":315:319   */\n      dup1\n        /* \"--CODEGEN--\":311:320   */\n      not\n        /* \"--CODEGEN--\":305:308   */\n      dup3\n        /* \"--CODEGEN--\":299:309   */\n      mload\n        /* \"--CODEGEN--\":295:321   */\n      and\n        /* \"--CODEGEN--\":356:360   */\n      dup2\n        /* \"--CODEGEN--\":350:353   */\n      dup5\n        /* \"--CODEGEN--\":344:354   */\n      mload\n        /* \"--CODEGEN--\":340:361   */\n      and\n        /* \"--CODEGEN--\":389:396   */\n      dup1\n        /* \"--CODEGEN--\":380:387   */\n      dup3\n        /* \"--CODEGEN--\":377:397   */\n      or\n        /* \"--CODEGEN--\":372:375   */\n      dup6\n        /* \"--CODEGEN--\":365:398   */\n      mstore\n        /* \"--CODEGEN--\":3:402   */\n      pop\n      pop\n      pop\n        /* \"Solidity_BD2/casaApuestas.sol\":9990:10056  abi.encodePacked(respuesta,uint2str(competencias[_codCarrera][i])) */\n      pop\n      pop\n      pop\n      swap1\n      pop\n      add\n      swap3\n      pop\n      pop\n      pop\n      mload(0x40)\n        /* \"--CODEGEN--\":49:53   */\n      0x20\n        /* \"--CODEGEN--\":39:46   */\n      dup2\n        /* \"--CODEGEN--\":30:37   */\n      dup4\n        /* \"--CODEGEN--\":26:47   */\n      sub\n        /* \"--CODEGEN--\":22:54   */\n      sub\n        /* \"--CODEGEN--\":13:20   */\n      dup2\n        /* \"--CODEGEN--\":6:55   */\n      mstore\n        /* \"Solidity_BD2/casaApuestas.sol\":9990:10056  abi.encodePacked(respuesta,uint2str(competencias[_codCarrera][i])) */\n      swap1\n      0x40\n      mstore\n        /* \"Solidity_BD2/casaApuestas.sol\":9971:10057  respuesta = string(abi.encodePacked(respuesta,uint2str(competencias[_codCarrera][i]))) */\n      swap3\n      pop\n        /* \"Solidity_BD2/casaApuestas.sol\":10114:10115  1 */\n      0x01\n        /* \"Solidity_BD2/casaApuestas.sol\":10081:10093  competencias */\n      0x04\n        /* \"Solidity_BD2/casaApuestas.sol\":10081:10106  competencias[_codCarrera] */\n      0x00\n        /* \"Solidity_BD2/casaApuestas.sol\":10094:10105  _codCarrera */\n      dup11\n        /* \"Solidity_BD2/casaApuestas.sol\":10081:10106  competencias[_codCarrera] */\n      dup2\n      mstore\n      0x20\n      add\n      swap1\n      dup2\n      mstore\n      0x20\n      add\n      0x00\n      keccak256\n        /* \"Solidity_BD2/casaApuestas.sol\":10081:10113  competencias[_codCarrera].length */\n      dup1\n      sload\n      swap1\n      pop\n        /* \"Solidity_BD2/casaApuestas.sol\":10081:10115  competencias[_codCarrera].length-1 */\n      sub\n        /* \"Solidity_BD2/casaApuestas.sol\":10076:10077  i */\n      dup2\n        /* \"Solidity_BD2/casaApuestas.sol\":10076:10115  i != competencias[_codCarrera].length-1 */\n      eq\n        /* \"Solidity_BD2/casaApuestas.sol\":10072:10248  if (i != competencias[_codCarrera].length-1){\r... */\n      tag_189\n      jumpi\n        /* \"Solidity_BD2/casaApuestas.sol\":10171:10180  respuesta */\n      dup3\n        /* \"Solidity_BD2/casaApuestas.sol\":10154:10187  abi.encodePacked(respuesta,\" - \") */\n      add(0x20, mload(0x40))\n      dup1\n      dup3\n      dup1\n      mload\n      swap1\n      0x20\n      add\n      swap1\n      dup1\n      dup4\n      dup4\n        /* \"--CODEGEN--\":36:189   */\n    tag_190:\n        /* \"--CODEGEN--\":66:68   */\n      0x20\n        /* \"--CODEGEN--\":61:64   */\n      dup4\n        /* \"--CODEGEN--\":58:69   */\n      lt\n        /* \"--CODEGEN--\":36:189   */\n      tag_192\n      jumpi\n        /* \"--CODEGEN--\":182:185   */\n      dup1\n        /* \"--CODEGEN--\":176:186   */\n      mload\n        /* \"--CODEGEN--\":171:174   */\n      dup3\n        /* \"--CODEGEN--\":164:187   */\n      mstore\n        /* \"--CODEGEN--\":98:100   */\n      0x20\n        /* \"--CODEGEN--\":93:96   */\n      dup3\n        /* \"--CODEGEN--\":89:101   */\n      add\n        /* \"--CODEGEN--\":82:101   */\n      swap2\n      pop\n        /* \"--CODEGEN--\":123:125   */\n      0x20\n        /* \"--CODEGEN--\":118:121   */\n      dup2\n        /* \"--CODEGEN--\":114:126   */\n      add\n        /* \"--CODEGEN--\":107:126   */\n      swap1\n      pop\n        /* \"--CODEGEN--\":148:150   */\n      0x20\n        /* \"--CODEGEN--\":143:146   */\n      dup4\n        /* \"--CODEGEN--\":139:151   */\n      sub\n        /* \"--CODEGEN--\":132:151   */\n      swap3\n      pop\n        /* \"--CODEGEN--\":36:189   */\n      jump(tag_190)\n    tag_192:\n        /* \"--CODEGEN--\":274:275   */\n      0x01\n        /* \"--CODEGEN--\":267:270   */\n      dup4\n        /* \"--CODEGEN--\":263:265   */\n      0x20\n        /* \"--CODEGEN--\":259:271   */\n      sub\n        /* \"--CODEGEN--\":254:257   */\n      0x0100\n        /* \"--CODEGEN--\":250:272   */\n      exp\n        /* \"--CODEGEN--\":246:276   */\n      sub\n        /* \"--CODEGEN--\":315:319   */\n      dup1\n        /* \"--CODEGEN--\":311:320   */\n      not\n        /* \"--CODEGEN--\":305:308   */\n      dup3\n        /* \"--CODEGEN--\":299:309   */\n      mload\n        /* \"--CODEGEN--\":295:321   */\n      and\n        /* \"--CODEGEN--\":356:360   */\n      dup2\n        /* \"--CODEGEN--\":350:353   */\n      dup5\n        /* \"--CODEGEN--\":344:354   */\n      mload\n        /* \"--CODEGEN--\":340:361   */\n      and\n        /* \"--CODEGEN--\":389:396   */\n      dup1\n        /* \"--CODEGEN--\":380:387   */\n      dup3\n        /* \"--CODEGEN--\":377:397   */\n      or\n        /* \"--CODEGEN--\":372:375   */\n      dup6\n        /* \"--CODEGEN--\":365:398   */\n      mstore\n        /* \"--CODEGEN--\":3:402   */\n      pop\n      pop\n      pop\n        /* \"Solidity_BD2/casaApuestas.sol\":10154:10187  abi.encodePacked(respuesta,\" - \") */\n      pop\n      pop\n      pop\n      swap1\n      pop\n      add\n      dup1\n      0x202d200000000000000000000000000000000000000000000000000000000000\n      dup2\n      mstore\n      pop\n      0x03\n      add\n      swap2\n      pop\n      pop\n      mload(0x40)\n        /* \"--CODEGEN--\":49:53   */\n      0x20\n        /* \"--CODEGEN--\":39:46   */\n      dup2\n        /* \"--CODEGEN--\":30:37   */\n      dup4\n        /* \"--CODEGEN--\":26:47   */\n      sub\n        /* \"--CODEGEN--\":22:54   */\n      sub\n        /* \"--CODEGEN--\":13:20   */\n      dup2\n        /* \"--CODEGEN--\":6:55   */\n      mstore\n        /* \"Solidity_BD2/casaApuestas.sol\":10154:10187  abi.encodePacked(respuesta,\" - \") */\n      swap1\n      0x40\n      mstore\n        /* \"Solidity_BD2/casaApuestas.sol\":10135:10188  respuesta = string(abi.encodePacked(respuesta,\" - \")) */\n      swap3\n      pop\n        /* \"Solidity_BD2/casaApuestas.sol\":10072:10248  if (i != competencias[_codCarrera].length-1){\r... */\n      jump(tag_193)\n    tag_189:\n        /* \"Solidity_BD2/casaApuestas.sol\":10227:10232  break */\n      jump(tag_178)\n        /* \"Solidity_BD2/casaApuestas.sol\":10072:10248  if (i != competencias[_codCarrera].length-1){\r... */\n    tag_193:\n        /* \"Solidity_BD2/casaApuestas.sol\":9922:9925  i++ */\n      dup1\n      dup1\n      0x01\n      add\n      swap2\n      pop\n      pop\n        /* \"Solidity_BD2/casaApuestas.sol\":9867:10259  for (uint i = 0; i < competencias[_codCarrera].length; i++){\r... */\n      jump(tag_177)\n    tag_178:\n      pop\n        /* \"Solidity_BD2/casaApuestas.sol\":10274:10282  contiene */\n      dup1\n        /* \"Solidity_BD2/casaApuestas.sol\":10269:10398  if (!contiene){\r... */\n      tag_194\n      jumpi\n        /* \"Solidity_BD2/casaApuestas.sol\":10334:10343  respuesta */\n      dup2\n        /* \"Solidity_BD2/casaApuestas.sol\":10317:10385  abi.encodePacked(respuesta,\"La carrera ingresada no tiene caballos\") */\n      add(0x20, mload(0x40))\n      dup1\n      dup3\n      dup1\n      mload\n      swap1\n      0x20\n      add\n      swap1\n      dup1\n      dup4\n      dup4\n        /* \"--CODEGEN--\":36:189   */\n    tag_195:\n        /* \"--CODEGEN--\":66:68   */\n      0x20\n        /* \"--CODEGEN--\":61:64   */\n      dup4\n        /* \"--CODEGEN--\":58:69   */\n      lt\n        /* \"--CODEGEN--\":36:189   */\n      tag_197\n      jumpi\n        /* \"--CODEGEN--\":182:185   */\n      dup1\n        /* \"--CODEGEN--\":176:186   */\n      mload\n        /* \"--CODEGEN--\":171:174   */\n      dup3\n        /* \"--CODEGEN--\":164:187   */\n      mstore\n        /* \"--CODEGEN--\":98:100   */\n      0x20\n        /* \"--CODEGEN--\":93:96   */\n      dup3\n        /* \"--CODEGEN--\":89:101   */\n      add\n        /* \"--CODEGEN--\":82:101   */\n      swap2\n      pop\n        /* \"--CODEGEN--\":123:125   */\n      0x20\n        /* \"--CODEGEN--\":118:121   */\n      dup2\n        /* \"--CODEGEN--\":114:126   */\n      add\n        /* \"--CODEGEN--\":107:126   */\n      swap1\n      pop\n        /* \"--CODEGEN--\":148:150   */\n      0x20\n        /* \"--CODEGEN--\":143:146   */\n      dup4\n        /* \"--CODEGEN--\":139:151   */\n      sub\n        /* \"--CODEGEN--\":132:151   */\n      swap3\n      pop\n        /* \"--CODEGEN--\":36:189   */\n      jump(tag_195)\n    tag_197:\n        /* \"--CODEGEN--\":274:275   */\n      0x01\n        /* \"--CODEGEN--\":267:270   */\n      dup4\n        /* \"--CODEGEN--\":263:265   */\n      0x20\n        /* \"--CODEGEN--\":259:271   */\n      sub\n        /* \"--CODEGEN--\":254:257   */\n      0x0100\n        /* \"--CODEGEN--\":250:272   */\n      exp\n        /* \"--CODEGEN--\":246:276   */\n      sub\n        /* \"--CODEGEN--\":315:319   */\n      dup1\n        /* \"--CODEGEN--\":311:320   */\n      not\n        /* \"--CODEGEN--\":305:308   */\n      dup3\n        /* \"--CODEGEN--\":299:309   */\n      mload\n        /* \"--CODEGEN--\":295:321   */\n      and\n        /* \"--CODEGEN--\":356:360   */\n      dup2\n        /* \"--CODEGEN--\":350:353   */\n      dup5\n        /* \"--CODEGEN--\":344:354   */\n      mload\n        /* \"--CODEGEN--\":340:361   */\n      and\n        /* \"--CODEGEN--\":389:396   */\n      dup1\n        /* \"--CODEGEN--\":380:387   */\n      dup3\n        /* \"--CODEGEN--\":377:397   */\n      or\n        /* \"--CODEGEN--\":372:375   */\n      dup6\n        /* \"--CODEGEN--\":365:398   */\n      mstore\n        /* \"--CODEGEN--\":3:402   */\n      pop\n      pop\n      pop\n        /* \"Solidity_BD2/casaApuestas.sol\":10317:10385  abi.encodePacked(respuesta,\"La carrera ingresada no tiene caballos\") */\n      pop\n      pop\n      pop\n      swap1\n      pop\n      add\n      dup1\n      data_68cf97aa6bcebf4d7421b6bca309a0adc441ed0fc23124d3a38219dec5dbd40b\n      0x26\n      swap2\n      codecopy\n      0x26\n      add\n      swap2\n      pop\n      pop\n      mload(0x40)\n        /* \"--CODEGEN--\":49:53   */\n      0x20\n        /* \"--CODEGEN--\":39:46   */\n      dup2\n        /* \"--CODEGEN--\":30:37   */\n      dup4\n        /* \"--CODEGEN--\":26:47   */\n      sub\n        /* \"--CODEGEN--\":22:54   */\n      sub\n        /* \"--CODEGEN--\":13:20   */\n      dup2\n        /* \"--CODEGEN--\":6:55   */\n      mstore\n        /* \"Solidity_BD2/casaApuestas.sol\":10317:10385  abi.encodePacked(respuesta,\"La carrera ingresada no tiene caballos\") */\n      swap1\n      0x40\n      mstore\n        /* \"Solidity_BD2/casaApuestas.sol\":10298:10386  respuesta = string(abi.encodePacked(respuesta,\"La carrera ingresada no tiene caballos\")) */\n      swap2\n      pop\n        /* \"Solidity_BD2/casaApuestas.sol\":10269:10398  if (!contiene){\r... */\n    tag_194:\n        /* \"Solidity_BD2/casaApuestas.sol\":10416:10425  respuesta */\n      dup2\n        /* \"Solidity_BD2/casaApuestas.sol\":10408:10426  return (respuesta) */\n      swap6\n      pop\n      pop\n      pop\n        /* \"Solidity_BD2/casaApuestas.sol\":2644:2645  _ */\n      pop\n      pop\n        /* \"Solidity_BD2/casaApuestas.sol\":9448:10434  function getCaballosEnCarrera(uint _codCarrera) public \r... */\n      pop\n      swap2\n      swap1\n      pop\n      jump\t// out\n        /* \"Solidity_BD2/casaApuestas.sol\":4911:5297  function registrarEnCarrera(uint _codCaballo, uint _codCarrera) public \r... */\n    tag_36:\n        /* \"Solidity_BD2/casaApuestas.sol\":1317:1326  anfitrion */\n      0x00\n      dup1\n      swap1\n      sload\n      swap1\n      0x0100\n      exp\n      swap1\n      div\n      0xffffffffffffffffffffffffffffffffffffffff\n      and\n        /* \"Solidity_BD2/casaApuestas.sol\":1303:1326  msg.sender == anfitrion */\n      0xffffffffffffffffffffffffffffffffffffffff\n      and\n        /* \"Solidity_BD2/casaApuestas.sol\":1303:1313  msg.sender */\n      caller\n        /* \"Solidity_BD2/casaApuestas.sol\":1303:1326  msg.sender == anfitrion */\n      0xffffffffffffffffffffffffffffffffffffffff\n      and\n      eq\n        /* \"Solidity_BD2/casaApuestas.sol\":1295:1365  require(msg.sender == anfitrion, \"El invocador debe ser el anfitrion\") */\n      tag_199\n      jumpi\n      mload(0x40)\n      0x08c379a000000000000000000000000000000000000000000000000000000000\n      dup2\n      mstore\n      0x04\n      add\n      dup1\n      dup1\n      0x20\n      add\n      dup3\n      dup2\n      sub\n      dup3\n      mstore\n      0x22\n      dup2\n      mstore\n      0x20\n      add\n      dup1\n      data_445dd79b894b98a34a1cc7c38a5bd2de2e19478d6390b1e445457362fd7001d8\n      0x22\n      swap2\n      codecopy\n      0x40\n      add\n      swap2\n      pop\n      pop\n      mload(0x40)\n      dup1\n      swap2\n      sub\n      swap1\n      revert\n    tag_199:\n        /* \"Solidity_BD2/casaApuestas.sol\":5015:5026  _codCarrera */\n      dup1\n        /* \"Solidity_BD2/casaApuestas.sol\":5028:5041  Estado.Creada */\n      0x00\n        /* \"Solidity_BD2/casaApuestas.sol\":1783:1790  _estado */\n      dup1\n        /* \"Solidity_BD2/casaApuestas.sol\":1744:1790  carreras[_codCarrera].estadoCarrera == _estado */\n      0x02\n      dup2\n      gt\n      iszero\n      tag_201\n      jumpi\n      invalid\n    tag_201:\n        /* \"Solidity_BD2/casaApuestas.sol\":1744:1752  carreras */\n      0x02\n        /* \"Solidity_BD2/casaApuestas.sol\":1744:1765  carreras[_codCarrera] */\n      0x00\n        /* \"Solidity_BD2/casaApuestas.sol\":1753:1764  _codCarrera */\n      dup5\n        /* \"Solidity_BD2/casaApuestas.sol\":1744:1765  carreras[_codCarrera] */\n      dup2\n      mstore\n      0x20\n      add\n      swap1\n      dup2\n      mstore\n      0x20\n      add\n      0x00\n      keccak256\n        /* \"Solidity_BD2/casaApuestas.sol\":1744:1779  carreras[_codCarrera].estadoCarrera */\n      0x02\n      add\n      0x00\n      swap1\n      sload\n      swap1\n      0x0100\n      exp\n      swap1\n      div\n      0xff\n      and\n        /* \"Solidity_BD2/casaApuestas.sol\":1744:1790  carreras[_codCarrera].estadoCarrera == _estado */\n      0x02\n      dup2\n      gt\n      iszero\n      tag_202\n      jumpi\n      invalid\n    tag_202:\n      eq\n        /* \"Solidity_BD2/casaApuestas.sol\":1736:1839  require(carreras[_codCarrera].estadoCarrera == _estado, \"La carrera no cumple con el estado requerido\") */\n      tag_203\n      jumpi\n      mload(0x40)\n      0x08c379a000000000000000000000000000000000000000000000000000000000\n      dup2\n      mstore\n      0x04\n      add\n      dup1\n      dup1\n      0x20\n      add\n      dup3\n      dup2\n      sub\n      dup3\n      mstore\n      0x2c\n      dup2\n      mstore\n      0x20\n      add\n      dup1\n      data_e91ca438e9e3f1e0e0a5b1a72a508ed5ae254b3cb59572817ac1ec6e2a488952\n      0x2c\n      swap2\n      codecopy\n      0x40\n      add\n      swap2\n      pop\n      pop\n      mload(0x40)\n      dup1\n      swap2\n      sub\n      swap1\n      revert\n    tag_203:\n        /* \"Solidity_BD2/casaApuestas.sol\":5058:5069  _codCarrera */\n      dup3\n        /* \"Solidity_BD2/casaApuestas.sol\":2014:2015  5 */\n      0x05\n        /* \"Solidity_BD2/casaApuestas.sol\":1979:1991  competencias */\n      0x04\n        /* \"Solidity_BD2/casaApuestas.sol\":1979:2004  competencias[_codCarrera] */\n      0x00\n        /* \"Solidity_BD2/casaApuestas.sol\":1992:2003  _codCarrera */\n      dup4\n        /* \"Solidity_BD2/casaApuestas.sol\":1979:2004  competencias[_codCarrera] */\n      dup2\n      mstore\n      0x20\n      add\n      swap1\n      dup2\n      mstore\n      0x20\n      add\n      0x00\n      keccak256\n        /* \"Solidity_BD2/casaApuestas.sol\":1979:2011  competencias[_codCarrera].length */\n      dup1\n      sload\n      swap1\n      pop\n        /* \"Solidity_BD2/casaApuestas.sol\":1979:2015  competencias[_codCarrera].length < 5 */\n      lt\n        /* \"Solidity_BD2/casaApuestas.sol\":1971:2055  require(competencias[_codCarrera].length < 5, \"La carrera ya cuenta con 5 caballos\") */\n      tag_205\n      jumpi\n      mload(0x40)\n      0x08c379a000000000000000000000000000000000000000000000000000000000\n      dup2\n      mstore\n      0x04\n      add\n      dup1\n      dup1\n      0x20\n      add\n      dup3\n      dup2\n      sub\n      dup3\n      mstore\n      0x23\n      dup2\n      mstore\n      0x20\n      add\n      dup1\n      data_48cf4ac7fcb22fd30a2178e5656f2b40afd30f2764f5b3cd17a43f9dd083aee5\n      0x23\n      swap2\n      codecopy\n      0x40\n      add\n      swap2\n      pop\n      pop\n      mload(0x40)\n      dup1\n      swap2\n      sub\n      swap1\n      revert\n    tag_205:\n        /* \"Solidity_BD2/casaApuestas.sol\":5090:5101  _codCaballo */\n      dup5\n        /* \"Solidity_BD2/casaApuestas.sol\":2428:2429  0 */\n      0x00\n        /* \"Solidity_BD2/casaApuestas.sol\":2388:2396  caballos */\n      0x03\n        /* \"Solidity_BD2/casaApuestas.sol\":2388:2409  caballos[_codCaballo] */\n      0x00\n        /* \"Solidity_BD2/casaApuestas.sol\":2397:2408  _codCaballo */\n      dup4\n        /* \"Solidity_BD2/casaApuestas.sol\":2388:2409  caballos[_codCaballo] */\n      dup2\n      mstore\n      0x20\n      add\n      swap1\n      dup2\n      mstore\n      0x20\n      add\n      0x00\n      keccak256\n        /* \"Solidity_BD2/casaApuestas.sol\":2388:2416  caballos[_codCaballo].nombre */\n      0x01\n      add\n        /* \"Solidity_BD2/casaApuestas.sol\":2382:2424  bytes(caballos[_codCaballo].nombre).length */\n      dup1\n      sload\n      0x01\n      dup2\n      0x01\n      and\n      iszero\n      0x0100\n      mul\n      sub\n      and\n      0x02\n      swap1\n      div\n      swap1\n      pop\n        /* \"Solidity_BD2/casaApuestas.sol\":2382:2429  bytes(caballos[_codCaballo].nombre).length != 0 */\n      eq\n      iszero\n        /* \"Solidity_BD2/casaApuestas.sol\":2374:2464  require(bytes(caballos[_codCaballo].nombre).length != 0, \"El caballo ingresado no existe\") */\n      tag_207\n      jumpi\n      mload(0x40)\n      0x08c379a000000000000000000000000000000000000000000000000000000000\n      dup2\n      mstore\n      0x04\n      add\n      dup1\n      dup1\n      0x20\n      add\n      dup3\n      dup2\n      sub\n      dup3\n      mstore\n      0x1e\n      dup2\n      mstore\n      0x20\n      add\n      dup1\n      0x456c20636162616c6c6f20696e6772657361646f206e6f206578697374650000\n      dup2\n      mstore\n      pop\n      0x20\n      add\n      swap2\n      pop\n      pop\n      mload(0x40)\n      dup1\n      swap2\n      sub\n      swap1\n      revert\n    tag_207:\n        /* \"Solidity_BD2/casaApuestas.sol\":5122:5133  _codCarrera */\n      dup5\n        /* \"Solidity_BD2/casaApuestas.sol\":2597:2598  0 */\n      0x00\n        /* \"Solidity_BD2/casaApuestas.sol\":2557:2565  carreras */\n      0x02\n        /* \"Solidity_BD2/casaApuestas.sol\":2557:2578  carreras[_codCarrera] */\n      0x00\n        /* \"Solidity_BD2/casaApuestas.sol\":2566:2577  _codCarrera */\n      dup4\n        /* \"Solidity_BD2/casaApuestas.sol\":2557:2578  carreras[_codCarrera] */\n      dup2\n      mstore\n      0x20\n      add\n      swap1\n      dup2\n      mstore\n      0x20\n      add\n      0x00\n      keccak256\n        /* \"Solidity_BD2/casaApuestas.sol\":2557:2585  carreras[_codCarrera].nombre */\n      0x01\n      add\n        /* \"Solidity_BD2/casaApuestas.sol\":2551:2593  bytes(carreras[_codCarrera].nombre).length */\n      dup1\n      sload\n      0x01\n      dup2\n      0x01\n      and\n      iszero\n      0x0100\n      mul\n      sub\n      and\n      0x02\n      swap1\n      div\n      swap1\n      pop\n        /* \"Solidity_BD2/casaApuestas.sol\":2551:2598  bytes(carreras[_codCarrera].nombre).length != 0 */\n      eq\n      iszero\n        /* \"Solidity_BD2/casaApuestas.sol\":2543:2633  require(bytes(carreras[_codCarrera].nombre).length != 0, \"La carrera ingresada no existe\") */\n      tag_209\n      jumpi\n      mload(0x40)\n      0x08c379a000000000000000000000000000000000000000000000000000000000\n      dup2\n      mstore\n      0x04\n      add\n      dup1\n      dup1\n      0x20\n      add\n      dup3\n      dup2\n      sub\n      dup3\n      mstore\n      0x1e\n      dup2\n      mstore\n      0x20\n      add\n      dup1\n      0x4c61206361727265726120696e67726573616461206e6f206578697374650000\n      dup2\n      mstore\n      pop\n      0x20\n      add\n      swap2\n      pop\n      pop\n      mload(0x40)\n      dup1\n      swap2\n      sub\n      swap1\n      revert\n    tag_209:\n        /* \"Solidity_BD2/casaApuestas.sol\":5158:5169  _codCarrera */\n      dup6\n        /* \"Solidity_BD2/casaApuestas.sol\":5171:5182  _codCaballo */\n      dup8\n        /* \"Solidity_BD2/casaApuestas.sol\":3175:3192  uint cantCaballos */\n      0x00\n        /* \"Solidity_BD2/casaApuestas.sol\":3195:3207  competencias */\n      0x04\n        /* \"Solidity_BD2/casaApuestas.sol\":3195:3220  competencias[_codCarrera] */\n      0x00\n        /* \"Solidity_BD2/casaApuestas.sol\":3208:3219  _codCarrera */\n      dup5\n        /* \"Solidity_BD2/casaApuestas.sol\":3195:3220  competencias[_codCarrera] */\n      dup2\n      mstore\n      0x20\n      add\n      swap1\n      dup2\n      mstore\n      0x20\n      add\n      0x00\n      keccak256\n        /* \"Solidity_BD2/casaApuestas.sol\":3195:3227  competencias[_codCarrera].length */\n      dup1\n      sload\n      swap1\n      pop\n        /* \"Solidity_BD2/casaApuestas.sol\":3175:3227  uint cantCaballos = competencias[_codCarrera].length */\n      swap1\n      pop\n        /* \"Solidity_BD2/casaApuestas.sol\":3238:3253  bool caballoRep */\n      0x00\n        /* \"Solidity_BD2/casaApuestas.sol\":3256:3261  false */\n      dup1\n        /* \"Solidity_BD2/casaApuestas.sol\":3238:3261  bool caballoRep = false */\n      swap1\n      pop\n        /* \"Solidity_BD2/casaApuestas.sol\":3276:3282  uint i */\n      0x00\n        /* \"Solidity_BD2/casaApuestas.sol\":3285:3286  0 */\n      dup1\n        /* \"Solidity_BD2/casaApuestas.sol\":3276:3286  uint i = 0 */\n      swap1\n      pop\n        /* \"Solidity_BD2/casaApuestas.sol\":3272:3459  for(uint i = 0; i < cantCaballos; i++){\r... */\n    tag_211:\n        /* \"Solidity_BD2/casaApuestas.sol\":3292:3304  cantCaballos */\n      dup3\n        /* \"Solidity_BD2/casaApuestas.sol\":3288:3289  i */\n      dup2\n        /* \"Solidity_BD2/casaApuestas.sol\":3288:3304  i < cantCaballos */\n      lt\n        /* \"Solidity_BD2/casaApuestas.sol\":3272:3459  for(uint i = 0; i < cantCaballos; i++){\r... */\n      iszero\n      tag_212\n      jumpi\n        /* \"Solidity_BD2/casaApuestas.sol\":3360:3371  _codCaballo */\n      dup4\n        /* \"Solidity_BD2/casaApuestas.sol\":3328:3340  competencias */\n      0x04\n        /* \"Solidity_BD2/casaApuestas.sol\":3328:3353  competencias[_codCarrera] */\n      0x00\n        /* \"Solidity_BD2/casaApuestas.sol\":3341:3352  _codCarrera */\n      dup8\n        /* \"Solidity_BD2/casaApuestas.sol\":3328:3353  competencias[_codCarrera] */\n      dup2\n      mstore\n      0x20\n      add\n      swap1\n      dup2\n      mstore\n      0x20\n      add\n      0x00\n      keccak256\n        /* \"Solidity_BD2/casaApuestas.sol\":3354:3355  i */\n      dup3\n        /* \"Solidity_BD2/casaApuestas.sol\":3328:3356  competencias[_codCarrera][i] */\n      dup2\n      sload\n      dup2\n      lt\n      tag_214\n      jumpi\n      invalid\n    tag_214:\n      swap1\n      0x00\n      mstore\n      keccak256(0x00, 0x20)\n      add\n      sload\n        /* \"Solidity_BD2/casaApuestas.sol\":3328:3371  competencias[_codCarrera][i] == _codCaballo */\n      eq\n        /* \"Solidity_BD2/casaApuestas.sol\":3325:3448  if(competencias[_codCarrera][i] == _codCaballo){\r... */\n      iszero\n      tag_216\n      jumpi\n        /* \"Solidity_BD2/casaApuestas.sol\":3404:3408  true */\n      0x01\n        /* \"Solidity_BD2/casaApuestas.sol\":3391:3408  caballoRep = true */\n      swap2\n      pop\n        /* \"Solidity_BD2/casaApuestas.sol\":3427:3432  break */\n      jump(tag_212)\n        /* \"Solidity_BD2/casaApuestas.sol\":3325:3448  if(competencias[_codCarrera][i] == _codCaballo){\r... */\n    tag_216:\n        /* \"Solidity_BD2/casaApuestas.sol\":3306:3309  i++ */\n      dup1\n      dup1\n      0x01\n      add\n      swap2\n      pop\n      pop\n        /* \"Solidity_BD2/casaApuestas.sol\":3272:3459  for(uint i = 0; i < cantCaballos; i++){\r... */\n      jump(tag_211)\n    tag_212:\n      pop\n        /* \"Solidity_BD2/casaApuestas.sol\":3478:3488  caballoRep */\n      dup1\n        /* \"Solidity_BD2/casaApuestas.sol\":3477:3488  !caballoRep */\n      iszero\n        /* \"Solidity_BD2/casaApuestas.sol\":3469:3548  require(!caballoRep, \"Este caballo ya se encuentra registrado en esta carrera\") */\n      tag_217\n      jumpi\n      mload(0x40)\n      0x08c379a000000000000000000000000000000000000000000000000000000000\n      dup2\n      mstore\n      0x04\n      add\n      dup1\n      dup1\n      0x20\n      add\n      dup3\n      dup2\n      sub\n      dup3\n      mstore\n      0x37\n      dup2\n      mstore\n      0x20\n      add\n      dup1\n      data_dd2593dc49389a3dc12e11d6acb11a1c405e488c123ae730810838cacb526339\n      0x37\n      swap2\n      codecopy\n      0x40\n      add\n      swap2\n      pop\n      pop\n      mload(0x40)\n      dup1\n      swap2\n      sub\n      swap1\n      revert\n    tag_217:\n        /* \"Solidity_BD2/casaApuestas.sol\":5194:5206  competencias */\n      0x04\n        /* \"Solidity_BD2/casaApuestas.sol\":5194:5219  competencias[_codCarrera] */\n      0x00\n        /* \"Solidity_BD2/casaApuestas.sol\":5207:5218  _codCarrera */\n      dup12\n        /* \"Solidity_BD2/casaApuestas.sol\":5194:5219  competencias[_codCarrera] */\n      dup2\n      mstore\n      0x20\n      add\n      swap1\n      dup2\n      mstore\n      0x20\n      add\n      0x00\n      keccak256\n        /* \"Solidity_BD2/casaApuestas.sol\":5225:5236  _codCaballo */\n      dup12\n        /* \"Solidity_BD2/casaApuestas.sol\":5194:5237  competencias[_codCarrera].push(_codCaballo) */\n      swap1\n      dup1\n        /* \"--CODEGEN--\":39:40   */\n      0x01\n        /* \"--CODEGEN--\":33:36   */\n      dup2\n        /* \"--CODEGEN--\":27:37   */\n      sload\n        /* \"--CODEGEN--\":23:41   */\n      add\n        /* \"--CODEGEN--\":57:67   */\n      dup1\n        /* \"--CODEGEN--\":52:55   */\n      dup3\n        /* \"--CODEGEN--\":45:68   */\n      sstore\n        /* \"--CODEGEN--\":79:89   */\n      dup1\n        /* \"--CODEGEN--\":72:89   */\n      swap2\n      pop\n        /* \"--CODEGEN--\":0:93   */\n      pop\n        /* \"Solidity_BD2/casaApuestas.sol\":5194:5237  competencias[_codCarrera].push(_codCaballo) */\n      0x01\n      swap1\n      sub\n      swap1\n      0x00\n      mstore\n      keccak256(0x00, 0x20)\n      add\n      0x00\n      swap1\n      swap2\n      swap1\n      swap2\n      swap1\n      swap2\n      pop\n      sstore\n        /* \"Solidity_BD2/casaApuestas.sol\":5288:5289  1 */\n      0x01\n        /* \"Solidity_BD2/casaApuestas.sol\":5248:5256  carreras */\n      0x02\n        /* \"Solidity_BD2/casaApuestas.sol\":5248:5269  carreras[_codCarrera] */\n      0x00\n        /* \"Solidity_BD2/casaApuestas.sol\":5257:5268  _codCarrera */\n      dup13\n        /* \"Solidity_BD2/casaApuestas.sol\":5248:5269  carreras[_codCarrera] */\n      dup2\n      mstore\n      0x20\n      add\n      swap1\n      dup2\n      mstore\n      0x20\n      add\n      0x00\n      keccak256\n        /* \"Solidity_BD2/casaApuestas.sol\":5248:5284  carreras[_codCarrera].numeroCaballos */\n      0x04\n      add\n      0x00\n        /* \"Solidity_BD2/casaApuestas.sol\":5248:5289  carreras[_codCarrera].numeroCaballos += 1 */\n      dup3\n      dup3\n      sload\n      add\n      swap3\n      pop\n      pop\n      dup2\n      swap1\n      sstore\n      pop\n        /* \"Solidity_BD2/casaApuestas.sol\":2644:2645  _ */\n      pop\n      pop\n      pop\n      pop\n        /* \"Solidity_BD2/casaApuestas.sol\":2475:2476  _ */\n      pop\n        /* \"Solidity_BD2/casaApuestas.sol\":2066:2067  _ */\n      pop\n        /* \"Solidity_BD2/casaApuestas.sol\":1850:1851  _ */\n      pop\n        /* \"Solidity_BD2/casaApuestas.sol\":1376:1377  _ */\n      pop\n      pop\n        /* \"Solidity_BD2/casaApuestas.sol\":4911:5297  function registrarEnCarrera(uint _codCaballo, uint _codCarrera) public \r... */\n      pop\n      pop\n      jump\t// out\n        /* \"Solidity_BD2/casaApuestas.sol\":10442:11675  function getApostadorGanador(uint _codCarrera) public \r... */\n    tag_40:\n        /* \"Solidity_BD2/casaApuestas.sol\":10627:10640  string memory */\n      0x60\n        /* \"Solidity_BD2/casaApuestas.sol\":10516:10527  _codCarrera */\n      dup2\n        /* \"Solidity_BD2/casaApuestas.sol\":2597:2598  0 */\n      0x00\n        /* \"Solidity_BD2/casaApuestas.sol\":2557:2565  carreras */\n      0x02\n        /* \"Solidity_BD2/casaApuestas.sol\":2557:2578  carreras[_codCarrera] */\n      0x00\n        /* \"Solidity_BD2/casaApuestas.sol\":2566:2577  _codCarrera */\n      dup4\n        /* \"Solidity_BD2/casaApuestas.sol\":2557:2578  carreras[_codCarrera] */\n      dup2\n      mstore\n      0x20\n      add\n      swap1\n      dup2\n      mstore\n      0x20\n      add\n      0x00\n      keccak256\n        /* \"Solidity_BD2/casaApuestas.sol\":2557:2585  carreras[_codCarrera].nombre */\n      0x01\n      add\n        /* \"Solidity_BD2/casaApuestas.sol\":2551:2593  bytes(carreras[_codCarrera].nombre).length */\n      dup1\n      sload\n      0x01\n      dup2\n      0x01\n      and\n      iszero\n      0x0100\n      mul\n      sub\n      and\n      0x02\n      swap1\n      div\n      swap1\n      pop\n        /* \"Solidity_BD2/casaApuestas.sol\":2551:2598  bytes(carreras[_codCarrera].nombre).length != 0 */\n      eq\n      iszero\n        /* \"Solidity_BD2/casaApuestas.sol\":2543:2633  require(bytes(carreras[_codCarrera].nombre).length != 0, \"La carrera ingresada no existe\") */\n      tag_221\n      jumpi\n      mload(0x40)\n      0x08c379a000000000000000000000000000000000000000000000000000000000\n      dup2\n      mstore\n      0x04\n      add\n      dup1\n      dup1\n      0x20\n      add\n      dup3\n      dup2\n      sub\n      dup3\n      mstore\n      0x1e\n      dup2\n      mstore\n      0x20\n      add\n      dup1\n      0x4c61206361727265726120696e67726573616461206e6f206578697374650000\n      dup2\n      mstore\n      pop\n      0x20\n      add\n      swap2\n      pop\n      pop\n      mload(0x40)\n      dup1\n      swap2\n      sub\n      swap1\n      revert\n    tag_221:\n        /* \"Solidity_BD2/casaApuestas.sol\":10544:10555  _codCarrera */\n      dup3\n        /* \"Solidity_BD2/casaApuestas.sol\":10557:10573  Estado.Terminada */\n      0x02\n        /* \"Solidity_BD2/casaApuestas.sol\":1783:1790  _estado */\n      dup1\n        /* \"Solidity_BD2/casaApuestas.sol\":1744:1790  carreras[_codCarrera].estadoCarrera == _estado */\n      0x02\n      dup2\n      gt\n      iszero\n      tag_223\n      jumpi\n      invalid\n    tag_223:\n        /* \"Solidity_BD2/casaApuestas.sol\":1744:1752  carreras */\n      0x02\n        /* \"Solidity_BD2/casaApuestas.sol\":1744:1765  carreras[_codCarrera] */\n      0x00\n        /* \"Solidity_BD2/casaApuestas.sol\":1753:1764  _codCarrera */\n      dup5\n        /* \"Solidity_BD2/casaApuestas.sol\":1744:1765  carreras[_codCarrera] */\n      dup2\n      mstore\n      0x20\n      add\n      swap1\n      dup2\n      mstore\n      0x20\n      add\n      0x00\n      keccak256\n        /* \"Solidity_BD2/casaApuestas.sol\":1744:1779  carreras[_codCarrera].estadoCarrera */\n      0x02\n      add\n      0x00\n      swap1\n      sload\n      swap1\n      0x0100\n      exp\n      swap1\n      div\n      0xff\n      and\n        /* \"Solidity_BD2/casaApuestas.sol\":1744:1790  carreras[_codCarrera].estadoCarrera == _estado */\n      0x02\n      dup2\n      gt\n      iszero\n      tag_224\n      jumpi\n      invalid\n    tag_224:\n      eq\n        /* \"Solidity_BD2/casaApuestas.sol\":1736:1839  require(carreras[_codCarrera].estadoCarrera == _estado, \"La carrera no cumple con el estado requerido\") */\n      tag_225\n      jumpi\n      mload(0x40)\n      0x08c379a000000000000000000000000000000000000000000000000000000000\n      dup2\n      mstore\n      0x04\n      add\n      dup1\n      dup1\n      0x20\n      add\n      dup3\n      dup2\n      sub\n      dup3\n      mstore\n      0x2c\n      dup2\n      mstore\n      0x20\n      add\n      dup1\n      data_e91ca438e9e3f1e0e0a5b1a72a508ed5ae254b3cb59572817ac1ec6e2a488952\n      0x2c\n      swap2\n      codecopy\n      0x40\n      add\n      swap2\n      pop\n      pop\n      mload(0x40)\n      dup1\n      swap2\n      sub\n      swap1\n      revert\n    tag_225:\n        /* \"Solidity_BD2/casaApuestas.sol\":10596:10607  _codCarrera */\n      dup5\n        /* \"Solidity_BD2/casaApuestas.sol\":4368:4369  0 */\n      0x00\n        /* \"Solidity_BD2/casaApuestas.sol\":4334:4345  apostadores */\n      0x05\n        /* \"Solidity_BD2/casaApuestas.sol\":4334:4358  apostadores[_codCarrera] */\n      0x00\n        /* \"Solidity_BD2/casaApuestas.sol\":4346:4357  _codCarrera */\n      dup4\n        /* \"Solidity_BD2/casaApuestas.sol\":4334:4358  apostadores[_codCarrera] */\n      dup2\n      mstore\n      0x20\n      add\n      swap1\n      dup2\n      mstore\n      0x20\n      add\n      0x00\n      keccak256\n        /* \"Solidity_BD2/casaApuestas.sol\":4334:4365  apostadores[_codCarrera].length */\n      dup1\n      sload\n      swap1\n      pop\n        /* \"Solidity_BD2/casaApuestas.sol\":4334:4369  apostadores[_codCarrera].length > 0 */\n      gt\n        /* \"Solidity_BD2/casaApuestas.sol\":4326:4415  require(apostadores[_codCarrera].length > 0, \"La carrera ingresada no tiene apostadores\") */\n      tag_227\n      jumpi\n      mload(0x40)\n      0x08c379a000000000000000000000000000000000000000000000000000000000\n      dup2\n      mstore\n      0x04\n      add\n      dup1\n      dup1\n      0x20\n      add\n      dup3\n      dup2\n      sub\n      dup3\n      mstore\n      0x29\n      dup2\n      mstore\n      0x20\n      add\n      dup1\n      data_90d24e0daaf5dcc457b4940b4ca16d8fd57765162f8ffee460d8a22da7c775e1\n      0x29\n      swap2\n      codecopy\n      0x40\n      add\n      swap2\n      pop\n      pop\n      mload(0x40)\n      dup1\n      swap2\n      sub\n      swap1\n      revert\n    tag_227:\n        /* \"Solidity_BD2/casaApuestas.sol\":10652:10675  string memory respuesta */\n      0x60\n        /* \"Solidity_BD2/casaApuestas.sol\":10652:10705  string memory respuesta = \"Ganadores en la carrera #\" */\n      mload(0x40)\n      dup1\n      0x40\n      add\n      0x40\n      mstore\n      dup1\n      0x19\n      dup2\n      mstore\n      0x20\n      add\n      0x47616e61646f72657320656e206c612063617272657261202300000000000000\n      dup2\n      mstore\n      pop\n      swap1\n      pop\n        /* \"Solidity_BD2/casaApuestas.sol\":10716:10729  bool contiene */\n      0x00\n        /* \"Solidity_BD2/casaApuestas.sol\":10732:10737  false */\n      dup1\n        /* \"Solidity_BD2/casaApuestas.sol\":10716:10737  bool contiene = false */\n      swap1\n      pop\n        /* \"Solidity_BD2/casaApuestas.sol\":10784:10793  respuesta */\n      dup2\n        /* \"Solidity_BD2/casaApuestas.sol\":10795:10816  uint2str(_codCarrera) */\n      tag_229\n        /* \"Solidity_BD2/casaApuestas.sol\":10804:10815  _codCarrera */\n      dup10\n        /* \"Solidity_BD2/casaApuestas.sol\":10795:10803  uint2str */\n      tag_167\n        /* \"Solidity_BD2/casaApuestas.sol\":10795:10816  uint2str(_codCarrera) */\n      jump\t// in\n    tag_229:\n        /* \"Solidity_BD2/casaApuestas.sol\":10767:10817  abi.encodePacked(respuesta, uint2str(_codCarrera)) */\n      add(0x20, mload(0x40))\n      dup1\n      dup4\n      dup1\n      mload\n      swap1\n      0x20\n      add\n      swap1\n      dup1\n      dup4\n      dup4\n        /* \"--CODEGEN--\":36:189   */\n    tag_230:\n        /* \"--CODEGEN--\":66:68   */\n      0x20\n        /* \"--CODEGEN--\":61:64   */\n      dup4\n        /* \"--CODEGEN--\":58:69   */\n      lt\n        /* \"--CODEGEN--\":36:189   */\n      tag_232\n      jumpi\n        /* \"--CODEGEN--\":182:185   */\n      dup1\n        /* \"--CODEGEN--\":176:186   */\n      mload\n        /* \"--CODEGEN--\":171:174   */\n      dup3\n        /* \"--CODEGEN--\":164:187   */\n      mstore\n        /* \"--CODEGEN--\":98:100   */\n      0x20\n        /* \"--CODEGEN--\":93:96   */\n      dup3\n        /* \"--CODEGEN--\":89:101   */\n      add\n        /* \"--CODEGEN--\":82:101   */\n      swap2\n      pop\n        /* \"--CODEGEN--\":123:125   */\n      0x20\n        /* \"--CODEGEN--\":118:121   */\n      dup2\n        /* \"--CODEGEN--\":114:126   */\n      add\n        /* \"--CODEGEN--\":107:126   */\n      swap1\n      pop\n        /* \"--CODEGEN--\":148:150   */\n      0x20\n        /* \"--CODEGEN--\":143:146   */\n      dup4\n        /* \"--CODEGEN--\":139:151   */\n      sub\n        /* \"--CODEGEN--\":132:151   */\n      swap3\n      pop\n        /* \"--CODEGEN--\":36:189   */\n      jump(tag_230)\n    tag_232:\n        /* \"--CODEGEN--\":274:275   */\n      0x01\n        /* \"--CODEGEN--\":267:270   */\n      dup4\n        /* \"--CODEGEN--\":263:265   */\n      0x20\n        /* \"--CODEGEN--\":259:271   */\n      sub\n        /* \"--CODEGEN--\":254:257   */\n      0x0100\n        /* \"--CODEGEN--\":250:272   */\n      exp\n        /* \"--CODEGEN--\":246:276   */\n      sub\n        /* \"--CODEGEN--\":315:319   */\n      dup1\n        /* \"--CODEGEN--\":311:320   */\n      not\n        /* \"--CODEGEN--\":305:308   */\n      dup3\n        /* \"--CODEGEN--\":299:309   */\n      mload\n        /* \"--CODEGEN--\":295:321   */\n      and\n        /* \"--CODEGEN--\":356:360   */\n      dup2\n        /* \"--CODEGEN--\":350:353   */\n      dup5\n        /* \"--CODEGEN--\":344:354   */\n      mload\n        /* \"--CODEGEN--\":340:361   */\n      and\n        /* \"--CODEGEN--\":389:396   */\n      dup1\n        /* \"--CODEGEN--\":380:387   */\n      dup3\n        /* \"--CODEGEN--\":377:397   */\n      or\n        /* \"--CODEGEN--\":372:375   */\n      dup6\n        /* \"--CODEGEN--\":365:398   */\n      mstore\n        /* \"--CODEGEN--\":3:402   */\n      pop\n      pop\n      pop\n        /* \"Solidity_BD2/casaApuestas.sol\":10767:10817  abi.encodePacked(respuesta, uint2str(_codCarrera)) */\n      pop\n      pop\n      pop\n      swap1\n      pop\n      add\n      dup3\n      dup1\n      mload\n      swap1\n      0x20\n      add\n      swap1\n      dup1\n      dup4\n      dup4\n        /* \"--CODEGEN--\":36:189   */\n    tag_233:\n        /* \"--CODEGEN--\":66:68   */\n      0x20\n        /* \"--CODEGEN--\":61:64   */\n      dup4\n        /* \"--CODEGEN--\":58:69   */\n      lt\n        /* \"--CODEGEN--\":36:189   */\n      tag_235\n      jumpi\n        /* \"--CODEGEN--\":182:185   */\n      dup1\n        /* \"--CODEGEN--\":176:186   */\n      mload\n        /* \"--CODEGEN--\":171:174   */\n      dup3\n        /* \"--CODEGEN--\":164:187   */\n      mstore\n        /* \"--CODEGEN--\":98:100   */\n      0x20\n        /* \"--CODEGEN--\":93:96   */\n      dup3\n        /* \"--CODEGEN--\":89:101   */\n      add\n        /* \"--CODEGEN--\":82:101   */\n      swap2\n      pop\n        /* \"--CODEGEN--\":123:125   */\n      0x20\n        /* \"--CODEGEN--\":118:121   */\n      dup2\n        /* \"--CODEGEN--\":114:126   */\n      add\n        /* \"--CODEGEN--\":107:126   */\n      swap1\n      pop\n        /* \"--CODEGEN--\":148:150   */\n      0x20\n        /* \"--CODEGEN--\":143:146   */\n      dup4\n        /* \"--CODEGEN--\":139:151   */\n      sub\n        /* \"--CODEGEN--\":132:151   */\n      swap3\n      pop\n        /* \"--CODEGEN--\":36:189   */\n      jump(tag_233)\n    tag_235:\n        /* \"--CODEGEN--\":274:275   */\n      0x01\n        /* \"--CODEGEN--\":267:270   */\n      dup4\n        /* \"--CODEGEN--\":263:265   */\n      0x20\n        /* \"--CODEGEN--\":259:271   */\n      sub\n        /* \"--CODEGEN--\":254:257   */\n      0x0100\n        /* \"--CODEGEN--\":250:272   */\n      exp\n        /* \"--CODEGEN--\":246:276   */\n      sub\n        /* \"--CODEGEN--\":315:319   */\n      dup1\n        /* \"--CODEGEN--\":311:320   */\n      not\n        /* \"--CODEGEN--\":305:308   */\n      dup3\n        /* \"--CODEGEN--\":299:309   */\n      mload\n        /* \"--CODEGEN--\":295:321   */\n      and\n        /* \"--CODEGEN--\":356:360   */\n      dup2\n        /* \"--CODEGEN--\":350:353   */\n      dup5\n        /* \"--CODEGEN--\":344:354   */\n      mload\n        /* \"--CODEGEN--\":340:361   */\n      and\n        /* \"--CODEGEN--\":389:396   */\n      dup1\n        /* \"--CODEGEN--\":380:387   */\n      dup3\n        /* \"--CODEGEN--\":377:397   */\n      or\n        /* \"--CODEGEN--\":372:375   */\n      dup6\n        /* \"--CODEGEN--\":365:398   */\n      mstore\n        /* \"--CODEGEN--\":3:402   */\n      pop\n      pop\n      pop\n        /* \"Solidity_BD2/casaApuestas.sol\":10767:10817  abi.encodePacked(respuesta, uint2str(_codCarrera)) */\n      pop\n      pop\n      pop\n      swap1\n      pop\n      add\n      swap3\n      pop\n      pop\n      pop\n      mload(0x40)\n        /* \"--CODEGEN--\":49:53   */\n      0x20\n        /* \"--CODEGEN--\":39:46   */\n      dup2\n        /* \"--CODEGEN--\":30:37   */\n      dup4\n        /* \"--CODEGEN--\":26:47   */\n      sub\n        /* \"--CODEGEN--\":22:54   */\n      sub\n        /* \"--CODEGEN--\":13:20   */\n      dup2\n        /* \"--CODEGEN--\":6:55   */\n      mstore\n        /* \"Solidity_BD2/casaApuestas.sol\":10767:10817  abi.encodePacked(respuesta, uint2str(_codCarrera)) */\n      swap1\n      0x40\n      mstore\n        /* \"Solidity_BD2/casaApuestas.sol\":10748:10818  respuesta = string(abi.encodePacked(respuesta, uint2str(_codCarrera))) */\n      swap2\n      pop\n        /* \"Solidity_BD2/casaApuestas.sol\":10865:10874  respuesta */\n      dup2\n        /* \"Solidity_BD2/casaApuestas.sol\":10848:10881  abi.encodePacked(respuesta, \": \") */\n      add(0x20, mload(0x40))\n      dup1\n      dup3\n      dup1\n      mload\n      swap1\n      0x20\n      add\n      swap1\n      dup1\n      dup4\n      dup4\n        /* \"--CODEGEN--\":36:189   */\n    tag_236:\n        /* \"--CODEGEN--\":66:68   */\n      0x20\n        /* \"--CODEGEN--\":61:64   */\n      dup4\n        /* \"--CODEGEN--\":58:69   */\n      lt\n        /* \"--CODEGEN--\":36:189   */\n      tag_238\n      jumpi\n        /* \"--CODEGEN--\":182:185   */\n      dup1\n        /* \"--CODEGEN--\":176:186   */\n      mload\n        /* \"--CODEGEN--\":171:174   */\n      dup3\n        /* \"--CODEGEN--\":164:187   */\n      mstore\n        /* \"--CODEGEN--\":98:100   */\n      0x20\n        /* \"--CODEGEN--\":93:96   */\n      dup3\n        /* \"--CODEGEN--\":89:101   */\n      add\n        /* \"--CODEGEN--\":82:101   */\n      swap2\n      pop\n        /* \"--CODEGEN--\":123:125   */\n      0x20\n        /* \"--CODEGEN--\":118:121   */\n      dup2\n        /* \"--CODEGEN--\":114:126   */\n      add\n        /* \"--CODEGEN--\":107:126   */\n      swap1\n      pop\n        /* \"--CODEGEN--\":148:150   */\n      0x20\n        /* \"--CODEGEN--\":143:146   */\n      dup4\n        /* \"--CODEGEN--\":139:151   */\n      sub\n        /* \"--CODEGEN--\":132:151   */\n      swap3\n      pop\n        /* \"--CODEGEN--\":36:189   */\n      jump(tag_236)\n    tag_238:\n        /* \"--CODEGEN--\":274:275   */\n      0x01\n        /* \"--CODEGEN--\":267:270   */\n      dup4\n        /* \"--CODEGEN--\":263:265   */\n      0x20\n        /* \"--CODEGEN--\":259:271   */\n      sub\n        /* \"--CODEGEN--\":254:257   */\n      0x0100\n        /* \"--CODEGEN--\":250:272   */\n      exp\n        /* \"--CODEGEN--\":246:276   */\n      sub\n        /* \"--CODEGEN--\":315:319   */\n      dup1\n        /* \"--CODEGEN--\":311:320   */\n      not\n        /* \"--CODEGEN--\":305:308   */\n      dup3\n        /* \"--CODEGEN--\":299:309   */\n      mload\n        /* \"--CODEGEN--\":295:321   */\n      and\n        /* \"--CODEGEN--\":356:360   */\n      dup2\n        /* \"--CODEGEN--\":350:353   */\n      dup5\n        /* \"--CODEGEN--\":344:354   */\n      mload\n        /* \"--CODEGEN--\":340:361   */\n      and\n        /* \"--CODEGEN--\":389:396   */\n      dup1\n        /* \"--CODEGEN--\":380:387   */\n      dup3\n        /* \"--CODEGEN--\":377:397   */\n      or\n        /* \"--CODEGEN--\":372:375   */\n      dup6\n        /* \"--CODEGEN--\":365:398   */\n      mstore\n        /* \"--CODEGEN--\":3:402   */\n      pop\n      pop\n      pop\n        /* \"Solidity_BD2/casaApuestas.sol\":10848:10881  abi.encodePacked(respuesta, \": \") */\n      pop\n      pop\n      pop\n      swap1\n      pop\n      add\n      dup1\n      0x3a20000000000000000000000000000000000000000000000000000000000000\n      dup2\n      mstore\n      pop\n      0x02\n      add\n      swap2\n      pop\n      pop\n      mload(0x40)\n        /* \"--CODEGEN--\":49:53   */\n      0x20\n        /* \"--CODEGEN--\":39:46   */\n      dup2\n        /* \"--CODEGEN--\":30:37   */\n      dup4\n        /* \"--CODEGEN--\":26:47   */\n      sub\n        /* \"--CODEGEN--\":22:54   */\n      sub\n        /* \"--CODEGEN--\":13:20   */\n      dup2\n        /* \"--CODEGEN--\":6:55   */\n      mstore\n        /* \"Solidity_BD2/casaApuestas.sol\":10848:10881  abi.encodePacked(respuesta, \": \") */\n      swap1\n      0x40\n      mstore\n        /* \"Solidity_BD2/casaApuestas.sol\":10829:10882  respuesta = string(abi.encodePacked(respuesta, \": \")) */\n      swap2\n      pop\n        /* \"Solidity_BD2/casaApuestas.sol\":10898:10904  uint i */\n      0x00\n        /* \"Solidity_BD2/casaApuestas.sol\":10907:10908  0 */\n      dup1\n        /* \"Solidity_BD2/casaApuestas.sol\":10898:10908  uint i = 0 */\n      swap1\n      pop\n        /* \"Solidity_BD2/casaApuestas.sol\":10893:11634  for (uint i = 0; i < apostadores[_codCarrera].length; i ++){\r... */\n    tag_239:\n        /* \"Solidity_BD2/casaApuestas.sol\":10914:10925  apostadores */\n      0x05\n        /* \"Solidity_BD2/casaApuestas.sol\":10914:10938  apostadores[_codCarrera] */\n      0x00\n        /* \"Solidity_BD2/casaApuestas.sol\":10926:10937  _codCarrera */\n      dup11\n        /* \"Solidity_BD2/casaApuestas.sol\":10914:10938  apostadores[_codCarrera] */\n      dup2\n      mstore\n      0x20\n      add\n      swap1\n      dup2\n      mstore\n      0x20\n      add\n      0x00\n      keccak256\n        /* \"Solidity_BD2/casaApuestas.sol\":10914:10945  apostadores[_codCarrera].length */\n      dup1\n      sload\n      swap1\n      pop\n        /* \"Solidity_BD2/casaApuestas.sol\":10910:10911  i */\n      dup2\n        /* \"Solidity_BD2/casaApuestas.sol\":10910:10945  i < apostadores[_codCarrera].length */\n      lt\n        /* \"Solidity_BD2/casaApuestas.sol\":10893:11634  for (uint i = 0; i < apostadores[_codCarrera].length; i ++){\r... */\n      iszero\n      tag_240\n      jumpi\n        /* \"Solidity_BD2/casaApuestas.sol\":10967:10978  uint dinero */\n      0x00\n        /* \"Solidity_BD2/casaApuestas.sol\":10981:10989  carreras */\n      0x02\n        /* \"Solidity_BD2/casaApuestas.sol\":10981:11002  carreras[_codCarrera] */\n      0x00\n        /* \"Solidity_BD2/casaApuestas.sol\":10990:11001  _codCarrera */\n      dup12\n        /* \"Solidity_BD2/casaApuestas.sol\":10981:11002  carreras[_codCarrera] */\n      dup2\n      mstore\n      0x20\n      add\n      swap1\n      dup2\n      mstore\n      0x20\n      add\n      0x00\n      keccak256\n        /* \"Solidity_BD2/casaApuestas.sol\":10981:11011  carreras[_codCarrera].apuestas */\n      0x06\n      add\n        /* \"Solidity_BD2/casaApuestas.sol\":10981:11040  carreras[_codCarrera].apuestas[apostadores[_codCarrera][i]] */\n      0x00\n        /* \"Solidity_BD2/casaApuestas.sol\":11012:11023  apostadores */\n      0x05\n        /* \"Solidity_BD2/casaApuestas.sol\":11012:11036  apostadores[_codCarrera] */\n      0x00\n        /* \"Solidity_BD2/casaApuestas.sol\":11024:11035  _codCarrera */\n      dup14\n        /* \"Solidity_BD2/casaApuestas.sol\":11012:11036  apostadores[_codCarrera] */\n      dup2\n      mstore\n      0x20\n      add\n      swap1\n      dup2\n      mstore\n      0x20\n      add\n      0x00\n      keccak256\n        /* \"Solidity_BD2/casaApuestas.sol\":11037:11038  i */\n      dup5\n        /* \"Solidity_BD2/casaApuestas.sol\":11012:11039  apostadores[_codCarrera][i] */\n      dup2\n      sload\n      dup2\n      lt\n      tag_242\n      jumpi\n      invalid\n    tag_242:\n      swap1\n      0x00\n      mstore\n      keccak256(0x00, 0x20)\n      add\n      0x00\n      swap1\n      sload\n      swap1\n      0x0100\n      exp\n      swap1\n      div\n      0xffffffffffffffffffffffffffffffffffffffff\n      and\n        /* \"Solidity_BD2/casaApuestas.sol\":10981:11040  carreras[_codCarrera].apuestas[apostadores[_codCarrera][i]] */\n      0xffffffffffffffffffffffffffffffffffffffff\n      and\n      0xffffffffffffffffffffffffffffffffffffffff\n      and\n      dup2\n      mstore\n      0x20\n      add\n      swap1\n      dup2\n      mstore\n      0x20\n      add\n      0x00\n      keccak256\n        /* \"Solidity_BD2/casaApuestas.sol\":10981:11058  carreras[_codCarrera].apuestas[apostadores[_codCarrera][i]].dineroTransferido */\n      0x04\n      add\n      sload\n        /* \"Solidity_BD2/casaApuestas.sol\":10967:11058  uint dinero = carreras[_codCarrera].apuestas[apostadores[_codCarrera][i]].dineroTransferido */\n      swap1\n      pop\n        /* \"Solidity_BD2/casaApuestas.sol\":11087:11088  0 */\n      0x00\n        /* \"Solidity_BD2/casaApuestas.sol\":11077:11083  dinero */\n      dup2\n        /* \"Solidity_BD2/casaApuestas.sol\":11077:11088  dinero != 0 */\n      eq\n        /* \"Solidity_BD2/casaApuestas.sol\":11073:11620  if (dinero != 0){\r... */\n      tag_244\n      jumpi\n        /* \"Solidity_BD2/casaApuestas.sol\":11119:11123  true */\n      0x01\n        /* \"Solidity_BD2/casaApuestas.sol\":11108:11123  contiene = true */\n      swap3\n      pop\n        /* \"Solidity_BD2/casaApuestas.sol\":11178:11187  respuesta */\n      dup4\n        /* \"Solidity_BD2/casaApuestas.sol\":11161:11203  abi.encodePacked(respuesta, \"Apostador #\") */\n      add(0x20, mload(0x40))\n      dup1\n      dup3\n      dup1\n      mload\n      swap1\n      0x20\n      add\n      swap1\n      dup1\n      dup4\n      dup4\n        /* \"--CODEGEN--\":36:189   */\n    tag_245:\n        /* \"--CODEGEN--\":66:68   */\n      0x20\n        /* \"--CODEGEN--\":61:64   */\n      dup4\n        /* \"--CODEGEN--\":58:69   */\n      lt\n        /* \"--CODEGEN--\":36:189   */\n      tag_247\n      jumpi\n        /* \"--CODEGEN--\":182:185   */\n      dup1\n        /* \"--CODEGEN--\":176:186   */\n      mload\n        /* \"--CODEGEN--\":171:174   */\n      dup3\n        /* \"--CODEGEN--\":164:187   */\n      mstore\n        /* \"--CODEGEN--\":98:100   */\n      0x20\n        /* \"--CODEGEN--\":93:96   */\n      dup3\n        /* \"--CODEGEN--\":89:101   */\n      add\n        /* \"--CODEGEN--\":82:101   */\n      swap2\n      pop\n        /* \"--CODEGEN--\":123:125   */\n      0x20\n        /* \"--CODEGEN--\":118:121   */\n      dup2\n        /* \"--CODEGEN--\":114:126   */\n      add\n        /* \"--CODEGEN--\":107:126   */\n      swap1\n      pop\n        /* \"--CODEGEN--\":148:150   */\n      0x20\n        /* \"--CODEGEN--\":143:146   */\n      dup4\n        /* \"--CODEGEN--\":139:151   */\n      sub\n        /* \"--CODEGEN--\":132:151   */\n      swap3\n      pop\n        /* \"--CODEGEN--\":36:189   */\n      jump(tag_245)\n    tag_247:\n        /* \"--CODEGEN--\":274:275   */\n      0x01\n        /* \"--CODEGEN--\":267:270   */\n      dup4\n        /* \"--CODEGEN--\":263:265   */\n      0x20\n        /* \"--CODEGEN--\":259:271   */\n      sub\n        /* \"--CODEGEN--\":254:257   */\n      0x0100\n        /* \"--CODEGEN--\":250:272   */\n      exp\n        /* \"--CODEGEN--\":246:276   */\n      sub\n        /* \"--CODEGEN--\":315:319   */\n      dup1\n        /* \"--CODEGEN--\":311:320   */\n      not\n        /* \"--CODEGEN--\":305:308   */\n      dup3\n        /* \"--CODEGEN--\":299:309   */\n      mload\n        /* \"--CODEGEN--\":295:321   */\n      and\n        /* \"--CODEGEN--\":356:360   */\n      dup2\n        /* \"--CODEGEN--\":350:353   */\n      dup5\n        /* \"--CODEGEN--\":344:354   */\n      mload\n        /* \"--CODEGEN--\":340:361   */\n      and\n        /* \"--CODEGEN--\":389:396   */\n      dup1\n        /* \"--CODEGEN--\":380:387   */\n      dup3\n        /* \"--CODEGEN--\":377:397   */\n      or\n        /* \"--CODEGEN--\":372:375   */\n      dup6\n        /* \"--CODEGEN--\":365:398   */\n      mstore\n        /* \"--CODEGEN--\":3:402   */\n      pop\n      pop\n      pop\n        /* \"Solidity_BD2/casaApuestas.sol\":11161:11203  abi.encodePacked(respuesta, \"Apostador #\") */\n      pop\n      pop\n      pop\n      swap1\n      pop\n      add\n      dup1\n      0x41706f737461646f722023000000000000000000000000000000000000000000\n      dup2\n      mstore\n      pop\n      0x0b\n      add\n      swap2\n      pop\n      pop\n      mload(0x40)\n        /* \"--CODEGEN--\":49:53   */\n      0x20\n        /* \"--CODEGEN--\":39:46   */\n      dup2\n        /* \"--CODEGEN--\":30:37   */\n      dup4\n        /* \"--CODEGEN--\":26:47   */\n      sub\n        /* \"--CODEGEN--\":22:54   */\n      sub\n        /* \"--CODEGEN--\":13:20   */\n      dup2\n        /* \"--CODEGEN--\":6:55   */\n      mstore\n        /* \"Solidity_BD2/casaApuestas.sol\":11161:11203  abi.encodePacked(respuesta, \"Apostador #\") */\n      swap1\n      0x40\n      mstore\n        /* \"Solidity_BD2/casaApuestas.sol\":11142:11204  respuesta = string(abi.encodePacked(respuesta, \"Apostador #\")) */\n      swap4\n      pop\n        /* \"Solidity_BD2/casaApuestas.sol\":11259:11268  respuesta */\n      dup4\n        /* \"Solidity_BD2/casaApuestas.sol\":11270:11281  uint2str(i) */\n      tag_248\n        /* \"Solidity_BD2/casaApuestas.sol\":11279:11280  i */\n      dup4\n        /* \"Solidity_BD2/casaApuestas.sol\":11270:11278  uint2str */\n      tag_167\n        /* \"Solidity_BD2/casaApuestas.sol\":11270:11281  uint2str(i) */\n      jump\t// in\n    tag_248:\n        /* \"Solidity_BD2/casaApuestas.sol\":11242:11282  abi.encodePacked(respuesta, uint2str(i)) */\n      add(0x20, mload(0x40))\n      dup1\n      dup4\n      dup1\n      mload\n      swap1\n      0x20\n      add\n      swap1\n      dup1\n      dup4\n      dup4\n        /* \"--CODEGEN--\":36:189   */\n    tag_249:\n        /* \"--CODEGEN--\":66:68   */\n      0x20\n        /* \"--CODEGEN--\":61:64   */\n      dup4\n        /* \"--CODEGEN--\":58:69   */\n      lt\n        /* \"--CODEGEN--\":36:189   */\n      tag_251\n      jumpi\n        /* \"--CODEGEN--\":182:185   */\n      dup1\n        /* \"--CODEGEN--\":176:186   */\n      mload\n        /* \"--CODEGEN--\":171:174   */\n      dup3\n        /* \"--CODEGEN--\":164:187   */\n      mstore\n        /* \"--CODEGEN--\":98:100   */\n      0x20\n        /* \"--CODEGEN--\":93:96   */\n      dup3\n        /* \"--CODEGEN--\":89:101   */\n      add\n        /* \"--CODEGEN--\":82:101   */\n      swap2\n      pop\n        /* \"--CODEGEN--\":123:125   */\n      0x20\n        /* \"--CODEGEN--\":118:121   */\n      dup2\n        /* \"--CODEGEN--\":114:126   */\n      add\n        /* \"--CODEGEN--\":107:126   */\n      swap1\n      pop\n        /* \"--CODEGEN--\":148:150   */\n      0x20\n        /* \"--CODEGEN--\":143:146   */\n      dup4\n        /* \"--CODEGEN--\":139:151   */\n      sub\n        /* \"--CODEGEN--\":132:151   */\n      swap3\n      pop\n        /* \"--CODEGEN--\":36:189   */\n      jump(tag_249)\n    tag_251:\n        /* \"--CODEGEN--\":274:275   */\n      0x01\n        /* \"--CODEGEN--\":267:270   */\n      dup4\n        /* \"--CODEGEN--\":263:265   */\n      0x20\n        /* \"--CODEGEN--\":259:271   */\n      sub\n        /* \"--CODEGEN--\":254:257   */\n      0x0100\n        /* \"--CODEGEN--\":250:272   */\n      exp\n        /* \"--CODEGEN--\":246:276   */\n      sub\n        /* \"--CODEGEN--\":315:319   */\n      dup1\n        /* \"--CODEGEN--\":311:320   */\n      not\n        /* \"--CODEGEN--\":305:308   */\n      dup3\n        /* \"--CODEGEN--\":299:309   */\n      mload\n        /* \"--CODEGEN--\":295:321   */\n      and\n        /* \"--CODEGEN--\":356:360   */\n      dup2\n        /* \"--CODEGEN--\":350:353   */\n      dup5\n        /* \"--CODEGEN--\":344:354   */\n      mload\n        /* \"--CODEGEN--\":340:361   */\n      and\n        /* \"--CODEGEN--\":389:396   */\n      dup1\n        /* \"--CODEGEN--\":380:387   */\n      dup3\n        /* \"--CODEGEN--\":377:397   */\n      or\n        /* \"--CODEGEN--\":372:375   */\n      dup6\n        /* \"--CODEGEN--\":365:398   */\n      mstore\n        /* \"--CODEGEN--\":3:402   */\n      pop\n      pop\n      pop\n        /* \"Solidity_BD2/casaApuestas.sol\":11242:11282  abi.encodePacked(respuesta, uint2str(i)) */\n      pop\n      pop\n      pop\n      swap1\n      pop\n      add\n      dup3\n      dup1\n      mload\n      swap1\n      0x20\n      add\n      swap1\n      dup1\n      dup4\n      dup4\n        /* \"--CODEGEN--\":36:189   */\n    tag_252:\n        /* \"--CODEGEN--\":66:68   */\n      0x20\n        /* \"--CODEGEN--\":61:64   */\n      dup4\n        /* \"--CODEGEN--\":58:69   */\n      lt\n        /* \"--CODEGEN--\":36:189   */\n      tag_254\n      jumpi\n        /* \"--CODEGEN--\":182:185   */\n      dup1\n        /* \"--CODEGEN--\":176:186   */\n      mload\n        /* \"--CODEGEN--\":171:174   */\n      dup3\n        /* \"--CODEGEN--\":164:187   */\n      mstore\n        /* \"--CODEGEN--\":98:100   */\n      0x20\n        /* \"--CODEGEN--\":93:96   */\n      dup3\n        /* \"--CODEGEN--\":89:101   */\n      add\n        /* \"--CODEGEN--\":82:101   */\n      swap2\n      pop\n        /* \"--CODEGEN--\":123:125   */\n      0x20\n        /* \"--CODEGEN--\":118:121   */\n      dup2\n        /* \"--CODEGEN--\":114:126   */\n      add\n        /* \"--CODEGEN--\":107:126   */\n      swap1\n      pop\n        /* \"--CODEGEN--\":148:150   */\n      0x20\n        /* \"--CODEGEN--\":143:146   */\n      dup4\n        /* \"--CODEGEN--\":139:151   */\n      sub\n        /* \"--CODEGEN--\":132:151   */\n      swap3\n      pop\n        /* \"--CODEGEN--\":36:189   */\n      jump(tag_252)\n    tag_254:\n        /* \"--CODEGEN--\":274:275   */\n      0x01\n        /* \"--CODEGEN--\":267:270   */\n      dup4\n        /* \"--CODEGEN--\":263:265   */\n      0x20\n        /* \"--CODEGEN--\":259:271   */\n      sub\n        /* \"--CODEGEN--\":254:257   */\n      0x0100\n        /* \"--CODEGEN--\":250:272   */\n      exp\n        /* \"--CODEGEN--\":246:276   */\n      sub\n        /* \"--CODEGEN--\":315:319   */\n      dup1\n        /* \"--CODEGEN--\":311:320   */\n      not\n        /* \"--CODEGEN--\":305:308   */\n      dup3\n        /* \"--CODEGEN--\":299:309   */\n      mload\n        /* \"--CODEGEN--\":295:321   */\n      and\n        /* \"--CODEGEN--\":356:360   */\n      dup2\n        /* \"--CODEGEN--\":350:353   */\n      dup5\n        /* \"--CODEGEN--\":344:354   */\n      mload\n        /* \"--CODEGEN--\":340:361   */\n      and\n        /* \"--CODEGEN--\":389:396   */\n      dup1\n        /* \"--CODEGEN--\":380:387   */\n      dup3\n        /* \"--CODEGEN--\":377:397   */\n      or\n        /* \"--CODEGEN--\":372:375   */\n      dup6\n        /* \"--CODEGEN--\":365:398   */\n      mstore\n        /* \"--CODEGEN--\":3:402   */\n      pop\n      pop\n      pop\n        /* \"Solidity_BD2/casaApuestas.sol\":11242:11282  abi.encodePacked(respuesta, uint2str(i)) */\n      pop\n      pop\n      pop\n      swap1\n      pop\n      add\n      swap3\n      pop\n      pop\n      pop\n      mload(0x40)\n        /* \"--CODEGEN--\":49:53   */\n      0x20\n        /* \"--CODEGEN--\":39:46   */\n      dup2\n        /* \"--CODEGEN--\":30:37   */\n      dup4\n        /* \"--CODEGEN--\":26:47   */\n      sub\n        /* \"--CODEGEN--\":22:54   */\n      sub\n        /* \"--CODEGEN--\":13:20   */\n      dup2\n        /* \"--CODEGEN--\":6:55   */\n      mstore\n        /* \"Solidity_BD2/casaApuestas.sol\":11242:11282  abi.encodePacked(respuesta, uint2str(i)) */\n      swap1\n      0x40\n      mstore\n        /* \"Solidity_BD2/casaApuestas.sol\":11223:11283  respuesta = string(abi.encodePacked(respuesta, uint2str(i))) */\n      swap4\n      pop\n        /* \"Solidity_BD2/casaApuestas.sol\":11338:11347  respuesta */\n      dup4\n        /* \"Solidity_BD2/casaApuestas.sol\":11321:11353  abi.encodePacked(respuesta, \"-\") */\n      add(0x20, mload(0x40))\n      dup1\n      dup3\n      dup1\n      mload\n      swap1\n      0x20\n      add\n      swap1\n      dup1\n      dup4\n      dup4\n        /* \"--CODEGEN--\":36:189   */\n    tag_255:\n        /* \"--CODEGEN--\":66:68   */\n      0x20\n        /* \"--CODEGEN--\":61:64   */\n      dup4\n        /* \"--CODEGEN--\":58:69   */\n      lt\n        /* \"--CODEGEN--\":36:189   */\n      tag_257\n      jumpi\n        /* \"--CODEGEN--\":182:185   */\n      dup1\n        /* \"--CODEGEN--\":176:186   */\n      mload\n        /* \"--CODEGEN--\":171:174   */\n      dup3\n        /* \"--CODEGEN--\":164:187   */\n      mstore\n        /* \"--CODEGEN--\":98:100   */\n      0x20\n        /* \"--CODEGEN--\":93:96   */\n      dup3\n        /* \"--CODEGEN--\":89:101   */\n      add\n        /* \"--CODEGEN--\":82:101   */\n      swap2\n      pop\n        /* \"--CODEGEN--\":123:125   */\n      0x20\n        /* \"--CODEGEN--\":118:121   */\n      dup2\n        /* \"--CODEGEN--\":114:126   */\n      add\n        /* \"--CODEGEN--\":107:126   */\n      swap1\n      pop\n        /* \"--CODEGEN--\":148:150   */\n      0x20\n        /* \"--CODEGEN--\":143:146   */\n      dup4\n        /* \"--CODEGEN--\":139:151   */\n      sub\n        /* \"--CODEGEN--\":132:151   */\n      swap3\n      pop\n        /* \"--CODEGEN--\":36:189   */\n      jump(tag_255)\n    tag_257:\n        /* \"--CODEGEN--\":274:275   */\n      0x01\n        /* \"--CODEGEN--\":267:270   */\n      dup4\n        /* \"--CODEGEN--\":263:265   */\n      0x20\n        /* \"--CODEGEN--\":259:271   */\n      sub\n        /* \"--CODEGEN--\":254:257   */\n      0x0100\n        /* \"--CODEGEN--\":250:272   */\n      exp\n        /* \"--CODEGEN--\":246:276   */\n      sub\n        /* \"--CODEGEN--\":315:319   */\n      dup1\n        /* \"--CODEGEN--\":311:320   */\n      not\n        /* \"--CODEGEN--\":305:308   */\n      dup3\n        /* \"--CODEGEN--\":299:309   */\n      mload\n        /* \"--CODEGEN--\":295:321   */\n      and\n        /* \"--CODEGEN--\":356:360   */\n      dup2\n        /* \"--CODEGEN--\":350:353   */\n      dup5\n        /* \"--CODEGEN--\":344:354   */\n      mload\n        /* \"--CODEGEN--\":340:361   */\n      and\n        /* \"--CODEGEN--\":389:396   */\n      dup1\n        /* \"--CODEGEN--\":380:387   */\n      dup3\n        /* \"--CODEGEN--\":377:397   */\n      or\n        /* \"--CODEGEN--\":372:375   */\n      dup6\n        /* \"--CODEGEN--\":365:398   */\n      mstore\n        /* \"--CODEGEN--\":3:402   */\n      pop\n      pop\n      pop\n        /* \"Solidity_BD2/casaApuestas.sol\":11321:11353  abi.encodePacked(respuesta, \"-\") */\n      pop\n      pop\n      pop\n      swap1\n      pop\n      add\n      dup1\n      0x2d00000000000000000000000000000000000000000000000000000000000000\n      dup2\n      mstore\n      pop\n      0x01\n      add\n      swap2\n      pop\n      pop\n      mload(0x40)\n        /* \"--CODEGEN--\":49:53   */\n      0x20\n        /* \"--CODEGEN--\":39:46   */\n      dup2\n        /* \"--CODEGEN--\":30:37   */\n      dup4\n        /* \"--CODEGEN--\":26:47   */\n      sub\n        /* \"--CODEGEN--\":22:54   */\n      sub\n        /* \"--CODEGEN--\":13:20   */\n      dup2\n        /* \"--CODEGEN--\":6:55   */\n      mstore\n        /* \"Solidity_BD2/casaApuestas.sol\":11321:11353  abi.encodePacked(respuesta, \"-\") */\n      swap1\n      0x40\n      mstore\n        /* \"Solidity_BD2/casaApuestas.sol\":11302:11354  respuesta = string(abi.encodePacked(respuesta, \"-\")) */\n      swap4\n      pop\n        /* \"Solidity_BD2/casaApuestas.sol\":11409:11418  respuesta */\n      dup4\n        /* \"Solidity_BD2/casaApuestas.sol\":11392:11429  abi.encodePacked(respuesta, \"Gano: \") */\n      add(0x20, mload(0x40))\n      dup1\n      dup3\n      dup1\n      mload\n      swap1\n      0x20\n      add\n      swap1\n      dup1\n      dup4\n      dup4\n        /* \"--CODEGEN--\":36:189   */\n    tag_258:\n        /* \"--CODEGEN--\":66:68   */\n      0x20\n        /* \"--CODEGEN--\":61:64   */\n      dup4\n        /* \"--CODEGEN--\":58:69   */\n      lt\n        /* \"--CODEGEN--\":36:189   */\n      tag_260\n      jumpi\n        /* \"--CODEGEN--\":182:185   */\n      dup1\n        /* \"--CODEGEN--\":176:186   */\n      mload\n        /* \"--CODEGEN--\":171:174   */\n      dup3\n        /* \"--CODEGEN--\":164:187   */\n      mstore\n        /* \"--CODEGEN--\":98:100   */\n      0x20\n        /* \"--CODEGEN--\":93:96   */\n      dup3\n        /* \"--CODEGEN--\":89:101   */\n      add\n        /* \"--CODEGEN--\":82:101   */\n      swap2\n      pop\n        /* \"--CODEGEN--\":123:125   */\n      0x20\n        /* \"--CODEGEN--\":118:121   */\n      dup2\n        /* \"--CODEGEN--\":114:126   */\n      add\n        /* \"--CODEGEN--\":107:126   */\n      swap1\n      pop\n        /* \"--CODEGEN--\":148:150   */\n      0x20\n        /* \"--CODEGEN--\":143:146   */\n      dup4\n        /* \"--CODEGEN--\":139:151   */\n      sub\n        /* \"--CODEGEN--\":132:151   */\n      swap3\n      pop\n        /* \"--CODEGEN--\":36:189   */\n      jump(tag_258)\n    tag_260:\n        /* \"--CODEGEN--\":274:275   */\n      0x01\n        /* \"--CODEGEN--\":267:270   */\n      dup4\n        /* \"--CODEGEN--\":263:265   */\n      0x20\n        /* \"--CODEGEN--\":259:271   */\n      sub\n        /* \"--CODEGEN--\":254:257   */\n      0x0100\n        /* \"--CODEGEN--\":250:272   */\n      exp\n        /* \"--CODEGEN--\":246:276   */\n      sub\n        /* \"--CODEGEN--\":315:319   */\n      dup1\n        /* \"--CODEGEN--\":311:320   */\n      not\n        /* \"--CODEGEN--\":305:308   */\n      dup3\n        /* \"--CODEGEN--\":299:309   */\n      mload\n        /* \"--CODEGEN--\":295:321   */\n      and\n        /* \"--CODEGEN--\":356:360   */\n      dup2\n        /* \"--CODEGEN--\":350:353   */\n      dup5\n        /* \"--CODEGEN--\":344:354   */\n      mload\n        /* \"--CODEGEN--\":340:361   */\n      and\n        /* \"--CODEGEN--\":389:396   */\n      dup1\n        /* \"--CODEGEN--\":380:387   */\n      dup3\n        /* \"--CODEGEN--\":377:397   */\n      or\n        /* \"--CODEGEN--\":372:375   */\n      dup6\n        /* \"--CODEGEN--\":365:398   */\n      mstore\n        /* \"--CODEGEN--\":3:402   */\n      pop\n      pop\n      pop\n        /* \"Solidity_BD2/casaApuestas.sol\":11392:11429  abi.encodePacked(respuesta, \"Gano: \") */\n      pop\n      pop\n      pop\n      swap1\n      pop\n      add\n      dup1\n      0x47616e6f3a200000000000000000000000000000000000000000000000000000\n      dup2\n      mstore\n      pop\n      0x06\n      add\n      swap2\n      pop\n      pop\n      mload(0x40)\n        /* \"--CODEGEN--\":49:53   */\n      0x20\n        /* \"--CODEGEN--\":39:46   */\n      dup2\n        /* \"--CODEGEN--\":30:37   */\n      dup4\n        /* \"--CODEGEN--\":26:47   */\n      sub\n        /* \"--CODEGEN--\":22:54   */\n      sub\n        /* \"--CODEGEN--\":13:20   */\n      dup2\n        /* \"--CODEGEN--\":6:55   */\n      mstore\n        /* \"Solidity_BD2/casaApuestas.sol\":11392:11429  abi.encodePacked(respuesta, \"Gano: \") */\n      swap1\n      0x40\n      mstore\n        /* \"Solidity_BD2/casaApuestas.sol\":11373:11430  respuesta = string(abi.encodePacked(respuesta, \"Gano: \")) */\n      swap4\n      pop\n        /* \"Solidity_BD2/casaApuestas.sol\":11485:11494  respuesta */\n      dup4\n        /* \"Solidity_BD2/casaApuestas.sol\":11496:11512  uint2str(dinero) */\n      tag_261\n        /* \"Solidity_BD2/casaApuestas.sol\":11505:11511  dinero */\n      dup3\n        /* \"Solidity_BD2/casaApuestas.sol\":11496:11504  uint2str */\n      tag_167\n        /* \"Solidity_BD2/casaApuestas.sol\":11496:11512  uint2str(dinero) */\n      jump\t// in\n    tag_261:\n        /* \"Solidity_BD2/casaApuestas.sol\":11468:11513  abi.encodePacked(respuesta, uint2str(dinero)) */\n      add(0x20, mload(0x40))\n      dup1\n      dup4\n      dup1\n      mload\n      swap1\n      0x20\n      add\n      swap1\n      dup1\n      dup4\n      dup4\n        /* \"--CODEGEN--\":36:189   */\n    tag_262:\n        /* \"--CODEGEN--\":66:68   */\n      0x20\n        /* \"--CODEGEN--\":61:64   */\n      dup4\n        /* \"--CODEGEN--\":58:69   */\n      lt\n        /* \"--CODEGEN--\":36:189   */\n      tag_264\n      jumpi\n        /* \"--CODEGEN--\":182:185   */\n      dup1\n        /* \"--CODEGEN--\":176:186   */\n      mload\n        /* \"--CODEGEN--\":171:174   */\n      dup3\n        /* \"--CODEGEN--\":164:187   */\n      mstore\n        /* \"--CODEGEN--\":98:100   */\n      0x20\n        /* \"--CODEGEN--\":93:96   */\n      dup3\n        /* \"--CODEGEN--\":89:101   */\n      add\n        /* \"--CODEGEN--\":82:101   */\n      swap2\n      pop\n        /* \"--CODEGEN--\":123:125   */\n      0x20\n        /* \"--CODEGEN--\":118:121   */\n      dup2\n        /* \"--CODEGEN--\":114:126   */\n      add\n        /* \"--CODEGEN--\":107:126   */\n      swap1\n      pop\n        /* \"--CODEGEN--\":148:150   */\n      0x20\n        /* \"--CODEGEN--\":143:146   */\n      dup4\n        /* \"--CODEGEN--\":139:151   */\n      sub\n        /* \"--CODEGEN--\":132:151   */\n      swap3\n      pop\n        /* \"--CODEGEN--\":36:189   */\n      jump(tag_262)\n    tag_264:\n        /* \"--CODEGEN--\":274:275   */\n      0x01\n        /* \"--CODEGEN--\":267:270   */\n      dup4\n        /* \"--CODEGEN--\":263:265   */\n      0x20\n        /* \"--CODEGEN--\":259:271   */\n      sub\n        /* \"--CODEGEN--\":254:257   */\n      0x0100\n        /* \"--CODEGEN--\":250:272   */\n      exp\n        /* \"--CODEGEN--\":246:276   */\n      sub\n        /* \"--CODEGEN--\":315:319   */\n      dup1\n        /* \"--CODEGEN--\":311:320   */\n      not\n        /* \"--CODEGEN--\":305:308   */\n      dup3\n        /* \"--CODEGEN--\":299:309   */\n      mload\n        /* \"--CODEGEN--\":295:321   */\n      and\n        /* \"--CODEGEN--\":356:360   */\n      dup2\n        /* \"--CODEGEN--\":350:353   */\n      dup5\n        /* \"--CODEGEN--\":344:354   */\n      mload\n        /* \"--CODEGEN--\":340:361   */\n      and\n        /* \"--CODEGEN--\":389:396   */\n      dup1\n        /* \"--CODEGEN--\":380:387   */\n      dup3\n        /* \"--CODEGEN--\":377:397   */\n      or\n        /* \"--CODEGEN--\":372:375   */\n      dup6\n        /* \"--CODEGEN--\":365:398   */\n      mstore\n        /* \"--CODEGEN--\":3:402   */\n      pop\n      pop\n      pop\n        /* \"Solidity_BD2/casaApuestas.sol\":11468:11513  abi.encodePacked(respuesta, uint2str(dinero)) */\n      pop\n      pop\n      pop\n      swap1\n      pop\n      add\n      dup3\n      dup1\n      mload\n      swap1\n      0x20\n      add\n      swap1\n      dup1\n      dup4\n      dup4\n        /* \"--CODEGEN--\":36:189   */\n    tag_265:\n        /* \"--CODEGEN--\":66:68   */\n      0x20\n        /* \"--CODEGEN--\":61:64   */\n      dup4\n        /* \"--CODEGEN--\":58:69   */\n      lt\n        /* \"--CODEGEN--\":36:189   */\n      tag_267\n      jumpi\n        /* \"--CODEGEN--\":182:185   */\n      dup1\n        /* \"--CODEGEN--\":176:186   */\n      mload\n        /* \"--CODEGEN--\":171:174   */\n      dup3\n        /* \"--CODEGEN--\":164:187   */\n      mstore\n        /* \"--CODEGEN--\":98:100   */\n      0x20\n        /* \"--CODEGEN--\":93:96   */\n      dup3\n        /* \"--CODEGEN--\":89:101   */\n      add\n        /* \"--CODEGEN--\":82:101   */\n      swap2\n      pop\n        /* \"--CODEGEN--\":123:125   */\n      0x20\n        /* \"--CODEGEN--\":118:121   */\n      dup2\n        /* \"--CODEGEN--\":114:126   */\n      add\n        /* \"--CODEGEN--\":107:126   */\n      swap1\n      pop\n        /* \"--CODEGEN--\":148:150   */\n      0x20\n        /* \"--CODEGEN--\":143:146   */\n      dup4\n        /* \"--CODEGEN--\":139:151   */\n      sub\n        /* \"--CODEGEN--\":132:151   */\n      swap3\n      pop\n        /* \"--CODEGEN--\":36:189   */\n      jump(tag_265)\n    tag_267:\n        /* \"--CODEGEN--\":274:275   */\n      0x01\n        /* \"--CODEGEN--\":267:270   */\n      dup4\n        /* \"--CODEGEN--\":263:265   */\n      0x20\n        /* \"--CODEGEN--\":259:271   */\n      sub\n        /* \"--CODEGEN--\":254:257   */\n      0x0100\n        /* \"--CODEGEN--\":250:272   */\n      exp\n        /* \"--CODEGEN--\":246:276   */\n      sub\n        /* \"--CODEGEN--\":315:319   */\n      dup1\n        /* \"--CODEGEN--\":311:320   */\n      not\n        /* \"--CODEGEN--\":305:308   */\n      dup3\n        /* \"--CODEGEN--\":299:309   */\n      mload\n        /* \"--CODEGEN--\":295:321   */\n      and\n        /* \"--CODEGEN--\":356:360   */\n      dup2\n        /* \"--CODEGEN--\":350:353   */\n      dup5\n        /* \"--CODEGEN--\":344:354   */\n      mload\n        /* \"--CODEGEN--\":340:361   */\n      and\n        /* \"--CODEGEN--\":389:396   */\n      dup1\n        /* \"--CODEGEN--\":380:387   */\n      dup3\n        /* \"--CODEGEN--\":377:397   */\n      or\n        /* \"--CODEGEN--\":372:375   */\n      dup6\n        /* \"--CODEGEN--\":365:398   */\n      mstore\n        /* \"--CODEGEN--\":3:402   */\n      pop\n      pop\n      pop\n        /* \"Solidity_BD2/casaApuestas.sol\":11468:11513  abi.encodePacked(respuesta, uint2str(dinero)) */\n      pop\n      pop\n      pop\n      swap1\n      pop\n      add\n      swap3\n      pop\n      pop\n      pop\n      mload(0x40)\n        /* \"--CODEGEN--\":49:53   */\n      0x20\n        /* \"--CODEGEN--\":39:46   */\n      dup2\n        /* \"--CODEGEN--\":30:37   */\n      dup4\n        /* \"--CODEGEN--\":26:47   */\n      sub\n        /* \"--CODEGEN--\":22:54   */\n      sub\n        /* \"--CODEGEN--\":13:20   */\n      dup2\n        /* \"--CODEGEN--\":6:55   */\n      mstore\n        /* \"Solidity_BD2/casaApuestas.sol\":11468:11513  abi.encodePacked(respuesta, uint2str(dinero)) */\n      swap1\n      0x40\n      mstore\n        /* \"Solidity_BD2/casaApuestas.sol\":11449:11514  respuesta = string(abi.encodePacked(respuesta, uint2str(dinero))) */\n      swap4\n      pop\n        /* \"Solidity_BD2/casaApuestas.sol\":11569:11578  respuesta */\n      dup4\n        /* \"Solidity_BD2/casaApuestas.sol\":11552:11585  abi.encodePacked(respuesta, \"  \") */\n      add(0x20, mload(0x40))\n      dup1\n      dup3\n      dup1\n      mload\n      swap1\n      0x20\n      add\n      swap1\n      dup1\n      dup4\n      dup4\n        /* \"--CODEGEN--\":36:189   */\n    tag_268:\n        /* \"--CODEGEN--\":66:68   */\n      0x20\n        /* \"--CODEGEN--\":61:64   */\n      dup4\n        /* \"--CODEGEN--\":58:69   */\n      lt\n        /* \"--CODEGEN--\":36:189   */\n      tag_270\n      jumpi\n        /* \"--CODEGEN--\":182:185   */\n      dup1\n        /* \"--CODEGEN--\":176:186   */\n      mload\n        /* \"--CODEGEN--\":171:174   */\n      dup3\n        /* \"--CODEGEN--\":164:187   */\n      mstore\n        /* \"--CODEGEN--\":98:100   */\n      0x20\n        /* \"--CODEGEN--\":93:96   */\n      dup3\n        /* \"--CODEGEN--\":89:101   */\n      add\n        /* \"--CODEGEN--\":82:101   */\n      swap2\n      pop\n        /* \"--CODEGEN--\":123:125   */\n      0x20\n        /* \"--CODEGEN--\":118:121   */\n      dup2\n        /* \"--CODEGEN--\":114:126   */\n      add\n        /* \"--CODEGEN--\":107:126   */\n      swap1\n      pop\n        /* \"--CODEGEN--\":148:150   */\n      0x20\n        /* \"--CODEGEN--\":143:146   */\n      dup4\n        /* \"--CODEGEN--\":139:151   */\n      sub\n        /* \"--CODEGEN--\":132:151   */\n      swap3\n      pop\n        /* \"--CODEGEN--\":36:189   */\n      jump(tag_268)\n    tag_270:\n        /* \"--CODEGEN--\":274:275   */\n      0x01\n        /* \"--CODEGEN--\":267:270   */\n      dup4\n        /* \"--CODEGEN--\":263:265   */\n      0x20\n        /* \"--CODEGEN--\":259:271   */\n      sub\n        /* \"--CODEGEN--\":254:257   */\n      0x0100\n        /* \"--CODEGEN--\":250:272   */\n      exp\n        /* \"--CODEGEN--\":246:276   */\n      sub\n        /* \"--CODEGEN--\":315:319   */\n      dup1\n        /* \"--CODEGEN--\":311:320   */\n      not\n        /* \"--CODEGEN--\":305:308   */\n      dup3\n        /* \"--CODEGEN--\":299:309   */\n      mload\n        /* \"--CODEGEN--\":295:321   */\n      and\n        /* \"--CODEGEN--\":356:360   */\n      dup2\n        /* \"--CODEGEN--\":350:353   */\n      dup5\n        /* \"--CODEGEN--\":344:354   */\n      mload\n        /* \"--CODEGEN--\":340:361   */\n      and\n        /* \"--CODEGEN--\":389:396   */\n      dup1\n        /* \"--CODEGEN--\":380:387   */\n      dup3\n        /* \"--CODEGEN--\":377:397   */\n      or\n        /* \"--CODEGEN--\":372:375   */\n      dup6\n        /* \"--CODEGEN--\":365:398   */\n      mstore\n        /* \"--CODEGEN--\":3:402   */\n      pop\n      pop\n      pop\n        /* \"Solidity_BD2/casaApuestas.sol\":11552:11585  abi.encodePacked(respuesta, \"  \") */\n      pop\n      pop\n      pop\n      swap1\n      pop\n      add\n      dup1\n      0x2020000000000000000000000000000000000000000000000000000000000000\n      dup2\n      mstore\n      pop\n      0x02\n      add\n      swap2\n      pop\n      pop\n      mload(0x40)\n        /* \"--CODEGEN--\":49:53   */\n      0x20\n        /* \"--CODEGEN--\":39:46   */\n      dup2\n        /* \"--CODEGEN--\":30:37   */\n      dup4\n        /* \"--CODEGEN--\":26:47   */\n      sub\n        /* \"--CODEGEN--\":22:54   */\n      sub\n        /* \"--CODEGEN--\":13:20   */\n      dup2\n        /* \"--CODEGEN--\":6:55   */\n      mstore\n        /* \"Solidity_BD2/casaApuestas.sol\":11552:11585  abi.encodePacked(respuesta, \"  \") */\n      swap1\n      0x40\n      mstore\n        /* \"Solidity_BD2/casaApuestas.sol\":11533:11586  respuesta = string(abi.encodePacked(respuesta, \"  \")) */\n      swap4\n      pop\n        /* \"Solidity_BD2/casaApuestas.sol\":11073:11620  if (dinero != 0){\r... */\n    tag_244:\n        /* \"Solidity_BD2/casaApuestas.sol\":10893:11634  for (uint i = 0; i < apostadores[_codCarrera].length; i ++){\r... */\n      pop\n        /* \"Solidity_BD2/casaApuestas.sol\":10947:10951  i ++ */\n      dup1\n      dup1\n      0x01\n      add\n      swap2\n      pop\n      pop\n        /* \"Solidity_BD2/casaApuestas.sol\":10893:11634  for (uint i = 0; i < apostadores[_codCarrera].length; i ++){\r... */\n      jump(tag_239)\n    tag_240:\n      pop\n        /* \"Solidity_BD2/casaApuestas.sol\":11657:11666  respuesta */\n      dup2\n        /* \"Solidity_BD2/casaApuestas.sol\":11649:11667  return (respuesta) */\n      swap7\n      pop\n      pop\n      pop\n        /* \"Solidity_BD2/casaApuestas.sol\":1850:1851  _ */\n      pop\n        /* \"Solidity_BD2/casaApuestas.sol\":2644:2645  _ */\n      pop\n      pop\n        /* \"Solidity_BD2/casaApuestas.sol\":10442:11675  function getApostadorGanador(uint _codCarrera) public \r... */\n      pop\n      swap2\n      swap1\n      pop\n      jump\t// out\n        /* \"Solidity_BD2/casaApuestas.sol\":55:79  address public anfitrion */\n    tag_47:\n      0x00\n      dup1\n      swap1\n      sload\n      swap1\n      0x0100\n      exp\n      swap1\n      div\n      0xffffffffffffffffffffffffffffffffffffffff\n      and\n      dup2\n      jump\t// out\n        /* \"Solidity_BD2/casaApuestas.sol\":4681:4862  function registrarCaballo(uint _codigo, string memory _nombre) public \r... */\n    tag_54:\n        /* \"Solidity_BD2/casaApuestas.sol\":1317:1326  anfitrion */\n      0x00\n      dup1\n      swap1\n      sload\n      swap1\n      0x0100\n      exp\n      swap1\n      div\n      0xffffffffffffffffffffffffffffffffffffffff\n      and\n        /* \"Solidity_BD2/casaApuestas.sol\":1303:1326  msg.sender == anfitrion */\n      0xffffffffffffffffffffffffffffffffffffffff\n      and\n        /* \"Solidity_BD2/casaApuestas.sol\":1303:1313  msg.sender */\n      caller\n        /* \"Solidity_BD2/casaApuestas.sol\":1303:1326  msg.sender == anfitrion */\n      0xffffffffffffffffffffffffffffffffffffffff\n      and\n      eq\n        /* \"Solidity_BD2/casaApuestas.sol\":1295:1365  require(msg.sender == anfitrion, \"El invocador debe ser el anfitrion\") */\n      tag_272\n      jumpi\n      mload(0x40)\n      0x08c379a000000000000000000000000000000000000000000000000000000000\n      dup2\n      mstore\n      0x04\n      add\n      dup1\n      dup1\n      0x20\n      add\n      dup3\n      dup2\n      sub\n      dup3\n      mstore\n      0x22\n      dup2\n      mstore\n      0x20\n      add\n      dup1\n      data_445dd79b894b98a34a1cc7c38a5bd2de2e19478d6390b1e445457362fd7001d8\n      0x22\n      swap2\n      codecopy\n      0x40\n      add\n      swap2\n      pop\n      pop\n      mload(0x40)\n      dup1\n      swap2\n      sub\n      swap1\n      revert\n    tag_272:\n        /* \"Solidity_BD2/casaApuestas.sol\":4790:4797  _codigo */\n      dup2\n        /* \"Solidity_BD2/casaApuestas.sol\":2768:2769  0 */\n      0x00\n        /* \"Solidity_BD2/casaApuestas.sol\":2728:2736  caballos */\n      0x03\n        /* \"Solidity_BD2/casaApuestas.sol\":2728:2749  caballos[_codCaballo] */\n      0x00\n        /* \"Solidity_BD2/casaApuestas.sol\":2737:2748  _codCaballo */\n      dup4\n        /* \"Solidity_BD2/casaApuestas.sol\":2728:2749  caballos[_codCaballo] */\n      dup2\n      mstore\n      0x20\n      add\n      swap1\n      dup2\n      mstore\n      0x20\n      add\n      0x00\n      keccak256\n        /* \"Solidity_BD2/casaApuestas.sol\":2728:2756  caballos[_codCaballo].nombre */\n      0x01\n      add\n        /* \"Solidity_BD2/casaApuestas.sol\":2722:2764  bytes(caballos[_codCaballo].nombre).length */\n      dup1\n      sload\n      0x01\n      dup2\n      0x01\n      and\n      iszero\n      0x0100\n      mul\n      sub\n      and\n      0x02\n      swap1\n      div\n      swap1\n      pop\n        /* \"Solidity_BD2/casaApuestas.sol\":2722:2769  bytes(caballos[_codCaballo].nombre).length == 0 */\n      eq\n        /* \"Solidity_BD2/casaApuestas.sol\":2714:2811  require(bytes(caballos[_codCaballo].nombre).length == 0, \"Ya existe un caballo con este código\") */\n      tag_274\n      jumpi\n      mload(0x40)\n      0x08c379a000000000000000000000000000000000000000000000000000000000\n      dup2\n      mstore\n      0x04\n      add\n      dup1\n      dup1\n      0x20\n      add\n      dup3\n      dup2\n      sub\n      dup3\n      mstore\n      0x25\n      dup2\n      mstore\n      0x20\n      add\n      dup1\n      data_d6db3988662478777908c1e662b2ec848309dbbd995b7b6deab44e369aa15534\n      0x25\n      swap2\n      codecopy\n      0x40\n      add\n      swap2\n      pop\n      pop\n      mload(0x40)\n      dup1\n      swap2\n      sub\n      swap1\n      revert\n    tag_274:\n        /* \"Solidity_BD2/casaApuestas.sol\":4829:4854  Caballo(_codigo, _nombre) */\n      mload(0x40)\n      dup1\n      0x40\n      add\n      0x40\n      mstore\n      dup1\n        /* \"Solidity_BD2/casaApuestas.sol\":4837:4844  _codigo */\n      dup5\n        /* \"Solidity_BD2/casaApuestas.sol\":4829:4854  Caballo(_codigo, _nombre) */\n      dup2\n      mstore\n      0x20\n      add\n        /* \"Solidity_BD2/casaApuestas.sol\":4846:4853  _nombre */\n      dup4\n        /* \"Solidity_BD2/casaApuestas.sol\":4829:4854  Caballo(_codigo, _nombre) */\n      dup2\n      mstore\n      pop\n        /* \"Solidity_BD2/casaApuestas.sol\":4809:4817  caballos */\n      0x03\n        /* \"Solidity_BD2/casaApuestas.sol\":4809:4826  caballos[_codigo] */\n      0x00\n        /* \"Solidity_BD2/casaApuestas.sol\":4818:4825  _codigo */\n      dup6\n        /* \"Solidity_BD2/casaApuestas.sol\":4809:4826  caballos[_codigo] */\n      dup2\n      mstore\n      0x20\n      add\n      swap1\n      dup2\n      mstore\n      0x20\n      add\n      0x00\n      keccak256\n        /* \"Solidity_BD2/casaApuestas.sol\":4809:4854  caballos[_codigo] = Caballo(_codigo, _nombre) */\n      0x00\n      dup3\n      add\n      mload\n      dup2\n      0x00\n      add\n      sstore\n      0x20\n      dup3\n      add\n      mload\n      dup2\n      0x01\n      add\n      swap1\n      dup1\n      mload\n      swap1\n      0x20\n      add\n      swap1\n      tag_276\n      swap3\n      swap2\n      swap1\n      tag_277\n      jump\t// in\n    tag_276:\n      pop\n      swap1\n      pop\n      pop\n        /* \"Solidity_BD2/casaApuestas.sol\":1376:1377  _ */\n      pop\n        /* \"Solidity_BD2/casaApuestas.sol\":4681:4862  function registrarCaballo(uint _codigo, string memory _nombre) public \r... */\n      pop\n      pop\n      jump\t// out\n        /* \"Solidity_BD2/casaApuestas.sol\":200:240  mapping(uint => Carrera) public carreras */\n    tag_58:\n      mstore(0x20, 0x02)\n      dup1\n      0x00\n      mstore\n      keccak256(0x00, 0x40)\n      0x00\n      swap2\n      pop\n      swap1\n      pop\n      dup1\n      0x00\n      add\n      sload\n      swap1\n      dup1\n      0x01\n      add\n      dup1\n      sload\n      0x01\n      dup2\n      0x01\n      and\n      iszero\n      0x0100\n      mul\n      sub\n      and\n      0x02\n      swap1\n      div\n      dup1\n      0x1f\n      add\n      0x20\n      dup1\n      swap2\n      div\n      mul\n      0x20\n      add\n      mload(0x40)\n      swap1\n      dup2\n      add\n      0x40\n      mstore\n      dup1\n      swap3\n      swap2\n      swap1\n      dup2\n      dup2\n      mstore\n      0x20\n      add\n      dup3\n      dup1\n      sload\n      0x01\n      dup2\n      0x01\n      and\n      iszero\n      0x0100\n      mul\n      sub\n      and\n      0x02\n      swap1\n      div\n      dup1\n      iszero\n      tag_278\n      jumpi\n      dup1\n      0x1f\n      lt\n      tag_279\n      jumpi\n      0x0100\n      dup1\n      dup4\n      sload\n      div\n      mul\n      dup4\n      mstore\n      swap2\n      0x20\n      add\n      swap2\n      jump(tag_278)\n    tag_279:\n      dup3\n      add\n      swap2\n      swap1\n      0x00\n      mstore\n      keccak256(0x00, 0x20)\n      swap1\n    tag_280:\n      dup2\n      sload\n      dup2\n      mstore\n      swap1\n      0x01\n      add\n      swap1\n      0x20\n      add\n      dup1\n      dup4\n      gt\n      tag_280\n      jumpi\n      dup3\n      swap1\n      sub\n      0x1f\n      and\n      dup3\n      add\n      swap2\n    tag_278:\n      pop\n      pop\n      pop\n      pop\n      pop\n      swap1\n      dup1\n      0x02\n      add\n      0x00\n      swap1\n      sload\n      swap1\n      0x0100\n      exp\n      swap1\n      div\n      0xff\n      and\n      swap1\n      dup1\n      0x03\n      add\n      sload\n      swap1\n      dup1\n      0x04\n      add\n      sload\n      swap1\n      dup1\n      0x05\n      add\n      sload\n      swap1\n      pop\n      dup7\n      jump\t// out\n        /* \"Solidity_BD2/casaApuestas.sol\":12007:12226  function getCaballoGanador(uint _codCarrera) public \r... */\n    tag_67:\n        /* \"Solidity_BD2/casaApuestas.sol\":12156:12160  uint */\n      0x00\n        /* \"Solidity_BD2/casaApuestas.sol\":12079:12090  _codCarrera */\n      dup2\n        /* \"Solidity_BD2/casaApuestas.sol\":2597:2598  0 */\n      0x00\n        /* \"Solidity_BD2/casaApuestas.sol\":2557:2565  carreras */\n      0x02\n        /* \"Solidity_BD2/casaApuestas.sol\":2557:2578  carreras[_codCarrera] */\n      0x00\n        /* \"Solidity_BD2/casaApuestas.sol\":2566:2577  _codCarrera */\n      dup4\n        /* \"Solidity_BD2/casaApuestas.sol\":2557:2578  carreras[_codCarrera] */\n      dup2\n      mstore\n      0x20\n      add\n      swap1\n      dup2\n      mstore\n      0x20\n      add\n      0x00\n      keccak256\n        /* \"Solidity_BD2/casaApuestas.sol\":2557:2585  carreras[_codCarrera].nombre */\n      0x01\n      add\n        /* \"Solidity_BD2/casaApuestas.sol\":2551:2593  bytes(carreras[_codCarrera].nombre).length */\n      dup1\n      sload\n      0x01\n      dup2\n      0x01\n      and\n      iszero\n      0x0100\n      mul\n      sub\n      and\n      0x02\n      swap1\n      div\n      swap1\n      pop\n        /* \"Solidity_BD2/casaApuestas.sol\":2551:2598  bytes(carreras[_codCarrera].nombre).length != 0 */\n      eq\n      iszero\n        /* \"Solidity_BD2/casaApuestas.sol\":2543:2633  require(bytes(carreras[_codCarrera].nombre).length != 0, \"La carrera ingresada no existe\") */\n      tag_282\n      jumpi\n      mload(0x40)\n      0x08c379a000000000000000000000000000000000000000000000000000000000\n      dup2\n      mstore\n      0x04\n      add\n      dup1\n      dup1\n      0x20\n      add\n      dup3\n      dup2\n      sub\n      dup3\n      mstore\n      0x1e\n      dup2\n      mstore\n      0x20\n      add\n      dup1\n      0x4c61206361727265726120696e67726573616461206e6f206578697374650000\n      dup2\n      mstore\n      pop\n      0x20\n      add\n      swap2\n      pop\n      pop\n      mload(0x40)\n      dup1\n      swap2\n      sub\n      swap1\n      revert\n    tag_282:\n        /* \"Solidity_BD2/casaApuestas.sol\":12107:12118  _codCarrera */\n      dup3\n        /* \"Solidity_BD2/casaApuestas.sol\":12120:12136  Estado.Terminada */\n      0x02\n        /* \"Solidity_BD2/casaApuestas.sol\":1783:1790  _estado */\n      dup1\n        /* \"Solidity_BD2/casaApuestas.sol\":1744:1790  carreras[_codCarrera].estadoCarrera == _estado */\n      0x02\n      dup2\n      gt\n      iszero\n      tag_284\n      jumpi\n      invalid\n    tag_284:\n        /* \"Solidity_BD2/casaApuestas.sol\":1744:1752  carreras */\n      0x02\n        /* \"Solidity_BD2/casaApuestas.sol\":1744:1765  carreras[_codCarrera] */\n      0x00\n        /* \"Solidity_BD2/casaApuestas.sol\":1753:1764  _codCarrera */\n      dup5\n        /* \"Solidity_BD2/casaApuestas.sol\":1744:1765  carreras[_codCarrera] */\n      dup2\n      mstore\n      0x20\n      add\n      swap1\n      dup2\n      mstore\n      0x20\n      add\n      0x00\n      keccak256\n        /* \"Solidity_BD2/casaApuestas.sol\":1744:1779  carreras[_codCarrera].estadoCarrera */\n      0x02\n      add\n      0x00\n      swap1\n      sload\n      swap1\n      0x0100\n      exp\n      swap1\n      div\n      0xff\n      and\n        /* \"Solidity_BD2/casaApuestas.sol\":1744:1790  carreras[_codCarrera].estadoCarrera == _estado */\n      0x02\n      dup2\n      gt\n      iszero\n      tag_285\n      jumpi\n      invalid\n    tag_285:\n      eq\n        /* \"Solidity_BD2/casaApuestas.sol\":1736:1839  require(carreras[_codCarrera].estadoCarrera == _estado, \"La carrera no cumple con el estado requerido\") */\n      tag_286\n      jumpi\n      mload(0x40)\n      0x08c379a000000000000000000000000000000000000000000000000000000000\n      dup2\n      mstore\n      0x04\n      add\n      dup1\n      dup1\n      0x20\n      add\n      dup3\n      dup2\n      sub\n      dup3\n      mstore\n      0x2c\n      dup2\n      mstore\n      0x20\n      add\n      dup1\n      data_e91ca438e9e3f1e0e0a5b1a72a508ed5ae254b3cb59572817ac1ec6e2a488952\n      0x2c\n      swap2\n      codecopy\n      0x40\n      add\n      swap2\n      pop\n      pop\n      mload(0x40)\n      dup1\n      swap2\n      sub\n      swap1\n      revert\n    tag_286:\n        /* \"Solidity_BD2/casaApuestas.sol\":12181:12189  carreras */\n      0x02\n        /* \"Solidity_BD2/casaApuestas.sol\":12181:12202  carreras[_codCarrera] */\n      0x00\n        /* \"Solidity_BD2/casaApuestas.sol\":12190:12201  _codCarrera */\n      dup7\n        /* \"Solidity_BD2/casaApuestas.sol\":12181:12202  carreras[_codCarrera] */\n      dup2\n      mstore\n      0x20\n      add\n      swap1\n      dup2\n      mstore\n      0x20\n      add\n      0x00\n      keccak256\n        /* \"Solidity_BD2/casaApuestas.sol\":12181:12217  carreras[_codCarrera].caballoGanador */\n      0x05\n      add\n      sload\n        /* \"Solidity_BD2/casaApuestas.sol\":12173:12218  return (carreras[_codCarrera].caballoGanador) */\n      swap4\n      pop\n        /* \"Solidity_BD2/casaApuestas.sol\":2644:2645  _ */\n      pop\n      pop\n        /* \"Solidity_BD2/casaApuestas.sol\":12007:12226  function getCaballoGanador(uint _codCarrera) public \r... */\n      pop\n      swap2\n      swap1\n      pop\n      jump\t// out\n        /* \"Solidity_BD2/casaApuestas.sol\":11761:11999  function getAddressApostador(uint _indiceApostador, uint _codCarrera) public \r... */\n    tag_71:\n        /* \"Solidity_BD2/casaApuestas.sol\":11923:11930  address */\n      0x00\n        /* \"Solidity_BD2/casaApuestas.sol\":11858:11869  _codCarrera */\n      dup2\n        /* \"Solidity_BD2/casaApuestas.sol\":2597:2598  0 */\n      0x00\n        /* \"Solidity_BD2/casaApuestas.sol\":2557:2565  carreras */\n      0x02\n        /* \"Solidity_BD2/casaApuestas.sol\":2557:2578  carreras[_codCarrera] */\n      0x00\n        /* \"Solidity_BD2/casaApuestas.sol\":2566:2577  _codCarrera */\n      dup4\n        /* \"Solidity_BD2/casaApuestas.sol\":2557:2578  carreras[_codCarrera] */\n      dup2\n      mstore\n      0x20\n      add\n      swap1\n      dup2\n      mstore\n      0x20\n      add\n      0x00\n      keccak256\n        /* \"Solidity_BD2/casaApuestas.sol\":2557:2585  carreras[_codCarrera].nombre */\n      0x01\n      add\n        /* \"Solidity_BD2/casaApuestas.sol\":2551:2593  bytes(carreras[_codCarrera].nombre).length */\n      dup1\n      sload\n      0x01\n      dup2\n      0x01\n      and\n      iszero\n      0x0100\n      mul\n      sub\n      and\n      0x02\n      swap1\n      div\n      swap1\n      pop\n        /* \"Solidity_BD2/casaApuestas.sol\":2551:2598  bytes(carreras[_codCarrera].nombre).length != 0 */\n      eq\n      iszero\n        /* \"Solidity_BD2/casaApuestas.sol\":2543:2633  require(bytes(carreras[_codCarrera].nombre).length != 0, \"La carrera ingresada no existe\") */\n      tag_289\n      jumpi\n      mload(0x40)\n      0x08c379a000000000000000000000000000000000000000000000000000000000\n      dup2\n      mstore\n      0x04\n      add\n      dup1\n      dup1\n      0x20\n      add\n      dup3\n      dup2\n      sub\n      dup3\n      mstore\n      0x1e\n      dup2\n      mstore\n      0x20\n      add\n      dup1\n      0x4c61206361727265726120696e67726573616461206e6f206578697374650000\n      dup2\n      mstore\n      pop\n      0x20\n      add\n      swap2\n      pop\n      pop\n      mload(0x40)\n      dup1\n      swap2\n      sub\n      swap1\n      revert\n    tag_289:\n        /* \"Solidity_BD2/casaApuestas.sol\":11892:11903  _codCarrera */\n      dup3\n        /* \"Solidity_BD2/casaApuestas.sol\":4368:4369  0 */\n      0x00\n        /* \"Solidity_BD2/casaApuestas.sol\":4334:4345  apostadores */\n      0x05\n        /* \"Solidity_BD2/casaApuestas.sol\":4334:4358  apostadores[_codCarrera] */\n      0x00\n        /* \"Solidity_BD2/casaApuestas.sol\":4346:4357  _codCarrera */\n      dup4\n        /* \"Solidity_BD2/casaApuestas.sol\":4334:4358  apostadores[_codCarrera] */\n      dup2\n      mstore\n      0x20\n      add\n      swap1\n      dup2\n      mstore\n      0x20\n      add\n      0x00\n      keccak256\n        /* \"Solidity_BD2/casaApuestas.sol\":4334:4365  apostadores[_codCarrera].length */\n      dup1\n      sload\n      swap1\n      pop\n        /* \"Solidity_BD2/casaApuestas.sol\":4334:4369  apostadores[_codCarrera].length > 0 */\n      gt\n        /* \"Solidity_BD2/casaApuestas.sol\":4326:4415  require(apostadores[_codCarrera].length > 0, \"La carrera ingresada no tiene apostadores\") */\n      tag_291\n      jumpi\n      mload(0x40)\n      0x08c379a000000000000000000000000000000000000000000000000000000000\n      dup2\n      mstore\n      0x04\n      add\n      dup1\n      dup1\n      0x20\n      add\n      dup3\n      dup2\n      sub\n      dup3\n      mstore\n      0x29\n      dup2\n      mstore\n      0x20\n      add\n      dup1\n      data_90d24e0daaf5dcc457b4940b4ca16d8fd57765162f8ffee460d8a22da7c775e1\n      0x29\n      swap2\n      codecopy\n      0x40\n      add\n      swap2\n      pop\n      pop\n      mload(0x40)\n      dup1\n      swap2\n      sub\n      swap1\n      revert\n    tag_291:\n        /* \"Solidity_BD2/casaApuestas.sol\":11949:11960  apostadores */\n      0x05\n        /* \"Solidity_BD2/casaApuestas.sol\":11949:11973  apostadores[_codCarrera] */\n      0x00\n        /* \"Solidity_BD2/casaApuestas.sol\":11961:11972  _codCarrera */\n      dup6\n        /* \"Solidity_BD2/casaApuestas.sol\":11949:11973  apostadores[_codCarrera] */\n      dup2\n      mstore\n      0x20\n      add\n      swap1\n      dup2\n      mstore\n      0x20\n      add\n      0x00\n      keccak256\n        /* \"Solidity_BD2/casaApuestas.sol\":11974:11990  _indiceApostador */\n      dup6\n        /* \"Solidity_BD2/casaApuestas.sol\":11949:11991  apostadores[_codCarrera][_indiceApostador] */\n      dup2\n      sload\n      dup2\n      lt\n      tag_293\n      jumpi\n      invalid\n    tag_293:\n      swap1\n      0x00\n      mstore\n      keccak256(0x00, 0x20)\n      add\n      0x00\n      swap1\n      sload\n      swap1\n      0x0100\n      exp\n      swap1\n      div\n      0xffffffffffffffffffffffffffffffffffffffff\n      and\n        /* \"Solidity_BD2/casaApuestas.sol\":11942:11991  return apostadores[_codCarrera][_indiceApostador] */\n      swap3\n      pop\n        /* \"Solidity_BD2/casaApuestas.sol\":2644:2645  _ */\n      pop\n        /* \"Solidity_BD2/casaApuestas.sol\":11761:11999  function getAddressApostador(uint _indiceApostador, uint _codCarrera) public \r... */\n      pop\n      swap3\n      swap2\n      pop\n      pop\n      jump\t// out\n        /* \"Solidity_BD2/casaApuestas.sol\":438:483  mapping(uint => address[]) public apostadores */\n    tag_75:\n      mstore(0x20, 0x05)\n      dup2\n      0x00\n      mstore\n      keccak256(0x00, 0x40)\n      dup2\n      dup2\n      sload\n      dup2\n      lt\n      tag_295\n      jumpi\n      invalid\n    tag_295:\n      swap1\n      0x00\n      mstore\n      keccak256(0x00, 0x20)\n      add\n      0x00\n      swap2\n      pop\n      swap2\n      pop\n      swap1\n      sload\n      swap1\n      0x0100\n      exp\n      swap1\n      div\n      0xffffffffffffffffffffffffffffffffffffffff\n      and\n      dup2\n      jump\t// out\n        /* \"Solidity_BD2/casaApuestas.sol\":12234:12635  function getEstadoCarrera(uint _codCarrera) public \r... */\n    tag_79:\n        /* \"Solidity_BD2/casaApuestas.sol\":12336:12349  string memory */\n      0x60\n        /* \"Solidity_BD2/casaApuestas.sol\":12305:12316  _codCarrera */\n      dup2\n        /* \"Solidity_BD2/casaApuestas.sol\":2597:2598  0 */\n      0x00\n        /* \"Solidity_BD2/casaApuestas.sol\":2557:2565  carreras */\n      0x02\n        /* \"Solidity_BD2/casaApuestas.sol\":2557:2578  carreras[_codCarrera] */\n      0x00\n        /* \"Solidity_BD2/casaApuestas.sol\":2566:2577  _codCarrera */\n      dup4\n        /* \"Solidity_BD2/casaApuestas.sol\":2557:2578  carreras[_codCarrera] */\n      dup2\n      mstore\n      0x20\n      add\n      swap1\n      dup2\n      mstore\n      0x20\n      add\n      0x00\n      keccak256\n        /* \"Solidity_BD2/casaApuestas.sol\":2557:2585  carreras[_codCarrera].nombre */\n      0x01\n      add\n        /* \"Solidity_BD2/casaApuestas.sol\":2551:2593  bytes(carreras[_codCarrera].nombre).length */\n      dup1\n      sload\n      0x01\n      dup2\n      0x01\n      and\n      iszero\n      0x0100\n      mul\n      sub\n      and\n      0x02\n      swap1\n      div\n      swap1\n      pop\n        /* \"Solidity_BD2/casaApuestas.sol\":2551:2598  bytes(carreras[_codCarrera].nombre).length != 0 */\n      eq\n      iszero\n        /* \"Solidity_BD2/casaApuestas.sol\":2543:2633  require(bytes(carreras[_codCarrera].nombre).length != 0, \"La carrera ingresada no existe\") */\n      tag_298\n      jumpi\n      mload(0x40)\n      0x08c379a000000000000000000000000000000000000000000000000000000000\n      dup2\n      mstore\n      0x04\n      add\n      dup1\n      dup1\n      0x20\n      add\n      dup3\n      dup2\n      sub\n      dup3\n      mstore\n      0x1e\n      dup2\n      mstore\n      0x20\n      add\n      dup1\n      0x4c61206361727265726120696e67726573616461206e6f206578697374650000\n      dup2\n      mstore\n      pop\n      0x20\n      add\n      swap2\n      pop\n      pop\n      mload(0x40)\n      dup1\n      swap2\n      sub\n      swap1\n      revert\n    tag_298:\n        /* \"Solidity_BD2/casaApuestas.sol\":12405:12418  Estado.Creada */\n      0x00\n        /* \"Solidity_BD2/casaApuestas.sol\":12366:12418  carreras[_codCarrera].estadoCarrera == Estado.Creada */\n      0x02\n      dup2\n      gt\n      iszero\n      tag_300\n      jumpi\n      invalid\n    tag_300:\n        /* \"Solidity_BD2/casaApuestas.sol\":12366:12374  carreras */\n      0x02\n        /* \"Solidity_BD2/casaApuestas.sol\":12366:12387  carreras[_codCarrera] */\n      0x00\n        /* \"Solidity_BD2/casaApuestas.sol\":12375:12386  _codCarrera */\n      dup6\n        /* \"Solidity_BD2/casaApuestas.sol\":12366:12387  carreras[_codCarrera] */\n      dup2\n      mstore\n      0x20\n      add\n      swap1\n      dup2\n      mstore\n      0x20\n      add\n      0x00\n      keccak256\n        /* \"Solidity_BD2/casaApuestas.sol\":12366:12401  carreras[_codCarrera].estadoCarrera */\n      0x02\n      add\n      0x00\n      swap1\n      sload\n      swap1\n      0x0100\n      exp\n      swap1\n      div\n      0xff\n      and\n        /* \"Solidity_BD2/casaApuestas.sol\":12366:12418  carreras[_codCarrera].estadoCarrera == Estado.Creada */\n      0x02\n      dup2\n      gt\n      iszero\n      tag_301\n      jumpi\n      invalid\n    tag_301:\n      eq\n        /* \"Solidity_BD2/casaApuestas.sol\":12362:12628  if (carreras[_codCarrera].estadoCarrera == Estado.Creada){\r... */\n      iszero\n      tag_302\n      jumpi\n        /* \"Solidity_BD2/casaApuestas.sol\":12434:12451  return (\"Creada\") */\n      mload(0x40)\n      dup1\n      0x40\n      add\n      0x40\n      mstore\n      dup1\n      0x06\n      dup2\n      mstore\n      0x20\n      add\n      0x4372656164610000000000000000000000000000000000000000000000000000\n      dup2\n      mstore\n      pop\n      swap2\n      pop\n      jump(tag_299)\n        /* \"Solidity_BD2/casaApuestas.sol\":12362:12628  if (carreras[_codCarrera].estadoCarrera == Estado.Creada){\r... */\n    tag_302:\n        /* \"Solidity_BD2/casaApuestas.sol\":12511:12528  Estado.Registrada */\n      0x01\n        /* \"Solidity_BD2/casaApuestas.sol\":12472:12528  carreras[_codCarrera].estadoCarrera == Estado.Registrada */\n      0x02\n      dup2\n      gt\n      iszero\n      tag_304\n      jumpi\n      invalid\n    tag_304:\n        /* \"Solidity_BD2/casaApuestas.sol\":12472:12480  carreras */\n      0x02\n        /* \"Solidity_BD2/casaApuestas.sol\":12472:12493  carreras[_codCarrera] */\n      0x00\n        /* \"Solidity_BD2/casaApuestas.sol\":12481:12492  _codCarrera */\n      dup6\n        /* \"Solidity_BD2/casaApuestas.sol\":12472:12493  carreras[_codCarrera] */\n      dup2\n      mstore\n      0x20\n      add\n      swap1\n      dup2\n      mstore\n      0x20\n      add\n      0x00\n      keccak256\n        /* \"Solidity_BD2/casaApuestas.sol\":12472:12507  carreras[_codCarrera].estadoCarrera */\n      0x02\n      add\n      0x00\n      swap1\n      sload\n      swap1\n      0x0100\n      exp\n      swap1\n      div\n      0xff\n      and\n        /* \"Solidity_BD2/casaApuestas.sol\":12472:12528  carreras[_codCarrera].estadoCarrera == Estado.Registrada */\n      0x02\n      dup2\n      gt\n      iszero\n      tag_305\n      jumpi\n      invalid\n    tag_305:\n      eq\n        /* \"Solidity_BD2/casaApuestas.sol\":12468:12628  if (carreras[_codCarrera].estadoCarrera == Estado.Registrada){\r... */\n      iszero\n      tag_306\n      jumpi\n        /* \"Solidity_BD2/casaApuestas.sol\":12544:12565  return (\"Registrada\") */\n      mload(0x40)\n      dup1\n      0x40\n      add\n      0x40\n      mstore\n      dup1\n      0x0a\n      dup2\n      mstore\n      0x20\n      add\n      0x5265676973747261646100000000000000000000000000000000000000000000\n      dup2\n      mstore\n      pop\n      swap2\n      pop\n      jump(tag_299)\n        /* \"Solidity_BD2/casaApuestas.sol\":12468:12628  if (carreras[_codCarrera].estadoCarrera == Estado.Registrada){\r... */\n    tag_306:\n        /* \"Solidity_BD2/casaApuestas.sol\":12596:12616  return (\"Terminada\") */\n      mload(0x40)\n      dup1\n      0x40\n      add\n      0x40\n      mstore\n      dup1\n      0x09\n      dup2\n      mstore\n      0x20\n      add\n      0x5465726d696e6164610000000000000000000000000000000000000000000000\n      dup2\n      mstore\n      pop\n      swap2\n      pop\n        /* \"Solidity_BD2/casaApuestas.sol\":2644:2645  _ */\n    tag_299:\n        /* \"Solidity_BD2/casaApuestas.sol\":12234:12635  function getEstadoCarrera(uint _codCarrera) public \r... */\n      pop\n      swap2\n      swap1\n      pop\n      jump\t// out\n        /* \"Solidity_BD2/casaApuestas.sol\":135:160  uint public totalCarreras */\n    tag_86:\n      sload(0x01)\n      dup2\n      jump\t// out\n        /* \"Solidity_BD2/casaApuestas.sol\":269:309  mapping(uint => Caballo) public caballos */\n    tag_90:\n      mstore(0x20, 0x03)\n      dup1\n      0x00\n      mstore\n      keccak256(0x00, 0x40)\n      0x00\n      swap2\n      pop\n      swap1\n      pop\n      dup1\n      0x00\n      add\n      sload\n      swap1\n      dup1\n      0x01\n      add\n      dup1\n      sload\n      0x01\n      dup2\n      0x01\n      and\n      iszero\n      0x0100\n      mul\n      sub\n      and\n      0x02\n      swap1\n      div\n      dup1\n      0x1f\n      add\n      0x20\n      dup1\n      swap2\n      div\n      mul\n      0x20\n      add\n      mload(0x40)\n      swap1\n      dup2\n      add\n      0x40\n      mstore\n      dup1\n      swap3\n      swap2\n      swap1\n      dup2\n      dup2\n      mstore\n      0x20\n      add\n      dup3\n      dup1\n      sload\n      0x01\n      dup2\n      0x01\n      and\n      iszero\n      0x0100\n      mul\n      sub\n      and\n      0x02\n      swap1\n      div\n      dup1\n      iszero\n      tag_308\n      jumpi\n      dup1\n      0x1f\n      lt\n      tag_309\n      jumpi\n      0x0100\n      dup1\n      dup4\n      sload\n      div\n      mul\n      dup4\n      mstore\n      swap2\n      0x20\n      add\n      swap2\n      jump(tag_308)\n    tag_309:\n      dup3\n      add\n      swap2\n      swap1\n      0x00\n      mstore\n      keccak256(0x00, 0x20)\n      swap1\n    tag_310:\n      dup2\n      sload\n      dup2\n      mstore\n      swap1\n      0x01\n      add\n      swap1\n      0x20\n      add\n      dup1\n      dup4\n      gt\n      tag_310\n      jumpi\n      dup3\n      swap1\n      sub\n      0x1f\n      and\n      dup3\n      add\n      swap2\n    tag_308:\n      pop\n      pop\n      pop\n      pop\n      pop\n      swap1\n      pop\n      dup3\n      jump\t// out\n        /* \"Solidity_BD2/casaApuestas.sol\":5558:6778  function apostar(uint _codCaballo, uint _codCarrera) payable public \r... */\n    tag_97:\n        /* \"Solidity_BD2/casaApuestas.sol\":1505:1514  anfitrion */\n      0x00\n      dup1\n      swap1\n      sload\n      swap1\n      0x0100\n      exp\n      swap1\n      div\n      0xffffffffffffffffffffffffffffffffffffffff\n      and\n        /* \"Solidity_BD2/casaApuestas.sol\":1491:1514  msg.sender != anfitrion */\n      0xffffffffffffffffffffffffffffffffffffffff\n      and\n        /* \"Solidity_BD2/casaApuestas.sol\":1491:1501  msg.sender */\n      caller\n        /* \"Solidity_BD2/casaApuestas.sol\":1491:1514  msg.sender != anfitrion */\n      0xffffffffffffffffffffffffffffffffffffffff\n      and\n      eq\n      iszero\n        /* \"Solidity_BD2/casaApuestas.sol\":1483:1574  require(msg.sender != anfitrion, \"El invocador debe ser un usuario diferente al anfitrion\") */\n      tag_312\n      jumpi\n      mload(0x40)\n      0x08c379a000000000000000000000000000000000000000000000000000000000\n      dup2\n      mstore\n      0x04\n      add\n      dup1\n      dup1\n      0x20\n      add\n      dup3\n      dup2\n      sub\n      dup3\n      mstore\n      0x37\n      dup2\n      mstore\n      0x20\n      add\n      dup1\n      data_c258d99636b674a8c760b7677c129033d423282c7394402c18f597a1eab563a1\n      0x37\n      swap2\n      codecopy\n      0x40\n      add\n      swap2\n      pop\n      pop\n      mload(0x40)\n      dup1\n      swap2\n      sub\n      swap1\n      revert\n    tag_312:\n        /* \"Solidity_BD2/casaApuestas.sol\":5662:5673  _codCarrera */\n      dup1\n        /* \"Solidity_BD2/casaApuestas.sol\":5675:5692  Estado.Registrada */\n      0x01\n        /* \"Solidity_BD2/casaApuestas.sol\":1783:1790  _estado */\n      dup1\n        /* \"Solidity_BD2/casaApuestas.sol\":1744:1790  carreras[_codCarrera].estadoCarrera == _estado */\n      0x02\n      dup2\n      gt\n      iszero\n      tag_314\n      jumpi\n      invalid\n    tag_314:\n        /* \"Solidity_BD2/casaApuestas.sol\":1744:1752  carreras */\n      0x02\n        /* \"Solidity_BD2/casaApuestas.sol\":1744:1765  carreras[_codCarrera] */\n      0x00\n        /* \"Solidity_BD2/casaApuestas.sol\":1753:1764  _codCarrera */\n      dup5\n        /* \"Solidity_BD2/casaApuestas.sol\":1744:1765  carreras[_codCarrera] */\n      dup2\n      mstore\n      0x20\n      add\n      swap1\n      dup2\n      mstore\n      0x20\n      add\n      0x00\n      keccak256\n        /* \"Solidity_BD2/casaApuestas.sol\":1744:1779  carreras[_codCarrera].estadoCarrera */\n      0x02\n      add\n      0x00\n      swap1\n      sload\n      swap1\n      0x0100\n      exp\n      swap1\n      div\n      0xff\n      and\n        /* \"Solidity_BD2/casaApuestas.sol\":1744:1790  carreras[_codCarrera].estadoCarrera == _estado */\n      0x02\n      dup2\n      gt\n      iszero\n      tag_315\n      jumpi\n      invalid\n    tag_315:\n      eq\n        /* \"Solidity_BD2/casaApuestas.sol\":1736:1839  require(carreras[_codCarrera].estadoCarrera == _estado, \"La carrera no cumple con el estado requerido\") */\n      tag_316\n      jumpi\n      mload(0x40)\n      0x08c379a000000000000000000000000000000000000000000000000000000000\n      dup2\n      mstore\n      0x04\n      add\n      dup1\n      dup1\n      0x20\n      add\n      dup3\n      dup2\n      sub\n      dup3\n      mstore\n      0x2c\n      dup2\n      mstore\n      0x20\n      add\n      dup1\n      data_e91ca438e9e3f1e0e0a5b1a72a508ed5ae254b3cb59572817ac1ec6e2a488952\n      0x2c\n      swap2\n      codecopy\n      0x40\n      add\n      swap2\n      pop\n      pop\n      mload(0x40)\n      dup1\n      swap2\n      sub\n      swap1\n      revert\n    tag_316:\n        /* \"Solidity_BD2/casaApuestas.sol\":5713:5724  _codCaballo */\n      dup4\n        /* \"Solidity_BD2/casaApuestas.sol\":2428:2429  0 */\n      0x00\n        /* \"Solidity_BD2/casaApuestas.sol\":2388:2396  caballos */\n      0x03\n        /* \"Solidity_BD2/casaApuestas.sol\":2388:2409  caballos[_codCaballo] */\n      0x00\n        /* \"Solidity_BD2/casaApuestas.sol\":2397:2408  _codCaballo */\n      dup4\n        /* \"Solidity_BD2/casaApuestas.sol\":2388:2409  caballos[_codCaballo] */\n      dup2\n      mstore\n      0x20\n      add\n      swap1\n      dup2\n      mstore\n      0x20\n      add\n      0x00\n      keccak256\n        /* \"Solidity_BD2/casaApuestas.sol\":2388:2416  caballos[_codCaballo].nombre */\n      0x01\n      add\n        /* \"Solidity_BD2/casaApuestas.sol\":2382:2424  bytes(caballos[_codCaballo].nombre).length */\n      dup1\n      sload\n      0x01\n      dup2\n      0x01\n      and\n      iszero\n      0x0100\n      mul\n      sub\n      and\n      0x02\n      swap1\n      div\n      swap1\n      pop\n        /* \"Solidity_BD2/casaApuestas.sol\":2382:2429  bytes(caballos[_codCaballo].nombre).length != 0 */\n      eq\n      iszero\n        /* \"Solidity_BD2/casaApuestas.sol\":2374:2464  require(bytes(caballos[_codCaballo].nombre).length != 0, \"El caballo ingresado no existe\") */\n      tag_318\n      jumpi\n      mload(0x40)\n      0x08c379a000000000000000000000000000000000000000000000000000000000\n      dup2\n      mstore\n      0x04\n      add\n      dup1\n      dup1\n      0x20\n      add\n      dup3\n      dup2\n      sub\n      dup3\n      mstore\n      0x1e\n      dup2\n      mstore\n      0x20\n      add\n      dup1\n      0x456c20636162616c6c6f20696e6772657361646f206e6f206578697374650000\n      dup2\n      mstore\n      pop\n      0x20\n      add\n      swap2\n      pop\n      pop\n      mload(0x40)\n      dup1\n      swap2\n      sub\n      swap1\n      revert\n    tag_318:\n        /* \"Solidity_BD2/casaApuestas.sol\":5745:5756  _codCarrera */\n      dup4\n        /* \"Solidity_BD2/casaApuestas.sol\":2597:2598  0 */\n      0x00\n        /* \"Solidity_BD2/casaApuestas.sol\":2557:2565  carreras */\n      0x02\n        /* \"Solidity_BD2/casaApuestas.sol\":2557:2578  carreras[_codCarrera] */\n      0x00\n        /* \"Solidity_BD2/casaApuestas.sol\":2566:2577  _codCarrera */\n      dup4\n        /* \"Solidity_BD2/casaApuestas.sol\":2557:2578  carreras[_codCarrera] */\n      dup2\n      mstore\n      0x20\n      add\n      swap1\n      dup2\n      mstore\n      0x20\n      add\n      0x00\n      keccak256\n        /* \"Solidity_BD2/casaApuestas.sol\":2557:2585  carreras[_codCarrera].nombre */\n      0x01\n      add\n        /* \"Solidity_BD2/casaApuestas.sol\":2551:2593  bytes(carreras[_codCarrera].nombre).length */\n      dup1\n      sload\n      0x01\n      dup2\n      0x01\n      and\n      iszero\n      0x0100\n      mul\n      sub\n      and\n      0x02\n      swap1\n      div\n      swap1\n      pop\n        /* \"Solidity_BD2/casaApuestas.sol\":2551:2598  bytes(carreras[_codCarrera].nombre).length != 0 */\n      eq\n      iszero\n        /* \"Solidity_BD2/casaApuestas.sol\":2543:2633  require(bytes(carreras[_codCarrera].nombre).length != 0, \"La carrera ingresada no existe\") */\n      tag_320\n      jumpi\n      mload(0x40)\n      0x08c379a000000000000000000000000000000000000000000000000000000000\n      dup2\n      mstore\n      0x04\n      add\n      dup1\n      dup1\n      0x20\n      add\n      dup3\n      dup2\n      sub\n      dup3\n      mstore\n      0x1e\n      dup2\n      mstore\n      0x20\n      add\n      dup1\n      0x4c61206361727265726120696e67726573616461206e6f206578697374650000\n      dup2\n      mstore\n      pop\n      0x20\n      add\n      swap2\n      pop\n      pop\n      mload(0x40)\n      dup1\n      swap2\n      sub\n      swap1\n      revert\n    tag_320:\n        /* \"Solidity_BD2/casaApuestas.sol\":5780:5791  _codCarrera */\n      dup5\n        /* \"Solidity_BD2/casaApuestas.sol\":5793:5804  _codCaballo */\n      dup7\n        /* \"Solidity_BD2/casaApuestas.sol\":3724:3741  uint cantCaballos */\n      0x00\n        /* \"Solidity_BD2/casaApuestas.sol\":3744:3756  competencias */\n      0x04\n        /* \"Solidity_BD2/casaApuestas.sol\":3744:3769  competencias[_codCarrera] */\n      0x00\n        /* \"Solidity_BD2/casaApuestas.sol\":3757:3768  _codCarrera */\n      dup5\n        /* \"Solidity_BD2/casaApuestas.sol\":3744:3769  competencias[_codCarrera] */\n      dup2\n      mstore\n      0x20\n      add\n      swap1\n      dup2\n      mstore\n      0x20\n      add\n      0x00\n      keccak256\n        /* \"Solidity_BD2/casaApuestas.sol\":3744:3776  competencias[_codCarrera].length */\n      dup1\n      sload\n      swap1\n      pop\n        /* \"Solidity_BD2/casaApuestas.sol\":3724:3776  uint cantCaballos = competencias[_codCarrera].length */\n      swap1\n      pop\n        /* \"Solidity_BD2/casaApuestas.sol\":3787:3805  bool cabEncontrado */\n      0x00\n        /* \"Solidity_BD2/casaApuestas.sol\":3808:3813  false */\n      dup1\n        /* \"Solidity_BD2/casaApuestas.sol\":3787:3813  bool cabEncontrado = false */\n      swap1\n      pop\n        /* \"Solidity_BD2/casaApuestas.sol\":3828:3834  uint i */\n      0x00\n        /* \"Solidity_BD2/casaApuestas.sol\":3837:3838  0 */\n      dup1\n        /* \"Solidity_BD2/casaApuestas.sol\":3828:3838  uint i = 0 */\n      swap1\n      pop\n        /* \"Solidity_BD2/casaApuestas.sol\":3824:4014  for(uint i = 0; i < cantCaballos; i++){\r... */\n    tag_322:\n        /* \"Solidity_BD2/casaApuestas.sol\":3844:3856  cantCaballos */\n      dup3\n        /* \"Solidity_BD2/casaApuestas.sol\":3840:3841  i */\n      dup2\n        /* \"Solidity_BD2/casaApuestas.sol\":3840:3856  i < cantCaballos */\n      lt\n        /* \"Solidity_BD2/casaApuestas.sol\":3824:4014  for(uint i = 0; i < cantCaballos; i++){\r... */\n      iszero\n      tag_323\n      jumpi\n        /* \"Solidity_BD2/casaApuestas.sol\":3912:3923  _codCaballo */\n      dup4\n        /* \"Solidity_BD2/casaApuestas.sol\":3880:3892  competencias */\n      0x04\n        /* \"Solidity_BD2/casaApuestas.sol\":3880:3905  competencias[_codCarrera] */\n      0x00\n        /* \"Solidity_BD2/casaApuestas.sol\":3893:3904  _codCarrera */\n      dup8\n        /* \"Solidity_BD2/casaApuestas.sol\":3880:3905  competencias[_codCarrera] */\n      dup2\n      mstore\n      0x20\n      add\n      swap1\n      dup2\n      mstore\n      0x20\n      add\n      0x00\n      keccak256\n        /* \"Solidity_BD2/casaApuestas.sol\":3906:3907  i */\n      dup3\n        /* \"Solidity_BD2/casaApuestas.sol\":3880:3908  competencias[_codCarrera][i] */\n      dup2\n      sload\n      dup2\n      lt\n      tag_325\n      jumpi\n      invalid\n    tag_325:\n      swap1\n      0x00\n      mstore\n      keccak256(0x00, 0x20)\n      add\n      sload\n        /* \"Solidity_BD2/casaApuestas.sol\":3880:3923  competencias[_codCarrera][i] == _codCaballo */\n      eq\n        /* \"Solidity_BD2/casaApuestas.sol\":3877:4003  if(competencias[_codCarrera][i] == _codCaballo){\r... */\n      iszero\n      tag_327\n      jumpi\n        /* \"Solidity_BD2/casaApuestas.sol\":3959:3963  true */\n      0x01\n        /* \"Solidity_BD2/casaApuestas.sol\":3943:3963  cabEncontrado = true */\n      swap2\n      pop\n        /* \"Solidity_BD2/casaApuestas.sol\":3982:3987  break */\n      jump(tag_323)\n        /* \"Solidity_BD2/casaApuestas.sol\":3877:4003  if(competencias[_codCarrera][i] == _codCaballo){\r... */\n    tag_327:\n        /* \"Solidity_BD2/casaApuestas.sol\":3858:3861  i++ */\n      dup1\n      dup1\n      0x01\n      add\n      swap2\n      pop\n      pop\n        /* \"Solidity_BD2/casaApuestas.sol\":3824:4014  for(uint i = 0; i < cantCaballos; i++){\r... */\n      jump(tag_322)\n    tag_323:\n      pop\n        /* \"Solidity_BD2/casaApuestas.sol\":4032:4045  cabEncontrado */\n      dup1\n        /* \"Solidity_BD2/casaApuestas.sol\":4024:4105  require(cabEncontrado, \"Este caballo no se encuentra registrado en esta carrera\") */\n      tag_328\n      jumpi\n      mload(0x40)\n      0x08c379a000000000000000000000000000000000000000000000000000000000\n      dup2\n      mstore\n      0x04\n      add\n      dup1\n      dup1\n      0x20\n      add\n      dup3\n      dup2\n      sub\n      dup3\n      mstore\n      0x37\n      dup2\n      mstore\n      0x20\n      add\n      dup1\n      data_961fcad8d1437fb7fcd32c3c0cb1abc4a020f237cc5c3c4ecf402a363363c4fd\n      0x37\n      swap2\n      codecopy\n      0x40\n      add\n      swap2\n      pop\n      pop\n      mload(0x40)\n      dup1\n      swap2\n      sub\n      swap1\n      revert\n    tag_328:\n        /* \"Solidity_BD2/casaApuestas.sol\":5827:5836  msg.value */\n      callvalue\n        /* \"Solidity_BD2/casaApuestas.sol\":4198:4199  0 */\n      0x00\n        /* \"Solidity_BD2/casaApuestas.sol\":4189:4195  _monto */\n      dup2\n        /* \"Solidity_BD2/casaApuestas.sol\":4189:4199  _monto > 0 */\n      gt\n        /* \"Solidity_BD2/casaApuestas.sol\":4181:4245  require(_monto > 0, \"El monto de la apuesta debe ser mayor a 0\") */\n      tag_330\n      jumpi\n      mload(0x40)\n      0x08c379a000000000000000000000000000000000000000000000000000000000\n      dup2\n      mstore\n      0x04\n      add\n      dup1\n      dup1\n      0x20\n      add\n      dup3\n      dup2\n      sub\n      dup3\n      mstore\n      0x29\n      dup2\n      mstore\n      0x20\n      add\n      dup1\n      data_6f447a6923745e6be6f901d62f9112c38aa63e63c11e0640be511470a9c26a07\n      0x29\n      swap2\n      codecopy\n      0x40\n      add\n      swap2\n      pop\n      pop\n      mload(0x40)\n      dup1\n      swap2\n      sub\n      swap1\n      revert\n    tag_330:\n        /* \"Solidity_BD2/casaApuestas.sol\":5848:5865  uint montoApuesta */\n      0x00\n        /* \"Solidity_BD2/casaApuestas.sol\":5868:5877  msg.value */\n      callvalue\n        /* \"Solidity_BD2/casaApuestas.sol\":5848:5877  uint montoApuesta = msg.value */\n      swap1\n      pop\n        /* \"Solidity_BD2/casaApuestas.sol\":5888:5905  address apostador */\n      0x00\n        /* \"Solidity_BD2/casaApuestas.sol\":5908:5918  msg.sender */\n      caller\n        /* \"Solidity_BD2/casaApuestas.sol\":5888:5918  address apostador = msg.sender */\n      swap1\n      pop\n        /* \"Solidity_BD2/casaApuestas.sol\":5987:5995  carreras */\n      0x02\n        /* \"Solidity_BD2/casaApuestas.sol\":5987:6008  carreras[_codCarrera] */\n      0x00\n        /* \"Solidity_BD2/casaApuestas.sol\":5996:6007  _codCarrera */\n      dup14\n        /* \"Solidity_BD2/casaApuestas.sol\":5987:6008  carreras[_codCarrera] */\n      dup2\n      mstore\n      0x20\n      add\n      swap1\n      dup2\n      mstore\n      0x20\n      add\n      0x00\n      keccak256\n        /* \"Solidity_BD2/casaApuestas.sol\":5987:6017  carreras[_codCarrera].apuestas */\n      0x06\n      add\n        /* \"Solidity_BD2/casaApuestas.sol\":5987:6028  carreras[_codCarrera].apuestas[apostador] */\n      0x00\n        /* \"Solidity_BD2/casaApuestas.sol\":6018:6027  apostador */\n      dup3\n        /* \"Solidity_BD2/casaApuestas.sol\":5987:6028  carreras[_codCarrera].apuestas[apostador] */\n      0xffffffffffffffffffffffffffffffffffffffff\n      and\n      0xffffffffffffffffffffffffffffffffffffffff\n      and\n      dup2\n      mstore\n      0x20\n      add\n      swap1\n      dup2\n      mstore\n      0x20\n      add\n      0x00\n      keccak256\n        /* \"Solidity_BD2/casaApuestas.sol\":5987:6035  carreras[_codCarrera].apuestas[apostador].creada */\n      0x02\n      add\n      0x00\n      swap1\n      sload\n      swap1\n      0x0100\n      exp\n      swap1\n      div\n      0xff\n      and\n        /* \"Solidity_BD2/casaApuestas.sol\":5984:6771  if(carreras[_codCarrera].apuestas[apostador].creada){\r... */\n      iszero\n      tag_332\n      jumpi\n        /* \"Solidity_BD2/casaApuestas.sol\":6185:6196  _codCaballo */\n      dup13\n        /* \"Solidity_BD2/casaApuestas.sol\":6129:6137  carreras */\n      0x02\n        /* \"Solidity_BD2/casaApuestas.sol\":6129:6150  carreras[_codCarrera] */\n      0x00\n        /* \"Solidity_BD2/casaApuestas.sol\":6138:6149  _codCarrera */\n      dup15\n        /* \"Solidity_BD2/casaApuestas.sol\":6129:6150  carreras[_codCarrera] */\n      dup2\n      mstore\n      0x20\n      add\n      swap1\n      dup2\n      mstore\n      0x20\n      add\n      0x00\n      keccak256\n        /* \"Solidity_BD2/casaApuestas.sol\":6129:6159  carreras[_codCarrera].apuestas */\n      0x06\n      add\n        /* \"Solidity_BD2/casaApuestas.sol\":6129:6170  carreras[_codCarrera].apuestas[apostador] */\n      0x00\n        /* \"Solidity_BD2/casaApuestas.sol\":6160:6169  apostador */\n      dup4\n        /* \"Solidity_BD2/casaApuestas.sol\":6129:6170  carreras[_codCarrera].apuestas[apostador] */\n      0xffffffffffffffffffffffffffffffffffffffff\n      and\n      0xffffffffffffffffffffffffffffffffffffffff\n      and\n      dup2\n      mstore\n      0x20\n      add\n      swap1\n      dup2\n      mstore\n      0x20\n      add\n      0x00\n      keccak256\n        /* \"Solidity_BD2/casaApuestas.sol\":6129:6181  carreras[_codCarrera].apuestas[apostador].codCaballo */\n      0x01\n      add\n      sload\n        /* \"Solidity_BD2/casaApuestas.sol\":6129:6196  carreras[_codCarrera].apuestas[apostador].codCaballo == _codCaballo */\n      eq\n        /* \"Solidity_BD2/casaApuestas.sol\":6121:6260  require(carreras[_codCarrera].apuestas[apostador].codCaballo == _codCaballo, \"Solo se puede apostar por un caballo dentro de esta carrera\") */\n      tag_333\n      jumpi\n      mload(0x40)\n      0x08c379a000000000000000000000000000000000000000000000000000000000\n      dup2\n      mstore\n      0x04\n      add\n      dup1\n      dup1\n      0x20\n      add\n      dup3\n      dup2\n      sub\n      dup3\n      mstore\n      0x3b\n      dup2\n      mstore\n      0x20\n      add\n      dup1\n      data_015e2967b1a324c495f3905ebc30437189d94d81ee000a6adba682a4697a35b6\n      0x3b\n      swap2\n      codecopy\n      0x40\n      add\n      swap2\n      pop\n      pop\n      mload(0x40)\n      dup1\n      swap2\n      sub\n      swap1\n      revert\n    tag_333:\n        /* \"Solidity_BD2/casaApuestas.sol\":6326:6338  montoApuesta */\n      dup2\n        /* \"Solidity_BD2/casaApuestas.sol\":6275:6283  carreras */\n      0x02\n        /* \"Solidity_BD2/casaApuestas.sol\":6275:6296  carreras[_codCarrera] */\n      0x00\n        /* \"Solidity_BD2/casaApuestas.sol\":6284:6295  _codCarrera */\n      dup15\n        /* \"Solidity_BD2/casaApuestas.sol\":6275:6296  carreras[_codCarrera] */\n      dup2\n      mstore\n      0x20\n      add\n      swap1\n      dup2\n      mstore\n      0x20\n      add\n      0x00\n      keccak256\n        /* \"Solidity_BD2/casaApuestas.sol\":6275:6305  carreras[_codCarrera].apuestas */\n      0x06\n      add\n        /* \"Solidity_BD2/casaApuestas.sol\":6275:6316  carreras[_codCarrera].apuestas[apostador] */\n      0x00\n        /* \"Solidity_BD2/casaApuestas.sol\":6306:6315  apostador */\n      dup4\n        /* \"Solidity_BD2/casaApuestas.sol\":6275:6316  carreras[_codCarrera].apuestas[apostador] */\n      0xffffffffffffffffffffffffffffffffffffffff\n      and\n      0xffffffffffffffffffffffffffffffffffffffff\n      and\n      dup2\n      mstore\n      0x20\n      add\n      swap1\n      dup2\n      mstore\n      0x20\n      add\n      0x00\n      keccak256\n        /* \"Solidity_BD2/casaApuestas.sol\":6275:6322  carreras[_codCarrera].apuestas[apostador].monto */\n      0x00\n      add\n      0x00\n        /* \"Solidity_BD2/casaApuestas.sol\":6275:6338  carreras[_codCarrera].apuestas[apostador].monto += montoApuesta */\n      dup3\n      dup3\n      sload\n      add\n      swap3\n      pop\n      pop\n      dup2\n      swap1\n      sstore\n      pop\n        /* \"Solidity_BD2/casaApuestas.sol\":6389:6401  montoApuesta */\n      dup2\n        /* \"Solidity_BD2/casaApuestas.sol\":6353:6361  carreras */\n      0x02\n        /* \"Solidity_BD2/casaApuestas.sol\":6353:6374  carreras[_codCarrera] */\n      0x00\n        /* \"Solidity_BD2/casaApuestas.sol\":6362:6373  _codCarrera */\n      dup15\n        /* \"Solidity_BD2/casaApuestas.sol\":6353:6374  carreras[_codCarrera] */\n      dup2\n      mstore\n      0x20\n      add\n      swap1\n      dup2\n      mstore\n      0x20\n      add\n      0x00\n      keccak256\n        /* \"Solidity_BD2/casaApuestas.sol\":6353:6385  carreras[_codCarrera].montoTotal */\n      0x03\n      add\n      0x00\n        /* \"Solidity_BD2/casaApuestas.sol\":6353:6401  carreras[_codCarrera].montoTotal += montoApuesta */\n      dup3\n      dup3\n      sload\n      add\n      swap3\n      pop\n      pop\n      dup2\n      swap1\n      sstore\n      pop\n        /* \"Solidity_BD2/casaApuestas.sol\":5984:6771  if(carreras[_codCarrera].apuestas[apostador].creada){\r... */\n      jump(tag_334)\n    tag_332:\n        /* \"Solidity_BD2/casaApuestas.sol\":6563:6609  Apuesta(montoApuesta, _codCaballo, true, 0, 0) */\n      mload(0x40)\n      dup1\n      0xa0\n      add\n      0x40\n      mstore\n      dup1\n        /* \"Solidity_BD2/casaApuestas.sol\":6571:6583  montoApuesta */\n      dup4\n        /* \"Solidity_BD2/casaApuestas.sol\":6563:6609  Apuesta(montoApuesta, _codCaballo, true, 0, 0) */\n      dup2\n      mstore\n      0x20\n      add\n        /* \"Solidity_BD2/casaApuestas.sol\":6585:6596  _codCaballo */\n      dup15\n        /* \"Solidity_BD2/casaApuestas.sol\":6563:6609  Apuesta(montoApuesta, _codCaballo, true, 0, 0) */\n      dup2\n      mstore\n      0x20\n      add\n        /* \"Solidity_BD2/casaApuestas.sol\":6598:6602  true */\n      0x01\n        /* \"Solidity_BD2/casaApuestas.sol\":6563:6609  Apuesta(montoApuesta, _codCaballo, true, 0, 0) */\n      iszero\n      iszero\n      dup2\n      mstore\n      0x20\n      add\n        /* \"Solidity_BD2/casaApuestas.sol\":6604:6605  0 */\n      0x00\n        /* \"Solidity_BD2/casaApuestas.sol\":6563:6609  Apuesta(montoApuesta, _codCaballo, true, 0, 0) */\n      dup2\n      mstore\n      0x20\n      add\n        /* \"Solidity_BD2/casaApuestas.sol\":6607:6608  0 */\n      0x00\n        /* \"Solidity_BD2/casaApuestas.sol\":6563:6609  Apuesta(montoApuesta, _codCaballo, true, 0, 0) */\n      dup2\n      mstore\n      pop\n        /* \"Solidity_BD2/casaApuestas.sol\":6519:6527  carreras */\n      0x02\n        /* \"Solidity_BD2/casaApuestas.sol\":6519:6540  carreras[_codCarrera] */\n      0x00\n        /* \"Solidity_BD2/casaApuestas.sol\":6528:6539  _codCarrera */\n      dup15\n        /* \"Solidity_BD2/casaApuestas.sol\":6519:6540  carreras[_codCarrera] */\n      dup2\n      mstore\n      0x20\n      add\n      swap1\n      dup2\n      mstore\n      0x20\n      add\n      0x00\n      keccak256\n        /* \"Solidity_BD2/casaApuestas.sol\":6519:6549  carreras[_codCarrera].apuestas */\n      0x06\n      add\n        /* \"Solidity_BD2/casaApuestas.sol\":6519:6560  carreras[_codCarrera].apuestas[apostador] */\n      0x00\n        /* \"Solidity_BD2/casaApuestas.sol\":6550:6559  apostador */\n      dup4\n        /* \"Solidity_BD2/casaApuestas.sol\":6519:6560  carreras[_codCarrera].apuestas[apostador] */\n      0xffffffffffffffffffffffffffffffffffffffff\n      and\n      0xffffffffffffffffffffffffffffffffffffffff\n      and\n      dup2\n      mstore\n      0x20\n      add\n      swap1\n      dup2\n      mstore\n      0x20\n      add\n      0x00\n      keccak256\n        /* \"Solidity_BD2/casaApuestas.sol\":6519:6609  carreras[_codCarrera].apuestas[apostador] = Apuesta(montoApuesta, _codCaballo, true, 0, 0) */\n      0x00\n      dup3\n      add\n      mload\n      dup2\n      0x00\n      add\n      sstore\n      0x20\n      dup3\n      add\n      mload\n      dup2\n      0x01\n      add\n      sstore\n      0x40\n      dup3\n      add\n      mload\n      dup2\n      0x02\n      add\n      exp(0x0100, 0x00)\n      dup2\n      sload\n      dup2\n      0xff\n      mul\n      not\n      and\n      swap1\n      dup4\n      iszero\n      iszero\n      mul\n      or\n      swap1\n      sstore\n      pop\n      0x60\n      dup3\n      add\n      mload\n      dup2\n      0x03\n      add\n      sstore\n      0x80\n      dup3\n      add\n      mload\n      dup2\n      0x04\n      add\n      sstore\n      swap1\n      pop\n      pop\n        /* \"Solidity_BD2/casaApuestas.sol\":6660:6672  montoApuesta */\n      dup2\n        /* \"Solidity_BD2/casaApuestas.sol\":6624:6632  carreras */\n      0x02\n        /* \"Solidity_BD2/casaApuestas.sol\":6624:6645  carreras[_codCarrera] */\n      0x00\n        /* \"Solidity_BD2/casaApuestas.sol\":6633:6644  _codCarrera */\n      dup15\n        /* \"Solidity_BD2/casaApuestas.sol\":6624:6645  carreras[_codCarrera] */\n      dup2\n      mstore\n      0x20\n      add\n      swap1\n      dup2\n      mstore\n      0x20\n      add\n      0x00\n      keccak256\n        /* \"Solidity_BD2/casaApuestas.sol\":6624:6656  carreras[_codCarrera].montoTotal */\n      0x03\n      add\n      0x00\n        /* \"Solidity_BD2/casaApuestas.sol\":6624:6672  carreras[_codCarrera].montoTotal += montoApuesta */\n      dup3\n      dup3\n      sload\n      add\n      swap3\n      pop\n      pop\n      dup2\n      swap1\n      sstore\n      pop\n        /* \"Solidity_BD2/casaApuestas.sol\":6687:6698  apostadores */\n      0x05\n        /* \"Solidity_BD2/casaApuestas.sol\":6687:6711  apostadores[_codCarrera] */\n      0x00\n        /* \"Solidity_BD2/casaApuestas.sol\":6699:6710  _codCarrera */\n      dup14\n        /* \"Solidity_BD2/casaApuestas.sol\":6687:6711  apostadores[_codCarrera] */\n      dup2\n      mstore\n      0x20\n      add\n      swap1\n      dup2\n      mstore\n      0x20\n      add\n      0x00\n      keccak256\n        /* \"Solidity_BD2/casaApuestas.sol\":6717:6726  apostador */\n      dup2\n        /* \"Solidity_BD2/casaApuestas.sol\":6687:6727  apostadores[_codCarrera].push(apostador) */\n      swap1\n      dup1\n        /* \"--CODEGEN--\":39:40   */\n      0x01\n        /* \"--CODEGEN--\":33:36   */\n      dup2\n        /* \"--CODEGEN--\":27:37   */\n      sload\n        /* \"--CODEGEN--\":23:41   */\n      add\n        /* \"--CODEGEN--\":57:67   */\n      dup1\n        /* \"--CODEGEN--\":52:55   */\n      dup3\n        /* \"--CODEGEN--\":45:68   */\n      sstore\n        /* \"--CODEGEN--\":79:89   */\n      dup1\n        /* \"--CODEGEN--\":72:89   */\n      swap2\n      pop\n        /* \"--CODEGEN--\":0:93   */\n      pop\n        /* \"Solidity_BD2/casaApuestas.sol\":6687:6727  apostadores[_codCarrera].push(apostador) */\n      0x01\n      swap1\n      sub\n      swap1\n      0x00\n      mstore\n      keccak256(0x00, 0x20)\n      add\n      0x00\n      swap1\n      swap2\n      swap1\n      swap2\n      swap1\n      swap2\n      0x0100\n      exp\n      dup2\n      sload\n      dup2\n      0xffffffffffffffffffffffffffffffffffffffff\n      mul\n      not\n      and\n      swap1\n      dup4\n      0xffffffffffffffffffffffffffffffffffffffff\n      and\n      mul\n      or\n      swap1\n      sstore\n      pop\n        /* \"Solidity_BD2/casaApuestas.sol\":5984:6771  if(carreras[_codCarrera].apuestas[apostador].creada){\r... */\n    tag_334:\n        /* \"Solidity_BD2/casaApuestas.sol\":4256:4257  _ */\n      pop\n      pop\n        /* \"Solidity_BD2/casaApuestas.sol\":4116:4117  _ */\n      pop\n        /* \"Solidity_BD2/casaApuestas.sol\":2644:2645  _ */\n      pop\n      pop\n      pop\n      pop\n        /* \"Solidity_BD2/casaApuestas.sol\":2475:2476  _ */\n      pop\n        /* \"Solidity_BD2/casaApuestas.sol\":1850:1851  _ */\n      pop\n        /* \"Solidity_BD2/casaApuestas.sol\":1585:1586  _ */\n      pop\n      pop\n        /* \"Solidity_BD2/casaApuestas.sol\":5558:6778  function apostar(uint _codCaballo, uint _codCarrera) payable public \r... */\n      pop\n      pop\n      jump\t// out\n        /* \"Solidity_BD2/casaApuestas.sol\":5305:5550  function registrarCarrera(uint _codCarrera) public \r... */\n    tag_101:\n        /* \"Solidity_BD2/casaApuestas.sol\":1317:1326  anfitrion */\n      0x00\n      dup1\n      swap1\n      sload\n      swap1\n      0x0100\n      exp\n      swap1\n      div\n      0xffffffffffffffffffffffffffffffffffffffff\n      and\n        /* \"Solidity_BD2/casaApuestas.sol\":1303:1326  msg.sender == anfitrion */\n      0xffffffffffffffffffffffffffffffffffffffff\n      and\n        /* \"Solidity_BD2/casaApuestas.sol\":1303:1313  msg.sender */\n      caller\n        /* \"Solidity_BD2/casaApuestas.sol\":1303:1326  msg.sender == anfitrion */\n      0xffffffffffffffffffffffffffffffffffffffff\n      and\n      eq\n        /* \"Solidity_BD2/casaApuestas.sol\":1295:1365  require(msg.sender == anfitrion, \"El invocador debe ser el anfitrion\") */\n      tag_337\n      jumpi\n      mload(0x40)\n      0x08c379a000000000000000000000000000000000000000000000000000000000\n      dup2\n      mstore\n      0x04\n      add\n      dup1\n      dup1\n      0x20\n      add\n      dup3\n      dup2\n      sub\n      dup3\n      mstore\n      0x22\n      dup2\n      mstore\n      0x20\n      add\n      dup1\n      data_445dd79b894b98a34a1cc7c38a5bd2de2e19478d6390b1e445457362fd7001d8\n      0x22\n      swap2\n      codecopy\n      0x40\n      add\n      swap2\n      pop\n      pop\n      mload(0x40)\n      dup1\n      swap2\n      sub\n      swap1\n      revert\n    tag_337:\n        /* \"Solidity_BD2/casaApuestas.sol\":5389:5400  _codCarrera */\n      dup1\n        /* \"Solidity_BD2/casaApuestas.sol\":5402:5415  Estado.Creada */\n      0x00\n        /* \"Solidity_BD2/casaApuestas.sol\":1783:1790  _estado */\n      dup1\n        /* \"Solidity_BD2/casaApuestas.sol\":1744:1790  carreras[_codCarrera].estadoCarrera == _estado */\n      0x02\n      dup2\n      gt\n      iszero\n      tag_339\n      jumpi\n      invalid\n    tag_339:\n        /* \"Solidity_BD2/casaApuestas.sol\":1744:1752  carreras */\n      0x02\n        /* \"Solidity_BD2/casaApuestas.sol\":1744:1765  carreras[_codCarrera] */\n      0x00\n        /* \"Solidity_BD2/casaApuestas.sol\":1753:1764  _codCarrera */\n      dup5\n        /* \"Solidity_BD2/casaApuestas.sol\":1744:1765  carreras[_codCarrera] */\n      dup2\n      mstore\n      0x20\n      add\n      swap1\n      dup2\n      mstore\n      0x20\n      add\n      0x00\n      keccak256\n        /* \"Solidity_BD2/casaApuestas.sol\":1744:1779  carreras[_codCarrera].estadoCarrera */\n      0x02\n      add\n      0x00\n      swap1\n      sload\n      swap1\n      0x0100\n      exp\n      swap1\n      div\n      0xff\n      and\n        /* \"Solidity_BD2/casaApuestas.sol\":1744:1790  carreras[_codCarrera].estadoCarrera == _estado */\n      0x02\n      dup2\n      gt\n      iszero\n      tag_340\n      jumpi\n      invalid\n    tag_340:\n      eq\n        /* \"Solidity_BD2/casaApuestas.sol\":1736:1839  require(carreras[_codCarrera].estadoCarrera == _estado, \"La carrera no cumple con el estado requerido\") */\n      tag_341\n      jumpi\n      mload(0x40)\n      0x08c379a000000000000000000000000000000000000000000000000000000000\n      dup2\n      mstore\n      0x04\n      add\n      dup1\n      dup1\n      0x20\n      add\n      dup3\n      dup2\n      sub\n      dup3\n      mstore\n      0x2c\n      dup2\n      mstore\n      0x20\n      add\n      dup1\n      data_e91ca438e9e3f1e0e0a5b1a72a508ed5ae254b3cb59572817ac1ec6e2a488952\n      0x2c\n      swap2\n      codecopy\n      0x40\n      add\n      swap2\n      pop\n      pop\n      mload(0x40)\n      dup1\n      swap2\n      sub\n      swap1\n      revert\n    tag_341:\n        /* \"Solidity_BD2/casaApuestas.sol\":5436:5447  _codCarrera */\n      dup3\n        /* \"Solidity_BD2/casaApuestas.sol\":2597:2598  0 */\n      0x00\n        /* \"Solidity_BD2/casaApuestas.sol\":2557:2565  carreras */\n      0x02\n        /* \"Solidity_BD2/casaApuestas.sol\":2557:2578  carreras[_codCarrera] */\n      0x00\n        /* \"Solidity_BD2/casaApuestas.sol\":2566:2577  _codCarrera */\n      dup4\n        /* \"Solidity_BD2/casaApuestas.sol\":2557:2578  carreras[_codCarrera] */\n      dup2\n      mstore\n      0x20\n      add\n      swap1\n      dup2\n      mstore\n      0x20\n      add\n      0x00\n      keccak256\n        /* \"Solidity_BD2/casaApuestas.sol\":2557:2585  carreras[_codCarrera].nombre */\n      0x01\n      add\n        /* \"Solidity_BD2/casaApuestas.sol\":2551:2593  bytes(carreras[_codCarrera].nombre).length */\n      dup1\n      sload\n      0x01\n      dup2\n      0x01\n      and\n      iszero\n      0x0100\n      mul\n      sub\n      and\n      0x02\n      swap1\n      div\n      swap1\n      pop\n        /* \"Solidity_BD2/casaApuestas.sol\":2551:2598  bytes(carreras[_codCarrera].nombre).length != 0 */\n      eq\n      iszero\n        /* \"Solidity_BD2/casaApuestas.sol\":2543:2633  require(bytes(carreras[_codCarrera].nombre).length != 0, \"La carrera ingresada no existe\") */\n      tag_343\n      jumpi\n      mload(0x40)\n      0x08c379a000000000000000000000000000000000000000000000000000000000\n      dup2\n      mstore\n      0x04\n      add\n      dup1\n      dup1\n      0x20\n      add\n      dup3\n      dup2\n      sub\n      dup3\n      mstore\n      0x1e\n      dup2\n      mstore\n      0x20\n      add\n      dup1\n      0x4c61206361727265726120696e67726573616461206e6f206578697374650000\n      dup2\n      mstore\n      pop\n      0x20\n      add\n      swap2\n      pop\n      pop\n      mload(0x40)\n      dup1\n      swap2\n      sub\n      swap1\n      revert\n    tag_343:\n        /* \"Solidity_BD2/casaApuestas.sol\":5464:5475  _codCarrera */\n      dup4\n        /* \"Solidity_BD2/casaApuestas.sol\":2243:2244  2 */\n      0x02\n        /* \"Solidity_BD2/casaApuestas.sol\":2207:2219  competencias */\n      0x04\n        /* \"Solidity_BD2/casaApuestas.sol\":2207:2232  competencias[_codCarrera] */\n      0x00\n        /* \"Solidity_BD2/casaApuestas.sol\":2220:2231  _codCarrera */\n      dup4\n        /* \"Solidity_BD2/casaApuestas.sol\":2207:2232  competencias[_codCarrera] */\n      dup2\n      mstore\n      0x20\n      add\n      swap1\n      dup2\n      mstore\n      0x20\n      add\n      0x00\n      keccak256\n        /* \"Solidity_BD2/casaApuestas.sol\":2207:2239  competencias[_codCarrera].length */\n      dup1\n      sload\n      swap1\n      pop\n        /* \"Solidity_BD2/casaApuestas.sol\":2207:2244  competencias[_codCarrera].length >= 2 */\n      lt\n      iszero\n        /* \"Solidity_BD2/casaApuestas.sol\":2199:2295  require(competencias[_codCarrera].length >= 2, \"La carrera debe contar con al menos 2 caballos\") */\n      tag_345\n      jumpi\n      mload(0x40)\n      0x08c379a000000000000000000000000000000000000000000000000000000000\n      dup2\n      mstore\n      0x04\n      add\n      dup1\n      dup1\n      0x20\n      add\n      dup3\n      dup2\n      sub\n      dup3\n      mstore\n      0x2e\n      dup2\n      mstore\n      0x20\n      add\n      dup1\n      data_234e92a03eef93e773d3f62d6519fa001994567a49c6e3053a36d351ec2424b1\n      0x2e\n      swap2\n      codecopy\n      0x40\n      add\n      swap2\n      pop\n      pop\n      mload(0x40)\n      dup1\n      swap2\n      sub\n      swap1\n      revert\n    tag_345:\n        /* \"Solidity_BD2/casaApuestas.sol\":5525:5542  Estado.Registrada */\n      0x01\n        /* \"Solidity_BD2/casaApuestas.sol\":5487:5495  carreras */\n      0x02\n        /* \"Solidity_BD2/casaApuestas.sol\":5487:5508  carreras[_codCarrera] */\n      0x00\n        /* \"Solidity_BD2/casaApuestas.sol\":5496:5507  _codCarrera */\n      dup8\n        /* \"Solidity_BD2/casaApuestas.sol\":5487:5508  carreras[_codCarrera] */\n      dup2\n      mstore\n      0x20\n      add\n      swap1\n      dup2\n      mstore\n      0x20\n      add\n      0x00\n      keccak256\n        /* \"Solidity_BD2/casaApuestas.sol\":5487:5522  carreras[_codCarrera].estadoCarrera */\n      0x02\n      add\n      0x00\n        /* \"Solidity_BD2/casaApuestas.sol\":5487:5542  carreras[_codCarrera].estadoCarrera = Estado.Registrada */\n      0x0100\n      exp\n      dup2\n      sload\n      dup2\n      0xff\n      mul\n      not\n      and\n      swap1\n      dup4\n      0x02\n      dup2\n      gt\n      iszero\n      tag_347\n      jumpi\n      invalid\n    tag_347:\n      mul\n      or\n      swap1\n      sstore\n      pop\n        /* \"Solidity_BD2/casaApuestas.sol\":2644:2645  _ */\n      pop\n        /* \"Solidity_BD2/casaApuestas.sol\":1850:1851  _ */\n      pop\n        /* \"Solidity_BD2/casaApuestas.sol\":1376:1377  _ */\n      pop\n      pop\n        /* \"Solidity_BD2/casaApuestas.sol\":5305:5550  function registrarCarrera(uint _codCarrera) public \r... */\n      pop\n      jump\t// out\n        /* \"Solidity_BD2/casaApuestas.sol\":4443:4673  function crearCarrera(uint _codigo, string memory _nombre) public \r... */\n    tag_108:\n        /* \"Solidity_BD2/casaApuestas.sol\":1317:1326  anfitrion */\n      0x00\n      dup1\n      swap1\n      sload\n      swap1\n      0x0100\n      exp\n      swap1\n      div\n      0xffffffffffffffffffffffffffffffffffffffff\n      and\n        /* \"Solidity_BD2/casaApuestas.sol\":1303:1326  msg.sender == anfitrion */\n      0xffffffffffffffffffffffffffffffffffffffff\n      and\n        /* \"Solidity_BD2/casaApuestas.sol\":1303:1313  msg.sender */\n      caller\n        /* \"Solidity_BD2/casaApuestas.sol\":1303:1326  msg.sender == anfitrion */\n      0xffffffffffffffffffffffffffffffffffffffff\n      and\n      eq\n        /* \"Solidity_BD2/casaApuestas.sol\":1295:1365  require(msg.sender == anfitrion, \"El invocador debe ser el anfitrion\") */\n      tag_349\n      jumpi\n      mload(0x40)\n      0x08c379a000000000000000000000000000000000000000000000000000000000\n      dup2\n      mstore\n      0x04\n      add\n      dup1\n      dup1\n      0x20\n      add\n      dup3\n      dup2\n      sub\n      dup3\n      mstore\n      0x22\n      dup2\n      mstore\n      0x20\n      add\n      dup1\n      data_445dd79b894b98a34a1cc7c38a5bd2de2e19478d6390b1e445457362fd7001d8\n      0x22\n      swap2\n      codecopy\n      0x40\n      add\n      swap2\n      pop\n      pop\n      mload(0x40)\n      dup1\n      swap2\n      sub\n      swap1\n      revert\n    tag_349:\n        /* \"Solidity_BD2/casaApuestas.sol\":4548:4555  _codigo */\n      dup2\n        /* \"Solidity_BD2/casaApuestas.sol\":2946:2947  0 */\n      0x00\n        /* \"Solidity_BD2/casaApuestas.sol\":2906:2914  carreras */\n      0x02\n        /* \"Solidity_BD2/casaApuestas.sol\":2906:2927  carreras[_codCarrera] */\n      0x00\n        /* \"Solidity_BD2/casaApuestas.sol\":2915:2926  _codCarrera */\n      dup4\n        /* \"Solidity_BD2/casaApuestas.sol\":2906:2927  carreras[_codCarrera] */\n      dup2\n      mstore\n      0x20\n      add\n      swap1\n      dup2\n      mstore\n      0x20\n      add\n      0x00\n      keccak256\n        /* \"Solidity_BD2/casaApuestas.sol\":2906:2934  carreras[_codCarrera].nombre */\n      0x01\n      add\n        /* \"Solidity_BD2/casaApuestas.sol\":2900:2942  bytes(carreras[_codCarrera].nombre).length */\n      dup1\n      sload\n      0x01\n      dup2\n      0x01\n      and\n      iszero\n      0x0100\n      mul\n      sub\n      and\n      0x02\n      swap1\n      div\n      swap1\n      pop\n        /* \"Solidity_BD2/casaApuestas.sol\":2900:2947  bytes(carreras[_codCarrera].nombre).length == 0 */\n      eq\n        /* \"Solidity_BD2/casaApuestas.sol\":2892:2990  require(bytes(carreras[_codCarrera].nombre).length == 0, \"Ya existe una carrera con este código\") */\n      tag_351\n      jumpi\n      mload(0x40)\n      0x08c379a000000000000000000000000000000000000000000000000000000000\n      dup2\n      mstore\n      0x04\n      add\n      dup1\n      dup1\n      0x20\n      add\n      dup3\n      dup2\n      sub\n      dup3\n      mstore\n      0x26\n      dup2\n      mstore\n      0x20\n      add\n      dup1\n      data_22029fc9bd0e2ef2cc87547f1b8c198f7797b26c5004a179120be0b5f25949fe\n      0x26\n      swap2\n      codecopy\n      0x40\n      add\n      swap2\n      pop\n      pop\n      mload(0x40)\n      dup1\n      swap2\n      sub\n      swap1\n      revert\n    tag_351:\n        /* \"Solidity_BD2/casaApuestas.sol\":4587:4636  Carrera(_codigo, _nombre, Estado.Creada, 0, 0, 0) */\n      mload(0x40)\n      dup1\n      0xc0\n      add\n      0x40\n      mstore\n      dup1\n        /* \"Solidity_BD2/casaApuestas.sol\":4595:4602  _codigo */\n      dup5\n        /* \"Solidity_BD2/casaApuestas.sol\":4587:4636  Carrera(_codigo, _nombre, Estado.Creada, 0, 0, 0) */\n      dup2\n      mstore\n      0x20\n      add\n        /* \"Solidity_BD2/casaApuestas.sol\":4604:4611  _nombre */\n      dup4\n        /* \"Solidity_BD2/casaApuestas.sol\":4587:4636  Carrera(_codigo, _nombre, Estado.Creada, 0, 0, 0) */\n      dup2\n      mstore\n      0x20\n      add\n        /* \"Solidity_BD2/casaApuestas.sol\":4613:4626  Estado.Creada */\n      0x00\n        /* \"Solidity_BD2/casaApuestas.sol\":4587:4636  Carrera(_codigo, _nombre, Estado.Creada, 0, 0, 0) */\n      0x02\n      dup2\n      gt\n      iszero\n      tag_353\n      jumpi\n      invalid\n    tag_353:\n      dup2\n      mstore\n      0x20\n      add\n        /* \"Solidity_BD2/casaApuestas.sol\":4628:4629  0 */\n      0x00\n        /* \"Solidity_BD2/casaApuestas.sol\":4587:4636  Carrera(_codigo, _nombre, Estado.Creada, 0, 0, 0) */\n      dup2\n      mstore\n      0x20\n      add\n        /* \"Solidity_BD2/casaApuestas.sol\":4631:4632  0 */\n      0x00\n        /* \"Solidity_BD2/casaApuestas.sol\":4587:4636  Carrera(_codigo, _nombre, Estado.Creada, 0, 0, 0) */\n      dup2\n      mstore\n      0x20\n      add\n        /* \"Solidity_BD2/casaApuestas.sol\":4634:4635  0 */\n      0x00\n        /* \"Solidity_BD2/casaApuestas.sol\":4587:4636  Carrera(_codigo, _nombre, Estado.Creada, 0, 0, 0) */\n      dup2\n      mstore\n      pop\n        /* \"Solidity_BD2/casaApuestas.sol\":4567:4575  carreras */\n      0x02\n        /* \"Solidity_BD2/casaApuestas.sol\":4567:4584  carreras[_codigo] */\n      0x00\n        /* \"Solidity_BD2/casaApuestas.sol\":4576:4583  _codigo */\n      dup6\n        /* \"Solidity_BD2/casaApuestas.sol\":4567:4584  carreras[_codigo] */\n      dup2\n      mstore\n      0x20\n      add\n      swap1\n      dup2\n      mstore\n      0x20\n      add\n      0x00\n      keccak256\n        /* \"Solidity_BD2/casaApuestas.sol\":4567:4636  carreras[_codigo] = Carrera(_codigo, _nombre, Estado.Creada, 0, 0, 0) */\n      0x00\n      dup3\n      add\n      mload\n      dup2\n      0x00\n      add\n      sstore\n      0x20\n      dup3\n      add\n      mload\n      dup2\n      0x01\n      add\n      swap1\n      dup1\n      mload\n      swap1\n      0x20\n      add\n      swap1\n      tag_354\n      swap3\n      swap2\n      swap1\n      tag_277\n      jump\t// in\n    tag_354:\n      pop\n      0x40\n      dup3\n      add\n      mload\n      dup2\n      0x02\n      add\n      exp(0x0100, 0x00)\n      dup2\n      sload\n      dup2\n      0xff\n      mul\n      not\n      and\n      swap1\n      dup4\n      0x02\n      dup2\n      gt\n      iszero\n      tag_355\n      jumpi\n      invalid\n    tag_355:\n      mul\n      or\n      swap1\n      sstore\n      pop\n      0x60\n      dup3\n      add\n      mload\n      dup2\n      0x03\n      add\n      sstore\n      0x80\n      dup3\n      add\n      mload\n      dup2\n      0x04\n      add\n      sstore\n      0xa0\n      dup3\n      add\n      mload\n      dup2\n      0x05\n      add\n      sstore\n      swap1\n      pop\n      pop\n        /* \"Solidity_BD2/casaApuestas.sol\":4664:4665  1 */\n      0x01\n        /* \"Solidity_BD2/casaApuestas.sol\":4647:4660  totalCarreras */\n      dup1\n      0x00\n        /* \"Solidity_BD2/casaApuestas.sol\":4647:4665  totalCarreras += 1 */\n      dup3\n      dup3\n      sload\n      add\n      swap3\n      pop\n      pop\n      dup2\n      swap1\n      sstore\n      pop\n        /* \"Solidity_BD2/casaApuestas.sol\":1376:1377  _ */\n      pop\n        /* \"Solidity_BD2/casaApuestas.sol\":4443:4673  function crearCarrera(uint _codigo, string memory _nombre) public \r... */\n      pop\n      pop\n      jump\t// out\n        /* \"Solidity_BD2/casaApuestas.sol\":338:381  mapping(uint => uint[]) public competencias */\n    tag_112:\n      mstore(0x20, 0x04)\n      dup2\n      0x00\n      mstore\n      keccak256(0x00, 0x40)\n      dup2\n      dup2\n      sload\n      dup2\n      lt\n      tag_356\n      jumpi\n      invalid\n    tag_356:\n      swap1\n      0x00\n      mstore\n      keccak256(0x00, 0x20)\n      add\n      0x00\n      swap2\n      pop\n      swap2\n      pop\n      pop\n      sload\n      dup2\n      jump\t// out\n        /* \"Solidity_BD2/casaApuestas.sol\":6786:7029  function generarAleatorio(uint modulo) internal returns(uint){\r... */\n    tag_123:\n        /* \"Solidity_BD2/casaApuestas.sol\":6842:6846  uint */\n      0x00\n        /* \"Solidity_BD2/casaApuestas.sol\":6858:6872  uint randNonce */\n      dup1\n        /* \"Solidity_BD2/casaApuestas.sol\":6875:6876  0 */\n      0x00\n        /* \"Solidity_BD2/casaApuestas.sol\":6858:6876  uint randNonce = 0 */\n      swap1\n      pop\n        /* \"Solidity_BD2/casaApuestas.sol\":6887:6899  randNonce ++ */\n      dup1\n      dup1\n      0x01\n      add\n      swap2\n      pop\n      pop\n        /* \"Solidity_BD2/casaApuestas.sol\":6911:6922  uint numero */\n      0x00\n        /* \"Solidity_BD2/casaApuestas.sol\":6989:6995  modulo */\n      dup4\n        /* \"Solidity_BD2/casaApuestas.sol\":6957:6960  now */\n      timestamp\n        /* \"Solidity_BD2/casaApuestas.sol\":6962:6972  msg.sender */\n      caller\n        /* \"Solidity_BD2/casaApuestas.sol\":6974:6983  randNonce */\n      dup5\n        /* \"Solidity_BD2/casaApuestas.sol\":6940:6984  abi.encodePacked(now, msg.sender, randNonce) */\n      add(0x20, mload(0x40))\n      dup1\n      dup5\n      dup2\n      mstore\n      0x20\n      add\n      dup4\n      0xffffffffffffffffffffffffffffffffffffffff\n      and\n      0xffffffffffffffffffffffffffffffffffffffff\n      and\n      0x60\n      shl\n      dup2\n      mstore\n      0x14\n      add\n      dup3\n      dup2\n      mstore\n      0x20\n      add\n      swap4\n      pop\n      pop\n      pop\n      pop\n      mload(0x40)\n        /* \"--CODEGEN--\":49:53   */\n      0x20\n        /* \"--CODEGEN--\":39:46   */\n      dup2\n        /* \"--CODEGEN--\":30:37   */\n      dup4\n        /* \"--CODEGEN--\":26:47   */\n      sub\n        /* \"--CODEGEN--\":22:54   */\n      sub\n        /* \"--CODEGEN--\":13:20   */\n      dup2\n        /* \"--CODEGEN--\":6:55   */\n      mstore\n        /* \"Solidity_BD2/casaApuestas.sol\":6940:6984  abi.encodePacked(now, msg.sender, randNonce) */\n      swap1\n      0x40\n      mstore\n        /* \"Solidity_BD2/casaApuestas.sol\":6930:6985  keccak256(abi.encodePacked(now, msg.sender, randNonce)) */\n      dup1\n      mload\n      swap1\n      0x20\n      add\n      keccak256\n        /* \"Solidity_BD2/casaApuestas.sol\":6925:6986  uint(keccak256(abi.encodePacked(now, msg.sender, randNonce))) */\n      0x00\n      shr\n        /* \"Solidity_BD2/casaApuestas.sol\":6925:6995  uint(keccak256(abi.encodePacked(now, msg.sender, randNonce))) % modulo */\n      dup2\n      tag_359\n      jumpi\n      invalid\n    tag_359:\n      mod\n        /* \"Solidity_BD2/casaApuestas.sol\":6911:6995  uint numero = uint(keccak256(abi.encodePacked(now, msg.sender, randNonce))) % modulo */\n      swap1\n      pop\n        /* \"Solidity_BD2/casaApuestas.sol\":7014:7020  numero */\n      dup1\n        /* \"Solidity_BD2/casaApuestas.sol\":7006:7021  return (numero) */\n      swap3\n      pop\n      pop\n      pop\n        /* \"Solidity_BD2/casaApuestas.sol\":6786:7029  function generarAleatorio(uint modulo) internal returns(uint){\r... */\n      swap2\n      swap1\n      pop\n      jump\t// out\n        /* \"Solidity_BD2/casaApuestas.sol\":12643:13125  function uint2str(uint _i) internal pure returns (string memory _uintAsString) {\r... */\n    tag_167:\n        /* \"Solidity_BD2/casaApuestas.sol\":12693:12720  string memory _uintAsString */\n      0x60\n        /* \"Solidity_BD2/casaApuestas.sol\":12743:12744  0 */\n      0x00\n        /* \"Solidity_BD2/casaApuestas.sol\":12737:12739  _i */\n      dup3\n        /* \"Solidity_BD2/casaApuestas.sol\":12737:12744  _i == 0 */\n      eq\n        /* \"Solidity_BD2/casaApuestas.sol\":12733:12783  if (_i == 0) {\r... */\n      iszero\n      tag_361\n      jumpi\n        /* \"Solidity_BD2/casaApuestas.sol\":12761:12771  return \"0\" */\n      mload(0x40)\n      dup1\n      0x40\n      add\n      0x40\n      mstore\n      dup1\n      0x01\n      dup2\n      mstore\n      0x20\n      add\n      0x3000000000000000000000000000000000000000000000000000000000000000\n      dup2\n      mstore\n      pop\n      swap1\n      pop\n      jump(tag_360)\n        /* \"Solidity_BD2/casaApuestas.sol\":12733:12783  if (_i == 0) {\r... */\n    tag_361:\n        /* \"Solidity_BD2/casaApuestas.sol\":12793:12799  uint j */\n      0x00\n        /* \"Solidity_BD2/casaApuestas.sol\":12802:12804  _i */\n      dup3\n        /* \"Solidity_BD2/casaApuestas.sol\":12793:12804  uint j = _i */\n      swap1\n      pop\n        /* \"Solidity_BD2/casaApuestas.sol\":12815:12823  uint len */\n      0x00\n        /* \"Solidity_BD2/casaApuestas.sol\":12834:12903  while (j != 0) {\r... */\n    tag_362:\n        /* \"Solidity_BD2/casaApuestas.sol\":12846:12847  0 */\n      0x00\n        /* \"Solidity_BD2/casaApuestas.sol\":12841:12842  j */\n      dup3\n        /* \"Solidity_BD2/casaApuestas.sol\":12841:12847  j != 0 */\n      eq\n        /* \"Solidity_BD2/casaApuestas.sol\":12834:12903  while (j != 0) {\r... */\n      tag_363\n      jumpi\n        /* \"Solidity_BD2/casaApuestas.sol\":12864:12869  len++ */\n      dup1\n      dup1\n      0x01\n      add\n      swap2\n      pop\n      pop\n        /* \"Solidity_BD2/casaApuestas.sol\":12889:12891  10 */\n      0x0a\n        /* \"Solidity_BD2/casaApuestas.sol\":12884:12891  j /= 10 */\n      dup3\n      dup2\n      tag_364\n      jumpi\n      invalid\n    tag_364:\n      div\n      swap2\n      pop\n        /* \"Solidity_BD2/casaApuestas.sol\":12834:12903  while (j != 0) {\r... */\n      jump(tag_362)\n    tag_363:\n        /* \"Solidity_BD2/casaApuestas.sol\":12913:12930  bytes memory bstr */\n      0x60\n        /* \"Solidity_BD2/casaApuestas.sol\":12943:12946  len */\n      dup2\n        /* \"Solidity_BD2/casaApuestas.sol\":12933:12947  new bytes(len) */\n      mload(0x40)\n      swap1\n      dup1\n      dup3\n      mstore\n      dup1\n      0x1f\n      add\n      not(0x1f)\n      and\n      0x20\n      add\n      dup3\n      add\n      0x40\n      mstore\n      dup1\n      iszero\n      tag_365\n      jumpi\n      dup2\n      0x20\n      add\n        /* \"--CODEGEN--\":29:30   */\n      0x01\n        /* \"--CODEGEN--\":21:27   */\n      dup3\n        /* \"--CODEGEN--\":17:31   */\n      mul\n        /* \"--CODEGEN--\":116:120   */\n      dup1\n        /* \"--CODEGEN--\":104:114   */\n      codesize\n        /* \"--CODEGEN--\":96:102   */\n      dup4\n        /* \"--CODEGEN--\":87:121   */\n      codecopy\n        /* \"--CODEGEN--\":147:151   */\n      dup1\n        /* \"--CODEGEN--\":139:145   */\n      dup3\n        /* \"--CODEGEN--\":135:152   */\n      add\n        /* \"--CODEGEN--\":125:152   */\n      swap2\n      pop\n        /* \"--CODEGEN--\":0:156   */\n      pop\n        /* \"Solidity_BD2/casaApuestas.sol\":12933:12947  new bytes(len) */\n      swap1\n      pop\n    tag_365:\n      pop\n        /* \"Solidity_BD2/casaApuestas.sol\":12913:12947  bytes memory bstr = new bytes(len) */\n      swap1\n      pop\n        /* \"Solidity_BD2/casaApuestas.sol\":12958:12964  uint k */\n      0x00\n        /* \"Solidity_BD2/casaApuestas.sol\":12973:12974  1 */\n      0x01\n        /* \"Solidity_BD2/casaApuestas.sol\":12967:12970  len */\n      dup4\n        /* \"Solidity_BD2/casaApuestas.sol\":12967:12974  len - 1 */\n      sub\n        /* \"Solidity_BD2/casaApuestas.sol\":12958:12974  uint k = len - 1 */\n      swap1\n      pop\n        /* \"Solidity_BD2/casaApuestas.sol\":12985:13088  while (_i != 0) {\r... */\n    tag_366:\n        /* \"Solidity_BD2/casaApuestas.sol\":12998:12999  0 */\n      0x00\n        /* \"Solidity_BD2/casaApuestas.sol\":12992:12994  _i */\n      dup7\n        /* \"Solidity_BD2/casaApuestas.sol\":12992:12999  _i != 0 */\n      eq\n        /* \"Solidity_BD2/casaApuestas.sol\":12985:13088  while (_i != 0) {\r... */\n      tag_367\n      jumpi\n        /* \"Solidity_BD2/casaApuestas.sol\":13049:13051  10 */\n      0x0a\n        /* \"Solidity_BD2/casaApuestas.sol\":13044:13046  _i */\n      dup7\n        /* \"Solidity_BD2/casaApuestas.sol\":13044:13051  _i % 10 */\n      dup2\n      tag_368\n      jumpi\n      invalid\n    tag_368:\n      mod\n        /* \"Solidity_BD2/casaApuestas.sol\":13039:13041  48 */\n      0x30\n        /* \"Solidity_BD2/casaApuestas.sol\":13039:13051  48 + _i % 10 */\n      add\n        /* \"Solidity_BD2/casaApuestas.sol\":13028:13053  byte(uint8(48 + _i % 10)) */\n      0xf8\n      shl\n        /* \"Solidity_BD2/casaApuestas.sol\":13016:13020  bstr */\n      dup3\n        /* \"Solidity_BD2/casaApuestas.sol\":13021:13024  k-- */\n      dup3\n      dup1\n      0x01\n      swap1\n      sub\n      swap4\n      pop\n        /* \"Solidity_BD2/casaApuestas.sol\":13016:13025  bstr[k--] */\n      dup2\n      mload\n      dup2\n      lt\n      tag_369\n      jumpi\n      invalid\n    tag_369:\n      0x20\n      add\n      add\n        /* \"Solidity_BD2/casaApuestas.sol\":13016:13053  bstr[k--] = byte(uint8(48 + _i % 10)) */\n      swap1\n      not(0xffffffffffffffffffffffffffffffffffffffffffffffffffffffffffffff)\n      and\n      swap1\n      dup2\n      0x00\n      byte\n      swap1\n      mstore8\n      pop\n        /* \"Solidity_BD2/casaApuestas.sol\":13074:13076  10 */\n      0x0a\n        /* \"Solidity_BD2/casaApuestas.sol\":13068:13076  _i /= 10 */\n      dup7\n      dup2\n      tag_370\n      jumpi\n      invalid\n    tag_370:\n      div\n      swap6\n      pop\n        /* \"Solidity_BD2/casaApuestas.sol\":12985:13088  while (_i != 0) {\r... */\n      jump(tag_366)\n    tag_367:\n        /* \"Solidity_BD2/casaApuestas.sol\":13112:13116  bstr */\n      dup2\n        /* \"Solidity_BD2/casaApuestas.sol\":13098:13117  return string(bstr) */\n      swap5\n      pop\n      pop\n      pop\n      pop\n      pop\n        /* \"Solidity_BD2/casaApuestas.sol\":12643:13125  function uint2str(uint _i) internal pure returns (string memory _uintAsString) {\r... */\n    tag_360:\n      swap2\n      swap1\n      pop\n      jump\t// out\n        /* \"Solidity_BD2/casaApuestas.sol\":27:13130  contract casaApuestas{\r... */\n    tag_277:\n      dup3\n      dup1\n      sload\n      0x01\n      dup2\n      0x01\n      and\n      iszero\n      0x0100\n      mul\n      sub\n      and\n      0x02\n      swap1\n      div\n      swap1\n      0x00\n      mstore\n      keccak256(0x00, 0x20)\n      swap1\n      0x1f\n      add\n      0x20\n      swap1\n      div\n      dup2\n      add\n      swap3\n      dup3\n      0x1f\n      lt\n      tag_372\n      jumpi\n      dup1\n      mload\n      not(0xff)\n      and\n      dup4\n      dup1\n      add\n      or\n      dup6\n      sstore\n      jump(tag_371)\n    tag_372:\n      dup3\n      dup1\n      add\n      0x01\n      add\n      dup6\n      sstore\n      dup3\n      iszero\n      tag_371\n      jumpi\n      swap2\n      dup3\n      add\n    tag_373:\n      dup3\n      dup2\n      gt\n      iszero\n      tag_374\n      jumpi\n      dup3\n      mload\n      dup3\n      sstore\n      swap2\n      0x20\n      add\n      swap2\n      swap1\n      0x01\n      add\n      swap1\n      jump(tag_373)\n    tag_374:\n    tag_371:\n      pop\n      swap1\n      pop\n      tag_375\n      swap2\n      swap1\n      tag_376\n      jump\t// in\n    tag_375:\n      pop\n      swap1\n      jump\t// out\n    tag_376:\n      tag_377\n      swap2\n      swap1\n    tag_378:\n      dup1\n      dup3\n      gt\n      iszero\n      tag_379\n      jumpi\n      0x00\n      dup2\n      0x00\n      swap1\n      sstore\n      pop\n      0x01\n      add\n      jump(tag_378)\n    tag_379:\n      pop\n      swap1\n      jump\n    tag_377:\n      swap1\n      jump\t// out\n    stop\n    data_015e2967b1a324c495f3905ebc30437189d94d81ee000a6adba682a4697a35b6 536f6c6f2073652070756564652061706f7374617220706f7220756e20636162616c6c6f2064656e74726f20646520657374612063617272657261\n    data_22029fc9bd0e2ef2cc87547f1b8c198f7797b26c5004a179120be0b5f25949fe 59612065786973746520756e61206361727265726120636f6e20657374652063c3b36469676f\n    data_234e92a03eef93e773d3f62d6519fa001994567a49c6e3053a36d351ec2424b1 4c612063617272657261206465626520636f6e74617220636f6e20616c206d656e6f73203220636162616c6c6f73\n    data_445dd79b894b98a34a1cc7c38a5bd2de2e19478d6390b1e445457362fd7001d8 456c20696e766f6361646f7220646562652073657220656c20616e66697472696f6e\n    data_48cf4ac7fcb22fd30a2178e5656f2b40afd30f2764f5b3cd17a43f9dd083aee5 4c612063617272657261207961206375656e746120636f6e203520636162616c6c6f73\n    data_68cf97aa6bcebf4d7421b6bca309a0adc441ed0fc23124d3a38219dec5dbd40b 4c61206361727265726120696e67726573616461206e6f207469656e6520636162616c6c6f73\n    data_6f447a6923745e6be6f901d62f9112c38aa63e63c11e0640be511470a9c26a07 456c206d6f6e746f206465206c612061707565737461206465626520736572206d61796f7220612030\n    data_90d24e0daaf5dcc457b4940b4ca16d8fd57765162f8ffee460d8a22da7c775e1 4c61206361727265726120696e67726573616461206e6f207469656e652061706f737461646f726573\n    data_961fcad8d1437fb7fcd32c3c0cb1abc4a020f237cc5c3c4ecf402a363363c4fd 4573746520636162616c6c6f206e6f20736520656e6375656e747261207265676973747261646f20656e20657374612063617272657261\n    data_c258d99636b674a8c760b7677c129033d423282c7394402c18f597a1eab563a1 456c20696e766f6361646f7220646562652073657220756e207573756172696f206469666572656e746520616c20616e66697472696f6e\n    data_d6db3988662478777908c1e662b2ec848309dbbd995b7b6deab44e369aa15534 59612065786973746520756e20636162616c6c6f20636f6e20657374652063c3b36469676f\n    data_dd2593dc49389a3dc12e11d6acb11a1c405e488c123ae730810838cacb526339 4573746520636162616c6c6f20796120736520656e6375656e747261207265676973747261646f20656e20657374612063617272657261\n    data_e91ca438e9e3f1e0e0a5b1a72a508ed5ae254b3cb59572817ac1ec6e2a488952 4c612063617272657261206e6f2063756d706c6520636f6e20656c2065737461646f2072657175657269646f\n\n    auxdata: 0xa2646970667358221220bccb77e9a9a44ee55410462e6b12daf049a6fe6059517cf46eba33c87d4a014864736f6c63430006000033\n}\n",
				"bytecode": {
					"linkReferences": {},
					"object": "608060405234801561001057600080fd5b50336000806101000a81548173ffffffffffffffffffffffffffffffffffffffff021916908373ffffffffffffffffffffffffffffffffffffffff160217905550613bf6806100606000396000f3fe6080604052600436106100fe5760003560e01c8063d066cebe11610095578063f0b73b5411610064578063f0b73b5414610724578063f2f6da3e146107df578063f7edd6db14610817578063f9d32e4914610852578063fb34d0f714610924576100fe565b8063d066cebe1461053b578063dfe22b5f146105c0578063e6581b9d14610645578063e9ec5583146106f9576100fe565b8063456f4b57116100d1578063456f4b57146102de5780635194f59c146103355780635ee816661461040757806379b31e69146104ec576100fe565b8063010a0e95146101035780631b895c2f1461013157806326d1c7d0146101e5578063286f6b4c1461022a575b600080fd5b61012f6004803603602081101561011957600080fd5b810190808035906020019092919050505061097d565b005b34801561013d57600080fd5b5061016a6004803603602081101561015457600080fd5b81019080803590602001909291905050506111e9565b6040518080602001828103825283818151815260200191508051906020019080838360005b838110156101aa57808201518184015260208101905061018f565b50505050905090810190601f1680156101d75780820380516001836020036101000a031916815260200191505b509250505060405180910390f35b3480156101f157600080fd5b506102286004803603604081101561020857600080fd5b81019080803590602001909291908035906020019092919050505061172d565b005b34801561023657600080fd5b506102636004803603602081101561024d57600080fd5b8101908080359060200190929190505050611b54565b6040518080602001828103825283818151815260200191508051906020019080838360005b838110156102a3578082015181840152602081019050610288565b50505050905090810190601f1680156102d05780820380516001836020036101000a031916815260200191505b509250505060405180910390f35b3480156102ea57600080fd5b506102f361236d565b604051808273ffffffffffffffffffffffffffffffffffffffff1673ffffffffffffffffffffffffffffffffffffffff16815260200191505060405180910390f35b34801561034157600080fd5b506104056004803603604081101561035857600080fd5b81019080803590602001909291908035906020019064010000000081111561037f57600080fd5b82018360208201111561039157600080fd5b803590602001918460018302840111640100000000831117156103b357600080fd5b91908080601f016020809104026020016040519081016040528093929190818152602001838380828437600081840152601f19601f820116905080830192505050505050509192919290505050612392565b005b34801561041357600080fd5b506104406004803603602081101561042a57600080fd5b8101908080359060200190929190505050612512565b604051808781526020018060200186600281111561045a57fe5b60ff168152602001858152602001848152602001838152602001828103825287818151815260200191508051906020019080838360005b838110156104ac578082015181840152602081019050610491565b50505050905090810190601f1680156104d95780820380516001836020036101000a031916815260200191505b5097505050505050505060405180910390f35b3480156104f857600080fd5b506105256004803603602081101561050f57600080fd5b81019080803590602001909291905050506125f3565b6040518082815260200191505060405180910390f35b34801561054757600080fd5b5061057e6004803603604081101561055e57600080fd5b81019080803590602001909291908035906020019092919050505061274c565b604051808273ffffffffffffffffffffffffffffffffffffffff1673ffffffffffffffffffffffffffffffffffffffff16815260200191505060405180910390f35b3480156105cc57600080fd5b50610603600480360360408110156105e357600080fd5b8101908080359060200190929190803590602001909291905050506128b3565b604051808273ffffffffffffffffffffffffffffffffffffffff1673ffffffffffffffffffffffffffffffffffffffff16815260200191505060405180910390f35b34801561065157600080fd5b5061067e6004803603602081101561066857600080fd5b81019080803590602001909291905050506128fe565b6040518080602001828103825283818151815260200191508051906020019080838360005b838110156106be5780820151818401526020810190506106a3565b50505050905090810190601f1680156106eb5780820380516001836020036101000a031916815260200191505b509250505060405180910390f35b34801561070557600080fd5b5061070e612adf565b6040518082815260200191505060405180910390f35b34801561073057600080fd5b5061075d6004803603602081101561074757600080fd5b8101908080359060200190929190505050612ae5565b6040518083815260200180602001828103825283818151815260200191508051906020019080838360005b838110156107a3578082015181840152602081019050610788565b50505050905090810190601f1680156107d05780820380516001836020036101000a031916815260200191505b50935050505060405180910390f35b610815600480360360408110156107f557600080fd5b810190808035906020019092919080359060200190929190505050612ba1565b005b34801561082357600080fd5b506108506004803603602081101561083a57600080fd5b8101908080359060200190929190505050613266565b005b34801561085e57600080fd5b506109226004803603604081101561087557600080fd5b81019080803590602001909291908035906020019064010000000081111561089c57600080fd5b8201836020820111156108ae57600080fd5b803590602001918460018302840111640100000000831117156108d057600080fd5b91908080601f016020809104026020016040519081016040528093929190818152602001838380828437600081840152601f19601f8201169050808301925050505050505091929192905050506134f1565b005b34801561093057600080fd5b506109676004803603604081101561094757600080fd5b8101908080359060200190929190803590602001909291905050506136ef565b6040518082815260200191505060405180910390f35b6000809054906101000a900473ffffffffffffffffffffffffffffffffffffffff1673ffffffffffffffffffffffffffffffffffffffff163373ffffffffffffffffffffffffffffffffffffffff1614610a22576040517f08c379a0000000000000000000000000000000000000000000000000000000008152600401808060200182810382526022815260200180613a0e6022913960400191505060405180910390fd5b806000600260008381526020019081526020016000206001018054600181600116156101000203166002900490501415610ac4576040517f08c379a000000000000000000000000000000000000000000000000000000000815260040180806020018281038252601e8152602001807f4c61206361727265726120696e67726573616461206e6f20657869737465000081525060200191505060405180910390fd5b816001806002811115610ad357fe5b6002600084815260200190815260200160002060020160009054906101000a900460ff166002811115610b0257fe5b14610b58576040517f08c379a000000000000000000000000000000000000000000000000000000000815260040180806020018281038252602c815260200180613b95602c913960400191505060405180910390fd5b6000610b79600260008781526020019081526020016000206004015461371d565b90506000809050600460008781526020019081526020016000208281548110610b9e57fe5b9060005260206000200154600260008881526020019081526020016000206005018190555060008090505b6005600088815260200190815260200160002080549050811015610d24576000600560008981526020019081526020016000208281548110610c0757fe5b9060005260206000200160009054906101000a900473ffffffffffffffffffffffffffffffffffffffff169050600460008981526020019081526020016000208481548110610c5257fe5b9060005260206000200154600260008a815260200190815260200160002060060160008373ffffffffffffffffffffffffffffffffffffffff1673ffffffffffffffffffffffffffffffffffffffff168152602001908152602001600020600101541415610d16576002600089815260200190815260200160002060060160008273ffffffffffffffffffffffffffffffffffffffff1673ffffffffffffffffffffffffffffffffffffffff16815260200190815260200160002060000154830192505b508080600101915050610bc9565b506000811461114c5760008090505b60056000888152602001908152602001600020805490508110156110df576000600560008981526020019081526020016000208281548110610d7157fe5b9060005260206000200160009054906101000a900473ffffffffffffffffffffffffffffffffffffffff169050600460008981526020019081526020016000208481548110610dbc57fe5b9060005260206000200154600260008a815260200190815260200160002060060160008373ffffffffffffffffffffffffffffffffffffffff1673ffffffffffffffffffffffffffffffffffffffff1681526020019081526020016000206001015414156110d15782600260008a815260200190815260200160002060060160008373ffffffffffffffffffffffffffffffffffffffff1673ffffffffffffffffffffffffffffffffffffffff1681526020019081526020016000206000015481610e8357fe5b04600260008a815260200190815260200160002060060160008373ffffffffffffffffffffffffffffffffffffffff1673ffffffffffffffffffffffffffffffffffffffff168152602001908152602001600020600301819055508073ffffffffffffffffffffffffffffffffffffffff166108fc6127106004600260008d81526020019081526020016000206003015481610f1b57fe5b04600260008d8152602001908152602001600020600301540386612710600260008f815260200190815260200160002060060160008873ffffffffffffffffffffffffffffffffffffffff1673ffffffffffffffffffffffffffffffffffffffff168152602001908152602001600020600001540281610f9757fe5b040281610fa057fe5b049081150290604051600060405180830381858888f19350505050158015610fcc573d6000803e3d6000fd5b506127106004600260008b81526020019081526020016000206003015481610ff057fe5b04600260008b8152602001908152602001600020600301540384612710600260008d815260200190815260200160002060060160008673ffffffffffffffffffffffffffffffffffffffff1673ffffffffffffffffffffffffffffffffffffffff16815260200190815260200160002060000154028161106c57fe5b04028161107557fe5b04600260008a815260200190815260200160002060060160008373ffffffffffffffffffffffffffffffffffffffff1673ffffffffffffffffffffffffffffffffffffffff168152602001908152602001600020600401819055505b508080600101915050610d33565b503373ffffffffffffffffffffffffffffffffffffffff166108fc6004600260008a8152602001908152602001600020600301548161111a57fe5b049081150290604051600060405180830381858888f19350505050158015611146573d6000803e3d6000fd5b506111aa565b3373ffffffffffffffffffffffffffffffffffffffff166108fc60026000898152602001908152602001600020600301549081150290604051600060405180830381858888f193505050501580156111a8573d6000803e3d6000fd5b505b600280600088815260200190815260200160002060020160006101000a81548160ff021916908360028111156111dc57fe5b0217905550505050505050565b606081600060026000838152602001908152602001600020600101805460018160011615610100020316600290049050141561128d576040517f08c379a000000000000000000000000000000000000000000000000000000000815260040180806020018281038252601e8152602001807f4c61206361727265726120696e67726573616461206e6f20657869737465000081525060200191505060405180910390fd5b82600180600281111561129c57fe5b6002600084815260200190815260200160002060020160009054906101000a900460ff1660028111156112cb57fe5b14611321576040517f08c379a000000000000000000000000000000000000000000000000000000000815260040180806020018281038252602c815260200180613b95602c913960400191505060405180910390fd5b60606040518060400160405280601881526020017f436162616c6c6f7320656e206c61206361727265726120230000000000000000815250905060008090508161136a886137ac565b6040516020018083805190602001908083835b602083106113a0578051825260208201915060208101905060208303925061137d565b6001836020036101000a03801982511681845116808217855250505050505090500182805190602001908083835b602083106113f157805182526020820191506020810190506020830392506113ce565b6001836020036101000a038019825116818451168082178552505050505050905001925050506040516020818303038152906040529150816040516020018082805190602001908083835b6020831061145f578051825260208201915060208101905060208303925061143c565b6001836020036101000a038019825116818451168082178552505050505050905001807f3a20000000000000000000000000000000000000000000000000000000000000815250600201915050604051602081830303815290604052915060008090505b60046000898152602001908152602001600020805490508110156116a1576001915082611517600460008b8152602001908152602001600020838154811061150757fe5b90600052602060002001546137ac565b6040516020018083805190602001908083835b6020831061154d578051825260208201915060208101905060208303925061152a565b6001836020036101000a03801982511681845116808217855250505050505090500182805190602001908083835b6020831061159e578051825260208201915060208101905060208303925061157b565b6001836020036101000a0380198251168184511680821785525050505050509050019250505060405160208183030381529060405292506001600460008a81526020019081526020016000208054905003811461168f57826040516020018082805190602001908083835b6020831061162c5780518252602082019150602081019050602083039250611609565b6001836020036101000a038019825116818451168082178552505050505050905001807f202d2000000000000000000000000000000000000000000000000000000000008152506003019150506040516020818303038152906040529250611694565b6116a1565b80806001019150506114c3565b508061172057816040516020018082805190602001908083835b602083106116de57805182526020820191506020810190506020830392506116bb565b6001836020036101000a03801982511681845116808217855250505050505090500180613a536026913960260191505060405160208183030381529060405291505b8195505050505050919050565b6000809054906101000a900473ffffffffffffffffffffffffffffffffffffffff1673ffffffffffffffffffffffffffffffffffffffff163373ffffffffffffffffffffffffffffffffffffffff16146117d2576040517f08c379a0000000000000000000000000000000000000000000000000000000008152600401808060200182810382526022815260200180613a0e6022913960400191505060405180910390fd5b8060008060028111156117e157fe5b6002600084815260200190815260200160002060020160009054906101000a900460ff16600281111561181057fe5b14611866576040517f08c379a000000000000000000000000000000000000000000000000000000000815260040180806020018281038252602c815260200180613b95602c913960400191505060405180910390fd5b8260056004600083815260200190815260200160002080549050106118d6576040517f08c379a0000000000000000000000000000000000000000000000000000000008152600401808060200182810382526023815260200180613a306023913960400191505060405180910390fd5b846000600360008381526020019081526020016000206001018054600181600116156101000203166002900490501415611978576040517f08c379a000000000000000000000000000000000000000000000000000000000815260040180806020018281038252601e8152602001807f456c20636162616c6c6f20696e6772657361646f206e6f20657869737465000081525060200191505060405180910390fd5b846000600260008381526020019081526020016000206001018054600181600116156101000203166002900490501415611a1a576040517f08c379a000000000000000000000000000000000000000000000000000000000815260040180806020018281038252601e8152602001807f4c61206361727265726120696e67726573616461206e6f20657869737465000081525060200191505060405180910390fd5b8587600060046000848152602001908152602001600020805490509050600080905060008090505b82811015611a905783600460008781526020019081526020016000208281548110611a6957fe5b90600052602060002001541415611a835760019150611a90565b8080600101915050611a42565b508015611ae8576040517f08c379a0000000000000000000000000000000000000000000000000000000008152600401808060200182810382526037815260200180613b5e6037913960400191505060405180910390fd5b600460008b81526020019081526020016000208b90806001815401808255809150506001900390600052602060002001600090919091909150556001600260008c8152602001908152602001600020600401600082825401925050819055505050505050505050505050565b6060816000600260008381526020019081526020016000206001018054600181600116156101000203166002900490501415611bf8576040517f08c379a000000000000000000000000000000000000000000000000000000000815260040180806020018281038252601e8152602001807f4c61206361727265726120696e67726573616461206e6f20657869737465000081525060200191505060405180910390fd5b826002806002811115611c0757fe5b6002600084815260200190815260200160002060020160009054906101000a900460ff166002811115611c3657fe5b14611c8c576040517f08c379a000000000000000000000000000000000000000000000000000000000815260040180806020018281038252602c815260200180613b95602c913960400191505060405180910390fd5b846000600560008381526020019081526020016000208054905011611cfc576040517f08c379a0000000000000000000000000000000000000000000000000000000008152600401808060200182810382526029815260200180613aa26029913960400191505060405180910390fd5b60606040518060400160405280601981526020017f47616e61646f72657320656e206c6120636172726572612023000000000000008152509050600080905081611d45896137ac565b6040516020018083805190602001908083835b60208310611d7b5780518252602082019150602081019050602083039250611d58565b6001836020036101000a03801982511681845116808217855250505050505090500182805190602001908083835b60208310611dcc5780518252602082019150602081019050602083039250611da9565b6001836020036101000a038019825116818451168082178552505050505050905001925050506040516020818303038152906040529150816040516020018082805190602001908083835b60208310611e3a5780518252602082019150602081019050602083039250611e17565b6001836020036101000a038019825116818451168082178552505050505050905001807f3a20000000000000000000000000000000000000000000000000000000000000815250600201915050604051602081830303815290604052915060008090505b600560008a81526020019081526020016000208054905081101561235e576000600260008b81526020019081526020016000206006016000600560008d81526020019081526020016000208481548110611ef457fe5b9060005260206000200160009054906101000a900473ffffffffffffffffffffffffffffffffffffffff1673ffffffffffffffffffffffffffffffffffffffff1673ffffffffffffffffffffffffffffffffffffffff168152602001908152602001600020600401549050600081146123505760019250836040516020018082805190602001908083835b60208310611fa25780518252602082019150602081019050602083039250611f7f565b6001836020036101000a038019825116818451168082178552505050505050905001807f41706f737461646f722023000000000000000000000000000000000000000000815250600b0191505060405160208183030381529060405293508361200a836137ac565b6040516020018083805190602001908083835b60208310612040578051825260208201915060208101905060208303925061201d565b6001836020036101000a03801982511681845116808217855250505050505090500182805190602001908083835b60208310612091578051825260208201915060208101905060208303925061206e565b6001836020036101000a038019825116818451168082178552505050505050905001925050506040516020818303038152906040529350836040516020018082805190602001908083835b602083106120ff57805182526020820191506020810190506020830392506120dc565b6001836020036101000a038019825116818451168082178552505050505050905001807f2d000000000000000000000000000000000000000000000000000000000000008152506001019150506040516020818303038152906040529350836040516020018082805190602001908083835b602083106121945780518252602082019150602081019050602083039250612171565b6001836020036101000a038019825116818451168082178552505050505050905001807f47616e6f3a2000000000000000000000000000000000000000000000000000008152506006019150506040516020818303038152906040529350836121fc826137ac565b6040516020018083805190602001908083835b60208310612232578051825260208201915060208101905060208303925061220f565b6001836020036101000a03801982511681845116808217855250505050505090500182805190602001908083835b602083106122835780518252602082019150602081019050602083039250612260565b6001836020036101000a038019825116818451168082178552505050505050905001925050506040516020818303038152906040529350836040516020018082805190602001908083835b602083106122f157805182526020820191506020810190506020830392506122ce565b6001836020036101000a038019825116818451168082178552505050505050905001807f202000000000000000000000000000000000000000000000000000000000000081525060020191505060405160208183030381529060405293505b508080600101915050611e9e565b50819650505050505050919050565b6000809054906101000a900473ffffffffffffffffffffffffffffffffffffffff1681565b6000809054906101000a900473ffffffffffffffffffffffffffffffffffffffff1673ffffffffffffffffffffffffffffffffffffffff163373ffffffffffffffffffffffffffffffffffffffff1614612437576040517f08c379a0000000000000000000000000000000000000000000000000000000008152600401808060200182810382526022815260200180613a0e6022913960400191505060405180910390fd5b81600060036000838152602001908152602001600020600101805460018160011615610100020316600290049050146124bb576040517f08c379a0000000000000000000000000000000000000000000000000000000008152600401808060200182810382526025815260200180613b396025913960400191505060405180910390fd5b604051806040016040528084815260200183815250600360008581526020019081526020016000206000820151816000015560208201518160010190805190602001906125099291906138d9565b50905050505050565b6002602052806000526040600020600091509050806000015490806001018054600181600116156101000203166002900480601f0160208091040260200160405190810160405280929190818152602001828054600181600116156101000203166002900480156125c45780601f10612599576101008083540402835291602001916125c4565b820191906000526020600020905b8154815290600101906020018083116125a757829003601f168201915b5050505050908060020160009054906101000a900460ff16908060030154908060040154908060050154905086565b6000816000600260008381526020019081526020016000206001018054600181600116156101000203166002900490501415612697576040517f08c379a000000000000000000000000000000000000000000000000000000000815260040180806020018281038252601e8152602001807f4c61206361727265726120696e67726573616461206e6f20657869737465000081525060200191505060405180910390fd5b8260028060028111156126a657fe5b6002600084815260200190815260200160002060020160009054906101000a900460ff1660028111156126d557fe5b1461272b576040517f08c379a000000000000000000000000000000000000000000000000000000000815260040180806020018281038252602c815260200180613b95602c913960400191505060405180910390fd5b60026000868152602001908152602001600020600501549350505050919050565b60008160006002600083815260200190815260200160002060010180546001816001161561010002031660029004905014156127f0576040517f08c379a000000000000000000000000000000000000000000000000000000000815260040180806020018281038252601e8152602001807f4c61206361727265726120696e67726573616461206e6f20657869737465000081525060200191505060405180910390fd5b826000600560008381526020019081526020016000208054905011612860576040517f08c379a0000000000000000000000000000000000000000000000000000000008152600401808060200182810382526029815260200180613aa26029913960400191505060405180910390fd5b60056000858152602001908152602001600020858154811061287e57fe5b9060005260206000200160009054906101000a900473ffffffffffffffffffffffffffffffffffffffff169250505092915050565b600560205281600052604060002081815481106128cc57fe5b906000526020600020016000915091509054906101000a900473ffffffffffffffffffffffffffffffffffffffff1681565b60608160006002600083815260200190815260200160002060010180546001816001161561010002031660029004905014156129a2576040517f08c379a000000000000000000000000000000000000000000000000000000000815260040180806020018281038252601e8152602001807f4c61206361727265726120696e67726573616461206e6f20657869737465000081525060200191505060405180910390fd5b600060028111156129af57fe5b6002600085815260200190815260200160002060020160009054906101000a900460ff1660028111156129de57fe5b1415612a21576040518060400160405280600681526020017f43726561646100000000000000000000000000000000000000000000000000008152509150612ad9565b60016002811115612a2e57fe5b6002600085815260200190815260200160002060020160009054906101000a900460ff166002811115612a5d57fe5b1415612aa0576040518060400160405280600a81526020017f52656769737472616461000000000000000000000000000000000000000000008152509150612ad9565b6040518060400160405280600981526020017f5465726d696e616461000000000000000000000000000000000000000000000081525091505b50919050565b60015481565b6003602052806000526040600020600091509050806000015490806001018054600181600116156101000203166002900480601f016020809104026020016040519081016040528092919081815260200182805460018160011615610100020316600290048015612b975780601f10612b6c57610100808354040283529160200191612b97565b820191906000526020600020905b815481529060010190602001808311612b7a57829003601f168201915b5050505050905082565b6000809054906101000a900473ffffffffffffffffffffffffffffffffffffffff1673ffffffffffffffffffffffffffffffffffffffff163373ffffffffffffffffffffffffffffffffffffffff161415612c47576040517f08c379a0000000000000000000000000000000000000000000000000000000008152600401808060200182810382526037815260200180613b026037913960400191505060405180910390fd5b806001806002811115612c5657fe5b6002600084815260200190815260200160002060020160009054906101000a900460ff166002811115612c8557fe5b14612cdb576040517f08c379a000000000000000000000000000000000000000000000000000000000815260040180806020018281038252602c815260200180613b95602c913960400191505060405180910390fd5b836000600360008381526020019081526020016000206001018054600181600116156101000203166002900490501415612d7d576040517f08c379a000000000000000000000000000000000000000000000000000000000815260040180806020018281038252601e8152602001807f456c20636162616c6c6f20696e6772657361646f206e6f20657869737465000081525060200191505060405180910390fd5b836000600260008381526020019081526020016000206001018054600181600116156101000203166002900490501415612e1f576040517f08c379a000000000000000000000000000000000000000000000000000000000815260040180806020018281038252601e8152602001807f4c61206361727265726120696e67726573616461206e6f20657869737465000081525060200191505060405180910390fd5b8486600060046000848152602001908152602001600020805490509050600080905060008090505b82811015612e955783600460008781526020019081526020016000208281548110612e6e57fe5b90600052602060002001541415612e885760019150612e95565b8080600101915050612e47565b5080612eec576040517f08c379a0000000000000000000000000000000000000000000000000000000008152600401808060200182810382526037815260200180613acb6037913960400191505060405180910390fd5b3460008111612f46576040517f08c379a0000000000000000000000000000000000000000000000000000000008152600401808060200182810382526029815260200180613a796029913960400191505060405180910390fd5b60003490506000339050600260008d815260200190815260200160002060060160008273ffffffffffffffffffffffffffffffffffffffff1673ffffffffffffffffffffffffffffffffffffffff16815260200190815260200160002060020160009054906101000a900460ff16156130f4578c600260008e815260200190815260200160002060060160008373ffffffffffffffffffffffffffffffffffffffff1673ffffffffffffffffffffffffffffffffffffffff1681526020019081526020016000206001015414613067576040517f08c379a000000000000000000000000000000000000000000000000000000000815260040180806020018281038252603b81526020018061397f603b913960400191505060405180910390fd5b81600260008e815260200190815260200160002060060160008373ffffffffffffffffffffffffffffffffffffffff1673ffffffffffffffffffffffffffffffffffffffff1681526020019081526020016000206000016000828254019250508190555081600260008e815260200190815260200160002060030160008282540192505081905550613257565b6040518060a001604052808381526020018e8152602001600115158152602001600081526020016000815250600260008e815260200190815260200160002060060160008373ffffffffffffffffffffffffffffffffffffffff1673ffffffffffffffffffffffffffffffffffffffff168152602001908152602001600020600082015181600001556020820151816001015560408201518160020160006101000a81548160ff021916908315150217905550606082015181600301556080820151816004015590505081600260008e815260200190815260200160002060030160008282540192505081905550600560008d8152602001908152602001600020819080600181540180825580915050600190039060005260206000200160009091909190916101000a81548173ffffffffffffffffffffffffffffffffffffffff021916908373ffffffffffffffffffffffffffffffffffffffff1602179055505b50505050505050505050505050565b6000809054906101000a900473ffffffffffffffffffffffffffffffffffffffff1673ffffffffffffffffffffffffffffffffffffffff163373ffffffffffffffffffffffffffffffffffffffff161461330b576040517f08c379a0000000000000000000000000000000000000000000000000000000008152600401808060200182810382526022815260200180613a0e6022913960400191505060405180910390fd5b80600080600281111561331a57fe5b6002600084815260200190815260200160002060020160009054906101000a900460ff16600281111561334957fe5b1461339f576040517f08c379a000000000000000000000000000000000000000000000000000000000815260040180806020018281038252602c815260200180613b95602c913960400191505060405180910390fd5b826000600260008381526020019081526020016000206001018054600181600116156101000203166002900490501415613441576040517f08c379a000000000000000000000000000000000000000000000000000000000815260040180806020018281038252601e8152602001807f4c61206361727265726120696e67726573616461206e6f20657869737465000081525060200191505060405180910390fd5b836002600460008381526020019081526020016000208054905010156134b2576040517f08c379a000000000000000000000000000000000000000000000000000000000815260040180806020018281038252602e8152602001806139e0602e913960400191505060405180910390fd5b60016002600087815260200190815260200160002060020160006101000a81548160ff021916908360028111156134e557fe5b02179055505050505050565b6000809054906101000a900473ffffffffffffffffffffffffffffffffffffffff1673ffffffffffffffffffffffffffffffffffffffff163373ffffffffffffffffffffffffffffffffffffffff1614613596576040517f08c379a0000000000000000000000000000000000000000000000000000000008152600401808060200182810382526022815260200180613a0e6022913960400191505060405180910390fd5b816000600260008381526020019081526020016000206001018054600181600116156101000203166002900490501461361a576040517f08c379a00000000000000000000000000000000000000000000000000000000081526004018080602001828103825260268152602001806139ba6026913960400191505060405180910390fd5b6040518060c001604052808481526020018381526020016000600281111561363e57fe5b8152602001600081526020016000815260200160008152506002600085815260200190815260200160002060008201518160000155602082015181600101908051906020019061368f9291906138d9565b5060408201518160020160006101000a81548160ff021916908360028111156136b457fe5b0217905550606082015181600301556080820151816004015560a0820151816005015590505060018060008282540192505081905550505050565b6004602052816000526040600020818154811061370857fe5b90600052602060002001600091509150505481565b600080600090508080600101915050600083423384604051602001808481526020018373ffffffffffffffffffffffffffffffffffffffff1673ffffffffffffffffffffffffffffffffffffffff1660601b815260140182815260200193505050506040516020818303038152906040528051906020012060001c8161379f57fe5b0690508092505050919050565b606060008214156137f4576040518060400160405280600181526020017f300000000000000000000000000000000000000000000000000000000000000081525090506138d4565b600082905060005b6000821461381e578080600101915050600a828161381657fe5b0491506137fc565b6060816040519080825280601f01601f1916602001820160405280156138535781602001600182028038833980820191505090505b50905060006001830390505b600086146138cc57600a868161387157fe5b0660300160f81b8282806001900393508151811061388b57fe5b60200101907effffffffffffffffffffffffffffffffffffffffffffffffffffffffffffff1916908160001a905350600a86816138c457fe5b04955061385f565b819450505050505b919050565b828054600181600116156101000203166002900490600052602060002090601f016020900481019282601f1061391a57805160ff1916838001178555613948565b82800160010185558215613948579182015b8281111561394757825182559160200191906001019061392c565b5b5090506139559190613959565b5090565b61397b91905b8082111561397757600081600090555060010161395f565b5090565b9056fe536f6c6f2073652070756564652061706f7374617220706f7220756e20636162616c6c6f2064656e74726f2064652065737461206361727265726159612065786973746520756e61206361727265726120636f6e20657374652063c3b36469676f4c612063617272657261206465626520636f6e74617220636f6e20616c206d656e6f73203220636162616c6c6f73456c20696e766f6361646f7220646562652073657220656c20616e66697472696f6e4c612063617272657261207961206375656e746120636f6e203520636162616c6c6f734c61206361727265726120696e67726573616461206e6f207469656e6520636162616c6c6f73456c206d6f6e746f206465206c612061707565737461206465626520736572206d61796f72206120304c61206361727265726120696e67726573616461206e6f207469656e652061706f737461646f7265734573746520636162616c6c6f206e6f20736520656e6375656e747261207265676973747261646f20656e20657374612063617272657261456c20696e766f6361646f7220646562652073657220756e207573756172696f206469666572656e746520616c20616e66697472696f6e59612065786973746520756e20636162616c6c6f20636f6e20657374652063c3b36469676f4573746520636162616c6c6f20796120736520656e6375656e747261207265676973747261646f20656e206573746120636172726572614c612063617272657261206e6f2063756d706c6520636f6e20656c2065737461646f2072657175657269646fa2646970667358221220bccb77e9a9a44ee55410462e6b12daf049a6fe6059517cf46eba33c87d4a014864736f6c63430006000033",
					"opcodes": "PUSH1 0x80 PUSH1 0x40 MSTORE CALLVALUE DUP1 ISZERO PUSH2 0x10 JUMPI PUSH1 0x0 DUP1 REVERT JUMPDEST POP CALLER PUSH1 0x0 DUP1 PUSH2 0x100 EXP DUP2 SLOAD DUP2 PUSH20 0xFFFFFFFFFFFFFFFFFFFFFFFFFFFFFFFFFFFFFFFF MUL NOT AND SWAP1 DUP4 PUSH20 0xFFFFFFFFFFFFFFFFFFFFFFFFFFFFFFFFFFFFFFFF AND MUL OR SWAP1 SSTORE POP PUSH2 0x3BF6 DUP1 PUSH2 0x60 PUSH1 0x0 CODECOPY PUSH1 0x0 RETURN INVALID PUSH1 0x80 PUSH1 0x40 MSTORE PUSH1 0x4 CALLDATASIZE LT PUSH2 0xFE JUMPI PUSH1 0x0 CALLDATALOAD PUSH1 0xE0 SHR DUP1 PUSH4 0xD066CEBE GT PUSH2 0x95 JUMPI DUP1 PUSH4 0xF0B73B54 GT PUSH2 0x64 JUMPI DUP1 PUSH4 0xF0B73B54 EQ PUSH2 0x724 JUMPI DUP1 PUSH4 0xF2F6DA3E EQ PUSH2 0x7DF JUMPI DUP1 PUSH4 0xF7EDD6DB EQ PUSH2 0x817 JUMPI DUP1 PUSH4 0xF9D32E49 EQ PUSH2 0x852 JUMPI DUP1 PUSH4 0xFB34D0F7 EQ PUSH2 0x924 JUMPI PUSH2 0xFE JUMP JUMPDEST DUP1 PUSH4 0xD066CEBE EQ PUSH2 0x53B JUMPI DUP1 PUSH4 0xDFE22B5F EQ PUSH2 0x5C0 JUMPI DUP1 PUSH4 0xE6581B9D EQ PUSH2 0x645 JUMPI DUP1 PUSH4 0xE9EC5583 EQ PUSH2 0x6F9 JUMPI PUSH2 0xFE JUMP JUMPDEST DUP1 PUSH4 0x456F4B57 GT PUSH2 0xD1 JUMPI DUP1 PUSH4 0x456F4B57 EQ PUSH2 0x2DE JUMPI DUP1 PUSH4 0x5194F59C EQ PUSH2 0x335 JUMPI DUP1 PUSH4 0x5EE81666 EQ PUSH2 0x407 JUMPI DUP1 PUSH4 0x79B31E69 EQ PUSH2 0x4EC JUMPI PUSH2 0xFE JUMP JUMPDEST DUP1 PUSH4 0x10A0E95 EQ PUSH2 0x103 JUMPI DUP1 PUSH4 0x1B895C2F EQ PUSH2 0x131 JUMPI DUP1 PUSH4 0x26D1C7D0 EQ PUSH2 0x1E5 JUMPI DUP1 PUSH4 0x286F6B4C EQ PUSH2 0x22A JUMPI JUMPDEST PUSH1 0x0 DUP1 REVERT JUMPDEST PUSH2 0x12F PUSH1 0x4 DUP1 CALLDATASIZE SUB PUSH1 0x20 DUP2 LT ISZERO PUSH2 0x119 JUMPI PUSH1 0x0 DUP1 REVERT JUMPDEST DUP2 ADD SWAP1 DUP1 DUP1 CALLDATALOAD SWAP1 PUSH1 0x20 ADD SWAP1 SWAP3 SWAP2 SWAP1 POP POP POP PUSH2 0x97D JUMP JUMPDEST STOP JUMPDEST CALLVALUE DUP1 ISZERO PUSH2 0x13D JUMPI PUSH1 0x0 DUP1 REVERT JUMPDEST POP PUSH2 0x16A PUSH1 0x4 DUP1 CALLDATASIZE SUB PUSH1 0x20 DUP2 LT ISZERO PUSH2 0x154 JUMPI PUSH1 0x0 DUP1 REVERT JUMPDEST DUP2 ADD SWAP1 DUP1 DUP1 CALLDATALOAD SWAP1 PUSH1 0x20 ADD SWAP1 SWAP3 SWAP2 SWAP1 POP POP POP PUSH2 0x11E9 JUMP JUMPDEST PUSH1 0x40 MLOAD DUP1 DUP1 PUSH1 0x20 ADD DUP3 DUP2 SUB DUP3 MSTORE DUP4 DUP2 DUP2 MLOAD DUP2 MSTORE PUSH1 0x20 ADD SWAP2 POP DUP1 MLOAD SWAP1 PUSH1 0x20 ADD SWAP1 DUP1 DUP4 DUP4 PUSH1 0x0 JUMPDEST DUP4 DUP2 LT ISZERO PUSH2 0x1AA JUMPI DUP1 DUP3 ADD MLOAD DUP2 DUP5 ADD MSTORE PUSH1 0x20 DUP2 ADD SWAP1 POP PUSH2 0x18F JUMP JUMPDEST POP POP POP POP SWAP1 POP SWAP1 DUP2 ADD SWAP1 PUSH1 0x1F AND DUP1 ISZERO PUSH2 0x1D7 JUMPI DUP1 DUP3 SUB DUP1 MLOAD PUSH1 0x1 DUP4 PUSH1 0x20 SUB PUSH2 0x100 EXP SUB NOT AND DUP2 MSTORE PUSH1 0x20 ADD SWAP2 POP JUMPDEST POP SWAP3 POP POP POP PUSH1 0x40 MLOAD DUP1 SWAP2 SUB SWAP1 RETURN JUMPDEST CALLVALUE DUP1 ISZERO PUSH2 0x1F1 JUMPI PUSH1 0x0 DUP1 REVERT JUMPDEST POP PUSH2 0x228 PUSH1 0x4 DUP1 CALLDATASIZE SUB PUSH1 0x40 DUP2 LT ISZERO PUSH2 0x208 JUMPI PUSH1 0x0 DUP1 REVERT JUMPDEST DUP2 ADD SWAP1 DUP1 DUP1 CALLDATALOAD SWAP1 PUSH1 0x20 ADD SWAP1 SWAP3 SWAP2 SWAP1 DUP1 CALLDATALOAD SWAP1 PUSH1 0x20 ADD SWAP1 SWAP3 SWAP2 SWAP1 POP POP POP PUSH2 0x172D JUMP JUMPDEST STOP JUMPDEST CALLVALUE DUP1 ISZERO PUSH2 0x236 JUMPI PUSH1 0x0 DUP1 REVERT JUMPDEST POP PUSH2 0x263 PUSH1 0x4 DUP1 CALLDATASIZE SUB PUSH1 0x20 DUP2 LT ISZERO PUSH2 0x24D JUMPI PUSH1 0x0 DUP1 REVERT JUMPDEST DUP2 ADD SWAP1 DUP1 DUP1 CALLDATALOAD SWAP1 PUSH1 0x20 ADD SWAP1 SWAP3 SWAP2 SWAP1 POP POP POP PUSH2 0x1B54 JUMP JUMPDEST PUSH1 0x40 MLOAD DUP1 DUP1 PUSH1 0x20 ADD DUP3 DUP2 SUB DUP3 MSTORE DUP4 DUP2 DUP2 MLOAD DUP2 MSTORE PUSH1 0x20 ADD SWAP2 POP DUP1 MLOAD SWAP1 PUSH1 0x20 ADD SWAP1 DUP1 DUP4 DUP4 PUSH1 0x0 JUMPDEST DUP4 DUP2 LT ISZERO PUSH2 0x2A3 JUMPI DUP1 DUP3 ADD MLOAD DUP2 DUP5 ADD MSTORE PUSH1 0x20 DUP2 ADD SWAP1 POP PUSH2 0x288 JUMP JUMPDEST POP POP POP POP SWAP1 POP SWAP1 DUP2 ADD SWAP1 PUSH1 0x1F AND DUP1 ISZERO PUSH2 0x2D0 JUMPI DUP1 DUP3 SUB DUP1 MLOAD PUSH1 0x1 DUP4 PUSH1 0x20 SUB PUSH2 0x100 EXP SUB NOT AND DUP2 MSTORE PUSH1 0x20 ADD SWAP2 POP JUMPDEST POP SWAP3 POP POP POP PUSH1 0x40 MLOAD DUP1 SWAP2 SUB SWAP1 RETURN JUMPDEST CALLVALUE DUP1 ISZERO PUSH2 0x2EA JUMPI PUSH1 0x0 DUP1 REVERT JUMPDEST POP PUSH2 0x2F3 PUSH2 0x236D JUMP JUMPDEST PUSH1 0x40 MLOAD DUP1 DUP3 PUSH20 0xFFFFFFFFFFFFFFFFFFFFFFFFFFFFFFFFFFFFFFFF AND PUSH20 0xFFFFFFFFFFFFFFFFFFFFFFFFFFFFFFFFFFFFFFFF AND DUP2 MSTORE PUSH1 0x20 ADD SWAP2 POP POP PUSH1 0x40 MLOAD DUP1 SWAP2 SUB SWAP1 RETURN JUMPDEST CALLVALUE DUP1 ISZERO PUSH2 0x341 JUMPI PUSH1 0x0 DUP1 REVERT JUMPDEST POP PUSH2 0x405 PUSH1 0x4 DUP1 CALLDATASIZE SUB PUSH1 0x40 DUP2 LT ISZERO PUSH2 0x358 JUMPI PUSH1 0x0 DUP1 REVERT JUMPDEST DUP2 ADD SWAP1 DUP1 DUP1 CALLDATALOAD SWAP1 PUSH1 0x20 ADD SWAP1 SWAP3 SWAP2 SWAP1 DUP1 CALLDATALOAD SWAP1 PUSH1 0x20 ADD SWAP1 PUSH5 0x100000000 DUP2 GT ISZERO PUSH2 0x37F JUMPI PUSH1 0x0 DUP1 REVERT JUMPDEST DUP3 ADD DUP4 PUSH1 0x20 DUP3 ADD GT ISZERO PUSH2 0x391 JUMPI PUSH1 0x0 DUP1 REVERT JUMPDEST DUP1 CALLDATALOAD SWAP1 PUSH1 0x20 ADD SWAP2 DUP5 PUSH1 0x1 DUP4 MUL DUP5 ADD GT PUSH5 0x100000000 DUP4 GT OR ISZERO PUSH2 0x3B3 JUMPI PUSH1 0x0 DUP1 REVERT JUMPDEST SWAP2 SWAP1 DUP1 DUP1 PUSH1 0x1F ADD PUSH1 0x20 DUP1 SWAP2 DIV MUL PUSH1 0x20 ADD PUSH1 0x40 MLOAD SWAP1 DUP2 ADD PUSH1 0x40 MSTORE DUP1 SWAP4 SWAP3 SWAP2 SWAP1 DUP2 DUP2 MSTORE PUSH1 0x20 ADD DUP4 DUP4 DUP1 DUP3 DUP5 CALLDATACOPY PUSH1 0x0 DUP2 DUP5 ADD MSTORE PUSH1 0x1F NOT PUSH1 0x1F DUP3 ADD AND SWAP1 POP DUP1 DUP4 ADD SWAP3 POP POP POP POP POP POP POP SWAP2 SWAP3 SWAP2 SWAP3 SWAP1 POP POP POP PUSH2 0x2392 JUMP JUMPDEST STOP JUMPDEST CALLVALUE DUP1 ISZERO PUSH2 0x413 JUMPI PUSH1 0x0 DUP1 REVERT JUMPDEST POP PUSH2 0x440 PUSH1 0x4 DUP1 CALLDATASIZE SUB PUSH1 0x20 DUP2 LT ISZERO PUSH2 0x42A JUMPI PUSH1 0x0 DUP1 REVERT JUMPDEST DUP2 ADD SWAP1 DUP1 DUP1 CALLDATALOAD SWAP1 PUSH1 0x20 ADD SWAP1 SWAP3 SWAP2 SWAP1 POP POP POP PUSH2 0x2512 JUMP JUMPDEST PUSH1 0x40 MLOAD DUP1 DUP8 DUP2 MSTORE PUSH1 0x20 ADD DUP1 PUSH1 0x20 ADD DUP7 PUSH1 0x2 DUP2 GT ISZERO PUSH2 0x45A JUMPI INVALID JUMPDEST PUSH1 0xFF AND DUP2 MSTORE PUSH1 0x20 ADD DUP6 DUP2 MSTORE PUSH1 0x20 ADD DUP5 DUP2 MSTORE PUSH1 0x20 ADD DUP4 DUP2 MSTORE PUSH1 0x20 ADD DUP3 DUP2 SUB DUP3 MSTORE DUP8 DUP2 DUP2 MLOAD DUP2 MSTORE PUSH1 0x20 ADD SWAP2 POP DUP1 MLOAD SWAP1 PUSH1 0x20 ADD SWAP1 DUP1 DUP4 DUP4 PUSH1 0x0 JUMPDEST DUP4 DUP2 LT ISZERO PUSH2 0x4AC JUMPI DUP1 DUP3 ADD MLOAD DUP2 DUP5 ADD MSTORE PUSH1 0x20 DUP2 ADD SWAP1 POP PUSH2 0x491 JUMP JUMPDEST POP POP POP POP SWAP1 POP SWAP1 DUP2 ADD SWAP1 PUSH1 0x1F AND DUP1 ISZERO PUSH2 0x4D9 JUMPI DUP1 DUP3 SUB DUP1 MLOAD PUSH1 0x1 DUP4 PUSH1 0x20 SUB PUSH2 0x100 EXP SUB NOT AND DUP2 MSTORE PUSH1 0x20 ADD SWAP2 POP JUMPDEST POP SWAP8 POP POP POP POP POP POP POP POP PUSH1 0x40 MLOAD DUP1 SWAP2 SUB SWAP1 RETURN JUMPDEST CALLVALUE DUP1 ISZERO PUSH2 0x4F8 JUMPI PUSH1 0x0 DUP1 REVERT JUMPDEST POP PUSH2 0x525 PUSH1 0x4 DUP1 CALLDATASIZE SUB PUSH1 0x20 DUP2 LT ISZERO PUSH2 0x50F JUMPI PUSH1 0x0 DUP1 REVERT JUMPDEST DUP2 ADD SWAP1 DUP1 DUP1 CALLDATALOAD SWAP1 PUSH1 0x20 ADD SWAP1 SWAP3 SWAP2 SWAP1 POP POP POP PUSH2 0x25F3 JUMP JUMPDEST PUSH1 0x40 MLOAD DUP1 DUP3 DUP2 MSTORE PUSH1 0x20 ADD SWAP2 POP POP PUSH1 0x40 MLOAD DUP1 SWAP2 SUB SWAP1 RETURN JUMPDEST CALLVALUE DUP1 ISZERO PUSH2 0x547 JUMPI PUSH1 0x0 DUP1 REVERT JUMPDEST POP PUSH2 0x57E PUSH1 0x4 DUP1 CALLDATASIZE SUB PUSH1 0x40 DUP2 LT ISZERO PUSH2 0x55E JUMPI PUSH1 0x0 DUP1 REVERT JUMPDEST DUP2 ADD SWAP1 DUP1 DUP1 CALLDATALOAD SWAP1 PUSH1 0x20 ADD SWAP1 SWAP3 SWAP2 SWAP1 DUP1 CALLDATALOAD SWAP1 PUSH1 0x20 ADD SWAP1 SWAP3 SWAP2 SWAP1 POP POP POP PUSH2 0x274C JUMP JUMPDEST PUSH1 0x40 MLOAD DUP1 DUP3 PUSH20 0xFFFFFFFFFFFFFFFFFFFFFFFFFFFFFFFFFFFFFFFF AND PUSH20 0xFFFFFFFFFFFFFFFFFFFFFFFFFFFFFFFFFFFFFFFF AND DUP2 MSTORE PUSH1 0x20 ADD SWAP2 POP POP PUSH1 0x40 MLOAD DUP1 SWAP2 SUB SWAP1 RETURN JUMPDEST CALLVALUE DUP1 ISZERO PUSH2 0x5CC JUMPI PUSH1 0x0 DUP1 REVERT JUMPDEST POP PUSH2 0x603 PUSH1 0x4 DUP1 CALLDATASIZE SUB PUSH1 0x40 DUP2 LT ISZERO PUSH2 0x5E3 JUMPI PUSH1 0x0 DUP1 REVERT JUMPDEST DUP2 ADD SWAP1 DUP1 DUP1 CALLDATALOAD SWAP1 PUSH1 0x20 ADD SWAP1 SWAP3 SWAP2 SWAP1 DUP1 CALLDATALOAD SWAP1 PUSH1 0x20 ADD SWAP1 SWAP3 SWAP2 SWAP1 POP POP POP PUSH2 0x28B3 JUMP JUMPDEST PUSH1 0x40 MLOAD DUP1 DUP3 PUSH20 0xFFFFFFFFFFFFFFFFFFFFFFFFFFFFFFFFFFFFFFFF AND PUSH20 0xFFFFFFFFFFFFFFFFFFFFFFFFFFFFFFFFFFFFFFFF AND DUP2 MSTORE PUSH1 0x20 ADD SWAP2 POP POP PUSH1 0x40 MLOAD DUP1 SWAP2 SUB SWAP1 RETURN JUMPDEST CALLVALUE DUP1 ISZERO PUSH2 0x651 JUMPI PUSH1 0x0 DUP1 REVERT JUMPDEST POP PUSH2 0x67E PUSH1 0x4 DUP1 CALLDATASIZE SUB PUSH1 0x20 DUP2 LT ISZERO PUSH2 0x668 JUMPI PUSH1 0x0 DUP1 REVERT JUMPDEST DUP2 ADD SWAP1 DUP1 DUP1 CALLDATALOAD SWAP1 PUSH1 0x20 ADD SWAP1 SWAP3 SWAP2 SWAP1 POP POP POP PUSH2 0x28FE JUMP JUMPDEST PUSH1 0x40 MLOAD DUP1 DUP1 PUSH1 0x20 ADD DUP3 DUP2 SUB DUP3 MSTORE DUP4 DUP2 DUP2 MLOAD DUP2 MSTORE PUSH1 0x20 ADD SWAP2 POP DUP1 MLOAD SWAP1 PUSH1 0x20 ADD SWAP1 DUP1 DUP4 DUP4 PUSH1 0x0 JUMPDEST DUP4 DUP2 LT ISZERO PUSH2 0x6BE JUMPI DUP1 DUP3 ADD MLOAD DUP2 DUP5 ADD MSTORE PUSH1 0x20 DUP2 ADD SWAP1 POP PUSH2 0x6A3 JUMP JUMPDEST POP POP POP POP SWAP1 POP SWAP1 DUP2 ADD SWAP1 PUSH1 0x1F AND DUP1 ISZERO PUSH2 0x6EB JUMPI DUP1 DUP3 SUB DUP1 MLOAD PUSH1 0x1 DUP4 PUSH1 0x20 SUB PUSH2 0x100 EXP SUB NOT AND DUP2 MSTORE PUSH1 0x20 ADD SWAP2 POP JUMPDEST POP SWAP3 POP POP POP PUSH1 0x40 MLOAD DUP1 SWAP2 SUB SWAP1 RETURN JUMPDEST CALLVALUE DUP1 ISZERO PUSH2 0x705 JUMPI PUSH1 0x0 DUP1 REVERT JUMPDEST POP PUSH2 0x70E PUSH2 0x2ADF JUMP JUMPDEST PUSH1 0x40 MLOAD DUP1 DUP3 DUP2 MSTORE PUSH1 0x20 ADD SWAP2 POP POP PUSH1 0x40 MLOAD DUP1 SWAP2 SUB SWAP1 RETURN JUMPDEST CALLVALUE DUP1 ISZERO PUSH2 0x730 JUMPI PUSH1 0x0 DUP1 REVERT JUMPDEST POP PUSH2 0x75D PUSH1 0x4 DUP1 CALLDATASIZE SUB PUSH1 0x20 DUP2 LT ISZERO PUSH2 0x747 JUMPI PUSH1 0x0 DUP1 REVERT JUMPDEST DUP2 ADD SWAP1 DUP1 DUP1 CALLDATALOAD SWAP1 PUSH1 0x20 ADD SWAP1 SWAP3 SWAP2 SWAP1 POP POP POP PUSH2 0x2AE5 JUMP JUMPDEST PUSH1 0x40 MLOAD DUP1 DUP4 DUP2 MSTORE PUSH1 0x20 ADD DUP1 PUSH1 0x20 ADD DUP3 DUP2 SUB DUP3 MSTORE DUP4 DUP2 DUP2 MLOAD DUP2 MSTORE PUSH1 0x20 ADD SWAP2 POP DUP1 MLOAD SWAP1 PUSH1 0x20 ADD SWAP1 DUP1 DUP4 DUP4 PUSH1 0x0 JUMPDEST DUP4 DUP2 LT ISZERO PUSH2 0x7A3 JUMPI DUP1 DUP3 ADD MLOAD DUP2 DUP5 ADD MSTORE PUSH1 0x20 DUP2 ADD SWAP1 POP PUSH2 0x788 JUMP JUMPDEST POP POP POP POP SWAP1 POP SWAP1 DUP2 ADD SWAP1 PUSH1 0x1F AND DUP1 ISZERO PUSH2 0x7D0 JUMPI DUP1 DUP3 SUB DUP1 MLOAD PUSH1 0x1 DUP4 PUSH1 0x20 SUB PUSH2 0x100 EXP SUB NOT AND DUP2 MSTORE PUSH1 0x20 ADD SWAP2 POP JUMPDEST POP SWAP4 POP POP POP POP PUSH1 0x40 MLOAD DUP1 SWAP2 SUB SWAP1 RETURN JUMPDEST PUSH2 0x815 PUSH1 0x4 DUP1 CALLDATASIZE SUB PUSH1 0x40 DUP2 LT ISZERO PUSH2 0x7F5 JUMPI PUSH1 0x0 DUP1 REVERT JUMPDEST DUP2 ADD SWAP1 DUP1 DUP1 CALLDATALOAD SWAP1 PUSH1 0x20 ADD SWAP1 SWAP3 SWAP2 SWAP1 DUP1 CALLDATALOAD SWAP1 PUSH1 0x20 ADD SWAP1 SWAP3 SWAP2 SWAP1 POP POP POP PUSH2 0x2BA1 JUMP JUMPDEST STOP JUMPDEST CALLVALUE DUP1 ISZERO PUSH2 0x823 JUMPI PUSH1 0x0 DUP1 REVERT JUMPDEST POP PUSH2 0x850 PUSH1 0x4 DUP1 CALLDATASIZE SUB PUSH1 0x20 DUP2 LT ISZERO PUSH2 0x83A JUMPI PUSH1 0x0 DUP1 REVERT JUMPDEST DUP2 ADD SWAP1 DUP1 DUP1 CALLDATALOAD SWAP1 PUSH1 0x20 ADD SWAP1 SWAP3 SWAP2 SWAP1 POP POP POP PUSH2 0x3266 JUMP JUMPDEST STOP JUMPDEST CALLVALUE DUP1 ISZERO PUSH2 0x85E JUMPI PUSH1 0x0 DUP1 REVERT JUMPDEST POP PUSH2 0x922 PUSH1 0x4 DUP1 CALLDATASIZE SUB PUSH1 0x40 DUP2 LT ISZERO PUSH2 0x875 JUMPI PUSH1 0x0 DUP1 REVERT JUMPDEST DUP2 ADD SWAP1 DUP1 DUP1 CALLDATALOAD SWAP1 PUSH1 0x20 ADD SWAP1 SWAP3 SWAP2 SWAP1 DUP1 CALLDATALOAD SWAP1 PUSH1 0x20 ADD SWAP1 PUSH5 0x100000000 DUP2 GT ISZERO PUSH2 0x89C JUMPI PUSH1 0x0 DUP1 REVERT JUMPDEST DUP3 ADD DUP4 PUSH1 0x20 DUP3 ADD GT ISZERO PUSH2 0x8AE JUMPI PUSH1 0x0 DUP1 REVERT JUMPDEST DUP1 CALLDATALOAD SWAP1 PUSH1 0x20 ADD SWAP2 DUP5 PUSH1 0x1 DUP4 MUL DUP5 ADD GT PUSH5 0x100000000 DUP4 GT OR ISZERO PUSH2 0x8D0 JUMPI PUSH1 0x0 DUP1 REVERT JUMPDEST SWAP2 SWAP1 DUP1 DUP1 PUSH1 0x1F ADD PUSH1 0x20 DUP1 SWAP2 DIV MUL PUSH1 0x20 ADD PUSH1 0x40 MLOAD SWAP1 DUP2 ADD PUSH1 0x40 MSTORE DUP1 SWAP4 SWAP3 SWAP2 SWAP1 DUP2 DUP2 MSTORE PUSH1 0x20 ADD DUP4 DUP4 DUP1 DUP3 DUP5 CALLDATACOPY PUSH1 0x0 DUP2 DUP5 ADD MSTORE PUSH1 0x1F NOT PUSH1 0x1F DUP3 ADD AND SWAP1 POP DUP1 DUP4 ADD SWAP3 POP POP POP POP POP POP POP SWAP2 SWAP3 SWAP2 SWAP3 SWAP1 POP POP POP PUSH2 0x34F1 JUMP JUMPDEST STOP JUMPDEST CALLVALUE DUP1 ISZERO PUSH2 0x930 JUMPI PUSH1 0x0 DUP1 REVERT JUMPDEST POP PUSH2 0x967 PUSH1 0x4 DUP1 CALLDATASIZE SUB PUSH1 0x40 DUP2 LT ISZERO PUSH2 0x947 JUMPI PUSH1 0x0 DUP1 REVERT JUMPDEST DUP2 ADD SWAP1 DUP1 DUP1 CALLDATALOAD SWAP1 PUSH1 0x20 ADD SWAP1 SWAP3 SWAP2 SWAP1 DUP1 CALLDATALOAD SWAP1 PUSH1 0x20 ADD SWAP1 SWAP3 SWAP2 SWAP1 POP POP POP PUSH2 0x36EF JUMP JUMPDEST PUSH1 0x40 MLOAD DUP1 DUP3 DUP2 MSTORE PUSH1 0x20 ADD SWAP2 POP POP PUSH1 0x40 MLOAD DUP1 SWAP2 SUB SWAP1 RETURN JUMPDEST PUSH1 0x0 DUP1 SWAP1 SLOAD SWAP1 PUSH2 0x100 EXP SWAP1 DIV PUSH20 0xFFFFFFFFFFFFFFFFFFFFFFFFFFFFFFFFFFFFFFFF AND PUSH20 0xFFFFFFFFFFFFFFFFFFFFFFFFFFFFFFFFFFFFFFFF AND CALLER PUSH20 0xFFFFFFFFFFFFFFFFFFFFFFFFFFFFFFFFFFFFFFFF AND EQ PUSH2 0xA22 JUMPI PUSH1 0x40 MLOAD PUSH32 0x8C379A000000000000000000000000000000000000000000000000000000000 DUP2 MSTORE PUSH1 0x4 ADD DUP1 DUP1 PUSH1 0x20 ADD DUP3 DUP2 SUB DUP3 MSTORE PUSH1 0x22 DUP2 MSTORE PUSH1 0x20 ADD DUP1 PUSH2 0x3A0E PUSH1 0x22 SWAP2 CODECOPY PUSH1 0x40 ADD SWAP2 POP POP PUSH1 0x40 MLOAD DUP1 SWAP2 SUB SWAP1 REVERT JUMPDEST DUP1 PUSH1 0x0 PUSH1 0x2 PUSH1 0x0 DUP4 DUP2 MSTORE PUSH1 0x20 ADD SWAP1 DUP2 MSTORE PUSH1 0x20 ADD PUSH1 0x0 KECCAK256 PUSH1 0x1 ADD DUP1 SLOAD PUSH1 0x1 DUP2 PUSH1 0x1 AND ISZERO PUSH2 0x100 MUL SUB AND PUSH1 0x2 SWAP1 DIV SWAP1 POP EQ ISZERO PUSH2 0xAC4 JUMPI PUSH1 0x40 MLOAD PUSH32 0x8C379A000000000000000000000000000000000000000000000000000000000 DUP2 MSTORE PUSH1 0x4 ADD DUP1 DUP1 PUSH1 0x20 ADD DUP3 DUP2 SUB DUP3 MSTORE PUSH1 0x1E DUP2 MSTORE PUSH1 0x20 ADD DUP1 PUSH32 0x4C61206361727265726120696E67726573616461206E6F206578697374650000 DUP2 MSTORE POP PUSH1 0x20 ADD SWAP2 POP POP PUSH1 0x40 MLOAD DUP1 SWAP2 SUB SWAP1 REVERT JUMPDEST DUP2 PUSH1 0x1 DUP1 PUSH1 0x2 DUP2 GT ISZERO PUSH2 0xAD3 JUMPI INVALID JUMPDEST PUSH1 0x2 PUSH1 0x0 DUP5 DUP2 MSTORE PUSH1 0x20 ADD SWAP1 DUP2 MSTORE PUSH1 0x20 ADD PUSH1 0x0 KECCAK256 PUSH1 0x2 ADD PUSH1 0x0 SWAP1 SLOAD SWAP1 PUSH2 0x100 EXP SWAP1 DIV PUSH1 0xFF AND PUSH1 0x2 DUP2 GT ISZERO PUSH2 0xB02 JUMPI INVALID JUMPDEST EQ PUSH2 0xB58 JUMPI PUSH1 0x40 MLOAD PUSH32 0x8C379A000000000000000000000000000000000000000000000000000000000 DUP2 MSTORE PUSH1 0x4 ADD DUP1 DUP1 PUSH1 0x20 ADD DUP3 DUP2 SUB DUP3 MSTORE PUSH1 0x2C DUP2 MSTORE PUSH1 0x20 ADD DUP1 PUSH2 0x3B95 PUSH1 0x2C SWAP2 CODECOPY PUSH1 0x40 ADD SWAP2 POP POP PUSH1 0x40 MLOAD DUP1 SWAP2 SUB SWAP1 REVERT JUMPDEST PUSH1 0x0 PUSH2 0xB79 PUSH1 0x2 PUSH1 0x0 DUP8 DUP2 MSTORE PUSH1 0x20 ADD SWAP1 DUP2 MSTORE PUSH1 0x20 ADD PUSH1 0x0 KECCAK256 PUSH1 0x4 ADD SLOAD PUSH2 0x371D JUMP JUMPDEST SWAP1 POP PUSH1 0x0 DUP1 SWAP1 POP PUSH1 0x4 PUSH1 0x0 DUP8 DUP2 MSTORE PUSH1 0x20 ADD SWAP1 DUP2 MSTORE PUSH1 0x20 ADD PUSH1 0x0 KECCAK256 DUP3 DUP2 SLOAD DUP2 LT PUSH2 0xB9E JUMPI INVALID JUMPDEST SWAP1 PUSH1 0x0 MSTORE PUSH1 0x20 PUSH1 0x0 KECCAK256 ADD SLOAD PUSH1 0x2 PUSH1 0x0 DUP9 DUP2 MSTORE PUSH1 0x20 ADD SWAP1 DUP2 MSTORE PUSH1 0x20 ADD PUSH1 0x0 KECCAK256 PUSH1 0x5 ADD DUP2 SWAP1 SSTORE POP PUSH1 0x0 DUP1 SWAP1 POP JUMPDEST PUSH1 0x5 PUSH1 0x0 DUP9 DUP2 MSTORE PUSH1 0x20 ADD SWAP1 DUP2 MSTORE PUSH1 0x20 ADD PUSH1 0x0 KECCAK256 DUP1 SLOAD SWAP1 POP DUP2 LT ISZERO PUSH2 0xD24 JUMPI PUSH1 0x0 PUSH1 0x5 PUSH1 0x0 DUP10 DUP2 MSTORE PUSH1 0x20 ADD SWAP1 DUP2 MSTORE PUSH1 0x20 ADD PUSH1 0x0 KECCAK256 DUP3 DUP2 SLOAD DUP2 LT PUSH2 0xC07 JUMPI INVALID JUMPDEST SWAP1 PUSH1 0x0 MSTORE PUSH1 0x20 PUSH1 0x0 KECCAK256 ADD PUSH1 0x0 SWAP1 SLOAD SWAP1 PUSH2 0x100 EXP SWAP1 DIV PUSH20 0xFFFFFFFFFFFFFFFFFFFFFFFFFFFFFFFFFFFFFFFF AND SWAP1 POP PUSH1 0x4 PUSH1 0x0 DUP10 DUP2 MSTORE PUSH1 0x20 ADD SWAP1 DUP2 MSTORE PUSH1 0x20 ADD PUSH1 0x0 KECCAK256 DUP5 DUP2 SLOAD DUP2 LT PUSH2 0xC52 JUMPI INVALID JUMPDEST SWAP1 PUSH1 0x0 MSTORE PUSH1 0x20 PUSH1 0x0 KECCAK256 ADD SLOAD PUSH1 0x2 PUSH1 0x0 DUP11 DUP2 MSTORE PUSH1 0x20 ADD SWAP1 DUP2 MSTORE PUSH1 0x20 ADD PUSH1 0x0 KECCAK256 PUSH1 0x6 ADD PUSH1 0x0 DUP4 PUSH20 0xFFFFFFFFFFFFFFFFFFFFFFFFFFFFFFFFFFFFFFFF AND PUSH20 0xFFFFFFFFFFFFFFFFFFFFFFFFFFFFFFFFFFFFFFFF AND DUP2 MSTORE PUSH1 0x20 ADD SWAP1 DUP2 MSTORE PUSH1 0x20 ADD PUSH1 0x0 KECCAK256 PUSH1 0x1 ADD SLOAD EQ ISZERO PUSH2 0xD16 JUMPI PUSH1 0x2 PUSH1 0x0 DUP10 DUP2 MSTORE PUSH1 0x20 ADD SWAP1 DUP2 MSTORE PUSH1 0x20 ADD PUSH1 0x0 KECCAK256 PUSH1 0x6 ADD PUSH1 0x0 DUP3 PUSH20 0xFFFFFFFFFFFFFFFFFFFFFFFFFFFFFFFFFFFFFFFF AND PUSH20 0xFFFFFFFFFFFFFFFFFFFFFFFFFFFFFFFFFFFFFFFF AND DUP2 MSTORE PUSH1 0x20 ADD SWAP1 DUP2 MSTORE PUSH1 0x20 ADD PUSH1 0x0 KECCAK256 PUSH1 0x0 ADD SLOAD DUP4 ADD SWAP3 POP JUMPDEST POP DUP1 DUP1 PUSH1 0x1 ADD SWAP2 POP POP PUSH2 0xBC9 JUMP JUMPDEST POP PUSH1 0x0 DUP2 EQ PUSH2 0x114C JUMPI PUSH1 0x0 DUP1 SWAP1 POP JUMPDEST PUSH1 0x5 PUSH1 0x0 DUP9 DUP2 MSTORE PUSH1 0x20 ADD SWAP1 DUP2 MSTORE PUSH1 0x20 ADD PUSH1 0x0 KECCAK256 DUP1 SLOAD SWAP1 POP DUP2 LT ISZERO PUSH2 0x10DF JUMPI PUSH1 0x0 PUSH1 0x5 PUSH1 0x0 DUP10 DUP2 MSTORE PUSH1 0x20 ADD SWAP1 DUP2 MSTORE PUSH1 0x20 ADD PUSH1 0x0 KECCAK256 DUP3 DUP2 SLOAD DUP2 LT PUSH2 0xD71 JUMPI INVALID JUMPDEST SWAP1 PUSH1 0x0 MSTORE PUSH1 0x20 PUSH1 0x0 KECCAK256 ADD PUSH1 0x0 SWAP1 SLOAD SWAP1 PUSH2 0x100 EXP SWAP1 DIV PUSH20 0xFFFFFFFFFFFFFFFFFFFFFFFFFFFFFFFFFFFFFFFF AND SWAP1 POP PUSH1 0x4 PUSH1 0x0 DUP10 DUP2 MSTORE PUSH1 0x20 ADD SWAP1 DUP2 MSTORE PUSH1 0x20 ADD PUSH1 0x0 KECCAK256 DUP5 DUP2 SLOAD DUP2 LT PUSH2 0xDBC JUMPI INVALID JUMPDEST SWAP1 PUSH1 0x0 MSTORE PUSH1 0x20 PUSH1 0x0 KECCAK256 ADD SLOAD PUSH1 0x2 PUSH1 0x0 DUP11 DUP2 MSTORE PUSH1 0x20 ADD SWAP1 DUP2 MSTORE PUSH1 0x20 ADD PUSH1 0x0 KECCAK256 PUSH1 0x6 ADD PUSH1 0x0 DUP4 PUSH20 0xFFFFFFFFFFFFFFFFFFFFFFFFFFFFFFFFFFFFFFFF AND PUSH20 0xFFFFFFFFFFFFFFFFFFFFFFFFFFFFFFFFFFFFFFFF AND DUP2 MSTORE PUSH1 0x20 ADD SWAP1 DUP2 MSTORE PUSH1 0x20 ADD PUSH1 0x0 KECCAK256 PUSH1 0x1 ADD SLOAD EQ ISZERO PUSH2 0x10D1 JUMPI DUP3 PUSH1 0x2 PUSH1 0x0 DUP11 DUP2 MSTORE PUSH1 0x20 ADD SWAP1 DUP2 MSTORE PUSH1 0x20 ADD PUSH1 0x0 KECCAK256 PUSH1 0x6 ADD PUSH1 0x0 DUP4 PUSH20 0xFFFFFFFFFFFFFFFFFFFFFFFFFFFFFFFFFFFFFFFF AND PUSH20 0xFFFFFFFFFFFFFFFFFFFFFFFFFFFFFFFFFFFFFFFF AND DUP2 MSTORE PUSH1 0x20 ADD SWAP1 DUP2 MSTORE PUSH1 0x20 ADD PUSH1 0x0 KECCAK256 PUSH1 0x0 ADD SLOAD DUP2 PUSH2 0xE83 JUMPI INVALID JUMPDEST DIV PUSH1 0x2 PUSH1 0x0 DUP11 DUP2 MSTORE PUSH1 0x20 ADD SWAP1 DUP2 MSTORE PUSH1 0x20 ADD PUSH1 0x0 KECCAK256 PUSH1 0x6 ADD PUSH1 0x0 DUP4 PUSH20 0xFFFFFFFFFFFFFFFFFFFFFFFFFFFFFFFFFFFFFFFF AND PUSH20 0xFFFFFFFFFFFFFFFFFFFFFFFFFFFFFFFFFFFFFFFF AND DUP2 MSTORE PUSH1 0x20 ADD SWAP1 DUP2 MSTORE PUSH1 0x20 ADD PUSH1 0x0 KECCAK256 PUSH1 0x3 ADD DUP2 SWAP1 SSTORE POP DUP1 PUSH20 0xFFFFFFFFFFFFFFFFFFFFFFFFFFFFFFFFFFFFFFFF AND PUSH2 0x8FC PUSH2 0x2710 PUSH1 0x4 PUSH1 0x2 PUSH1 0x0 DUP14 DUP2 MSTORE PUSH1 0x20 ADD SWAP1 DUP2 MSTORE PUSH1 0x20 ADD PUSH1 0x0 KECCAK256 PUSH1 0x3 ADD SLOAD DUP2 PUSH2 0xF1B JUMPI INVALID JUMPDEST DIV PUSH1 0x2 PUSH1 0x0 DUP14 DUP2 MSTORE PUSH1 0x20 ADD SWAP1 DUP2 MSTORE PUSH1 0x20 ADD PUSH1 0x0 KECCAK256 PUSH1 0x3 ADD SLOAD SUB DUP7 PUSH2 0x2710 PUSH1 0x2 PUSH1 0x0 DUP16 DUP2 MSTORE PUSH1 0x20 ADD SWAP1 DUP2 MSTORE PUSH1 0x20 ADD PUSH1 0x0 KECCAK256 PUSH1 0x6 ADD PUSH1 0x0 DUP9 PUSH20 0xFFFFFFFFFFFFFFFFFFFFFFFFFFFFFFFFFFFFFFFF AND PUSH20 0xFFFFFFFFFFFFFFFFFFFFFFFFFFFFFFFFFFFFFFFF AND DUP2 MSTORE PUSH1 0x20 ADD SWAP1 DUP2 MSTORE PUSH1 0x20 ADD PUSH1 0x0 KECCAK256 PUSH1 0x0 ADD SLOAD MUL DUP2 PUSH2 0xF97 JUMPI INVALID JUMPDEST DIV MUL DUP2 PUSH2 0xFA0 JUMPI INVALID JUMPDEST DIV SWAP1 DUP2 ISZERO MUL SWAP1 PUSH1 0x40 MLOAD PUSH1 0x0 PUSH1 0x40 MLOAD DUP1 DUP4 SUB DUP2 DUP6 DUP9 DUP9 CALL SWAP4 POP POP POP POP ISZERO DUP1 ISZERO PUSH2 0xFCC JUMPI RETURNDATASIZE PUSH1 0x0 DUP1 RETURNDATACOPY RETURNDATASIZE PUSH1 0x0 REVERT JUMPDEST POP PUSH2 0x2710 PUSH1 0x4 PUSH1 0x2 PUSH1 0x0 DUP12 DUP2 MSTORE PUSH1 0x20 ADD SWAP1 DUP2 MSTORE PUSH1 0x20 ADD PUSH1 0x0 KECCAK256 PUSH1 0x3 ADD SLOAD DUP2 PUSH2 0xFF0 JUMPI INVALID JUMPDEST DIV PUSH1 0x2 PUSH1 0x0 DUP12 DUP2 MSTORE PUSH1 0x20 ADD SWAP1 DUP2 MSTORE PUSH1 0x20 ADD PUSH1 0x0 KECCAK256 PUSH1 0x3 ADD SLOAD SUB DUP5 PUSH2 0x2710 PUSH1 0x2 PUSH1 0x0 DUP14 DUP2 MSTORE PUSH1 0x20 ADD SWAP1 DUP2 MSTORE PUSH1 0x20 ADD PUSH1 0x0 KECCAK256 PUSH1 0x6 ADD PUSH1 0x0 DUP7 PUSH20 0xFFFFFFFFFFFFFFFFFFFFFFFFFFFFFFFFFFFFFFFF AND PUSH20 0xFFFFFFFFFFFFFFFFFFFFFFFFFFFFFFFFFFFFFFFF AND DUP2 MSTORE PUSH1 0x20 ADD SWAP1 DUP2 MSTORE PUSH1 0x20 ADD PUSH1 0x0 KECCAK256 PUSH1 0x0 ADD SLOAD MUL DUP2 PUSH2 0x106C JUMPI INVALID JUMPDEST DIV MUL DUP2 PUSH2 0x1075 JUMPI INVALID JUMPDEST DIV PUSH1 0x2 PUSH1 0x0 DUP11 DUP2 MSTORE PUSH1 0x20 ADD SWAP1 DUP2 MSTORE PUSH1 0x20 ADD PUSH1 0x0 KECCAK256 PUSH1 0x6 ADD PUSH1 0x0 DUP4 PUSH20 0xFFFFFFFFFFFFFFFFFFFFFFFFFFFFFFFFFFFFFFFF AND PUSH20 0xFFFFFFFFFFFFFFFFFFFFFFFFFFFFFFFFFFFFFFFF AND DUP2 MSTORE PUSH1 0x20 ADD SWAP1 DUP2 MSTORE PUSH1 0x20 ADD PUSH1 0x0 KECCAK256 PUSH1 0x4 ADD DUP2 SWAP1 SSTORE POP JUMPDEST POP DUP1 DUP1 PUSH1 0x1 ADD SWAP2 POP POP PUSH2 0xD33 JUMP JUMPDEST POP CALLER PUSH20 0xFFFFFFFFFFFFFFFFFFFFFFFFFFFFFFFFFFFFFFFF AND PUSH2 0x8FC PUSH1 0x4 PUSH1 0x2 PUSH1 0x0 DUP11 DUP2 MSTORE PUSH1 0x20 ADD SWAP1 DUP2 MSTORE PUSH1 0x20 ADD PUSH1 0x0 KECCAK256 PUSH1 0x3 ADD SLOAD DUP2 PUSH2 0x111A JUMPI INVALID JUMPDEST DIV SWAP1 DUP2 ISZERO MUL SWAP1 PUSH1 0x40 MLOAD PUSH1 0x0 PUSH1 0x40 MLOAD DUP1 DUP4 SUB DUP2 DUP6 DUP9 DUP9 CALL SWAP4 POP POP POP POP ISZERO DUP1 ISZERO PUSH2 0x1146 JUMPI RETURNDATASIZE PUSH1 0x0 DUP1 RETURNDATACOPY RETURNDATASIZE PUSH1 0x0 REVERT JUMPDEST POP PUSH2 0x11AA JUMP JUMPDEST CALLER PUSH20 0xFFFFFFFFFFFFFFFFFFFFFFFFFFFFFFFFFFFFFFFF AND PUSH2 0x8FC PUSH1 0x2 PUSH1 0x0 DUP10 DUP2 MSTORE PUSH1 0x20 ADD SWAP1 DUP2 MSTORE PUSH1 0x20 ADD PUSH1 0x0 KECCAK256 PUSH1 0x3 ADD SLOAD SWAP1 DUP2 ISZERO MUL SWAP1 PUSH1 0x40 MLOAD PUSH1 0x0 PUSH1 0x40 MLOAD DUP1 DUP4 SUB DUP2 DUP6 DUP9 DUP9 CALL SWAP4 POP POP POP POP ISZERO DUP1 ISZERO PUSH2 0x11A8 JUMPI RETURNDATASIZE PUSH1 0x0 DUP1 RETURNDATACOPY RETURNDATASIZE PUSH1 0x0 REVERT JUMPDEST POP JUMPDEST PUSH1 0x2 DUP1 PUSH1 0x0 DUP9 DUP2 MSTORE PUSH1 0x20 ADD SWAP1 DUP2 MSTORE PUSH1 0x20 ADD PUSH1 0x0 KECCAK256 PUSH1 0x2 ADD PUSH1 0x0 PUSH2 0x100 EXP DUP2 SLOAD DUP2 PUSH1 0xFF MUL NOT AND SWAP1 DUP4 PUSH1 0x2 DUP2 GT ISZERO PUSH2 0x11DC JUMPI INVALID JUMPDEST MUL OR SWAP1 SSTORE POP POP POP POP POP POP POP JUMP JUMPDEST PUSH1 0x60 DUP2 PUSH1 0x0 PUSH1 0x2 PUSH1 0x0 DUP4 DUP2 MSTORE PUSH1 0x20 ADD SWAP1 DUP2 MSTORE PUSH1 0x20 ADD PUSH1 0x0 KECCAK256 PUSH1 0x1 ADD DUP1 SLOAD PUSH1 0x1 DUP2 PUSH1 0x1 AND ISZERO PUSH2 0x100 MUL SUB AND PUSH1 0x2 SWAP1 DIV SWAP1 POP EQ ISZERO PUSH2 0x128D JUMPI PUSH1 0x40 MLOAD PUSH32 0x8C379A000000000000000000000000000000000000000000000000000000000 DUP2 MSTORE PUSH1 0x4 ADD DUP1 DUP1 PUSH1 0x20 ADD DUP3 DUP2 SUB DUP3 MSTORE PUSH1 0x1E DUP2 MSTORE PUSH1 0x20 ADD DUP1 PUSH32 0x4C61206361727265726120696E67726573616461206E6F206578697374650000 DUP2 MSTORE POP PUSH1 0x20 ADD SWAP2 POP POP PUSH1 0x40 MLOAD DUP1 SWAP2 SUB SWAP1 REVERT JUMPDEST DUP3 PUSH1 0x1 DUP1 PUSH1 0x2 DUP2 GT ISZERO PUSH2 0x129C JUMPI INVALID JUMPDEST PUSH1 0x2 PUSH1 0x0 DUP5 DUP2 MSTORE PUSH1 0x20 ADD SWAP1 DUP2 MSTORE PUSH1 0x20 ADD PUSH1 0x0 KECCAK256 PUSH1 0x2 ADD PUSH1 0x0 SWAP1 SLOAD SWAP1 PUSH2 0x100 EXP SWAP1 DIV PUSH1 0xFF AND PUSH1 0x2 DUP2 GT ISZERO PUSH2 0x12CB JUMPI INVALID JUMPDEST EQ PUSH2 0x1321 JUMPI PUSH1 0x40 MLOAD PUSH32 0x8C379A000000000000000000000000000000000000000000000000000000000 DUP2 MSTORE PUSH1 0x4 ADD DUP1 DUP1 PUSH1 0x20 ADD DUP3 DUP2 SUB DUP3 MSTORE PUSH1 0x2C DUP2 MSTORE PUSH1 0x20 ADD DUP1 PUSH2 0x3B95 PUSH1 0x2C SWAP2 CODECOPY PUSH1 0x40 ADD SWAP2 POP POP PUSH1 0x40 MLOAD DUP1 SWAP2 SUB SWAP1 REVERT JUMPDEST PUSH1 0x60 PUSH1 0x40 MLOAD DUP1 PUSH1 0x40 ADD PUSH1 0x40 MSTORE DUP1 PUSH1 0x18 DUP2 MSTORE PUSH1 0x20 ADD PUSH32 0x436162616C6C6F7320656E206C61206361727265726120230000000000000000 DUP2 MSTORE POP SWAP1 POP PUSH1 0x0 DUP1 SWAP1 POP DUP2 PUSH2 0x136A DUP9 PUSH2 0x37AC JUMP JUMPDEST PUSH1 0x40 MLOAD PUSH1 0x20 ADD DUP1 DUP4 DUP1 MLOAD SWAP1 PUSH1 0x20 ADD SWAP1 DUP1 DUP4 DUP4 JUMPDEST PUSH1 0x20 DUP4 LT PUSH2 0x13A0 JUMPI DUP1 MLOAD DUP3 MSTORE PUSH1 0x20 DUP3 ADD SWAP2 POP PUSH1 0x20 DUP2 ADD SWAP1 POP PUSH1 0x20 DUP4 SUB SWAP3 POP PUSH2 0x137D JUMP JUMPDEST PUSH1 0x1 DUP4 PUSH1 0x20 SUB PUSH2 0x100 EXP SUB DUP1 NOT DUP3 MLOAD AND DUP2 DUP5 MLOAD AND DUP1 DUP3 OR DUP6 MSTORE POP POP POP POP POP POP SWAP1 POP ADD DUP3 DUP1 MLOAD SWAP1 PUSH1 0x20 ADD SWAP1 DUP1 DUP4 DUP4 JUMPDEST PUSH1 0x20 DUP4 LT PUSH2 0x13F1 JUMPI DUP1 MLOAD DUP3 MSTORE PUSH1 0x20 DUP3 ADD SWAP2 POP PUSH1 0x20 DUP2 ADD SWAP1 POP PUSH1 0x20 DUP4 SUB SWAP3 POP PUSH2 0x13CE JUMP JUMPDEST PUSH1 0x1 DUP4 PUSH1 0x20 SUB PUSH2 0x100 EXP SUB DUP1 NOT DUP3 MLOAD AND DUP2 DUP5 MLOAD AND DUP1 DUP3 OR DUP6 MSTORE POP POP POP POP POP POP SWAP1 POP ADD SWAP3 POP POP POP PUSH1 0x40 MLOAD PUSH1 0x20 DUP2 DUP4 SUB SUB DUP2 MSTORE SWAP1 PUSH1 0x40 MSTORE SWAP2 POP DUP2 PUSH1 0x40 MLOAD PUSH1 0x20 ADD DUP1 DUP3 DUP1 MLOAD SWAP1 PUSH1 0x20 ADD SWAP1 DUP1 DUP4 DUP4 JUMPDEST PUSH1 0x20 DUP4 LT PUSH2 0x145F JUMPI DUP1 MLOAD DUP3 MSTORE PUSH1 0x20 DUP3 ADD SWAP2 POP PUSH1 0x20 DUP2 ADD SWAP1 POP PUSH1 0x20 DUP4 SUB SWAP3 POP PUSH2 0x143C JUMP JUMPDEST PUSH1 0x1 DUP4 PUSH1 0x20 SUB PUSH2 0x100 EXP SUB DUP1 NOT DUP3 MLOAD AND DUP2 DUP5 MLOAD AND DUP1 DUP3 OR DUP6 MSTORE POP POP POP POP POP POP SWAP1 POP ADD DUP1 PUSH32 0x3A20000000000000000000000000000000000000000000000000000000000000 DUP2 MSTORE POP PUSH1 0x2 ADD SWAP2 POP POP PUSH1 0x40 MLOAD PUSH1 0x20 DUP2 DUP4 SUB SUB DUP2 MSTORE SWAP1 PUSH1 0x40 MSTORE SWAP2 POP PUSH1 0x0 DUP1 SWAP1 POP JUMPDEST PUSH1 0x4 PUSH1 0x0 DUP10 DUP2 MSTORE PUSH1 0x20 ADD SWAP1 DUP2 MSTORE PUSH1 0x20 ADD PUSH1 0x0 KECCAK256 DUP1 SLOAD SWAP1 POP DUP2 LT ISZERO PUSH2 0x16A1 JUMPI PUSH1 0x1 SWAP2 POP DUP3 PUSH2 0x1517 PUSH1 0x4 PUSH1 0x0 DUP12 DUP2 MSTORE PUSH1 0x20 ADD SWAP1 DUP2 MSTORE PUSH1 0x20 ADD PUSH1 0x0 KECCAK256 DUP4 DUP2 SLOAD DUP2 LT PUSH2 0x1507 JUMPI INVALID JUMPDEST SWAP1 PUSH1 0x0 MSTORE PUSH1 0x20 PUSH1 0x0 KECCAK256 ADD SLOAD PUSH2 0x37AC JUMP JUMPDEST PUSH1 0x40 MLOAD PUSH1 0x20 ADD DUP1 DUP4 DUP1 MLOAD SWAP1 PUSH1 0x20 ADD SWAP1 DUP1 DUP4 DUP4 JUMPDEST PUSH1 0x20 DUP4 LT PUSH2 0x154D JUMPI DUP1 MLOAD DUP3 MSTORE PUSH1 0x20 DUP3 ADD SWAP2 POP PUSH1 0x20 DUP2 ADD SWAP1 POP PUSH1 0x20 DUP4 SUB SWAP3 POP PUSH2 0x152A JUMP JUMPDEST PUSH1 0x1 DUP4 PUSH1 0x20 SUB PUSH2 0x100 EXP SUB DUP1 NOT DUP3 MLOAD AND DUP2 DUP5 MLOAD AND DUP1 DUP3 OR DUP6 MSTORE POP POP POP POP POP POP SWAP1 POP ADD DUP3 DUP1 MLOAD SWAP1 PUSH1 0x20 ADD SWAP1 DUP1 DUP4 DUP4 JUMPDEST PUSH1 0x20 DUP4 LT PUSH2 0x159E JUMPI DUP1 MLOAD DUP3 MSTORE PUSH1 0x20 DUP3 ADD SWAP2 POP PUSH1 0x20 DUP2 ADD SWAP1 POP PUSH1 0x20 DUP4 SUB SWAP3 POP PUSH2 0x157B JUMP JUMPDEST PUSH1 0x1 DUP4 PUSH1 0x20 SUB PUSH2 0x100 EXP SUB DUP1 NOT DUP3 MLOAD AND DUP2 DUP5 MLOAD AND DUP1 DUP3 OR DUP6 MSTORE POP POP POP POP POP POP SWAP1 POP ADD SWAP3 POP POP POP PUSH1 0x40 MLOAD PUSH1 0x20 DUP2 DUP4 SUB SUB DUP2 MSTORE SWAP1 PUSH1 0x40 MSTORE SWAP3 POP PUSH1 0x1 PUSH1 0x4 PUSH1 0x0 DUP11 DUP2 MSTORE PUSH1 0x20 ADD SWAP1 DUP2 MSTORE PUSH1 0x20 ADD PUSH1 0x0 KECCAK256 DUP1 SLOAD SWAP1 POP SUB DUP2 EQ PUSH2 0x168F JUMPI DUP3 PUSH1 0x40 MLOAD PUSH1 0x20 ADD DUP1 DUP3 DUP1 MLOAD SWAP1 PUSH1 0x20 ADD SWAP1 DUP1 DUP4 DUP4 JUMPDEST PUSH1 0x20 DUP4 LT PUSH2 0x162C JUMPI DUP1 MLOAD DUP3 MSTORE PUSH1 0x20 DUP3 ADD SWAP2 POP PUSH1 0x20 DUP2 ADD SWAP1 POP PUSH1 0x20 DUP4 SUB SWAP3 POP PUSH2 0x1609 JUMP JUMPDEST PUSH1 0x1 DUP4 PUSH1 0x20 SUB PUSH2 0x100 EXP SUB DUP1 NOT DUP3 MLOAD AND DUP2 DUP5 MLOAD AND DUP1 DUP3 OR DUP6 MSTORE POP POP POP POP POP POP SWAP1 POP ADD DUP1 PUSH32 0x202D200000000000000000000000000000000000000000000000000000000000 DUP2 MSTORE POP PUSH1 0x3 ADD SWAP2 POP POP PUSH1 0x40 MLOAD PUSH1 0x20 DUP2 DUP4 SUB SUB DUP2 MSTORE SWAP1 PUSH1 0x40 MSTORE SWAP3 POP PUSH2 0x1694 JUMP JUMPDEST PUSH2 0x16A1 JUMP JUMPDEST DUP1 DUP1 PUSH1 0x1 ADD SWAP2 POP POP PUSH2 0x14C3 JUMP JUMPDEST POP DUP1 PUSH2 0x1720 JUMPI DUP2 PUSH1 0x40 MLOAD PUSH1 0x20 ADD DUP1 DUP3 DUP1 MLOAD SWAP1 PUSH1 0x20 ADD SWAP1 DUP1 DUP4 DUP4 JUMPDEST PUSH1 0x20 DUP4 LT PUSH2 0x16DE JUMPI DUP1 MLOAD DUP3 MSTORE PUSH1 0x20 DUP3 ADD SWAP2 POP PUSH1 0x20 DUP2 ADD SWAP1 POP PUSH1 0x20 DUP4 SUB SWAP3 POP PUSH2 0x16BB JUMP JUMPDEST PUSH1 0x1 DUP4 PUSH1 0x20 SUB PUSH2 0x100 EXP SUB DUP1 NOT DUP3 MLOAD AND DUP2 DUP5 MLOAD AND DUP1 DUP3 OR DUP6 MSTORE POP POP POP POP POP POP SWAP1 POP ADD DUP1 PUSH2 0x3A53 PUSH1 0x26 SWAP2 CODECOPY PUSH1 0x26 ADD SWAP2 POP POP PUSH1 0x40 MLOAD PUSH1 0x20 DUP2 DUP4 SUB SUB DUP2 MSTORE SWAP1 PUSH1 0x40 MSTORE SWAP2 POP JUMPDEST DUP2 SWAP6 POP POP POP POP POP POP SWAP2 SWAP1 POP JUMP JUMPDEST PUSH1 0x0 DUP1 SWAP1 SLOAD SWAP1 PUSH2 0x100 EXP SWAP1 DIV PUSH20 0xFFFFFFFFFFFFFFFFFFFFFFFFFFFFFFFFFFFFFFFF AND PUSH20 0xFFFFFFFFFFFFFFFFFFFFFFFFFFFFFFFFFFFFFFFF AND CALLER PUSH20 0xFFFFFFFFFFFFFFFFFFFFFFFFFFFFFFFFFFFFFFFF AND EQ PUSH2 0x17D2 JUMPI PUSH1 0x40 MLOAD PUSH32 0x8C379A000000000000000000000000000000000000000000000000000000000 DUP2 MSTORE PUSH1 0x4 ADD DUP1 DUP1 PUSH1 0x20 ADD DUP3 DUP2 SUB DUP3 MSTORE PUSH1 0x22 DUP2 MSTORE PUSH1 0x20 ADD DUP1 PUSH2 0x3A0E PUSH1 0x22 SWAP2 CODECOPY PUSH1 0x40 ADD SWAP2 POP POP PUSH1 0x40 MLOAD DUP1 SWAP2 SUB SWAP1 REVERT JUMPDEST DUP1 PUSH1 0x0 DUP1 PUSH1 0x2 DUP2 GT ISZERO PUSH2 0x17E1 JUMPI INVALID JUMPDEST PUSH1 0x2 PUSH1 0x0 DUP5 DUP2 MSTORE PUSH1 0x20 ADD SWAP1 DUP2 MSTORE PUSH1 0x20 ADD PUSH1 0x0 KECCAK256 PUSH1 0x2 ADD PUSH1 0x0 SWAP1 SLOAD SWAP1 PUSH2 0x100 EXP SWAP1 DIV PUSH1 0xFF AND PUSH1 0x2 DUP2 GT ISZERO PUSH2 0x1810 JUMPI INVALID JUMPDEST EQ PUSH2 0x1866 JUMPI PUSH1 0x40 MLOAD PUSH32 0x8C379A000000000000000000000000000000000000000000000000000000000 DUP2 MSTORE PUSH1 0x4 ADD DUP1 DUP1 PUSH1 0x20 ADD DUP3 DUP2 SUB DUP3 MSTORE PUSH1 0x2C DUP2 MSTORE PUSH1 0x20 ADD DUP1 PUSH2 0x3B95 PUSH1 0x2C SWAP2 CODECOPY PUSH1 0x40 ADD SWAP2 POP POP PUSH1 0x40 MLOAD DUP1 SWAP2 SUB SWAP1 REVERT JUMPDEST DUP3 PUSH1 0x5 PUSH1 0x4 PUSH1 0x0 DUP4 DUP2 MSTORE PUSH1 0x20 ADD SWAP1 DUP2 MSTORE PUSH1 0x20 ADD PUSH1 0x0 KECCAK256 DUP1 SLOAD SWAP1 POP LT PUSH2 0x18D6 JUMPI PUSH1 0x40 MLOAD PUSH32 0x8C379A000000000000000000000000000000000000000000000000000000000 DUP2 MSTORE PUSH1 0x4 ADD DUP1 DUP1 PUSH1 0x20 ADD DUP3 DUP2 SUB DUP3 MSTORE PUSH1 0x23 DUP2 MSTORE PUSH1 0x20 ADD DUP1 PUSH2 0x3A30 PUSH1 0x23 SWAP2 CODECOPY PUSH1 0x40 ADD SWAP2 POP POP PUSH1 0x40 MLOAD DUP1 SWAP2 SUB SWAP1 REVERT JUMPDEST DUP5 PUSH1 0x0 PUSH1 0x3 PUSH1 0x0 DUP4 DUP2 MSTORE PUSH1 0x20 ADD SWAP1 DUP2 MSTORE PUSH1 0x20 ADD PUSH1 0x0 KECCAK256 PUSH1 0x1 ADD DUP1 SLOAD PUSH1 0x1 DUP2 PUSH1 0x1 AND ISZERO PUSH2 0x100 MUL SUB AND PUSH1 0x2 SWAP1 DIV SWAP1 POP EQ ISZERO PUSH2 0x1978 JUMPI PUSH1 0x40 MLOAD PUSH32 0x8C379A000000000000000000000000000000000000000000000000000000000 DUP2 MSTORE PUSH1 0x4 ADD DUP1 DUP1 PUSH1 0x20 ADD DUP3 DUP2 SUB DUP3 MSTORE PUSH1 0x1E DUP2 MSTORE PUSH1 0x20 ADD DUP1 PUSH32 0x456C20636162616C6C6F20696E6772657361646F206E6F206578697374650000 DUP2 MSTORE POP PUSH1 0x20 ADD SWAP2 POP POP PUSH1 0x40 MLOAD DUP1 SWAP2 SUB SWAP1 REVERT JUMPDEST DUP5 PUSH1 0x0 PUSH1 0x2 PUSH1 0x0 DUP4 DUP2 MSTORE PUSH1 0x20 ADD SWAP1 DUP2 MSTORE PUSH1 0x20 ADD PUSH1 0x0 KECCAK256 PUSH1 0x1 ADD DUP1 SLOAD PUSH1 0x1 DUP2 PUSH1 0x1 AND ISZERO PUSH2 0x100 MUL SUB AND PUSH1 0x2 SWAP1 DIV SWAP1 POP EQ ISZERO PUSH2 0x1A1A JUMPI PUSH1 0x40 MLOAD PUSH32 0x8C379A000000000000000000000000000000000000000000000000000000000 DUP2 MSTORE PUSH1 0x4 ADD DUP1 DUP1 PUSH1 0x20 ADD DUP3 DUP2 SUB DUP3 MSTORE PUSH1 0x1E DUP2 MSTORE PUSH1 0x20 ADD DUP1 PUSH32 0x4C61206361727265726120696E67726573616461206E6F206578697374650000 DUP2 MSTORE POP PUSH1 0x20 ADD SWAP2 POP POP PUSH1 0x40 MLOAD DUP1 SWAP2 SUB SWAP1 REVERT JUMPDEST DUP6 DUP8 PUSH1 0x0 PUSH1 0x4 PUSH1 0x0 DUP5 DUP2 MSTORE PUSH1 0x20 ADD SWAP1 DUP2 MSTORE PUSH1 0x20 ADD PUSH1 0x0 KECCAK256 DUP1 SLOAD SWAP1 POP SWAP1 POP PUSH1 0x0 DUP1 SWAP1 POP PUSH1 0x0 DUP1 SWAP1 POP JUMPDEST DUP3 DUP2 LT ISZERO PUSH2 0x1A90 JUMPI DUP4 PUSH1 0x4 PUSH1 0x0 DUP8 DUP2 MSTORE PUSH1 0x20 ADD SWAP1 DUP2 MSTORE PUSH1 0x20 ADD PUSH1 0x0 KECCAK256 DUP3 DUP2 SLOAD DUP2 LT PUSH2 0x1A69 JUMPI INVALID JUMPDEST SWAP1 PUSH1 0x0 MSTORE PUSH1 0x20 PUSH1 0x0 KECCAK256 ADD SLOAD EQ ISZERO PUSH2 0x1A83 JUMPI PUSH1 0x1 SWAP2 POP PUSH2 0x1A90 JUMP JUMPDEST DUP1 DUP1 PUSH1 0x1 ADD SWAP2 POP POP PUSH2 0x1A42 JUMP JUMPDEST POP DUP1 ISZERO PUSH2 0x1AE8 JUMPI PUSH1 0x40 MLOAD PUSH32 0x8C379A000000000000000000000000000000000000000000000000000000000 DUP2 MSTORE PUSH1 0x4 ADD DUP1 DUP1 PUSH1 0x20 ADD DUP3 DUP2 SUB DUP3 MSTORE PUSH1 0x37 DUP2 MSTORE PUSH1 0x20 ADD DUP1 PUSH2 0x3B5E PUSH1 0x37 SWAP2 CODECOPY PUSH1 0x40 ADD SWAP2 POP POP PUSH1 0x40 MLOAD DUP1 SWAP2 SUB SWAP1 REVERT JUMPDEST PUSH1 0x4 PUSH1 0x0 DUP12 DUP2 MSTORE PUSH1 0x20 ADD SWAP1 DUP2 MSTORE PUSH1 0x20 ADD PUSH1 0x0 KECCAK256 DUP12 SWAP1 DUP1 PUSH1 0x1 DUP2 SLOAD ADD DUP1 DUP3 SSTORE DUP1 SWAP2 POP POP PUSH1 0x1 SWAP1 SUB SWAP1 PUSH1 0x0 MSTORE PUSH1 0x20 PUSH1 0x0 KECCAK256 ADD PUSH1 0x0 SWAP1 SWAP2 SWAP1 SWAP2 SWAP1 SWAP2 POP SSTORE PUSH1 0x1 PUSH1 0x2 PUSH1 0x0 DUP13 DUP2 MSTORE PUSH1 0x20 ADD SWAP1 DUP2 MSTORE PUSH1 0x20 ADD PUSH1 0x0 KECCAK256 PUSH1 0x4 ADD PUSH1 0x0 DUP3 DUP3 SLOAD ADD SWAP3 POP POP DUP2 SWAP1 SSTORE POP POP POP POP POP POP POP POP POP POP POP POP JUMP JUMPDEST PUSH1 0x60 DUP2 PUSH1 0x0 PUSH1 0x2 PUSH1 0x0 DUP4 DUP2 MSTORE PUSH1 0x20 ADD SWAP1 DUP2 MSTORE PUSH1 0x20 ADD PUSH1 0x0 KECCAK256 PUSH1 0x1 ADD DUP1 SLOAD PUSH1 0x1 DUP2 PUSH1 0x1 AND ISZERO PUSH2 0x100 MUL SUB AND PUSH1 0x2 SWAP1 DIV SWAP1 POP EQ ISZERO PUSH2 0x1BF8 JUMPI PUSH1 0x40 MLOAD PUSH32 0x8C379A000000000000000000000000000000000000000000000000000000000 DUP2 MSTORE PUSH1 0x4 ADD DUP1 DUP1 PUSH1 0x20 ADD DUP3 DUP2 SUB DUP3 MSTORE PUSH1 0x1E DUP2 MSTORE PUSH1 0x20 ADD DUP1 PUSH32 0x4C61206361727265726120696E67726573616461206E6F206578697374650000 DUP2 MSTORE POP PUSH1 0x20 ADD SWAP2 POP POP PUSH1 0x40 MLOAD DUP1 SWAP2 SUB SWAP1 REVERT JUMPDEST DUP3 PUSH1 0x2 DUP1 PUSH1 0x2 DUP2 GT ISZERO PUSH2 0x1C07 JUMPI INVALID JUMPDEST PUSH1 0x2 PUSH1 0x0 DUP5 DUP2 MSTORE PUSH1 0x20 ADD SWAP1 DUP2 MSTORE PUSH1 0x20 ADD PUSH1 0x0 KECCAK256 PUSH1 0x2 ADD PUSH1 0x0 SWAP1 SLOAD SWAP1 PUSH2 0x100 EXP SWAP1 DIV PUSH1 0xFF AND PUSH1 0x2 DUP2 GT ISZERO PUSH2 0x1C36 JUMPI INVALID JUMPDEST EQ PUSH2 0x1C8C JUMPI PUSH1 0x40 MLOAD PUSH32 0x8C379A000000000000000000000000000000000000000000000000000000000 DUP2 MSTORE PUSH1 0x4 ADD DUP1 DUP1 PUSH1 0x20 ADD DUP3 DUP2 SUB DUP3 MSTORE PUSH1 0x2C DUP2 MSTORE PUSH1 0x20 ADD DUP1 PUSH2 0x3B95 PUSH1 0x2C SWAP2 CODECOPY PUSH1 0x40 ADD SWAP2 POP POP PUSH1 0x40 MLOAD DUP1 SWAP2 SUB SWAP1 REVERT JUMPDEST DUP5 PUSH1 0x0 PUSH1 0x5 PUSH1 0x0 DUP4 DUP2 MSTORE PUSH1 0x20 ADD SWAP1 DUP2 MSTORE PUSH1 0x20 ADD PUSH1 0x0 KECCAK256 DUP1 SLOAD SWAP1 POP GT PUSH2 0x1CFC JUMPI PUSH1 0x40 MLOAD PUSH32 0x8C379A000000000000000000000000000000000000000000000000000000000 DUP2 MSTORE PUSH1 0x4 ADD DUP1 DUP1 PUSH1 0x20 ADD DUP3 DUP2 SUB DUP3 MSTORE PUSH1 0x29 DUP2 MSTORE PUSH1 0x20 ADD DUP1 PUSH2 0x3AA2 PUSH1 0x29 SWAP2 CODECOPY PUSH1 0x40 ADD SWAP2 POP POP PUSH1 0x40 MLOAD DUP1 SWAP2 SUB SWAP1 REVERT JUMPDEST PUSH1 0x60 PUSH1 0x40 MLOAD DUP1 PUSH1 0x40 ADD PUSH1 0x40 MSTORE DUP1 PUSH1 0x19 DUP2 MSTORE PUSH1 0x20 ADD PUSH32 0x47616E61646F72657320656E206C612063617272657261202300000000000000 DUP2 MSTORE POP SWAP1 POP PUSH1 0x0 DUP1 SWAP1 POP DUP2 PUSH2 0x1D45 DUP10 PUSH2 0x37AC JUMP JUMPDEST PUSH1 0x40 MLOAD PUSH1 0x20 ADD DUP1 DUP4 DUP1 MLOAD SWAP1 PUSH1 0x20 ADD SWAP1 DUP1 DUP4 DUP4 JUMPDEST PUSH1 0x20 DUP4 LT PUSH2 0x1D7B JUMPI DUP1 MLOAD DUP3 MSTORE PUSH1 0x20 DUP3 ADD SWAP2 POP PUSH1 0x20 DUP2 ADD SWAP1 POP PUSH1 0x20 DUP4 SUB SWAP3 POP PUSH2 0x1D58 JUMP JUMPDEST PUSH1 0x1 DUP4 PUSH1 0x20 SUB PUSH2 0x100 EXP SUB DUP1 NOT DUP3 MLOAD AND DUP2 DUP5 MLOAD AND DUP1 DUP3 OR DUP6 MSTORE POP POP POP POP POP POP SWAP1 POP ADD DUP3 DUP1 MLOAD SWAP1 PUSH1 0x20 ADD SWAP1 DUP1 DUP4 DUP4 JUMPDEST PUSH1 0x20 DUP4 LT PUSH2 0x1DCC JUMPI DUP1 MLOAD DUP3 MSTORE PUSH1 0x20 DUP3 ADD SWAP2 POP PUSH1 0x20 DUP2 ADD SWAP1 POP PUSH1 0x20 DUP4 SUB SWAP3 POP PUSH2 0x1DA9 JUMP JUMPDEST PUSH1 0x1 DUP4 PUSH1 0x20 SUB PUSH2 0x100 EXP SUB DUP1 NOT DUP3 MLOAD AND DUP2 DUP5 MLOAD AND DUP1 DUP3 OR DUP6 MSTORE POP POP POP POP POP POP SWAP1 POP ADD SWAP3 POP POP POP PUSH1 0x40 MLOAD PUSH1 0x20 DUP2 DUP4 SUB SUB DUP2 MSTORE SWAP1 PUSH1 0x40 MSTORE SWAP2 POP DUP2 PUSH1 0x40 MLOAD PUSH1 0x20 ADD DUP1 DUP3 DUP1 MLOAD SWAP1 PUSH1 0x20 ADD SWAP1 DUP1 DUP4 DUP4 JUMPDEST PUSH1 0x20 DUP4 LT PUSH2 0x1E3A JUMPI DUP1 MLOAD DUP3 MSTORE PUSH1 0x20 DUP3 ADD SWAP2 POP PUSH1 0x20 DUP2 ADD SWAP1 POP PUSH1 0x20 DUP4 SUB SWAP3 POP PUSH2 0x1E17 JUMP JUMPDEST PUSH1 0x1 DUP4 PUSH1 0x20 SUB PUSH2 0x100 EXP SUB DUP1 NOT DUP3 MLOAD AND DUP2 DUP5 MLOAD AND DUP1 DUP3 OR DUP6 MSTORE POP POP POP POP POP POP SWAP1 POP ADD DUP1 PUSH32 0x3A20000000000000000000000000000000000000000000000000000000000000 DUP2 MSTORE POP PUSH1 0x2 ADD SWAP2 POP POP PUSH1 0x40 MLOAD PUSH1 0x20 DUP2 DUP4 SUB SUB DUP2 MSTORE SWAP1 PUSH1 0x40 MSTORE SWAP2 POP PUSH1 0x0 DUP1 SWAP1 POP JUMPDEST PUSH1 0x5 PUSH1 0x0 DUP11 DUP2 MSTORE PUSH1 0x20 ADD SWAP1 DUP2 MSTORE PUSH1 0x20 ADD PUSH1 0x0 KECCAK256 DUP1 SLOAD SWAP1 POP DUP2 LT ISZERO PUSH2 0x235E JUMPI PUSH1 0x0 PUSH1 0x2 PUSH1 0x0 DUP12 DUP2 MSTORE PUSH1 0x20 ADD SWAP1 DUP2 MSTORE PUSH1 0x20 ADD PUSH1 0x0 KECCAK256 PUSH1 0x6 ADD PUSH1 0x0 PUSH1 0x5 PUSH1 0x0 DUP14 DUP2 MSTORE PUSH1 0x20 ADD SWAP1 DUP2 MSTORE PUSH1 0x20 ADD PUSH1 0x0 KECCAK256 DUP5 DUP2 SLOAD DUP2 LT PUSH2 0x1EF4 JUMPI INVALID JUMPDEST SWAP1 PUSH1 0x0 MSTORE PUSH1 0x20 PUSH1 0x0 KECCAK256 ADD PUSH1 0x0 SWAP1 SLOAD SWAP1 PUSH2 0x100 EXP SWAP1 DIV PUSH20 0xFFFFFFFFFFFFFFFFFFFFFFFFFFFFFFFFFFFFFFFF AND PUSH20 0xFFFFFFFFFFFFFFFFFFFFFFFFFFFFFFFFFFFFFFFF AND PUSH20 0xFFFFFFFFFFFFFFFFFFFFFFFFFFFFFFFFFFFFFFFF AND DUP2 MSTORE PUSH1 0x20 ADD SWAP1 DUP2 MSTORE PUSH1 0x20 ADD PUSH1 0x0 KECCAK256 PUSH1 0x4 ADD SLOAD SWAP1 POP PUSH1 0x0 DUP2 EQ PUSH2 0x2350 JUMPI PUSH1 0x1 SWAP3 POP DUP4 PUSH1 0x40 MLOAD PUSH1 0x20 ADD DUP1 DUP3 DUP1 MLOAD SWAP1 PUSH1 0x20 ADD SWAP1 DUP1 DUP4 DUP4 JUMPDEST PUSH1 0x20 DUP4 LT PUSH2 0x1FA2 JUMPI DUP1 MLOAD DUP3 MSTORE PUSH1 0x20 DUP3 ADD SWAP2 POP PUSH1 0x20 DUP2 ADD SWAP1 POP PUSH1 0x20 DUP4 SUB SWAP3 POP PUSH2 0x1F7F JUMP JUMPDEST PUSH1 0x1 DUP4 PUSH1 0x20 SUB PUSH2 0x100 EXP SUB DUP1 NOT DUP3 MLOAD AND DUP2 DUP5 MLOAD AND DUP1 DUP3 OR DUP6 MSTORE POP POP POP POP POP POP SWAP1 POP ADD DUP1 PUSH32 0x41706F737461646F722023000000000000000000000000000000000000000000 DUP2 MSTORE POP PUSH1 0xB ADD SWAP2 POP POP PUSH1 0x40 MLOAD PUSH1 0x20 DUP2 DUP4 SUB SUB DUP2 MSTORE SWAP1 PUSH1 0x40 MSTORE SWAP4 POP DUP4 PUSH2 0x200A DUP4 PUSH2 0x37AC JUMP JUMPDEST PUSH1 0x40 MLOAD PUSH1 0x20 ADD DUP1 DUP4 DUP1 MLOAD SWAP1 PUSH1 0x20 ADD SWAP1 DUP1 DUP4 DUP4 JUMPDEST PUSH1 0x20 DUP4 LT PUSH2 0x2040 JUMPI DUP1 MLOAD DUP3 MSTORE PUSH1 0x20 DUP3 ADD SWAP2 POP PUSH1 0x20 DUP2 ADD SWAP1 POP PUSH1 0x20 DUP4 SUB SWAP3 POP PUSH2 0x201D JUMP JUMPDEST PUSH1 0x1 DUP4 PUSH1 0x20 SUB PUSH2 0x100 EXP SUB DUP1 NOT DUP3 MLOAD AND DUP2 DUP5 MLOAD AND DUP1 DUP3 OR DUP6 MSTORE POP POP POP POP POP POP SWAP1 POP ADD DUP3 DUP1 MLOAD SWAP1 PUSH1 0x20 ADD SWAP1 DUP1 DUP4 DUP4 JUMPDEST PUSH1 0x20 DUP4 LT PUSH2 0x2091 JUMPI DUP1 MLOAD DUP3 MSTORE PUSH1 0x20 DUP3 ADD SWAP2 POP PUSH1 0x20 DUP2 ADD SWAP1 POP PUSH1 0x20 DUP4 SUB SWAP3 POP PUSH2 0x206E JUMP JUMPDEST PUSH1 0x1 DUP4 PUSH1 0x20 SUB PUSH2 0x100 EXP SUB DUP1 NOT DUP3 MLOAD AND DUP2 DUP5 MLOAD AND DUP1 DUP3 OR DUP6 MSTORE POP POP POP POP POP POP SWAP1 POP ADD SWAP3 POP POP POP PUSH1 0x40 MLOAD PUSH1 0x20 DUP2 DUP4 SUB SUB DUP2 MSTORE SWAP1 PUSH1 0x40 MSTORE SWAP4 POP DUP4 PUSH1 0x40 MLOAD PUSH1 0x20 ADD DUP1 DUP3 DUP1 MLOAD SWAP1 PUSH1 0x20 ADD SWAP1 DUP1 DUP4 DUP4 JUMPDEST PUSH1 0x20 DUP4 LT PUSH2 0x20FF JUMPI DUP1 MLOAD DUP3 MSTORE PUSH1 0x20 DUP3 ADD SWAP2 POP PUSH1 0x20 DUP2 ADD SWAP1 POP PUSH1 0x20 DUP4 SUB SWAP3 POP PUSH2 0x20DC JUMP JUMPDEST PUSH1 0x1 DUP4 PUSH1 0x20 SUB PUSH2 0x100 EXP SUB DUP1 NOT DUP3 MLOAD AND DUP2 DUP5 MLOAD AND DUP1 DUP3 OR DUP6 MSTORE POP POP POP POP POP POP SWAP1 POP ADD DUP1 PUSH32 0x2D00000000000000000000000000000000000000000000000000000000000000 DUP2 MSTORE POP PUSH1 0x1 ADD SWAP2 POP POP PUSH1 0x40 MLOAD PUSH1 0x20 DUP2 DUP4 SUB SUB DUP2 MSTORE SWAP1 PUSH1 0x40 MSTORE SWAP4 POP DUP4 PUSH1 0x40 MLOAD PUSH1 0x20 ADD DUP1 DUP3 DUP1 MLOAD SWAP1 PUSH1 0x20 ADD SWAP1 DUP1 DUP4 DUP4 JUMPDEST PUSH1 0x20 DUP4 LT PUSH2 0x2194 JUMPI DUP1 MLOAD DUP3 MSTORE PUSH1 0x20 DUP3 ADD SWAP2 POP PUSH1 0x20 DUP2 ADD SWAP1 POP PUSH1 0x20 DUP4 SUB SWAP3 POP PUSH2 0x2171 JUMP JUMPDEST PUSH1 0x1 DUP4 PUSH1 0x20 SUB PUSH2 0x100 EXP SUB DUP1 NOT DUP3 MLOAD AND DUP2 DUP5 MLOAD AND DUP1 DUP3 OR DUP6 MSTORE POP POP POP POP POP POP SWAP1 POP ADD DUP1 PUSH32 0x47616E6F3A200000000000000000000000000000000000000000000000000000 DUP2 MSTORE POP PUSH1 0x6 ADD SWAP2 POP POP PUSH1 0x40 MLOAD PUSH1 0x20 DUP2 DUP4 SUB SUB DUP2 MSTORE SWAP1 PUSH1 0x40 MSTORE SWAP4 POP DUP4 PUSH2 0x21FC DUP3 PUSH2 0x37AC JUMP JUMPDEST PUSH1 0x40 MLOAD PUSH1 0x20 ADD DUP1 DUP4 DUP1 MLOAD SWAP1 PUSH1 0x20 ADD SWAP1 DUP1 DUP4 DUP4 JUMPDEST PUSH1 0x20 DUP4 LT PUSH2 0x2232 JUMPI DUP1 MLOAD DUP3 MSTORE PUSH1 0x20 DUP3 ADD SWAP2 POP PUSH1 0x20 DUP2 ADD SWAP1 POP PUSH1 0x20 DUP4 SUB SWAP3 POP PUSH2 0x220F JUMP JUMPDEST PUSH1 0x1 DUP4 PUSH1 0x20 SUB PUSH2 0x100 EXP SUB DUP1 NOT DUP3 MLOAD AND DUP2 DUP5 MLOAD AND DUP1 DUP3 OR DUP6 MSTORE POP POP POP POP POP POP SWAP1 POP ADD DUP3 DUP1 MLOAD SWAP1 PUSH1 0x20 ADD SWAP1 DUP1 DUP4 DUP4 JUMPDEST PUSH1 0x20 DUP4 LT PUSH2 0x2283 JUMPI DUP1 MLOAD DUP3 MSTORE PUSH1 0x20 DUP3 ADD SWAP2 POP PUSH1 0x20 DUP2 ADD SWAP1 POP PUSH1 0x20 DUP4 SUB SWAP3 POP PUSH2 0x2260 JUMP JUMPDEST PUSH1 0x1 DUP4 PUSH1 0x20 SUB PUSH2 0x100 EXP SUB DUP1 NOT DUP3 MLOAD AND DUP2 DUP5 MLOAD AND DUP1 DUP3 OR DUP6 MSTORE POP POP POP POP POP POP SWAP1 POP ADD SWAP3 POP POP POP PUSH1 0x40 MLOAD PUSH1 0x20 DUP2 DUP4 SUB SUB DUP2 MSTORE SWAP1 PUSH1 0x40 MSTORE SWAP4 POP DUP4 PUSH1 0x40 MLOAD PUSH1 0x20 ADD DUP1 DUP3 DUP1 MLOAD SWAP1 PUSH1 0x20 ADD SWAP1 DUP1 DUP4 DUP4 JUMPDEST PUSH1 0x20 DUP4 LT PUSH2 0x22F1 JUMPI DUP1 MLOAD DUP3 MSTORE PUSH1 0x20 DUP3 ADD SWAP2 POP PUSH1 0x20 DUP2 ADD SWAP1 POP PUSH1 0x20 DUP4 SUB SWAP3 POP PUSH2 0x22CE JUMP JUMPDEST PUSH1 0x1 DUP4 PUSH1 0x20 SUB PUSH2 0x100 EXP SUB DUP1 NOT DUP3 MLOAD AND DUP2 DUP5 MLOAD AND DUP1 DUP3 OR DUP6 MSTORE POP POP POP POP POP POP SWAP1 POP ADD DUP1 PUSH32 0x2020000000000000000000000000000000000000000000000000000000000000 DUP2 MSTORE POP PUSH1 0x2 ADD SWAP2 POP POP PUSH1 0x40 MLOAD PUSH1 0x20 DUP2 DUP4 SUB SUB DUP2 MSTORE SWAP1 PUSH1 0x40 MSTORE SWAP4 POP JUMPDEST POP DUP1 DUP1 PUSH1 0x1 ADD SWAP2 POP POP PUSH2 0x1E9E JUMP JUMPDEST POP DUP2 SWAP7 POP POP POP POP POP POP POP SWAP2 SWAP1 POP JUMP JUMPDEST PUSH1 0x0 DUP1 SWAP1 SLOAD SWAP1 PUSH2 0x100 EXP SWAP1 DIV PUSH20 0xFFFFFFFFFFFFFFFFFFFFFFFFFFFFFFFFFFFFFFFF AND DUP2 JUMP JUMPDEST PUSH1 0x0 DUP1 SWAP1 SLOAD SWAP1 PUSH2 0x100 EXP SWAP1 DIV PUSH20 0xFFFFFFFFFFFFFFFFFFFFFFFFFFFFFFFFFFFFFFFF AND PUSH20 0xFFFFFFFFFFFFFFFFFFFFFFFFFFFFFFFFFFFFFFFF AND CALLER PUSH20 0xFFFFFFFFFFFFFFFFFFFFFFFFFFFFFFFFFFFFFFFF AND EQ PUSH2 0x2437 JUMPI PUSH1 0x40 MLOAD PUSH32 0x8C379A000000000000000000000000000000000000000000000000000000000 DUP2 MSTORE PUSH1 0x4 ADD DUP1 DUP1 PUSH1 0x20 ADD DUP3 DUP2 SUB DUP3 MSTORE PUSH1 0x22 DUP2 MSTORE PUSH1 0x20 ADD DUP1 PUSH2 0x3A0E PUSH1 0x22 SWAP2 CODECOPY PUSH1 0x40 ADD SWAP2 POP POP PUSH1 0x40 MLOAD DUP1 SWAP2 SUB SWAP1 REVERT JUMPDEST DUP2 PUSH1 0x0 PUSH1 0x3 PUSH1 0x0 DUP4 DUP2 MSTORE PUSH1 0x20 ADD SWAP1 DUP2 MSTORE PUSH1 0x20 ADD PUSH1 0x0 KECCAK256 PUSH1 0x1 ADD DUP1 SLOAD PUSH1 0x1 DUP2 PUSH1 0x1 AND ISZERO PUSH2 0x100 MUL SUB AND PUSH1 0x2 SWAP1 DIV SWAP1 POP EQ PUSH2 0x24BB JUMPI PUSH1 0x40 MLOAD PUSH32 0x8C379A000000000000000000000000000000000000000000000000000000000 DUP2 MSTORE PUSH1 0x4 ADD DUP1 DUP1 PUSH1 0x20 ADD DUP3 DUP2 SUB DUP3 MSTORE PUSH1 0x25 DUP2 MSTORE PUSH1 0x20 ADD DUP1 PUSH2 0x3B39 PUSH1 0x25 SWAP2 CODECOPY PUSH1 0x40 ADD SWAP2 POP POP PUSH1 0x40 MLOAD DUP1 SWAP2 SUB SWAP1 REVERT JUMPDEST PUSH1 0x40 MLOAD DUP1 PUSH1 0x40 ADD PUSH1 0x40 MSTORE DUP1 DUP5 DUP2 MSTORE PUSH1 0x20 ADD DUP4 DUP2 MSTORE POP PUSH1 0x3 PUSH1 0x0 DUP6 DUP2 MSTORE PUSH1 0x20 ADD SWAP1 DUP2 MSTORE PUSH1 0x20 ADD PUSH1 0x0 KECCAK256 PUSH1 0x0 DUP3 ADD MLOAD DUP2 PUSH1 0x0 ADD SSTORE PUSH1 0x20 DUP3 ADD MLOAD DUP2 PUSH1 0x1 ADD SWAP1 DUP1 MLOAD SWAP1 PUSH1 0x20 ADD SWAP1 PUSH2 0x2509 SWAP3 SWAP2 SWAP1 PUSH2 0x38D9 JUMP JUMPDEST POP SWAP1 POP POP POP POP POP JUMP JUMPDEST PUSH1 0x2 PUSH1 0x20 MSTORE DUP1 PUSH1 0x0 MSTORE PUSH1 0x40 PUSH1 0x0 KECCAK256 PUSH1 0x0 SWAP2 POP SWAP1 POP DUP1 PUSH1 0x0 ADD SLOAD SWAP1 DUP1 PUSH1 0x1 ADD DUP1 SLOAD PUSH1 0x1 DUP2 PUSH1 0x1 AND ISZERO PUSH2 0x100 MUL SUB AND PUSH1 0x2 SWAP1 DIV DUP1 PUSH1 0x1F ADD PUSH1 0x20 DUP1 SWAP2 DIV MUL PUSH1 0x20 ADD PUSH1 0x40 MLOAD SWAP1 DUP2 ADD PUSH1 0x40 MSTORE DUP1 SWAP3 SWAP2 SWAP1 DUP2 DUP2 MSTORE PUSH1 0x20 ADD DUP3 DUP1 SLOAD PUSH1 0x1 DUP2 PUSH1 0x1 AND ISZERO PUSH2 0x100 MUL SUB AND PUSH1 0x2 SWAP1 DIV DUP1 ISZERO PUSH2 0x25C4 JUMPI DUP1 PUSH1 0x1F LT PUSH2 0x2599 JUMPI PUSH2 0x100 DUP1 DUP4 SLOAD DIV MUL DUP4 MSTORE SWAP2 PUSH1 0x20 ADD SWAP2 PUSH2 0x25C4 JUMP JUMPDEST DUP3 ADD SWAP2 SWAP1 PUSH1 0x0 MSTORE PUSH1 0x20 PUSH1 0x0 KECCAK256 SWAP1 JUMPDEST DUP2 SLOAD DUP2 MSTORE SWAP1 PUSH1 0x1 ADD SWAP1 PUSH1 0x20 ADD DUP1 DUP4 GT PUSH2 0x25A7 JUMPI DUP3 SWAP1 SUB PUSH1 0x1F AND DUP3 ADD SWAP2 JUMPDEST POP POP POP POP POP SWAP1 DUP1 PUSH1 0x2 ADD PUSH1 0x0 SWAP1 SLOAD SWAP1 PUSH2 0x100 EXP SWAP1 DIV PUSH1 0xFF AND SWAP1 DUP1 PUSH1 0x3 ADD SLOAD SWAP1 DUP1 PUSH1 0x4 ADD SLOAD SWAP1 DUP1 PUSH1 0x5 ADD SLOAD SWAP1 POP DUP7 JUMP JUMPDEST PUSH1 0x0 DUP2 PUSH1 0x0 PUSH1 0x2 PUSH1 0x0 DUP4 DUP2 MSTORE PUSH1 0x20 ADD SWAP1 DUP2 MSTORE PUSH1 0x20 ADD PUSH1 0x0 KECCAK256 PUSH1 0x1 ADD DUP1 SLOAD PUSH1 0x1 DUP2 PUSH1 0x1 AND ISZERO PUSH2 0x100 MUL SUB AND PUSH1 0x2 SWAP1 DIV SWAP1 POP EQ ISZERO PUSH2 0x2697 JUMPI PUSH1 0x40 MLOAD PUSH32 0x8C379A000000000000000000000000000000000000000000000000000000000 DUP2 MSTORE PUSH1 0x4 ADD DUP1 DUP1 PUSH1 0x20 ADD DUP3 DUP2 SUB DUP3 MSTORE PUSH1 0x1E DUP2 MSTORE PUSH1 0x20 ADD DUP1 PUSH32 0x4C61206361727265726120696E67726573616461206E6F206578697374650000 DUP2 MSTORE POP PUSH1 0x20 ADD SWAP2 POP POP PUSH1 0x40 MLOAD DUP1 SWAP2 SUB SWAP1 REVERT JUMPDEST DUP3 PUSH1 0x2 DUP1 PUSH1 0x2 DUP2 GT ISZERO PUSH2 0x26A6 JUMPI INVALID JUMPDEST PUSH1 0x2 PUSH1 0x0 DUP5 DUP2 MSTORE PUSH1 0x20 ADD SWAP1 DUP2 MSTORE PUSH1 0x20 ADD PUSH1 0x0 KECCAK256 PUSH1 0x2 ADD PUSH1 0x0 SWAP1 SLOAD SWAP1 PUSH2 0x100 EXP SWAP1 DIV PUSH1 0xFF AND PUSH1 0x2 DUP2 GT ISZERO PUSH2 0x26D5 JUMPI INVALID JUMPDEST EQ PUSH2 0x272B JUMPI PUSH1 0x40 MLOAD PUSH32 0x8C379A000000000000000000000000000000000000000000000000000000000 DUP2 MSTORE PUSH1 0x4 ADD DUP1 DUP1 PUSH1 0x20 ADD DUP3 DUP2 SUB DUP3 MSTORE PUSH1 0x2C DUP2 MSTORE PUSH1 0x20 ADD DUP1 PUSH2 0x3B95 PUSH1 0x2C SWAP2 CODECOPY PUSH1 0x40 ADD SWAP2 POP POP PUSH1 0x40 MLOAD DUP1 SWAP2 SUB SWAP1 REVERT JUMPDEST PUSH1 0x2 PUSH1 0x0 DUP7 DUP2 MSTORE PUSH1 0x20 ADD SWAP1 DUP2 MSTORE PUSH1 0x20 ADD PUSH1 0x0 KECCAK256 PUSH1 0x5 ADD SLOAD SWAP4 POP POP POP POP SWAP2 SWAP1 POP JUMP JUMPDEST PUSH1 0x0 DUP2 PUSH1 0x0 PUSH1 0x2 PUSH1 0x0 DUP4 DUP2 MSTORE PUSH1 0x20 ADD SWAP1 DUP2 MSTORE PUSH1 0x20 ADD PUSH1 0x0 KECCAK256 PUSH1 0x1 ADD DUP1 SLOAD PUSH1 0x1 DUP2 PUSH1 0x1 AND ISZERO PUSH2 0x100 MUL SUB AND PUSH1 0x2 SWAP1 DIV SWAP1 POP EQ ISZERO PUSH2 0x27F0 JUMPI PUSH1 0x40 MLOAD PUSH32 0x8C379A000000000000000000000000000000000000000000000000000000000 DUP2 MSTORE PUSH1 0x4 ADD DUP1 DUP1 PUSH1 0x20 ADD DUP3 DUP2 SUB DUP3 MSTORE PUSH1 0x1E DUP2 MSTORE PUSH1 0x20 ADD DUP1 PUSH32 0x4C61206361727265726120696E67726573616461206E6F206578697374650000 DUP2 MSTORE POP PUSH1 0x20 ADD SWAP2 POP POP PUSH1 0x40 MLOAD DUP1 SWAP2 SUB SWAP1 REVERT JUMPDEST DUP3 PUSH1 0x0 PUSH1 0x5 PUSH1 0x0 DUP4 DUP2 MSTORE PUSH1 0x20 ADD SWAP1 DUP2 MSTORE PUSH1 0x20 ADD PUSH1 0x0 KECCAK256 DUP1 SLOAD SWAP1 POP GT PUSH2 0x2860 JUMPI PUSH1 0x40 MLOAD PUSH32 0x8C379A000000000000000000000000000000000000000000000000000000000 DUP2 MSTORE PUSH1 0x4 ADD DUP1 DUP1 PUSH1 0x20 ADD DUP3 DUP2 SUB DUP3 MSTORE PUSH1 0x29 DUP2 MSTORE PUSH1 0x20 ADD DUP1 PUSH2 0x3AA2 PUSH1 0x29 SWAP2 CODECOPY PUSH1 0x40 ADD SWAP2 POP POP PUSH1 0x40 MLOAD DUP1 SWAP2 SUB SWAP1 REVERT JUMPDEST PUSH1 0x5 PUSH1 0x0 DUP6 DUP2 MSTORE PUSH1 0x20 ADD SWAP1 DUP2 MSTORE PUSH1 0x20 ADD PUSH1 0x0 KECCAK256 DUP6 DUP2 SLOAD DUP2 LT PUSH2 0x287E JUMPI INVALID JUMPDEST SWAP1 PUSH1 0x0 MSTORE PUSH1 0x20 PUSH1 0x0 KECCAK256 ADD PUSH1 0x0 SWAP1 SLOAD SWAP1 PUSH2 0x100 EXP SWAP1 DIV PUSH20 0xFFFFFFFFFFFFFFFFFFFFFFFFFFFFFFFFFFFFFFFF AND SWAP3 POP POP POP SWAP3 SWAP2 POP POP JUMP JUMPDEST PUSH1 0x5 PUSH1 0x20 MSTORE DUP2 PUSH1 0x0 MSTORE PUSH1 0x40 PUSH1 0x0 KECCAK256 DUP2 DUP2 SLOAD DUP2 LT PUSH2 0x28CC JUMPI INVALID JUMPDEST SWAP1 PUSH1 0x0 MSTORE PUSH1 0x20 PUSH1 0x0 KECCAK256 ADD PUSH1 0x0 SWAP2 POP SWAP2 POP SWAP1 SLOAD SWAP1 PUSH2 0x100 EXP SWAP1 DIV PUSH20 0xFFFFFFFFFFFFFFFFFFFFFFFFFFFFFFFFFFFFFFFF AND DUP2 JUMP JUMPDEST PUSH1 0x60 DUP2 PUSH1 0x0 PUSH1 0x2 PUSH1 0x0 DUP4 DUP2 MSTORE PUSH1 0x20 ADD SWAP1 DUP2 MSTORE PUSH1 0x20 ADD PUSH1 0x0 KECCAK256 PUSH1 0x1 ADD DUP1 SLOAD PUSH1 0x1 DUP2 PUSH1 0x1 AND ISZERO PUSH2 0x100 MUL SUB AND PUSH1 0x2 SWAP1 DIV SWAP1 POP EQ ISZERO PUSH2 0x29A2 JUMPI PUSH1 0x40 MLOAD PUSH32 0x8C379A000000000000000000000000000000000000000000000000000000000 DUP2 MSTORE PUSH1 0x4 ADD DUP1 DUP1 PUSH1 0x20 ADD DUP3 DUP2 SUB DUP3 MSTORE PUSH1 0x1E DUP2 MSTORE PUSH1 0x20 ADD DUP1 PUSH32 0x4C61206361727265726120696E67726573616461206E6F206578697374650000 DUP2 MSTORE POP PUSH1 0x20 ADD SWAP2 POP POP PUSH1 0x40 MLOAD DUP1 SWAP2 SUB SWAP1 REVERT JUMPDEST PUSH1 0x0 PUSH1 0x2 DUP2 GT ISZERO PUSH2 0x29AF JUMPI INVALID JUMPDEST PUSH1 0x2 PUSH1 0x0 DUP6 DUP2 MSTORE PUSH1 0x20 ADD SWAP1 DUP2 MSTORE PUSH1 0x20 ADD PUSH1 0x0 KECCAK256 PUSH1 0x2 ADD PUSH1 0x0 SWAP1 SLOAD SWAP1 PUSH2 0x100 EXP SWAP1 DIV PUSH1 0xFF AND PUSH1 0x2 DUP2 GT ISZERO PUSH2 0x29DE JUMPI INVALID JUMPDEST EQ ISZERO PUSH2 0x2A21 JUMPI PUSH1 0x40 MLOAD DUP1 PUSH1 0x40 ADD PUSH1 0x40 MSTORE DUP1 PUSH1 0x6 DUP2 MSTORE PUSH1 0x20 ADD PUSH32 0x4372656164610000000000000000000000000000000000000000000000000000 DUP2 MSTORE POP SWAP2 POP PUSH2 0x2AD9 JUMP JUMPDEST PUSH1 0x1 PUSH1 0x2 DUP2 GT ISZERO PUSH2 0x2A2E JUMPI INVALID JUMPDEST PUSH1 0x2 PUSH1 0x0 DUP6 DUP2 MSTORE PUSH1 0x20 ADD SWAP1 DUP2 MSTORE PUSH1 0x20 ADD PUSH1 0x0 KECCAK256 PUSH1 0x2 ADD PUSH1 0x0 SWAP1 SLOAD SWAP1 PUSH2 0x100 EXP SWAP1 DIV PUSH1 0xFF AND PUSH1 0x2 DUP2 GT ISZERO PUSH2 0x2A5D JUMPI INVALID JUMPDEST EQ ISZERO PUSH2 0x2AA0 JUMPI PUSH1 0x40 MLOAD DUP1 PUSH1 0x40 ADD PUSH1 0x40 MSTORE DUP1 PUSH1 0xA DUP2 MSTORE PUSH1 0x20 ADD PUSH32 0x5265676973747261646100000000000000000000000000000000000000000000 DUP2 MSTORE POP SWAP2 POP PUSH2 0x2AD9 JUMP JUMPDEST PUSH1 0x40 MLOAD DUP1 PUSH1 0x40 ADD PUSH1 0x40 MSTORE DUP1 PUSH1 0x9 DUP2 MSTORE PUSH1 0x20 ADD PUSH32 0x5465726D696E6164610000000000000000000000000000000000000000000000 DUP2 MSTORE POP SWAP2 POP JUMPDEST POP SWAP2 SWAP1 POP JUMP JUMPDEST PUSH1 0x1 SLOAD DUP2 JUMP JUMPDEST PUSH1 0x3 PUSH1 0x20 MSTORE DUP1 PUSH1 0x0 MSTORE PUSH1 0x40 PUSH1 0x0 KECCAK256 PUSH1 0x0 SWAP2 POP SWAP1 POP DUP1 PUSH1 0x0 ADD SLOAD SWAP1 DUP1 PUSH1 0x1 ADD DUP1 SLOAD PUSH1 0x1 DUP2 PUSH1 0x1 AND ISZERO PUSH2 0x100 MUL SUB AND PUSH1 0x2 SWAP1 DIV DUP1 PUSH1 0x1F ADD PUSH1 0x20 DUP1 SWAP2 DIV MUL PUSH1 0x20 ADD PUSH1 0x40 MLOAD SWAP1 DUP2 ADD PUSH1 0x40 MSTORE DUP1 SWAP3 SWAP2 SWAP1 DUP2 DUP2 MSTORE PUSH1 0x20 ADD DUP3 DUP1 SLOAD PUSH1 0x1 DUP2 PUSH1 0x1 AND ISZERO PUSH2 0x100 MUL SUB AND PUSH1 0x2 SWAP1 DIV DUP1 ISZERO PUSH2 0x2B97 JUMPI DUP1 PUSH1 0x1F LT PUSH2 0x2B6C JUMPI PUSH2 0x100 DUP1 DUP4 SLOAD DIV MUL DUP4 MSTORE SWAP2 PUSH1 0x20 ADD SWAP2 PUSH2 0x2B97 JUMP JUMPDEST DUP3 ADD SWAP2 SWAP1 PUSH1 0x0 MSTORE PUSH1 0x20 PUSH1 0x0 KECCAK256 SWAP1 JUMPDEST DUP2 SLOAD DUP2 MSTORE SWAP1 PUSH1 0x1 ADD SWAP1 PUSH1 0x20 ADD DUP1 DUP4 GT PUSH2 0x2B7A JUMPI DUP3 SWAP1 SUB PUSH1 0x1F AND DUP3 ADD SWAP2 JUMPDEST POP POP POP POP POP SWAP1 POP DUP3 JUMP JUMPDEST PUSH1 0x0 DUP1 SWAP1 SLOAD SWAP1 PUSH2 0x100 EXP SWAP1 DIV PUSH20 0xFFFFFFFFFFFFFFFFFFFFFFFFFFFFFFFFFFFFFFFF AND PUSH20 0xFFFFFFFFFFFFFFFFFFFFFFFFFFFFFFFFFFFFFFFF AND CALLER PUSH20 0xFFFFFFFFFFFFFFFFFFFFFFFFFFFFFFFFFFFFFFFF AND EQ ISZERO PUSH2 0x2C47 JUMPI PUSH1 0x40 MLOAD PUSH32 0x8C379A000000000000000000000000000000000000000000000000000000000 DUP2 MSTORE PUSH1 0x4 ADD DUP1 DUP1 PUSH1 0x20 ADD DUP3 DUP2 SUB DUP3 MSTORE PUSH1 0x37 DUP2 MSTORE PUSH1 0x20 ADD DUP1 PUSH2 0x3B02 PUSH1 0x37 SWAP2 CODECOPY PUSH1 0x40 ADD SWAP2 POP POP PUSH1 0x40 MLOAD DUP1 SWAP2 SUB SWAP1 REVERT JUMPDEST DUP1 PUSH1 0x1 DUP1 PUSH1 0x2 DUP2 GT ISZERO PUSH2 0x2C56 JUMPI INVALID JUMPDEST PUSH1 0x2 PUSH1 0x0 DUP5 DUP2 MSTORE PUSH1 0x20 ADD SWAP1 DUP2 MSTORE PUSH1 0x20 ADD PUSH1 0x0 KECCAK256 PUSH1 0x2 ADD PUSH1 0x0 SWAP1 SLOAD SWAP1 PUSH2 0x100 EXP SWAP1 DIV PUSH1 0xFF AND PUSH1 0x2 DUP2 GT ISZERO PUSH2 0x2C85 JUMPI INVALID JUMPDEST EQ PUSH2 0x2CDB JUMPI PUSH1 0x40 MLOAD PUSH32 0x8C379A000000000000000000000000000000000000000000000000000000000 DUP2 MSTORE PUSH1 0x4 ADD DUP1 DUP1 PUSH1 0x20 ADD DUP3 DUP2 SUB DUP3 MSTORE PUSH1 0x2C DUP2 MSTORE PUSH1 0x20 ADD DUP1 PUSH2 0x3B95 PUSH1 0x2C SWAP2 CODECOPY PUSH1 0x40 ADD SWAP2 POP POP PUSH1 0x40 MLOAD DUP1 SWAP2 SUB SWAP1 REVERT JUMPDEST DUP4 PUSH1 0x0 PUSH1 0x3 PUSH1 0x0 DUP4 DUP2 MSTORE PUSH1 0x20 ADD SWAP1 DUP2 MSTORE PUSH1 0x20 ADD PUSH1 0x0 KECCAK256 PUSH1 0x1 ADD DUP1 SLOAD PUSH1 0x1 DUP2 PUSH1 0x1 AND ISZERO PUSH2 0x100 MUL SUB AND PUSH1 0x2 SWAP1 DIV SWAP1 POP EQ ISZERO PUSH2 0x2D7D JUMPI PUSH1 0x40 MLOAD PUSH32 0x8C379A000000000000000000000000000000000000000000000000000000000 DUP2 MSTORE PUSH1 0x4 ADD DUP1 DUP1 PUSH1 0x20 ADD DUP3 DUP2 SUB DUP3 MSTORE PUSH1 0x1E DUP2 MSTORE PUSH1 0x20 ADD DUP1 PUSH32 0x456C20636162616C6C6F20696E6772657361646F206E6F206578697374650000 DUP2 MSTORE POP PUSH1 0x20 ADD SWAP2 POP POP PUSH1 0x40 MLOAD DUP1 SWAP2 SUB SWAP1 REVERT JUMPDEST DUP4 PUSH1 0x0 PUSH1 0x2 PUSH1 0x0 DUP4 DUP2 MSTORE PUSH1 0x20 ADD SWAP1 DUP2 MSTORE PUSH1 0x20 ADD PUSH1 0x0 KECCAK256 PUSH1 0x1 ADD DUP1 SLOAD PUSH1 0x1 DUP2 PUSH1 0x1 AND ISZERO PUSH2 0x100 MUL SUB AND PUSH1 0x2 SWAP1 DIV SWAP1 POP EQ ISZERO PUSH2 0x2E1F JUMPI PUSH1 0x40 MLOAD PUSH32 0x8C379A000000000000000000000000000000000000000000000000000000000 DUP2 MSTORE PUSH1 0x4 ADD DUP1 DUP1 PUSH1 0x20 ADD DUP3 DUP2 SUB DUP3 MSTORE PUSH1 0x1E DUP2 MSTORE PUSH1 0x20 ADD DUP1 PUSH32 0x4C61206361727265726120696E67726573616461206E6F206578697374650000 DUP2 MSTORE POP PUSH1 0x20 ADD SWAP2 POP POP PUSH1 0x40 MLOAD DUP1 SWAP2 SUB SWAP1 REVERT JUMPDEST DUP5 DUP7 PUSH1 0x0 PUSH1 0x4 PUSH1 0x0 DUP5 DUP2 MSTORE PUSH1 0x20 ADD SWAP1 DUP2 MSTORE PUSH1 0x20 ADD PUSH1 0x0 KECCAK256 DUP1 SLOAD SWAP1 POP SWAP1 POP PUSH1 0x0 DUP1 SWAP1 POP PUSH1 0x0 DUP1 SWAP1 POP JUMPDEST DUP3 DUP2 LT ISZERO PUSH2 0x2E95 JUMPI DUP4 PUSH1 0x4 PUSH1 0x0 DUP8 DUP2 MSTORE PUSH1 0x20 ADD SWAP1 DUP2 MSTORE PUSH1 0x20 ADD PUSH1 0x0 KECCAK256 DUP3 DUP2 SLOAD DUP2 LT PUSH2 0x2E6E JUMPI INVALID JUMPDEST SWAP1 PUSH1 0x0 MSTORE PUSH1 0x20 PUSH1 0x0 KECCAK256 ADD SLOAD EQ ISZERO PUSH2 0x2E88 JUMPI PUSH1 0x1 SWAP2 POP PUSH2 0x2E95 JUMP JUMPDEST DUP1 DUP1 PUSH1 0x1 ADD SWAP2 POP POP PUSH2 0x2E47 JUMP JUMPDEST POP DUP1 PUSH2 0x2EEC JUMPI PUSH1 0x40 MLOAD PUSH32 0x8C379A000000000000000000000000000000000000000000000000000000000 DUP2 MSTORE PUSH1 0x4 ADD DUP1 DUP1 PUSH1 0x20 ADD DUP3 DUP2 SUB DUP3 MSTORE PUSH1 0x37 DUP2 MSTORE PUSH1 0x20 ADD DUP1 PUSH2 0x3ACB PUSH1 0x37 SWAP2 CODECOPY PUSH1 0x40 ADD SWAP2 POP POP PUSH1 0x40 MLOAD DUP1 SWAP2 SUB SWAP1 REVERT JUMPDEST CALLVALUE PUSH1 0x0 DUP2 GT PUSH2 0x2F46 JUMPI PUSH1 0x40 MLOAD PUSH32 0x8C379A000000000000000000000000000000000000000000000000000000000 DUP2 MSTORE PUSH1 0x4 ADD DUP1 DUP1 PUSH1 0x20 ADD DUP3 DUP2 SUB DUP3 MSTORE PUSH1 0x29 DUP2 MSTORE PUSH1 0x20 ADD DUP1 PUSH2 0x3A79 PUSH1 0x29 SWAP2 CODECOPY PUSH1 0x40 ADD SWAP2 POP POP PUSH1 0x40 MLOAD DUP1 SWAP2 SUB SWAP1 REVERT JUMPDEST PUSH1 0x0 CALLVALUE SWAP1 POP PUSH1 0x0 CALLER SWAP1 POP PUSH1 0x2 PUSH1 0x0 DUP14 DUP2 MSTORE PUSH1 0x20 ADD SWAP1 DUP2 MSTORE PUSH1 0x20 ADD PUSH1 0x0 KECCAK256 PUSH1 0x6 ADD PUSH1 0x0 DUP3 PUSH20 0xFFFFFFFFFFFFFFFFFFFFFFFFFFFFFFFFFFFFFFFF AND PUSH20 0xFFFFFFFFFFFFFFFFFFFFFFFFFFFFFFFFFFFFFFFF AND DUP2 MSTORE PUSH1 0x20 ADD SWAP1 DUP2 MSTORE PUSH1 0x20 ADD PUSH1 0x0 KECCAK256 PUSH1 0x2 ADD PUSH1 0x0 SWAP1 SLOAD SWAP1 PUSH2 0x100 EXP SWAP1 DIV PUSH1 0xFF AND ISZERO PUSH2 0x30F4 JUMPI DUP13 PUSH1 0x2 PUSH1 0x0 DUP15 DUP2 MSTORE PUSH1 0x20 ADD SWAP1 DUP2 MSTORE PUSH1 0x20 ADD PUSH1 0x0 KECCAK256 PUSH1 0x6 ADD PUSH1 0x0 DUP4 PUSH20 0xFFFFFFFFFFFFFFFFFFFFFFFFFFFFFFFFFFFFFFFF AND PUSH20 0xFFFFFFFFFFFFFFFFFFFFFFFFFFFFFFFFFFFFFFFF AND DUP2 MSTORE PUSH1 0x20 ADD SWAP1 DUP2 MSTORE PUSH1 0x20 ADD PUSH1 0x0 KECCAK256 PUSH1 0x1 ADD SLOAD EQ PUSH2 0x3067 JUMPI PUSH1 0x40 MLOAD PUSH32 0x8C379A000000000000000000000000000000000000000000000000000000000 DUP2 MSTORE PUSH1 0x4 ADD DUP1 DUP1 PUSH1 0x20 ADD DUP3 DUP2 SUB DUP3 MSTORE PUSH1 0x3B DUP2 MSTORE PUSH1 0x20 ADD DUP1 PUSH2 0x397F PUSH1 0x3B SWAP2 CODECOPY PUSH1 0x40 ADD SWAP2 POP POP PUSH1 0x40 MLOAD DUP1 SWAP2 SUB SWAP1 REVERT JUMPDEST DUP2 PUSH1 0x2 PUSH1 0x0 DUP15 DUP2 MSTORE PUSH1 0x20 ADD SWAP1 DUP2 MSTORE PUSH1 0x20 ADD PUSH1 0x0 KECCAK256 PUSH1 0x6 ADD PUSH1 0x0 DUP4 PUSH20 0xFFFFFFFFFFFFFFFFFFFFFFFFFFFFFFFFFFFFFFFF AND PUSH20 0xFFFFFFFFFFFFFFFFFFFFFFFFFFFFFFFFFFFFFFFF AND DUP2 MSTORE PUSH1 0x20 ADD SWAP1 DUP2 MSTORE PUSH1 0x20 ADD PUSH1 0x0 KECCAK256 PUSH1 0x0 ADD PUSH1 0x0 DUP3 DUP3 SLOAD ADD SWAP3 POP POP DUP2 SWAP1 SSTORE POP DUP2 PUSH1 0x2 PUSH1 0x0 DUP15 DUP2 MSTORE PUSH1 0x20 ADD SWAP1 DUP2 MSTORE PUSH1 0x20 ADD PUSH1 0x0 KECCAK256 PUSH1 0x3 ADD PUSH1 0x0 DUP3 DUP3 SLOAD ADD SWAP3 POP POP DUP2 SWAP1 SSTORE POP PUSH2 0x3257 JUMP JUMPDEST PUSH1 0x40 MLOAD DUP1 PUSH1 0xA0 ADD PUSH1 0x40 MSTORE DUP1 DUP4 DUP2 MSTORE PUSH1 0x20 ADD DUP15 DUP2 MSTORE PUSH1 0x20 ADD PUSH1 0x1 ISZERO ISZERO DUP2 MSTORE PUSH1 0x20 ADD PUSH1 0x0 DUP2 MSTORE PUSH1 0x20 ADD PUSH1 0x0 DUP2 MSTORE POP PUSH1 0x2 PUSH1 0x0 DUP15 DUP2 MSTORE PUSH1 0x20 ADD SWAP1 DUP2 MSTORE PUSH1 0x20 ADD PUSH1 0x0 KECCAK256 PUSH1 0x6 ADD PUSH1 0x0 DUP4 PUSH20 0xFFFFFFFFFFFFFFFFFFFFFFFFFFFFFFFFFFFFFFFF AND PUSH20 0xFFFFFFFFFFFFFFFFFFFFFFFFFFFFFFFFFFFFFFFF AND DUP2 MSTORE PUSH1 0x20 ADD SWAP1 DUP2 MSTORE PUSH1 0x20 ADD PUSH1 0x0 KECCAK256 PUSH1 0x0 DUP3 ADD MLOAD DUP2 PUSH1 0x0 ADD SSTORE PUSH1 0x20 DUP3 ADD MLOAD DUP2 PUSH1 0x1 ADD SSTORE PUSH1 0x40 DUP3 ADD MLOAD DUP2 PUSH1 0x2 ADD PUSH1 0x0 PUSH2 0x100 EXP DUP2 SLOAD DUP2 PUSH1 0xFF MUL NOT AND SWAP1 DUP4 ISZERO ISZERO MUL OR SWAP1 SSTORE POP PUSH1 0x60 DUP3 ADD MLOAD DUP2 PUSH1 0x3 ADD SSTORE PUSH1 0x80 DUP3 ADD MLOAD DUP2 PUSH1 0x4 ADD SSTORE SWAP1 POP POP DUP2 PUSH1 0x2 PUSH1 0x0 DUP15 DUP2 MSTORE PUSH1 0x20 ADD SWAP1 DUP2 MSTORE PUSH1 0x20 ADD PUSH1 0x0 KECCAK256 PUSH1 0x3 ADD PUSH1 0x0 DUP3 DUP3 SLOAD ADD SWAP3 POP POP DUP2 SWAP1 SSTORE POP PUSH1 0x5 PUSH1 0x0 DUP14 DUP2 MSTORE PUSH1 0x20 ADD SWAP1 DUP2 MSTORE PUSH1 0x20 ADD PUSH1 0x0 KECCAK256 DUP2 SWAP1 DUP1 PUSH1 0x1 DUP2 SLOAD ADD DUP1 DUP3 SSTORE DUP1 SWAP2 POP POP PUSH1 0x1 SWAP1 SUB SWAP1 PUSH1 0x0 MSTORE PUSH1 0x20 PUSH1 0x0 KECCAK256 ADD PUSH1 0x0 SWAP1 SWAP2 SWAP1 SWAP2 SWAP1 SWAP2 PUSH2 0x100 EXP DUP2 SLOAD DUP2 PUSH20 0xFFFFFFFFFFFFFFFFFFFFFFFFFFFFFFFFFFFFFFFF MUL NOT AND SWAP1 DUP4 PUSH20 0xFFFFFFFFFFFFFFFFFFFFFFFFFFFFFFFFFFFFFFFF AND MUL OR SWAP1 SSTORE POP JUMPDEST POP POP POP POP POP POP POP POP POP POP POP POP POP JUMP JUMPDEST PUSH1 0x0 DUP1 SWAP1 SLOAD SWAP1 PUSH2 0x100 EXP SWAP1 DIV PUSH20 0xFFFFFFFFFFFFFFFFFFFFFFFFFFFFFFFFFFFFFFFF AND PUSH20 0xFFFFFFFFFFFFFFFFFFFFFFFFFFFFFFFFFFFFFFFF AND CALLER PUSH20 0xFFFFFFFFFFFFFFFFFFFFFFFFFFFFFFFFFFFFFFFF AND EQ PUSH2 0x330B JUMPI PUSH1 0x40 MLOAD PUSH32 0x8C379A000000000000000000000000000000000000000000000000000000000 DUP2 MSTORE PUSH1 0x4 ADD DUP1 DUP1 PUSH1 0x20 ADD DUP3 DUP2 SUB DUP3 MSTORE PUSH1 0x22 DUP2 MSTORE PUSH1 0x20 ADD DUP1 PUSH2 0x3A0E PUSH1 0x22 SWAP2 CODECOPY PUSH1 0x40 ADD SWAP2 POP POP PUSH1 0x40 MLOAD DUP1 SWAP2 SUB SWAP1 REVERT JUMPDEST DUP1 PUSH1 0x0 DUP1 PUSH1 0x2 DUP2 GT ISZERO PUSH2 0x331A JUMPI INVALID JUMPDEST PUSH1 0x2 PUSH1 0x0 DUP5 DUP2 MSTORE PUSH1 0x20 ADD SWAP1 DUP2 MSTORE PUSH1 0x20 ADD PUSH1 0x0 KECCAK256 PUSH1 0x2 ADD PUSH1 0x0 SWAP1 SLOAD SWAP1 PUSH2 0x100 EXP SWAP1 DIV PUSH1 0xFF AND PUSH1 0x2 DUP2 GT ISZERO PUSH2 0x3349 JUMPI INVALID JUMPDEST EQ PUSH2 0x339F JUMPI PUSH1 0x40 MLOAD PUSH32 0x8C379A000000000000000000000000000000000000000000000000000000000 DUP2 MSTORE PUSH1 0x4 ADD DUP1 DUP1 PUSH1 0x20 ADD DUP3 DUP2 SUB DUP3 MSTORE PUSH1 0x2C DUP2 MSTORE PUSH1 0x20 ADD DUP1 PUSH2 0x3B95 PUSH1 0x2C SWAP2 CODECOPY PUSH1 0x40 ADD SWAP2 POP POP PUSH1 0x40 MLOAD DUP1 SWAP2 SUB SWAP1 REVERT JUMPDEST DUP3 PUSH1 0x0 PUSH1 0x2 PUSH1 0x0 DUP4 DUP2 MSTORE PUSH1 0x20 ADD SWAP1 DUP2 MSTORE PUSH1 0x20 ADD PUSH1 0x0 KECCAK256 PUSH1 0x1 ADD DUP1 SLOAD PUSH1 0x1 DUP2 PUSH1 0x1 AND ISZERO PUSH2 0x100 MUL SUB AND PUSH1 0x2 SWAP1 DIV SWAP1 POP EQ ISZERO PUSH2 0x3441 JUMPI PUSH1 0x40 MLOAD PUSH32 0x8C379A000000000000000000000000000000000000000000000000000000000 DUP2 MSTORE PUSH1 0x4 ADD DUP1 DUP1 PUSH1 0x20 ADD DUP3 DUP2 SUB DUP3 MSTORE PUSH1 0x1E DUP2 MSTORE PUSH1 0x20 ADD DUP1 PUSH32 0x4C61206361727265726120696E67726573616461206E6F206578697374650000 DUP2 MSTORE POP PUSH1 0x20 ADD SWAP2 POP POP PUSH1 0x40 MLOAD DUP1 SWAP2 SUB SWAP1 REVERT JUMPDEST DUP4 PUSH1 0x2 PUSH1 0x4 PUSH1 0x0 DUP4 DUP2 MSTORE PUSH1 0x20 ADD SWAP1 DUP2 MSTORE PUSH1 0x20 ADD PUSH1 0x0 KECCAK256 DUP1 SLOAD SWAP1 POP LT ISZERO PUSH2 0x34B2 JUMPI PUSH1 0x40 MLOAD PUSH32 0x8C379A000000000000000000000000000000000000000000000000000000000 DUP2 MSTORE PUSH1 0x4 ADD DUP1 DUP1 PUSH1 0x20 ADD DUP3 DUP2 SUB DUP3 MSTORE PUSH1 0x2E DUP2 MSTORE PUSH1 0x20 ADD DUP1 PUSH2 0x39E0 PUSH1 0x2E SWAP2 CODECOPY PUSH1 0x40 ADD SWAP2 POP POP PUSH1 0x40 MLOAD DUP1 SWAP2 SUB SWAP1 REVERT JUMPDEST PUSH1 0x1 PUSH1 0x2 PUSH1 0x0 DUP8 DUP2 MSTORE PUSH1 0x20 ADD SWAP1 DUP2 MSTORE PUSH1 0x20 ADD PUSH1 0x0 KECCAK256 PUSH1 0x2 ADD PUSH1 0x0 PUSH2 0x100 EXP DUP2 SLOAD DUP2 PUSH1 0xFF MUL NOT AND SWAP1 DUP4 PUSH1 0x2 DUP2 GT ISZERO PUSH2 0x34E5 JUMPI INVALID JUMPDEST MUL OR SWAP1 SSTORE POP POP POP POP POP POP JUMP JUMPDEST PUSH1 0x0 DUP1 SWAP1 SLOAD SWAP1 PUSH2 0x100 EXP SWAP1 DIV PUSH20 0xFFFFFFFFFFFFFFFFFFFFFFFFFFFFFFFFFFFFFFFF AND PUSH20 0xFFFFFFFFFFFFFFFFFFFFFFFFFFFFFFFFFFFFFFFF AND CALLER PUSH20 0xFFFFFFFFFFFFFFFFFFFFFFFFFFFFFFFFFFFFFFFF AND EQ PUSH2 0x3596 JUMPI PUSH1 0x40 MLOAD PUSH32 0x8C379A000000000000000000000000000000000000000000000000000000000 DUP2 MSTORE PUSH1 0x4 ADD DUP1 DUP1 PUSH1 0x20 ADD DUP3 DUP2 SUB DUP3 MSTORE PUSH1 0x22 DUP2 MSTORE PUSH1 0x20 ADD DUP1 PUSH2 0x3A0E PUSH1 0x22 SWAP2 CODECOPY PUSH1 0x40 ADD SWAP2 POP POP PUSH1 0x40 MLOAD DUP1 SWAP2 SUB SWAP1 REVERT JUMPDEST DUP2 PUSH1 0x0 PUSH1 0x2 PUSH1 0x0 DUP4 DUP2 MSTORE PUSH1 0x20 ADD SWAP1 DUP2 MSTORE PUSH1 0x20 ADD PUSH1 0x0 KECCAK256 PUSH1 0x1 ADD DUP1 SLOAD PUSH1 0x1 DUP2 PUSH1 0x1 AND ISZERO PUSH2 0x100 MUL SUB AND PUSH1 0x2 SWAP1 DIV SWAP1 POP EQ PUSH2 0x361A JUMPI PUSH1 0x40 MLOAD PUSH32 0x8C379A000000000000000000000000000000000000000000000000000000000 DUP2 MSTORE PUSH1 0x4 ADD DUP1 DUP1 PUSH1 0x20 ADD DUP3 DUP2 SUB DUP3 MSTORE PUSH1 0x26 DUP2 MSTORE PUSH1 0x20 ADD DUP1 PUSH2 0x39BA PUSH1 0x26 SWAP2 CODECOPY PUSH1 0x40 ADD SWAP2 POP POP PUSH1 0x40 MLOAD DUP1 SWAP2 SUB SWAP1 REVERT JUMPDEST PUSH1 0x40 MLOAD DUP1 PUSH1 0xC0 ADD PUSH1 0x40 MSTORE DUP1 DUP5 DUP2 MSTORE PUSH1 0x20 ADD DUP4 DUP2 MSTORE PUSH1 0x20 ADD PUSH1 0x0 PUSH1 0x2 DUP2 GT ISZERO PUSH2 0x363E JUMPI INVALID JUMPDEST DUP2 MSTORE PUSH1 0x20 ADD PUSH1 0x0 DUP2 MSTORE PUSH1 0x20 ADD PUSH1 0x0 DUP2 MSTORE PUSH1 0x20 ADD PUSH1 0x0 DUP2 MSTORE POP PUSH1 0x2 PUSH1 0x0 DUP6 DUP2 MSTORE PUSH1 0x20 ADD SWAP1 DUP2 MSTORE PUSH1 0x20 ADD PUSH1 0x0 KECCAK256 PUSH1 0x0 DUP3 ADD MLOAD DUP2 PUSH1 0x0 ADD SSTORE PUSH1 0x20 DUP3 ADD MLOAD DUP2 PUSH1 0x1 ADD SWAP1 DUP1 MLOAD SWAP1 PUSH1 0x20 ADD SWAP1 PUSH2 0x368F SWAP3 SWAP2 SWAP1 PUSH2 0x38D9 JUMP JUMPDEST POP PUSH1 0x40 DUP3 ADD MLOAD DUP2 PUSH1 0x2 ADD PUSH1 0x0 PUSH2 0x100 EXP DUP2 SLOAD DUP2 PUSH1 0xFF MUL NOT AND SWAP1 DUP4 PUSH1 0x2 DUP2 GT ISZERO PUSH2 0x36B4 JUMPI INVALID JUMPDEST MUL OR SWAP1 SSTORE POP PUSH1 0x60 DUP3 ADD MLOAD DUP2 PUSH1 0x3 ADD SSTORE PUSH1 0x80 DUP3 ADD MLOAD DUP2 PUSH1 0x4 ADD SSTORE PUSH1 0xA0 DUP3 ADD MLOAD DUP2 PUSH1 0x5 ADD SSTORE SWAP1 POP POP PUSH1 0x1 DUP1 PUSH1 0x0 DUP3 DUP3 SLOAD ADD SWAP3 POP POP DUP2 SWAP1 SSTORE POP POP POP POP JUMP JUMPDEST PUSH1 0x4 PUSH1 0x20 MSTORE DUP2 PUSH1 0x0 MSTORE PUSH1 0x40 PUSH1 0x0 KECCAK256 DUP2 DUP2 SLOAD DUP2 LT PUSH2 0x3708 JUMPI INVALID JUMPDEST SWAP1 PUSH1 0x0 MSTORE PUSH1 0x20 PUSH1 0x0 KECCAK256 ADD PUSH1 0x0 SWAP2 POP SWAP2 POP POP SLOAD DUP2 JUMP JUMPDEST PUSH1 0x0 DUP1 PUSH1 0x0 SWAP1 POP DUP1 DUP1 PUSH1 0x1 ADD SWAP2 POP POP PUSH1 0x0 DUP4 TIMESTAMP CALLER DUP5 PUSH1 0x40 MLOAD PUSH1 0x20 ADD DUP1 DUP5 DUP2 MSTORE PUSH1 0x20 ADD DUP4 PUSH20 0xFFFFFFFFFFFFFFFFFFFFFFFFFFFFFFFFFFFFFFFF AND PUSH20 0xFFFFFFFFFFFFFFFFFFFFFFFFFFFFFFFFFFFFFFFF AND PUSH1 0x60 SHL DUP2 MSTORE PUSH1 0x14 ADD DUP3 DUP2 MSTORE PUSH1 0x20 ADD SWAP4 POP POP POP POP PUSH1 0x40 MLOAD PUSH1 0x20 DUP2 DUP4 SUB SUB DUP2 MSTORE SWAP1 PUSH1 0x40 MSTORE DUP1 MLOAD SWAP1 PUSH1 0x20 ADD KECCAK256 PUSH1 0x0 SHR DUP2 PUSH2 0x379F JUMPI INVALID JUMPDEST MOD SWAP1 POP DUP1 SWAP3 POP POP POP SWAP2 SWAP1 POP JUMP JUMPDEST PUSH1 0x60 PUSH1 0x0 DUP3 EQ ISZERO PUSH2 0x37F4 JUMPI PUSH1 0x40 MLOAD DUP1 PUSH1 0x40 ADD PUSH1 0x40 MSTORE DUP1 PUSH1 0x1 DUP2 MSTORE PUSH1 0x20 ADD PUSH32 0x3000000000000000000000000000000000000000000000000000000000000000 DUP2 MSTORE POP SWAP1 POP PUSH2 0x38D4 JUMP JUMPDEST PUSH1 0x0 DUP3 SWAP1 POP PUSH1 0x0 JUMPDEST PUSH1 0x0 DUP3 EQ PUSH2 0x381E JUMPI DUP1 DUP1 PUSH1 0x1 ADD SWAP2 POP POP PUSH1 0xA DUP3 DUP2 PUSH2 0x3816 JUMPI INVALID JUMPDEST DIV SWAP2 POP PUSH2 0x37FC JUMP JUMPDEST PUSH1 0x60 DUP2 PUSH1 0x40 MLOAD SWAP1 DUP1 DUP3 MSTORE DUP1 PUSH1 0x1F ADD PUSH1 0x1F NOT AND PUSH1 0x20 ADD DUP3 ADD PUSH1 0x40 MSTORE DUP1 ISZERO PUSH2 0x3853 JUMPI DUP2 PUSH1 0x20 ADD PUSH1 0x1 DUP3 MUL DUP1 CODESIZE DUP4 CODECOPY DUP1 DUP3 ADD SWAP2 POP POP SWAP1 POP JUMPDEST POP SWAP1 POP PUSH1 0x0 PUSH1 0x1 DUP4 SUB SWAP1 POP JUMPDEST PUSH1 0x0 DUP7 EQ PUSH2 0x38CC JUMPI PUSH1 0xA DUP7 DUP2 PUSH2 0x3871 JUMPI INVALID JUMPDEST MOD PUSH1 0x30 ADD PUSH1 0xF8 SHL DUP3 DUP3 DUP1 PUSH1 0x1 SWAP1 SUB SWAP4 POP DUP2 MLOAD DUP2 LT PUSH2 0x388B JUMPI INVALID JUMPDEST PUSH1 0x20 ADD ADD SWAP1 PUSH31 0xFFFFFFFFFFFFFFFFFFFFFFFFFFFFFFFFFFFFFFFFFFFFFFFFFFFFFFFFFFFFFF NOT AND SWAP1 DUP2 PUSH1 0x0 BYTE SWAP1 MSTORE8 POP PUSH1 0xA DUP7 DUP2 PUSH2 0x38C4 JUMPI INVALID JUMPDEST DIV SWAP6 POP PUSH2 0x385F JUMP JUMPDEST DUP2 SWAP5 POP POP POP POP POP JUMPDEST SWAP2 SWAP1 POP JUMP JUMPDEST DUP3 DUP1 SLOAD PUSH1 0x1 DUP2 PUSH1 0x1 AND ISZERO PUSH2 0x100 MUL SUB AND PUSH1 0x2 SWAP1 DIV SWAP1 PUSH1 0x0 MSTORE PUSH1 0x20 PUSH1 0x0 KECCAK256 SWAP1 PUSH1 0x1F ADD PUSH1 0x20 SWAP1 DIV DUP2 ADD SWAP3 DUP3 PUSH1 0x1F LT PUSH2 0x391A JUMPI DUP1 MLOAD PUSH1 0xFF NOT AND DUP4 DUP1 ADD OR DUP6 SSTORE PUSH2 0x3948 JUMP JUMPDEST DUP3 DUP1 ADD PUSH1 0x1 ADD DUP6 SSTORE DUP3 ISZERO PUSH2 0x3948 JUMPI SWAP2 DUP3 ADD JUMPDEST DUP3 DUP2 GT ISZERO PUSH2 0x3947 JUMPI DUP3 MLOAD DUP3 SSTORE SWAP2 PUSH1 0x20 ADD SWAP2 SWAP1 PUSH1 0x1 ADD SWAP1 PUSH2 0x392C JUMP JUMPDEST JUMPDEST POP SWAP1 POP PUSH2 0x3955 SWAP2 SWAP1 PUSH2 0x3959 JUMP JUMPDEST POP SWAP1 JUMP JUMPDEST PUSH2 0x397B SWAP2 SWAP1 JUMPDEST DUP1 DUP3 GT ISZERO PUSH2 0x3977 JUMPI PUSH1 0x0 DUP2 PUSH1 0x0 SWAP1 SSTORE POP PUSH1 0x1 ADD PUSH2 0x395F JUMP JUMPDEST POP SWAP1 JUMP JUMPDEST SWAP1 JUMP INVALID MSTORE8 PUSH16 0x6C6F2073652070756564652061706F73 PUSH21 0x617220706F7220756E20636162616C6C6F2064656E PUSH21 0x726F20646520657374612063617272657261596120 PUSH6 0x786973746520 PUSH22 0x6E61206361727265726120636F6E20657374652063C3 0xB3 PUSH5 0x69676F4C61 KECCAK256 PUSH4 0x61727265 PUSH19 0x61206465626520636F6E74617220636F6E2061 PUSH13 0x206D656E6F7320322063616261 PUSH13 0x6C6F73456C20696E766F636164 PUSH16 0x7220646562652073657220656C20616E PUSH7 0x697472696F6E4C PUSH2 0x2063 PUSH2 0x7272 PUSH6 0x726120796120 PUSH4 0x75656E74 PUSH2 0x2063 PUSH16 0x6E203520636162616C6C6F734C612063 PUSH2 0x7272 PUSH6 0x726120696E67 PUSH19 0x6573616461206E6F207469656E652063616261 PUSH13 0x6C6F73456C206D6F6E746F2064 PUSH6 0x206C61206170 PUSH22 0x65737461206465626520736572206D61796F72206120 ADDRESS 0x4C PUSH2 0x2063 PUSH2 0x7272 PUSH6 0x726120696E67 PUSH19 0x6573616461206E6F207469656E652061706F73 PUSH21 0x61646F7265734573746520636162616C6C6F206E6F KECCAK256 PUSH20 0x6520656E6375656E747261207265676973747261 PUSH5 0x6F20656E20 PUSH6 0x737461206361 PUSH19 0x72657261456C20696E766F6361646F72206465 PUSH3 0x652073 PUSH6 0x7220756E2075 PUSH20 0x756172696F206469666572656E746520616C2061 PUSH15 0x66697472696F6E5961206578697374 PUSH6 0x20756E206361 PUSH3 0x616C6C PUSH16 0x20636F6E20657374652063C3B3646967 PUSH16 0x4573746520636162616C6C6F20796120 PUSH20 0x6520656E6375656E747261207265676973747261 PUSH5 0x6F20656E20 PUSH6 0x737461206361 PUSH19 0x726572614C612063617272657261206E6F2063 PUSH22 0x6D706C6520636F6E20656C2065737461646F20726571 PUSH22 0x657269646FA2646970667358221220BCCB77E9A9A44E 0xE5 SLOAD LT CHAINID 0x2E PUSH12 0x12DAF049A6FE6059517CF46E 0xBA CALLER 0xC8 PUSH30 0x4A014864736F6C6343000600003300000000000000000000000000000000 "
				},
				"gasEstimates": {
					"creation": {
						"codeDepositCost": "3070000",
						"executionCost": "24247",
						"totalCost": "3094247"
					},
					"external": {
						"anfitrion()": "1076",
						"apostadores(uint256,uint256)": "2160",
						"apostar(uint256,uint256)": "infinite",
						"caballos(uint256)": "infinite",
						"carreras(uint256)": "infinite",
						"competencias(uint256,uint256)": "2182",
						"crearCarrera(uint256,string)": "infinite",
						"getAddressApostador(uint256,uint256)": "infinite",
						"getApostadorGanador(uint256)": "infinite",
						"getCaballoGanador(uint256)": "infinite",
						"getCaballosEnCarrera(uint256)": "infinite",
						"getEstadoCarrera(uint256)": "infinite",
						"registrarCaballo(uint256,string)": "infinite",
						"registrarCarrera(uint256)": "infinite",
						"registrarEnCarrera(uint256,uint256)": "infinite",
						"terminarCarrera(uint256)": "infinite",
						"totalCarreras()": "1094"
					},
					"internal": {
						"generarAleatorio(uint256)": "infinite",
						"uint2str(uint256)": "infinite"
					}
				},
				"methodIdentifiers": {
					"anfitrion()": "456f4b57",
					"apostadores(uint256,uint256)": "dfe22b5f",
					"apostar(uint256,uint256)": "f2f6da3e",
					"caballos(uint256)": "f0b73b54",
					"carreras(uint256)": "5ee81666",
					"competencias(uint256,uint256)": "fb34d0f7",
					"crearCarrera(uint256,string)": "f9d32e49",
					"getAddressApostador(uint256,uint256)": "d066cebe",
					"getApostadorGanador(uint256)": "286f6b4c",
					"getCaballoGanador(uint256)": "79b31e69",
					"getCaballosEnCarrera(uint256)": "1b895c2f",
					"getEstadoCarrera(uint256)": "e6581b9d",
					"registrarCaballo(uint256,string)": "5194f59c",
					"registrarCarrera(uint256)": "f7edd6db",
					"registrarEnCarrera(uint256,uint256)": "26d1c7d0",
					"terminarCarrera(uint256)": "010a0e95",
					"totalCarreras()": "e9ec5583"
				}
			},
			"storageLayout": {
				"storage": [
					{
						"astId": 3,
						"contract": "Solidity_BD2/casaApuestas.sol:casaApuestas",
						"label": "anfitrion",
						"offset": 0,
						"slot": "0",
						"type": "t_address"
					},
					{
						"astId": 9,
						"contract": "Solidity_BD2/casaApuestas.sol:casaApuestas",
						"label": "totalCarreras",
						"offset": 0,
						"slot": "1",
						"type": "t_uint256"
					},
					{
						"astId": 17,
						"contract": "Solidity_BD2/casaApuestas.sol:casaApuestas",
						"label": "carreras",
						"offset": 0,
						"slot": "2",
						"type": "t_mapping(t_uint256,t_struct(Carrera)48_storage)"
					},
					{
						"astId": 21,
						"contract": "Solidity_BD2/casaApuestas.sol:casaApuestas",
						"label": "caballos",
						"offset": 0,
						"slot": "3",
						"type": "t_mapping(t_uint256,t_struct(Caballo)53_storage)"
					},
					{
						"astId": 26,
						"contract": "Solidity_BD2/casaApuestas.sol:casaApuestas",
						"label": "competencias",
						"offset": 0,
						"slot": "4",
						"type": "t_mapping(t_uint256,t_array(t_uint256)dyn_storage)"
					},
					{
						"astId": 31,
						"contract": "Solidity_BD2/casaApuestas.sol:casaApuestas",
						"label": "apostadores",
						"offset": 0,
						"slot": "5",
						"type": "t_mapping(t_uint256,t_array(t_address)dyn_storage)"
					}
				],
				"types": {
					"t_address": {
						"encoding": "inplace",
						"label": "address",
						"numberOfBytes": "20"
					},
					"t_array(t_address)dyn_storage": {
						"base": "t_address",
						"encoding": "dynamic_array",
						"label": "address[]",
						"numberOfBytes": "32"
					},
					"t_array(t_uint256)dyn_storage": {
						"base": "t_uint256",
						"encoding": "dynamic_array",
						"label": "uint256[]",
						"numberOfBytes": "32"
					},
					"t_bool": {
						"encoding": "inplace",
						"label": "bool",
						"numberOfBytes": "1"
					},
					"t_enum(Estado)7": {
						"encoding": "inplace",
						"label": "enum casaApuestas.Estado",
						"numberOfBytes": "1"
					},
					"t_mapping(t_address,t_struct(Apuesta)64_storage)": {
						"encoding": "mapping",
						"key": "t_address",
						"label": "mapping(address => struct casaApuestas.Apuesta)",
						"numberOfBytes": "32",
						"value": "t_struct(Apuesta)64_storage"
					},
					"t_mapping(t_uint256,t_array(t_address)dyn_storage)": {
						"encoding": "mapping",
						"key": "t_uint256",
						"label": "mapping(uint256 => address[])",
						"numberOfBytes": "32",
						"value": "t_array(t_address)dyn_storage"
					},
					"t_mapping(t_uint256,t_array(t_uint256)dyn_storage)": {
						"encoding": "mapping",
						"key": "t_uint256",
						"label": "mapping(uint256 => uint256[])",
						"numberOfBytes": "32",
						"value": "t_array(t_uint256)dyn_storage"
					},
					"t_mapping(t_uint256,t_struct(Caballo)53_storage)": {
						"encoding": "mapping",
						"key": "t_uint256",
						"label": "mapping(uint256 => struct casaApuestas.Caballo)",
						"numberOfBytes": "32",
						"value": "t_struct(Caballo)53_storage"
					},
					"t_mapping(t_uint256,t_struct(Carrera)48_storage)": {
						"encoding": "mapping",
						"key": "t_uint256",
						"label": "mapping(uint256 => struct casaApuestas.Carrera)",
						"numberOfBytes": "32",
						"value": "t_struct(Carrera)48_storage"
					},
					"t_string_storage": {
						"encoding": "bytes",
						"label": "string",
						"numberOfBytes": "32"
					},
					"t_struct(Apuesta)64_storage": {
						"encoding": "inplace",
						"label": "struct casaApuestas.Apuesta",
						"members": [
							{
								"astId": 55,
								"contract": "Solidity_BD2/casaApuestas.sol:casaApuestas",
								"label": "monto",
								"offset": 0,
								"slot": "0",
								"type": "t_uint256"
							},
							{
								"astId": 57,
								"contract": "Solidity_BD2/casaApuestas.sol:casaApuestas",
								"label": "codCaballo",
								"offset": 0,
								"slot": "1",
								"type": "t_uint256"
							},
							{
								"astId": 59,
								"contract": "Solidity_BD2/casaApuestas.sol:casaApuestas",
								"label": "creada",
								"offset": 0,
								"slot": "2",
								"type": "t_bool"
							},
							{
								"astId": 61,
								"contract": "Solidity_BD2/casaApuestas.sol:casaApuestas",
								"label": "proporcion",
								"offset": 0,
								"slot": "3",
								"type": "t_uint256"
							},
							{
								"astId": 63,
								"contract": "Solidity_BD2/casaApuestas.sol:casaApuestas",
								"label": "dineroTransferido",
								"offset": 0,
								"slot": "4",
								"type": "t_uint256"
							}
						],
						"numberOfBytes": "160"
					},
					"t_struct(Caballo)53_storage": {
						"encoding": "inplace",
						"label": "struct casaApuestas.Caballo",
						"members": [
							{
								"astId": 50,
								"contract": "Solidity_BD2/casaApuestas.sol:casaApuestas",
								"label": "codigo",
								"offset": 0,
								"slot": "0",
								"type": "t_uint256"
							},
							{
								"astId": 52,
								"contract": "Solidity_BD2/casaApuestas.sol:casaApuestas",
								"label": "nombre",
								"offset": 0,
								"slot": "1",
								"type": "t_string_storage"
							}
						],
						"numberOfBytes": "64"
					},
					"t_struct(Carrera)48_storage": {
						"encoding": "inplace",
						"label": "struct casaApuestas.Carrera",
						"members": [
							{
								"astId": 33,
								"contract": "Solidity_BD2/casaApuestas.sol:casaApuestas",
								"label": "codigo",
								"offset": 0,
								"slot": "0",
								"type": "t_uint256"
							},
							{
								"astId": 35,
								"contract": "Solidity_BD2/casaApuestas.sol:casaApuestas",
								"label": "nombre",
								"offset": 0,
								"slot": "1",
								"type": "t_string_storage"
							},
							{
								"astId": 37,
								"contract": "Solidity_BD2/casaApuestas.sol:casaApuestas",
								"label": "estadoCarrera",
								"offset": 0,
								"slot": "2",
								"type": "t_enum(Estado)7"
							},
							{
								"astId": 39,
								"contract": "Solidity_BD2/casaApuestas.sol:casaApuestas",
								"label": "montoTotal",
								"offset": 0,
								"slot": "3",
								"type": "t_uint256"
							},
							{
								"astId": 41,
								"contract": "Solidity_BD2/casaApuestas.sol:casaApuestas",
								"label": "numeroCaballos",
								"offset": 0,
								"slot": "4",
								"type": "t_uint256"
							},
							{
								"astId": 43,
								"contract": "Solidity_BD2/casaApuestas.sol:casaApuestas",
								"label": "caballoGanador",
								"offset": 0,
								"slot": "5",
								"type": "t_uint256"
							},
							{
								"astId": 47,
								"contract": "Solidity_BD2/casaApuestas.sol:casaApuestas",
								"label": "apuestas",
								"offset": 0,
								"slot": "6",
								"type": "t_mapping(t_address,t_struct(Apuesta)64_storage)"
							}
						],
						"numberOfBytes": "224"
					},
					"t_uint256": {
						"encoding": "inplace",
						"label": "uint256",
						"numberOfBytes": "32"
					}
				}
			},
			"userdoc": {
				"methods": {}
			}
		}
	}
}