{
	"casaApuestas.sol": {
		"casaApuestas": {
			"abi": [
				{
					"inputs": [],
					"stateMutability": "nonpayable",
					"type": "constructor"
				},
				{
					"anonymous": false,
					"inputs": [
						{
							"indexed": false,
							"internalType": "uint256",
							"name": "codCarrera",
							"type": "uint256"
						},
						{
							"indexed": false,
							"internalType": "uint256",
							"name": "codCaballo",
							"type": "uint256"
						},
						{
							"indexed": false,
							"internalType": "address",
							"name": "apostador",
							"type": "address"
						},
						{
							"indexed": false,
							"internalType": "uint256",
							"name": "monto",
							"type": "uint256"
						}
					],
					"name": "ApuestaRealizada",
					"type": "event"
				},
				{
					"anonymous": false,
					"inputs": [
						{
							"indexed": false,
							"internalType": "uint256",
							"name": "codCarrera",
							"type": "uint256"
						},
						{
							"indexed": false,
							"internalType": "uint256",
							"name": "codCaballo",
							"type": "uint256"
						}
					],
					"name": "CaballoGanador",
					"type": "event"
				},
				{
					"anonymous": false,
					"inputs": [
						{
							"indexed": false,
							"internalType": "uint256",
							"name": "codigo",
							"type": "uint256"
						},
						{
							"indexed": false,
							"internalType": "string",
							"name": "nombre",
							"type": "string"
						}
					],
					"name": "CaballoInsertado",
					"type": "event"
				},
				{
					"anonymous": false,
					"inputs": [
						{
							"indexed": false,
							"internalType": "uint256",
							"name": "codigo",
							"type": "uint256"
						},
						{
							"indexed": false,
							"internalType": "string",
							"name": "nombre",
							"type": "string"
						},
						{
							"indexed": false,
							"internalType": "enum casaApuestas.Estado",
							"name": "estadoCarrera",
							"type": "uint8"
						}
					],
					"name": "CarreraInsertada",
					"type": "event"
				},
				{
					"anonymous": false,
					"inputs": [
						{
							"indexed": false,
							"internalType": "uint256",
							"name": "codigo",
							"type": "uint256"
						},
						{
							"indexed": false,
							"internalType": "string",
							"name": "nombre",
							"type": "string"
						},
						{
							"indexed": false,
							"internalType": "enum casaApuestas.Estado",
							"name": "estadoCarrera",
							"type": "uint8"
						}
					],
					"name": "CarreraRegistrada",
					"type": "event"
				},
				{
					"anonymous": false,
					"inputs": [
						{
							"indexed": false,
							"internalType": "uint256",
							"name": "codigo",
							"type": "uint256"
						},
						{
							"indexed": false,
							"internalType": "string",
							"name": "nombre",
							"type": "string"
						},
						{
							"indexed": false,
							"internalType": "enum casaApuestas.Estado",
							"name": "estadoCarrera",
							"type": "uint8"
						}
					],
					"name": "CarreraTerminada",
					"type": "event"
				},
				{
					"inputs": [],
					"name": "anfitrion",
					"outputs": [
						{
							"internalType": "address",
							"name": "",
							"type": "address"
						}
					],
					"stateMutability": "view",
					"type": "function"
				},
				{
					"inputs": [
						{
							"internalType": "uint256",
							"name": "",
							"type": "uint256"
						},
						{
							"internalType": "uint256",
							"name": "",
							"type": "uint256"
						}
					],
					"name": "apostadores",
					"outputs": [
						{
							"internalType": "address",
							"name": "",
							"type": "address"
						}
					],
					"stateMutability": "view",
					"type": "function"
				},
				{
					"inputs": [
						{
							"internalType": "uint256",
							"name": "_codCaballo",
							"type": "uint256"
						},
						{
							"internalType": "uint256",
							"name": "_codCarrera",
							"type": "uint256"
						}
					],
					"name": "apostar",
					"outputs": [],
					"stateMutability": "payable",
					"type": "function"
				},
				{
					"inputs": [
						{
							"internalType": "uint256",
							"name": "",
							"type": "uint256"
						}
					],
					"name": "caballos",
					"outputs": [
						{
							"internalType": "uint256",
							"name": "codigo",
							"type": "uint256"
						},
						{
							"internalType": "string",
							"name": "nombre",
							"type": "string"
						}
					],
					"stateMutability": "view",
					"type": "function"
				},
				{
					"inputs": [
						{
							"internalType": "uint256",
							"name": "",
							"type": "uint256"
						}
					],
					"name": "carreras",
					"outputs": [
						{
							"internalType": "uint256",
							"name": "codigo",
							"type": "uint256"
						},
						{
							"internalType": "string",
							"name": "nombre",
							"type": "string"
						},
						{
							"internalType": "enum casaApuestas.Estado",
							"name": "estadoCarrera",
							"type": "uint8"
						},
						{
							"internalType": "uint256",
							"name": "montoTotal",
							"type": "uint256"
						},
						{
							"internalType": "uint256",
							"name": "numeroCaballos",
							"type": "uint256"
						},
						{
							"internalType": "uint256",
							"name": "caballoGanador",
							"type": "uint256"
						}
					],
					"stateMutability": "view",
					"type": "function"
				},
				{
					"inputs": [
						{
							"internalType": "uint256",
							"name": "",
							"type": "uint256"
						},
						{
							"internalType": "uint256",
							"name": "",
							"type": "uint256"
						}
					],
					"name": "competencias",
					"outputs": [
						{
							"internalType": "uint256",
							"name": "",
							"type": "uint256"
						}
					],
					"stateMutability": "view",
					"type": "function"
				},
				{
					"inputs": [
						{
							"internalType": "uint256",
							"name": "_codigo",
							"type": "uint256"
						},
						{
							"internalType": "string",
							"name": "_nombre",
							"type": "string"
						}
					],
					"name": "crearCarrera",
					"outputs": [],
					"stateMutability": "nonpayable",
					"type": "function"
				},
				{
					"inputs": [
						{
							"internalType": "uint256",
							"name": "_indiceApostador",
							"type": "uint256"
						},
						{
							"internalType": "uint256",
							"name": "_codCarrera",
							"type": "uint256"
						}
					],
					"name": "getAddressApostador",
					"outputs": [
						{
							"internalType": "address",
							"name": "",
							"type": "address"
						}
					],
					"stateMutability": "view",
					"type": "function"
				},
				{
					"inputs": [
						{
							"internalType": "uint256",
							"name": "_codCarrera",
							"type": "uint256"
						}
					],
					"name": "getApostadorGanador",
					"outputs": [
						{
							"internalType": "string",
							"name": "",
							"type": "string"
						}
					],
					"stateMutability": "view",
					"type": "function"
				},
				{
					"inputs": [
						{
							"internalType": "uint256",
							"name": "_codCarrera",
							"type": "uint256"
						}
					],
					"name": "getCaballoGanador",
					"outputs": [
						{
							"internalType": "uint256",
							"name": "",
							"type": "uint256"
						}
					],
					"stateMutability": "view",
					"type": "function"
				},
				{
					"inputs": [
						{
							"internalType": "uint256",
							"name": "_codCarrera",
							"type": "uint256"
						}
					],
					"name": "getCaballosEnCarrera",
					"outputs": [
						{
							"internalType": "string",
							"name": "",
							"type": "string"
						}
					],
					"stateMutability": "view",
					"type": "function"
				},
				{
					"inputs": [
						{
							"internalType": "uint256",
							"name": "_codCarrera",
							"type": "uint256"
						}
					],
					"name": "getEstadoCarrera",
					"outputs": [
						{
							"internalType": "string",
							"name": "",
							"type": "string"
						}
					],
					"stateMutability": "view",
					"type": "function"
				},
				{
					"inputs": [
						{
							"internalType": "uint256",
							"name": "_codigo",
							"type": "uint256"
						},
						{
							"internalType": "string",
							"name": "_nombre",
							"type": "string"
						}
					],
					"name": "registrarCaballo",
					"outputs": [],
					"stateMutability": "nonpayable",
					"type": "function"
				},
				{
					"inputs": [
						{
							"internalType": "uint256",
							"name": "_codCarrera",
							"type": "uint256"
						}
					],
					"name": "registrarCarrera",
					"outputs": [],
					"stateMutability": "nonpayable",
					"type": "function"
				},
				{
					"inputs": [
						{
							"internalType": "uint256",
							"name": "_codCaballo",
							"type": "uint256"
						},
						{
							"internalType": "uint256",
							"name": "_codCarrera",
							"type": "uint256"
						}
					],
					"name": "registrarEnCarrera",
					"outputs": [],
					"stateMutability": "nonpayable",
					"type": "function"
				},
				{
					"inputs": [
						{
							"internalType": "uint256",
							"name": "_codCarrera",
							"type": "uint256"
						}
					],
					"name": "terminarCarrera",
					"outputs": [],
					"stateMutability": "payable",
					"type": "function"
				},
				{
					"inputs": [],
					"name": "totalCarreras",
					"outputs": [
						{
							"internalType": "uint256",
							"name": "",
							"type": "uint256"
						}
					],
					"stateMutability": "view",
					"type": "function"
				}
			],
			"devdoc": {
				"methods": {}
			},
			"evm": {
				"assembly": "    /* \"casaApuestas.sol\":27:15028  contract casaApuestas{\r... */\n  mstore(0x40, 0x80)\n    /* \"casaApuestas.sol\":1558:1620  constructor() public {\r... */\n  callvalue\n    /* \"--CODEGEN--\":8:17   */\n  dup1\n    /* \"--CODEGEN--\":5:7   */\n  iszero\n  tag_1\n  jumpi\n    /* \"--CODEGEN--\":30:31   */\n  0x00\n    /* \"--CODEGEN--\":27:28   */\n  dup1\n    /* \"--CODEGEN--\":20:32   */\n  revert\n    /* \"--CODEGEN--\":5:7   */\ntag_1:\n    /* \"casaApuestas.sol\":1558:1620  constructor() public {\r... */\n  pop\n    /* \"casaApuestas.sol\":1602:1612  msg.sender */\n  caller\n    /* \"casaApuestas.sol\":1590:1599  anfitrion */\n  0x00\n  dup1\n    /* \"casaApuestas.sol\":1590:1612  anfitrion = msg.sender */\n  0x0100\n  exp\n  dup2\n  sload\n  dup2\n  0xffffffffffffffffffffffffffffffffffffffff\n  mul\n  not\n  and\n  swap1\n  dup4\n  0xffffffffffffffffffffffffffffffffffffffff\n  and\n  mul\n  or\n  swap1\n  sstore\n  pop\n    /* \"casaApuestas.sol\":27:15028  contract casaApuestas{\r... */\n  dataSize(sub_0)\n  dup1\n  dataOffset(sub_0)\n  0x00\n  codecopy\n  0x00\n  return\nstop\n\nsub_0: assembly {\n        /* \"casaApuestas.sol\":27:15028  contract casaApuestas{\r... */\n      mstore(0x40, 0x80)\n      jumpi(tag_1, lt(calldatasize, 0x04))\n      shr(0xe0, calldataload(0x00))\n      dup1\n      0xd066cebe\n      gt\n      tag_19\n      jumpi\n      dup1\n      0xf0b73b54\n      gt\n      tag_20\n      jumpi\n      dup1\n      0xf0b73b54\n      eq\n      tag_14\n      jumpi\n      dup1\n      0xf2f6da3e\n      eq\n      tag_15\n      jumpi\n      dup1\n      0xf7edd6db\n      eq\n      tag_16\n      jumpi\n      dup1\n      0xf9d32e49\n      eq\n      tag_17\n      jumpi\n      dup1\n      0xfb34d0f7\n      eq\n      tag_18\n      jumpi\n      jump(tag_1)\n    tag_20:\n      dup1\n      0xd066cebe\n      eq\n      tag_10\n      jumpi\n      dup1\n      0xdfe22b5f\n      eq\n      tag_11\n      jumpi\n      dup1\n      0xe6581b9d\n      eq\n      tag_12\n      jumpi\n      dup1\n      0xe9ec5583\n      eq\n      tag_13\n      jumpi\n      jump(tag_1)\n    tag_19:\n      dup1\n      0x456f4b57\n      gt\n      tag_21\n      jumpi\n      dup1\n      0x456f4b57\n      eq\n      tag_6\n      jumpi\n      dup1\n      0x5194f59c\n      eq\n      tag_7\n      jumpi\n      dup1\n      0x5ee81666\n      eq\n      tag_8\n      jumpi\n      dup1\n      0x79b31e69\n      eq\n      tag_9\n      jumpi\n      jump(tag_1)\n    tag_21:\n      dup1\n      0x010a0e95\n      eq\n      tag_2\n      jumpi\n      dup1\n      0x1b895c2f\n      eq\n      tag_3\n      jumpi\n      dup1\n      0x26d1c7d0\n      eq\n      tag_4\n      jumpi\n      dup1\n      0x286f6b4c\n      eq\n      tag_5\n      jumpi\n    tag_1:\n      0x00\n      dup1\n      revert\n        /* \"casaApuestas.sol\":8420:11031  function terminarCarrera(uint _codCarrera) payable public\r... */\n    tag_2:\n      tag_22\n      0x04\n      dup1\n      calldatasize\n      sub\n        /* \"--CODEGEN--\":13:15   */\n      0x20\n        /* \"--CODEGEN--\":8:11   */\n      dup2\n        /* \"--CODEGEN--\":5:16   */\n      lt\n        /* \"--CODEGEN--\":2:4   */\n      iszero\n      tag_23\n      jumpi\n        /* \"--CODEGEN--\":29:30   */\n      0x00\n        /* \"--CODEGEN--\":26:27   */\n      dup1\n        /* \"--CODEGEN--\":19:31   */\n      revert\n        /* \"--CODEGEN--\":2:4   */\n    tag_23:\n        /* \"casaApuestas.sol\":8420:11031  function terminarCarrera(uint _codCarrera) payable public\r... */\n      dup2\n      add\n      swap1\n      dup1\n      dup1\n      calldataload\n      swap1\n      0x20\n      add\n      swap1\n      swap3\n      swap2\n      swap1\n      pop\n      pop\n      pop\n      tag_24\n      jump\t// in\n    tag_22:\n      stop\n        /* \"casaApuestas.sol\":11101:12040  function getCaballosEnCarrera(uint _codCarrera) public \r... */\n    tag_3:\n      callvalue\n        /* \"--CODEGEN--\":8:17   */\n      dup1\n        /* \"--CODEGEN--\":5:7   */\n      iszero\n      tag_25\n      jumpi\n        /* \"--CODEGEN--\":30:31   */\n      0x00\n        /* \"--CODEGEN--\":27:28   */\n      dup1\n        /* \"--CODEGEN--\":20:32   */\n      revert\n        /* \"--CODEGEN--\":5:7   */\n    tag_25:\n        /* \"casaApuestas.sol\":11101:12040  function getCaballosEnCarrera(uint _codCarrera) public \r... */\n      pop\n      tag_26\n      0x04\n      dup1\n      calldatasize\n      sub\n        /* \"--CODEGEN--\":13:15   */\n      0x20\n        /* \"--CODEGEN--\":8:11   */\n      dup2\n        /* \"--CODEGEN--\":5:16   */\n      lt\n        /* \"--CODEGEN--\":2:4   */\n      iszero\n      tag_27\n      jumpi\n        /* \"--CODEGEN--\":29:30   */\n      0x00\n        /* \"--CODEGEN--\":26:27   */\n      dup1\n        /* \"--CODEGEN--\":19:31   */\n      revert\n        /* \"--CODEGEN--\":2:4   */\n    tag_27:\n        /* \"casaApuestas.sol\":11101:12040  function getCaballosEnCarrera(uint _codCarrera) public \r... */\n      dup2\n      add\n      swap1\n      dup1\n      dup1\n      calldataload\n      swap1\n      0x20\n      add\n      swap1\n      swap3\n      swap2\n      swap1\n      pop\n      pop\n      pop\n      tag_28\n      jump\t// in\n    tag_26:\n      mload(0x40)\n      dup1\n      dup1\n      0x20\n      add\n      dup3\n      dup2\n      sub\n      dup3\n      mstore\n      dup4\n      dup2\n      dup2\n      mload\n      dup2\n      mstore\n      0x20\n      add\n      swap2\n      pop\n      dup1\n      mload\n      swap1\n      0x20\n      add\n      swap1\n      dup1\n      dup4\n      dup4\n        /* \"--CODEGEN--\":23:24   */\n      0x00\n        /* \"--CODEGEN--\":8:108   */\n    tag_29:\n        /* \"--CODEGEN--\":33:36   */\n      dup4\n        /* \"--CODEGEN--\":30:31   */\n      dup2\n        /* \"--CODEGEN--\":27:37   */\n      lt\n        /* \"--CODEGEN--\":8:108   */\n      iszero\n      tag_31\n      jumpi\n        /* \"--CODEGEN--\":99:100   */\n      dup1\n        /* \"--CODEGEN--\":94:97   */\n      dup3\n        /* \"--CODEGEN--\":90:101   */\n      add\n        /* \"--CODEGEN--\":84:102   */\n      mload\n        /* \"--CODEGEN--\":80:81   */\n      dup2\n        /* \"--CODEGEN--\":75:78   */\n      dup5\n        /* \"--CODEGEN--\":71:82   */\n      add\n        /* \"--CODEGEN--\":64:103   */\n      mstore\n        /* \"--CODEGEN--\":52:54   */\n      0x20\n        /* \"--CODEGEN--\":49:50   */\n      dup2\n        /* \"--CODEGEN--\":45:55   */\n      add\n        /* \"--CODEGEN--\":40:55   */\n      swap1\n      pop\n        /* \"--CODEGEN--\":8:108   */\n      jump(tag_29)\n    tag_31:\n        /* \"--CODEGEN--\":12:26   */\n      pop\n        /* \"casaApuestas.sol\":11101:12040  function getCaballosEnCarrera(uint _codCarrera) public \r... */\n      pop\n      pop\n      pop\n      swap1\n      pop\n      swap1\n      dup2\n      add\n      swap1\n      0x1f\n      and\n      dup1\n      iszero\n      tag_32\n      jumpi\n      dup1\n      dup3\n      sub\n      dup1\n      mload\n      0x01\n      dup4\n      0x20\n      sub\n      0x0100\n      exp\n      sub\n      not\n      and\n      dup2\n      mstore\n      0x20\n      add\n      swap2\n      pop\n    tag_32:\n      pop\n      swap3\n      pop\n      pop\n      pop\n      mload(0x40)\n      dup1\n      swap2\n      sub\n      swap1\n      return\n        /* \"casaApuestas.sol\":5897:6283  function registrarEnCarrera(uint _codCaballo, uint _codCarrera) public \r... */\n    tag_4:\n      callvalue\n        /* \"--CODEGEN--\":8:17   */\n      dup1\n        /* \"--CODEGEN--\":5:7   */\n      iszero\n      tag_33\n      jumpi\n        /* \"--CODEGEN--\":30:31   */\n      0x00\n        /* \"--CODEGEN--\":27:28   */\n      dup1\n        /* \"--CODEGEN--\":20:32   */\n      revert\n        /* \"--CODEGEN--\":5:7   */\n    tag_33:\n        /* \"casaApuestas.sol\":5897:6283  function registrarEnCarrera(uint _codCaballo, uint _codCarrera) public \r... */\n      pop\n      tag_34\n      0x04\n      dup1\n      calldatasize\n      sub\n        /* \"--CODEGEN--\":13:15   */\n      0x40\n        /* \"--CODEGEN--\":8:11   */\n      dup2\n        /* \"--CODEGEN--\":5:16   */\n      lt\n        /* \"--CODEGEN--\":2:4   */\n      iszero\n      tag_35\n      jumpi\n        /* \"--CODEGEN--\":29:30   */\n      0x00\n        /* \"--CODEGEN--\":26:27   */\n      dup1\n        /* \"--CODEGEN--\":19:31   */\n      revert\n        /* \"--CODEGEN--\":2:4   */\n    tag_35:\n        /* \"casaApuestas.sol\":5897:6283  function registrarEnCarrera(uint _codCaballo, uint _codCarrera) public \r... */\n      dup2\n      add\n      swap1\n      dup1\n      dup1\n      calldataload\n      swap1\n      0x20\n      add\n      swap1\n      swap3\n      swap2\n      swap1\n      dup1\n      calldataload\n      swap1\n      0x20\n      add\n      swap1\n      swap3\n      swap2\n      swap1\n      pop\n      pop\n      pop\n      tag_36\n      jump\t// in\n    tag_34:\n      stop\n        /* \"casaApuestas.sol\":12149:13382  function getApostadorGanador(uint _codCarrera) public \r... */\n    tag_5:\n      callvalue\n        /* \"--CODEGEN--\":8:17   */\n      dup1\n        /* \"--CODEGEN--\":5:7   */\n      iszero\n      tag_37\n      jumpi\n        /* \"--CODEGEN--\":30:31   */\n      0x00\n        /* \"--CODEGEN--\":27:28   */\n      dup1\n        /* \"--CODEGEN--\":20:32   */\n      revert\n        /* \"--CODEGEN--\":5:7   */\n    tag_37:\n        /* \"casaApuestas.sol\":12149:13382  function getApostadorGanador(uint _codCarrera) public \r... */\n      pop\n      tag_38\n      0x04\n      dup1\n      calldatasize\n      sub\n        /* \"--CODEGEN--\":13:15   */\n      0x20\n        /* \"--CODEGEN--\":8:11   */\n      dup2\n        /* \"--CODEGEN--\":5:16   */\n      lt\n        /* \"--CODEGEN--\":2:4   */\n      iszero\n      tag_39\n      jumpi\n        /* \"--CODEGEN--\":29:30   */\n      0x00\n        /* \"--CODEGEN--\":26:27   */\n      dup1\n        /* \"--CODEGEN--\":19:31   */\n      revert\n        /* \"--CODEGEN--\":2:4   */\n    tag_39:\n        /* \"casaApuestas.sol\":12149:13382  function getApostadorGanador(uint _codCarrera) public \r... */\n      dup2\n      add\n      swap1\n      dup1\n      dup1\n      calldataload\n      swap1\n      0x20\n      add\n      swap1\n      swap3\n      swap2\n      swap1\n      pop\n      pop\n      pop\n      tag_40\n      jump\t// in\n    tag_38:\n      mload(0x40)\n      dup1\n      dup1\n      0x20\n      add\n      dup3\n      dup2\n      sub\n      dup3\n      mstore\n      dup4\n      dup2\n      dup2\n      mload\n      dup2\n      mstore\n      0x20\n      add\n      swap2\n      pop\n      dup1\n      mload\n      swap1\n      0x20\n      add\n      swap1\n      dup1\n      dup4\n      dup4\n        /* \"--CODEGEN--\":23:24   */\n      0x00\n        /* \"--CODEGEN--\":8:108   */\n    tag_41:\n        /* \"--CODEGEN--\":33:36   */\n      dup4\n        /* \"--CODEGEN--\":30:31   */\n      dup2\n        /* \"--CODEGEN--\":27:37   */\n      lt\n        /* \"--CODEGEN--\":8:108   */\n      iszero\n      tag_43\n      jumpi\n        /* \"--CODEGEN--\":99:100   */\n      dup1\n        /* \"--CODEGEN--\":94:97   */\n      dup3\n        /* \"--CODEGEN--\":90:101   */\n      add\n        /* \"--CODEGEN--\":84:102   */\n      mload\n        /* \"--CODEGEN--\":80:81   */\n      dup2\n        /* \"--CODEGEN--\":75:78   */\n      dup5\n        /* \"--CODEGEN--\":71:82   */\n      add\n        /* \"--CODEGEN--\":64:103   */\n      mstore\n        /* \"--CODEGEN--\":52:54   */\n      0x20\n        /* \"--CODEGEN--\":49:50   */\n      dup2\n        /* \"--CODEGEN--\":45:55   */\n      add\n        /* \"--CODEGEN--\":40:55   */\n      swap1\n      pop\n        /* \"--CODEGEN--\":8:108   */\n      jump(tag_41)\n    tag_43:\n        /* \"--CODEGEN--\":12:26   */\n      pop\n        /* \"casaApuestas.sol\":12149:13382  function getApostadorGanador(uint _codCarrera) public \r... */\n      pop\n      pop\n      pop\n      swap1\n      pop\n      swap1\n      dup2\n      add\n      swap1\n      0x1f\n      and\n      dup1\n      iszero\n      tag_44\n      jumpi\n      dup1\n      dup3\n      sub\n      dup1\n      mload\n      0x01\n      dup4\n      0x20\n      sub\n      0x0100\n      exp\n      sub\n      not\n      and\n      dup2\n      mstore\n      0x20\n      add\n      swap2\n      pop\n    tag_44:\n      pop\n      swap3\n      pop\n      pop\n      pop\n      mload(0x40)\n      dup1\n      swap2\n      sub\n      swap1\n      return\n        /* \"casaApuestas.sol\":55:79  address public anfitrion */\n    tag_6:\n      callvalue\n        /* \"--CODEGEN--\":8:17   */\n      dup1\n        /* \"--CODEGEN--\":5:7   */\n      iszero\n      tag_45\n      jumpi\n        /* \"--CODEGEN--\":30:31   */\n      0x00\n        /* \"--CODEGEN--\":27:28   */\n      dup1\n        /* \"--CODEGEN--\":20:32   */\n      revert\n        /* \"--CODEGEN--\":5:7   */\n    tag_45:\n        /* \"casaApuestas.sol\":55:79  address public anfitrion */\n      pop\n      tag_46\n      tag_47\n      jump\t// in\n    tag_46:\n      mload(0x40)\n      dup1\n      dup3\n      0xffffffffffffffffffffffffffffffffffffffff\n      and\n      0xffffffffffffffffffffffffffffffffffffffff\n      and\n      dup2\n      mstore\n      0x20\n      add\n      swap2\n      pop\n      pop\n      mload(0x40)\n      dup1\n      swap2\n      sub\n      swap1\n      return\n        /* \"casaApuestas.sol\":5583:5848  function registrarCaballo(uint _codigo, string memory _nombre) public \r... */\n    tag_7:\n      callvalue\n        /* \"--CODEGEN--\":8:17   */\n      dup1\n        /* \"--CODEGEN--\":5:7   */\n      iszero\n      tag_48\n      jumpi\n        /* \"--CODEGEN--\":30:31   */\n      0x00\n        /* \"--CODEGEN--\":27:28   */\n      dup1\n        /* \"--CODEGEN--\":20:32   */\n      revert\n        /* \"--CODEGEN--\":5:7   */\n    tag_48:\n        /* \"casaApuestas.sol\":5583:5848  function registrarCaballo(uint _codigo, string memory _nombre) public \r... */\n      pop\n      tag_49\n      0x04\n      dup1\n      calldatasize\n      sub\n        /* \"--CODEGEN--\":13:15   */\n      0x40\n        /* \"--CODEGEN--\":8:11   */\n      dup2\n        /* \"--CODEGEN--\":5:16   */\n      lt\n        /* \"--CODEGEN--\":2:4   */\n      iszero\n      tag_50\n      jumpi\n        /* \"--CODEGEN--\":29:30   */\n      0x00\n        /* \"--CODEGEN--\":26:27   */\n      dup1\n        /* \"--CODEGEN--\":19:31   */\n      revert\n        /* \"--CODEGEN--\":2:4   */\n    tag_50:\n        /* \"casaApuestas.sol\":5583:5848  function registrarCaballo(uint _codigo, string memory _nombre) public \r... */\n      dup2\n      add\n      swap1\n      dup1\n      dup1\n      calldataload\n      swap1\n      0x20\n      add\n      swap1\n      swap3\n      swap2\n      swap1\n      dup1\n      calldataload\n      swap1\n      0x20\n      add\n      swap1\n        /* \"--CODEGEN--\":21:32   */\n      0x0100000000\n        /* \"--CODEGEN--\":8:19   */\n      dup2\n        /* \"--CODEGEN--\":5:33   */\n      gt\n        /* \"--CODEGEN--\":2:4   */\n      iszero\n      tag_51\n      jumpi\n        /* \"--CODEGEN--\":46:47   */\n      0x00\n        /* \"--CODEGEN--\":43:44   */\n      dup1\n        /* \"--CODEGEN--\":36:48   */\n      revert\n        /* \"--CODEGEN--\":2:4   */\n    tag_51:\n        /* \"casaApuestas.sol\":5583:5848  function registrarCaballo(uint _codigo, string memory _nombre) public \r... */\n      dup3\n      add\n        /* \"--CODEGEN--\":35:44   */\n      dup4\n        /* \"--CODEGEN--\":28:32   */\n      0x20\n        /* \"--CODEGEN--\":12:26   */\n      dup3\n        /* \"--CODEGEN--\":8:33   */\n      add\n        /* \"--CODEGEN--\":5:45   */\n      gt\n        /* \"--CODEGEN--\":2:4   */\n      iszero\n      tag_52\n      jumpi\n        /* \"--CODEGEN--\":58:59   */\n      0x00\n        /* \"--CODEGEN--\":55:56   */\n      dup1\n        /* \"--CODEGEN--\":48:60   */\n      revert\n        /* \"--CODEGEN--\":2:4   */\n    tag_52:\n        /* \"casaApuestas.sol\":5583:5848  function registrarCaballo(uint _codigo, string memory _nombre) public \r... */\n      dup1\n      calldataload\n      swap1\n      0x20\n      add\n      swap2\n        /* \"--CODEGEN--\":100:109   */\n      dup5\n        /* \"--CODEGEN--\":95:96   */\n      0x01\n        /* \"--CODEGEN--\":81:93   */\n      dup4\n        /* \"--CODEGEN--\":77:97   */\n      mul\n        /* \"--CODEGEN--\":67:75   */\n      dup5\n        /* \"--CODEGEN--\":63:98   */\n      add\n        /* \"--CODEGEN--\":60:110   */\n      gt\n        /* \"--CODEGEN--\":39:50   */\n      0x0100000000\n        /* \"--CODEGEN--\":25:37   */\n      dup4\n        /* \"--CODEGEN--\":22:51   */\n      gt\n        /* \"--CODEGEN--\":11:118   */\n      or\n        /* \"--CODEGEN--\":8:10   */\n      iszero\n      tag_53\n      jumpi\n        /* \"--CODEGEN--\":131:132   */\n      0x00\n        /* \"--CODEGEN--\":128:129   */\n      dup1\n        /* \"--CODEGEN--\":121:133   */\n      revert\n        /* \"--CODEGEN--\":8:10   */\n    tag_53:\n        /* \"casaApuestas.sol\":5583:5848  function registrarCaballo(uint _codigo, string memory _nombre) public \r... */\n      swap2\n      swap1\n      dup1\n      dup1\n      0x1f\n      add\n      0x20\n      dup1\n      swap2\n      div\n      mul\n      0x20\n      add\n      mload(0x40)\n      swap1\n      dup2\n      add\n      0x40\n      mstore\n      dup1\n      swap4\n      swap3\n      swap2\n      swap1\n      dup2\n      dup2\n      mstore\n      0x20\n      add\n      dup4\n      dup4\n        /* \"--CODEGEN--\":30:33   */\n      dup1\n        /* \"--CODEGEN--\":22:28   */\n      dup3\n        /* \"--CODEGEN--\":14:20   */\n      dup5\n        /* \"--CODEGEN--\":1:34   */\n      calldatacopy\n        /* \"--CODEGEN--\":99:100   */\n      0x00\n        /* \"--CODEGEN--\":93:96   */\n      dup2\n        /* \"--CODEGEN--\":85:91   */\n      dup5\n        /* \"--CODEGEN--\":81:97   */\n      add\n        /* \"--CODEGEN--\":74:101   */\n      mstore\n        /* \"--CODEGEN--\":137:141   */\n      0x1f\n        /* \"--CODEGEN--\":133:142   */\n      not\n        /* \"--CODEGEN--\":126:130   */\n      0x1f\n        /* \"--CODEGEN--\":121:124   */\n      dup3\n        /* \"--CODEGEN--\":117:131   */\n      add\n        /* \"--CODEGEN--\":113:143   */\n      and\n        /* \"--CODEGEN--\":106:143   */\n      swap1\n      pop\n        /* \"--CODEGEN--\":169:172   */\n      dup1\n        /* \"--CODEGEN--\":161:167   */\n      dup4\n        /* \"--CODEGEN--\":157:173   */\n      add\n        /* \"--CODEGEN--\":147:173   */\n      swap3\n      pop\n        /* \"casaApuestas.sol\":5583:5848  function registrarCaballo(uint _codigo, string memory _nombre) public \r... */\n      pop\n      pop\n      pop\n      pop\n      pop\n      pop\n      swap2\n      swap3\n      swap2\n      swap3\n      swap1\n      pop\n      pop\n      pop\n      tag_54\n      jump\t// in\n    tag_49:\n      stop\n        /* \"casaApuestas.sol\":167:207  mapping(uint => Carrera) public carreras */\n    tag_8:\n      callvalue\n        /* \"--CODEGEN--\":8:17   */\n      dup1\n        /* \"--CODEGEN--\":5:7   */\n      iszero\n      tag_55\n      jumpi\n        /* \"--CODEGEN--\":30:31   */\n      0x00\n        /* \"--CODEGEN--\":27:28   */\n      dup1\n        /* \"--CODEGEN--\":20:32   */\n      revert\n        /* \"--CODEGEN--\":5:7   */\n    tag_55:\n        /* \"casaApuestas.sol\":167:207  mapping(uint => Carrera) public carreras */\n      pop\n      tag_56\n      0x04\n      dup1\n      calldatasize\n      sub\n        /* \"--CODEGEN--\":13:15   */\n      0x20\n        /* \"--CODEGEN--\":8:11   */\n      dup2\n        /* \"--CODEGEN--\":5:16   */\n      lt\n        /* \"--CODEGEN--\":2:4   */\n      iszero\n      tag_57\n      jumpi\n        /* \"--CODEGEN--\":29:30   */\n      0x00\n        /* \"--CODEGEN--\":26:27   */\n      dup1\n        /* \"--CODEGEN--\":19:31   */\n      revert\n        /* \"--CODEGEN--\":2:4   */\n    tag_57:\n        /* \"casaApuestas.sol\":167:207  mapping(uint => Carrera) public carreras */\n      dup2\n      add\n      swap1\n      dup1\n      dup1\n      calldataload\n      swap1\n      0x20\n      add\n      swap1\n      swap3\n      swap2\n      swap1\n      pop\n      pop\n      pop\n      tag_58\n      jump\t// in\n    tag_56:\n      mload(0x40)\n      dup1\n      dup8\n      dup2\n      mstore\n      0x20\n      add\n      dup1\n      0x20\n      add\n      dup7\n      0x02\n      dup2\n      gt\n      iszero\n      tag_59\n      jumpi\n      invalid\n    tag_59:\n      0xff\n      and\n      dup2\n      mstore\n      0x20\n      add\n      dup6\n      dup2\n      mstore\n      0x20\n      add\n      dup5\n      dup2\n      mstore\n      0x20\n      add\n      dup4\n      dup2\n      mstore\n      0x20\n      add\n      dup3\n      dup2\n      sub\n      dup3\n      mstore\n      dup8\n      dup2\n      dup2\n      mload\n      dup2\n      mstore\n      0x20\n      add\n      swap2\n      pop\n      dup1\n      mload\n      swap1\n      0x20\n      add\n      swap1\n      dup1\n      dup4\n      dup4\n        /* \"--CODEGEN--\":23:24   */\n      0x00\n        /* \"--CODEGEN--\":8:108   */\n    tag_60:\n        /* \"--CODEGEN--\":33:36   */\n      dup4\n        /* \"--CODEGEN--\":30:31   */\n      dup2\n        /* \"--CODEGEN--\":27:37   */\n      lt\n        /* \"--CODEGEN--\":8:108   */\n      iszero\n      tag_62\n      jumpi\n        /* \"--CODEGEN--\":99:100   */\n      dup1\n        /* \"--CODEGEN--\":94:97   */\n      dup3\n        /* \"--CODEGEN--\":90:101   */\n      add\n        /* \"--CODEGEN--\":84:102   */\n      mload\n        /* \"--CODEGEN--\":80:81   */\n      dup2\n        /* \"--CODEGEN--\":75:78   */\n      dup5\n        /* \"--CODEGEN--\":71:82   */\n      add\n        /* \"--CODEGEN--\":64:103   */\n      mstore\n        /* \"--CODEGEN--\":52:54   */\n      0x20\n        /* \"--CODEGEN--\":49:50   */\n      dup2\n        /* \"--CODEGEN--\":45:55   */\n      add\n        /* \"--CODEGEN--\":40:55   */\n      swap1\n      pop\n        /* \"--CODEGEN--\":8:108   */\n      jump(tag_60)\n    tag_62:\n        /* \"--CODEGEN--\":12:26   */\n      pop\n        /* \"casaApuestas.sol\":167:207  mapping(uint => Carrera) public carreras */\n      pop\n      pop\n      pop\n      swap1\n      pop\n      swap1\n      dup2\n      add\n      swap1\n      0x1f\n      and\n      dup1\n      iszero\n      tag_63\n      jumpi\n      dup1\n      dup3\n      sub\n      dup1\n      mload\n      0x01\n      dup4\n      0x20\n      sub\n      0x0100\n      exp\n      sub\n      not\n      and\n      dup2\n      mstore\n      0x20\n      add\n      swap2\n      pop\n    tag_63:\n      pop\n      swap8\n      pop\n      pop\n      pop\n      pop\n      pop\n      pop\n      pop\n      pop\n      mload(0x40)\n      dup1\n      swap2\n      sub\n      swap1\n      return\n        /* \"casaApuestas.sol\":13797:14016  function getCaballoGanador(uint _codCarrera) public \r... */\n    tag_9:\n      callvalue\n        /* \"--CODEGEN--\":8:17   */\n      dup1\n        /* \"--CODEGEN--\":5:7   */\n      iszero\n      tag_64\n      jumpi\n        /* \"--CODEGEN--\":30:31   */\n      0x00\n        /* \"--CODEGEN--\":27:28   */\n      dup1\n        /* \"--CODEGEN--\":20:32   */\n      revert\n        /* \"--CODEGEN--\":5:7   */\n    tag_64:\n        /* \"casaApuestas.sol\":13797:14016  function getCaballoGanador(uint _codCarrera) public \r... */\n      pop\n      tag_65\n      0x04\n      dup1\n      calldatasize\n      sub\n        /* \"--CODEGEN--\":13:15   */\n      0x20\n        /* \"--CODEGEN--\":8:11   */\n      dup2\n        /* \"--CODEGEN--\":5:16   */\n      lt\n        /* \"--CODEGEN--\":2:4   */\n      iszero\n      tag_66\n      jumpi\n        /* \"--CODEGEN--\":29:30   */\n      0x00\n        /* \"--CODEGEN--\":26:27   */\n      dup1\n        /* \"--CODEGEN--\":19:31   */\n      revert\n        /* \"--CODEGEN--\":2:4   */\n    tag_66:\n        /* \"casaApuestas.sol\":13797:14016  function getCaballoGanador(uint _codCarrera) public \r... */\n      dup2\n      add\n      swap1\n      dup1\n      dup1\n      calldataload\n      swap1\n      0x20\n      add\n      swap1\n      swap3\n      swap2\n      swap1\n      pop\n      pop\n      pop\n      tag_67\n      jump\t// in\n    tag_65:\n      mload(0x40)\n      dup1\n      dup3\n      dup2\n      mstore\n      0x20\n      add\n      swap2\n      pop\n      pop\n      mload(0x40)\n      dup1\n      swap2\n      sub\n      swap1\n      return\n        /* \"casaApuestas.sol\":13504:13742  function getAddressApostador(uint _indiceApostador, uint _codCarrera) public \r... */\n    tag_10:\n      callvalue\n        /* \"--CODEGEN--\":8:17   */\n      dup1\n        /* \"--CODEGEN--\":5:7   */\n      iszero\n      tag_68\n      jumpi\n        /* \"--CODEGEN--\":30:31   */\n      0x00\n        /* \"--CODEGEN--\":27:28   */\n      dup1\n        /* \"--CODEGEN--\":20:32   */\n      revert\n        /* \"--CODEGEN--\":5:7   */\n    tag_68:\n        /* \"casaApuestas.sol\":13504:13742  function getAddressApostador(uint _indiceApostador, uint _codCarrera) public \r... */\n      pop\n      tag_69\n      0x04\n      dup1\n      calldatasize\n      sub\n        /* \"--CODEGEN--\":13:15   */\n      0x40\n        /* \"--CODEGEN--\":8:11   */\n      dup2\n        /* \"--CODEGEN--\":5:16   */\n      lt\n        /* \"--CODEGEN--\":2:4   */\n      iszero\n      tag_70\n      jumpi\n        /* \"--CODEGEN--\":29:30   */\n      0x00\n        /* \"--CODEGEN--\":26:27   */\n      dup1\n        /* \"--CODEGEN--\":19:31   */\n      revert\n        /* \"--CODEGEN--\":2:4   */\n    tag_70:\n        /* \"casaApuestas.sol\":13504:13742  function getAddressApostador(uint _indiceApostador, uint _codCarrera) public \r... */\n      dup2\n      add\n      swap1\n      dup1\n      dup1\n      calldataload\n      swap1\n      0x20\n      add\n      swap1\n      swap3\n      swap2\n      swap1\n      dup1\n      calldataload\n      swap1\n      0x20\n      add\n      swap1\n      swap3\n      swap2\n      swap1\n      pop\n      pop\n      pop\n      tag_71\n      jump\t// in\n    tag_69:\n      mload(0x40)\n      dup1\n      dup3\n      0xffffffffffffffffffffffffffffffffffffffff\n      and\n      0xffffffffffffffffffffffffffffffffffffffff\n      and\n      dup2\n      mstore\n      0x20\n      add\n      swap2\n      pop\n      pop\n      mload(0x40)\n      dup1\n      swap2\n      sub\n      swap1\n      return\n        /* \"casaApuestas.sol\":405:450  mapping(uint => address[]) public apostadores */\n    tag_11:\n      callvalue\n        /* \"--CODEGEN--\":8:17   */\n      dup1\n        /* \"--CODEGEN--\":5:7   */\n      iszero\n      tag_72\n      jumpi\n        /* \"--CODEGEN--\":30:31   */\n      0x00\n        /* \"--CODEGEN--\":27:28   */\n      dup1\n        /* \"--CODEGEN--\":20:32   */\n      revert\n        /* \"--CODEGEN--\":5:7   */\n    tag_72:\n        /* \"casaApuestas.sol\":405:450  mapping(uint => address[]) public apostadores */\n      pop\n      tag_73\n      0x04\n      dup1\n      calldatasize\n      sub\n        /* \"--CODEGEN--\":13:15   */\n      0x40\n        /* \"--CODEGEN--\":8:11   */\n      dup2\n        /* \"--CODEGEN--\":5:16   */\n      lt\n        /* \"--CODEGEN--\":2:4   */\n      iszero\n      tag_74\n      jumpi\n        /* \"--CODEGEN--\":29:30   */\n      0x00\n        /* \"--CODEGEN--\":26:27   */\n      dup1\n        /* \"--CODEGEN--\":19:31   */\n      revert\n        /* \"--CODEGEN--\":2:4   */\n    tag_74:\n        /* \"casaApuestas.sol\":405:450  mapping(uint => address[]) public apostadores */\n      dup2\n      add\n      swap1\n      dup1\n      dup1\n      calldataload\n      swap1\n      0x20\n      add\n      swap1\n      swap3\n      swap2\n      swap1\n      dup1\n      calldataload\n      swap1\n      0x20\n      add\n      swap1\n      swap3\n      swap2\n      swap1\n      pop\n      pop\n      pop\n      tag_75\n      jump\t// in\n    tag_73:\n      mload(0x40)\n      dup1\n      dup3\n      0xffffffffffffffffffffffffffffffffffffffff\n      and\n      0xffffffffffffffffffffffffffffffffffffffff\n      and\n      dup2\n      mstore\n      0x20\n      add\n      swap2\n      pop\n      pop\n      mload(0x40)\n      dup1\n      swap2\n      sub\n      swap1\n      return\n        /* \"casaApuestas.sol\":14068:14469  function getEstadoCarrera(uint _codCarrera) public \r... */\n    tag_12:\n      callvalue\n        /* \"--CODEGEN--\":8:17   */\n      dup1\n        /* \"--CODEGEN--\":5:7   */\n      iszero\n      tag_76\n      jumpi\n        /* \"--CODEGEN--\":30:31   */\n      0x00\n        /* \"--CODEGEN--\":27:28   */\n      dup1\n        /* \"--CODEGEN--\":20:32   */\n      revert\n        /* \"--CODEGEN--\":5:7   */\n    tag_76:\n        /* \"casaApuestas.sol\":14068:14469  function getEstadoCarrera(uint _codCarrera) public \r... */\n      pop\n      tag_77\n      0x04\n      dup1\n      calldatasize\n      sub\n        /* \"--CODEGEN--\":13:15   */\n      0x20\n        /* \"--CODEGEN--\":8:11   */\n      dup2\n        /* \"--CODEGEN--\":5:16   */\n      lt\n        /* \"--CODEGEN--\":2:4   */\n      iszero\n      tag_78\n      jumpi\n        /* \"--CODEGEN--\":29:30   */\n      0x00\n        /* \"--CODEGEN--\":26:27   */\n      dup1\n        /* \"--CODEGEN--\":19:31   */\n      revert\n        /* \"--CODEGEN--\":2:4   */\n    tag_78:\n        /* \"casaApuestas.sol\":14068:14469  function getEstadoCarrera(uint _codCarrera) public \r... */\n      dup2\n      add\n      swap1\n      dup1\n      dup1\n      calldataload\n      swap1\n      0x20\n      add\n      swap1\n      swap3\n      swap2\n      swap1\n      pop\n      pop\n      pop\n      tag_79\n      jump\t// in\n    tag_77:\n      mload(0x40)\n      dup1\n      dup1\n      0x20\n      add\n      dup3\n      dup2\n      sub\n      dup3\n      mstore\n      dup4\n      dup2\n      dup2\n      mload\n      dup2\n      mstore\n      0x20\n      add\n      swap2\n      pop\n      dup1\n      mload\n      swap1\n      0x20\n      add\n      swap1\n      dup1\n      dup4\n      dup4\n        /* \"--CODEGEN--\":23:24   */\n      0x00\n        /* \"--CODEGEN--\":8:108   */\n    tag_80:\n        /* \"--CODEGEN--\":33:36   */\n      dup4\n        /* \"--CODEGEN--\":30:31   */\n      dup2\n        /* \"--CODEGEN--\":27:37   */\n      lt\n        /* \"--CODEGEN--\":8:108   */\n      iszero\n      tag_82\n      jumpi\n        /* \"--CODEGEN--\":99:100   */\n      dup1\n        /* \"--CODEGEN--\":94:97   */\n      dup3\n        /* \"--CODEGEN--\":90:101   */\n      add\n        /* \"--CODEGEN--\":84:102   */\n      mload\n        /* \"--CODEGEN--\":80:81   */\n      dup2\n        /* \"--CODEGEN--\":75:78   */\n      dup5\n        /* \"--CODEGEN--\":71:82   */\n      add\n        /* \"--CODEGEN--\":64:103   */\n      mstore\n        /* \"--CODEGEN--\":52:54   */\n      0x20\n        /* \"--CODEGEN--\":49:50   */\n      dup2\n        /* \"--CODEGEN--\":45:55   */\n      add\n        /* \"--CODEGEN--\":40:55   */\n      swap1\n      pop\n        /* \"--CODEGEN--\":8:108   */\n      jump(tag_80)\n    tag_82:\n        /* \"--CODEGEN--\":12:26   */\n      pop\n        /* \"casaApuestas.sol\":14068:14469  function getEstadoCarrera(uint _codCarrera) public \r... */\n      pop\n      pop\n      pop\n      swap1\n      pop\n      swap1\n      dup2\n      add\n      swap1\n      0x1f\n      and\n      dup1\n      iszero\n      tag_83\n      jumpi\n      dup1\n      dup3\n      sub\n      dup1\n      mload\n      0x01\n      dup4\n      0x20\n      sub\n      0x0100\n      exp\n      sub\n      not\n      and\n      dup2\n      mstore\n      0x20\n      add\n      swap2\n      pop\n    tag_83:\n      pop\n      swap3\n      pop\n      pop\n      pop\n      mload(0x40)\n      dup1\n      swap2\n      sub\n      swap1\n      return\n        /* \"casaApuestas.sol\":135:160  uint public totalCarreras */\n    tag_13:\n      callvalue\n        /* \"--CODEGEN--\":8:17   */\n      dup1\n        /* \"--CODEGEN--\":5:7   */\n      iszero\n      tag_84\n      jumpi\n        /* \"--CODEGEN--\":30:31   */\n      0x00\n        /* \"--CODEGEN--\":27:28   */\n      dup1\n        /* \"--CODEGEN--\":20:32   */\n      revert\n        /* \"--CODEGEN--\":5:7   */\n    tag_84:\n        /* \"casaApuestas.sol\":135:160  uint public totalCarreras */\n      pop\n      tag_85\n      tag_86\n      jump\t// in\n    tag_85:\n      mload(0x40)\n      dup1\n      dup3\n      dup2\n      mstore\n      0x20\n      add\n      swap2\n      pop\n      pop\n      mload(0x40)\n      dup1\n      swap2\n      sub\n      swap1\n      return\n        /* \"casaApuestas.sol\":236:276  mapping(uint => Caballo) public caballos */\n    tag_14:\n      callvalue\n        /* \"--CODEGEN--\":8:17   */\n      dup1\n        /* \"--CODEGEN--\":5:7   */\n      iszero\n      tag_87\n      jumpi\n        /* \"--CODEGEN--\":30:31   */\n      0x00\n        /* \"--CODEGEN--\":27:28   */\n      dup1\n        /* \"--CODEGEN--\":20:32   */\n      revert\n        /* \"--CODEGEN--\":5:7   */\n    tag_87:\n        /* \"casaApuestas.sol\":236:276  mapping(uint => Caballo) public caballos */\n      pop\n      tag_88\n      0x04\n      dup1\n      calldatasize\n      sub\n        /* \"--CODEGEN--\":13:15   */\n      0x20\n        /* \"--CODEGEN--\":8:11   */\n      dup2\n        /* \"--CODEGEN--\":5:16   */\n      lt\n        /* \"--CODEGEN--\":2:4   */\n      iszero\n      tag_89\n      jumpi\n        /* \"--CODEGEN--\":29:30   */\n      0x00\n        /* \"--CODEGEN--\":26:27   */\n      dup1\n        /* \"--CODEGEN--\":19:31   */\n      revert\n        /* \"--CODEGEN--\":2:4   */\n    tag_89:\n        /* \"casaApuestas.sol\":236:276  mapping(uint => Caballo) public caballos */\n      dup2\n      add\n      swap1\n      dup1\n      dup1\n      calldataload\n      swap1\n      0x20\n      add\n      swap1\n      swap3\n      swap2\n      swap1\n      pop\n      pop\n      pop\n      tag_90\n      jump\t// in\n    tag_88:\n      mload(0x40)\n      dup1\n      dup4\n      dup2\n      mstore\n      0x20\n      add\n      dup1\n      0x20\n      add\n      dup3\n      dup2\n      sub\n      dup3\n      mstore\n      dup4\n      dup2\n      dup2\n      mload\n      dup2\n      mstore\n      0x20\n      add\n      swap2\n      pop\n      dup1\n      mload\n      swap1\n      0x20\n      add\n      swap1\n      dup1\n      dup4\n      dup4\n        /* \"--CODEGEN--\":23:24   */\n      0x00\n        /* \"--CODEGEN--\":8:108   */\n    tag_91:\n        /* \"--CODEGEN--\":33:36   */\n      dup4\n        /* \"--CODEGEN--\":30:31   */\n      dup2\n        /* \"--CODEGEN--\":27:37   */\n      lt\n        /* \"--CODEGEN--\":8:108   */\n      iszero\n      tag_93\n      jumpi\n        /* \"--CODEGEN--\":99:100   */\n      dup1\n        /* \"--CODEGEN--\":94:97   */\n      dup3\n        /* \"--CODEGEN--\":90:101   */\n      add\n        /* \"--CODEGEN--\":84:102   */\n      mload\n        /* \"--CODEGEN--\":80:81   */\n      dup2\n        /* \"--CODEGEN--\":75:78   */\n      dup5\n        /* \"--CODEGEN--\":71:82   */\n      add\n        /* \"--CODEGEN--\":64:103   */\n      mstore\n        /* \"--CODEGEN--\":52:54   */\n      0x20\n        /* \"--CODEGEN--\":49:50   */\n      dup2\n        /* \"--CODEGEN--\":45:55   */\n      add\n        /* \"--CODEGEN--\":40:55   */\n      swap1\n      pop\n        /* \"--CODEGEN--\":8:108   */\n      jump(tag_91)\n    tag_93:\n        /* \"--CODEGEN--\":12:26   */\n      pop\n        /* \"casaApuestas.sol\":236:276  mapping(uint => Caballo) public caballos */\n      pop\n      pop\n      pop\n      swap1\n      pop\n      swap1\n      dup2\n      add\n      swap1\n      0x1f\n      and\n      dup1\n      iszero\n      tag_94\n      jumpi\n      dup1\n      dup3\n      sub\n      dup1\n      mload\n      0x01\n      dup4\n      0x20\n      sub\n      0x0100\n      exp\n      sub\n      not\n      and\n      dup2\n      mstore\n      0x20\n      add\n      swap2\n      pop\n    tag_94:\n      pop\n      swap4\n      pop\n      pop\n      pop\n      pop\n      mload(0x40)\n      dup1\n      swap2\n      sub\n      swap1\n      return\n        /* \"casaApuestas.sol\":6761:8064  function apostar(uint _codCaballo, uint _codCarrera) payable public \r... */\n    tag_15:\n      tag_95\n      0x04\n      dup1\n      calldatasize\n      sub\n        /* \"--CODEGEN--\":13:15   */\n      0x40\n        /* \"--CODEGEN--\":8:11   */\n      dup2\n        /* \"--CODEGEN--\":5:16   */\n      lt\n        /* \"--CODEGEN--\":2:4   */\n      iszero\n      tag_96\n      jumpi\n        /* \"--CODEGEN--\":29:30   */\n      0x00\n        /* \"--CODEGEN--\":26:27   */\n      dup1\n        /* \"--CODEGEN--\":19:31   */\n      revert\n        /* \"--CODEGEN--\":2:4   */\n    tag_96:\n        /* \"casaApuestas.sol\":6761:8064  function apostar(uint _codCaballo, uint _codCarrera) payable public \r... */\n      dup2\n      add\n      swap1\n      dup1\n      dup1\n      calldataload\n      swap1\n      0x20\n      add\n      swap1\n      swap3\n      swap2\n      swap1\n      dup1\n      calldataload\n      swap1\n      0x20\n      add\n      swap1\n      swap3\n      swap2\n      swap1\n      pop\n      pop\n      pop\n      tag_97\n      jump\t// in\n    tag_95:\n      stop\n        /* \"casaApuestas.sol\":6314:6689  function registrarCarrera(uint _codCarrera) public \r... */\n    tag_16:\n      callvalue\n        /* \"--CODEGEN--\":8:17   */\n      dup1\n        /* \"--CODEGEN--\":5:7   */\n      iszero\n      tag_98\n      jumpi\n        /* \"--CODEGEN--\":30:31   */\n      0x00\n        /* \"--CODEGEN--\":27:28   */\n      dup1\n        /* \"--CODEGEN--\":20:32   */\n      revert\n        /* \"--CODEGEN--\":5:7   */\n    tag_98:\n        /* \"casaApuestas.sol\":6314:6689  function registrarCarrera(uint _codCarrera) public \r... */\n      pop\n      tag_99\n      0x04\n      dup1\n      calldatasize\n      sub\n        /* \"--CODEGEN--\":13:15   */\n      0x20\n        /* \"--CODEGEN--\":8:11   */\n      dup2\n        /* \"--CODEGEN--\":5:16   */\n      lt\n        /* \"--CODEGEN--\":2:4   */\n      iszero\n      tag_100\n      jumpi\n        /* \"--CODEGEN--\":29:30   */\n      0x00\n        /* \"--CODEGEN--\":26:27   */\n      dup1\n        /* \"--CODEGEN--\":19:31   */\n      revert\n        /* \"--CODEGEN--\":2:4   */\n    tag_100:\n        /* \"casaApuestas.sol\":6314:6689  function registrarCarrera(uint _codCarrera) public \r... */\n      dup2\n      add\n      swap1\n      dup1\n      dup1\n      calldataload\n      swap1\n      0x20\n      add\n      swap1\n      swap3\n      swap2\n      swap1\n      pop\n      pop\n      pop\n      tag_101\n      jump\t// in\n    tag_99:\n      stop\n        /* \"casaApuestas.sol\":5201:5548  function crearCarrera(uint _codigo, string memory _nombre) public \r... */\n    tag_17:\n      callvalue\n        /* \"--CODEGEN--\":8:17   */\n      dup1\n        /* \"--CODEGEN--\":5:7   */\n      iszero\n      tag_102\n      jumpi\n        /* \"--CODEGEN--\":30:31   */\n      0x00\n        /* \"--CODEGEN--\":27:28   */\n      dup1\n        /* \"--CODEGEN--\":20:32   */\n      revert\n        /* \"--CODEGEN--\":5:7   */\n    tag_102:\n        /* \"casaApuestas.sol\":5201:5548  function crearCarrera(uint _codigo, string memory _nombre) public \r... */\n      pop\n      tag_103\n      0x04\n      dup1\n      calldatasize\n      sub\n        /* \"--CODEGEN--\":13:15   */\n      0x40\n        /* \"--CODEGEN--\":8:11   */\n      dup2\n        /* \"--CODEGEN--\":5:16   */\n      lt\n        /* \"--CODEGEN--\":2:4   */\n      iszero\n      tag_104\n      jumpi\n        /* \"--CODEGEN--\":29:30   */\n      0x00\n        /* \"--CODEGEN--\":26:27   */\n      dup1\n        /* \"--CODEGEN--\":19:31   */\n      revert\n        /* \"--CODEGEN--\":2:4   */\n    tag_104:\n        /* \"casaApuestas.sol\":5201:5548  function crearCarrera(uint _codigo, string memory _nombre) public \r... */\n      dup2\n      add\n      swap1\n      dup1\n      dup1\n      calldataload\n      swap1\n      0x20\n      add\n      swap1\n      swap3\n      swap2\n      swap1\n      dup1\n      calldataload\n      swap1\n      0x20\n      add\n      swap1\n        /* \"--CODEGEN--\":21:32   */\n      0x0100000000\n        /* \"--CODEGEN--\":8:19   */\n      dup2\n        /* \"--CODEGEN--\":5:33   */\n      gt\n        /* \"--CODEGEN--\":2:4   */\n      iszero\n      tag_105\n      jumpi\n        /* \"--CODEGEN--\":46:47   */\n      0x00\n        /* \"--CODEGEN--\":43:44   */\n      dup1\n        /* \"--CODEGEN--\":36:48   */\n      revert\n        /* \"--CODEGEN--\":2:4   */\n    tag_105:\n        /* \"casaApuestas.sol\":5201:5548  function crearCarrera(uint _codigo, string memory _nombre) public \r... */\n      dup3\n      add\n        /* \"--CODEGEN--\":35:44   */\n      dup4\n        /* \"--CODEGEN--\":28:32   */\n      0x20\n        /* \"--CODEGEN--\":12:26   */\n      dup3\n        /* \"--CODEGEN--\":8:33   */\n      add\n        /* \"--CODEGEN--\":5:45   */\n      gt\n        /* \"--CODEGEN--\":2:4   */\n      iszero\n      tag_106\n      jumpi\n        /* \"--CODEGEN--\":58:59   */\n      0x00\n        /* \"--CODEGEN--\":55:56   */\n      dup1\n        /* \"--CODEGEN--\":48:60   */\n      revert\n        /* \"--CODEGEN--\":2:4   */\n    tag_106:\n        /* \"casaApuestas.sol\":5201:5548  function crearCarrera(uint _codigo, string memory _nombre) public \r... */\n      dup1\n      calldataload\n      swap1\n      0x20\n      add\n      swap2\n        /* \"--CODEGEN--\":100:109   */\n      dup5\n        /* \"--CODEGEN--\":95:96   */\n      0x01\n        /* \"--CODEGEN--\":81:93   */\n      dup4\n        /* \"--CODEGEN--\":77:97   */\n      mul\n        /* \"--CODEGEN--\":67:75   */\n      dup5\n        /* \"--CODEGEN--\":63:98   */\n      add\n        /* \"--CODEGEN--\":60:110   */\n      gt\n        /* \"--CODEGEN--\":39:50   */\n      0x0100000000\n        /* \"--CODEGEN--\":25:37   */\n      dup4\n        /* \"--CODEGEN--\":22:51   */\n      gt\n        /* \"--CODEGEN--\":11:118   */\n      or\n        /* \"--CODEGEN--\":8:10   */\n      iszero\n      tag_107\n      jumpi\n        /* \"--CODEGEN--\":131:132   */\n      0x00\n        /* \"--CODEGEN--\":128:129   */\n      dup1\n        /* \"--CODEGEN--\":121:133   */\n      revert\n        /* \"--CODEGEN--\":8:10   */\n    tag_107:\n        /* \"casaApuestas.sol\":5201:5548  function crearCarrera(uint _codigo, string memory _nombre) public \r... */\n      swap2\n      swap1\n      dup1\n      dup1\n      0x1f\n      add\n      0x20\n      dup1\n      swap2\n      div\n      mul\n      0x20\n      add\n      mload(0x40)\n      swap1\n      dup2\n      add\n      0x40\n      mstore\n      dup1\n      swap4\n      swap3\n      swap2\n      swap1\n      dup2\n      dup2\n      mstore\n      0x20\n      add\n      dup4\n      dup4\n        /* \"--CODEGEN--\":30:33   */\n      dup1\n        /* \"--CODEGEN--\":22:28   */\n      dup3\n        /* \"--CODEGEN--\":14:20   */\n      dup5\n        /* \"--CODEGEN--\":1:34   */\n      calldatacopy\n        /* \"--CODEGEN--\":99:100   */\n      0x00\n        /* \"--CODEGEN--\":93:96   */\n      dup2\n        /* \"--CODEGEN--\":85:91   */\n      dup5\n        /* \"--CODEGEN--\":81:97   */\n      add\n        /* \"--CODEGEN--\":74:101   */\n      mstore\n        /* \"--CODEGEN--\":137:141   */\n      0x1f\n        /* \"--CODEGEN--\":133:142   */\n      not\n        /* \"--CODEGEN--\":126:130   */\n      0x1f\n        /* \"--CODEGEN--\":121:124   */\n      dup3\n        /* \"--CODEGEN--\":117:131   */\n      add\n        /* \"--CODEGEN--\":113:143   */\n      and\n        /* \"--CODEGEN--\":106:143   */\n      swap1\n      pop\n        /* \"--CODEGEN--\":169:172   */\n      dup1\n        /* \"--CODEGEN--\":161:167   */\n      dup4\n        /* \"--CODEGEN--\":157:173   */\n      add\n        /* \"--CODEGEN--\":147:173   */\n      swap3\n      pop\n        /* \"casaApuestas.sol\":5201:5548  function crearCarrera(uint _codigo, string memory _nombre) public \r... */\n      pop\n      pop\n      pop\n      pop\n      pop\n      pop\n      swap2\n      swap3\n      swap2\n      swap3\n      swap1\n      pop\n      pop\n      pop\n      tag_108\n      jump\t// in\n    tag_103:\n      stop\n        /* \"casaApuestas.sol\":305:348  mapping(uint => uint[]) public competencias */\n    tag_18:\n      callvalue\n        /* \"--CODEGEN--\":8:17   */\n      dup1\n        /* \"--CODEGEN--\":5:7   */\n      iszero\n      tag_109\n      jumpi\n        /* \"--CODEGEN--\":30:31   */\n      0x00\n        /* \"--CODEGEN--\":27:28   */\n      dup1\n        /* \"--CODEGEN--\":20:32   */\n      revert\n        /* \"--CODEGEN--\":5:7   */\n    tag_109:\n        /* \"casaApuestas.sol\":305:348  mapping(uint => uint[]) public competencias */\n      pop\n      tag_110\n      0x04\n      dup1\n      calldatasize\n      sub\n        /* \"--CODEGEN--\":13:15   */\n      0x40\n        /* \"--CODEGEN--\":8:11   */\n      dup2\n        /* \"--CODEGEN--\":5:16   */\n      lt\n        /* \"--CODEGEN--\":2:4   */\n      iszero\n      tag_111\n      jumpi\n        /* \"--CODEGEN--\":29:30   */\n      0x00\n        /* \"--CODEGEN--\":26:27   */\n      dup1\n        /* \"--CODEGEN--\":19:31   */\n      revert\n        /* \"--CODEGEN--\":2:4   */\n    tag_111:\n        /* \"casaApuestas.sol\":305:348  mapping(uint => uint[]) public competencias */\n      dup2\n      add\n      swap1\n      dup1\n      dup1\n      calldataload\n      swap1\n      0x20\n      add\n      swap1\n      swap3\n      swap2\n      swap1\n      dup1\n      calldataload\n      swap1\n      0x20\n      add\n      swap1\n      swap3\n      swap2\n      swap1\n      pop\n      pop\n      pop\n      tag_112\n      jump\t// in\n    tag_110:\n      mload(0x40)\n      dup1\n      dup3\n      dup2\n      mstore\n      0x20\n      add\n      swap2\n      pop\n      pop\n      mload(0x40)\n      dup1\n      swap2\n      sub\n      swap1\n      return\n        /* \"casaApuestas.sol\":8420:11031  function terminarCarrera(uint _codCarrera) payable public\r... */\n    tag_24:\n        /* \"casaApuestas.sol\":1736:1745  anfitrion */\n      0x00\n      dup1\n      swap1\n      sload\n      swap1\n      0x0100\n      exp\n      swap1\n      div\n      0xffffffffffffffffffffffffffffffffffffffff\n      and\n        /* \"casaApuestas.sol\":1722:1745  msg.sender == anfitrion */\n      0xffffffffffffffffffffffffffffffffffffffff\n      and\n        /* \"casaApuestas.sol\":1722:1732  msg.sender */\n      caller\n        /* \"casaApuestas.sol\":1722:1745  msg.sender == anfitrion */\n      0xffffffffffffffffffffffffffffffffffffffff\n      and\n      eq\n        /* \"casaApuestas.sol\":1714:1784  require(msg.sender == anfitrion, \"El invocador debe ser el anfitrion\") */\n      tag_114\n      jumpi\n      mload(0x40)\n      0x08c379a000000000000000000000000000000000000000000000000000000000\n      dup2\n      mstore\n      0x04\n      add\n      dup1\n      dup1\n      0x20\n      add\n      dup3\n      dup2\n      sub\n      dup3\n      mstore\n      0x22\n      dup2\n      mstore\n      0x20\n      add\n      dup1\n      data_445dd79b894b98a34a1cc7c38a5bd2de2e19478d6390b1e445457362fd7001d8\n      0x22\n      swap2\n      codecopy\n      0x40\n      add\n      swap2\n      pop\n      pop\n      mload(0x40)\n      dup1\n      swap2\n      sub\n      swap1\n      revert\n    tag_114:\n        /* \"casaApuestas.sol\":8514:8525  _codCarrera */\n      dup1\n        /* \"casaApuestas.sol\":3094:3095  0 */\n      0x00\n        /* \"casaApuestas.sol\":3054:3062  carreras */\n      0x02\n        /* \"casaApuestas.sol\":3054:3075  carreras[_codCarrera] */\n      0x00\n        /* \"casaApuestas.sol\":3063:3074  _codCarrera */\n      dup4\n        /* \"casaApuestas.sol\":3054:3075  carreras[_codCarrera] */\n      dup2\n      mstore\n      0x20\n      add\n      swap1\n      dup2\n      mstore\n      0x20\n      add\n      0x00\n      keccak256\n        /* \"casaApuestas.sol\":3054:3082  carreras[_codCarrera].nombre */\n      0x01\n      add\n        /* \"casaApuestas.sol\":3048:3090  bytes(carreras[_codCarrera].nombre).length */\n      dup1\n      sload\n      0x01\n      dup2\n      0x01\n      and\n      iszero\n      0x0100\n      mul\n      sub\n      and\n      0x02\n      swap1\n      div\n      swap1\n      pop\n        /* \"casaApuestas.sol\":3048:3095  bytes(carreras[_codCarrera].nombre).length != 0 */\n      eq\n      iszero\n        /* \"casaApuestas.sol\":3040:3130  require(bytes(carreras[_codCarrera].nombre).length != 0, \"La carrera ingresada no existe\") */\n      tag_116\n      jumpi\n      mload(0x40)\n      0x08c379a000000000000000000000000000000000000000000000000000000000\n      dup2\n      mstore\n      0x04\n      add\n      dup1\n      dup1\n      0x20\n      add\n      dup3\n      dup2\n      sub\n      dup3\n      mstore\n      0x1e\n      dup2\n      mstore\n      0x20\n      add\n      dup1\n      0x4c61206361727265726120696e67726573616461206e6f206578697374650000\n      dup2\n      mstore\n      pop\n      0x20\n      add\n      swap2\n      pop\n      pop\n      mload(0x40)\n      dup1\n      swap2\n      sub\n      swap1\n      revert\n    tag_116:\n        /* \"casaApuestas.sol\":8542:8553  _codCarrera */\n      dup2\n        /* \"casaApuestas.sol\":8555:8572  Estado.Registrada */\n      0x01\n        /* \"casaApuestas.sol\":2202:2209  _estado */\n      dup1\n        /* \"casaApuestas.sol\":2163:2209  carreras[_codCarrera].estadoCarrera == _estado */\n      0x02\n      dup2\n      gt\n      iszero\n      tag_118\n      jumpi\n      invalid\n    tag_118:\n        /* \"casaApuestas.sol\":2163:2171  carreras */\n      0x02\n        /* \"casaApuestas.sol\":2163:2184  carreras[_codCarrera] */\n      0x00\n        /* \"casaApuestas.sol\":2172:2183  _codCarrera */\n      dup5\n        /* \"casaApuestas.sol\":2163:2184  carreras[_codCarrera] */\n      dup2\n      mstore\n      0x20\n      add\n      swap1\n      dup2\n      mstore\n      0x20\n      add\n      0x00\n      keccak256\n        /* \"casaApuestas.sol\":2163:2198  carreras[_codCarrera].estadoCarrera */\n      0x02\n      add\n      0x00\n      swap1\n      sload\n      swap1\n      0x0100\n      exp\n      swap1\n      div\n      0xff\n      and\n        /* \"casaApuestas.sol\":2163:2209  carreras[_codCarrera].estadoCarrera == _estado */\n      0x02\n      dup2\n      gt\n      iszero\n      tag_119\n      jumpi\n      invalid\n    tag_119:\n      eq\n        /* \"casaApuestas.sol\":2155:2258  require(carreras[_codCarrera].estadoCarrera == _estado, \"La carrera no cumple con el estado requerido\") */\n      tag_120\n      jumpi\n      mload(0x40)\n      0x08c379a000000000000000000000000000000000000000000000000000000000\n      dup2\n      mstore\n      0x04\n      add\n      dup1\n      dup1\n      0x20\n      add\n      dup3\n      dup2\n      sub\n      dup3\n      mstore\n      0x2c\n      dup2\n      mstore\n      0x20\n      add\n      dup1\n      data_e91ca438e9e3f1e0e0a5b1a72a508ed5ae254b3cb59572817ac1ec6e2a488952\n      0x2c\n      swap2\n      codecopy\n      0x40\n      add\n      swap2\n      pop\n      pop\n      mload(0x40)\n      dup1\n      swap2\n      sub\n      swap1\n      revert\n    tag_120:\n        /* \"casaApuestas.sol\":8584:8609  uint indiceCaballoGanador */\n      0x00\n        /* \"casaApuestas.sol\":8612:8666  generarAleatorio(carreras[_codCarrera].numeroCaballos) */\n      tag_122\n        /* \"casaApuestas.sol\":8629:8637  carreras */\n      0x02\n        /* \"casaApuestas.sol\":8629:8650  carreras[_codCarrera] */\n      0x00\n        /* \"casaApuestas.sol\":8638:8649  _codCarrera */\n      dup8\n        /* \"casaApuestas.sol\":8629:8650  carreras[_codCarrera] */\n      dup2\n      mstore\n      0x20\n      add\n      swap1\n      dup2\n      mstore\n      0x20\n      add\n      0x00\n      keccak256\n        /* \"casaApuestas.sol\":8629:8665  carreras[_codCarrera].numeroCaballos */\n      0x04\n      add\n      sload\n        /* \"casaApuestas.sol\":8612:8628  generarAleatorio */\n      tag_123\n        /* \"casaApuestas.sol\":8612:8666  generarAleatorio(carreras[_codCarrera].numeroCaballos) */\n      jump\t// in\n    tag_122:\n        /* \"casaApuestas.sol\":8584:8666  uint indiceCaballoGanador = generarAleatorio(carreras[_codCarrera].numeroCaballos) */\n      swap1\n      pop\n        /* \"casaApuestas.sol\":8730:8755  uint apostadoPorGanadores */\n      0x00\n        /* \"casaApuestas.sol\":8758:8759  0 */\n      dup1\n        /* \"casaApuestas.sol\":8730:8759  uint apostadoPorGanadores = 0 */\n      swap1\n      pop\n        /* \"casaApuestas.sol\":8880:8892  competencias */\n      0x04\n        /* \"casaApuestas.sol\":8880:8905  competencias[_codCarrera] */\n      0x00\n        /* \"casaApuestas.sol\":8893:8904  _codCarrera */\n      dup8\n        /* \"casaApuestas.sol\":8880:8905  competencias[_codCarrera] */\n      dup2\n      mstore\n      0x20\n      add\n      swap1\n      dup2\n      mstore\n      0x20\n      add\n      0x00\n      keccak256\n        /* \"casaApuestas.sol\":8906:8926  indiceCaballoGanador */\n      dup3\n        /* \"casaApuestas.sol\":8880:8927  competencias[_codCarrera][indiceCaballoGanador] */\n      dup2\n      sload\n      dup2\n      lt\n      tag_124\n      jumpi\n      invalid\n    tag_124:\n      swap1\n      0x00\n      mstore\n      keccak256(0x00, 0x20)\n      add\n      sload\n        /* \"casaApuestas.sol\":8841:8849  carreras */\n      0x02\n        /* \"casaApuestas.sol\":8841:8862  carreras[_codCarrera] */\n      0x00\n        /* \"casaApuestas.sol\":8850:8861  _codCarrera */\n      dup9\n        /* \"casaApuestas.sol\":8841:8862  carreras[_codCarrera] */\n      dup2\n      mstore\n      0x20\n      add\n      swap1\n      dup2\n      mstore\n      0x20\n      add\n      0x00\n      keccak256\n        /* \"casaApuestas.sol\":8841:8877  carreras[_codCarrera].caballoGanador */\n      0x05\n      add\n        /* \"casaApuestas.sol\":8841:8927  carreras[_codCarrera].caballoGanador = competencias[_codCarrera][indiceCaballoGanador] */\n      dup2\n      swap1\n      sstore\n      pop\n        /* \"casaApuestas.sol\":8943:9008  CaballoGanador(_codCarrera, carreras[_codCarrera].caballoGanador) */\n      0x72ac7000d1a6792055555b3d758cb51770189e1d86ac2e4beb2195be79d10972\n        /* \"casaApuestas.sol\":8958:8969  _codCarrera */\n      dup7\n        /* \"casaApuestas.sol\":8971:8979  carreras */\n      0x02\n        /* \"casaApuestas.sol\":8971:8992  carreras[_codCarrera] */\n      0x00\n        /* \"casaApuestas.sol\":8980:8991  _codCarrera */\n      dup10\n        /* \"casaApuestas.sol\":8971:8992  carreras[_codCarrera] */\n      dup2\n      mstore\n      0x20\n      add\n      swap1\n      dup2\n      mstore\n      0x20\n      add\n      0x00\n      keccak256\n        /* \"casaApuestas.sol\":8971:9007  carreras[_codCarrera].caballoGanador */\n      0x05\n      add\n      sload\n        /* \"casaApuestas.sol\":8943:9008  CaballoGanador(_codCarrera, carreras[_codCarrera].caballoGanador) */\n      mload(0x40)\n      dup1\n      dup4\n      dup2\n      mstore\n      0x20\n      add\n      dup3\n      dup2\n      mstore\n      0x20\n      add\n      swap3\n      pop\n      pop\n      pop\n      mload(0x40)\n      dup1\n      swap2\n      sub\n      swap1\n      log1\n        /* \"casaApuestas.sol\":9090:9096  uint i */\n      0x00\n        /* \"casaApuestas.sol\":9099:9100  0 */\n      dup1\n        /* \"casaApuestas.sol\":9090:9100  uint i = 0 */\n      swap1\n      pop\n        /* \"casaApuestas.sol\":9085:9589  for (uint i = 0; i < apostadores[_codCarrera].length; i++) {  // Total de apostadores para esta carrera\r... */\n    tag_126:\n        /* \"casaApuestas.sol\":9106:9117  apostadores */\n      0x05\n        /* \"casaApuestas.sol\":9106:9130  apostadores[_codCarrera] */\n      0x00\n        /* \"casaApuestas.sol\":9118:9129  _codCarrera */\n      dup9\n        /* \"casaApuestas.sol\":9106:9130  apostadores[_codCarrera] */\n      dup2\n      mstore\n      0x20\n      add\n      swap1\n      dup2\n      mstore\n      0x20\n      add\n      0x00\n      keccak256\n        /* \"casaApuestas.sol\":9106:9137  apostadores[_codCarrera].length */\n      dup1\n      sload\n      swap1\n      pop\n        /* \"casaApuestas.sol\":9102:9103  i */\n      dup2\n        /* \"casaApuestas.sol\":9102:9137  i < apostadores[_codCarrera].length */\n      lt\n        /* \"casaApuestas.sol\":9085:9589  for (uint i = 0; i < apostadores[_codCarrera].length; i++) {  // Total de apostadores para esta carrera\r... */\n      iszero\n      tag_127\n      jumpi\n        /* \"casaApuestas.sol\":9202:9219  address direccion */\n      0x00\n        /* \"casaApuestas.sol\":9222:9233  apostadores */\n      0x05\n        /* \"casaApuestas.sol\":9222:9246  apostadores[_codCarrera] */\n      0x00\n        /* \"casaApuestas.sol\":9234:9245  _codCarrera */\n      dup10\n        /* \"casaApuestas.sol\":9222:9246  apostadores[_codCarrera] */\n      dup2\n      mstore\n      0x20\n      add\n      swap1\n      dup2\n      mstore\n      0x20\n      add\n      0x00\n      keccak256\n        /* \"casaApuestas.sol\":9247:9248  i */\n      dup3\n        /* \"casaApuestas.sol\":9222:9249  apostadores[_codCarrera][i] */\n      dup2\n      sload\n      dup2\n      lt\n      tag_129\n      jumpi\n      invalid\n    tag_129:\n      swap1\n      0x00\n      mstore\n      keccak256(0x00, 0x20)\n      add\n      0x00\n      swap1\n      sload\n      swap1\n      0x0100\n      exp\n      swap1\n      div\n      0xffffffffffffffffffffffffffffffffffffffff\n      and\n        /* \"casaApuestas.sol\":9202:9249  address direccion = apostadores[_codCarrera][i] */\n      swap1\n      pop\n        /* \"casaApuestas.sol\":9424:9436  competencias */\n      0x04\n        /* \"casaApuestas.sol\":9424:9449  competencias[_codCarrera] */\n      0x00\n        /* \"casaApuestas.sol\":9437:9448  _codCarrera */\n      dup10\n        /* \"casaApuestas.sol\":9424:9449  competencias[_codCarrera] */\n      dup2\n      mstore\n      0x20\n      add\n      swap1\n      dup2\n      mstore\n      0x20\n      add\n      0x00\n      keccak256\n        /* \"casaApuestas.sol\":9450:9470  indiceCaballoGanador */\n      dup5\n        /* \"casaApuestas.sol\":9424:9471  competencias[_codCarrera][indiceCaballoGanador] */\n      dup2\n      sload\n      dup2\n      lt\n      tag_131\n      jumpi\n      invalid\n    tag_131:\n      swap1\n      0x00\n      mstore\n      keccak256(0x00, 0x20)\n      add\n      sload\n        /* \"casaApuestas.sol\":9368:9376  carreras */\n      0x02\n        /* \"casaApuestas.sol\":9368:9389  carreras[_codCarrera] */\n      0x00\n        /* \"casaApuestas.sol\":9377:9388  _codCarrera */\n      dup11\n        /* \"casaApuestas.sol\":9368:9389  carreras[_codCarrera] */\n      dup2\n      mstore\n      0x20\n      add\n      swap1\n      dup2\n      mstore\n      0x20\n      add\n      0x00\n      keccak256\n        /* \"casaApuestas.sol\":9368:9398  carreras[_codCarrera].apuestas */\n      0x06\n      add\n        /* \"casaApuestas.sol\":9368:9409  carreras[_codCarrera].apuestas[direccion] */\n      0x00\n        /* \"casaApuestas.sol\":9399:9408  direccion */\n      dup4\n        /* \"casaApuestas.sol\":9368:9409  carreras[_codCarrera].apuestas[direccion] */\n      0xffffffffffffffffffffffffffffffffffffffff\n      and\n      0xffffffffffffffffffffffffffffffffffffffff\n      and\n      dup2\n      mstore\n      0x20\n      add\n      swap1\n      dup2\n      mstore\n      0x20\n      add\n      0x00\n      keccak256\n        /* \"casaApuestas.sol\":9368:9420  carreras[_codCarrera].apuestas[direccion].codCaballo */\n      0x01\n      add\n      sload\n        /* \"casaApuestas.sol\":9368:9471  carreras[_codCarrera].apuestas[direccion].codCaballo == competencias[_codCarrera][indiceCaballoGanador] */\n      eq\n        /* \"casaApuestas.sol\":9364:9578  if (carreras[_codCarrera].apuestas[direccion].codCaballo == competencias[_codCarrera][indiceCaballoGanador]){\r... */\n      iszero\n      tag_133\n      jumpi\n        /* \"casaApuestas.sol\":9515:9523  carreras */\n      0x02\n        /* \"casaApuestas.sol\":9515:9536  carreras[_codCarrera] */\n      0x00\n        /* \"casaApuestas.sol\":9524:9535  _codCarrera */\n      dup10\n        /* \"casaApuestas.sol\":9515:9536  carreras[_codCarrera] */\n      dup2\n      mstore\n      0x20\n      add\n      swap1\n      dup2\n      mstore\n      0x20\n      add\n      0x00\n      keccak256\n        /* \"casaApuestas.sol\":9515:9545  carreras[_codCarrera].apuestas */\n      0x06\n      add\n        /* \"casaApuestas.sol\":9515:9556  carreras[_codCarrera].apuestas[direccion] */\n      0x00\n        /* \"casaApuestas.sol\":9546:9555  direccion */\n      dup3\n        /* \"casaApuestas.sol\":9515:9556  carreras[_codCarrera].apuestas[direccion] */\n      0xffffffffffffffffffffffffffffffffffffffff\n      and\n      0xffffffffffffffffffffffffffffffffffffffff\n      and\n      dup2\n      mstore\n      0x20\n      add\n      swap1\n      dup2\n      mstore\n      0x20\n      add\n      0x00\n      keccak256\n        /* \"casaApuestas.sol\":9515:9562  carreras[_codCarrera].apuestas[direccion].monto */\n      0x00\n      add\n      sload\n        /* \"casaApuestas.sol\":9491:9562  apostadoPorGanadores += carreras[_codCarrera].apuestas[direccion].monto */\n      dup4\n      add\n      swap3\n      pop\n        /* \"casaApuestas.sol\":9364:9578  if (carreras[_codCarrera].apuestas[direccion].codCaballo == competencias[_codCarrera][indiceCaballoGanador]){\r... */\n    tag_133:\n        /* \"casaApuestas.sol\":9085:9589  for (uint i = 0; i < apostadores[_codCarrera].length; i++) {  // Total de apostadores para esta carrera\r... */\n      pop\n        /* \"casaApuestas.sol\":9139:9142  i++ */\n      dup1\n      dup1\n      0x01\n      add\n      swap2\n      pop\n      pop\n        /* \"casaApuestas.sol\":9085:9589  for (uint i = 0; i < apostadores[_codCarrera].length; i++) {  // Total de apostadores para esta carrera\r... */\n      jump(tag_126)\n    tag_127:\n      pop\n        /* \"casaApuestas.sol\":9631:9632  0 */\n      0x00\n        /* \"casaApuestas.sol\":9607:9627  apostadoPorGanadores */\n      dup2\n        /* \"casaApuestas.sol\":9607:9632  apostadoPorGanadores != 0 */\n      eq\n        /* \"casaApuestas.sol\":9603:10830  if (apostadoPorGanadores != 0){\r... */\n      tag_134\n      jumpi\n        /* \"casaApuestas.sol\":9716:9722  uint i */\n      0x00\n        /* \"casaApuestas.sol\":9725:9726  0 */\n      dup1\n        /* \"casaApuestas.sol\":9716:9726  uint i = 0 */\n      swap1\n      pop\n        /* \"casaApuestas.sol\":9711:10662  for (uint i = 0; i < apostadores[_codCarrera].length; i++) {\r... */\n    tag_135:\n        /* \"casaApuestas.sol\":9732:9743  apostadores */\n      0x05\n        /* \"casaApuestas.sol\":9732:9756  apostadores[_codCarrera] */\n      0x00\n        /* \"casaApuestas.sol\":9744:9755  _codCarrera */\n      dup9\n        /* \"casaApuestas.sol\":9732:9756  apostadores[_codCarrera] */\n      dup2\n      mstore\n      0x20\n      add\n      swap1\n      dup2\n      mstore\n      0x20\n      add\n      0x00\n      keccak256\n        /* \"casaApuestas.sol\":9732:9763  apostadores[_codCarrera].length */\n      dup1\n      sload\n      swap1\n      pop\n        /* \"casaApuestas.sol\":9728:9729  i */\n      dup2\n        /* \"casaApuestas.sol\":9728:9763  i < apostadores[_codCarrera].length */\n      lt\n        /* \"casaApuestas.sol\":9711:10662  for (uint i = 0; i < apostadores[_codCarrera].length; i++) {\r... */\n      iszero\n      tag_136\n      jumpi\n        /* \"casaApuestas.sol\":9789:9806  address direccion */\n      0x00\n        /* \"casaApuestas.sol\":9809:9820  apostadores */\n      0x05\n        /* \"casaApuestas.sol\":9809:9833  apostadores[_codCarrera] */\n      0x00\n        /* \"casaApuestas.sol\":9821:9832  _codCarrera */\n      dup10\n        /* \"casaApuestas.sol\":9809:9833  apostadores[_codCarrera] */\n      dup2\n      mstore\n      0x20\n      add\n      swap1\n      dup2\n      mstore\n      0x20\n      add\n      0x00\n      keccak256\n        /* \"casaApuestas.sol\":9834:9835  i */\n      dup3\n        /* \"casaApuestas.sol\":9809:9836  apostadores[_codCarrera][i] */\n      dup2\n      sload\n      dup2\n      lt\n      tag_138\n      jumpi\n      invalid\n    tag_138:\n      swap1\n      0x00\n      mstore\n      keccak256(0x00, 0x20)\n      add\n      0x00\n      swap1\n      sload\n      swap1\n      0x0100\n      exp\n      swap1\n      div\n      0xffffffffffffffffffffffffffffffffffffffff\n      and\n        /* \"casaApuestas.sol\":9789:9836  address direccion = apostadores[_codCarrera][i] */\n      swap1\n      pop\n        /* \"casaApuestas.sol\":9915:9927  competencias */\n      0x04\n        /* \"casaApuestas.sol\":9915:9940  competencias[_codCarrera] */\n      0x00\n        /* \"casaApuestas.sol\":9928:9939  _codCarrera */\n      dup10\n        /* \"casaApuestas.sol\":9915:9940  competencias[_codCarrera] */\n      dup2\n      mstore\n      0x20\n      add\n      swap1\n      dup2\n      mstore\n      0x20\n      add\n      0x00\n      keccak256\n        /* \"casaApuestas.sol\":9941:9961  indiceCaballoGanador */\n      dup5\n        /* \"casaApuestas.sol\":9915:9962  competencias[_codCarrera][indiceCaballoGanador] */\n      dup2\n      sload\n      dup2\n      lt\n      tag_140\n      jumpi\n      invalid\n    tag_140:\n      swap1\n      0x00\n      mstore\n      keccak256(0x00, 0x20)\n      add\n      sload\n        /* \"casaApuestas.sol\":9859:9867  carreras */\n      0x02\n        /* \"casaApuestas.sol\":9859:9880  carreras[_codCarrera] */\n      0x00\n        /* \"casaApuestas.sol\":9868:9879  _codCarrera */\n      dup11\n        /* \"casaApuestas.sol\":9859:9880  carreras[_codCarrera] */\n      dup2\n      mstore\n      0x20\n      add\n      swap1\n      dup2\n      mstore\n      0x20\n      add\n      0x00\n      keccak256\n        /* \"casaApuestas.sol\":9859:9889  carreras[_codCarrera].apuestas */\n      0x06\n      add\n        /* \"casaApuestas.sol\":9859:9900  carreras[_codCarrera].apuestas[direccion] */\n      0x00\n        /* \"casaApuestas.sol\":9890:9899  direccion */\n      dup4\n        /* \"casaApuestas.sol\":9859:9900  carreras[_codCarrera].apuestas[direccion] */\n      0xffffffffffffffffffffffffffffffffffffffff\n      and\n      0xffffffffffffffffffffffffffffffffffffffff\n      and\n      dup2\n      mstore\n      0x20\n      add\n      swap1\n      dup2\n      mstore\n      0x20\n      add\n      0x00\n      keccak256\n        /* \"casaApuestas.sol\":9859:9911  carreras[_codCarrera].apuestas[direccion].codCaballo */\n      0x01\n      add\n      sload\n        /* \"casaApuestas.sol\":9859:9962  carreras[_codCarrera].apuestas[direccion].codCaballo == competencias[_codCarrera][indiceCaballoGanador] */\n      eq\n        /* \"casaApuestas.sol\":9855:10647  if (carreras[_codCarrera].apuestas[direccion].codCaballo == competencias[_codCarrera][indiceCaballoGanador]){\r... */\n      iszero\n      tag_142\n      jumpi\n        /* \"casaApuestas.sol\":10092:10112  apostadoPorGanadores */\n      dup3\n        /* \"casaApuestas.sol\":10042:10050  carreras */\n      0x02\n        /* \"casaApuestas.sol\":10042:10063  carreras[_codCarrera] */\n      0x00\n        /* \"casaApuestas.sol\":10051:10062  _codCarrera */\n      dup11\n        /* \"casaApuestas.sol\":10042:10063  carreras[_codCarrera] */\n      dup2\n      mstore\n      0x20\n      add\n      swap1\n      dup2\n      mstore\n      0x20\n      add\n      0x00\n      keccak256\n        /* \"casaApuestas.sol\":10042:10072  carreras[_codCarrera].apuestas */\n      0x06\n      add\n        /* \"casaApuestas.sol\":10042:10083  carreras[_codCarrera].apuestas[direccion] */\n      0x00\n        /* \"casaApuestas.sol\":10073:10082  direccion */\n      dup4\n        /* \"casaApuestas.sol\":10042:10083  carreras[_codCarrera].apuestas[direccion] */\n      0xffffffffffffffffffffffffffffffffffffffff\n      and\n      0xffffffffffffffffffffffffffffffffffffffff\n      and\n      dup2\n      mstore\n      0x20\n      add\n      swap1\n      dup2\n      mstore\n      0x20\n      add\n      0x00\n      keccak256\n        /* \"casaApuestas.sol\":10042:10089  carreras[_codCarrera].apuestas[direccion].monto */\n      0x00\n      add\n      sload\n        /* \"casaApuestas.sol\":10042:10112  carreras[_codCarrera].apuestas[direccion].monto / apostadoPorGanadores */\n      dup2\n      tag_143\n      jumpi\n      invalid\n    tag_143:\n      div\n        /* \"casaApuestas.sol\":9986:9994  carreras */\n      0x02\n        /* \"casaApuestas.sol\":9986:10007  carreras[_codCarrera] */\n      0x00\n        /* \"casaApuestas.sol\":9995:10006  _codCarrera */\n      dup11\n        /* \"casaApuestas.sol\":9986:10007  carreras[_codCarrera] */\n      dup2\n      mstore\n      0x20\n      add\n      swap1\n      dup2\n      mstore\n      0x20\n      add\n      0x00\n      keccak256\n        /* \"casaApuestas.sol\":9986:10016  carreras[_codCarrera].apuestas */\n      0x06\n      add\n        /* \"casaApuestas.sol\":9986:10027  carreras[_codCarrera].apuestas[direccion] */\n      0x00\n        /* \"casaApuestas.sol\":10017:10026  direccion */\n      dup4\n        /* \"casaApuestas.sol\":9986:10027  carreras[_codCarrera].apuestas[direccion] */\n      0xffffffffffffffffffffffffffffffffffffffff\n      and\n      0xffffffffffffffffffffffffffffffffffffffff\n      and\n      dup2\n      mstore\n      0x20\n      add\n      swap1\n      dup2\n      mstore\n      0x20\n      add\n      0x00\n      keccak256\n        /* \"casaApuestas.sol\":9986:10038  carreras[_codCarrera].apuestas[direccion].proporcion */\n      0x03\n      add\n        /* \"casaApuestas.sol\":9986:10113  carreras[_codCarrera].apuestas[direccion].proporcion = (carreras[_codCarrera].apuestas[direccion].monto / apostadoPorGanadores) */\n      dup2\n      swap1\n      sstore\n      pop\n        /* \"casaApuestas.sol\":10187:10196  direccion */\n      dup1\n        /* \"casaApuestas.sol\":10179:10206  payable(direccion).transfer */\n      0xffffffffffffffffffffffffffffffffffffffff\n      and\n        /* \"casaApuestas.sol\":10179:10375  payable(direccion).transfer(((carreras[_codCarrera].apuestas[direccion].monto * 10000) / apostadoPorGanadores) * (carreras[_codCarrera].montoTotal - (carreras[_codCarrera].montoTotal / 4)) /10000) */\n      0x08fc\n        /* \"casaApuestas.sol\":10369:10374  10000 */\n      0x2710\n        /* \"casaApuestas.sol\":10364:10365  4 */\n      0x04\n        /* \"casaApuestas.sol\":10329:10337  carreras */\n      0x02\n        /* \"casaApuestas.sol\":10329:10350  carreras[_codCarrera] */\n      0x00\n        /* \"casaApuestas.sol\":10338:10349  _codCarrera */\n      dup14\n        /* \"casaApuestas.sol\":10329:10350  carreras[_codCarrera] */\n      dup2\n      mstore\n      0x20\n      add\n      swap1\n      dup2\n      mstore\n      0x20\n      add\n      0x00\n      keccak256\n        /* \"casaApuestas.sol\":10329:10361  carreras[_codCarrera].montoTotal */\n      0x03\n      add\n      sload\n        /* \"casaApuestas.sol\":10329:10365  carreras[_codCarrera].montoTotal / 4 */\n      dup2\n      tag_144\n      jumpi\n      invalid\n    tag_144:\n      div\n        /* \"casaApuestas.sol\":10293:10301  carreras */\n      0x02\n        /* \"casaApuestas.sol\":10293:10314  carreras[_codCarrera] */\n      0x00\n        /* \"casaApuestas.sol\":10302:10313  _codCarrera */\n      dup14\n        /* \"casaApuestas.sol\":10293:10314  carreras[_codCarrera] */\n      dup2\n      mstore\n      0x20\n      add\n      swap1\n      dup2\n      mstore\n      0x20\n      add\n      0x00\n      keccak256\n        /* \"casaApuestas.sol\":10293:10325  carreras[_codCarrera].montoTotal */\n      0x03\n      add\n      sload\n        /* \"casaApuestas.sol\":10293:10366  carreras[_codCarrera].montoTotal - (carreras[_codCarrera].montoTotal / 4) */\n      sub\n        /* \"casaApuestas.sol\":10268:10288  apostadoPorGanadores */\n      dup7\n        /* \"casaApuestas.sol\":10259:10264  10000 */\n      0x2710\n        /* \"casaApuestas.sol\":10209:10217  carreras */\n      0x02\n        /* \"casaApuestas.sol\":10209:10230  carreras[_codCarrera] */\n      0x00\n        /* \"casaApuestas.sol\":10218:10229  _codCarrera */\n      dup16\n        /* \"casaApuestas.sol\":10209:10230  carreras[_codCarrera] */\n      dup2\n      mstore\n      0x20\n      add\n      swap1\n      dup2\n      mstore\n      0x20\n      add\n      0x00\n      keccak256\n        /* \"casaApuestas.sol\":10209:10239  carreras[_codCarrera].apuestas */\n      0x06\n      add\n        /* \"casaApuestas.sol\":10209:10250  carreras[_codCarrera].apuestas[direccion] */\n      0x00\n        /* \"casaApuestas.sol\":10240:10249  direccion */\n      dup9\n        /* \"casaApuestas.sol\":10209:10250  carreras[_codCarrera].apuestas[direccion] */\n      0xffffffffffffffffffffffffffffffffffffffff\n      and\n      0xffffffffffffffffffffffffffffffffffffffff\n      and\n      dup2\n      mstore\n      0x20\n      add\n      swap1\n      dup2\n      mstore\n      0x20\n      add\n      0x00\n      keccak256\n        /* \"casaApuestas.sol\":10209:10256  carreras[_codCarrera].apuestas[direccion].monto */\n      0x00\n      add\n      sload\n        /* \"casaApuestas.sol\":10209:10264  carreras[_codCarrera].apuestas[direccion].monto * 10000 */\n      mul\n        /* \"casaApuestas.sol\":10208:10288  (carreras[_codCarrera].apuestas[direccion].monto * 10000) / apostadoPorGanadores */\n      dup2\n      tag_145\n      jumpi\n      invalid\n    tag_145:\n      div\n        /* \"casaApuestas.sol\":10207:10367  ((carreras[_codCarrera].apuestas[direccion].monto * 10000) / apostadoPorGanadores) * (carreras[_codCarrera].montoTotal - (carreras[_codCarrera].montoTotal / 4)) */\n      mul\n        /* \"casaApuestas.sol\":10207:10374  ((carreras[_codCarrera].apuestas[direccion].monto * 10000) / apostadoPorGanadores) * (carreras[_codCarrera].montoTotal - (carreras[_codCarrera].montoTotal / 4)) /10000 */\n      dup2\n      tag_146\n      jumpi\n      invalid\n    tag_146:\n      div\n        /* \"casaApuestas.sol\":10179:10375  payable(direccion).transfer(((carreras[_codCarrera].apuestas[direccion].monto * 10000) / apostadoPorGanadores) * (carreras[_codCarrera].montoTotal - (carreras[_codCarrera].montoTotal / 4)) /10000) */\n      swap1\n      dup2\n      iszero\n      mul\n      swap1\n      mload(0x40)\n      0x00\n      mload(0x40)\n      dup1\n      dup4\n      sub\n      dup2\n      dup6\n      dup9\n      dup9\n      call\n      swap4\n      pop\n      pop\n      pop\n      pop\n      iszero\n        /* \"--CODEGEN--\":8:17   */\n      dup1\n        /* \"--CODEGEN--\":5:7   */\n      iszero\n      tag_148\n      jumpi\n        /* \"--CODEGEN--\":45:61   */\n      returndatasize\n        /* \"--CODEGEN--\":42:43   */\n      0x00\n        /* \"--CODEGEN--\":39:40   */\n      dup1\n        /* \"--CODEGEN--\":24:62   */\n      returndatacopy\n        /* \"--CODEGEN--\":77:93   */\n      returndatasize\n        /* \"--CODEGEN--\":74:75   */\n      0x00\n        /* \"--CODEGEN--\":67:94   */\n      revert\n        /* \"--CODEGEN--\":5:7   */\n    tag_148:\n        /* \"casaApuestas.sol\":10179:10375  payable(direccion).transfer(((carreras[_codCarrera].apuestas[direccion].monto * 10000) / apostadoPorGanadores) * (carreras[_codCarrera].montoTotal - (carreras[_codCarrera].montoTotal / 4)) /10000) */\n      pop\n        /* \"casaApuestas.sol\":10622:10627  10000 */\n      0x2710\n        /* \"casaApuestas.sol\":10617:10618  4 */\n      0x04\n        /* \"casaApuestas.sol\":10582:10590  carreras */\n      0x02\n        /* \"casaApuestas.sol\":10582:10603  carreras[_codCarrera] */\n      0x00\n        /* \"casaApuestas.sol\":10591:10602  _codCarrera */\n      dup12\n        /* \"casaApuestas.sol\":10582:10603  carreras[_codCarrera] */\n      dup2\n      mstore\n      0x20\n      add\n      swap1\n      dup2\n      mstore\n      0x20\n      add\n      0x00\n      keccak256\n        /* \"casaApuestas.sol\":10582:10614  carreras[_codCarrera].montoTotal */\n      0x03\n      add\n      sload\n        /* \"casaApuestas.sol\":10582:10618  carreras[_codCarrera].montoTotal / 4 */\n      dup2\n      tag_149\n      jumpi\n      invalid\n    tag_149:\n      div\n        /* \"casaApuestas.sol\":10546:10554  carreras */\n      0x02\n        /* \"casaApuestas.sol\":10546:10567  carreras[_codCarrera] */\n      0x00\n        /* \"casaApuestas.sol\":10555:10566  _codCarrera */\n      dup12\n        /* \"casaApuestas.sol\":10546:10567  carreras[_codCarrera] */\n      dup2\n      mstore\n      0x20\n      add\n      swap1\n      dup2\n      mstore\n      0x20\n      add\n      0x00\n      keccak256\n        /* \"casaApuestas.sol\":10546:10578  carreras[_codCarrera].montoTotal */\n      0x03\n      add\n      sload\n        /* \"casaApuestas.sol\":10546:10619  carreras[_codCarrera].montoTotal - (carreras[_codCarrera].montoTotal / 4) */\n      sub\n        /* \"casaApuestas.sol\":10521:10541  apostadoPorGanadores */\n      dup5\n        /* \"casaApuestas.sol\":10512:10517  10000 */\n      0x2710\n        /* \"casaApuestas.sol\":10462:10470  carreras */\n      0x02\n        /* \"casaApuestas.sol\":10462:10483  carreras[_codCarrera] */\n      0x00\n        /* \"casaApuestas.sol\":10471:10482  _codCarrera */\n      dup14\n        /* \"casaApuestas.sol\":10462:10483  carreras[_codCarrera] */\n      dup2\n      mstore\n      0x20\n      add\n      swap1\n      dup2\n      mstore\n      0x20\n      add\n      0x00\n      keccak256\n        /* \"casaApuestas.sol\":10462:10492  carreras[_codCarrera].apuestas */\n      0x06\n      add\n        /* \"casaApuestas.sol\":10462:10503  carreras[_codCarrera].apuestas[direccion] */\n      0x00\n        /* \"casaApuestas.sol\":10493:10502  direccion */\n      dup7\n        /* \"casaApuestas.sol\":10462:10503  carreras[_codCarrera].apuestas[direccion] */\n      0xffffffffffffffffffffffffffffffffffffffff\n      and\n      0xffffffffffffffffffffffffffffffffffffffff\n      and\n      dup2\n      mstore\n      0x20\n      add\n      swap1\n      dup2\n      mstore\n      0x20\n      add\n      0x00\n      keccak256\n        /* \"casaApuestas.sol\":10462:10509  carreras[_codCarrera].apuestas[direccion].monto */\n      0x00\n      add\n      sload\n        /* \"casaApuestas.sol\":10462:10517  carreras[_codCarrera].apuestas[direccion].monto * 10000 */\n      mul\n        /* \"casaApuestas.sol\":10461:10541  (carreras[_codCarrera].apuestas[direccion].monto * 10000) / apostadoPorGanadores */\n      dup2\n      tag_150\n      jumpi\n      invalid\n    tag_150:\n      div\n        /* \"casaApuestas.sol\":10460:10620  ((carreras[_codCarrera].apuestas[direccion].monto * 10000) / apostadoPorGanadores) * (carreras[_codCarrera].montoTotal - (carreras[_codCarrera].montoTotal / 4)) */\n      mul\n        /* \"casaApuestas.sol\":10460:10627  ((carreras[_codCarrera].apuestas[direccion].monto * 10000) / apostadoPorGanadores) * (carreras[_codCarrera].montoTotal - (carreras[_codCarrera].montoTotal / 4)) /10000 */\n      dup2\n      tag_151\n      jumpi\n      invalid\n    tag_151:\n      div\n        /* \"casaApuestas.sol\":10398:10406  carreras */\n      0x02\n        /* \"casaApuestas.sol\":10398:10419  carreras[_codCarrera] */\n      0x00\n        /* \"casaApuestas.sol\":10407:10418  _codCarrera */\n      dup11\n        /* \"casaApuestas.sol\":10398:10419  carreras[_codCarrera] */\n      dup2\n      mstore\n      0x20\n      add\n      swap1\n      dup2\n      mstore\n      0x20\n      add\n      0x00\n      keccak256\n        /* \"casaApuestas.sol\":10398:10428  carreras[_codCarrera].apuestas */\n      0x06\n      add\n        /* \"casaApuestas.sol\":10398:10439  carreras[_codCarrera].apuestas[direccion] */\n      0x00\n        /* \"casaApuestas.sol\":10429:10438  direccion */\n      dup4\n        /* \"casaApuestas.sol\":10398:10439  carreras[_codCarrera].apuestas[direccion] */\n      0xffffffffffffffffffffffffffffffffffffffff\n      and\n      0xffffffffffffffffffffffffffffffffffffffff\n      and\n      dup2\n      mstore\n      0x20\n      add\n      swap1\n      dup2\n      mstore\n      0x20\n      add\n      0x00\n      keccak256\n        /* \"casaApuestas.sol\":10398:10457  carreras[_codCarrera].apuestas[direccion].dineroTransferido */\n      0x04\n      add\n        /* \"casaApuestas.sol\":10398:10627  carreras[_codCarrera].apuestas[direccion].dineroTransferido = ((carreras[_codCarrera].apuestas[direccion].monto * 10000) / apostadoPorGanadores) * (carreras[_codCarrera].montoTotal - (carreras[_codCarrera].montoTotal / 4)) /10000 */\n      dup2\n      swap1\n      sstore\n      pop\n        /* \"casaApuestas.sol\":9855:10647  if (carreras[_codCarrera].apuestas[direccion].codCaballo == competencias[_codCarrera][indiceCaballoGanador]){\r... */\n    tag_142:\n        /* \"casaApuestas.sol\":9711:10662  for (uint i = 0; i < apostadores[_codCarrera].length; i++) {\r... */\n      pop\n        /* \"casaApuestas.sol\":9765:9768  i++ */\n      dup1\n      dup1\n      0x01\n      add\n      swap2\n      pop\n      pop\n        /* \"casaApuestas.sol\":9711:10662  for (uint i = 0; i < apostadores[_codCarrera].length; i++) {\r... */\n      jump(tag_135)\n    tag_136:\n      pop\n        /* \"casaApuestas.sol\":10677:10687  msg.sender */\n      caller\n        /* \"casaApuestas.sol\":10677:10696  msg.sender.transfer */\n      0xffffffffffffffffffffffffffffffffffffffff\n      and\n        /* \"casaApuestas.sol\":10677:10734  msg.sender.transfer(carreras[_codCarrera].montoTotal / 4) */\n      0x08fc\n        /* \"casaApuestas.sol\":10732:10733  4 */\n      0x04\n        /* \"casaApuestas.sol\":10697:10705  carreras */\n      0x02\n        /* \"casaApuestas.sol\":10697:10718  carreras[_codCarrera] */\n      0x00\n        /* \"casaApuestas.sol\":10706:10717  _codCarrera */\n      dup11\n        /* \"casaApuestas.sol\":10697:10718  carreras[_codCarrera] */\n      dup2\n      mstore\n      0x20\n      add\n      swap1\n      dup2\n      mstore\n      0x20\n      add\n      0x00\n      keccak256\n        /* \"casaApuestas.sol\":10697:10729  carreras[_codCarrera].montoTotal */\n      0x03\n      add\n      sload\n        /* \"casaApuestas.sol\":10697:10733  carreras[_codCarrera].montoTotal / 4 */\n      dup2\n      tag_152\n      jumpi\n      invalid\n    tag_152:\n      div\n        /* \"casaApuestas.sol\":10677:10734  msg.sender.transfer(carreras[_codCarrera].montoTotal / 4) */\n      swap1\n      dup2\n      iszero\n      mul\n      swap1\n      mload(0x40)\n      0x00\n      mload(0x40)\n      dup1\n      dup4\n      sub\n      dup2\n      dup6\n      dup9\n      dup9\n      call\n      swap4\n      pop\n      pop\n      pop\n      pop\n      iszero\n        /* \"--CODEGEN--\":8:17   */\n      dup1\n        /* \"--CODEGEN--\":5:7   */\n      iszero\n      tag_154\n      jumpi\n        /* \"--CODEGEN--\":45:61   */\n      returndatasize\n        /* \"--CODEGEN--\":42:43   */\n      0x00\n        /* \"--CODEGEN--\":39:40   */\n      dup1\n        /* \"--CODEGEN--\":24:62   */\n      returndatacopy\n        /* \"--CODEGEN--\":77:93   */\n      returndatasize\n        /* \"--CODEGEN--\":74:75   */\n      0x00\n        /* \"--CODEGEN--\":67:94   */\n      revert\n        /* \"--CODEGEN--\":5:7   */\n    tag_154:\n        /* \"casaApuestas.sol\":10677:10734  msg.sender.transfer(carreras[_codCarrera].montoTotal / 4) */\n      pop\n        /* \"casaApuestas.sol\":9603:10830  if (apostadoPorGanadores != 0){\r... */\n      jump(tag_155)\n    tag_134:\n        /* \"casaApuestas.sol\":10765:10775  msg.sender */\n      caller\n        /* \"casaApuestas.sol\":10765:10784  msg.sender.transfer */\n      0xffffffffffffffffffffffffffffffffffffffff\n      and\n        /* \"casaApuestas.sol\":10765:10818  msg.sender.transfer(carreras[_codCarrera].montoTotal) */\n      0x08fc\n        /* \"casaApuestas.sol\":10785:10793  carreras */\n      0x02\n        /* \"casaApuestas.sol\":10785:10806  carreras[_codCarrera] */\n      0x00\n        /* \"casaApuestas.sol\":10794:10805  _codCarrera */\n      dup10\n        /* \"casaApuestas.sol\":10785:10806  carreras[_codCarrera] */\n      dup2\n      mstore\n      0x20\n      add\n      swap1\n      dup2\n      mstore\n      0x20\n      add\n      0x00\n      keccak256\n        /* \"casaApuestas.sol\":10785:10817  carreras[_codCarrera].montoTotal */\n      0x03\n      add\n      sload\n        /* \"casaApuestas.sol\":10765:10818  msg.sender.transfer(carreras[_codCarrera].montoTotal) */\n      swap1\n      dup2\n      iszero\n      mul\n      swap1\n      mload(0x40)\n      0x00\n      mload(0x40)\n      dup1\n      dup4\n      sub\n      dup2\n      dup6\n      dup9\n      dup9\n      call\n      swap4\n      pop\n      pop\n      pop\n      pop\n      iszero\n        /* \"--CODEGEN--\":8:17   */\n      dup1\n        /* \"--CODEGEN--\":5:7   */\n      iszero\n      tag_157\n      jumpi\n        /* \"--CODEGEN--\":45:61   */\n      returndatasize\n        /* \"--CODEGEN--\":42:43   */\n      0x00\n        /* \"--CODEGEN--\":39:40   */\n      dup1\n        /* \"--CODEGEN--\":24:62   */\n      returndatacopy\n        /* \"--CODEGEN--\":77:93   */\n      returndatasize\n        /* \"--CODEGEN--\":74:75   */\n      0x00\n        /* \"--CODEGEN--\":67:94   */\n      revert\n        /* \"--CODEGEN--\":5:7   */\n    tag_157:\n        /* \"casaApuestas.sol\":10765:10818  msg.sender.transfer(carreras[_codCarrera].montoTotal) */\n      pop\n        /* \"casaApuestas.sol\":9603:10830  if (apostadoPorGanadores != 0){\r... */\n    tag_155:\n        /* \"casaApuestas.sol\":10878:10894  Estado.Terminada */\n      0x02\n        /* \"casaApuestas.sol\":10840:10848  carreras */\n      dup1\n        /* \"casaApuestas.sol\":10840:10861  carreras[_codCarrera] */\n      0x00\n        /* \"casaApuestas.sol\":10849:10860  _codCarrera */\n      dup9\n        /* \"casaApuestas.sol\":10840:10861  carreras[_codCarrera] */\n      dup2\n      mstore\n      0x20\n      add\n      swap1\n      dup2\n      mstore\n      0x20\n      add\n      0x00\n      keccak256\n        /* \"casaApuestas.sol\":10840:10875  carreras[_codCarrera].estadoCarrera */\n      0x02\n      add\n      0x00\n        /* \"casaApuestas.sol\":10840:10894  carreras[_codCarrera].estadoCarrera = Estado.Terminada */\n      0x0100\n      exp\n      dup2\n      sload\n      dup2\n      0xff\n      mul\n      not\n      and\n      swap1\n      dup4\n      0x02\n      dup2\n      gt\n      iszero\n      tag_158\n      jumpi\n      invalid\n    tag_158:\n      mul\n      or\n      swap1\n      sstore\n      pop\n        /* \"casaApuestas.sol\":10910:11023  CarreraTerminada(carreras[_codCarrera].codigo, carreras[_codCarrera].nombre, carreras[_codCarrera].estadoCarrera) */\n      0x1b6ae2478df67879eab65812cac1a15b1d9c0b265c0ecccc99f74d979d97344f\n        /* \"casaApuestas.sol\":10927:10935  carreras */\n      0x02\n        /* \"casaApuestas.sol\":10927:10948  carreras[_codCarrera] */\n      0x00\n        /* \"casaApuestas.sol\":10936:10947  _codCarrera */\n      dup9\n        /* \"casaApuestas.sol\":10927:10948  carreras[_codCarrera] */\n      dup2\n      mstore\n      0x20\n      add\n      swap1\n      dup2\n      mstore\n      0x20\n      add\n      0x00\n      keccak256\n        /* \"casaApuestas.sol\":10927:10955  carreras[_codCarrera].codigo */\n      0x00\n      add\n      sload\n        /* \"casaApuestas.sol\":10957:10965  carreras */\n      0x02\n        /* \"casaApuestas.sol\":10957:10978  carreras[_codCarrera] */\n      0x00\n        /* \"casaApuestas.sol\":10966:10977  _codCarrera */\n      dup10\n        /* \"casaApuestas.sol\":10957:10978  carreras[_codCarrera] */\n      dup2\n      mstore\n      0x20\n      add\n      swap1\n      dup2\n      mstore\n      0x20\n      add\n      0x00\n      keccak256\n        /* \"casaApuestas.sol\":10957:10985  carreras[_codCarrera].nombre */\n      0x01\n      add\n        /* \"casaApuestas.sol\":10987:10995  carreras */\n      0x02\n        /* \"casaApuestas.sol\":10987:11008  carreras[_codCarrera] */\n      0x00\n        /* \"casaApuestas.sol\":10996:11007  _codCarrera */\n      dup11\n        /* \"casaApuestas.sol\":10987:11008  carreras[_codCarrera] */\n      dup2\n      mstore\n      0x20\n      add\n      swap1\n      dup2\n      mstore\n      0x20\n      add\n      0x00\n      keccak256\n        /* \"casaApuestas.sol\":10987:11022  carreras[_codCarrera].estadoCarrera */\n      0x02\n      add\n      0x00\n      swap1\n      sload\n      swap1\n      0x0100\n      exp\n      swap1\n      div\n      0xff\n      and\n        /* \"casaApuestas.sol\":10910:11023  CarreraTerminada(carreras[_codCarrera].codigo, carreras[_codCarrera].nombre, carreras[_codCarrera].estadoCarrera) */\n      mload(0x40)\n      dup1\n      dup5\n      dup2\n      mstore\n      0x20\n      add\n      dup1\n      0x20\n      add\n      dup4\n      0x02\n      dup2\n      gt\n      iszero\n      tag_159\n      jumpi\n      invalid\n    tag_159:\n      0xff\n      and\n      dup2\n      mstore\n      0x20\n      add\n      dup3\n      dup2\n      sub\n      dup3\n      mstore\n      dup5\n      dup2\n      dup2\n      sload\n      0x01\n      dup2\n      0x01\n      and\n      iszero\n      0x0100\n      mul\n      sub\n      and\n      0x02\n      swap1\n      div\n      dup2\n      mstore\n      0x20\n      add\n      swap2\n      pop\n      dup1\n      sload\n      0x01\n      dup2\n      0x01\n      and\n      iszero\n      0x0100\n      mul\n      sub\n      and\n      0x02\n      swap1\n      div\n      dup1\n      iszero\n      tag_160\n      jumpi\n      dup1\n      0x1f\n      lt\n      tag_161\n      jumpi\n      0x0100\n      dup1\n      dup4\n      sload\n      div\n      mul\n      dup4\n      mstore\n      swap2\n      0x20\n      add\n      swap2\n      jump(tag_160)\n    tag_161:\n      dup3\n      add\n      swap2\n      swap1\n      0x00\n      mstore\n      keccak256(0x00, 0x20)\n      swap1\n    tag_162:\n      dup2\n      sload\n      dup2\n      mstore\n      swap1\n      0x01\n      add\n      swap1\n      0x20\n      add\n      dup1\n      dup4\n      gt\n      tag_162\n      jumpi\n      dup3\n      swap1\n      sub\n      0x1f\n      and\n      dup3\n      add\n      swap2\n    tag_160:\n      pop\n      pop\n      swap5\n      pop\n      pop\n      pop\n      pop\n      pop\n      mload(0x40)\n      dup1\n      swap2\n      sub\n      swap1\n      log1\n        /* \"casaApuestas.sol\":2269:2270  _ */\n      pop\n      pop\n        /* \"casaApuestas.sol\":3141:3142  _ */\n      pop\n      pop\n        /* \"casaApuestas.sol\":1795:1796  _ */\n      pop\n        /* \"casaApuestas.sol\":8420:11031  function terminarCarrera(uint _codCarrera) payable public\r... */\n      pop\n      jump\t// out\n        /* \"casaApuestas.sol\":11101:12040  function getCaballosEnCarrera(uint _codCarrera) public \r... */\n    tag_28:\n        /* \"casaApuestas.sol\":11207:11220  string memory */\n      0x60\n        /* \"casaApuestas.sol\":11176:11187  _codCarrera */\n      dup2\n        /* \"casaApuestas.sol\":3094:3095  0 */\n      0x00\n        /* \"casaApuestas.sol\":3054:3062  carreras */\n      0x02\n        /* \"casaApuestas.sol\":3054:3075  carreras[_codCarrera] */\n      0x00\n        /* \"casaApuestas.sol\":3063:3074  _codCarrera */\n      dup4\n        /* \"casaApuestas.sol\":3054:3075  carreras[_codCarrera] */\n      dup2\n      mstore\n      0x20\n      add\n      swap1\n      dup2\n      mstore\n      0x20\n      add\n      0x00\n      keccak256\n        /* \"casaApuestas.sol\":3054:3082  carreras[_codCarrera].nombre */\n      0x01\n      add\n        /* \"casaApuestas.sol\":3048:3090  bytes(carreras[_codCarrera].nombre).length */\n      dup1\n      sload\n      0x01\n      dup2\n      0x01\n      and\n      iszero\n      0x0100\n      mul\n      sub\n      and\n      0x02\n      swap1\n      div\n      swap1\n      pop\n        /* \"casaApuestas.sol\":3048:3095  bytes(carreras[_codCarrera].nombre).length != 0 */\n      eq\n      iszero\n        /* \"casaApuestas.sol\":3040:3130  require(bytes(carreras[_codCarrera].nombre).length != 0, \"La carrera ingresada no existe\") */\n      tag_164\n      jumpi\n      mload(0x40)\n      0x08c379a000000000000000000000000000000000000000000000000000000000\n      dup2\n      mstore\n      0x04\n      add\n      dup1\n      dup1\n      0x20\n      add\n      dup3\n      dup2\n      sub\n      dup3\n      mstore\n      0x1e\n      dup2\n      mstore\n      0x20\n      add\n      dup1\n      0x4c61206361727265726120696e67726573616461206e6f206578697374650000\n      dup2\n      mstore\n      pop\n      0x20\n      add\n      swap2\n      pop\n      pop\n      mload(0x40)\n      dup1\n      swap2\n      sub\n      swap1\n      revert\n    tag_164:\n        /* \"casaApuestas.sol\":11233:11256  string memory respuesta */\n      0x60\n        /* \"casaApuestas.sol\":11233:11285  string memory respuesta = \"Caballos en la carrera #\" */\n      mload(0x40)\n      dup1\n      0x40\n      add\n      0x40\n      mstore\n      dup1\n      0x18\n      dup2\n      mstore\n      0x20\n      add\n      0x436162616c6c6f7320656e206c61206361727265726120230000000000000000\n      dup2\n      mstore\n      pop\n      swap1\n      pop\n        /* \"casaApuestas.sol\":11296:11309  bool contiene */\n      0x00\n        /* \"casaApuestas.sol\":11312:11317  false */\n      dup1\n        /* \"casaApuestas.sol\":11296:11317  bool contiene = false */\n      swap1\n      pop\n        /* \"casaApuestas.sol\":11364:11373  respuesta */\n      dup2\n        /* \"casaApuestas.sol\":11375:11396  uint2str(_codCarrera) */\n      tag_166\n        /* \"casaApuestas.sol\":11384:11395  _codCarrera */\n      dup7\n        /* \"casaApuestas.sol\":11375:11383  uint2str */\n      tag_167\n        /* \"casaApuestas.sol\":11375:11396  uint2str(_codCarrera) */\n      jump\t// in\n    tag_166:\n        /* \"casaApuestas.sol\":11347:11397  abi.encodePacked(respuesta, uint2str(_codCarrera)) */\n      add(0x20, mload(0x40))\n      dup1\n      dup4\n      dup1\n      mload\n      swap1\n      0x20\n      add\n      swap1\n      dup1\n      dup4\n      dup4\n        /* \"--CODEGEN--\":36:189   */\n    tag_168:\n        /* \"--CODEGEN--\":66:68   */\n      0x20\n        /* \"--CODEGEN--\":61:64   */\n      dup4\n        /* \"--CODEGEN--\":58:69   */\n      lt\n        /* \"--CODEGEN--\":36:189   */\n      tag_170\n      jumpi\n        /* \"--CODEGEN--\":182:185   */\n      dup1\n        /* \"--CODEGEN--\":176:186   */\n      mload\n        /* \"--CODEGEN--\":171:174   */\n      dup3\n        /* \"--CODEGEN--\":164:187   */\n      mstore\n        /* \"--CODEGEN--\":98:100   */\n      0x20\n        /* \"--CODEGEN--\":93:96   */\n      dup3\n        /* \"--CODEGEN--\":89:101   */\n      add\n        /* \"--CODEGEN--\":82:101   */\n      swap2\n      pop\n        /* \"--CODEGEN--\":123:125   */\n      0x20\n        /* \"--CODEGEN--\":118:121   */\n      dup2\n        /* \"--CODEGEN--\":114:126   */\n      add\n        /* \"--CODEGEN--\":107:126   */\n      swap1\n      pop\n        /* \"--CODEGEN--\":148:150   */\n      0x20\n        /* \"--CODEGEN--\":143:146   */\n      dup4\n        /* \"--CODEGEN--\":139:151   */\n      sub\n        /* \"--CODEGEN--\":132:151   */\n      swap3\n      pop\n        /* \"--CODEGEN--\":36:189   */\n      jump(tag_168)\n    tag_170:\n        /* \"--CODEGEN--\":274:275   */\n      0x01\n        /* \"--CODEGEN--\":267:270   */\n      dup4\n        /* \"--CODEGEN--\":263:265   */\n      0x20\n        /* \"--CODEGEN--\":259:271   */\n      sub\n        /* \"--CODEGEN--\":254:257   */\n      0x0100\n        /* \"--CODEGEN--\":250:272   */\n      exp\n        /* \"--CODEGEN--\":246:276   */\n      sub\n        /* \"--CODEGEN--\":315:319   */\n      dup1\n        /* \"--CODEGEN--\":311:320   */\n      not\n        /* \"--CODEGEN--\":305:308   */\n      dup3\n        /* \"--CODEGEN--\":299:309   */\n      mload\n        /* \"--CODEGEN--\":295:321   */\n      and\n        /* \"--CODEGEN--\":356:360   */\n      dup2\n        /* \"--CODEGEN--\":350:353   */\n      dup5\n        /* \"--CODEGEN--\":344:354   */\n      mload\n        /* \"--CODEGEN--\":340:361   */\n      and\n        /* \"--CODEGEN--\":389:396   */\n      dup1\n        /* \"--CODEGEN--\":380:387   */\n      dup3\n        /* \"--CODEGEN--\":377:397   */\n      or\n        /* \"--CODEGEN--\":372:375   */\n      dup6\n        /* \"--CODEGEN--\":365:398   */\n      mstore\n        /* \"--CODEGEN--\":3:402   */\n      pop\n      pop\n      pop\n        /* \"casaApuestas.sol\":11347:11397  abi.encodePacked(respuesta, uint2str(_codCarrera)) */\n      pop\n      pop\n      pop\n      swap1\n      pop\n      add\n      dup3\n      dup1\n      mload\n      swap1\n      0x20\n      add\n      swap1\n      dup1\n      dup4\n      dup4\n        /* \"--CODEGEN--\":36:189   */\n    tag_171:\n        /* \"--CODEGEN--\":66:68   */\n      0x20\n        /* \"--CODEGEN--\":61:64   */\n      dup4\n        /* \"--CODEGEN--\":58:69   */\n      lt\n        /* \"--CODEGEN--\":36:189   */\n      tag_173\n      jumpi\n        /* \"--CODEGEN--\":182:185   */\n      dup1\n        /* \"--CODEGEN--\":176:186   */\n      mload\n        /* \"--CODEGEN--\":171:174   */\n      dup3\n        /* \"--CODEGEN--\":164:187   */\n      mstore\n        /* \"--CODEGEN--\":98:100   */\n      0x20\n        /* \"--CODEGEN--\":93:96   */\n      dup3\n        /* \"--CODEGEN--\":89:101   */\n      add\n        /* \"--CODEGEN--\":82:101   */\n      swap2\n      pop\n        /* \"--CODEGEN--\":123:125   */\n      0x20\n        /* \"--CODEGEN--\":118:121   */\n      dup2\n        /* \"--CODEGEN--\":114:126   */\n      add\n        /* \"--CODEGEN--\":107:126   */\n      swap1\n      pop\n        /* \"--CODEGEN--\":148:150   */\n      0x20\n        /* \"--CODEGEN--\":143:146   */\n      dup4\n        /* \"--CODEGEN--\":139:151   */\n      sub\n        /* \"--CODEGEN--\":132:151   */\n      swap3\n      pop\n        /* \"--CODEGEN--\":36:189   */\n      jump(tag_171)\n    tag_173:\n        /* \"--CODEGEN--\":274:275   */\n      0x01\n        /* \"--CODEGEN--\":267:270   */\n      dup4\n        /* \"--CODEGEN--\":263:265   */\n      0x20\n        /* \"--CODEGEN--\":259:271   */\n      sub\n        /* \"--CODEGEN--\":254:257   */\n      0x0100\n        /* \"--CODEGEN--\":250:272   */\n      exp\n        /* \"--CODEGEN--\":246:276   */\n      sub\n        /* \"--CODEGEN--\":315:319   */\n      dup1\n        /* \"--CODEGEN--\":311:320   */\n      not\n        /* \"--CODEGEN--\":305:308   */\n      dup3\n        /* \"--CODEGEN--\":299:309   */\n      mload\n        /* \"--CODEGEN--\":295:321   */\n      and\n        /* \"--CODEGEN--\":356:360   */\n      dup2\n        /* \"--CODEGEN--\":350:353   */\n      dup5\n        /* \"--CODEGEN--\":344:354   */\n      mload\n        /* \"--CODEGEN--\":340:361   */\n      and\n        /* \"--CODEGEN--\":389:396   */\n      dup1\n        /* \"--CODEGEN--\":380:387   */\n      dup3\n        /* \"--CODEGEN--\":377:397   */\n      or\n        /* \"--CODEGEN--\":372:375   */\n      dup6\n        /* \"--CODEGEN--\":365:398   */\n      mstore\n        /* \"--CODEGEN--\":3:402   */\n      pop\n      pop\n      pop\n        /* \"casaApuestas.sol\":11347:11397  abi.encodePacked(respuesta, uint2str(_codCarrera)) */\n      pop\n      pop\n      pop\n      swap1\n      pop\n      add\n      swap3\n      pop\n      pop\n      pop\n      mload(0x40)\n        /* \"--CODEGEN--\":49:53   */\n      0x20\n        /* \"--CODEGEN--\":39:46   */\n      dup2\n        /* \"--CODEGEN--\":30:37   */\n      dup4\n        /* \"--CODEGEN--\":26:47   */\n      sub\n        /* \"--CODEGEN--\":22:54   */\n      sub\n        /* \"--CODEGEN--\":13:20   */\n      dup2\n        /* \"--CODEGEN--\":6:55   */\n      mstore\n        /* \"casaApuestas.sol\":11347:11397  abi.encodePacked(respuesta, uint2str(_codCarrera)) */\n      swap1\n      0x40\n      mstore\n        /* \"casaApuestas.sol\":11328:11398  respuesta = string(abi.encodePacked(respuesta, uint2str(_codCarrera))) */\n      swap2\n      pop\n        /* \"casaApuestas.sol\":11445:11454  respuesta */\n      dup2\n        /* \"casaApuestas.sol\":11428:11461  abi.encodePacked(respuesta, \": \") */\n      add(0x20, mload(0x40))\n      dup1\n      dup3\n      dup1\n      mload\n      swap1\n      0x20\n      add\n      swap1\n      dup1\n      dup4\n      dup4\n        /* \"--CODEGEN--\":36:189   */\n    tag_174:\n        /* \"--CODEGEN--\":66:68   */\n      0x20\n        /* \"--CODEGEN--\":61:64   */\n      dup4\n        /* \"--CODEGEN--\":58:69   */\n      lt\n        /* \"--CODEGEN--\":36:189   */\n      tag_176\n      jumpi\n        /* \"--CODEGEN--\":182:185   */\n      dup1\n        /* \"--CODEGEN--\":176:186   */\n      mload\n        /* \"--CODEGEN--\":171:174   */\n      dup3\n        /* \"--CODEGEN--\":164:187   */\n      mstore\n        /* \"--CODEGEN--\":98:100   */\n      0x20\n        /* \"--CODEGEN--\":93:96   */\n      dup3\n        /* \"--CODEGEN--\":89:101   */\n      add\n        /* \"--CODEGEN--\":82:101   */\n      swap2\n      pop\n        /* \"--CODEGEN--\":123:125   */\n      0x20\n        /* \"--CODEGEN--\":118:121   */\n      dup2\n        /* \"--CODEGEN--\":114:126   */\n      add\n        /* \"--CODEGEN--\":107:126   */\n      swap1\n      pop\n        /* \"--CODEGEN--\":148:150   */\n      0x20\n        /* \"--CODEGEN--\":143:146   */\n      dup4\n        /* \"--CODEGEN--\":139:151   */\n      sub\n        /* \"--CODEGEN--\":132:151   */\n      swap3\n      pop\n        /* \"--CODEGEN--\":36:189   */\n      jump(tag_174)\n    tag_176:\n        /* \"--CODEGEN--\":274:275   */\n      0x01\n        /* \"--CODEGEN--\":267:270   */\n      dup4\n        /* \"--CODEGEN--\":263:265   */\n      0x20\n        /* \"--CODEGEN--\":259:271   */\n      sub\n        /* \"--CODEGEN--\":254:257   */\n      0x0100\n        /* \"--CODEGEN--\":250:272   */\n      exp\n        /* \"--CODEGEN--\":246:276   */\n      sub\n        /* \"--CODEGEN--\":315:319   */\n      dup1\n        /* \"--CODEGEN--\":311:320   */\n      not\n        /* \"--CODEGEN--\":305:308   */\n      dup3\n        /* \"--CODEGEN--\":299:309   */\n      mload\n        /* \"--CODEGEN--\":295:321   */\n      and\n        /* \"--CODEGEN--\":356:360   */\n      dup2\n        /* \"--CODEGEN--\":350:353   */\n      dup5\n        /* \"--CODEGEN--\":344:354   */\n      mload\n        /* \"--CODEGEN--\":340:361   */\n      and\n        /* \"--CODEGEN--\":389:396   */\n      dup1\n        /* \"--CODEGEN--\":380:387   */\n      dup3\n        /* \"--CODEGEN--\":377:397   */\n      or\n        /* \"--CODEGEN--\":372:375   */\n      dup6\n        /* \"--CODEGEN--\":365:398   */\n      mstore\n        /* \"--CODEGEN--\":3:402   */\n      pop\n      pop\n      pop\n        /* \"casaApuestas.sol\":11428:11461  abi.encodePacked(respuesta, \": \") */\n      pop\n      pop\n      pop\n      swap1\n      pop\n      add\n      dup1\n      0x3a20000000000000000000000000000000000000000000000000000000000000\n      dup2\n      mstore\n      pop\n      0x02\n      add\n      swap2\n      pop\n      pop\n      mload(0x40)\n        /* \"--CODEGEN--\":49:53   */\n      0x20\n        /* \"--CODEGEN--\":39:46   */\n      dup2\n        /* \"--CODEGEN--\":30:37   */\n      dup4\n        /* \"--CODEGEN--\":26:47   */\n      sub\n        /* \"--CODEGEN--\":22:54   */\n      sub\n        /* \"--CODEGEN--\":13:20   */\n      dup2\n        /* \"--CODEGEN--\":6:55   */\n      mstore\n        /* \"casaApuestas.sol\":11428:11461  abi.encodePacked(respuesta, \": \") */\n      swap1\n      0x40\n      mstore\n        /* \"casaApuestas.sol\":11409:11462  respuesta = string(abi.encodePacked(respuesta, \": \")) */\n      swap2\n      pop\n        /* \"casaApuestas.sol\":11478:11484  uint i */\n      0x00\n        /* \"casaApuestas.sol\":11487:11488  0 */\n      dup1\n        /* \"casaApuestas.sol\":11478:11488  uint i = 0 */\n      swap1\n      pop\n        /* \"casaApuestas.sol\":11473:11865  for (uint i = 0; i < competencias[_codCarrera].length; i++){\r... */\n    tag_177:\n        /* \"casaApuestas.sol\":11494:11506  competencias */\n      0x04\n        /* \"casaApuestas.sol\":11494:11519  competencias[_codCarrera] */\n      0x00\n        /* \"casaApuestas.sol\":11507:11518  _codCarrera */\n      dup8\n        /* \"casaApuestas.sol\":11494:11519  competencias[_codCarrera] */\n      dup2\n      mstore\n      0x20\n      add\n      swap1\n      dup2\n      mstore\n      0x20\n      add\n      0x00\n      keccak256\n        /* \"casaApuestas.sol\":11494:11526  competencias[_codCarrera].length */\n      dup1\n      sload\n      swap1\n      pop\n        /* \"casaApuestas.sol\":11490:11491  i */\n      dup2\n        /* \"casaApuestas.sol\":11490:11526  i < competencias[_codCarrera].length */\n      lt\n        /* \"casaApuestas.sol\":11473:11865  for (uint i = 0; i < competencias[_codCarrera].length; i++){\r... */\n      iszero\n      tag_178\n      jumpi\n        /* \"casaApuestas.sol\":11558:11562  true */\n      0x01\n        /* \"casaApuestas.sol\":11547:11562  contiene = true */\n      swap2\n      pop\n        /* \"casaApuestas.sol\":11613:11622  respuesta */\n      dup3\n        /* \"casaApuestas.sol\":11623:11661  uint2str(competencias[_codCarrera][i]) */\n      tag_180\n        /* \"casaApuestas.sol\":11632:11644  competencias */\n      0x04\n        /* \"casaApuestas.sol\":11632:11657  competencias[_codCarrera] */\n      0x00\n        /* \"casaApuestas.sol\":11645:11656  _codCarrera */\n      dup10\n        /* \"casaApuestas.sol\":11632:11657  competencias[_codCarrera] */\n      dup2\n      mstore\n      0x20\n      add\n      swap1\n      dup2\n      mstore\n      0x20\n      add\n      0x00\n      keccak256\n        /* \"casaApuestas.sol\":11658:11659  i */\n      dup4\n        /* \"casaApuestas.sol\":11632:11660  competencias[_codCarrera][i] */\n      dup2\n      sload\n      dup2\n      lt\n      tag_181\n      jumpi\n      invalid\n    tag_181:\n      swap1\n      0x00\n      mstore\n      keccak256(0x00, 0x20)\n      add\n      sload\n        /* \"casaApuestas.sol\":11623:11631  uint2str */\n      tag_167\n        /* \"casaApuestas.sol\":11623:11661  uint2str(competencias[_codCarrera][i]) */\n      jump\t// in\n    tag_180:\n        /* \"casaApuestas.sol\":11596:11662  abi.encodePacked(respuesta,uint2str(competencias[_codCarrera][i])) */\n      add(0x20, mload(0x40))\n      dup1\n      dup4\n      dup1\n      mload\n      swap1\n      0x20\n      add\n      swap1\n      dup1\n      dup4\n      dup4\n        /* \"--CODEGEN--\":36:189   */\n    tag_183:\n        /* \"--CODEGEN--\":66:68   */\n      0x20\n        /* \"--CODEGEN--\":61:64   */\n      dup4\n        /* \"--CODEGEN--\":58:69   */\n      lt\n        /* \"--CODEGEN--\":36:189   */\n      tag_185\n      jumpi\n        /* \"--CODEGEN--\":182:185   */\n      dup1\n        /* \"--CODEGEN--\":176:186   */\n      mload\n        /* \"--CODEGEN--\":171:174   */\n      dup3\n        /* \"--CODEGEN--\":164:187   */\n      mstore\n        /* \"--CODEGEN--\":98:100   */\n      0x20\n        /* \"--CODEGEN--\":93:96   */\n      dup3\n        /* \"--CODEGEN--\":89:101   */\n      add\n        /* \"--CODEGEN--\":82:101   */\n      swap2\n      pop\n        /* \"--CODEGEN--\":123:125   */\n      0x20\n        /* \"--CODEGEN--\":118:121   */\n      dup2\n        /* \"--CODEGEN--\":114:126   */\n      add\n        /* \"--CODEGEN--\":107:126   */\n      swap1\n      pop\n        /* \"--CODEGEN--\":148:150   */\n      0x20\n        /* \"--CODEGEN--\":143:146   */\n      dup4\n        /* \"--CODEGEN--\":139:151   */\n      sub\n        /* \"--CODEGEN--\":132:151   */\n      swap3\n      pop\n        /* \"--CODEGEN--\":36:189   */\n      jump(tag_183)\n    tag_185:\n        /* \"--CODEGEN--\":274:275   */\n      0x01\n        /* \"--CODEGEN--\":267:270   */\n      dup4\n        /* \"--CODEGEN--\":263:265   */\n      0x20\n        /* \"--CODEGEN--\":259:271   */\n      sub\n        /* \"--CODEGEN--\":254:257   */\n      0x0100\n        /* \"--CODEGEN--\":250:272   */\n      exp\n        /* \"--CODEGEN--\":246:276   */\n      sub\n        /* \"--CODEGEN--\":315:319   */\n      dup1\n        /* \"--CODEGEN--\":311:320   */\n      not\n        /* \"--CODEGEN--\":305:308   */\n      dup3\n        /* \"--CODEGEN--\":299:309   */\n      mload\n        /* \"--CODEGEN--\":295:321   */\n      and\n        /* \"--CODEGEN--\":356:360   */\n      dup2\n        /* \"--CODEGEN--\":350:353   */\n      dup5\n        /* \"--CODEGEN--\":344:354   */\n      mload\n        /* \"--CODEGEN--\":340:361   */\n      and\n        /* \"--CODEGEN--\":389:396   */\n      dup1\n        /* \"--CODEGEN--\":380:387   */\n      dup3\n        /* \"--CODEGEN--\":377:397   */\n      or\n        /* \"--CODEGEN--\":372:375   */\n      dup6\n        /* \"--CODEGEN--\":365:398   */\n      mstore\n        /* \"--CODEGEN--\":3:402   */\n      pop\n      pop\n      pop\n        /* \"casaApuestas.sol\":11596:11662  abi.encodePacked(respuesta,uint2str(competencias[_codCarrera][i])) */\n      pop\n      pop\n      pop\n      swap1\n      pop\n      add\n      dup3\n      dup1\n      mload\n      swap1\n      0x20\n      add\n      swap1\n      dup1\n      dup4\n      dup4\n        /* \"--CODEGEN--\":36:189   */\n    tag_186:\n        /* \"--CODEGEN--\":66:68   */\n      0x20\n        /* \"--CODEGEN--\":61:64   */\n      dup4\n        /* \"--CODEGEN--\":58:69   */\n      lt\n        /* \"--CODEGEN--\":36:189   */\n      tag_188\n      jumpi\n        /* \"--CODEGEN--\":182:185   */\n      dup1\n        /* \"--CODEGEN--\":176:186   */\n      mload\n        /* \"--CODEGEN--\":171:174   */\n      dup3\n        /* \"--CODEGEN--\":164:187   */\n      mstore\n        /* \"--CODEGEN--\":98:100   */\n      0x20\n        /* \"--CODEGEN--\":93:96   */\n      dup3\n        /* \"--CODEGEN--\":89:101   */\n      add\n        /* \"--CODEGEN--\":82:101   */\n      swap2\n      pop\n        /* \"--CODEGEN--\":123:125   */\n      0x20\n        /* \"--CODEGEN--\":118:121   */\n      dup2\n        /* \"--CODEGEN--\":114:126   */\n      add\n        /* \"--CODEGEN--\":107:126   */\n      swap1\n      pop\n        /* \"--CODEGEN--\":148:150   */\n      0x20\n        /* \"--CODEGEN--\":143:146   */\n      dup4\n        /* \"--CODEGEN--\":139:151   */\n      sub\n        /* \"--CODEGEN--\":132:151   */\n      swap3\n      pop\n        /* \"--CODEGEN--\":36:189   */\n      jump(tag_186)\n    tag_188:\n        /* \"--CODEGEN--\":274:275   */\n      0x01\n        /* \"--CODEGEN--\":267:270   */\n      dup4\n        /* \"--CODEGEN--\":263:265   */\n      0x20\n        /* \"--CODEGEN--\":259:271   */\n      sub\n        /* \"--CODEGEN--\":254:257   */\n      0x0100\n        /* \"--CODEGEN--\":250:272   */\n      exp\n        /* \"--CODEGEN--\":246:276   */\n      sub\n        /* \"--CODEGEN--\":315:319   */\n      dup1\n        /* \"--CODEGEN--\":311:320   */\n      not\n        /* \"--CODEGEN--\":305:308   */\n      dup3\n        /* \"--CODEGEN--\":299:309   */\n      mload\n        /* \"--CODEGEN--\":295:321   */\n      and\n        /* \"--CODEGEN--\":356:360   */\n      dup2\n        /* \"--CODEGEN--\":350:353   */\n      dup5\n        /* \"--CODEGEN--\":344:354   */\n      mload\n        /* \"--CODEGEN--\":340:361   */\n      and\n        /* \"--CODEGEN--\":389:396   */\n      dup1\n        /* \"--CODEGEN--\":380:387   */\n      dup3\n        /* \"--CODEGEN--\":377:397   */\n      or\n        /* \"--CODEGEN--\":372:375   */\n      dup6\n        /* \"--CODEGEN--\":365:398   */\n      mstore\n        /* \"--CODEGEN--\":3:402   */\n      pop\n      pop\n      pop\n        /* \"casaApuestas.sol\":11596:11662  abi.encodePacked(respuesta,uint2str(competencias[_codCarrera][i])) */\n      pop\n      pop\n      pop\n      swap1\n      pop\n      add\n      swap3\n      pop\n      pop\n      pop\n      mload(0x40)\n        /* \"--CODEGEN--\":49:53   */\n      0x20\n        /* \"--CODEGEN--\":39:46   */\n      dup2\n        /* \"--CODEGEN--\":30:37   */\n      dup4\n        /* \"--CODEGEN--\":26:47   */\n      sub\n        /* \"--CODEGEN--\":22:54   */\n      sub\n        /* \"--CODEGEN--\":13:20   */\n      dup2\n        /* \"--CODEGEN--\":6:55   */\n      mstore\n        /* \"casaApuestas.sol\":11596:11662  abi.encodePacked(respuesta,uint2str(competencias[_codCarrera][i])) */\n      swap1\n      0x40\n      mstore\n        /* \"casaApuestas.sol\":11577:11663  respuesta = string(abi.encodePacked(respuesta,uint2str(competencias[_codCarrera][i]))) */\n      swap3\n      pop\n        /* \"casaApuestas.sol\":11720:11721  1 */\n      0x01\n        /* \"casaApuestas.sol\":11687:11699  competencias */\n      0x04\n        /* \"casaApuestas.sol\":11687:11712  competencias[_codCarrera] */\n      0x00\n        /* \"casaApuestas.sol\":11700:11711  _codCarrera */\n      dup9\n        /* \"casaApuestas.sol\":11687:11712  competencias[_codCarrera] */\n      dup2\n      mstore\n      0x20\n      add\n      swap1\n      dup2\n      mstore\n      0x20\n      add\n      0x00\n      keccak256\n        /* \"casaApuestas.sol\":11687:11719  competencias[_codCarrera].length */\n      dup1\n      sload\n      swap1\n      pop\n        /* \"casaApuestas.sol\":11687:11721  competencias[_codCarrera].length-1 */\n      sub\n        /* \"casaApuestas.sol\":11682:11683  i */\n      dup2\n        /* \"casaApuestas.sol\":11682:11721  i != competencias[_codCarrera].length-1 */\n      eq\n        /* \"casaApuestas.sol\":11678:11854  if (i != competencias[_codCarrera].length-1){\r... */\n      tag_189\n      jumpi\n        /* \"casaApuestas.sol\":11777:11786  respuesta */\n      dup3\n        /* \"casaApuestas.sol\":11760:11793  abi.encodePacked(respuesta,\" - \") */\n      add(0x20, mload(0x40))\n      dup1\n      dup3\n      dup1\n      mload\n      swap1\n      0x20\n      add\n      swap1\n      dup1\n      dup4\n      dup4\n        /* \"--CODEGEN--\":36:189   */\n    tag_190:\n        /* \"--CODEGEN--\":66:68   */\n      0x20\n        /* \"--CODEGEN--\":61:64   */\n      dup4\n        /* \"--CODEGEN--\":58:69   */\n      lt\n        /* \"--CODEGEN--\":36:189   */\n      tag_192\n      jumpi\n        /* \"--CODEGEN--\":182:185   */\n      dup1\n        /* \"--CODEGEN--\":176:186   */\n      mload\n        /* \"--CODEGEN--\":171:174   */\n      dup3\n        /* \"--CODEGEN--\":164:187   */\n      mstore\n        /* \"--CODEGEN--\":98:100   */\n      0x20\n        /* \"--CODEGEN--\":93:96   */\n      dup3\n        /* \"--CODEGEN--\":89:101   */\n      add\n        /* \"--CODEGEN--\":82:101   */\n      swap2\n      pop\n        /* \"--CODEGEN--\":123:125   */\n      0x20\n        /* \"--CODEGEN--\":118:121   */\n      dup2\n        /* \"--CODEGEN--\":114:126   */\n      add\n        /* \"--CODEGEN--\":107:126   */\n      swap1\n      pop\n        /* \"--CODEGEN--\":148:150   */\n      0x20\n        /* \"--CODEGEN--\":143:146   */\n      dup4\n        /* \"--CODEGEN--\":139:151   */\n      sub\n        /* \"--CODEGEN--\":132:151   */\n      swap3\n      pop\n        /* \"--CODEGEN--\":36:189   */\n      jump(tag_190)\n    tag_192:\n        /* \"--CODEGEN--\":274:275   */\n      0x01\n        /* \"--CODEGEN--\":267:270   */\n      dup4\n        /* \"--CODEGEN--\":263:265   */\n      0x20\n        /* \"--CODEGEN--\":259:271   */\n      sub\n        /* \"--CODEGEN--\":254:257   */\n      0x0100\n        /* \"--CODEGEN--\":250:272   */\n      exp\n        /* \"--CODEGEN--\":246:276   */\n      sub\n        /* \"--CODEGEN--\":315:319   */\n      dup1\n        /* \"--CODEGEN--\":311:320   */\n      not\n        /* \"--CODEGEN--\":305:308   */\n      dup3\n        /* \"--CODEGEN--\":299:309   */\n      mload\n        /* \"--CODEGEN--\":295:321   */\n      and\n        /* \"--CODEGEN--\":356:360   */\n      dup2\n        /* \"--CODEGEN--\":350:353   */\n      dup5\n        /* \"--CODEGEN--\":344:354   */\n      mload\n        /* \"--CODEGEN--\":340:361   */\n      and\n        /* \"--CODEGEN--\":389:396   */\n      dup1\n        /* \"--CODEGEN--\":380:387   */\n      dup3\n        /* \"--CODEGEN--\":377:397   */\n      or\n        /* \"--CODEGEN--\":372:375   */\n      dup6\n        /* \"--CODEGEN--\":365:398   */\n      mstore\n        /* \"--CODEGEN--\":3:402   */\n      pop\n      pop\n      pop\n        /* \"casaApuestas.sol\":11760:11793  abi.encodePacked(respuesta,\" - \") */\n      pop\n      pop\n      pop\n      swap1\n      pop\n      add\n      dup1\n      0x202d200000000000000000000000000000000000000000000000000000000000\n      dup2\n      mstore\n      pop\n      0x03\n      add\n      swap2\n      pop\n      pop\n      mload(0x40)\n        /* \"--CODEGEN--\":49:53   */\n      0x20\n        /* \"--CODEGEN--\":39:46   */\n      dup2\n        /* \"--CODEGEN--\":30:37   */\n      dup4\n        /* \"--CODEGEN--\":26:47   */\n      sub\n        /* \"--CODEGEN--\":22:54   */\n      sub\n        /* \"--CODEGEN--\":13:20   */\n      dup2\n        /* \"--CODEGEN--\":6:55   */\n      mstore\n        /* \"casaApuestas.sol\":11760:11793  abi.encodePacked(respuesta,\" - \") */\n      swap1\n      0x40\n      mstore\n        /* \"casaApuestas.sol\":11741:11794  respuesta = string(abi.encodePacked(respuesta,\" - \")) */\n      swap3\n      pop\n        /* \"casaApuestas.sol\":11678:11854  if (i != competencias[_codCarrera].length-1){\r... */\n      jump(tag_193)\n    tag_189:\n        /* \"casaApuestas.sol\":11833:11838  break */\n      jump(tag_178)\n        /* \"casaApuestas.sol\":11678:11854  if (i != competencias[_codCarrera].length-1){\r... */\n    tag_193:\n        /* \"casaApuestas.sol\":11528:11531  i++ */\n      dup1\n      dup1\n      0x01\n      add\n      swap2\n      pop\n      pop\n        /* \"casaApuestas.sol\":11473:11865  for (uint i = 0; i < competencias[_codCarrera].length; i++){\r... */\n      jump(tag_177)\n    tag_178:\n      pop\n        /* \"casaApuestas.sol\":11880:11888  contiene */\n      dup1\n        /* \"casaApuestas.sol\":11875:12004  if (!contiene){\r... */\n      tag_194\n      jumpi\n        /* \"casaApuestas.sol\":11940:11949  respuesta */\n      dup2\n        /* \"casaApuestas.sol\":11923:11991  abi.encodePacked(respuesta,\"La carrera ingresada no tiene caballos\") */\n      add(0x20, mload(0x40))\n      dup1\n      dup3\n      dup1\n      mload\n      swap1\n      0x20\n      add\n      swap1\n      dup1\n      dup4\n      dup4\n        /* \"--CODEGEN--\":36:189   */\n    tag_195:\n        /* \"--CODEGEN--\":66:68   */\n      0x20\n        /* \"--CODEGEN--\":61:64   */\n      dup4\n        /* \"--CODEGEN--\":58:69   */\n      lt\n        /* \"--CODEGEN--\":36:189   */\n      tag_197\n      jumpi\n        /* \"--CODEGEN--\":182:185   */\n      dup1\n        /* \"--CODEGEN--\":176:186   */\n      mload\n        /* \"--CODEGEN--\":171:174   */\n      dup3\n        /* \"--CODEGEN--\":164:187   */\n      mstore\n        /* \"--CODEGEN--\":98:100   */\n      0x20\n        /* \"--CODEGEN--\":93:96   */\n      dup3\n        /* \"--CODEGEN--\":89:101   */\n      add\n        /* \"--CODEGEN--\":82:101   */\n      swap2\n      pop\n        /* \"--CODEGEN--\":123:125   */\n      0x20\n        /* \"--CODEGEN--\":118:121   */\n      dup2\n        /* \"--CODEGEN--\":114:126   */\n      add\n        /* \"--CODEGEN--\":107:126   */\n      swap1\n      pop\n        /* \"--CODEGEN--\":148:150   */\n      0x20\n        /* \"--CODEGEN--\":143:146   */\n      dup4\n        /* \"--CODEGEN--\":139:151   */\n      sub\n        /* \"--CODEGEN--\":132:151   */\n      swap3\n      pop\n        /* \"--CODEGEN--\":36:189   */\n      jump(tag_195)\n    tag_197:\n        /* \"--CODEGEN--\":274:275   */\n      0x01\n        /* \"--CODEGEN--\":267:270   */\n      dup4\n        /* \"--CODEGEN--\":263:265   */\n      0x20\n        /* \"--CODEGEN--\":259:271   */\n      sub\n        /* \"--CODEGEN--\":254:257   */\n      0x0100\n        /* \"--CODEGEN--\":250:272   */\n      exp\n        /* \"--CODEGEN--\":246:276   */\n      sub\n        /* \"--CODEGEN--\":315:319   */\n      dup1\n        /* \"--CODEGEN--\":311:320   */\n      not\n        /* \"--CODEGEN--\":305:308   */\n      dup3\n        /* \"--CODEGEN--\":299:309   */\n      mload\n        /* \"--CODEGEN--\":295:321   */\n      and\n        /* \"--CODEGEN--\":356:360   */\n      dup2\n        /* \"--CODEGEN--\":350:353   */\n      dup5\n        /* \"--CODEGEN--\":344:354   */\n      mload\n        /* \"--CODEGEN--\":340:361   */\n      and\n        /* \"--CODEGEN--\":389:396   */\n      dup1\n        /* \"--CODEGEN--\":380:387   */\n      dup3\n        /* \"--CODEGEN--\":377:397   */\n      or\n        /* \"--CODEGEN--\":372:375   */\n      dup6\n        /* \"--CODEGEN--\":365:398   */\n      mstore\n        /* \"--CODEGEN--\":3:402   */\n      pop\n      pop\n      pop\n        /* \"casaApuestas.sol\":11923:11991  abi.encodePacked(respuesta,\"La carrera ingresada no tiene caballos\") */\n      pop\n      pop\n      pop\n      swap1\n      pop\n      add\n      dup1\n      data_68cf97aa6bcebf4d7421b6bca309a0adc441ed0fc23124d3a38219dec5dbd40b\n      0x26\n      swap2\n      codecopy\n      0x26\n      add\n      swap2\n      pop\n      pop\n      mload(0x40)\n        /* \"--CODEGEN--\":49:53   */\n      0x20\n        /* \"--CODEGEN--\":39:46   */\n      dup2\n        /* \"--CODEGEN--\":30:37   */\n      dup4\n        /* \"--CODEGEN--\":26:47   */\n      sub\n        /* \"--CODEGEN--\":22:54   */\n      sub\n        /* \"--CODEGEN--\":13:20   */\n      dup2\n        /* \"--CODEGEN--\":6:55   */\n      mstore\n        /* \"casaApuestas.sol\":11923:11991  abi.encodePacked(respuesta,\"La carrera ingresada no tiene caballos\") */\n      swap1\n      0x40\n      mstore\n        /* \"casaApuestas.sol\":11904:11992  respuesta = string(abi.encodePacked(respuesta,\"La carrera ingresada no tiene caballos\")) */\n      swap2\n      pop\n        /* \"casaApuestas.sol\":11875:12004  if (!contiene){\r... */\n    tag_194:\n        /* \"casaApuestas.sol\":12022:12031  respuesta */\n      dup2\n        /* \"casaApuestas.sol\":12014:12032  return (respuesta) */\n      swap4\n      pop\n      pop\n      pop\n        /* \"casaApuestas.sol\":11101:12040  function getCaballosEnCarrera(uint _codCarrera) public \r... */\n      pop\n      swap2\n      swap1\n      pop\n      jump\t// out\n        /* \"casaApuestas.sol\":5897:6283  function registrarEnCarrera(uint _codCaballo, uint _codCarrera) public \r... */\n    tag_36:\n        /* \"casaApuestas.sol\":1736:1745  anfitrion */\n      0x00\n      dup1\n      swap1\n      sload\n      swap1\n      0x0100\n      exp\n      swap1\n      div\n      0xffffffffffffffffffffffffffffffffffffffff\n      and\n        /* \"casaApuestas.sol\":1722:1745  msg.sender == anfitrion */\n      0xffffffffffffffffffffffffffffffffffffffff\n      and\n        /* \"casaApuestas.sol\":1722:1732  msg.sender */\n      caller\n        /* \"casaApuestas.sol\":1722:1745  msg.sender == anfitrion */\n      0xffffffffffffffffffffffffffffffffffffffff\n      and\n      eq\n        /* \"casaApuestas.sol\":1714:1784  require(msg.sender == anfitrion, \"El invocador debe ser el anfitrion\") */\n      tag_199\n      jumpi\n      mload(0x40)\n      0x08c379a000000000000000000000000000000000000000000000000000000000\n      dup2\n      mstore\n      0x04\n      add\n      dup1\n      dup1\n      0x20\n      add\n      dup3\n      dup2\n      sub\n      dup3\n      mstore\n      0x22\n      dup2\n      mstore\n      0x20\n      add\n      dup1\n      data_445dd79b894b98a34a1cc7c38a5bd2de2e19478d6390b1e445457362fd7001d8\n      0x22\n      swap2\n      codecopy\n      0x40\n      add\n      swap2\n      pop\n      pop\n      mload(0x40)\n      dup1\n      swap2\n      sub\n      swap1\n      revert\n    tag_199:\n        /* \"casaApuestas.sol\":6001:6012  _codCarrera */\n      dup1\n        /* \"casaApuestas.sol\":6014:6027  Estado.Creada */\n      0x00\n        /* \"casaApuestas.sol\":2202:2209  _estado */\n      dup1\n        /* \"casaApuestas.sol\":2163:2209  carreras[_codCarrera].estadoCarrera == _estado */\n      0x02\n      dup2\n      gt\n      iszero\n      tag_201\n      jumpi\n      invalid\n    tag_201:\n        /* \"casaApuestas.sol\":2163:2171  carreras */\n      0x02\n        /* \"casaApuestas.sol\":2163:2184  carreras[_codCarrera] */\n      0x00\n        /* \"casaApuestas.sol\":2172:2183  _codCarrera */\n      dup5\n        /* \"casaApuestas.sol\":2163:2184  carreras[_codCarrera] */\n      dup2\n      mstore\n      0x20\n      add\n      swap1\n      dup2\n      mstore\n      0x20\n      add\n      0x00\n      keccak256\n        /* \"casaApuestas.sol\":2163:2198  carreras[_codCarrera].estadoCarrera */\n      0x02\n      add\n      0x00\n      swap1\n      sload\n      swap1\n      0x0100\n      exp\n      swap1\n      div\n      0xff\n      and\n        /* \"casaApuestas.sol\":2163:2209  carreras[_codCarrera].estadoCarrera == _estado */\n      0x02\n      dup2\n      gt\n      iszero\n      tag_202\n      jumpi\n      invalid\n    tag_202:\n      eq\n        /* \"casaApuestas.sol\":2155:2258  require(carreras[_codCarrera].estadoCarrera == _estado, \"La carrera no cumple con el estado requerido\") */\n      tag_203\n      jumpi\n      mload(0x40)\n      0x08c379a000000000000000000000000000000000000000000000000000000000\n      dup2\n      mstore\n      0x04\n      add\n      dup1\n      dup1\n      0x20\n      add\n      dup3\n      dup2\n      sub\n      dup3\n      mstore\n      0x2c\n      dup2\n      mstore\n      0x20\n      add\n      dup1\n      data_e91ca438e9e3f1e0e0a5b1a72a508ed5ae254b3cb59572817ac1ec6e2a488952\n      0x2c\n      swap2\n      codecopy\n      0x40\n      add\n      swap2\n      pop\n      pop\n      mload(0x40)\n      dup1\n      swap2\n      sub\n      swap1\n      revert\n    tag_203:\n        /* \"casaApuestas.sol\":6044:6055  _codCarrera */\n      dup3\n        /* \"casaApuestas.sol\":2433:2434  5 */\n      0x05\n        /* \"casaApuestas.sol\":2398:2410  competencias */\n      0x04\n        /* \"casaApuestas.sol\":2398:2423  competencias[_codCarrera] */\n      0x00\n        /* \"casaApuestas.sol\":2411:2422  _codCarrera */\n      dup4\n        /* \"casaApuestas.sol\":2398:2423  competencias[_codCarrera] */\n      dup2\n      mstore\n      0x20\n      add\n      swap1\n      dup2\n      mstore\n      0x20\n      add\n      0x00\n      keccak256\n        /* \"casaApuestas.sol\":2398:2430  competencias[_codCarrera].length */\n      dup1\n      sload\n      swap1\n      pop\n        /* \"casaApuestas.sol\":2398:2434  competencias[_codCarrera].length < 5 */\n      lt\n        /* \"casaApuestas.sol\":2390:2474  require(competencias[_codCarrera].length < 5, \"La carrera ya cuenta con 5 caballos\") */\n      tag_205\n      jumpi\n      mload(0x40)\n      0x08c379a000000000000000000000000000000000000000000000000000000000\n      dup2\n      mstore\n      0x04\n      add\n      dup1\n      dup1\n      0x20\n      add\n      dup3\n      dup2\n      sub\n      dup3\n      mstore\n      0x23\n      dup2\n      mstore\n      0x20\n      add\n      dup1\n      data_48cf4ac7fcb22fd30a2178e5656f2b40afd30f2764f5b3cd17a43f9dd083aee5\n      0x23\n      swap2\n      codecopy\n      0x40\n      add\n      swap2\n      pop\n      pop\n      mload(0x40)\n      dup1\n      swap2\n      sub\n      swap1\n      revert\n    tag_205:\n        /* \"casaApuestas.sol\":6076:6087  _codCaballo */\n      dup5\n        /* \"casaApuestas.sol\":2886:2887  0 */\n      0x00\n        /* \"casaApuestas.sol\":2846:2854  caballos */\n      0x03\n        /* \"casaApuestas.sol\":2846:2867  caballos[_codCaballo] */\n      0x00\n        /* \"casaApuestas.sol\":2855:2866  _codCaballo */\n      dup4\n        /* \"casaApuestas.sol\":2846:2867  caballos[_codCaballo] */\n      dup2\n      mstore\n      0x20\n      add\n      swap1\n      dup2\n      mstore\n      0x20\n      add\n      0x00\n      keccak256\n        /* \"casaApuestas.sol\":2846:2874  caballos[_codCaballo].nombre */\n      0x01\n      add\n        /* \"casaApuestas.sol\":2840:2882  bytes(caballos[_codCaballo].nombre).length */\n      dup1\n      sload\n      0x01\n      dup2\n      0x01\n      and\n      iszero\n      0x0100\n      mul\n      sub\n      and\n      0x02\n      swap1\n      div\n      swap1\n      pop\n        /* \"casaApuestas.sol\":2840:2887  bytes(caballos[_codCaballo].nombre).length != 0 */\n      eq\n      iszero\n        /* \"casaApuestas.sol\":2832:2922  require(bytes(caballos[_codCaballo].nombre).length != 0, \"El caballo ingresado no existe\") */\n      tag_207\n      jumpi\n      mload(0x40)\n      0x08c379a000000000000000000000000000000000000000000000000000000000\n      dup2\n      mstore\n      0x04\n      add\n      dup1\n      dup1\n      0x20\n      add\n      dup3\n      dup2\n      sub\n      dup3\n      mstore\n      0x1e\n      dup2\n      mstore\n      0x20\n      add\n      dup1\n      0x456c20636162616c6c6f20696e6772657361646f206e6f206578697374650000\n      dup2\n      mstore\n      pop\n      0x20\n      add\n      swap2\n      pop\n      pop\n      mload(0x40)\n      dup1\n      swap2\n      sub\n      swap1\n      revert\n    tag_207:\n        /* \"casaApuestas.sol\":6108:6119  _codCarrera */\n      dup5\n        /* \"casaApuestas.sol\":3094:3095  0 */\n      0x00\n        /* \"casaApuestas.sol\":3054:3062  carreras */\n      0x02\n        /* \"casaApuestas.sol\":3054:3075  carreras[_codCarrera] */\n      0x00\n        /* \"casaApuestas.sol\":3063:3074  _codCarrera */\n      dup4\n        /* \"casaApuestas.sol\":3054:3075  carreras[_codCarrera] */\n      dup2\n      mstore\n      0x20\n      add\n      swap1\n      dup2\n      mstore\n      0x20\n      add\n      0x00\n      keccak256\n        /* \"casaApuestas.sol\":3054:3082  carreras[_codCarrera].nombre */\n      0x01\n      add\n        /* \"casaApuestas.sol\":3048:3090  bytes(carreras[_codCarrera].nombre).length */\n      dup1\n      sload\n      0x01\n      dup2\n      0x01\n      and\n      iszero\n      0x0100\n      mul\n      sub\n      and\n      0x02\n      swap1\n      div\n      swap1\n      pop\n        /* \"casaApuestas.sol\":3048:3095  bytes(carreras[_codCarrera].nombre).length != 0 */\n      eq\n      iszero\n        /* \"casaApuestas.sol\":3040:3130  require(bytes(carreras[_codCarrera].nombre).length != 0, \"La carrera ingresada no existe\") */\n      tag_209\n      jumpi\n      mload(0x40)\n      0x08c379a000000000000000000000000000000000000000000000000000000000\n      dup2\n      mstore\n      0x04\n      add\n      dup1\n      dup1\n      0x20\n      add\n      dup3\n      dup2\n      sub\n      dup3\n      mstore\n      0x1e\n      dup2\n      mstore\n      0x20\n      add\n      dup1\n      0x4c61206361727265726120696e67726573616461206e6f206578697374650000\n      dup2\n      mstore\n      pop\n      0x20\n      add\n      swap2\n      pop\n      pop\n      mload(0x40)\n      dup1\n      swap2\n      sub\n      swap1\n      revert\n    tag_209:\n        /* \"casaApuestas.sol\":6144:6155  _codCarrera */\n      dup6\n        /* \"casaApuestas.sol\":6157:6168  _codCaballo */\n      dup8\n        /* \"casaApuestas.sol\":3783:3800  uint cantCaballos */\n      0x00\n        /* \"casaApuestas.sol\":3803:3815  competencias */\n      0x04\n        /* \"casaApuestas.sol\":3803:3828  competencias[_codCarrera] */\n      0x00\n        /* \"casaApuestas.sol\":3816:3827  _codCarrera */\n      dup5\n        /* \"casaApuestas.sol\":3803:3828  competencias[_codCarrera] */\n      dup2\n      mstore\n      0x20\n      add\n      swap1\n      dup2\n      mstore\n      0x20\n      add\n      0x00\n      keccak256\n        /* \"casaApuestas.sol\":3803:3835  competencias[_codCarrera].length */\n      dup1\n      sload\n      swap1\n      pop\n        /* \"casaApuestas.sol\":3783:3835  uint cantCaballos = competencias[_codCarrera].length */\n      swap1\n      pop\n        /* \"casaApuestas.sol\":3846:3861  bool caballoRep */\n      0x00\n        /* \"casaApuestas.sol\":3864:3869  false */\n      dup1\n        /* \"casaApuestas.sol\":3846:3869  bool caballoRep = false */\n      swap1\n      pop\n        /* \"casaApuestas.sol\":3884:3890  uint i */\n      0x00\n        /* \"casaApuestas.sol\":3893:3894  0 */\n      dup1\n        /* \"casaApuestas.sol\":3884:3894  uint i = 0 */\n      swap1\n      pop\n        /* \"casaApuestas.sol\":3880:4067  for(uint i = 0; i < cantCaballos; i++){\r... */\n    tag_211:\n        /* \"casaApuestas.sol\":3900:3912  cantCaballos */\n      dup3\n        /* \"casaApuestas.sol\":3896:3897  i */\n      dup2\n        /* \"casaApuestas.sol\":3896:3912  i < cantCaballos */\n      lt\n        /* \"casaApuestas.sol\":3880:4067  for(uint i = 0; i < cantCaballos; i++){\r... */\n      iszero\n      tag_212\n      jumpi\n        /* \"casaApuestas.sol\":3968:3979  _codCaballo */\n      dup4\n        /* \"casaApuestas.sol\":3936:3948  competencias */\n      0x04\n        /* \"casaApuestas.sol\":3936:3961  competencias[_codCarrera] */\n      0x00\n        /* \"casaApuestas.sol\":3949:3960  _codCarrera */\n      dup8\n        /* \"casaApuestas.sol\":3936:3961  competencias[_codCarrera] */\n      dup2\n      mstore\n      0x20\n      add\n      swap1\n      dup2\n      mstore\n      0x20\n      add\n      0x00\n      keccak256\n        /* \"casaApuestas.sol\":3962:3963  i */\n      dup3\n        /* \"casaApuestas.sol\":3936:3964  competencias[_codCarrera][i] */\n      dup2\n      sload\n      dup2\n      lt\n      tag_214\n      jumpi\n      invalid\n    tag_214:\n      swap1\n      0x00\n      mstore\n      keccak256(0x00, 0x20)\n      add\n      sload\n        /* \"casaApuestas.sol\":3936:3979  competencias[_codCarrera][i] == _codCaballo */\n      eq\n        /* \"casaApuestas.sol\":3933:4056  if(competencias[_codCarrera][i] == _codCaballo){\r... */\n      iszero\n      tag_216\n      jumpi\n        /* \"casaApuestas.sol\":4012:4016  true */\n      0x01\n        /* \"casaApuestas.sol\":3999:4016  caballoRep = true */\n      swap2\n      pop\n        /* \"casaApuestas.sol\":4035:4040  break */\n      jump(tag_212)\n        /* \"casaApuestas.sol\":3933:4056  if(competencias[_codCarrera][i] == _codCaballo){\r... */\n    tag_216:\n        /* \"casaApuestas.sol\":3914:3917  i++ */\n      dup1\n      dup1\n      0x01\n      add\n      swap2\n      pop\n      pop\n        /* \"casaApuestas.sol\":3880:4067  for(uint i = 0; i < cantCaballos; i++){\r... */\n      jump(tag_211)\n    tag_212:\n      pop\n        /* \"casaApuestas.sol\":4086:4096  caballoRep */\n      dup1\n        /* \"casaApuestas.sol\":4085:4096  !caballoRep */\n      iszero\n        /* \"casaApuestas.sol\":4077:4156  require(!caballoRep, \"Este caballo ya se encuentra registrado en esta carrera\") */\n      tag_217\n      jumpi\n      mload(0x40)\n      0x08c379a000000000000000000000000000000000000000000000000000000000\n      dup2\n      mstore\n      0x04\n      add\n      dup1\n      dup1\n      0x20\n      add\n      dup3\n      dup2\n      sub\n      dup3\n      mstore\n      0x37\n      dup2\n      mstore\n      0x20\n      add\n      dup1\n      data_dd2593dc49389a3dc12e11d6acb11a1c405e488c123ae730810838cacb526339\n      0x37\n      swap2\n      codecopy\n      0x40\n      add\n      swap2\n      pop\n      pop\n      mload(0x40)\n      dup1\n      swap2\n      sub\n      swap1\n      revert\n    tag_217:\n        /* \"casaApuestas.sol\":6180:6192  competencias */\n      0x04\n        /* \"casaApuestas.sol\":6180:6205  competencias[_codCarrera] */\n      0x00\n        /* \"casaApuestas.sol\":6193:6204  _codCarrera */\n      dup12\n        /* \"casaApuestas.sol\":6180:6205  competencias[_codCarrera] */\n      dup2\n      mstore\n      0x20\n      add\n      swap1\n      dup2\n      mstore\n      0x20\n      add\n      0x00\n      keccak256\n        /* \"casaApuestas.sol\":6211:6222  _codCaballo */\n      dup12\n        /* \"casaApuestas.sol\":6180:6223  competencias[_codCarrera].push(_codCaballo) */\n      swap1\n      dup1\n        /* \"--CODEGEN--\":39:40   */\n      0x01\n        /* \"--CODEGEN--\":33:36   */\n      dup2\n        /* \"--CODEGEN--\":27:37   */\n      sload\n        /* \"--CODEGEN--\":23:41   */\n      add\n        /* \"--CODEGEN--\":57:67   */\n      dup1\n        /* \"--CODEGEN--\":52:55   */\n      dup3\n        /* \"--CODEGEN--\":45:68   */\n      sstore\n        /* \"--CODEGEN--\":79:89   */\n      dup1\n        /* \"--CODEGEN--\":72:89   */\n      swap2\n      pop\n        /* \"--CODEGEN--\":0:93   */\n      pop\n        /* \"casaApuestas.sol\":6180:6223  competencias[_codCarrera].push(_codCaballo) */\n      0x01\n      swap1\n      sub\n      swap1\n      0x00\n      mstore\n      keccak256(0x00, 0x20)\n      add\n      0x00\n      swap1\n      swap2\n      swap1\n      swap2\n      swap1\n      swap2\n      pop\n      sstore\n        /* \"casaApuestas.sol\":6274:6275  1 */\n      0x01\n        /* \"casaApuestas.sol\":6234:6242  carreras */\n      0x02\n        /* \"casaApuestas.sol\":6234:6255  carreras[_codCarrera] */\n      0x00\n        /* \"casaApuestas.sol\":6243:6254  _codCarrera */\n      dup13\n        /* \"casaApuestas.sol\":6234:6255  carreras[_codCarrera] */\n      dup2\n      mstore\n      0x20\n      add\n      swap1\n      dup2\n      mstore\n      0x20\n      add\n      0x00\n      keccak256\n        /* \"casaApuestas.sol\":6234:6270  carreras[_codCarrera].numeroCaballos */\n      0x04\n      add\n      0x00\n        /* \"casaApuestas.sol\":6234:6275  carreras[_codCarrera].numeroCaballos += 1 */\n      dup3\n      dup3\n      sload\n      add\n      swap3\n      pop\n      pop\n      dup2\n      swap1\n      sstore\n      pop\n        /* \"casaApuestas.sol\":3141:3142  _ */\n      pop\n      pop\n      pop\n      pop\n        /* \"casaApuestas.sol\":2933:2934  _ */\n      pop\n        /* \"casaApuestas.sol\":2485:2486  _ */\n      pop\n        /* \"casaApuestas.sol\":2269:2270  _ */\n      pop\n        /* \"casaApuestas.sol\":1795:1796  _ */\n      pop\n      pop\n        /* \"casaApuestas.sol\":5897:6283  function registrarEnCarrera(uint _codCaballo, uint _codCarrera) public \r... */\n      pop\n      pop\n      jump\t// out\n        /* \"casaApuestas.sol\":12149:13382  function getApostadorGanador(uint _codCarrera) public \r... */\n    tag_40:\n        /* \"casaApuestas.sol\":12334:12347  string memory */\n      0x60\n        /* \"casaApuestas.sol\":12223:12234  _codCarrera */\n      dup2\n        /* \"casaApuestas.sol\":3094:3095  0 */\n      0x00\n        /* \"casaApuestas.sol\":3054:3062  carreras */\n      0x02\n        /* \"casaApuestas.sol\":3054:3075  carreras[_codCarrera] */\n      0x00\n        /* \"casaApuestas.sol\":3063:3074  _codCarrera */\n      dup4\n        /* \"casaApuestas.sol\":3054:3075  carreras[_codCarrera] */\n      dup2\n      mstore\n      0x20\n      add\n      swap1\n      dup2\n      mstore\n      0x20\n      add\n      0x00\n      keccak256\n        /* \"casaApuestas.sol\":3054:3082  carreras[_codCarrera].nombre */\n      0x01\n      add\n        /* \"casaApuestas.sol\":3048:3090  bytes(carreras[_codCarrera].nombre).length */\n      dup1\n      sload\n      0x01\n      dup2\n      0x01\n      and\n      iszero\n      0x0100\n      mul\n      sub\n      and\n      0x02\n      swap1\n      div\n      swap1\n      pop\n        /* \"casaApuestas.sol\":3048:3095  bytes(carreras[_codCarrera].nombre).length != 0 */\n      eq\n      iszero\n        /* \"casaApuestas.sol\":3040:3130  require(bytes(carreras[_codCarrera].nombre).length != 0, \"La carrera ingresada no existe\") */\n      tag_221\n      jumpi\n      mload(0x40)\n      0x08c379a000000000000000000000000000000000000000000000000000000000\n      dup2\n      mstore\n      0x04\n      add\n      dup1\n      dup1\n      0x20\n      add\n      dup3\n      dup2\n      sub\n      dup3\n      mstore\n      0x1e\n      dup2\n      mstore\n      0x20\n      add\n      dup1\n      0x4c61206361727265726120696e67726573616461206e6f206578697374650000\n      dup2\n      mstore\n      pop\n      0x20\n      add\n      swap2\n      pop\n      pop\n      mload(0x40)\n      dup1\n      swap2\n      sub\n      swap1\n      revert\n    tag_221:\n        /* \"casaApuestas.sol\":12251:12262  _codCarrera */\n      dup3\n        /* \"casaApuestas.sol\":12264:12280  Estado.Terminada */\n      0x02\n        /* \"casaApuestas.sol\":2202:2209  _estado */\n      dup1\n        /* \"casaApuestas.sol\":2163:2209  carreras[_codCarrera].estadoCarrera == _estado */\n      0x02\n      dup2\n      gt\n      iszero\n      tag_223\n      jumpi\n      invalid\n    tag_223:\n        /* \"casaApuestas.sol\":2163:2171  carreras */\n      0x02\n        /* \"casaApuestas.sol\":2163:2184  carreras[_codCarrera] */\n      0x00\n        /* \"casaApuestas.sol\":2172:2183  _codCarrera */\n      dup5\n        /* \"casaApuestas.sol\":2163:2184  carreras[_codCarrera] */\n      dup2\n      mstore\n      0x20\n      add\n      swap1\n      dup2\n      mstore\n      0x20\n      add\n      0x00\n      keccak256\n        /* \"casaApuestas.sol\":2163:2198  carreras[_codCarrera].estadoCarrera */\n      0x02\n      add\n      0x00\n      swap1\n      sload\n      swap1\n      0x0100\n      exp\n      swap1\n      div\n      0xff\n      and\n        /* \"casaApuestas.sol\":2163:2209  carreras[_codCarrera].estadoCarrera == _estado */\n      0x02\n      dup2\n      gt\n      iszero\n      tag_224\n      jumpi\n      invalid\n    tag_224:\n      eq\n        /* \"casaApuestas.sol\":2155:2258  require(carreras[_codCarrera].estadoCarrera == _estado, \"La carrera no cumple con el estado requerido\") */\n      tag_225\n      jumpi\n      mload(0x40)\n      0x08c379a000000000000000000000000000000000000000000000000000000000\n      dup2\n      mstore\n      0x04\n      add\n      dup1\n      dup1\n      0x20\n      add\n      dup3\n      dup2\n      sub\n      dup3\n      mstore\n      0x2c\n      dup2\n      mstore\n      0x20\n      add\n      dup1\n      data_e91ca438e9e3f1e0e0a5b1a72a508ed5ae254b3cb59572817ac1ec6e2a488952\n      0x2c\n      swap2\n      codecopy\n      0x40\n      add\n      swap2\n      pop\n      pop\n      mload(0x40)\n      dup1\n      swap2\n      sub\n      swap1\n      revert\n    tag_225:\n        /* \"casaApuestas.sol\":12303:12314  _codCarrera */\n      dup5\n        /* \"casaApuestas.sol\":5103:5104  0 */\n      0x00\n        /* \"casaApuestas.sol\":5069:5080  apostadores */\n      0x05\n        /* \"casaApuestas.sol\":5069:5093  apostadores[_codCarrera] */\n      0x00\n        /* \"casaApuestas.sol\":5081:5092  _codCarrera */\n      dup4\n        /* \"casaApuestas.sol\":5069:5093  apostadores[_codCarrera] */\n      dup2\n      mstore\n      0x20\n      add\n      swap1\n      dup2\n      mstore\n      0x20\n      add\n      0x00\n      keccak256\n        /* \"casaApuestas.sol\":5069:5100  apostadores[_codCarrera].length */\n      dup1\n      sload\n      swap1\n      pop\n        /* \"casaApuestas.sol\":5069:5104  apostadores[_codCarrera].length > 0 */\n      gt\n        /* \"casaApuestas.sol\":5061:5150  require(apostadores[_codCarrera].length > 0, \"La carrera ingresada no tiene apostadores\") */\n      tag_227\n      jumpi\n      mload(0x40)\n      0x08c379a000000000000000000000000000000000000000000000000000000000\n      dup2\n      mstore\n      0x04\n      add\n      dup1\n      dup1\n      0x20\n      add\n      dup3\n      dup2\n      sub\n      dup3\n      mstore\n      0x29\n      dup2\n      mstore\n      0x20\n      add\n      dup1\n      data_90d24e0daaf5dcc457b4940b4ca16d8fd57765162f8ffee460d8a22da7c775e1\n      0x29\n      swap2\n      codecopy\n      0x40\n      add\n      swap2\n      pop\n      pop\n      mload(0x40)\n      dup1\n      swap2\n      sub\n      swap1\n      revert\n    tag_227:\n        /* \"casaApuestas.sol\":12359:12382  string memory respuesta */\n      0x60\n        /* \"casaApuestas.sol\":12359:12412  string memory respuesta = \"Ganadores en la carrera #\" */\n      mload(0x40)\n      dup1\n      0x40\n      add\n      0x40\n      mstore\n      dup1\n      0x19\n      dup2\n      mstore\n      0x20\n      add\n      0x47616e61646f72657320656e206c612063617272657261202300000000000000\n      dup2\n      mstore\n      pop\n      swap1\n      pop\n        /* \"casaApuestas.sol\":12423:12436  bool contiene */\n      0x00\n        /* \"casaApuestas.sol\":12439:12444  false */\n      dup1\n        /* \"casaApuestas.sol\":12423:12444  bool contiene = false */\n      swap1\n      pop\n        /* \"casaApuestas.sol\":12491:12500  respuesta */\n      dup2\n        /* \"casaApuestas.sol\":12502:12523  uint2str(_codCarrera) */\n      tag_229\n        /* \"casaApuestas.sol\":12511:12522  _codCarrera */\n      dup10\n        /* \"casaApuestas.sol\":12502:12510  uint2str */\n      tag_167\n        /* \"casaApuestas.sol\":12502:12523  uint2str(_codCarrera) */\n      jump\t// in\n    tag_229:\n        /* \"casaApuestas.sol\":12474:12524  abi.encodePacked(respuesta, uint2str(_codCarrera)) */\n      add(0x20, mload(0x40))\n      dup1\n      dup4\n      dup1\n      mload\n      swap1\n      0x20\n      add\n      swap1\n      dup1\n      dup4\n      dup4\n        /* \"--CODEGEN--\":36:189   */\n    tag_230:\n        /* \"--CODEGEN--\":66:68   */\n      0x20\n        /* \"--CODEGEN--\":61:64   */\n      dup4\n        /* \"--CODEGEN--\":58:69   */\n      lt\n        /* \"--CODEGEN--\":36:189   */\n      tag_232\n      jumpi\n        /* \"--CODEGEN--\":182:185   */\n      dup1\n        /* \"--CODEGEN--\":176:186   */\n      mload\n        /* \"--CODEGEN--\":171:174   */\n      dup3\n        /* \"--CODEGEN--\":164:187   */\n      mstore\n        /* \"--CODEGEN--\":98:100   */\n      0x20\n        /* \"--CODEGEN--\":93:96   */\n      dup3\n        /* \"--CODEGEN--\":89:101   */\n      add\n        /* \"--CODEGEN--\":82:101   */\n      swap2\n      pop\n        /* \"--CODEGEN--\":123:125   */\n      0x20\n        /* \"--CODEGEN--\":118:121   */\n      dup2\n        /* \"--CODEGEN--\":114:126   */\n      add\n        /* \"--CODEGEN--\":107:126   */\n      swap1\n      pop\n        /* \"--CODEGEN--\":148:150   */\n      0x20\n        /* \"--CODEGEN--\":143:146   */\n      dup4\n        /* \"--CODEGEN--\":139:151   */\n      sub\n        /* \"--CODEGEN--\":132:151   */\n      swap3\n      pop\n        /* \"--CODEGEN--\":36:189   */\n      jump(tag_230)\n    tag_232:\n        /* \"--CODEGEN--\":274:275   */\n      0x01\n        /* \"--CODEGEN--\":267:270   */\n      dup4\n        /* \"--CODEGEN--\":263:265   */\n      0x20\n        /* \"--CODEGEN--\":259:271   */\n      sub\n        /* \"--CODEGEN--\":254:257   */\n      0x0100\n        /* \"--CODEGEN--\":250:272   */\n      exp\n        /* \"--CODEGEN--\":246:276   */\n      sub\n        /* \"--CODEGEN--\":315:319   */\n      dup1\n        /* \"--CODEGEN--\":311:320   */\n      not\n        /* \"--CODEGEN--\":305:308   */\n      dup3\n        /* \"--CODEGEN--\":299:309   */\n      mload\n        /* \"--CODEGEN--\":295:321   */\n      and\n        /* \"--CODEGEN--\":356:360   */\n      dup2\n        /* \"--CODEGEN--\":350:353   */\n      dup5\n        /* \"--CODEGEN--\":344:354   */\n      mload\n        /* \"--CODEGEN--\":340:361   */\n      and\n        /* \"--CODEGEN--\":389:396   */\n      dup1\n        /* \"--CODEGEN--\":380:387   */\n      dup3\n        /* \"--CODEGEN--\":377:397   */\n      or\n        /* \"--CODEGEN--\":372:375   */\n      dup6\n        /* \"--CODEGEN--\":365:398   */\n      mstore\n        /* \"--CODEGEN--\":3:402   */\n      pop\n      pop\n      pop\n        /* \"casaApuestas.sol\":12474:12524  abi.encodePacked(respuesta, uint2str(_codCarrera)) */\n      pop\n      pop\n      pop\n      swap1\n      pop\n      add\n      dup3\n      dup1\n      mload\n      swap1\n      0x20\n      add\n      swap1\n      dup1\n      dup4\n      dup4\n        /* \"--CODEGEN--\":36:189   */\n    tag_233:\n        /* \"--CODEGEN--\":66:68   */\n      0x20\n        /* \"--CODEGEN--\":61:64   */\n      dup4\n        /* \"--CODEGEN--\":58:69   */\n      lt\n        /* \"--CODEGEN--\":36:189   */\n      tag_235\n      jumpi\n        /* \"--CODEGEN--\":182:185   */\n      dup1\n        /* \"--CODEGEN--\":176:186   */\n      mload\n        /* \"--CODEGEN--\":171:174   */\n      dup3\n        /* \"--CODEGEN--\":164:187   */\n      mstore\n        /* \"--CODEGEN--\":98:100   */\n      0x20\n        /* \"--CODEGEN--\":93:96   */\n      dup3\n        /* \"--CODEGEN--\":89:101   */\n      add\n        /* \"--CODEGEN--\":82:101   */\n      swap2\n      pop\n        /* \"--CODEGEN--\":123:125   */\n      0x20\n        /* \"--CODEGEN--\":118:121   */\n      dup2\n        /* \"--CODEGEN--\":114:126   */\n      add\n        /* \"--CODEGEN--\":107:126   */\n      swap1\n      pop\n        /* \"--CODEGEN--\":148:150   */\n      0x20\n        /* \"--CODEGEN--\":143:146   */\n      dup4\n        /* \"--CODEGEN--\":139:151   */\n      sub\n        /* \"--CODEGEN--\":132:151   */\n      swap3\n      pop\n        /* \"--CODEGEN--\":36:189   */\n      jump(tag_233)\n    tag_235:\n        /* \"--CODEGEN--\":274:275   */\n      0x01\n        /* \"--CODEGEN--\":267:270   */\n      dup4\n        /* \"--CODEGEN--\":263:265   */\n      0x20\n        /* \"--CODEGEN--\":259:271   */\n      sub\n        /* \"--CODEGEN--\":254:257   */\n      0x0100\n        /* \"--CODEGEN--\":250:272   */\n      exp\n        /* \"--CODEGEN--\":246:276   */\n      sub\n        /* \"--CODEGEN--\":315:319   */\n      dup1\n        /* \"--CODEGEN--\":311:320   */\n      not\n        /* \"--CODEGEN--\":305:308   */\n      dup3\n        /* \"--CODEGEN--\":299:309   */\n      mload\n        /* \"--CODEGEN--\":295:321   */\n      and\n        /* \"--CODEGEN--\":356:360   */\n      dup2\n        /* \"--CODEGEN--\":350:353   */\n      dup5\n        /* \"--CODEGEN--\":344:354   */\n      mload\n        /* \"--CODEGEN--\":340:361   */\n      and\n        /* \"--CODEGEN--\":389:396   */\n      dup1\n        /* \"--CODEGEN--\":380:387   */\n      dup3\n        /* \"--CODEGEN--\":377:397   */\n      or\n        /* \"--CODEGEN--\":372:375   */\n      dup6\n        /* \"--CODEGEN--\":365:398   */\n      mstore\n        /* \"--CODEGEN--\":3:402   */\n      pop\n      pop\n      pop\n        /* \"casaApuestas.sol\":12474:12524  abi.encodePacked(respuesta, uint2str(_codCarrera)) */\n      pop\n      pop\n      pop\n      swap1\n      pop\n      add\n      swap3\n      pop\n      pop\n      pop\n      mload(0x40)\n        /* \"--CODEGEN--\":49:53   */\n      0x20\n        /* \"--CODEGEN--\":39:46   */\n      dup2\n        /* \"--CODEGEN--\":30:37   */\n      dup4\n        /* \"--CODEGEN--\":26:47   */\n      sub\n        /* \"--CODEGEN--\":22:54   */\n      sub\n        /* \"--CODEGEN--\":13:20   */\n      dup2\n        /* \"--CODEGEN--\":6:55   */\n      mstore\n        /* \"casaApuestas.sol\":12474:12524  abi.encodePacked(respuesta, uint2str(_codCarrera)) */\n      swap1\n      0x40\n      mstore\n        /* \"casaApuestas.sol\":12455:12525  respuesta = string(abi.encodePacked(respuesta, uint2str(_codCarrera))) */\n      swap2\n      pop\n        /* \"casaApuestas.sol\":12572:12581  respuesta */\n      dup2\n        /* \"casaApuestas.sol\":12555:12588  abi.encodePacked(respuesta, \": \") */\n      add(0x20, mload(0x40))\n      dup1\n      dup3\n      dup1\n      mload\n      swap1\n      0x20\n      add\n      swap1\n      dup1\n      dup4\n      dup4\n        /* \"--CODEGEN--\":36:189   */\n    tag_236:\n        /* \"--CODEGEN--\":66:68   */\n      0x20\n        /* \"--CODEGEN--\":61:64   */\n      dup4\n        /* \"--CODEGEN--\":58:69   */\n      lt\n        /* \"--CODEGEN--\":36:189   */\n      tag_238\n      jumpi\n        /* \"--CODEGEN--\":182:185   */\n      dup1\n        /* \"--CODEGEN--\":176:186   */\n      mload\n        /* \"--CODEGEN--\":171:174   */\n      dup3\n        /* \"--CODEGEN--\":164:187   */\n      mstore\n        /* \"--CODEGEN--\":98:100   */\n      0x20\n        /* \"--CODEGEN--\":93:96   */\n      dup3\n        /* \"--CODEGEN--\":89:101   */\n      add\n        /* \"--CODEGEN--\":82:101   */\n      swap2\n      pop\n        /* \"--CODEGEN--\":123:125   */\n      0x20\n        /* \"--CODEGEN--\":118:121   */\n      dup2\n        /* \"--CODEGEN--\":114:126   */\n      add\n        /* \"--CODEGEN--\":107:126   */\n      swap1\n      pop\n        /* \"--CODEGEN--\":148:150   */\n      0x20\n        /* \"--CODEGEN--\":143:146   */\n      dup4\n        /* \"--CODEGEN--\":139:151   */\n      sub\n        /* \"--CODEGEN--\":132:151   */\n      swap3\n      pop\n        /* \"--CODEGEN--\":36:189   */\n      jump(tag_236)\n    tag_238:\n        /* \"--CODEGEN--\":274:275   */\n      0x01\n        /* \"--CODEGEN--\":267:270   */\n      dup4\n        /* \"--CODEGEN--\":263:265   */\n      0x20\n        /* \"--CODEGEN--\":259:271   */\n      sub\n        /* \"--CODEGEN--\":254:257   */\n      0x0100\n        /* \"--CODEGEN--\":250:272   */\n      exp\n        /* \"--CODEGEN--\":246:276   */\n      sub\n        /* \"--CODEGEN--\":315:319   */\n      dup1\n        /* \"--CODEGEN--\":311:320   */\n      not\n        /* \"--CODEGEN--\":305:308   */\n      dup3\n        /* \"--CODEGEN--\":299:309   */\n      mload\n        /* \"--CODEGEN--\":295:321   */\n      and\n        /* \"--CODEGEN--\":356:360   */\n      dup2\n        /* \"--CODEGEN--\":350:353   */\n      dup5\n        /* \"--CODEGEN--\":344:354   */\n      mload\n        /* \"--CODEGEN--\":340:361   */\n      and\n        /* \"--CODEGEN--\":389:396   */\n      dup1\n        /* \"--CODEGEN--\":380:387   */\n      dup3\n        /* \"--CODEGEN--\":377:397   */\n      or\n        /* \"--CODEGEN--\":372:375   */\n      dup6\n        /* \"--CODEGEN--\":365:398   */\n      mstore\n        /* \"--CODEGEN--\":3:402   */\n      pop\n      pop\n      pop\n        /* \"casaApuestas.sol\":12555:12588  abi.encodePacked(respuesta, \": \") */\n      pop\n      pop\n      pop\n      swap1\n      pop\n      add\n      dup1\n      0x3a20000000000000000000000000000000000000000000000000000000000000\n      dup2\n      mstore\n      pop\n      0x02\n      add\n      swap2\n      pop\n      pop\n      mload(0x40)\n        /* \"--CODEGEN--\":49:53   */\n      0x20\n        /* \"--CODEGEN--\":39:46   */\n      dup2\n        /* \"--CODEGEN--\":30:37   */\n      dup4\n        /* \"--CODEGEN--\":26:47   */\n      sub\n        /* \"--CODEGEN--\":22:54   */\n      sub\n        /* \"--CODEGEN--\":13:20   */\n      dup2\n        /* \"--CODEGEN--\":6:55   */\n      mstore\n        /* \"casaApuestas.sol\":12555:12588  abi.encodePacked(respuesta, \": \") */\n      swap1\n      0x40\n      mstore\n        /* \"casaApuestas.sol\":12536:12589  respuesta = string(abi.encodePacked(respuesta, \": \")) */\n      swap2\n      pop\n        /* \"casaApuestas.sol\":12605:12611  uint i */\n      0x00\n        /* \"casaApuestas.sol\":12614:12615  0 */\n      dup1\n        /* \"casaApuestas.sol\":12605:12615  uint i = 0 */\n      swap1\n      pop\n        /* \"casaApuestas.sol\":12600:13341  for (uint i = 0; i < apostadores[_codCarrera].length; i ++){\r... */\n    tag_239:\n        /* \"casaApuestas.sol\":12621:12632  apostadores */\n      0x05\n        /* \"casaApuestas.sol\":12621:12645  apostadores[_codCarrera] */\n      0x00\n        /* \"casaApuestas.sol\":12633:12644  _codCarrera */\n      dup11\n        /* \"casaApuestas.sol\":12621:12645  apostadores[_codCarrera] */\n      dup2\n      mstore\n      0x20\n      add\n      swap1\n      dup2\n      mstore\n      0x20\n      add\n      0x00\n      keccak256\n        /* \"casaApuestas.sol\":12621:12652  apostadores[_codCarrera].length */\n      dup1\n      sload\n      swap1\n      pop\n        /* \"casaApuestas.sol\":12617:12618  i */\n      dup2\n        /* \"casaApuestas.sol\":12617:12652  i < apostadores[_codCarrera].length */\n      lt\n        /* \"casaApuestas.sol\":12600:13341  for (uint i = 0; i < apostadores[_codCarrera].length; i ++){\r... */\n      iszero\n      tag_240\n      jumpi\n        /* \"casaApuestas.sol\":12674:12685  uint dinero */\n      0x00\n        /* \"casaApuestas.sol\":12688:12696  carreras */\n      0x02\n        /* \"casaApuestas.sol\":12688:12709  carreras[_codCarrera] */\n      0x00\n        /* \"casaApuestas.sol\":12697:12708  _codCarrera */\n      dup12\n        /* \"casaApuestas.sol\":12688:12709  carreras[_codCarrera] */\n      dup2\n      mstore\n      0x20\n      add\n      swap1\n      dup2\n      mstore\n      0x20\n      add\n      0x00\n      keccak256\n        /* \"casaApuestas.sol\":12688:12718  carreras[_codCarrera].apuestas */\n      0x06\n      add\n        /* \"casaApuestas.sol\":12688:12747  carreras[_codCarrera].apuestas[apostadores[_codCarrera][i]] */\n      0x00\n        /* \"casaApuestas.sol\":12719:12730  apostadores */\n      0x05\n        /* \"casaApuestas.sol\":12719:12743  apostadores[_codCarrera] */\n      0x00\n        /* \"casaApuestas.sol\":12731:12742  _codCarrera */\n      dup14\n        /* \"casaApuestas.sol\":12719:12743  apostadores[_codCarrera] */\n      dup2\n      mstore\n      0x20\n      add\n      swap1\n      dup2\n      mstore\n      0x20\n      add\n      0x00\n      keccak256\n        /* \"casaApuestas.sol\":12744:12745  i */\n      dup5\n        /* \"casaApuestas.sol\":12719:12746  apostadores[_codCarrera][i] */\n      dup2\n      sload\n      dup2\n      lt\n      tag_242\n      jumpi\n      invalid\n    tag_242:\n      swap1\n      0x00\n      mstore\n      keccak256(0x00, 0x20)\n      add\n      0x00\n      swap1\n      sload\n      swap1\n      0x0100\n      exp\n      swap1\n      div\n      0xffffffffffffffffffffffffffffffffffffffff\n      and\n        /* \"casaApuestas.sol\":12688:12747  carreras[_codCarrera].apuestas[apostadores[_codCarrera][i]] */\n      0xffffffffffffffffffffffffffffffffffffffff\n      and\n      0xffffffffffffffffffffffffffffffffffffffff\n      and\n      dup2\n      mstore\n      0x20\n      add\n      swap1\n      dup2\n      mstore\n      0x20\n      add\n      0x00\n      keccak256\n        /* \"casaApuestas.sol\":12688:12765  carreras[_codCarrera].apuestas[apostadores[_codCarrera][i]].dineroTransferido */\n      0x04\n      add\n      sload\n        /* \"casaApuestas.sol\":12674:12765  uint dinero = carreras[_codCarrera].apuestas[apostadores[_codCarrera][i]].dineroTransferido */\n      swap1\n      pop\n        /* \"casaApuestas.sol\":12794:12795  0 */\n      0x00\n        /* \"casaApuestas.sol\":12784:12790  dinero */\n      dup2\n        /* \"casaApuestas.sol\":12784:12795  dinero != 0 */\n      eq\n        /* \"casaApuestas.sol\":12780:13327  if (dinero != 0){\r... */\n      tag_244\n      jumpi\n        /* \"casaApuestas.sol\":12826:12830  true */\n      0x01\n        /* \"casaApuestas.sol\":12815:12830  contiene = true */\n      swap3\n      pop\n        /* \"casaApuestas.sol\":12885:12894  respuesta */\n      dup4\n        /* \"casaApuestas.sol\":12868:12910  abi.encodePacked(respuesta, \"Apostador #\") */\n      add(0x20, mload(0x40))\n      dup1\n      dup3\n      dup1\n      mload\n      swap1\n      0x20\n      add\n      swap1\n      dup1\n      dup4\n      dup4\n        /* \"--CODEGEN--\":36:189   */\n    tag_245:\n        /* \"--CODEGEN--\":66:68   */\n      0x20\n        /* \"--CODEGEN--\":61:64   */\n      dup4\n        /* \"--CODEGEN--\":58:69   */\n      lt\n        /* \"--CODEGEN--\":36:189   */\n      tag_247\n      jumpi\n        /* \"--CODEGEN--\":182:185   */\n      dup1\n        /* \"--CODEGEN--\":176:186   */\n      mload\n        /* \"--CODEGEN--\":171:174   */\n      dup3\n        /* \"--CODEGEN--\":164:187   */\n      mstore\n        /* \"--CODEGEN--\":98:100   */\n      0x20\n        /* \"--CODEGEN--\":93:96   */\n      dup3\n        /* \"--CODEGEN--\":89:101   */\n      add\n        /* \"--CODEGEN--\":82:101   */\n      swap2\n      pop\n        /* \"--CODEGEN--\":123:125   */\n      0x20\n        /* \"--CODEGEN--\":118:121   */\n      dup2\n        /* \"--CODEGEN--\":114:126   */\n      add\n        /* \"--CODEGEN--\":107:126   */\n      swap1\n      pop\n        /* \"--CODEGEN--\":148:150   */\n      0x20\n        /* \"--CODEGEN--\":143:146   */\n      dup4\n        /* \"--CODEGEN--\":139:151   */\n      sub\n        /* \"--CODEGEN--\":132:151   */\n      swap3\n      pop\n        /* \"--CODEGEN--\":36:189   */\n      jump(tag_245)\n    tag_247:\n        /* \"--CODEGEN--\":274:275   */\n      0x01\n        /* \"--CODEGEN--\":267:270   */\n      dup4\n        /* \"--CODEGEN--\":263:265   */\n      0x20\n        /* \"--CODEGEN--\":259:271   */\n      sub\n        /* \"--CODEGEN--\":254:257   */\n      0x0100\n        /* \"--CODEGEN--\":250:272   */\n      exp\n        /* \"--CODEGEN--\":246:276   */\n      sub\n        /* \"--CODEGEN--\":315:319   */\n      dup1\n        /* \"--CODEGEN--\":311:320   */\n      not\n        /* \"--CODEGEN--\":305:308   */\n      dup3\n        /* \"--CODEGEN--\":299:309   */\n      mload\n        /* \"--CODEGEN--\":295:321   */\n      and\n        /* \"--CODEGEN--\":356:360   */\n      dup2\n        /* \"--CODEGEN--\":350:353   */\n      dup5\n        /* \"--CODEGEN--\":344:354   */\n      mload\n        /* \"--CODEGEN--\":340:361   */\n      and\n        /* \"--CODEGEN--\":389:396   */\n      dup1\n        /* \"--CODEGEN--\":380:387   */\n      dup3\n        /* \"--CODEGEN--\":377:397   */\n      or\n        /* \"--CODEGEN--\":372:375   */\n      dup6\n        /* \"--CODEGEN--\":365:398   */\n      mstore\n        /* \"--CODEGEN--\":3:402   */\n      pop\n      pop\n      pop\n        /* \"casaApuestas.sol\":12868:12910  abi.encodePacked(respuesta, \"Apostador #\") */\n      pop\n      pop\n      pop\n      swap1\n      pop\n      add\n      dup1\n      0x41706f737461646f722023000000000000000000000000000000000000000000\n      dup2\n      mstore\n      pop\n      0x0b\n      add\n      swap2\n      pop\n      pop\n      mload(0x40)\n        /* \"--CODEGEN--\":49:53   */\n      0x20\n        /* \"--CODEGEN--\":39:46   */\n      dup2\n        /* \"--CODEGEN--\":30:37   */\n      dup4\n        /* \"--CODEGEN--\":26:47   */\n      sub\n        /* \"--CODEGEN--\":22:54   */\n      sub\n        /* \"--CODEGEN--\":13:20   */\n      dup2\n        /* \"--CODEGEN--\":6:55   */\n      mstore\n        /* \"casaApuestas.sol\":12868:12910  abi.encodePacked(respuesta, \"Apostador #\") */\n      swap1\n      0x40\n      mstore\n        /* \"casaApuestas.sol\":12849:12911  respuesta = string(abi.encodePacked(respuesta, \"Apostador #\")) */\n      swap4\n      pop\n        /* \"casaApuestas.sol\":12966:12975  respuesta */\n      dup4\n        /* \"casaApuestas.sol\":12977:12988  uint2str(i) */\n      tag_248\n        /* \"casaApuestas.sol\":12986:12987  i */\n      dup4\n        /* \"casaApuestas.sol\":12977:12985  uint2str */\n      tag_167\n        /* \"casaApuestas.sol\":12977:12988  uint2str(i) */\n      jump\t// in\n    tag_248:\n        /* \"casaApuestas.sol\":12949:12989  abi.encodePacked(respuesta, uint2str(i)) */\n      add(0x20, mload(0x40))\n      dup1\n      dup4\n      dup1\n      mload\n      swap1\n      0x20\n      add\n      swap1\n      dup1\n      dup4\n      dup4\n        /* \"--CODEGEN--\":36:189   */\n    tag_249:\n        /* \"--CODEGEN--\":66:68   */\n      0x20\n        /* \"--CODEGEN--\":61:64   */\n      dup4\n        /* \"--CODEGEN--\":58:69   */\n      lt\n        /* \"--CODEGEN--\":36:189   */\n      tag_251\n      jumpi\n        /* \"--CODEGEN--\":182:185   */\n      dup1\n        /* \"--CODEGEN--\":176:186   */\n      mload\n        /* \"--CODEGEN--\":171:174   */\n      dup3\n        /* \"--CODEGEN--\":164:187   */\n      mstore\n        /* \"--CODEGEN--\":98:100   */\n      0x20\n        /* \"--CODEGEN--\":93:96   */\n      dup3\n        /* \"--CODEGEN--\":89:101   */\n      add\n        /* \"--CODEGEN--\":82:101   */\n      swap2\n      pop\n        /* \"--CODEGEN--\":123:125   */\n      0x20\n        /* \"--CODEGEN--\":118:121   */\n      dup2\n        /* \"--CODEGEN--\":114:126   */\n      add\n        /* \"--CODEGEN--\":107:126   */\n      swap1\n      pop\n        /* \"--CODEGEN--\":148:150   */\n      0x20\n        /* \"--CODEGEN--\":143:146   */\n      dup4\n        /* \"--CODEGEN--\":139:151   */\n      sub\n        /* \"--CODEGEN--\":132:151   */\n      swap3\n      pop\n        /* \"--CODEGEN--\":36:189   */\n      jump(tag_249)\n    tag_251:\n        /* \"--CODEGEN--\":274:275   */\n      0x01\n        /* \"--CODEGEN--\":267:270   */\n      dup4\n        /* \"--CODEGEN--\":263:265   */\n      0x20\n        /* \"--CODEGEN--\":259:271   */\n      sub\n        /* \"--CODEGEN--\":254:257   */\n      0x0100\n        /* \"--CODEGEN--\":250:272   */\n      exp\n        /* \"--CODEGEN--\":246:276   */\n      sub\n        /* \"--CODEGEN--\":315:319   */\n      dup1\n        /* \"--CODEGEN--\":311:320   */\n      not\n        /* \"--CODEGEN--\":305:308   */\n      dup3\n        /* \"--CODEGEN--\":299:309   */\n      mload\n        /* \"--CODEGEN--\":295:321   */\n      and\n        /* \"--CODEGEN--\":356:360   */\n      dup2\n        /* \"--CODEGEN--\":350:353   */\n      dup5\n        /* \"--CODEGEN--\":344:354   */\n      mload\n        /* \"--CODEGEN--\":340:361   */\n      and\n        /* \"--CODEGEN--\":389:396   */\n      dup1\n        /* \"--CODEGEN--\":380:387   */\n      dup3\n        /* \"--CODEGEN--\":377:397   */\n      or\n        /* \"--CODEGEN--\":372:375   */\n      dup6\n        /* \"--CODEGEN--\":365:398   */\n      mstore\n        /* \"--CODEGEN--\":3:402   */\n      pop\n      pop\n      pop\n        /* \"casaApuestas.sol\":12949:12989  abi.encodePacked(respuesta, uint2str(i)) */\n      pop\n      pop\n      pop\n      swap1\n      pop\n      add\n      dup3\n      dup1\n      mload\n      swap1\n      0x20\n      add\n      swap1\n      dup1\n      dup4\n      dup4\n        /* \"--CODEGEN--\":36:189   */\n    tag_252:\n        /* \"--CODEGEN--\":66:68   */\n      0x20\n        /* \"--CODEGEN--\":61:64   */\n      dup4\n        /* \"--CODEGEN--\":58:69   */\n      lt\n        /* \"--CODEGEN--\":36:189   */\n      tag_254\n      jumpi\n        /* \"--CODEGEN--\":182:185   */\n      dup1\n        /* \"--CODEGEN--\":176:186   */\n      mload\n        /* \"--CODEGEN--\":171:174   */\n      dup3\n        /* \"--CODEGEN--\":164:187   */\n      mstore\n        /* \"--CODEGEN--\":98:100   */\n      0x20\n        /* \"--CODEGEN--\":93:96   */\n      dup3\n        /* \"--CODEGEN--\":89:101   */\n      add\n        /* \"--CODEGEN--\":82:101   */\n      swap2\n      pop\n        /* \"--CODEGEN--\":123:125   */\n      0x20\n        /* \"--CODEGEN--\":118:121   */\n      dup2\n        /* \"--CODEGEN--\":114:126   */\n      add\n        /* \"--CODEGEN--\":107:126   */\n      swap1\n      pop\n        /* \"--CODEGEN--\":148:150   */\n      0x20\n        /* \"--CODEGEN--\":143:146   */\n      dup4\n        /* \"--CODEGEN--\":139:151   */\n      sub\n        /* \"--CODEGEN--\":132:151   */\n      swap3\n      pop\n        /* \"--CODEGEN--\":36:189   */\n      jump(tag_252)\n    tag_254:\n        /* \"--CODEGEN--\":274:275   */\n      0x01\n        /* \"--CODEGEN--\":267:270   */\n      dup4\n        /* \"--CODEGEN--\":263:265   */\n      0x20\n        /* \"--CODEGEN--\":259:271   */\n      sub\n        /* \"--CODEGEN--\":254:257   */\n      0x0100\n        /* \"--CODEGEN--\":250:272   */\n      exp\n        /* \"--CODEGEN--\":246:276   */\n      sub\n        /* \"--CODEGEN--\":315:319   */\n      dup1\n        /* \"--CODEGEN--\":311:320   */\n      not\n        /* \"--CODEGEN--\":305:308   */\n      dup3\n        /* \"--CODEGEN--\":299:309   */\n      mload\n        /* \"--CODEGEN--\":295:321   */\n      and\n        /* \"--CODEGEN--\":356:360   */\n      dup2\n        /* \"--CODEGEN--\":350:353   */\n      dup5\n        /* \"--CODEGEN--\":344:354   */\n      mload\n        /* \"--CODEGEN--\":340:361   */\n      and\n        /* \"--CODEGEN--\":389:396   */\n      dup1\n        /* \"--CODEGEN--\":380:387   */\n      dup3\n        /* \"--CODEGEN--\":377:397   */\n      or\n        /* \"--CODEGEN--\":372:375   */\n      dup6\n        /* \"--CODEGEN--\":365:398   */\n      mstore\n        /* \"--CODEGEN--\":3:402   */\n      pop\n      pop\n      pop\n        /* \"casaApuestas.sol\":12949:12989  abi.encodePacked(respuesta, uint2str(i)) */\n      pop\n      pop\n      pop\n      swap1\n      pop\n      add\n      swap3\n      pop\n      pop\n      pop\n      mload(0x40)\n        /* \"--CODEGEN--\":49:53   */\n      0x20\n        /* \"--CODEGEN--\":39:46   */\n      dup2\n        /* \"--CODEGEN--\":30:37   */\n      dup4\n        /* \"--CODEGEN--\":26:47   */\n      sub\n        /* \"--CODEGEN--\":22:54   */\n      sub\n        /* \"--CODEGEN--\":13:20   */\n      dup2\n        /* \"--CODEGEN--\":6:55   */\n      mstore\n        /* \"casaApuestas.sol\":12949:12989  abi.encodePacked(respuesta, uint2str(i)) */\n      swap1\n      0x40\n      mstore\n        /* \"casaApuestas.sol\":12930:12990  respuesta = string(abi.encodePacked(respuesta, uint2str(i))) */\n      swap4\n      pop\n        /* \"casaApuestas.sol\":13045:13054  respuesta */\n      dup4\n        /* \"casaApuestas.sol\":13028:13060  abi.encodePacked(respuesta, \"-\") */\n      add(0x20, mload(0x40))\n      dup1\n      dup3\n      dup1\n      mload\n      swap1\n      0x20\n      add\n      swap1\n      dup1\n      dup4\n      dup4\n        /* \"--CODEGEN--\":36:189   */\n    tag_255:\n        /* \"--CODEGEN--\":66:68   */\n      0x20\n        /* \"--CODEGEN--\":61:64   */\n      dup4\n        /* \"--CODEGEN--\":58:69   */\n      lt\n        /* \"--CODEGEN--\":36:189   */\n      tag_257\n      jumpi\n        /* \"--CODEGEN--\":182:185   */\n      dup1\n        /* \"--CODEGEN--\":176:186   */\n      mload\n        /* \"--CODEGEN--\":171:174   */\n      dup3\n        /* \"--CODEGEN--\":164:187   */\n      mstore\n        /* \"--CODEGEN--\":98:100   */\n      0x20\n        /* \"--CODEGEN--\":93:96   */\n      dup3\n        /* \"--CODEGEN--\":89:101   */\n      add\n        /* \"--CODEGEN--\":82:101   */\n      swap2\n      pop\n        /* \"--CODEGEN--\":123:125   */\n      0x20\n        /* \"--CODEGEN--\":118:121   */\n      dup2\n        /* \"--CODEGEN--\":114:126   */\n      add\n        /* \"--CODEGEN--\":107:126   */\n      swap1\n      pop\n        /* \"--CODEGEN--\":148:150   */\n      0x20\n        /* \"--CODEGEN--\":143:146   */\n      dup4\n        /* \"--CODEGEN--\":139:151   */\n      sub\n        /* \"--CODEGEN--\":132:151   */\n      swap3\n      pop\n        /* \"--CODEGEN--\":36:189   */\n      jump(tag_255)\n    tag_257:\n        /* \"--CODEGEN--\":274:275   */\n      0x01\n        /* \"--CODEGEN--\":267:270   */\n      dup4\n        /* \"--CODEGEN--\":263:265   */\n      0x20\n        /* \"--CODEGEN--\":259:271   */\n      sub\n        /* \"--CODEGEN--\":254:257   */\n      0x0100\n        /* \"--CODEGEN--\":250:272   */\n      exp\n        /* \"--CODEGEN--\":246:276   */\n      sub\n        /* \"--CODEGEN--\":315:319   */\n      dup1\n        /* \"--CODEGEN--\":311:320   */\n      not\n        /* \"--CODEGEN--\":305:308   */\n      dup3\n        /* \"--CODEGEN--\":299:309   */\n      mload\n        /* \"--CODEGEN--\":295:321   */\n      and\n        /* \"--CODEGEN--\":356:360   */\n      dup2\n        /* \"--CODEGEN--\":350:353   */\n      dup5\n        /* \"--CODEGEN--\":344:354   */\n      mload\n        /* \"--CODEGEN--\":340:361   */\n      and\n        /* \"--CODEGEN--\":389:396   */\n      dup1\n        /* \"--CODEGEN--\":380:387   */\n      dup3\n        /* \"--CODEGEN--\":377:397   */\n      or\n        /* \"--CODEGEN--\":372:375   */\n      dup6\n        /* \"--CODEGEN--\":365:398   */\n      mstore\n        /* \"--CODEGEN--\":3:402   */\n      pop\n      pop\n      pop\n        /* \"casaApuestas.sol\":13028:13060  abi.encodePacked(respuesta, \"-\") */\n      pop\n      pop\n      pop\n      swap1\n      pop\n      add\n      dup1\n      0x2d00000000000000000000000000000000000000000000000000000000000000\n      dup2\n      mstore\n      pop\n      0x01\n      add\n      swap2\n      pop\n      pop\n      mload(0x40)\n        /* \"--CODEGEN--\":49:53   */\n      0x20\n        /* \"--CODEGEN--\":39:46   */\n      dup2\n        /* \"--CODEGEN--\":30:37   */\n      dup4\n        /* \"--CODEGEN--\":26:47   */\n      sub\n        /* \"--CODEGEN--\":22:54   */\n      sub\n        /* \"--CODEGEN--\":13:20   */\n      dup2\n        /* \"--CODEGEN--\":6:55   */\n      mstore\n        /* \"casaApuestas.sol\":13028:13060  abi.encodePacked(respuesta, \"-\") */\n      swap1\n      0x40\n      mstore\n        /* \"casaApuestas.sol\":13009:13061  respuesta = string(abi.encodePacked(respuesta, \"-\")) */\n      swap4\n      pop\n        /* \"casaApuestas.sol\":13116:13125  respuesta */\n      dup4\n        /* \"casaApuestas.sol\":13099:13136  abi.encodePacked(respuesta, \"Gano: \") */\n      add(0x20, mload(0x40))\n      dup1\n      dup3\n      dup1\n      mload\n      swap1\n      0x20\n      add\n      swap1\n      dup1\n      dup4\n      dup4\n        /* \"--CODEGEN--\":36:189   */\n    tag_258:\n        /* \"--CODEGEN--\":66:68   */\n      0x20\n        /* \"--CODEGEN--\":61:64   */\n      dup4\n        /* \"--CODEGEN--\":58:69   */\n      lt\n        /* \"--CODEGEN--\":36:189   */\n      tag_260\n      jumpi\n        /* \"--CODEGEN--\":182:185   */\n      dup1\n        /* \"--CODEGEN--\":176:186   */\n      mload\n        /* \"--CODEGEN--\":171:174   */\n      dup3\n        /* \"--CODEGEN--\":164:187   */\n      mstore\n        /* \"--CODEGEN--\":98:100   */\n      0x20\n        /* \"--CODEGEN--\":93:96   */\n      dup3\n        /* \"--CODEGEN--\":89:101   */\n      add\n        /* \"--CODEGEN--\":82:101   */\n      swap2\n      pop\n        /* \"--CODEGEN--\":123:125   */\n      0x20\n        /* \"--CODEGEN--\":118:121   */\n      dup2\n        /* \"--CODEGEN--\":114:126   */\n      add\n        /* \"--CODEGEN--\":107:126   */\n      swap1\n      pop\n        /* \"--CODEGEN--\":148:150   */\n      0x20\n        /* \"--CODEGEN--\":143:146   */\n      dup4\n        /* \"--CODEGEN--\":139:151   */\n      sub\n        /* \"--CODEGEN--\":132:151   */\n      swap3\n      pop\n        /* \"--CODEGEN--\":36:189   */\n      jump(tag_258)\n    tag_260:\n        /* \"--CODEGEN--\":274:275   */\n      0x01\n        /* \"--CODEGEN--\":267:270   */\n      dup4\n        /* \"--CODEGEN--\":263:265   */\n      0x20\n        /* \"--CODEGEN--\":259:271   */\n      sub\n        /* \"--CODEGEN--\":254:257   */\n      0x0100\n        /* \"--CODEGEN--\":250:272   */\n      exp\n        /* \"--CODEGEN--\":246:276   */\n      sub\n        /* \"--CODEGEN--\":315:319   */\n      dup1\n        /* \"--CODEGEN--\":311:320   */\n      not\n        /* \"--CODEGEN--\":305:308   */\n      dup3\n        /* \"--CODEGEN--\":299:309   */\n      mload\n        /* \"--CODEGEN--\":295:321   */\n      and\n        /* \"--CODEGEN--\":356:360   */\n      dup2\n        /* \"--CODEGEN--\":350:353   */\n      dup5\n        /* \"--CODEGEN--\":344:354   */\n      mload\n        /* \"--CODEGEN--\":340:361   */\n      and\n        /* \"--CODEGEN--\":389:396   */\n      dup1\n        /* \"--CODEGEN--\":380:387   */\n      dup3\n        /* \"--CODEGEN--\":377:397   */\n      or\n        /* \"--CODEGEN--\":372:375   */\n      dup6\n        /* \"--CODEGEN--\":365:398   */\n      mstore\n        /* \"--CODEGEN--\":3:402   */\n      pop\n      pop\n      pop\n        /* \"casaApuestas.sol\":13099:13136  abi.encodePacked(respuesta, \"Gano: \") */\n      pop\n      pop\n      pop\n      swap1\n      pop\n      add\n      dup1\n      0x47616e6f3a200000000000000000000000000000000000000000000000000000\n      dup2\n      mstore\n      pop\n      0x06\n      add\n      swap2\n      pop\n      pop\n      mload(0x40)\n        /* \"--CODEGEN--\":49:53   */\n      0x20\n        /* \"--CODEGEN--\":39:46   */\n      dup2\n        /* \"--CODEGEN--\":30:37   */\n      dup4\n        /* \"--CODEGEN--\":26:47   */\n      sub\n        /* \"--CODEGEN--\":22:54   */\n      sub\n        /* \"--CODEGEN--\":13:20   */\n      dup2\n        /* \"--CODEGEN--\":6:55   */\n      mstore\n        /* \"casaApuestas.sol\":13099:13136  abi.encodePacked(respuesta, \"Gano: \") */\n      swap1\n      0x40\n      mstore\n        /* \"casaApuestas.sol\":13080:13137  respuesta = string(abi.encodePacked(respuesta, \"Gano: \")) */\n      swap4\n      pop\n        /* \"casaApuestas.sol\":13192:13201  respuesta */\n      dup4\n        /* \"casaApuestas.sol\":13203:13219  uint2str(dinero) */\n      tag_261\n        /* \"casaApuestas.sol\":13212:13218  dinero */\n      dup3\n        /* \"casaApuestas.sol\":13203:13211  uint2str */\n      tag_167\n        /* \"casaApuestas.sol\":13203:13219  uint2str(dinero) */\n      jump\t// in\n    tag_261:\n        /* \"casaApuestas.sol\":13175:13220  abi.encodePacked(respuesta, uint2str(dinero)) */\n      add(0x20, mload(0x40))\n      dup1\n      dup4\n      dup1\n      mload\n      swap1\n      0x20\n      add\n      swap1\n      dup1\n      dup4\n      dup4\n        /* \"--CODEGEN--\":36:189   */\n    tag_262:\n        /* \"--CODEGEN--\":66:68   */\n      0x20\n        /* \"--CODEGEN--\":61:64   */\n      dup4\n        /* \"--CODEGEN--\":58:69   */\n      lt\n        /* \"--CODEGEN--\":36:189   */\n      tag_264\n      jumpi\n        /* \"--CODEGEN--\":182:185   */\n      dup1\n        /* \"--CODEGEN--\":176:186   */\n      mload\n        /* \"--CODEGEN--\":171:174   */\n      dup3\n        /* \"--CODEGEN--\":164:187   */\n      mstore\n        /* \"--CODEGEN--\":98:100   */\n      0x20\n        /* \"--CODEGEN--\":93:96   */\n      dup3\n        /* \"--CODEGEN--\":89:101   */\n      add\n        /* \"--CODEGEN--\":82:101   */\n      swap2\n      pop\n        /* \"--CODEGEN--\":123:125   */\n      0x20\n        /* \"--CODEGEN--\":118:121   */\n      dup2\n        /* \"--CODEGEN--\":114:126   */\n      add\n        /* \"--CODEGEN--\":107:126   */\n      swap1\n      pop\n        /* \"--CODEGEN--\":148:150   */\n      0x20\n        /* \"--CODEGEN--\":143:146   */\n      dup4\n        /* \"--CODEGEN--\":139:151   */\n      sub\n        /* \"--CODEGEN--\":132:151   */\n      swap3\n      pop\n        /* \"--CODEGEN--\":36:189   */\n      jump(tag_262)\n    tag_264:\n        /* \"--CODEGEN--\":274:275   */\n      0x01\n        /* \"--CODEGEN--\":267:270   */\n      dup4\n        /* \"--CODEGEN--\":263:265   */\n      0x20\n        /* \"--CODEGEN--\":259:271   */\n      sub\n        /* \"--CODEGEN--\":254:257   */\n      0x0100\n        /* \"--CODEGEN--\":250:272   */\n      exp\n        /* \"--CODEGEN--\":246:276   */\n      sub\n        /* \"--CODEGEN--\":315:319   */\n      dup1\n        /* \"--CODEGEN--\":311:320   */\n      not\n        /* \"--CODEGEN--\":305:308   */\n      dup3\n        /* \"--CODEGEN--\":299:309   */\n      mload\n        /* \"--CODEGEN--\":295:321   */\n      and\n        /* \"--CODEGEN--\":356:360   */\n      dup2\n        /* \"--CODEGEN--\":350:353   */\n      dup5\n        /* \"--CODEGEN--\":344:354   */\n      mload\n        /* \"--CODEGEN--\":340:361   */\n      and\n        /* \"--CODEGEN--\":389:396   */\n      dup1\n        /* \"--CODEGEN--\":380:387   */\n      dup3\n        /* \"--CODEGEN--\":377:397   */\n      or\n        /* \"--CODEGEN--\":372:375   */\n      dup6\n        /* \"--CODEGEN--\":365:398   */\n      mstore\n        /* \"--CODEGEN--\":3:402   */\n      pop\n      pop\n      pop\n        /* \"casaApuestas.sol\":13175:13220  abi.encodePacked(respuesta, uint2str(dinero)) */\n      pop\n      pop\n      pop\n      swap1\n      pop\n      add\n      dup3\n      dup1\n      mload\n      swap1\n      0x20\n      add\n      swap1\n      dup1\n      dup4\n      dup4\n        /* \"--CODEGEN--\":36:189   */\n    tag_265:\n        /* \"--CODEGEN--\":66:68   */\n      0x20\n        /* \"--CODEGEN--\":61:64   */\n      dup4\n        /* \"--CODEGEN--\":58:69   */\n      lt\n        /* \"--CODEGEN--\":36:189   */\n      tag_267\n      jumpi\n        /* \"--CODEGEN--\":182:185   */\n      dup1\n        /* \"--CODEGEN--\":176:186   */\n      mload\n        /* \"--CODEGEN--\":171:174   */\n      dup3\n        /* \"--CODEGEN--\":164:187   */\n      mstore\n        /* \"--CODEGEN--\":98:100   */\n      0x20\n        /* \"--CODEGEN--\":93:96   */\n      dup3\n        /* \"--CODEGEN--\":89:101   */\n      add\n        /* \"--CODEGEN--\":82:101   */\n      swap2\n      pop\n        /* \"--CODEGEN--\":123:125   */\n      0x20\n        /* \"--CODEGEN--\":118:121   */\n      dup2\n        /* \"--CODEGEN--\":114:126   */\n      add\n        /* \"--CODEGEN--\":107:126   */\n      swap1\n      pop\n        /* \"--CODEGEN--\":148:150   */\n      0x20\n        /* \"--CODEGEN--\":143:146   */\n      dup4\n        /* \"--CODEGEN--\":139:151   */\n      sub\n        /* \"--CODEGEN--\":132:151   */\n      swap3\n      pop\n        /* \"--CODEGEN--\":36:189   */\n      jump(tag_265)\n    tag_267:\n        /* \"--CODEGEN--\":274:275   */\n      0x01\n        /* \"--CODEGEN--\":267:270   */\n      dup4\n        /* \"--CODEGEN--\":263:265   */\n      0x20\n        /* \"--CODEGEN--\":259:271   */\n      sub\n        /* \"--CODEGEN--\":254:257   */\n      0x0100\n        /* \"--CODEGEN--\":250:272   */\n      exp\n        /* \"--CODEGEN--\":246:276   */\n      sub\n        /* \"--CODEGEN--\":315:319   */\n      dup1\n        /* \"--CODEGEN--\":311:320   */\n      not\n        /* \"--CODEGEN--\":305:308   */\n      dup3\n        /* \"--CODEGEN--\":299:309   */\n      mload\n        /* \"--CODEGEN--\":295:321   */\n      and\n        /* \"--CODEGEN--\":356:360   */\n      dup2\n        /* \"--CODEGEN--\":350:353   */\n      dup5\n        /* \"--CODEGEN--\":344:354   */\n      mload\n        /* \"--CODEGEN--\":340:361   */\n      and\n        /* \"--CODEGEN--\":389:396   */\n      dup1\n        /* \"--CODEGEN--\":380:387   */\n      dup3\n        /* \"--CODEGEN--\":377:397   */\n      or\n        /* \"--CODEGEN--\":372:375   */\n      dup6\n        /* \"--CODEGEN--\":365:398   */\n      mstore\n        /* \"--CODEGEN--\":3:402   */\n      pop\n      pop\n      pop\n        /* \"casaApuestas.sol\":13175:13220  abi.encodePacked(respuesta, uint2str(dinero)) */\n      pop\n      pop\n      pop\n      swap1\n      pop\n      add\n      swap3\n      pop\n      pop\n      pop\n      mload(0x40)\n        /* \"--CODEGEN--\":49:53   */\n      0x20\n        /* \"--CODEGEN--\":39:46   */\n      dup2\n        /* \"--CODEGEN--\":30:37   */\n      dup4\n        /* \"--CODEGEN--\":26:47   */\n      sub\n        /* \"--CODEGEN--\":22:54   */\n      sub\n        /* \"--CODEGEN--\":13:20   */\n      dup2\n        /* \"--CODEGEN--\":6:55   */\n      mstore\n        /* \"casaApuestas.sol\":13175:13220  abi.encodePacked(respuesta, uint2str(dinero)) */\n      swap1\n      0x40\n      mstore\n        /* \"casaApuestas.sol\":13156:13221  respuesta = string(abi.encodePacked(respuesta, uint2str(dinero))) */\n      swap4\n      pop\n        /* \"casaApuestas.sol\":13276:13285  respuesta */\n      dup4\n        /* \"casaApuestas.sol\":13259:13292  abi.encodePacked(respuesta, \"  \") */\n      add(0x20, mload(0x40))\n      dup1\n      dup3\n      dup1\n      mload\n      swap1\n      0x20\n      add\n      swap1\n      dup1\n      dup4\n      dup4\n        /* \"--CODEGEN--\":36:189   */\n    tag_268:\n        /* \"--CODEGEN--\":66:68   */\n      0x20\n        /* \"--CODEGEN--\":61:64   */\n      dup4\n        /* \"--CODEGEN--\":58:69   */\n      lt\n        /* \"--CODEGEN--\":36:189   */\n      tag_270\n      jumpi\n        /* \"--CODEGEN--\":182:185   */\n      dup1\n        /* \"--CODEGEN--\":176:186   */\n      mload\n        /* \"--CODEGEN--\":171:174   */\n      dup3\n        /* \"--CODEGEN--\":164:187   */\n      mstore\n        /* \"--CODEGEN--\":98:100   */\n      0x20\n        /* \"--CODEGEN--\":93:96   */\n      dup3\n        /* \"--CODEGEN--\":89:101   */\n      add\n        /* \"--CODEGEN--\":82:101   */\n      swap2\n      pop\n        /* \"--CODEGEN--\":123:125   */\n      0x20\n        /* \"--CODEGEN--\":118:121   */\n      dup2\n        /* \"--CODEGEN--\":114:126   */\n      add\n        /* \"--CODEGEN--\":107:126   */\n      swap1\n      pop\n        /* \"--CODEGEN--\":148:150   */\n      0x20\n        /* \"--CODEGEN--\":143:146   */\n      dup4\n        /* \"--CODEGEN--\":139:151   */\n      sub\n        /* \"--CODEGEN--\":132:151   */\n      swap3\n      pop\n        /* \"--CODEGEN--\":36:189   */\n      jump(tag_268)\n    tag_270:\n        /* \"--CODEGEN--\":274:275   */\n      0x01\n        /* \"--CODEGEN--\":267:270   */\n      dup4\n        /* \"--CODEGEN--\":263:265   */\n      0x20\n        /* \"--CODEGEN--\":259:271   */\n      sub\n        /* \"--CODEGEN--\":254:257   */\n      0x0100\n        /* \"--CODEGEN--\":250:272   */\n      exp\n        /* \"--CODEGEN--\":246:276   */\n      sub\n        /* \"--CODEGEN--\":315:319   */\n      dup1\n        /* \"--CODEGEN--\":311:320   */\n      not\n        /* \"--CODEGEN--\":305:308   */\n      dup3\n        /* \"--CODEGEN--\":299:309   */\n      mload\n        /* \"--CODEGEN--\":295:321   */\n      and\n        /* \"--CODEGEN--\":356:360   */\n      dup2\n        /* \"--CODEGEN--\":350:353   */\n      dup5\n        /* \"--CODEGEN--\":344:354   */\n      mload\n        /* \"--CODEGEN--\":340:361   */\n      and\n        /* \"--CODEGEN--\":389:396   */\n      dup1\n        /* \"--CODEGEN--\":380:387   */\n      dup3\n        /* \"--CODEGEN--\":377:397   */\n      or\n        /* \"--CODEGEN--\":372:375   */\n      dup6\n        /* \"--CODEGEN--\":365:398   */\n      mstore\n        /* \"--CODEGEN--\":3:402   */\n      pop\n      pop\n      pop\n        /* \"casaApuestas.sol\":13259:13292  abi.encodePacked(respuesta, \"  \") */\n      pop\n      pop\n      pop\n      swap1\n      pop\n      add\n      dup1\n      0x2020000000000000000000000000000000000000000000000000000000000000\n      dup2\n      mstore\n      pop\n      0x02\n      add\n      swap2\n      pop\n      pop\n      mload(0x40)\n        /* \"--CODEGEN--\":49:53   */\n      0x20\n        /* \"--CODEGEN--\":39:46   */\n      dup2\n        /* \"--CODEGEN--\":30:37   */\n      dup4\n        /* \"--CODEGEN--\":26:47   */\n      sub\n        /* \"--CODEGEN--\":22:54   */\n      sub\n        /* \"--CODEGEN--\":13:20   */\n      dup2\n        /* \"--CODEGEN--\":6:55   */\n      mstore\n        /* \"casaApuestas.sol\":13259:13292  abi.encodePacked(respuesta, \"  \") */\n      swap1\n      0x40\n      mstore\n        /* \"casaApuestas.sol\":13240:13293  respuesta = string(abi.encodePacked(respuesta, \"  \")) */\n      swap4\n      pop\n        /* \"casaApuestas.sol\":12780:13327  if (dinero != 0){\r... */\n    tag_244:\n        /* \"casaApuestas.sol\":12600:13341  for (uint i = 0; i < apostadores[_codCarrera].length; i ++){\r... */\n      pop\n        /* \"casaApuestas.sol\":12654:12658  i ++ */\n      dup1\n      dup1\n      0x01\n      add\n      swap2\n      pop\n      pop\n        /* \"casaApuestas.sol\":12600:13341  for (uint i = 0; i < apostadores[_codCarrera].length; i ++){\r... */\n      jump(tag_239)\n    tag_240:\n      pop\n        /* \"casaApuestas.sol\":13364:13373  respuesta */\n      dup2\n        /* \"casaApuestas.sol\":13356:13374  return (respuesta) */\n      swap7\n      pop\n      pop\n      pop\n        /* \"casaApuestas.sol\":2269:2270  _ */\n      pop\n        /* \"casaApuestas.sol\":3141:3142  _ */\n      pop\n      pop\n        /* \"casaApuestas.sol\":12149:13382  function getApostadorGanador(uint _codCarrera) public \r... */\n      pop\n      swap2\n      swap1\n      pop\n      jump\t// out\n        /* \"casaApuestas.sol\":55:79  address public anfitrion */\n    tag_47:\n      0x00\n      dup1\n      swap1\n      sload\n      swap1\n      0x0100\n      exp\n      swap1\n      div\n      0xffffffffffffffffffffffffffffffffffffffff\n      and\n      dup2\n      jump\t// out\n        /* \"casaApuestas.sol\":5583:5848  function registrarCaballo(uint _codigo, string memory _nombre) public \r... */\n    tag_54:\n        /* \"casaApuestas.sol\":1736:1745  anfitrion */\n      0x00\n      dup1\n      swap1\n      sload\n      swap1\n      0x0100\n      exp\n      swap1\n      div\n      0xffffffffffffffffffffffffffffffffffffffff\n      and\n        /* \"casaApuestas.sol\":1722:1745  msg.sender == anfitrion */\n      0xffffffffffffffffffffffffffffffffffffffff\n      and\n        /* \"casaApuestas.sol\":1722:1732  msg.sender */\n      caller\n        /* \"casaApuestas.sol\":1722:1745  msg.sender == anfitrion */\n      0xffffffffffffffffffffffffffffffffffffffff\n      and\n      eq\n        /* \"casaApuestas.sol\":1714:1784  require(msg.sender == anfitrion, \"El invocador debe ser el anfitrion\") */\n      tag_272\n      jumpi\n      mload(0x40)\n      0x08c379a000000000000000000000000000000000000000000000000000000000\n      dup2\n      mstore\n      0x04\n      add\n      dup1\n      dup1\n      0x20\n      add\n      dup3\n      dup2\n      sub\n      dup3\n      mstore\n      0x22\n      dup2\n      mstore\n      0x20\n      add\n      dup1\n      data_445dd79b894b98a34a1cc7c38a5bd2de2e19478d6390b1e445457362fd7001d8\n      0x22\n      swap2\n      codecopy\n      0x40\n      add\n      swap2\n      pop\n      pop\n      mload(0x40)\n      dup1\n      swap2\n      sub\n      swap1\n      revert\n    tag_272:\n        /* \"casaApuestas.sol\":5692:5699  _codigo */\n      dup2\n        /* \"casaApuestas.sol\":3320:3321  0 */\n      0x00\n        /* \"casaApuestas.sol\":3280:3288  caballos */\n      0x03\n        /* \"casaApuestas.sol\":3280:3301  caballos[_codCaballo] */\n      0x00\n        /* \"casaApuestas.sol\":3289:3300  _codCaballo */\n      dup4\n        /* \"casaApuestas.sol\":3280:3301  caballos[_codCaballo] */\n      dup2\n      mstore\n      0x20\n      add\n      swap1\n      dup2\n      mstore\n      0x20\n      add\n      0x00\n      keccak256\n        /* \"casaApuestas.sol\":3280:3308  caballos[_codCaballo].nombre */\n      0x01\n      add\n        /* \"casaApuestas.sol\":3274:3316  bytes(caballos[_codCaballo].nombre).length */\n      dup1\n      sload\n      0x01\n      dup2\n      0x01\n      and\n      iszero\n      0x0100\n      mul\n      sub\n      and\n      0x02\n      swap1\n      div\n      swap1\n      pop\n        /* \"casaApuestas.sol\":3274:3321  bytes(caballos[_codCaballo].nombre).length == 0 */\n      eq\n        /* \"casaApuestas.sol\":3266:3363  require(bytes(caballos[_codCaballo].nombre).length == 0, \"Ya existe un caballo con este código\") */\n      tag_274\n      jumpi\n      mload(0x40)\n      0x08c379a000000000000000000000000000000000000000000000000000000000\n      dup2\n      mstore\n      0x04\n      add\n      dup1\n      dup1\n      0x20\n      add\n      dup3\n      dup2\n      sub\n      dup3\n      mstore\n      0x25\n      dup2\n      mstore\n      0x20\n      add\n      dup1\n      data_d6db3988662478777908c1e662b2ec848309dbbd995b7b6deab44e369aa15534\n      0x25\n      swap2\n      codecopy\n      0x40\n      add\n      swap2\n      pop\n      pop\n      mload(0x40)\n      dup1\n      swap2\n      sub\n      swap1\n      revert\n    tag_274:\n        /* \"casaApuestas.sol\":5731:5756  Caballo(_codigo, _nombre) */\n      mload(0x40)\n      dup1\n      0x40\n      add\n      0x40\n      mstore\n      dup1\n        /* \"casaApuestas.sol\":5739:5746  _codigo */\n      dup5\n        /* \"casaApuestas.sol\":5731:5756  Caballo(_codigo, _nombre) */\n      dup2\n      mstore\n      0x20\n      add\n        /* \"casaApuestas.sol\":5748:5755  _nombre */\n      dup4\n        /* \"casaApuestas.sol\":5731:5756  Caballo(_codigo, _nombre) */\n      dup2\n      mstore\n      pop\n        /* \"casaApuestas.sol\":5711:5719  caballos */\n      0x03\n        /* \"casaApuestas.sol\":5711:5728  caballos[_codigo] */\n      0x00\n        /* \"casaApuestas.sol\":5720:5727  _codigo */\n      dup6\n        /* \"casaApuestas.sol\":5711:5728  caballos[_codigo] */\n      dup2\n      mstore\n      0x20\n      add\n      swap1\n      dup2\n      mstore\n      0x20\n      add\n      0x00\n      keccak256\n        /* \"casaApuestas.sol\":5711:5756  caballos[_codigo] = Caballo(_codigo, _nombre) */\n      0x00\n      dup3\n      add\n      mload\n      dup2\n      0x00\n      add\n      sstore\n      0x20\n      dup3\n      add\n      mload\n      dup2\n      0x01\n      add\n      swap1\n      dup1\n      mload\n      swap1\n      0x20\n      add\n      swap1\n      tag_276\n      swap3\n      swap2\n      swap1\n      tag_277\n      jump\t// in\n    tag_276:\n      pop\n      swap1\n      pop\n      pop\n        /* \"casaApuestas.sol\":5772:5840  CaballoInsertado(caballos[_codigo].codigo, caballos[_codigo].nombre) */\n      0x0fad6c3e066fc058fd766f6c176269aff5c92c6956fe423687edc5c100a10352\n        /* \"casaApuestas.sol\":5789:5797  caballos */\n      0x03\n        /* \"casaApuestas.sol\":5789:5806  caballos[_codigo] */\n      0x00\n        /* \"casaApuestas.sol\":5798:5805  _codigo */\n      dup6\n        /* \"casaApuestas.sol\":5789:5806  caballos[_codigo] */\n      dup2\n      mstore\n      0x20\n      add\n      swap1\n      dup2\n      mstore\n      0x20\n      add\n      0x00\n      keccak256\n        /* \"casaApuestas.sol\":5789:5813  caballos[_codigo].codigo */\n      0x00\n      add\n      sload\n        /* \"casaApuestas.sol\":5815:5823  caballos */\n      0x03\n        /* \"casaApuestas.sol\":5815:5832  caballos[_codigo] */\n      0x00\n        /* \"casaApuestas.sol\":5824:5831  _codigo */\n      dup7\n        /* \"casaApuestas.sol\":5815:5832  caballos[_codigo] */\n      dup2\n      mstore\n      0x20\n      add\n      swap1\n      dup2\n      mstore\n      0x20\n      add\n      0x00\n      keccak256\n        /* \"casaApuestas.sol\":5815:5839  caballos[_codigo].nombre */\n      0x01\n      add\n        /* \"casaApuestas.sol\":5772:5840  CaballoInsertado(caballos[_codigo].codigo, caballos[_codigo].nombre) */\n      mload(0x40)\n      dup1\n      dup4\n      dup2\n      mstore\n      0x20\n      add\n      dup1\n      0x20\n      add\n      dup3\n      dup2\n      sub\n      dup3\n      mstore\n      dup4\n      dup2\n      dup2\n      sload\n      0x01\n      dup2\n      0x01\n      and\n      iszero\n      0x0100\n      mul\n      sub\n      and\n      0x02\n      swap1\n      div\n      dup2\n      mstore\n      0x20\n      add\n      swap2\n      pop\n      dup1\n      sload\n      0x01\n      dup2\n      0x01\n      and\n      iszero\n      0x0100\n      mul\n      sub\n      and\n      0x02\n      swap1\n      div\n      dup1\n      iszero\n      tag_278\n      jumpi\n      dup1\n      0x1f\n      lt\n      tag_279\n      jumpi\n      0x0100\n      dup1\n      dup4\n      sload\n      div\n      mul\n      dup4\n      mstore\n      swap2\n      0x20\n      add\n      swap2\n      jump(tag_278)\n    tag_279:\n      dup3\n      add\n      swap2\n      swap1\n      0x00\n      mstore\n      keccak256(0x00, 0x20)\n      swap1\n    tag_280:\n      dup2\n      sload\n      dup2\n      mstore\n      swap1\n      0x01\n      add\n      swap1\n      0x20\n      add\n      dup1\n      dup4\n      gt\n      tag_280\n      jumpi\n      dup3\n      swap1\n      sub\n      0x1f\n      and\n      dup3\n      add\n      swap2\n    tag_278:\n      pop\n      pop\n      swap4\n      pop\n      pop\n      pop\n      pop\n      mload(0x40)\n      dup1\n      swap2\n      sub\n      swap1\n      log1\n        /* \"casaApuestas.sol\":1795:1796  _ */\n      pop\n        /* \"casaApuestas.sol\":5583:5848  function registrarCaballo(uint _codigo, string memory _nombre) public \r... */\n      pop\n      pop\n      jump\t// out\n        /* \"casaApuestas.sol\":167:207  mapping(uint => Carrera) public carreras */\n    tag_58:\n      mstore(0x20, 0x02)\n      dup1\n      0x00\n      mstore\n      keccak256(0x00, 0x40)\n      0x00\n      swap2\n      pop\n      swap1\n      pop\n      dup1\n      0x00\n      add\n      sload\n      swap1\n      dup1\n      0x01\n      add\n      dup1\n      sload\n      0x01\n      dup2\n      0x01\n      and\n      iszero\n      0x0100\n      mul\n      sub\n      and\n      0x02\n      swap1\n      div\n      dup1\n      0x1f\n      add\n      0x20\n      dup1\n      swap2\n      div\n      mul\n      0x20\n      add\n      mload(0x40)\n      swap1\n      dup2\n      add\n      0x40\n      mstore\n      dup1\n      swap3\n      swap2\n      swap1\n      dup2\n      dup2\n      mstore\n      0x20\n      add\n      dup3\n      dup1\n      sload\n      0x01\n      dup2\n      0x01\n      and\n      iszero\n      0x0100\n      mul\n      sub\n      and\n      0x02\n      swap1\n      div\n      dup1\n      iszero\n      tag_281\n      jumpi\n      dup1\n      0x1f\n      lt\n      tag_282\n      jumpi\n      0x0100\n      dup1\n      dup4\n      sload\n      div\n      mul\n      dup4\n      mstore\n      swap2\n      0x20\n      add\n      swap2\n      jump(tag_281)\n    tag_282:\n      dup3\n      add\n      swap2\n      swap1\n      0x00\n      mstore\n      keccak256(0x00, 0x20)\n      swap1\n    tag_283:\n      dup2\n      sload\n      dup2\n      mstore\n      swap1\n      0x01\n      add\n      swap1\n      0x20\n      add\n      dup1\n      dup4\n      gt\n      tag_283\n      jumpi\n      dup3\n      swap1\n      sub\n      0x1f\n      and\n      dup3\n      add\n      swap2\n    tag_281:\n      pop\n      pop\n      pop\n      pop\n      pop\n      swap1\n      dup1\n      0x02\n      add\n      0x00\n      swap1\n      sload\n      swap1\n      0x0100\n      exp\n      swap1\n      div\n      0xff\n      and\n      swap1\n      dup1\n      0x03\n      add\n      sload\n      swap1\n      dup1\n      0x04\n      add\n      sload\n      swap1\n      dup1\n      0x05\n      add\n      sload\n      swap1\n      pop\n      dup7\n      jump\t// out\n        /* \"casaApuestas.sol\":13797:14016  function getCaballoGanador(uint _codCarrera) public \r... */\n    tag_67:\n        /* \"casaApuestas.sol\":13946:13950  uint */\n      0x00\n        /* \"casaApuestas.sol\":13869:13880  _codCarrera */\n      dup2\n        /* \"casaApuestas.sol\":3094:3095  0 */\n      0x00\n        /* \"casaApuestas.sol\":3054:3062  carreras */\n      0x02\n        /* \"casaApuestas.sol\":3054:3075  carreras[_codCarrera] */\n      0x00\n        /* \"casaApuestas.sol\":3063:3074  _codCarrera */\n      dup4\n        /* \"casaApuestas.sol\":3054:3075  carreras[_codCarrera] */\n      dup2\n      mstore\n      0x20\n      add\n      swap1\n      dup2\n      mstore\n      0x20\n      add\n      0x00\n      keccak256\n        /* \"casaApuestas.sol\":3054:3082  carreras[_codCarrera].nombre */\n      0x01\n      add\n        /* \"casaApuestas.sol\":3048:3090  bytes(carreras[_codCarrera].nombre).length */\n      dup1\n      sload\n      0x01\n      dup2\n      0x01\n      and\n      iszero\n      0x0100\n      mul\n      sub\n      and\n      0x02\n      swap1\n      div\n      swap1\n      pop\n        /* \"casaApuestas.sol\":3048:3095  bytes(carreras[_codCarrera].nombre).length != 0 */\n      eq\n      iszero\n        /* \"casaApuestas.sol\":3040:3130  require(bytes(carreras[_codCarrera].nombre).length != 0, \"La carrera ingresada no existe\") */\n      tag_285\n      jumpi\n      mload(0x40)\n      0x08c379a000000000000000000000000000000000000000000000000000000000\n      dup2\n      mstore\n      0x04\n      add\n      dup1\n      dup1\n      0x20\n      add\n      dup3\n      dup2\n      sub\n      dup3\n      mstore\n      0x1e\n      dup2\n      mstore\n      0x20\n      add\n      dup1\n      0x4c61206361727265726120696e67726573616461206e6f206578697374650000\n      dup2\n      mstore\n      pop\n      0x20\n      add\n      swap2\n      pop\n      pop\n      mload(0x40)\n      dup1\n      swap2\n      sub\n      swap1\n      revert\n    tag_285:\n        /* \"casaApuestas.sol\":13897:13908  _codCarrera */\n      dup3\n        /* \"casaApuestas.sol\":13910:13926  Estado.Terminada */\n      0x02\n        /* \"casaApuestas.sol\":2202:2209  _estado */\n      dup1\n        /* \"casaApuestas.sol\":2163:2209  carreras[_codCarrera].estadoCarrera == _estado */\n      0x02\n      dup2\n      gt\n      iszero\n      tag_287\n      jumpi\n      invalid\n    tag_287:\n        /* \"casaApuestas.sol\":2163:2171  carreras */\n      0x02\n        /* \"casaApuestas.sol\":2163:2184  carreras[_codCarrera] */\n      0x00\n        /* \"casaApuestas.sol\":2172:2183  _codCarrera */\n      dup5\n        /* \"casaApuestas.sol\":2163:2184  carreras[_codCarrera] */\n      dup2\n      mstore\n      0x20\n      add\n      swap1\n      dup2\n      mstore\n      0x20\n      add\n      0x00\n      keccak256\n        /* \"casaApuestas.sol\":2163:2198  carreras[_codCarrera].estadoCarrera */\n      0x02\n      add\n      0x00\n      swap1\n      sload\n      swap1\n      0x0100\n      exp\n      swap1\n      div\n      0xff\n      and\n        /* \"casaApuestas.sol\":2163:2209  carreras[_codCarrera].estadoCarrera == _estado */\n      0x02\n      dup2\n      gt\n      iszero\n      tag_288\n      jumpi\n      invalid\n    tag_288:\n      eq\n        /* \"casaApuestas.sol\":2155:2258  require(carreras[_codCarrera].estadoCarrera == _estado, \"La carrera no cumple con el estado requerido\") */\n      tag_289\n      jumpi\n      mload(0x40)\n      0x08c379a000000000000000000000000000000000000000000000000000000000\n      dup2\n      mstore\n      0x04\n      add\n      dup1\n      dup1\n      0x20\n      add\n      dup3\n      dup2\n      sub\n      dup3\n      mstore\n      0x2c\n      dup2\n      mstore\n      0x20\n      add\n      dup1\n      data_e91ca438e9e3f1e0e0a5b1a72a508ed5ae254b3cb59572817ac1ec6e2a488952\n      0x2c\n      swap2\n      codecopy\n      0x40\n      add\n      swap2\n      pop\n      pop\n      mload(0x40)\n      dup1\n      swap2\n      sub\n      swap1\n      revert\n    tag_289:\n        /* \"casaApuestas.sol\":13971:13979  carreras */\n      0x02\n        /* \"casaApuestas.sol\":13971:13992  carreras[_codCarrera] */\n      0x00\n        /* \"casaApuestas.sol\":13980:13991  _codCarrera */\n      dup7\n        /* \"casaApuestas.sol\":13971:13992  carreras[_codCarrera] */\n      dup2\n      mstore\n      0x20\n      add\n      swap1\n      dup2\n      mstore\n      0x20\n      add\n      0x00\n      keccak256\n        /* \"casaApuestas.sol\":13971:14007  carreras[_codCarrera].caballoGanador */\n      0x05\n      add\n      sload\n        /* \"casaApuestas.sol\":13963:14008  return (carreras[_codCarrera].caballoGanador) */\n      swap4\n      pop\n        /* \"casaApuestas.sol\":3141:3142  _ */\n      pop\n      pop\n        /* \"casaApuestas.sol\":13797:14016  function getCaballoGanador(uint _codCarrera) public \r... */\n      pop\n      swap2\n      swap1\n      pop\n      jump\t// out\n        /* \"casaApuestas.sol\":13504:13742  function getAddressApostador(uint _indiceApostador, uint _codCarrera) public \r... */\n    tag_71:\n        /* \"casaApuestas.sol\":13666:13673  address */\n      0x00\n        /* \"casaApuestas.sol\":13601:13612  _codCarrera */\n      dup2\n        /* \"casaApuestas.sol\":3094:3095  0 */\n      0x00\n        /* \"casaApuestas.sol\":3054:3062  carreras */\n      0x02\n        /* \"casaApuestas.sol\":3054:3075  carreras[_codCarrera] */\n      0x00\n        /* \"casaApuestas.sol\":3063:3074  _codCarrera */\n      dup4\n        /* \"casaApuestas.sol\":3054:3075  carreras[_codCarrera] */\n      dup2\n      mstore\n      0x20\n      add\n      swap1\n      dup2\n      mstore\n      0x20\n      add\n      0x00\n      keccak256\n        /* \"casaApuestas.sol\":3054:3082  carreras[_codCarrera].nombre */\n      0x01\n      add\n        /* \"casaApuestas.sol\":3048:3090  bytes(carreras[_codCarrera].nombre).length */\n      dup1\n      sload\n      0x01\n      dup2\n      0x01\n      and\n      iszero\n      0x0100\n      mul\n      sub\n      and\n      0x02\n      swap1\n      div\n      swap1\n      pop\n        /* \"casaApuestas.sol\":3048:3095  bytes(carreras[_codCarrera].nombre).length != 0 */\n      eq\n      iszero\n        /* \"casaApuestas.sol\":3040:3130  require(bytes(carreras[_codCarrera].nombre).length != 0, \"La carrera ingresada no existe\") */\n      tag_292\n      jumpi\n      mload(0x40)\n      0x08c379a000000000000000000000000000000000000000000000000000000000\n      dup2\n      mstore\n      0x04\n      add\n      dup1\n      dup1\n      0x20\n      add\n      dup3\n      dup2\n      sub\n      dup3\n      mstore\n      0x1e\n      dup2\n      mstore\n      0x20\n      add\n      dup1\n      0x4c61206361727265726120696e67726573616461206e6f206578697374650000\n      dup2\n      mstore\n      pop\n      0x20\n      add\n      swap2\n      pop\n      pop\n      mload(0x40)\n      dup1\n      swap2\n      sub\n      swap1\n      revert\n    tag_292:\n        /* \"casaApuestas.sol\":13635:13646  _codCarrera */\n      dup3\n        /* \"casaApuestas.sol\":5103:5104  0 */\n      0x00\n        /* \"casaApuestas.sol\":5069:5080  apostadores */\n      0x05\n        /* \"casaApuestas.sol\":5069:5093  apostadores[_codCarrera] */\n      0x00\n        /* \"casaApuestas.sol\":5081:5092  _codCarrera */\n      dup4\n        /* \"casaApuestas.sol\":5069:5093  apostadores[_codCarrera] */\n      dup2\n      mstore\n      0x20\n      add\n      swap1\n      dup2\n      mstore\n      0x20\n      add\n      0x00\n      keccak256\n        /* \"casaApuestas.sol\":5069:5100  apostadores[_codCarrera].length */\n      dup1\n      sload\n      swap1\n      pop\n        /* \"casaApuestas.sol\":5069:5104  apostadores[_codCarrera].length > 0 */\n      gt\n        /* \"casaApuestas.sol\":5061:5150  require(apostadores[_codCarrera].length > 0, \"La carrera ingresada no tiene apostadores\") */\n      tag_294\n      jumpi\n      mload(0x40)\n      0x08c379a000000000000000000000000000000000000000000000000000000000\n      dup2\n      mstore\n      0x04\n      add\n      dup1\n      dup1\n      0x20\n      add\n      dup3\n      dup2\n      sub\n      dup3\n      mstore\n      0x29\n      dup2\n      mstore\n      0x20\n      add\n      dup1\n      data_90d24e0daaf5dcc457b4940b4ca16d8fd57765162f8ffee460d8a22da7c775e1\n      0x29\n      swap2\n      codecopy\n      0x40\n      add\n      swap2\n      pop\n      pop\n      mload(0x40)\n      dup1\n      swap2\n      sub\n      swap1\n      revert\n    tag_294:\n        /* \"casaApuestas.sol\":13692:13703  apostadores */\n      0x05\n        /* \"casaApuestas.sol\":13692:13716  apostadores[_codCarrera] */\n      0x00\n        /* \"casaApuestas.sol\":13704:13715  _codCarrera */\n      dup6\n        /* \"casaApuestas.sol\":13692:13716  apostadores[_codCarrera] */\n      dup2\n      mstore\n      0x20\n      add\n      swap1\n      dup2\n      mstore\n      0x20\n      add\n      0x00\n      keccak256\n        /* \"casaApuestas.sol\":13717:13733  _indiceApostador */\n      dup6\n        /* \"casaApuestas.sol\":13692:13734  apostadores[_codCarrera][_indiceApostador] */\n      dup2\n      sload\n      dup2\n      lt\n      tag_296\n      jumpi\n      invalid\n    tag_296:\n      swap1\n      0x00\n      mstore\n      keccak256(0x00, 0x20)\n      add\n      0x00\n      swap1\n      sload\n      swap1\n      0x0100\n      exp\n      swap1\n      div\n      0xffffffffffffffffffffffffffffffffffffffff\n      and\n        /* \"casaApuestas.sol\":13685:13734  return apostadores[_codCarrera][_indiceApostador] */\n      swap3\n      pop\n        /* \"casaApuestas.sol\":3141:3142  _ */\n      pop\n        /* \"casaApuestas.sol\":13504:13742  function getAddressApostador(uint _indiceApostador, uint _codCarrera) public \r... */\n      pop\n      swap3\n      swap2\n      pop\n      pop\n      jump\t// out\n        /* \"casaApuestas.sol\":405:450  mapping(uint => address[]) public apostadores */\n    tag_75:\n      mstore(0x20, 0x05)\n      dup2\n      0x00\n      mstore\n      keccak256(0x00, 0x40)\n      dup2\n      dup2\n      sload\n      dup2\n      lt\n      tag_298\n      jumpi\n      invalid\n    tag_298:\n      swap1\n      0x00\n      mstore\n      keccak256(0x00, 0x20)\n      add\n      0x00\n      swap2\n      pop\n      swap2\n      pop\n      swap1\n      sload\n      swap1\n      0x0100\n      exp\n      swap1\n      div\n      0xffffffffffffffffffffffffffffffffffffffff\n      and\n      dup2\n      jump\t// out\n        /* \"casaApuestas.sol\":14068:14469  function getEstadoCarrera(uint _codCarrera) public \r... */\n    tag_79:\n        /* \"casaApuestas.sol\":14170:14183  string memory */\n      0x60\n        /* \"casaApuestas.sol\":14139:14150  _codCarrera */\n      dup2\n        /* \"casaApuestas.sol\":3094:3095  0 */\n      0x00\n        /* \"casaApuestas.sol\":3054:3062  carreras */\n      0x02\n        /* \"casaApuestas.sol\":3054:3075  carreras[_codCarrera] */\n      0x00\n        /* \"casaApuestas.sol\":3063:3074  _codCarrera */\n      dup4\n        /* \"casaApuestas.sol\":3054:3075  carreras[_codCarrera] */\n      dup2\n      mstore\n      0x20\n      add\n      swap1\n      dup2\n      mstore\n      0x20\n      add\n      0x00\n      keccak256\n        /* \"casaApuestas.sol\":3054:3082  carreras[_codCarrera].nombre */\n      0x01\n      add\n        /* \"casaApuestas.sol\":3048:3090  bytes(carreras[_codCarrera].nombre).length */\n      dup1\n      sload\n      0x01\n      dup2\n      0x01\n      and\n      iszero\n      0x0100\n      mul\n      sub\n      and\n      0x02\n      swap1\n      div\n      swap1\n      pop\n        /* \"casaApuestas.sol\":3048:3095  bytes(carreras[_codCarrera].nombre).length != 0 */\n      eq\n      iszero\n        /* \"casaApuestas.sol\":3040:3130  require(bytes(carreras[_codCarrera].nombre).length != 0, \"La carrera ingresada no existe\") */\n      tag_301\n      jumpi\n      mload(0x40)\n      0x08c379a000000000000000000000000000000000000000000000000000000000\n      dup2\n      mstore\n      0x04\n      add\n      dup1\n      dup1\n      0x20\n      add\n      dup3\n      dup2\n      sub\n      dup3\n      mstore\n      0x1e\n      dup2\n      mstore\n      0x20\n      add\n      dup1\n      0x4c61206361727265726120696e67726573616461206e6f206578697374650000\n      dup2\n      mstore\n      pop\n      0x20\n      add\n      swap2\n      pop\n      pop\n      mload(0x40)\n      dup1\n      swap2\n      sub\n      swap1\n      revert\n    tag_301:\n        /* \"casaApuestas.sol\":14239:14252  Estado.Creada */\n      0x00\n        /* \"casaApuestas.sol\":14200:14252  carreras[_codCarrera].estadoCarrera == Estado.Creada */\n      0x02\n      dup2\n      gt\n      iszero\n      tag_303\n      jumpi\n      invalid\n    tag_303:\n        /* \"casaApuestas.sol\":14200:14208  carreras */\n      0x02\n        /* \"casaApuestas.sol\":14200:14221  carreras[_codCarrera] */\n      0x00\n        /* \"casaApuestas.sol\":14209:14220  _codCarrera */\n      dup6\n        /* \"casaApuestas.sol\":14200:14221  carreras[_codCarrera] */\n      dup2\n      mstore\n      0x20\n      add\n      swap1\n      dup2\n      mstore\n      0x20\n      add\n      0x00\n      keccak256\n        /* \"casaApuestas.sol\":14200:14235  carreras[_codCarrera].estadoCarrera */\n      0x02\n      add\n      0x00\n      swap1\n      sload\n      swap1\n      0x0100\n      exp\n      swap1\n      div\n      0xff\n      and\n        /* \"casaApuestas.sol\":14200:14252  carreras[_codCarrera].estadoCarrera == Estado.Creada */\n      0x02\n      dup2\n      gt\n      iszero\n      tag_304\n      jumpi\n      invalid\n    tag_304:\n      eq\n        /* \"casaApuestas.sol\":14196:14462  if (carreras[_codCarrera].estadoCarrera == Estado.Creada){\r... */\n      iszero\n      tag_305\n      jumpi\n        /* \"casaApuestas.sol\":14268:14285  return (\"Creada\") */\n      mload(0x40)\n      dup1\n      0x40\n      add\n      0x40\n      mstore\n      dup1\n      0x06\n      dup2\n      mstore\n      0x20\n      add\n      0x4372656164610000000000000000000000000000000000000000000000000000\n      dup2\n      mstore\n      pop\n      swap2\n      pop\n      jump(tag_302)\n        /* \"casaApuestas.sol\":14196:14462  if (carreras[_codCarrera].estadoCarrera == Estado.Creada){\r... */\n    tag_305:\n        /* \"casaApuestas.sol\":14345:14362  Estado.Registrada */\n      0x01\n        /* \"casaApuestas.sol\":14306:14362  carreras[_codCarrera].estadoCarrera == Estado.Registrada */\n      0x02\n      dup2\n      gt\n      iszero\n      tag_307\n      jumpi\n      invalid\n    tag_307:\n        /* \"casaApuestas.sol\":14306:14314  carreras */\n      0x02\n        /* \"casaApuestas.sol\":14306:14327  carreras[_codCarrera] */\n      0x00\n        /* \"casaApuestas.sol\":14315:14326  _codCarrera */\n      dup6\n        /* \"casaApuestas.sol\":14306:14327  carreras[_codCarrera] */\n      dup2\n      mstore\n      0x20\n      add\n      swap1\n      dup2\n      mstore\n      0x20\n      add\n      0x00\n      keccak256\n        /* \"casaApuestas.sol\":14306:14341  carreras[_codCarrera].estadoCarrera */\n      0x02\n      add\n      0x00\n      swap1\n      sload\n      swap1\n      0x0100\n      exp\n      swap1\n      div\n      0xff\n      and\n        /* \"casaApuestas.sol\":14306:14362  carreras[_codCarrera].estadoCarrera == Estado.Registrada */\n      0x02\n      dup2\n      gt\n      iszero\n      tag_308\n      jumpi\n      invalid\n    tag_308:\n      eq\n        /* \"casaApuestas.sol\":14302:14462  if (carreras[_codCarrera].estadoCarrera == Estado.Registrada){\r... */\n      iszero\n      tag_309\n      jumpi\n        /* \"casaApuestas.sol\":14378:14399  return (\"Registrada\") */\n      mload(0x40)\n      dup1\n      0x40\n      add\n      0x40\n      mstore\n      dup1\n      0x0a\n      dup2\n      mstore\n      0x20\n      add\n      0x5265676973747261646100000000000000000000000000000000000000000000\n      dup2\n      mstore\n      pop\n      swap2\n      pop\n      jump(tag_302)\n        /* \"casaApuestas.sol\":14302:14462  if (carreras[_codCarrera].estadoCarrera == Estado.Registrada){\r... */\n    tag_309:\n        /* \"casaApuestas.sol\":14430:14450  return (\"Terminada\") */\n      mload(0x40)\n      dup1\n      0x40\n      add\n      0x40\n      mstore\n      dup1\n      0x09\n      dup2\n      mstore\n      0x20\n      add\n      0x5465726d696e6164610000000000000000000000000000000000000000000000\n      dup2\n      mstore\n      pop\n      swap2\n      pop\n        /* \"casaApuestas.sol\":3141:3142  _ */\n    tag_302:\n        /* \"casaApuestas.sol\":14068:14469  function getEstadoCarrera(uint _codCarrera) public \r... */\n      pop\n      swap2\n      swap1\n      pop\n      jump\t// out\n        /* \"casaApuestas.sol\":135:160  uint public totalCarreras */\n    tag_86:\n      sload(0x01)\n      dup2\n      jump\t// out\n        /* \"casaApuestas.sol\":236:276  mapping(uint => Caballo) public caballos */\n    tag_90:\n      mstore(0x20, 0x03)\n      dup1\n      0x00\n      mstore\n      keccak256(0x00, 0x40)\n      0x00\n      swap2\n      pop\n      swap1\n      pop\n      dup1\n      0x00\n      add\n      sload\n      swap1\n      dup1\n      0x01\n      add\n      dup1\n      sload\n      0x01\n      dup2\n      0x01\n      and\n      iszero\n      0x0100\n      mul\n      sub\n      and\n      0x02\n      swap1\n      div\n      dup1\n      0x1f\n      add\n      0x20\n      dup1\n      swap2\n      div\n      mul\n      0x20\n      add\n      mload(0x40)\n      swap1\n      dup2\n      add\n      0x40\n      mstore\n      dup1\n      swap3\n      swap2\n      swap1\n      dup2\n      dup2\n      mstore\n      0x20\n      add\n      dup3\n      dup1\n      sload\n      0x01\n      dup2\n      0x01\n      and\n      iszero\n      0x0100\n      mul\n      sub\n      and\n      0x02\n      swap1\n      div\n      dup1\n      iszero\n      tag_311\n      jumpi\n      dup1\n      0x1f\n      lt\n      tag_312\n      jumpi\n      0x0100\n      dup1\n      dup4\n      sload\n      div\n      mul\n      dup4\n      mstore\n      swap2\n      0x20\n      add\n      swap2\n      jump(tag_311)\n    tag_312:\n      dup3\n      add\n      swap2\n      swap1\n      0x00\n      mstore\n      keccak256(0x00, 0x20)\n      swap1\n    tag_313:\n      dup2\n      sload\n      dup2\n      mstore\n      swap1\n      0x01\n      add\n      swap1\n      0x20\n      add\n      dup1\n      dup4\n      gt\n      tag_313\n      jumpi\n      dup3\n      swap1\n      sub\n      0x1f\n      and\n      dup3\n      add\n      swap2\n    tag_311:\n      pop\n      pop\n      pop\n      pop\n      pop\n      swap1\n      pop\n      dup3\n      jump\t// out\n        /* \"casaApuestas.sol\":6761:8064  function apostar(uint _codCaballo, uint _codCarrera) payable public \r... */\n    tag_97:\n        /* \"casaApuestas.sol\":1924:1933  anfitrion */\n      0x00\n      dup1\n      swap1\n      sload\n      swap1\n      0x0100\n      exp\n      swap1\n      div\n      0xffffffffffffffffffffffffffffffffffffffff\n      and\n        /* \"casaApuestas.sol\":1910:1933  msg.sender != anfitrion */\n      0xffffffffffffffffffffffffffffffffffffffff\n      and\n        /* \"casaApuestas.sol\":1910:1920  msg.sender */\n      caller\n        /* \"casaApuestas.sol\":1910:1933  msg.sender != anfitrion */\n      0xffffffffffffffffffffffffffffffffffffffff\n      and\n      eq\n      iszero\n        /* \"casaApuestas.sol\":1902:1993  require(msg.sender != anfitrion, \"El invocador debe ser un usuario diferente al anfitrion\") */\n      tag_315\n      jumpi\n      mload(0x40)\n      0x08c379a000000000000000000000000000000000000000000000000000000000\n      dup2\n      mstore\n      0x04\n      add\n      dup1\n      dup1\n      0x20\n      add\n      dup3\n      dup2\n      sub\n      dup3\n      mstore\n      0x37\n      dup2\n      mstore\n      0x20\n      add\n      dup1\n      data_c258d99636b674a8c760b7677c129033d423282c7394402c18f597a1eab563a1\n      0x37\n      swap2\n      codecopy\n      0x40\n      add\n      swap2\n      pop\n      pop\n      mload(0x40)\n      dup1\n      swap2\n      sub\n      swap1\n      revert\n    tag_315:\n        /* \"casaApuestas.sol\":6865:6876  _codCarrera */\n      dup1\n        /* \"casaApuestas.sol\":6878:6895  Estado.Registrada */\n      0x01\n        /* \"casaApuestas.sol\":2202:2209  _estado */\n      dup1\n        /* \"casaApuestas.sol\":2163:2209  carreras[_codCarrera].estadoCarrera == _estado */\n      0x02\n      dup2\n      gt\n      iszero\n      tag_317\n      jumpi\n      invalid\n    tag_317:\n        /* \"casaApuestas.sol\":2163:2171  carreras */\n      0x02\n        /* \"casaApuestas.sol\":2163:2184  carreras[_codCarrera] */\n      0x00\n        /* \"casaApuestas.sol\":2172:2183  _codCarrera */\n      dup5\n        /* \"casaApuestas.sol\":2163:2184  carreras[_codCarrera] */\n      dup2\n      mstore\n      0x20\n      add\n      swap1\n      dup2\n      mstore\n      0x20\n      add\n      0x00\n      keccak256\n        /* \"casaApuestas.sol\":2163:2198  carreras[_codCarrera].estadoCarrera */\n      0x02\n      add\n      0x00\n      swap1\n      sload\n      swap1\n      0x0100\n      exp\n      swap1\n      div\n      0xff\n      and\n        /* \"casaApuestas.sol\":2163:2209  carreras[_codCarrera].estadoCarrera == _estado */\n      0x02\n      dup2\n      gt\n      iszero\n      tag_318\n      jumpi\n      invalid\n    tag_318:\n      eq\n        /* \"casaApuestas.sol\":2155:2258  require(carreras[_codCarrera].estadoCarrera == _estado, \"La carrera no cumple con el estado requerido\") */\n      tag_319\n      jumpi\n      mload(0x40)\n      0x08c379a000000000000000000000000000000000000000000000000000000000\n      dup2\n      mstore\n      0x04\n      add\n      dup1\n      dup1\n      0x20\n      add\n      dup3\n      dup2\n      sub\n      dup3\n      mstore\n      0x2c\n      dup2\n      mstore\n      0x20\n      add\n      dup1\n      data_e91ca438e9e3f1e0e0a5b1a72a508ed5ae254b3cb59572817ac1ec6e2a488952\n      0x2c\n      swap2\n      codecopy\n      0x40\n      add\n      swap2\n      pop\n      pop\n      mload(0x40)\n      dup1\n      swap2\n      sub\n      swap1\n      revert\n    tag_319:\n        /* \"casaApuestas.sol\":6916:6927  _codCaballo */\n      dup4\n        /* \"casaApuestas.sol\":2886:2887  0 */\n      0x00\n        /* \"casaApuestas.sol\":2846:2854  caballos */\n      0x03\n        /* \"casaApuestas.sol\":2846:2867  caballos[_codCaballo] */\n      0x00\n        /* \"casaApuestas.sol\":2855:2866  _codCaballo */\n      dup4\n        /* \"casaApuestas.sol\":2846:2867  caballos[_codCaballo] */\n      dup2\n      mstore\n      0x20\n      add\n      swap1\n      dup2\n      mstore\n      0x20\n      add\n      0x00\n      keccak256\n        /* \"casaApuestas.sol\":2846:2874  caballos[_codCaballo].nombre */\n      0x01\n      add\n        /* \"casaApuestas.sol\":2840:2882  bytes(caballos[_codCaballo].nombre).length */\n      dup1\n      sload\n      0x01\n      dup2\n      0x01\n      and\n      iszero\n      0x0100\n      mul\n      sub\n      and\n      0x02\n      swap1\n      div\n      swap1\n      pop\n        /* \"casaApuestas.sol\":2840:2887  bytes(caballos[_codCaballo].nombre).length != 0 */\n      eq\n      iszero\n        /* \"casaApuestas.sol\":2832:2922  require(bytes(caballos[_codCaballo].nombre).length != 0, \"El caballo ingresado no existe\") */\n      tag_321\n      jumpi\n      mload(0x40)\n      0x08c379a000000000000000000000000000000000000000000000000000000000\n      dup2\n      mstore\n      0x04\n      add\n      dup1\n      dup1\n      0x20\n      add\n      dup3\n      dup2\n      sub\n      dup3\n      mstore\n      0x1e\n      dup2\n      mstore\n      0x20\n      add\n      dup1\n      0x456c20636162616c6c6f20696e6772657361646f206e6f206578697374650000\n      dup2\n      mstore\n      pop\n      0x20\n      add\n      swap2\n      pop\n      pop\n      mload(0x40)\n      dup1\n      swap2\n      sub\n      swap1\n      revert\n    tag_321:\n        /* \"casaApuestas.sol\":6948:6959  _codCarrera */\n      dup4\n        /* \"casaApuestas.sol\":3094:3095  0 */\n      0x00\n        /* \"casaApuestas.sol\":3054:3062  carreras */\n      0x02\n        /* \"casaApuestas.sol\":3054:3075  carreras[_codCarrera] */\n      0x00\n        /* \"casaApuestas.sol\":3063:3074  _codCarrera */\n      dup4\n        /* \"casaApuestas.sol\":3054:3075  carreras[_codCarrera] */\n      dup2\n      mstore\n      0x20\n      add\n      swap1\n      dup2\n      mstore\n      0x20\n      add\n      0x00\n      keccak256\n        /* \"casaApuestas.sol\":3054:3082  carreras[_codCarrera].nombre */\n      0x01\n      add\n        /* \"casaApuestas.sol\":3048:3090  bytes(carreras[_codCarrera].nombre).length */\n      dup1\n      sload\n      0x01\n      dup2\n      0x01\n      and\n      iszero\n      0x0100\n      mul\n      sub\n      and\n      0x02\n      swap1\n      div\n      swap1\n      pop\n        /* \"casaApuestas.sol\":3048:3095  bytes(carreras[_codCarrera].nombre).length != 0 */\n      eq\n      iszero\n        /* \"casaApuestas.sol\":3040:3130  require(bytes(carreras[_codCarrera].nombre).length != 0, \"La carrera ingresada no existe\") */\n      tag_323\n      jumpi\n      mload(0x40)\n      0x08c379a000000000000000000000000000000000000000000000000000000000\n      dup2\n      mstore\n      0x04\n      add\n      dup1\n      dup1\n      0x20\n      add\n      dup3\n      dup2\n      sub\n      dup3\n      mstore\n      0x1e\n      dup2\n      mstore\n      0x20\n      add\n      dup1\n      0x4c61206361727265726120696e67726573616461206e6f206578697374650000\n      dup2\n      mstore\n      pop\n      0x20\n      add\n      swap2\n      pop\n      pop\n      mload(0x40)\n      dup1\n      swap2\n      sub\n      swap1\n      revert\n    tag_323:\n        /* \"casaApuestas.sol\":6983:6994  _codCarrera */\n      dup5\n        /* \"casaApuestas.sol\":6996:7007  _codCaballo */\n      dup7\n        /* \"casaApuestas.sol\":4337:4354  uint cantCaballos */\n      0x00\n        /* \"casaApuestas.sol\":4357:4369  competencias */\n      0x04\n        /* \"casaApuestas.sol\":4357:4382  competencias[_codCarrera] */\n      0x00\n        /* \"casaApuestas.sol\":4370:4381  _codCarrera */\n      dup5\n        /* \"casaApuestas.sol\":4357:4382  competencias[_codCarrera] */\n      dup2\n      mstore\n      0x20\n      add\n      swap1\n      dup2\n      mstore\n      0x20\n      add\n      0x00\n      keccak256\n        /* \"casaApuestas.sol\":4357:4389  competencias[_codCarrera].length */\n      dup1\n      sload\n      swap1\n      pop\n        /* \"casaApuestas.sol\":4337:4389  uint cantCaballos = competencias[_codCarrera].length */\n      swap1\n      pop\n        /* \"casaApuestas.sol\":4400:4418  bool cabEncontrado */\n      0x00\n        /* \"casaApuestas.sol\":4421:4426  false */\n      dup1\n        /* \"casaApuestas.sol\":4400:4426  bool cabEncontrado = false */\n      swap1\n      pop\n        /* \"casaApuestas.sol\":4441:4447  uint i */\n      0x00\n        /* \"casaApuestas.sol\":4450:4451  0 */\n      dup1\n        /* \"casaApuestas.sol\":4441:4451  uint i = 0 */\n      swap1\n      pop\n        /* \"casaApuestas.sol\":4437:4627  for(uint i = 0; i < cantCaballos; i++){\r... */\n    tag_325:\n        /* \"casaApuestas.sol\":4457:4469  cantCaballos */\n      dup3\n        /* \"casaApuestas.sol\":4453:4454  i */\n      dup2\n        /* \"casaApuestas.sol\":4453:4469  i < cantCaballos */\n      lt\n        /* \"casaApuestas.sol\":4437:4627  for(uint i = 0; i < cantCaballos; i++){\r... */\n      iszero\n      tag_326\n      jumpi\n        /* \"casaApuestas.sol\":4525:4536  _codCaballo */\n      dup4\n        /* \"casaApuestas.sol\":4493:4505  competencias */\n      0x04\n        /* \"casaApuestas.sol\":4493:4518  competencias[_codCarrera] */\n      0x00\n        /* \"casaApuestas.sol\":4506:4517  _codCarrera */\n      dup8\n        /* \"casaApuestas.sol\":4493:4518  competencias[_codCarrera] */\n      dup2\n      mstore\n      0x20\n      add\n      swap1\n      dup2\n      mstore\n      0x20\n      add\n      0x00\n      keccak256\n        /* \"casaApuestas.sol\":4519:4520  i */\n      dup3\n        /* \"casaApuestas.sol\":4493:4521  competencias[_codCarrera][i] */\n      dup2\n      sload\n      dup2\n      lt\n      tag_328\n      jumpi\n      invalid\n    tag_328:\n      swap1\n      0x00\n      mstore\n      keccak256(0x00, 0x20)\n      add\n      sload\n        /* \"casaApuestas.sol\":4493:4536  competencias[_codCarrera][i] == _codCaballo */\n      eq\n        /* \"casaApuestas.sol\":4490:4616  if(competencias[_codCarrera][i] == _codCaballo){\r... */\n      iszero\n      tag_330\n      jumpi\n        /* \"casaApuestas.sol\":4572:4576  true */\n      0x01\n        /* \"casaApuestas.sol\":4556:4576  cabEncontrado = true */\n      swap2\n      pop\n        /* \"casaApuestas.sol\":4595:4600  break */\n      jump(tag_326)\n        /* \"casaApuestas.sol\":4490:4616  if(competencias[_codCarrera][i] == _codCaballo){\r... */\n    tag_330:\n        /* \"casaApuestas.sol\":4471:4474  i++ */\n      dup1\n      dup1\n      0x01\n      add\n      swap2\n      pop\n      pop\n        /* \"casaApuestas.sol\":4437:4627  for(uint i = 0; i < cantCaballos; i++){\r... */\n      jump(tag_325)\n    tag_326:\n      pop\n        /* \"casaApuestas.sol\":4645:4658  cabEncontrado */\n      dup1\n        /* \"casaApuestas.sol\":4637:4718  require(cabEncontrado, \"Este caballo no se encuentra registrado en esta carrera\") */\n      tag_331\n      jumpi\n      mload(0x40)\n      0x08c379a000000000000000000000000000000000000000000000000000000000\n      dup2\n      mstore\n      0x04\n      add\n      dup1\n      dup1\n      0x20\n      add\n      dup3\n      dup2\n      sub\n      dup3\n      mstore\n      0x37\n      dup2\n      mstore\n      0x20\n      add\n      dup1\n      data_961fcad8d1437fb7fcd32c3c0cb1abc4a020f237cc5c3c4ecf402a363363c4fd\n      0x37\n      swap2\n      codecopy\n      0x40\n      add\n      swap2\n      pop\n      pop\n      mload(0x40)\n      dup1\n      swap2\n      sub\n      swap1\n      revert\n    tag_331:\n        /* \"casaApuestas.sol\":7030:7039  msg.value */\n      callvalue\n        /* \"casaApuestas.sol\":4872:4873  0 */\n      0x00\n        /* \"casaApuestas.sol\":4863:4869  _monto */\n      dup2\n        /* \"casaApuestas.sol\":4863:4873  _monto > 0 */\n      gt\n        /* \"casaApuestas.sol\":4855:4919  require(_monto > 0, \"El monto de la apuesta debe ser mayor a 0\") */\n      tag_333\n      jumpi\n      mload(0x40)\n      0x08c379a000000000000000000000000000000000000000000000000000000000\n      dup2\n      mstore\n      0x04\n      add\n      dup1\n      dup1\n      0x20\n      add\n      dup3\n      dup2\n      sub\n      dup3\n      mstore\n      0x29\n      dup2\n      mstore\n      0x20\n      add\n      dup1\n      data_6f447a6923745e6be6f901d62f9112c38aa63e63c11e0640be511470a9c26a07\n      0x29\n      swap2\n      codecopy\n      0x40\n      add\n      swap2\n      pop\n      pop\n      mload(0x40)\n      dup1\n      swap2\n      sub\n      swap1\n      revert\n    tag_333:\n        /* \"casaApuestas.sol\":7051:7068  uint montoApuesta */\n      0x00\n        /* \"casaApuestas.sol\":7071:7080  msg.value */\n      callvalue\n        /* \"casaApuestas.sol\":7051:7080  uint montoApuesta = msg.value */\n      swap1\n      pop\n        /* \"casaApuestas.sol\":7091:7108  address apostador */\n      0x00\n        /* \"casaApuestas.sol\":7111:7121  msg.sender */\n      caller\n        /* \"casaApuestas.sol\":7091:7121  address apostador = msg.sender */\n      swap1\n      pop\n        /* \"casaApuestas.sol\":7190:7198  carreras */\n      0x02\n        /* \"casaApuestas.sol\":7190:7211  carreras[_codCarrera] */\n      0x00\n        /* \"casaApuestas.sol\":7199:7210  _codCarrera */\n      dup14\n        /* \"casaApuestas.sol\":7190:7211  carreras[_codCarrera] */\n      dup2\n      mstore\n      0x20\n      add\n      swap1\n      dup2\n      mstore\n      0x20\n      add\n      0x00\n      keccak256\n        /* \"casaApuestas.sol\":7190:7220  carreras[_codCarrera].apuestas */\n      0x06\n      add\n        /* \"casaApuestas.sol\":7190:7231  carreras[_codCarrera].apuestas[apostador] */\n      0x00\n        /* \"casaApuestas.sol\":7221:7230  apostador */\n      dup3\n        /* \"casaApuestas.sol\":7190:7231  carreras[_codCarrera].apuestas[apostador] */\n      0xffffffffffffffffffffffffffffffffffffffff\n      and\n      0xffffffffffffffffffffffffffffffffffffffff\n      and\n      dup2\n      mstore\n      0x20\n      add\n      swap1\n      dup2\n      mstore\n      0x20\n      add\n      0x00\n      keccak256\n        /* \"casaApuestas.sol\":7190:7238  carreras[_codCarrera].apuestas[apostador].creada */\n      0x02\n      add\n      0x00\n      swap1\n      sload\n      swap1\n      0x0100\n      exp\n      swap1\n      div\n      0xff\n      and\n        /* \"casaApuestas.sol\":7187:7974  if(carreras[_codCarrera].apuestas[apostador].creada){\r... */\n      iszero\n      tag_335\n      jumpi\n        /* \"casaApuestas.sol\":7388:7399  _codCaballo */\n      dup13\n        /* \"casaApuestas.sol\":7332:7340  carreras */\n      0x02\n        /* \"casaApuestas.sol\":7332:7353  carreras[_codCarrera] */\n      0x00\n        /* \"casaApuestas.sol\":7341:7352  _codCarrera */\n      dup15\n        /* \"casaApuestas.sol\":7332:7353  carreras[_codCarrera] */\n      dup2\n      mstore\n      0x20\n      add\n      swap1\n      dup2\n      mstore\n      0x20\n      add\n      0x00\n      keccak256\n        /* \"casaApuestas.sol\":7332:7362  carreras[_codCarrera].apuestas */\n      0x06\n      add\n        /* \"casaApuestas.sol\":7332:7373  carreras[_codCarrera].apuestas[apostador] */\n      0x00\n        /* \"casaApuestas.sol\":7363:7372  apostador */\n      dup4\n        /* \"casaApuestas.sol\":7332:7373  carreras[_codCarrera].apuestas[apostador] */\n      0xffffffffffffffffffffffffffffffffffffffff\n      and\n      0xffffffffffffffffffffffffffffffffffffffff\n      and\n      dup2\n      mstore\n      0x20\n      add\n      swap1\n      dup2\n      mstore\n      0x20\n      add\n      0x00\n      keccak256\n        /* \"casaApuestas.sol\":7332:7384  carreras[_codCarrera].apuestas[apostador].codCaballo */\n      0x01\n      add\n      sload\n        /* \"casaApuestas.sol\":7332:7399  carreras[_codCarrera].apuestas[apostador].codCaballo == _codCaballo */\n      eq\n        /* \"casaApuestas.sol\":7324:7463  require(carreras[_codCarrera].apuestas[apostador].codCaballo == _codCaballo, \"Solo se puede apostar por un caballo dentro de esta carrera\") */\n      tag_336\n      jumpi\n      mload(0x40)\n      0x08c379a000000000000000000000000000000000000000000000000000000000\n      dup2\n      mstore\n      0x04\n      add\n      dup1\n      dup1\n      0x20\n      add\n      dup3\n      dup2\n      sub\n      dup3\n      mstore\n      0x3b\n      dup2\n      mstore\n      0x20\n      add\n      dup1\n      data_015e2967b1a324c495f3905ebc30437189d94d81ee000a6adba682a4697a35b6\n      0x3b\n      swap2\n      codecopy\n      0x40\n      add\n      swap2\n      pop\n      pop\n      mload(0x40)\n      dup1\n      swap2\n      sub\n      swap1\n      revert\n    tag_336:\n        /* \"casaApuestas.sol\":7529:7541  montoApuesta */\n      dup2\n        /* \"casaApuestas.sol\":7478:7486  carreras */\n      0x02\n        /* \"casaApuestas.sol\":7478:7499  carreras[_codCarrera] */\n      0x00\n        /* \"casaApuestas.sol\":7487:7498  _codCarrera */\n      dup15\n        /* \"casaApuestas.sol\":7478:7499  carreras[_codCarrera] */\n      dup2\n      mstore\n      0x20\n      add\n      swap1\n      dup2\n      mstore\n      0x20\n      add\n      0x00\n      keccak256\n        /* \"casaApuestas.sol\":7478:7508  carreras[_codCarrera].apuestas */\n      0x06\n      add\n        /* \"casaApuestas.sol\":7478:7519  carreras[_codCarrera].apuestas[apostador] */\n      0x00\n        /* \"casaApuestas.sol\":7509:7518  apostador */\n      dup4\n        /* \"casaApuestas.sol\":7478:7519  carreras[_codCarrera].apuestas[apostador] */\n      0xffffffffffffffffffffffffffffffffffffffff\n      and\n      0xffffffffffffffffffffffffffffffffffffffff\n      and\n      dup2\n      mstore\n      0x20\n      add\n      swap1\n      dup2\n      mstore\n      0x20\n      add\n      0x00\n      keccak256\n        /* \"casaApuestas.sol\":7478:7525  carreras[_codCarrera].apuestas[apostador].monto */\n      0x00\n      add\n      0x00\n        /* \"casaApuestas.sol\":7478:7541  carreras[_codCarrera].apuestas[apostador].monto += montoApuesta */\n      dup3\n      dup3\n      sload\n      add\n      swap3\n      pop\n      pop\n      dup2\n      swap1\n      sstore\n      pop\n        /* \"casaApuestas.sol\":7592:7604  montoApuesta */\n      dup2\n        /* \"casaApuestas.sol\":7556:7564  carreras */\n      0x02\n        /* \"casaApuestas.sol\":7556:7577  carreras[_codCarrera] */\n      0x00\n        /* \"casaApuestas.sol\":7565:7576  _codCarrera */\n      dup15\n        /* \"casaApuestas.sol\":7556:7577  carreras[_codCarrera] */\n      dup2\n      mstore\n      0x20\n      add\n      swap1\n      dup2\n      mstore\n      0x20\n      add\n      0x00\n      keccak256\n        /* \"casaApuestas.sol\":7556:7588  carreras[_codCarrera].montoTotal */\n      0x03\n      add\n      0x00\n        /* \"casaApuestas.sol\":7556:7604  carreras[_codCarrera].montoTotal += montoApuesta */\n      dup3\n      dup3\n      sload\n      add\n      swap3\n      pop\n      pop\n      dup2\n      swap1\n      sstore\n      pop\n        /* \"casaApuestas.sol\":7187:7974  if(carreras[_codCarrera].apuestas[apostador].creada){\r... */\n      jump(tag_337)\n    tag_335:\n        /* \"casaApuestas.sol\":7766:7812  Apuesta(montoApuesta, _codCaballo, true, 0, 0) */\n      mload(0x40)\n      dup1\n      0xa0\n      add\n      0x40\n      mstore\n      dup1\n        /* \"casaApuestas.sol\":7774:7786  montoApuesta */\n      dup4\n        /* \"casaApuestas.sol\":7766:7812  Apuesta(montoApuesta, _codCaballo, true, 0, 0) */\n      dup2\n      mstore\n      0x20\n      add\n        /* \"casaApuestas.sol\":7788:7799  _codCaballo */\n      dup15\n        /* \"casaApuestas.sol\":7766:7812  Apuesta(montoApuesta, _codCaballo, true, 0, 0) */\n      dup2\n      mstore\n      0x20\n      add\n        /* \"casaApuestas.sol\":7801:7805  true */\n      0x01\n        /* \"casaApuestas.sol\":7766:7812  Apuesta(montoApuesta, _codCaballo, true, 0, 0) */\n      iszero\n      iszero\n      dup2\n      mstore\n      0x20\n      add\n        /* \"casaApuestas.sol\":7807:7808  0 */\n      0x00\n        /* \"casaApuestas.sol\":7766:7812  Apuesta(montoApuesta, _codCaballo, true, 0, 0) */\n      dup2\n      mstore\n      0x20\n      add\n        /* \"casaApuestas.sol\":7810:7811  0 */\n      0x00\n        /* \"casaApuestas.sol\":7766:7812  Apuesta(montoApuesta, _codCaballo, true, 0, 0) */\n      dup2\n      mstore\n      pop\n        /* \"casaApuestas.sol\":7722:7730  carreras */\n      0x02\n        /* \"casaApuestas.sol\":7722:7743  carreras[_codCarrera] */\n      0x00\n        /* \"casaApuestas.sol\":7731:7742  _codCarrera */\n      dup15\n        /* \"casaApuestas.sol\":7722:7743  carreras[_codCarrera] */\n      dup2\n      mstore\n      0x20\n      add\n      swap1\n      dup2\n      mstore\n      0x20\n      add\n      0x00\n      keccak256\n        /* \"casaApuestas.sol\":7722:7752  carreras[_codCarrera].apuestas */\n      0x06\n      add\n        /* \"casaApuestas.sol\":7722:7763  carreras[_codCarrera].apuestas[apostador] */\n      0x00\n        /* \"casaApuestas.sol\":7753:7762  apostador */\n      dup4\n        /* \"casaApuestas.sol\":7722:7763  carreras[_codCarrera].apuestas[apostador] */\n      0xffffffffffffffffffffffffffffffffffffffff\n      and\n      0xffffffffffffffffffffffffffffffffffffffff\n      and\n      dup2\n      mstore\n      0x20\n      add\n      swap1\n      dup2\n      mstore\n      0x20\n      add\n      0x00\n      keccak256\n        /* \"casaApuestas.sol\":7722:7812  carreras[_codCarrera].apuestas[apostador] = Apuesta(montoApuesta, _codCaballo, true, 0, 0) */\n      0x00\n      dup3\n      add\n      mload\n      dup2\n      0x00\n      add\n      sstore\n      0x20\n      dup3\n      add\n      mload\n      dup2\n      0x01\n      add\n      sstore\n      0x40\n      dup3\n      add\n      mload\n      dup2\n      0x02\n      add\n      exp(0x0100, 0x00)\n      dup2\n      sload\n      dup2\n      0xff\n      mul\n      not\n      and\n      swap1\n      dup4\n      iszero\n      iszero\n      mul\n      or\n      swap1\n      sstore\n      pop\n      0x60\n      dup3\n      add\n      mload\n      dup2\n      0x03\n      add\n      sstore\n      0x80\n      dup3\n      add\n      mload\n      dup2\n      0x04\n      add\n      sstore\n      swap1\n      pop\n      pop\n        /* \"casaApuestas.sol\":7863:7875  montoApuesta */\n      dup2\n        /* \"casaApuestas.sol\":7827:7835  carreras */\n      0x02\n        /* \"casaApuestas.sol\":7827:7848  carreras[_codCarrera] */\n      0x00\n        /* \"casaApuestas.sol\":7836:7847  _codCarrera */\n      dup15\n        /* \"casaApuestas.sol\":7827:7848  carreras[_codCarrera] */\n      dup2\n      mstore\n      0x20\n      add\n      swap1\n      dup2\n      mstore\n      0x20\n      add\n      0x00\n      keccak256\n        /* \"casaApuestas.sol\":7827:7859  carreras[_codCarrera].montoTotal */\n      0x03\n      add\n      0x00\n        /* \"casaApuestas.sol\":7827:7875  carreras[_codCarrera].montoTotal += montoApuesta */\n      dup3\n      dup3\n      sload\n      add\n      swap3\n      pop\n      pop\n      dup2\n      swap1\n      sstore\n      pop\n        /* \"casaApuestas.sol\":7890:7901  apostadores */\n      0x05\n        /* \"casaApuestas.sol\":7890:7914  apostadores[_codCarrera] */\n      0x00\n        /* \"casaApuestas.sol\":7902:7913  _codCarrera */\n      dup14\n        /* \"casaApuestas.sol\":7890:7914  apostadores[_codCarrera] */\n      dup2\n      mstore\n      0x20\n      add\n      swap1\n      dup2\n      mstore\n      0x20\n      add\n      0x00\n      keccak256\n        /* \"casaApuestas.sol\":7920:7929  apostador */\n      dup2\n        /* \"casaApuestas.sol\":7890:7930  apostadores[_codCarrera].push(apostador) */\n      swap1\n      dup1\n        /* \"--CODEGEN--\":39:40   */\n      0x01\n        /* \"--CODEGEN--\":33:36   */\n      dup2\n        /* \"--CODEGEN--\":27:37   */\n      sload\n        /* \"--CODEGEN--\":23:41   */\n      add\n        /* \"--CODEGEN--\":57:67   */\n      dup1\n        /* \"--CODEGEN--\":52:55   */\n      dup3\n        /* \"--CODEGEN--\":45:68   */\n      sstore\n        /* \"--CODEGEN--\":79:89   */\n      dup1\n        /* \"--CODEGEN--\":72:89   */\n      swap2\n      pop\n        /* \"--CODEGEN--\":0:93   */\n      pop\n        /* \"casaApuestas.sol\":7890:7930  apostadores[_codCarrera].push(apostador) */\n      0x01\n      swap1\n      sub\n      swap1\n      0x00\n      mstore\n      keccak256(0x00, 0x20)\n      add\n      0x00\n      swap1\n      swap2\n      swap1\n      swap2\n      swap1\n      swap2\n      0x0100\n      exp\n      dup2\n      sload\n      dup2\n      0xffffffffffffffffffffffffffffffffffffffff\n      mul\n      not\n      and\n      swap1\n      dup4\n      0xffffffffffffffffffffffffffffffffffffffff\n      and\n      mul\n      or\n      swap1\n      sstore\n      pop\n        /* \"casaApuestas.sol\":7187:7974  if(carreras[_codCarrera].apuestas[apostador].creada){\r... */\n    tag_337:\n        /* \"casaApuestas.sol\":7989:8056  ApuestaRealizada(_codCarrera, _codCaballo, apostador, montoApuesta) */\n      0x5d4da2d239ae200f7129ab7df10b604e5d7b6b0ffaf377dbd6d8ddefc12cab86\n        /* \"casaApuestas.sol\":8006:8017  _codCarrera */\n      dup13\n        /* \"casaApuestas.sol\":8019:8030  _codCaballo */\n      dup15\n        /* \"casaApuestas.sol\":8032:8041  apostador */\n      dup4\n        /* \"casaApuestas.sol\":8043:8055  montoApuesta */\n      dup6\n        /* \"casaApuestas.sol\":7989:8056  ApuestaRealizada(_codCarrera, _codCaballo, apostador, montoApuesta) */\n      mload(0x40)\n      dup1\n      dup6\n      dup2\n      mstore\n      0x20\n      add\n      dup5\n      dup2\n      mstore\n      0x20\n      add\n      dup4\n      0xffffffffffffffffffffffffffffffffffffffff\n      and\n      0xffffffffffffffffffffffffffffffffffffffff\n      and\n      dup2\n      mstore\n      0x20\n      add\n      dup3\n      dup2\n      mstore\n      0x20\n      add\n      swap5\n      pop\n      pop\n      pop\n      pop\n      pop\n      mload(0x40)\n      dup1\n      swap2\n      sub\n      swap1\n      log1\n        /* \"casaApuestas.sol\":4930:4931  _ */\n      pop\n      pop\n        /* \"casaApuestas.sol\":4729:4730  _ */\n      pop\n        /* \"casaApuestas.sol\":3141:3142  _ */\n      pop\n      pop\n      pop\n      pop\n        /* \"casaApuestas.sol\":2933:2934  _ */\n      pop\n        /* \"casaApuestas.sol\":2269:2270  _ */\n      pop\n        /* \"casaApuestas.sol\":2004:2005  _ */\n      pop\n      pop\n        /* \"casaApuestas.sol\":6761:8064  function apostar(uint _codCaballo, uint _codCarrera) payable public \r... */\n      pop\n      pop\n      jump\t// out\n        /* \"casaApuestas.sol\":6314:6689  function registrarCarrera(uint _codCarrera) public \r... */\n    tag_101:\n        /* \"casaApuestas.sol\":1736:1745  anfitrion */\n      0x00\n      dup1\n      swap1\n      sload\n      swap1\n      0x0100\n      exp\n      swap1\n      div\n      0xffffffffffffffffffffffffffffffffffffffff\n      and\n        /* \"casaApuestas.sol\":1722:1745  msg.sender == anfitrion */\n      0xffffffffffffffffffffffffffffffffffffffff\n      and\n        /* \"casaApuestas.sol\":1722:1732  msg.sender */\n      caller\n        /* \"casaApuestas.sol\":1722:1745  msg.sender == anfitrion */\n      0xffffffffffffffffffffffffffffffffffffffff\n      and\n      eq\n        /* \"casaApuestas.sol\":1714:1784  require(msg.sender == anfitrion, \"El invocador debe ser el anfitrion\") */\n      tag_340\n      jumpi\n      mload(0x40)\n      0x08c379a000000000000000000000000000000000000000000000000000000000\n      dup2\n      mstore\n      0x04\n      add\n      dup1\n      dup1\n      0x20\n      add\n      dup3\n      dup2\n      sub\n      dup3\n      mstore\n      0x22\n      dup2\n      mstore\n      0x20\n      add\n      dup1\n      data_445dd79b894b98a34a1cc7c38a5bd2de2e19478d6390b1e445457362fd7001d8\n      0x22\n      swap2\n      codecopy\n      0x40\n      add\n      swap2\n      pop\n      pop\n      mload(0x40)\n      dup1\n      swap2\n      sub\n      swap1\n      revert\n    tag_340:\n        /* \"casaApuestas.sol\":6398:6409  _codCarrera */\n      dup1\n        /* \"casaApuestas.sol\":6411:6424  Estado.Creada */\n      0x00\n        /* \"casaApuestas.sol\":2202:2209  _estado */\n      dup1\n        /* \"casaApuestas.sol\":2163:2209  carreras[_codCarrera].estadoCarrera == _estado */\n      0x02\n      dup2\n      gt\n      iszero\n      tag_342\n      jumpi\n      invalid\n    tag_342:\n        /* \"casaApuestas.sol\":2163:2171  carreras */\n      0x02\n        /* \"casaApuestas.sol\":2163:2184  carreras[_codCarrera] */\n      0x00\n        /* \"casaApuestas.sol\":2172:2183  _codCarrera */\n      dup5\n        /* \"casaApuestas.sol\":2163:2184  carreras[_codCarrera] */\n      dup2\n      mstore\n      0x20\n      add\n      swap1\n      dup2\n      mstore\n      0x20\n      add\n      0x00\n      keccak256\n        /* \"casaApuestas.sol\":2163:2198  carreras[_codCarrera].estadoCarrera */\n      0x02\n      add\n      0x00\n      swap1\n      sload\n      swap1\n      0x0100\n      exp\n      swap1\n      div\n      0xff\n      and\n        /* \"casaApuestas.sol\":2163:2209  carreras[_codCarrera].estadoCarrera == _estado */\n      0x02\n      dup2\n      gt\n      iszero\n      tag_343\n      jumpi\n      invalid\n    tag_343:\n      eq\n        /* \"casaApuestas.sol\":2155:2258  require(carreras[_codCarrera].estadoCarrera == _estado, \"La carrera no cumple con el estado requerido\") */\n      tag_344\n      jumpi\n      mload(0x40)\n      0x08c379a000000000000000000000000000000000000000000000000000000000\n      dup2\n      mstore\n      0x04\n      add\n      dup1\n      dup1\n      0x20\n      add\n      dup3\n      dup2\n      sub\n      dup3\n      mstore\n      0x2c\n      dup2\n      mstore\n      0x20\n      add\n      dup1\n      data_e91ca438e9e3f1e0e0a5b1a72a508ed5ae254b3cb59572817ac1ec6e2a488952\n      0x2c\n      swap2\n      codecopy\n      0x40\n      add\n      swap2\n      pop\n      pop\n      mload(0x40)\n      dup1\n      swap2\n      sub\n      swap1\n      revert\n    tag_344:\n        /* \"casaApuestas.sol\":6445:6456  _codCarrera */\n      dup3\n        /* \"casaApuestas.sol\":3094:3095  0 */\n      0x00\n        /* \"casaApuestas.sol\":3054:3062  carreras */\n      0x02\n        /* \"casaApuestas.sol\":3054:3075  carreras[_codCarrera] */\n      0x00\n        /* \"casaApuestas.sol\":3063:3074  _codCarrera */\n      dup4\n        /* \"casaApuestas.sol\":3054:3075  carreras[_codCarrera] */\n      dup2\n      mstore\n      0x20\n      add\n      swap1\n      dup2\n      mstore\n      0x20\n      add\n      0x00\n      keccak256\n        /* \"casaApuestas.sol\":3054:3082  carreras[_codCarrera].nombre */\n      0x01\n      add\n        /* \"casaApuestas.sol\":3048:3090  bytes(carreras[_codCarrera].nombre).length */\n      dup1\n      sload\n      0x01\n      dup2\n      0x01\n      and\n      iszero\n      0x0100\n      mul\n      sub\n      and\n      0x02\n      swap1\n      div\n      swap1\n      pop\n        /* \"casaApuestas.sol\":3048:3095  bytes(carreras[_codCarrera].nombre).length != 0 */\n      eq\n      iszero\n        /* \"casaApuestas.sol\":3040:3130  require(bytes(carreras[_codCarrera].nombre).length != 0, \"La carrera ingresada no existe\") */\n      tag_346\n      jumpi\n      mload(0x40)\n      0x08c379a000000000000000000000000000000000000000000000000000000000\n      dup2\n      mstore\n      0x04\n      add\n      dup1\n      dup1\n      0x20\n      add\n      dup3\n      dup2\n      sub\n      dup3\n      mstore\n      0x1e\n      dup2\n      mstore\n      0x20\n      add\n      dup1\n      0x4c61206361727265726120696e67726573616461206e6f206578697374650000\n      dup2\n      mstore\n      pop\n      0x20\n      add\n      swap2\n      pop\n      pop\n      mload(0x40)\n      dup1\n      swap2\n      sub\n      swap1\n      revert\n    tag_346:\n        /* \"casaApuestas.sol\":6473:6484  _codCarrera */\n      dup4\n        /* \"casaApuestas.sol\":2662:2663  2 */\n      0x02\n        /* \"casaApuestas.sol\":2626:2638  competencias */\n      0x04\n        /* \"casaApuestas.sol\":2626:2651  competencias[_codCarrera] */\n      0x00\n        /* \"casaApuestas.sol\":2639:2650  _codCarrera */\n      dup4\n        /* \"casaApuestas.sol\":2626:2651  competencias[_codCarrera] */\n      dup2\n      mstore\n      0x20\n      add\n      swap1\n      dup2\n      mstore\n      0x20\n      add\n      0x00\n      keccak256\n        /* \"casaApuestas.sol\":2626:2658  competencias[_codCarrera].length */\n      dup1\n      sload\n      swap1\n      pop\n        /* \"casaApuestas.sol\":2626:2663  competencias[_codCarrera].length >= 2 */\n      lt\n      iszero\n        /* \"casaApuestas.sol\":2618:2714  require(competencias[_codCarrera].length >= 2, \"La carrera debe contar con al menos 2 caballos\") */\n      tag_348\n      jumpi\n      mload(0x40)\n      0x08c379a000000000000000000000000000000000000000000000000000000000\n      dup2\n      mstore\n      0x04\n      add\n      dup1\n      dup1\n      0x20\n      add\n      dup3\n      dup2\n      sub\n      dup3\n      mstore\n      0x2e\n      dup2\n      mstore\n      0x20\n      add\n      dup1\n      data_234e92a03eef93e773d3f62d6519fa001994567a49c6e3053a36d351ec2424b1\n      0x2e\n      swap2\n      codecopy\n      0x40\n      add\n      swap2\n      pop\n      pop\n      mload(0x40)\n      dup1\n      swap2\n      sub\n      swap1\n      revert\n    tag_348:\n        /* \"casaApuestas.sol\":6534:6551  Estado.Registrada */\n      0x01\n        /* \"casaApuestas.sol\":6496:6504  carreras */\n      0x02\n        /* \"casaApuestas.sol\":6496:6517  carreras[_codCarrera] */\n      0x00\n        /* \"casaApuestas.sol\":6505:6516  _codCarrera */\n      dup8\n        /* \"casaApuestas.sol\":6496:6517  carreras[_codCarrera] */\n      dup2\n      mstore\n      0x20\n      add\n      swap1\n      dup2\n      mstore\n      0x20\n      add\n      0x00\n      keccak256\n        /* \"casaApuestas.sol\":6496:6531  carreras[_codCarrera].estadoCarrera */\n      0x02\n      add\n      0x00\n        /* \"casaApuestas.sol\":6496:6551  carreras[_codCarrera].estadoCarrera = Estado.Registrada */\n      0x0100\n      exp\n      dup2\n      sload\n      dup2\n      0xff\n      mul\n      not\n      and\n      swap1\n      dup4\n      0x02\n      dup2\n      gt\n      iszero\n      tag_350\n      jumpi\n      invalid\n    tag_350:\n      mul\n      or\n      swap1\n      sstore\n      pop\n        /* \"casaApuestas.sol\":6567:6681  CarreraRegistrada(carreras[_codCarrera].codigo, carreras[_codCarrera].nombre, carreras[_codCarrera].estadoCarrera) */\n      0xbcc8f8b0b63073a5995bb05ca219cbd7e282534c03235d06119b093559b195b0\n        /* \"casaApuestas.sol\":6585:6593  carreras */\n      0x02\n        /* \"casaApuestas.sol\":6585:6606  carreras[_codCarrera] */\n      0x00\n        /* \"casaApuestas.sol\":6594:6605  _codCarrera */\n      dup8\n        /* \"casaApuestas.sol\":6585:6606  carreras[_codCarrera] */\n      dup2\n      mstore\n      0x20\n      add\n      swap1\n      dup2\n      mstore\n      0x20\n      add\n      0x00\n      keccak256\n        /* \"casaApuestas.sol\":6585:6613  carreras[_codCarrera].codigo */\n      0x00\n      add\n      sload\n        /* \"casaApuestas.sol\":6615:6623  carreras */\n      0x02\n        /* \"casaApuestas.sol\":6615:6636  carreras[_codCarrera] */\n      0x00\n        /* \"casaApuestas.sol\":6624:6635  _codCarrera */\n      dup9\n        /* \"casaApuestas.sol\":6615:6636  carreras[_codCarrera] */\n      dup2\n      mstore\n      0x20\n      add\n      swap1\n      dup2\n      mstore\n      0x20\n      add\n      0x00\n      keccak256\n        /* \"casaApuestas.sol\":6615:6643  carreras[_codCarrera].nombre */\n      0x01\n      add\n        /* \"casaApuestas.sol\":6645:6653  carreras */\n      0x02\n        /* \"casaApuestas.sol\":6645:6666  carreras[_codCarrera] */\n      0x00\n        /* \"casaApuestas.sol\":6654:6665  _codCarrera */\n      dup10\n        /* \"casaApuestas.sol\":6645:6666  carreras[_codCarrera] */\n      dup2\n      mstore\n      0x20\n      add\n      swap1\n      dup2\n      mstore\n      0x20\n      add\n      0x00\n      keccak256\n        /* \"casaApuestas.sol\":6645:6680  carreras[_codCarrera].estadoCarrera */\n      0x02\n      add\n      0x00\n      swap1\n      sload\n      swap1\n      0x0100\n      exp\n      swap1\n      div\n      0xff\n      and\n        /* \"casaApuestas.sol\":6567:6681  CarreraRegistrada(carreras[_codCarrera].codigo, carreras[_codCarrera].nombre, carreras[_codCarrera].estadoCarrera) */\n      mload(0x40)\n      dup1\n      dup5\n      dup2\n      mstore\n      0x20\n      add\n      dup1\n      0x20\n      add\n      dup4\n      0x02\n      dup2\n      gt\n      iszero\n      tag_351\n      jumpi\n      invalid\n    tag_351:\n      0xff\n      and\n      dup2\n      mstore\n      0x20\n      add\n      dup3\n      dup2\n      sub\n      dup3\n      mstore\n      dup5\n      dup2\n      dup2\n      sload\n      0x01\n      dup2\n      0x01\n      and\n      iszero\n      0x0100\n      mul\n      sub\n      and\n      0x02\n      swap1\n      div\n      dup2\n      mstore\n      0x20\n      add\n      swap2\n      pop\n      dup1\n      sload\n      0x01\n      dup2\n      0x01\n      and\n      iszero\n      0x0100\n      mul\n      sub\n      and\n      0x02\n      swap1\n      div\n      dup1\n      iszero\n      tag_352\n      jumpi\n      dup1\n      0x1f\n      lt\n      tag_353\n      jumpi\n      0x0100\n      dup1\n      dup4\n      sload\n      div\n      mul\n      dup4\n      mstore\n      swap2\n      0x20\n      add\n      swap2\n      jump(tag_352)\n    tag_353:\n      dup3\n      add\n      swap2\n      swap1\n      0x00\n      mstore\n      keccak256(0x00, 0x20)\n      swap1\n    tag_354:\n      dup2\n      sload\n      dup2\n      mstore\n      swap1\n      0x01\n      add\n      swap1\n      0x20\n      add\n      dup1\n      dup4\n      gt\n      tag_354\n      jumpi\n      dup3\n      swap1\n      sub\n      0x1f\n      and\n      dup3\n      add\n      swap2\n    tag_352:\n      pop\n      pop\n      swap5\n      pop\n      pop\n      pop\n      pop\n      pop\n      mload(0x40)\n      dup1\n      swap2\n      sub\n      swap1\n      log1\n        /* \"casaApuestas.sol\":3141:3142  _ */\n      pop\n        /* \"casaApuestas.sol\":2269:2270  _ */\n      pop\n        /* \"casaApuestas.sol\":1795:1796  _ */\n      pop\n      pop\n        /* \"casaApuestas.sol\":6314:6689  function registrarCarrera(uint _codCarrera) public \r... */\n      pop\n      jump\t// out\n        /* \"casaApuestas.sol\":5201:5548  function crearCarrera(uint _codigo, string memory _nombre) public \r... */\n    tag_108:\n        /* \"casaApuestas.sol\":1736:1745  anfitrion */\n      0x00\n      dup1\n      swap1\n      sload\n      swap1\n      0x0100\n      exp\n      swap1\n      div\n      0xffffffffffffffffffffffffffffffffffffffff\n      and\n        /* \"casaApuestas.sol\":1722:1745  msg.sender == anfitrion */\n      0xffffffffffffffffffffffffffffffffffffffff\n      and\n        /* \"casaApuestas.sol\":1722:1732  msg.sender */\n      caller\n        /* \"casaApuestas.sol\":1722:1745  msg.sender == anfitrion */\n      0xffffffffffffffffffffffffffffffffffffffff\n      and\n      eq\n        /* \"casaApuestas.sol\":1714:1784  require(msg.sender == anfitrion, \"El invocador debe ser el anfitrion\") */\n      tag_356\n      jumpi\n      mload(0x40)\n      0x08c379a000000000000000000000000000000000000000000000000000000000\n      dup2\n      mstore\n      0x04\n      add\n      dup1\n      dup1\n      0x20\n      add\n      dup3\n      dup2\n      sub\n      dup3\n      mstore\n      0x22\n      dup2\n      mstore\n      0x20\n      add\n      dup1\n      data_445dd79b894b98a34a1cc7c38a5bd2de2e19478d6390b1e445457362fd7001d8\n      0x22\n      swap2\n      codecopy\n      0x40\n      add\n      swap2\n      pop\n      pop\n      mload(0x40)\n      dup1\n      swap2\n      sub\n      swap1\n      revert\n    tag_356:\n        /* \"casaApuestas.sol\":5306:5313  _codigo */\n      dup2\n        /* \"casaApuestas.sol\":3554:3555  0 */\n      0x00\n        /* \"casaApuestas.sol\":3514:3522  carreras */\n      0x02\n        /* \"casaApuestas.sol\":3514:3535  carreras[_codCarrera] */\n      0x00\n        /* \"casaApuestas.sol\":3523:3534  _codCarrera */\n      dup4\n        /* \"casaApuestas.sol\":3514:3535  carreras[_codCarrera] */\n      dup2\n      mstore\n      0x20\n      add\n      swap1\n      dup2\n      mstore\n      0x20\n      add\n      0x00\n      keccak256\n        /* \"casaApuestas.sol\":3514:3542  carreras[_codCarrera].nombre */\n      0x01\n      add\n        /* \"casaApuestas.sol\":3508:3550  bytes(carreras[_codCarrera].nombre).length */\n      dup1\n      sload\n      0x01\n      dup2\n      0x01\n      and\n      iszero\n      0x0100\n      mul\n      sub\n      and\n      0x02\n      swap1\n      div\n      swap1\n      pop\n        /* \"casaApuestas.sol\":3508:3555  bytes(carreras[_codCarrera].nombre).length == 0 */\n      eq\n        /* \"casaApuestas.sol\":3500:3598  require(bytes(carreras[_codCarrera].nombre).length == 0, \"Ya existe una carrera con este código\") */\n      tag_358\n      jumpi\n      mload(0x40)\n      0x08c379a000000000000000000000000000000000000000000000000000000000\n      dup2\n      mstore\n      0x04\n      add\n      dup1\n      dup1\n      0x20\n      add\n      dup3\n      dup2\n      sub\n      dup3\n      mstore\n      0x26\n      dup2\n      mstore\n      0x20\n      add\n      dup1\n      data_22029fc9bd0e2ef2cc87547f1b8c198f7797b26c5004a179120be0b5f25949fe\n      0x26\n      swap2\n      codecopy\n      0x40\n      add\n      swap2\n      pop\n      pop\n      mload(0x40)\n      dup1\n      swap2\n      sub\n      swap1\n      revert\n    tag_358:\n        /* \"casaApuestas.sol\":5345:5394  Carrera(_codigo, _nombre, Estado.Creada, 0, 0, 0) */\n      mload(0x40)\n      dup1\n      0xc0\n      add\n      0x40\n      mstore\n      dup1\n        /* \"casaApuestas.sol\":5353:5360  _codigo */\n      dup5\n        /* \"casaApuestas.sol\":5345:5394  Carrera(_codigo, _nombre, Estado.Creada, 0, 0, 0) */\n      dup2\n      mstore\n      0x20\n      add\n        /* \"casaApuestas.sol\":5362:5369  _nombre */\n      dup4\n        /* \"casaApuestas.sol\":5345:5394  Carrera(_codigo, _nombre, Estado.Creada, 0, 0, 0) */\n      dup2\n      mstore\n      0x20\n      add\n        /* \"casaApuestas.sol\":5371:5384  Estado.Creada */\n      0x00\n        /* \"casaApuestas.sol\":5345:5394  Carrera(_codigo, _nombre, Estado.Creada, 0, 0, 0) */\n      0x02\n      dup2\n      gt\n      iszero\n      tag_360\n      jumpi\n      invalid\n    tag_360:\n      dup2\n      mstore\n      0x20\n      add\n        /* \"casaApuestas.sol\":5386:5387  0 */\n      0x00\n        /* \"casaApuestas.sol\":5345:5394  Carrera(_codigo, _nombre, Estado.Creada, 0, 0, 0) */\n      dup2\n      mstore\n      0x20\n      add\n        /* \"casaApuestas.sol\":5389:5390  0 */\n      0x00\n        /* \"casaApuestas.sol\":5345:5394  Carrera(_codigo, _nombre, Estado.Creada, 0, 0, 0) */\n      dup2\n      mstore\n      0x20\n      add\n        /* \"casaApuestas.sol\":5392:5393  0 */\n      0x00\n        /* \"casaApuestas.sol\":5345:5394  Carrera(_codigo, _nombre, Estado.Creada, 0, 0, 0) */\n      dup2\n      mstore\n      pop\n        /* \"casaApuestas.sol\":5325:5333  carreras */\n      0x02\n        /* \"casaApuestas.sol\":5325:5342  carreras[_codigo] */\n      0x00\n        /* \"casaApuestas.sol\":5334:5341  _codigo */\n      dup6\n        /* \"casaApuestas.sol\":5325:5342  carreras[_codigo] */\n      dup2\n      mstore\n      0x20\n      add\n      swap1\n      dup2\n      mstore\n      0x20\n      add\n      0x00\n      keccak256\n        /* \"casaApuestas.sol\":5325:5394  carreras[_codigo] = Carrera(_codigo, _nombre, Estado.Creada, 0, 0, 0) */\n      0x00\n      dup3\n      add\n      mload\n      dup2\n      0x00\n      add\n      sstore\n      0x20\n      dup3\n      add\n      mload\n      dup2\n      0x01\n      add\n      swap1\n      dup1\n      mload\n      swap1\n      0x20\n      add\n      swap1\n      tag_361\n      swap3\n      swap2\n      swap1\n      tag_277\n      jump\t// in\n    tag_361:\n      pop\n      0x40\n      dup3\n      add\n      mload\n      dup2\n      0x02\n      add\n      exp(0x0100, 0x00)\n      dup2\n      sload\n      dup2\n      0xff\n      mul\n      not\n      and\n      swap1\n      dup4\n      0x02\n      dup2\n      gt\n      iszero\n      tag_362\n      jumpi\n      invalid\n    tag_362:\n      mul\n      or\n      swap1\n      sstore\n      pop\n      0x60\n      dup3\n      add\n      mload\n      dup2\n      0x03\n      add\n      sstore\n      0x80\n      dup3\n      add\n      mload\n      dup2\n      0x04\n      add\n      sstore\n      0xa0\n      dup3\n      add\n      mload\n      dup2\n      0x05\n      add\n      sstore\n      swap1\n      pop\n      pop\n        /* \"casaApuestas.sol\":5422:5423  1 */\n      0x01\n        /* \"casaApuestas.sol\":5405:5418  totalCarreras */\n      dup1\n      0x00\n        /* \"casaApuestas.sol\":5405:5423  totalCarreras += 1 */\n      dup3\n      dup3\n      sload\n      add\n      swap3\n      pop\n      pop\n      dup2\n      swap1\n      sstore\n      pop\n        /* \"casaApuestas.sol\":5439:5540  CarreraInsertada(carreras[_codigo].codigo, carreras[_codigo].nombre, carreras[_codigo].estadoCarrera) */\n      0x4fa248e6733f80aac55bc1c8851c2f07bca8e891b888f7cd781a4053503a8920\n        /* \"casaApuestas.sol\":5456:5464  carreras */\n      0x02\n        /* \"casaApuestas.sol\":5456:5473  carreras[_codigo] */\n      0x00\n        /* \"casaApuestas.sol\":5465:5472  _codigo */\n      dup6\n        /* \"casaApuestas.sol\":5456:5473  carreras[_codigo] */\n      dup2\n      mstore\n      0x20\n      add\n      swap1\n      dup2\n      mstore\n      0x20\n      add\n      0x00\n      keccak256\n        /* \"casaApuestas.sol\":5456:5480  carreras[_codigo].codigo */\n      0x00\n      add\n      sload\n        /* \"casaApuestas.sol\":5482:5490  carreras */\n      0x02\n        /* \"casaApuestas.sol\":5482:5499  carreras[_codigo] */\n      0x00\n        /* \"casaApuestas.sol\":5491:5498  _codigo */\n      dup7\n        /* \"casaApuestas.sol\":5482:5499  carreras[_codigo] */\n      dup2\n      mstore\n      0x20\n      add\n      swap1\n      dup2\n      mstore\n      0x20\n      add\n      0x00\n      keccak256\n        /* \"casaApuestas.sol\":5482:5506  carreras[_codigo].nombre */\n      0x01\n      add\n        /* \"casaApuestas.sol\":5508:5516  carreras */\n      0x02\n        /* \"casaApuestas.sol\":5508:5525  carreras[_codigo] */\n      0x00\n        /* \"casaApuestas.sol\":5517:5524  _codigo */\n      dup8\n        /* \"casaApuestas.sol\":5508:5525  carreras[_codigo] */\n      dup2\n      mstore\n      0x20\n      add\n      swap1\n      dup2\n      mstore\n      0x20\n      add\n      0x00\n      keccak256\n        /* \"casaApuestas.sol\":5508:5539  carreras[_codigo].estadoCarrera */\n      0x02\n      add\n      0x00\n      swap1\n      sload\n      swap1\n      0x0100\n      exp\n      swap1\n      div\n      0xff\n      and\n        /* \"casaApuestas.sol\":5439:5540  CarreraInsertada(carreras[_codigo].codigo, carreras[_codigo].nombre, carreras[_codigo].estadoCarrera) */\n      mload(0x40)\n      dup1\n      dup5\n      dup2\n      mstore\n      0x20\n      add\n      dup1\n      0x20\n      add\n      dup4\n      0x02\n      dup2\n      gt\n      iszero\n      tag_363\n      jumpi\n      invalid\n    tag_363:\n      0xff\n      and\n      dup2\n      mstore\n      0x20\n      add\n      dup3\n      dup2\n      sub\n      dup3\n      mstore\n      dup5\n      dup2\n      dup2\n      sload\n      0x01\n      dup2\n      0x01\n      and\n      iszero\n      0x0100\n      mul\n      sub\n      and\n      0x02\n      swap1\n      div\n      dup2\n      mstore\n      0x20\n      add\n      swap2\n      pop\n      dup1\n      sload\n      0x01\n      dup2\n      0x01\n      and\n      iszero\n      0x0100\n      mul\n      sub\n      and\n      0x02\n      swap1\n      div\n      dup1\n      iszero\n      tag_364\n      jumpi\n      dup1\n      0x1f\n      lt\n      tag_365\n      jumpi\n      0x0100\n      dup1\n      dup4\n      sload\n      div\n      mul\n      dup4\n      mstore\n      swap2\n      0x20\n      add\n      swap2\n      jump(tag_364)\n    tag_365:\n      dup3\n      add\n      swap2\n      swap1\n      0x00\n      mstore\n      keccak256(0x00, 0x20)\n      swap1\n    tag_366:\n      dup2\n      sload\n      dup2\n      mstore\n      swap1\n      0x01\n      add\n      swap1\n      0x20\n      add\n      dup1\n      dup4\n      gt\n      tag_366\n      jumpi\n      dup3\n      swap1\n      sub\n      0x1f\n      and\n      dup3\n      add\n      swap2\n    tag_364:\n      pop\n      pop\n      swap5\n      pop\n      pop\n      pop\n      pop\n      pop\n      mload(0x40)\n      dup1\n      swap2\n      sub\n      swap1\n      log1\n        /* \"casaApuestas.sol\":1795:1796  _ */\n      pop\n        /* \"casaApuestas.sol\":5201:5548  function crearCarrera(uint _codigo, string memory _nombre) public \r... */\n      pop\n      pop\n      jump\t// out\n        /* \"casaApuestas.sol\":305:348  mapping(uint => uint[]) public competencias */\n    tag_112:\n      mstore(0x20, 0x04)\n      dup2\n      0x00\n      mstore\n      keccak256(0x00, 0x40)\n      dup2\n      dup2\n      sload\n      dup2\n      lt\n      tag_367\n      jumpi\n      invalid\n    tag_367:\n      swap1\n      0x00\n      mstore\n      keccak256(0x00, 0x20)\n      add\n      0x00\n      swap2\n      pop\n      swap2\n      pop\n      pop\n      sload\n      dup2\n      jump\t// out\n        /* \"casaApuestas.sol\":8134:8377  function generarAleatorio(uint modulo) internal returns(uint){\r... */\n    tag_123:\n        /* \"casaApuestas.sol\":8190:8194  uint */\n      0x00\n        /* \"casaApuestas.sol\":8206:8220  uint randNonce */\n      dup1\n        /* \"casaApuestas.sol\":8223:8224  0 */\n      0x00\n        /* \"casaApuestas.sol\":8206:8224  uint randNonce = 0 */\n      swap1\n      pop\n        /* \"casaApuestas.sol\":8235:8247  randNonce ++ */\n      dup1\n      dup1\n      0x01\n      add\n      swap2\n      pop\n      pop\n        /* \"casaApuestas.sol\":8259:8270  uint numero */\n      0x00\n        /* \"casaApuestas.sol\":8337:8343  modulo */\n      dup4\n        /* \"casaApuestas.sol\":8305:8308  now */\n      timestamp\n        /* \"casaApuestas.sol\":8310:8320  msg.sender */\n      caller\n        /* \"casaApuestas.sol\":8322:8331  randNonce */\n      dup5\n        /* \"casaApuestas.sol\":8288:8332  abi.encodePacked(now, msg.sender, randNonce) */\n      add(0x20, mload(0x40))\n      dup1\n      dup5\n      dup2\n      mstore\n      0x20\n      add\n      dup4\n      0xffffffffffffffffffffffffffffffffffffffff\n      and\n      0xffffffffffffffffffffffffffffffffffffffff\n      and\n      0x60\n      shl\n      dup2\n      mstore\n      0x14\n      add\n      dup3\n      dup2\n      mstore\n      0x20\n      add\n      swap4\n      pop\n      pop\n      pop\n      pop\n      mload(0x40)\n        /* \"--CODEGEN--\":49:53   */\n      0x20\n        /* \"--CODEGEN--\":39:46   */\n      dup2\n        /* \"--CODEGEN--\":30:37   */\n      dup4\n        /* \"--CODEGEN--\":26:47   */\n      sub\n        /* \"--CODEGEN--\":22:54   */\n      sub\n        /* \"--CODEGEN--\":13:20   */\n      dup2\n        /* \"--CODEGEN--\":6:55   */\n      mstore\n        /* \"casaApuestas.sol\":8288:8332  abi.encodePacked(now, msg.sender, randNonce) */\n      swap1\n      0x40\n      mstore\n        /* \"casaApuestas.sol\":8278:8333  keccak256(abi.encodePacked(now, msg.sender, randNonce)) */\n      dup1\n      mload\n      swap1\n      0x20\n      add\n      keccak256\n        /* \"casaApuestas.sol\":8273:8334  uint(keccak256(abi.encodePacked(now, msg.sender, randNonce))) */\n      0x00\n      shr\n        /* \"casaApuestas.sol\":8273:8343  uint(keccak256(abi.encodePacked(now, msg.sender, randNonce))) % modulo */\n      dup2\n      tag_370\n      jumpi\n      invalid\n    tag_370:\n      mod\n        /* \"casaApuestas.sol\":8259:8343  uint numero = uint(keccak256(abi.encodePacked(now, msg.sender, randNonce))) % modulo */\n      swap1\n      pop\n        /* \"casaApuestas.sol\":8362:8368  numero */\n      dup1\n        /* \"casaApuestas.sol\":8354:8369  return (numero) */\n      swap3\n      pop\n      pop\n      pop\n        /* \"casaApuestas.sol\":8134:8377  function generarAleatorio(uint modulo) internal returns(uint){\r... */\n      swap2\n      swap1\n      pop\n      jump\t// out\n        /* \"casaApuestas.sol\":14541:15023  function uint2str(uint _i) internal pure returns (string memory _uintAsString) {\r... */\n    tag_167:\n        /* \"casaApuestas.sol\":14591:14618  string memory _uintAsString */\n      0x60\n        /* \"casaApuestas.sol\":14641:14642  0 */\n      0x00\n        /* \"casaApuestas.sol\":14635:14637  _i */\n      dup3\n        /* \"casaApuestas.sol\":14635:14642  _i == 0 */\n      eq\n        /* \"casaApuestas.sol\":14631:14681  if (_i == 0) {\r... */\n      iszero\n      tag_372\n      jumpi\n        /* \"casaApuestas.sol\":14659:14669  return \"0\" */\n      mload(0x40)\n      dup1\n      0x40\n      add\n      0x40\n      mstore\n      dup1\n      0x01\n      dup2\n      mstore\n      0x20\n      add\n      0x3000000000000000000000000000000000000000000000000000000000000000\n      dup2\n      mstore\n      pop\n      swap1\n      pop\n      jump(tag_371)\n        /* \"casaApuestas.sol\":14631:14681  if (_i == 0) {\r... */\n    tag_372:\n        /* \"casaApuestas.sol\":14691:14697  uint j */\n      0x00\n        /* \"casaApuestas.sol\":14700:14702  _i */\n      dup3\n        /* \"casaApuestas.sol\":14691:14702  uint j = _i */\n      swap1\n      pop\n        /* \"casaApuestas.sol\":14713:14721  uint len */\n      0x00\n        /* \"casaApuestas.sol\":14732:14801  while (j != 0) {\r... */\n    tag_373:\n        /* \"casaApuestas.sol\":14744:14745  0 */\n      0x00\n        /* \"casaApuestas.sol\":14739:14740  j */\n      dup3\n        /* \"casaApuestas.sol\":14739:14745  j != 0 */\n      eq\n        /* \"casaApuestas.sol\":14732:14801  while (j != 0) {\r... */\n      tag_374\n      jumpi\n        /* \"casaApuestas.sol\":14762:14767  len++ */\n      dup1\n      dup1\n      0x01\n      add\n      swap2\n      pop\n      pop\n        /* \"casaApuestas.sol\":14787:14789  10 */\n      0x0a\n        /* \"casaApuestas.sol\":14782:14789  j /= 10 */\n      dup3\n      dup2\n      tag_375\n      jumpi\n      invalid\n    tag_375:\n      div\n      swap2\n      pop\n        /* \"casaApuestas.sol\":14732:14801  while (j != 0) {\r... */\n      jump(tag_373)\n    tag_374:\n        /* \"casaApuestas.sol\":14811:14828  bytes memory bstr */\n      0x60\n        /* \"casaApuestas.sol\":14841:14844  len */\n      dup2\n        /* \"casaApuestas.sol\":14831:14845  new bytes(len) */\n      mload(0x40)\n      swap1\n      dup1\n      dup3\n      mstore\n      dup1\n      0x1f\n      add\n      not(0x1f)\n      and\n      0x20\n      add\n      dup3\n      add\n      0x40\n      mstore\n      dup1\n      iszero\n      tag_376\n      jumpi\n      dup2\n      0x20\n      add\n        /* \"--CODEGEN--\":29:30   */\n      0x01\n        /* \"--CODEGEN--\":21:27   */\n      dup3\n        /* \"--CODEGEN--\":17:31   */\n      mul\n        /* \"--CODEGEN--\":116:120   */\n      dup1\n        /* \"--CODEGEN--\":104:114   */\n      codesize\n        /* \"--CODEGEN--\":96:102   */\n      dup4\n        /* \"--CODEGEN--\":87:121   */\n      codecopy\n        /* \"--CODEGEN--\":147:151   */\n      dup1\n        /* \"--CODEGEN--\":139:145   */\n      dup3\n        /* \"--CODEGEN--\":135:152   */\n      add\n        /* \"--CODEGEN--\":125:152   */\n      swap2\n      pop\n        /* \"--CODEGEN--\":0:156   */\n      pop\n        /* \"casaApuestas.sol\":14831:14845  new bytes(len) */\n      swap1\n      pop\n    tag_376:\n      pop\n        /* \"casaApuestas.sol\":14811:14845  bytes memory bstr = new bytes(len) */\n      swap1\n      pop\n        /* \"casaApuestas.sol\":14856:14862  uint k */\n      0x00\n        /* \"casaApuestas.sol\":14871:14872  1 */\n      0x01\n        /* \"casaApuestas.sol\":14865:14868  len */\n      dup4\n        /* \"casaApuestas.sol\":14865:14872  len - 1 */\n      sub\n        /* \"casaApuestas.sol\":14856:14872  uint k = len - 1 */\n      swap1\n      pop\n        /* \"casaApuestas.sol\":14883:14986  while (_i != 0) {\r... */\n    tag_377:\n        /* \"casaApuestas.sol\":14896:14897  0 */\n      0x00\n        /* \"casaApuestas.sol\":14890:14892  _i */\n      dup7\n        /* \"casaApuestas.sol\":14890:14897  _i != 0 */\n      eq\n        /* \"casaApuestas.sol\":14883:14986  while (_i != 0) {\r... */\n      tag_378\n      jumpi\n        /* \"casaApuestas.sol\":14947:14949  10 */\n      0x0a\n        /* \"casaApuestas.sol\":14942:14944  _i */\n      dup7\n        /* \"casaApuestas.sol\":14942:14949  _i % 10 */\n      dup2\n      tag_379\n      jumpi\n      invalid\n    tag_379:\n      mod\n        /* \"casaApuestas.sol\":14937:14939  48 */\n      0x30\n        /* \"casaApuestas.sol\":14937:14949  48 + _i % 10 */\n      add\n        /* \"casaApuestas.sol\":14926:14951  byte(uint8(48 + _i % 10)) */\n      0xf8\n      shl\n        /* \"casaApuestas.sol\":14914:14918  bstr */\n      dup3\n        /* \"casaApuestas.sol\":14919:14922  k-- */\n      dup3\n      dup1\n      0x01\n      swap1\n      sub\n      swap4\n      pop\n        /* \"casaApuestas.sol\":14914:14923  bstr[k--] */\n      dup2\n      mload\n      dup2\n      lt\n      tag_380\n      jumpi\n      invalid\n    tag_380:\n      0x20\n      add\n      add\n        /* \"casaApuestas.sol\":14914:14951  bstr[k--] = byte(uint8(48 + _i % 10)) */\n      swap1\n      not(0xffffffffffffffffffffffffffffffffffffffffffffffffffffffffffffff)\n      and\n      swap1\n      dup2\n      0x00\n      byte\n      swap1\n      mstore8\n      pop\n        /* \"casaApuestas.sol\":14972:14974  10 */\n      0x0a\n        /* \"casaApuestas.sol\":14966:14974  _i /= 10 */\n      dup7\n      dup2\n      tag_381\n      jumpi\n      invalid\n    tag_381:\n      div\n      swap6\n      pop\n        /* \"casaApuestas.sol\":14883:14986  while (_i != 0) {\r... */\n      jump(tag_377)\n    tag_378:\n        /* \"casaApuestas.sol\":15010:15014  bstr */\n      dup2\n        /* \"casaApuestas.sol\":14996:15015  return string(bstr) */\n      swap5\n      pop\n      pop\n      pop\n      pop\n      pop\n        /* \"casaApuestas.sol\":14541:15023  function uint2str(uint _i) internal pure returns (string memory _uintAsString) {\r... */\n    tag_371:\n      swap2\n      swap1\n      pop\n      jump\t// out\n        /* \"casaApuestas.sol\":27:15028  contract casaApuestas{\r... */\n    tag_277:\n      dup3\n      dup1\n      sload\n      0x01\n      dup2\n      0x01\n      and\n      iszero\n      0x0100\n      mul\n      sub\n      and\n      0x02\n      swap1\n      div\n      swap1\n      0x00\n      mstore\n      keccak256(0x00, 0x20)\n      swap1\n      0x1f\n      add\n      0x20\n      swap1\n      div\n      dup2\n      add\n      swap3\n      dup3\n      0x1f\n      lt\n      tag_383\n      jumpi\n      dup1\n      mload\n      not(0xff)\n      and\n      dup4\n      dup1\n      add\n      or\n      dup6\n      sstore\n      jump(tag_382)\n    tag_383:\n      dup3\n      dup1\n      add\n      0x01\n      add\n      dup6\n      sstore\n      dup3\n      iszero\n      tag_382\n      jumpi\n      swap2\n      dup3\n      add\n    tag_384:\n      dup3\n      dup2\n      gt\n      iszero\n      tag_385\n      jumpi\n      dup3\n      mload\n      dup3\n      sstore\n      swap2\n      0x20\n      add\n      swap2\n      swap1\n      0x01\n      add\n      swap1\n      jump(tag_384)\n    tag_385:\n    tag_382:\n      pop\n      swap1\n      pop\n      tag_386\n      swap2\n      swap1\n      tag_387\n      jump\t// in\n    tag_386:\n      pop\n      swap1\n      jump\t// out\n    tag_387:\n      tag_388\n      swap2\n      swap1\n    tag_389:\n      dup1\n      dup3\n      gt\n      iszero\n      tag_390\n      jumpi\n      0x00\n      dup2\n      0x00\n      swap1\n      sstore\n      pop\n      0x01\n      add\n      jump(tag_389)\n    tag_390:\n      pop\n      swap1\n      jump\n    tag_388:\n      swap1\n      jump\t// out\n    stop\n    data_015e2967b1a324c495f3905ebc30437189d94d81ee000a6adba682a4697a35b6 536f6c6f2073652070756564652061706f7374617220706f7220756e20636162616c6c6f2064656e74726f20646520657374612063617272657261\n    data_22029fc9bd0e2ef2cc87547f1b8c198f7797b26c5004a179120be0b5f25949fe 59612065786973746520756e61206361727265726120636f6e20657374652063c3b36469676f\n    data_234e92a03eef93e773d3f62d6519fa001994567a49c6e3053a36d351ec2424b1 4c612063617272657261206465626520636f6e74617220636f6e20616c206d656e6f73203220636162616c6c6f73\n    data_445dd79b894b98a34a1cc7c38a5bd2de2e19478d6390b1e445457362fd7001d8 456c20696e766f6361646f7220646562652073657220656c20616e66697472696f6e\n    data_48cf4ac7fcb22fd30a2178e5656f2b40afd30f2764f5b3cd17a43f9dd083aee5 4c612063617272657261207961206375656e746120636f6e203520636162616c6c6f73\n    data_68cf97aa6bcebf4d7421b6bca309a0adc441ed0fc23124d3a38219dec5dbd40b 4c61206361727265726120696e67726573616461206e6f207469656e6520636162616c6c6f73\n    data_6f447a6923745e6be6f901d62f9112c38aa63e63c11e0640be511470a9c26a07 456c206d6f6e746f206465206c612061707565737461206465626520736572206d61796f7220612030\n    data_90d24e0daaf5dcc457b4940b4ca16d8fd57765162f8ffee460d8a22da7c775e1 4c61206361727265726120696e67726573616461206e6f207469656e652061706f737461646f726573\n    data_961fcad8d1437fb7fcd32c3c0cb1abc4a020f237cc5c3c4ecf402a363363c4fd 4573746520636162616c6c6f206e6f20736520656e6375656e747261207265676973747261646f20656e20657374612063617272657261\n    data_c258d99636b674a8c760b7677c129033d423282c7394402c18f597a1eab563a1 456c20696e766f6361646f7220646562652073657220756e207573756172696f206469666572656e746520616c20616e66697472696f6e\n    data_d6db3988662478777908c1e662b2ec848309dbbd995b7b6deab44e369aa15534 59612065786973746520756e20636162616c6c6f20636f6e20657374652063c3b36469676f\n    data_dd2593dc49389a3dc12e11d6acb11a1c405e488c123ae730810838cacb526339 4573746520636162616c6c6f20796120736520656e6375656e747261207265676973747261646f20656e20657374612063617272657261\n    data_e91ca438e9e3f1e0e0a5b1a72a508ed5ae254b3cb59572817ac1ec6e2a488952 4c612063617272657261206e6f2063756d706c6520636f6e20656c2065737461646f2072657175657269646f\n\n    auxdata: 0xa2646970667358221220dc350735cedceb4fd820d8af091d3a68ec1d5e76108fbf4d6376e0d48c798bc864736f6c63430006000033\n}\n",
				"bytecode": {
					"linkReferences": {},
					"object": "608060405234801561001057600080fd5b50336000806101000a81548173ffffffffffffffffffffffffffffffffffffffff021916908373ffffffffffffffffffffffffffffffffffffffff16021790555061408b806100606000396000f3fe6080604052600436106100fe5760003560e01c8063d066cebe11610095578063f0b73b5411610064578063f0b73b5414610724578063f2f6da3e146107df578063f7edd6db14610817578063f9d32e4914610852578063fb34d0f714610924576100fe565b8063d066cebe1461053b578063dfe22b5f146105c0578063e6581b9d14610645578063e9ec5583146106f9576100fe565b8063456f4b57116100d1578063456f4b57146102de5780635194f59c146103355780635ee816661461040757806379b31e69146104ec576100fe565b8063010a0e95146101035780631b895c2f1461013157806326d1c7d0146101e5578063286f6b4c1461022a575b600080fd5b61012f6004803603602081101561011957600080fd5b810190808035906020019092919050505061097d565b005b34801561013d57600080fd5b5061016a6004803603602081101561015457600080fd5b8101908080359060200190929190505050611363565b6040518080602001828103825283818151815260200191508051906020019080838360005b838110156101aa57808201518184015260208101905061018f565b50505050905090810190601f1680156101d75780820380516001836020036101000a031916815260200191505b509250505060405180910390f35b3480156101f157600080fd5b506102286004803603604081101561020857600080fd5b810190808035906020019092919080359060200190929190505050611811565b005b34801561023657600080fd5b506102636004803603602081101561024d57600080fd5b8101908080359060200190929190505050611c38565b6040518080602001828103825283818151815260200191508051906020019080838360005b838110156102a3578082015181840152602081019050610288565b50505050905090810190601f1680156102d05780820380516001836020036101000a031916815260200191505b509250505060405180910390f35b3480156102ea57600080fd5b506102f3612451565b604051808273ffffffffffffffffffffffffffffffffffffffff1673ffffffffffffffffffffffffffffffffffffffff16815260200191505060405180910390f35b34801561034157600080fd5b506104056004803603604081101561035857600080fd5b81019080803590602001909291908035906020019064010000000081111561037f57600080fd5b82018360208201111561039157600080fd5b803590602001918460018302840111640100000000831117156103b357600080fd5b91908080601f016020809104026020016040519081016040528093929190818152602001838380828437600081840152601f19601f820116905080830192505050505050509192919290505050612476565b005b34801561041357600080fd5b506104406004803603602081101561042a57600080fd5b81019080803590602001909291905050506126e2565b604051808781526020018060200186600281111561045a57fe5b60ff168152602001858152602001848152602001838152602001828103825287818151815260200191508051906020019080838360005b838110156104ac578082015181840152602081019050610491565b50505050905090810190601f1680156104d95780820380516001836020036101000a031916815260200191505b5097505050505050505060405180910390f35b3480156104f857600080fd5b506105256004803603602081101561050f57600080fd5b81019080803590602001909291905050506127c3565b6040518082815260200191505060405180910390f35b34801561054757600080fd5b5061057e6004803603604081101561055e57600080fd5b81019080803590602001909291908035906020019092919050505061291c565b604051808273ffffffffffffffffffffffffffffffffffffffff1673ffffffffffffffffffffffffffffffffffffffff16815260200191505060405180910390f35b3480156105cc57600080fd5b50610603600480360360408110156105e357600080fd5b810190808035906020019092919080359060200190929190505050612a83565b604051808273ffffffffffffffffffffffffffffffffffffffff1673ffffffffffffffffffffffffffffffffffffffff16815260200191505060405180910390f35b34801561065157600080fd5b5061067e6004803603602081101561066857600080fd5b8101908080359060200190929190505050612ace565b6040518080602001828103825283818151815260200191508051906020019080838360005b838110156106be5780820151818401526020810190506106a3565b50505050905090810190601f1680156106eb5780820380516001836020036101000a031916815260200191505b509250505060405180910390f35b34801561070557600080fd5b5061070e612caf565b6040518082815260200191505060405180910390f35b34801561073057600080fd5b5061075d6004803603602081101561074757600080fd5b8101908080359060200190929190505050612cb5565b6040518083815260200180602001828103825283818151815260200191508051906020019080838360005b838110156107a3578082015181840152602081019050610788565b50505050905090810190601f1680156107d05780820380516001836020036101000a031916815260200191505b50935050505060405180910390f35b610815600480360360408110156107f557600080fd5b810190808035906020019092919080359060200190929190505050612d71565b005b34801561082357600080fd5b506108506004803603602081101561083a57600080fd5b81019080803590602001909291905050506134b1565b005b34801561085e57600080fd5b506109226004803603604081101561087557600080fd5b81019080803590602001909291908035906020019064010000000081111561089c57600080fd5b8201836020820111156108ae57600080fd5b803590602001918460018302840111640100000000831117156108d057600080fd5b91908080601f016020809104026020016040519081016040528093929190818152602001838380828437600081840152601f19601f820116905080830192505050505050509192919290505050613861565b005b34801561093057600080fd5b506109676004803603604081101561094757600080fd5b810190808035906020019092919080359060200190929190505050613b84565b6040518082815260200191505060405180910390f35b6000809054906101000a900473ffffffffffffffffffffffffffffffffffffffff1673ffffffffffffffffffffffffffffffffffffffff163373ffffffffffffffffffffffffffffffffffffffff1614610a22576040517f08c379a0000000000000000000000000000000000000000000000000000000008152600401808060200182810382526022815260200180613ea36022913960400191505060405180910390fd5b806000600260008381526020019081526020016000206001018054600181600116156101000203166002900490501415610ac4576040517f08c379a000000000000000000000000000000000000000000000000000000000815260040180806020018281038252601e8152602001807f4c61206361727265726120696e67726573616461206e6f20657869737465000081525060200191505060405180910390fd5b816001806002811115610ad357fe5b6002600084815260200190815260200160002060020160009054906101000a900460ff166002811115610b0257fe5b14610b58576040517f08c379a000000000000000000000000000000000000000000000000000000000815260040180806020018281038252602c81526020018061402a602c913960400191505060405180910390fd5b6000610b796002600087815260200190815260200160002060040154613bb2565b90506000809050600460008781526020019081526020016000208281548110610b9e57fe5b906000526020600020015460026000888152602001908152602001600020600501819055507f72ac7000d1a6792055555b3d758cb51770189e1d86ac2e4beb2195be79d10972866002600089815260200190815260200160002060050154604051808381526020018281526020019250505060405180910390a160008090505b6005600088815260200190815260200160002080549050811015610d79576000600560008981526020019081526020016000208281548110610c5c57fe5b9060005260206000200160009054906101000a900473ffffffffffffffffffffffffffffffffffffffff169050600460008981526020019081526020016000208481548110610ca757fe5b9060005260206000200154600260008a815260200190815260200160002060060160008373ffffffffffffffffffffffffffffffffffffffff1673ffffffffffffffffffffffffffffffffffffffff168152602001908152602001600020600101541415610d6b576002600089815260200190815260200160002060060160008273ffffffffffffffffffffffffffffffffffffffff1673ffffffffffffffffffffffffffffffffffffffff16815260200190815260200160002060000154830192505b508080600101915050610c1e565b50600081146111a15760008090505b6005600088815260200190815260200160002080549050811015611134576000600560008981526020019081526020016000208281548110610dc657fe5b9060005260206000200160009054906101000a900473ffffffffffffffffffffffffffffffffffffffff169050600460008981526020019081526020016000208481548110610e1157fe5b9060005260206000200154600260008a815260200190815260200160002060060160008373ffffffffffffffffffffffffffffffffffffffff1673ffffffffffffffffffffffffffffffffffffffff1681526020019081526020016000206001015414156111265782600260008a815260200190815260200160002060060160008373ffffffffffffffffffffffffffffffffffffffff1673ffffffffffffffffffffffffffffffffffffffff1681526020019081526020016000206000015481610ed857fe5b04600260008a815260200190815260200160002060060160008373ffffffffffffffffffffffffffffffffffffffff1673ffffffffffffffffffffffffffffffffffffffff168152602001908152602001600020600301819055508073ffffffffffffffffffffffffffffffffffffffff166108fc6127106004600260008d81526020019081526020016000206003015481610f7057fe5b04600260008d8152602001908152602001600020600301540386612710600260008f815260200190815260200160002060060160008873ffffffffffffffffffffffffffffffffffffffff1673ffffffffffffffffffffffffffffffffffffffff168152602001908152602001600020600001540281610fec57fe5b040281610ff557fe5b049081150290604051600060405180830381858888f19350505050158015611021573d6000803e3d6000fd5b506127106004600260008b8152602001908152602001600020600301548161104557fe5b04600260008b8152602001908152602001600020600301540384612710600260008d815260200190815260200160002060060160008673ffffffffffffffffffffffffffffffffffffffff1673ffffffffffffffffffffffffffffffffffffffff1681526020019081526020016000206000015402816110c157fe5b0402816110ca57fe5b04600260008a815260200190815260200160002060060160008373ffffffffffffffffffffffffffffffffffffffff1673ffffffffffffffffffffffffffffffffffffffff168152602001908152602001600020600401819055505b508080600101915050610d88565b503373ffffffffffffffffffffffffffffffffffffffff166108fc6004600260008a8152602001908152602001600020600301548161116f57fe5b049081150290604051600060405180830381858888f1935050505015801561119b573d6000803e3d6000fd5b506111ff565b3373ffffffffffffffffffffffffffffffffffffffff166108fc60026000898152602001908152602001600020600301549081150290604051600060405180830381858888f193505050501580156111fd573d6000803e3d6000fd5b505b600280600088815260200190815260200160002060020160006101000a81548160ff0219169083600281111561123157fe5b02179055507f1b6ae2478df67879eab65812cac1a15b1d9c0b265c0ecccc99f74d979d97344f600260008881526020019081526020016000206000015460026000898152602001908152602001600020600101600260008a815260200190815260200160002060020160009054906101000a900460ff1660405180848152602001806020018360028111156112c257fe5b60ff16815260200182810382528481815460018160011615610100020316600290048152602001915080546001816001161561010002031660029004801561134b5780601f106113205761010080835404028352916020019161134b565b820191906000526020600020905b81548152906001019060200180831161132e57829003601f168201915b505094505050505060405180910390a1505050505050565b6060816000600260008381526020019081526020016000206001018054600181600116156101000203166002900490501415611407576040517f08c379a000000000000000000000000000000000000000000000000000000000815260040180806020018281038252601e8152602001807f4c61206361727265726120696e67726573616461206e6f20657869737465000081525060200191505060405180910390fd5b60606040518060400160405280601881526020017f436162616c6c6f7320656e206c61206361727265726120230000000000000000815250905060008090508161145086613c41565b6040516020018083805190602001908083835b602083106114865780518252602082019150602081019050602083039250611463565b6001836020036101000a03801982511681845116808217855250505050505090500182805190602001908083835b602083106114d757805182526020820191506020810190506020830392506114b4565b6001836020036101000a038019825116818451168082178552505050505050905001925050506040516020818303038152906040529150816040516020018082805190602001908083835b602083106115455780518252602082019150602081019050602083039250611522565b6001836020036101000a038019825116818451168082178552505050505050905001807f3a20000000000000000000000000000000000000000000000000000000000000815250600201915050604051602081830303815290604052915060008090505b60046000878152602001908152602001600020805490508110156117875760019150826115fd6004600089815260200190815260200160002083815481106115ed57fe5b9060005260206000200154613c41565b6040516020018083805190602001908083835b602083106116335780518252602082019150602081019050602083039250611610565b6001836020036101000a03801982511681845116808217855250505050505090500182805190602001908083835b602083106116845780518252602082019150602081019050602083039250611661565b6001836020036101000a0380198251168184511680821785525050505050509050019250505060405160208183030381529060405292506001600460008881526020019081526020016000208054905003811461177557826040516020018082805190602001908083835b6020831061171257805182526020820191506020810190506020830392506116ef565b6001836020036101000a038019825116818451168082178552505050505050905001807f202d200000000000000000000000000000000000000000000000000000000000815250600301915050604051602081830303815290604052925061177a565b611787565b80806001019150506115a9565b508061180657816040516020018082805190602001908083835b602083106117c457805182526020820191506020810190506020830392506117a1565b6001836020036101000a03801982511681845116808217855250505050505090500180613ee86026913960260191505060405160208183030381529060405291505b819350505050919050565b6000809054906101000a900473ffffffffffffffffffffffffffffffffffffffff1673ffffffffffffffffffffffffffffffffffffffff163373ffffffffffffffffffffffffffffffffffffffff16146118b6576040517f08c379a0000000000000000000000000000000000000000000000000000000008152600401808060200182810382526022815260200180613ea36022913960400191505060405180910390fd5b8060008060028111156118c557fe5b6002600084815260200190815260200160002060020160009054906101000a900460ff1660028111156118f457fe5b1461194a576040517f08c379a000000000000000000000000000000000000000000000000000000000815260040180806020018281038252602c81526020018061402a602c913960400191505060405180910390fd5b8260056004600083815260200190815260200160002080549050106119ba576040517f08c379a0000000000000000000000000000000000000000000000000000000008152600401808060200182810382526023815260200180613ec56023913960400191505060405180910390fd5b846000600360008381526020019081526020016000206001018054600181600116156101000203166002900490501415611a5c576040517f08c379a000000000000000000000000000000000000000000000000000000000815260040180806020018281038252601e8152602001807f456c20636162616c6c6f20696e6772657361646f206e6f20657869737465000081525060200191505060405180910390fd5b846000600260008381526020019081526020016000206001018054600181600116156101000203166002900490501415611afe576040517f08c379a000000000000000000000000000000000000000000000000000000000815260040180806020018281038252601e8152602001807f4c61206361727265726120696e67726573616461206e6f20657869737465000081525060200191505060405180910390fd5b8587600060046000848152602001908152602001600020805490509050600080905060008090505b82811015611b745783600460008781526020019081526020016000208281548110611b4d57fe5b90600052602060002001541415611b675760019150611b74565b8080600101915050611b26565b508015611bcc576040517f08c379a0000000000000000000000000000000000000000000000000000000008152600401808060200182810382526037815260200180613ff36037913960400191505060405180910390fd5b600460008b81526020019081526020016000208b90806001815401808255809150506001900390600052602060002001600090919091909150556001600260008c8152602001908152602001600020600401600082825401925050819055505050505050505050505050565b6060816000600260008381526020019081526020016000206001018054600181600116156101000203166002900490501415611cdc576040517f08c379a000000000000000000000000000000000000000000000000000000000815260040180806020018281038252601e8152602001807f4c61206361727265726120696e67726573616461206e6f20657869737465000081525060200191505060405180910390fd5b826002806002811115611ceb57fe5b6002600084815260200190815260200160002060020160009054906101000a900460ff166002811115611d1a57fe5b14611d70576040517f08c379a000000000000000000000000000000000000000000000000000000000815260040180806020018281038252602c81526020018061402a602c913960400191505060405180910390fd5b846000600560008381526020019081526020016000208054905011611de0576040517f08c379a0000000000000000000000000000000000000000000000000000000008152600401808060200182810382526029815260200180613f376029913960400191505060405180910390fd5b60606040518060400160405280601981526020017f47616e61646f72657320656e206c6120636172726572612023000000000000008152509050600080905081611e2989613c41565b6040516020018083805190602001908083835b60208310611e5f5780518252602082019150602081019050602083039250611e3c565b6001836020036101000a03801982511681845116808217855250505050505090500182805190602001908083835b60208310611eb05780518252602082019150602081019050602083039250611e8d565b6001836020036101000a038019825116818451168082178552505050505050905001925050506040516020818303038152906040529150816040516020018082805190602001908083835b60208310611f1e5780518252602082019150602081019050602083039250611efb565b6001836020036101000a038019825116818451168082178552505050505050905001807f3a20000000000000000000000000000000000000000000000000000000000000815250600201915050604051602081830303815290604052915060008090505b600560008a815260200190815260200160002080549050811015612442576000600260008b81526020019081526020016000206006016000600560008d81526020019081526020016000208481548110611fd857fe5b9060005260206000200160009054906101000a900473ffffffffffffffffffffffffffffffffffffffff1673ffffffffffffffffffffffffffffffffffffffff1673ffffffffffffffffffffffffffffffffffffffff168152602001908152602001600020600401549050600081146124345760019250836040516020018082805190602001908083835b602083106120865780518252602082019150602081019050602083039250612063565b6001836020036101000a038019825116818451168082178552505050505050905001807f41706f737461646f722023000000000000000000000000000000000000000000815250600b019150506040516020818303038152906040529350836120ee83613c41565b6040516020018083805190602001908083835b602083106121245780518252602082019150602081019050602083039250612101565b6001836020036101000a03801982511681845116808217855250505050505090500182805190602001908083835b602083106121755780518252602082019150602081019050602083039250612152565b6001836020036101000a038019825116818451168082178552505050505050905001925050506040516020818303038152906040529350836040516020018082805190602001908083835b602083106121e357805182526020820191506020810190506020830392506121c0565b6001836020036101000a038019825116818451168082178552505050505050905001807f2d000000000000000000000000000000000000000000000000000000000000008152506001019150506040516020818303038152906040529350836040516020018082805190602001908083835b602083106122785780518252602082019150602081019050602083039250612255565b6001836020036101000a038019825116818451168082178552505050505050905001807f47616e6f3a2000000000000000000000000000000000000000000000000000008152506006019150506040516020818303038152906040529350836122e082613c41565b6040516020018083805190602001908083835b6020831061231657805182526020820191506020810190506020830392506122f3565b6001836020036101000a03801982511681845116808217855250505050505090500182805190602001908083835b602083106123675780518252602082019150602081019050602083039250612344565b6001836020036101000a038019825116818451168082178552505050505050905001925050506040516020818303038152906040529350836040516020018082805190602001908083835b602083106123d557805182526020820191506020810190506020830392506123b2565b6001836020036101000a038019825116818451168082178552505050505050905001807f202000000000000000000000000000000000000000000000000000000000000081525060020191505060405160208183030381529060405293505b508080600101915050611f82565b50819650505050505050919050565b6000809054906101000a900473ffffffffffffffffffffffffffffffffffffffff1681565b6000809054906101000a900473ffffffffffffffffffffffffffffffffffffffff1673ffffffffffffffffffffffffffffffffffffffff163373ffffffffffffffffffffffffffffffffffffffff161461251b576040517f08c379a0000000000000000000000000000000000000000000000000000000008152600401808060200182810382526022815260200180613ea36022913960400191505060405180910390fd5b816000600360008381526020019081526020016000206001018054600181600116156101000203166002900490501461259f576040517f08c379a0000000000000000000000000000000000000000000000000000000008152600401808060200182810382526025815260200180613fce6025913960400191505060405180910390fd5b604051806040016040528084815260200183815250600360008581526020019081526020016000206000820151816000015560208201518160010190805190602001906125ed929190613d6e565b509050507f0fad6c3e066fc058fd766f6c176269aff5c92c6956fe423687edc5c100a1035260036000858152602001908152602001600020600001546003600086815260200190815260200160002060010160405180838152602001806020018281038252838181546001816001161561010002031660029004815260200191508054600181600116156101000203166002900480156126ce5780601f106126a3576101008083540402835291602001916126ce565b820191906000526020600020905b8154815290600101906020018083116126b157829003601f168201915b5050935050505060405180910390a1505050565b6002602052806000526040600020600091509050806000015490806001018054600181600116156101000203166002900480601f0160208091040260200160405190810160405280929190818152602001828054600181600116156101000203166002900480156127945780601f1061276957610100808354040283529160200191612794565b820191906000526020600020905b81548152906001019060200180831161277757829003601f168201915b5050505050908060020160009054906101000a900460ff16908060030154908060040154908060050154905086565b6000816000600260008381526020019081526020016000206001018054600181600116156101000203166002900490501415612867576040517f08c379a000000000000000000000000000000000000000000000000000000000815260040180806020018281038252601e8152602001807f4c61206361727265726120696e67726573616461206e6f20657869737465000081525060200191505060405180910390fd5b82600280600281111561287657fe5b6002600084815260200190815260200160002060020160009054906101000a900460ff1660028111156128a557fe5b146128fb576040517f08c379a000000000000000000000000000000000000000000000000000000000815260040180806020018281038252602c81526020018061402a602c913960400191505060405180910390fd5b60026000868152602001908152602001600020600501549350505050919050565b60008160006002600083815260200190815260200160002060010180546001816001161561010002031660029004905014156129c0576040517f08c379a000000000000000000000000000000000000000000000000000000000815260040180806020018281038252601e8152602001807f4c61206361727265726120696e67726573616461206e6f20657869737465000081525060200191505060405180910390fd5b826000600560008381526020019081526020016000208054905011612a30576040517f08c379a0000000000000000000000000000000000000000000000000000000008152600401808060200182810382526029815260200180613f376029913960400191505060405180910390fd5b600560008581526020019081526020016000208581548110612a4e57fe5b9060005260206000200160009054906101000a900473ffffffffffffffffffffffffffffffffffffffff169250505092915050565b60056020528160005260406000208181548110612a9c57fe5b906000526020600020016000915091509054906101000a900473ffffffffffffffffffffffffffffffffffffffff1681565b6060816000600260008381526020019081526020016000206001018054600181600116156101000203166002900490501415612b72576040517f08c379a000000000000000000000000000000000000000000000000000000000815260040180806020018281038252601e8152602001807f4c61206361727265726120696e67726573616461206e6f20657869737465000081525060200191505060405180910390fd5b60006002811115612b7f57fe5b6002600085815260200190815260200160002060020160009054906101000a900460ff166002811115612bae57fe5b1415612bf1576040518060400160405280600681526020017f43726561646100000000000000000000000000000000000000000000000000008152509150612ca9565b60016002811115612bfe57fe5b6002600085815260200190815260200160002060020160009054906101000a900460ff166002811115612c2d57fe5b1415612c70576040518060400160405280600a81526020017f52656769737472616461000000000000000000000000000000000000000000008152509150612ca9565b6040518060400160405280600981526020017f5465726d696e616461000000000000000000000000000000000000000000000081525091505b50919050565b60015481565b6003602052806000526040600020600091509050806000015490806001018054600181600116156101000203166002900480601f016020809104026020016040519081016040528092919081815260200182805460018160011615610100020316600290048015612d675780601f10612d3c57610100808354040283529160200191612d67565b820191906000526020600020905b815481529060010190602001808311612d4a57829003601f168201915b5050505050905082565b6000809054906101000a900473ffffffffffffffffffffffffffffffffffffffff1673ffffffffffffffffffffffffffffffffffffffff163373ffffffffffffffffffffffffffffffffffffffff161415612e17576040517f08c379a0000000000000000000000000000000000000000000000000000000008152600401808060200182810382526037815260200180613f976037913960400191505060405180910390fd5b806001806002811115612e2657fe5b6002600084815260200190815260200160002060020160009054906101000a900460ff166002811115612e5557fe5b14612eab576040517f08c379a000000000000000000000000000000000000000000000000000000000815260040180806020018281038252602c81526020018061402a602c913960400191505060405180910390fd5b836000600360008381526020019081526020016000206001018054600181600116156101000203166002900490501415612f4d576040517f08c379a000000000000000000000000000000000000000000000000000000000815260040180806020018281038252601e8152602001807f456c20636162616c6c6f20696e6772657361646f206e6f20657869737465000081525060200191505060405180910390fd5b836000600260008381526020019081526020016000206001018054600181600116156101000203166002900490501415612fef576040517f08c379a000000000000000000000000000000000000000000000000000000000815260040180806020018281038252601e8152602001807f4c61206361727265726120696e67726573616461206e6f20657869737465000081525060200191505060405180910390fd5b8486600060046000848152602001908152602001600020805490509050600080905060008090505b82811015613065578360046000878152602001908152602001600020828154811061303e57fe5b906000526020600020015414156130585760019150613065565b8080600101915050613017565b50806130bc576040517f08c379a0000000000000000000000000000000000000000000000000000000008152600401808060200182810382526037815260200180613f606037913960400191505060405180910390fd5b3460008111613116576040517f08c379a0000000000000000000000000000000000000000000000000000000008152600401808060200182810382526029815260200180613f0e6029913960400191505060405180910390fd5b60003490506000339050600260008d815260200190815260200160002060060160008273ffffffffffffffffffffffffffffffffffffffff1673ffffffffffffffffffffffffffffffffffffffff16815260200190815260200160002060020160009054906101000a900460ff16156132c4578c600260008e815260200190815260200160002060060160008373ffffffffffffffffffffffffffffffffffffffff1673ffffffffffffffffffffffffffffffffffffffff1681526020019081526020016000206001015414613237576040517f08c379a000000000000000000000000000000000000000000000000000000000815260040180806020018281038252603b815260200180613e14603b913960400191505060405180910390fd5b81600260008e815260200190815260200160002060060160008373ffffffffffffffffffffffffffffffffffffffff1673ffffffffffffffffffffffffffffffffffffffff1681526020019081526020016000206000016000828254019250508190555081600260008e815260200190815260200160002060030160008282540192505081905550613427565b6040518060a001604052808381526020018e8152602001600115158152602001600081526020016000815250600260008e815260200190815260200160002060060160008373ffffffffffffffffffffffffffffffffffffffff1673ffffffffffffffffffffffffffffffffffffffff168152602001908152602001600020600082015181600001556020820151816001015560408201518160020160006101000a81548160ff021916908315150217905550606082015181600301556080820151816004015590505081600260008e815260200190815260200160002060030160008282540192505081905550600560008d8152602001908152602001600020819080600181540180825580915050600190039060005260206000200160009091909190916101000a81548173ffffffffffffffffffffffffffffffffffffffff021916908373ffffffffffffffffffffffffffffffffffffffff1602179055505b7f5d4da2d239ae200f7129ab7df10b604e5d7b6b0ffaf377dbd6d8ddefc12cab868c8e8385604051808581526020018481526020018373ffffffffffffffffffffffffffffffffffffffff1673ffffffffffffffffffffffffffffffffffffffff16815260200182815260200194505050505060405180910390a150505050505050505050505050565b6000809054906101000a900473ffffffffffffffffffffffffffffffffffffffff1673ffffffffffffffffffffffffffffffffffffffff163373ffffffffffffffffffffffffffffffffffffffff1614613556576040517f08c379a0000000000000000000000000000000000000000000000000000000008152600401808060200182810382526022815260200180613ea36022913960400191505060405180910390fd5b80600080600281111561356557fe5b6002600084815260200190815260200160002060020160009054906101000a900460ff16600281111561359457fe5b146135ea576040517f08c379a000000000000000000000000000000000000000000000000000000000815260040180806020018281038252602c81526020018061402a602c913960400191505060405180910390fd5b82600060026000838152602001908152602001600020600101805460018160011615610100020316600290049050141561368c576040517f08c379a000000000000000000000000000000000000000000000000000000000815260040180806020018281038252601e8152602001807f4c61206361727265726120696e67726573616461206e6f20657869737465000081525060200191505060405180910390fd5b836002600460008381526020019081526020016000208054905010156136fd576040517f08c379a000000000000000000000000000000000000000000000000000000000815260040180806020018281038252602e815260200180613e75602e913960400191505060405180910390fd5b60016002600087815260200190815260200160002060020160006101000a81548160ff0219169083600281111561373057fe5b02179055507fbcc8f8b0b63073a5995bb05ca219cbd7e282534c03235d06119b093559b195b06002600087815260200190815260200160002060000154600260008881526020019081526020016000206001016002600089815260200190815260200160002060020160009054906101000a900460ff1660405180848152602001806020018360028111156137c157fe5b60ff16815260200182810382528481815460018160011615610100020316600290048152602001915080546001816001161561010002031660029004801561384a5780601f1061381f5761010080835404028352916020019161384a565b820191906000526020600020905b81548152906001019060200180831161382d57829003601f168201915b505094505050505060405180910390a15050505050565b6000809054906101000a900473ffffffffffffffffffffffffffffffffffffffff1673ffffffffffffffffffffffffffffffffffffffff163373ffffffffffffffffffffffffffffffffffffffff1614613906576040517f08c379a0000000000000000000000000000000000000000000000000000000008152600401808060200182810382526022815260200180613ea36022913960400191505060405180910390fd5b816000600260008381526020019081526020016000206001018054600181600116156101000203166002900490501461398a576040517f08c379a0000000000000000000000000000000000000000000000000000000008152600401808060200182810382526026815260200180613e4f6026913960400191505060405180910390fd5b6040518060c00160405280848152602001838152602001600060028111156139ae57fe5b815260200160008152602001600081526020016000815250600260008581526020019081526020016000206000820151816000015560208201518160010190805190602001906139ff929190613d6e565b5060408201518160020160006101000a81548160ff02191690836002811115613a2457fe5b0217905550606082015181600301556080820151816004015560a08201518160050155905050600180600082825401925050819055507f4fa248e6733f80aac55bc1c8851c2f07bca8e891b888f7cd781a4053503a89206002600085815260200190815260200160002060000154600260008681526020019081526020016000206001016002600087815260200190815260200160002060020160009054906101000a900460ff166040518084815260200180602001836002811115613ae657fe5b60ff168152602001828103825284818154600181600116156101000203166002900481526020019150805460018160011615610100020316600290048015613b6f5780601f10613b4457610100808354040283529160200191613b6f565b820191906000526020600020905b815481529060010190602001808311613b5257829003601f168201915b505094505050505060405180910390a1505050565b60046020528160005260406000208181548110613b9d57fe5b90600052602060002001600091509150505481565b600080600090508080600101915050600083423384604051602001808481526020018373ffffffffffffffffffffffffffffffffffffffff1673ffffffffffffffffffffffffffffffffffffffff1660601b815260140182815260200193505050506040516020818303038152906040528051906020012060001c81613c3457fe5b0690508092505050919050565b60606000821415613c89576040518060400160405280600181526020017f30000000000000000000000000000000000000000000000000000000000000008152509050613d69565b600082905060005b60008214613cb3578080600101915050600a8281613cab57fe5b049150613c91565b6060816040519080825280601f01601f191660200182016040528015613ce85781602001600182028038833980820191505090505b50905060006001830390505b60008614613d6157600a8681613d0657fe5b0660300160f81b82828060019003935081518110613d2057fe5b60200101907effffffffffffffffffffffffffffffffffffffffffffffffffffffffffffff1916908160001a905350600a8681613d5957fe5b049550613cf4565b819450505050505b919050565b828054600181600116156101000203166002900490600052602060002090601f016020900481019282601f10613daf57805160ff1916838001178555613ddd565b82800160010185558215613ddd579182015b82811115613ddc578251825591602001919060010190613dc1565b5b509050613dea9190613dee565b5090565b613e1091905b80821115613e0c576000816000905550600101613df4565b5090565b9056fe536f6c6f2073652070756564652061706f7374617220706f7220756e20636162616c6c6f2064656e74726f2064652065737461206361727265726159612065786973746520756e61206361727265726120636f6e20657374652063c3b36469676f4c612063617272657261206465626520636f6e74617220636f6e20616c206d656e6f73203220636162616c6c6f73456c20696e766f6361646f7220646562652073657220656c20616e66697472696f6e4c612063617272657261207961206375656e746120636f6e203520636162616c6c6f734c61206361727265726120696e67726573616461206e6f207469656e6520636162616c6c6f73456c206d6f6e746f206465206c612061707565737461206465626520736572206d61796f72206120304c61206361727265726120696e67726573616461206e6f207469656e652061706f737461646f7265734573746520636162616c6c6f206e6f20736520656e6375656e747261207265676973747261646f20656e20657374612063617272657261456c20696e766f6361646f7220646562652073657220756e207573756172696f206469666572656e746520616c20616e66697472696f6e59612065786973746520756e20636162616c6c6f20636f6e20657374652063c3b36469676f4573746520636162616c6c6f20796120736520656e6375656e747261207265676973747261646f20656e206573746120636172726572614c612063617272657261206e6f2063756d706c6520636f6e20656c2065737461646f2072657175657269646fa2646970667358221220dc350735cedceb4fd820d8af091d3a68ec1d5e76108fbf4d6376e0d48c798bc864736f6c63430006000033",
					"opcodes": "PUSH1 0x80 PUSH1 0x40 MSTORE CALLVALUE DUP1 ISZERO PUSH2 0x10 JUMPI PUSH1 0x0 DUP1 REVERT JUMPDEST POP CALLER PUSH1 0x0 DUP1 PUSH2 0x100 EXP DUP2 SLOAD DUP2 PUSH20 0xFFFFFFFFFFFFFFFFFFFFFFFFFFFFFFFFFFFFFFFF MUL NOT AND SWAP1 DUP4 PUSH20 0xFFFFFFFFFFFFFFFFFFFFFFFFFFFFFFFFFFFFFFFF AND MUL OR SWAP1 SSTORE POP PUSH2 0x408B DUP1 PUSH2 0x60 PUSH1 0x0 CODECOPY PUSH1 0x0 RETURN INVALID PUSH1 0x80 PUSH1 0x40 MSTORE PUSH1 0x4 CALLDATASIZE LT PUSH2 0xFE JUMPI PUSH1 0x0 CALLDATALOAD PUSH1 0xE0 SHR DUP1 PUSH4 0xD066CEBE GT PUSH2 0x95 JUMPI DUP1 PUSH4 0xF0B73B54 GT PUSH2 0x64 JUMPI DUP1 PUSH4 0xF0B73B54 EQ PUSH2 0x724 JUMPI DUP1 PUSH4 0xF2F6DA3E EQ PUSH2 0x7DF JUMPI DUP1 PUSH4 0xF7EDD6DB EQ PUSH2 0x817 JUMPI DUP1 PUSH4 0xF9D32E49 EQ PUSH2 0x852 JUMPI DUP1 PUSH4 0xFB34D0F7 EQ PUSH2 0x924 JUMPI PUSH2 0xFE JUMP JUMPDEST DUP1 PUSH4 0xD066CEBE EQ PUSH2 0x53B JUMPI DUP1 PUSH4 0xDFE22B5F EQ PUSH2 0x5C0 JUMPI DUP1 PUSH4 0xE6581B9D EQ PUSH2 0x645 JUMPI DUP1 PUSH4 0xE9EC5583 EQ PUSH2 0x6F9 JUMPI PUSH2 0xFE JUMP JUMPDEST DUP1 PUSH4 0x456F4B57 GT PUSH2 0xD1 JUMPI DUP1 PUSH4 0x456F4B57 EQ PUSH2 0x2DE JUMPI DUP1 PUSH4 0x5194F59C EQ PUSH2 0x335 JUMPI DUP1 PUSH4 0x5EE81666 EQ PUSH2 0x407 JUMPI DUP1 PUSH4 0x79B31E69 EQ PUSH2 0x4EC JUMPI PUSH2 0xFE JUMP JUMPDEST DUP1 PUSH4 0x10A0E95 EQ PUSH2 0x103 JUMPI DUP1 PUSH4 0x1B895C2F EQ PUSH2 0x131 JUMPI DUP1 PUSH4 0x26D1C7D0 EQ PUSH2 0x1E5 JUMPI DUP1 PUSH4 0x286F6B4C EQ PUSH2 0x22A JUMPI JUMPDEST PUSH1 0x0 DUP1 REVERT JUMPDEST PUSH2 0x12F PUSH1 0x4 DUP1 CALLDATASIZE SUB PUSH1 0x20 DUP2 LT ISZERO PUSH2 0x119 JUMPI PUSH1 0x0 DUP1 REVERT JUMPDEST DUP2 ADD SWAP1 DUP1 DUP1 CALLDATALOAD SWAP1 PUSH1 0x20 ADD SWAP1 SWAP3 SWAP2 SWAP1 POP POP POP PUSH2 0x97D JUMP JUMPDEST STOP JUMPDEST CALLVALUE DUP1 ISZERO PUSH2 0x13D JUMPI PUSH1 0x0 DUP1 REVERT JUMPDEST POP PUSH2 0x16A PUSH1 0x4 DUP1 CALLDATASIZE SUB PUSH1 0x20 DUP2 LT ISZERO PUSH2 0x154 JUMPI PUSH1 0x0 DUP1 REVERT JUMPDEST DUP2 ADD SWAP1 DUP1 DUP1 CALLDATALOAD SWAP1 PUSH1 0x20 ADD SWAP1 SWAP3 SWAP2 SWAP1 POP POP POP PUSH2 0x1363 JUMP JUMPDEST PUSH1 0x40 MLOAD DUP1 DUP1 PUSH1 0x20 ADD DUP3 DUP2 SUB DUP3 MSTORE DUP4 DUP2 DUP2 MLOAD DUP2 MSTORE PUSH1 0x20 ADD SWAP2 POP DUP1 MLOAD SWAP1 PUSH1 0x20 ADD SWAP1 DUP1 DUP4 DUP4 PUSH1 0x0 JUMPDEST DUP4 DUP2 LT ISZERO PUSH2 0x1AA JUMPI DUP1 DUP3 ADD MLOAD DUP2 DUP5 ADD MSTORE PUSH1 0x20 DUP2 ADD SWAP1 POP PUSH2 0x18F JUMP JUMPDEST POP POP POP POP SWAP1 POP SWAP1 DUP2 ADD SWAP1 PUSH1 0x1F AND DUP1 ISZERO PUSH2 0x1D7 JUMPI DUP1 DUP3 SUB DUP1 MLOAD PUSH1 0x1 DUP4 PUSH1 0x20 SUB PUSH2 0x100 EXP SUB NOT AND DUP2 MSTORE PUSH1 0x20 ADD SWAP2 POP JUMPDEST POP SWAP3 POP POP POP PUSH1 0x40 MLOAD DUP1 SWAP2 SUB SWAP1 RETURN JUMPDEST CALLVALUE DUP1 ISZERO PUSH2 0x1F1 JUMPI PUSH1 0x0 DUP1 REVERT JUMPDEST POP PUSH2 0x228 PUSH1 0x4 DUP1 CALLDATASIZE SUB PUSH1 0x40 DUP2 LT ISZERO PUSH2 0x208 JUMPI PUSH1 0x0 DUP1 REVERT JUMPDEST DUP2 ADD SWAP1 DUP1 DUP1 CALLDATALOAD SWAP1 PUSH1 0x20 ADD SWAP1 SWAP3 SWAP2 SWAP1 DUP1 CALLDATALOAD SWAP1 PUSH1 0x20 ADD SWAP1 SWAP3 SWAP2 SWAP1 POP POP POP PUSH2 0x1811 JUMP JUMPDEST STOP JUMPDEST CALLVALUE DUP1 ISZERO PUSH2 0x236 JUMPI PUSH1 0x0 DUP1 REVERT JUMPDEST POP PUSH2 0x263 PUSH1 0x4 DUP1 CALLDATASIZE SUB PUSH1 0x20 DUP2 LT ISZERO PUSH2 0x24D JUMPI PUSH1 0x0 DUP1 REVERT JUMPDEST DUP2 ADD SWAP1 DUP1 DUP1 CALLDATALOAD SWAP1 PUSH1 0x20 ADD SWAP1 SWAP3 SWAP2 SWAP1 POP POP POP PUSH2 0x1C38 JUMP JUMPDEST PUSH1 0x40 MLOAD DUP1 DUP1 PUSH1 0x20 ADD DUP3 DUP2 SUB DUP3 MSTORE DUP4 DUP2 DUP2 MLOAD DUP2 MSTORE PUSH1 0x20 ADD SWAP2 POP DUP1 MLOAD SWAP1 PUSH1 0x20 ADD SWAP1 DUP1 DUP4 DUP4 PUSH1 0x0 JUMPDEST DUP4 DUP2 LT ISZERO PUSH2 0x2A3 JUMPI DUP1 DUP3 ADD MLOAD DUP2 DUP5 ADD MSTORE PUSH1 0x20 DUP2 ADD SWAP1 POP PUSH2 0x288 JUMP JUMPDEST POP POP POP POP SWAP1 POP SWAP1 DUP2 ADD SWAP1 PUSH1 0x1F AND DUP1 ISZERO PUSH2 0x2D0 JUMPI DUP1 DUP3 SUB DUP1 MLOAD PUSH1 0x1 DUP4 PUSH1 0x20 SUB PUSH2 0x100 EXP SUB NOT AND DUP2 MSTORE PUSH1 0x20 ADD SWAP2 POP JUMPDEST POP SWAP3 POP POP POP PUSH1 0x40 MLOAD DUP1 SWAP2 SUB SWAP1 RETURN JUMPDEST CALLVALUE DUP1 ISZERO PUSH2 0x2EA JUMPI PUSH1 0x0 DUP1 REVERT JUMPDEST POP PUSH2 0x2F3 PUSH2 0x2451 JUMP JUMPDEST PUSH1 0x40 MLOAD DUP1 DUP3 PUSH20 0xFFFFFFFFFFFFFFFFFFFFFFFFFFFFFFFFFFFFFFFF AND PUSH20 0xFFFFFFFFFFFFFFFFFFFFFFFFFFFFFFFFFFFFFFFF AND DUP2 MSTORE PUSH1 0x20 ADD SWAP2 POP POP PUSH1 0x40 MLOAD DUP1 SWAP2 SUB SWAP1 RETURN JUMPDEST CALLVALUE DUP1 ISZERO PUSH2 0x341 JUMPI PUSH1 0x0 DUP1 REVERT JUMPDEST POP PUSH2 0x405 PUSH1 0x4 DUP1 CALLDATASIZE SUB PUSH1 0x40 DUP2 LT ISZERO PUSH2 0x358 JUMPI PUSH1 0x0 DUP1 REVERT JUMPDEST DUP2 ADD SWAP1 DUP1 DUP1 CALLDATALOAD SWAP1 PUSH1 0x20 ADD SWAP1 SWAP3 SWAP2 SWAP1 DUP1 CALLDATALOAD SWAP1 PUSH1 0x20 ADD SWAP1 PUSH5 0x100000000 DUP2 GT ISZERO PUSH2 0x37F JUMPI PUSH1 0x0 DUP1 REVERT JUMPDEST DUP3 ADD DUP4 PUSH1 0x20 DUP3 ADD GT ISZERO PUSH2 0x391 JUMPI PUSH1 0x0 DUP1 REVERT JUMPDEST DUP1 CALLDATALOAD SWAP1 PUSH1 0x20 ADD SWAP2 DUP5 PUSH1 0x1 DUP4 MUL DUP5 ADD GT PUSH5 0x100000000 DUP4 GT OR ISZERO PUSH2 0x3B3 JUMPI PUSH1 0x0 DUP1 REVERT JUMPDEST SWAP2 SWAP1 DUP1 DUP1 PUSH1 0x1F ADD PUSH1 0x20 DUP1 SWAP2 DIV MUL PUSH1 0x20 ADD PUSH1 0x40 MLOAD SWAP1 DUP2 ADD PUSH1 0x40 MSTORE DUP1 SWAP4 SWAP3 SWAP2 SWAP1 DUP2 DUP2 MSTORE PUSH1 0x20 ADD DUP4 DUP4 DUP1 DUP3 DUP5 CALLDATACOPY PUSH1 0x0 DUP2 DUP5 ADD MSTORE PUSH1 0x1F NOT PUSH1 0x1F DUP3 ADD AND SWAP1 POP DUP1 DUP4 ADD SWAP3 POP POP POP POP POP POP POP SWAP2 SWAP3 SWAP2 SWAP3 SWAP1 POP POP POP PUSH2 0x2476 JUMP JUMPDEST STOP JUMPDEST CALLVALUE DUP1 ISZERO PUSH2 0x413 JUMPI PUSH1 0x0 DUP1 REVERT JUMPDEST POP PUSH2 0x440 PUSH1 0x4 DUP1 CALLDATASIZE SUB PUSH1 0x20 DUP2 LT ISZERO PUSH2 0x42A JUMPI PUSH1 0x0 DUP1 REVERT JUMPDEST DUP2 ADD SWAP1 DUP1 DUP1 CALLDATALOAD SWAP1 PUSH1 0x20 ADD SWAP1 SWAP3 SWAP2 SWAP1 POP POP POP PUSH2 0x26E2 JUMP JUMPDEST PUSH1 0x40 MLOAD DUP1 DUP8 DUP2 MSTORE PUSH1 0x20 ADD DUP1 PUSH1 0x20 ADD DUP7 PUSH1 0x2 DUP2 GT ISZERO PUSH2 0x45A JUMPI INVALID JUMPDEST PUSH1 0xFF AND DUP2 MSTORE PUSH1 0x20 ADD DUP6 DUP2 MSTORE PUSH1 0x20 ADD DUP5 DUP2 MSTORE PUSH1 0x20 ADD DUP4 DUP2 MSTORE PUSH1 0x20 ADD DUP3 DUP2 SUB DUP3 MSTORE DUP8 DUP2 DUP2 MLOAD DUP2 MSTORE PUSH1 0x20 ADD SWAP2 POP DUP1 MLOAD SWAP1 PUSH1 0x20 ADD SWAP1 DUP1 DUP4 DUP4 PUSH1 0x0 JUMPDEST DUP4 DUP2 LT ISZERO PUSH2 0x4AC JUMPI DUP1 DUP3 ADD MLOAD DUP2 DUP5 ADD MSTORE PUSH1 0x20 DUP2 ADD SWAP1 POP PUSH2 0x491 JUMP JUMPDEST POP POP POP POP SWAP1 POP SWAP1 DUP2 ADD SWAP1 PUSH1 0x1F AND DUP1 ISZERO PUSH2 0x4D9 JUMPI DUP1 DUP3 SUB DUP1 MLOAD PUSH1 0x1 DUP4 PUSH1 0x20 SUB PUSH2 0x100 EXP SUB NOT AND DUP2 MSTORE PUSH1 0x20 ADD SWAP2 POP JUMPDEST POP SWAP8 POP POP POP POP POP POP POP POP PUSH1 0x40 MLOAD DUP1 SWAP2 SUB SWAP1 RETURN JUMPDEST CALLVALUE DUP1 ISZERO PUSH2 0x4F8 JUMPI PUSH1 0x0 DUP1 REVERT JUMPDEST POP PUSH2 0x525 PUSH1 0x4 DUP1 CALLDATASIZE SUB PUSH1 0x20 DUP2 LT ISZERO PUSH2 0x50F JUMPI PUSH1 0x0 DUP1 REVERT JUMPDEST DUP2 ADD SWAP1 DUP1 DUP1 CALLDATALOAD SWAP1 PUSH1 0x20 ADD SWAP1 SWAP3 SWAP2 SWAP1 POP POP POP PUSH2 0x27C3 JUMP JUMPDEST PUSH1 0x40 MLOAD DUP1 DUP3 DUP2 MSTORE PUSH1 0x20 ADD SWAP2 POP POP PUSH1 0x40 MLOAD DUP1 SWAP2 SUB SWAP1 RETURN JUMPDEST CALLVALUE DUP1 ISZERO PUSH2 0x547 JUMPI PUSH1 0x0 DUP1 REVERT JUMPDEST POP PUSH2 0x57E PUSH1 0x4 DUP1 CALLDATASIZE SUB PUSH1 0x40 DUP2 LT ISZERO PUSH2 0x55E JUMPI PUSH1 0x0 DUP1 REVERT JUMPDEST DUP2 ADD SWAP1 DUP1 DUP1 CALLDATALOAD SWAP1 PUSH1 0x20 ADD SWAP1 SWAP3 SWAP2 SWAP1 DUP1 CALLDATALOAD SWAP1 PUSH1 0x20 ADD SWAP1 SWAP3 SWAP2 SWAP1 POP POP POP PUSH2 0x291C JUMP JUMPDEST PUSH1 0x40 MLOAD DUP1 DUP3 PUSH20 0xFFFFFFFFFFFFFFFFFFFFFFFFFFFFFFFFFFFFFFFF AND PUSH20 0xFFFFFFFFFFFFFFFFFFFFFFFFFFFFFFFFFFFFFFFF AND DUP2 MSTORE PUSH1 0x20 ADD SWAP2 POP POP PUSH1 0x40 MLOAD DUP1 SWAP2 SUB SWAP1 RETURN JUMPDEST CALLVALUE DUP1 ISZERO PUSH2 0x5CC JUMPI PUSH1 0x0 DUP1 REVERT JUMPDEST POP PUSH2 0x603 PUSH1 0x4 DUP1 CALLDATASIZE SUB PUSH1 0x40 DUP2 LT ISZERO PUSH2 0x5E3 JUMPI PUSH1 0x0 DUP1 REVERT JUMPDEST DUP2 ADD SWAP1 DUP1 DUP1 CALLDATALOAD SWAP1 PUSH1 0x20 ADD SWAP1 SWAP3 SWAP2 SWAP1 DUP1 CALLDATALOAD SWAP1 PUSH1 0x20 ADD SWAP1 SWAP3 SWAP2 SWAP1 POP POP POP PUSH2 0x2A83 JUMP JUMPDEST PUSH1 0x40 MLOAD DUP1 DUP3 PUSH20 0xFFFFFFFFFFFFFFFFFFFFFFFFFFFFFFFFFFFFFFFF AND PUSH20 0xFFFFFFFFFFFFFFFFFFFFFFFFFFFFFFFFFFFFFFFF AND DUP2 MSTORE PUSH1 0x20 ADD SWAP2 POP POP PUSH1 0x40 MLOAD DUP1 SWAP2 SUB SWAP1 RETURN JUMPDEST CALLVALUE DUP1 ISZERO PUSH2 0x651 JUMPI PUSH1 0x0 DUP1 REVERT JUMPDEST POP PUSH2 0x67E PUSH1 0x4 DUP1 CALLDATASIZE SUB PUSH1 0x20 DUP2 LT ISZERO PUSH2 0x668 JUMPI PUSH1 0x0 DUP1 REVERT JUMPDEST DUP2 ADD SWAP1 DUP1 DUP1 CALLDATALOAD SWAP1 PUSH1 0x20 ADD SWAP1 SWAP3 SWAP2 SWAP1 POP POP POP PUSH2 0x2ACE JUMP JUMPDEST PUSH1 0x40 MLOAD DUP1 DUP1 PUSH1 0x20 ADD DUP3 DUP2 SUB DUP3 MSTORE DUP4 DUP2 DUP2 MLOAD DUP2 MSTORE PUSH1 0x20 ADD SWAP2 POP DUP1 MLOAD SWAP1 PUSH1 0x20 ADD SWAP1 DUP1 DUP4 DUP4 PUSH1 0x0 JUMPDEST DUP4 DUP2 LT ISZERO PUSH2 0x6BE JUMPI DUP1 DUP3 ADD MLOAD DUP2 DUP5 ADD MSTORE PUSH1 0x20 DUP2 ADD SWAP1 POP PUSH2 0x6A3 JUMP JUMPDEST POP POP POP POP SWAP1 POP SWAP1 DUP2 ADD SWAP1 PUSH1 0x1F AND DUP1 ISZERO PUSH2 0x6EB JUMPI DUP1 DUP3 SUB DUP1 MLOAD PUSH1 0x1 DUP4 PUSH1 0x20 SUB PUSH2 0x100 EXP SUB NOT AND DUP2 MSTORE PUSH1 0x20 ADD SWAP2 POP JUMPDEST POP SWAP3 POP POP POP PUSH1 0x40 MLOAD DUP1 SWAP2 SUB SWAP1 RETURN JUMPDEST CALLVALUE DUP1 ISZERO PUSH2 0x705 JUMPI PUSH1 0x0 DUP1 REVERT JUMPDEST POP PUSH2 0x70E PUSH2 0x2CAF JUMP JUMPDEST PUSH1 0x40 MLOAD DUP1 DUP3 DUP2 MSTORE PUSH1 0x20 ADD SWAP2 POP POP PUSH1 0x40 MLOAD DUP1 SWAP2 SUB SWAP1 RETURN JUMPDEST CALLVALUE DUP1 ISZERO PUSH2 0x730 JUMPI PUSH1 0x0 DUP1 REVERT JUMPDEST POP PUSH2 0x75D PUSH1 0x4 DUP1 CALLDATASIZE SUB PUSH1 0x20 DUP2 LT ISZERO PUSH2 0x747 JUMPI PUSH1 0x0 DUP1 REVERT JUMPDEST DUP2 ADD SWAP1 DUP1 DUP1 CALLDATALOAD SWAP1 PUSH1 0x20 ADD SWAP1 SWAP3 SWAP2 SWAP1 POP POP POP PUSH2 0x2CB5 JUMP JUMPDEST PUSH1 0x40 MLOAD DUP1 DUP4 DUP2 MSTORE PUSH1 0x20 ADD DUP1 PUSH1 0x20 ADD DUP3 DUP2 SUB DUP3 MSTORE DUP4 DUP2 DUP2 MLOAD DUP2 MSTORE PUSH1 0x20 ADD SWAP2 POP DUP1 MLOAD SWAP1 PUSH1 0x20 ADD SWAP1 DUP1 DUP4 DUP4 PUSH1 0x0 JUMPDEST DUP4 DUP2 LT ISZERO PUSH2 0x7A3 JUMPI DUP1 DUP3 ADD MLOAD DUP2 DUP5 ADD MSTORE PUSH1 0x20 DUP2 ADD SWAP1 POP PUSH2 0x788 JUMP JUMPDEST POP POP POP POP SWAP1 POP SWAP1 DUP2 ADD SWAP1 PUSH1 0x1F AND DUP1 ISZERO PUSH2 0x7D0 JUMPI DUP1 DUP3 SUB DUP1 MLOAD PUSH1 0x1 DUP4 PUSH1 0x20 SUB PUSH2 0x100 EXP SUB NOT AND DUP2 MSTORE PUSH1 0x20 ADD SWAP2 POP JUMPDEST POP SWAP4 POP POP POP POP PUSH1 0x40 MLOAD DUP1 SWAP2 SUB SWAP1 RETURN JUMPDEST PUSH2 0x815 PUSH1 0x4 DUP1 CALLDATASIZE SUB PUSH1 0x40 DUP2 LT ISZERO PUSH2 0x7F5 JUMPI PUSH1 0x0 DUP1 REVERT JUMPDEST DUP2 ADD SWAP1 DUP1 DUP1 CALLDATALOAD SWAP1 PUSH1 0x20 ADD SWAP1 SWAP3 SWAP2 SWAP1 DUP1 CALLDATALOAD SWAP1 PUSH1 0x20 ADD SWAP1 SWAP3 SWAP2 SWAP1 POP POP POP PUSH2 0x2D71 JUMP JUMPDEST STOP JUMPDEST CALLVALUE DUP1 ISZERO PUSH2 0x823 JUMPI PUSH1 0x0 DUP1 REVERT JUMPDEST POP PUSH2 0x850 PUSH1 0x4 DUP1 CALLDATASIZE SUB PUSH1 0x20 DUP2 LT ISZERO PUSH2 0x83A JUMPI PUSH1 0x0 DUP1 REVERT JUMPDEST DUP2 ADD SWAP1 DUP1 DUP1 CALLDATALOAD SWAP1 PUSH1 0x20 ADD SWAP1 SWAP3 SWAP2 SWAP1 POP POP POP PUSH2 0x34B1 JUMP JUMPDEST STOP JUMPDEST CALLVALUE DUP1 ISZERO PUSH2 0x85E JUMPI PUSH1 0x0 DUP1 REVERT JUMPDEST POP PUSH2 0x922 PUSH1 0x4 DUP1 CALLDATASIZE SUB PUSH1 0x40 DUP2 LT ISZERO PUSH2 0x875 JUMPI PUSH1 0x0 DUP1 REVERT JUMPDEST DUP2 ADD SWAP1 DUP1 DUP1 CALLDATALOAD SWAP1 PUSH1 0x20 ADD SWAP1 SWAP3 SWAP2 SWAP1 DUP1 CALLDATALOAD SWAP1 PUSH1 0x20 ADD SWAP1 PUSH5 0x100000000 DUP2 GT ISZERO PUSH2 0x89C JUMPI PUSH1 0x0 DUP1 REVERT JUMPDEST DUP3 ADD DUP4 PUSH1 0x20 DUP3 ADD GT ISZERO PUSH2 0x8AE JUMPI PUSH1 0x0 DUP1 REVERT JUMPDEST DUP1 CALLDATALOAD SWAP1 PUSH1 0x20 ADD SWAP2 DUP5 PUSH1 0x1 DUP4 MUL DUP5 ADD GT PUSH5 0x100000000 DUP4 GT OR ISZERO PUSH2 0x8D0 JUMPI PUSH1 0x0 DUP1 REVERT JUMPDEST SWAP2 SWAP1 DUP1 DUP1 PUSH1 0x1F ADD PUSH1 0x20 DUP1 SWAP2 DIV MUL PUSH1 0x20 ADD PUSH1 0x40 MLOAD SWAP1 DUP2 ADD PUSH1 0x40 MSTORE DUP1 SWAP4 SWAP3 SWAP2 SWAP1 DUP2 DUP2 MSTORE PUSH1 0x20 ADD DUP4 DUP4 DUP1 DUP3 DUP5 CALLDATACOPY PUSH1 0x0 DUP2 DUP5 ADD MSTORE PUSH1 0x1F NOT PUSH1 0x1F DUP3 ADD AND SWAP1 POP DUP1 DUP4 ADD SWAP3 POP POP POP POP POP POP POP SWAP2 SWAP3 SWAP2 SWAP3 SWAP1 POP POP POP PUSH2 0x3861 JUMP JUMPDEST STOP JUMPDEST CALLVALUE DUP1 ISZERO PUSH2 0x930 JUMPI PUSH1 0x0 DUP1 REVERT JUMPDEST POP PUSH2 0x967 PUSH1 0x4 DUP1 CALLDATASIZE SUB PUSH1 0x40 DUP2 LT ISZERO PUSH2 0x947 JUMPI PUSH1 0x0 DUP1 REVERT JUMPDEST DUP2 ADD SWAP1 DUP1 DUP1 CALLDATALOAD SWAP1 PUSH1 0x20 ADD SWAP1 SWAP3 SWAP2 SWAP1 DUP1 CALLDATALOAD SWAP1 PUSH1 0x20 ADD SWAP1 SWAP3 SWAP2 SWAP1 POP POP POP PUSH2 0x3B84 JUMP JUMPDEST PUSH1 0x40 MLOAD DUP1 DUP3 DUP2 MSTORE PUSH1 0x20 ADD SWAP2 POP POP PUSH1 0x40 MLOAD DUP1 SWAP2 SUB SWAP1 RETURN JUMPDEST PUSH1 0x0 DUP1 SWAP1 SLOAD SWAP1 PUSH2 0x100 EXP SWAP1 DIV PUSH20 0xFFFFFFFFFFFFFFFFFFFFFFFFFFFFFFFFFFFFFFFF AND PUSH20 0xFFFFFFFFFFFFFFFFFFFFFFFFFFFFFFFFFFFFFFFF AND CALLER PUSH20 0xFFFFFFFFFFFFFFFFFFFFFFFFFFFFFFFFFFFFFFFF AND EQ PUSH2 0xA22 JUMPI PUSH1 0x40 MLOAD PUSH32 0x8C379A000000000000000000000000000000000000000000000000000000000 DUP2 MSTORE PUSH1 0x4 ADD DUP1 DUP1 PUSH1 0x20 ADD DUP3 DUP2 SUB DUP3 MSTORE PUSH1 0x22 DUP2 MSTORE PUSH1 0x20 ADD DUP1 PUSH2 0x3EA3 PUSH1 0x22 SWAP2 CODECOPY PUSH1 0x40 ADD SWAP2 POP POP PUSH1 0x40 MLOAD DUP1 SWAP2 SUB SWAP1 REVERT JUMPDEST DUP1 PUSH1 0x0 PUSH1 0x2 PUSH1 0x0 DUP4 DUP2 MSTORE PUSH1 0x20 ADD SWAP1 DUP2 MSTORE PUSH1 0x20 ADD PUSH1 0x0 KECCAK256 PUSH1 0x1 ADD DUP1 SLOAD PUSH1 0x1 DUP2 PUSH1 0x1 AND ISZERO PUSH2 0x100 MUL SUB AND PUSH1 0x2 SWAP1 DIV SWAP1 POP EQ ISZERO PUSH2 0xAC4 JUMPI PUSH1 0x40 MLOAD PUSH32 0x8C379A000000000000000000000000000000000000000000000000000000000 DUP2 MSTORE PUSH1 0x4 ADD DUP1 DUP1 PUSH1 0x20 ADD DUP3 DUP2 SUB DUP3 MSTORE PUSH1 0x1E DUP2 MSTORE PUSH1 0x20 ADD DUP1 PUSH32 0x4C61206361727265726120696E67726573616461206E6F206578697374650000 DUP2 MSTORE POP PUSH1 0x20 ADD SWAP2 POP POP PUSH1 0x40 MLOAD DUP1 SWAP2 SUB SWAP1 REVERT JUMPDEST DUP2 PUSH1 0x1 DUP1 PUSH1 0x2 DUP2 GT ISZERO PUSH2 0xAD3 JUMPI INVALID JUMPDEST PUSH1 0x2 PUSH1 0x0 DUP5 DUP2 MSTORE PUSH1 0x20 ADD SWAP1 DUP2 MSTORE PUSH1 0x20 ADD PUSH1 0x0 KECCAK256 PUSH1 0x2 ADD PUSH1 0x0 SWAP1 SLOAD SWAP1 PUSH2 0x100 EXP SWAP1 DIV PUSH1 0xFF AND PUSH1 0x2 DUP2 GT ISZERO PUSH2 0xB02 JUMPI INVALID JUMPDEST EQ PUSH2 0xB58 JUMPI PUSH1 0x40 MLOAD PUSH32 0x8C379A000000000000000000000000000000000000000000000000000000000 DUP2 MSTORE PUSH1 0x4 ADD DUP1 DUP1 PUSH1 0x20 ADD DUP3 DUP2 SUB DUP3 MSTORE PUSH1 0x2C DUP2 MSTORE PUSH1 0x20 ADD DUP1 PUSH2 0x402A PUSH1 0x2C SWAP2 CODECOPY PUSH1 0x40 ADD SWAP2 POP POP PUSH1 0x40 MLOAD DUP1 SWAP2 SUB SWAP1 REVERT JUMPDEST PUSH1 0x0 PUSH2 0xB79 PUSH1 0x2 PUSH1 0x0 DUP8 DUP2 MSTORE PUSH1 0x20 ADD SWAP1 DUP2 MSTORE PUSH1 0x20 ADD PUSH1 0x0 KECCAK256 PUSH1 0x4 ADD SLOAD PUSH2 0x3BB2 JUMP JUMPDEST SWAP1 POP PUSH1 0x0 DUP1 SWAP1 POP PUSH1 0x4 PUSH1 0x0 DUP8 DUP2 MSTORE PUSH1 0x20 ADD SWAP1 DUP2 MSTORE PUSH1 0x20 ADD PUSH1 0x0 KECCAK256 DUP3 DUP2 SLOAD DUP2 LT PUSH2 0xB9E JUMPI INVALID JUMPDEST SWAP1 PUSH1 0x0 MSTORE PUSH1 0x20 PUSH1 0x0 KECCAK256 ADD SLOAD PUSH1 0x2 PUSH1 0x0 DUP9 DUP2 MSTORE PUSH1 0x20 ADD SWAP1 DUP2 MSTORE PUSH1 0x20 ADD PUSH1 0x0 KECCAK256 PUSH1 0x5 ADD DUP2 SWAP1 SSTORE POP PUSH32 0x72AC7000D1A6792055555B3D758CB51770189E1D86AC2E4BEB2195BE79D10972 DUP7 PUSH1 0x2 PUSH1 0x0 DUP10 DUP2 MSTORE PUSH1 0x20 ADD SWAP1 DUP2 MSTORE PUSH1 0x20 ADD PUSH1 0x0 KECCAK256 PUSH1 0x5 ADD SLOAD PUSH1 0x40 MLOAD DUP1 DUP4 DUP2 MSTORE PUSH1 0x20 ADD DUP3 DUP2 MSTORE PUSH1 0x20 ADD SWAP3 POP POP POP PUSH1 0x40 MLOAD DUP1 SWAP2 SUB SWAP1 LOG1 PUSH1 0x0 DUP1 SWAP1 POP JUMPDEST PUSH1 0x5 PUSH1 0x0 DUP9 DUP2 MSTORE PUSH1 0x20 ADD SWAP1 DUP2 MSTORE PUSH1 0x20 ADD PUSH1 0x0 KECCAK256 DUP1 SLOAD SWAP1 POP DUP2 LT ISZERO PUSH2 0xD79 JUMPI PUSH1 0x0 PUSH1 0x5 PUSH1 0x0 DUP10 DUP2 MSTORE PUSH1 0x20 ADD SWAP1 DUP2 MSTORE PUSH1 0x20 ADD PUSH1 0x0 KECCAK256 DUP3 DUP2 SLOAD DUP2 LT PUSH2 0xC5C JUMPI INVALID JUMPDEST SWAP1 PUSH1 0x0 MSTORE PUSH1 0x20 PUSH1 0x0 KECCAK256 ADD PUSH1 0x0 SWAP1 SLOAD SWAP1 PUSH2 0x100 EXP SWAP1 DIV PUSH20 0xFFFFFFFFFFFFFFFFFFFFFFFFFFFFFFFFFFFFFFFF AND SWAP1 POP PUSH1 0x4 PUSH1 0x0 DUP10 DUP2 MSTORE PUSH1 0x20 ADD SWAP1 DUP2 MSTORE PUSH1 0x20 ADD PUSH1 0x0 KECCAK256 DUP5 DUP2 SLOAD DUP2 LT PUSH2 0xCA7 JUMPI INVALID JUMPDEST SWAP1 PUSH1 0x0 MSTORE PUSH1 0x20 PUSH1 0x0 KECCAK256 ADD SLOAD PUSH1 0x2 PUSH1 0x0 DUP11 DUP2 MSTORE PUSH1 0x20 ADD SWAP1 DUP2 MSTORE PUSH1 0x20 ADD PUSH1 0x0 KECCAK256 PUSH1 0x6 ADD PUSH1 0x0 DUP4 PUSH20 0xFFFFFFFFFFFFFFFFFFFFFFFFFFFFFFFFFFFFFFFF AND PUSH20 0xFFFFFFFFFFFFFFFFFFFFFFFFFFFFFFFFFFFFFFFF AND DUP2 MSTORE PUSH1 0x20 ADD SWAP1 DUP2 MSTORE PUSH1 0x20 ADD PUSH1 0x0 KECCAK256 PUSH1 0x1 ADD SLOAD EQ ISZERO PUSH2 0xD6B JUMPI PUSH1 0x2 PUSH1 0x0 DUP10 DUP2 MSTORE PUSH1 0x20 ADD SWAP1 DUP2 MSTORE PUSH1 0x20 ADD PUSH1 0x0 KECCAK256 PUSH1 0x6 ADD PUSH1 0x0 DUP3 PUSH20 0xFFFFFFFFFFFFFFFFFFFFFFFFFFFFFFFFFFFFFFFF AND PUSH20 0xFFFFFFFFFFFFFFFFFFFFFFFFFFFFFFFFFFFFFFFF AND DUP2 MSTORE PUSH1 0x20 ADD SWAP1 DUP2 MSTORE PUSH1 0x20 ADD PUSH1 0x0 KECCAK256 PUSH1 0x0 ADD SLOAD DUP4 ADD SWAP3 POP JUMPDEST POP DUP1 DUP1 PUSH1 0x1 ADD SWAP2 POP POP PUSH2 0xC1E JUMP JUMPDEST POP PUSH1 0x0 DUP2 EQ PUSH2 0x11A1 JUMPI PUSH1 0x0 DUP1 SWAP1 POP JUMPDEST PUSH1 0x5 PUSH1 0x0 DUP9 DUP2 MSTORE PUSH1 0x20 ADD SWAP1 DUP2 MSTORE PUSH1 0x20 ADD PUSH1 0x0 KECCAK256 DUP1 SLOAD SWAP1 POP DUP2 LT ISZERO PUSH2 0x1134 JUMPI PUSH1 0x0 PUSH1 0x5 PUSH1 0x0 DUP10 DUP2 MSTORE PUSH1 0x20 ADD SWAP1 DUP2 MSTORE PUSH1 0x20 ADD PUSH1 0x0 KECCAK256 DUP3 DUP2 SLOAD DUP2 LT PUSH2 0xDC6 JUMPI INVALID JUMPDEST SWAP1 PUSH1 0x0 MSTORE PUSH1 0x20 PUSH1 0x0 KECCAK256 ADD PUSH1 0x0 SWAP1 SLOAD SWAP1 PUSH2 0x100 EXP SWAP1 DIV PUSH20 0xFFFFFFFFFFFFFFFFFFFFFFFFFFFFFFFFFFFFFFFF AND SWAP1 POP PUSH1 0x4 PUSH1 0x0 DUP10 DUP2 MSTORE PUSH1 0x20 ADD SWAP1 DUP2 MSTORE PUSH1 0x20 ADD PUSH1 0x0 KECCAK256 DUP5 DUP2 SLOAD DUP2 LT PUSH2 0xE11 JUMPI INVALID JUMPDEST SWAP1 PUSH1 0x0 MSTORE PUSH1 0x20 PUSH1 0x0 KECCAK256 ADD SLOAD PUSH1 0x2 PUSH1 0x0 DUP11 DUP2 MSTORE PUSH1 0x20 ADD SWAP1 DUP2 MSTORE PUSH1 0x20 ADD PUSH1 0x0 KECCAK256 PUSH1 0x6 ADD PUSH1 0x0 DUP4 PUSH20 0xFFFFFFFFFFFFFFFFFFFFFFFFFFFFFFFFFFFFFFFF AND PUSH20 0xFFFFFFFFFFFFFFFFFFFFFFFFFFFFFFFFFFFFFFFF AND DUP2 MSTORE PUSH1 0x20 ADD SWAP1 DUP2 MSTORE PUSH1 0x20 ADD PUSH1 0x0 KECCAK256 PUSH1 0x1 ADD SLOAD EQ ISZERO PUSH2 0x1126 JUMPI DUP3 PUSH1 0x2 PUSH1 0x0 DUP11 DUP2 MSTORE PUSH1 0x20 ADD SWAP1 DUP2 MSTORE PUSH1 0x20 ADD PUSH1 0x0 KECCAK256 PUSH1 0x6 ADD PUSH1 0x0 DUP4 PUSH20 0xFFFFFFFFFFFFFFFFFFFFFFFFFFFFFFFFFFFFFFFF AND PUSH20 0xFFFFFFFFFFFFFFFFFFFFFFFFFFFFFFFFFFFFFFFF AND DUP2 MSTORE PUSH1 0x20 ADD SWAP1 DUP2 MSTORE PUSH1 0x20 ADD PUSH1 0x0 KECCAK256 PUSH1 0x0 ADD SLOAD DUP2 PUSH2 0xED8 JUMPI INVALID JUMPDEST DIV PUSH1 0x2 PUSH1 0x0 DUP11 DUP2 MSTORE PUSH1 0x20 ADD SWAP1 DUP2 MSTORE PUSH1 0x20 ADD PUSH1 0x0 KECCAK256 PUSH1 0x6 ADD PUSH1 0x0 DUP4 PUSH20 0xFFFFFFFFFFFFFFFFFFFFFFFFFFFFFFFFFFFFFFFF AND PUSH20 0xFFFFFFFFFFFFFFFFFFFFFFFFFFFFFFFFFFFFFFFF AND DUP2 MSTORE PUSH1 0x20 ADD SWAP1 DUP2 MSTORE PUSH1 0x20 ADD PUSH1 0x0 KECCAK256 PUSH1 0x3 ADD DUP2 SWAP1 SSTORE POP DUP1 PUSH20 0xFFFFFFFFFFFFFFFFFFFFFFFFFFFFFFFFFFFFFFFF AND PUSH2 0x8FC PUSH2 0x2710 PUSH1 0x4 PUSH1 0x2 PUSH1 0x0 DUP14 DUP2 MSTORE PUSH1 0x20 ADD SWAP1 DUP2 MSTORE PUSH1 0x20 ADD PUSH1 0x0 KECCAK256 PUSH1 0x3 ADD SLOAD DUP2 PUSH2 0xF70 JUMPI INVALID JUMPDEST DIV PUSH1 0x2 PUSH1 0x0 DUP14 DUP2 MSTORE PUSH1 0x20 ADD SWAP1 DUP2 MSTORE PUSH1 0x20 ADD PUSH1 0x0 KECCAK256 PUSH1 0x3 ADD SLOAD SUB DUP7 PUSH2 0x2710 PUSH1 0x2 PUSH1 0x0 DUP16 DUP2 MSTORE PUSH1 0x20 ADD SWAP1 DUP2 MSTORE PUSH1 0x20 ADD PUSH1 0x0 KECCAK256 PUSH1 0x6 ADD PUSH1 0x0 DUP9 PUSH20 0xFFFFFFFFFFFFFFFFFFFFFFFFFFFFFFFFFFFFFFFF AND PUSH20 0xFFFFFFFFFFFFFFFFFFFFFFFFFFFFFFFFFFFFFFFF AND DUP2 MSTORE PUSH1 0x20 ADD SWAP1 DUP2 MSTORE PUSH1 0x20 ADD PUSH1 0x0 KECCAK256 PUSH1 0x0 ADD SLOAD MUL DUP2 PUSH2 0xFEC JUMPI INVALID JUMPDEST DIV MUL DUP2 PUSH2 0xFF5 JUMPI INVALID JUMPDEST DIV SWAP1 DUP2 ISZERO MUL SWAP1 PUSH1 0x40 MLOAD PUSH1 0x0 PUSH1 0x40 MLOAD DUP1 DUP4 SUB DUP2 DUP6 DUP9 DUP9 CALL SWAP4 POP POP POP POP ISZERO DUP1 ISZERO PUSH2 0x1021 JUMPI RETURNDATASIZE PUSH1 0x0 DUP1 RETURNDATACOPY RETURNDATASIZE PUSH1 0x0 REVERT JUMPDEST POP PUSH2 0x2710 PUSH1 0x4 PUSH1 0x2 PUSH1 0x0 DUP12 DUP2 MSTORE PUSH1 0x20 ADD SWAP1 DUP2 MSTORE PUSH1 0x20 ADD PUSH1 0x0 KECCAK256 PUSH1 0x3 ADD SLOAD DUP2 PUSH2 0x1045 JUMPI INVALID JUMPDEST DIV PUSH1 0x2 PUSH1 0x0 DUP12 DUP2 MSTORE PUSH1 0x20 ADD SWAP1 DUP2 MSTORE PUSH1 0x20 ADD PUSH1 0x0 KECCAK256 PUSH1 0x3 ADD SLOAD SUB DUP5 PUSH2 0x2710 PUSH1 0x2 PUSH1 0x0 DUP14 DUP2 MSTORE PUSH1 0x20 ADD SWAP1 DUP2 MSTORE PUSH1 0x20 ADD PUSH1 0x0 KECCAK256 PUSH1 0x6 ADD PUSH1 0x0 DUP7 PUSH20 0xFFFFFFFFFFFFFFFFFFFFFFFFFFFFFFFFFFFFFFFF AND PUSH20 0xFFFFFFFFFFFFFFFFFFFFFFFFFFFFFFFFFFFFFFFF AND DUP2 MSTORE PUSH1 0x20 ADD SWAP1 DUP2 MSTORE PUSH1 0x20 ADD PUSH1 0x0 KECCAK256 PUSH1 0x0 ADD SLOAD MUL DUP2 PUSH2 0x10C1 JUMPI INVALID JUMPDEST DIV MUL DUP2 PUSH2 0x10CA JUMPI INVALID JUMPDEST DIV PUSH1 0x2 PUSH1 0x0 DUP11 DUP2 MSTORE PUSH1 0x20 ADD SWAP1 DUP2 MSTORE PUSH1 0x20 ADD PUSH1 0x0 KECCAK256 PUSH1 0x6 ADD PUSH1 0x0 DUP4 PUSH20 0xFFFFFFFFFFFFFFFFFFFFFFFFFFFFFFFFFFFFFFFF AND PUSH20 0xFFFFFFFFFFFFFFFFFFFFFFFFFFFFFFFFFFFFFFFF AND DUP2 MSTORE PUSH1 0x20 ADD SWAP1 DUP2 MSTORE PUSH1 0x20 ADD PUSH1 0x0 KECCAK256 PUSH1 0x4 ADD DUP2 SWAP1 SSTORE POP JUMPDEST POP DUP1 DUP1 PUSH1 0x1 ADD SWAP2 POP POP PUSH2 0xD88 JUMP JUMPDEST POP CALLER PUSH20 0xFFFFFFFFFFFFFFFFFFFFFFFFFFFFFFFFFFFFFFFF AND PUSH2 0x8FC PUSH1 0x4 PUSH1 0x2 PUSH1 0x0 DUP11 DUP2 MSTORE PUSH1 0x20 ADD SWAP1 DUP2 MSTORE PUSH1 0x20 ADD PUSH1 0x0 KECCAK256 PUSH1 0x3 ADD SLOAD DUP2 PUSH2 0x116F JUMPI INVALID JUMPDEST DIV SWAP1 DUP2 ISZERO MUL SWAP1 PUSH1 0x40 MLOAD PUSH1 0x0 PUSH1 0x40 MLOAD DUP1 DUP4 SUB DUP2 DUP6 DUP9 DUP9 CALL SWAP4 POP POP POP POP ISZERO DUP1 ISZERO PUSH2 0x119B JUMPI RETURNDATASIZE PUSH1 0x0 DUP1 RETURNDATACOPY RETURNDATASIZE PUSH1 0x0 REVERT JUMPDEST POP PUSH2 0x11FF JUMP JUMPDEST CALLER PUSH20 0xFFFFFFFFFFFFFFFFFFFFFFFFFFFFFFFFFFFFFFFF AND PUSH2 0x8FC PUSH1 0x2 PUSH1 0x0 DUP10 DUP2 MSTORE PUSH1 0x20 ADD SWAP1 DUP2 MSTORE PUSH1 0x20 ADD PUSH1 0x0 KECCAK256 PUSH1 0x3 ADD SLOAD SWAP1 DUP2 ISZERO MUL SWAP1 PUSH1 0x40 MLOAD PUSH1 0x0 PUSH1 0x40 MLOAD DUP1 DUP4 SUB DUP2 DUP6 DUP9 DUP9 CALL SWAP4 POP POP POP POP ISZERO DUP1 ISZERO PUSH2 0x11FD JUMPI RETURNDATASIZE PUSH1 0x0 DUP1 RETURNDATACOPY RETURNDATASIZE PUSH1 0x0 REVERT JUMPDEST POP JUMPDEST PUSH1 0x2 DUP1 PUSH1 0x0 DUP9 DUP2 MSTORE PUSH1 0x20 ADD SWAP1 DUP2 MSTORE PUSH1 0x20 ADD PUSH1 0x0 KECCAK256 PUSH1 0x2 ADD PUSH1 0x0 PUSH2 0x100 EXP DUP2 SLOAD DUP2 PUSH1 0xFF MUL NOT AND SWAP1 DUP4 PUSH1 0x2 DUP2 GT ISZERO PUSH2 0x1231 JUMPI INVALID JUMPDEST MUL OR SWAP1 SSTORE POP PUSH32 0x1B6AE2478DF67879EAB65812CAC1A15B1D9C0B265C0ECCCC99F74D979D97344F PUSH1 0x2 PUSH1 0x0 DUP9 DUP2 MSTORE PUSH1 0x20 ADD SWAP1 DUP2 MSTORE PUSH1 0x20 ADD PUSH1 0x0 KECCAK256 PUSH1 0x0 ADD SLOAD PUSH1 0x2 PUSH1 0x0 DUP10 DUP2 MSTORE PUSH1 0x20 ADD SWAP1 DUP2 MSTORE PUSH1 0x20 ADD PUSH1 0x0 KECCAK256 PUSH1 0x1 ADD PUSH1 0x2 PUSH1 0x0 DUP11 DUP2 MSTORE PUSH1 0x20 ADD SWAP1 DUP2 MSTORE PUSH1 0x20 ADD PUSH1 0x0 KECCAK256 PUSH1 0x2 ADD PUSH1 0x0 SWAP1 SLOAD SWAP1 PUSH2 0x100 EXP SWAP1 DIV PUSH1 0xFF AND PUSH1 0x40 MLOAD DUP1 DUP5 DUP2 MSTORE PUSH1 0x20 ADD DUP1 PUSH1 0x20 ADD DUP4 PUSH1 0x2 DUP2 GT ISZERO PUSH2 0x12C2 JUMPI INVALID JUMPDEST PUSH1 0xFF AND DUP2 MSTORE PUSH1 0x20 ADD DUP3 DUP2 SUB DUP3 MSTORE DUP5 DUP2 DUP2 SLOAD PUSH1 0x1 DUP2 PUSH1 0x1 AND ISZERO PUSH2 0x100 MUL SUB AND PUSH1 0x2 SWAP1 DIV DUP2 MSTORE PUSH1 0x20 ADD SWAP2 POP DUP1 SLOAD PUSH1 0x1 DUP2 PUSH1 0x1 AND ISZERO PUSH2 0x100 MUL SUB AND PUSH1 0x2 SWAP1 DIV DUP1 ISZERO PUSH2 0x134B JUMPI DUP1 PUSH1 0x1F LT PUSH2 0x1320 JUMPI PUSH2 0x100 DUP1 DUP4 SLOAD DIV MUL DUP4 MSTORE SWAP2 PUSH1 0x20 ADD SWAP2 PUSH2 0x134B JUMP JUMPDEST DUP3 ADD SWAP2 SWAP1 PUSH1 0x0 MSTORE PUSH1 0x20 PUSH1 0x0 KECCAK256 SWAP1 JUMPDEST DUP2 SLOAD DUP2 MSTORE SWAP1 PUSH1 0x1 ADD SWAP1 PUSH1 0x20 ADD DUP1 DUP4 GT PUSH2 0x132E JUMPI DUP3 SWAP1 SUB PUSH1 0x1F AND DUP3 ADD SWAP2 JUMPDEST POP POP SWAP5 POP POP POP POP POP PUSH1 0x40 MLOAD DUP1 SWAP2 SUB SWAP1 LOG1 POP POP POP POP POP POP JUMP JUMPDEST PUSH1 0x60 DUP2 PUSH1 0x0 PUSH1 0x2 PUSH1 0x0 DUP4 DUP2 MSTORE PUSH1 0x20 ADD SWAP1 DUP2 MSTORE PUSH1 0x20 ADD PUSH1 0x0 KECCAK256 PUSH1 0x1 ADD DUP1 SLOAD PUSH1 0x1 DUP2 PUSH1 0x1 AND ISZERO PUSH2 0x100 MUL SUB AND PUSH1 0x2 SWAP1 DIV SWAP1 POP EQ ISZERO PUSH2 0x1407 JUMPI PUSH1 0x40 MLOAD PUSH32 0x8C379A000000000000000000000000000000000000000000000000000000000 DUP2 MSTORE PUSH1 0x4 ADD DUP1 DUP1 PUSH1 0x20 ADD DUP3 DUP2 SUB DUP3 MSTORE PUSH1 0x1E DUP2 MSTORE PUSH1 0x20 ADD DUP1 PUSH32 0x4C61206361727265726120696E67726573616461206E6F206578697374650000 DUP2 MSTORE POP PUSH1 0x20 ADD SWAP2 POP POP PUSH1 0x40 MLOAD DUP1 SWAP2 SUB SWAP1 REVERT JUMPDEST PUSH1 0x60 PUSH1 0x40 MLOAD DUP1 PUSH1 0x40 ADD PUSH1 0x40 MSTORE DUP1 PUSH1 0x18 DUP2 MSTORE PUSH1 0x20 ADD PUSH32 0x436162616C6C6F7320656E206C61206361727265726120230000000000000000 DUP2 MSTORE POP SWAP1 POP PUSH1 0x0 DUP1 SWAP1 POP DUP2 PUSH2 0x1450 DUP7 PUSH2 0x3C41 JUMP JUMPDEST PUSH1 0x40 MLOAD PUSH1 0x20 ADD DUP1 DUP4 DUP1 MLOAD SWAP1 PUSH1 0x20 ADD SWAP1 DUP1 DUP4 DUP4 JUMPDEST PUSH1 0x20 DUP4 LT PUSH2 0x1486 JUMPI DUP1 MLOAD DUP3 MSTORE PUSH1 0x20 DUP3 ADD SWAP2 POP PUSH1 0x20 DUP2 ADD SWAP1 POP PUSH1 0x20 DUP4 SUB SWAP3 POP PUSH2 0x1463 JUMP JUMPDEST PUSH1 0x1 DUP4 PUSH1 0x20 SUB PUSH2 0x100 EXP SUB DUP1 NOT DUP3 MLOAD AND DUP2 DUP5 MLOAD AND DUP1 DUP3 OR DUP6 MSTORE POP POP POP POP POP POP SWAP1 POP ADD DUP3 DUP1 MLOAD SWAP1 PUSH1 0x20 ADD SWAP1 DUP1 DUP4 DUP4 JUMPDEST PUSH1 0x20 DUP4 LT PUSH2 0x14D7 JUMPI DUP1 MLOAD DUP3 MSTORE PUSH1 0x20 DUP3 ADD SWAP2 POP PUSH1 0x20 DUP2 ADD SWAP1 POP PUSH1 0x20 DUP4 SUB SWAP3 POP PUSH2 0x14B4 JUMP JUMPDEST PUSH1 0x1 DUP4 PUSH1 0x20 SUB PUSH2 0x100 EXP SUB DUP1 NOT DUP3 MLOAD AND DUP2 DUP5 MLOAD AND DUP1 DUP3 OR DUP6 MSTORE POP POP POP POP POP POP SWAP1 POP ADD SWAP3 POP POP POP PUSH1 0x40 MLOAD PUSH1 0x20 DUP2 DUP4 SUB SUB DUP2 MSTORE SWAP1 PUSH1 0x40 MSTORE SWAP2 POP DUP2 PUSH1 0x40 MLOAD PUSH1 0x20 ADD DUP1 DUP3 DUP1 MLOAD SWAP1 PUSH1 0x20 ADD SWAP1 DUP1 DUP4 DUP4 JUMPDEST PUSH1 0x20 DUP4 LT PUSH2 0x1545 JUMPI DUP1 MLOAD DUP3 MSTORE PUSH1 0x20 DUP3 ADD SWAP2 POP PUSH1 0x20 DUP2 ADD SWAP1 POP PUSH1 0x20 DUP4 SUB SWAP3 POP PUSH2 0x1522 JUMP JUMPDEST PUSH1 0x1 DUP4 PUSH1 0x20 SUB PUSH2 0x100 EXP SUB DUP1 NOT DUP3 MLOAD AND DUP2 DUP5 MLOAD AND DUP1 DUP3 OR DUP6 MSTORE POP POP POP POP POP POP SWAP1 POP ADD DUP1 PUSH32 0x3A20000000000000000000000000000000000000000000000000000000000000 DUP2 MSTORE POP PUSH1 0x2 ADD SWAP2 POP POP PUSH1 0x40 MLOAD PUSH1 0x20 DUP2 DUP4 SUB SUB DUP2 MSTORE SWAP1 PUSH1 0x40 MSTORE SWAP2 POP PUSH1 0x0 DUP1 SWAP1 POP JUMPDEST PUSH1 0x4 PUSH1 0x0 DUP8 DUP2 MSTORE PUSH1 0x20 ADD SWAP1 DUP2 MSTORE PUSH1 0x20 ADD PUSH1 0x0 KECCAK256 DUP1 SLOAD SWAP1 POP DUP2 LT ISZERO PUSH2 0x1787 JUMPI PUSH1 0x1 SWAP2 POP DUP3 PUSH2 0x15FD PUSH1 0x4 PUSH1 0x0 DUP10 DUP2 MSTORE PUSH1 0x20 ADD SWAP1 DUP2 MSTORE PUSH1 0x20 ADD PUSH1 0x0 KECCAK256 DUP4 DUP2 SLOAD DUP2 LT PUSH2 0x15ED JUMPI INVALID JUMPDEST SWAP1 PUSH1 0x0 MSTORE PUSH1 0x20 PUSH1 0x0 KECCAK256 ADD SLOAD PUSH2 0x3C41 JUMP JUMPDEST PUSH1 0x40 MLOAD PUSH1 0x20 ADD DUP1 DUP4 DUP1 MLOAD SWAP1 PUSH1 0x20 ADD SWAP1 DUP1 DUP4 DUP4 JUMPDEST PUSH1 0x20 DUP4 LT PUSH2 0x1633 JUMPI DUP1 MLOAD DUP3 MSTORE PUSH1 0x20 DUP3 ADD SWAP2 POP PUSH1 0x20 DUP2 ADD SWAP1 POP PUSH1 0x20 DUP4 SUB SWAP3 POP PUSH2 0x1610 JUMP JUMPDEST PUSH1 0x1 DUP4 PUSH1 0x20 SUB PUSH2 0x100 EXP SUB DUP1 NOT DUP3 MLOAD AND DUP2 DUP5 MLOAD AND DUP1 DUP3 OR DUP6 MSTORE POP POP POP POP POP POP SWAP1 POP ADD DUP3 DUP1 MLOAD SWAP1 PUSH1 0x20 ADD SWAP1 DUP1 DUP4 DUP4 JUMPDEST PUSH1 0x20 DUP4 LT PUSH2 0x1684 JUMPI DUP1 MLOAD DUP3 MSTORE PUSH1 0x20 DUP3 ADD SWAP2 POP PUSH1 0x20 DUP2 ADD SWAP1 POP PUSH1 0x20 DUP4 SUB SWAP3 POP PUSH2 0x1661 JUMP JUMPDEST PUSH1 0x1 DUP4 PUSH1 0x20 SUB PUSH2 0x100 EXP SUB DUP1 NOT DUP3 MLOAD AND DUP2 DUP5 MLOAD AND DUP1 DUP3 OR DUP6 MSTORE POP POP POP POP POP POP SWAP1 POP ADD SWAP3 POP POP POP PUSH1 0x40 MLOAD PUSH1 0x20 DUP2 DUP4 SUB SUB DUP2 MSTORE SWAP1 PUSH1 0x40 MSTORE SWAP3 POP PUSH1 0x1 PUSH1 0x4 PUSH1 0x0 DUP9 DUP2 MSTORE PUSH1 0x20 ADD SWAP1 DUP2 MSTORE PUSH1 0x20 ADD PUSH1 0x0 KECCAK256 DUP1 SLOAD SWAP1 POP SUB DUP2 EQ PUSH2 0x1775 JUMPI DUP3 PUSH1 0x40 MLOAD PUSH1 0x20 ADD DUP1 DUP3 DUP1 MLOAD SWAP1 PUSH1 0x20 ADD SWAP1 DUP1 DUP4 DUP4 JUMPDEST PUSH1 0x20 DUP4 LT PUSH2 0x1712 JUMPI DUP1 MLOAD DUP3 MSTORE PUSH1 0x20 DUP3 ADD SWAP2 POP PUSH1 0x20 DUP2 ADD SWAP1 POP PUSH1 0x20 DUP4 SUB SWAP3 POP PUSH2 0x16EF JUMP JUMPDEST PUSH1 0x1 DUP4 PUSH1 0x20 SUB PUSH2 0x100 EXP SUB DUP1 NOT DUP3 MLOAD AND DUP2 DUP5 MLOAD AND DUP1 DUP3 OR DUP6 MSTORE POP POP POP POP POP POP SWAP1 POP ADD DUP1 PUSH32 0x202D200000000000000000000000000000000000000000000000000000000000 DUP2 MSTORE POP PUSH1 0x3 ADD SWAP2 POP POP PUSH1 0x40 MLOAD PUSH1 0x20 DUP2 DUP4 SUB SUB DUP2 MSTORE SWAP1 PUSH1 0x40 MSTORE SWAP3 POP PUSH2 0x177A JUMP JUMPDEST PUSH2 0x1787 JUMP JUMPDEST DUP1 DUP1 PUSH1 0x1 ADD SWAP2 POP POP PUSH2 0x15A9 JUMP JUMPDEST POP DUP1 PUSH2 0x1806 JUMPI DUP2 PUSH1 0x40 MLOAD PUSH1 0x20 ADD DUP1 DUP3 DUP1 MLOAD SWAP1 PUSH1 0x20 ADD SWAP1 DUP1 DUP4 DUP4 JUMPDEST PUSH1 0x20 DUP4 LT PUSH2 0x17C4 JUMPI DUP1 MLOAD DUP3 MSTORE PUSH1 0x20 DUP3 ADD SWAP2 POP PUSH1 0x20 DUP2 ADD SWAP1 POP PUSH1 0x20 DUP4 SUB SWAP3 POP PUSH2 0x17A1 JUMP JUMPDEST PUSH1 0x1 DUP4 PUSH1 0x20 SUB PUSH2 0x100 EXP SUB DUP1 NOT DUP3 MLOAD AND DUP2 DUP5 MLOAD AND DUP1 DUP3 OR DUP6 MSTORE POP POP POP POP POP POP SWAP1 POP ADD DUP1 PUSH2 0x3EE8 PUSH1 0x26 SWAP2 CODECOPY PUSH1 0x26 ADD SWAP2 POP POP PUSH1 0x40 MLOAD PUSH1 0x20 DUP2 DUP4 SUB SUB DUP2 MSTORE SWAP1 PUSH1 0x40 MSTORE SWAP2 POP JUMPDEST DUP2 SWAP4 POP POP POP POP SWAP2 SWAP1 POP JUMP JUMPDEST PUSH1 0x0 DUP1 SWAP1 SLOAD SWAP1 PUSH2 0x100 EXP SWAP1 DIV PUSH20 0xFFFFFFFFFFFFFFFFFFFFFFFFFFFFFFFFFFFFFFFF AND PUSH20 0xFFFFFFFFFFFFFFFFFFFFFFFFFFFFFFFFFFFFFFFF AND CALLER PUSH20 0xFFFFFFFFFFFFFFFFFFFFFFFFFFFFFFFFFFFFFFFF AND EQ PUSH2 0x18B6 JUMPI PUSH1 0x40 MLOAD PUSH32 0x8C379A000000000000000000000000000000000000000000000000000000000 DUP2 MSTORE PUSH1 0x4 ADD DUP1 DUP1 PUSH1 0x20 ADD DUP3 DUP2 SUB DUP3 MSTORE PUSH1 0x22 DUP2 MSTORE PUSH1 0x20 ADD DUP1 PUSH2 0x3EA3 PUSH1 0x22 SWAP2 CODECOPY PUSH1 0x40 ADD SWAP2 POP POP PUSH1 0x40 MLOAD DUP1 SWAP2 SUB SWAP1 REVERT JUMPDEST DUP1 PUSH1 0x0 DUP1 PUSH1 0x2 DUP2 GT ISZERO PUSH2 0x18C5 JUMPI INVALID JUMPDEST PUSH1 0x2 PUSH1 0x0 DUP5 DUP2 MSTORE PUSH1 0x20 ADD SWAP1 DUP2 MSTORE PUSH1 0x20 ADD PUSH1 0x0 KECCAK256 PUSH1 0x2 ADD PUSH1 0x0 SWAP1 SLOAD SWAP1 PUSH2 0x100 EXP SWAP1 DIV PUSH1 0xFF AND PUSH1 0x2 DUP2 GT ISZERO PUSH2 0x18F4 JUMPI INVALID JUMPDEST EQ PUSH2 0x194A JUMPI PUSH1 0x40 MLOAD PUSH32 0x8C379A000000000000000000000000000000000000000000000000000000000 DUP2 MSTORE PUSH1 0x4 ADD DUP1 DUP1 PUSH1 0x20 ADD DUP3 DUP2 SUB DUP3 MSTORE PUSH1 0x2C DUP2 MSTORE PUSH1 0x20 ADD DUP1 PUSH2 0x402A PUSH1 0x2C SWAP2 CODECOPY PUSH1 0x40 ADD SWAP2 POP POP PUSH1 0x40 MLOAD DUP1 SWAP2 SUB SWAP1 REVERT JUMPDEST DUP3 PUSH1 0x5 PUSH1 0x4 PUSH1 0x0 DUP4 DUP2 MSTORE PUSH1 0x20 ADD SWAP1 DUP2 MSTORE PUSH1 0x20 ADD PUSH1 0x0 KECCAK256 DUP1 SLOAD SWAP1 POP LT PUSH2 0x19BA JUMPI PUSH1 0x40 MLOAD PUSH32 0x8C379A000000000000000000000000000000000000000000000000000000000 DUP2 MSTORE PUSH1 0x4 ADD DUP1 DUP1 PUSH1 0x20 ADD DUP3 DUP2 SUB DUP3 MSTORE PUSH1 0x23 DUP2 MSTORE PUSH1 0x20 ADD DUP1 PUSH2 0x3EC5 PUSH1 0x23 SWAP2 CODECOPY PUSH1 0x40 ADD SWAP2 POP POP PUSH1 0x40 MLOAD DUP1 SWAP2 SUB SWAP1 REVERT JUMPDEST DUP5 PUSH1 0x0 PUSH1 0x3 PUSH1 0x0 DUP4 DUP2 MSTORE PUSH1 0x20 ADD SWAP1 DUP2 MSTORE PUSH1 0x20 ADD PUSH1 0x0 KECCAK256 PUSH1 0x1 ADD DUP1 SLOAD PUSH1 0x1 DUP2 PUSH1 0x1 AND ISZERO PUSH2 0x100 MUL SUB AND PUSH1 0x2 SWAP1 DIV SWAP1 POP EQ ISZERO PUSH2 0x1A5C JUMPI PUSH1 0x40 MLOAD PUSH32 0x8C379A000000000000000000000000000000000000000000000000000000000 DUP2 MSTORE PUSH1 0x4 ADD DUP1 DUP1 PUSH1 0x20 ADD DUP3 DUP2 SUB DUP3 MSTORE PUSH1 0x1E DUP2 MSTORE PUSH1 0x20 ADD DUP1 PUSH32 0x456C20636162616C6C6F20696E6772657361646F206E6F206578697374650000 DUP2 MSTORE POP PUSH1 0x20 ADD SWAP2 POP POP PUSH1 0x40 MLOAD DUP1 SWAP2 SUB SWAP1 REVERT JUMPDEST DUP5 PUSH1 0x0 PUSH1 0x2 PUSH1 0x0 DUP4 DUP2 MSTORE PUSH1 0x20 ADD SWAP1 DUP2 MSTORE PUSH1 0x20 ADD PUSH1 0x0 KECCAK256 PUSH1 0x1 ADD DUP1 SLOAD PUSH1 0x1 DUP2 PUSH1 0x1 AND ISZERO PUSH2 0x100 MUL SUB AND PUSH1 0x2 SWAP1 DIV SWAP1 POP EQ ISZERO PUSH2 0x1AFE JUMPI PUSH1 0x40 MLOAD PUSH32 0x8C379A000000000000000000000000000000000000000000000000000000000 DUP2 MSTORE PUSH1 0x4 ADD DUP1 DUP1 PUSH1 0x20 ADD DUP3 DUP2 SUB DUP3 MSTORE PUSH1 0x1E DUP2 MSTORE PUSH1 0x20 ADD DUP1 PUSH32 0x4C61206361727265726120696E67726573616461206E6F206578697374650000 DUP2 MSTORE POP PUSH1 0x20 ADD SWAP2 POP POP PUSH1 0x40 MLOAD DUP1 SWAP2 SUB SWAP1 REVERT JUMPDEST DUP6 DUP8 PUSH1 0x0 PUSH1 0x4 PUSH1 0x0 DUP5 DUP2 MSTORE PUSH1 0x20 ADD SWAP1 DUP2 MSTORE PUSH1 0x20 ADD PUSH1 0x0 KECCAK256 DUP1 SLOAD SWAP1 POP SWAP1 POP PUSH1 0x0 DUP1 SWAP1 POP PUSH1 0x0 DUP1 SWAP1 POP JUMPDEST DUP3 DUP2 LT ISZERO PUSH2 0x1B74 JUMPI DUP4 PUSH1 0x4 PUSH1 0x0 DUP8 DUP2 MSTORE PUSH1 0x20 ADD SWAP1 DUP2 MSTORE PUSH1 0x20 ADD PUSH1 0x0 KECCAK256 DUP3 DUP2 SLOAD DUP2 LT PUSH2 0x1B4D JUMPI INVALID JUMPDEST SWAP1 PUSH1 0x0 MSTORE PUSH1 0x20 PUSH1 0x0 KECCAK256 ADD SLOAD EQ ISZERO PUSH2 0x1B67 JUMPI PUSH1 0x1 SWAP2 POP PUSH2 0x1B74 JUMP JUMPDEST DUP1 DUP1 PUSH1 0x1 ADD SWAP2 POP POP PUSH2 0x1B26 JUMP JUMPDEST POP DUP1 ISZERO PUSH2 0x1BCC JUMPI PUSH1 0x40 MLOAD PUSH32 0x8C379A000000000000000000000000000000000000000000000000000000000 DUP2 MSTORE PUSH1 0x4 ADD DUP1 DUP1 PUSH1 0x20 ADD DUP3 DUP2 SUB DUP3 MSTORE PUSH1 0x37 DUP2 MSTORE PUSH1 0x20 ADD DUP1 PUSH2 0x3FF3 PUSH1 0x37 SWAP2 CODECOPY PUSH1 0x40 ADD SWAP2 POP POP PUSH1 0x40 MLOAD DUP1 SWAP2 SUB SWAP1 REVERT JUMPDEST PUSH1 0x4 PUSH1 0x0 DUP12 DUP2 MSTORE PUSH1 0x20 ADD SWAP1 DUP2 MSTORE PUSH1 0x20 ADD PUSH1 0x0 KECCAK256 DUP12 SWAP1 DUP1 PUSH1 0x1 DUP2 SLOAD ADD DUP1 DUP3 SSTORE DUP1 SWAP2 POP POP PUSH1 0x1 SWAP1 SUB SWAP1 PUSH1 0x0 MSTORE PUSH1 0x20 PUSH1 0x0 KECCAK256 ADD PUSH1 0x0 SWAP1 SWAP2 SWAP1 SWAP2 SWAP1 SWAP2 POP SSTORE PUSH1 0x1 PUSH1 0x2 PUSH1 0x0 DUP13 DUP2 MSTORE PUSH1 0x20 ADD SWAP1 DUP2 MSTORE PUSH1 0x20 ADD PUSH1 0x0 KECCAK256 PUSH1 0x4 ADD PUSH1 0x0 DUP3 DUP3 SLOAD ADD SWAP3 POP POP DUP2 SWAP1 SSTORE POP POP POP POP POP POP POP POP POP POP POP POP JUMP JUMPDEST PUSH1 0x60 DUP2 PUSH1 0x0 PUSH1 0x2 PUSH1 0x0 DUP4 DUP2 MSTORE PUSH1 0x20 ADD SWAP1 DUP2 MSTORE PUSH1 0x20 ADD PUSH1 0x0 KECCAK256 PUSH1 0x1 ADD DUP1 SLOAD PUSH1 0x1 DUP2 PUSH1 0x1 AND ISZERO PUSH2 0x100 MUL SUB AND PUSH1 0x2 SWAP1 DIV SWAP1 POP EQ ISZERO PUSH2 0x1CDC JUMPI PUSH1 0x40 MLOAD PUSH32 0x8C379A000000000000000000000000000000000000000000000000000000000 DUP2 MSTORE PUSH1 0x4 ADD DUP1 DUP1 PUSH1 0x20 ADD DUP3 DUP2 SUB DUP3 MSTORE PUSH1 0x1E DUP2 MSTORE PUSH1 0x20 ADD DUP1 PUSH32 0x4C61206361727265726120696E67726573616461206E6F206578697374650000 DUP2 MSTORE POP PUSH1 0x20 ADD SWAP2 POP POP PUSH1 0x40 MLOAD DUP1 SWAP2 SUB SWAP1 REVERT JUMPDEST DUP3 PUSH1 0x2 DUP1 PUSH1 0x2 DUP2 GT ISZERO PUSH2 0x1CEB JUMPI INVALID JUMPDEST PUSH1 0x2 PUSH1 0x0 DUP5 DUP2 MSTORE PUSH1 0x20 ADD SWAP1 DUP2 MSTORE PUSH1 0x20 ADD PUSH1 0x0 KECCAK256 PUSH1 0x2 ADD PUSH1 0x0 SWAP1 SLOAD SWAP1 PUSH2 0x100 EXP SWAP1 DIV PUSH1 0xFF AND PUSH1 0x2 DUP2 GT ISZERO PUSH2 0x1D1A JUMPI INVALID JUMPDEST EQ PUSH2 0x1D70 JUMPI PUSH1 0x40 MLOAD PUSH32 0x8C379A000000000000000000000000000000000000000000000000000000000 DUP2 MSTORE PUSH1 0x4 ADD DUP1 DUP1 PUSH1 0x20 ADD DUP3 DUP2 SUB DUP3 MSTORE PUSH1 0x2C DUP2 MSTORE PUSH1 0x20 ADD DUP1 PUSH2 0x402A PUSH1 0x2C SWAP2 CODECOPY PUSH1 0x40 ADD SWAP2 POP POP PUSH1 0x40 MLOAD DUP1 SWAP2 SUB SWAP1 REVERT JUMPDEST DUP5 PUSH1 0x0 PUSH1 0x5 PUSH1 0x0 DUP4 DUP2 MSTORE PUSH1 0x20 ADD SWAP1 DUP2 MSTORE PUSH1 0x20 ADD PUSH1 0x0 KECCAK256 DUP1 SLOAD SWAP1 POP GT PUSH2 0x1DE0 JUMPI PUSH1 0x40 MLOAD PUSH32 0x8C379A000000000000000000000000000000000000000000000000000000000 DUP2 MSTORE PUSH1 0x4 ADD DUP1 DUP1 PUSH1 0x20 ADD DUP3 DUP2 SUB DUP3 MSTORE PUSH1 0x29 DUP2 MSTORE PUSH1 0x20 ADD DUP1 PUSH2 0x3F37 PUSH1 0x29 SWAP2 CODECOPY PUSH1 0x40 ADD SWAP2 POP POP PUSH1 0x40 MLOAD DUP1 SWAP2 SUB SWAP1 REVERT JUMPDEST PUSH1 0x60 PUSH1 0x40 MLOAD DUP1 PUSH1 0x40 ADD PUSH1 0x40 MSTORE DUP1 PUSH1 0x19 DUP2 MSTORE PUSH1 0x20 ADD PUSH32 0x47616E61646F72657320656E206C612063617272657261202300000000000000 DUP2 MSTORE POP SWAP1 POP PUSH1 0x0 DUP1 SWAP1 POP DUP2 PUSH2 0x1E29 DUP10 PUSH2 0x3C41 JUMP JUMPDEST PUSH1 0x40 MLOAD PUSH1 0x20 ADD DUP1 DUP4 DUP1 MLOAD SWAP1 PUSH1 0x20 ADD SWAP1 DUP1 DUP4 DUP4 JUMPDEST PUSH1 0x20 DUP4 LT PUSH2 0x1E5F JUMPI DUP1 MLOAD DUP3 MSTORE PUSH1 0x20 DUP3 ADD SWAP2 POP PUSH1 0x20 DUP2 ADD SWAP1 POP PUSH1 0x20 DUP4 SUB SWAP3 POP PUSH2 0x1E3C JUMP JUMPDEST PUSH1 0x1 DUP4 PUSH1 0x20 SUB PUSH2 0x100 EXP SUB DUP1 NOT DUP3 MLOAD AND DUP2 DUP5 MLOAD AND DUP1 DUP3 OR DUP6 MSTORE POP POP POP POP POP POP SWAP1 POP ADD DUP3 DUP1 MLOAD SWAP1 PUSH1 0x20 ADD SWAP1 DUP1 DUP4 DUP4 JUMPDEST PUSH1 0x20 DUP4 LT PUSH2 0x1EB0 JUMPI DUP1 MLOAD DUP3 MSTORE PUSH1 0x20 DUP3 ADD SWAP2 POP PUSH1 0x20 DUP2 ADD SWAP1 POP PUSH1 0x20 DUP4 SUB SWAP3 POP PUSH2 0x1E8D JUMP JUMPDEST PUSH1 0x1 DUP4 PUSH1 0x20 SUB PUSH2 0x100 EXP SUB DUP1 NOT DUP3 MLOAD AND DUP2 DUP5 MLOAD AND DUP1 DUP3 OR DUP6 MSTORE POP POP POP POP POP POP SWAP1 POP ADD SWAP3 POP POP POP PUSH1 0x40 MLOAD PUSH1 0x20 DUP2 DUP4 SUB SUB DUP2 MSTORE SWAP1 PUSH1 0x40 MSTORE SWAP2 POP DUP2 PUSH1 0x40 MLOAD PUSH1 0x20 ADD DUP1 DUP3 DUP1 MLOAD SWAP1 PUSH1 0x20 ADD SWAP1 DUP1 DUP4 DUP4 JUMPDEST PUSH1 0x20 DUP4 LT PUSH2 0x1F1E JUMPI DUP1 MLOAD DUP3 MSTORE PUSH1 0x20 DUP3 ADD SWAP2 POP PUSH1 0x20 DUP2 ADD SWAP1 POP PUSH1 0x20 DUP4 SUB SWAP3 POP PUSH2 0x1EFB JUMP JUMPDEST PUSH1 0x1 DUP4 PUSH1 0x20 SUB PUSH2 0x100 EXP SUB DUP1 NOT DUP3 MLOAD AND DUP2 DUP5 MLOAD AND DUP1 DUP3 OR DUP6 MSTORE POP POP POP POP POP POP SWAP1 POP ADD DUP1 PUSH32 0x3A20000000000000000000000000000000000000000000000000000000000000 DUP2 MSTORE POP PUSH1 0x2 ADD SWAP2 POP POP PUSH1 0x40 MLOAD PUSH1 0x20 DUP2 DUP4 SUB SUB DUP2 MSTORE SWAP1 PUSH1 0x40 MSTORE SWAP2 POP PUSH1 0x0 DUP1 SWAP1 POP JUMPDEST PUSH1 0x5 PUSH1 0x0 DUP11 DUP2 MSTORE PUSH1 0x20 ADD SWAP1 DUP2 MSTORE PUSH1 0x20 ADD PUSH1 0x0 KECCAK256 DUP1 SLOAD SWAP1 POP DUP2 LT ISZERO PUSH2 0x2442 JUMPI PUSH1 0x0 PUSH1 0x2 PUSH1 0x0 DUP12 DUP2 MSTORE PUSH1 0x20 ADD SWAP1 DUP2 MSTORE PUSH1 0x20 ADD PUSH1 0x0 KECCAK256 PUSH1 0x6 ADD PUSH1 0x0 PUSH1 0x5 PUSH1 0x0 DUP14 DUP2 MSTORE PUSH1 0x20 ADD SWAP1 DUP2 MSTORE PUSH1 0x20 ADD PUSH1 0x0 KECCAK256 DUP5 DUP2 SLOAD DUP2 LT PUSH2 0x1FD8 JUMPI INVALID JUMPDEST SWAP1 PUSH1 0x0 MSTORE PUSH1 0x20 PUSH1 0x0 KECCAK256 ADD PUSH1 0x0 SWAP1 SLOAD SWAP1 PUSH2 0x100 EXP SWAP1 DIV PUSH20 0xFFFFFFFFFFFFFFFFFFFFFFFFFFFFFFFFFFFFFFFF AND PUSH20 0xFFFFFFFFFFFFFFFFFFFFFFFFFFFFFFFFFFFFFFFF AND PUSH20 0xFFFFFFFFFFFFFFFFFFFFFFFFFFFFFFFFFFFFFFFF AND DUP2 MSTORE PUSH1 0x20 ADD SWAP1 DUP2 MSTORE PUSH1 0x20 ADD PUSH1 0x0 KECCAK256 PUSH1 0x4 ADD SLOAD SWAP1 POP PUSH1 0x0 DUP2 EQ PUSH2 0x2434 JUMPI PUSH1 0x1 SWAP3 POP DUP4 PUSH1 0x40 MLOAD PUSH1 0x20 ADD DUP1 DUP3 DUP1 MLOAD SWAP1 PUSH1 0x20 ADD SWAP1 DUP1 DUP4 DUP4 JUMPDEST PUSH1 0x20 DUP4 LT PUSH2 0x2086 JUMPI DUP1 MLOAD DUP3 MSTORE PUSH1 0x20 DUP3 ADD SWAP2 POP PUSH1 0x20 DUP2 ADD SWAP1 POP PUSH1 0x20 DUP4 SUB SWAP3 POP PUSH2 0x2063 JUMP JUMPDEST PUSH1 0x1 DUP4 PUSH1 0x20 SUB PUSH2 0x100 EXP SUB DUP1 NOT DUP3 MLOAD AND DUP2 DUP5 MLOAD AND DUP1 DUP3 OR DUP6 MSTORE POP POP POP POP POP POP SWAP1 POP ADD DUP1 PUSH32 0x41706F737461646F722023000000000000000000000000000000000000000000 DUP2 MSTORE POP PUSH1 0xB ADD SWAP2 POP POP PUSH1 0x40 MLOAD PUSH1 0x20 DUP2 DUP4 SUB SUB DUP2 MSTORE SWAP1 PUSH1 0x40 MSTORE SWAP4 POP DUP4 PUSH2 0x20EE DUP4 PUSH2 0x3C41 JUMP JUMPDEST PUSH1 0x40 MLOAD PUSH1 0x20 ADD DUP1 DUP4 DUP1 MLOAD SWAP1 PUSH1 0x20 ADD SWAP1 DUP1 DUP4 DUP4 JUMPDEST PUSH1 0x20 DUP4 LT PUSH2 0x2124 JUMPI DUP1 MLOAD DUP3 MSTORE PUSH1 0x20 DUP3 ADD SWAP2 POP PUSH1 0x20 DUP2 ADD SWAP1 POP PUSH1 0x20 DUP4 SUB SWAP3 POP PUSH2 0x2101 JUMP JUMPDEST PUSH1 0x1 DUP4 PUSH1 0x20 SUB PUSH2 0x100 EXP SUB DUP1 NOT DUP3 MLOAD AND DUP2 DUP5 MLOAD AND DUP1 DUP3 OR DUP6 MSTORE POP POP POP POP POP POP SWAP1 POP ADD DUP3 DUP1 MLOAD SWAP1 PUSH1 0x20 ADD SWAP1 DUP1 DUP4 DUP4 JUMPDEST PUSH1 0x20 DUP4 LT PUSH2 0x2175 JUMPI DUP1 MLOAD DUP3 MSTORE PUSH1 0x20 DUP3 ADD SWAP2 POP PUSH1 0x20 DUP2 ADD SWAP1 POP PUSH1 0x20 DUP4 SUB SWAP3 POP PUSH2 0x2152 JUMP JUMPDEST PUSH1 0x1 DUP4 PUSH1 0x20 SUB PUSH2 0x100 EXP SUB DUP1 NOT DUP3 MLOAD AND DUP2 DUP5 MLOAD AND DUP1 DUP3 OR DUP6 MSTORE POP POP POP POP POP POP SWAP1 POP ADD SWAP3 POP POP POP PUSH1 0x40 MLOAD PUSH1 0x20 DUP2 DUP4 SUB SUB DUP2 MSTORE SWAP1 PUSH1 0x40 MSTORE SWAP4 POP DUP4 PUSH1 0x40 MLOAD PUSH1 0x20 ADD DUP1 DUP3 DUP1 MLOAD SWAP1 PUSH1 0x20 ADD SWAP1 DUP1 DUP4 DUP4 JUMPDEST PUSH1 0x20 DUP4 LT PUSH2 0x21E3 JUMPI DUP1 MLOAD DUP3 MSTORE PUSH1 0x20 DUP3 ADD SWAP2 POP PUSH1 0x20 DUP2 ADD SWAP1 POP PUSH1 0x20 DUP4 SUB SWAP3 POP PUSH2 0x21C0 JUMP JUMPDEST PUSH1 0x1 DUP4 PUSH1 0x20 SUB PUSH2 0x100 EXP SUB DUP1 NOT DUP3 MLOAD AND DUP2 DUP5 MLOAD AND DUP1 DUP3 OR DUP6 MSTORE POP POP POP POP POP POP SWAP1 POP ADD DUP1 PUSH32 0x2D00000000000000000000000000000000000000000000000000000000000000 DUP2 MSTORE POP PUSH1 0x1 ADD SWAP2 POP POP PUSH1 0x40 MLOAD PUSH1 0x20 DUP2 DUP4 SUB SUB DUP2 MSTORE SWAP1 PUSH1 0x40 MSTORE SWAP4 POP DUP4 PUSH1 0x40 MLOAD PUSH1 0x20 ADD DUP1 DUP3 DUP1 MLOAD SWAP1 PUSH1 0x20 ADD SWAP1 DUP1 DUP4 DUP4 JUMPDEST PUSH1 0x20 DUP4 LT PUSH2 0x2278 JUMPI DUP1 MLOAD DUP3 MSTORE PUSH1 0x20 DUP3 ADD SWAP2 POP PUSH1 0x20 DUP2 ADD SWAP1 POP PUSH1 0x20 DUP4 SUB SWAP3 POP PUSH2 0x2255 JUMP JUMPDEST PUSH1 0x1 DUP4 PUSH1 0x20 SUB PUSH2 0x100 EXP SUB DUP1 NOT DUP3 MLOAD AND DUP2 DUP5 MLOAD AND DUP1 DUP3 OR DUP6 MSTORE POP POP POP POP POP POP SWAP1 POP ADD DUP1 PUSH32 0x47616E6F3A200000000000000000000000000000000000000000000000000000 DUP2 MSTORE POP PUSH1 0x6 ADD SWAP2 POP POP PUSH1 0x40 MLOAD PUSH1 0x20 DUP2 DUP4 SUB SUB DUP2 MSTORE SWAP1 PUSH1 0x40 MSTORE SWAP4 POP DUP4 PUSH2 0x22E0 DUP3 PUSH2 0x3C41 JUMP JUMPDEST PUSH1 0x40 MLOAD PUSH1 0x20 ADD DUP1 DUP4 DUP1 MLOAD SWAP1 PUSH1 0x20 ADD SWAP1 DUP1 DUP4 DUP4 JUMPDEST PUSH1 0x20 DUP4 LT PUSH2 0x2316 JUMPI DUP1 MLOAD DUP3 MSTORE PUSH1 0x20 DUP3 ADD SWAP2 POP PUSH1 0x20 DUP2 ADD SWAP1 POP PUSH1 0x20 DUP4 SUB SWAP3 POP PUSH2 0x22F3 JUMP JUMPDEST PUSH1 0x1 DUP4 PUSH1 0x20 SUB PUSH2 0x100 EXP SUB DUP1 NOT DUP3 MLOAD AND DUP2 DUP5 MLOAD AND DUP1 DUP3 OR DUP6 MSTORE POP POP POP POP POP POP SWAP1 POP ADD DUP3 DUP1 MLOAD SWAP1 PUSH1 0x20 ADD SWAP1 DUP1 DUP4 DUP4 JUMPDEST PUSH1 0x20 DUP4 LT PUSH2 0x2367 JUMPI DUP1 MLOAD DUP3 MSTORE PUSH1 0x20 DUP3 ADD SWAP2 POP PUSH1 0x20 DUP2 ADD SWAP1 POP PUSH1 0x20 DUP4 SUB SWAP3 POP PUSH2 0x2344 JUMP JUMPDEST PUSH1 0x1 DUP4 PUSH1 0x20 SUB PUSH2 0x100 EXP SUB DUP1 NOT DUP3 MLOAD AND DUP2 DUP5 MLOAD AND DUP1 DUP3 OR DUP6 MSTORE POP POP POP POP POP POP SWAP1 POP ADD SWAP3 POP POP POP PUSH1 0x40 MLOAD PUSH1 0x20 DUP2 DUP4 SUB SUB DUP2 MSTORE SWAP1 PUSH1 0x40 MSTORE SWAP4 POP DUP4 PUSH1 0x40 MLOAD PUSH1 0x20 ADD DUP1 DUP3 DUP1 MLOAD SWAP1 PUSH1 0x20 ADD SWAP1 DUP1 DUP4 DUP4 JUMPDEST PUSH1 0x20 DUP4 LT PUSH2 0x23D5 JUMPI DUP1 MLOAD DUP3 MSTORE PUSH1 0x20 DUP3 ADD SWAP2 POP PUSH1 0x20 DUP2 ADD SWAP1 POP PUSH1 0x20 DUP4 SUB SWAP3 POP PUSH2 0x23B2 JUMP JUMPDEST PUSH1 0x1 DUP4 PUSH1 0x20 SUB PUSH2 0x100 EXP SUB DUP1 NOT DUP3 MLOAD AND DUP2 DUP5 MLOAD AND DUP1 DUP3 OR DUP6 MSTORE POP POP POP POP POP POP SWAP1 POP ADD DUP1 PUSH32 0x2020000000000000000000000000000000000000000000000000000000000000 DUP2 MSTORE POP PUSH1 0x2 ADD SWAP2 POP POP PUSH1 0x40 MLOAD PUSH1 0x20 DUP2 DUP4 SUB SUB DUP2 MSTORE SWAP1 PUSH1 0x40 MSTORE SWAP4 POP JUMPDEST POP DUP1 DUP1 PUSH1 0x1 ADD SWAP2 POP POP PUSH2 0x1F82 JUMP JUMPDEST POP DUP2 SWAP7 POP POP POP POP POP POP POP SWAP2 SWAP1 POP JUMP JUMPDEST PUSH1 0x0 DUP1 SWAP1 SLOAD SWAP1 PUSH2 0x100 EXP SWAP1 DIV PUSH20 0xFFFFFFFFFFFFFFFFFFFFFFFFFFFFFFFFFFFFFFFF AND DUP2 JUMP JUMPDEST PUSH1 0x0 DUP1 SWAP1 SLOAD SWAP1 PUSH2 0x100 EXP SWAP1 DIV PUSH20 0xFFFFFFFFFFFFFFFFFFFFFFFFFFFFFFFFFFFFFFFF AND PUSH20 0xFFFFFFFFFFFFFFFFFFFFFFFFFFFFFFFFFFFFFFFF AND CALLER PUSH20 0xFFFFFFFFFFFFFFFFFFFFFFFFFFFFFFFFFFFFFFFF AND EQ PUSH2 0x251B JUMPI PUSH1 0x40 MLOAD PUSH32 0x8C379A000000000000000000000000000000000000000000000000000000000 DUP2 MSTORE PUSH1 0x4 ADD DUP1 DUP1 PUSH1 0x20 ADD DUP3 DUP2 SUB DUP3 MSTORE PUSH1 0x22 DUP2 MSTORE PUSH1 0x20 ADD DUP1 PUSH2 0x3EA3 PUSH1 0x22 SWAP2 CODECOPY PUSH1 0x40 ADD SWAP2 POP POP PUSH1 0x40 MLOAD DUP1 SWAP2 SUB SWAP1 REVERT JUMPDEST DUP2 PUSH1 0x0 PUSH1 0x3 PUSH1 0x0 DUP4 DUP2 MSTORE PUSH1 0x20 ADD SWAP1 DUP2 MSTORE PUSH1 0x20 ADD PUSH1 0x0 KECCAK256 PUSH1 0x1 ADD DUP1 SLOAD PUSH1 0x1 DUP2 PUSH1 0x1 AND ISZERO PUSH2 0x100 MUL SUB AND PUSH1 0x2 SWAP1 DIV SWAP1 POP EQ PUSH2 0x259F JUMPI PUSH1 0x40 MLOAD PUSH32 0x8C379A000000000000000000000000000000000000000000000000000000000 DUP2 MSTORE PUSH1 0x4 ADD DUP1 DUP1 PUSH1 0x20 ADD DUP3 DUP2 SUB DUP3 MSTORE PUSH1 0x25 DUP2 MSTORE PUSH1 0x20 ADD DUP1 PUSH2 0x3FCE PUSH1 0x25 SWAP2 CODECOPY PUSH1 0x40 ADD SWAP2 POP POP PUSH1 0x40 MLOAD DUP1 SWAP2 SUB SWAP1 REVERT JUMPDEST PUSH1 0x40 MLOAD DUP1 PUSH1 0x40 ADD PUSH1 0x40 MSTORE DUP1 DUP5 DUP2 MSTORE PUSH1 0x20 ADD DUP4 DUP2 MSTORE POP PUSH1 0x3 PUSH1 0x0 DUP6 DUP2 MSTORE PUSH1 0x20 ADD SWAP1 DUP2 MSTORE PUSH1 0x20 ADD PUSH1 0x0 KECCAK256 PUSH1 0x0 DUP3 ADD MLOAD DUP2 PUSH1 0x0 ADD SSTORE PUSH1 0x20 DUP3 ADD MLOAD DUP2 PUSH1 0x1 ADD SWAP1 DUP1 MLOAD SWAP1 PUSH1 0x20 ADD SWAP1 PUSH2 0x25ED SWAP3 SWAP2 SWAP1 PUSH2 0x3D6E JUMP JUMPDEST POP SWAP1 POP POP PUSH32 0xFAD6C3E066FC058FD766F6C176269AFF5C92C6956FE423687EDC5C100A10352 PUSH1 0x3 PUSH1 0x0 DUP6 DUP2 MSTORE PUSH1 0x20 ADD SWAP1 DUP2 MSTORE PUSH1 0x20 ADD PUSH1 0x0 KECCAK256 PUSH1 0x0 ADD SLOAD PUSH1 0x3 PUSH1 0x0 DUP7 DUP2 MSTORE PUSH1 0x20 ADD SWAP1 DUP2 MSTORE PUSH1 0x20 ADD PUSH1 0x0 KECCAK256 PUSH1 0x1 ADD PUSH1 0x40 MLOAD DUP1 DUP4 DUP2 MSTORE PUSH1 0x20 ADD DUP1 PUSH1 0x20 ADD DUP3 DUP2 SUB DUP3 MSTORE DUP4 DUP2 DUP2 SLOAD PUSH1 0x1 DUP2 PUSH1 0x1 AND ISZERO PUSH2 0x100 MUL SUB AND PUSH1 0x2 SWAP1 DIV DUP2 MSTORE PUSH1 0x20 ADD SWAP2 POP DUP1 SLOAD PUSH1 0x1 DUP2 PUSH1 0x1 AND ISZERO PUSH2 0x100 MUL SUB AND PUSH1 0x2 SWAP1 DIV DUP1 ISZERO PUSH2 0x26CE JUMPI DUP1 PUSH1 0x1F LT PUSH2 0x26A3 JUMPI PUSH2 0x100 DUP1 DUP4 SLOAD DIV MUL DUP4 MSTORE SWAP2 PUSH1 0x20 ADD SWAP2 PUSH2 0x26CE JUMP JUMPDEST DUP3 ADD SWAP2 SWAP1 PUSH1 0x0 MSTORE PUSH1 0x20 PUSH1 0x0 KECCAK256 SWAP1 JUMPDEST DUP2 SLOAD DUP2 MSTORE SWAP1 PUSH1 0x1 ADD SWAP1 PUSH1 0x20 ADD DUP1 DUP4 GT PUSH2 0x26B1 JUMPI DUP3 SWAP1 SUB PUSH1 0x1F AND DUP3 ADD SWAP2 JUMPDEST POP POP SWAP4 POP POP POP POP PUSH1 0x40 MLOAD DUP1 SWAP2 SUB SWAP1 LOG1 POP POP POP JUMP JUMPDEST PUSH1 0x2 PUSH1 0x20 MSTORE DUP1 PUSH1 0x0 MSTORE PUSH1 0x40 PUSH1 0x0 KECCAK256 PUSH1 0x0 SWAP2 POP SWAP1 POP DUP1 PUSH1 0x0 ADD SLOAD SWAP1 DUP1 PUSH1 0x1 ADD DUP1 SLOAD PUSH1 0x1 DUP2 PUSH1 0x1 AND ISZERO PUSH2 0x100 MUL SUB AND PUSH1 0x2 SWAP1 DIV DUP1 PUSH1 0x1F ADD PUSH1 0x20 DUP1 SWAP2 DIV MUL PUSH1 0x20 ADD PUSH1 0x40 MLOAD SWAP1 DUP2 ADD PUSH1 0x40 MSTORE DUP1 SWAP3 SWAP2 SWAP1 DUP2 DUP2 MSTORE PUSH1 0x20 ADD DUP3 DUP1 SLOAD PUSH1 0x1 DUP2 PUSH1 0x1 AND ISZERO PUSH2 0x100 MUL SUB AND PUSH1 0x2 SWAP1 DIV DUP1 ISZERO PUSH2 0x2794 JUMPI DUP1 PUSH1 0x1F LT PUSH2 0x2769 JUMPI PUSH2 0x100 DUP1 DUP4 SLOAD DIV MUL DUP4 MSTORE SWAP2 PUSH1 0x20 ADD SWAP2 PUSH2 0x2794 JUMP JUMPDEST DUP3 ADD SWAP2 SWAP1 PUSH1 0x0 MSTORE PUSH1 0x20 PUSH1 0x0 KECCAK256 SWAP1 JUMPDEST DUP2 SLOAD DUP2 MSTORE SWAP1 PUSH1 0x1 ADD SWAP1 PUSH1 0x20 ADD DUP1 DUP4 GT PUSH2 0x2777 JUMPI DUP3 SWAP1 SUB PUSH1 0x1F AND DUP3 ADD SWAP2 JUMPDEST POP POP POP POP POP SWAP1 DUP1 PUSH1 0x2 ADD PUSH1 0x0 SWAP1 SLOAD SWAP1 PUSH2 0x100 EXP SWAP1 DIV PUSH1 0xFF AND SWAP1 DUP1 PUSH1 0x3 ADD SLOAD SWAP1 DUP1 PUSH1 0x4 ADD SLOAD SWAP1 DUP1 PUSH1 0x5 ADD SLOAD SWAP1 POP DUP7 JUMP JUMPDEST PUSH1 0x0 DUP2 PUSH1 0x0 PUSH1 0x2 PUSH1 0x0 DUP4 DUP2 MSTORE PUSH1 0x20 ADD SWAP1 DUP2 MSTORE PUSH1 0x20 ADD PUSH1 0x0 KECCAK256 PUSH1 0x1 ADD DUP1 SLOAD PUSH1 0x1 DUP2 PUSH1 0x1 AND ISZERO PUSH2 0x100 MUL SUB AND PUSH1 0x2 SWAP1 DIV SWAP1 POP EQ ISZERO PUSH2 0x2867 JUMPI PUSH1 0x40 MLOAD PUSH32 0x8C379A000000000000000000000000000000000000000000000000000000000 DUP2 MSTORE PUSH1 0x4 ADD DUP1 DUP1 PUSH1 0x20 ADD DUP3 DUP2 SUB DUP3 MSTORE PUSH1 0x1E DUP2 MSTORE PUSH1 0x20 ADD DUP1 PUSH32 0x4C61206361727265726120696E67726573616461206E6F206578697374650000 DUP2 MSTORE POP PUSH1 0x20 ADD SWAP2 POP POP PUSH1 0x40 MLOAD DUP1 SWAP2 SUB SWAP1 REVERT JUMPDEST DUP3 PUSH1 0x2 DUP1 PUSH1 0x2 DUP2 GT ISZERO PUSH2 0x2876 JUMPI INVALID JUMPDEST PUSH1 0x2 PUSH1 0x0 DUP5 DUP2 MSTORE PUSH1 0x20 ADD SWAP1 DUP2 MSTORE PUSH1 0x20 ADD PUSH1 0x0 KECCAK256 PUSH1 0x2 ADD PUSH1 0x0 SWAP1 SLOAD SWAP1 PUSH2 0x100 EXP SWAP1 DIV PUSH1 0xFF AND PUSH1 0x2 DUP2 GT ISZERO PUSH2 0x28A5 JUMPI INVALID JUMPDEST EQ PUSH2 0x28FB JUMPI PUSH1 0x40 MLOAD PUSH32 0x8C379A000000000000000000000000000000000000000000000000000000000 DUP2 MSTORE PUSH1 0x4 ADD DUP1 DUP1 PUSH1 0x20 ADD DUP3 DUP2 SUB DUP3 MSTORE PUSH1 0x2C DUP2 MSTORE PUSH1 0x20 ADD DUP1 PUSH2 0x402A PUSH1 0x2C SWAP2 CODECOPY PUSH1 0x40 ADD SWAP2 POP POP PUSH1 0x40 MLOAD DUP1 SWAP2 SUB SWAP1 REVERT JUMPDEST PUSH1 0x2 PUSH1 0x0 DUP7 DUP2 MSTORE PUSH1 0x20 ADD SWAP1 DUP2 MSTORE PUSH1 0x20 ADD PUSH1 0x0 KECCAK256 PUSH1 0x5 ADD SLOAD SWAP4 POP POP POP POP SWAP2 SWAP1 POP JUMP JUMPDEST PUSH1 0x0 DUP2 PUSH1 0x0 PUSH1 0x2 PUSH1 0x0 DUP4 DUP2 MSTORE PUSH1 0x20 ADD SWAP1 DUP2 MSTORE PUSH1 0x20 ADD PUSH1 0x0 KECCAK256 PUSH1 0x1 ADD DUP1 SLOAD PUSH1 0x1 DUP2 PUSH1 0x1 AND ISZERO PUSH2 0x100 MUL SUB AND PUSH1 0x2 SWAP1 DIV SWAP1 POP EQ ISZERO PUSH2 0x29C0 JUMPI PUSH1 0x40 MLOAD PUSH32 0x8C379A000000000000000000000000000000000000000000000000000000000 DUP2 MSTORE PUSH1 0x4 ADD DUP1 DUP1 PUSH1 0x20 ADD DUP3 DUP2 SUB DUP3 MSTORE PUSH1 0x1E DUP2 MSTORE PUSH1 0x20 ADD DUP1 PUSH32 0x4C61206361727265726120696E67726573616461206E6F206578697374650000 DUP2 MSTORE POP PUSH1 0x20 ADD SWAP2 POP POP PUSH1 0x40 MLOAD DUP1 SWAP2 SUB SWAP1 REVERT JUMPDEST DUP3 PUSH1 0x0 PUSH1 0x5 PUSH1 0x0 DUP4 DUP2 MSTORE PUSH1 0x20 ADD SWAP1 DUP2 MSTORE PUSH1 0x20 ADD PUSH1 0x0 KECCAK256 DUP1 SLOAD SWAP1 POP GT PUSH2 0x2A30 JUMPI PUSH1 0x40 MLOAD PUSH32 0x8C379A000000000000000000000000000000000000000000000000000000000 DUP2 MSTORE PUSH1 0x4 ADD DUP1 DUP1 PUSH1 0x20 ADD DUP3 DUP2 SUB DUP3 MSTORE PUSH1 0x29 DUP2 MSTORE PUSH1 0x20 ADD DUP1 PUSH2 0x3F37 PUSH1 0x29 SWAP2 CODECOPY PUSH1 0x40 ADD SWAP2 POP POP PUSH1 0x40 MLOAD DUP1 SWAP2 SUB SWAP1 REVERT JUMPDEST PUSH1 0x5 PUSH1 0x0 DUP6 DUP2 MSTORE PUSH1 0x20 ADD SWAP1 DUP2 MSTORE PUSH1 0x20 ADD PUSH1 0x0 KECCAK256 DUP6 DUP2 SLOAD DUP2 LT PUSH2 0x2A4E JUMPI INVALID JUMPDEST SWAP1 PUSH1 0x0 MSTORE PUSH1 0x20 PUSH1 0x0 KECCAK256 ADD PUSH1 0x0 SWAP1 SLOAD SWAP1 PUSH2 0x100 EXP SWAP1 DIV PUSH20 0xFFFFFFFFFFFFFFFFFFFFFFFFFFFFFFFFFFFFFFFF AND SWAP3 POP POP POP SWAP3 SWAP2 POP POP JUMP JUMPDEST PUSH1 0x5 PUSH1 0x20 MSTORE DUP2 PUSH1 0x0 MSTORE PUSH1 0x40 PUSH1 0x0 KECCAK256 DUP2 DUP2 SLOAD DUP2 LT PUSH2 0x2A9C JUMPI INVALID JUMPDEST SWAP1 PUSH1 0x0 MSTORE PUSH1 0x20 PUSH1 0x0 KECCAK256 ADD PUSH1 0x0 SWAP2 POP SWAP2 POP SWAP1 SLOAD SWAP1 PUSH2 0x100 EXP SWAP1 DIV PUSH20 0xFFFFFFFFFFFFFFFFFFFFFFFFFFFFFFFFFFFFFFFF AND DUP2 JUMP JUMPDEST PUSH1 0x60 DUP2 PUSH1 0x0 PUSH1 0x2 PUSH1 0x0 DUP4 DUP2 MSTORE PUSH1 0x20 ADD SWAP1 DUP2 MSTORE PUSH1 0x20 ADD PUSH1 0x0 KECCAK256 PUSH1 0x1 ADD DUP1 SLOAD PUSH1 0x1 DUP2 PUSH1 0x1 AND ISZERO PUSH2 0x100 MUL SUB AND PUSH1 0x2 SWAP1 DIV SWAP1 POP EQ ISZERO PUSH2 0x2B72 JUMPI PUSH1 0x40 MLOAD PUSH32 0x8C379A000000000000000000000000000000000000000000000000000000000 DUP2 MSTORE PUSH1 0x4 ADD DUP1 DUP1 PUSH1 0x20 ADD DUP3 DUP2 SUB DUP3 MSTORE PUSH1 0x1E DUP2 MSTORE PUSH1 0x20 ADD DUP1 PUSH32 0x4C61206361727265726120696E67726573616461206E6F206578697374650000 DUP2 MSTORE POP PUSH1 0x20 ADD SWAP2 POP POP PUSH1 0x40 MLOAD DUP1 SWAP2 SUB SWAP1 REVERT JUMPDEST PUSH1 0x0 PUSH1 0x2 DUP2 GT ISZERO PUSH2 0x2B7F JUMPI INVALID JUMPDEST PUSH1 0x2 PUSH1 0x0 DUP6 DUP2 MSTORE PUSH1 0x20 ADD SWAP1 DUP2 MSTORE PUSH1 0x20 ADD PUSH1 0x0 KECCAK256 PUSH1 0x2 ADD PUSH1 0x0 SWAP1 SLOAD SWAP1 PUSH2 0x100 EXP SWAP1 DIV PUSH1 0xFF AND PUSH1 0x2 DUP2 GT ISZERO PUSH2 0x2BAE JUMPI INVALID JUMPDEST EQ ISZERO PUSH2 0x2BF1 JUMPI PUSH1 0x40 MLOAD DUP1 PUSH1 0x40 ADD PUSH1 0x40 MSTORE DUP1 PUSH1 0x6 DUP2 MSTORE PUSH1 0x20 ADD PUSH32 0x4372656164610000000000000000000000000000000000000000000000000000 DUP2 MSTORE POP SWAP2 POP PUSH2 0x2CA9 JUMP JUMPDEST PUSH1 0x1 PUSH1 0x2 DUP2 GT ISZERO PUSH2 0x2BFE JUMPI INVALID JUMPDEST PUSH1 0x2 PUSH1 0x0 DUP6 DUP2 MSTORE PUSH1 0x20 ADD SWAP1 DUP2 MSTORE PUSH1 0x20 ADD PUSH1 0x0 KECCAK256 PUSH1 0x2 ADD PUSH1 0x0 SWAP1 SLOAD SWAP1 PUSH2 0x100 EXP SWAP1 DIV PUSH1 0xFF AND PUSH1 0x2 DUP2 GT ISZERO PUSH2 0x2C2D JUMPI INVALID JUMPDEST EQ ISZERO PUSH2 0x2C70 JUMPI PUSH1 0x40 MLOAD DUP1 PUSH1 0x40 ADD PUSH1 0x40 MSTORE DUP1 PUSH1 0xA DUP2 MSTORE PUSH1 0x20 ADD PUSH32 0x5265676973747261646100000000000000000000000000000000000000000000 DUP2 MSTORE POP SWAP2 POP PUSH2 0x2CA9 JUMP JUMPDEST PUSH1 0x40 MLOAD DUP1 PUSH1 0x40 ADD PUSH1 0x40 MSTORE DUP1 PUSH1 0x9 DUP2 MSTORE PUSH1 0x20 ADD PUSH32 0x5465726D696E6164610000000000000000000000000000000000000000000000 DUP2 MSTORE POP SWAP2 POP JUMPDEST POP SWAP2 SWAP1 POP JUMP JUMPDEST PUSH1 0x1 SLOAD DUP2 JUMP JUMPDEST PUSH1 0x3 PUSH1 0x20 MSTORE DUP1 PUSH1 0x0 MSTORE PUSH1 0x40 PUSH1 0x0 KECCAK256 PUSH1 0x0 SWAP2 POP SWAP1 POP DUP1 PUSH1 0x0 ADD SLOAD SWAP1 DUP1 PUSH1 0x1 ADD DUP1 SLOAD PUSH1 0x1 DUP2 PUSH1 0x1 AND ISZERO PUSH2 0x100 MUL SUB AND PUSH1 0x2 SWAP1 DIV DUP1 PUSH1 0x1F ADD PUSH1 0x20 DUP1 SWAP2 DIV MUL PUSH1 0x20 ADD PUSH1 0x40 MLOAD SWAP1 DUP2 ADD PUSH1 0x40 MSTORE DUP1 SWAP3 SWAP2 SWAP1 DUP2 DUP2 MSTORE PUSH1 0x20 ADD DUP3 DUP1 SLOAD PUSH1 0x1 DUP2 PUSH1 0x1 AND ISZERO PUSH2 0x100 MUL SUB AND PUSH1 0x2 SWAP1 DIV DUP1 ISZERO PUSH2 0x2D67 JUMPI DUP1 PUSH1 0x1F LT PUSH2 0x2D3C JUMPI PUSH2 0x100 DUP1 DUP4 SLOAD DIV MUL DUP4 MSTORE SWAP2 PUSH1 0x20 ADD SWAP2 PUSH2 0x2D67 JUMP JUMPDEST DUP3 ADD SWAP2 SWAP1 PUSH1 0x0 MSTORE PUSH1 0x20 PUSH1 0x0 KECCAK256 SWAP1 JUMPDEST DUP2 SLOAD DUP2 MSTORE SWAP1 PUSH1 0x1 ADD SWAP1 PUSH1 0x20 ADD DUP1 DUP4 GT PUSH2 0x2D4A JUMPI DUP3 SWAP1 SUB PUSH1 0x1F AND DUP3 ADD SWAP2 JUMPDEST POP POP POP POP POP SWAP1 POP DUP3 JUMP JUMPDEST PUSH1 0x0 DUP1 SWAP1 SLOAD SWAP1 PUSH2 0x100 EXP SWAP1 DIV PUSH20 0xFFFFFFFFFFFFFFFFFFFFFFFFFFFFFFFFFFFFFFFF AND PUSH20 0xFFFFFFFFFFFFFFFFFFFFFFFFFFFFFFFFFFFFFFFF AND CALLER PUSH20 0xFFFFFFFFFFFFFFFFFFFFFFFFFFFFFFFFFFFFFFFF AND EQ ISZERO PUSH2 0x2E17 JUMPI PUSH1 0x40 MLOAD PUSH32 0x8C379A000000000000000000000000000000000000000000000000000000000 DUP2 MSTORE PUSH1 0x4 ADD DUP1 DUP1 PUSH1 0x20 ADD DUP3 DUP2 SUB DUP3 MSTORE PUSH1 0x37 DUP2 MSTORE PUSH1 0x20 ADD DUP1 PUSH2 0x3F97 PUSH1 0x37 SWAP2 CODECOPY PUSH1 0x40 ADD SWAP2 POP POP PUSH1 0x40 MLOAD DUP1 SWAP2 SUB SWAP1 REVERT JUMPDEST DUP1 PUSH1 0x1 DUP1 PUSH1 0x2 DUP2 GT ISZERO PUSH2 0x2E26 JUMPI INVALID JUMPDEST PUSH1 0x2 PUSH1 0x0 DUP5 DUP2 MSTORE PUSH1 0x20 ADD SWAP1 DUP2 MSTORE PUSH1 0x20 ADD PUSH1 0x0 KECCAK256 PUSH1 0x2 ADD PUSH1 0x0 SWAP1 SLOAD SWAP1 PUSH2 0x100 EXP SWAP1 DIV PUSH1 0xFF AND PUSH1 0x2 DUP2 GT ISZERO PUSH2 0x2E55 JUMPI INVALID JUMPDEST EQ PUSH2 0x2EAB JUMPI PUSH1 0x40 MLOAD PUSH32 0x8C379A000000000000000000000000000000000000000000000000000000000 DUP2 MSTORE PUSH1 0x4 ADD DUP1 DUP1 PUSH1 0x20 ADD DUP3 DUP2 SUB DUP3 MSTORE PUSH1 0x2C DUP2 MSTORE PUSH1 0x20 ADD DUP1 PUSH2 0x402A PUSH1 0x2C SWAP2 CODECOPY PUSH1 0x40 ADD SWAP2 POP POP PUSH1 0x40 MLOAD DUP1 SWAP2 SUB SWAP1 REVERT JUMPDEST DUP4 PUSH1 0x0 PUSH1 0x3 PUSH1 0x0 DUP4 DUP2 MSTORE PUSH1 0x20 ADD SWAP1 DUP2 MSTORE PUSH1 0x20 ADD PUSH1 0x0 KECCAK256 PUSH1 0x1 ADD DUP1 SLOAD PUSH1 0x1 DUP2 PUSH1 0x1 AND ISZERO PUSH2 0x100 MUL SUB AND PUSH1 0x2 SWAP1 DIV SWAP1 POP EQ ISZERO PUSH2 0x2F4D JUMPI PUSH1 0x40 MLOAD PUSH32 0x8C379A000000000000000000000000000000000000000000000000000000000 DUP2 MSTORE PUSH1 0x4 ADD DUP1 DUP1 PUSH1 0x20 ADD DUP3 DUP2 SUB DUP3 MSTORE PUSH1 0x1E DUP2 MSTORE PUSH1 0x20 ADD DUP1 PUSH32 0x456C20636162616C6C6F20696E6772657361646F206E6F206578697374650000 DUP2 MSTORE POP PUSH1 0x20 ADD SWAP2 POP POP PUSH1 0x40 MLOAD DUP1 SWAP2 SUB SWAP1 REVERT JUMPDEST DUP4 PUSH1 0x0 PUSH1 0x2 PUSH1 0x0 DUP4 DUP2 MSTORE PUSH1 0x20 ADD SWAP1 DUP2 MSTORE PUSH1 0x20 ADD PUSH1 0x0 KECCAK256 PUSH1 0x1 ADD DUP1 SLOAD PUSH1 0x1 DUP2 PUSH1 0x1 AND ISZERO PUSH2 0x100 MUL SUB AND PUSH1 0x2 SWAP1 DIV SWAP1 POP EQ ISZERO PUSH2 0x2FEF JUMPI PUSH1 0x40 MLOAD PUSH32 0x8C379A000000000000000000000000000000000000000000000000000000000 DUP2 MSTORE PUSH1 0x4 ADD DUP1 DUP1 PUSH1 0x20 ADD DUP3 DUP2 SUB DUP3 MSTORE PUSH1 0x1E DUP2 MSTORE PUSH1 0x20 ADD DUP1 PUSH32 0x4C61206361727265726120696E67726573616461206E6F206578697374650000 DUP2 MSTORE POP PUSH1 0x20 ADD SWAP2 POP POP PUSH1 0x40 MLOAD DUP1 SWAP2 SUB SWAP1 REVERT JUMPDEST DUP5 DUP7 PUSH1 0x0 PUSH1 0x4 PUSH1 0x0 DUP5 DUP2 MSTORE PUSH1 0x20 ADD SWAP1 DUP2 MSTORE PUSH1 0x20 ADD PUSH1 0x0 KECCAK256 DUP1 SLOAD SWAP1 POP SWAP1 POP PUSH1 0x0 DUP1 SWAP1 POP PUSH1 0x0 DUP1 SWAP1 POP JUMPDEST DUP3 DUP2 LT ISZERO PUSH2 0x3065 JUMPI DUP4 PUSH1 0x4 PUSH1 0x0 DUP8 DUP2 MSTORE PUSH1 0x20 ADD SWAP1 DUP2 MSTORE PUSH1 0x20 ADD PUSH1 0x0 KECCAK256 DUP3 DUP2 SLOAD DUP2 LT PUSH2 0x303E JUMPI INVALID JUMPDEST SWAP1 PUSH1 0x0 MSTORE PUSH1 0x20 PUSH1 0x0 KECCAK256 ADD SLOAD EQ ISZERO PUSH2 0x3058 JUMPI PUSH1 0x1 SWAP2 POP PUSH2 0x3065 JUMP JUMPDEST DUP1 DUP1 PUSH1 0x1 ADD SWAP2 POP POP PUSH2 0x3017 JUMP JUMPDEST POP DUP1 PUSH2 0x30BC JUMPI PUSH1 0x40 MLOAD PUSH32 0x8C379A000000000000000000000000000000000000000000000000000000000 DUP2 MSTORE PUSH1 0x4 ADD DUP1 DUP1 PUSH1 0x20 ADD DUP3 DUP2 SUB DUP3 MSTORE PUSH1 0x37 DUP2 MSTORE PUSH1 0x20 ADD DUP1 PUSH2 0x3F60 PUSH1 0x37 SWAP2 CODECOPY PUSH1 0x40 ADD SWAP2 POP POP PUSH1 0x40 MLOAD DUP1 SWAP2 SUB SWAP1 REVERT JUMPDEST CALLVALUE PUSH1 0x0 DUP2 GT PUSH2 0x3116 JUMPI PUSH1 0x40 MLOAD PUSH32 0x8C379A000000000000000000000000000000000000000000000000000000000 DUP2 MSTORE PUSH1 0x4 ADD DUP1 DUP1 PUSH1 0x20 ADD DUP3 DUP2 SUB DUP3 MSTORE PUSH1 0x29 DUP2 MSTORE PUSH1 0x20 ADD DUP1 PUSH2 0x3F0E PUSH1 0x29 SWAP2 CODECOPY PUSH1 0x40 ADD SWAP2 POP POP PUSH1 0x40 MLOAD DUP1 SWAP2 SUB SWAP1 REVERT JUMPDEST PUSH1 0x0 CALLVALUE SWAP1 POP PUSH1 0x0 CALLER SWAP1 POP PUSH1 0x2 PUSH1 0x0 DUP14 DUP2 MSTORE PUSH1 0x20 ADD SWAP1 DUP2 MSTORE PUSH1 0x20 ADD PUSH1 0x0 KECCAK256 PUSH1 0x6 ADD PUSH1 0x0 DUP3 PUSH20 0xFFFFFFFFFFFFFFFFFFFFFFFFFFFFFFFFFFFFFFFF AND PUSH20 0xFFFFFFFFFFFFFFFFFFFFFFFFFFFFFFFFFFFFFFFF AND DUP2 MSTORE PUSH1 0x20 ADD SWAP1 DUP2 MSTORE PUSH1 0x20 ADD PUSH1 0x0 KECCAK256 PUSH1 0x2 ADD PUSH1 0x0 SWAP1 SLOAD SWAP1 PUSH2 0x100 EXP SWAP1 DIV PUSH1 0xFF AND ISZERO PUSH2 0x32C4 JUMPI DUP13 PUSH1 0x2 PUSH1 0x0 DUP15 DUP2 MSTORE PUSH1 0x20 ADD SWAP1 DUP2 MSTORE PUSH1 0x20 ADD PUSH1 0x0 KECCAK256 PUSH1 0x6 ADD PUSH1 0x0 DUP4 PUSH20 0xFFFFFFFFFFFFFFFFFFFFFFFFFFFFFFFFFFFFFFFF AND PUSH20 0xFFFFFFFFFFFFFFFFFFFFFFFFFFFFFFFFFFFFFFFF AND DUP2 MSTORE PUSH1 0x20 ADD SWAP1 DUP2 MSTORE PUSH1 0x20 ADD PUSH1 0x0 KECCAK256 PUSH1 0x1 ADD SLOAD EQ PUSH2 0x3237 JUMPI PUSH1 0x40 MLOAD PUSH32 0x8C379A000000000000000000000000000000000000000000000000000000000 DUP2 MSTORE PUSH1 0x4 ADD DUP1 DUP1 PUSH1 0x20 ADD DUP3 DUP2 SUB DUP3 MSTORE PUSH1 0x3B DUP2 MSTORE PUSH1 0x20 ADD DUP1 PUSH2 0x3E14 PUSH1 0x3B SWAP2 CODECOPY PUSH1 0x40 ADD SWAP2 POP POP PUSH1 0x40 MLOAD DUP1 SWAP2 SUB SWAP1 REVERT JUMPDEST DUP2 PUSH1 0x2 PUSH1 0x0 DUP15 DUP2 MSTORE PUSH1 0x20 ADD SWAP1 DUP2 MSTORE PUSH1 0x20 ADD PUSH1 0x0 KECCAK256 PUSH1 0x6 ADD PUSH1 0x0 DUP4 PUSH20 0xFFFFFFFFFFFFFFFFFFFFFFFFFFFFFFFFFFFFFFFF AND PUSH20 0xFFFFFFFFFFFFFFFFFFFFFFFFFFFFFFFFFFFFFFFF AND DUP2 MSTORE PUSH1 0x20 ADD SWAP1 DUP2 MSTORE PUSH1 0x20 ADD PUSH1 0x0 KECCAK256 PUSH1 0x0 ADD PUSH1 0x0 DUP3 DUP3 SLOAD ADD SWAP3 POP POP DUP2 SWAP1 SSTORE POP DUP2 PUSH1 0x2 PUSH1 0x0 DUP15 DUP2 MSTORE PUSH1 0x20 ADD SWAP1 DUP2 MSTORE PUSH1 0x20 ADD PUSH1 0x0 KECCAK256 PUSH1 0x3 ADD PUSH1 0x0 DUP3 DUP3 SLOAD ADD SWAP3 POP POP DUP2 SWAP1 SSTORE POP PUSH2 0x3427 JUMP JUMPDEST PUSH1 0x40 MLOAD DUP1 PUSH1 0xA0 ADD PUSH1 0x40 MSTORE DUP1 DUP4 DUP2 MSTORE PUSH1 0x20 ADD DUP15 DUP2 MSTORE PUSH1 0x20 ADD PUSH1 0x1 ISZERO ISZERO DUP2 MSTORE PUSH1 0x20 ADD PUSH1 0x0 DUP2 MSTORE PUSH1 0x20 ADD PUSH1 0x0 DUP2 MSTORE POP PUSH1 0x2 PUSH1 0x0 DUP15 DUP2 MSTORE PUSH1 0x20 ADD SWAP1 DUP2 MSTORE PUSH1 0x20 ADD PUSH1 0x0 KECCAK256 PUSH1 0x6 ADD PUSH1 0x0 DUP4 PUSH20 0xFFFFFFFFFFFFFFFFFFFFFFFFFFFFFFFFFFFFFFFF AND PUSH20 0xFFFFFFFFFFFFFFFFFFFFFFFFFFFFFFFFFFFFFFFF AND DUP2 MSTORE PUSH1 0x20 ADD SWAP1 DUP2 MSTORE PUSH1 0x20 ADD PUSH1 0x0 KECCAK256 PUSH1 0x0 DUP3 ADD MLOAD DUP2 PUSH1 0x0 ADD SSTORE PUSH1 0x20 DUP3 ADD MLOAD DUP2 PUSH1 0x1 ADD SSTORE PUSH1 0x40 DUP3 ADD MLOAD DUP2 PUSH1 0x2 ADD PUSH1 0x0 PUSH2 0x100 EXP DUP2 SLOAD DUP2 PUSH1 0xFF MUL NOT AND SWAP1 DUP4 ISZERO ISZERO MUL OR SWAP1 SSTORE POP PUSH1 0x60 DUP3 ADD MLOAD DUP2 PUSH1 0x3 ADD SSTORE PUSH1 0x80 DUP3 ADD MLOAD DUP2 PUSH1 0x4 ADD SSTORE SWAP1 POP POP DUP2 PUSH1 0x2 PUSH1 0x0 DUP15 DUP2 MSTORE PUSH1 0x20 ADD SWAP1 DUP2 MSTORE PUSH1 0x20 ADD PUSH1 0x0 KECCAK256 PUSH1 0x3 ADD PUSH1 0x0 DUP3 DUP3 SLOAD ADD SWAP3 POP POP DUP2 SWAP1 SSTORE POP PUSH1 0x5 PUSH1 0x0 DUP14 DUP2 MSTORE PUSH1 0x20 ADD SWAP1 DUP2 MSTORE PUSH1 0x20 ADD PUSH1 0x0 KECCAK256 DUP2 SWAP1 DUP1 PUSH1 0x1 DUP2 SLOAD ADD DUP1 DUP3 SSTORE DUP1 SWAP2 POP POP PUSH1 0x1 SWAP1 SUB SWAP1 PUSH1 0x0 MSTORE PUSH1 0x20 PUSH1 0x0 KECCAK256 ADD PUSH1 0x0 SWAP1 SWAP2 SWAP1 SWAP2 SWAP1 SWAP2 PUSH2 0x100 EXP DUP2 SLOAD DUP2 PUSH20 0xFFFFFFFFFFFFFFFFFFFFFFFFFFFFFFFFFFFFFFFF MUL NOT AND SWAP1 DUP4 PUSH20 0xFFFFFFFFFFFFFFFFFFFFFFFFFFFFFFFFFFFFFFFF AND MUL OR SWAP1 SSTORE POP JUMPDEST PUSH32 0x5D4DA2D239AE200F7129AB7DF10B604E5D7B6B0FFAF377DBD6D8DDEFC12CAB86 DUP13 DUP15 DUP4 DUP6 PUSH1 0x40 MLOAD DUP1 DUP6 DUP2 MSTORE PUSH1 0x20 ADD DUP5 DUP2 MSTORE PUSH1 0x20 ADD DUP4 PUSH20 0xFFFFFFFFFFFFFFFFFFFFFFFFFFFFFFFFFFFFFFFF AND PUSH20 0xFFFFFFFFFFFFFFFFFFFFFFFFFFFFFFFFFFFFFFFF AND DUP2 MSTORE PUSH1 0x20 ADD DUP3 DUP2 MSTORE PUSH1 0x20 ADD SWAP5 POP POP POP POP POP PUSH1 0x40 MLOAD DUP1 SWAP2 SUB SWAP1 LOG1 POP POP POP POP POP POP POP POP POP POP POP POP POP JUMP JUMPDEST PUSH1 0x0 DUP1 SWAP1 SLOAD SWAP1 PUSH2 0x100 EXP SWAP1 DIV PUSH20 0xFFFFFFFFFFFFFFFFFFFFFFFFFFFFFFFFFFFFFFFF AND PUSH20 0xFFFFFFFFFFFFFFFFFFFFFFFFFFFFFFFFFFFFFFFF AND CALLER PUSH20 0xFFFFFFFFFFFFFFFFFFFFFFFFFFFFFFFFFFFFFFFF AND EQ PUSH2 0x3556 JUMPI PUSH1 0x40 MLOAD PUSH32 0x8C379A000000000000000000000000000000000000000000000000000000000 DUP2 MSTORE PUSH1 0x4 ADD DUP1 DUP1 PUSH1 0x20 ADD DUP3 DUP2 SUB DUP3 MSTORE PUSH1 0x22 DUP2 MSTORE PUSH1 0x20 ADD DUP1 PUSH2 0x3EA3 PUSH1 0x22 SWAP2 CODECOPY PUSH1 0x40 ADD SWAP2 POP POP PUSH1 0x40 MLOAD DUP1 SWAP2 SUB SWAP1 REVERT JUMPDEST DUP1 PUSH1 0x0 DUP1 PUSH1 0x2 DUP2 GT ISZERO PUSH2 0x3565 JUMPI INVALID JUMPDEST PUSH1 0x2 PUSH1 0x0 DUP5 DUP2 MSTORE PUSH1 0x20 ADD SWAP1 DUP2 MSTORE PUSH1 0x20 ADD PUSH1 0x0 KECCAK256 PUSH1 0x2 ADD PUSH1 0x0 SWAP1 SLOAD SWAP1 PUSH2 0x100 EXP SWAP1 DIV PUSH1 0xFF AND PUSH1 0x2 DUP2 GT ISZERO PUSH2 0x3594 JUMPI INVALID JUMPDEST EQ PUSH2 0x35EA JUMPI PUSH1 0x40 MLOAD PUSH32 0x8C379A000000000000000000000000000000000000000000000000000000000 DUP2 MSTORE PUSH1 0x4 ADD DUP1 DUP1 PUSH1 0x20 ADD DUP3 DUP2 SUB DUP3 MSTORE PUSH1 0x2C DUP2 MSTORE PUSH1 0x20 ADD DUP1 PUSH2 0x402A PUSH1 0x2C SWAP2 CODECOPY PUSH1 0x40 ADD SWAP2 POP POP PUSH1 0x40 MLOAD DUP1 SWAP2 SUB SWAP1 REVERT JUMPDEST DUP3 PUSH1 0x0 PUSH1 0x2 PUSH1 0x0 DUP4 DUP2 MSTORE PUSH1 0x20 ADD SWAP1 DUP2 MSTORE PUSH1 0x20 ADD PUSH1 0x0 KECCAK256 PUSH1 0x1 ADD DUP1 SLOAD PUSH1 0x1 DUP2 PUSH1 0x1 AND ISZERO PUSH2 0x100 MUL SUB AND PUSH1 0x2 SWAP1 DIV SWAP1 POP EQ ISZERO PUSH2 0x368C JUMPI PUSH1 0x40 MLOAD PUSH32 0x8C379A000000000000000000000000000000000000000000000000000000000 DUP2 MSTORE PUSH1 0x4 ADD DUP1 DUP1 PUSH1 0x20 ADD DUP3 DUP2 SUB DUP3 MSTORE PUSH1 0x1E DUP2 MSTORE PUSH1 0x20 ADD DUP1 PUSH32 0x4C61206361727265726120696E67726573616461206E6F206578697374650000 DUP2 MSTORE POP PUSH1 0x20 ADD SWAP2 POP POP PUSH1 0x40 MLOAD DUP1 SWAP2 SUB SWAP1 REVERT JUMPDEST DUP4 PUSH1 0x2 PUSH1 0x4 PUSH1 0x0 DUP4 DUP2 MSTORE PUSH1 0x20 ADD SWAP1 DUP2 MSTORE PUSH1 0x20 ADD PUSH1 0x0 KECCAK256 DUP1 SLOAD SWAP1 POP LT ISZERO PUSH2 0x36FD JUMPI PUSH1 0x40 MLOAD PUSH32 0x8C379A000000000000000000000000000000000000000000000000000000000 DUP2 MSTORE PUSH1 0x4 ADD DUP1 DUP1 PUSH1 0x20 ADD DUP3 DUP2 SUB DUP3 MSTORE PUSH1 0x2E DUP2 MSTORE PUSH1 0x20 ADD DUP1 PUSH2 0x3E75 PUSH1 0x2E SWAP2 CODECOPY PUSH1 0x40 ADD SWAP2 POP POP PUSH1 0x40 MLOAD DUP1 SWAP2 SUB SWAP1 REVERT JUMPDEST PUSH1 0x1 PUSH1 0x2 PUSH1 0x0 DUP8 DUP2 MSTORE PUSH1 0x20 ADD SWAP1 DUP2 MSTORE PUSH1 0x20 ADD PUSH1 0x0 KECCAK256 PUSH1 0x2 ADD PUSH1 0x0 PUSH2 0x100 EXP DUP2 SLOAD DUP2 PUSH1 0xFF MUL NOT AND SWAP1 DUP4 PUSH1 0x2 DUP2 GT ISZERO PUSH2 0x3730 JUMPI INVALID JUMPDEST MUL OR SWAP1 SSTORE POP PUSH32 0xBCC8F8B0B63073A5995BB05CA219CBD7E282534C03235D06119B093559B195B0 PUSH1 0x2 PUSH1 0x0 DUP8 DUP2 MSTORE PUSH1 0x20 ADD SWAP1 DUP2 MSTORE PUSH1 0x20 ADD PUSH1 0x0 KECCAK256 PUSH1 0x0 ADD SLOAD PUSH1 0x2 PUSH1 0x0 DUP9 DUP2 MSTORE PUSH1 0x20 ADD SWAP1 DUP2 MSTORE PUSH1 0x20 ADD PUSH1 0x0 KECCAK256 PUSH1 0x1 ADD PUSH1 0x2 PUSH1 0x0 DUP10 DUP2 MSTORE PUSH1 0x20 ADD SWAP1 DUP2 MSTORE PUSH1 0x20 ADD PUSH1 0x0 KECCAK256 PUSH1 0x2 ADD PUSH1 0x0 SWAP1 SLOAD SWAP1 PUSH2 0x100 EXP SWAP1 DIV PUSH1 0xFF AND PUSH1 0x40 MLOAD DUP1 DUP5 DUP2 MSTORE PUSH1 0x20 ADD DUP1 PUSH1 0x20 ADD DUP4 PUSH1 0x2 DUP2 GT ISZERO PUSH2 0x37C1 JUMPI INVALID JUMPDEST PUSH1 0xFF AND DUP2 MSTORE PUSH1 0x20 ADD DUP3 DUP2 SUB DUP3 MSTORE DUP5 DUP2 DUP2 SLOAD PUSH1 0x1 DUP2 PUSH1 0x1 AND ISZERO PUSH2 0x100 MUL SUB AND PUSH1 0x2 SWAP1 DIV DUP2 MSTORE PUSH1 0x20 ADD SWAP2 POP DUP1 SLOAD PUSH1 0x1 DUP2 PUSH1 0x1 AND ISZERO PUSH2 0x100 MUL SUB AND PUSH1 0x2 SWAP1 DIV DUP1 ISZERO PUSH2 0x384A JUMPI DUP1 PUSH1 0x1F LT PUSH2 0x381F JUMPI PUSH2 0x100 DUP1 DUP4 SLOAD DIV MUL DUP4 MSTORE SWAP2 PUSH1 0x20 ADD SWAP2 PUSH2 0x384A JUMP JUMPDEST DUP3 ADD SWAP2 SWAP1 PUSH1 0x0 MSTORE PUSH1 0x20 PUSH1 0x0 KECCAK256 SWAP1 JUMPDEST DUP2 SLOAD DUP2 MSTORE SWAP1 PUSH1 0x1 ADD SWAP1 PUSH1 0x20 ADD DUP1 DUP4 GT PUSH2 0x382D JUMPI DUP3 SWAP1 SUB PUSH1 0x1F AND DUP3 ADD SWAP2 JUMPDEST POP POP SWAP5 POP POP POP POP POP PUSH1 0x40 MLOAD DUP1 SWAP2 SUB SWAP1 LOG1 POP POP POP POP POP JUMP JUMPDEST PUSH1 0x0 DUP1 SWAP1 SLOAD SWAP1 PUSH2 0x100 EXP SWAP1 DIV PUSH20 0xFFFFFFFFFFFFFFFFFFFFFFFFFFFFFFFFFFFFFFFF AND PUSH20 0xFFFFFFFFFFFFFFFFFFFFFFFFFFFFFFFFFFFFFFFF AND CALLER PUSH20 0xFFFFFFFFFFFFFFFFFFFFFFFFFFFFFFFFFFFFFFFF AND EQ PUSH2 0x3906 JUMPI PUSH1 0x40 MLOAD PUSH32 0x8C379A000000000000000000000000000000000000000000000000000000000 DUP2 MSTORE PUSH1 0x4 ADD DUP1 DUP1 PUSH1 0x20 ADD DUP3 DUP2 SUB DUP3 MSTORE PUSH1 0x22 DUP2 MSTORE PUSH1 0x20 ADD DUP1 PUSH2 0x3EA3 PUSH1 0x22 SWAP2 CODECOPY PUSH1 0x40 ADD SWAP2 POP POP PUSH1 0x40 MLOAD DUP1 SWAP2 SUB SWAP1 REVERT JUMPDEST DUP2 PUSH1 0x0 PUSH1 0x2 PUSH1 0x0 DUP4 DUP2 MSTORE PUSH1 0x20 ADD SWAP1 DUP2 MSTORE PUSH1 0x20 ADD PUSH1 0x0 KECCAK256 PUSH1 0x1 ADD DUP1 SLOAD PUSH1 0x1 DUP2 PUSH1 0x1 AND ISZERO PUSH2 0x100 MUL SUB AND PUSH1 0x2 SWAP1 DIV SWAP1 POP EQ PUSH2 0x398A JUMPI PUSH1 0x40 MLOAD PUSH32 0x8C379A000000000000000000000000000000000000000000000000000000000 DUP2 MSTORE PUSH1 0x4 ADD DUP1 DUP1 PUSH1 0x20 ADD DUP3 DUP2 SUB DUP3 MSTORE PUSH1 0x26 DUP2 MSTORE PUSH1 0x20 ADD DUP1 PUSH2 0x3E4F PUSH1 0x26 SWAP2 CODECOPY PUSH1 0x40 ADD SWAP2 POP POP PUSH1 0x40 MLOAD DUP1 SWAP2 SUB SWAP1 REVERT JUMPDEST PUSH1 0x40 MLOAD DUP1 PUSH1 0xC0 ADD PUSH1 0x40 MSTORE DUP1 DUP5 DUP2 MSTORE PUSH1 0x20 ADD DUP4 DUP2 MSTORE PUSH1 0x20 ADD PUSH1 0x0 PUSH1 0x2 DUP2 GT ISZERO PUSH2 0x39AE JUMPI INVALID JUMPDEST DUP2 MSTORE PUSH1 0x20 ADD PUSH1 0x0 DUP2 MSTORE PUSH1 0x20 ADD PUSH1 0x0 DUP2 MSTORE PUSH1 0x20 ADD PUSH1 0x0 DUP2 MSTORE POP PUSH1 0x2 PUSH1 0x0 DUP6 DUP2 MSTORE PUSH1 0x20 ADD SWAP1 DUP2 MSTORE PUSH1 0x20 ADD PUSH1 0x0 KECCAK256 PUSH1 0x0 DUP3 ADD MLOAD DUP2 PUSH1 0x0 ADD SSTORE PUSH1 0x20 DUP3 ADD MLOAD DUP2 PUSH1 0x1 ADD SWAP1 DUP1 MLOAD SWAP1 PUSH1 0x20 ADD SWAP1 PUSH2 0x39FF SWAP3 SWAP2 SWAP1 PUSH2 0x3D6E JUMP JUMPDEST POP PUSH1 0x40 DUP3 ADD MLOAD DUP2 PUSH1 0x2 ADD PUSH1 0x0 PUSH2 0x100 EXP DUP2 SLOAD DUP2 PUSH1 0xFF MUL NOT AND SWAP1 DUP4 PUSH1 0x2 DUP2 GT ISZERO PUSH2 0x3A24 JUMPI INVALID JUMPDEST MUL OR SWAP1 SSTORE POP PUSH1 0x60 DUP3 ADD MLOAD DUP2 PUSH1 0x3 ADD SSTORE PUSH1 0x80 DUP3 ADD MLOAD DUP2 PUSH1 0x4 ADD SSTORE PUSH1 0xA0 DUP3 ADD MLOAD DUP2 PUSH1 0x5 ADD SSTORE SWAP1 POP POP PUSH1 0x1 DUP1 PUSH1 0x0 DUP3 DUP3 SLOAD ADD SWAP3 POP POP DUP2 SWAP1 SSTORE POP PUSH32 0x4FA248E6733F80AAC55BC1C8851C2F07BCA8E891B888F7CD781A4053503A8920 PUSH1 0x2 PUSH1 0x0 DUP6 DUP2 MSTORE PUSH1 0x20 ADD SWAP1 DUP2 MSTORE PUSH1 0x20 ADD PUSH1 0x0 KECCAK256 PUSH1 0x0 ADD SLOAD PUSH1 0x2 PUSH1 0x0 DUP7 DUP2 MSTORE PUSH1 0x20 ADD SWAP1 DUP2 MSTORE PUSH1 0x20 ADD PUSH1 0x0 KECCAK256 PUSH1 0x1 ADD PUSH1 0x2 PUSH1 0x0 DUP8 DUP2 MSTORE PUSH1 0x20 ADD SWAP1 DUP2 MSTORE PUSH1 0x20 ADD PUSH1 0x0 KECCAK256 PUSH1 0x2 ADD PUSH1 0x0 SWAP1 SLOAD SWAP1 PUSH2 0x100 EXP SWAP1 DIV PUSH1 0xFF AND PUSH1 0x40 MLOAD DUP1 DUP5 DUP2 MSTORE PUSH1 0x20 ADD DUP1 PUSH1 0x20 ADD DUP4 PUSH1 0x2 DUP2 GT ISZERO PUSH2 0x3AE6 JUMPI INVALID JUMPDEST PUSH1 0xFF AND DUP2 MSTORE PUSH1 0x20 ADD DUP3 DUP2 SUB DUP3 MSTORE DUP5 DUP2 DUP2 SLOAD PUSH1 0x1 DUP2 PUSH1 0x1 AND ISZERO PUSH2 0x100 MUL SUB AND PUSH1 0x2 SWAP1 DIV DUP2 MSTORE PUSH1 0x20 ADD SWAP2 POP DUP1 SLOAD PUSH1 0x1 DUP2 PUSH1 0x1 AND ISZERO PUSH2 0x100 MUL SUB AND PUSH1 0x2 SWAP1 DIV DUP1 ISZERO PUSH2 0x3B6F JUMPI DUP1 PUSH1 0x1F LT PUSH2 0x3B44 JUMPI PUSH2 0x100 DUP1 DUP4 SLOAD DIV MUL DUP4 MSTORE SWAP2 PUSH1 0x20 ADD SWAP2 PUSH2 0x3B6F JUMP JUMPDEST DUP3 ADD SWAP2 SWAP1 PUSH1 0x0 MSTORE PUSH1 0x20 PUSH1 0x0 KECCAK256 SWAP1 JUMPDEST DUP2 SLOAD DUP2 MSTORE SWAP1 PUSH1 0x1 ADD SWAP1 PUSH1 0x20 ADD DUP1 DUP4 GT PUSH2 0x3B52 JUMPI DUP3 SWAP1 SUB PUSH1 0x1F AND DUP3 ADD SWAP2 JUMPDEST POP POP SWAP5 POP POP POP POP POP PUSH1 0x40 MLOAD DUP1 SWAP2 SUB SWAP1 LOG1 POP POP POP JUMP JUMPDEST PUSH1 0x4 PUSH1 0x20 MSTORE DUP2 PUSH1 0x0 MSTORE PUSH1 0x40 PUSH1 0x0 KECCAK256 DUP2 DUP2 SLOAD DUP2 LT PUSH2 0x3B9D JUMPI INVALID JUMPDEST SWAP1 PUSH1 0x0 MSTORE PUSH1 0x20 PUSH1 0x0 KECCAK256 ADD PUSH1 0x0 SWAP2 POP SWAP2 POP POP SLOAD DUP2 JUMP JUMPDEST PUSH1 0x0 DUP1 PUSH1 0x0 SWAP1 POP DUP1 DUP1 PUSH1 0x1 ADD SWAP2 POP POP PUSH1 0x0 DUP4 TIMESTAMP CALLER DUP5 PUSH1 0x40 MLOAD PUSH1 0x20 ADD DUP1 DUP5 DUP2 MSTORE PUSH1 0x20 ADD DUP4 PUSH20 0xFFFFFFFFFFFFFFFFFFFFFFFFFFFFFFFFFFFFFFFF AND PUSH20 0xFFFFFFFFFFFFFFFFFFFFFFFFFFFFFFFFFFFFFFFF AND PUSH1 0x60 SHL DUP2 MSTORE PUSH1 0x14 ADD DUP3 DUP2 MSTORE PUSH1 0x20 ADD SWAP4 POP POP POP POP PUSH1 0x40 MLOAD PUSH1 0x20 DUP2 DUP4 SUB SUB DUP2 MSTORE SWAP1 PUSH1 0x40 MSTORE DUP1 MLOAD SWAP1 PUSH1 0x20 ADD KECCAK256 PUSH1 0x0 SHR DUP2 PUSH2 0x3C34 JUMPI INVALID JUMPDEST MOD SWAP1 POP DUP1 SWAP3 POP POP POP SWAP2 SWAP1 POP JUMP JUMPDEST PUSH1 0x60 PUSH1 0x0 DUP3 EQ ISZERO PUSH2 0x3C89 JUMPI PUSH1 0x40 MLOAD DUP1 PUSH1 0x40 ADD PUSH1 0x40 MSTORE DUP1 PUSH1 0x1 DUP2 MSTORE PUSH1 0x20 ADD PUSH32 0x3000000000000000000000000000000000000000000000000000000000000000 DUP2 MSTORE POP SWAP1 POP PUSH2 0x3D69 JUMP JUMPDEST PUSH1 0x0 DUP3 SWAP1 POP PUSH1 0x0 JUMPDEST PUSH1 0x0 DUP3 EQ PUSH2 0x3CB3 JUMPI DUP1 DUP1 PUSH1 0x1 ADD SWAP2 POP POP PUSH1 0xA DUP3 DUP2 PUSH2 0x3CAB JUMPI INVALID JUMPDEST DIV SWAP2 POP PUSH2 0x3C91 JUMP JUMPDEST PUSH1 0x60 DUP2 PUSH1 0x40 MLOAD SWAP1 DUP1 DUP3 MSTORE DUP1 PUSH1 0x1F ADD PUSH1 0x1F NOT AND PUSH1 0x20 ADD DUP3 ADD PUSH1 0x40 MSTORE DUP1 ISZERO PUSH2 0x3CE8 JUMPI DUP2 PUSH1 0x20 ADD PUSH1 0x1 DUP3 MUL DUP1 CODESIZE DUP4 CODECOPY DUP1 DUP3 ADD SWAP2 POP POP SWAP1 POP JUMPDEST POP SWAP1 POP PUSH1 0x0 PUSH1 0x1 DUP4 SUB SWAP1 POP JUMPDEST PUSH1 0x0 DUP7 EQ PUSH2 0x3D61 JUMPI PUSH1 0xA DUP7 DUP2 PUSH2 0x3D06 JUMPI INVALID JUMPDEST MOD PUSH1 0x30 ADD PUSH1 0xF8 SHL DUP3 DUP3 DUP1 PUSH1 0x1 SWAP1 SUB SWAP4 POP DUP2 MLOAD DUP2 LT PUSH2 0x3D20 JUMPI INVALID JUMPDEST PUSH1 0x20 ADD ADD SWAP1 PUSH31 0xFFFFFFFFFFFFFFFFFFFFFFFFFFFFFFFFFFFFFFFFFFFFFFFFFFFFFFFFFFFFFF NOT AND SWAP1 DUP2 PUSH1 0x0 BYTE SWAP1 MSTORE8 POP PUSH1 0xA DUP7 DUP2 PUSH2 0x3D59 JUMPI INVALID JUMPDEST DIV SWAP6 POP PUSH2 0x3CF4 JUMP JUMPDEST DUP2 SWAP5 POP POP POP POP POP JUMPDEST SWAP2 SWAP1 POP JUMP JUMPDEST DUP3 DUP1 SLOAD PUSH1 0x1 DUP2 PUSH1 0x1 AND ISZERO PUSH2 0x100 MUL SUB AND PUSH1 0x2 SWAP1 DIV SWAP1 PUSH1 0x0 MSTORE PUSH1 0x20 PUSH1 0x0 KECCAK256 SWAP1 PUSH1 0x1F ADD PUSH1 0x20 SWAP1 DIV DUP2 ADD SWAP3 DUP3 PUSH1 0x1F LT PUSH2 0x3DAF JUMPI DUP1 MLOAD PUSH1 0xFF NOT AND DUP4 DUP1 ADD OR DUP6 SSTORE PUSH2 0x3DDD JUMP JUMPDEST DUP3 DUP1 ADD PUSH1 0x1 ADD DUP6 SSTORE DUP3 ISZERO PUSH2 0x3DDD JUMPI SWAP2 DUP3 ADD JUMPDEST DUP3 DUP2 GT ISZERO PUSH2 0x3DDC JUMPI DUP3 MLOAD DUP3 SSTORE SWAP2 PUSH1 0x20 ADD SWAP2 SWAP1 PUSH1 0x1 ADD SWAP1 PUSH2 0x3DC1 JUMP JUMPDEST JUMPDEST POP SWAP1 POP PUSH2 0x3DEA SWAP2 SWAP1 PUSH2 0x3DEE JUMP JUMPDEST POP SWAP1 JUMP JUMPDEST PUSH2 0x3E10 SWAP2 SWAP1 JUMPDEST DUP1 DUP3 GT ISZERO PUSH2 0x3E0C JUMPI PUSH1 0x0 DUP2 PUSH1 0x0 SWAP1 SSTORE POP PUSH1 0x1 ADD PUSH2 0x3DF4 JUMP JUMPDEST POP SWAP1 JUMP JUMPDEST SWAP1 JUMP INVALID MSTORE8 PUSH16 0x6C6F2073652070756564652061706F73 PUSH21 0x617220706F7220756E20636162616C6C6F2064656E PUSH21 0x726F20646520657374612063617272657261596120 PUSH6 0x786973746520 PUSH22 0x6E61206361727265726120636F6E20657374652063C3 0xB3 PUSH5 0x69676F4C61 KECCAK256 PUSH4 0x61727265 PUSH19 0x61206465626520636F6E74617220636F6E2061 PUSH13 0x206D656E6F7320322063616261 PUSH13 0x6C6F73456C20696E766F636164 PUSH16 0x7220646562652073657220656C20616E PUSH7 0x697472696F6E4C PUSH2 0x2063 PUSH2 0x7272 PUSH6 0x726120796120 PUSH4 0x75656E74 PUSH2 0x2063 PUSH16 0x6E203520636162616C6C6F734C612063 PUSH2 0x7272 PUSH6 0x726120696E67 PUSH19 0x6573616461206E6F207469656E652063616261 PUSH13 0x6C6F73456C206D6F6E746F2064 PUSH6 0x206C61206170 PUSH22 0x65737461206465626520736572206D61796F72206120 ADDRESS 0x4C PUSH2 0x2063 PUSH2 0x7272 PUSH6 0x726120696E67 PUSH19 0x6573616461206E6F207469656E652061706F73 PUSH21 0x61646F7265734573746520636162616C6C6F206E6F KECCAK256 PUSH20 0x6520656E6375656E747261207265676973747261 PUSH5 0x6F20656E20 PUSH6 0x737461206361 PUSH19 0x72657261456C20696E766F6361646F72206465 PUSH3 0x652073 PUSH6 0x7220756E2075 PUSH20 0x756172696F206469666572656E746520616C2061 PUSH15 0x66697472696F6E5961206578697374 PUSH6 0x20756E206361 PUSH3 0x616C6C PUSH16 0x20636F6E20657374652063C3B3646967 PUSH16 0x4573746520636162616C6C6F20796120 PUSH20 0x6520656E6375656E747261207265676973747261 PUSH5 0x6F20656E20 PUSH6 0x737461206361 PUSH19 0x726572614C612063617272657261206E6F2063 PUSH22 0x6D706C6520636F6E20656C2065737461646F20726571 PUSH22 0x657269646FA2646970667358221220DC350735CEDCEB 0x4F 0xD8 KECCAK256 0xD8 0xAF MULMOD SAR GASPRICE PUSH9 0xEC1D5E76108FBF4D63 PUSH23 0xE0D48C798BC864736F6C63430006000033000000000000 "
				},
				"gasEstimates": {
					"creation": {
						"codeDepositCost": "3304600",
						"executionCost": "24541",
						"totalCost": "3329141"
					},
					"external": {
						"anfitrion()": "1076",
						"apostadores(uint256,uint256)": "2160",
						"apostar(uint256,uint256)": "infinite",
						"caballos(uint256)": "infinite",
						"carreras(uint256)": "infinite",
						"competencias(uint256,uint256)": "2182",
						"crearCarrera(uint256,string)": "infinite",
						"getAddressApostador(uint256,uint256)": "infinite",
						"getApostadorGanador(uint256)": "infinite",
						"getCaballoGanador(uint256)": "infinite",
						"getCaballosEnCarrera(uint256)": "infinite",
						"getEstadoCarrera(uint256)": "infinite",
						"registrarCaballo(uint256,string)": "infinite",
						"registrarCarrera(uint256)": "infinite",
						"registrarEnCarrera(uint256,uint256)": "infinite",
						"terminarCarrera(uint256)": "infinite",
						"totalCarreras()": "1094"
					},
					"internal": {
						"generarAleatorio(uint256)": "infinite",
						"uint2str(uint256)": "infinite"
					}
				},
				"methodIdentifiers": {
					"anfitrion()": "456f4b57",
					"apostadores(uint256,uint256)": "dfe22b5f",
					"apostar(uint256,uint256)": "f2f6da3e",
					"caballos(uint256)": "f0b73b54",
					"carreras(uint256)": "5ee81666",
					"competencias(uint256,uint256)": "fb34d0f7",
					"crearCarrera(uint256,string)": "f9d32e49",
					"getAddressApostador(uint256,uint256)": "d066cebe",
					"getApostadorGanador(uint256)": "286f6b4c",
					"getCaballoGanador(uint256)": "79b31e69",
					"getCaballosEnCarrera(uint256)": "1b895c2f",
					"getEstadoCarrera(uint256)": "e6581b9d",
					"registrarCaballo(uint256,string)": "5194f59c",
					"registrarCarrera(uint256)": "f7edd6db",
					"registrarEnCarrera(uint256,uint256)": "26d1c7d0",
					"terminarCarrera(uint256)": "010a0e95",
					"totalCarreras()": "e9ec5583"
				}
			},
			"storageLayout": {
				"storage": [
					{
						"astId": 3,
						"contract": "casaApuestas.sol:casaApuestas",
						"label": "anfitrion",
						"offset": 0,
						"slot": "0",
						"type": "t_address"
					},
					{
						"astId": 9,
						"contract": "casaApuestas.sol:casaApuestas",
						"label": "totalCarreras",
						"offset": 0,
						"slot": "1",
						"type": "t_uint256"
					},
					{
						"astId": 13,
						"contract": "casaApuestas.sol:casaApuestas",
						"label": "carreras",
						"offset": 0,
						"slot": "2",
						"type": "t_mapping(t_uint256,t_struct(Carrera)90_storage)"
					},
					{
						"astId": 17,
						"contract": "casaApuestas.sol:casaApuestas",
						"label": "caballos",
						"offset": 0,
						"slot": "3",
						"type": "t_mapping(t_uint256,t_struct(Caballo)95_storage)"
					},
					{
						"astId": 22,
						"contract": "casaApuestas.sol:casaApuestas",
						"label": "competencias",
						"offset": 0,
						"slot": "4",
						"type": "t_mapping(t_uint256,t_array(t_uint256)dyn_storage)"
					},
					{
						"astId": 27,
						"contract": "casaApuestas.sol:casaApuestas",
						"label": "apostadores",
						"offset": 0,
						"slot": "5",
						"type": "t_mapping(t_uint256,t_array(t_address)dyn_storage)"
					}
				],
				"types": {
					"t_address": {
						"encoding": "inplace",
						"label": "address",
						"numberOfBytes": "20"
					},
					"t_array(t_address)dyn_storage": {
						"base": "t_address",
						"encoding": "dynamic_array",
						"label": "address[]",
						"numberOfBytes": "32"
					},
					"t_array(t_uint256)dyn_storage": {
						"base": "t_uint256",
						"encoding": "dynamic_array",
						"label": "uint256[]",
						"numberOfBytes": "32"
					},
					"t_bool": {
						"encoding": "inplace",
						"label": "bool",
						"numberOfBytes": "1"
					},
					"t_enum(Estado)7": {
						"encoding": "inplace",
						"label": "enum casaApuestas.Estado",
						"numberOfBytes": "1"
					},
					"t_mapping(t_address,t_struct(Apuesta)106_storage)": {
						"encoding": "mapping",
						"key": "t_address",
						"label": "mapping(address => struct casaApuestas.Apuesta)",
						"numberOfBytes": "32",
						"value": "t_struct(Apuesta)106_storage"
					},
					"t_mapping(t_uint256,t_array(t_address)dyn_storage)": {
						"encoding": "mapping",
						"key": "t_uint256",
						"label": "mapping(uint256 => address[])",
						"numberOfBytes": "32",
						"value": "t_array(t_address)dyn_storage"
					},
					"t_mapping(t_uint256,t_array(t_uint256)dyn_storage)": {
						"encoding": "mapping",
						"key": "t_uint256",
						"label": "mapping(uint256 => uint256[])",
						"numberOfBytes": "32",
						"value": "t_array(t_uint256)dyn_storage"
					},
					"t_mapping(t_uint256,t_struct(Caballo)95_storage)": {
						"encoding": "mapping",
						"key": "t_uint256",
						"label": "mapping(uint256 => struct casaApuestas.Caballo)",
						"numberOfBytes": "32",
						"value": "t_struct(Caballo)95_storage"
					},
					"t_mapping(t_uint256,t_struct(Carrera)90_storage)": {
						"encoding": "mapping",
						"key": "t_uint256",
						"label": "mapping(uint256 => struct casaApuestas.Carrera)",
						"numberOfBytes": "32",
						"value": "t_struct(Carrera)90_storage"
					},
					"t_string_storage": {
						"encoding": "bytes",
						"label": "string",
						"numberOfBytes": "32"
					},
					"t_struct(Apuesta)106_storage": {
						"encoding": "inplace",
						"label": "struct casaApuestas.Apuesta",
						"members": [
							{
								"astId": 97,
								"contract": "casaApuestas.sol:casaApuestas",
								"label": "monto",
								"offset": 0,
								"slot": "0",
								"type": "t_uint256"
							},
							{
								"astId": 99,
								"contract": "casaApuestas.sol:casaApuestas",
								"label": "codCaballo",
								"offset": 0,
								"slot": "1",
								"type": "t_uint256"
							},
							{
								"astId": 101,
								"contract": "casaApuestas.sol:casaApuestas",
								"label": "creada",
								"offset": 0,
								"slot": "2",
								"type": "t_bool"
							},
							{
								"astId": 103,
								"contract": "casaApuestas.sol:casaApuestas",
								"label": "proporcion",
								"offset": 0,
								"slot": "3",
								"type": "t_uint256"
							},
							{
								"astId": 105,
								"contract": "casaApuestas.sol:casaApuestas",
								"label": "dineroTransferido",
								"offset": 0,
								"slot": "4",
								"type": "t_uint256"
							}
						],
						"numberOfBytes": "160"
					},
					"t_struct(Caballo)95_storage": {
						"encoding": "inplace",
						"label": "struct casaApuestas.Caballo",
						"members": [
							{
								"astId": 92,
								"contract": "casaApuestas.sol:casaApuestas",
								"label": "codigo",
								"offset": 0,
								"slot": "0",
								"type": "t_uint256"
							},
							{
								"astId": 94,
								"contract": "casaApuestas.sol:casaApuestas",
								"label": "nombre",
								"offset": 0,
								"slot": "1",
								"type": "t_string_storage"
							}
						],
						"numberOfBytes": "64"
					},
					"t_struct(Carrera)90_storage": {
						"encoding": "inplace",
						"label": "struct casaApuestas.Carrera",
						"members": [
							{
								"astId": 75,
								"contract": "casaApuestas.sol:casaApuestas",
								"label": "codigo",
								"offset": 0,
								"slot": "0",
								"type": "t_uint256"
							},
							{
								"astId": 77,
								"contract": "casaApuestas.sol:casaApuestas",
								"label": "nombre",
								"offset": 0,
								"slot": "1",
								"type": "t_string_storage"
							},
							{
								"astId": 79,
								"contract": "casaApuestas.sol:casaApuestas",
								"label": "estadoCarrera",
								"offset": 0,
								"slot": "2",
								"type": "t_enum(Estado)7"
							},
							{
								"astId": 81,
								"contract": "casaApuestas.sol:casaApuestas",
								"label": "montoTotal",
								"offset": 0,
								"slot": "3",
								"type": "t_uint256"
							},
							{
								"astId": 83,
								"contract": "casaApuestas.sol:casaApuestas",
								"label": "numeroCaballos",
								"offset": 0,
								"slot": "4",
								"type": "t_uint256"
							},
							{
								"astId": 85,
								"contract": "casaApuestas.sol:casaApuestas",
								"label": "caballoGanador",
								"offset": 0,
								"slot": "5",
								"type": "t_uint256"
							},
							{
								"astId": 89,
								"contract": "casaApuestas.sol:casaApuestas",
								"label": "apuestas",
								"offset": 0,
								"slot": "6",
								"type": "t_mapping(t_address,t_struct(Apuesta)106_storage)"
							}
						],
						"numberOfBytes": "224"
					},
					"t_uint256": {
						"encoding": "inplace",
						"label": "uint256",
						"numberOfBytes": "32"
					}
				}
			},
			"userdoc": {
				"methods": {}
			}
		}
	}
}