{
	"Solidity_BD2/casaApuestas.sol": {
		"casaApuestas": {
			"abi": [
				{
					"inputs": [],
					"stateMutability": "nonpayable",
					"type": "constructor"
				},
				{
					"anonymous": false,
					"inputs": [
						{
							"indexed": false,
							"internalType": "uint256",
							"name": "valor",
							"type": "uint256"
						}
					],
					"name": "Printazo",
					"type": "event"
				},
				{
					"inputs": [],
					"name": "anfitrion",
					"outputs": [
						{
							"internalType": "address",
							"name": "",
							"type": "address"
						}
					],
					"stateMutability": "view",
					"type": "function"
				},
				{
					"inputs": [
						{
							"internalType": "uint256",
							"name": "",
							"type": "uint256"
						},
						{
							"internalType": "uint256",
							"name": "",
							"type": "uint256"
						}
					],
					"name": "apostadores",
					"outputs": [
						{
							"internalType": "address",
							"name": "",
							"type": "address"
						}
					],
					"stateMutability": "view",
					"type": "function"
				},
				{
					"inputs": [
						{
							"internalType": "uint256",
							"name": "_codCaballo",
							"type": "uint256"
						},
						{
							"internalType": "uint256",
							"name": "_codCarrera",
							"type": "uint256"
						}
					],
					"name": "apostar",
					"outputs": [],
					"stateMutability": "payable",
					"type": "function"
				},
				{
					"inputs": [
						{
							"internalType": "uint256",
							"name": "",
							"type": "uint256"
						}
					],
					"name": "caballos",
					"outputs": [
						{
							"internalType": "uint256",
							"name": "codigo",
							"type": "uint256"
						},
						{
							"internalType": "string",
							"name": "nombre",
							"type": "string"
						}
					],
					"stateMutability": "view",
					"type": "function"
				},
				{
					"inputs": [
						{
							"internalType": "uint256",
							"name": "",
							"type": "uint256"
						}
					],
					"name": "carreras",
					"outputs": [
						{
							"internalType": "uint256",
							"name": "codigo",
							"type": "uint256"
						},
						{
							"internalType": "string",
							"name": "nombre",
							"type": "string"
						},
						{
							"internalType": "enum casaApuestas.Estado",
							"name": "estadoCarrera",
							"type": "uint8"
						},
						{
							"internalType": "uint256",
							"name": "montoTotal",
							"type": "uint256"
						},
						{
							"internalType": "uint256",
							"name": "numeroCaballos",
							"type": "uint256"
						},
						{
							"internalType": "uint256",
							"name": "caballoGanador",
							"type": "uint256"
						}
					],
					"stateMutability": "view",
					"type": "function"
				},
				{
					"inputs": [
						{
							"internalType": "uint256",
							"name": "",
							"type": "uint256"
						},
						{
							"internalType": "uint256",
							"name": "",
							"type": "uint256"
						}
					],
					"name": "competencias",
					"outputs": [
						{
							"internalType": "uint256",
							"name": "",
							"type": "uint256"
						}
					],
					"stateMutability": "view",
					"type": "function"
				},
				{
					"inputs": [
						{
							"internalType": "uint256",
							"name": "_codigo",
							"type": "uint256"
						},
						{
							"internalType": "string",
							"name": "_nombre",
							"type": "string"
						}
					],
					"name": "crearCarrera",
					"outputs": [],
					"stateMutability": "nonpayable",
					"type": "function"
				},
				{
					"inputs": [
						{
							"internalType": "uint256",
							"name": "_codCarrera",
							"type": "uint256"
						}
					],
					"name": "getApostadorGanador",
					"outputs": [
						{
							"internalType": "string",
							"name": "",
							"type": "string"
						}
					],
					"stateMutability": "view",
					"type": "function"
				},
				{
					"inputs": [
						{
							"internalType": "uint256",
							"name": "_codCarrera",
							"type": "uint256"
						}
					],
					"name": "getCaballoGanador",
					"outputs": [
						{
							"internalType": "uint256",
							"name": "",
							"type": "uint256"
						}
					],
					"stateMutability": "view",
					"type": "function"
				},
				{
					"inputs": [
						{
							"internalType": "uint256",
							"name": "_codCarrera",
							"type": "uint256"
						}
					],
					"name": "getCaballosEnCarrera",
					"outputs": [
						{
							"internalType": "string",
							"name": "",
							"type": "string"
						}
					],
					"stateMutability": "view",
					"type": "function"
				},
				{
					"inputs": [
						{
							"internalType": "uint256",
							"name": "_codCarrera",
							"type": "uint256"
						}
					],
					"name": "getEstadoCarrera",
					"outputs": [
						{
							"internalType": "string",
							"name": "",
							"type": "string"
						}
					],
					"stateMutability": "view",
					"type": "function"
				},
				{
					"inputs": [
						{
							"internalType": "uint256",
							"name": "_codigo",
							"type": "uint256"
						},
						{
							"internalType": "string",
							"name": "_nombre",
							"type": "string"
						}
					],
					"name": "registrarCaballo",
					"outputs": [],
					"stateMutability": "nonpayable",
					"type": "function"
				},
				{
					"inputs": [
						{
							"internalType": "uint256",
							"name": "_codCarrera",
							"type": "uint256"
						}
					],
					"name": "registrarCarrera",
					"outputs": [],
					"stateMutability": "nonpayable",
					"type": "function"
				},
				{
					"inputs": [
						{
							"internalType": "uint256",
							"name": "_codCaballo",
							"type": "uint256"
						},
						{
							"internalType": "uint256",
							"name": "_codCarrera",
							"type": "uint256"
						}
					],
					"name": "registrarEnCarrera",
					"outputs": [],
					"stateMutability": "nonpayable",
					"type": "function"
				},
				{
					"inputs": [
						{
							"internalType": "uint256",
							"name": "_codCarrera",
							"type": "uint256"
						}
					],
					"name": "terminarCarrera",
					"outputs": [],
					"stateMutability": "payable",
					"type": "function"
				},
				{
					"inputs": [],
					"name": "totalCarreras",
					"outputs": [
						{
							"internalType": "uint256",
							"name": "",
							"type": "uint256"
						}
					],
					"stateMutability": "view",
					"type": "function"
				}
			],
			"devdoc": {
				"methods": {}
			},
			"evm": {
				"assembly": "    /* \"Solidity_BD2/casaApuestas.sol\":27:12312  contract casaApuestas{\r... */\n  mstore(0x40, 0x80)\n    /* \"Solidity_BD2/casaApuestas.sol\":1139:1201  constructor() public {\r... */\n  callvalue\n    /* \"--CODEGEN--\":8:17   */\n  dup1\n    /* \"--CODEGEN--\":5:7   */\n  iszero\n  tag_1\n  jumpi\n    /* \"--CODEGEN--\":30:31   */\n  0x00\n    /* \"--CODEGEN--\":27:28   */\n  dup1\n    /* \"--CODEGEN--\":20:32   */\n  revert\n    /* \"--CODEGEN--\":5:7   */\ntag_1:\n    /* \"Solidity_BD2/casaApuestas.sol\":1139:1201  constructor() public {\r... */\n  pop\n    /* \"Solidity_BD2/casaApuestas.sol\":1183:1193  msg.sender */\n  caller\n    /* \"Solidity_BD2/casaApuestas.sol\":1171:1180  anfitrion */\n  0x00\n  dup1\n    /* \"Solidity_BD2/casaApuestas.sol\":1171:1193  anfitrion = msg.sender */\n  0x0100\n  exp\n  dup2\n  sload\n  dup2\n  0xffffffffffffffffffffffffffffffffffffffff\n  mul\n  not\n  and\n  swap1\n  dup4\n  0xffffffffffffffffffffffffffffffffffffffff\n  and\n  mul\n  or\n  swap1\n  sstore\n  pop\n    /* \"Solidity_BD2/casaApuestas.sol\":27:12312  contract casaApuestas{\r... */\n  dataSize(sub_0)\n  dup1\n  dataOffset(sub_0)\n  0x00\n  codecopy\n  0x00\n  return\nstop\n\nsub_0: assembly {\n        /* \"Solidity_BD2/casaApuestas.sol\":27:12312  contract casaApuestas{\r... */\n      mstore(0x40, 0x80)\n      jumpi(tag_1, lt(calldatasize, 0x04))\n      shr(0xe0, calldataload(0x00))\n      dup1\n      0xdfe22b5f\n      gt\n      tag_18\n      jumpi\n      dup1\n      0xf2f6da3e\n      gt\n      tag_19\n      jumpi\n      dup1\n      0xf2f6da3e\n      eq\n      tag_14\n      jumpi\n      dup1\n      0xf7edd6db\n      eq\n      tag_15\n      jumpi\n      dup1\n      0xf9d32e49\n      eq\n      tag_16\n      jumpi\n      dup1\n      0xfb34d0f7\n      eq\n      tag_17\n      jumpi\n      jump(tag_1)\n    tag_19:\n      dup1\n      0xdfe22b5f\n      eq\n      tag_10\n      jumpi\n      dup1\n      0xe6581b9d\n      eq\n      tag_11\n      jumpi\n      dup1\n      0xe9ec5583\n      eq\n      tag_12\n      jumpi\n      dup1\n      0xf0b73b54\n      eq\n      tag_13\n      jumpi\n      jump(tag_1)\n    tag_18:\n      dup1\n      0x456f4b57\n      gt\n      tag_20\n      jumpi\n      dup1\n      0x456f4b57\n      eq\n      tag_6\n      jumpi\n      dup1\n      0x5194f59c\n      eq\n      tag_7\n      jumpi\n      dup1\n      0x5ee81666\n      eq\n      tag_8\n      jumpi\n      dup1\n      0x79b31e69\n      eq\n      tag_9\n      jumpi\n      jump(tag_1)\n    tag_20:\n      dup1\n      0x010a0e95\n      eq\n      tag_2\n      jumpi\n      dup1\n      0x1b895c2f\n      eq\n      tag_3\n      jumpi\n      dup1\n      0x26d1c7d0\n      eq\n      tag_4\n      jumpi\n      dup1\n      0x286f6b4c\n      eq\n      tag_5\n      jumpi\n    tag_1:\n      0x00\n      dup1\n      revert\n        /* \"Solidity_BD2/casaApuestas.sol\":6867:9270  function terminarCarrera(uint _codCarrera) payable public\r... */\n    tag_2:\n      tag_21\n      0x04\n      dup1\n      calldatasize\n      sub\n        /* \"--CODEGEN--\":13:15   */\n      0x20\n        /* \"--CODEGEN--\":8:11   */\n      dup2\n        /* \"--CODEGEN--\":5:16   */\n      lt\n        /* \"--CODEGEN--\":2:4   */\n      iszero\n      tag_22\n      jumpi\n        /* \"--CODEGEN--\":29:30   */\n      0x00\n        /* \"--CODEGEN--\":26:27   */\n      dup1\n        /* \"--CODEGEN--\":19:31   */\n      revert\n        /* \"--CODEGEN--\":2:4   */\n    tag_22:\n        /* \"Solidity_BD2/casaApuestas.sol\":6867:9270  function terminarCarrera(uint _codCarrera) payable public\r... */\n      dup2\n      add\n      swap1\n      dup1\n      dup1\n      calldataload\n      swap1\n      0x20\n      add\n      swap1\n      swap3\n      swap2\n      swap1\n      pop\n      pop\n      pop\n      tag_23\n      jump\t// in\n    tag_21:\n      stop\n        /* \"Solidity_BD2/casaApuestas.sol\":9278:10179  function getCaballosEnCarrera(uint _codCarrera) public view returns(string memory) {\r... */\n    tag_3:\n      callvalue\n        /* \"--CODEGEN--\":8:17   */\n      dup1\n        /* \"--CODEGEN--\":5:7   */\n      iszero\n      tag_24\n      jumpi\n        /* \"--CODEGEN--\":30:31   */\n      0x00\n        /* \"--CODEGEN--\":27:28   */\n      dup1\n        /* \"--CODEGEN--\":20:32   */\n      revert\n        /* \"--CODEGEN--\":5:7   */\n    tag_24:\n        /* \"Solidity_BD2/casaApuestas.sol\":9278:10179  function getCaballosEnCarrera(uint _codCarrera) public view returns(string memory) {\r... */\n      pop\n      tag_25\n      0x04\n      dup1\n      calldatasize\n      sub\n        /* \"--CODEGEN--\":13:15   */\n      0x20\n        /* \"--CODEGEN--\":8:11   */\n      dup2\n        /* \"--CODEGEN--\":5:16   */\n      lt\n        /* \"--CODEGEN--\":2:4   */\n      iszero\n      tag_26\n      jumpi\n        /* \"--CODEGEN--\":29:30   */\n      0x00\n        /* \"--CODEGEN--\":26:27   */\n      dup1\n        /* \"--CODEGEN--\":19:31   */\n      revert\n        /* \"--CODEGEN--\":2:4   */\n    tag_26:\n        /* \"Solidity_BD2/casaApuestas.sol\":9278:10179  function getCaballosEnCarrera(uint _codCarrera) public view returns(string memory) {\r... */\n      dup2\n      add\n      swap1\n      dup1\n      dup1\n      calldataload\n      swap1\n      0x20\n      add\n      swap1\n      swap3\n      swap2\n      swap1\n      pop\n      pop\n      pop\n      tag_27\n      jump\t// in\n    tag_25:\n      mload(0x40)\n      dup1\n      dup1\n      0x20\n      add\n      dup3\n      dup2\n      sub\n      dup3\n      mstore\n      dup4\n      dup2\n      dup2\n      mload\n      dup2\n      mstore\n      0x20\n      add\n      swap2\n      pop\n      dup1\n      mload\n      swap1\n      0x20\n      add\n      swap1\n      dup1\n      dup4\n      dup4\n        /* \"--CODEGEN--\":23:24   */\n      0x00\n        /* \"--CODEGEN--\":8:108   */\n    tag_28:\n        /* \"--CODEGEN--\":33:36   */\n      dup4\n        /* \"--CODEGEN--\":30:31   */\n      dup2\n        /* \"--CODEGEN--\":27:37   */\n      lt\n        /* \"--CODEGEN--\":8:108   */\n      iszero\n      tag_30\n      jumpi\n        /* \"--CODEGEN--\":99:100   */\n      dup1\n        /* \"--CODEGEN--\":94:97   */\n      dup3\n        /* \"--CODEGEN--\":90:101   */\n      add\n        /* \"--CODEGEN--\":84:102   */\n      mload\n        /* \"--CODEGEN--\":80:81   */\n      dup2\n        /* \"--CODEGEN--\":75:78   */\n      dup5\n        /* \"--CODEGEN--\":71:82   */\n      add\n        /* \"--CODEGEN--\":64:103   */\n      mstore\n        /* \"--CODEGEN--\":52:54   */\n      0x20\n        /* \"--CODEGEN--\":49:50   */\n      dup2\n        /* \"--CODEGEN--\":45:55   */\n      add\n        /* \"--CODEGEN--\":40:55   */\n      swap1\n      pop\n        /* \"--CODEGEN--\":8:108   */\n      jump(tag_28)\n    tag_30:\n        /* \"--CODEGEN--\":12:26   */\n      pop\n        /* \"Solidity_BD2/casaApuestas.sol\":9278:10179  function getCaballosEnCarrera(uint _codCarrera) public view returns(string memory) {\r... */\n      pop\n      pop\n      pop\n      swap1\n      pop\n      swap1\n      dup2\n      add\n      swap1\n      0x1f\n      and\n      dup1\n      iszero\n      tag_31\n      jumpi\n      dup1\n      dup3\n      sub\n      dup1\n      mload\n      0x01\n      dup4\n      0x20\n      sub\n      0x0100\n      exp\n      sub\n      not\n      and\n      dup2\n      mstore\n      0x20\n      add\n      swap2\n      pop\n    tag_31:\n      pop\n      swap3\n      pop\n      pop\n      pop\n      mload(0x40)\n      dup1\n      swap2\n      sub\n      swap1\n      return\n        /* \"Solidity_BD2/casaApuestas.sol\":4741:5127  function registrarEnCarrera(uint _codCaballo, uint _codCarrera) public \r... */\n    tag_4:\n      callvalue\n        /* \"--CODEGEN--\":8:17   */\n      dup1\n        /* \"--CODEGEN--\":5:7   */\n      iszero\n      tag_32\n      jumpi\n        /* \"--CODEGEN--\":30:31   */\n      0x00\n        /* \"--CODEGEN--\":27:28   */\n      dup1\n        /* \"--CODEGEN--\":20:32   */\n      revert\n        /* \"--CODEGEN--\":5:7   */\n    tag_32:\n        /* \"Solidity_BD2/casaApuestas.sol\":4741:5127  function registrarEnCarrera(uint _codCaballo, uint _codCarrera) public \r... */\n      pop\n      tag_33\n      0x04\n      dup1\n      calldatasize\n      sub\n        /* \"--CODEGEN--\":13:15   */\n      0x40\n        /* \"--CODEGEN--\":8:11   */\n      dup2\n        /* \"--CODEGEN--\":5:16   */\n      lt\n        /* \"--CODEGEN--\":2:4   */\n      iszero\n      tag_34\n      jumpi\n        /* \"--CODEGEN--\":29:30   */\n      0x00\n        /* \"--CODEGEN--\":26:27   */\n      dup1\n        /* \"--CODEGEN--\":19:31   */\n      revert\n        /* \"--CODEGEN--\":2:4   */\n    tag_34:\n        /* \"Solidity_BD2/casaApuestas.sol\":4741:5127  function registrarEnCarrera(uint _codCaballo, uint _codCarrera) public \r... */\n      dup2\n      add\n      swap1\n      dup1\n      dup1\n      calldataload\n      swap1\n      0x20\n      add\n      swap1\n      swap3\n      swap2\n      swap1\n      dup1\n      calldataload\n      swap1\n      0x20\n      add\n      swap1\n      swap3\n      swap2\n      swap1\n      pop\n      pop\n      pop\n      tag_35\n      jump\t// in\n    tag_33:\n      stop\n        /* \"Solidity_BD2/casaApuestas.sol\":10187:11303  function getApostadorGanador(uint _codCarrera) public view returns(string memory) {\r... */\n    tag_5:\n      callvalue\n        /* \"--CODEGEN--\":8:17   */\n      dup1\n        /* \"--CODEGEN--\":5:7   */\n      iszero\n      tag_36\n      jumpi\n        /* \"--CODEGEN--\":30:31   */\n      0x00\n        /* \"--CODEGEN--\":27:28   */\n      dup1\n        /* \"--CODEGEN--\":20:32   */\n      revert\n        /* \"--CODEGEN--\":5:7   */\n    tag_36:\n        /* \"Solidity_BD2/casaApuestas.sol\":10187:11303  function getApostadorGanador(uint _codCarrera) public view returns(string memory) {\r... */\n      pop\n      tag_37\n      0x04\n      dup1\n      calldatasize\n      sub\n        /* \"--CODEGEN--\":13:15   */\n      0x20\n        /* \"--CODEGEN--\":8:11   */\n      dup2\n        /* \"--CODEGEN--\":5:16   */\n      lt\n        /* \"--CODEGEN--\":2:4   */\n      iszero\n      tag_38\n      jumpi\n        /* \"--CODEGEN--\":29:30   */\n      0x00\n        /* \"--CODEGEN--\":26:27   */\n      dup1\n        /* \"--CODEGEN--\":19:31   */\n      revert\n        /* \"--CODEGEN--\":2:4   */\n    tag_38:\n        /* \"Solidity_BD2/casaApuestas.sol\":10187:11303  function getApostadorGanador(uint _codCarrera) public view returns(string memory) {\r... */\n      dup2\n      add\n      swap1\n      dup1\n      dup1\n      calldataload\n      swap1\n      0x20\n      add\n      swap1\n      swap3\n      swap2\n      swap1\n      pop\n      pop\n      pop\n      tag_39\n      jump\t// in\n    tag_37:\n      mload(0x40)\n      dup1\n      dup1\n      0x20\n      add\n      dup3\n      dup2\n      sub\n      dup3\n      mstore\n      dup4\n      dup2\n      dup2\n      mload\n      dup2\n      mstore\n      0x20\n      add\n      swap2\n      pop\n      dup1\n      mload\n      swap1\n      0x20\n      add\n      swap1\n      dup1\n      dup4\n      dup4\n        /* \"--CODEGEN--\":23:24   */\n      0x00\n        /* \"--CODEGEN--\":8:108   */\n    tag_40:\n        /* \"--CODEGEN--\":33:36   */\n      dup4\n        /* \"--CODEGEN--\":30:31   */\n      dup2\n        /* \"--CODEGEN--\":27:37   */\n      lt\n        /* \"--CODEGEN--\":8:108   */\n      iszero\n      tag_42\n      jumpi\n        /* \"--CODEGEN--\":99:100   */\n      dup1\n        /* \"--CODEGEN--\":94:97   */\n      dup3\n        /* \"--CODEGEN--\":90:101   */\n      add\n        /* \"--CODEGEN--\":84:102   */\n      mload\n        /* \"--CODEGEN--\":80:81   */\n      dup2\n        /* \"--CODEGEN--\":75:78   */\n      dup5\n        /* \"--CODEGEN--\":71:82   */\n      add\n        /* \"--CODEGEN--\":64:103   */\n      mstore\n        /* \"--CODEGEN--\":52:54   */\n      0x20\n        /* \"--CODEGEN--\":49:50   */\n      dup2\n        /* \"--CODEGEN--\":45:55   */\n      add\n        /* \"--CODEGEN--\":40:55   */\n      swap1\n      pop\n        /* \"--CODEGEN--\":8:108   */\n      jump(tag_40)\n    tag_42:\n        /* \"--CODEGEN--\":12:26   */\n      pop\n        /* \"Solidity_BD2/casaApuestas.sol\":10187:11303  function getApostadorGanador(uint _codCarrera) public view returns(string memory) {\r... */\n      pop\n      pop\n      pop\n      swap1\n      pop\n      swap1\n      dup2\n      add\n      swap1\n      0x1f\n      and\n      dup1\n      iszero\n      tag_43\n      jumpi\n      dup1\n      dup3\n      sub\n      dup1\n      mload\n      0x01\n      dup4\n      0x20\n      sub\n      0x0100\n      exp\n      sub\n      not\n      and\n      dup2\n      mstore\n      0x20\n      add\n      swap2\n      pop\n    tag_43:\n      pop\n      swap3\n      pop\n      pop\n      pop\n      mload(0x40)\n      dup1\n      swap2\n      sub\n      swap1\n      return\n        /* \"Solidity_BD2/casaApuestas.sol\":55:79  address public anfitrion */\n    tag_6:\n      callvalue\n        /* \"--CODEGEN--\":8:17   */\n      dup1\n        /* \"--CODEGEN--\":5:7   */\n      iszero\n      tag_44\n      jumpi\n        /* \"--CODEGEN--\":30:31   */\n      0x00\n        /* \"--CODEGEN--\":27:28   */\n      dup1\n        /* \"--CODEGEN--\":20:32   */\n      revert\n        /* \"--CODEGEN--\":5:7   */\n    tag_44:\n        /* \"Solidity_BD2/casaApuestas.sol\":55:79  address public anfitrion */\n      pop\n      tag_45\n      tag_46\n      jump\t// in\n    tag_45:\n      mload(0x40)\n      dup1\n      dup3\n      0xffffffffffffffffffffffffffffffffffffffff\n      and\n      0xffffffffffffffffffffffffffffffffffffffff\n      and\n      dup2\n      mstore\n      0x20\n      add\n      swap2\n      pop\n      pop\n      mload(0x40)\n      dup1\n      swap2\n      sub\n      swap1\n      return\n        /* \"Solidity_BD2/casaApuestas.sol\":4511:4692  function registrarCaballo(uint _codigo, string memory _nombre) public \r... */\n    tag_7:\n      callvalue\n        /* \"--CODEGEN--\":8:17   */\n      dup1\n        /* \"--CODEGEN--\":5:7   */\n      iszero\n      tag_47\n      jumpi\n        /* \"--CODEGEN--\":30:31   */\n      0x00\n        /* \"--CODEGEN--\":27:28   */\n      dup1\n        /* \"--CODEGEN--\":20:32   */\n      revert\n        /* \"--CODEGEN--\":5:7   */\n    tag_47:\n        /* \"Solidity_BD2/casaApuestas.sol\":4511:4692  function registrarCaballo(uint _codigo, string memory _nombre) public \r... */\n      pop\n      tag_48\n      0x04\n      dup1\n      calldatasize\n      sub\n        /* \"--CODEGEN--\":13:15   */\n      0x40\n        /* \"--CODEGEN--\":8:11   */\n      dup2\n        /* \"--CODEGEN--\":5:16   */\n      lt\n        /* \"--CODEGEN--\":2:4   */\n      iszero\n      tag_49\n      jumpi\n        /* \"--CODEGEN--\":29:30   */\n      0x00\n        /* \"--CODEGEN--\":26:27   */\n      dup1\n        /* \"--CODEGEN--\":19:31   */\n      revert\n        /* \"--CODEGEN--\":2:4   */\n    tag_49:\n        /* \"Solidity_BD2/casaApuestas.sol\":4511:4692  function registrarCaballo(uint _codigo, string memory _nombre) public \r... */\n      dup2\n      add\n      swap1\n      dup1\n      dup1\n      calldataload\n      swap1\n      0x20\n      add\n      swap1\n      swap3\n      swap2\n      swap1\n      dup1\n      calldataload\n      swap1\n      0x20\n      add\n      swap1\n        /* \"--CODEGEN--\":21:32   */\n      0x0100000000\n        /* \"--CODEGEN--\":8:19   */\n      dup2\n        /* \"--CODEGEN--\":5:33   */\n      gt\n        /* \"--CODEGEN--\":2:4   */\n      iszero\n      tag_50\n      jumpi\n        /* \"--CODEGEN--\":46:47   */\n      0x00\n        /* \"--CODEGEN--\":43:44   */\n      dup1\n        /* \"--CODEGEN--\":36:48   */\n      revert\n        /* \"--CODEGEN--\":2:4   */\n    tag_50:\n        /* \"Solidity_BD2/casaApuestas.sol\":4511:4692  function registrarCaballo(uint _codigo, string memory _nombre) public \r... */\n      dup3\n      add\n        /* \"--CODEGEN--\":35:44   */\n      dup4\n        /* \"--CODEGEN--\":28:32   */\n      0x20\n        /* \"--CODEGEN--\":12:26   */\n      dup3\n        /* \"--CODEGEN--\":8:33   */\n      add\n        /* \"--CODEGEN--\":5:45   */\n      gt\n        /* \"--CODEGEN--\":2:4   */\n      iszero\n      tag_51\n      jumpi\n        /* \"--CODEGEN--\":58:59   */\n      0x00\n        /* \"--CODEGEN--\":55:56   */\n      dup1\n        /* \"--CODEGEN--\":48:60   */\n      revert\n        /* \"--CODEGEN--\":2:4   */\n    tag_51:\n        /* \"Solidity_BD2/casaApuestas.sol\":4511:4692  function registrarCaballo(uint _codigo, string memory _nombre) public \r... */\n      dup1\n      calldataload\n      swap1\n      0x20\n      add\n      swap2\n        /* \"--CODEGEN--\":100:109   */\n      dup5\n        /* \"--CODEGEN--\":95:96   */\n      0x01\n        /* \"--CODEGEN--\":81:93   */\n      dup4\n        /* \"--CODEGEN--\":77:97   */\n      mul\n        /* \"--CODEGEN--\":67:75   */\n      dup5\n        /* \"--CODEGEN--\":63:98   */\n      add\n        /* \"--CODEGEN--\":60:110   */\n      gt\n        /* \"--CODEGEN--\":39:50   */\n      0x0100000000\n        /* \"--CODEGEN--\":25:37   */\n      dup4\n        /* \"--CODEGEN--\":22:51   */\n      gt\n        /* \"--CODEGEN--\":11:118   */\n      or\n        /* \"--CODEGEN--\":8:10   */\n      iszero\n      tag_52\n      jumpi\n        /* \"--CODEGEN--\":131:132   */\n      0x00\n        /* \"--CODEGEN--\":128:129   */\n      dup1\n        /* \"--CODEGEN--\":121:133   */\n      revert\n        /* \"--CODEGEN--\":8:10   */\n    tag_52:\n        /* \"Solidity_BD2/casaApuestas.sol\":4511:4692  function registrarCaballo(uint _codigo, string memory _nombre) public \r... */\n      swap2\n      swap1\n      dup1\n      dup1\n      0x1f\n      add\n      0x20\n      dup1\n      swap2\n      div\n      mul\n      0x20\n      add\n      mload(0x40)\n      swap1\n      dup2\n      add\n      0x40\n      mstore\n      dup1\n      swap4\n      swap3\n      swap2\n      swap1\n      dup2\n      dup2\n      mstore\n      0x20\n      add\n      dup4\n      dup4\n        /* \"--CODEGEN--\":30:33   */\n      dup1\n        /* \"--CODEGEN--\":22:28   */\n      dup3\n        /* \"--CODEGEN--\":14:20   */\n      dup5\n        /* \"--CODEGEN--\":1:34   */\n      calldatacopy\n        /* \"--CODEGEN--\":99:100   */\n      0x00\n        /* \"--CODEGEN--\":93:96   */\n      dup2\n        /* \"--CODEGEN--\":85:91   */\n      dup5\n        /* \"--CODEGEN--\":81:97   */\n      add\n        /* \"--CODEGEN--\":74:101   */\n      mstore\n        /* \"--CODEGEN--\":137:141   */\n      0x1f\n        /* \"--CODEGEN--\":133:142   */\n      not\n        /* \"--CODEGEN--\":126:130   */\n      0x1f\n        /* \"--CODEGEN--\":121:124   */\n      dup3\n        /* \"--CODEGEN--\":117:131   */\n      add\n        /* \"--CODEGEN--\":113:143   */\n      and\n        /* \"--CODEGEN--\":106:143   */\n      swap1\n      pop\n        /* \"--CODEGEN--\":169:172   */\n      dup1\n        /* \"--CODEGEN--\":161:167   */\n      dup4\n        /* \"--CODEGEN--\":157:173   */\n      add\n        /* \"--CODEGEN--\":147:173   */\n      swap3\n      pop\n        /* \"Solidity_BD2/casaApuestas.sol\":4511:4692  function registrarCaballo(uint _codigo, string memory _nombre) public \r... */\n      pop\n      pop\n      pop\n      pop\n      pop\n      pop\n      swap2\n      swap3\n      swap2\n      swap3\n      swap1\n      pop\n      pop\n      pop\n      tag_53\n      jump\t// in\n    tag_48:\n      stop\n        /* \"Solidity_BD2/casaApuestas.sol\":200:240  mapping(uint => Carrera) public carreras */\n    tag_8:\n      callvalue\n        /* \"--CODEGEN--\":8:17   */\n      dup1\n        /* \"--CODEGEN--\":5:7   */\n      iszero\n      tag_54\n      jumpi\n        /* \"--CODEGEN--\":30:31   */\n      0x00\n        /* \"--CODEGEN--\":27:28   */\n      dup1\n        /* \"--CODEGEN--\":20:32   */\n      revert\n        /* \"--CODEGEN--\":5:7   */\n    tag_54:\n        /* \"Solidity_BD2/casaApuestas.sol\":200:240  mapping(uint => Carrera) public carreras */\n      pop\n      tag_55\n      0x04\n      dup1\n      calldatasize\n      sub\n        /* \"--CODEGEN--\":13:15   */\n      0x20\n        /* \"--CODEGEN--\":8:11   */\n      dup2\n        /* \"--CODEGEN--\":5:16   */\n      lt\n        /* \"--CODEGEN--\":2:4   */\n      iszero\n      tag_56\n      jumpi\n        /* \"--CODEGEN--\":29:30   */\n      0x00\n        /* \"--CODEGEN--\":26:27   */\n      dup1\n        /* \"--CODEGEN--\":19:31   */\n      revert\n        /* \"--CODEGEN--\":2:4   */\n    tag_56:\n        /* \"Solidity_BD2/casaApuestas.sol\":200:240  mapping(uint => Carrera) public carreras */\n      dup2\n      add\n      swap1\n      dup1\n      dup1\n      calldataload\n      swap1\n      0x20\n      add\n      swap1\n      swap3\n      swap2\n      swap1\n      pop\n      pop\n      pop\n      tag_57\n      jump\t// in\n    tag_55:\n      mload(0x40)\n      dup1\n      dup8\n      dup2\n      mstore\n      0x20\n      add\n      dup1\n      0x20\n      add\n      dup7\n      0x02\n      dup2\n      gt\n      iszero\n      tag_58\n      jumpi\n      invalid\n    tag_58:\n      0xff\n      and\n      dup2\n      mstore\n      0x20\n      add\n      dup6\n      dup2\n      mstore\n      0x20\n      add\n      dup5\n      dup2\n      mstore\n      0x20\n      add\n      dup4\n      dup2\n      mstore\n      0x20\n      add\n      dup3\n      dup2\n      sub\n      dup3\n      mstore\n      dup8\n      dup2\n      dup2\n      mload\n      dup2\n      mstore\n      0x20\n      add\n      swap2\n      pop\n      dup1\n      mload\n      swap1\n      0x20\n      add\n      swap1\n      dup1\n      dup4\n      dup4\n        /* \"--CODEGEN--\":23:24   */\n      0x00\n        /* \"--CODEGEN--\":8:108   */\n    tag_59:\n        /* \"--CODEGEN--\":33:36   */\n      dup4\n        /* \"--CODEGEN--\":30:31   */\n      dup2\n        /* \"--CODEGEN--\":27:37   */\n      lt\n        /* \"--CODEGEN--\":8:108   */\n      iszero\n      tag_61\n      jumpi\n        /* \"--CODEGEN--\":99:100   */\n      dup1\n        /* \"--CODEGEN--\":94:97   */\n      dup3\n        /* \"--CODEGEN--\":90:101   */\n      add\n        /* \"--CODEGEN--\":84:102   */\n      mload\n        /* \"--CODEGEN--\":80:81   */\n      dup2\n        /* \"--CODEGEN--\":75:78   */\n      dup5\n        /* \"--CODEGEN--\":71:82   */\n      add\n        /* \"--CODEGEN--\":64:103   */\n      mstore\n        /* \"--CODEGEN--\":52:54   */\n      0x20\n        /* \"--CODEGEN--\":49:50   */\n      dup2\n        /* \"--CODEGEN--\":45:55   */\n      add\n        /* \"--CODEGEN--\":40:55   */\n      swap1\n      pop\n        /* \"--CODEGEN--\":8:108   */\n      jump(tag_59)\n    tag_61:\n        /* \"--CODEGEN--\":12:26   */\n      pop\n        /* \"Solidity_BD2/casaApuestas.sol\":200:240  mapping(uint => Carrera) public carreras */\n      pop\n      pop\n      pop\n      swap1\n      pop\n      swap1\n      dup2\n      add\n      swap1\n      0x1f\n      and\n      dup1\n      iszero\n      tag_62\n      jumpi\n      dup1\n      dup3\n      sub\n      dup1\n      mload\n      0x01\n      dup4\n      0x20\n      sub\n      0x0100\n      exp\n      sub\n      not\n      and\n      dup2\n      mstore\n      0x20\n      add\n      swap2\n      pop\n    tag_62:\n      pop\n      swap8\n      pop\n      pop\n      pop\n      pop\n      pop\n      pop\n      pop\n      pop\n      mload(0x40)\n      dup1\n      swap2\n      sub\n      swap1\n      return\n        /* \"Solidity_BD2/casaApuestas.sol\":11311:11446  function getCaballoGanador(uint _codCarrera) public view returns(uint) {\r... */\n    tag_9:\n      callvalue\n        /* \"--CODEGEN--\":8:17   */\n      dup1\n        /* \"--CODEGEN--\":5:7   */\n      iszero\n      tag_63\n      jumpi\n        /* \"--CODEGEN--\":30:31   */\n      0x00\n        /* \"--CODEGEN--\":27:28   */\n      dup1\n        /* \"--CODEGEN--\":20:32   */\n      revert\n        /* \"--CODEGEN--\":5:7   */\n    tag_63:\n        /* \"Solidity_BD2/casaApuestas.sol\":11311:11446  function getCaballoGanador(uint _codCarrera) public view returns(uint) {\r... */\n      pop\n      tag_64\n      0x04\n      dup1\n      calldatasize\n      sub\n        /* \"--CODEGEN--\":13:15   */\n      0x20\n        /* \"--CODEGEN--\":8:11   */\n      dup2\n        /* \"--CODEGEN--\":5:16   */\n      lt\n        /* \"--CODEGEN--\":2:4   */\n      iszero\n      tag_65\n      jumpi\n        /* \"--CODEGEN--\":29:30   */\n      0x00\n        /* \"--CODEGEN--\":26:27   */\n      dup1\n        /* \"--CODEGEN--\":19:31   */\n      revert\n        /* \"--CODEGEN--\":2:4   */\n    tag_65:\n        /* \"Solidity_BD2/casaApuestas.sol\":11311:11446  function getCaballoGanador(uint _codCarrera) public view returns(uint) {\r... */\n      dup2\n      add\n      swap1\n      dup1\n      dup1\n      calldataload\n      swap1\n      0x20\n      add\n      swap1\n      swap3\n      swap2\n      swap1\n      pop\n      pop\n      pop\n      tag_66\n      jump\t// in\n    tag_64:\n      mload(0x40)\n      dup1\n      dup3\n      dup2\n      mstore\n      0x20\n      add\n      swap2\n      pop\n      pop\n      mload(0x40)\n      dup1\n      swap2\n      sub\n      swap1\n      return\n        /* \"Solidity_BD2/casaApuestas.sol\":438:483  mapping(uint => address[]) public apostadores */\n    tag_10:\n      callvalue\n        /* \"--CODEGEN--\":8:17   */\n      dup1\n        /* \"--CODEGEN--\":5:7   */\n      iszero\n      tag_67\n      jumpi\n        /* \"--CODEGEN--\":30:31   */\n      0x00\n        /* \"--CODEGEN--\":27:28   */\n      dup1\n        /* \"--CODEGEN--\":20:32   */\n      revert\n        /* \"--CODEGEN--\":5:7   */\n    tag_67:\n        /* \"Solidity_BD2/casaApuestas.sol\":438:483  mapping(uint => address[]) public apostadores */\n      pop\n      tag_68\n      0x04\n      dup1\n      calldatasize\n      sub\n        /* \"--CODEGEN--\":13:15   */\n      0x40\n        /* \"--CODEGEN--\":8:11   */\n      dup2\n        /* \"--CODEGEN--\":5:16   */\n      lt\n        /* \"--CODEGEN--\":2:4   */\n      iszero\n      tag_69\n      jumpi\n        /* \"--CODEGEN--\":29:30   */\n      0x00\n        /* \"--CODEGEN--\":26:27   */\n      dup1\n        /* \"--CODEGEN--\":19:31   */\n      revert\n        /* \"--CODEGEN--\":2:4   */\n    tag_69:\n        /* \"Solidity_BD2/casaApuestas.sol\":438:483  mapping(uint => address[]) public apostadores */\n      dup2\n      add\n      swap1\n      dup1\n      dup1\n      calldataload\n      swap1\n      0x20\n      add\n      swap1\n      swap3\n      swap2\n      swap1\n      dup1\n      calldataload\n      swap1\n      0x20\n      add\n      swap1\n      swap3\n      swap2\n      swap1\n      pop\n      pop\n      pop\n      tag_70\n      jump\t// in\n    tag_68:\n      mload(0x40)\n      dup1\n      dup3\n      0xffffffffffffffffffffffffffffffffffffffff\n      and\n      0xffffffffffffffffffffffffffffffffffffffff\n      and\n      dup2\n      mstore\n      0x20\n      add\n      swap2\n      pop\n      pop\n      mload(0x40)\n      dup1\n      swap2\n      sub\n      swap1\n      return\n        /* \"Solidity_BD2/casaApuestas.sol\":11454:11817  function getEstadoCarrera(uint _codCarrera) public view returns(string memory){ \r... */\n    tag_11:\n      callvalue\n        /* \"--CODEGEN--\":8:17   */\n      dup1\n        /* \"--CODEGEN--\":5:7   */\n      iszero\n      tag_71\n      jumpi\n        /* \"--CODEGEN--\":30:31   */\n      0x00\n        /* \"--CODEGEN--\":27:28   */\n      dup1\n        /* \"--CODEGEN--\":20:32   */\n      revert\n        /* \"--CODEGEN--\":5:7   */\n    tag_71:\n        /* \"Solidity_BD2/casaApuestas.sol\":11454:11817  function getEstadoCarrera(uint _codCarrera) public view returns(string memory){ \r... */\n      pop\n      tag_72\n      0x04\n      dup1\n      calldatasize\n      sub\n        /* \"--CODEGEN--\":13:15   */\n      0x20\n        /* \"--CODEGEN--\":8:11   */\n      dup2\n        /* \"--CODEGEN--\":5:16   */\n      lt\n        /* \"--CODEGEN--\":2:4   */\n      iszero\n      tag_73\n      jumpi\n        /* \"--CODEGEN--\":29:30   */\n      0x00\n        /* \"--CODEGEN--\":26:27   */\n      dup1\n        /* \"--CODEGEN--\":19:31   */\n      revert\n        /* \"--CODEGEN--\":2:4   */\n    tag_73:\n        /* \"Solidity_BD2/casaApuestas.sol\":11454:11817  function getEstadoCarrera(uint _codCarrera) public view returns(string memory){ \r... */\n      dup2\n      add\n      swap1\n      dup1\n      dup1\n      calldataload\n      swap1\n      0x20\n      add\n      swap1\n      swap3\n      swap2\n      swap1\n      pop\n      pop\n      pop\n      tag_74\n      jump\t// in\n    tag_72:\n      mload(0x40)\n      dup1\n      dup1\n      0x20\n      add\n      dup3\n      dup2\n      sub\n      dup3\n      mstore\n      dup4\n      dup2\n      dup2\n      mload\n      dup2\n      mstore\n      0x20\n      add\n      swap2\n      pop\n      dup1\n      mload\n      swap1\n      0x20\n      add\n      swap1\n      dup1\n      dup4\n      dup4\n        /* \"--CODEGEN--\":23:24   */\n      0x00\n        /* \"--CODEGEN--\":8:108   */\n    tag_75:\n        /* \"--CODEGEN--\":33:36   */\n      dup4\n        /* \"--CODEGEN--\":30:31   */\n      dup2\n        /* \"--CODEGEN--\":27:37   */\n      lt\n        /* \"--CODEGEN--\":8:108   */\n      iszero\n      tag_77\n      jumpi\n        /* \"--CODEGEN--\":99:100   */\n      dup1\n        /* \"--CODEGEN--\":94:97   */\n      dup3\n        /* \"--CODEGEN--\":90:101   */\n      add\n        /* \"--CODEGEN--\":84:102   */\n      mload\n        /* \"--CODEGEN--\":80:81   */\n      dup2\n        /* \"--CODEGEN--\":75:78   */\n      dup5\n        /* \"--CODEGEN--\":71:82   */\n      add\n        /* \"--CODEGEN--\":64:103   */\n      mstore\n        /* \"--CODEGEN--\":52:54   */\n      0x20\n        /* \"--CODEGEN--\":49:50   */\n      dup2\n        /* \"--CODEGEN--\":45:55   */\n      add\n        /* \"--CODEGEN--\":40:55   */\n      swap1\n      pop\n        /* \"--CODEGEN--\":8:108   */\n      jump(tag_75)\n    tag_77:\n        /* \"--CODEGEN--\":12:26   */\n      pop\n        /* \"Solidity_BD2/casaApuestas.sol\":11454:11817  function getEstadoCarrera(uint _codCarrera) public view returns(string memory){ \r... */\n      pop\n      pop\n      pop\n      swap1\n      pop\n      swap1\n      dup2\n      add\n      swap1\n      0x1f\n      and\n      dup1\n      iszero\n      tag_78\n      jumpi\n      dup1\n      dup3\n      sub\n      dup1\n      mload\n      0x01\n      dup4\n      0x20\n      sub\n      0x0100\n      exp\n      sub\n      not\n      and\n      dup2\n      mstore\n      0x20\n      add\n      swap2\n      pop\n    tag_78:\n      pop\n      swap3\n      pop\n      pop\n      pop\n      mload(0x40)\n      dup1\n      swap2\n      sub\n      swap1\n      return\n        /* \"Solidity_BD2/casaApuestas.sol\":135:160  uint public totalCarreras */\n    tag_12:\n      callvalue\n        /* \"--CODEGEN--\":8:17   */\n      dup1\n        /* \"--CODEGEN--\":5:7   */\n      iszero\n      tag_79\n      jumpi\n        /* \"--CODEGEN--\":30:31   */\n      0x00\n        /* \"--CODEGEN--\":27:28   */\n      dup1\n        /* \"--CODEGEN--\":20:32   */\n      revert\n        /* \"--CODEGEN--\":5:7   */\n    tag_79:\n        /* \"Solidity_BD2/casaApuestas.sol\":135:160  uint public totalCarreras */\n      pop\n      tag_80\n      tag_81\n      jump\t// in\n    tag_80:\n      mload(0x40)\n      dup1\n      dup3\n      dup2\n      mstore\n      0x20\n      add\n      swap2\n      pop\n      pop\n      mload(0x40)\n      dup1\n      swap2\n      sub\n      swap1\n      return\n        /* \"Solidity_BD2/casaApuestas.sol\":269:309  mapping(uint => Caballo) public caballos */\n    tag_13:\n      callvalue\n        /* \"--CODEGEN--\":8:17   */\n      dup1\n        /* \"--CODEGEN--\":5:7   */\n      iszero\n      tag_82\n      jumpi\n        /* \"--CODEGEN--\":30:31   */\n      0x00\n        /* \"--CODEGEN--\":27:28   */\n      dup1\n        /* \"--CODEGEN--\":20:32   */\n      revert\n        /* \"--CODEGEN--\":5:7   */\n    tag_82:\n        /* \"Solidity_BD2/casaApuestas.sol\":269:309  mapping(uint => Caballo) public caballos */\n      pop\n      tag_83\n      0x04\n      dup1\n      calldatasize\n      sub\n        /* \"--CODEGEN--\":13:15   */\n      0x20\n        /* \"--CODEGEN--\":8:11   */\n      dup2\n        /* \"--CODEGEN--\":5:16   */\n      lt\n        /* \"--CODEGEN--\":2:4   */\n      iszero\n      tag_84\n      jumpi\n        /* \"--CODEGEN--\":29:30   */\n      0x00\n        /* \"--CODEGEN--\":26:27   */\n      dup1\n        /* \"--CODEGEN--\":19:31   */\n      revert\n        /* \"--CODEGEN--\":2:4   */\n    tag_84:\n        /* \"Solidity_BD2/casaApuestas.sol\":269:309  mapping(uint => Caballo) public caballos */\n      dup2\n      add\n      swap1\n      dup1\n      dup1\n      calldataload\n      swap1\n      0x20\n      add\n      swap1\n      swap3\n      swap2\n      swap1\n      pop\n      pop\n      pop\n      tag_85\n      jump\t// in\n    tag_83:\n      mload(0x40)\n      dup1\n      dup4\n      dup2\n      mstore\n      0x20\n      add\n      dup1\n      0x20\n      add\n      dup3\n      dup2\n      sub\n      dup3\n      mstore\n      dup4\n      dup2\n      dup2\n      mload\n      dup2\n      mstore\n      0x20\n      add\n      swap2\n      pop\n      dup1\n      mload\n      swap1\n      0x20\n      add\n      swap1\n      dup1\n      dup4\n      dup4\n        /* \"--CODEGEN--\":23:24   */\n      0x00\n        /* \"--CODEGEN--\":8:108   */\n    tag_86:\n        /* \"--CODEGEN--\":33:36   */\n      dup4\n        /* \"--CODEGEN--\":30:31   */\n      dup2\n        /* \"--CODEGEN--\":27:37   */\n      lt\n        /* \"--CODEGEN--\":8:108   */\n      iszero\n      tag_88\n      jumpi\n        /* \"--CODEGEN--\":99:100   */\n      dup1\n        /* \"--CODEGEN--\":94:97   */\n      dup3\n        /* \"--CODEGEN--\":90:101   */\n      add\n        /* \"--CODEGEN--\":84:102   */\n      mload\n        /* \"--CODEGEN--\":80:81   */\n      dup2\n        /* \"--CODEGEN--\":75:78   */\n      dup5\n        /* \"--CODEGEN--\":71:82   */\n      add\n        /* \"--CODEGEN--\":64:103   */\n      mstore\n        /* \"--CODEGEN--\":52:54   */\n      0x20\n        /* \"--CODEGEN--\":49:50   */\n      dup2\n        /* \"--CODEGEN--\":45:55   */\n      add\n        /* \"--CODEGEN--\":40:55   */\n      swap1\n      pop\n        /* \"--CODEGEN--\":8:108   */\n      jump(tag_86)\n    tag_88:\n        /* \"--CODEGEN--\":12:26   */\n      pop\n        /* \"Solidity_BD2/casaApuestas.sol\":269:309  mapping(uint => Caballo) public caballos */\n      pop\n      pop\n      pop\n      swap1\n      pop\n      swap1\n      dup2\n      add\n      swap1\n      0x1f\n      and\n      dup1\n      iszero\n      tag_89\n      jumpi\n      dup1\n      dup3\n      sub\n      dup1\n      mload\n      0x01\n      dup4\n      0x20\n      sub\n      0x0100\n      exp\n      sub\n      not\n      and\n      dup2\n      mstore\n      0x20\n      add\n      swap2\n      pop\n    tag_89:\n      pop\n      swap4\n      pop\n      pop\n      pop\n      pop\n      mload(0x40)\n      dup1\n      swap2\n      sub\n      swap1\n      return\n        /* \"Solidity_BD2/casaApuestas.sol\":5388:6608  function apostar(uint _codCaballo, uint _codCarrera) payable public \r... */\n    tag_14:\n      tag_90\n      0x04\n      dup1\n      calldatasize\n      sub\n        /* \"--CODEGEN--\":13:15   */\n      0x40\n        /* \"--CODEGEN--\":8:11   */\n      dup2\n        /* \"--CODEGEN--\":5:16   */\n      lt\n        /* \"--CODEGEN--\":2:4   */\n      iszero\n      tag_91\n      jumpi\n        /* \"--CODEGEN--\":29:30   */\n      0x00\n        /* \"--CODEGEN--\":26:27   */\n      dup1\n        /* \"--CODEGEN--\":19:31   */\n      revert\n        /* \"--CODEGEN--\":2:4   */\n    tag_91:\n        /* \"Solidity_BD2/casaApuestas.sol\":5388:6608  function apostar(uint _codCaballo, uint _codCarrera) payable public \r... */\n      dup2\n      add\n      swap1\n      dup1\n      dup1\n      calldataload\n      swap1\n      0x20\n      add\n      swap1\n      swap3\n      swap2\n      swap1\n      dup1\n      calldataload\n      swap1\n      0x20\n      add\n      swap1\n      swap3\n      swap2\n      swap1\n      pop\n      pop\n      pop\n      tag_92\n      jump\t// in\n    tag_90:\n      stop\n        /* \"Solidity_BD2/casaApuestas.sol\":5135:5380  function registrarCarrera(uint _codCarrera) public \r... */\n    tag_15:\n      callvalue\n        /* \"--CODEGEN--\":8:17   */\n      dup1\n        /* \"--CODEGEN--\":5:7   */\n      iszero\n      tag_93\n      jumpi\n        /* \"--CODEGEN--\":30:31   */\n      0x00\n        /* \"--CODEGEN--\":27:28   */\n      dup1\n        /* \"--CODEGEN--\":20:32   */\n      revert\n        /* \"--CODEGEN--\":5:7   */\n    tag_93:\n        /* \"Solidity_BD2/casaApuestas.sol\":5135:5380  function registrarCarrera(uint _codCarrera) public \r... */\n      pop\n      tag_94\n      0x04\n      dup1\n      calldatasize\n      sub\n        /* \"--CODEGEN--\":13:15   */\n      0x20\n        /* \"--CODEGEN--\":8:11   */\n      dup2\n        /* \"--CODEGEN--\":5:16   */\n      lt\n        /* \"--CODEGEN--\":2:4   */\n      iszero\n      tag_95\n      jumpi\n        /* \"--CODEGEN--\":29:30   */\n      0x00\n        /* \"--CODEGEN--\":26:27   */\n      dup1\n        /* \"--CODEGEN--\":19:31   */\n      revert\n        /* \"--CODEGEN--\":2:4   */\n    tag_95:\n        /* \"Solidity_BD2/casaApuestas.sol\":5135:5380  function registrarCarrera(uint _codCarrera) public \r... */\n      dup2\n      add\n      swap1\n      dup1\n      dup1\n      calldataload\n      swap1\n      0x20\n      add\n      swap1\n      swap3\n      swap2\n      swap1\n      pop\n      pop\n      pop\n      tag_96\n      jump\t// in\n    tag_94:\n      stop\n        /* \"Solidity_BD2/casaApuestas.sol\":4273:4503  function crearCarrera(uint _codigo, string memory _nombre) public \r... */\n    tag_16:\n      callvalue\n        /* \"--CODEGEN--\":8:17   */\n      dup1\n        /* \"--CODEGEN--\":5:7   */\n      iszero\n      tag_97\n      jumpi\n        /* \"--CODEGEN--\":30:31   */\n      0x00\n        /* \"--CODEGEN--\":27:28   */\n      dup1\n        /* \"--CODEGEN--\":20:32   */\n      revert\n        /* \"--CODEGEN--\":5:7   */\n    tag_97:\n        /* \"Solidity_BD2/casaApuestas.sol\":4273:4503  function crearCarrera(uint _codigo, string memory _nombre) public \r... */\n      pop\n      tag_98\n      0x04\n      dup1\n      calldatasize\n      sub\n        /* \"--CODEGEN--\":13:15   */\n      0x40\n        /* \"--CODEGEN--\":8:11   */\n      dup2\n        /* \"--CODEGEN--\":5:16   */\n      lt\n        /* \"--CODEGEN--\":2:4   */\n      iszero\n      tag_99\n      jumpi\n        /* \"--CODEGEN--\":29:30   */\n      0x00\n        /* \"--CODEGEN--\":26:27   */\n      dup1\n        /* \"--CODEGEN--\":19:31   */\n      revert\n        /* \"--CODEGEN--\":2:4   */\n    tag_99:\n        /* \"Solidity_BD2/casaApuestas.sol\":4273:4503  function crearCarrera(uint _codigo, string memory _nombre) public \r... */\n      dup2\n      add\n      swap1\n      dup1\n      dup1\n      calldataload\n      swap1\n      0x20\n      add\n      swap1\n      swap3\n      swap2\n      swap1\n      dup1\n      calldataload\n      swap1\n      0x20\n      add\n      swap1\n        /* \"--CODEGEN--\":21:32   */\n      0x0100000000\n        /* \"--CODEGEN--\":8:19   */\n      dup2\n        /* \"--CODEGEN--\":5:33   */\n      gt\n        /* \"--CODEGEN--\":2:4   */\n      iszero\n      tag_100\n      jumpi\n        /* \"--CODEGEN--\":46:47   */\n      0x00\n        /* \"--CODEGEN--\":43:44   */\n      dup1\n        /* \"--CODEGEN--\":36:48   */\n      revert\n        /* \"--CODEGEN--\":2:4   */\n    tag_100:\n        /* \"Solidity_BD2/casaApuestas.sol\":4273:4503  function crearCarrera(uint _codigo, string memory _nombre) public \r... */\n      dup3\n      add\n        /* \"--CODEGEN--\":35:44   */\n      dup4\n        /* \"--CODEGEN--\":28:32   */\n      0x20\n        /* \"--CODEGEN--\":12:26   */\n      dup3\n        /* \"--CODEGEN--\":8:33   */\n      add\n        /* \"--CODEGEN--\":5:45   */\n      gt\n        /* \"--CODEGEN--\":2:4   */\n      iszero\n      tag_101\n      jumpi\n        /* \"--CODEGEN--\":58:59   */\n      0x00\n        /* \"--CODEGEN--\":55:56   */\n      dup1\n        /* \"--CODEGEN--\":48:60   */\n      revert\n        /* \"--CODEGEN--\":2:4   */\n    tag_101:\n        /* \"Solidity_BD2/casaApuestas.sol\":4273:4503  function crearCarrera(uint _codigo, string memory _nombre) public \r... */\n      dup1\n      calldataload\n      swap1\n      0x20\n      add\n      swap2\n        /* \"--CODEGEN--\":100:109   */\n      dup5\n        /* \"--CODEGEN--\":95:96   */\n      0x01\n        /* \"--CODEGEN--\":81:93   */\n      dup4\n        /* \"--CODEGEN--\":77:97   */\n      mul\n        /* \"--CODEGEN--\":67:75   */\n      dup5\n        /* \"--CODEGEN--\":63:98   */\n      add\n        /* \"--CODEGEN--\":60:110   */\n      gt\n        /* \"--CODEGEN--\":39:50   */\n      0x0100000000\n        /* \"--CODEGEN--\":25:37   */\n      dup4\n        /* \"--CODEGEN--\":22:51   */\n      gt\n        /* \"--CODEGEN--\":11:118   */\n      or\n        /* \"--CODEGEN--\":8:10   */\n      iszero\n      tag_102\n      jumpi\n        /* \"--CODEGEN--\":131:132   */\n      0x00\n        /* \"--CODEGEN--\":128:129   */\n      dup1\n        /* \"--CODEGEN--\":121:133   */\n      revert\n        /* \"--CODEGEN--\":8:10   */\n    tag_102:\n        /* \"Solidity_BD2/casaApuestas.sol\":4273:4503  function crearCarrera(uint _codigo, string memory _nombre) public \r... */\n      swap2\n      swap1\n      dup1\n      dup1\n      0x1f\n      add\n      0x20\n      dup1\n      swap2\n      div\n      mul\n      0x20\n      add\n      mload(0x40)\n      swap1\n      dup2\n      add\n      0x40\n      mstore\n      dup1\n      swap4\n      swap3\n      swap2\n      swap1\n      dup2\n      dup2\n      mstore\n      0x20\n      add\n      dup4\n      dup4\n        /* \"--CODEGEN--\":30:33   */\n      dup1\n        /* \"--CODEGEN--\":22:28   */\n      dup3\n        /* \"--CODEGEN--\":14:20   */\n      dup5\n        /* \"--CODEGEN--\":1:34   */\n      calldatacopy\n        /* \"--CODEGEN--\":99:100   */\n      0x00\n        /* \"--CODEGEN--\":93:96   */\n      dup2\n        /* \"--CODEGEN--\":85:91   */\n      dup5\n        /* \"--CODEGEN--\":81:97   */\n      add\n        /* \"--CODEGEN--\":74:101   */\n      mstore\n        /* \"--CODEGEN--\":137:141   */\n      0x1f\n        /* \"--CODEGEN--\":133:142   */\n      not\n        /* \"--CODEGEN--\":126:130   */\n      0x1f\n        /* \"--CODEGEN--\":121:124   */\n      dup3\n        /* \"--CODEGEN--\":117:131   */\n      add\n        /* \"--CODEGEN--\":113:143   */\n      and\n        /* \"--CODEGEN--\":106:143   */\n      swap1\n      pop\n        /* \"--CODEGEN--\":169:172   */\n      dup1\n        /* \"--CODEGEN--\":161:167   */\n      dup4\n        /* \"--CODEGEN--\":157:173   */\n      add\n        /* \"--CODEGEN--\":147:173   */\n      swap3\n      pop\n        /* \"Solidity_BD2/casaApuestas.sol\":4273:4503  function crearCarrera(uint _codigo, string memory _nombre) public \r... */\n      pop\n      pop\n      pop\n      pop\n      pop\n      pop\n      swap2\n      swap3\n      swap2\n      swap3\n      swap1\n      pop\n      pop\n      pop\n      tag_103\n      jump\t// in\n    tag_98:\n      stop\n        /* \"Solidity_BD2/casaApuestas.sol\":338:381  mapping(uint => uint[]) public competencias */\n    tag_17:\n      callvalue\n        /* \"--CODEGEN--\":8:17   */\n      dup1\n        /* \"--CODEGEN--\":5:7   */\n      iszero\n      tag_104\n      jumpi\n        /* \"--CODEGEN--\":30:31   */\n      0x00\n        /* \"--CODEGEN--\":27:28   */\n      dup1\n        /* \"--CODEGEN--\":20:32   */\n      revert\n        /* \"--CODEGEN--\":5:7   */\n    tag_104:\n        /* \"Solidity_BD2/casaApuestas.sol\":338:381  mapping(uint => uint[]) public competencias */\n      pop\n      tag_105\n      0x04\n      dup1\n      calldatasize\n      sub\n        /* \"--CODEGEN--\":13:15   */\n      0x40\n        /* \"--CODEGEN--\":8:11   */\n      dup2\n        /* \"--CODEGEN--\":5:16   */\n      lt\n        /* \"--CODEGEN--\":2:4   */\n      iszero\n      tag_106\n      jumpi\n        /* \"--CODEGEN--\":29:30   */\n      0x00\n        /* \"--CODEGEN--\":26:27   */\n      dup1\n        /* \"--CODEGEN--\":19:31   */\n      revert\n        /* \"--CODEGEN--\":2:4   */\n    tag_106:\n        /* \"Solidity_BD2/casaApuestas.sol\":338:381  mapping(uint => uint[]) public competencias */\n      dup2\n      add\n      swap1\n      dup1\n      dup1\n      calldataload\n      swap1\n      0x20\n      add\n      swap1\n      swap3\n      swap2\n      swap1\n      dup1\n      calldataload\n      swap1\n      0x20\n      add\n      swap1\n      swap3\n      swap2\n      swap1\n      pop\n      pop\n      pop\n      tag_107\n      jump\t// in\n    tag_105:\n      mload(0x40)\n      dup1\n      dup3\n      dup2\n      mstore\n      0x20\n      add\n      swap2\n      pop\n      pop\n      mload(0x40)\n      dup1\n      swap2\n      sub\n      swap1\n      return\n        /* \"Solidity_BD2/casaApuestas.sol\":6867:9270  function terminarCarrera(uint _codCarrera) payable public\r... */\n    tag_23:\n        /* \"Solidity_BD2/casaApuestas.sol\":1317:1326  anfitrion */\n      0x00\n      dup1\n      swap1\n      sload\n      swap1\n      0x0100\n      exp\n      swap1\n      div\n      0xffffffffffffffffffffffffffffffffffffffff\n      and\n        /* \"Solidity_BD2/casaApuestas.sol\":1303:1326  msg.sender == anfitrion */\n      0xffffffffffffffffffffffffffffffffffffffff\n      and\n        /* \"Solidity_BD2/casaApuestas.sol\":1303:1313  msg.sender */\n      caller\n        /* \"Solidity_BD2/casaApuestas.sol\":1303:1326  msg.sender == anfitrion */\n      0xffffffffffffffffffffffffffffffffffffffff\n      and\n      eq\n        /* \"Solidity_BD2/casaApuestas.sol\":1295:1365  require(msg.sender == anfitrion, \"El invocador debe ser el anfitrion\") */\n      tag_109\n      jumpi\n      mload(0x40)\n      0x08c379a000000000000000000000000000000000000000000000000000000000\n      dup2\n      mstore\n      0x04\n      add\n      dup1\n      dup1\n      0x20\n      add\n      dup3\n      dup2\n      sub\n      dup3\n      mstore\n      0x22\n      dup2\n      mstore\n      0x20\n      add\n      dup1\n      data_445dd79b894b98a34a1cc7c38a5bd2de2e19478d6390b1e445457362fd7001d8\n      0x22\n      swap2\n      codecopy\n      0x40\n      add\n      swap2\n      pop\n      pop\n      mload(0x40)\n      dup1\n      swap2\n      sub\n      swap1\n      revert\n    tag_109:\n        /* \"Solidity_BD2/casaApuestas.sol\":6961:6972  _codCarrera */\n      dup1\n        /* \"Solidity_BD2/casaApuestas.sol\":2597:2598  0 */\n      0x00\n        /* \"Solidity_BD2/casaApuestas.sol\":2557:2565  carreras */\n      0x02\n        /* \"Solidity_BD2/casaApuestas.sol\":2557:2578  carreras[_codCarrera] */\n      0x00\n        /* \"Solidity_BD2/casaApuestas.sol\":2566:2577  _codCarrera */\n      dup4\n        /* \"Solidity_BD2/casaApuestas.sol\":2557:2578  carreras[_codCarrera] */\n      dup2\n      mstore\n      0x20\n      add\n      swap1\n      dup2\n      mstore\n      0x20\n      add\n      0x00\n      keccak256\n        /* \"Solidity_BD2/casaApuestas.sol\":2557:2585  carreras[_codCarrera].nombre */\n      0x01\n      add\n        /* \"Solidity_BD2/casaApuestas.sol\":2551:2593  bytes(carreras[_codCarrera].nombre).length */\n      dup1\n      sload\n      0x01\n      dup2\n      0x01\n      and\n      iszero\n      0x0100\n      mul\n      sub\n      and\n      0x02\n      swap1\n      div\n      swap1\n      pop\n        /* \"Solidity_BD2/casaApuestas.sol\":2551:2598  bytes(carreras[_codCarrera].nombre).length != 0 */\n      eq\n      iszero\n        /* \"Solidity_BD2/casaApuestas.sol\":2543:2633  require(bytes(carreras[_codCarrera].nombre).length != 0, \"La carrera ingresada no existe\") */\n      tag_111\n      jumpi\n      mload(0x40)\n      0x08c379a000000000000000000000000000000000000000000000000000000000\n      dup2\n      mstore\n      0x04\n      add\n      dup1\n      dup1\n      0x20\n      add\n      dup3\n      dup2\n      sub\n      dup3\n      mstore\n      0x1e\n      dup2\n      mstore\n      0x20\n      add\n      dup1\n      0x4c61206361727265726120696e67726573616461206e6f206578697374650000\n      dup2\n      mstore\n      pop\n      0x20\n      add\n      swap2\n      pop\n      pop\n      mload(0x40)\n      dup1\n      swap2\n      sub\n      swap1\n      revert\n    tag_111:\n        /* \"Solidity_BD2/casaApuestas.sol\":6989:7000  _codCarrera */\n      dup2\n        /* \"Solidity_BD2/casaApuestas.sol\":7002:7019  Estado.Registrada */\n      0x01\n        /* \"Solidity_BD2/casaApuestas.sol\":1783:1790  _estado */\n      dup1\n        /* \"Solidity_BD2/casaApuestas.sol\":1744:1790  carreras[_codCarrera].estadoCarrera == _estado */\n      0x02\n      dup2\n      gt\n      iszero\n      tag_113\n      jumpi\n      invalid\n    tag_113:\n        /* \"Solidity_BD2/casaApuestas.sol\":1744:1752  carreras */\n      0x02\n        /* \"Solidity_BD2/casaApuestas.sol\":1744:1765  carreras[_codCarrera] */\n      0x00\n        /* \"Solidity_BD2/casaApuestas.sol\":1753:1764  _codCarrera */\n      dup5\n        /* \"Solidity_BD2/casaApuestas.sol\":1744:1765  carreras[_codCarrera] */\n      dup2\n      mstore\n      0x20\n      add\n      swap1\n      dup2\n      mstore\n      0x20\n      add\n      0x00\n      keccak256\n        /* \"Solidity_BD2/casaApuestas.sol\":1744:1779  carreras[_codCarrera].estadoCarrera */\n      0x02\n      add\n      0x00\n      swap1\n      sload\n      swap1\n      0x0100\n      exp\n      swap1\n      div\n      0xff\n      and\n        /* \"Solidity_BD2/casaApuestas.sol\":1744:1790  carreras[_codCarrera].estadoCarrera == _estado */\n      0x02\n      dup2\n      gt\n      iszero\n      tag_114\n      jumpi\n      invalid\n    tag_114:\n      eq\n        /* \"Solidity_BD2/casaApuestas.sol\":1736:1839  require(carreras[_codCarrera].estadoCarrera == _estado, \"La carrera no cumple con el estado requerido\") */\n      tag_115\n      jumpi\n      mload(0x40)\n      0x08c379a000000000000000000000000000000000000000000000000000000000\n      dup2\n      mstore\n      0x04\n      add\n      dup1\n      dup1\n      0x20\n      add\n      dup3\n      dup2\n      sub\n      dup3\n      mstore\n      0x2c\n      dup2\n      mstore\n      0x20\n      add\n      dup1\n      data_e91ca438e9e3f1e0e0a5b1a72a508ed5ae254b3cb59572817ac1ec6e2a488952\n      0x2c\n      swap2\n      codecopy\n      0x40\n      add\n      swap2\n      pop\n      pop\n      mload(0x40)\n      dup1\n      swap2\n      sub\n      swap1\n      revert\n    tag_115:\n        /* \"Solidity_BD2/casaApuestas.sol\":7031:7056  uint indiceCaballoGanador */\n      0x00\n        /* \"Solidity_BD2/casaApuestas.sol\":7059:7113  generarAleatorio(carreras[_codCarrera].numeroCaballos) */\n      tag_117\n        /* \"Solidity_BD2/casaApuestas.sol\":7076:7084  carreras */\n      0x02\n        /* \"Solidity_BD2/casaApuestas.sol\":7076:7097  carreras[_codCarrera] */\n      0x00\n        /* \"Solidity_BD2/casaApuestas.sol\":7085:7096  _codCarrera */\n      dup8\n        /* \"Solidity_BD2/casaApuestas.sol\":7076:7097  carreras[_codCarrera] */\n      dup2\n      mstore\n      0x20\n      add\n      swap1\n      dup2\n      mstore\n      0x20\n      add\n      0x00\n      keccak256\n        /* \"Solidity_BD2/casaApuestas.sol\":7076:7112  carreras[_codCarrera].numeroCaballos */\n      0x04\n      add\n      sload\n        /* \"Solidity_BD2/casaApuestas.sol\":7059:7075  generarAleatorio */\n      tag_118\n        /* \"Solidity_BD2/casaApuestas.sol\":7059:7113  generarAleatorio(carreras[_codCarrera].numeroCaballos) */\n      jump\t// in\n    tag_117:\n        /* \"Solidity_BD2/casaApuestas.sol\":7031:7113  uint indiceCaballoGanador = generarAleatorio(carreras[_codCarrera].numeroCaballos) */\n      swap1\n      pop\n        /* \"Solidity_BD2/casaApuestas.sol\":7177:7202  uint apostadoPorGanadores */\n      0x00\n        /* \"Solidity_BD2/casaApuestas.sol\":7205:7206  0 */\n      dup1\n        /* \"Solidity_BD2/casaApuestas.sol\":7177:7206  uint apostadoPorGanadores = 0 */\n      swap1\n      pop\n        /* \"Solidity_BD2/casaApuestas.sol\":7327:7339  competencias */\n      0x04\n        /* \"Solidity_BD2/casaApuestas.sol\":7327:7352  competencias[_codCarrera] */\n      0x00\n        /* \"Solidity_BD2/casaApuestas.sol\":7340:7351  _codCarrera */\n      dup8\n        /* \"Solidity_BD2/casaApuestas.sol\":7327:7352  competencias[_codCarrera] */\n      dup2\n      mstore\n      0x20\n      add\n      swap1\n      dup2\n      mstore\n      0x20\n      add\n      0x00\n      keccak256\n        /* \"Solidity_BD2/casaApuestas.sol\":7353:7373  indiceCaballoGanador */\n      dup3\n        /* \"Solidity_BD2/casaApuestas.sol\":7327:7374  competencias[_codCarrera][indiceCaballoGanador] */\n      dup2\n      sload\n      dup2\n      lt\n      tag_119\n      jumpi\n      invalid\n    tag_119:\n      swap1\n      0x00\n      mstore\n      keccak256(0x00, 0x20)\n      add\n      sload\n        /* \"Solidity_BD2/casaApuestas.sol\":7288:7296  carreras */\n      0x02\n        /* \"Solidity_BD2/casaApuestas.sol\":7288:7309  carreras[_codCarrera] */\n      0x00\n        /* \"Solidity_BD2/casaApuestas.sol\":7297:7308  _codCarrera */\n      dup9\n        /* \"Solidity_BD2/casaApuestas.sol\":7288:7309  carreras[_codCarrera] */\n      dup2\n      mstore\n      0x20\n      add\n      swap1\n      dup2\n      mstore\n      0x20\n      add\n      0x00\n      keccak256\n        /* \"Solidity_BD2/casaApuestas.sol\":7288:7324  carreras[_codCarrera].caballoGanador */\n      0x05\n      add\n        /* \"Solidity_BD2/casaApuestas.sol\":7288:7374  carreras[_codCarrera].caballoGanador = competencias[_codCarrera][indiceCaballoGanador] */\n      dup2\n      swap1\n      sstore\n      pop\n        /* \"Solidity_BD2/casaApuestas.sol\":7458:7464  uint i */\n      0x00\n        /* \"Solidity_BD2/casaApuestas.sol\":7467:7468  0 */\n      dup1\n        /* \"Solidity_BD2/casaApuestas.sol\":7458:7468  uint i = 0 */\n      swap1\n      pop\n        /* \"Solidity_BD2/casaApuestas.sol\":7453:7957  for (uint i = 0; i < apostadores[_codCarrera].length; i++) {  // Total de apostadores para esta carrera\r... */\n    tag_121:\n        /* \"Solidity_BD2/casaApuestas.sol\":7474:7485  apostadores */\n      0x05\n        /* \"Solidity_BD2/casaApuestas.sol\":7474:7498  apostadores[_codCarrera] */\n      0x00\n        /* \"Solidity_BD2/casaApuestas.sol\":7486:7497  _codCarrera */\n      dup9\n        /* \"Solidity_BD2/casaApuestas.sol\":7474:7498  apostadores[_codCarrera] */\n      dup2\n      mstore\n      0x20\n      add\n      swap1\n      dup2\n      mstore\n      0x20\n      add\n      0x00\n      keccak256\n        /* \"Solidity_BD2/casaApuestas.sol\":7474:7505  apostadores[_codCarrera].length */\n      dup1\n      sload\n      swap1\n      pop\n        /* \"Solidity_BD2/casaApuestas.sol\":7470:7471  i */\n      dup2\n        /* \"Solidity_BD2/casaApuestas.sol\":7470:7505  i < apostadores[_codCarrera].length */\n      lt\n        /* \"Solidity_BD2/casaApuestas.sol\":7453:7957  for (uint i = 0; i < apostadores[_codCarrera].length; i++) {  // Total de apostadores para esta carrera\r... */\n      iszero\n      tag_122\n      jumpi\n        /* \"Solidity_BD2/casaApuestas.sol\":7570:7587  address direccion */\n      0x00\n        /* \"Solidity_BD2/casaApuestas.sol\":7590:7601  apostadores */\n      0x05\n        /* \"Solidity_BD2/casaApuestas.sol\":7590:7614  apostadores[_codCarrera] */\n      0x00\n        /* \"Solidity_BD2/casaApuestas.sol\":7602:7613  _codCarrera */\n      dup10\n        /* \"Solidity_BD2/casaApuestas.sol\":7590:7614  apostadores[_codCarrera] */\n      dup2\n      mstore\n      0x20\n      add\n      swap1\n      dup2\n      mstore\n      0x20\n      add\n      0x00\n      keccak256\n        /* \"Solidity_BD2/casaApuestas.sol\":7615:7616  i */\n      dup3\n        /* \"Solidity_BD2/casaApuestas.sol\":7590:7617  apostadores[_codCarrera][i] */\n      dup2\n      sload\n      dup2\n      lt\n      tag_124\n      jumpi\n      invalid\n    tag_124:\n      swap1\n      0x00\n      mstore\n      keccak256(0x00, 0x20)\n      add\n      0x00\n      swap1\n      sload\n      swap1\n      0x0100\n      exp\n      swap1\n      div\n      0xffffffffffffffffffffffffffffffffffffffff\n      and\n        /* \"Solidity_BD2/casaApuestas.sol\":7570:7617  address direccion = apostadores[_codCarrera][i] */\n      swap1\n      pop\n        /* \"Solidity_BD2/casaApuestas.sol\":7792:7804  competencias */\n      0x04\n        /* \"Solidity_BD2/casaApuestas.sol\":7792:7817  competencias[_codCarrera] */\n      0x00\n        /* \"Solidity_BD2/casaApuestas.sol\":7805:7816  _codCarrera */\n      dup10\n        /* \"Solidity_BD2/casaApuestas.sol\":7792:7817  competencias[_codCarrera] */\n      dup2\n      mstore\n      0x20\n      add\n      swap1\n      dup2\n      mstore\n      0x20\n      add\n      0x00\n      keccak256\n        /* \"Solidity_BD2/casaApuestas.sol\":7818:7838  indiceCaballoGanador */\n      dup5\n        /* \"Solidity_BD2/casaApuestas.sol\":7792:7839  competencias[_codCarrera][indiceCaballoGanador] */\n      dup2\n      sload\n      dup2\n      lt\n      tag_126\n      jumpi\n      invalid\n    tag_126:\n      swap1\n      0x00\n      mstore\n      keccak256(0x00, 0x20)\n      add\n      sload\n        /* \"Solidity_BD2/casaApuestas.sol\":7736:7744  carreras */\n      0x02\n        /* \"Solidity_BD2/casaApuestas.sol\":7736:7757  carreras[_codCarrera] */\n      0x00\n        /* \"Solidity_BD2/casaApuestas.sol\":7745:7756  _codCarrera */\n      dup11\n        /* \"Solidity_BD2/casaApuestas.sol\":7736:7757  carreras[_codCarrera] */\n      dup2\n      mstore\n      0x20\n      add\n      swap1\n      dup2\n      mstore\n      0x20\n      add\n      0x00\n      keccak256\n        /* \"Solidity_BD2/casaApuestas.sol\":7736:7766  carreras[_codCarrera].apuestas */\n      0x06\n      add\n        /* \"Solidity_BD2/casaApuestas.sol\":7736:7777  carreras[_codCarrera].apuestas[direccion] */\n      0x00\n        /* \"Solidity_BD2/casaApuestas.sol\":7767:7776  direccion */\n      dup4\n        /* \"Solidity_BD2/casaApuestas.sol\":7736:7777  carreras[_codCarrera].apuestas[direccion] */\n      0xffffffffffffffffffffffffffffffffffffffff\n      and\n      0xffffffffffffffffffffffffffffffffffffffff\n      and\n      dup2\n      mstore\n      0x20\n      add\n      swap1\n      dup2\n      mstore\n      0x20\n      add\n      0x00\n      keccak256\n        /* \"Solidity_BD2/casaApuestas.sol\":7736:7788  carreras[_codCarrera].apuestas[direccion].codCaballo */\n      0x01\n      add\n      sload\n        /* \"Solidity_BD2/casaApuestas.sol\":7736:7839  carreras[_codCarrera].apuestas[direccion].codCaballo == competencias[_codCarrera][indiceCaballoGanador] */\n      eq\n        /* \"Solidity_BD2/casaApuestas.sol\":7732:7946  if (carreras[_codCarrera].apuestas[direccion].codCaballo == competencias[_codCarrera][indiceCaballoGanador]){\r... */\n      iszero\n      tag_128\n      jumpi\n        /* \"Solidity_BD2/casaApuestas.sol\":7883:7891  carreras */\n      0x02\n        /* \"Solidity_BD2/casaApuestas.sol\":7883:7904  carreras[_codCarrera] */\n      0x00\n        /* \"Solidity_BD2/casaApuestas.sol\":7892:7903  _codCarrera */\n      dup10\n        /* \"Solidity_BD2/casaApuestas.sol\":7883:7904  carreras[_codCarrera] */\n      dup2\n      mstore\n      0x20\n      add\n      swap1\n      dup2\n      mstore\n      0x20\n      add\n      0x00\n      keccak256\n        /* \"Solidity_BD2/casaApuestas.sol\":7883:7913  carreras[_codCarrera].apuestas */\n      0x06\n      add\n        /* \"Solidity_BD2/casaApuestas.sol\":7883:7924  carreras[_codCarrera].apuestas[direccion] */\n      0x00\n        /* \"Solidity_BD2/casaApuestas.sol\":7914:7923  direccion */\n      dup3\n        /* \"Solidity_BD2/casaApuestas.sol\":7883:7924  carreras[_codCarrera].apuestas[direccion] */\n      0xffffffffffffffffffffffffffffffffffffffff\n      and\n      0xffffffffffffffffffffffffffffffffffffffff\n      and\n      dup2\n      mstore\n      0x20\n      add\n      swap1\n      dup2\n      mstore\n      0x20\n      add\n      0x00\n      keccak256\n        /* \"Solidity_BD2/casaApuestas.sol\":7883:7930  carreras[_codCarrera].apuestas[direccion].monto */\n      0x00\n      add\n      sload\n        /* \"Solidity_BD2/casaApuestas.sol\":7859:7930  apostadoPorGanadores += carreras[_codCarrera].apuestas[direccion].monto */\n      dup4\n      add\n      swap3\n      pop\n        /* \"Solidity_BD2/casaApuestas.sol\":7732:7946  if (carreras[_codCarrera].apuestas[direccion].codCaballo == competencias[_codCarrera][indiceCaballoGanador]){\r... */\n    tag_128:\n        /* \"Solidity_BD2/casaApuestas.sol\":7453:7957  for (uint i = 0; i < apostadores[_codCarrera].length; i++) {  // Total de apostadores para esta carrera\r... */\n      pop\n        /* \"Solidity_BD2/casaApuestas.sol\":7507:7510  i++ */\n      dup1\n      dup1\n      0x01\n      add\n      swap2\n      pop\n      pop\n        /* \"Solidity_BD2/casaApuestas.sol\":7453:7957  for (uint i = 0; i < apostadores[_codCarrera].length; i++) {  // Total de apostadores para esta carrera\r... */\n      jump(tag_121)\n    tag_122:\n      pop\n        /* \"Solidity_BD2/casaApuestas.sol\":7999:8000  0 */\n      0x00\n        /* \"Solidity_BD2/casaApuestas.sol\":7975:7995  apostadoPorGanadores */\n      dup2\n        /* \"Solidity_BD2/casaApuestas.sol\":7975:8000  apostadoPorGanadores != 0 */\n      eq\n        /* \"Solidity_BD2/casaApuestas.sol\":7971:9198  if (apostadoPorGanadores != 0){\r... */\n      tag_129\n      jumpi\n        /* \"Solidity_BD2/casaApuestas.sol\":8084:8090  uint i */\n      0x00\n        /* \"Solidity_BD2/casaApuestas.sol\":8093:8094  0 */\n      dup1\n        /* \"Solidity_BD2/casaApuestas.sol\":8084:8094  uint i = 0 */\n      swap1\n      pop\n        /* \"Solidity_BD2/casaApuestas.sol\":8079:9030  for (uint i = 0; i < apostadores[_codCarrera].length; i++) {\r... */\n    tag_130:\n        /* \"Solidity_BD2/casaApuestas.sol\":8100:8111  apostadores */\n      0x05\n        /* \"Solidity_BD2/casaApuestas.sol\":8100:8124  apostadores[_codCarrera] */\n      0x00\n        /* \"Solidity_BD2/casaApuestas.sol\":8112:8123  _codCarrera */\n      dup9\n        /* \"Solidity_BD2/casaApuestas.sol\":8100:8124  apostadores[_codCarrera] */\n      dup2\n      mstore\n      0x20\n      add\n      swap1\n      dup2\n      mstore\n      0x20\n      add\n      0x00\n      keccak256\n        /* \"Solidity_BD2/casaApuestas.sol\":8100:8131  apostadores[_codCarrera].length */\n      dup1\n      sload\n      swap1\n      pop\n        /* \"Solidity_BD2/casaApuestas.sol\":8096:8097  i */\n      dup2\n        /* \"Solidity_BD2/casaApuestas.sol\":8096:8131  i < apostadores[_codCarrera].length */\n      lt\n        /* \"Solidity_BD2/casaApuestas.sol\":8079:9030  for (uint i = 0; i < apostadores[_codCarrera].length; i++) {\r... */\n      iszero\n      tag_131\n      jumpi\n        /* \"Solidity_BD2/casaApuestas.sol\":8157:8174  address direccion */\n      0x00\n        /* \"Solidity_BD2/casaApuestas.sol\":8177:8188  apostadores */\n      0x05\n        /* \"Solidity_BD2/casaApuestas.sol\":8177:8201  apostadores[_codCarrera] */\n      0x00\n        /* \"Solidity_BD2/casaApuestas.sol\":8189:8200  _codCarrera */\n      dup10\n        /* \"Solidity_BD2/casaApuestas.sol\":8177:8201  apostadores[_codCarrera] */\n      dup2\n      mstore\n      0x20\n      add\n      swap1\n      dup2\n      mstore\n      0x20\n      add\n      0x00\n      keccak256\n        /* \"Solidity_BD2/casaApuestas.sol\":8202:8203  i */\n      dup3\n        /* \"Solidity_BD2/casaApuestas.sol\":8177:8204  apostadores[_codCarrera][i] */\n      dup2\n      sload\n      dup2\n      lt\n      tag_133\n      jumpi\n      invalid\n    tag_133:\n      swap1\n      0x00\n      mstore\n      keccak256(0x00, 0x20)\n      add\n      0x00\n      swap1\n      sload\n      swap1\n      0x0100\n      exp\n      swap1\n      div\n      0xffffffffffffffffffffffffffffffffffffffff\n      and\n        /* \"Solidity_BD2/casaApuestas.sol\":8157:8204  address direccion = apostadores[_codCarrera][i] */\n      swap1\n      pop\n        /* \"Solidity_BD2/casaApuestas.sol\":8283:8295  competencias */\n      0x04\n        /* \"Solidity_BD2/casaApuestas.sol\":8283:8308  competencias[_codCarrera] */\n      0x00\n        /* \"Solidity_BD2/casaApuestas.sol\":8296:8307  _codCarrera */\n      dup10\n        /* \"Solidity_BD2/casaApuestas.sol\":8283:8308  competencias[_codCarrera] */\n      dup2\n      mstore\n      0x20\n      add\n      swap1\n      dup2\n      mstore\n      0x20\n      add\n      0x00\n      keccak256\n        /* \"Solidity_BD2/casaApuestas.sol\":8309:8329  indiceCaballoGanador */\n      dup5\n        /* \"Solidity_BD2/casaApuestas.sol\":8283:8330  competencias[_codCarrera][indiceCaballoGanador] */\n      dup2\n      sload\n      dup2\n      lt\n      tag_135\n      jumpi\n      invalid\n    tag_135:\n      swap1\n      0x00\n      mstore\n      keccak256(0x00, 0x20)\n      add\n      sload\n        /* \"Solidity_BD2/casaApuestas.sol\":8227:8235  carreras */\n      0x02\n        /* \"Solidity_BD2/casaApuestas.sol\":8227:8248  carreras[_codCarrera] */\n      0x00\n        /* \"Solidity_BD2/casaApuestas.sol\":8236:8247  _codCarrera */\n      dup11\n        /* \"Solidity_BD2/casaApuestas.sol\":8227:8248  carreras[_codCarrera] */\n      dup2\n      mstore\n      0x20\n      add\n      swap1\n      dup2\n      mstore\n      0x20\n      add\n      0x00\n      keccak256\n        /* \"Solidity_BD2/casaApuestas.sol\":8227:8257  carreras[_codCarrera].apuestas */\n      0x06\n      add\n        /* \"Solidity_BD2/casaApuestas.sol\":8227:8268  carreras[_codCarrera].apuestas[direccion] */\n      0x00\n        /* \"Solidity_BD2/casaApuestas.sol\":8258:8267  direccion */\n      dup4\n        /* \"Solidity_BD2/casaApuestas.sol\":8227:8268  carreras[_codCarrera].apuestas[direccion] */\n      0xffffffffffffffffffffffffffffffffffffffff\n      and\n      0xffffffffffffffffffffffffffffffffffffffff\n      and\n      dup2\n      mstore\n      0x20\n      add\n      swap1\n      dup2\n      mstore\n      0x20\n      add\n      0x00\n      keccak256\n        /* \"Solidity_BD2/casaApuestas.sol\":8227:8279  carreras[_codCarrera].apuestas[direccion].codCaballo */\n      0x01\n      add\n      sload\n        /* \"Solidity_BD2/casaApuestas.sol\":8227:8330  carreras[_codCarrera].apuestas[direccion].codCaballo == competencias[_codCarrera][indiceCaballoGanador] */\n      eq\n        /* \"Solidity_BD2/casaApuestas.sol\":8223:9015  if (carreras[_codCarrera].apuestas[direccion].codCaballo == competencias[_codCarrera][indiceCaballoGanador]){\r... */\n      iszero\n      tag_137\n      jumpi\n        /* \"Solidity_BD2/casaApuestas.sol\":8460:8480  apostadoPorGanadores */\n      dup3\n        /* \"Solidity_BD2/casaApuestas.sol\":8410:8418  carreras */\n      0x02\n        /* \"Solidity_BD2/casaApuestas.sol\":8410:8431  carreras[_codCarrera] */\n      0x00\n        /* \"Solidity_BD2/casaApuestas.sol\":8419:8430  _codCarrera */\n      dup11\n        /* \"Solidity_BD2/casaApuestas.sol\":8410:8431  carreras[_codCarrera] */\n      dup2\n      mstore\n      0x20\n      add\n      swap1\n      dup2\n      mstore\n      0x20\n      add\n      0x00\n      keccak256\n        /* \"Solidity_BD2/casaApuestas.sol\":8410:8440  carreras[_codCarrera].apuestas */\n      0x06\n      add\n        /* \"Solidity_BD2/casaApuestas.sol\":8410:8451  carreras[_codCarrera].apuestas[direccion] */\n      0x00\n        /* \"Solidity_BD2/casaApuestas.sol\":8441:8450  direccion */\n      dup4\n        /* \"Solidity_BD2/casaApuestas.sol\":8410:8451  carreras[_codCarrera].apuestas[direccion] */\n      0xffffffffffffffffffffffffffffffffffffffff\n      and\n      0xffffffffffffffffffffffffffffffffffffffff\n      and\n      dup2\n      mstore\n      0x20\n      add\n      swap1\n      dup2\n      mstore\n      0x20\n      add\n      0x00\n      keccak256\n        /* \"Solidity_BD2/casaApuestas.sol\":8410:8457  carreras[_codCarrera].apuestas[direccion].monto */\n      0x00\n      add\n      sload\n        /* \"Solidity_BD2/casaApuestas.sol\":8410:8480  carreras[_codCarrera].apuestas[direccion].monto / apostadoPorGanadores */\n      dup2\n      tag_138\n      jumpi\n      invalid\n    tag_138:\n      div\n        /* \"Solidity_BD2/casaApuestas.sol\":8354:8362  carreras */\n      0x02\n        /* \"Solidity_BD2/casaApuestas.sol\":8354:8375  carreras[_codCarrera] */\n      0x00\n        /* \"Solidity_BD2/casaApuestas.sol\":8363:8374  _codCarrera */\n      dup11\n        /* \"Solidity_BD2/casaApuestas.sol\":8354:8375  carreras[_codCarrera] */\n      dup2\n      mstore\n      0x20\n      add\n      swap1\n      dup2\n      mstore\n      0x20\n      add\n      0x00\n      keccak256\n        /* \"Solidity_BD2/casaApuestas.sol\":8354:8384  carreras[_codCarrera].apuestas */\n      0x06\n      add\n        /* \"Solidity_BD2/casaApuestas.sol\":8354:8395  carreras[_codCarrera].apuestas[direccion] */\n      0x00\n        /* \"Solidity_BD2/casaApuestas.sol\":8385:8394  direccion */\n      dup4\n        /* \"Solidity_BD2/casaApuestas.sol\":8354:8395  carreras[_codCarrera].apuestas[direccion] */\n      0xffffffffffffffffffffffffffffffffffffffff\n      and\n      0xffffffffffffffffffffffffffffffffffffffff\n      and\n      dup2\n      mstore\n      0x20\n      add\n      swap1\n      dup2\n      mstore\n      0x20\n      add\n      0x00\n      keccak256\n        /* \"Solidity_BD2/casaApuestas.sol\":8354:8406  carreras[_codCarrera].apuestas[direccion].proporcion */\n      0x03\n      add\n        /* \"Solidity_BD2/casaApuestas.sol\":8354:8481  carreras[_codCarrera].apuestas[direccion].proporcion = (carreras[_codCarrera].apuestas[direccion].monto / apostadoPorGanadores) */\n      dup2\n      swap1\n      sstore\n      pop\n        /* \"Solidity_BD2/casaApuestas.sol\":8555:8564  direccion */\n      dup1\n        /* \"Solidity_BD2/casaApuestas.sol\":8547:8574  payable(direccion).transfer */\n      0xffffffffffffffffffffffffffffffffffffffff\n      and\n        /* \"Solidity_BD2/casaApuestas.sol\":8547:8743  payable(direccion).transfer(((carreras[_codCarrera].apuestas[direccion].monto * 10000) / apostadoPorGanadores) * (carreras[_codCarrera].montoTotal - (carreras[_codCarrera].montoTotal / 4)) /10000) */\n      0x08fc\n        /* \"Solidity_BD2/casaApuestas.sol\":8737:8742  10000 */\n      0x2710\n        /* \"Solidity_BD2/casaApuestas.sol\":8732:8733  4 */\n      0x04\n        /* \"Solidity_BD2/casaApuestas.sol\":8697:8705  carreras */\n      0x02\n        /* \"Solidity_BD2/casaApuestas.sol\":8697:8718  carreras[_codCarrera] */\n      0x00\n        /* \"Solidity_BD2/casaApuestas.sol\":8706:8717  _codCarrera */\n      dup14\n        /* \"Solidity_BD2/casaApuestas.sol\":8697:8718  carreras[_codCarrera] */\n      dup2\n      mstore\n      0x20\n      add\n      swap1\n      dup2\n      mstore\n      0x20\n      add\n      0x00\n      keccak256\n        /* \"Solidity_BD2/casaApuestas.sol\":8697:8729  carreras[_codCarrera].montoTotal */\n      0x03\n      add\n      sload\n        /* \"Solidity_BD2/casaApuestas.sol\":8697:8733  carreras[_codCarrera].montoTotal / 4 */\n      dup2\n      tag_139\n      jumpi\n      invalid\n    tag_139:\n      div\n        /* \"Solidity_BD2/casaApuestas.sol\":8661:8669  carreras */\n      0x02\n        /* \"Solidity_BD2/casaApuestas.sol\":8661:8682  carreras[_codCarrera] */\n      0x00\n        /* \"Solidity_BD2/casaApuestas.sol\":8670:8681  _codCarrera */\n      dup14\n        /* \"Solidity_BD2/casaApuestas.sol\":8661:8682  carreras[_codCarrera] */\n      dup2\n      mstore\n      0x20\n      add\n      swap1\n      dup2\n      mstore\n      0x20\n      add\n      0x00\n      keccak256\n        /* \"Solidity_BD2/casaApuestas.sol\":8661:8693  carreras[_codCarrera].montoTotal */\n      0x03\n      add\n      sload\n        /* \"Solidity_BD2/casaApuestas.sol\":8661:8734  carreras[_codCarrera].montoTotal - (carreras[_codCarrera].montoTotal / 4) */\n      sub\n        /* \"Solidity_BD2/casaApuestas.sol\":8636:8656  apostadoPorGanadores */\n      dup7\n        /* \"Solidity_BD2/casaApuestas.sol\":8627:8632  10000 */\n      0x2710\n        /* \"Solidity_BD2/casaApuestas.sol\":8577:8585  carreras */\n      0x02\n        /* \"Solidity_BD2/casaApuestas.sol\":8577:8598  carreras[_codCarrera] */\n      0x00\n        /* \"Solidity_BD2/casaApuestas.sol\":8586:8597  _codCarrera */\n      dup16\n        /* \"Solidity_BD2/casaApuestas.sol\":8577:8598  carreras[_codCarrera] */\n      dup2\n      mstore\n      0x20\n      add\n      swap1\n      dup2\n      mstore\n      0x20\n      add\n      0x00\n      keccak256\n        /* \"Solidity_BD2/casaApuestas.sol\":8577:8607  carreras[_codCarrera].apuestas */\n      0x06\n      add\n        /* \"Solidity_BD2/casaApuestas.sol\":8577:8618  carreras[_codCarrera].apuestas[direccion] */\n      0x00\n        /* \"Solidity_BD2/casaApuestas.sol\":8608:8617  direccion */\n      dup9\n        /* \"Solidity_BD2/casaApuestas.sol\":8577:8618  carreras[_codCarrera].apuestas[direccion] */\n      0xffffffffffffffffffffffffffffffffffffffff\n      and\n      0xffffffffffffffffffffffffffffffffffffffff\n      and\n      dup2\n      mstore\n      0x20\n      add\n      swap1\n      dup2\n      mstore\n      0x20\n      add\n      0x00\n      keccak256\n        /* \"Solidity_BD2/casaApuestas.sol\":8577:8624  carreras[_codCarrera].apuestas[direccion].monto */\n      0x00\n      add\n      sload\n        /* \"Solidity_BD2/casaApuestas.sol\":8577:8632  carreras[_codCarrera].apuestas[direccion].monto * 10000 */\n      mul\n        /* \"Solidity_BD2/casaApuestas.sol\":8576:8656  (carreras[_codCarrera].apuestas[direccion].monto * 10000) / apostadoPorGanadores */\n      dup2\n      tag_140\n      jumpi\n      invalid\n    tag_140:\n      div\n        /* \"Solidity_BD2/casaApuestas.sol\":8575:8735  ((carreras[_codCarrera].apuestas[direccion].monto * 10000) / apostadoPorGanadores) * (carreras[_codCarrera].montoTotal - (carreras[_codCarrera].montoTotal / 4)) */\n      mul\n        /* \"Solidity_BD2/casaApuestas.sol\":8575:8742  ((carreras[_codCarrera].apuestas[direccion].monto * 10000) / apostadoPorGanadores) * (carreras[_codCarrera].montoTotal - (carreras[_codCarrera].montoTotal / 4)) /10000 */\n      dup2\n      tag_141\n      jumpi\n      invalid\n    tag_141:\n      div\n        /* \"Solidity_BD2/casaApuestas.sol\":8547:8743  payable(direccion).transfer(((carreras[_codCarrera].apuestas[direccion].monto * 10000) / apostadoPorGanadores) * (carreras[_codCarrera].montoTotal - (carreras[_codCarrera].montoTotal / 4)) /10000) */\n      swap1\n      dup2\n      iszero\n      mul\n      swap1\n      mload(0x40)\n      0x00\n      mload(0x40)\n      dup1\n      dup4\n      sub\n      dup2\n      dup6\n      dup9\n      dup9\n      call\n      swap4\n      pop\n      pop\n      pop\n      pop\n      iszero\n        /* \"--CODEGEN--\":8:17   */\n      dup1\n        /* \"--CODEGEN--\":5:7   */\n      iszero\n      tag_143\n      jumpi\n        /* \"--CODEGEN--\":45:61   */\n      returndatasize\n        /* \"--CODEGEN--\":42:43   */\n      0x00\n        /* \"--CODEGEN--\":39:40   */\n      dup1\n        /* \"--CODEGEN--\":24:62   */\n      returndatacopy\n        /* \"--CODEGEN--\":77:93   */\n      returndatasize\n        /* \"--CODEGEN--\":74:75   */\n      0x00\n        /* \"--CODEGEN--\":67:94   */\n      revert\n        /* \"--CODEGEN--\":5:7   */\n    tag_143:\n        /* \"Solidity_BD2/casaApuestas.sol\":8547:8743  payable(direccion).transfer(((carreras[_codCarrera].apuestas[direccion].monto * 10000) / apostadoPorGanadores) * (carreras[_codCarrera].montoTotal - (carreras[_codCarrera].montoTotal / 4)) /10000) */\n      pop\n        /* \"Solidity_BD2/casaApuestas.sol\":8990:8995  10000 */\n      0x2710\n        /* \"Solidity_BD2/casaApuestas.sol\":8985:8986  4 */\n      0x04\n        /* \"Solidity_BD2/casaApuestas.sol\":8950:8958  carreras */\n      0x02\n        /* \"Solidity_BD2/casaApuestas.sol\":8950:8971  carreras[_codCarrera] */\n      0x00\n        /* \"Solidity_BD2/casaApuestas.sol\":8959:8970  _codCarrera */\n      dup12\n        /* \"Solidity_BD2/casaApuestas.sol\":8950:8971  carreras[_codCarrera] */\n      dup2\n      mstore\n      0x20\n      add\n      swap1\n      dup2\n      mstore\n      0x20\n      add\n      0x00\n      keccak256\n        /* \"Solidity_BD2/casaApuestas.sol\":8950:8982  carreras[_codCarrera].montoTotal */\n      0x03\n      add\n      sload\n        /* \"Solidity_BD2/casaApuestas.sol\":8950:8986  carreras[_codCarrera].montoTotal / 4 */\n      dup2\n      tag_144\n      jumpi\n      invalid\n    tag_144:\n      div\n        /* \"Solidity_BD2/casaApuestas.sol\":8914:8922  carreras */\n      0x02\n        /* \"Solidity_BD2/casaApuestas.sol\":8914:8935  carreras[_codCarrera] */\n      0x00\n        /* \"Solidity_BD2/casaApuestas.sol\":8923:8934  _codCarrera */\n      dup12\n        /* \"Solidity_BD2/casaApuestas.sol\":8914:8935  carreras[_codCarrera] */\n      dup2\n      mstore\n      0x20\n      add\n      swap1\n      dup2\n      mstore\n      0x20\n      add\n      0x00\n      keccak256\n        /* \"Solidity_BD2/casaApuestas.sol\":8914:8946  carreras[_codCarrera].montoTotal */\n      0x03\n      add\n      sload\n        /* \"Solidity_BD2/casaApuestas.sol\":8914:8987  carreras[_codCarrera].montoTotal - (carreras[_codCarrera].montoTotal / 4) */\n      sub\n        /* \"Solidity_BD2/casaApuestas.sol\":8889:8909  apostadoPorGanadores */\n      dup5\n        /* \"Solidity_BD2/casaApuestas.sol\":8880:8885  10000 */\n      0x2710\n        /* \"Solidity_BD2/casaApuestas.sol\":8830:8838  carreras */\n      0x02\n        /* \"Solidity_BD2/casaApuestas.sol\":8830:8851  carreras[_codCarrera] */\n      0x00\n        /* \"Solidity_BD2/casaApuestas.sol\":8839:8850  _codCarrera */\n      dup14\n        /* \"Solidity_BD2/casaApuestas.sol\":8830:8851  carreras[_codCarrera] */\n      dup2\n      mstore\n      0x20\n      add\n      swap1\n      dup2\n      mstore\n      0x20\n      add\n      0x00\n      keccak256\n        /* \"Solidity_BD2/casaApuestas.sol\":8830:8860  carreras[_codCarrera].apuestas */\n      0x06\n      add\n        /* \"Solidity_BD2/casaApuestas.sol\":8830:8871  carreras[_codCarrera].apuestas[direccion] */\n      0x00\n        /* \"Solidity_BD2/casaApuestas.sol\":8861:8870  direccion */\n      dup7\n        /* \"Solidity_BD2/casaApuestas.sol\":8830:8871  carreras[_codCarrera].apuestas[direccion] */\n      0xffffffffffffffffffffffffffffffffffffffff\n      and\n      0xffffffffffffffffffffffffffffffffffffffff\n      and\n      dup2\n      mstore\n      0x20\n      add\n      swap1\n      dup2\n      mstore\n      0x20\n      add\n      0x00\n      keccak256\n        /* \"Solidity_BD2/casaApuestas.sol\":8830:8877  carreras[_codCarrera].apuestas[direccion].monto */\n      0x00\n      add\n      sload\n        /* \"Solidity_BD2/casaApuestas.sol\":8830:8885  carreras[_codCarrera].apuestas[direccion].monto * 10000 */\n      mul\n        /* \"Solidity_BD2/casaApuestas.sol\":8829:8909  (carreras[_codCarrera].apuestas[direccion].monto * 10000) / apostadoPorGanadores */\n      dup2\n      tag_145\n      jumpi\n      invalid\n    tag_145:\n      div\n        /* \"Solidity_BD2/casaApuestas.sol\":8828:8988  ((carreras[_codCarrera].apuestas[direccion].monto * 10000) / apostadoPorGanadores) * (carreras[_codCarrera].montoTotal - (carreras[_codCarrera].montoTotal / 4)) */\n      mul\n        /* \"Solidity_BD2/casaApuestas.sol\":8828:8995  ((carreras[_codCarrera].apuestas[direccion].monto * 10000) / apostadoPorGanadores) * (carreras[_codCarrera].montoTotal - (carreras[_codCarrera].montoTotal / 4)) /10000 */\n      dup2\n      tag_146\n      jumpi\n      invalid\n    tag_146:\n      div\n        /* \"Solidity_BD2/casaApuestas.sol\":8766:8774  carreras */\n      0x02\n        /* \"Solidity_BD2/casaApuestas.sol\":8766:8787  carreras[_codCarrera] */\n      0x00\n        /* \"Solidity_BD2/casaApuestas.sol\":8775:8786  _codCarrera */\n      dup11\n        /* \"Solidity_BD2/casaApuestas.sol\":8766:8787  carreras[_codCarrera] */\n      dup2\n      mstore\n      0x20\n      add\n      swap1\n      dup2\n      mstore\n      0x20\n      add\n      0x00\n      keccak256\n        /* \"Solidity_BD2/casaApuestas.sol\":8766:8796  carreras[_codCarrera].apuestas */\n      0x06\n      add\n        /* \"Solidity_BD2/casaApuestas.sol\":8766:8807  carreras[_codCarrera].apuestas[direccion] */\n      0x00\n        /* \"Solidity_BD2/casaApuestas.sol\":8797:8806  direccion */\n      dup4\n        /* \"Solidity_BD2/casaApuestas.sol\":8766:8807  carreras[_codCarrera].apuestas[direccion] */\n      0xffffffffffffffffffffffffffffffffffffffff\n      and\n      0xffffffffffffffffffffffffffffffffffffffff\n      and\n      dup2\n      mstore\n      0x20\n      add\n      swap1\n      dup2\n      mstore\n      0x20\n      add\n      0x00\n      keccak256\n        /* \"Solidity_BD2/casaApuestas.sol\":8766:8825  carreras[_codCarrera].apuestas[direccion].dineroTransferido */\n      0x04\n      add\n        /* \"Solidity_BD2/casaApuestas.sol\":8766:8995  carreras[_codCarrera].apuestas[direccion].dineroTransferido = ((carreras[_codCarrera].apuestas[direccion].monto * 10000) / apostadoPorGanadores) * (carreras[_codCarrera].montoTotal - (carreras[_codCarrera].montoTotal / 4)) /10000 */\n      dup2\n      swap1\n      sstore\n      pop\n        /* \"Solidity_BD2/casaApuestas.sol\":8223:9015  if (carreras[_codCarrera].apuestas[direccion].codCaballo == competencias[_codCarrera][indiceCaballoGanador]){\r... */\n    tag_137:\n        /* \"Solidity_BD2/casaApuestas.sol\":8079:9030  for (uint i = 0; i < apostadores[_codCarrera].length; i++) {\r... */\n      pop\n        /* \"Solidity_BD2/casaApuestas.sol\":8133:8136  i++ */\n      dup1\n      dup1\n      0x01\n      add\n      swap2\n      pop\n      pop\n        /* \"Solidity_BD2/casaApuestas.sol\":8079:9030  for (uint i = 0; i < apostadores[_codCarrera].length; i++) {\r... */\n      jump(tag_130)\n    tag_131:\n      pop\n        /* \"Solidity_BD2/casaApuestas.sol\":9045:9055  msg.sender */\n      caller\n        /* \"Solidity_BD2/casaApuestas.sol\":9045:9064  msg.sender.transfer */\n      0xffffffffffffffffffffffffffffffffffffffff\n      and\n        /* \"Solidity_BD2/casaApuestas.sol\":9045:9102  msg.sender.transfer(carreras[_codCarrera].montoTotal / 4) */\n      0x08fc\n        /* \"Solidity_BD2/casaApuestas.sol\":9100:9101  4 */\n      0x04\n        /* \"Solidity_BD2/casaApuestas.sol\":9065:9073  carreras */\n      0x02\n        /* \"Solidity_BD2/casaApuestas.sol\":9065:9086  carreras[_codCarrera] */\n      0x00\n        /* \"Solidity_BD2/casaApuestas.sol\":9074:9085  _codCarrera */\n      dup11\n        /* \"Solidity_BD2/casaApuestas.sol\":9065:9086  carreras[_codCarrera] */\n      dup2\n      mstore\n      0x20\n      add\n      swap1\n      dup2\n      mstore\n      0x20\n      add\n      0x00\n      keccak256\n        /* \"Solidity_BD2/casaApuestas.sol\":9065:9097  carreras[_codCarrera].montoTotal */\n      0x03\n      add\n      sload\n        /* \"Solidity_BD2/casaApuestas.sol\":9065:9101  carreras[_codCarrera].montoTotal / 4 */\n      dup2\n      tag_147\n      jumpi\n      invalid\n    tag_147:\n      div\n        /* \"Solidity_BD2/casaApuestas.sol\":9045:9102  msg.sender.transfer(carreras[_codCarrera].montoTotal / 4) */\n      swap1\n      dup2\n      iszero\n      mul\n      swap1\n      mload(0x40)\n      0x00\n      mload(0x40)\n      dup1\n      dup4\n      sub\n      dup2\n      dup6\n      dup9\n      dup9\n      call\n      swap4\n      pop\n      pop\n      pop\n      pop\n      iszero\n        /* \"--CODEGEN--\":8:17   */\n      dup1\n        /* \"--CODEGEN--\":5:7   */\n      iszero\n      tag_149\n      jumpi\n        /* \"--CODEGEN--\":45:61   */\n      returndatasize\n        /* \"--CODEGEN--\":42:43   */\n      0x00\n        /* \"--CODEGEN--\":39:40   */\n      dup1\n        /* \"--CODEGEN--\":24:62   */\n      returndatacopy\n        /* \"--CODEGEN--\":77:93   */\n      returndatasize\n        /* \"--CODEGEN--\":74:75   */\n      0x00\n        /* \"--CODEGEN--\":67:94   */\n      revert\n        /* \"--CODEGEN--\":5:7   */\n    tag_149:\n        /* \"Solidity_BD2/casaApuestas.sol\":9045:9102  msg.sender.transfer(carreras[_codCarrera].montoTotal / 4) */\n      pop\n        /* \"Solidity_BD2/casaApuestas.sol\":7971:9198  if (apostadoPorGanadores != 0){\r... */\n      jump(tag_150)\n    tag_129:\n        /* \"Solidity_BD2/casaApuestas.sol\":9133:9143  msg.sender */\n      caller\n        /* \"Solidity_BD2/casaApuestas.sol\":9133:9152  msg.sender.transfer */\n      0xffffffffffffffffffffffffffffffffffffffff\n      and\n        /* \"Solidity_BD2/casaApuestas.sol\":9133:9186  msg.sender.transfer(carreras[_codCarrera].montoTotal) */\n      0x08fc\n        /* \"Solidity_BD2/casaApuestas.sol\":9153:9161  carreras */\n      0x02\n        /* \"Solidity_BD2/casaApuestas.sol\":9153:9174  carreras[_codCarrera] */\n      0x00\n        /* \"Solidity_BD2/casaApuestas.sol\":9162:9173  _codCarrera */\n      dup10\n        /* \"Solidity_BD2/casaApuestas.sol\":9153:9174  carreras[_codCarrera] */\n      dup2\n      mstore\n      0x20\n      add\n      swap1\n      dup2\n      mstore\n      0x20\n      add\n      0x00\n      keccak256\n        /* \"Solidity_BD2/casaApuestas.sol\":9153:9185  carreras[_codCarrera].montoTotal */\n      0x03\n      add\n      sload\n        /* \"Solidity_BD2/casaApuestas.sol\":9133:9186  msg.sender.transfer(carreras[_codCarrera].montoTotal) */\n      swap1\n      dup2\n      iszero\n      mul\n      swap1\n      mload(0x40)\n      0x00\n      mload(0x40)\n      dup1\n      dup4\n      sub\n      dup2\n      dup6\n      dup9\n      dup9\n      call\n      swap4\n      pop\n      pop\n      pop\n      pop\n      iszero\n        /* \"--CODEGEN--\":8:17   */\n      dup1\n        /* \"--CODEGEN--\":5:7   */\n      iszero\n      tag_152\n      jumpi\n        /* \"--CODEGEN--\":45:61   */\n      returndatasize\n        /* \"--CODEGEN--\":42:43   */\n      0x00\n        /* \"--CODEGEN--\":39:40   */\n      dup1\n        /* \"--CODEGEN--\":24:62   */\n      returndatacopy\n        /* \"--CODEGEN--\":77:93   */\n      returndatasize\n        /* \"--CODEGEN--\":74:75   */\n      0x00\n        /* \"--CODEGEN--\":67:94   */\n      revert\n        /* \"--CODEGEN--\":5:7   */\n    tag_152:\n        /* \"Solidity_BD2/casaApuestas.sol\":9133:9186  msg.sender.transfer(carreras[_codCarrera].montoTotal) */\n      pop\n        /* \"Solidity_BD2/casaApuestas.sol\":7971:9198  if (apostadoPorGanadores != 0){\r... */\n    tag_150:\n        /* \"Solidity_BD2/casaApuestas.sol\":9246:9262  Estado.Terminada */\n      0x02\n        /* \"Solidity_BD2/casaApuestas.sol\":9208:9216  carreras */\n      dup1\n        /* \"Solidity_BD2/casaApuestas.sol\":9208:9229  carreras[_codCarrera] */\n      0x00\n        /* \"Solidity_BD2/casaApuestas.sol\":9217:9228  _codCarrera */\n      dup9\n        /* \"Solidity_BD2/casaApuestas.sol\":9208:9229  carreras[_codCarrera] */\n      dup2\n      mstore\n      0x20\n      add\n      swap1\n      dup2\n      mstore\n      0x20\n      add\n      0x00\n      keccak256\n        /* \"Solidity_BD2/casaApuestas.sol\":9208:9243  carreras[_codCarrera].estadoCarrera */\n      0x02\n      add\n      0x00\n        /* \"Solidity_BD2/casaApuestas.sol\":9208:9262  carreras[_codCarrera].estadoCarrera = Estado.Terminada */\n      0x0100\n      exp\n      dup2\n      sload\n      dup2\n      0xff\n      mul\n      not\n      and\n      swap1\n      dup4\n      0x02\n      dup2\n      gt\n      iszero\n      tag_153\n      jumpi\n      invalid\n    tag_153:\n      mul\n      or\n      swap1\n      sstore\n      pop\n        /* \"Solidity_BD2/casaApuestas.sol\":1850:1851  _ */\n      pop\n      pop\n        /* \"Solidity_BD2/casaApuestas.sol\":2644:2645  _ */\n      pop\n      pop\n        /* \"Solidity_BD2/casaApuestas.sol\":1376:1377  _ */\n      pop\n        /* \"Solidity_BD2/casaApuestas.sol\":6867:9270  function terminarCarrera(uint _codCarrera) payable public\r... */\n      pop\n      jump\t// out\n        /* \"Solidity_BD2/casaApuestas.sol\":9278:10179  function getCaballosEnCarrera(uint _codCarrera) public view returns(string memory) {\r... */\n    tag_27:\n        /* \"Solidity_BD2/casaApuestas.sol\":9346:9359  string memory */\n      0x60\n        /* \"Solidity_BD2/casaApuestas.sol\":9372:9395  string memory respuesta */\n      dup1\n        /* \"Solidity_BD2/casaApuestas.sol\":9372:9424  string memory respuesta = \"Caballos en la carrera #\" */\n      mload(0x40)\n      dup1\n      0x40\n      add\n      0x40\n      mstore\n      dup1\n      0x18\n      dup2\n      mstore\n      0x20\n      add\n      0x436162616c6c6f7320656e206c61206361727265726120230000000000000000\n      dup2\n      mstore\n      pop\n      swap1\n      pop\n        /* \"Solidity_BD2/casaApuestas.sol\":9435:9448  bool contiene */\n      0x00\n        /* \"Solidity_BD2/casaApuestas.sol\":9451:9456  false */\n      dup1\n        /* \"Solidity_BD2/casaApuestas.sol\":9435:9456  bool contiene = false */\n      swap1\n      pop\n        /* \"Solidity_BD2/casaApuestas.sol\":9503:9512  respuesta */\n      dup2\n        /* \"Solidity_BD2/casaApuestas.sol\":9514:9535  uint2str(_codCarrera) */\n      tag_155\n        /* \"Solidity_BD2/casaApuestas.sol\":9523:9534  _codCarrera */\n      dup6\n        /* \"Solidity_BD2/casaApuestas.sol\":9514:9522  uint2str */\n      tag_156\n        /* \"Solidity_BD2/casaApuestas.sol\":9514:9535  uint2str(_codCarrera) */\n      jump\t// in\n    tag_155:\n        /* \"Solidity_BD2/casaApuestas.sol\":9486:9536  abi.encodePacked(respuesta, uint2str(_codCarrera)) */\n      add(0x20, mload(0x40))\n      dup1\n      dup4\n      dup1\n      mload\n      swap1\n      0x20\n      add\n      swap1\n      dup1\n      dup4\n      dup4\n        /* \"--CODEGEN--\":36:189   */\n    tag_157:\n        /* \"--CODEGEN--\":66:68   */\n      0x20\n        /* \"--CODEGEN--\":61:64   */\n      dup4\n        /* \"--CODEGEN--\":58:69   */\n      lt\n        /* \"--CODEGEN--\":36:189   */\n      tag_159\n      jumpi\n        /* \"--CODEGEN--\":182:185   */\n      dup1\n        /* \"--CODEGEN--\":176:186   */\n      mload\n        /* \"--CODEGEN--\":171:174   */\n      dup3\n        /* \"--CODEGEN--\":164:187   */\n      mstore\n        /* \"--CODEGEN--\":98:100   */\n      0x20\n        /* \"--CODEGEN--\":93:96   */\n      dup3\n        /* \"--CODEGEN--\":89:101   */\n      add\n        /* \"--CODEGEN--\":82:101   */\n      swap2\n      pop\n        /* \"--CODEGEN--\":123:125   */\n      0x20\n        /* \"--CODEGEN--\":118:121   */\n      dup2\n        /* \"--CODEGEN--\":114:126   */\n      add\n        /* \"--CODEGEN--\":107:126   */\n      swap1\n      pop\n        /* \"--CODEGEN--\":148:150   */\n      0x20\n        /* \"--CODEGEN--\":143:146   */\n      dup4\n        /* \"--CODEGEN--\":139:151   */\n      sub\n        /* \"--CODEGEN--\":132:151   */\n      swap3\n      pop\n        /* \"--CODEGEN--\":36:189   */\n      jump(tag_157)\n    tag_159:\n        /* \"--CODEGEN--\":274:275   */\n      0x01\n        /* \"--CODEGEN--\":267:270   */\n      dup4\n        /* \"--CODEGEN--\":263:265   */\n      0x20\n        /* \"--CODEGEN--\":259:271   */\n      sub\n        /* \"--CODEGEN--\":254:257   */\n      0x0100\n        /* \"--CODEGEN--\":250:272   */\n      exp\n        /* \"--CODEGEN--\":246:276   */\n      sub\n        /* \"--CODEGEN--\":315:319   */\n      dup1\n        /* \"--CODEGEN--\":311:320   */\n      not\n        /* \"--CODEGEN--\":305:308   */\n      dup3\n        /* \"--CODEGEN--\":299:309   */\n      mload\n        /* \"--CODEGEN--\":295:321   */\n      and\n        /* \"--CODEGEN--\":356:360   */\n      dup2\n        /* \"--CODEGEN--\":350:353   */\n      dup5\n        /* \"--CODEGEN--\":344:354   */\n      mload\n        /* \"--CODEGEN--\":340:361   */\n      and\n        /* \"--CODEGEN--\":389:396   */\n      dup1\n        /* \"--CODEGEN--\":380:387   */\n      dup3\n        /* \"--CODEGEN--\":377:397   */\n      or\n        /* \"--CODEGEN--\":372:375   */\n      dup6\n        /* \"--CODEGEN--\":365:398   */\n      mstore\n        /* \"--CODEGEN--\":3:402   */\n      pop\n      pop\n      pop\n        /* \"Solidity_BD2/casaApuestas.sol\":9486:9536  abi.encodePacked(respuesta, uint2str(_codCarrera)) */\n      pop\n      pop\n      pop\n      swap1\n      pop\n      add\n      dup3\n      dup1\n      mload\n      swap1\n      0x20\n      add\n      swap1\n      dup1\n      dup4\n      dup4\n        /* \"--CODEGEN--\":36:189   */\n    tag_160:\n        /* \"--CODEGEN--\":66:68   */\n      0x20\n        /* \"--CODEGEN--\":61:64   */\n      dup4\n        /* \"--CODEGEN--\":58:69   */\n      lt\n        /* \"--CODEGEN--\":36:189   */\n      tag_162\n      jumpi\n        /* \"--CODEGEN--\":182:185   */\n      dup1\n        /* \"--CODEGEN--\":176:186   */\n      mload\n        /* \"--CODEGEN--\":171:174   */\n      dup3\n        /* \"--CODEGEN--\":164:187   */\n      mstore\n        /* \"--CODEGEN--\":98:100   */\n      0x20\n        /* \"--CODEGEN--\":93:96   */\n      dup3\n        /* \"--CODEGEN--\":89:101   */\n      add\n        /* \"--CODEGEN--\":82:101   */\n      swap2\n      pop\n        /* \"--CODEGEN--\":123:125   */\n      0x20\n        /* \"--CODEGEN--\":118:121   */\n      dup2\n        /* \"--CODEGEN--\":114:126   */\n      add\n        /* \"--CODEGEN--\":107:126   */\n      swap1\n      pop\n        /* \"--CODEGEN--\":148:150   */\n      0x20\n        /* \"--CODEGEN--\":143:146   */\n      dup4\n        /* \"--CODEGEN--\":139:151   */\n      sub\n        /* \"--CODEGEN--\":132:151   */\n      swap3\n      pop\n        /* \"--CODEGEN--\":36:189   */\n      jump(tag_160)\n    tag_162:\n        /* \"--CODEGEN--\":274:275   */\n      0x01\n        /* \"--CODEGEN--\":267:270   */\n      dup4\n        /* \"--CODEGEN--\":263:265   */\n      0x20\n        /* \"--CODEGEN--\":259:271   */\n      sub\n        /* \"--CODEGEN--\":254:257   */\n      0x0100\n        /* \"--CODEGEN--\":250:272   */\n      exp\n        /* \"--CODEGEN--\":246:276   */\n      sub\n        /* \"--CODEGEN--\":315:319   */\n      dup1\n        /* \"--CODEGEN--\":311:320   */\n      not\n        /* \"--CODEGEN--\":305:308   */\n      dup3\n        /* \"--CODEGEN--\":299:309   */\n      mload\n        /* \"--CODEGEN--\":295:321   */\n      and\n        /* \"--CODEGEN--\":356:360   */\n      dup2\n        /* \"--CODEGEN--\":350:353   */\n      dup5\n        /* \"--CODEGEN--\":344:354   */\n      mload\n        /* \"--CODEGEN--\":340:361   */\n      and\n        /* \"--CODEGEN--\":389:396   */\n      dup1\n        /* \"--CODEGEN--\":380:387   */\n      dup3\n        /* \"--CODEGEN--\":377:397   */\n      or\n        /* \"--CODEGEN--\":372:375   */\n      dup6\n        /* \"--CODEGEN--\":365:398   */\n      mstore\n        /* \"--CODEGEN--\":3:402   */\n      pop\n      pop\n      pop\n        /* \"Solidity_BD2/casaApuestas.sol\":9486:9536  abi.encodePacked(respuesta, uint2str(_codCarrera)) */\n      pop\n      pop\n      pop\n      swap1\n      pop\n      add\n      swap3\n      pop\n      pop\n      pop\n      mload(0x40)\n        /* \"--CODEGEN--\":49:53   */\n      0x20\n        /* \"--CODEGEN--\":39:46   */\n      dup2\n        /* \"--CODEGEN--\":30:37   */\n      dup4\n        /* \"--CODEGEN--\":26:47   */\n      sub\n        /* \"--CODEGEN--\":22:54   */\n      sub\n        /* \"--CODEGEN--\":13:20   */\n      dup2\n        /* \"--CODEGEN--\":6:55   */\n      mstore\n        /* \"Solidity_BD2/casaApuestas.sol\":9486:9536  abi.encodePacked(respuesta, uint2str(_codCarrera)) */\n      swap1\n      0x40\n      mstore\n        /* \"Solidity_BD2/casaApuestas.sol\":9467:9537  respuesta = string(abi.encodePacked(respuesta, uint2str(_codCarrera))) */\n      swap2\n      pop\n        /* \"Solidity_BD2/casaApuestas.sol\":9584:9593  respuesta */\n      dup2\n        /* \"Solidity_BD2/casaApuestas.sol\":9567:9600  abi.encodePacked(respuesta, \": \") */\n      add(0x20, mload(0x40))\n      dup1\n      dup3\n      dup1\n      mload\n      swap1\n      0x20\n      add\n      swap1\n      dup1\n      dup4\n      dup4\n        /* \"--CODEGEN--\":36:189   */\n    tag_163:\n        /* \"--CODEGEN--\":66:68   */\n      0x20\n        /* \"--CODEGEN--\":61:64   */\n      dup4\n        /* \"--CODEGEN--\":58:69   */\n      lt\n        /* \"--CODEGEN--\":36:189   */\n      tag_165\n      jumpi\n        /* \"--CODEGEN--\":182:185   */\n      dup1\n        /* \"--CODEGEN--\":176:186   */\n      mload\n        /* \"--CODEGEN--\":171:174   */\n      dup3\n        /* \"--CODEGEN--\":164:187   */\n      mstore\n        /* \"--CODEGEN--\":98:100   */\n      0x20\n        /* \"--CODEGEN--\":93:96   */\n      dup3\n        /* \"--CODEGEN--\":89:101   */\n      add\n        /* \"--CODEGEN--\":82:101   */\n      swap2\n      pop\n        /* \"--CODEGEN--\":123:125   */\n      0x20\n        /* \"--CODEGEN--\":118:121   */\n      dup2\n        /* \"--CODEGEN--\":114:126   */\n      add\n        /* \"--CODEGEN--\":107:126   */\n      swap1\n      pop\n        /* \"--CODEGEN--\":148:150   */\n      0x20\n        /* \"--CODEGEN--\":143:146   */\n      dup4\n        /* \"--CODEGEN--\":139:151   */\n      sub\n        /* \"--CODEGEN--\":132:151   */\n      swap3\n      pop\n        /* \"--CODEGEN--\":36:189   */\n      jump(tag_163)\n    tag_165:\n        /* \"--CODEGEN--\":274:275   */\n      0x01\n        /* \"--CODEGEN--\":267:270   */\n      dup4\n        /* \"--CODEGEN--\":263:265   */\n      0x20\n        /* \"--CODEGEN--\":259:271   */\n      sub\n        /* \"--CODEGEN--\":254:257   */\n      0x0100\n        /* \"--CODEGEN--\":250:272   */\n      exp\n        /* \"--CODEGEN--\":246:276   */\n      sub\n        /* \"--CODEGEN--\":315:319   */\n      dup1\n        /* \"--CODEGEN--\":311:320   */\n      not\n        /* \"--CODEGEN--\":305:308   */\n      dup3\n        /* \"--CODEGEN--\":299:309   */\n      mload\n        /* \"--CODEGEN--\":295:321   */\n      and\n        /* \"--CODEGEN--\":356:360   */\n      dup2\n        /* \"--CODEGEN--\":350:353   */\n      dup5\n        /* \"--CODEGEN--\":344:354   */\n      mload\n        /* \"--CODEGEN--\":340:361   */\n      and\n        /* \"--CODEGEN--\":389:396   */\n      dup1\n        /* \"--CODEGEN--\":380:387   */\n      dup3\n        /* \"--CODEGEN--\":377:397   */\n      or\n        /* \"--CODEGEN--\":372:375   */\n      dup6\n        /* \"--CODEGEN--\":365:398   */\n      mstore\n        /* \"--CODEGEN--\":3:402   */\n      pop\n      pop\n      pop\n        /* \"Solidity_BD2/casaApuestas.sol\":9567:9600  abi.encodePacked(respuesta, \": \") */\n      pop\n      pop\n      pop\n      swap1\n      pop\n      add\n      dup1\n      0x3a20000000000000000000000000000000000000000000000000000000000000\n      dup2\n      mstore\n      pop\n      0x02\n      add\n      swap2\n      pop\n      pop\n      mload(0x40)\n        /* \"--CODEGEN--\":49:53   */\n      0x20\n        /* \"--CODEGEN--\":39:46   */\n      dup2\n        /* \"--CODEGEN--\":30:37   */\n      dup4\n        /* \"--CODEGEN--\":26:47   */\n      sub\n        /* \"--CODEGEN--\":22:54   */\n      sub\n        /* \"--CODEGEN--\":13:20   */\n      dup2\n        /* \"--CODEGEN--\":6:55   */\n      mstore\n        /* \"Solidity_BD2/casaApuestas.sol\":9567:9600  abi.encodePacked(respuesta, \": \") */\n      swap1\n      0x40\n      mstore\n        /* \"Solidity_BD2/casaApuestas.sol\":9548:9601  respuesta = string(abi.encodePacked(respuesta, \": \")) */\n      swap2\n      pop\n        /* \"Solidity_BD2/casaApuestas.sol\":9617:9623  uint i */\n      0x00\n        /* \"Solidity_BD2/casaApuestas.sol\":9626:9627  0 */\n      dup1\n        /* \"Solidity_BD2/casaApuestas.sol\":9617:9627  uint i = 0 */\n      swap1\n      pop\n        /* \"Solidity_BD2/casaApuestas.sol\":9612:10004  for (uint i = 0; i < competencias[_codCarrera].length; i++){\r... */\n    tag_166:\n        /* \"Solidity_BD2/casaApuestas.sol\":9633:9645  competencias */\n      0x04\n        /* \"Solidity_BD2/casaApuestas.sol\":9633:9658  competencias[_codCarrera] */\n      0x00\n        /* \"Solidity_BD2/casaApuestas.sol\":9646:9657  _codCarrera */\n      dup7\n        /* \"Solidity_BD2/casaApuestas.sol\":9633:9658  competencias[_codCarrera] */\n      dup2\n      mstore\n      0x20\n      add\n      swap1\n      dup2\n      mstore\n      0x20\n      add\n      0x00\n      keccak256\n        /* \"Solidity_BD2/casaApuestas.sol\":9633:9665  competencias[_codCarrera].length */\n      dup1\n      sload\n      swap1\n      pop\n        /* \"Solidity_BD2/casaApuestas.sol\":9629:9630  i */\n      dup2\n        /* \"Solidity_BD2/casaApuestas.sol\":9629:9665  i < competencias[_codCarrera].length */\n      lt\n        /* \"Solidity_BD2/casaApuestas.sol\":9612:10004  for (uint i = 0; i < competencias[_codCarrera].length; i++){\r... */\n      iszero\n      tag_167\n      jumpi\n        /* \"Solidity_BD2/casaApuestas.sol\":9697:9701  true */\n      0x01\n        /* \"Solidity_BD2/casaApuestas.sol\":9686:9701  contiene = true */\n      swap2\n      pop\n        /* \"Solidity_BD2/casaApuestas.sol\":9752:9761  respuesta */\n      dup3\n        /* \"Solidity_BD2/casaApuestas.sol\":9762:9800  uint2str(competencias[_codCarrera][i]) */\n      tag_169\n        /* \"Solidity_BD2/casaApuestas.sol\":9771:9783  competencias */\n      0x04\n        /* \"Solidity_BD2/casaApuestas.sol\":9771:9796  competencias[_codCarrera] */\n      0x00\n        /* \"Solidity_BD2/casaApuestas.sol\":9784:9795  _codCarrera */\n      dup9\n        /* \"Solidity_BD2/casaApuestas.sol\":9771:9796  competencias[_codCarrera] */\n      dup2\n      mstore\n      0x20\n      add\n      swap1\n      dup2\n      mstore\n      0x20\n      add\n      0x00\n      keccak256\n        /* \"Solidity_BD2/casaApuestas.sol\":9797:9798  i */\n      dup4\n        /* \"Solidity_BD2/casaApuestas.sol\":9771:9799  competencias[_codCarrera][i] */\n      dup2\n      sload\n      dup2\n      lt\n      tag_170\n      jumpi\n      invalid\n    tag_170:\n      swap1\n      0x00\n      mstore\n      keccak256(0x00, 0x20)\n      add\n      sload\n        /* \"Solidity_BD2/casaApuestas.sol\":9762:9770  uint2str */\n      tag_156\n        /* \"Solidity_BD2/casaApuestas.sol\":9762:9800  uint2str(competencias[_codCarrera][i]) */\n      jump\t// in\n    tag_169:\n        /* \"Solidity_BD2/casaApuestas.sol\":9735:9801  abi.encodePacked(respuesta,uint2str(competencias[_codCarrera][i])) */\n      add(0x20, mload(0x40))\n      dup1\n      dup4\n      dup1\n      mload\n      swap1\n      0x20\n      add\n      swap1\n      dup1\n      dup4\n      dup4\n        /* \"--CODEGEN--\":36:189   */\n    tag_172:\n        /* \"--CODEGEN--\":66:68   */\n      0x20\n        /* \"--CODEGEN--\":61:64   */\n      dup4\n        /* \"--CODEGEN--\":58:69   */\n      lt\n        /* \"--CODEGEN--\":36:189   */\n      tag_174\n      jumpi\n        /* \"--CODEGEN--\":182:185   */\n      dup1\n        /* \"--CODEGEN--\":176:186   */\n      mload\n        /* \"--CODEGEN--\":171:174   */\n      dup3\n        /* \"--CODEGEN--\":164:187   */\n      mstore\n        /* \"--CODEGEN--\":98:100   */\n      0x20\n        /* \"--CODEGEN--\":93:96   */\n      dup3\n        /* \"--CODEGEN--\":89:101   */\n      add\n        /* \"--CODEGEN--\":82:101   */\n      swap2\n      pop\n        /* \"--CODEGEN--\":123:125   */\n      0x20\n        /* \"--CODEGEN--\":118:121   */\n      dup2\n        /* \"--CODEGEN--\":114:126   */\n      add\n        /* \"--CODEGEN--\":107:126   */\n      swap1\n      pop\n        /* \"--CODEGEN--\":148:150   */\n      0x20\n        /* \"--CODEGEN--\":143:146   */\n      dup4\n        /* \"--CODEGEN--\":139:151   */\n      sub\n        /* \"--CODEGEN--\":132:151   */\n      swap3\n      pop\n        /* \"--CODEGEN--\":36:189   */\n      jump(tag_172)\n    tag_174:\n        /* \"--CODEGEN--\":274:275   */\n      0x01\n        /* \"--CODEGEN--\":267:270   */\n      dup4\n        /* \"--CODEGEN--\":263:265   */\n      0x20\n        /* \"--CODEGEN--\":259:271   */\n      sub\n        /* \"--CODEGEN--\":254:257   */\n      0x0100\n        /* \"--CODEGEN--\":250:272   */\n      exp\n        /* \"--CODEGEN--\":246:276   */\n      sub\n        /* \"--CODEGEN--\":315:319   */\n      dup1\n        /* \"--CODEGEN--\":311:320   */\n      not\n        /* \"--CODEGEN--\":305:308   */\n      dup3\n        /* \"--CODEGEN--\":299:309   */\n      mload\n        /* \"--CODEGEN--\":295:321   */\n      and\n        /* \"--CODEGEN--\":356:360   */\n      dup2\n        /* \"--CODEGEN--\":350:353   */\n      dup5\n        /* \"--CODEGEN--\":344:354   */\n      mload\n        /* \"--CODEGEN--\":340:361   */\n      and\n        /* \"--CODEGEN--\":389:396   */\n      dup1\n        /* \"--CODEGEN--\":380:387   */\n      dup3\n        /* \"--CODEGEN--\":377:397   */\n      or\n        /* \"--CODEGEN--\":372:375   */\n      dup6\n        /* \"--CODEGEN--\":365:398   */\n      mstore\n        /* \"--CODEGEN--\":3:402   */\n      pop\n      pop\n      pop\n        /* \"Solidity_BD2/casaApuestas.sol\":9735:9801  abi.encodePacked(respuesta,uint2str(competencias[_codCarrera][i])) */\n      pop\n      pop\n      pop\n      swap1\n      pop\n      add\n      dup3\n      dup1\n      mload\n      swap1\n      0x20\n      add\n      swap1\n      dup1\n      dup4\n      dup4\n        /* \"--CODEGEN--\":36:189   */\n    tag_175:\n        /* \"--CODEGEN--\":66:68   */\n      0x20\n        /* \"--CODEGEN--\":61:64   */\n      dup4\n        /* \"--CODEGEN--\":58:69   */\n      lt\n        /* \"--CODEGEN--\":36:189   */\n      tag_177\n      jumpi\n        /* \"--CODEGEN--\":182:185   */\n      dup1\n        /* \"--CODEGEN--\":176:186   */\n      mload\n        /* \"--CODEGEN--\":171:174   */\n      dup3\n        /* \"--CODEGEN--\":164:187   */\n      mstore\n        /* \"--CODEGEN--\":98:100   */\n      0x20\n        /* \"--CODEGEN--\":93:96   */\n      dup3\n        /* \"--CODEGEN--\":89:101   */\n      add\n        /* \"--CODEGEN--\":82:101   */\n      swap2\n      pop\n        /* \"--CODEGEN--\":123:125   */\n      0x20\n        /* \"--CODEGEN--\":118:121   */\n      dup2\n        /* \"--CODEGEN--\":114:126   */\n      add\n        /* \"--CODEGEN--\":107:126   */\n      swap1\n      pop\n        /* \"--CODEGEN--\":148:150   */\n      0x20\n        /* \"--CODEGEN--\":143:146   */\n      dup4\n        /* \"--CODEGEN--\":139:151   */\n      sub\n        /* \"--CODEGEN--\":132:151   */\n      swap3\n      pop\n        /* \"--CODEGEN--\":36:189   */\n      jump(tag_175)\n    tag_177:\n        /* \"--CODEGEN--\":274:275   */\n      0x01\n        /* \"--CODEGEN--\":267:270   */\n      dup4\n        /* \"--CODEGEN--\":263:265   */\n      0x20\n        /* \"--CODEGEN--\":259:271   */\n      sub\n        /* \"--CODEGEN--\":254:257   */\n      0x0100\n        /* \"--CODEGEN--\":250:272   */\n      exp\n        /* \"--CODEGEN--\":246:276   */\n      sub\n        /* \"--CODEGEN--\":315:319   */\n      dup1\n        /* \"--CODEGEN--\":311:320   */\n      not\n        /* \"--CODEGEN--\":305:308   */\n      dup3\n        /* \"--CODEGEN--\":299:309   */\n      mload\n        /* \"--CODEGEN--\":295:321   */\n      and\n        /* \"--CODEGEN--\":356:360   */\n      dup2\n        /* \"--CODEGEN--\":350:353   */\n      dup5\n        /* \"--CODEGEN--\":344:354   */\n      mload\n        /* \"--CODEGEN--\":340:361   */\n      and\n        /* \"--CODEGEN--\":389:396   */\n      dup1\n        /* \"--CODEGEN--\":380:387   */\n      dup3\n        /* \"--CODEGEN--\":377:397   */\n      or\n        /* \"--CODEGEN--\":372:375   */\n      dup6\n        /* \"--CODEGEN--\":365:398   */\n      mstore\n        /* \"--CODEGEN--\":3:402   */\n      pop\n      pop\n      pop\n        /* \"Solidity_BD2/casaApuestas.sol\":9735:9801  abi.encodePacked(respuesta,uint2str(competencias[_codCarrera][i])) */\n      pop\n      pop\n      pop\n      swap1\n      pop\n      add\n      swap3\n      pop\n      pop\n      pop\n      mload(0x40)\n        /* \"--CODEGEN--\":49:53   */\n      0x20\n        /* \"--CODEGEN--\":39:46   */\n      dup2\n        /* \"--CODEGEN--\":30:37   */\n      dup4\n        /* \"--CODEGEN--\":26:47   */\n      sub\n        /* \"--CODEGEN--\":22:54   */\n      sub\n        /* \"--CODEGEN--\":13:20   */\n      dup2\n        /* \"--CODEGEN--\":6:55   */\n      mstore\n        /* \"Solidity_BD2/casaApuestas.sol\":9735:9801  abi.encodePacked(respuesta,uint2str(competencias[_codCarrera][i])) */\n      swap1\n      0x40\n      mstore\n        /* \"Solidity_BD2/casaApuestas.sol\":9716:9802  respuesta = string(abi.encodePacked(respuesta,uint2str(competencias[_codCarrera][i]))) */\n      swap3\n      pop\n        /* \"Solidity_BD2/casaApuestas.sol\":9859:9860  1 */\n      0x01\n        /* \"Solidity_BD2/casaApuestas.sol\":9826:9838  competencias */\n      0x04\n        /* \"Solidity_BD2/casaApuestas.sol\":9826:9851  competencias[_codCarrera] */\n      0x00\n        /* \"Solidity_BD2/casaApuestas.sol\":9839:9850  _codCarrera */\n      dup8\n        /* \"Solidity_BD2/casaApuestas.sol\":9826:9851  competencias[_codCarrera] */\n      dup2\n      mstore\n      0x20\n      add\n      swap1\n      dup2\n      mstore\n      0x20\n      add\n      0x00\n      keccak256\n        /* \"Solidity_BD2/casaApuestas.sol\":9826:9858  competencias[_codCarrera].length */\n      dup1\n      sload\n      swap1\n      pop\n        /* \"Solidity_BD2/casaApuestas.sol\":9826:9860  competencias[_codCarrera].length-1 */\n      sub\n        /* \"Solidity_BD2/casaApuestas.sol\":9821:9822  i */\n      dup2\n        /* \"Solidity_BD2/casaApuestas.sol\":9821:9860  i != competencias[_codCarrera].length-1 */\n      eq\n        /* \"Solidity_BD2/casaApuestas.sol\":9817:9993  if (i != competencias[_codCarrera].length-1){\r... */\n      tag_178\n      jumpi\n        /* \"Solidity_BD2/casaApuestas.sol\":9916:9925  respuesta */\n      dup3\n        /* \"Solidity_BD2/casaApuestas.sol\":9899:9932  abi.encodePacked(respuesta,\" - \") */\n      add(0x20, mload(0x40))\n      dup1\n      dup3\n      dup1\n      mload\n      swap1\n      0x20\n      add\n      swap1\n      dup1\n      dup4\n      dup4\n        /* \"--CODEGEN--\":36:189   */\n    tag_179:\n        /* \"--CODEGEN--\":66:68   */\n      0x20\n        /* \"--CODEGEN--\":61:64   */\n      dup4\n        /* \"--CODEGEN--\":58:69   */\n      lt\n        /* \"--CODEGEN--\":36:189   */\n      tag_181\n      jumpi\n        /* \"--CODEGEN--\":182:185   */\n      dup1\n        /* \"--CODEGEN--\":176:186   */\n      mload\n        /* \"--CODEGEN--\":171:174   */\n      dup3\n        /* \"--CODEGEN--\":164:187   */\n      mstore\n        /* \"--CODEGEN--\":98:100   */\n      0x20\n        /* \"--CODEGEN--\":93:96   */\n      dup3\n        /* \"--CODEGEN--\":89:101   */\n      add\n        /* \"--CODEGEN--\":82:101   */\n      swap2\n      pop\n        /* \"--CODEGEN--\":123:125   */\n      0x20\n        /* \"--CODEGEN--\":118:121   */\n      dup2\n        /* \"--CODEGEN--\":114:126   */\n      add\n        /* \"--CODEGEN--\":107:126   */\n      swap1\n      pop\n        /* \"--CODEGEN--\":148:150   */\n      0x20\n        /* \"--CODEGEN--\":143:146   */\n      dup4\n        /* \"--CODEGEN--\":139:151   */\n      sub\n        /* \"--CODEGEN--\":132:151   */\n      swap3\n      pop\n        /* \"--CODEGEN--\":36:189   */\n      jump(tag_179)\n    tag_181:\n        /* \"--CODEGEN--\":274:275   */\n      0x01\n        /* \"--CODEGEN--\":267:270   */\n      dup4\n        /* \"--CODEGEN--\":263:265   */\n      0x20\n        /* \"--CODEGEN--\":259:271   */\n      sub\n        /* \"--CODEGEN--\":254:257   */\n      0x0100\n        /* \"--CODEGEN--\":250:272   */\n      exp\n        /* \"--CODEGEN--\":246:276   */\n      sub\n        /* \"--CODEGEN--\":315:319   */\n      dup1\n        /* \"--CODEGEN--\":311:320   */\n      not\n        /* \"--CODEGEN--\":305:308   */\n      dup3\n        /* \"--CODEGEN--\":299:309   */\n      mload\n        /* \"--CODEGEN--\":295:321   */\n      and\n        /* \"--CODEGEN--\":356:360   */\n      dup2\n        /* \"--CODEGEN--\":350:353   */\n      dup5\n        /* \"--CODEGEN--\":344:354   */\n      mload\n        /* \"--CODEGEN--\":340:361   */\n      and\n        /* \"--CODEGEN--\":389:396   */\n      dup1\n        /* \"--CODEGEN--\":380:387   */\n      dup3\n        /* \"--CODEGEN--\":377:397   */\n      or\n        /* \"--CODEGEN--\":372:375   */\n      dup6\n        /* \"--CODEGEN--\":365:398   */\n      mstore\n        /* \"--CODEGEN--\":3:402   */\n      pop\n      pop\n      pop\n        /* \"Solidity_BD2/casaApuestas.sol\":9899:9932  abi.encodePacked(respuesta,\" - \") */\n      pop\n      pop\n      pop\n      swap1\n      pop\n      add\n      dup1\n      0x202d200000000000000000000000000000000000000000000000000000000000\n      dup2\n      mstore\n      pop\n      0x03\n      add\n      swap2\n      pop\n      pop\n      mload(0x40)\n        /* \"--CODEGEN--\":49:53   */\n      0x20\n        /* \"--CODEGEN--\":39:46   */\n      dup2\n        /* \"--CODEGEN--\":30:37   */\n      dup4\n        /* \"--CODEGEN--\":26:47   */\n      sub\n        /* \"--CODEGEN--\":22:54   */\n      sub\n        /* \"--CODEGEN--\":13:20   */\n      dup2\n        /* \"--CODEGEN--\":6:55   */\n      mstore\n        /* \"Solidity_BD2/casaApuestas.sol\":9899:9932  abi.encodePacked(respuesta,\" - \") */\n      swap1\n      0x40\n      mstore\n        /* \"Solidity_BD2/casaApuestas.sol\":9880:9933  respuesta = string(abi.encodePacked(respuesta,\" - \")) */\n      swap3\n      pop\n        /* \"Solidity_BD2/casaApuestas.sol\":9817:9993  if (i != competencias[_codCarrera].length-1){\r... */\n      jump(tag_182)\n    tag_178:\n        /* \"Solidity_BD2/casaApuestas.sol\":9972:9977  break */\n      jump(tag_167)\n        /* \"Solidity_BD2/casaApuestas.sol\":9817:9993  if (i != competencias[_codCarrera].length-1){\r... */\n    tag_182:\n        /* \"Solidity_BD2/casaApuestas.sol\":9667:9670  i++ */\n      dup1\n      dup1\n      0x01\n      add\n      swap2\n      pop\n      pop\n        /* \"Solidity_BD2/casaApuestas.sol\":9612:10004  for (uint i = 0; i < competencias[_codCarrera].length; i++){\r... */\n      jump(tag_166)\n    tag_167:\n      pop\n        /* \"Solidity_BD2/casaApuestas.sol\":10019:10027  contiene */\n      dup1\n        /* \"Solidity_BD2/casaApuestas.sol\":10014:10143  if (!contiene){\r... */\n      tag_183\n      jumpi\n        /* \"Solidity_BD2/casaApuestas.sol\":10079:10088  respuesta */\n      dup2\n        /* \"Solidity_BD2/casaApuestas.sol\":10062:10130  abi.encodePacked(respuesta,\"La carrera ingresada no tiene caballos\") */\n      add(0x20, mload(0x40))\n      dup1\n      dup3\n      dup1\n      mload\n      swap1\n      0x20\n      add\n      swap1\n      dup1\n      dup4\n      dup4\n        /* \"--CODEGEN--\":36:189   */\n    tag_184:\n        /* \"--CODEGEN--\":66:68   */\n      0x20\n        /* \"--CODEGEN--\":61:64   */\n      dup4\n        /* \"--CODEGEN--\":58:69   */\n      lt\n        /* \"--CODEGEN--\":36:189   */\n      tag_186\n      jumpi\n        /* \"--CODEGEN--\":182:185   */\n      dup1\n        /* \"--CODEGEN--\":176:186   */\n      mload\n        /* \"--CODEGEN--\":171:174   */\n      dup3\n        /* \"--CODEGEN--\":164:187   */\n      mstore\n        /* \"--CODEGEN--\":98:100   */\n      0x20\n        /* \"--CODEGEN--\":93:96   */\n      dup3\n        /* \"--CODEGEN--\":89:101   */\n      add\n        /* \"--CODEGEN--\":82:101   */\n      swap2\n      pop\n        /* \"--CODEGEN--\":123:125   */\n      0x20\n        /* \"--CODEGEN--\":118:121   */\n      dup2\n        /* \"--CODEGEN--\":114:126   */\n      add\n        /* \"--CODEGEN--\":107:126   */\n      swap1\n      pop\n        /* \"--CODEGEN--\":148:150   */\n      0x20\n        /* \"--CODEGEN--\":143:146   */\n      dup4\n        /* \"--CODEGEN--\":139:151   */\n      sub\n        /* \"--CODEGEN--\":132:151   */\n      swap3\n      pop\n        /* \"--CODEGEN--\":36:189   */\n      jump(tag_184)\n    tag_186:\n        /* \"--CODEGEN--\":274:275   */\n      0x01\n        /* \"--CODEGEN--\":267:270   */\n      dup4\n        /* \"--CODEGEN--\":263:265   */\n      0x20\n        /* \"--CODEGEN--\":259:271   */\n      sub\n        /* \"--CODEGEN--\":254:257   */\n      0x0100\n        /* \"--CODEGEN--\":250:272   */\n      exp\n        /* \"--CODEGEN--\":246:276   */\n      sub\n        /* \"--CODEGEN--\":315:319   */\n      dup1\n        /* \"--CODEGEN--\":311:320   */\n      not\n        /* \"--CODEGEN--\":305:308   */\n      dup3\n        /* \"--CODEGEN--\":299:309   */\n      mload\n        /* \"--CODEGEN--\":295:321   */\n      and\n        /* \"--CODEGEN--\":356:360   */\n      dup2\n        /* \"--CODEGEN--\":350:353   */\n      dup5\n        /* \"--CODEGEN--\":344:354   */\n      mload\n        /* \"--CODEGEN--\":340:361   */\n      and\n        /* \"--CODEGEN--\":389:396   */\n      dup1\n        /* \"--CODEGEN--\":380:387   */\n      dup3\n        /* \"--CODEGEN--\":377:397   */\n      or\n        /* \"--CODEGEN--\":372:375   */\n      dup6\n        /* \"--CODEGEN--\":365:398   */\n      mstore\n        /* \"--CODEGEN--\":3:402   */\n      pop\n      pop\n      pop\n        /* \"Solidity_BD2/casaApuestas.sol\":10062:10130  abi.encodePacked(respuesta,\"La carrera ingresada no tiene caballos\") */\n      pop\n      pop\n      pop\n      swap1\n      pop\n      add\n      dup1\n      data_68cf97aa6bcebf4d7421b6bca309a0adc441ed0fc23124d3a38219dec5dbd40b\n      0x26\n      swap2\n      codecopy\n      0x26\n      add\n      swap2\n      pop\n      pop\n      mload(0x40)\n        /* \"--CODEGEN--\":49:53   */\n      0x20\n        /* \"--CODEGEN--\":39:46   */\n      dup2\n        /* \"--CODEGEN--\":30:37   */\n      dup4\n        /* \"--CODEGEN--\":26:47   */\n      sub\n        /* \"--CODEGEN--\":22:54   */\n      sub\n        /* \"--CODEGEN--\":13:20   */\n      dup2\n        /* \"--CODEGEN--\":6:55   */\n      mstore\n        /* \"Solidity_BD2/casaApuestas.sol\":10062:10130  abi.encodePacked(respuesta,\"La carrera ingresada no tiene caballos\") */\n      swap1\n      0x40\n      mstore\n        /* \"Solidity_BD2/casaApuestas.sol\":10043:10131  respuesta = string(abi.encodePacked(respuesta,\"La carrera ingresada no tiene caballos\")) */\n      swap2\n      pop\n        /* \"Solidity_BD2/casaApuestas.sol\":10014:10143  if (!contiene){\r... */\n    tag_183:\n        /* \"Solidity_BD2/casaApuestas.sol\":10161:10170  respuesta */\n      dup2\n        /* \"Solidity_BD2/casaApuestas.sol\":10153:10171  return (respuesta) */\n      swap3\n      pop\n      pop\n      pop\n        /* \"Solidity_BD2/casaApuestas.sol\":9278:10179  function getCaballosEnCarrera(uint _codCarrera) public view returns(string memory) {\r... */\n      swap2\n      swap1\n      pop\n      jump\t// out\n        /* \"Solidity_BD2/casaApuestas.sol\":4741:5127  function registrarEnCarrera(uint _codCaballo, uint _codCarrera) public \r... */\n    tag_35:\n        /* \"Solidity_BD2/casaApuestas.sol\":1317:1326  anfitrion */\n      0x00\n      dup1\n      swap1\n      sload\n      swap1\n      0x0100\n      exp\n      swap1\n      div\n      0xffffffffffffffffffffffffffffffffffffffff\n      and\n        /* \"Solidity_BD2/casaApuestas.sol\":1303:1326  msg.sender == anfitrion */\n      0xffffffffffffffffffffffffffffffffffffffff\n      and\n        /* \"Solidity_BD2/casaApuestas.sol\":1303:1313  msg.sender */\n      caller\n        /* \"Solidity_BD2/casaApuestas.sol\":1303:1326  msg.sender == anfitrion */\n      0xffffffffffffffffffffffffffffffffffffffff\n      and\n      eq\n        /* \"Solidity_BD2/casaApuestas.sol\":1295:1365  require(msg.sender == anfitrion, \"El invocador debe ser el anfitrion\") */\n      tag_188\n      jumpi\n      mload(0x40)\n      0x08c379a000000000000000000000000000000000000000000000000000000000\n      dup2\n      mstore\n      0x04\n      add\n      dup1\n      dup1\n      0x20\n      add\n      dup3\n      dup2\n      sub\n      dup3\n      mstore\n      0x22\n      dup2\n      mstore\n      0x20\n      add\n      dup1\n      data_445dd79b894b98a34a1cc7c38a5bd2de2e19478d6390b1e445457362fd7001d8\n      0x22\n      swap2\n      codecopy\n      0x40\n      add\n      swap2\n      pop\n      pop\n      mload(0x40)\n      dup1\n      swap2\n      sub\n      swap1\n      revert\n    tag_188:\n        /* \"Solidity_BD2/casaApuestas.sol\":4845:4856  _codCarrera */\n      dup1\n        /* \"Solidity_BD2/casaApuestas.sol\":4858:4871  Estado.Creada */\n      0x00\n        /* \"Solidity_BD2/casaApuestas.sol\":1783:1790  _estado */\n      dup1\n        /* \"Solidity_BD2/casaApuestas.sol\":1744:1790  carreras[_codCarrera].estadoCarrera == _estado */\n      0x02\n      dup2\n      gt\n      iszero\n      tag_190\n      jumpi\n      invalid\n    tag_190:\n        /* \"Solidity_BD2/casaApuestas.sol\":1744:1752  carreras */\n      0x02\n        /* \"Solidity_BD2/casaApuestas.sol\":1744:1765  carreras[_codCarrera] */\n      0x00\n        /* \"Solidity_BD2/casaApuestas.sol\":1753:1764  _codCarrera */\n      dup5\n        /* \"Solidity_BD2/casaApuestas.sol\":1744:1765  carreras[_codCarrera] */\n      dup2\n      mstore\n      0x20\n      add\n      swap1\n      dup2\n      mstore\n      0x20\n      add\n      0x00\n      keccak256\n        /* \"Solidity_BD2/casaApuestas.sol\":1744:1779  carreras[_codCarrera].estadoCarrera */\n      0x02\n      add\n      0x00\n      swap1\n      sload\n      swap1\n      0x0100\n      exp\n      swap1\n      div\n      0xff\n      and\n        /* \"Solidity_BD2/casaApuestas.sol\":1744:1790  carreras[_codCarrera].estadoCarrera == _estado */\n      0x02\n      dup2\n      gt\n      iszero\n      tag_191\n      jumpi\n      invalid\n    tag_191:\n      eq\n        /* \"Solidity_BD2/casaApuestas.sol\":1736:1839  require(carreras[_codCarrera].estadoCarrera == _estado, \"La carrera no cumple con el estado requerido\") */\n      tag_192\n      jumpi\n      mload(0x40)\n      0x08c379a000000000000000000000000000000000000000000000000000000000\n      dup2\n      mstore\n      0x04\n      add\n      dup1\n      dup1\n      0x20\n      add\n      dup3\n      dup2\n      sub\n      dup3\n      mstore\n      0x2c\n      dup2\n      mstore\n      0x20\n      add\n      dup1\n      data_e91ca438e9e3f1e0e0a5b1a72a508ed5ae254b3cb59572817ac1ec6e2a488952\n      0x2c\n      swap2\n      codecopy\n      0x40\n      add\n      swap2\n      pop\n      pop\n      mload(0x40)\n      dup1\n      swap2\n      sub\n      swap1\n      revert\n    tag_192:\n        /* \"Solidity_BD2/casaApuestas.sol\":4888:4899  _codCarrera */\n      dup3\n        /* \"Solidity_BD2/casaApuestas.sol\":2014:2015  5 */\n      0x05\n        /* \"Solidity_BD2/casaApuestas.sol\":1979:1991  competencias */\n      0x04\n        /* \"Solidity_BD2/casaApuestas.sol\":1979:2004  competencias[_codCarrera] */\n      0x00\n        /* \"Solidity_BD2/casaApuestas.sol\":1992:2003  _codCarrera */\n      dup4\n        /* \"Solidity_BD2/casaApuestas.sol\":1979:2004  competencias[_codCarrera] */\n      dup2\n      mstore\n      0x20\n      add\n      swap1\n      dup2\n      mstore\n      0x20\n      add\n      0x00\n      keccak256\n        /* \"Solidity_BD2/casaApuestas.sol\":1979:2011  competencias[_codCarrera].length */\n      dup1\n      sload\n      swap1\n      pop\n        /* \"Solidity_BD2/casaApuestas.sol\":1979:2015  competencias[_codCarrera].length < 5 */\n      lt\n        /* \"Solidity_BD2/casaApuestas.sol\":1971:2055  require(competencias[_codCarrera].length < 5, \"La carrera ya cuenta con 5 caballos\") */\n      tag_194\n      jumpi\n      mload(0x40)\n      0x08c379a000000000000000000000000000000000000000000000000000000000\n      dup2\n      mstore\n      0x04\n      add\n      dup1\n      dup1\n      0x20\n      add\n      dup3\n      dup2\n      sub\n      dup3\n      mstore\n      0x23\n      dup2\n      mstore\n      0x20\n      add\n      dup1\n      data_48cf4ac7fcb22fd30a2178e5656f2b40afd30f2764f5b3cd17a43f9dd083aee5\n      0x23\n      swap2\n      codecopy\n      0x40\n      add\n      swap2\n      pop\n      pop\n      mload(0x40)\n      dup1\n      swap2\n      sub\n      swap1\n      revert\n    tag_194:\n        /* \"Solidity_BD2/casaApuestas.sol\":4920:4931  _codCaballo */\n      dup5\n        /* \"Solidity_BD2/casaApuestas.sol\":2428:2429  0 */\n      0x00\n        /* \"Solidity_BD2/casaApuestas.sol\":2388:2396  caballos */\n      0x03\n        /* \"Solidity_BD2/casaApuestas.sol\":2388:2409  caballos[_codCaballo] */\n      0x00\n        /* \"Solidity_BD2/casaApuestas.sol\":2397:2408  _codCaballo */\n      dup4\n        /* \"Solidity_BD2/casaApuestas.sol\":2388:2409  caballos[_codCaballo] */\n      dup2\n      mstore\n      0x20\n      add\n      swap1\n      dup2\n      mstore\n      0x20\n      add\n      0x00\n      keccak256\n        /* \"Solidity_BD2/casaApuestas.sol\":2388:2416  caballos[_codCaballo].nombre */\n      0x01\n      add\n        /* \"Solidity_BD2/casaApuestas.sol\":2382:2424  bytes(caballos[_codCaballo].nombre).length */\n      dup1\n      sload\n      0x01\n      dup2\n      0x01\n      and\n      iszero\n      0x0100\n      mul\n      sub\n      and\n      0x02\n      swap1\n      div\n      swap1\n      pop\n        /* \"Solidity_BD2/casaApuestas.sol\":2382:2429  bytes(caballos[_codCaballo].nombre).length != 0 */\n      eq\n      iszero\n        /* \"Solidity_BD2/casaApuestas.sol\":2374:2464  require(bytes(caballos[_codCaballo].nombre).length != 0, \"El caballo ingresado no existe\") */\n      tag_196\n      jumpi\n      mload(0x40)\n      0x08c379a000000000000000000000000000000000000000000000000000000000\n      dup2\n      mstore\n      0x04\n      add\n      dup1\n      dup1\n      0x20\n      add\n      dup3\n      dup2\n      sub\n      dup3\n      mstore\n      0x1e\n      dup2\n      mstore\n      0x20\n      add\n      dup1\n      0x456c20636162616c6c6f20696e6772657361646f206e6f206578697374650000\n      dup2\n      mstore\n      pop\n      0x20\n      add\n      swap2\n      pop\n      pop\n      mload(0x40)\n      dup1\n      swap2\n      sub\n      swap1\n      revert\n    tag_196:\n        /* \"Solidity_BD2/casaApuestas.sol\":4952:4963  _codCarrera */\n      dup5\n        /* \"Solidity_BD2/casaApuestas.sol\":2597:2598  0 */\n      0x00\n        /* \"Solidity_BD2/casaApuestas.sol\":2557:2565  carreras */\n      0x02\n        /* \"Solidity_BD2/casaApuestas.sol\":2557:2578  carreras[_codCarrera] */\n      0x00\n        /* \"Solidity_BD2/casaApuestas.sol\":2566:2577  _codCarrera */\n      dup4\n        /* \"Solidity_BD2/casaApuestas.sol\":2557:2578  carreras[_codCarrera] */\n      dup2\n      mstore\n      0x20\n      add\n      swap1\n      dup2\n      mstore\n      0x20\n      add\n      0x00\n      keccak256\n        /* \"Solidity_BD2/casaApuestas.sol\":2557:2585  carreras[_codCarrera].nombre */\n      0x01\n      add\n        /* \"Solidity_BD2/casaApuestas.sol\":2551:2593  bytes(carreras[_codCarrera].nombre).length */\n      dup1\n      sload\n      0x01\n      dup2\n      0x01\n      and\n      iszero\n      0x0100\n      mul\n      sub\n      and\n      0x02\n      swap1\n      div\n      swap1\n      pop\n        /* \"Solidity_BD2/casaApuestas.sol\":2551:2598  bytes(carreras[_codCarrera].nombre).length != 0 */\n      eq\n      iszero\n        /* \"Solidity_BD2/casaApuestas.sol\":2543:2633  require(bytes(carreras[_codCarrera].nombre).length != 0, \"La carrera ingresada no existe\") */\n      tag_198\n      jumpi\n      mload(0x40)\n      0x08c379a000000000000000000000000000000000000000000000000000000000\n      dup2\n      mstore\n      0x04\n      add\n      dup1\n      dup1\n      0x20\n      add\n      dup3\n      dup2\n      sub\n      dup3\n      mstore\n      0x1e\n      dup2\n      mstore\n      0x20\n      add\n      dup1\n      0x4c61206361727265726120696e67726573616461206e6f206578697374650000\n      dup2\n      mstore\n      pop\n      0x20\n      add\n      swap2\n      pop\n      pop\n      mload(0x40)\n      dup1\n      swap2\n      sub\n      swap1\n      revert\n    tag_198:\n        /* \"Solidity_BD2/casaApuestas.sol\":4988:4999  _codCarrera */\n      dup6\n        /* \"Solidity_BD2/casaApuestas.sol\":5001:5012  _codCaballo */\n      dup8\n        /* \"Solidity_BD2/casaApuestas.sol\":3175:3192  uint cantCaballos */\n      0x00\n        /* \"Solidity_BD2/casaApuestas.sol\":3195:3207  competencias */\n      0x04\n        /* \"Solidity_BD2/casaApuestas.sol\":3195:3220  competencias[_codCarrera] */\n      0x00\n        /* \"Solidity_BD2/casaApuestas.sol\":3208:3219  _codCarrera */\n      dup5\n        /* \"Solidity_BD2/casaApuestas.sol\":3195:3220  competencias[_codCarrera] */\n      dup2\n      mstore\n      0x20\n      add\n      swap1\n      dup2\n      mstore\n      0x20\n      add\n      0x00\n      keccak256\n        /* \"Solidity_BD2/casaApuestas.sol\":3195:3227  competencias[_codCarrera].length */\n      dup1\n      sload\n      swap1\n      pop\n        /* \"Solidity_BD2/casaApuestas.sol\":3175:3227  uint cantCaballos = competencias[_codCarrera].length */\n      swap1\n      pop\n        /* \"Solidity_BD2/casaApuestas.sol\":3238:3253  bool caballoRep */\n      0x00\n        /* \"Solidity_BD2/casaApuestas.sol\":3256:3261  false */\n      dup1\n        /* \"Solidity_BD2/casaApuestas.sol\":3238:3261  bool caballoRep = false */\n      swap1\n      pop\n        /* \"Solidity_BD2/casaApuestas.sol\":3276:3282  uint i */\n      0x00\n        /* \"Solidity_BD2/casaApuestas.sol\":3285:3286  0 */\n      dup1\n        /* \"Solidity_BD2/casaApuestas.sol\":3276:3286  uint i = 0 */\n      swap1\n      pop\n        /* \"Solidity_BD2/casaApuestas.sol\":3272:3459  for(uint i = 0; i < cantCaballos; i++){\r... */\n    tag_200:\n        /* \"Solidity_BD2/casaApuestas.sol\":3292:3304  cantCaballos */\n      dup3\n        /* \"Solidity_BD2/casaApuestas.sol\":3288:3289  i */\n      dup2\n        /* \"Solidity_BD2/casaApuestas.sol\":3288:3304  i < cantCaballos */\n      lt\n        /* \"Solidity_BD2/casaApuestas.sol\":3272:3459  for(uint i = 0; i < cantCaballos; i++){\r... */\n      iszero\n      tag_201\n      jumpi\n        /* \"Solidity_BD2/casaApuestas.sol\":3360:3371  _codCaballo */\n      dup4\n        /* \"Solidity_BD2/casaApuestas.sol\":3328:3340  competencias */\n      0x04\n        /* \"Solidity_BD2/casaApuestas.sol\":3328:3353  competencias[_codCarrera] */\n      0x00\n        /* \"Solidity_BD2/casaApuestas.sol\":3341:3352  _codCarrera */\n      dup8\n        /* \"Solidity_BD2/casaApuestas.sol\":3328:3353  competencias[_codCarrera] */\n      dup2\n      mstore\n      0x20\n      add\n      swap1\n      dup2\n      mstore\n      0x20\n      add\n      0x00\n      keccak256\n        /* \"Solidity_BD2/casaApuestas.sol\":3354:3355  i */\n      dup3\n        /* \"Solidity_BD2/casaApuestas.sol\":3328:3356  competencias[_codCarrera][i] */\n      dup2\n      sload\n      dup2\n      lt\n      tag_203\n      jumpi\n      invalid\n    tag_203:\n      swap1\n      0x00\n      mstore\n      keccak256(0x00, 0x20)\n      add\n      sload\n        /* \"Solidity_BD2/casaApuestas.sol\":3328:3371  competencias[_codCarrera][i] == _codCaballo */\n      eq\n        /* \"Solidity_BD2/casaApuestas.sol\":3325:3448  if(competencias[_codCarrera][i] == _codCaballo){\r... */\n      iszero\n      tag_205\n      jumpi\n        /* \"Solidity_BD2/casaApuestas.sol\":3404:3408  true */\n      0x01\n        /* \"Solidity_BD2/casaApuestas.sol\":3391:3408  caballoRep = true */\n      swap2\n      pop\n        /* \"Solidity_BD2/casaApuestas.sol\":3427:3432  break */\n      jump(tag_201)\n        /* \"Solidity_BD2/casaApuestas.sol\":3325:3448  if(competencias[_codCarrera][i] == _codCaballo){\r... */\n    tag_205:\n        /* \"Solidity_BD2/casaApuestas.sol\":3306:3309  i++ */\n      dup1\n      dup1\n      0x01\n      add\n      swap2\n      pop\n      pop\n        /* \"Solidity_BD2/casaApuestas.sol\":3272:3459  for(uint i = 0; i < cantCaballos; i++){\r... */\n      jump(tag_200)\n    tag_201:\n      pop\n        /* \"Solidity_BD2/casaApuestas.sol\":3478:3488  caballoRep */\n      dup1\n        /* \"Solidity_BD2/casaApuestas.sol\":3477:3488  !caballoRep */\n      iszero\n        /* \"Solidity_BD2/casaApuestas.sol\":3469:3548  require(!caballoRep, \"Este caballo ya se encuentra registrado en esta carrera\") */\n      tag_206\n      jumpi\n      mload(0x40)\n      0x08c379a000000000000000000000000000000000000000000000000000000000\n      dup2\n      mstore\n      0x04\n      add\n      dup1\n      dup1\n      0x20\n      add\n      dup3\n      dup2\n      sub\n      dup3\n      mstore\n      0x37\n      dup2\n      mstore\n      0x20\n      add\n      dup1\n      data_dd2593dc49389a3dc12e11d6acb11a1c405e488c123ae730810838cacb526339\n      0x37\n      swap2\n      codecopy\n      0x40\n      add\n      swap2\n      pop\n      pop\n      mload(0x40)\n      dup1\n      swap2\n      sub\n      swap1\n      revert\n    tag_206:\n        /* \"Solidity_BD2/casaApuestas.sol\":5024:5036  competencias */\n      0x04\n        /* \"Solidity_BD2/casaApuestas.sol\":5024:5049  competencias[_codCarrera] */\n      0x00\n        /* \"Solidity_BD2/casaApuestas.sol\":5037:5048  _codCarrera */\n      dup12\n        /* \"Solidity_BD2/casaApuestas.sol\":5024:5049  competencias[_codCarrera] */\n      dup2\n      mstore\n      0x20\n      add\n      swap1\n      dup2\n      mstore\n      0x20\n      add\n      0x00\n      keccak256\n        /* \"Solidity_BD2/casaApuestas.sol\":5055:5066  _codCaballo */\n      dup12\n        /* \"Solidity_BD2/casaApuestas.sol\":5024:5067  competencias[_codCarrera].push(_codCaballo) */\n      swap1\n      dup1\n        /* \"--CODEGEN--\":39:40   */\n      0x01\n        /* \"--CODEGEN--\":33:36   */\n      dup2\n        /* \"--CODEGEN--\":27:37   */\n      sload\n        /* \"--CODEGEN--\":23:41   */\n      add\n        /* \"--CODEGEN--\":57:67   */\n      dup1\n        /* \"--CODEGEN--\":52:55   */\n      dup3\n        /* \"--CODEGEN--\":45:68   */\n      sstore\n        /* \"--CODEGEN--\":79:89   */\n      dup1\n        /* \"--CODEGEN--\":72:89   */\n      swap2\n      pop\n        /* \"--CODEGEN--\":0:93   */\n      pop\n        /* \"Solidity_BD2/casaApuestas.sol\":5024:5067  competencias[_codCarrera].push(_codCaballo) */\n      0x01\n      swap1\n      sub\n      swap1\n      0x00\n      mstore\n      keccak256(0x00, 0x20)\n      add\n      0x00\n      swap1\n      swap2\n      swap1\n      swap2\n      swap1\n      swap2\n      pop\n      sstore\n        /* \"Solidity_BD2/casaApuestas.sol\":5118:5119  1 */\n      0x01\n        /* \"Solidity_BD2/casaApuestas.sol\":5078:5086  carreras */\n      0x02\n        /* \"Solidity_BD2/casaApuestas.sol\":5078:5099  carreras[_codCarrera] */\n      0x00\n        /* \"Solidity_BD2/casaApuestas.sol\":5087:5098  _codCarrera */\n      dup13\n        /* \"Solidity_BD2/casaApuestas.sol\":5078:5099  carreras[_codCarrera] */\n      dup2\n      mstore\n      0x20\n      add\n      swap1\n      dup2\n      mstore\n      0x20\n      add\n      0x00\n      keccak256\n        /* \"Solidity_BD2/casaApuestas.sol\":5078:5114  carreras[_codCarrera].numeroCaballos */\n      0x04\n      add\n      0x00\n        /* \"Solidity_BD2/casaApuestas.sol\":5078:5119  carreras[_codCarrera].numeroCaballos += 1 */\n      dup3\n      dup3\n      sload\n      add\n      swap3\n      pop\n      pop\n      dup2\n      swap1\n      sstore\n      pop\n        /* \"Solidity_BD2/casaApuestas.sol\":2644:2645  _ */\n      pop\n      pop\n      pop\n      pop\n        /* \"Solidity_BD2/casaApuestas.sol\":2475:2476  _ */\n      pop\n        /* \"Solidity_BD2/casaApuestas.sol\":2066:2067  _ */\n      pop\n        /* \"Solidity_BD2/casaApuestas.sol\":1850:1851  _ */\n      pop\n        /* \"Solidity_BD2/casaApuestas.sol\":1376:1377  _ */\n      pop\n      pop\n        /* \"Solidity_BD2/casaApuestas.sol\":4741:5127  function registrarEnCarrera(uint _codCaballo, uint _codCarrera) public \r... */\n      pop\n      pop\n      jump\t// out\n        /* \"Solidity_BD2/casaApuestas.sol\":10187:11303  function getApostadorGanador(uint _codCarrera) public view returns(string memory) {\r... */\n    tag_39:\n        /* \"Solidity_BD2/casaApuestas.sol\":10254:10267  string memory */\n      0x60\n        /* \"Solidity_BD2/casaApuestas.sol\":10280:10303  string memory respuesta */\n      dup1\n        /* \"Solidity_BD2/casaApuestas.sol\":10280:10333  string memory respuesta = \"Ganadores en la carrera #\" */\n      mload(0x40)\n      dup1\n      0x40\n      add\n      0x40\n      mstore\n      dup1\n      0x19\n      dup2\n      mstore\n      0x20\n      add\n      0x47616e61646f72657320656e206c612063617272657261202300000000000000\n      dup2\n      mstore\n      pop\n      swap1\n      pop\n        /* \"Solidity_BD2/casaApuestas.sol\":10344:10357  bool contiene */\n      0x00\n        /* \"Solidity_BD2/casaApuestas.sol\":10360:10365  false */\n      dup1\n        /* \"Solidity_BD2/casaApuestas.sol\":10344:10365  bool contiene = false */\n      swap1\n      pop\n        /* \"Solidity_BD2/casaApuestas.sol\":10412:10421  respuesta */\n      dup2\n        /* \"Solidity_BD2/casaApuestas.sol\":10423:10444  uint2str(_codCarrera) */\n      tag_210\n        /* \"Solidity_BD2/casaApuestas.sol\":10432:10443  _codCarrera */\n      dup6\n        /* \"Solidity_BD2/casaApuestas.sol\":10423:10431  uint2str */\n      tag_156\n        /* \"Solidity_BD2/casaApuestas.sol\":10423:10444  uint2str(_codCarrera) */\n      jump\t// in\n    tag_210:\n        /* \"Solidity_BD2/casaApuestas.sol\":10395:10445  abi.encodePacked(respuesta, uint2str(_codCarrera)) */\n      add(0x20, mload(0x40))\n      dup1\n      dup4\n      dup1\n      mload\n      swap1\n      0x20\n      add\n      swap1\n      dup1\n      dup4\n      dup4\n        /* \"--CODEGEN--\":36:189   */\n    tag_211:\n        /* \"--CODEGEN--\":66:68   */\n      0x20\n        /* \"--CODEGEN--\":61:64   */\n      dup4\n        /* \"--CODEGEN--\":58:69   */\n      lt\n        /* \"--CODEGEN--\":36:189   */\n      tag_213\n      jumpi\n        /* \"--CODEGEN--\":182:185   */\n      dup1\n        /* \"--CODEGEN--\":176:186   */\n      mload\n        /* \"--CODEGEN--\":171:174   */\n      dup3\n        /* \"--CODEGEN--\":164:187   */\n      mstore\n        /* \"--CODEGEN--\":98:100   */\n      0x20\n        /* \"--CODEGEN--\":93:96   */\n      dup3\n        /* \"--CODEGEN--\":89:101   */\n      add\n        /* \"--CODEGEN--\":82:101   */\n      swap2\n      pop\n        /* \"--CODEGEN--\":123:125   */\n      0x20\n        /* \"--CODEGEN--\":118:121   */\n      dup2\n        /* \"--CODEGEN--\":114:126   */\n      add\n        /* \"--CODEGEN--\":107:126   */\n      swap1\n      pop\n        /* \"--CODEGEN--\":148:150   */\n      0x20\n        /* \"--CODEGEN--\":143:146   */\n      dup4\n        /* \"--CODEGEN--\":139:151   */\n      sub\n        /* \"--CODEGEN--\":132:151   */\n      swap3\n      pop\n        /* \"--CODEGEN--\":36:189   */\n      jump(tag_211)\n    tag_213:\n        /* \"--CODEGEN--\":274:275   */\n      0x01\n        /* \"--CODEGEN--\":267:270   */\n      dup4\n        /* \"--CODEGEN--\":263:265   */\n      0x20\n        /* \"--CODEGEN--\":259:271   */\n      sub\n        /* \"--CODEGEN--\":254:257   */\n      0x0100\n        /* \"--CODEGEN--\":250:272   */\n      exp\n        /* \"--CODEGEN--\":246:276   */\n      sub\n        /* \"--CODEGEN--\":315:319   */\n      dup1\n        /* \"--CODEGEN--\":311:320   */\n      not\n        /* \"--CODEGEN--\":305:308   */\n      dup3\n        /* \"--CODEGEN--\":299:309   */\n      mload\n        /* \"--CODEGEN--\":295:321   */\n      and\n        /* \"--CODEGEN--\":356:360   */\n      dup2\n        /* \"--CODEGEN--\":350:353   */\n      dup5\n        /* \"--CODEGEN--\":344:354   */\n      mload\n        /* \"--CODEGEN--\":340:361   */\n      and\n        /* \"--CODEGEN--\":389:396   */\n      dup1\n        /* \"--CODEGEN--\":380:387   */\n      dup3\n        /* \"--CODEGEN--\":377:397   */\n      or\n        /* \"--CODEGEN--\":372:375   */\n      dup6\n        /* \"--CODEGEN--\":365:398   */\n      mstore\n        /* \"--CODEGEN--\":3:402   */\n      pop\n      pop\n      pop\n        /* \"Solidity_BD2/casaApuestas.sol\":10395:10445  abi.encodePacked(respuesta, uint2str(_codCarrera)) */\n      pop\n      pop\n      pop\n      swap1\n      pop\n      add\n      dup3\n      dup1\n      mload\n      swap1\n      0x20\n      add\n      swap1\n      dup1\n      dup4\n      dup4\n        /* \"--CODEGEN--\":36:189   */\n    tag_214:\n        /* \"--CODEGEN--\":66:68   */\n      0x20\n        /* \"--CODEGEN--\":61:64   */\n      dup4\n        /* \"--CODEGEN--\":58:69   */\n      lt\n        /* \"--CODEGEN--\":36:189   */\n      tag_216\n      jumpi\n        /* \"--CODEGEN--\":182:185   */\n      dup1\n        /* \"--CODEGEN--\":176:186   */\n      mload\n        /* \"--CODEGEN--\":171:174   */\n      dup3\n        /* \"--CODEGEN--\":164:187   */\n      mstore\n        /* \"--CODEGEN--\":98:100   */\n      0x20\n        /* \"--CODEGEN--\":93:96   */\n      dup3\n        /* \"--CODEGEN--\":89:101   */\n      add\n        /* \"--CODEGEN--\":82:101   */\n      swap2\n      pop\n        /* \"--CODEGEN--\":123:125   */\n      0x20\n        /* \"--CODEGEN--\":118:121   */\n      dup2\n        /* \"--CODEGEN--\":114:126   */\n      add\n        /* \"--CODEGEN--\":107:126   */\n      swap1\n      pop\n        /* \"--CODEGEN--\":148:150   */\n      0x20\n        /* \"--CODEGEN--\":143:146   */\n      dup4\n        /* \"--CODEGEN--\":139:151   */\n      sub\n        /* \"--CODEGEN--\":132:151   */\n      swap3\n      pop\n        /* \"--CODEGEN--\":36:189   */\n      jump(tag_214)\n    tag_216:\n        /* \"--CODEGEN--\":274:275   */\n      0x01\n        /* \"--CODEGEN--\":267:270   */\n      dup4\n        /* \"--CODEGEN--\":263:265   */\n      0x20\n        /* \"--CODEGEN--\":259:271   */\n      sub\n        /* \"--CODEGEN--\":254:257   */\n      0x0100\n        /* \"--CODEGEN--\":250:272   */\n      exp\n        /* \"--CODEGEN--\":246:276   */\n      sub\n        /* \"--CODEGEN--\":315:319   */\n      dup1\n        /* \"--CODEGEN--\":311:320   */\n      not\n        /* \"--CODEGEN--\":305:308   */\n      dup3\n        /* \"--CODEGEN--\":299:309   */\n      mload\n        /* \"--CODEGEN--\":295:321   */\n      and\n        /* \"--CODEGEN--\":356:360   */\n      dup2\n        /* \"--CODEGEN--\":350:353   */\n      dup5\n        /* \"--CODEGEN--\":344:354   */\n      mload\n        /* \"--CODEGEN--\":340:361   */\n      and\n        /* \"--CODEGEN--\":389:396   */\n      dup1\n        /* \"--CODEGEN--\":380:387   */\n      dup3\n        /* \"--CODEGEN--\":377:397   */\n      or\n        /* \"--CODEGEN--\":372:375   */\n      dup6\n        /* \"--CODEGEN--\":365:398   */\n      mstore\n        /* \"--CODEGEN--\":3:402   */\n      pop\n      pop\n      pop\n        /* \"Solidity_BD2/casaApuestas.sol\":10395:10445  abi.encodePacked(respuesta, uint2str(_codCarrera)) */\n      pop\n      pop\n      pop\n      swap1\n      pop\n      add\n      swap3\n      pop\n      pop\n      pop\n      mload(0x40)\n        /* \"--CODEGEN--\":49:53   */\n      0x20\n        /* \"--CODEGEN--\":39:46   */\n      dup2\n        /* \"--CODEGEN--\":30:37   */\n      dup4\n        /* \"--CODEGEN--\":26:47   */\n      sub\n        /* \"--CODEGEN--\":22:54   */\n      sub\n        /* \"--CODEGEN--\":13:20   */\n      dup2\n        /* \"--CODEGEN--\":6:55   */\n      mstore\n        /* \"Solidity_BD2/casaApuestas.sol\":10395:10445  abi.encodePacked(respuesta, uint2str(_codCarrera)) */\n      swap1\n      0x40\n      mstore\n        /* \"Solidity_BD2/casaApuestas.sol\":10376:10446  respuesta = string(abi.encodePacked(respuesta, uint2str(_codCarrera))) */\n      swap2\n      pop\n        /* \"Solidity_BD2/casaApuestas.sol\":10493:10502  respuesta */\n      dup2\n        /* \"Solidity_BD2/casaApuestas.sol\":10476:10509  abi.encodePacked(respuesta, \": \") */\n      add(0x20, mload(0x40))\n      dup1\n      dup3\n      dup1\n      mload\n      swap1\n      0x20\n      add\n      swap1\n      dup1\n      dup4\n      dup4\n        /* \"--CODEGEN--\":36:189   */\n    tag_217:\n        /* \"--CODEGEN--\":66:68   */\n      0x20\n        /* \"--CODEGEN--\":61:64   */\n      dup4\n        /* \"--CODEGEN--\":58:69   */\n      lt\n        /* \"--CODEGEN--\":36:189   */\n      tag_219\n      jumpi\n        /* \"--CODEGEN--\":182:185   */\n      dup1\n        /* \"--CODEGEN--\":176:186   */\n      mload\n        /* \"--CODEGEN--\":171:174   */\n      dup3\n        /* \"--CODEGEN--\":164:187   */\n      mstore\n        /* \"--CODEGEN--\":98:100   */\n      0x20\n        /* \"--CODEGEN--\":93:96   */\n      dup3\n        /* \"--CODEGEN--\":89:101   */\n      add\n        /* \"--CODEGEN--\":82:101   */\n      swap2\n      pop\n        /* \"--CODEGEN--\":123:125   */\n      0x20\n        /* \"--CODEGEN--\":118:121   */\n      dup2\n        /* \"--CODEGEN--\":114:126   */\n      add\n        /* \"--CODEGEN--\":107:126   */\n      swap1\n      pop\n        /* \"--CODEGEN--\":148:150   */\n      0x20\n        /* \"--CODEGEN--\":143:146   */\n      dup4\n        /* \"--CODEGEN--\":139:151   */\n      sub\n        /* \"--CODEGEN--\":132:151   */\n      swap3\n      pop\n        /* \"--CODEGEN--\":36:189   */\n      jump(tag_217)\n    tag_219:\n        /* \"--CODEGEN--\":274:275   */\n      0x01\n        /* \"--CODEGEN--\":267:270   */\n      dup4\n        /* \"--CODEGEN--\":263:265   */\n      0x20\n        /* \"--CODEGEN--\":259:271   */\n      sub\n        /* \"--CODEGEN--\":254:257   */\n      0x0100\n        /* \"--CODEGEN--\":250:272   */\n      exp\n        /* \"--CODEGEN--\":246:276   */\n      sub\n        /* \"--CODEGEN--\":315:319   */\n      dup1\n        /* \"--CODEGEN--\":311:320   */\n      not\n        /* \"--CODEGEN--\":305:308   */\n      dup3\n        /* \"--CODEGEN--\":299:309   */\n      mload\n        /* \"--CODEGEN--\":295:321   */\n      and\n        /* \"--CODEGEN--\":356:360   */\n      dup2\n        /* \"--CODEGEN--\":350:353   */\n      dup5\n        /* \"--CODEGEN--\":344:354   */\n      mload\n        /* \"--CODEGEN--\":340:361   */\n      and\n        /* \"--CODEGEN--\":389:396   */\n      dup1\n        /* \"--CODEGEN--\":380:387   */\n      dup3\n        /* \"--CODEGEN--\":377:397   */\n      or\n        /* \"--CODEGEN--\":372:375   */\n      dup6\n        /* \"--CODEGEN--\":365:398   */\n      mstore\n        /* \"--CODEGEN--\":3:402   */\n      pop\n      pop\n      pop\n        /* \"Solidity_BD2/casaApuestas.sol\":10476:10509  abi.encodePacked(respuesta, \": \") */\n      pop\n      pop\n      pop\n      swap1\n      pop\n      add\n      dup1\n      0x3a20000000000000000000000000000000000000000000000000000000000000\n      dup2\n      mstore\n      pop\n      0x02\n      add\n      swap2\n      pop\n      pop\n      mload(0x40)\n        /* \"--CODEGEN--\":49:53   */\n      0x20\n        /* \"--CODEGEN--\":39:46   */\n      dup2\n        /* \"--CODEGEN--\":30:37   */\n      dup4\n        /* \"--CODEGEN--\":26:47   */\n      sub\n        /* \"--CODEGEN--\":22:54   */\n      sub\n        /* \"--CODEGEN--\":13:20   */\n      dup2\n        /* \"--CODEGEN--\":6:55   */\n      mstore\n        /* \"Solidity_BD2/casaApuestas.sol\":10476:10509  abi.encodePacked(respuesta, \": \") */\n      swap1\n      0x40\n      mstore\n        /* \"Solidity_BD2/casaApuestas.sol\":10457:10510  respuesta = string(abi.encodePacked(respuesta, \": \")) */\n      swap2\n      pop\n        /* \"Solidity_BD2/casaApuestas.sol\":10526:10532  uint i */\n      0x00\n        /* \"Solidity_BD2/casaApuestas.sol\":10535:10536  0 */\n      dup1\n        /* \"Solidity_BD2/casaApuestas.sol\":10526:10536  uint i = 0 */\n      swap1\n      pop\n        /* \"Solidity_BD2/casaApuestas.sol\":10521:11262  for (uint i = 0; i < apostadores[_codCarrera].length; i ++){\r... */\n    tag_220:\n        /* \"Solidity_BD2/casaApuestas.sol\":10542:10553  apostadores */\n      0x05\n        /* \"Solidity_BD2/casaApuestas.sol\":10542:10566  apostadores[_codCarrera] */\n      0x00\n        /* \"Solidity_BD2/casaApuestas.sol\":10554:10565  _codCarrera */\n      dup7\n        /* \"Solidity_BD2/casaApuestas.sol\":10542:10566  apostadores[_codCarrera] */\n      dup2\n      mstore\n      0x20\n      add\n      swap1\n      dup2\n      mstore\n      0x20\n      add\n      0x00\n      keccak256\n        /* \"Solidity_BD2/casaApuestas.sol\":10542:10573  apostadores[_codCarrera].length */\n      dup1\n      sload\n      swap1\n      pop\n        /* \"Solidity_BD2/casaApuestas.sol\":10538:10539  i */\n      dup2\n        /* \"Solidity_BD2/casaApuestas.sol\":10538:10573  i < apostadores[_codCarrera].length */\n      lt\n        /* \"Solidity_BD2/casaApuestas.sol\":10521:11262  for (uint i = 0; i < apostadores[_codCarrera].length; i ++){\r... */\n      iszero\n      tag_221\n      jumpi\n        /* \"Solidity_BD2/casaApuestas.sol\":10595:10606  uint dinero */\n      0x00\n        /* \"Solidity_BD2/casaApuestas.sol\":10609:10617  carreras */\n      0x02\n        /* \"Solidity_BD2/casaApuestas.sol\":10609:10630  carreras[_codCarrera] */\n      0x00\n        /* \"Solidity_BD2/casaApuestas.sol\":10618:10629  _codCarrera */\n      dup8\n        /* \"Solidity_BD2/casaApuestas.sol\":10609:10630  carreras[_codCarrera] */\n      dup2\n      mstore\n      0x20\n      add\n      swap1\n      dup2\n      mstore\n      0x20\n      add\n      0x00\n      keccak256\n        /* \"Solidity_BD2/casaApuestas.sol\":10609:10639  carreras[_codCarrera].apuestas */\n      0x06\n      add\n        /* \"Solidity_BD2/casaApuestas.sol\":10609:10668  carreras[_codCarrera].apuestas[apostadores[_codCarrera][i]] */\n      0x00\n        /* \"Solidity_BD2/casaApuestas.sol\":10640:10651  apostadores */\n      0x05\n        /* \"Solidity_BD2/casaApuestas.sol\":10640:10664  apostadores[_codCarrera] */\n      0x00\n        /* \"Solidity_BD2/casaApuestas.sol\":10652:10663  _codCarrera */\n      dup10\n        /* \"Solidity_BD2/casaApuestas.sol\":10640:10664  apostadores[_codCarrera] */\n      dup2\n      mstore\n      0x20\n      add\n      swap1\n      dup2\n      mstore\n      0x20\n      add\n      0x00\n      keccak256\n        /* \"Solidity_BD2/casaApuestas.sol\":10665:10666  i */\n      dup5\n        /* \"Solidity_BD2/casaApuestas.sol\":10640:10667  apostadores[_codCarrera][i] */\n      dup2\n      sload\n      dup2\n      lt\n      tag_223\n      jumpi\n      invalid\n    tag_223:\n      swap1\n      0x00\n      mstore\n      keccak256(0x00, 0x20)\n      add\n      0x00\n      swap1\n      sload\n      swap1\n      0x0100\n      exp\n      swap1\n      div\n      0xffffffffffffffffffffffffffffffffffffffff\n      and\n        /* \"Solidity_BD2/casaApuestas.sol\":10609:10668  carreras[_codCarrera].apuestas[apostadores[_codCarrera][i]] */\n      0xffffffffffffffffffffffffffffffffffffffff\n      and\n      0xffffffffffffffffffffffffffffffffffffffff\n      and\n      dup2\n      mstore\n      0x20\n      add\n      swap1\n      dup2\n      mstore\n      0x20\n      add\n      0x00\n      keccak256\n        /* \"Solidity_BD2/casaApuestas.sol\":10609:10686  carreras[_codCarrera].apuestas[apostadores[_codCarrera][i]].dineroTransferido */\n      0x04\n      add\n      sload\n        /* \"Solidity_BD2/casaApuestas.sol\":10595:10686  uint dinero = carreras[_codCarrera].apuestas[apostadores[_codCarrera][i]].dineroTransferido */\n      swap1\n      pop\n        /* \"Solidity_BD2/casaApuestas.sol\":10715:10716  0 */\n      0x00\n        /* \"Solidity_BD2/casaApuestas.sol\":10705:10711  dinero */\n      dup2\n        /* \"Solidity_BD2/casaApuestas.sol\":10705:10716  dinero != 0 */\n      eq\n        /* \"Solidity_BD2/casaApuestas.sol\":10701:11248  if (dinero != 0){\r... */\n      tag_225\n      jumpi\n        /* \"Solidity_BD2/casaApuestas.sol\":10747:10751  true */\n      0x01\n        /* \"Solidity_BD2/casaApuestas.sol\":10736:10751  contiene = true */\n      swap3\n      pop\n        /* \"Solidity_BD2/casaApuestas.sol\":10806:10815  respuesta */\n      dup4\n        /* \"Solidity_BD2/casaApuestas.sol\":10789:10831  abi.encodePacked(respuesta, \"Apostador #\") */\n      add(0x20, mload(0x40))\n      dup1\n      dup3\n      dup1\n      mload\n      swap1\n      0x20\n      add\n      swap1\n      dup1\n      dup4\n      dup4\n        /* \"--CODEGEN--\":36:189   */\n    tag_226:\n        /* \"--CODEGEN--\":66:68   */\n      0x20\n        /* \"--CODEGEN--\":61:64   */\n      dup4\n        /* \"--CODEGEN--\":58:69   */\n      lt\n        /* \"--CODEGEN--\":36:189   */\n      tag_228\n      jumpi\n        /* \"--CODEGEN--\":182:185   */\n      dup1\n        /* \"--CODEGEN--\":176:186   */\n      mload\n        /* \"--CODEGEN--\":171:174   */\n      dup3\n        /* \"--CODEGEN--\":164:187   */\n      mstore\n        /* \"--CODEGEN--\":98:100   */\n      0x20\n        /* \"--CODEGEN--\":93:96   */\n      dup3\n        /* \"--CODEGEN--\":89:101   */\n      add\n        /* \"--CODEGEN--\":82:101   */\n      swap2\n      pop\n        /* \"--CODEGEN--\":123:125   */\n      0x20\n        /* \"--CODEGEN--\":118:121   */\n      dup2\n        /* \"--CODEGEN--\":114:126   */\n      add\n        /* \"--CODEGEN--\":107:126   */\n      swap1\n      pop\n        /* \"--CODEGEN--\":148:150   */\n      0x20\n        /* \"--CODEGEN--\":143:146   */\n      dup4\n        /* \"--CODEGEN--\":139:151   */\n      sub\n        /* \"--CODEGEN--\":132:151   */\n      swap3\n      pop\n        /* \"--CODEGEN--\":36:189   */\n      jump(tag_226)\n    tag_228:\n        /* \"--CODEGEN--\":274:275   */\n      0x01\n        /* \"--CODEGEN--\":267:270   */\n      dup4\n        /* \"--CODEGEN--\":263:265   */\n      0x20\n        /* \"--CODEGEN--\":259:271   */\n      sub\n        /* \"--CODEGEN--\":254:257   */\n      0x0100\n        /* \"--CODEGEN--\":250:272   */\n      exp\n        /* \"--CODEGEN--\":246:276   */\n      sub\n        /* \"--CODEGEN--\":315:319   */\n      dup1\n        /* \"--CODEGEN--\":311:320   */\n      not\n        /* \"--CODEGEN--\":305:308   */\n      dup3\n        /* \"--CODEGEN--\":299:309   */\n      mload\n        /* \"--CODEGEN--\":295:321   */\n      and\n        /* \"--CODEGEN--\":356:360   */\n      dup2\n        /* \"--CODEGEN--\":350:353   */\n      dup5\n        /* \"--CODEGEN--\":344:354   */\n      mload\n        /* \"--CODEGEN--\":340:361   */\n      and\n        /* \"--CODEGEN--\":389:396   */\n      dup1\n        /* \"--CODEGEN--\":380:387   */\n      dup3\n        /* \"--CODEGEN--\":377:397   */\n      or\n        /* \"--CODEGEN--\":372:375   */\n      dup6\n        /* \"--CODEGEN--\":365:398   */\n      mstore\n        /* \"--CODEGEN--\":3:402   */\n      pop\n      pop\n      pop\n        /* \"Solidity_BD2/casaApuestas.sol\":10789:10831  abi.encodePacked(respuesta, \"Apostador #\") */\n      pop\n      pop\n      pop\n      swap1\n      pop\n      add\n      dup1\n      0x41706f737461646f722023000000000000000000000000000000000000000000\n      dup2\n      mstore\n      pop\n      0x0b\n      add\n      swap2\n      pop\n      pop\n      mload(0x40)\n        /* \"--CODEGEN--\":49:53   */\n      0x20\n        /* \"--CODEGEN--\":39:46   */\n      dup2\n        /* \"--CODEGEN--\":30:37   */\n      dup4\n        /* \"--CODEGEN--\":26:47   */\n      sub\n        /* \"--CODEGEN--\":22:54   */\n      sub\n        /* \"--CODEGEN--\":13:20   */\n      dup2\n        /* \"--CODEGEN--\":6:55   */\n      mstore\n        /* \"Solidity_BD2/casaApuestas.sol\":10789:10831  abi.encodePacked(respuesta, \"Apostador #\") */\n      swap1\n      0x40\n      mstore\n        /* \"Solidity_BD2/casaApuestas.sol\":10770:10832  respuesta = string(abi.encodePacked(respuesta, \"Apostador #\")) */\n      swap4\n      pop\n        /* \"Solidity_BD2/casaApuestas.sol\":10887:10896  respuesta */\n      dup4\n        /* \"Solidity_BD2/casaApuestas.sol\":10898:10909  uint2str(i) */\n      tag_229\n        /* \"Solidity_BD2/casaApuestas.sol\":10907:10908  i */\n      dup4\n        /* \"Solidity_BD2/casaApuestas.sol\":10898:10906  uint2str */\n      tag_156\n        /* \"Solidity_BD2/casaApuestas.sol\":10898:10909  uint2str(i) */\n      jump\t// in\n    tag_229:\n        /* \"Solidity_BD2/casaApuestas.sol\":10870:10910  abi.encodePacked(respuesta, uint2str(i)) */\n      add(0x20, mload(0x40))\n      dup1\n      dup4\n      dup1\n      mload\n      swap1\n      0x20\n      add\n      swap1\n      dup1\n      dup4\n      dup4\n        /* \"--CODEGEN--\":36:189   */\n    tag_230:\n        /* \"--CODEGEN--\":66:68   */\n      0x20\n        /* \"--CODEGEN--\":61:64   */\n      dup4\n        /* \"--CODEGEN--\":58:69   */\n      lt\n        /* \"--CODEGEN--\":36:189   */\n      tag_232\n      jumpi\n        /* \"--CODEGEN--\":182:185   */\n      dup1\n        /* \"--CODEGEN--\":176:186   */\n      mload\n        /* \"--CODEGEN--\":171:174   */\n      dup3\n        /* \"--CODEGEN--\":164:187   */\n      mstore\n        /* \"--CODEGEN--\":98:100   */\n      0x20\n        /* \"--CODEGEN--\":93:96   */\n      dup3\n        /* \"--CODEGEN--\":89:101   */\n      add\n        /* \"--CODEGEN--\":82:101   */\n      swap2\n      pop\n        /* \"--CODEGEN--\":123:125   */\n      0x20\n        /* \"--CODEGEN--\":118:121   */\n      dup2\n        /* \"--CODEGEN--\":114:126   */\n      add\n        /* \"--CODEGEN--\":107:126   */\n      swap1\n      pop\n        /* \"--CODEGEN--\":148:150   */\n      0x20\n        /* \"--CODEGEN--\":143:146   */\n      dup4\n        /* \"--CODEGEN--\":139:151   */\n      sub\n        /* \"--CODEGEN--\":132:151   */\n      swap3\n      pop\n        /* \"--CODEGEN--\":36:189   */\n      jump(tag_230)\n    tag_232:\n        /* \"--CODEGEN--\":274:275   */\n      0x01\n        /* \"--CODEGEN--\":267:270   */\n      dup4\n        /* \"--CODEGEN--\":263:265   */\n      0x20\n        /* \"--CODEGEN--\":259:271   */\n      sub\n        /* \"--CODEGEN--\":254:257   */\n      0x0100\n        /* \"--CODEGEN--\":250:272   */\n      exp\n        /* \"--CODEGEN--\":246:276   */\n      sub\n        /* \"--CODEGEN--\":315:319   */\n      dup1\n        /* \"--CODEGEN--\":311:320   */\n      not\n        /* \"--CODEGEN--\":305:308   */\n      dup3\n        /* \"--CODEGEN--\":299:309   */\n      mload\n        /* \"--CODEGEN--\":295:321   */\n      and\n        /* \"--CODEGEN--\":356:360   */\n      dup2\n        /* \"--CODEGEN--\":350:353   */\n      dup5\n        /* \"--CODEGEN--\":344:354   */\n      mload\n        /* \"--CODEGEN--\":340:361   */\n      and\n        /* \"--CODEGEN--\":389:396   */\n      dup1\n        /* \"--CODEGEN--\":380:387   */\n      dup3\n        /* \"--CODEGEN--\":377:397   */\n      or\n        /* \"--CODEGEN--\":372:375   */\n      dup6\n        /* \"--CODEGEN--\":365:398   */\n      mstore\n        /* \"--CODEGEN--\":3:402   */\n      pop\n      pop\n      pop\n        /* \"Solidity_BD2/casaApuestas.sol\":10870:10910  abi.encodePacked(respuesta, uint2str(i)) */\n      pop\n      pop\n      pop\n      swap1\n      pop\n      add\n      dup3\n      dup1\n      mload\n      swap1\n      0x20\n      add\n      swap1\n      dup1\n      dup4\n      dup4\n        /* \"--CODEGEN--\":36:189   */\n    tag_233:\n        /* \"--CODEGEN--\":66:68   */\n      0x20\n        /* \"--CODEGEN--\":61:64   */\n      dup4\n        /* \"--CODEGEN--\":58:69   */\n      lt\n        /* \"--CODEGEN--\":36:189   */\n      tag_235\n      jumpi\n        /* \"--CODEGEN--\":182:185   */\n      dup1\n        /* \"--CODEGEN--\":176:186   */\n      mload\n        /* \"--CODEGEN--\":171:174   */\n      dup3\n        /* \"--CODEGEN--\":164:187   */\n      mstore\n        /* \"--CODEGEN--\":98:100   */\n      0x20\n        /* \"--CODEGEN--\":93:96   */\n      dup3\n        /* \"--CODEGEN--\":89:101   */\n      add\n        /* \"--CODEGEN--\":82:101   */\n      swap2\n      pop\n        /* \"--CODEGEN--\":123:125   */\n      0x20\n        /* \"--CODEGEN--\":118:121   */\n      dup2\n        /* \"--CODEGEN--\":114:126   */\n      add\n        /* \"--CODEGEN--\":107:126   */\n      swap1\n      pop\n        /* \"--CODEGEN--\":148:150   */\n      0x20\n        /* \"--CODEGEN--\":143:146   */\n      dup4\n        /* \"--CODEGEN--\":139:151   */\n      sub\n        /* \"--CODEGEN--\":132:151   */\n      swap3\n      pop\n        /* \"--CODEGEN--\":36:189   */\n      jump(tag_233)\n    tag_235:\n        /* \"--CODEGEN--\":274:275   */\n      0x01\n        /* \"--CODEGEN--\":267:270   */\n      dup4\n        /* \"--CODEGEN--\":263:265   */\n      0x20\n        /* \"--CODEGEN--\":259:271   */\n      sub\n        /* \"--CODEGEN--\":254:257   */\n      0x0100\n        /* \"--CODEGEN--\":250:272   */\n      exp\n        /* \"--CODEGEN--\":246:276   */\n      sub\n        /* \"--CODEGEN--\":315:319   */\n      dup1\n        /* \"--CODEGEN--\":311:320   */\n      not\n        /* \"--CODEGEN--\":305:308   */\n      dup3\n        /* \"--CODEGEN--\":299:309   */\n      mload\n        /* \"--CODEGEN--\":295:321   */\n      and\n        /* \"--CODEGEN--\":356:360   */\n      dup2\n        /* \"--CODEGEN--\":350:353   */\n      dup5\n        /* \"--CODEGEN--\":344:354   */\n      mload\n        /* \"--CODEGEN--\":340:361   */\n      and\n        /* \"--CODEGEN--\":389:396   */\n      dup1\n        /* \"--CODEGEN--\":380:387   */\n      dup3\n        /* \"--CODEGEN--\":377:397   */\n      or\n        /* \"--CODEGEN--\":372:375   */\n      dup6\n        /* \"--CODEGEN--\":365:398   */\n      mstore\n        /* \"--CODEGEN--\":3:402   */\n      pop\n      pop\n      pop\n        /* \"Solidity_BD2/casaApuestas.sol\":10870:10910  abi.encodePacked(respuesta, uint2str(i)) */\n      pop\n      pop\n      pop\n      swap1\n      pop\n      add\n      swap3\n      pop\n      pop\n      pop\n      mload(0x40)\n        /* \"--CODEGEN--\":49:53   */\n      0x20\n        /* \"--CODEGEN--\":39:46   */\n      dup2\n        /* \"--CODEGEN--\":30:37   */\n      dup4\n        /* \"--CODEGEN--\":26:47   */\n      sub\n        /* \"--CODEGEN--\":22:54   */\n      sub\n        /* \"--CODEGEN--\":13:20   */\n      dup2\n        /* \"--CODEGEN--\":6:55   */\n      mstore\n        /* \"Solidity_BD2/casaApuestas.sol\":10870:10910  abi.encodePacked(respuesta, uint2str(i)) */\n      swap1\n      0x40\n      mstore\n        /* \"Solidity_BD2/casaApuestas.sol\":10851:10911  respuesta = string(abi.encodePacked(respuesta, uint2str(i))) */\n      swap4\n      pop\n        /* \"Solidity_BD2/casaApuestas.sol\":10966:10975  respuesta */\n      dup4\n        /* \"Solidity_BD2/casaApuestas.sol\":10949:10981  abi.encodePacked(respuesta, \"-\") */\n      add(0x20, mload(0x40))\n      dup1\n      dup3\n      dup1\n      mload\n      swap1\n      0x20\n      add\n      swap1\n      dup1\n      dup4\n      dup4\n        /* \"--CODEGEN--\":36:189   */\n    tag_236:\n        /* \"--CODEGEN--\":66:68   */\n      0x20\n        /* \"--CODEGEN--\":61:64   */\n      dup4\n        /* \"--CODEGEN--\":58:69   */\n      lt\n        /* \"--CODEGEN--\":36:189   */\n      tag_238\n      jumpi\n        /* \"--CODEGEN--\":182:185   */\n      dup1\n        /* \"--CODEGEN--\":176:186   */\n      mload\n        /* \"--CODEGEN--\":171:174   */\n      dup3\n        /* \"--CODEGEN--\":164:187   */\n      mstore\n        /* \"--CODEGEN--\":98:100   */\n      0x20\n        /* \"--CODEGEN--\":93:96   */\n      dup3\n        /* \"--CODEGEN--\":89:101   */\n      add\n        /* \"--CODEGEN--\":82:101   */\n      swap2\n      pop\n        /* \"--CODEGEN--\":123:125   */\n      0x20\n        /* \"--CODEGEN--\":118:121   */\n      dup2\n        /* \"--CODEGEN--\":114:126   */\n      add\n        /* \"--CODEGEN--\":107:126   */\n      swap1\n      pop\n        /* \"--CODEGEN--\":148:150   */\n      0x20\n        /* \"--CODEGEN--\":143:146   */\n      dup4\n        /* \"--CODEGEN--\":139:151   */\n      sub\n        /* \"--CODEGEN--\":132:151   */\n      swap3\n      pop\n        /* \"--CODEGEN--\":36:189   */\n      jump(tag_236)\n    tag_238:\n        /* \"--CODEGEN--\":274:275   */\n      0x01\n        /* \"--CODEGEN--\":267:270   */\n      dup4\n        /* \"--CODEGEN--\":263:265   */\n      0x20\n        /* \"--CODEGEN--\":259:271   */\n      sub\n        /* \"--CODEGEN--\":254:257   */\n      0x0100\n        /* \"--CODEGEN--\":250:272   */\n      exp\n        /* \"--CODEGEN--\":246:276   */\n      sub\n        /* \"--CODEGEN--\":315:319   */\n      dup1\n        /* \"--CODEGEN--\":311:320   */\n      not\n        /* \"--CODEGEN--\":305:308   */\n      dup3\n        /* \"--CODEGEN--\":299:309   */\n      mload\n        /* \"--CODEGEN--\":295:321   */\n      and\n        /* \"--CODEGEN--\":356:360   */\n      dup2\n        /* \"--CODEGEN--\":350:353   */\n      dup5\n        /* \"--CODEGEN--\":344:354   */\n      mload\n        /* \"--CODEGEN--\":340:361   */\n      and\n        /* \"--CODEGEN--\":389:396   */\n      dup1\n        /* \"--CODEGEN--\":380:387   */\n      dup3\n        /* \"--CODEGEN--\":377:397   */\n      or\n        /* \"--CODEGEN--\":372:375   */\n      dup6\n        /* \"--CODEGEN--\":365:398   */\n      mstore\n        /* \"--CODEGEN--\":3:402   */\n      pop\n      pop\n      pop\n        /* \"Solidity_BD2/casaApuestas.sol\":10949:10981  abi.encodePacked(respuesta, \"-\") */\n      pop\n      pop\n      pop\n      swap1\n      pop\n      add\n      dup1\n      0x2d00000000000000000000000000000000000000000000000000000000000000\n      dup2\n      mstore\n      pop\n      0x01\n      add\n      swap2\n      pop\n      pop\n      mload(0x40)\n        /* \"--CODEGEN--\":49:53   */\n      0x20\n        /* \"--CODEGEN--\":39:46   */\n      dup2\n        /* \"--CODEGEN--\":30:37   */\n      dup4\n        /* \"--CODEGEN--\":26:47   */\n      sub\n        /* \"--CODEGEN--\":22:54   */\n      sub\n        /* \"--CODEGEN--\":13:20   */\n      dup2\n        /* \"--CODEGEN--\":6:55   */\n      mstore\n        /* \"Solidity_BD2/casaApuestas.sol\":10949:10981  abi.encodePacked(respuesta, \"-\") */\n      swap1\n      0x40\n      mstore\n        /* \"Solidity_BD2/casaApuestas.sol\":10930:10982  respuesta = string(abi.encodePacked(respuesta, \"-\")) */\n      swap4\n      pop\n        /* \"Solidity_BD2/casaApuestas.sol\":11037:11046  respuesta */\n      dup4\n        /* \"Solidity_BD2/casaApuestas.sol\":11020:11057  abi.encodePacked(respuesta, \"Gano: \") */\n      add(0x20, mload(0x40))\n      dup1\n      dup3\n      dup1\n      mload\n      swap1\n      0x20\n      add\n      swap1\n      dup1\n      dup4\n      dup4\n        /* \"--CODEGEN--\":36:189   */\n    tag_239:\n        /* \"--CODEGEN--\":66:68   */\n      0x20\n        /* \"--CODEGEN--\":61:64   */\n      dup4\n        /* \"--CODEGEN--\":58:69   */\n      lt\n        /* \"--CODEGEN--\":36:189   */\n      tag_241\n      jumpi\n        /* \"--CODEGEN--\":182:185   */\n      dup1\n        /* \"--CODEGEN--\":176:186   */\n      mload\n        /* \"--CODEGEN--\":171:174   */\n      dup3\n        /* \"--CODEGEN--\":164:187   */\n      mstore\n        /* \"--CODEGEN--\":98:100   */\n      0x20\n        /* \"--CODEGEN--\":93:96   */\n      dup3\n        /* \"--CODEGEN--\":89:101   */\n      add\n        /* \"--CODEGEN--\":82:101   */\n      swap2\n      pop\n        /* \"--CODEGEN--\":123:125   */\n      0x20\n        /* \"--CODEGEN--\":118:121   */\n      dup2\n        /* \"--CODEGEN--\":114:126   */\n      add\n        /* \"--CODEGEN--\":107:126   */\n      swap1\n      pop\n        /* \"--CODEGEN--\":148:150   */\n      0x20\n        /* \"--CODEGEN--\":143:146   */\n      dup4\n        /* \"--CODEGEN--\":139:151   */\n      sub\n        /* \"--CODEGEN--\":132:151   */\n      swap3\n      pop\n        /* \"--CODEGEN--\":36:189   */\n      jump(tag_239)\n    tag_241:\n        /* \"--CODEGEN--\":274:275   */\n      0x01\n        /* \"--CODEGEN--\":267:270   */\n      dup4\n        /* \"--CODEGEN--\":263:265   */\n      0x20\n        /* \"--CODEGEN--\":259:271   */\n      sub\n        /* \"--CODEGEN--\":254:257   */\n      0x0100\n        /* \"--CODEGEN--\":250:272   */\n      exp\n        /* \"--CODEGEN--\":246:276   */\n      sub\n        /* \"--CODEGEN--\":315:319   */\n      dup1\n        /* \"--CODEGEN--\":311:320   */\n      not\n        /* \"--CODEGEN--\":305:308   */\n      dup3\n        /* \"--CODEGEN--\":299:309   */\n      mload\n        /* \"--CODEGEN--\":295:321   */\n      and\n        /* \"--CODEGEN--\":356:360   */\n      dup2\n        /* \"--CODEGEN--\":350:353   */\n      dup5\n        /* \"--CODEGEN--\":344:354   */\n      mload\n        /* \"--CODEGEN--\":340:361   */\n      and\n        /* \"--CODEGEN--\":389:396   */\n      dup1\n        /* \"--CODEGEN--\":380:387   */\n      dup3\n        /* \"--CODEGEN--\":377:397   */\n      or\n        /* \"--CODEGEN--\":372:375   */\n      dup6\n        /* \"--CODEGEN--\":365:398   */\n      mstore\n        /* \"--CODEGEN--\":3:402   */\n      pop\n      pop\n      pop\n        /* \"Solidity_BD2/casaApuestas.sol\":11020:11057  abi.encodePacked(respuesta, \"Gano: \") */\n      pop\n      pop\n      pop\n      swap1\n      pop\n      add\n      dup1\n      0x47616e6f3a200000000000000000000000000000000000000000000000000000\n      dup2\n      mstore\n      pop\n      0x06\n      add\n      swap2\n      pop\n      pop\n      mload(0x40)\n        /* \"--CODEGEN--\":49:53   */\n      0x20\n        /* \"--CODEGEN--\":39:46   */\n      dup2\n        /* \"--CODEGEN--\":30:37   */\n      dup4\n        /* \"--CODEGEN--\":26:47   */\n      sub\n        /* \"--CODEGEN--\":22:54   */\n      sub\n        /* \"--CODEGEN--\":13:20   */\n      dup2\n        /* \"--CODEGEN--\":6:55   */\n      mstore\n        /* \"Solidity_BD2/casaApuestas.sol\":11020:11057  abi.encodePacked(respuesta, \"Gano: \") */\n      swap1\n      0x40\n      mstore\n        /* \"Solidity_BD2/casaApuestas.sol\":11001:11058  respuesta = string(abi.encodePacked(respuesta, \"Gano: \")) */\n      swap4\n      pop\n        /* \"Solidity_BD2/casaApuestas.sol\":11113:11122  respuesta */\n      dup4\n        /* \"Solidity_BD2/casaApuestas.sol\":11124:11140  uint2str(dinero) */\n      tag_242\n        /* \"Solidity_BD2/casaApuestas.sol\":11133:11139  dinero */\n      dup3\n        /* \"Solidity_BD2/casaApuestas.sol\":11124:11132  uint2str */\n      tag_156\n        /* \"Solidity_BD2/casaApuestas.sol\":11124:11140  uint2str(dinero) */\n      jump\t// in\n    tag_242:\n        /* \"Solidity_BD2/casaApuestas.sol\":11096:11141  abi.encodePacked(respuesta, uint2str(dinero)) */\n      add(0x20, mload(0x40))\n      dup1\n      dup4\n      dup1\n      mload\n      swap1\n      0x20\n      add\n      swap1\n      dup1\n      dup4\n      dup4\n        /* \"--CODEGEN--\":36:189   */\n    tag_243:\n        /* \"--CODEGEN--\":66:68   */\n      0x20\n        /* \"--CODEGEN--\":61:64   */\n      dup4\n        /* \"--CODEGEN--\":58:69   */\n      lt\n        /* \"--CODEGEN--\":36:189   */\n      tag_245\n      jumpi\n        /* \"--CODEGEN--\":182:185   */\n      dup1\n        /* \"--CODEGEN--\":176:186   */\n      mload\n        /* \"--CODEGEN--\":171:174   */\n      dup3\n        /* \"--CODEGEN--\":164:187   */\n      mstore\n        /* \"--CODEGEN--\":98:100   */\n      0x20\n        /* \"--CODEGEN--\":93:96   */\n      dup3\n        /* \"--CODEGEN--\":89:101   */\n      add\n        /* \"--CODEGEN--\":82:101   */\n      swap2\n      pop\n        /* \"--CODEGEN--\":123:125   */\n      0x20\n        /* \"--CODEGEN--\":118:121   */\n      dup2\n        /* \"--CODEGEN--\":114:126   */\n      add\n        /* \"--CODEGEN--\":107:126   */\n      swap1\n      pop\n        /* \"--CODEGEN--\":148:150   */\n      0x20\n        /* \"--CODEGEN--\":143:146   */\n      dup4\n        /* \"--CODEGEN--\":139:151   */\n      sub\n        /* \"--CODEGEN--\":132:151   */\n      swap3\n      pop\n        /* \"--CODEGEN--\":36:189   */\n      jump(tag_243)\n    tag_245:\n        /* \"--CODEGEN--\":274:275   */\n      0x01\n        /* \"--CODEGEN--\":267:270   */\n      dup4\n        /* \"--CODEGEN--\":263:265   */\n      0x20\n        /* \"--CODEGEN--\":259:271   */\n      sub\n        /* \"--CODEGEN--\":254:257   */\n      0x0100\n        /* \"--CODEGEN--\":250:272   */\n      exp\n        /* \"--CODEGEN--\":246:276   */\n      sub\n        /* \"--CODEGEN--\":315:319   */\n      dup1\n        /* \"--CODEGEN--\":311:320   */\n      not\n        /* \"--CODEGEN--\":305:308   */\n      dup3\n        /* \"--CODEGEN--\":299:309   */\n      mload\n        /* \"--CODEGEN--\":295:321   */\n      and\n        /* \"--CODEGEN--\":356:360   */\n      dup2\n        /* \"--CODEGEN--\":350:353   */\n      dup5\n        /* \"--CODEGEN--\":344:354   */\n      mload\n        /* \"--CODEGEN--\":340:361   */\n      and\n        /* \"--CODEGEN--\":389:396   */\n      dup1\n        /* \"--CODEGEN--\":380:387   */\n      dup3\n        /* \"--CODEGEN--\":377:397   */\n      or\n        /* \"--CODEGEN--\":372:375   */\n      dup6\n        /* \"--CODEGEN--\":365:398   */\n      mstore\n        /* \"--CODEGEN--\":3:402   */\n      pop\n      pop\n      pop\n        /* \"Solidity_BD2/casaApuestas.sol\":11096:11141  abi.encodePacked(respuesta, uint2str(dinero)) */\n      pop\n      pop\n      pop\n      swap1\n      pop\n      add\n      dup3\n      dup1\n      mload\n      swap1\n      0x20\n      add\n      swap1\n      dup1\n      dup4\n      dup4\n        /* \"--CODEGEN--\":36:189   */\n    tag_246:\n        /* \"--CODEGEN--\":66:68   */\n      0x20\n        /* \"--CODEGEN--\":61:64   */\n      dup4\n        /* \"--CODEGEN--\":58:69   */\n      lt\n        /* \"--CODEGEN--\":36:189   */\n      tag_248\n      jumpi\n        /* \"--CODEGEN--\":182:185   */\n      dup1\n        /* \"--CODEGEN--\":176:186   */\n      mload\n        /* \"--CODEGEN--\":171:174   */\n      dup3\n        /* \"--CODEGEN--\":164:187   */\n      mstore\n        /* \"--CODEGEN--\":98:100   */\n      0x20\n        /* \"--CODEGEN--\":93:96   */\n      dup3\n        /* \"--CODEGEN--\":89:101   */\n      add\n        /* \"--CODEGEN--\":82:101   */\n      swap2\n      pop\n        /* \"--CODEGEN--\":123:125   */\n      0x20\n        /* \"--CODEGEN--\":118:121   */\n      dup2\n        /* \"--CODEGEN--\":114:126   */\n      add\n        /* \"--CODEGEN--\":107:126   */\n      swap1\n      pop\n        /* \"--CODEGEN--\":148:150   */\n      0x20\n        /* \"--CODEGEN--\":143:146   */\n      dup4\n        /* \"--CODEGEN--\":139:151   */\n      sub\n        /* \"--CODEGEN--\":132:151   */\n      swap3\n      pop\n        /* \"--CODEGEN--\":36:189   */\n      jump(tag_246)\n    tag_248:\n        /* \"--CODEGEN--\":274:275   */\n      0x01\n        /* \"--CODEGEN--\":267:270   */\n      dup4\n        /* \"--CODEGEN--\":263:265   */\n      0x20\n        /* \"--CODEGEN--\":259:271   */\n      sub\n        /* \"--CODEGEN--\":254:257   */\n      0x0100\n        /* \"--CODEGEN--\":250:272   */\n      exp\n        /* \"--CODEGEN--\":246:276   */\n      sub\n        /* \"--CODEGEN--\":315:319   */\n      dup1\n        /* \"--CODEGEN--\":311:320   */\n      not\n        /* \"--CODEGEN--\":305:308   */\n      dup3\n        /* \"--CODEGEN--\":299:309   */\n      mload\n        /* \"--CODEGEN--\":295:321   */\n      and\n        /* \"--CODEGEN--\":356:360   */\n      dup2\n        /* \"--CODEGEN--\":350:353   */\n      dup5\n        /* \"--CODEGEN--\":344:354   */\n      mload\n        /* \"--CODEGEN--\":340:361   */\n      and\n        /* \"--CODEGEN--\":389:396   */\n      dup1\n        /* \"--CODEGEN--\":380:387   */\n      dup3\n        /* \"--CODEGEN--\":377:397   */\n      or\n        /* \"--CODEGEN--\":372:375   */\n      dup6\n        /* \"--CODEGEN--\":365:398   */\n      mstore\n        /* \"--CODEGEN--\":3:402   */\n      pop\n      pop\n      pop\n        /* \"Solidity_BD2/casaApuestas.sol\":11096:11141  abi.encodePacked(respuesta, uint2str(dinero)) */\n      pop\n      pop\n      pop\n      swap1\n      pop\n      add\n      swap3\n      pop\n      pop\n      pop\n      mload(0x40)\n        /* \"--CODEGEN--\":49:53   */\n      0x20\n        /* \"--CODEGEN--\":39:46   */\n      dup2\n        /* \"--CODEGEN--\":30:37   */\n      dup4\n        /* \"--CODEGEN--\":26:47   */\n      sub\n        /* \"--CODEGEN--\":22:54   */\n      sub\n        /* \"--CODEGEN--\":13:20   */\n      dup2\n        /* \"--CODEGEN--\":6:55   */\n      mstore\n        /* \"Solidity_BD2/casaApuestas.sol\":11096:11141  abi.encodePacked(respuesta, uint2str(dinero)) */\n      swap1\n      0x40\n      mstore\n        /* \"Solidity_BD2/casaApuestas.sol\":11077:11142  respuesta = string(abi.encodePacked(respuesta, uint2str(dinero))) */\n      swap4\n      pop\n        /* \"Solidity_BD2/casaApuestas.sol\":11197:11206  respuesta */\n      dup4\n        /* \"Solidity_BD2/casaApuestas.sol\":11180:11213  abi.encodePacked(respuesta, \"  \") */\n      add(0x20, mload(0x40))\n      dup1\n      dup3\n      dup1\n      mload\n      swap1\n      0x20\n      add\n      swap1\n      dup1\n      dup4\n      dup4\n        /* \"--CODEGEN--\":36:189   */\n    tag_249:\n        /* \"--CODEGEN--\":66:68   */\n      0x20\n        /* \"--CODEGEN--\":61:64   */\n      dup4\n        /* \"--CODEGEN--\":58:69   */\n      lt\n        /* \"--CODEGEN--\":36:189   */\n      tag_251\n      jumpi\n        /* \"--CODEGEN--\":182:185   */\n      dup1\n        /* \"--CODEGEN--\":176:186   */\n      mload\n        /* \"--CODEGEN--\":171:174   */\n      dup3\n        /* \"--CODEGEN--\":164:187   */\n      mstore\n        /* \"--CODEGEN--\":98:100   */\n      0x20\n        /* \"--CODEGEN--\":93:96   */\n      dup3\n        /* \"--CODEGEN--\":89:101   */\n      add\n        /* \"--CODEGEN--\":82:101   */\n      swap2\n      pop\n        /* \"--CODEGEN--\":123:125   */\n      0x20\n        /* \"--CODEGEN--\":118:121   */\n      dup2\n        /* \"--CODEGEN--\":114:126   */\n      add\n        /* \"--CODEGEN--\":107:126   */\n      swap1\n      pop\n        /* \"--CODEGEN--\":148:150   */\n      0x20\n        /* \"--CODEGEN--\":143:146   */\n      dup4\n        /* \"--CODEGEN--\":139:151   */\n      sub\n        /* \"--CODEGEN--\":132:151   */\n      swap3\n      pop\n        /* \"--CODEGEN--\":36:189   */\n      jump(tag_249)\n    tag_251:\n        /* \"--CODEGEN--\":274:275   */\n      0x01\n        /* \"--CODEGEN--\":267:270   */\n      dup4\n        /* \"--CODEGEN--\":263:265   */\n      0x20\n        /* \"--CODEGEN--\":259:271   */\n      sub\n        /* \"--CODEGEN--\":254:257   */\n      0x0100\n        /* \"--CODEGEN--\":250:272   */\n      exp\n        /* \"--CODEGEN--\":246:276   */\n      sub\n        /* \"--CODEGEN--\":315:319   */\n      dup1\n        /* \"--CODEGEN--\":311:320   */\n      not\n        /* \"--CODEGEN--\":305:308   */\n      dup3\n        /* \"--CODEGEN--\":299:309   */\n      mload\n        /* \"--CODEGEN--\":295:321   */\n      and\n        /* \"--CODEGEN--\":356:360   */\n      dup2\n        /* \"--CODEGEN--\":350:353   */\n      dup5\n        /* \"--CODEGEN--\":344:354   */\n      mload\n        /* \"--CODEGEN--\":340:361   */\n      and\n        /* \"--CODEGEN--\":389:396   */\n      dup1\n        /* \"--CODEGEN--\":380:387   */\n      dup3\n        /* \"--CODEGEN--\":377:397   */\n      or\n        /* \"--CODEGEN--\":372:375   */\n      dup6\n        /* \"--CODEGEN--\":365:398   */\n      mstore\n        /* \"--CODEGEN--\":3:402   */\n      pop\n      pop\n      pop\n        /* \"Solidity_BD2/casaApuestas.sol\":11180:11213  abi.encodePacked(respuesta, \"  \") */\n      pop\n      pop\n      pop\n      swap1\n      pop\n      add\n      dup1\n      0x2020000000000000000000000000000000000000000000000000000000000000\n      dup2\n      mstore\n      pop\n      0x02\n      add\n      swap2\n      pop\n      pop\n      mload(0x40)\n        /* \"--CODEGEN--\":49:53   */\n      0x20\n        /* \"--CODEGEN--\":39:46   */\n      dup2\n        /* \"--CODEGEN--\":30:37   */\n      dup4\n        /* \"--CODEGEN--\":26:47   */\n      sub\n        /* \"--CODEGEN--\":22:54   */\n      sub\n        /* \"--CODEGEN--\":13:20   */\n      dup2\n        /* \"--CODEGEN--\":6:55   */\n      mstore\n        /* \"Solidity_BD2/casaApuestas.sol\":11180:11213  abi.encodePacked(respuesta, \"  \") */\n      swap1\n      0x40\n      mstore\n        /* \"Solidity_BD2/casaApuestas.sol\":11161:11214  respuesta = string(abi.encodePacked(respuesta, \"  \")) */\n      swap4\n      pop\n        /* \"Solidity_BD2/casaApuestas.sol\":10701:11248  if (dinero != 0){\r... */\n    tag_225:\n        /* \"Solidity_BD2/casaApuestas.sol\":10521:11262  for (uint i = 0; i < apostadores[_codCarrera].length; i ++){\r... */\n      pop\n        /* \"Solidity_BD2/casaApuestas.sol\":10575:10579  i ++ */\n      dup1\n      dup1\n      0x01\n      add\n      swap2\n      pop\n      pop\n        /* \"Solidity_BD2/casaApuestas.sol\":10521:11262  for (uint i = 0; i < apostadores[_codCarrera].length; i ++){\r... */\n      jump(tag_220)\n    tag_221:\n      pop\n        /* \"Solidity_BD2/casaApuestas.sol\":11285:11294  respuesta */\n      dup2\n        /* \"Solidity_BD2/casaApuestas.sol\":11277:11295  return (respuesta) */\n      swap3\n      pop\n      pop\n      pop\n        /* \"Solidity_BD2/casaApuestas.sol\":10187:11303  function getApostadorGanador(uint _codCarrera) public view returns(string memory) {\r... */\n      swap2\n      swap1\n      pop\n      jump\t// out\n        /* \"Solidity_BD2/casaApuestas.sol\":55:79  address public anfitrion */\n    tag_46:\n      0x00\n      dup1\n      swap1\n      sload\n      swap1\n      0x0100\n      exp\n      swap1\n      div\n      0xffffffffffffffffffffffffffffffffffffffff\n      and\n      dup2\n      jump\t// out\n        /* \"Solidity_BD2/casaApuestas.sol\":4511:4692  function registrarCaballo(uint _codigo, string memory _nombre) public \r... */\n    tag_53:\n        /* \"Solidity_BD2/casaApuestas.sol\":1317:1326  anfitrion */\n      0x00\n      dup1\n      swap1\n      sload\n      swap1\n      0x0100\n      exp\n      swap1\n      div\n      0xffffffffffffffffffffffffffffffffffffffff\n      and\n        /* \"Solidity_BD2/casaApuestas.sol\":1303:1326  msg.sender == anfitrion */\n      0xffffffffffffffffffffffffffffffffffffffff\n      and\n        /* \"Solidity_BD2/casaApuestas.sol\":1303:1313  msg.sender */\n      caller\n        /* \"Solidity_BD2/casaApuestas.sol\":1303:1326  msg.sender == anfitrion */\n      0xffffffffffffffffffffffffffffffffffffffff\n      and\n      eq\n        /* \"Solidity_BD2/casaApuestas.sol\":1295:1365  require(msg.sender == anfitrion, \"El invocador debe ser el anfitrion\") */\n      tag_253\n      jumpi\n      mload(0x40)\n      0x08c379a000000000000000000000000000000000000000000000000000000000\n      dup2\n      mstore\n      0x04\n      add\n      dup1\n      dup1\n      0x20\n      add\n      dup3\n      dup2\n      sub\n      dup3\n      mstore\n      0x22\n      dup2\n      mstore\n      0x20\n      add\n      dup1\n      data_445dd79b894b98a34a1cc7c38a5bd2de2e19478d6390b1e445457362fd7001d8\n      0x22\n      swap2\n      codecopy\n      0x40\n      add\n      swap2\n      pop\n      pop\n      mload(0x40)\n      dup1\n      swap2\n      sub\n      swap1\n      revert\n    tag_253:\n        /* \"Solidity_BD2/casaApuestas.sol\":4620:4627  _codigo */\n      dup2\n        /* \"Solidity_BD2/casaApuestas.sol\":2768:2769  0 */\n      0x00\n        /* \"Solidity_BD2/casaApuestas.sol\":2728:2736  caballos */\n      0x03\n        /* \"Solidity_BD2/casaApuestas.sol\":2728:2749  caballos[_codCaballo] */\n      0x00\n        /* \"Solidity_BD2/casaApuestas.sol\":2737:2748  _codCaballo */\n      dup4\n        /* \"Solidity_BD2/casaApuestas.sol\":2728:2749  caballos[_codCaballo] */\n      dup2\n      mstore\n      0x20\n      add\n      swap1\n      dup2\n      mstore\n      0x20\n      add\n      0x00\n      keccak256\n        /* \"Solidity_BD2/casaApuestas.sol\":2728:2756  caballos[_codCaballo].nombre */\n      0x01\n      add\n        /* \"Solidity_BD2/casaApuestas.sol\":2722:2764  bytes(caballos[_codCaballo].nombre).length */\n      dup1\n      sload\n      0x01\n      dup2\n      0x01\n      and\n      iszero\n      0x0100\n      mul\n      sub\n      and\n      0x02\n      swap1\n      div\n      swap1\n      pop\n        /* \"Solidity_BD2/casaApuestas.sol\":2722:2769  bytes(caballos[_codCaballo].nombre).length == 0 */\n      eq\n        /* \"Solidity_BD2/casaApuestas.sol\":2714:2811  require(bytes(caballos[_codCaballo].nombre).length == 0, \"Ya existe un caballo con este código\") */\n      tag_255\n      jumpi\n      mload(0x40)\n      0x08c379a000000000000000000000000000000000000000000000000000000000\n      dup2\n      mstore\n      0x04\n      add\n      dup1\n      dup1\n      0x20\n      add\n      dup3\n      dup2\n      sub\n      dup3\n      mstore\n      0x25\n      dup2\n      mstore\n      0x20\n      add\n      dup1\n      data_d6db3988662478777908c1e662b2ec848309dbbd995b7b6deab44e369aa15534\n      0x25\n      swap2\n      codecopy\n      0x40\n      add\n      swap2\n      pop\n      pop\n      mload(0x40)\n      dup1\n      swap2\n      sub\n      swap1\n      revert\n    tag_255:\n        /* \"Solidity_BD2/casaApuestas.sol\":4659:4684  Caballo(_codigo, _nombre) */\n      mload(0x40)\n      dup1\n      0x40\n      add\n      0x40\n      mstore\n      dup1\n        /* \"Solidity_BD2/casaApuestas.sol\":4667:4674  _codigo */\n      dup5\n        /* \"Solidity_BD2/casaApuestas.sol\":4659:4684  Caballo(_codigo, _nombre) */\n      dup2\n      mstore\n      0x20\n      add\n        /* \"Solidity_BD2/casaApuestas.sol\":4676:4683  _nombre */\n      dup4\n        /* \"Solidity_BD2/casaApuestas.sol\":4659:4684  Caballo(_codigo, _nombre) */\n      dup2\n      mstore\n      pop\n        /* \"Solidity_BD2/casaApuestas.sol\":4639:4647  caballos */\n      0x03\n        /* \"Solidity_BD2/casaApuestas.sol\":4639:4656  caballos[_codigo] */\n      0x00\n        /* \"Solidity_BD2/casaApuestas.sol\":4648:4655  _codigo */\n      dup6\n        /* \"Solidity_BD2/casaApuestas.sol\":4639:4656  caballos[_codigo] */\n      dup2\n      mstore\n      0x20\n      add\n      swap1\n      dup2\n      mstore\n      0x20\n      add\n      0x00\n      keccak256\n        /* \"Solidity_BD2/casaApuestas.sol\":4639:4684  caballos[_codigo] = Caballo(_codigo, _nombre) */\n      0x00\n      dup3\n      add\n      mload\n      dup2\n      0x00\n      add\n      sstore\n      0x20\n      dup3\n      add\n      mload\n      dup2\n      0x01\n      add\n      swap1\n      dup1\n      mload\n      swap1\n      0x20\n      add\n      swap1\n      tag_257\n      swap3\n      swap2\n      swap1\n      tag_258\n      jump\t// in\n    tag_257:\n      pop\n      swap1\n      pop\n      pop\n        /* \"Solidity_BD2/casaApuestas.sol\":1376:1377  _ */\n      pop\n        /* \"Solidity_BD2/casaApuestas.sol\":4511:4692  function registrarCaballo(uint _codigo, string memory _nombre) public \r... */\n      pop\n      pop\n      jump\t// out\n        /* \"Solidity_BD2/casaApuestas.sol\":200:240  mapping(uint => Carrera) public carreras */\n    tag_57:\n      mstore(0x20, 0x02)\n      dup1\n      0x00\n      mstore\n      keccak256(0x00, 0x40)\n      0x00\n      swap2\n      pop\n      swap1\n      pop\n      dup1\n      0x00\n      add\n      sload\n      swap1\n      dup1\n      0x01\n      add\n      dup1\n      sload\n      0x01\n      dup2\n      0x01\n      and\n      iszero\n      0x0100\n      mul\n      sub\n      and\n      0x02\n      swap1\n      div\n      dup1\n      0x1f\n      add\n      0x20\n      dup1\n      swap2\n      div\n      mul\n      0x20\n      add\n      mload(0x40)\n      swap1\n      dup2\n      add\n      0x40\n      mstore\n      dup1\n      swap3\n      swap2\n      swap1\n      dup2\n      dup2\n      mstore\n      0x20\n      add\n      dup3\n      dup1\n      sload\n      0x01\n      dup2\n      0x01\n      and\n      iszero\n      0x0100\n      mul\n      sub\n      and\n      0x02\n      swap1\n      div\n      dup1\n      iszero\n      tag_259\n      jumpi\n      dup1\n      0x1f\n      lt\n      tag_260\n      jumpi\n      0x0100\n      dup1\n      dup4\n      sload\n      div\n      mul\n      dup4\n      mstore\n      swap2\n      0x20\n      add\n      swap2\n      jump(tag_259)\n    tag_260:\n      dup3\n      add\n      swap2\n      swap1\n      0x00\n      mstore\n      keccak256(0x00, 0x20)\n      swap1\n    tag_261:\n      dup2\n      sload\n      dup2\n      mstore\n      swap1\n      0x01\n      add\n      swap1\n      0x20\n      add\n      dup1\n      dup4\n      gt\n      tag_261\n      jumpi\n      dup3\n      swap1\n      sub\n      0x1f\n      and\n      dup3\n      add\n      swap2\n    tag_259:\n      pop\n      pop\n      pop\n      pop\n      pop\n      swap1\n      dup1\n      0x02\n      add\n      0x00\n      swap1\n      sload\n      swap1\n      0x0100\n      exp\n      swap1\n      div\n      0xff\n      and\n      swap1\n      dup1\n      0x03\n      add\n      sload\n      swap1\n      dup1\n      0x04\n      add\n      sload\n      swap1\n      dup1\n      0x05\n      add\n      sload\n      swap1\n      pop\n      dup7\n      jump\t// out\n        /* \"Solidity_BD2/casaApuestas.sol\":11311:11446  function getCaballoGanador(uint _codCarrera) public view returns(uint) {\r... */\n    tag_66:\n        /* \"Solidity_BD2/casaApuestas.sol\":11376:11380  uint */\n      0x00\n        /* \"Solidity_BD2/casaApuestas.sol\":11401:11409  carreras */\n      0x02\n        /* \"Solidity_BD2/casaApuestas.sol\":11401:11422  carreras[_codCarrera] */\n      0x00\n        /* \"Solidity_BD2/casaApuestas.sol\":11410:11421  _codCarrera */\n      dup4\n        /* \"Solidity_BD2/casaApuestas.sol\":11401:11422  carreras[_codCarrera] */\n      dup2\n      mstore\n      0x20\n      add\n      swap1\n      dup2\n      mstore\n      0x20\n      add\n      0x00\n      keccak256\n        /* \"Solidity_BD2/casaApuestas.sol\":11401:11437  carreras[_codCarrera].caballoGanador */\n      0x05\n      add\n      sload\n        /* \"Solidity_BD2/casaApuestas.sol\":11393:11438  return (carreras[_codCarrera].caballoGanador) */\n      swap1\n      pop\n        /* \"Solidity_BD2/casaApuestas.sol\":11311:11446  function getCaballoGanador(uint _codCarrera) public view returns(uint) {\r... */\n      swap2\n      swap1\n      pop\n      jump\t// out\n        /* \"Solidity_BD2/casaApuestas.sol\":438:483  mapping(uint => address[]) public apostadores */\n    tag_70:\n      mstore(0x20, 0x05)\n      dup2\n      0x00\n      mstore\n      keccak256(0x00, 0x40)\n      dup2\n      dup2\n      sload\n      dup2\n      lt\n      tag_263\n      jumpi\n      invalid\n    tag_263:\n      swap1\n      0x00\n      mstore\n      keccak256(0x00, 0x20)\n      add\n      0x00\n      swap2\n      pop\n      swap2\n      pop\n      swap1\n      sload\n      swap1\n      0x0100\n      exp\n      swap1\n      div\n      0xffffffffffffffffffffffffffffffffffffffff\n      and\n      dup2\n      jump\t// out\n        /* \"Solidity_BD2/casaApuestas.sol\":11454:11817  function getEstadoCarrera(uint _codCarrera) public view returns(string memory){ \r... */\n    tag_74:\n        /* \"Solidity_BD2/casaApuestas.sol\":11518:11531  string memory */\n      0x60\n        /* \"Solidity_BD2/casaApuestas.sol\":11587:11600  Estado.Creada */\n      0x00\n        /* \"Solidity_BD2/casaApuestas.sol\":11548:11600  carreras[_codCarrera].estadoCarrera == Estado.Creada */\n      0x02\n      dup2\n      gt\n      iszero\n      tag_266\n      jumpi\n      invalid\n    tag_266:\n        /* \"Solidity_BD2/casaApuestas.sol\":11548:11556  carreras */\n      0x02\n        /* \"Solidity_BD2/casaApuestas.sol\":11548:11569  carreras[_codCarrera] */\n      0x00\n        /* \"Solidity_BD2/casaApuestas.sol\":11557:11568  _codCarrera */\n      dup5\n        /* \"Solidity_BD2/casaApuestas.sol\":11548:11569  carreras[_codCarrera] */\n      dup2\n      mstore\n      0x20\n      add\n      swap1\n      dup2\n      mstore\n      0x20\n      add\n      0x00\n      keccak256\n        /* \"Solidity_BD2/casaApuestas.sol\":11548:11583  carreras[_codCarrera].estadoCarrera */\n      0x02\n      add\n      0x00\n      swap1\n      sload\n      swap1\n      0x0100\n      exp\n      swap1\n      div\n      0xff\n      and\n        /* \"Solidity_BD2/casaApuestas.sol\":11548:11600  carreras[_codCarrera].estadoCarrera == Estado.Creada */\n      0x02\n      dup2\n      gt\n      iszero\n      tag_267\n      jumpi\n      invalid\n    tag_267:\n      eq\n        /* \"Solidity_BD2/casaApuestas.sol\":11544:11810  if (carreras[_codCarrera].estadoCarrera == Estado.Creada){\r... */\n      iszero\n      tag_268\n      jumpi\n        /* \"Solidity_BD2/casaApuestas.sol\":11616:11633  return (\"Creada\") */\n      mload(0x40)\n      dup1\n      0x40\n      add\n      0x40\n      mstore\n      dup1\n      0x06\n      dup2\n      mstore\n      0x20\n      add\n      0x4372656164610000000000000000000000000000000000000000000000000000\n      dup2\n      mstore\n      pop\n      swap1\n      pop\n      jump(tag_265)\n        /* \"Solidity_BD2/casaApuestas.sol\":11544:11810  if (carreras[_codCarrera].estadoCarrera == Estado.Creada){\r... */\n    tag_268:\n        /* \"Solidity_BD2/casaApuestas.sol\":11693:11710  Estado.Registrada */\n      0x01\n        /* \"Solidity_BD2/casaApuestas.sol\":11654:11710  carreras[_codCarrera].estadoCarrera == Estado.Registrada */\n      0x02\n      dup2\n      gt\n      iszero\n      tag_270\n      jumpi\n      invalid\n    tag_270:\n        /* \"Solidity_BD2/casaApuestas.sol\":11654:11662  carreras */\n      0x02\n        /* \"Solidity_BD2/casaApuestas.sol\":11654:11675  carreras[_codCarrera] */\n      0x00\n        /* \"Solidity_BD2/casaApuestas.sol\":11663:11674  _codCarrera */\n      dup5\n        /* \"Solidity_BD2/casaApuestas.sol\":11654:11675  carreras[_codCarrera] */\n      dup2\n      mstore\n      0x20\n      add\n      swap1\n      dup2\n      mstore\n      0x20\n      add\n      0x00\n      keccak256\n        /* \"Solidity_BD2/casaApuestas.sol\":11654:11689  carreras[_codCarrera].estadoCarrera */\n      0x02\n      add\n      0x00\n      swap1\n      sload\n      swap1\n      0x0100\n      exp\n      swap1\n      div\n      0xff\n      and\n        /* \"Solidity_BD2/casaApuestas.sol\":11654:11710  carreras[_codCarrera].estadoCarrera == Estado.Registrada */\n      0x02\n      dup2\n      gt\n      iszero\n      tag_271\n      jumpi\n      invalid\n    tag_271:\n      eq\n        /* \"Solidity_BD2/casaApuestas.sol\":11650:11810  if (carreras[_codCarrera].estadoCarrera == Estado.Registrada){\r... */\n      iszero\n      tag_272\n      jumpi\n        /* \"Solidity_BD2/casaApuestas.sol\":11726:11747  return (\"Registrada\") */\n      mload(0x40)\n      dup1\n      0x40\n      add\n      0x40\n      mstore\n      dup1\n      0x0a\n      dup2\n      mstore\n      0x20\n      add\n      0x5265676973747261646100000000000000000000000000000000000000000000\n      dup2\n      mstore\n      pop\n      swap1\n      pop\n      jump(tag_265)\n        /* \"Solidity_BD2/casaApuestas.sol\":11650:11810  if (carreras[_codCarrera].estadoCarrera == Estado.Registrada){\r... */\n    tag_272:\n        /* \"Solidity_BD2/casaApuestas.sol\":11778:11798  return (\"Terminada\") */\n      mload(0x40)\n      dup1\n      0x40\n      add\n      0x40\n      mstore\n      dup1\n      0x09\n      dup2\n      mstore\n      0x20\n      add\n      0x5465726d696e6164610000000000000000000000000000000000000000000000\n      dup2\n      mstore\n      pop\n      swap1\n      pop\n        /* \"Solidity_BD2/casaApuestas.sol\":11454:11817  function getEstadoCarrera(uint _codCarrera) public view returns(string memory){ \r... */\n    tag_265:\n      swap2\n      swap1\n      pop\n      jump\t// out\n        /* \"Solidity_BD2/casaApuestas.sol\":135:160  uint public totalCarreras */\n    tag_81:\n      sload(0x01)\n      dup2\n      jump\t// out\n        /* \"Solidity_BD2/casaApuestas.sol\":269:309  mapping(uint => Caballo) public caballos */\n    tag_85:\n      mstore(0x20, 0x03)\n      dup1\n      0x00\n      mstore\n      keccak256(0x00, 0x40)\n      0x00\n      swap2\n      pop\n      swap1\n      pop\n      dup1\n      0x00\n      add\n      sload\n      swap1\n      dup1\n      0x01\n      add\n      dup1\n      sload\n      0x01\n      dup2\n      0x01\n      and\n      iszero\n      0x0100\n      mul\n      sub\n      and\n      0x02\n      swap1\n      div\n      dup1\n      0x1f\n      add\n      0x20\n      dup1\n      swap2\n      div\n      mul\n      0x20\n      add\n      mload(0x40)\n      swap1\n      dup2\n      add\n      0x40\n      mstore\n      dup1\n      swap3\n      swap2\n      swap1\n      dup2\n      dup2\n      mstore\n      0x20\n      add\n      dup3\n      dup1\n      sload\n      0x01\n      dup2\n      0x01\n      and\n      iszero\n      0x0100\n      mul\n      sub\n      and\n      0x02\n      swap1\n      div\n      dup1\n      iszero\n      tag_274\n      jumpi\n      dup1\n      0x1f\n      lt\n      tag_275\n      jumpi\n      0x0100\n      dup1\n      dup4\n      sload\n      div\n      mul\n      dup4\n      mstore\n      swap2\n      0x20\n      add\n      swap2\n      jump(tag_274)\n    tag_275:\n      dup3\n      add\n      swap2\n      swap1\n      0x00\n      mstore\n      keccak256(0x00, 0x20)\n      swap1\n    tag_276:\n      dup2\n      sload\n      dup2\n      mstore\n      swap1\n      0x01\n      add\n      swap1\n      0x20\n      add\n      dup1\n      dup4\n      gt\n      tag_276\n      jumpi\n      dup3\n      swap1\n      sub\n      0x1f\n      and\n      dup3\n      add\n      swap2\n    tag_274:\n      pop\n      pop\n      pop\n      pop\n      pop\n      swap1\n      pop\n      dup3\n      jump\t// out\n        /* \"Solidity_BD2/casaApuestas.sol\":5388:6608  function apostar(uint _codCaballo, uint _codCarrera) payable public \r... */\n    tag_92:\n        /* \"Solidity_BD2/casaApuestas.sol\":1505:1514  anfitrion */\n      0x00\n      dup1\n      swap1\n      sload\n      swap1\n      0x0100\n      exp\n      swap1\n      div\n      0xffffffffffffffffffffffffffffffffffffffff\n      and\n        /* \"Solidity_BD2/casaApuestas.sol\":1491:1514  msg.sender != anfitrion */\n      0xffffffffffffffffffffffffffffffffffffffff\n      and\n        /* \"Solidity_BD2/casaApuestas.sol\":1491:1501  msg.sender */\n      caller\n        /* \"Solidity_BD2/casaApuestas.sol\":1491:1514  msg.sender != anfitrion */\n      0xffffffffffffffffffffffffffffffffffffffff\n      and\n      eq\n      iszero\n        /* \"Solidity_BD2/casaApuestas.sol\":1483:1574  require(msg.sender != anfitrion, \"El invocador debe ser un usuario diferente al anfitrion\") */\n      tag_278\n      jumpi\n      mload(0x40)\n      0x08c379a000000000000000000000000000000000000000000000000000000000\n      dup2\n      mstore\n      0x04\n      add\n      dup1\n      dup1\n      0x20\n      add\n      dup3\n      dup2\n      sub\n      dup3\n      mstore\n      0x37\n      dup2\n      mstore\n      0x20\n      add\n      dup1\n      data_c258d99636b674a8c760b7677c129033d423282c7394402c18f597a1eab563a1\n      0x37\n      swap2\n      codecopy\n      0x40\n      add\n      swap2\n      pop\n      pop\n      mload(0x40)\n      dup1\n      swap2\n      sub\n      swap1\n      revert\n    tag_278:\n        /* \"Solidity_BD2/casaApuestas.sol\":5492:5503  _codCarrera */\n      dup1\n        /* \"Solidity_BD2/casaApuestas.sol\":5505:5522  Estado.Registrada */\n      0x01\n        /* \"Solidity_BD2/casaApuestas.sol\":1783:1790  _estado */\n      dup1\n        /* \"Solidity_BD2/casaApuestas.sol\":1744:1790  carreras[_codCarrera].estadoCarrera == _estado */\n      0x02\n      dup2\n      gt\n      iszero\n      tag_280\n      jumpi\n      invalid\n    tag_280:\n        /* \"Solidity_BD2/casaApuestas.sol\":1744:1752  carreras */\n      0x02\n        /* \"Solidity_BD2/casaApuestas.sol\":1744:1765  carreras[_codCarrera] */\n      0x00\n        /* \"Solidity_BD2/casaApuestas.sol\":1753:1764  _codCarrera */\n      dup5\n        /* \"Solidity_BD2/casaApuestas.sol\":1744:1765  carreras[_codCarrera] */\n      dup2\n      mstore\n      0x20\n      add\n      swap1\n      dup2\n      mstore\n      0x20\n      add\n      0x00\n      keccak256\n        /* \"Solidity_BD2/casaApuestas.sol\":1744:1779  carreras[_codCarrera].estadoCarrera */\n      0x02\n      add\n      0x00\n      swap1\n      sload\n      swap1\n      0x0100\n      exp\n      swap1\n      div\n      0xff\n      and\n        /* \"Solidity_BD2/casaApuestas.sol\":1744:1790  carreras[_codCarrera].estadoCarrera == _estado */\n      0x02\n      dup2\n      gt\n      iszero\n      tag_281\n      jumpi\n      invalid\n    tag_281:\n      eq\n        /* \"Solidity_BD2/casaApuestas.sol\":1736:1839  require(carreras[_codCarrera].estadoCarrera == _estado, \"La carrera no cumple con el estado requerido\") */\n      tag_282\n      jumpi\n      mload(0x40)\n      0x08c379a000000000000000000000000000000000000000000000000000000000\n      dup2\n      mstore\n      0x04\n      add\n      dup1\n      dup1\n      0x20\n      add\n      dup3\n      dup2\n      sub\n      dup3\n      mstore\n      0x2c\n      dup2\n      mstore\n      0x20\n      add\n      dup1\n      data_e91ca438e9e3f1e0e0a5b1a72a508ed5ae254b3cb59572817ac1ec6e2a488952\n      0x2c\n      swap2\n      codecopy\n      0x40\n      add\n      swap2\n      pop\n      pop\n      mload(0x40)\n      dup1\n      swap2\n      sub\n      swap1\n      revert\n    tag_282:\n        /* \"Solidity_BD2/casaApuestas.sol\":5543:5554  _codCaballo */\n      dup4\n        /* \"Solidity_BD2/casaApuestas.sol\":2428:2429  0 */\n      0x00\n        /* \"Solidity_BD2/casaApuestas.sol\":2388:2396  caballos */\n      0x03\n        /* \"Solidity_BD2/casaApuestas.sol\":2388:2409  caballos[_codCaballo] */\n      0x00\n        /* \"Solidity_BD2/casaApuestas.sol\":2397:2408  _codCaballo */\n      dup4\n        /* \"Solidity_BD2/casaApuestas.sol\":2388:2409  caballos[_codCaballo] */\n      dup2\n      mstore\n      0x20\n      add\n      swap1\n      dup2\n      mstore\n      0x20\n      add\n      0x00\n      keccak256\n        /* \"Solidity_BD2/casaApuestas.sol\":2388:2416  caballos[_codCaballo].nombre */\n      0x01\n      add\n        /* \"Solidity_BD2/casaApuestas.sol\":2382:2424  bytes(caballos[_codCaballo].nombre).length */\n      dup1\n      sload\n      0x01\n      dup2\n      0x01\n      and\n      iszero\n      0x0100\n      mul\n      sub\n      and\n      0x02\n      swap1\n      div\n      swap1\n      pop\n        /* \"Solidity_BD2/casaApuestas.sol\":2382:2429  bytes(caballos[_codCaballo].nombre).length != 0 */\n      eq\n      iszero\n        /* \"Solidity_BD2/casaApuestas.sol\":2374:2464  require(bytes(caballos[_codCaballo].nombre).length != 0, \"El caballo ingresado no existe\") */\n      tag_284\n      jumpi\n      mload(0x40)\n      0x08c379a000000000000000000000000000000000000000000000000000000000\n      dup2\n      mstore\n      0x04\n      add\n      dup1\n      dup1\n      0x20\n      add\n      dup3\n      dup2\n      sub\n      dup3\n      mstore\n      0x1e\n      dup2\n      mstore\n      0x20\n      add\n      dup1\n      0x456c20636162616c6c6f20696e6772657361646f206e6f206578697374650000\n      dup2\n      mstore\n      pop\n      0x20\n      add\n      swap2\n      pop\n      pop\n      mload(0x40)\n      dup1\n      swap2\n      sub\n      swap1\n      revert\n    tag_284:\n        /* \"Solidity_BD2/casaApuestas.sol\":5575:5586  _codCarrera */\n      dup4\n        /* \"Solidity_BD2/casaApuestas.sol\":2597:2598  0 */\n      0x00\n        /* \"Solidity_BD2/casaApuestas.sol\":2557:2565  carreras */\n      0x02\n        /* \"Solidity_BD2/casaApuestas.sol\":2557:2578  carreras[_codCarrera] */\n      0x00\n        /* \"Solidity_BD2/casaApuestas.sol\":2566:2577  _codCarrera */\n      dup4\n        /* \"Solidity_BD2/casaApuestas.sol\":2557:2578  carreras[_codCarrera] */\n      dup2\n      mstore\n      0x20\n      add\n      swap1\n      dup2\n      mstore\n      0x20\n      add\n      0x00\n      keccak256\n        /* \"Solidity_BD2/casaApuestas.sol\":2557:2585  carreras[_codCarrera].nombre */\n      0x01\n      add\n        /* \"Solidity_BD2/casaApuestas.sol\":2551:2593  bytes(carreras[_codCarrera].nombre).length */\n      dup1\n      sload\n      0x01\n      dup2\n      0x01\n      and\n      iszero\n      0x0100\n      mul\n      sub\n      and\n      0x02\n      swap1\n      div\n      swap1\n      pop\n        /* \"Solidity_BD2/casaApuestas.sol\":2551:2598  bytes(carreras[_codCarrera].nombre).length != 0 */\n      eq\n      iszero\n        /* \"Solidity_BD2/casaApuestas.sol\":2543:2633  require(bytes(carreras[_codCarrera].nombre).length != 0, \"La carrera ingresada no existe\") */\n      tag_286\n      jumpi\n      mload(0x40)\n      0x08c379a000000000000000000000000000000000000000000000000000000000\n      dup2\n      mstore\n      0x04\n      add\n      dup1\n      dup1\n      0x20\n      add\n      dup3\n      dup2\n      sub\n      dup3\n      mstore\n      0x1e\n      dup2\n      mstore\n      0x20\n      add\n      dup1\n      0x4c61206361727265726120696e67726573616461206e6f206578697374650000\n      dup2\n      mstore\n      pop\n      0x20\n      add\n      swap2\n      pop\n      pop\n      mload(0x40)\n      dup1\n      swap2\n      sub\n      swap1\n      revert\n    tag_286:\n        /* \"Solidity_BD2/casaApuestas.sol\":5610:5621  _codCarrera */\n      dup5\n        /* \"Solidity_BD2/casaApuestas.sol\":5623:5634  _codCaballo */\n      dup7\n        /* \"Solidity_BD2/casaApuestas.sol\":3724:3741  uint cantCaballos */\n      0x00\n        /* \"Solidity_BD2/casaApuestas.sol\":3744:3756  competencias */\n      0x04\n        /* \"Solidity_BD2/casaApuestas.sol\":3744:3769  competencias[_codCarrera] */\n      0x00\n        /* \"Solidity_BD2/casaApuestas.sol\":3757:3768  _codCarrera */\n      dup5\n        /* \"Solidity_BD2/casaApuestas.sol\":3744:3769  competencias[_codCarrera] */\n      dup2\n      mstore\n      0x20\n      add\n      swap1\n      dup2\n      mstore\n      0x20\n      add\n      0x00\n      keccak256\n        /* \"Solidity_BD2/casaApuestas.sol\":3744:3776  competencias[_codCarrera].length */\n      dup1\n      sload\n      swap1\n      pop\n        /* \"Solidity_BD2/casaApuestas.sol\":3724:3776  uint cantCaballos = competencias[_codCarrera].length */\n      swap1\n      pop\n        /* \"Solidity_BD2/casaApuestas.sol\":3787:3805  bool cabEncontrado */\n      0x00\n        /* \"Solidity_BD2/casaApuestas.sol\":3808:3813  false */\n      dup1\n        /* \"Solidity_BD2/casaApuestas.sol\":3787:3813  bool cabEncontrado = false */\n      swap1\n      pop\n        /* \"Solidity_BD2/casaApuestas.sol\":3828:3834  uint i */\n      0x00\n        /* \"Solidity_BD2/casaApuestas.sol\":3837:3838  0 */\n      dup1\n        /* \"Solidity_BD2/casaApuestas.sol\":3828:3838  uint i = 0 */\n      swap1\n      pop\n        /* \"Solidity_BD2/casaApuestas.sol\":3824:4014  for(uint i = 0; i < cantCaballos; i++){\r... */\n    tag_288:\n        /* \"Solidity_BD2/casaApuestas.sol\":3844:3856  cantCaballos */\n      dup3\n        /* \"Solidity_BD2/casaApuestas.sol\":3840:3841  i */\n      dup2\n        /* \"Solidity_BD2/casaApuestas.sol\":3840:3856  i < cantCaballos */\n      lt\n        /* \"Solidity_BD2/casaApuestas.sol\":3824:4014  for(uint i = 0; i < cantCaballos; i++){\r... */\n      iszero\n      tag_289\n      jumpi\n        /* \"Solidity_BD2/casaApuestas.sol\":3912:3923  _codCaballo */\n      dup4\n        /* \"Solidity_BD2/casaApuestas.sol\":3880:3892  competencias */\n      0x04\n        /* \"Solidity_BD2/casaApuestas.sol\":3880:3905  competencias[_codCarrera] */\n      0x00\n        /* \"Solidity_BD2/casaApuestas.sol\":3893:3904  _codCarrera */\n      dup8\n        /* \"Solidity_BD2/casaApuestas.sol\":3880:3905  competencias[_codCarrera] */\n      dup2\n      mstore\n      0x20\n      add\n      swap1\n      dup2\n      mstore\n      0x20\n      add\n      0x00\n      keccak256\n        /* \"Solidity_BD2/casaApuestas.sol\":3906:3907  i */\n      dup3\n        /* \"Solidity_BD2/casaApuestas.sol\":3880:3908  competencias[_codCarrera][i] */\n      dup2\n      sload\n      dup2\n      lt\n      tag_291\n      jumpi\n      invalid\n    tag_291:\n      swap1\n      0x00\n      mstore\n      keccak256(0x00, 0x20)\n      add\n      sload\n        /* \"Solidity_BD2/casaApuestas.sol\":3880:3923  competencias[_codCarrera][i] == _codCaballo */\n      eq\n        /* \"Solidity_BD2/casaApuestas.sol\":3877:4003  if(competencias[_codCarrera][i] == _codCaballo){\r... */\n      iszero\n      tag_293\n      jumpi\n        /* \"Solidity_BD2/casaApuestas.sol\":3959:3963  true */\n      0x01\n        /* \"Solidity_BD2/casaApuestas.sol\":3943:3963  cabEncontrado = true */\n      swap2\n      pop\n        /* \"Solidity_BD2/casaApuestas.sol\":3982:3987  break */\n      jump(tag_289)\n        /* \"Solidity_BD2/casaApuestas.sol\":3877:4003  if(competencias[_codCarrera][i] == _codCaballo){\r... */\n    tag_293:\n        /* \"Solidity_BD2/casaApuestas.sol\":3858:3861  i++ */\n      dup1\n      dup1\n      0x01\n      add\n      swap2\n      pop\n      pop\n        /* \"Solidity_BD2/casaApuestas.sol\":3824:4014  for(uint i = 0; i < cantCaballos; i++){\r... */\n      jump(tag_288)\n    tag_289:\n      pop\n        /* \"Solidity_BD2/casaApuestas.sol\":4032:4045  cabEncontrado */\n      dup1\n        /* \"Solidity_BD2/casaApuestas.sol\":4024:4105  require(cabEncontrado, \"Este caballo no se encuentra registrado en esta carrera\") */\n      tag_294\n      jumpi\n      mload(0x40)\n      0x08c379a000000000000000000000000000000000000000000000000000000000\n      dup2\n      mstore\n      0x04\n      add\n      dup1\n      dup1\n      0x20\n      add\n      dup3\n      dup2\n      sub\n      dup3\n      mstore\n      0x37\n      dup2\n      mstore\n      0x20\n      add\n      dup1\n      data_961fcad8d1437fb7fcd32c3c0cb1abc4a020f237cc5c3c4ecf402a363363c4fd\n      0x37\n      swap2\n      codecopy\n      0x40\n      add\n      swap2\n      pop\n      pop\n      mload(0x40)\n      dup1\n      swap2\n      sub\n      swap1\n      revert\n    tag_294:\n        /* \"Solidity_BD2/casaApuestas.sol\":5657:5666  msg.value */\n      callvalue\n        /* \"Solidity_BD2/casaApuestas.sol\":4198:4199  0 */\n      0x00\n        /* \"Solidity_BD2/casaApuestas.sol\":4189:4195  _monto */\n      dup2\n        /* \"Solidity_BD2/casaApuestas.sol\":4189:4199  _monto > 0 */\n      gt\n        /* \"Solidity_BD2/casaApuestas.sol\":4181:4245  require(_monto > 0, \"El monto de la apuesta debe ser mayor a 0\") */\n      tag_296\n      jumpi\n      mload(0x40)\n      0x08c379a000000000000000000000000000000000000000000000000000000000\n      dup2\n      mstore\n      0x04\n      add\n      dup1\n      dup1\n      0x20\n      add\n      dup3\n      dup2\n      sub\n      dup3\n      mstore\n      0x29\n      dup2\n      mstore\n      0x20\n      add\n      dup1\n      data_6f447a6923745e6be6f901d62f9112c38aa63e63c11e0640be511470a9c26a07\n      0x29\n      swap2\n      codecopy\n      0x40\n      add\n      swap2\n      pop\n      pop\n      mload(0x40)\n      dup1\n      swap2\n      sub\n      swap1\n      revert\n    tag_296:\n        /* \"Solidity_BD2/casaApuestas.sol\":5678:5695  uint montoApuesta */\n      0x00\n        /* \"Solidity_BD2/casaApuestas.sol\":5698:5707  msg.value */\n      callvalue\n        /* \"Solidity_BD2/casaApuestas.sol\":5678:5707  uint montoApuesta = msg.value */\n      swap1\n      pop\n        /* \"Solidity_BD2/casaApuestas.sol\":5718:5735  address apostador */\n      0x00\n        /* \"Solidity_BD2/casaApuestas.sol\":5738:5748  msg.sender */\n      caller\n        /* \"Solidity_BD2/casaApuestas.sol\":5718:5748  address apostador = msg.sender */\n      swap1\n      pop\n        /* \"Solidity_BD2/casaApuestas.sol\":5817:5825  carreras */\n      0x02\n        /* \"Solidity_BD2/casaApuestas.sol\":5817:5838  carreras[_codCarrera] */\n      0x00\n        /* \"Solidity_BD2/casaApuestas.sol\":5826:5837  _codCarrera */\n      dup14\n        /* \"Solidity_BD2/casaApuestas.sol\":5817:5838  carreras[_codCarrera] */\n      dup2\n      mstore\n      0x20\n      add\n      swap1\n      dup2\n      mstore\n      0x20\n      add\n      0x00\n      keccak256\n        /* \"Solidity_BD2/casaApuestas.sol\":5817:5847  carreras[_codCarrera].apuestas */\n      0x06\n      add\n        /* \"Solidity_BD2/casaApuestas.sol\":5817:5858  carreras[_codCarrera].apuestas[apostador] */\n      0x00\n        /* \"Solidity_BD2/casaApuestas.sol\":5848:5857  apostador */\n      dup3\n        /* \"Solidity_BD2/casaApuestas.sol\":5817:5858  carreras[_codCarrera].apuestas[apostador] */\n      0xffffffffffffffffffffffffffffffffffffffff\n      and\n      0xffffffffffffffffffffffffffffffffffffffff\n      and\n      dup2\n      mstore\n      0x20\n      add\n      swap1\n      dup2\n      mstore\n      0x20\n      add\n      0x00\n      keccak256\n        /* \"Solidity_BD2/casaApuestas.sol\":5817:5865  carreras[_codCarrera].apuestas[apostador].creada */\n      0x02\n      add\n      0x00\n      swap1\n      sload\n      swap1\n      0x0100\n      exp\n      swap1\n      div\n      0xff\n      and\n        /* \"Solidity_BD2/casaApuestas.sol\":5814:6601  if(carreras[_codCarrera].apuestas[apostador].creada){\r... */\n      iszero\n      tag_298\n      jumpi\n        /* \"Solidity_BD2/casaApuestas.sol\":6015:6026  _codCaballo */\n      dup13\n        /* \"Solidity_BD2/casaApuestas.sol\":5959:5967  carreras */\n      0x02\n        /* \"Solidity_BD2/casaApuestas.sol\":5959:5980  carreras[_codCarrera] */\n      0x00\n        /* \"Solidity_BD2/casaApuestas.sol\":5968:5979  _codCarrera */\n      dup15\n        /* \"Solidity_BD2/casaApuestas.sol\":5959:5980  carreras[_codCarrera] */\n      dup2\n      mstore\n      0x20\n      add\n      swap1\n      dup2\n      mstore\n      0x20\n      add\n      0x00\n      keccak256\n        /* \"Solidity_BD2/casaApuestas.sol\":5959:5989  carreras[_codCarrera].apuestas */\n      0x06\n      add\n        /* \"Solidity_BD2/casaApuestas.sol\":5959:6000  carreras[_codCarrera].apuestas[apostador] */\n      0x00\n        /* \"Solidity_BD2/casaApuestas.sol\":5990:5999  apostador */\n      dup4\n        /* \"Solidity_BD2/casaApuestas.sol\":5959:6000  carreras[_codCarrera].apuestas[apostador] */\n      0xffffffffffffffffffffffffffffffffffffffff\n      and\n      0xffffffffffffffffffffffffffffffffffffffff\n      and\n      dup2\n      mstore\n      0x20\n      add\n      swap1\n      dup2\n      mstore\n      0x20\n      add\n      0x00\n      keccak256\n        /* \"Solidity_BD2/casaApuestas.sol\":5959:6011  carreras[_codCarrera].apuestas[apostador].codCaballo */\n      0x01\n      add\n      sload\n        /* \"Solidity_BD2/casaApuestas.sol\":5959:6026  carreras[_codCarrera].apuestas[apostador].codCaballo == _codCaballo */\n      eq\n        /* \"Solidity_BD2/casaApuestas.sol\":5951:6090  require(carreras[_codCarrera].apuestas[apostador].codCaballo == _codCaballo, \"Solo se puede apostar por un caballo dentro de esta carrera\") */\n      tag_299\n      jumpi\n      mload(0x40)\n      0x08c379a000000000000000000000000000000000000000000000000000000000\n      dup2\n      mstore\n      0x04\n      add\n      dup1\n      dup1\n      0x20\n      add\n      dup3\n      dup2\n      sub\n      dup3\n      mstore\n      0x3b\n      dup2\n      mstore\n      0x20\n      add\n      dup1\n      data_015e2967b1a324c495f3905ebc30437189d94d81ee000a6adba682a4697a35b6\n      0x3b\n      swap2\n      codecopy\n      0x40\n      add\n      swap2\n      pop\n      pop\n      mload(0x40)\n      dup1\n      swap2\n      sub\n      swap1\n      revert\n    tag_299:\n        /* \"Solidity_BD2/casaApuestas.sol\":6156:6168  montoApuesta */\n      dup2\n        /* \"Solidity_BD2/casaApuestas.sol\":6105:6113  carreras */\n      0x02\n        /* \"Solidity_BD2/casaApuestas.sol\":6105:6126  carreras[_codCarrera] */\n      0x00\n        /* \"Solidity_BD2/casaApuestas.sol\":6114:6125  _codCarrera */\n      dup15\n        /* \"Solidity_BD2/casaApuestas.sol\":6105:6126  carreras[_codCarrera] */\n      dup2\n      mstore\n      0x20\n      add\n      swap1\n      dup2\n      mstore\n      0x20\n      add\n      0x00\n      keccak256\n        /* \"Solidity_BD2/casaApuestas.sol\":6105:6135  carreras[_codCarrera].apuestas */\n      0x06\n      add\n        /* \"Solidity_BD2/casaApuestas.sol\":6105:6146  carreras[_codCarrera].apuestas[apostador] */\n      0x00\n        /* \"Solidity_BD2/casaApuestas.sol\":6136:6145  apostador */\n      dup4\n        /* \"Solidity_BD2/casaApuestas.sol\":6105:6146  carreras[_codCarrera].apuestas[apostador] */\n      0xffffffffffffffffffffffffffffffffffffffff\n      and\n      0xffffffffffffffffffffffffffffffffffffffff\n      and\n      dup2\n      mstore\n      0x20\n      add\n      swap1\n      dup2\n      mstore\n      0x20\n      add\n      0x00\n      keccak256\n        /* \"Solidity_BD2/casaApuestas.sol\":6105:6152  carreras[_codCarrera].apuestas[apostador].monto */\n      0x00\n      add\n      0x00\n        /* \"Solidity_BD2/casaApuestas.sol\":6105:6168  carreras[_codCarrera].apuestas[apostador].monto += montoApuesta */\n      dup3\n      dup3\n      sload\n      add\n      swap3\n      pop\n      pop\n      dup2\n      swap1\n      sstore\n      pop\n        /* \"Solidity_BD2/casaApuestas.sol\":6219:6231  montoApuesta */\n      dup2\n        /* \"Solidity_BD2/casaApuestas.sol\":6183:6191  carreras */\n      0x02\n        /* \"Solidity_BD2/casaApuestas.sol\":6183:6204  carreras[_codCarrera] */\n      0x00\n        /* \"Solidity_BD2/casaApuestas.sol\":6192:6203  _codCarrera */\n      dup15\n        /* \"Solidity_BD2/casaApuestas.sol\":6183:6204  carreras[_codCarrera] */\n      dup2\n      mstore\n      0x20\n      add\n      swap1\n      dup2\n      mstore\n      0x20\n      add\n      0x00\n      keccak256\n        /* \"Solidity_BD2/casaApuestas.sol\":6183:6215  carreras[_codCarrera].montoTotal */\n      0x03\n      add\n      0x00\n        /* \"Solidity_BD2/casaApuestas.sol\":6183:6231  carreras[_codCarrera].montoTotal += montoApuesta */\n      dup3\n      dup3\n      sload\n      add\n      swap3\n      pop\n      pop\n      dup2\n      swap1\n      sstore\n      pop\n        /* \"Solidity_BD2/casaApuestas.sol\":5814:6601  if(carreras[_codCarrera].apuestas[apostador].creada){\r... */\n      jump(tag_300)\n    tag_298:\n        /* \"Solidity_BD2/casaApuestas.sol\":6393:6439  Apuesta(montoApuesta, _codCaballo, true, 0, 0) */\n      mload(0x40)\n      dup1\n      0xa0\n      add\n      0x40\n      mstore\n      dup1\n        /* \"Solidity_BD2/casaApuestas.sol\":6401:6413  montoApuesta */\n      dup4\n        /* \"Solidity_BD2/casaApuestas.sol\":6393:6439  Apuesta(montoApuesta, _codCaballo, true, 0, 0) */\n      dup2\n      mstore\n      0x20\n      add\n        /* \"Solidity_BD2/casaApuestas.sol\":6415:6426  _codCaballo */\n      dup15\n        /* \"Solidity_BD2/casaApuestas.sol\":6393:6439  Apuesta(montoApuesta, _codCaballo, true, 0, 0) */\n      dup2\n      mstore\n      0x20\n      add\n        /* \"Solidity_BD2/casaApuestas.sol\":6428:6432  true */\n      0x01\n        /* \"Solidity_BD2/casaApuestas.sol\":6393:6439  Apuesta(montoApuesta, _codCaballo, true, 0, 0) */\n      iszero\n      iszero\n      dup2\n      mstore\n      0x20\n      add\n        /* \"Solidity_BD2/casaApuestas.sol\":6434:6435  0 */\n      0x00\n        /* \"Solidity_BD2/casaApuestas.sol\":6393:6439  Apuesta(montoApuesta, _codCaballo, true, 0, 0) */\n      dup2\n      mstore\n      0x20\n      add\n        /* \"Solidity_BD2/casaApuestas.sol\":6437:6438  0 */\n      0x00\n        /* \"Solidity_BD2/casaApuestas.sol\":6393:6439  Apuesta(montoApuesta, _codCaballo, true, 0, 0) */\n      dup2\n      mstore\n      pop\n        /* \"Solidity_BD2/casaApuestas.sol\":6349:6357  carreras */\n      0x02\n        /* \"Solidity_BD2/casaApuestas.sol\":6349:6370  carreras[_codCarrera] */\n      0x00\n        /* \"Solidity_BD2/casaApuestas.sol\":6358:6369  _codCarrera */\n      dup15\n        /* \"Solidity_BD2/casaApuestas.sol\":6349:6370  carreras[_codCarrera] */\n      dup2\n      mstore\n      0x20\n      add\n      swap1\n      dup2\n      mstore\n      0x20\n      add\n      0x00\n      keccak256\n        /* \"Solidity_BD2/casaApuestas.sol\":6349:6379  carreras[_codCarrera].apuestas */\n      0x06\n      add\n        /* \"Solidity_BD2/casaApuestas.sol\":6349:6390  carreras[_codCarrera].apuestas[apostador] */\n      0x00\n        /* \"Solidity_BD2/casaApuestas.sol\":6380:6389  apostador */\n      dup4\n        /* \"Solidity_BD2/casaApuestas.sol\":6349:6390  carreras[_codCarrera].apuestas[apostador] */\n      0xffffffffffffffffffffffffffffffffffffffff\n      and\n      0xffffffffffffffffffffffffffffffffffffffff\n      and\n      dup2\n      mstore\n      0x20\n      add\n      swap1\n      dup2\n      mstore\n      0x20\n      add\n      0x00\n      keccak256\n        /* \"Solidity_BD2/casaApuestas.sol\":6349:6439  carreras[_codCarrera].apuestas[apostador] = Apuesta(montoApuesta, _codCaballo, true, 0, 0) */\n      0x00\n      dup3\n      add\n      mload\n      dup2\n      0x00\n      add\n      sstore\n      0x20\n      dup3\n      add\n      mload\n      dup2\n      0x01\n      add\n      sstore\n      0x40\n      dup3\n      add\n      mload\n      dup2\n      0x02\n      add\n      exp(0x0100, 0x00)\n      dup2\n      sload\n      dup2\n      0xff\n      mul\n      not\n      and\n      swap1\n      dup4\n      iszero\n      iszero\n      mul\n      or\n      swap1\n      sstore\n      pop\n      0x60\n      dup3\n      add\n      mload\n      dup2\n      0x03\n      add\n      sstore\n      0x80\n      dup3\n      add\n      mload\n      dup2\n      0x04\n      add\n      sstore\n      swap1\n      pop\n      pop\n        /* \"Solidity_BD2/casaApuestas.sol\":6490:6502  montoApuesta */\n      dup2\n        /* \"Solidity_BD2/casaApuestas.sol\":6454:6462  carreras */\n      0x02\n        /* \"Solidity_BD2/casaApuestas.sol\":6454:6475  carreras[_codCarrera] */\n      0x00\n        /* \"Solidity_BD2/casaApuestas.sol\":6463:6474  _codCarrera */\n      dup15\n        /* \"Solidity_BD2/casaApuestas.sol\":6454:6475  carreras[_codCarrera] */\n      dup2\n      mstore\n      0x20\n      add\n      swap1\n      dup2\n      mstore\n      0x20\n      add\n      0x00\n      keccak256\n        /* \"Solidity_BD2/casaApuestas.sol\":6454:6486  carreras[_codCarrera].montoTotal */\n      0x03\n      add\n      0x00\n        /* \"Solidity_BD2/casaApuestas.sol\":6454:6502  carreras[_codCarrera].montoTotal += montoApuesta */\n      dup3\n      dup3\n      sload\n      add\n      swap3\n      pop\n      pop\n      dup2\n      swap1\n      sstore\n      pop\n        /* \"Solidity_BD2/casaApuestas.sol\":6517:6528  apostadores */\n      0x05\n        /* \"Solidity_BD2/casaApuestas.sol\":6517:6541  apostadores[_codCarrera] */\n      0x00\n        /* \"Solidity_BD2/casaApuestas.sol\":6529:6540  _codCarrera */\n      dup14\n        /* \"Solidity_BD2/casaApuestas.sol\":6517:6541  apostadores[_codCarrera] */\n      dup2\n      mstore\n      0x20\n      add\n      swap1\n      dup2\n      mstore\n      0x20\n      add\n      0x00\n      keccak256\n        /* \"Solidity_BD2/casaApuestas.sol\":6547:6556  apostador */\n      dup2\n        /* \"Solidity_BD2/casaApuestas.sol\":6517:6557  apostadores[_codCarrera].push(apostador) */\n      swap1\n      dup1\n        /* \"--CODEGEN--\":39:40   */\n      0x01\n        /* \"--CODEGEN--\":33:36   */\n      dup2\n        /* \"--CODEGEN--\":27:37   */\n      sload\n        /* \"--CODEGEN--\":23:41   */\n      add\n        /* \"--CODEGEN--\":57:67   */\n      dup1\n        /* \"--CODEGEN--\":52:55   */\n      dup3\n        /* \"--CODEGEN--\":45:68   */\n      sstore\n        /* \"--CODEGEN--\":79:89   */\n      dup1\n        /* \"--CODEGEN--\":72:89   */\n      swap2\n      pop\n        /* \"--CODEGEN--\":0:93   */\n      pop\n        /* \"Solidity_BD2/casaApuestas.sol\":6517:6557  apostadores[_codCarrera].push(apostador) */\n      0x01\n      swap1\n      sub\n      swap1\n      0x00\n      mstore\n      keccak256(0x00, 0x20)\n      add\n      0x00\n      swap1\n      swap2\n      swap1\n      swap2\n      swap1\n      swap2\n      0x0100\n      exp\n      dup2\n      sload\n      dup2\n      0xffffffffffffffffffffffffffffffffffffffff\n      mul\n      not\n      and\n      swap1\n      dup4\n      0xffffffffffffffffffffffffffffffffffffffff\n      and\n      mul\n      or\n      swap1\n      sstore\n      pop\n        /* \"Solidity_BD2/casaApuestas.sol\":5814:6601  if(carreras[_codCarrera].apuestas[apostador].creada){\r... */\n    tag_300:\n        /* \"Solidity_BD2/casaApuestas.sol\":4256:4257  _ */\n      pop\n      pop\n        /* \"Solidity_BD2/casaApuestas.sol\":4116:4117  _ */\n      pop\n        /* \"Solidity_BD2/casaApuestas.sol\":2644:2645  _ */\n      pop\n      pop\n      pop\n      pop\n        /* \"Solidity_BD2/casaApuestas.sol\":2475:2476  _ */\n      pop\n        /* \"Solidity_BD2/casaApuestas.sol\":1850:1851  _ */\n      pop\n        /* \"Solidity_BD2/casaApuestas.sol\":1585:1586  _ */\n      pop\n      pop\n        /* \"Solidity_BD2/casaApuestas.sol\":5388:6608  function apostar(uint _codCaballo, uint _codCarrera) payable public \r... */\n      pop\n      pop\n      jump\t// out\n        /* \"Solidity_BD2/casaApuestas.sol\":5135:5380  function registrarCarrera(uint _codCarrera) public \r... */\n    tag_96:\n        /* \"Solidity_BD2/casaApuestas.sol\":1317:1326  anfitrion */\n      0x00\n      dup1\n      swap1\n      sload\n      swap1\n      0x0100\n      exp\n      swap1\n      div\n      0xffffffffffffffffffffffffffffffffffffffff\n      and\n        /* \"Solidity_BD2/casaApuestas.sol\":1303:1326  msg.sender == anfitrion */\n      0xffffffffffffffffffffffffffffffffffffffff\n      and\n        /* \"Solidity_BD2/casaApuestas.sol\":1303:1313  msg.sender */\n      caller\n        /* \"Solidity_BD2/casaApuestas.sol\":1303:1326  msg.sender == anfitrion */\n      0xffffffffffffffffffffffffffffffffffffffff\n      and\n      eq\n        /* \"Solidity_BD2/casaApuestas.sol\":1295:1365  require(msg.sender == anfitrion, \"El invocador debe ser el anfitrion\") */\n      tag_303\n      jumpi\n      mload(0x40)\n      0x08c379a000000000000000000000000000000000000000000000000000000000\n      dup2\n      mstore\n      0x04\n      add\n      dup1\n      dup1\n      0x20\n      add\n      dup3\n      dup2\n      sub\n      dup3\n      mstore\n      0x22\n      dup2\n      mstore\n      0x20\n      add\n      dup1\n      data_445dd79b894b98a34a1cc7c38a5bd2de2e19478d6390b1e445457362fd7001d8\n      0x22\n      swap2\n      codecopy\n      0x40\n      add\n      swap2\n      pop\n      pop\n      mload(0x40)\n      dup1\n      swap2\n      sub\n      swap1\n      revert\n    tag_303:\n        /* \"Solidity_BD2/casaApuestas.sol\":5219:5230  _codCarrera */\n      dup1\n        /* \"Solidity_BD2/casaApuestas.sol\":5232:5245  Estado.Creada */\n      0x00\n        /* \"Solidity_BD2/casaApuestas.sol\":1783:1790  _estado */\n      dup1\n        /* \"Solidity_BD2/casaApuestas.sol\":1744:1790  carreras[_codCarrera].estadoCarrera == _estado */\n      0x02\n      dup2\n      gt\n      iszero\n      tag_305\n      jumpi\n      invalid\n    tag_305:\n        /* \"Solidity_BD2/casaApuestas.sol\":1744:1752  carreras */\n      0x02\n        /* \"Solidity_BD2/casaApuestas.sol\":1744:1765  carreras[_codCarrera] */\n      0x00\n        /* \"Solidity_BD2/casaApuestas.sol\":1753:1764  _codCarrera */\n      dup5\n        /* \"Solidity_BD2/casaApuestas.sol\":1744:1765  carreras[_codCarrera] */\n      dup2\n      mstore\n      0x20\n      add\n      swap1\n      dup2\n      mstore\n      0x20\n      add\n      0x00\n      keccak256\n        /* \"Solidity_BD2/casaApuestas.sol\":1744:1779  carreras[_codCarrera].estadoCarrera */\n      0x02\n      add\n      0x00\n      swap1\n      sload\n      swap1\n      0x0100\n      exp\n      swap1\n      div\n      0xff\n      and\n        /* \"Solidity_BD2/casaApuestas.sol\":1744:1790  carreras[_codCarrera].estadoCarrera == _estado */\n      0x02\n      dup2\n      gt\n      iszero\n      tag_306\n      jumpi\n      invalid\n    tag_306:\n      eq\n        /* \"Solidity_BD2/casaApuestas.sol\":1736:1839  require(carreras[_codCarrera].estadoCarrera == _estado, \"La carrera no cumple con el estado requerido\") */\n      tag_307\n      jumpi\n      mload(0x40)\n      0x08c379a000000000000000000000000000000000000000000000000000000000\n      dup2\n      mstore\n      0x04\n      add\n      dup1\n      dup1\n      0x20\n      add\n      dup3\n      dup2\n      sub\n      dup3\n      mstore\n      0x2c\n      dup2\n      mstore\n      0x20\n      add\n      dup1\n      data_e91ca438e9e3f1e0e0a5b1a72a508ed5ae254b3cb59572817ac1ec6e2a488952\n      0x2c\n      swap2\n      codecopy\n      0x40\n      add\n      swap2\n      pop\n      pop\n      mload(0x40)\n      dup1\n      swap2\n      sub\n      swap1\n      revert\n    tag_307:\n        /* \"Solidity_BD2/casaApuestas.sol\":5266:5277  _codCarrera */\n      dup3\n        /* \"Solidity_BD2/casaApuestas.sol\":2597:2598  0 */\n      0x00\n        /* \"Solidity_BD2/casaApuestas.sol\":2557:2565  carreras */\n      0x02\n        /* \"Solidity_BD2/casaApuestas.sol\":2557:2578  carreras[_codCarrera] */\n      0x00\n        /* \"Solidity_BD2/casaApuestas.sol\":2566:2577  _codCarrera */\n      dup4\n        /* \"Solidity_BD2/casaApuestas.sol\":2557:2578  carreras[_codCarrera] */\n      dup2\n      mstore\n      0x20\n      add\n      swap1\n      dup2\n      mstore\n      0x20\n      add\n      0x00\n      keccak256\n        /* \"Solidity_BD2/casaApuestas.sol\":2557:2585  carreras[_codCarrera].nombre */\n      0x01\n      add\n        /* \"Solidity_BD2/casaApuestas.sol\":2551:2593  bytes(carreras[_codCarrera].nombre).length */\n      dup1\n      sload\n      0x01\n      dup2\n      0x01\n      and\n      iszero\n      0x0100\n      mul\n      sub\n      and\n      0x02\n      swap1\n      div\n      swap1\n      pop\n        /* \"Solidity_BD2/casaApuestas.sol\":2551:2598  bytes(carreras[_codCarrera].nombre).length != 0 */\n      eq\n      iszero\n        /* \"Solidity_BD2/casaApuestas.sol\":2543:2633  require(bytes(carreras[_codCarrera].nombre).length != 0, \"La carrera ingresada no existe\") */\n      tag_309\n      jumpi\n      mload(0x40)\n      0x08c379a000000000000000000000000000000000000000000000000000000000\n      dup2\n      mstore\n      0x04\n      add\n      dup1\n      dup1\n      0x20\n      add\n      dup3\n      dup2\n      sub\n      dup3\n      mstore\n      0x1e\n      dup2\n      mstore\n      0x20\n      add\n      dup1\n      0x4c61206361727265726120696e67726573616461206e6f206578697374650000\n      dup2\n      mstore\n      pop\n      0x20\n      add\n      swap2\n      pop\n      pop\n      mload(0x40)\n      dup1\n      swap2\n      sub\n      swap1\n      revert\n    tag_309:\n        /* \"Solidity_BD2/casaApuestas.sol\":5294:5305  _codCarrera */\n      dup4\n        /* \"Solidity_BD2/casaApuestas.sol\":2243:2244  2 */\n      0x02\n        /* \"Solidity_BD2/casaApuestas.sol\":2207:2219  competencias */\n      0x04\n        /* \"Solidity_BD2/casaApuestas.sol\":2207:2232  competencias[_codCarrera] */\n      0x00\n        /* \"Solidity_BD2/casaApuestas.sol\":2220:2231  _codCarrera */\n      dup4\n        /* \"Solidity_BD2/casaApuestas.sol\":2207:2232  competencias[_codCarrera] */\n      dup2\n      mstore\n      0x20\n      add\n      swap1\n      dup2\n      mstore\n      0x20\n      add\n      0x00\n      keccak256\n        /* \"Solidity_BD2/casaApuestas.sol\":2207:2239  competencias[_codCarrera].length */\n      dup1\n      sload\n      swap1\n      pop\n        /* \"Solidity_BD2/casaApuestas.sol\":2207:2244  competencias[_codCarrera].length >= 2 */\n      lt\n      iszero\n        /* \"Solidity_BD2/casaApuestas.sol\":2199:2295  require(competencias[_codCarrera].length >= 2, \"La carrera debe contar con al menos 2 caballos\") */\n      tag_311\n      jumpi\n      mload(0x40)\n      0x08c379a000000000000000000000000000000000000000000000000000000000\n      dup2\n      mstore\n      0x04\n      add\n      dup1\n      dup1\n      0x20\n      add\n      dup3\n      dup2\n      sub\n      dup3\n      mstore\n      0x2e\n      dup2\n      mstore\n      0x20\n      add\n      dup1\n      data_234e92a03eef93e773d3f62d6519fa001994567a49c6e3053a36d351ec2424b1\n      0x2e\n      swap2\n      codecopy\n      0x40\n      add\n      swap2\n      pop\n      pop\n      mload(0x40)\n      dup1\n      swap2\n      sub\n      swap1\n      revert\n    tag_311:\n        /* \"Solidity_BD2/casaApuestas.sol\":5355:5372  Estado.Registrada */\n      0x01\n        /* \"Solidity_BD2/casaApuestas.sol\":5317:5325  carreras */\n      0x02\n        /* \"Solidity_BD2/casaApuestas.sol\":5317:5338  carreras[_codCarrera] */\n      0x00\n        /* \"Solidity_BD2/casaApuestas.sol\":5326:5337  _codCarrera */\n      dup8\n        /* \"Solidity_BD2/casaApuestas.sol\":5317:5338  carreras[_codCarrera] */\n      dup2\n      mstore\n      0x20\n      add\n      swap1\n      dup2\n      mstore\n      0x20\n      add\n      0x00\n      keccak256\n        /* \"Solidity_BD2/casaApuestas.sol\":5317:5352  carreras[_codCarrera].estadoCarrera */\n      0x02\n      add\n      0x00\n        /* \"Solidity_BD2/casaApuestas.sol\":5317:5372  carreras[_codCarrera].estadoCarrera = Estado.Registrada */\n      0x0100\n      exp\n      dup2\n      sload\n      dup2\n      0xff\n      mul\n      not\n      and\n      swap1\n      dup4\n      0x02\n      dup2\n      gt\n      iszero\n      tag_313\n      jumpi\n      invalid\n    tag_313:\n      mul\n      or\n      swap1\n      sstore\n      pop\n        /* \"Solidity_BD2/casaApuestas.sol\":2644:2645  _ */\n      pop\n        /* \"Solidity_BD2/casaApuestas.sol\":1850:1851  _ */\n      pop\n        /* \"Solidity_BD2/casaApuestas.sol\":1376:1377  _ */\n      pop\n      pop\n        /* \"Solidity_BD2/casaApuestas.sol\":5135:5380  function registrarCarrera(uint _codCarrera) public \r... */\n      pop\n      jump\t// out\n        /* \"Solidity_BD2/casaApuestas.sol\":4273:4503  function crearCarrera(uint _codigo, string memory _nombre) public \r... */\n    tag_103:\n        /* \"Solidity_BD2/casaApuestas.sol\":1317:1326  anfitrion */\n      0x00\n      dup1\n      swap1\n      sload\n      swap1\n      0x0100\n      exp\n      swap1\n      div\n      0xffffffffffffffffffffffffffffffffffffffff\n      and\n        /* \"Solidity_BD2/casaApuestas.sol\":1303:1326  msg.sender == anfitrion */\n      0xffffffffffffffffffffffffffffffffffffffff\n      and\n        /* \"Solidity_BD2/casaApuestas.sol\":1303:1313  msg.sender */\n      caller\n        /* \"Solidity_BD2/casaApuestas.sol\":1303:1326  msg.sender == anfitrion */\n      0xffffffffffffffffffffffffffffffffffffffff\n      and\n      eq\n        /* \"Solidity_BD2/casaApuestas.sol\":1295:1365  require(msg.sender == anfitrion, \"El invocador debe ser el anfitrion\") */\n      tag_315\n      jumpi\n      mload(0x40)\n      0x08c379a000000000000000000000000000000000000000000000000000000000\n      dup2\n      mstore\n      0x04\n      add\n      dup1\n      dup1\n      0x20\n      add\n      dup3\n      dup2\n      sub\n      dup3\n      mstore\n      0x22\n      dup2\n      mstore\n      0x20\n      add\n      dup1\n      data_445dd79b894b98a34a1cc7c38a5bd2de2e19478d6390b1e445457362fd7001d8\n      0x22\n      swap2\n      codecopy\n      0x40\n      add\n      swap2\n      pop\n      pop\n      mload(0x40)\n      dup1\n      swap2\n      sub\n      swap1\n      revert\n    tag_315:\n        /* \"Solidity_BD2/casaApuestas.sol\":4378:4385  _codigo */\n      dup2\n        /* \"Solidity_BD2/casaApuestas.sol\":2946:2947  0 */\n      0x00\n        /* \"Solidity_BD2/casaApuestas.sol\":2906:2914  carreras */\n      0x02\n        /* \"Solidity_BD2/casaApuestas.sol\":2906:2927  carreras[_codCarrera] */\n      0x00\n        /* \"Solidity_BD2/casaApuestas.sol\":2915:2926  _codCarrera */\n      dup4\n        /* \"Solidity_BD2/casaApuestas.sol\":2906:2927  carreras[_codCarrera] */\n      dup2\n      mstore\n      0x20\n      add\n      swap1\n      dup2\n      mstore\n      0x20\n      add\n      0x00\n      keccak256\n        /* \"Solidity_BD2/casaApuestas.sol\":2906:2934  carreras[_codCarrera].nombre */\n      0x01\n      add\n        /* \"Solidity_BD2/casaApuestas.sol\":2900:2942  bytes(carreras[_codCarrera].nombre).length */\n      dup1\n      sload\n      0x01\n      dup2\n      0x01\n      and\n      iszero\n      0x0100\n      mul\n      sub\n      and\n      0x02\n      swap1\n      div\n      swap1\n      pop\n        /* \"Solidity_BD2/casaApuestas.sol\":2900:2947  bytes(carreras[_codCarrera].nombre).length == 0 */\n      eq\n        /* \"Solidity_BD2/casaApuestas.sol\":2892:2990  require(bytes(carreras[_codCarrera].nombre).length == 0, \"Ya existe una carrera con este código\") */\n      tag_317\n      jumpi\n      mload(0x40)\n      0x08c379a000000000000000000000000000000000000000000000000000000000\n      dup2\n      mstore\n      0x04\n      add\n      dup1\n      dup1\n      0x20\n      add\n      dup3\n      dup2\n      sub\n      dup3\n      mstore\n      0x26\n      dup2\n      mstore\n      0x20\n      add\n      dup1\n      data_22029fc9bd0e2ef2cc87547f1b8c198f7797b26c5004a179120be0b5f25949fe\n      0x26\n      swap2\n      codecopy\n      0x40\n      add\n      swap2\n      pop\n      pop\n      mload(0x40)\n      dup1\n      swap2\n      sub\n      swap1\n      revert\n    tag_317:\n        /* \"Solidity_BD2/casaApuestas.sol\":4417:4466  Carrera(_codigo, _nombre, Estado.Creada, 0, 0, 0) */\n      mload(0x40)\n      dup1\n      0xc0\n      add\n      0x40\n      mstore\n      dup1\n        /* \"Solidity_BD2/casaApuestas.sol\":4425:4432  _codigo */\n      dup5\n        /* \"Solidity_BD2/casaApuestas.sol\":4417:4466  Carrera(_codigo, _nombre, Estado.Creada, 0, 0, 0) */\n      dup2\n      mstore\n      0x20\n      add\n        /* \"Solidity_BD2/casaApuestas.sol\":4434:4441  _nombre */\n      dup4\n        /* \"Solidity_BD2/casaApuestas.sol\":4417:4466  Carrera(_codigo, _nombre, Estado.Creada, 0, 0, 0) */\n      dup2\n      mstore\n      0x20\n      add\n        /* \"Solidity_BD2/casaApuestas.sol\":4443:4456  Estado.Creada */\n      0x00\n        /* \"Solidity_BD2/casaApuestas.sol\":4417:4466  Carrera(_codigo, _nombre, Estado.Creada, 0, 0, 0) */\n      0x02\n      dup2\n      gt\n      iszero\n      tag_319\n      jumpi\n      invalid\n    tag_319:\n      dup2\n      mstore\n      0x20\n      add\n        /* \"Solidity_BD2/casaApuestas.sol\":4458:4459  0 */\n      0x00\n        /* \"Solidity_BD2/casaApuestas.sol\":4417:4466  Carrera(_codigo, _nombre, Estado.Creada, 0, 0, 0) */\n      dup2\n      mstore\n      0x20\n      add\n        /* \"Solidity_BD2/casaApuestas.sol\":4461:4462  0 */\n      0x00\n        /* \"Solidity_BD2/casaApuestas.sol\":4417:4466  Carrera(_codigo, _nombre, Estado.Creada, 0, 0, 0) */\n      dup2\n      mstore\n      0x20\n      add\n        /* \"Solidity_BD2/casaApuestas.sol\":4464:4465  0 */\n      0x00\n        /* \"Solidity_BD2/casaApuestas.sol\":4417:4466  Carrera(_codigo, _nombre, Estado.Creada, 0, 0, 0) */\n      dup2\n      mstore\n      pop\n        /* \"Solidity_BD2/casaApuestas.sol\":4397:4405  carreras */\n      0x02\n        /* \"Solidity_BD2/casaApuestas.sol\":4397:4414  carreras[_codigo] */\n      0x00\n        /* \"Solidity_BD2/casaApuestas.sol\":4406:4413  _codigo */\n      dup6\n        /* \"Solidity_BD2/casaApuestas.sol\":4397:4414  carreras[_codigo] */\n      dup2\n      mstore\n      0x20\n      add\n      swap1\n      dup2\n      mstore\n      0x20\n      add\n      0x00\n      keccak256\n        /* \"Solidity_BD2/casaApuestas.sol\":4397:4466  carreras[_codigo] = Carrera(_codigo, _nombre, Estado.Creada, 0, 0, 0) */\n      0x00\n      dup3\n      add\n      mload\n      dup2\n      0x00\n      add\n      sstore\n      0x20\n      dup3\n      add\n      mload\n      dup2\n      0x01\n      add\n      swap1\n      dup1\n      mload\n      swap1\n      0x20\n      add\n      swap1\n      tag_320\n      swap3\n      swap2\n      swap1\n      tag_258\n      jump\t// in\n    tag_320:\n      pop\n      0x40\n      dup3\n      add\n      mload\n      dup2\n      0x02\n      add\n      exp(0x0100, 0x00)\n      dup2\n      sload\n      dup2\n      0xff\n      mul\n      not\n      and\n      swap1\n      dup4\n      0x02\n      dup2\n      gt\n      iszero\n      tag_321\n      jumpi\n      invalid\n    tag_321:\n      mul\n      or\n      swap1\n      sstore\n      pop\n      0x60\n      dup3\n      add\n      mload\n      dup2\n      0x03\n      add\n      sstore\n      0x80\n      dup3\n      add\n      mload\n      dup2\n      0x04\n      add\n      sstore\n      0xa0\n      dup3\n      add\n      mload\n      dup2\n      0x05\n      add\n      sstore\n      swap1\n      pop\n      pop\n        /* \"Solidity_BD2/casaApuestas.sol\":4494:4495  1 */\n      0x01\n        /* \"Solidity_BD2/casaApuestas.sol\":4477:4490  totalCarreras */\n      dup1\n      0x00\n        /* \"Solidity_BD2/casaApuestas.sol\":4477:4495  totalCarreras += 1 */\n      dup3\n      dup3\n      sload\n      add\n      swap3\n      pop\n      pop\n      dup2\n      swap1\n      sstore\n      pop\n        /* \"Solidity_BD2/casaApuestas.sol\":1376:1377  _ */\n      pop\n        /* \"Solidity_BD2/casaApuestas.sol\":4273:4503  function crearCarrera(uint _codigo, string memory _nombre) public \r... */\n      pop\n      pop\n      jump\t// out\n        /* \"Solidity_BD2/casaApuestas.sol\":338:381  mapping(uint => uint[]) public competencias */\n    tag_107:\n      mstore(0x20, 0x04)\n      dup2\n      0x00\n      mstore\n      keccak256(0x00, 0x40)\n      dup2\n      dup2\n      sload\n      dup2\n      lt\n      tag_322\n      jumpi\n      invalid\n    tag_322:\n      swap1\n      0x00\n      mstore\n      keccak256(0x00, 0x20)\n      add\n      0x00\n      swap2\n      pop\n      swap2\n      pop\n      pop\n      sload\n      dup2\n      jump\t// out\n        /* \"Solidity_BD2/casaApuestas.sol\":6616:6859  function generarAleatorio(uint modulo) internal returns(uint){\r... */\n    tag_118:\n        /* \"Solidity_BD2/casaApuestas.sol\":6672:6676  uint */\n      0x00\n        /* \"Solidity_BD2/casaApuestas.sol\":6688:6702  uint randNonce */\n      dup1\n        /* \"Solidity_BD2/casaApuestas.sol\":6705:6706  0 */\n      0x00\n        /* \"Solidity_BD2/casaApuestas.sol\":6688:6706  uint randNonce = 0 */\n      swap1\n      pop\n        /* \"Solidity_BD2/casaApuestas.sol\":6717:6729  randNonce ++ */\n      dup1\n      dup1\n      0x01\n      add\n      swap2\n      pop\n      pop\n        /* \"Solidity_BD2/casaApuestas.sol\":6741:6752  uint numero */\n      0x00\n        /* \"Solidity_BD2/casaApuestas.sol\":6819:6825  modulo */\n      dup4\n        /* \"Solidity_BD2/casaApuestas.sol\":6787:6790  now */\n      timestamp\n        /* \"Solidity_BD2/casaApuestas.sol\":6792:6802  msg.sender */\n      caller\n        /* \"Solidity_BD2/casaApuestas.sol\":6804:6813  randNonce */\n      dup5\n        /* \"Solidity_BD2/casaApuestas.sol\":6770:6814  abi.encodePacked(now, msg.sender, randNonce) */\n      add(0x20, mload(0x40))\n      dup1\n      dup5\n      dup2\n      mstore\n      0x20\n      add\n      dup4\n      0xffffffffffffffffffffffffffffffffffffffff\n      and\n      0xffffffffffffffffffffffffffffffffffffffff\n      and\n      0x60\n      shl\n      dup2\n      mstore\n      0x14\n      add\n      dup3\n      dup2\n      mstore\n      0x20\n      add\n      swap4\n      pop\n      pop\n      pop\n      pop\n      mload(0x40)\n        /* \"--CODEGEN--\":49:53   */\n      0x20\n        /* \"--CODEGEN--\":39:46   */\n      dup2\n        /* \"--CODEGEN--\":30:37   */\n      dup4\n        /* \"--CODEGEN--\":26:47   */\n      sub\n        /* \"--CODEGEN--\":22:54   */\n      sub\n        /* \"--CODEGEN--\":13:20   */\n      dup2\n        /* \"--CODEGEN--\":6:55   */\n      mstore\n        /* \"Solidity_BD2/casaApuestas.sol\":6770:6814  abi.encodePacked(now, msg.sender, randNonce) */\n      swap1\n      0x40\n      mstore\n        /* \"Solidity_BD2/casaApuestas.sol\":6760:6815  keccak256(abi.encodePacked(now, msg.sender, randNonce)) */\n      dup1\n      mload\n      swap1\n      0x20\n      add\n      keccak256\n        /* \"Solidity_BD2/casaApuestas.sol\":6755:6816  uint(keccak256(abi.encodePacked(now, msg.sender, randNonce))) */\n      0x00\n      shr\n        /* \"Solidity_BD2/casaApuestas.sol\":6755:6825  uint(keccak256(abi.encodePacked(now, msg.sender, randNonce))) % modulo */\n      dup2\n      tag_325\n      jumpi\n      invalid\n    tag_325:\n      mod\n        /* \"Solidity_BD2/casaApuestas.sol\":6741:6825  uint numero = uint(keccak256(abi.encodePacked(now, msg.sender, randNonce))) % modulo */\n      swap1\n      pop\n        /* \"Solidity_BD2/casaApuestas.sol\":6844:6850  numero */\n      dup1\n        /* \"Solidity_BD2/casaApuestas.sol\":6836:6851  return (numero) */\n      swap3\n      pop\n      pop\n      pop\n        /* \"Solidity_BD2/casaApuestas.sol\":6616:6859  function generarAleatorio(uint modulo) internal returns(uint){\r... */\n      swap2\n      swap1\n      pop\n      jump\t// out\n        /* \"Solidity_BD2/casaApuestas.sol\":11825:12307  function uint2str(uint _i) internal pure returns (string memory _uintAsString) {\r... */\n    tag_156:\n        /* \"Solidity_BD2/casaApuestas.sol\":11875:11902  string memory _uintAsString */\n      0x60\n        /* \"Solidity_BD2/casaApuestas.sol\":11925:11926  0 */\n      0x00\n        /* \"Solidity_BD2/casaApuestas.sol\":11919:11921  _i */\n      dup3\n        /* \"Solidity_BD2/casaApuestas.sol\":11919:11926  _i == 0 */\n      eq\n        /* \"Solidity_BD2/casaApuestas.sol\":11915:11965  if (_i == 0) {\r... */\n      iszero\n      tag_327\n      jumpi\n        /* \"Solidity_BD2/casaApuestas.sol\":11943:11953  return \"0\" */\n      mload(0x40)\n      dup1\n      0x40\n      add\n      0x40\n      mstore\n      dup1\n      0x01\n      dup2\n      mstore\n      0x20\n      add\n      0x3000000000000000000000000000000000000000000000000000000000000000\n      dup2\n      mstore\n      pop\n      swap1\n      pop\n      jump(tag_326)\n        /* \"Solidity_BD2/casaApuestas.sol\":11915:11965  if (_i == 0) {\r... */\n    tag_327:\n        /* \"Solidity_BD2/casaApuestas.sol\":11975:11981  uint j */\n      0x00\n        /* \"Solidity_BD2/casaApuestas.sol\":11984:11986  _i */\n      dup3\n        /* \"Solidity_BD2/casaApuestas.sol\":11975:11986  uint j = _i */\n      swap1\n      pop\n        /* \"Solidity_BD2/casaApuestas.sol\":11997:12005  uint len */\n      0x00\n        /* \"Solidity_BD2/casaApuestas.sol\":12016:12085  while (j != 0) {\r... */\n    tag_328:\n        /* \"Solidity_BD2/casaApuestas.sol\":12028:12029  0 */\n      0x00\n        /* \"Solidity_BD2/casaApuestas.sol\":12023:12024  j */\n      dup3\n        /* \"Solidity_BD2/casaApuestas.sol\":12023:12029  j != 0 */\n      eq\n        /* \"Solidity_BD2/casaApuestas.sol\":12016:12085  while (j != 0) {\r... */\n      tag_329\n      jumpi\n        /* \"Solidity_BD2/casaApuestas.sol\":12046:12051  len++ */\n      dup1\n      dup1\n      0x01\n      add\n      swap2\n      pop\n      pop\n        /* \"Solidity_BD2/casaApuestas.sol\":12071:12073  10 */\n      0x0a\n        /* \"Solidity_BD2/casaApuestas.sol\":12066:12073  j /= 10 */\n      dup3\n      dup2\n      tag_330\n      jumpi\n      invalid\n    tag_330:\n      div\n      swap2\n      pop\n        /* \"Solidity_BD2/casaApuestas.sol\":12016:12085  while (j != 0) {\r... */\n      jump(tag_328)\n    tag_329:\n        /* \"Solidity_BD2/casaApuestas.sol\":12095:12112  bytes memory bstr */\n      0x60\n        /* \"Solidity_BD2/casaApuestas.sol\":12125:12128  len */\n      dup2\n        /* \"Solidity_BD2/casaApuestas.sol\":12115:12129  new bytes(len) */\n      mload(0x40)\n      swap1\n      dup1\n      dup3\n      mstore\n      dup1\n      0x1f\n      add\n      not(0x1f)\n      and\n      0x20\n      add\n      dup3\n      add\n      0x40\n      mstore\n      dup1\n      iszero\n      tag_331\n      jumpi\n      dup2\n      0x20\n      add\n        /* \"--CODEGEN--\":29:30   */\n      0x01\n        /* \"--CODEGEN--\":21:27   */\n      dup3\n        /* \"--CODEGEN--\":17:31   */\n      mul\n        /* \"--CODEGEN--\":116:120   */\n      dup1\n        /* \"--CODEGEN--\":104:114   */\n      codesize\n        /* \"--CODEGEN--\":96:102   */\n      dup4\n        /* \"--CODEGEN--\":87:121   */\n      codecopy\n        /* \"--CODEGEN--\":147:151   */\n      dup1\n        /* \"--CODEGEN--\":139:145   */\n      dup3\n        /* \"--CODEGEN--\":135:152   */\n      add\n        /* \"--CODEGEN--\":125:152   */\n      swap2\n      pop\n        /* \"--CODEGEN--\":0:156   */\n      pop\n        /* \"Solidity_BD2/casaApuestas.sol\":12115:12129  new bytes(len) */\n      swap1\n      pop\n    tag_331:\n      pop\n        /* \"Solidity_BD2/casaApuestas.sol\":12095:12129  bytes memory bstr = new bytes(len) */\n      swap1\n      pop\n        /* \"Solidity_BD2/casaApuestas.sol\":12140:12146  uint k */\n      0x00\n        /* \"Solidity_BD2/casaApuestas.sol\":12155:12156  1 */\n      0x01\n        /* \"Solidity_BD2/casaApuestas.sol\":12149:12152  len */\n      dup4\n        /* \"Solidity_BD2/casaApuestas.sol\":12149:12156  len - 1 */\n      sub\n        /* \"Solidity_BD2/casaApuestas.sol\":12140:12156  uint k = len - 1 */\n      swap1\n      pop\n        /* \"Solidity_BD2/casaApuestas.sol\":12167:12270  while (_i != 0) {\r... */\n    tag_332:\n        /* \"Solidity_BD2/casaApuestas.sol\":12180:12181  0 */\n      0x00\n        /* \"Solidity_BD2/casaApuestas.sol\":12174:12176  _i */\n      dup7\n        /* \"Solidity_BD2/casaApuestas.sol\":12174:12181  _i != 0 */\n      eq\n        /* \"Solidity_BD2/casaApuestas.sol\":12167:12270  while (_i != 0) {\r... */\n      tag_333\n      jumpi\n        /* \"Solidity_BD2/casaApuestas.sol\":12231:12233  10 */\n      0x0a\n        /* \"Solidity_BD2/casaApuestas.sol\":12226:12228  _i */\n      dup7\n        /* \"Solidity_BD2/casaApuestas.sol\":12226:12233  _i % 10 */\n      dup2\n      tag_334\n      jumpi\n      invalid\n    tag_334:\n      mod\n        /* \"Solidity_BD2/casaApuestas.sol\":12221:12223  48 */\n      0x30\n        /* \"Solidity_BD2/casaApuestas.sol\":12221:12233  48 + _i % 10 */\n      add\n        /* \"Solidity_BD2/casaApuestas.sol\":12210:12235  byte(uint8(48 + _i % 10)) */\n      0xf8\n      shl\n        /* \"Solidity_BD2/casaApuestas.sol\":12198:12202  bstr */\n      dup3\n        /* \"Solidity_BD2/casaApuestas.sol\":12203:12206  k-- */\n      dup3\n      dup1\n      0x01\n      swap1\n      sub\n      swap4\n      pop\n        /* \"Solidity_BD2/casaApuestas.sol\":12198:12207  bstr[k--] */\n      dup2\n      mload\n      dup2\n      lt\n      tag_335\n      jumpi\n      invalid\n    tag_335:\n      0x20\n      add\n      add\n        /* \"Solidity_BD2/casaApuestas.sol\":12198:12235  bstr[k--] = byte(uint8(48 + _i % 10)) */\n      swap1\n      not(0xffffffffffffffffffffffffffffffffffffffffffffffffffffffffffffff)\n      and\n      swap1\n      dup2\n      0x00\n      byte\n      swap1\n      mstore8\n      pop\n        /* \"Solidity_BD2/casaApuestas.sol\":12256:12258  10 */\n      0x0a\n        /* \"Solidity_BD2/casaApuestas.sol\":12250:12258  _i /= 10 */\n      dup7\n      dup2\n      tag_336\n      jumpi\n      invalid\n    tag_336:\n      div\n      swap6\n      pop\n        /* \"Solidity_BD2/casaApuestas.sol\":12167:12270  while (_i != 0) {\r... */\n      jump(tag_332)\n    tag_333:\n        /* \"Solidity_BD2/casaApuestas.sol\":12294:12298  bstr */\n      dup2\n        /* \"Solidity_BD2/casaApuestas.sol\":12280:12299  return string(bstr) */\n      swap5\n      pop\n      pop\n      pop\n      pop\n      pop\n        /* \"Solidity_BD2/casaApuestas.sol\":11825:12307  function uint2str(uint _i) internal pure returns (string memory _uintAsString) {\r... */\n    tag_326:\n      swap2\n      swap1\n      pop\n      jump\t// out\n        /* \"Solidity_BD2/casaApuestas.sol\":27:12312  contract casaApuestas{\r... */\n    tag_258:\n      dup3\n      dup1\n      sload\n      0x01\n      dup2\n      0x01\n      and\n      iszero\n      0x0100\n      mul\n      sub\n      and\n      0x02\n      swap1\n      div\n      swap1\n      0x00\n      mstore\n      keccak256(0x00, 0x20)\n      swap1\n      0x1f\n      add\n      0x20\n      swap1\n      div\n      dup2\n      add\n      swap3\n      dup3\n      0x1f\n      lt\n      tag_338\n      jumpi\n      dup1\n      mload\n      not(0xff)\n      and\n      dup4\n      dup1\n      add\n      or\n      dup6\n      sstore\n      jump(tag_337)\n    tag_338:\n      dup3\n      dup1\n      add\n      0x01\n      add\n      dup6\n      sstore\n      dup3\n      iszero\n      tag_337\n      jumpi\n      swap2\n      dup3\n      add\n    tag_339:\n      dup3\n      dup2\n      gt\n      iszero\n      tag_340\n      jumpi\n      dup3\n      mload\n      dup3\n      sstore\n      swap2\n      0x20\n      add\n      swap2\n      swap1\n      0x01\n      add\n      swap1\n      jump(tag_339)\n    tag_340:\n    tag_337:\n      pop\n      swap1\n      pop\n      tag_341\n      swap2\n      swap1\n      tag_342\n      jump\t// in\n    tag_341:\n      pop\n      swap1\n      jump\t// out\n    tag_342:\n      tag_343\n      swap2\n      swap1\n    tag_344:\n      dup1\n      dup3\n      gt\n      iszero\n      tag_345\n      jumpi\n      0x00\n      dup2\n      0x00\n      swap1\n      sstore\n      pop\n      0x01\n      add\n      jump(tag_344)\n    tag_345:\n      pop\n      swap1\n      jump\n    tag_343:\n      swap1\n      jump\t// out\n    stop\n    data_015e2967b1a324c495f3905ebc30437189d94d81ee000a6adba682a4697a35b6 536f6c6f2073652070756564652061706f7374617220706f7220756e20636162616c6c6f2064656e74726f20646520657374612063617272657261\n    data_22029fc9bd0e2ef2cc87547f1b8c198f7797b26c5004a179120be0b5f25949fe 59612065786973746520756e61206361727265726120636f6e20657374652063c3b36469676f\n    data_234e92a03eef93e773d3f62d6519fa001994567a49c6e3053a36d351ec2424b1 4c612063617272657261206465626520636f6e74617220636f6e20616c206d656e6f73203220636162616c6c6f73\n    data_445dd79b894b98a34a1cc7c38a5bd2de2e19478d6390b1e445457362fd7001d8 456c20696e766f6361646f7220646562652073657220656c20616e66697472696f6e\n    data_48cf4ac7fcb22fd30a2178e5656f2b40afd30f2764f5b3cd17a43f9dd083aee5 4c612063617272657261207961206375656e746120636f6e203520636162616c6c6f73\n    data_68cf97aa6bcebf4d7421b6bca309a0adc441ed0fc23124d3a38219dec5dbd40b 4c61206361727265726120696e67726573616461206e6f207469656e6520636162616c6c6f73\n    data_6f447a6923745e6be6f901d62f9112c38aa63e63c11e0640be511470a9c26a07 456c206d6f6e746f206465206c612061707565737461206465626520736572206d61796f7220612030\n    data_961fcad8d1437fb7fcd32c3c0cb1abc4a020f237cc5c3c4ecf402a363363c4fd 4573746520636162616c6c6f206e6f20736520656e6375656e747261207265676973747261646f20656e20657374612063617272657261\n    data_c258d99636b674a8c760b7677c129033d423282c7394402c18f597a1eab563a1 456c20696e766f6361646f7220646562652073657220756e207573756172696f206469666572656e746520616c20616e66697472696f6e\n    data_d6db3988662478777908c1e662b2ec848309dbbd995b7b6deab44e369aa15534 59612065786973746520756e20636162616c6c6f20636f6e20657374652063c3b36469676f\n    data_dd2593dc49389a3dc12e11d6acb11a1c405e488c123ae730810838cacb526339 4573746520636162616c6c6f20796120736520656e6375656e747261207265676973747261646f20656e20657374612063617272657261\n    data_e91ca438e9e3f1e0e0a5b1a72a508ed5ae254b3cb59572817ac1ec6e2a488952 4c612063617272657261206e6f2063756d706c6520636f6e20656c2065737461646f2072657175657269646f\n\n    auxdata: 0xa2646970667358221220c2cd760273798702129e3e341838eb1adbd203157055502c45f53af8bdb9806a64736f6c63430006000033\n}\n",
				"bytecode": {
					"linkReferences": {},
					"object": "608060405234801561001057600080fd5b50336000806101000a81548173ffffffffffffffffffffffffffffffffffffffff021916908373ffffffffffffffffffffffffffffffffffffffff160217905550613515806100606000396000f3fe6080604052600436106100f35760003560e01c8063dfe22b5f1161008a578063f2f6da3e11610059578063f2f6da3e1461074f578063f7edd6db14610787578063f9d32e49146107c2578063fb34d0f714610894576100f3565b8063dfe22b5f14610530578063e6581b9d146105b5578063e9ec558314610669578063f0b73b5414610694576100f3565b8063456f4b57116100c6578063456f4b57146102d35780635194f59c1461032a5780635ee81666146103fc57806379b31e69146104e1576100f3565b8063010a0e95146100f85780631b895c2f1461012657806326d1c7d0146101da578063286f6b4c1461021f575b600080fd5b6101246004803603602081101561010e57600080fd5b81019080803590602001909291905050506108ed565b005b34801561013257600080fd5b5061015f6004803603602081101561014957600080fd5b8101908080359060200190929190505050611159565b6040518080602001828103825283818151815260200191508051906020019080838360005b8381101561019f578082015181840152602081019050610184565b50505050905090810190601f1680156101cc5780820380516001836020036101000a031916815260200191505b509250505060405180910390f35b3480156101e657600080fd5b5061021d600480360360408110156101fd57600080fd5b810190808035906020019092919080359060200190929190505050611563565b005b34801561022b57600080fd5b506102586004803603602081101561024257600080fd5b810190808035906020019092919050505061198a565b6040518080602001828103825283818151815260200191508051906020019080838360005b8381101561029857808201518184015260208101905061027d565b50505050905090810190601f1680156102c55780820380516001836020036101000a031916815260200191505b509250505060405180910390f35b3480156102df57600080fd5b506102e8611ff8565b604051808273ffffffffffffffffffffffffffffffffffffffff1673ffffffffffffffffffffffffffffffffffffffff16815260200191505060405180910390f35b34801561033657600080fd5b506103fa6004803603604081101561034d57600080fd5b81019080803590602001909291908035906020019064010000000081111561037457600080fd5b82018360208201111561038657600080fd5b803590602001918460018302840111640100000000831117156103a857600080fd5b91908080601f016020809104026020016040519081016040528093929190818152602001838380828437600081840152601f19601f82011690508083019250505050505050919291929050505061201d565b005b34801561040857600080fd5b506104356004803603602081101561041f57600080fd5b810190808035906020019092919050505061219d565b604051808781526020018060200186600281111561044f57fe5b60ff168152602001858152602001848152602001838152602001828103825287818151815260200191508051906020019080838360005b838110156104a1578082015181840152602081019050610486565b50505050905090810190601f1680156104ce5780820380516001836020036101000a031916815260200191505b5097505050505050505060405180910390f35b3480156104ed57600080fd5b5061051a6004803603602081101561050457600080fd5b810190808035906020019092919050505061227e565b6040518082815260200191505060405180910390f35b34801561053c57600080fd5b506105736004803603604081101561055357600080fd5b81019080803590602001909291908035906020019092919050505061229e565b604051808273ffffffffffffffffffffffffffffffffffffffff1673ffffffffffffffffffffffffffffffffffffffff16815260200191505060405180910390f35b3480156105c157600080fd5b506105ee600480360360208110156105d857600080fd5b81019080803590602001909291905050506122e9565b6040518080602001828103825283818151815260200191508051906020019080838360005b8381101561062e578082015181840152602081019050610613565b50505050905090810190601f16801561065b5780820380516001836020036101000a031916815260200191505b509250505060405180910390f35b34801561067557600080fd5b5061067e612427565b6040518082815260200191505060405180910390f35b3480156106a057600080fd5b506106cd600480360360208110156106b757600080fd5b810190808035906020019092919050505061242d565b6040518083815260200180602001828103825283818151815260200191508051906020019080838360005b838110156107135780820151818401526020810190506106f8565b50505050905090810190601f1680156107405780820380516001836020036101000a031916815260200191505b50935050505060405180910390f35b6107856004803603604081101561076557600080fd5b8101908080359060200190929190803590602001909291905050506124e9565b005b34801561079357600080fd5b506107c0600480360360208110156107aa57600080fd5b8101908080359060200190929190505050612bae565b005b3480156107ce57600080fd5b50610892600480360360408110156107e557600080fd5b81019080803590602001909291908035906020019064010000000081111561080c57600080fd5b82018360208201111561081e57600080fd5b8035906020019184600183028401116401000000008311171561084057600080fd5b91908080601f016020809104026020016040519081016040528093929190818152602001838380828437600081840152601f19601f820116905080830192505050505050509192919290505050612e39565b005b3480156108a057600080fd5b506108d7600480360360408110156108b757600080fd5b810190808035906020019092919080359060200190929190505050613037565b6040518082815260200191505060405180910390f35b6000809054906101000a900473ffffffffffffffffffffffffffffffffffffffff1673ffffffffffffffffffffffffffffffffffffffff163373ffffffffffffffffffffffffffffffffffffffff1614610992576040517f08c379a00000000000000000000000000000000000000000000000000000000081526004018080602001828103825260228152602001806133566022913960400191505060405180910390fd5b806000600260008381526020019081526020016000206001018054600181600116156101000203166002900490501415610a34576040517f08c379a000000000000000000000000000000000000000000000000000000000815260040180806020018281038252601e8152602001807f4c61206361727265726120696e67726573616461206e6f20657869737465000081525060200191505060405180910390fd5b816001806002811115610a4357fe5b6002600084815260200190815260200160002060020160009054906101000a900460ff166002811115610a7257fe5b14610ac8576040517f08c379a000000000000000000000000000000000000000000000000000000000815260040180806020018281038252602c8152602001806134b4602c913960400191505060405180910390fd5b6000610ae96002600087815260200190815260200160002060040154613065565b90506000809050600460008781526020019081526020016000208281548110610b0e57fe5b9060005260206000200154600260008881526020019081526020016000206005018190555060008090505b6005600088815260200190815260200160002080549050811015610c94576000600560008981526020019081526020016000208281548110610b7757fe5b9060005260206000200160009054906101000a900473ffffffffffffffffffffffffffffffffffffffff169050600460008981526020019081526020016000208481548110610bc257fe5b9060005260206000200154600260008a815260200190815260200160002060060160008373ffffffffffffffffffffffffffffffffffffffff1673ffffffffffffffffffffffffffffffffffffffff168152602001908152602001600020600101541415610c86576002600089815260200190815260200160002060060160008273ffffffffffffffffffffffffffffffffffffffff1673ffffffffffffffffffffffffffffffffffffffff16815260200190815260200160002060000154830192505b508080600101915050610b39565b50600081146110bc5760008090505b600560008881526020019081526020016000208054905081101561104f576000600560008981526020019081526020016000208281548110610ce157fe5b9060005260206000200160009054906101000a900473ffffffffffffffffffffffffffffffffffffffff169050600460008981526020019081526020016000208481548110610d2c57fe5b9060005260206000200154600260008a815260200190815260200160002060060160008373ffffffffffffffffffffffffffffffffffffffff1673ffffffffffffffffffffffffffffffffffffffff1681526020019081526020016000206001015414156110415782600260008a815260200190815260200160002060060160008373ffffffffffffffffffffffffffffffffffffffff1673ffffffffffffffffffffffffffffffffffffffff1681526020019081526020016000206000015481610df357fe5b04600260008a815260200190815260200160002060060160008373ffffffffffffffffffffffffffffffffffffffff1673ffffffffffffffffffffffffffffffffffffffff168152602001908152602001600020600301819055508073ffffffffffffffffffffffffffffffffffffffff166108fc6127106004600260008d81526020019081526020016000206003015481610e8b57fe5b04600260008d8152602001908152602001600020600301540386612710600260008f815260200190815260200160002060060160008873ffffffffffffffffffffffffffffffffffffffff1673ffffffffffffffffffffffffffffffffffffffff168152602001908152602001600020600001540281610f0757fe5b040281610f1057fe5b049081150290604051600060405180830381858888f19350505050158015610f3c573d6000803e3d6000fd5b506127106004600260008b81526020019081526020016000206003015481610f6057fe5b04600260008b8152602001908152602001600020600301540384612710600260008d815260200190815260200160002060060160008673ffffffffffffffffffffffffffffffffffffffff1673ffffffffffffffffffffffffffffffffffffffff168152602001908152602001600020600001540281610fdc57fe5b040281610fe557fe5b04600260008a815260200190815260200160002060060160008373ffffffffffffffffffffffffffffffffffffffff1673ffffffffffffffffffffffffffffffffffffffff168152602001908152602001600020600401819055505b508080600101915050610ca3565b503373ffffffffffffffffffffffffffffffffffffffff166108fc6004600260008a8152602001908152602001600020600301548161108a57fe5b049081150290604051600060405180830381858888f193505050501580156110b6573d6000803e3d6000fd5b5061111a565b3373ffffffffffffffffffffffffffffffffffffffff166108fc60026000898152602001908152602001600020600301549081150290604051600060405180830381858888f19350505050158015611118573d6000803e3d6000fd5b505b600280600088815260200190815260200160002060020160006101000a81548160ff0219169083600281111561114c57fe5b0217905550505050505050565b6060806040518060400160405280601881526020017f436162616c6c6f7320656e206c6120636172726572612023000000000000000081525090506000809050816111a3856130f4565b6040516020018083805190602001908083835b602083106111d957805182526020820191506020810190506020830392506111b6565b6001836020036101000a03801982511681845116808217855250505050505090500182805190602001908083835b6020831061122a5780518252602082019150602081019050602083039250611207565b6001836020036101000a038019825116818451168082178552505050505050905001925050506040516020818303038152906040529150816040516020018082805190602001908083835b602083106112985780518252602082019150602081019050602083039250611275565b6001836020036101000a038019825116818451168082178552505050505050905001807f3a20000000000000000000000000000000000000000000000000000000000000815250600201915050604051602081830303815290604052915060008090505b60046000868152602001908152602001600020805490508110156114da57600191508261135060046000888152602001908152602001600020838154811061134057fe5b90600052602060002001546130f4565b6040516020018083805190602001908083835b602083106113865780518252602082019150602081019050602083039250611363565b6001836020036101000a03801982511681845116808217855250505050505090500182805190602001908083835b602083106113d757805182526020820191506020810190506020830392506113b4565b6001836020036101000a038019825116818451168082178552505050505050905001925050506040516020818303038152906040529250600160046000878152602001908152602001600020805490500381146114c857826040516020018082805190602001908083835b602083106114655780518252602082019150602081019050602083039250611442565b6001836020036101000a038019825116818451168082178552505050505050905001807f202d20000000000000000000000000000000000000000000000000000000000081525060030191505060405160208183030381529060405292506114cd565b6114da565b80806001019150506112fc565b508061155957816040516020018082805190602001908083835b6020831061151757805182526020820191506020810190506020830392506114f4565b6001836020036101000a0380198251168184511680821785525050505050509050018061339b6026913960260191505060405160208183030381529060405291505b8192505050919050565b6000809054906101000a900473ffffffffffffffffffffffffffffffffffffffff1673ffffffffffffffffffffffffffffffffffffffff163373ffffffffffffffffffffffffffffffffffffffff1614611608576040517f08c379a00000000000000000000000000000000000000000000000000000000081526004018080602001828103825260228152602001806133566022913960400191505060405180910390fd5b80600080600281111561161757fe5b6002600084815260200190815260200160002060020160009054906101000a900460ff16600281111561164657fe5b1461169c576040517f08c379a000000000000000000000000000000000000000000000000000000000815260040180806020018281038252602c8152602001806134b4602c913960400191505060405180910390fd5b82600560046000838152602001908152602001600020805490501061170c576040517f08c379a00000000000000000000000000000000000000000000000000000000081526004018080602001828103825260238152602001806133786023913960400191505060405180910390fd5b8460006003600083815260200190815260200160002060010180546001816001161561010002031660029004905014156117ae576040517f08c379a000000000000000000000000000000000000000000000000000000000815260040180806020018281038252601e8152602001807f456c20636162616c6c6f20696e6772657361646f206e6f20657869737465000081525060200191505060405180910390fd5b846000600260008381526020019081526020016000206001018054600181600116156101000203166002900490501415611850576040517f08c379a000000000000000000000000000000000000000000000000000000000815260040180806020018281038252601e8152602001807f4c61206361727265726120696e67726573616461206e6f20657869737465000081525060200191505060405180910390fd5b8587600060046000848152602001908152602001600020805490509050600080905060008090505b828110156118c6578360046000878152602001908152602001600020828154811061189f57fe5b906000526020600020015414156118b957600191506118c6565b8080600101915050611878565b50801561191e576040517f08c379a000000000000000000000000000000000000000000000000000000000815260040180806020018281038252603781526020018061347d6037913960400191505060405180910390fd5b600460008b81526020019081526020016000208b90806001815401808255809150506001900390600052602060002001600090919091909150556001600260008c8152602001908152602001600020600401600082825401925050819055505050505050505050505050565b6060806040518060400160405280601981526020017f47616e61646f72657320656e206c61206361727265726120230000000000000081525090506000809050816119d4856130f4565b6040516020018083805190602001908083835b60208310611a0a57805182526020820191506020810190506020830392506119e7565b6001836020036101000a03801982511681845116808217855250505050505090500182805190602001908083835b60208310611a5b5780518252602082019150602081019050602083039250611a38565b6001836020036101000a038019825116818451168082178552505050505050905001925050506040516020818303038152906040529150816040516020018082805190602001908083835b60208310611ac95780518252602082019150602081019050602083039250611aa6565b6001836020036101000a038019825116818451168082178552505050505050905001807f3a20000000000000000000000000000000000000000000000000000000000000815250600201915050604051602081830303815290604052915060008090505b6005600086815260200190815260200160002080549050811015611fed576000600260008781526020019081526020016000206006016000600560008981526020019081526020016000208481548110611b8357fe5b9060005260206000200160009054906101000a900473ffffffffffffffffffffffffffffffffffffffff1673ffffffffffffffffffffffffffffffffffffffff1673ffffffffffffffffffffffffffffffffffffffff16815260200190815260200160002060040154905060008114611fdf5760019250836040516020018082805190602001908083835b60208310611c315780518252602082019150602081019050602083039250611c0e565b6001836020036101000a038019825116818451168082178552505050505050905001807f41706f737461646f722023000000000000000000000000000000000000000000815250600b01915050604051602081830303815290604052935083611c99836130f4565b6040516020018083805190602001908083835b60208310611ccf5780518252602082019150602081019050602083039250611cac565b6001836020036101000a03801982511681845116808217855250505050505090500182805190602001908083835b60208310611d205780518252602082019150602081019050602083039250611cfd565b6001836020036101000a038019825116818451168082178552505050505050905001925050506040516020818303038152906040529350836040516020018082805190602001908083835b60208310611d8e5780518252602082019150602081019050602083039250611d6b565b6001836020036101000a038019825116818451168082178552505050505050905001807f2d000000000000000000000000000000000000000000000000000000000000008152506001019150506040516020818303038152906040529350836040516020018082805190602001908083835b60208310611e235780518252602082019150602081019050602083039250611e00565b6001836020036101000a038019825116818451168082178552505050505050905001807f47616e6f3a200000000000000000000000000000000000000000000000000000815250600601915050604051602081830303815290604052935083611e8b826130f4565b6040516020018083805190602001908083835b60208310611ec15780518252602082019150602081019050602083039250611e9e565b6001836020036101000a03801982511681845116808217855250505050505090500182805190602001908083835b60208310611f125780518252602082019150602081019050602083039250611eef565b6001836020036101000a038019825116818451168082178552505050505050905001925050506040516020818303038152906040529350836040516020018082805190602001908083835b60208310611f805780518252602082019150602081019050602083039250611f5d565b6001836020036101000a038019825116818451168082178552505050505050905001807f202000000000000000000000000000000000000000000000000000000000000081525060020191505060405160208183030381529060405293505b508080600101915050611b2d565b508192505050919050565b6000809054906101000a900473ffffffffffffffffffffffffffffffffffffffff1681565b6000809054906101000a900473ffffffffffffffffffffffffffffffffffffffff1673ffffffffffffffffffffffffffffffffffffffff163373ffffffffffffffffffffffffffffffffffffffff16146120c2576040517f08c379a00000000000000000000000000000000000000000000000000000000081526004018080602001828103825260228152602001806133566022913960400191505060405180910390fd5b8160006003600083815260200190815260200160002060010180546001816001161561010002031660029004905014612146576040517f08c379a00000000000000000000000000000000000000000000000000000000081526004018080602001828103825260258152602001806134586025913960400191505060405180910390fd5b60405180604001604052808481526020018381525060036000858152602001908152602001600020600082015181600001556020820151816001019080519060200190612194929190613221565b50905050505050565b6002602052806000526040600020600091509050806000015490806001018054600181600116156101000203166002900480601f01602080910402602001604051908101604052809291908181526020018280546001816001161561010002031660029004801561224f5780601f106122245761010080835404028352916020019161224f565b820191906000526020600020905b81548152906001019060200180831161223257829003601f168201915b5050505050908060020160009054906101000a900460ff16908060030154908060040154908060050154905086565b600060026000838152602001908152602001600020600501549050919050565b600560205281600052604060002081815481106122b757fe5b906000526020600020016000915091509054906101000a900473ffffffffffffffffffffffffffffffffffffffff1681565b6060600060028111156122f857fe5b6002600084815260200190815260200160002060020160009054906101000a900460ff16600281111561232757fe5b141561236a576040518060400160405280600681526020017f43726561646100000000000000000000000000000000000000000000000000008152509050612422565b6001600281111561237757fe5b6002600084815260200190815260200160002060020160009054906101000a900460ff1660028111156123a657fe5b14156123e9576040518060400160405280600a81526020017f52656769737472616461000000000000000000000000000000000000000000008152509050612422565b6040518060400160405280600981526020017f5465726d696e616461000000000000000000000000000000000000000000000081525090505b919050565b60015481565b6003602052806000526040600020600091509050806000015490806001018054600181600116156101000203166002900480601f0160208091040260200160405190810160405280929190818152602001828054600181600116156101000203166002900480156124df5780601f106124b4576101008083540402835291602001916124df565b820191906000526020600020905b8154815290600101906020018083116124c257829003601f168201915b5050505050905082565b6000809054906101000a900473ffffffffffffffffffffffffffffffffffffffff1673ffffffffffffffffffffffffffffffffffffffff163373ffffffffffffffffffffffffffffffffffffffff16141561258f576040517f08c379a00000000000000000000000000000000000000000000000000000000081526004018080602001828103825260378152602001806134216037913960400191505060405180910390fd5b80600180600281111561259e57fe5b6002600084815260200190815260200160002060020160009054906101000a900460ff1660028111156125cd57fe5b14612623576040517f08c379a000000000000000000000000000000000000000000000000000000000815260040180806020018281038252602c8152602001806134b4602c913960400191505060405180910390fd5b8360006003600083815260200190815260200160002060010180546001816001161561010002031660029004905014156126c5576040517f08c379a000000000000000000000000000000000000000000000000000000000815260040180806020018281038252601e8152602001807f456c20636162616c6c6f20696e6772657361646f206e6f20657869737465000081525060200191505060405180910390fd5b836000600260008381526020019081526020016000206001018054600181600116156101000203166002900490501415612767576040517f08c379a000000000000000000000000000000000000000000000000000000000815260040180806020018281038252601e8152602001807f4c61206361727265726120696e67726573616461206e6f20657869737465000081525060200191505060405180910390fd5b8486600060046000848152602001908152602001600020805490509050600080905060008090505b828110156127dd57836004600087815260200190815260200160002082815481106127b657fe5b906000526020600020015414156127d057600191506127dd565b808060010191505061278f565b5080612834576040517f08c379a00000000000000000000000000000000000000000000000000000000081526004018080602001828103825260378152602001806133ea6037913960400191505060405180910390fd5b346000811161288e576040517f08c379a00000000000000000000000000000000000000000000000000000000081526004018080602001828103825260298152602001806133c16029913960400191505060405180910390fd5b60003490506000339050600260008d815260200190815260200160002060060160008273ffffffffffffffffffffffffffffffffffffffff1673ffffffffffffffffffffffffffffffffffffffff16815260200190815260200160002060020160009054906101000a900460ff1615612a3c578c600260008e815260200190815260200160002060060160008373ffffffffffffffffffffffffffffffffffffffff1673ffffffffffffffffffffffffffffffffffffffff16815260200190815260200160002060010154146129af576040517f08c379a000000000000000000000000000000000000000000000000000000000815260040180806020018281038252603b8152602001806132c7603b913960400191505060405180910390fd5b81600260008e815260200190815260200160002060060160008373ffffffffffffffffffffffffffffffffffffffff1673ffffffffffffffffffffffffffffffffffffffff1681526020019081526020016000206000016000828254019250508190555081600260008e815260200190815260200160002060030160008282540192505081905550612b9f565b6040518060a001604052808381526020018e8152602001600115158152602001600081526020016000815250600260008e815260200190815260200160002060060160008373ffffffffffffffffffffffffffffffffffffffff1673ffffffffffffffffffffffffffffffffffffffff168152602001908152602001600020600082015181600001556020820151816001015560408201518160020160006101000a81548160ff021916908315150217905550606082015181600301556080820151816004015590505081600260008e815260200190815260200160002060030160008282540192505081905550600560008d8152602001908152602001600020819080600181540180825580915050600190039060005260206000200160009091909190916101000a81548173ffffffffffffffffffffffffffffffffffffffff021916908373ffffffffffffffffffffffffffffffffffffffff1602179055505b50505050505050505050505050565b6000809054906101000a900473ffffffffffffffffffffffffffffffffffffffff1673ffffffffffffffffffffffffffffffffffffffff163373ffffffffffffffffffffffffffffffffffffffff1614612c53576040517f08c379a00000000000000000000000000000000000000000000000000000000081526004018080602001828103825260228152602001806133566022913960400191505060405180910390fd5b806000806002811115612c6257fe5b6002600084815260200190815260200160002060020160009054906101000a900460ff166002811115612c9157fe5b14612ce7576040517f08c379a000000000000000000000000000000000000000000000000000000000815260040180806020018281038252602c8152602001806134b4602c913960400191505060405180910390fd5b826000600260008381526020019081526020016000206001018054600181600116156101000203166002900490501415612d89576040517f08c379a000000000000000000000000000000000000000000000000000000000815260040180806020018281038252601e8152602001807f4c61206361727265726120696e67726573616461206e6f20657869737465000081525060200191505060405180910390fd5b83600260046000838152602001908152602001600020805490501015612dfa576040517f08c379a000000000000000000000000000000000000000000000000000000000815260040180806020018281038252602e815260200180613328602e913960400191505060405180910390fd5b60016002600087815260200190815260200160002060020160006101000a81548160ff02191690836002811115612e2d57fe5b02179055505050505050565b6000809054906101000a900473ffffffffffffffffffffffffffffffffffffffff1673ffffffffffffffffffffffffffffffffffffffff163373ffffffffffffffffffffffffffffffffffffffff1614612ede576040517f08c379a00000000000000000000000000000000000000000000000000000000081526004018080602001828103825260228152602001806133566022913960400191505060405180910390fd5b8160006002600083815260200190815260200160002060010180546001816001161561010002031660029004905014612f62576040517f08c379a00000000000000000000000000000000000000000000000000000000081526004018080602001828103825260268152602001806133026026913960400191505060405180910390fd5b6040518060c0016040528084815260200183815260200160006002811115612f8657fe5b81526020016000815260200160008152602001600081525060026000858152602001908152602001600020600082015181600001556020820151816001019080519060200190612fd7929190613221565b5060408201518160020160006101000a81548160ff02191690836002811115612ffc57fe5b0217905550606082015181600301556080820151816004015560a0820151816005015590505060018060008282540192505081905550505050565b6004602052816000526040600020818154811061305057fe5b90600052602060002001600091509150505481565b600080600090508080600101915050600083423384604051602001808481526020018373ffffffffffffffffffffffffffffffffffffffff1673ffffffffffffffffffffffffffffffffffffffff1660601b815260140182815260200193505050506040516020818303038152906040528051906020012060001c816130e757fe5b0690508092505050919050565b6060600082141561313c576040518060400160405280600181526020017f3000000000000000000000000000000000000000000000000000000000000000815250905061321c565b600082905060005b60008214613166578080600101915050600a828161315e57fe5b049150613144565b6060816040519080825280601f01601f19166020018201604052801561319b5781602001600182028038833980820191505090505b50905060006001830390505b6000861461321457600a86816131b957fe5b0660300160f81b828280600190039350815181106131d357fe5b60200101907effffffffffffffffffffffffffffffffffffffffffffffffffffffffffffff1916908160001a905350600a868161320c57fe5b0495506131a7565b819450505050505b919050565b828054600181600116156101000203166002900490600052602060002090601f016020900481019282601f1061326257805160ff1916838001178555613290565b82800160010185558215613290579182015b8281111561328f578251825591602001919060010190613274565b5b50905061329d91906132a1565b5090565b6132c391905b808211156132bf5760008160009055506001016132a7565b5090565b9056fe536f6c6f2073652070756564652061706f7374617220706f7220756e20636162616c6c6f2064656e74726f2064652065737461206361727265726159612065786973746520756e61206361727265726120636f6e20657374652063c3b36469676f4c612063617272657261206465626520636f6e74617220636f6e20616c206d656e6f73203220636162616c6c6f73456c20696e766f6361646f7220646562652073657220656c20616e66697472696f6e4c612063617272657261207961206375656e746120636f6e203520636162616c6c6f734c61206361727265726120696e67726573616461206e6f207469656e6520636162616c6c6f73456c206d6f6e746f206465206c612061707565737461206465626520736572206d61796f72206120304573746520636162616c6c6f206e6f20736520656e6375656e747261207265676973747261646f20656e20657374612063617272657261456c20696e766f6361646f7220646562652073657220756e207573756172696f206469666572656e746520616c20616e66697472696f6e59612065786973746520756e20636162616c6c6f20636f6e20657374652063c3b36469676f4573746520636162616c6c6f20796120736520656e6375656e747261207265676973747261646f20656e206573746120636172726572614c612063617272657261206e6f2063756d706c6520636f6e20656c2065737461646f2072657175657269646fa2646970667358221220c2cd760273798702129e3e341838eb1adbd203157055502c45f53af8bdb9806a64736f6c63430006000033",
					"opcodes": "PUSH1 0x80 PUSH1 0x40 MSTORE CALLVALUE DUP1 ISZERO PUSH2 0x10 JUMPI PUSH1 0x0 DUP1 REVERT JUMPDEST POP CALLER PUSH1 0x0 DUP1 PUSH2 0x100 EXP DUP2 SLOAD DUP2 PUSH20 0xFFFFFFFFFFFFFFFFFFFFFFFFFFFFFFFFFFFFFFFF MUL NOT AND SWAP1 DUP4 PUSH20 0xFFFFFFFFFFFFFFFFFFFFFFFFFFFFFFFFFFFFFFFF AND MUL OR SWAP1 SSTORE POP PUSH2 0x3515 DUP1 PUSH2 0x60 PUSH1 0x0 CODECOPY PUSH1 0x0 RETURN INVALID PUSH1 0x80 PUSH1 0x40 MSTORE PUSH1 0x4 CALLDATASIZE LT PUSH2 0xF3 JUMPI PUSH1 0x0 CALLDATALOAD PUSH1 0xE0 SHR DUP1 PUSH4 0xDFE22B5F GT PUSH2 0x8A JUMPI DUP1 PUSH4 0xF2F6DA3E GT PUSH2 0x59 JUMPI DUP1 PUSH4 0xF2F6DA3E EQ PUSH2 0x74F JUMPI DUP1 PUSH4 0xF7EDD6DB EQ PUSH2 0x787 JUMPI DUP1 PUSH4 0xF9D32E49 EQ PUSH2 0x7C2 JUMPI DUP1 PUSH4 0xFB34D0F7 EQ PUSH2 0x894 JUMPI PUSH2 0xF3 JUMP JUMPDEST DUP1 PUSH4 0xDFE22B5F EQ PUSH2 0x530 JUMPI DUP1 PUSH4 0xE6581B9D EQ PUSH2 0x5B5 JUMPI DUP1 PUSH4 0xE9EC5583 EQ PUSH2 0x669 JUMPI DUP1 PUSH4 0xF0B73B54 EQ PUSH2 0x694 JUMPI PUSH2 0xF3 JUMP JUMPDEST DUP1 PUSH4 0x456F4B57 GT PUSH2 0xC6 JUMPI DUP1 PUSH4 0x456F4B57 EQ PUSH2 0x2D3 JUMPI DUP1 PUSH4 0x5194F59C EQ PUSH2 0x32A JUMPI DUP1 PUSH4 0x5EE81666 EQ PUSH2 0x3FC JUMPI DUP1 PUSH4 0x79B31E69 EQ PUSH2 0x4E1 JUMPI PUSH2 0xF3 JUMP JUMPDEST DUP1 PUSH4 0x10A0E95 EQ PUSH2 0xF8 JUMPI DUP1 PUSH4 0x1B895C2F EQ PUSH2 0x126 JUMPI DUP1 PUSH4 0x26D1C7D0 EQ PUSH2 0x1DA JUMPI DUP1 PUSH4 0x286F6B4C EQ PUSH2 0x21F JUMPI JUMPDEST PUSH1 0x0 DUP1 REVERT JUMPDEST PUSH2 0x124 PUSH1 0x4 DUP1 CALLDATASIZE SUB PUSH1 0x20 DUP2 LT ISZERO PUSH2 0x10E JUMPI PUSH1 0x0 DUP1 REVERT JUMPDEST DUP2 ADD SWAP1 DUP1 DUP1 CALLDATALOAD SWAP1 PUSH1 0x20 ADD SWAP1 SWAP3 SWAP2 SWAP1 POP POP POP PUSH2 0x8ED JUMP JUMPDEST STOP JUMPDEST CALLVALUE DUP1 ISZERO PUSH2 0x132 JUMPI PUSH1 0x0 DUP1 REVERT JUMPDEST POP PUSH2 0x15F PUSH1 0x4 DUP1 CALLDATASIZE SUB PUSH1 0x20 DUP2 LT ISZERO PUSH2 0x149 JUMPI PUSH1 0x0 DUP1 REVERT JUMPDEST DUP2 ADD SWAP1 DUP1 DUP1 CALLDATALOAD SWAP1 PUSH1 0x20 ADD SWAP1 SWAP3 SWAP2 SWAP1 POP POP POP PUSH2 0x1159 JUMP JUMPDEST PUSH1 0x40 MLOAD DUP1 DUP1 PUSH1 0x20 ADD DUP3 DUP2 SUB DUP3 MSTORE DUP4 DUP2 DUP2 MLOAD DUP2 MSTORE PUSH1 0x20 ADD SWAP2 POP DUP1 MLOAD SWAP1 PUSH1 0x20 ADD SWAP1 DUP1 DUP4 DUP4 PUSH1 0x0 JUMPDEST DUP4 DUP2 LT ISZERO PUSH2 0x19F JUMPI DUP1 DUP3 ADD MLOAD DUP2 DUP5 ADD MSTORE PUSH1 0x20 DUP2 ADD SWAP1 POP PUSH2 0x184 JUMP JUMPDEST POP POP POP POP SWAP1 POP SWAP1 DUP2 ADD SWAP1 PUSH1 0x1F AND DUP1 ISZERO PUSH2 0x1CC JUMPI DUP1 DUP3 SUB DUP1 MLOAD PUSH1 0x1 DUP4 PUSH1 0x20 SUB PUSH2 0x100 EXP SUB NOT AND DUP2 MSTORE PUSH1 0x20 ADD SWAP2 POP JUMPDEST POP SWAP3 POP POP POP PUSH1 0x40 MLOAD DUP1 SWAP2 SUB SWAP1 RETURN JUMPDEST CALLVALUE DUP1 ISZERO PUSH2 0x1E6 JUMPI PUSH1 0x0 DUP1 REVERT JUMPDEST POP PUSH2 0x21D PUSH1 0x4 DUP1 CALLDATASIZE SUB PUSH1 0x40 DUP2 LT ISZERO PUSH2 0x1FD JUMPI PUSH1 0x0 DUP1 REVERT JUMPDEST DUP2 ADD SWAP1 DUP1 DUP1 CALLDATALOAD SWAP1 PUSH1 0x20 ADD SWAP1 SWAP3 SWAP2 SWAP1 DUP1 CALLDATALOAD SWAP1 PUSH1 0x20 ADD SWAP1 SWAP3 SWAP2 SWAP1 POP POP POP PUSH2 0x1563 JUMP JUMPDEST STOP JUMPDEST CALLVALUE DUP1 ISZERO PUSH2 0x22B JUMPI PUSH1 0x0 DUP1 REVERT JUMPDEST POP PUSH2 0x258 PUSH1 0x4 DUP1 CALLDATASIZE SUB PUSH1 0x20 DUP2 LT ISZERO PUSH2 0x242 JUMPI PUSH1 0x0 DUP1 REVERT JUMPDEST DUP2 ADD SWAP1 DUP1 DUP1 CALLDATALOAD SWAP1 PUSH1 0x20 ADD SWAP1 SWAP3 SWAP2 SWAP1 POP POP POP PUSH2 0x198A JUMP JUMPDEST PUSH1 0x40 MLOAD DUP1 DUP1 PUSH1 0x20 ADD DUP3 DUP2 SUB DUP3 MSTORE DUP4 DUP2 DUP2 MLOAD DUP2 MSTORE PUSH1 0x20 ADD SWAP2 POP DUP1 MLOAD SWAP1 PUSH1 0x20 ADD SWAP1 DUP1 DUP4 DUP4 PUSH1 0x0 JUMPDEST DUP4 DUP2 LT ISZERO PUSH2 0x298 JUMPI DUP1 DUP3 ADD MLOAD DUP2 DUP5 ADD MSTORE PUSH1 0x20 DUP2 ADD SWAP1 POP PUSH2 0x27D JUMP JUMPDEST POP POP POP POP SWAP1 POP SWAP1 DUP2 ADD SWAP1 PUSH1 0x1F AND DUP1 ISZERO PUSH2 0x2C5 JUMPI DUP1 DUP3 SUB DUP1 MLOAD PUSH1 0x1 DUP4 PUSH1 0x20 SUB PUSH2 0x100 EXP SUB NOT AND DUP2 MSTORE PUSH1 0x20 ADD SWAP2 POP JUMPDEST POP SWAP3 POP POP POP PUSH1 0x40 MLOAD DUP1 SWAP2 SUB SWAP1 RETURN JUMPDEST CALLVALUE DUP1 ISZERO PUSH2 0x2DF JUMPI PUSH1 0x0 DUP1 REVERT JUMPDEST POP PUSH2 0x2E8 PUSH2 0x1FF8 JUMP JUMPDEST PUSH1 0x40 MLOAD DUP1 DUP3 PUSH20 0xFFFFFFFFFFFFFFFFFFFFFFFFFFFFFFFFFFFFFFFF AND PUSH20 0xFFFFFFFFFFFFFFFFFFFFFFFFFFFFFFFFFFFFFFFF AND DUP2 MSTORE PUSH1 0x20 ADD SWAP2 POP POP PUSH1 0x40 MLOAD DUP1 SWAP2 SUB SWAP1 RETURN JUMPDEST CALLVALUE DUP1 ISZERO PUSH2 0x336 JUMPI PUSH1 0x0 DUP1 REVERT JUMPDEST POP PUSH2 0x3FA PUSH1 0x4 DUP1 CALLDATASIZE SUB PUSH1 0x40 DUP2 LT ISZERO PUSH2 0x34D JUMPI PUSH1 0x0 DUP1 REVERT JUMPDEST DUP2 ADD SWAP1 DUP1 DUP1 CALLDATALOAD SWAP1 PUSH1 0x20 ADD SWAP1 SWAP3 SWAP2 SWAP1 DUP1 CALLDATALOAD SWAP1 PUSH1 0x20 ADD SWAP1 PUSH5 0x100000000 DUP2 GT ISZERO PUSH2 0x374 JUMPI PUSH1 0x0 DUP1 REVERT JUMPDEST DUP3 ADD DUP4 PUSH1 0x20 DUP3 ADD GT ISZERO PUSH2 0x386 JUMPI PUSH1 0x0 DUP1 REVERT JUMPDEST DUP1 CALLDATALOAD SWAP1 PUSH1 0x20 ADD SWAP2 DUP5 PUSH1 0x1 DUP4 MUL DUP5 ADD GT PUSH5 0x100000000 DUP4 GT OR ISZERO PUSH2 0x3A8 JUMPI PUSH1 0x0 DUP1 REVERT JUMPDEST SWAP2 SWAP1 DUP1 DUP1 PUSH1 0x1F ADD PUSH1 0x20 DUP1 SWAP2 DIV MUL PUSH1 0x20 ADD PUSH1 0x40 MLOAD SWAP1 DUP2 ADD PUSH1 0x40 MSTORE DUP1 SWAP4 SWAP3 SWAP2 SWAP1 DUP2 DUP2 MSTORE PUSH1 0x20 ADD DUP4 DUP4 DUP1 DUP3 DUP5 CALLDATACOPY PUSH1 0x0 DUP2 DUP5 ADD MSTORE PUSH1 0x1F NOT PUSH1 0x1F DUP3 ADD AND SWAP1 POP DUP1 DUP4 ADD SWAP3 POP POP POP POP POP POP POP SWAP2 SWAP3 SWAP2 SWAP3 SWAP1 POP POP POP PUSH2 0x201D JUMP JUMPDEST STOP JUMPDEST CALLVALUE DUP1 ISZERO PUSH2 0x408 JUMPI PUSH1 0x0 DUP1 REVERT JUMPDEST POP PUSH2 0x435 PUSH1 0x4 DUP1 CALLDATASIZE SUB PUSH1 0x20 DUP2 LT ISZERO PUSH2 0x41F JUMPI PUSH1 0x0 DUP1 REVERT JUMPDEST DUP2 ADD SWAP1 DUP1 DUP1 CALLDATALOAD SWAP1 PUSH1 0x20 ADD SWAP1 SWAP3 SWAP2 SWAP1 POP POP POP PUSH2 0x219D JUMP JUMPDEST PUSH1 0x40 MLOAD DUP1 DUP8 DUP2 MSTORE PUSH1 0x20 ADD DUP1 PUSH1 0x20 ADD DUP7 PUSH1 0x2 DUP2 GT ISZERO PUSH2 0x44F JUMPI INVALID JUMPDEST PUSH1 0xFF AND DUP2 MSTORE PUSH1 0x20 ADD DUP6 DUP2 MSTORE PUSH1 0x20 ADD DUP5 DUP2 MSTORE PUSH1 0x20 ADD DUP4 DUP2 MSTORE PUSH1 0x20 ADD DUP3 DUP2 SUB DUP3 MSTORE DUP8 DUP2 DUP2 MLOAD DUP2 MSTORE PUSH1 0x20 ADD SWAP2 POP DUP1 MLOAD SWAP1 PUSH1 0x20 ADD SWAP1 DUP1 DUP4 DUP4 PUSH1 0x0 JUMPDEST DUP4 DUP2 LT ISZERO PUSH2 0x4A1 JUMPI DUP1 DUP3 ADD MLOAD DUP2 DUP5 ADD MSTORE PUSH1 0x20 DUP2 ADD SWAP1 POP PUSH2 0x486 JUMP JUMPDEST POP POP POP POP SWAP1 POP SWAP1 DUP2 ADD SWAP1 PUSH1 0x1F AND DUP1 ISZERO PUSH2 0x4CE JUMPI DUP1 DUP3 SUB DUP1 MLOAD PUSH1 0x1 DUP4 PUSH1 0x20 SUB PUSH2 0x100 EXP SUB NOT AND DUP2 MSTORE PUSH1 0x20 ADD SWAP2 POP JUMPDEST POP SWAP8 POP POP POP POP POP POP POP POP PUSH1 0x40 MLOAD DUP1 SWAP2 SUB SWAP1 RETURN JUMPDEST CALLVALUE DUP1 ISZERO PUSH2 0x4ED JUMPI PUSH1 0x0 DUP1 REVERT JUMPDEST POP PUSH2 0x51A PUSH1 0x4 DUP1 CALLDATASIZE SUB PUSH1 0x20 DUP2 LT ISZERO PUSH2 0x504 JUMPI PUSH1 0x0 DUP1 REVERT JUMPDEST DUP2 ADD SWAP1 DUP1 DUP1 CALLDATALOAD SWAP1 PUSH1 0x20 ADD SWAP1 SWAP3 SWAP2 SWAP1 POP POP POP PUSH2 0x227E JUMP JUMPDEST PUSH1 0x40 MLOAD DUP1 DUP3 DUP2 MSTORE PUSH1 0x20 ADD SWAP2 POP POP PUSH1 0x40 MLOAD DUP1 SWAP2 SUB SWAP1 RETURN JUMPDEST CALLVALUE DUP1 ISZERO PUSH2 0x53C JUMPI PUSH1 0x0 DUP1 REVERT JUMPDEST POP PUSH2 0x573 PUSH1 0x4 DUP1 CALLDATASIZE SUB PUSH1 0x40 DUP2 LT ISZERO PUSH2 0x553 JUMPI PUSH1 0x0 DUP1 REVERT JUMPDEST DUP2 ADD SWAP1 DUP1 DUP1 CALLDATALOAD SWAP1 PUSH1 0x20 ADD SWAP1 SWAP3 SWAP2 SWAP1 DUP1 CALLDATALOAD SWAP1 PUSH1 0x20 ADD SWAP1 SWAP3 SWAP2 SWAP1 POP POP POP PUSH2 0x229E JUMP JUMPDEST PUSH1 0x40 MLOAD DUP1 DUP3 PUSH20 0xFFFFFFFFFFFFFFFFFFFFFFFFFFFFFFFFFFFFFFFF AND PUSH20 0xFFFFFFFFFFFFFFFFFFFFFFFFFFFFFFFFFFFFFFFF AND DUP2 MSTORE PUSH1 0x20 ADD SWAP2 POP POP PUSH1 0x40 MLOAD DUP1 SWAP2 SUB SWAP1 RETURN JUMPDEST CALLVALUE DUP1 ISZERO PUSH2 0x5C1 JUMPI PUSH1 0x0 DUP1 REVERT JUMPDEST POP PUSH2 0x5EE PUSH1 0x4 DUP1 CALLDATASIZE SUB PUSH1 0x20 DUP2 LT ISZERO PUSH2 0x5D8 JUMPI PUSH1 0x0 DUP1 REVERT JUMPDEST DUP2 ADD SWAP1 DUP1 DUP1 CALLDATALOAD SWAP1 PUSH1 0x20 ADD SWAP1 SWAP3 SWAP2 SWAP1 POP POP POP PUSH2 0x22E9 JUMP JUMPDEST PUSH1 0x40 MLOAD DUP1 DUP1 PUSH1 0x20 ADD DUP3 DUP2 SUB DUP3 MSTORE DUP4 DUP2 DUP2 MLOAD DUP2 MSTORE PUSH1 0x20 ADD SWAP2 POP DUP1 MLOAD SWAP1 PUSH1 0x20 ADD SWAP1 DUP1 DUP4 DUP4 PUSH1 0x0 JUMPDEST DUP4 DUP2 LT ISZERO PUSH2 0x62E JUMPI DUP1 DUP3 ADD MLOAD DUP2 DUP5 ADD MSTORE PUSH1 0x20 DUP2 ADD SWAP1 POP PUSH2 0x613 JUMP JUMPDEST POP POP POP POP SWAP1 POP SWAP1 DUP2 ADD SWAP1 PUSH1 0x1F AND DUP1 ISZERO PUSH2 0x65B JUMPI DUP1 DUP3 SUB DUP1 MLOAD PUSH1 0x1 DUP4 PUSH1 0x20 SUB PUSH2 0x100 EXP SUB NOT AND DUP2 MSTORE PUSH1 0x20 ADD SWAP2 POP JUMPDEST POP SWAP3 POP POP POP PUSH1 0x40 MLOAD DUP1 SWAP2 SUB SWAP1 RETURN JUMPDEST CALLVALUE DUP1 ISZERO PUSH2 0x675 JUMPI PUSH1 0x0 DUP1 REVERT JUMPDEST POP PUSH2 0x67E PUSH2 0x2427 JUMP JUMPDEST PUSH1 0x40 MLOAD DUP1 DUP3 DUP2 MSTORE PUSH1 0x20 ADD SWAP2 POP POP PUSH1 0x40 MLOAD DUP1 SWAP2 SUB SWAP1 RETURN JUMPDEST CALLVALUE DUP1 ISZERO PUSH2 0x6A0 JUMPI PUSH1 0x0 DUP1 REVERT JUMPDEST POP PUSH2 0x6CD PUSH1 0x4 DUP1 CALLDATASIZE SUB PUSH1 0x20 DUP2 LT ISZERO PUSH2 0x6B7 JUMPI PUSH1 0x0 DUP1 REVERT JUMPDEST DUP2 ADD SWAP1 DUP1 DUP1 CALLDATALOAD SWAP1 PUSH1 0x20 ADD SWAP1 SWAP3 SWAP2 SWAP1 POP POP POP PUSH2 0x242D JUMP JUMPDEST PUSH1 0x40 MLOAD DUP1 DUP4 DUP2 MSTORE PUSH1 0x20 ADD DUP1 PUSH1 0x20 ADD DUP3 DUP2 SUB DUP3 MSTORE DUP4 DUP2 DUP2 MLOAD DUP2 MSTORE PUSH1 0x20 ADD SWAP2 POP DUP1 MLOAD SWAP1 PUSH1 0x20 ADD SWAP1 DUP1 DUP4 DUP4 PUSH1 0x0 JUMPDEST DUP4 DUP2 LT ISZERO PUSH2 0x713 JUMPI DUP1 DUP3 ADD MLOAD DUP2 DUP5 ADD MSTORE PUSH1 0x20 DUP2 ADD SWAP1 POP PUSH2 0x6F8 JUMP JUMPDEST POP POP POP POP SWAP1 POP SWAP1 DUP2 ADD SWAP1 PUSH1 0x1F AND DUP1 ISZERO PUSH2 0x740 JUMPI DUP1 DUP3 SUB DUP1 MLOAD PUSH1 0x1 DUP4 PUSH1 0x20 SUB PUSH2 0x100 EXP SUB NOT AND DUP2 MSTORE PUSH1 0x20 ADD SWAP2 POP JUMPDEST POP SWAP4 POP POP POP POP PUSH1 0x40 MLOAD DUP1 SWAP2 SUB SWAP1 RETURN JUMPDEST PUSH2 0x785 PUSH1 0x4 DUP1 CALLDATASIZE SUB PUSH1 0x40 DUP2 LT ISZERO PUSH2 0x765 JUMPI PUSH1 0x0 DUP1 REVERT JUMPDEST DUP2 ADD SWAP1 DUP1 DUP1 CALLDATALOAD SWAP1 PUSH1 0x20 ADD SWAP1 SWAP3 SWAP2 SWAP1 DUP1 CALLDATALOAD SWAP1 PUSH1 0x20 ADD SWAP1 SWAP3 SWAP2 SWAP1 POP POP POP PUSH2 0x24E9 JUMP JUMPDEST STOP JUMPDEST CALLVALUE DUP1 ISZERO PUSH2 0x793 JUMPI PUSH1 0x0 DUP1 REVERT JUMPDEST POP PUSH2 0x7C0 PUSH1 0x4 DUP1 CALLDATASIZE SUB PUSH1 0x20 DUP2 LT ISZERO PUSH2 0x7AA JUMPI PUSH1 0x0 DUP1 REVERT JUMPDEST DUP2 ADD SWAP1 DUP1 DUP1 CALLDATALOAD SWAP1 PUSH1 0x20 ADD SWAP1 SWAP3 SWAP2 SWAP1 POP POP POP PUSH2 0x2BAE JUMP JUMPDEST STOP JUMPDEST CALLVALUE DUP1 ISZERO PUSH2 0x7CE JUMPI PUSH1 0x0 DUP1 REVERT JUMPDEST POP PUSH2 0x892 PUSH1 0x4 DUP1 CALLDATASIZE SUB PUSH1 0x40 DUP2 LT ISZERO PUSH2 0x7E5 JUMPI PUSH1 0x0 DUP1 REVERT JUMPDEST DUP2 ADD SWAP1 DUP1 DUP1 CALLDATALOAD SWAP1 PUSH1 0x20 ADD SWAP1 SWAP3 SWAP2 SWAP1 DUP1 CALLDATALOAD SWAP1 PUSH1 0x20 ADD SWAP1 PUSH5 0x100000000 DUP2 GT ISZERO PUSH2 0x80C JUMPI PUSH1 0x0 DUP1 REVERT JUMPDEST DUP3 ADD DUP4 PUSH1 0x20 DUP3 ADD GT ISZERO PUSH2 0x81E JUMPI PUSH1 0x0 DUP1 REVERT JUMPDEST DUP1 CALLDATALOAD SWAP1 PUSH1 0x20 ADD SWAP2 DUP5 PUSH1 0x1 DUP4 MUL DUP5 ADD GT PUSH5 0x100000000 DUP4 GT OR ISZERO PUSH2 0x840 JUMPI PUSH1 0x0 DUP1 REVERT JUMPDEST SWAP2 SWAP1 DUP1 DUP1 PUSH1 0x1F ADD PUSH1 0x20 DUP1 SWAP2 DIV MUL PUSH1 0x20 ADD PUSH1 0x40 MLOAD SWAP1 DUP2 ADD PUSH1 0x40 MSTORE DUP1 SWAP4 SWAP3 SWAP2 SWAP1 DUP2 DUP2 MSTORE PUSH1 0x20 ADD DUP4 DUP4 DUP1 DUP3 DUP5 CALLDATACOPY PUSH1 0x0 DUP2 DUP5 ADD MSTORE PUSH1 0x1F NOT PUSH1 0x1F DUP3 ADD AND SWAP1 POP DUP1 DUP4 ADD SWAP3 POP POP POP POP POP POP POP SWAP2 SWAP3 SWAP2 SWAP3 SWAP1 POP POP POP PUSH2 0x2E39 JUMP JUMPDEST STOP JUMPDEST CALLVALUE DUP1 ISZERO PUSH2 0x8A0 JUMPI PUSH1 0x0 DUP1 REVERT JUMPDEST POP PUSH2 0x8D7 PUSH1 0x4 DUP1 CALLDATASIZE SUB PUSH1 0x40 DUP2 LT ISZERO PUSH2 0x8B7 JUMPI PUSH1 0x0 DUP1 REVERT JUMPDEST DUP2 ADD SWAP1 DUP1 DUP1 CALLDATALOAD SWAP1 PUSH1 0x20 ADD SWAP1 SWAP3 SWAP2 SWAP1 DUP1 CALLDATALOAD SWAP1 PUSH1 0x20 ADD SWAP1 SWAP3 SWAP2 SWAP1 POP POP POP PUSH2 0x3037 JUMP JUMPDEST PUSH1 0x40 MLOAD DUP1 DUP3 DUP2 MSTORE PUSH1 0x20 ADD SWAP2 POP POP PUSH1 0x40 MLOAD DUP1 SWAP2 SUB SWAP1 RETURN JUMPDEST PUSH1 0x0 DUP1 SWAP1 SLOAD SWAP1 PUSH2 0x100 EXP SWAP1 DIV PUSH20 0xFFFFFFFFFFFFFFFFFFFFFFFFFFFFFFFFFFFFFFFF AND PUSH20 0xFFFFFFFFFFFFFFFFFFFFFFFFFFFFFFFFFFFFFFFF AND CALLER PUSH20 0xFFFFFFFFFFFFFFFFFFFFFFFFFFFFFFFFFFFFFFFF AND EQ PUSH2 0x992 JUMPI PUSH1 0x40 MLOAD PUSH32 0x8C379A000000000000000000000000000000000000000000000000000000000 DUP2 MSTORE PUSH1 0x4 ADD DUP1 DUP1 PUSH1 0x20 ADD DUP3 DUP2 SUB DUP3 MSTORE PUSH1 0x22 DUP2 MSTORE PUSH1 0x20 ADD DUP1 PUSH2 0x3356 PUSH1 0x22 SWAP2 CODECOPY PUSH1 0x40 ADD SWAP2 POP POP PUSH1 0x40 MLOAD DUP1 SWAP2 SUB SWAP1 REVERT JUMPDEST DUP1 PUSH1 0x0 PUSH1 0x2 PUSH1 0x0 DUP4 DUP2 MSTORE PUSH1 0x20 ADD SWAP1 DUP2 MSTORE PUSH1 0x20 ADD PUSH1 0x0 KECCAK256 PUSH1 0x1 ADD DUP1 SLOAD PUSH1 0x1 DUP2 PUSH1 0x1 AND ISZERO PUSH2 0x100 MUL SUB AND PUSH1 0x2 SWAP1 DIV SWAP1 POP EQ ISZERO PUSH2 0xA34 JUMPI PUSH1 0x40 MLOAD PUSH32 0x8C379A000000000000000000000000000000000000000000000000000000000 DUP2 MSTORE PUSH1 0x4 ADD DUP1 DUP1 PUSH1 0x20 ADD DUP3 DUP2 SUB DUP3 MSTORE PUSH1 0x1E DUP2 MSTORE PUSH1 0x20 ADD DUP1 PUSH32 0x4C61206361727265726120696E67726573616461206E6F206578697374650000 DUP2 MSTORE POP PUSH1 0x20 ADD SWAP2 POP POP PUSH1 0x40 MLOAD DUP1 SWAP2 SUB SWAP1 REVERT JUMPDEST DUP2 PUSH1 0x1 DUP1 PUSH1 0x2 DUP2 GT ISZERO PUSH2 0xA43 JUMPI INVALID JUMPDEST PUSH1 0x2 PUSH1 0x0 DUP5 DUP2 MSTORE PUSH1 0x20 ADD SWAP1 DUP2 MSTORE PUSH1 0x20 ADD PUSH1 0x0 KECCAK256 PUSH1 0x2 ADD PUSH1 0x0 SWAP1 SLOAD SWAP1 PUSH2 0x100 EXP SWAP1 DIV PUSH1 0xFF AND PUSH1 0x2 DUP2 GT ISZERO PUSH2 0xA72 JUMPI INVALID JUMPDEST EQ PUSH2 0xAC8 JUMPI PUSH1 0x40 MLOAD PUSH32 0x8C379A000000000000000000000000000000000000000000000000000000000 DUP2 MSTORE PUSH1 0x4 ADD DUP1 DUP1 PUSH1 0x20 ADD DUP3 DUP2 SUB DUP3 MSTORE PUSH1 0x2C DUP2 MSTORE PUSH1 0x20 ADD DUP1 PUSH2 0x34B4 PUSH1 0x2C SWAP2 CODECOPY PUSH1 0x40 ADD SWAP2 POP POP PUSH1 0x40 MLOAD DUP1 SWAP2 SUB SWAP1 REVERT JUMPDEST PUSH1 0x0 PUSH2 0xAE9 PUSH1 0x2 PUSH1 0x0 DUP8 DUP2 MSTORE PUSH1 0x20 ADD SWAP1 DUP2 MSTORE PUSH1 0x20 ADD PUSH1 0x0 KECCAK256 PUSH1 0x4 ADD SLOAD PUSH2 0x3065 JUMP JUMPDEST SWAP1 POP PUSH1 0x0 DUP1 SWAP1 POP PUSH1 0x4 PUSH1 0x0 DUP8 DUP2 MSTORE PUSH1 0x20 ADD SWAP1 DUP2 MSTORE PUSH1 0x20 ADD PUSH1 0x0 KECCAK256 DUP3 DUP2 SLOAD DUP2 LT PUSH2 0xB0E JUMPI INVALID JUMPDEST SWAP1 PUSH1 0x0 MSTORE PUSH1 0x20 PUSH1 0x0 KECCAK256 ADD SLOAD PUSH1 0x2 PUSH1 0x0 DUP9 DUP2 MSTORE PUSH1 0x20 ADD SWAP1 DUP2 MSTORE PUSH1 0x20 ADD PUSH1 0x0 KECCAK256 PUSH1 0x5 ADD DUP2 SWAP1 SSTORE POP PUSH1 0x0 DUP1 SWAP1 POP JUMPDEST PUSH1 0x5 PUSH1 0x0 DUP9 DUP2 MSTORE PUSH1 0x20 ADD SWAP1 DUP2 MSTORE PUSH1 0x20 ADD PUSH1 0x0 KECCAK256 DUP1 SLOAD SWAP1 POP DUP2 LT ISZERO PUSH2 0xC94 JUMPI PUSH1 0x0 PUSH1 0x5 PUSH1 0x0 DUP10 DUP2 MSTORE PUSH1 0x20 ADD SWAP1 DUP2 MSTORE PUSH1 0x20 ADD PUSH1 0x0 KECCAK256 DUP3 DUP2 SLOAD DUP2 LT PUSH2 0xB77 JUMPI INVALID JUMPDEST SWAP1 PUSH1 0x0 MSTORE PUSH1 0x20 PUSH1 0x0 KECCAK256 ADD PUSH1 0x0 SWAP1 SLOAD SWAP1 PUSH2 0x100 EXP SWAP1 DIV PUSH20 0xFFFFFFFFFFFFFFFFFFFFFFFFFFFFFFFFFFFFFFFF AND SWAP1 POP PUSH1 0x4 PUSH1 0x0 DUP10 DUP2 MSTORE PUSH1 0x20 ADD SWAP1 DUP2 MSTORE PUSH1 0x20 ADD PUSH1 0x0 KECCAK256 DUP5 DUP2 SLOAD DUP2 LT PUSH2 0xBC2 JUMPI INVALID JUMPDEST SWAP1 PUSH1 0x0 MSTORE PUSH1 0x20 PUSH1 0x0 KECCAK256 ADD SLOAD PUSH1 0x2 PUSH1 0x0 DUP11 DUP2 MSTORE PUSH1 0x20 ADD SWAP1 DUP2 MSTORE PUSH1 0x20 ADD PUSH1 0x0 KECCAK256 PUSH1 0x6 ADD PUSH1 0x0 DUP4 PUSH20 0xFFFFFFFFFFFFFFFFFFFFFFFFFFFFFFFFFFFFFFFF AND PUSH20 0xFFFFFFFFFFFFFFFFFFFFFFFFFFFFFFFFFFFFFFFF AND DUP2 MSTORE PUSH1 0x20 ADD SWAP1 DUP2 MSTORE PUSH1 0x20 ADD PUSH1 0x0 KECCAK256 PUSH1 0x1 ADD SLOAD EQ ISZERO PUSH2 0xC86 JUMPI PUSH1 0x2 PUSH1 0x0 DUP10 DUP2 MSTORE PUSH1 0x20 ADD SWAP1 DUP2 MSTORE PUSH1 0x20 ADD PUSH1 0x0 KECCAK256 PUSH1 0x6 ADD PUSH1 0x0 DUP3 PUSH20 0xFFFFFFFFFFFFFFFFFFFFFFFFFFFFFFFFFFFFFFFF AND PUSH20 0xFFFFFFFFFFFFFFFFFFFFFFFFFFFFFFFFFFFFFFFF AND DUP2 MSTORE PUSH1 0x20 ADD SWAP1 DUP2 MSTORE PUSH1 0x20 ADD PUSH1 0x0 KECCAK256 PUSH1 0x0 ADD SLOAD DUP4 ADD SWAP3 POP JUMPDEST POP DUP1 DUP1 PUSH1 0x1 ADD SWAP2 POP POP PUSH2 0xB39 JUMP JUMPDEST POP PUSH1 0x0 DUP2 EQ PUSH2 0x10BC JUMPI PUSH1 0x0 DUP1 SWAP1 POP JUMPDEST PUSH1 0x5 PUSH1 0x0 DUP9 DUP2 MSTORE PUSH1 0x20 ADD SWAP1 DUP2 MSTORE PUSH1 0x20 ADD PUSH1 0x0 KECCAK256 DUP1 SLOAD SWAP1 POP DUP2 LT ISZERO PUSH2 0x104F JUMPI PUSH1 0x0 PUSH1 0x5 PUSH1 0x0 DUP10 DUP2 MSTORE PUSH1 0x20 ADD SWAP1 DUP2 MSTORE PUSH1 0x20 ADD PUSH1 0x0 KECCAK256 DUP3 DUP2 SLOAD DUP2 LT PUSH2 0xCE1 JUMPI INVALID JUMPDEST SWAP1 PUSH1 0x0 MSTORE PUSH1 0x20 PUSH1 0x0 KECCAK256 ADD PUSH1 0x0 SWAP1 SLOAD SWAP1 PUSH2 0x100 EXP SWAP1 DIV PUSH20 0xFFFFFFFFFFFFFFFFFFFFFFFFFFFFFFFFFFFFFFFF AND SWAP1 POP PUSH1 0x4 PUSH1 0x0 DUP10 DUP2 MSTORE PUSH1 0x20 ADD SWAP1 DUP2 MSTORE PUSH1 0x20 ADD PUSH1 0x0 KECCAK256 DUP5 DUP2 SLOAD DUP2 LT PUSH2 0xD2C JUMPI INVALID JUMPDEST SWAP1 PUSH1 0x0 MSTORE PUSH1 0x20 PUSH1 0x0 KECCAK256 ADD SLOAD PUSH1 0x2 PUSH1 0x0 DUP11 DUP2 MSTORE PUSH1 0x20 ADD SWAP1 DUP2 MSTORE PUSH1 0x20 ADD PUSH1 0x0 KECCAK256 PUSH1 0x6 ADD PUSH1 0x0 DUP4 PUSH20 0xFFFFFFFFFFFFFFFFFFFFFFFFFFFFFFFFFFFFFFFF AND PUSH20 0xFFFFFFFFFFFFFFFFFFFFFFFFFFFFFFFFFFFFFFFF AND DUP2 MSTORE PUSH1 0x20 ADD SWAP1 DUP2 MSTORE PUSH1 0x20 ADD PUSH1 0x0 KECCAK256 PUSH1 0x1 ADD SLOAD EQ ISZERO PUSH2 0x1041 JUMPI DUP3 PUSH1 0x2 PUSH1 0x0 DUP11 DUP2 MSTORE PUSH1 0x20 ADD SWAP1 DUP2 MSTORE PUSH1 0x20 ADD PUSH1 0x0 KECCAK256 PUSH1 0x6 ADD PUSH1 0x0 DUP4 PUSH20 0xFFFFFFFFFFFFFFFFFFFFFFFFFFFFFFFFFFFFFFFF AND PUSH20 0xFFFFFFFFFFFFFFFFFFFFFFFFFFFFFFFFFFFFFFFF AND DUP2 MSTORE PUSH1 0x20 ADD SWAP1 DUP2 MSTORE PUSH1 0x20 ADD PUSH1 0x0 KECCAK256 PUSH1 0x0 ADD SLOAD DUP2 PUSH2 0xDF3 JUMPI INVALID JUMPDEST DIV PUSH1 0x2 PUSH1 0x0 DUP11 DUP2 MSTORE PUSH1 0x20 ADD SWAP1 DUP2 MSTORE PUSH1 0x20 ADD PUSH1 0x0 KECCAK256 PUSH1 0x6 ADD PUSH1 0x0 DUP4 PUSH20 0xFFFFFFFFFFFFFFFFFFFFFFFFFFFFFFFFFFFFFFFF AND PUSH20 0xFFFFFFFFFFFFFFFFFFFFFFFFFFFFFFFFFFFFFFFF AND DUP2 MSTORE PUSH1 0x20 ADD SWAP1 DUP2 MSTORE PUSH1 0x20 ADD PUSH1 0x0 KECCAK256 PUSH1 0x3 ADD DUP2 SWAP1 SSTORE POP DUP1 PUSH20 0xFFFFFFFFFFFFFFFFFFFFFFFFFFFFFFFFFFFFFFFF AND PUSH2 0x8FC PUSH2 0x2710 PUSH1 0x4 PUSH1 0x2 PUSH1 0x0 DUP14 DUP2 MSTORE PUSH1 0x20 ADD SWAP1 DUP2 MSTORE PUSH1 0x20 ADD PUSH1 0x0 KECCAK256 PUSH1 0x3 ADD SLOAD DUP2 PUSH2 0xE8B JUMPI INVALID JUMPDEST DIV PUSH1 0x2 PUSH1 0x0 DUP14 DUP2 MSTORE PUSH1 0x20 ADD SWAP1 DUP2 MSTORE PUSH1 0x20 ADD PUSH1 0x0 KECCAK256 PUSH1 0x3 ADD SLOAD SUB DUP7 PUSH2 0x2710 PUSH1 0x2 PUSH1 0x0 DUP16 DUP2 MSTORE PUSH1 0x20 ADD SWAP1 DUP2 MSTORE PUSH1 0x20 ADD PUSH1 0x0 KECCAK256 PUSH1 0x6 ADD PUSH1 0x0 DUP9 PUSH20 0xFFFFFFFFFFFFFFFFFFFFFFFFFFFFFFFFFFFFFFFF AND PUSH20 0xFFFFFFFFFFFFFFFFFFFFFFFFFFFFFFFFFFFFFFFF AND DUP2 MSTORE PUSH1 0x20 ADD SWAP1 DUP2 MSTORE PUSH1 0x20 ADD PUSH1 0x0 KECCAK256 PUSH1 0x0 ADD SLOAD MUL DUP2 PUSH2 0xF07 JUMPI INVALID JUMPDEST DIV MUL DUP2 PUSH2 0xF10 JUMPI INVALID JUMPDEST DIV SWAP1 DUP2 ISZERO MUL SWAP1 PUSH1 0x40 MLOAD PUSH1 0x0 PUSH1 0x40 MLOAD DUP1 DUP4 SUB DUP2 DUP6 DUP9 DUP9 CALL SWAP4 POP POP POP POP ISZERO DUP1 ISZERO PUSH2 0xF3C JUMPI RETURNDATASIZE PUSH1 0x0 DUP1 RETURNDATACOPY RETURNDATASIZE PUSH1 0x0 REVERT JUMPDEST POP PUSH2 0x2710 PUSH1 0x4 PUSH1 0x2 PUSH1 0x0 DUP12 DUP2 MSTORE PUSH1 0x20 ADD SWAP1 DUP2 MSTORE PUSH1 0x20 ADD PUSH1 0x0 KECCAK256 PUSH1 0x3 ADD SLOAD DUP2 PUSH2 0xF60 JUMPI INVALID JUMPDEST DIV PUSH1 0x2 PUSH1 0x0 DUP12 DUP2 MSTORE PUSH1 0x20 ADD SWAP1 DUP2 MSTORE PUSH1 0x20 ADD PUSH1 0x0 KECCAK256 PUSH1 0x3 ADD SLOAD SUB DUP5 PUSH2 0x2710 PUSH1 0x2 PUSH1 0x0 DUP14 DUP2 MSTORE PUSH1 0x20 ADD SWAP1 DUP2 MSTORE PUSH1 0x20 ADD PUSH1 0x0 KECCAK256 PUSH1 0x6 ADD PUSH1 0x0 DUP7 PUSH20 0xFFFFFFFFFFFFFFFFFFFFFFFFFFFFFFFFFFFFFFFF AND PUSH20 0xFFFFFFFFFFFFFFFFFFFFFFFFFFFFFFFFFFFFFFFF AND DUP2 MSTORE PUSH1 0x20 ADD SWAP1 DUP2 MSTORE PUSH1 0x20 ADD PUSH1 0x0 KECCAK256 PUSH1 0x0 ADD SLOAD MUL DUP2 PUSH2 0xFDC JUMPI INVALID JUMPDEST DIV MUL DUP2 PUSH2 0xFE5 JUMPI INVALID JUMPDEST DIV PUSH1 0x2 PUSH1 0x0 DUP11 DUP2 MSTORE PUSH1 0x20 ADD SWAP1 DUP2 MSTORE PUSH1 0x20 ADD PUSH1 0x0 KECCAK256 PUSH1 0x6 ADD PUSH1 0x0 DUP4 PUSH20 0xFFFFFFFFFFFFFFFFFFFFFFFFFFFFFFFFFFFFFFFF AND PUSH20 0xFFFFFFFFFFFFFFFFFFFFFFFFFFFFFFFFFFFFFFFF AND DUP2 MSTORE PUSH1 0x20 ADD SWAP1 DUP2 MSTORE PUSH1 0x20 ADD PUSH1 0x0 KECCAK256 PUSH1 0x4 ADD DUP2 SWAP1 SSTORE POP JUMPDEST POP DUP1 DUP1 PUSH1 0x1 ADD SWAP2 POP POP PUSH2 0xCA3 JUMP JUMPDEST POP CALLER PUSH20 0xFFFFFFFFFFFFFFFFFFFFFFFFFFFFFFFFFFFFFFFF AND PUSH2 0x8FC PUSH1 0x4 PUSH1 0x2 PUSH1 0x0 DUP11 DUP2 MSTORE PUSH1 0x20 ADD SWAP1 DUP2 MSTORE PUSH1 0x20 ADD PUSH1 0x0 KECCAK256 PUSH1 0x3 ADD SLOAD DUP2 PUSH2 0x108A JUMPI INVALID JUMPDEST DIV SWAP1 DUP2 ISZERO MUL SWAP1 PUSH1 0x40 MLOAD PUSH1 0x0 PUSH1 0x40 MLOAD DUP1 DUP4 SUB DUP2 DUP6 DUP9 DUP9 CALL SWAP4 POP POP POP POP ISZERO DUP1 ISZERO PUSH2 0x10B6 JUMPI RETURNDATASIZE PUSH1 0x0 DUP1 RETURNDATACOPY RETURNDATASIZE PUSH1 0x0 REVERT JUMPDEST POP PUSH2 0x111A JUMP JUMPDEST CALLER PUSH20 0xFFFFFFFFFFFFFFFFFFFFFFFFFFFFFFFFFFFFFFFF AND PUSH2 0x8FC PUSH1 0x2 PUSH1 0x0 DUP10 DUP2 MSTORE PUSH1 0x20 ADD SWAP1 DUP2 MSTORE PUSH1 0x20 ADD PUSH1 0x0 KECCAK256 PUSH1 0x3 ADD SLOAD SWAP1 DUP2 ISZERO MUL SWAP1 PUSH1 0x40 MLOAD PUSH1 0x0 PUSH1 0x40 MLOAD DUP1 DUP4 SUB DUP2 DUP6 DUP9 DUP9 CALL SWAP4 POP POP POP POP ISZERO DUP1 ISZERO PUSH2 0x1118 JUMPI RETURNDATASIZE PUSH1 0x0 DUP1 RETURNDATACOPY RETURNDATASIZE PUSH1 0x0 REVERT JUMPDEST POP JUMPDEST PUSH1 0x2 DUP1 PUSH1 0x0 DUP9 DUP2 MSTORE PUSH1 0x20 ADD SWAP1 DUP2 MSTORE PUSH1 0x20 ADD PUSH1 0x0 KECCAK256 PUSH1 0x2 ADD PUSH1 0x0 PUSH2 0x100 EXP DUP2 SLOAD DUP2 PUSH1 0xFF MUL NOT AND SWAP1 DUP4 PUSH1 0x2 DUP2 GT ISZERO PUSH2 0x114C JUMPI INVALID JUMPDEST MUL OR SWAP1 SSTORE POP POP POP POP POP POP POP JUMP JUMPDEST PUSH1 0x60 DUP1 PUSH1 0x40 MLOAD DUP1 PUSH1 0x40 ADD PUSH1 0x40 MSTORE DUP1 PUSH1 0x18 DUP2 MSTORE PUSH1 0x20 ADD PUSH32 0x436162616C6C6F7320656E206C61206361727265726120230000000000000000 DUP2 MSTORE POP SWAP1 POP PUSH1 0x0 DUP1 SWAP1 POP DUP2 PUSH2 0x11A3 DUP6 PUSH2 0x30F4 JUMP JUMPDEST PUSH1 0x40 MLOAD PUSH1 0x20 ADD DUP1 DUP4 DUP1 MLOAD SWAP1 PUSH1 0x20 ADD SWAP1 DUP1 DUP4 DUP4 JUMPDEST PUSH1 0x20 DUP4 LT PUSH2 0x11D9 JUMPI DUP1 MLOAD DUP3 MSTORE PUSH1 0x20 DUP3 ADD SWAP2 POP PUSH1 0x20 DUP2 ADD SWAP1 POP PUSH1 0x20 DUP4 SUB SWAP3 POP PUSH2 0x11B6 JUMP JUMPDEST PUSH1 0x1 DUP4 PUSH1 0x20 SUB PUSH2 0x100 EXP SUB DUP1 NOT DUP3 MLOAD AND DUP2 DUP5 MLOAD AND DUP1 DUP3 OR DUP6 MSTORE POP POP POP POP POP POP SWAP1 POP ADD DUP3 DUP1 MLOAD SWAP1 PUSH1 0x20 ADD SWAP1 DUP1 DUP4 DUP4 JUMPDEST PUSH1 0x20 DUP4 LT PUSH2 0x122A JUMPI DUP1 MLOAD DUP3 MSTORE PUSH1 0x20 DUP3 ADD SWAP2 POP PUSH1 0x20 DUP2 ADD SWAP1 POP PUSH1 0x20 DUP4 SUB SWAP3 POP PUSH2 0x1207 JUMP JUMPDEST PUSH1 0x1 DUP4 PUSH1 0x20 SUB PUSH2 0x100 EXP SUB DUP1 NOT DUP3 MLOAD AND DUP2 DUP5 MLOAD AND DUP1 DUP3 OR DUP6 MSTORE POP POP POP POP POP POP SWAP1 POP ADD SWAP3 POP POP POP PUSH1 0x40 MLOAD PUSH1 0x20 DUP2 DUP4 SUB SUB DUP2 MSTORE SWAP1 PUSH1 0x40 MSTORE SWAP2 POP DUP2 PUSH1 0x40 MLOAD PUSH1 0x20 ADD DUP1 DUP3 DUP1 MLOAD SWAP1 PUSH1 0x20 ADD SWAP1 DUP1 DUP4 DUP4 JUMPDEST PUSH1 0x20 DUP4 LT PUSH2 0x1298 JUMPI DUP1 MLOAD DUP3 MSTORE PUSH1 0x20 DUP3 ADD SWAP2 POP PUSH1 0x20 DUP2 ADD SWAP1 POP PUSH1 0x20 DUP4 SUB SWAP3 POP PUSH2 0x1275 JUMP JUMPDEST PUSH1 0x1 DUP4 PUSH1 0x20 SUB PUSH2 0x100 EXP SUB DUP1 NOT DUP3 MLOAD AND DUP2 DUP5 MLOAD AND DUP1 DUP3 OR DUP6 MSTORE POP POP POP POP POP POP SWAP1 POP ADD DUP1 PUSH32 0x3A20000000000000000000000000000000000000000000000000000000000000 DUP2 MSTORE POP PUSH1 0x2 ADD SWAP2 POP POP PUSH1 0x40 MLOAD PUSH1 0x20 DUP2 DUP4 SUB SUB DUP2 MSTORE SWAP1 PUSH1 0x40 MSTORE SWAP2 POP PUSH1 0x0 DUP1 SWAP1 POP JUMPDEST PUSH1 0x4 PUSH1 0x0 DUP7 DUP2 MSTORE PUSH1 0x20 ADD SWAP1 DUP2 MSTORE PUSH1 0x20 ADD PUSH1 0x0 KECCAK256 DUP1 SLOAD SWAP1 POP DUP2 LT ISZERO PUSH2 0x14DA JUMPI PUSH1 0x1 SWAP2 POP DUP3 PUSH2 0x1350 PUSH1 0x4 PUSH1 0x0 DUP9 DUP2 MSTORE PUSH1 0x20 ADD SWAP1 DUP2 MSTORE PUSH1 0x20 ADD PUSH1 0x0 KECCAK256 DUP4 DUP2 SLOAD DUP2 LT PUSH2 0x1340 JUMPI INVALID JUMPDEST SWAP1 PUSH1 0x0 MSTORE PUSH1 0x20 PUSH1 0x0 KECCAK256 ADD SLOAD PUSH2 0x30F4 JUMP JUMPDEST PUSH1 0x40 MLOAD PUSH1 0x20 ADD DUP1 DUP4 DUP1 MLOAD SWAP1 PUSH1 0x20 ADD SWAP1 DUP1 DUP4 DUP4 JUMPDEST PUSH1 0x20 DUP4 LT PUSH2 0x1386 JUMPI DUP1 MLOAD DUP3 MSTORE PUSH1 0x20 DUP3 ADD SWAP2 POP PUSH1 0x20 DUP2 ADD SWAP1 POP PUSH1 0x20 DUP4 SUB SWAP3 POP PUSH2 0x1363 JUMP JUMPDEST PUSH1 0x1 DUP4 PUSH1 0x20 SUB PUSH2 0x100 EXP SUB DUP1 NOT DUP3 MLOAD AND DUP2 DUP5 MLOAD AND DUP1 DUP3 OR DUP6 MSTORE POP POP POP POP POP POP SWAP1 POP ADD DUP3 DUP1 MLOAD SWAP1 PUSH1 0x20 ADD SWAP1 DUP1 DUP4 DUP4 JUMPDEST PUSH1 0x20 DUP4 LT PUSH2 0x13D7 JUMPI DUP1 MLOAD DUP3 MSTORE PUSH1 0x20 DUP3 ADD SWAP2 POP PUSH1 0x20 DUP2 ADD SWAP1 POP PUSH1 0x20 DUP4 SUB SWAP3 POP PUSH2 0x13B4 JUMP JUMPDEST PUSH1 0x1 DUP4 PUSH1 0x20 SUB PUSH2 0x100 EXP SUB DUP1 NOT DUP3 MLOAD AND DUP2 DUP5 MLOAD AND DUP1 DUP3 OR DUP6 MSTORE POP POP POP POP POP POP SWAP1 POP ADD SWAP3 POP POP POP PUSH1 0x40 MLOAD PUSH1 0x20 DUP2 DUP4 SUB SUB DUP2 MSTORE SWAP1 PUSH1 0x40 MSTORE SWAP3 POP PUSH1 0x1 PUSH1 0x4 PUSH1 0x0 DUP8 DUP2 MSTORE PUSH1 0x20 ADD SWAP1 DUP2 MSTORE PUSH1 0x20 ADD PUSH1 0x0 KECCAK256 DUP1 SLOAD SWAP1 POP SUB DUP2 EQ PUSH2 0x14C8 JUMPI DUP3 PUSH1 0x40 MLOAD PUSH1 0x20 ADD DUP1 DUP3 DUP1 MLOAD SWAP1 PUSH1 0x20 ADD SWAP1 DUP1 DUP4 DUP4 JUMPDEST PUSH1 0x20 DUP4 LT PUSH2 0x1465 JUMPI DUP1 MLOAD DUP3 MSTORE PUSH1 0x20 DUP3 ADD SWAP2 POP PUSH1 0x20 DUP2 ADD SWAP1 POP PUSH1 0x20 DUP4 SUB SWAP3 POP PUSH2 0x1442 JUMP JUMPDEST PUSH1 0x1 DUP4 PUSH1 0x20 SUB PUSH2 0x100 EXP SUB DUP1 NOT DUP3 MLOAD AND DUP2 DUP5 MLOAD AND DUP1 DUP3 OR DUP6 MSTORE POP POP POP POP POP POP SWAP1 POP ADD DUP1 PUSH32 0x202D200000000000000000000000000000000000000000000000000000000000 DUP2 MSTORE POP PUSH1 0x3 ADD SWAP2 POP POP PUSH1 0x40 MLOAD PUSH1 0x20 DUP2 DUP4 SUB SUB DUP2 MSTORE SWAP1 PUSH1 0x40 MSTORE SWAP3 POP PUSH2 0x14CD JUMP JUMPDEST PUSH2 0x14DA JUMP JUMPDEST DUP1 DUP1 PUSH1 0x1 ADD SWAP2 POP POP PUSH2 0x12FC JUMP JUMPDEST POP DUP1 PUSH2 0x1559 JUMPI DUP2 PUSH1 0x40 MLOAD PUSH1 0x20 ADD DUP1 DUP3 DUP1 MLOAD SWAP1 PUSH1 0x20 ADD SWAP1 DUP1 DUP4 DUP4 JUMPDEST PUSH1 0x20 DUP4 LT PUSH2 0x1517 JUMPI DUP1 MLOAD DUP3 MSTORE PUSH1 0x20 DUP3 ADD SWAP2 POP PUSH1 0x20 DUP2 ADD SWAP1 POP PUSH1 0x20 DUP4 SUB SWAP3 POP PUSH2 0x14F4 JUMP JUMPDEST PUSH1 0x1 DUP4 PUSH1 0x20 SUB PUSH2 0x100 EXP SUB DUP1 NOT DUP3 MLOAD AND DUP2 DUP5 MLOAD AND DUP1 DUP3 OR DUP6 MSTORE POP POP POP POP POP POP SWAP1 POP ADD DUP1 PUSH2 0x339B PUSH1 0x26 SWAP2 CODECOPY PUSH1 0x26 ADD SWAP2 POP POP PUSH1 0x40 MLOAD PUSH1 0x20 DUP2 DUP4 SUB SUB DUP2 MSTORE SWAP1 PUSH1 0x40 MSTORE SWAP2 POP JUMPDEST DUP2 SWAP3 POP POP POP SWAP2 SWAP1 POP JUMP JUMPDEST PUSH1 0x0 DUP1 SWAP1 SLOAD SWAP1 PUSH2 0x100 EXP SWAP1 DIV PUSH20 0xFFFFFFFFFFFFFFFFFFFFFFFFFFFFFFFFFFFFFFFF AND PUSH20 0xFFFFFFFFFFFFFFFFFFFFFFFFFFFFFFFFFFFFFFFF AND CALLER PUSH20 0xFFFFFFFFFFFFFFFFFFFFFFFFFFFFFFFFFFFFFFFF AND EQ PUSH2 0x1608 JUMPI PUSH1 0x40 MLOAD PUSH32 0x8C379A000000000000000000000000000000000000000000000000000000000 DUP2 MSTORE PUSH1 0x4 ADD DUP1 DUP1 PUSH1 0x20 ADD DUP3 DUP2 SUB DUP3 MSTORE PUSH1 0x22 DUP2 MSTORE PUSH1 0x20 ADD DUP1 PUSH2 0x3356 PUSH1 0x22 SWAP2 CODECOPY PUSH1 0x40 ADD SWAP2 POP POP PUSH1 0x40 MLOAD DUP1 SWAP2 SUB SWAP1 REVERT JUMPDEST DUP1 PUSH1 0x0 DUP1 PUSH1 0x2 DUP2 GT ISZERO PUSH2 0x1617 JUMPI INVALID JUMPDEST PUSH1 0x2 PUSH1 0x0 DUP5 DUP2 MSTORE PUSH1 0x20 ADD SWAP1 DUP2 MSTORE PUSH1 0x20 ADD PUSH1 0x0 KECCAK256 PUSH1 0x2 ADD PUSH1 0x0 SWAP1 SLOAD SWAP1 PUSH2 0x100 EXP SWAP1 DIV PUSH1 0xFF AND PUSH1 0x2 DUP2 GT ISZERO PUSH2 0x1646 JUMPI INVALID JUMPDEST EQ PUSH2 0x169C JUMPI PUSH1 0x40 MLOAD PUSH32 0x8C379A000000000000000000000000000000000000000000000000000000000 DUP2 MSTORE PUSH1 0x4 ADD DUP1 DUP1 PUSH1 0x20 ADD DUP3 DUP2 SUB DUP3 MSTORE PUSH1 0x2C DUP2 MSTORE PUSH1 0x20 ADD DUP1 PUSH2 0x34B4 PUSH1 0x2C SWAP2 CODECOPY PUSH1 0x40 ADD SWAP2 POP POP PUSH1 0x40 MLOAD DUP1 SWAP2 SUB SWAP1 REVERT JUMPDEST DUP3 PUSH1 0x5 PUSH1 0x4 PUSH1 0x0 DUP4 DUP2 MSTORE PUSH1 0x20 ADD SWAP1 DUP2 MSTORE PUSH1 0x20 ADD PUSH1 0x0 KECCAK256 DUP1 SLOAD SWAP1 POP LT PUSH2 0x170C JUMPI PUSH1 0x40 MLOAD PUSH32 0x8C379A000000000000000000000000000000000000000000000000000000000 DUP2 MSTORE PUSH1 0x4 ADD DUP1 DUP1 PUSH1 0x20 ADD DUP3 DUP2 SUB DUP3 MSTORE PUSH1 0x23 DUP2 MSTORE PUSH1 0x20 ADD DUP1 PUSH2 0x3378 PUSH1 0x23 SWAP2 CODECOPY PUSH1 0x40 ADD SWAP2 POP POP PUSH1 0x40 MLOAD DUP1 SWAP2 SUB SWAP1 REVERT JUMPDEST DUP5 PUSH1 0x0 PUSH1 0x3 PUSH1 0x0 DUP4 DUP2 MSTORE PUSH1 0x20 ADD SWAP1 DUP2 MSTORE PUSH1 0x20 ADD PUSH1 0x0 KECCAK256 PUSH1 0x1 ADD DUP1 SLOAD PUSH1 0x1 DUP2 PUSH1 0x1 AND ISZERO PUSH2 0x100 MUL SUB AND PUSH1 0x2 SWAP1 DIV SWAP1 POP EQ ISZERO PUSH2 0x17AE JUMPI PUSH1 0x40 MLOAD PUSH32 0x8C379A000000000000000000000000000000000000000000000000000000000 DUP2 MSTORE PUSH1 0x4 ADD DUP1 DUP1 PUSH1 0x20 ADD DUP3 DUP2 SUB DUP3 MSTORE PUSH1 0x1E DUP2 MSTORE PUSH1 0x20 ADD DUP1 PUSH32 0x456C20636162616C6C6F20696E6772657361646F206E6F206578697374650000 DUP2 MSTORE POP PUSH1 0x20 ADD SWAP2 POP POP PUSH1 0x40 MLOAD DUP1 SWAP2 SUB SWAP1 REVERT JUMPDEST DUP5 PUSH1 0x0 PUSH1 0x2 PUSH1 0x0 DUP4 DUP2 MSTORE PUSH1 0x20 ADD SWAP1 DUP2 MSTORE PUSH1 0x20 ADD PUSH1 0x0 KECCAK256 PUSH1 0x1 ADD DUP1 SLOAD PUSH1 0x1 DUP2 PUSH1 0x1 AND ISZERO PUSH2 0x100 MUL SUB AND PUSH1 0x2 SWAP1 DIV SWAP1 POP EQ ISZERO PUSH2 0x1850 JUMPI PUSH1 0x40 MLOAD PUSH32 0x8C379A000000000000000000000000000000000000000000000000000000000 DUP2 MSTORE PUSH1 0x4 ADD DUP1 DUP1 PUSH1 0x20 ADD DUP3 DUP2 SUB DUP3 MSTORE PUSH1 0x1E DUP2 MSTORE PUSH1 0x20 ADD DUP1 PUSH32 0x4C61206361727265726120696E67726573616461206E6F206578697374650000 DUP2 MSTORE POP PUSH1 0x20 ADD SWAP2 POP POP PUSH1 0x40 MLOAD DUP1 SWAP2 SUB SWAP1 REVERT JUMPDEST DUP6 DUP8 PUSH1 0x0 PUSH1 0x4 PUSH1 0x0 DUP5 DUP2 MSTORE PUSH1 0x20 ADD SWAP1 DUP2 MSTORE PUSH1 0x20 ADD PUSH1 0x0 KECCAK256 DUP1 SLOAD SWAP1 POP SWAP1 POP PUSH1 0x0 DUP1 SWAP1 POP PUSH1 0x0 DUP1 SWAP1 POP JUMPDEST DUP3 DUP2 LT ISZERO PUSH2 0x18C6 JUMPI DUP4 PUSH1 0x4 PUSH1 0x0 DUP8 DUP2 MSTORE PUSH1 0x20 ADD SWAP1 DUP2 MSTORE PUSH1 0x20 ADD PUSH1 0x0 KECCAK256 DUP3 DUP2 SLOAD DUP2 LT PUSH2 0x189F JUMPI INVALID JUMPDEST SWAP1 PUSH1 0x0 MSTORE PUSH1 0x20 PUSH1 0x0 KECCAK256 ADD SLOAD EQ ISZERO PUSH2 0x18B9 JUMPI PUSH1 0x1 SWAP2 POP PUSH2 0x18C6 JUMP JUMPDEST DUP1 DUP1 PUSH1 0x1 ADD SWAP2 POP POP PUSH2 0x1878 JUMP JUMPDEST POP DUP1 ISZERO PUSH2 0x191E JUMPI PUSH1 0x40 MLOAD PUSH32 0x8C379A000000000000000000000000000000000000000000000000000000000 DUP2 MSTORE PUSH1 0x4 ADD DUP1 DUP1 PUSH1 0x20 ADD DUP3 DUP2 SUB DUP3 MSTORE PUSH1 0x37 DUP2 MSTORE PUSH1 0x20 ADD DUP1 PUSH2 0x347D PUSH1 0x37 SWAP2 CODECOPY PUSH1 0x40 ADD SWAP2 POP POP PUSH1 0x40 MLOAD DUP1 SWAP2 SUB SWAP1 REVERT JUMPDEST PUSH1 0x4 PUSH1 0x0 DUP12 DUP2 MSTORE PUSH1 0x20 ADD SWAP1 DUP2 MSTORE PUSH1 0x20 ADD PUSH1 0x0 KECCAK256 DUP12 SWAP1 DUP1 PUSH1 0x1 DUP2 SLOAD ADD DUP1 DUP3 SSTORE DUP1 SWAP2 POP POP PUSH1 0x1 SWAP1 SUB SWAP1 PUSH1 0x0 MSTORE PUSH1 0x20 PUSH1 0x0 KECCAK256 ADD PUSH1 0x0 SWAP1 SWAP2 SWAP1 SWAP2 SWAP1 SWAP2 POP SSTORE PUSH1 0x1 PUSH1 0x2 PUSH1 0x0 DUP13 DUP2 MSTORE PUSH1 0x20 ADD SWAP1 DUP2 MSTORE PUSH1 0x20 ADD PUSH1 0x0 KECCAK256 PUSH1 0x4 ADD PUSH1 0x0 DUP3 DUP3 SLOAD ADD SWAP3 POP POP DUP2 SWAP1 SSTORE POP POP POP POP POP POP POP POP POP POP POP POP JUMP JUMPDEST PUSH1 0x60 DUP1 PUSH1 0x40 MLOAD DUP1 PUSH1 0x40 ADD PUSH1 0x40 MSTORE DUP1 PUSH1 0x19 DUP2 MSTORE PUSH1 0x20 ADD PUSH32 0x47616E61646F72657320656E206C612063617272657261202300000000000000 DUP2 MSTORE POP SWAP1 POP PUSH1 0x0 DUP1 SWAP1 POP DUP2 PUSH2 0x19D4 DUP6 PUSH2 0x30F4 JUMP JUMPDEST PUSH1 0x40 MLOAD PUSH1 0x20 ADD DUP1 DUP4 DUP1 MLOAD SWAP1 PUSH1 0x20 ADD SWAP1 DUP1 DUP4 DUP4 JUMPDEST PUSH1 0x20 DUP4 LT PUSH2 0x1A0A JUMPI DUP1 MLOAD DUP3 MSTORE PUSH1 0x20 DUP3 ADD SWAP2 POP PUSH1 0x20 DUP2 ADD SWAP1 POP PUSH1 0x20 DUP4 SUB SWAP3 POP PUSH2 0x19E7 JUMP JUMPDEST PUSH1 0x1 DUP4 PUSH1 0x20 SUB PUSH2 0x100 EXP SUB DUP1 NOT DUP3 MLOAD AND DUP2 DUP5 MLOAD AND DUP1 DUP3 OR DUP6 MSTORE POP POP POP POP POP POP SWAP1 POP ADD DUP3 DUP1 MLOAD SWAP1 PUSH1 0x20 ADD SWAP1 DUP1 DUP4 DUP4 JUMPDEST PUSH1 0x20 DUP4 LT PUSH2 0x1A5B JUMPI DUP1 MLOAD DUP3 MSTORE PUSH1 0x20 DUP3 ADD SWAP2 POP PUSH1 0x20 DUP2 ADD SWAP1 POP PUSH1 0x20 DUP4 SUB SWAP3 POP PUSH2 0x1A38 JUMP JUMPDEST PUSH1 0x1 DUP4 PUSH1 0x20 SUB PUSH2 0x100 EXP SUB DUP1 NOT DUP3 MLOAD AND DUP2 DUP5 MLOAD AND DUP1 DUP3 OR DUP6 MSTORE POP POP POP POP POP POP SWAP1 POP ADD SWAP3 POP POP POP PUSH1 0x40 MLOAD PUSH1 0x20 DUP2 DUP4 SUB SUB DUP2 MSTORE SWAP1 PUSH1 0x40 MSTORE SWAP2 POP DUP2 PUSH1 0x40 MLOAD PUSH1 0x20 ADD DUP1 DUP3 DUP1 MLOAD SWAP1 PUSH1 0x20 ADD SWAP1 DUP1 DUP4 DUP4 JUMPDEST PUSH1 0x20 DUP4 LT PUSH2 0x1AC9 JUMPI DUP1 MLOAD DUP3 MSTORE PUSH1 0x20 DUP3 ADD SWAP2 POP PUSH1 0x20 DUP2 ADD SWAP1 POP PUSH1 0x20 DUP4 SUB SWAP3 POP PUSH2 0x1AA6 JUMP JUMPDEST PUSH1 0x1 DUP4 PUSH1 0x20 SUB PUSH2 0x100 EXP SUB DUP1 NOT DUP3 MLOAD AND DUP2 DUP5 MLOAD AND DUP1 DUP3 OR DUP6 MSTORE POP POP POP POP POP POP SWAP1 POP ADD DUP1 PUSH32 0x3A20000000000000000000000000000000000000000000000000000000000000 DUP2 MSTORE POP PUSH1 0x2 ADD SWAP2 POP POP PUSH1 0x40 MLOAD PUSH1 0x20 DUP2 DUP4 SUB SUB DUP2 MSTORE SWAP1 PUSH1 0x40 MSTORE SWAP2 POP PUSH1 0x0 DUP1 SWAP1 POP JUMPDEST PUSH1 0x5 PUSH1 0x0 DUP7 DUP2 MSTORE PUSH1 0x20 ADD SWAP1 DUP2 MSTORE PUSH1 0x20 ADD PUSH1 0x0 KECCAK256 DUP1 SLOAD SWAP1 POP DUP2 LT ISZERO PUSH2 0x1FED JUMPI PUSH1 0x0 PUSH1 0x2 PUSH1 0x0 DUP8 DUP2 MSTORE PUSH1 0x20 ADD SWAP1 DUP2 MSTORE PUSH1 0x20 ADD PUSH1 0x0 KECCAK256 PUSH1 0x6 ADD PUSH1 0x0 PUSH1 0x5 PUSH1 0x0 DUP10 DUP2 MSTORE PUSH1 0x20 ADD SWAP1 DUP2 MSTORE PUSH1 0x20 ADD PUSH1 0x0 KECCAK256 DUP5 DUP2 SLOAD DUP2 LT PUSH2 0x1B83 JUMPI INVALID JUMPDEST SWAP1 PUSH1 0x0 MSTORE PUSH1 0x20 PUSH1 0x0 KECCAK256 ADD PUSH1 0x0 SWAP1 SLOAD SWAP1 PUSH2 0x100 EXP SWAP1 DIV PUSH20 0xFFFFFFFFFFFFFFFFFFFFFFFFFFFFFFFFFFFFFFFF AND PUSH20 0xFFFFFFFFFFFFFFFFFFFFFFFFFFFFFFFFFFFFFFFF AND PUSH20 0xFFFFFFFFFFFFFFFFFFFFFFFFFFFFFFFFFFFFFFFF AND DUP2 MSTORE PUSH1 0x20 ADD SWAP1 DUP2 MSTORE PUSH1 0x20 ADD PUSH1 0x0 KECCAK256 PUSH1 0x4 ADD SLOAD SWAP1 POP PUSH1 0x0 DUP2 EQ PUSH2 0x1FDF JUMPI PUSH1 0x1 SWAP3 POP DUP4 PUSH1 0x40 MLOAD PUSH1 0x20 ADD DUP1 DUP3 DUP1 MLOAD SWAP1 PUSH1 0x20 ADD SWAP1 DUP1 DUP4 DUP4 JUMPDEST PUSH1 0x20 DUP4 LT PUSH2 0x1C31 JUMPI DUP1 MLOAD DUP3 MSTORE PUSH1 0x20 DUP3 ADD SWAP2 POP PUSH1 0x20 DUP2 ADD SWAP1 POP PUSH1 0x20 DUP4 SUB SWAP3 POP PUSH2 0x1C0E JUMP JUMPDEST PUSH1 0x1 DUP4 PUSH1 0x20 SUB PUSH2 0x100 EXP SUB DUP1 NOT DUP3 MLOAD AND DUP2 DUP5 MLOAD AND DUP1 DUP3 OR DUP6 MSTORE POP POP POP POP POP POP SWAP1 POP ADD DUP1 PUSH32 0x41706F737461646F722023000000000000000000000000000000000000000000 DUP2 MSTORE POP PUSH1 0xB ADD SWAP2 POP POP PUSH1 0x40 MLOAD PUSH1 0x20 DUP2 DUP4 SUB SUB DUP2 MSTORE SWAP1 PUSH1 0x40 MSTORE SWAP4 POP DUP4 PUSH2 0x1C99 DUP4 PUSH2 0x30F4 JUMP JUMPDEST PUSH1 0x40 MLOAD PUSH1 0x20 ADD DUP1 DUP4 DUP1 MLOAD SWAP1 PUSH1 0x20 ADD SWAP1 DUP1 DUP4 DUP4 JUMPDEST PUSH1 0x20 DUP4 LT PUSH2 0x1CCF JUMPI DUP1 MLOAD DUP3 MSTORE PUSH1 0x20 DUP3 ADD SWAP2 POP PUSH1 0x20 DUP2 ADD SWAP1 POP PUSH1 0x20 DUP4 SUB SWAP3 POP PUSH2 0x1CAC JUMP JUMPDEST PUSH1 0x1 DUP4 PUSH1 0x20 SUB PUSH2 0x100 EXP SUB DUP1 NOT DUP3 MLOAD AND DUP2 DUP5 MLOAD AND DUP1 DUP3 OR DUP6 MSTORE POP POP POP POP POP POP SWAP1 POP ADD DUP3 DUP1 MLOAD SWAP1 PUSH1 0x20 ADD SWAP1 DUP1 DUP4 DUP4 JUMPDEST PUSH1 0x20 DUP4 LT PUSH2 0x1D20 JUMPI DUP1 MLOAD DUP3 MSTORE PUSH1 0x20 DUP3 ADD SWAP2 POP PUSH1 0x20 DUP2 ADD SWAP1 POP PUSH1 0x20 DUP4 SUB SWAP3 POP PUSH2 0x1CFD JUMP JUMPDEST PUSH1 0x1 DUP4 PUSH1 0x20 SUB PUSH2 0x100 EXP SUB DUP1 NOT DUP3 MLOAD AND DUP2 DUP5 MLOAD AND DUP1 DUP3 OR DUP6 MSTORE POP POP POP POP POP POP SWAP1 POP ADD SWAP3 POP POP POP PUSH1 0x40 MLOAD PUSH1 0x20 DUP2 DUP4 SUB SUB DUP2 MSTORE SWAP1 PUSH1 0x40 MSTORE SWAP4 POP DUP4 PUSH1 0x40 MLOAD PUSH1 0x20 ADD DUP1 DUP3 DUP1 MLOAD SWAP1 PUSH1 0x20 ADD SWAP1 DUP1 DUP4 DUP4 JUMPDEST PUSH1 0x20 DUP4 LT PUSH2 0x1D8E JUMPI DUP1 MLOAD DUP3 MSTORE PUSH1 0x20 DUP3 ADD SWAP2 POP PUSH1 0x20 DUP2 ADD SWAP1 POP PUSH1 0x20 DUP4 SUB SWAP3 POP PUSH2 0x1D6B JUMP JUMPDEST PUSH1 0x1 DUP4 PUSH1 0x20 SUB PUSH2 0x100 EXP SUB DUP1 NOT DUP3 MLOAD AND DUP2 DUP5 MLOAD AND DUP1 DUP3 OR DUP6 MSTORE POP POP POP POP POP POP SWAP1 POP ADD DUP1 PUSH32 0x2D00000000000000000000000000000000000000000000000000000000000000 DUP2 MSTORE POP PUSH1 0x1 ADD SWAP2 POP POP PUSH1 0x40 MLOAD PUSH1 0x20 DUP2 DUP4 SUB SUB DUP2 MSTORE SWAP1 PUSH1 0x40 MSTORE SWAP4 POP DUP4 PUSH1 0x40 MLOAD PUSH1 0x20 ADD DUP1 DUP3 DUP1 MLOAD SWAP1 PUSH1 0x20 ADD SWAP1 DUP1 DUP4 DUP4 JUMPDEST PUSH1 0x20 DUP4 LT PUSH2 0x1E23 JUMPI DUP1 MLOAD DUP3 MSTORE PUSH1 0x20 DUP3 ADD SWAP2 POP PUSH1 0x20 DUP2 ADD SWAP1 POP PUSH1 0x20 DUP4 SUB SWAP3 POP PUSH2 0x1E00 JUMP JUMPDEST PUSH1 0x1 DUP4 PUSH1 0x20 SUB PUSH2 0x100 EXP SUB DUP1 NOT DUP3 MLOAD AND DUP2 DUP5 MLOAD AND DUP1 DUP3 OR DUP6 MSTORE POP POP POP POP POP POP SWAP1 POP ADD DUP1 PUSH32 0x47616E6F3A200000000000000000000000000000000000000000000000000000 DUP2 MSTORE POP PUSH1 0x6 ADD SWAP2 POP POP PUSH1 0x40 MLOAD PUSH1 0x20 DUP2 DUP4 SUB SUB DUP2 MSTORE SWAP1 PUSH1 0x40 MSTORE SWAP4 POP DUP4 PUSH2 0x1E8B DUP3 PUSH2 0x30F4 JUMP JUMPDEST PUSH1 0x40 MLOAD PUSH1 0x20 ADD DUP1 DUP4 DUP1 MLOAD SWAP1 PUSH1 0x20 ADD SWAP1 DUP1 DUP4 DUP4 JUMPDEST PUSH1 0x20 DUP4 LT PUSH2 0x1EC1 JUMPI DUP1 MLOAD DUP3 MSTORE PUSH1 0x20 DUP3 ADD SWAP2 POP PUSH1 0x20 DUP2 ADD SWAP1 POP PUSH1 0x20 DUP4 SUB SWAP3 POP PUSH2 0x1E9E JUMP JUMPDEST PUSH1 0x1 DUP4 PUSH1 0x20 SUB PUSH2 0x100 EXP SUB DUP1 NOT DUP3 MLOAD AND DUP2 DUP5 MLOAD AND DUP1 DUP3 OR DUP6 MSTORE POP POP POP POP POP POP SWAP1 POP ADD DUP3 DUP1 MLOAD SWAP1 PUSH1 0x20 ADD SWAP1 DUP1 DUP4 DUP4 JUMPDEST PUSH1 0x20 DUP4 LT PUSH2 0x1F12 JUMPI DUP1 MLOAD DUP3 MSTORE PUSH1 0x20 DUP3 ADD SWAP2 POP PUSH1 0x20 DUP2 ADD SWAP1 POP PUSH1 0x20 DUP4 SUB SWAP3 POP PUSH2 0x1EEF JUMP JUMPDEST PUSH1 0x1 DUP4 PUSH1 0x20 SUB PUSH2 0x100 EXP SUB DUP1 NOT DUP3 MLOAD AND DUP2 DUP5 MLOAD AND DUP1 DUP3 OR DUP6 MSTORE POP POP POP POP POP POP SWAP1 POP ADD SWAP3 POP POP POP PUSH1 0x40 MLOAD PUSH1 0x20 DUP2 DUP4 SUB SUB DUP2 MSTORE SWAP1 PUSH1 0x40 MSTORE SWAP4 POP DUP4 PUSH1 0x40 MLOAD PUSH1 0x20 ADD DUP1 DUP3 DUP1 MLOAD SWAP1 PUSH1 0x20 ADD SWAP1 DUP1 DUP4 DUP4 JUMPDEST PUSH1 0x20 DUP4 LT PUSH2 0x1F80 JUMPI DUP1 MLOAD DUP3 MSTORE PUSH1 0x20 DUP3 ADD SWAP2 POP PUSH1 0x20 DUP2 ADD SWAP1 POP PUSH1 0x20 DUP4 SUB SWAP3 POP PUSH2 0x1F5D JUMP JUMPDEST PUSH1 0x1 DUP4 PUSH1 0x20 SUB PUSH2 0x100 EXP SUB DUP1 NOT DUP3 MLOAD AND DUP2 DUP5 MLOAD AND DUP1 DUP3 OR DUP6 MSTORE POP POP POP POP POP POP SWAP1 POP ADD DUP1 PUSH32 0x2020000000000000000000000000000000000000000000000000000000000000 DUP2 MSTORE POP PUSH1 0x2 ADD SWAP2 POP POP PUSH1 0x40 MLOAD PUSH1 0x20 DUP2 DUP4 SUB SUB DUP2 MSTORE SWAP1 PUSH1 0x40 MSTORE SWAP4 POP JUMPDEST POP DUP1 DUP1 PUSH1 0x1 ADD SWAP2 POP POP PUSH2 0x1B2D JUMP JUMPDEST POP DUP2 SWAP3 POP POP POP SWAP2 SWAP1 POP JUMP JUMPDEST PUSH1 0x0 DUP1 SWAP1 SLOAD SWAP1 PUSH2 0x100 EXP SWAP1 DIV PUSH20 0xFFFFFFFFFFFFFFFFFFFFFFFFFFFFFFFFFFFFFFFF AND DUP2 JUMP JUMPDEST PUSH1 0x0 DUP1 SWAP1 SLOAD SWAP1 PUSH2 0x100 EXP SWAP1 DIV PUSH20 0xFFFFFFFFFFFFFFFFFFFFFFFFFFFFFFFFFFFFFFFF AND PUSH20 0xFFFFFFFFFFFFFFFFFFFFFFFFFFFFFFFFFFFFFFFF AND CALLER PUSH20 0xFFFFFFFFFFFFFFFFFFFFFFFFFFFFFFFFFFFFFFFF AND EQ PUSH2 0x20C2 JUMPI PUSH1 0x40 MLOAD PUSH32 0x8C379A000000000000000000000000000000000000000000000000000000000 DUP2 MSTORE PUSH1 0x4 ADD DUP1 DUP1 PUSH1 0x20 ADD DUP3 DUP2 SUB DUP3 MSTORE PUSH1 0x22 DUP2 MSTORE PUSH1 0x20 ADD DUP1 PUSH2 0x3356 PUSH1 0x22 SWAP2 CODECOPY PUSH1 0x40 ADD SWAP2 POP POP PUSH1 0x40 MLOAD DUP1 SWAP2 SUB SWAP1 REVERT JUMPDEST DUP2 PUSH1 0x0 PUSH1 0x3 PUSH1 0x0 DUP4 DUP2 MSTORE PUSH1 0x20 ADD SWAP1 DUP2 MSTORE PUSH1 0x20 ADD PUSH1 0x0 KECCAK256 PUSH1 0x1 ADD DUP1 SLOAD PUSH1 0x1 DUP2 PUSH1 0x1 AND ISZERO PUSH2 0x100 MUL SUB AND PUSH1 0x2 SWAP1 DIV SWAP1 POP EQ PUSH2 0x2146 JUMPI PUSH1 0x40 MLOAD PUSH32 0x8C379A000000000000000000000000000000000000000000000000000000000 DUP2 MSTORE PUSH1 0x4 ADD DUP1 DUP1 PUSH1 0x20 ADD DUP3 DUP2 SUB DUP3 MSTORE PUSH1 0x25 DUP2 MSTORE PUSH1 0x20 ADD DUP1 PUSH2 0x3458 PUSH1 0x25 SWAP2 CODECOPY PUSH1 0x40 ADD SWAP2 POP POP PUSH1 0x40 MLOAD DUP1 SWAP2 SUB SWAP1 REVERT JUMPDEST PUSH1 0x40 MLOAD DUP1 PUSH1 0x40 ADD PUSH1 0x40 MSTORE DUP1 DUP5 DUP2 MSTORE PUSH1 0x20 ADD DUP4 DUP2 MSTORE POP PUSH1 0x3 PUSH1 0x0 DUP6 DUP2 MSTORE PUSH1 0x20 ADD SWAP1 DUP2 MSTORE PUSH1 0x20 ADD PUSH1 0x0 KECCAK256 PUSH1 0x0 DUP3 ADD MLOAD DUP2 PUSH1 0x0 ADD SSTORE PUSH1 0x20 DUP3 ADD MLOAD DUP2 PUSH1 0x1 ADD SWAP1 DUP1 MLOAD SWAP1 PUSH1 0x20 ADD SWAP1 PUSH2 0x2194 SWAP3 SWAP2 SWAP1 PUSH2 0x3221 JUMP JUMPDEST POP SWAP1 POP POP POP POP POP JUMP JUMPDEST PUSH1 0x2 PUSH1 0x20 MSTORE DUP1 PUSH1 0x0 MSTORE PUSH1 0x40 PUSH1 0x0 KECCAK256 PUSH1 0x0 SWAP2 POP SWAP1 POP DUP1 PUSH1 0x0 ADD SLOAD SWAP1 DUP1 PUSH1 0x1 ADD DUP1 SLOAD PUSH1 0x1 DUP2 PUSH1 0x1 AND ISZERO PUSH2 0x100 MUL SUB AND PUSH1 0x2 SWAP1 DIV DUP1 PUSH1 0x1F ADD PUSH1 0x20 DUP1 SWAP2 DIV MUL PUSH1 0x20 ADD PUSH1 0x40 MLOAD SWAP1 DUP2 ADD PUSH1 0x40 MSTORE DUP1 SWAP3 SWAP2 SWAP1 DUP2 DUP2 MSTORE PUSH1 0x20 ADD DUP3 DUP1 SLOAD PUSH1 0x1 DUP2 PUSH1 0x1 AND ISZERO PUSH2 0x100 MUL SUB AND PUSH1 0x2 SWAP1 DIV DUP1 ISZERO PUSH2 0x224F JUMPI DUP1 PUSH1 0x1F LT PUSH2 0x2224 JUMPI PUSH2 0x100 DUP1 DUP4 SLOAD DIV MUL DUP4 MSTORE SWAP2 PUSH1 0x20 ADD SWAP2 PUSH2 0x224F JUMP JUMPDEST DUP3 ADD SWAP2 SWAP1 PUSH1 0x0 MSTORE PUSH1 0x20 PUSH1 0x0 KECCAK256 SWAP1 JUMPDEST DUP2 SLOAD DUP2 MSTORE SWAP1 PUSH1 0x1 ADD SWAP1 PUSH1 0x20 ADD DUP1 DUP4 GT PUSH2 0x2232 JUMPI DUP3 SWAP1 SUB PUSH1 0x1F AND DUP3 ADD SWAP2 JUMPDEST POP POP POP POP POP SWAP1 DUP1 PUSH1 0x2 ADD PUSH1 0x0 SWAP1 SLOAD SWAP1 PUSH2 0x100 EXP SWAP1 DIV PUSH1 0xFF AND SWAP1 DUP1 PUSH1 0x3 ADD SLOAD SWAP1 DUP1 PUSH1 0x4 ADD SLOAD SWAP1 DUP1 PUSH1 0x5 ADD SLOAD SWAP1 POP DUP7 JUMP JUMPDEST PUSH1 0x0 PUSH1 0x2 PUSH1 0x0 DUP4 DUP2 MSTORE PUSH1 0x20 ADD SWAP1 DUP2 MSTORE PUSH1 0x20 ADD PUSH1 0x0 KECCAK256 PUSH1 0x5 ADD SLOAD SWAP1 POP SWAP2 SWAP1 POP JUMP JUMPDEST PUSH1 0x5 PUSH1 0x20 MSTORE DUP2 PUSH1 0x0 MSTORE PUSH1 0x40 PUSH1 0x0 KECCAK256 DUP2 DUP2 SLOAD DUP2 LT PUSH2 0x22B7 JUMPI INVALID JUMPDEST SWAP1 PUSH1 0x0 MSTORE PUSH1 0x20 PUSH1 0x0 KECCAK256 ADD PUSH1 0x0 SWAP2 POP SWAP2 POP SWAP1 SLOAD SWAP1 PUSH2 0x100 EXP SWAP1 DIV PUSH20 0xFFFFFFFFFFFFFFFFFFFFFFFFFFFFFFFFFFFFFFFF AND DUP2 JUMP JUMPDEST PUSH1 0x60 PUSH1 0x0 PUSH1 0x2 DUP2 GT ISZERO PUSH2 0x22F8 JUMPI INVALID JUMPDEST PUSH1 0x2 PUSH1 0x0 DUP5 DUP2 MSTORE PUSH1 0x20 ADD SWAP1 DUP2 MSTORE PUSH1 0x20 ADD PUSH1 0x0 KECCAK256 PUSH1 0x2 ADD PUSH1 0x0 SWAP1 SLOAD SWAP1 PUSH2 0x100 EXP SWAP1 DIV PUSH1 0xFF AND PUSH1 0x2 DUP2 GT ISZERO PUSH2 0x2327 JUMPI INVALID JUMPDEST EQ ISZERO PUSH2 0x236A JUMPI PUSH1 0x40 MLOAD DUP1 PUSH1 0x40 ADD PUSH1 0x40 MSTORE DUP1 PUSH1 0x6 DUP2 MSTORE PUSH1 0x20 ADD PUSH32 0x4372656164610000000000000000000000000000000000000000000000000000 DUP2 MSTORE POP SWAP1 POP PUSH2 0x2422 JUMP JUMPDEST PUSH1 0x1 PUSH1 0x2 DUP2 GT ISZERO PUSH2 0x2377 JUMPI INVALID JUMPDEST PUSH1 0x2 PUSH1 0x0 DUP5 DUP2 MSTORE PUSH1 0x20 ADD SWAP1 DUP2 MSTORE PUSH1 0x20 ADD PUSH1 0x0 KECCAK256 PUSH1 0x2 ADD PUSH1 0x0 SWAP1 SLOAD SWAP1 PUSH2 0x100 EXP SWAP1 DIV PUSH1 0xFF AND PUSH1 0x2 DUP2 GT ISZERO PUSH2 0x23A6 JUMPI INVALID JUMPDEST EQ ISZERO PUSH2 0x23E9 JUMPI PUSH1 0x40 MLOAD DUP1 PUSH1 0x40 ADD PUSH1 0x40 MSTORE DUP1 PUSH1 0xA DUP2 MSTORE PUSH1 0x20 ADD PUSH32 0x5265676973747261646100000000000000000000000000000000000000000000 DUP2 MSTORE POP SWAP1 POP PUSH2 0x2422 JUMP JUMPDEST PUSH1 0x40 MLOAD DUP1 PUSH1 0x40 ADD PUSH1 0x40 MSTORE DUP1 PUSH1 0x9 DUP2 MSTORE PUSH1 0x20 ADD PUSH32 0x5465726D696E6164610000000000000000000000000000000000000000000000 DUP2 MSTORE POP SWAP1 POP JUMPDEST SWAP2 SWAP1 POP JUMP JUMPDEST PUSH1 0x1 SLOAD DUP2 JUMP JUMPDEST PUSH1 0x3 PUSH1 0x20 MSTORE DUP1 PUSH1 0x0 MSTORE PUSH1 0x40 PUSH1 0x0 KECCAK256 PUSH1 0x0 SWAP2 POP SWAP1 POP DUP1 PUSH1 0x0 ADD SLOAD SWAP1 DUP1 PUSH1 0x1 ADD DUP1 SLOAD PUSH1 0x1 DUP2 PUSH1 0x1 AND ISZERO PUSH2 0x100 MUL SUB AND PUSH1 0x2 SWAP1 DIV DUP1 PUSH1 0x1F ADD PUSH1 0x20 DUP1 SWAP2 DIV MUL PUSH1 0x20 ADD PUSH1 0x40 MLOAD SWAP1 DUP2 ADD PUSH1 0x40 MSTORE DUP1 SWAP3 SWAP2 SWAP1 DUP2 DUP2 MSTORE PUSH1 0x20 ADD DUP3 DUP1 SLOAD PUSH1 0x1 DUP2 PUSH1 0x1 AND ISZERO PUSH2 0x100 MUL SUB AND PUSH1 0x2 SWAP1 DIV DUP1 ISZERO PUSH2 0x24DF JUMPI DUP1 PUSH1 0x1F LT PUSH2 0x24B4 JUMPI PUSH2 0x100 DUP1 DUP4 SLOAD DIV MUL DUP4 MSTORE SWAP2 PUSH1 0x20 ADD SWAP2 PUSH2 0x24DF JUMP JUMPDEST DUP3 ADD SWAP2 SWAP1 PUSH1 0x0 MSTORE PUSH1 0x20 PUSH1 0x0 KECCAK256 SWAP1 JUMPDEST DUP2 SLOAD DUP2 MSTORE SWAP1 PUSH1 0x1 ADD SWAP1 PUSH1 0x20 ADD DUP1 DUP4 GT PUSH2 0x24C2 JUMPI DUP3 SWAP1 SUB PUSH1 0x1F AND DUP3 ADD SWAP2 JUMPDEST POP POP POP POP POP SWAP1 POP DUP3 JUMP JUMPDEST PUSH1 0x0 DUP1 SWAP1 SLOAD SWAP1 PUSH2 0x100 EXP SWAP1 DIV PUSH20 0xFFFFFFFFFFFFFFFFFFFFFFFFFFFFFFFFFFFFFFFF AND PUSH20 0xFFFFFFFFFFFFFFFFFFFFFFFFFFFFFFFFFFFFFFFF AND CALLER PUSH20 0xFFFFFFFFFFFFFFFFFFFFFFFFFFFFFFFFFFFFFFFF AND EQ ISZERO PUSH2 0x258F JUMPI PUSH1 0x40 MLOAD PUSH32 0x8C379A000000000000000000000000000000000000000000000000000000000 DUP2 MSTORE PUSH1 0x4 ADD DUP1 DUP1 PUSH1 0x20 ADD DUP3 DUP2 SUB DUP3 MSTORE PUSH1 0x37 DUP2 MSTORE PUSH1 0x20 ADD DUP1 PUSH2 0x3421 PUSH1 0x37 SWAP2 CODECOPY PUSH1 0x40 ADD SWAP2 POP POP PUSH1 0x40 MLOAD DUP1 SWAP2 SUB SWAP1 REVERT JUMPDEST DUP1 PUSH1 0x1 DUP1 PUSH1 0x2 DUP2 GT ISZERO PUSH2 0x259E JUMPI INVALID JUMPDEST PUSH1 0x2 PUSH1 0x0 DUP5 DUP2 MSTORE PUSH1 0x20 ADD SWAP1 DUP2 MSTORE PUSH1 0x20 ADD PUSH1 0x0 KECCAK256 PUSH1 0x2 ADD PUSH1 0x0 SWAP1 SLOAD SWAP1 PUSH2 0x100 EXP SWAP1 DIV PUSH1 0xFF AND PUSH1 0x2 DUP2 GT ISZERO PUSH2 0x25CD JUMPI INVALID JUMPDEST EQ PUSH2 0x2623 JUMPI PUSH1 0x40 MLOAD PUSH32 0x8C379A000000000000000000000000000000000000000000000000000000000 DUP2 MSTORE PUSH1 0x4 ADD DUP1 DUP1 PUSH1 0x20 ADD DUP3 DUP2 SUB DUP3 MSTORE PUSH1 0x2C DUP2 MSTORE PUSH1 0x20 ADD DUP1 PUSH2 0x34B4 PUSH1 0x2C SWAP2 CODECOPY PUSH1 0x40 ADD SWAP2 POP POP PUSH1 0x40 MLOAD DUP1 SWAP2 SUB SWAP1 REVERT JUMPDEST DUP4 PUSH1 0x0 PUSH1 0x3 PUSH1 0x0 DUP4 DUP2 MSTORE PUSH1 0x20 ADD SWAP1 DUP2 MSTORE PUSH1 0x20 ADD PUSH1 0x0 KECCAK256 PUSH1 0x1 ADD DUP1 SLOAD PUSH1 0x1 DUP2 PUSH1 0x1 AND ISZERO PUSH2 0x100 MUL SUB AND PUSH1 0x2 SWAP1 DIV SWAP1 POP EQ ISZERO PUSH2 0x26C5 JUMPI PUSH1 0x40 MLOAD PUSH32 0x8C379A000000000000000000000000000000000000000000000000000000000 DUP2 MSTORE PUSH1 0x4 ADD DUP1 DUP1 PUSH1 0x20 ADD DUP3 DUP2 SUB DUP3 MSTORE PUSH1 0x1E DUP2 MSTORE PUSH1 0x20 ADD DUP1 PUSH32 0x456C20636162616C6C6F20696E6772657361646F206E6F206578697374650000 DUP2 MSTORE POP PUSH1 0x20 ADD SWAP2 POP POP PUSH1 0x40 MLOAD DUP1 SWAP2 SUB SWAP1 REVERT JUMPDEST DUP4 PUSH1 0x0 PUSH1 0x2 PUSH1 0x0 DUP4 DUP2 MSTORE PUSH1 0x20 ADD SWAP1 DUP2 MSTORE PUSH1 0x20 ADD PUSH1 0x0 KECCAK256 PUSH1 0x1 ADD DUP1 SLOAD PUSH1 0x1 DUP2 PUSH1 0x1 AND ISZERO PUSH2 0x100 MUL SUB AND PUSH1 0x2 SWAP1 DIV SWAP1 POP EQ ISZERO PUSH2 0x2767 JUMPI PUSH1 0x40 MLOAD PUSH32 0x8C379A000000000000000000000000000000000000000000000000000000000 DUP2 MSTORE PUSH1 0x4 ADD DUP1 DUP1 PUSH1 0x20 ADD DUP3 DUP2 SUB DUP3 MSTORE PUSH1 0x1E DUP2 MSTORE PUSH1 0x20 ADD DUP1 PUSH32 0x4C61206361727265726120696E67726573616461206E6F206578697374650000 DUP2 MSTORE POP PUSH1 0x20 ADD SWAP2 POP POP PUSH1 0x40 MLOAD DUP1 SWAP2 SUB SWAP1 REVERT JUMPDEST DUP5 DUP7 PUSH1 0x0 PUSH1 0x4 PUSH1 0x0 DUP5 DUP2 MSTORE PUSH1 0x20 ADD SWAP1 DUP2 MSTORE PUSH1 0x20 ADD PUSH1 0x0 KECCAK256 DUP1 SLOAD SWAP1 POP SWAP1 POP PUSH1 0x0 DUP1 SWAP1 POP PUSH1 0x0 DUP1 SWAP1 POP JUMPDEST DUP3 DUP2 LT ISZERO PUSH2 0x27DD JUMPI DUP4 PUSH1 0x4 PUSH1 0x0 DUP8 DUP2 MSTORE PUSH1 0x20 ADD SWAP1 DUP2 MSTORE PUSH1 0x20 ADD PUSH1 0x0 KECCAK256 DUP3 DUP2 SLOAD DUP2 LT PUSH2 0x27B6 JUMPI INVALID JUMPDEST SWAP1 PUSH1 0x0 MSTORE PUSH1 0x20 PUSH1 0x0 KECCAK256 ADD SLOAD EQ ISZERO PUSH2 0x27D0 JUMPI PUSH1 0x1 SWAP2 POP PUSH2 0x27DD JUMP JUMPDEST DUP1 DUP1 PUSH1 0x1 ADD SWAP2 POP POP PUSH2 0x278F JUMP JUMPDEST POP DUP1 PUSH2 0x2834 JUMPI PUSH1 0x40 MLOAD PUSH32 0x8C379A000000000000000000000000000000000000000000000000000000000 DUP2 MSTORE PUSH1 0x4 ADD DUP1 DUP1 PUSH1 0x20 ADD DUP3 DUP2 SUB DUP3 MSTORE PUSH1 0x37 DUP2 MSTORE PUSH1 0x20 ADD DUP1 PUSH2 0x33EA PUSH1 0x37 SWAP2 CODECOPY PUSH1 0x40 ADD SWAP2 POP POP PUSH1 0x40 MLOAD DUP1 SWAP2 SUB SWAP1 REVERT JUMPDEST CALLVALUE PUSH1 0x0 DUP2 GT PUSH2 0x288E JUMPI PUSH1 0x40 MLOAD PUSH32 0x8C379A000000000000000000000000000000000000000000000000000000000 DUP2 MSTORE PUSH1 0x4 ADD DUP1 DUP1 PUSH1 0x20 ADD DUP3 DUP2 SUB DUP3 MSTORE PUSH1 0x29 DUP2 MSTORE PUSH1 0x20 ADD DUP1 PUSH2 0x33C1 PUSH1 0x29 SWAP2 CODECOPY PUSH1 0x40 ADD SWAP2 POP POP PUSH1 0x40 MLOAD DUP1 SWAP2 SUB SWAP1 REVERT JUMPDEST PUSH1 0x0 CALLVALUE SWAP1 POP PUSH1 0x0 CALLER SWAP1 POP PUSH1 0x2 PUSH1 0x0 DUP14 DUP2 MSTORE PUSH1 0x20 ADD SWAP1 DUP2 MSTORE PUSH1 0x20 ADD PUSH1 0x0 KECCAK256 PUSH1 0x6 ADD PUSH1 0x0 DUP3 PUSH20 0xFFFFFFFFFFFFFFFFFFFFFFFFFFFFFFFFFFFFFFFF AND PUSH20 0xFFFFFFFFFFFFFFFFFFFFFFFFFFFFFFFFFFFFFFFF AND DUP2 MSTORE PUSH1 0x20 ADD SWAP1 DUP2 MSTORE PUSH1 0x20 ADD PUSH1 0x0 KECCAK256 PUSH1 0x2 ADD PUSH1 0x0 SWAP1 SLOAD SWAP1 PUSH2 0x100 EXP SWAP1 DIV PUSH1 0xFF AND ISZERO PUSH2 0x2A3C JUMPI DUP13 PUSH1 0x2 PUSH1 0x0 DUP15 DUP2 MSTORE PUSH1 0x20 ADD SWAP1 DUP2 MSTORE PUSH1 0x20 ADD PUSH1 0x0 KECCAK256 PUSH1 0x6 ADD PUSH1 0x0 DUP4 PUSH20 0xFFFFFFFFFFFFFFFFFFFFFFFFFFFFFFFFFFFFFFFF AND PUSH20 0xFFFFFFFFFFFFFFFFFFFFFFFFFFFFFFFFFFFFFFFF AND DUP2 MSTORE PUSH1 0x20 ADD SWAP1 DUP2 MSTORE PUSH1 0x20 ADD PUSH1 0x0 KECCAK256 PUSH1 0x1 ADD SLOAD EQ PUSH2 0x29AF JUMPI PUSH1 0x40 MLOAD PUSH32 0x8C379A000000000000000000000000000000000000000000000000000000000 DUP2 MSTORE PUSH1 0x4 ADD DUP1 DUP1 PUSH1 0x20 ADD DUP3 DUP2 SUB DUP3 MSTORE PUSH1 0x3B DUP2 MSTORE PUSH1 0x20 ADD DUP1 PUSH2 0x32C7 PUSH1 0x3B SWAP2 CODECOPY PUSH1 0x40 ADD SWAP2 POP POP PUSH1 0x40 MLOAD DUP1 SWAP2 SUB SWAP1 REVERT JUMPDEST DUP2 PUSH1 0x2 PUSH1 0x0 DUP15 DUP2 MSTORE PUSH1 0x20 ADD SWAP1 DUP2 MSTORE PUSH1 0x20 ADD PUSH1 0x0 KECCAK256 PUSH1 0x6 ADD PUSH1 0x0 DUP4 PUSH20 0xFFFFFFFFFFFFFFFFFFFFFFFFFFFFFFFFFFFFFFFF AND PUSH20 0xFFFFFFFFFFFFFFFFFFFFFFFFFFFFFFFFFFFFFFFF AND DUP2 MSTORE PUSH1 0x20 ADD SWAP1 DUP2 MSTORE PUSH1 0x20 ADD PUSH1 0x0 KECCAK256 PUSH1 0x0 ADD PUSH1 0x0 DUP3 DUP3 SLOAD ADD SWAP3 POP POP DUP2 SWAP1 SSTORE POP DUP2 PUSH1 0x2 PUSH1 0x0 DUP15 DUP2 MSTORE PUSH1 0x20 ADD SWAP1 DUP2 MSTORE PUSH1 0x20 ADD PUSH1 0x0 KECCAK256 PUSH1 0x3 ADD PUSH1 0x0 DUP3 DUP3 SLOAD ADD SWAP3 POP POP DUP2 SWAP1 SSTORE POP PUSH2 0x2B9F JUMP JUMPDEST PUSH1 0x40 MLOAD DUP1 PUSH1 0xA0 ADD PUSH1 0x40 MSTORE DUP1 DUP4 DUP2 MSTORE PUSH1 0x20 ADD DUP15 DUP2 MSTORE PUSH1 0x20 ADD PUSH1 0x1 ISZERO ISZERO DUP2 MSTORE PUSH1 0x20 ADD PUSH1 0x0 DUP2 MSTORE PUSH1 0x20 ADD PUSH1 0x0 DUP2 MSTORE POP PUSH1 0x2 PUSH1 0x0 DUP15 DUP2 MSTORE PUSH1 0x20 ADD SWAP1 DUP2 MSTORE PUSH1 0x20 ADD PUSH1 0x0 KECCAK256 PUSH1 0x6 ADD PUSH1 0x0 DUP4 PUSH20 0xFFFFFFFFFFFFFFFFFFFFFFFFFFFFFFFFFFFFFFFF AND PUSH20 0xFFFFFFFFFFFFFFFFFFFFFFFFFFFFFFFFFFFFFFFF AND DUP2 MSTORE PUSH1 0x20 ADD SWAP1 DUP2 MSTORE PUSH1 0x20 ADD PUSH1 0x0 KECCAK256 PUSH1 0x0 DUP3 ADD MLOAD DUP2 PUSH1 0x0 ADD SSTORE PUSH1 0x20 DUP3 ADD MLOAD DUP2 PUSH1 0x1 ADD SSTORE PUSH1 0x40 DUP3 ADD MLOAD DUP2 PUSH1 0x2 ADD PUSH1 0x0 PUSH2 0x100 EXP DUP2 SLOAD DUP2 PUSH1 0xFF MUL NOT AND SWAP1 DUP4 ISZERO ISZERO MUL OR SWAP1 SSTORE POP PUSH1 0x60 DUP3 ADD MLOAD DUP2 PUSH1 0x3 ADD SSTORE PUSH1 0x80 DUP3 ADD MLOAD DUP2 PUSH1 0x4 ADD SSTORE SWAP1 POP POP DUP2 PUSH1 0x2 PUSH1 0x0 DUP15 DUP2 MSTORE PUSH1 0x20 ADD SWAP1 DUP2 MSTORE PUSH1 0x20 ADD PUSH1 0x0 KECCAK256 PUSH1 0x3 ADD PUSH1 0x0 DUP3 DUP3 SLOAD ADD SWAP3 POP POP DUP2 SWAP1 SSTORE POP PUSH1 0x5 PUSH1 0x0 DUP14 DUP2 MSTORE PUSH1 0x20 ADD SWAP1 DUP2 MSTORE PUSH1 0x20 ADD PUSH1 0x0 KECCAK256 DUP2 SWAP1 DUP1 PUSH1 0x1 DUP2 SLOAD ADD DUP1 DUP3 SSTORE DUP1 SWAP2 POP POP PUSH1 0x1 SWAP1 SUB SWAP1 PUSH1 0x0 MSTORE PUSH1 0x20 PUSH1 0x0 KECCAK256 ADD PUSH1 0x0 SWAP1 SWAP2 SWAP1 SWAP2 SWAP1 SWAP2 PUSH2 0x100 EXP DUP2 SLOAD DUP2 PUSH20 0xFFFFFFFFFFFFFFFFFFFFFFFFFFFFFFFFFFFFFFFF MUL NOT AND SWAP1 DUP4 PUSH20 0xFFFFFFFFFFFFFFFFFFFFFFFFFFFFFFFFFFFFFFFF AND MUL OR SWAP1 SSTORE POP JUMPDEST POP POP POP POP POP POP POP POP POP POP POP POP POP JUMP JUMPDEST PUSH1 0x0 DUP1 SWAP1 SLOAD SWAP1 PUSH2 0x100 EXP SWAP1 DIV PUSH20 0xFFFFFFFFFFFFFFFFFFFFFFFFFFFFFFFFFFFFFFFF AND PUSH20 0xFFFFFFFFFFFFFFFFFFFFFFFFFFFFFFFFFFFFFFFF AND CALLER PUSH20 0xFFFFFFFFFFFFFFFFFFFFFFFFFFFFFFFFFFFFFFFF AND EQ PUSH2 0x2C53 JUMPI PUSH1 0x40 MLOAD PUSH32 0x8C379A000000000000000000000000000000000000000000000000000000000 DUP2 MSTORE PUSH1 0x4 ADD DUP1 DUP1 PUSH1 0x20 ADD DUP3 DUP2 SUB DUP3 MSTORE PUSH1 0x22 DUP2 MSTORE PUSH1 0x20 ADD DUP1 PUSH2 0x3356 PUSH1 0x22 SWAP2 CODECOPY PUSH1 0x40 ADD SWAP2 POP POP PUSH1 0x40 MLOAD DUP1 SWAP2 SUB SWAP1 REVERT JUMPDEST DUP1 PUSH1 0x0 DUP1 PUSH1 0x2 DUP2 GT ISZERO PUSH2 0x2C62 JUMPI INVALID JUMPDEST PUSH1 0x2 PUSH1 0x0 DUP5 DUP2 MSTORE PUSH1 0x20 ADD SWAP1 DUP2 MSTORE PUSH1 0x20 ADD PUSH1 0x0 KECCAK256 PUSH1 0x2 ADD PUSH1 0x0 SWAP1 SLOAD SWAP1 PUSH2 0x100 EXP SWAP1 DIV PUSH1 0xFF AND PUSH1 0x2 DUP2 GT ISZERO PUSH2 0x2C91 JUMPI INVALID JUMPDEST EQ PUSH2 0x2CE7 JUMPI PUSH1 0x40 MLOAD PUSH32 0x8C379A000000000000000000000000000000000000000000000000000000000 DUP2 MSTORE PUSH1 0x4 ADD DUP1 DUP1 PUSH1 0x20 ADD DUP3 DUP2 SUB DUP3 MSTORE PUSH1 0x2C DUP2 MSTORE PUSH1 0x20 ADD DUP1 PUSH2 0x34B4 PUSH1 0x2C SWAP2 CODECOPY PUSH1 0x40 ADD SWAP2 POP POP PUSH1 0x40 MLOAD DUP1 SWAP2 SUB SWAP1 REVERT JUMPDEST DUP3 PUSH1 0x0 PUSH1 0x2 PUSH1 0x0 DUP4 DUP2 MSTORE PUSH1 0x20 ADD SWAP1 DUP2 MSTORE PUSH1 0x20 ADD PUSH1 0x0 KECCAK256 PUSH1 0x1 ADD DUP1 SLOAD PUSH1 0x1 DUP2 PUSH1 0x1 AND ISZERO PUSH2 0x100 MUL SUB AND PUSH1 0x2 SWAP1 DIV SWAP1 POP EQ ISZERO PUSH2 0x2D89 JUMPI PUSH1 0x40 MLOAD PUSH32 0x8C379A000000000000000000000000000000000000000000000000000000000 DUP2 MSTORE PUSH1 0x4 ADD DUP1 DUP1 PUSH1 0x20 ADD DUP3 DUP2 SUB DUP3 MSTORE PUSH1 0x1E DUP2 MSTORE PUSH1 0x20 ADD DUP1 PUSH32 0x4C61206361727265726120696E67726573616461206E6F206578697374650000 DUP2 MSTORE POP PUSH1 0x20 ADD SWAP2 POP POP PUSH1 0x40 MLOAD DUP1 SWAP2 SUB SWAP1 REVERT JUMPDEST DUP4 PUSH1 0x2 PUSH1 0x4 PUSH1 0x0 DUP4 DUP2 MSTORE PUSH1 0x20 ADD SWAP1 DUP2 MSTORE PUSH1 0x20 ADD PUSH1 0x0 KECCAK256 DUP1 SLOAD SWAP1 POP LT ISZERO PUSH2 0x2DFA JUMPI PUSH1 0x40 MLOAD PUSH32 0x8C379A000000000000000000000000000000000000000000000000000000000 DUP2 MSTORE PUSH1 0x4 ADD DUP1 DUP1 PUSH1 0x20 ADD DUP3 DUP2 SUB DUP3 MSTORE PUSH1 0x2E DUP2 MSTORE PUSH1 0x20 ADD DUP1 PUSH2 0x3328 PUSH1 0x2E SWAP2 CODECOPY PUSH1 0x40 ADD SWAP2 POP POP PUSH1 0x40 MLOAD DUP1 SWAP2 SUB SWAP1 REVERT JUMPDEST PUSH1 0x1 PUSH1 0x2 PUSH1 0x0 DUP8 DUP2 MSTORE PUSH1 0x20 ADD SWAP1 DUP2 MSTORE PUSH1 0x20 ADD PUSH1 0x0 KECCAK256 PUSH1 0x2 ADD PUSH1 0x0 PUSH2 0x100 EXP DUP2 SLOAD DUP2 PUSH1 0xFF MUL NOT AND SWAP1 DUP4 PUSH1 0x2 DUP2 GT ISZERO PUSH2 0x2E2D JUMPI INVALID JUMPDEST MUL OR SWAP1 SSTORE POP POP POP POP POP POP JUMP JUMPDEST PUSH1 0x0 DUP1 SWAP1 SLOAD SWAP1 PUSH2 0x100 EXP SWAP1 DIV PUSH20 0xFFFFFFFFFFFFFFFFFFFFFFFFFFFFFFFFFFFFFFFF AND PUSH20 0xFFFFFFFFFFFFFFFFFFFFFFFFFFFFFFFFFFFFFFFF AND CALLER PUSH20 0xFFFFFFFFFFFFFFFFFFFFFFFFFFFFFFFFFFFFFFFF AND EQ PUSH2 0x2EDE JUMPI PUSH1 0x40 MLOAD PUSH32 0x8C379A000000000000000000000000000000000000000000000000000000000 DUP2 MSTORE PUSH1 0x4 ADD DUP1 DUP1 PUSH1 0x20 ADD DUP3 DUP2 SUB DUP3 MSTORE PUSH1 0x22 DUP2 MSTORE PUSH1 0x20 ADD DUP1 PUSH2 0x3356 PUSH1 0x22 SWAP2 CODECOPY PUSH1 0x40 ADD SWAP2 POP POP PUSH1 0x40 MLOAD DUP1 SWAP2 SUB SWAP1 REVERT JUMPDEST DUP2 PUSH1 0x0 PUSH1 0x2 PUSH1 0x0 DUP4 DUP2 MSTORE PUSH1 0x20 ADD SWAP1 DUP2 MSTORE PUSH1 0x20 ADD PUSH1 0x0 KECCAK256 PUSH1 0x1 ADD DUP1 SLOAD PUSH1 0x1 DUP2 PUSH1 0x1 AND ISZERO PUSH2 0x100 MUL SUB AND PUSH1 0x2 SWAP1 DIV SWAP1 POP EQ PUSH2 0x2F62 JUMPI PUSH1 0x40 MLOAD PUSH32 0x8C379A000000000000000000000000000000000000000000000000000000000 DUP2 MSTORE PUSH1 0x4 ADD DUP1 DUP1 PUSH1 0x20 ADD DUP3 DUP2 SUB DUP3 MSTORE PUSH1 0x26 DUP2 MSTORE PUSH1 0x20 ADD DUP1 PUSH2 0x3302 PUSH1 0x26 SWAP2 CODECOPY PUSH1 0x40 ADD SWAP2 POP POP PUSH1 0x40 MLOAD DUP1 SWAP2 SUB SWAP1 REVERT JUMPDEST PUSH1 0x40 MLOAD DUP1 PUSH1 0xC0 ADD PUSH1 0x40 MSTORE DUP1 DUP5 DUP2 MSTORE PUSH1 0x20 ADD DUP4 DUP2 MSTORE PUSH1 0x20 ADD PUSH1 0x0 PUSH1 0x2 DUP2 GT ISZERO PUSH2 0x2F86 JUMPI INVALID JUMPDEST DUP2 MSTORE PUSH1 0x20 ADD PUSH1 0x0 DUP2 MSTORE PUSH1 0x20 ADD PUSH1 0x0 DUP2 MSTORE PUSH1 0x20 ADD PUSH1 0x0 DUP2 MSTORE POP PUSH1 0x2 PUSH1 0x0 DUP6 DUP2 MSTORE PUSH1 0x20 ADD SWAP1 DUP2 MSTORE PUSH1 0x20 ADD PUSH1 0x0 KECCAK256 PUSH1 0x0 DUP3 ADD MLOAD DUP2 PUSH1 0x0 ADD SSTORE PUSH1 0x20 DUP3 ADD MLOAD DUP2 PUSH1 0x1 ADD SWAP1 DUP1 MLOAD SWAP1 PUSH1 0x20 ADD SWAP1 PUSH2 0x2FD7 SWAP3 SWAP2 SWAP1 PUSH2 0x3221 JUMP JUMPDEST POP PUSH1 0x40 DUP3 ADD MLOAD DUP2 PUSH1 0x2 ADD PUSH1 0x0 PUSH2 0x100 EXP DUP2 SLOAD DUP2 PUSH1 0xFF MUL NOT AND SWAP1 DUP4 PUSH1 0x2 DUP2 GT ISZERO PUSH2 0x2FFC JUMPI INVALID JUMPDEST MUL OR SWAP1 SSTORE POP PUSH1 0x60 DUP3 ADD MLOAD DUP2 PUSH1 0x3 ADD SSTORE PUSH1 0x80 DUP3 ADD MLOAD DUP2 PUSH1 0x4 ADD SSTORE PUSH1 0xA0 DUP3 ADD MLOAD DUP2 PUSH1 0x5 ADD SSTORE SWAP1 POP POP PUSH1 0x1 DUP1 PUSH1 0x0 DUP3 DUP3 SLOAD ADD SWAP3 POP POP DUP2 SWAP1 SSTORE POP POP POP POP JUMP JUMPDEST PUSH1 0x4 PUSH1 0x20 MSTORE DUP2 PUSH1 0x0 MSTORE PUSH1 0x40 PUSH1 0x0 KECCAK256 DUP2 DUP2 SLOAD DUP2 LT PUSH2 0x3050 JUMPI INVALID JUMPDEST SWAP1 PUSH1 0x0 MSTORE PUSH1 0x20 PUSH1 0x0 KECCAK256 ADD PUSH1 0x0 SWAP2 POP SWAP2 POP POP SLOAD DUP2 JUMP JUMPDEST PUSH1 0x0 DUP1 PUSH1 0x0 SWAP1 POP DUP1 DUP1 PUSH1 0x1 ADD SWAP2 POP POP PUSH1 0x0 DUP4 TIMESTAMP CALLER DUP5 PUSH1 0x40 MLOAD PUSH1 0x20 ADD DUP1 DUP5 DUP2 MSTORE PUSH1 0x20 ADD DUP4 PUSH20 0xFFFFFFFFFFFFFFFFFFFFFFFFFFFFFFFFFFFFFFFF AND PUSH20 0xFFFFFFFFFFFFFFFFFFFFFFFFFFFFFFFFFFFFFFFF AND PUSH1 0x60 SHL DUP2 MSTORE PUSH1 0x14 ADD DUP3 DUP2 MSTORE PUSH1 0x20 ADD SWAP4 POP POP POP POP PUSH1 0x40 MLOAD PUSH1 0x20 DUP2 DUP4 SUB SUB DUP2 MSTORE SWAP1 PUSH1 0x40 MSTORE DUP1 MLOAD SWAP1 PUSH1 0x20 ADD KECCAK256 PUSH1 0x0 SHR DUP2 PUSH2 0x30E7 JUMPI INVALID JUMPDEST MOD SWAP1 POP DUP1 SWAP3 POP POP POP SWAP2 SWAP1 POP JUMP JUMPDEST PUSH1 0x60 PUSH1 0x0 DUP3 EQ ISZERO PUSH2 0x313C JUMPI PUSH1 0x40 MLOAD DUP1 PUSH1 0x40 ADD PUSH1 0x40 MSTORE DUP1 PUSH1 0x1 DUP2 MSTORE PUSH1 0x20 ADD PUSH32 0x3000000000000000000000000000000000000000000000000000000000000000 DUP2 MSTORE POP SWAP1 POP PUSH2 0x321C JUMP JUMPDEST PUSH1 0x0 DUP3 SWAP1 POP PUSH1 0x0 JUMPDEST PUSH1 0x0 DUP3 EQ PUSH2 0x3166 JUMPI DUP1 DUP1 PUSH1 0x1 ADD SWAP2 POP POP PUSH1 0xA DUP3 DUP2 PUSH2 0x315E JUMPI INVALID JUMPDEST DIV SWAP2 POP PUSH2 0x3144 JUMP JUMPDEST PUSH1 0x60 DUP2 PUSH1 0x40 MLOAD SWAP1 DUP1 DUP3 MSTORE DUP1 PUSH1 0x1F ADD PUSH1 0x1F NOT AND PUSH1 0x20 ADD DUP3 ADD PUSH1 0x40 MSTORE DUP1 ISZERO PUSH2 0x319B JUMPI DUP2 PUSH1 0x20 ADD PUSH1 0x1 DUP3 MUL DUP1 CODESIZE DUP4 CODECOPY DUP1 DUP3 ADD SWAP2 POP POP SWAP1 POP JUMPDEST POP SWAP1 POP PUSH1 0x0 PUSH1 0x1 DUP4 SUB SWAP1 POP JUMPDEST PUSH1 0x0 DUP7 EQ PUSH2 0x3214 JUMPI PUSH1 0xA DUP7 DUP2 PUSH2 0x31B9 JUMPI INVALID JUMPDEST MOD PUSH1 0x30 ADD PUSH1 0xF8 SHL DUP3 DUP3 DUP1 PUSH1 0x1 SWAP1 SUB SWAP4 POP DUP2 MLOAD DUP2 LT PUSH2 0x31D3 JUMPI INVALID JUMPDEST PUSH1 0x20 ADD ADD SWAP1 PUSH31 0xFFFFFFFFFFFFFFFFFFFFFFFFFFFFFFFFFFFFFFFFFFFFFFFFFFFFFFFFFFFFFF NOT AND SWAP1 DUP2 PUSH1 0x0 BYTE SWAP1 MSTORE8 POP PUSH1 0xA DUP7 DUP2 PUSH2 0x320C JUMPI INVALID JUMPDEST DIV SWAP6 POP PUSH2 0x31A7 JUMP JUMPDEST DUP2 SWAP5 POP POP POP POP POP JUMPDEST SWAP2 SWAP1 POP JUMP JUMPDEST DUP3 DUP1 SLOAD PUSH1 0x1 DUP2 PUSH1 0x1 AND ISZERO PUSH2 0x100 MUL SUB AND PUSH1 0x2 SWAP1 DIV SWAP1 PUSH1 0x0 MSTORE PUSH1 0x20 PUSH1 0x0 KECCAK256 SWAP1 PUSH1 0x1F ADD PUSH1 0x20 SWAP1 DIV DUP2 ADD SWAP3 DUP3 PUSH1 0x1F LT PUSH2 0x3262 JUMPI DUP1 MLOAD PUSH1 0xFF NOT AND DUP4 DUP1 ADD OR DUP6 SSTORE PUSH2 0x3290 JUMP JUMPDEST DUP3 DUP1 ADD PUSH1 0x1 ADD DUP6 SSTORE DUP3 ISZERO PUSH2 0x3290 JUMPI SWAP2 DUP3 ADD JUMPDEST DUP3 DUP2 GT ISZERO PUSH2 0x328F JUMPI DUP3 MLOAD DUP3 SSTORE SWAP2 PUSH1 0x20 ADD SWAP2 SWAP1 PUSH1 0x1 ADD SWAP1 PUSH2 0x3274 JUMP JUMPDEST JUMPDEST POP SWAP1 POP PUSH2 0x329D SWAP2 SWAP1 PUSH2 0x32A1 JUMP JUMPDEST POP SWAP1 JUMP JUMPDEST PUSH2 0x32C3 SWAP2 SWAP1 JUMPDEST DUP1 DUP3 GT ISZERO PUSH2 0x32BF JUMPI PUSH1 0x0 DUP2 PUSH1 0x0 SWAP1 SSTORE POP PUSH1 0x1 ADD PUSH2 0x32A7 JUMP JUMPDEST POP SWAP1 JUMP JUMPDEST SWAP1 JUMP INVALID MSTORE8 PUSH16 0x6C6F2073652070756564652061706F73 PUSH21 0x617220706F7220756E20636162616C6C6F2064656E PUSH21 0x726F20646520657374612063617272657261596120 PUSH6 0x786973746520 PUSH22 0x6E61206361727265726120636F6E20657374652063C3 0xB3 PUSH5 0x69676F4C61 KECCAK256 PUSH4 0x61727265 PUSH19 0x61206465626520636F6E74617220636F6E2061 PUSH13 0x206D656E6F7320322063616261 PUSH13 0x6C6F73456C20696E766F636164 PUSH16 0x7220646562652073657220656C20616E PUSH7 0x697472696F6E4C PUSH2 0x2063 PUSH2 0x7272 PUSH6 0x726120796120 PUSH4 0x75656E74 PUSH2 0x2063 PUSH16 0x6E203520636162616C6C6F734C612063 PUSH2 0x7272 PUSH6 0x726120696E67 PUSH19 0x6573616461206E6F207469656E652063616261 PUSH13 0x6C6F73456C206D6F6E746F2064 PUSH6 0x206C61206170 PUSH22 0x65737461206465626520736572206D61796F72206120 ADDRESS GASLIMIT PUSH20 0x746520636162616C6C6F206E6F20736520656E63 PUSH22 0x656E747261207265676973747261646F20656E206573 PUSH21 0x612063617272657261456C20696E766F6361646F72 KECCAK256 PUSH5 0x6562652073 PUSH6 0x7220756E2075 PUSH20 0x756172696F206469666572656E746520616C2061 PUSH15 0x66697472696F6E5961206578697374 PUSH6 0x20756E206361 PUSH3 0x616C6C PUSH16 0x20636F6E20657374652063C3B3646967 PUSH16 0x4573746520636162616C6C6F20796120 PUSH20 0x6520656E6375656E747261207265676973747261 PUSH5 0x6F20656E20 PUSH6 0x737461206361 PUSH19 0x726572614C612063617272657261206E6F2063 PUSH22 0x6D706C6520636F6E20656C2065737461646F20726571 PUSH22 0x657269646FA2646970667358221220C2CD7602737987 MUL SLT SWAP15 RETURNDATACOPY CALLVALUE XOR CODESIZE 0xEB BYTE 0xDB 0xD2 SUB ISZERO PUSH17 0x55502C45F53AF8BDB9806A64736F6C6343 STOP MOD STOP STOP CALLER "
				},
				"gasEstimates": {
					"creation": {
						"codeDepositCost": "2717800",
						"executionCost": "23819",
						"totalCost": "2741619"
					},
					"external": {
						"anfitrion()": "1076",
						"apostadores(uint256,uint256)": "2138",
						"apostar(uint256,uint256)": "infinite",
						"caballos(uint256)": "infinite",
						"carreras(uint256)": "infinite",
						"competencias(uint256,uint256)": "2160",
						"crearCarrera(uint256,string)": "infinite",
						"getApostadorGanador(uint256)": "infinite",
						"getCaballoGanador(uint256)": "1273",
						"getCaballosEnCarrera(uint256)": "infinite",
						"getEstadoCarrera(uint256)": "infinite",
						"registrarCaballo(uint256,string)": "infinite",
						"registrarCarrera(uint256)": "infinite",
						"registrarEnCarrera(uint256,uint256)": "infinite",
						"terminarCarrera(uint256)": "infinite",
						"totalCarreras()": "1072"
					},
					"internal": {
						"generarAleatorio(uint256)": "infinite",
						"uint2str(uint256)": "infinite"
					}
				},
				"methodIdentifiers": {
					"anfitrion()": "456f4b57",
					"apostadores(uint256,uint256)": "dfe22b5f",
					"apostar(uint256,uint256)": "f2f6da3e",
					"caballos(uint256)": "f0b73b54",
					"carreras(uint256)": "5ee81666",
					"competencias(uint256,uint256)": "fb34d0f7",
					"crearCarrera(uint256,string)": "f9d32e49",
					"getApostadorGanador(uint256)": "286f6b4c",
					"getCaballoGanador(uint256)": "79b31e69",
					"getCaballosEnCarrera(uint256)": "1b895c2f",
					"getEstadoCarrera(uint256)": "e6581b9d",
					"registrarCaballo(uint256,string)": "5194f59c",
					"registrarCarrera(uint256)": "f7edd6db",
					"registrarEnCarrera(uint256,uint256)": "26d1c7d0",
					"terminarCarrera(uint256)": "010a0e95",
					"totalCarreras()": "e9ec5583"
				}
			},
			"storageLayout": {
				"storage": [
					{
						"astId": 3,
						"contract": "Solidity_BD2/casaApuestas.sol:casaApuestas",
						"label": "anfitrion",
						"offset": 0,
						"slot": "0",
						"type": "t_address"
					},
					{
						"astId": 9,
						"contract": "Solidity_BD2/casaApuestas.sol:casaApuestas",
						"label": "totalCarreras",
						"offset": 0,
						"slot": "1",
						"type": "t_uint256"
					},
					{
						"astId": 17,
						"contract": "Solidity_BD2/casaApuestas.sol:casaApuestas",
						"label": "carreras",
						"offset": 0,
						"slot": "2",
						"type": "t_mapping(t_uint256,t_struct(Carrera)48_storage)"
					},
					{
						"astId": 21,
						"contract": "Solidity_BD2/casaApuestas.sol:casaApuestas",
						"label": "caballos",
						"offset": 0,
						"slot": "3",
						"type": "t_mapping(t_uint256,t_struct(Caballo)53_storage)"
					},
					{
						"astId": 26,
						"contract": "Solidity_BD2/casaApuestas.sol:casaApuestas",
						"label": "competencias",
						"offset": 0,
						"slot": "4",
						"type": "t_mapping(t_uint256,t_array(t_uint256)dyn_storage)"
					},
					{
						"astId": 31,
						"contract": "Solidity_BD2/casaApuestas.sol:casaApuestas",
						"label": "apostadores",
						"offset": 0,
						"slot": "5",
						"type": "t_mapping(t_uint256,t_array(t_address)dyn_storage)"
					}
				],
				"types": {
					"t_address": {
						"encoding": "inplace",
						"label": "address",
						"numberOfBytes": "20"
					},
					"t_array(t_address)dyn_storage": {
						"base": "t_address",
						"encoding": "dynamic_array",
						"label": "address[]",
						"numberOfBytes": "32"
					},
					"t_array(t_uint256)dyn_storage": {
						"base": "t_uint256",
						"encoding": "dynamic_array",
						"label": "uint256[]",
						"numberOfBytes": "32"
					},
					"t_bool": {
						"encoding": "inplace",
						"label": "bool",
						"numberOfBytes": "1"
					},
					"t_enum(Estado)7": {
						"encoding": "inplace",
						"label": "enum casaApuestas.Estado",
						"numberOfBytes": "1"
					},
					"t_mapping(t_address,t_struct(Apuesta)64_storage)": {
						"encoding": "mapping",
						"key": "t_address",
						"label": "mapping(address => struct casaApuestas.Apuesta)",
						"numberOfBytes": "32",
						"value": "t_struct(Apuesta)64_storage"
					},
					"t_mapping(t_uint256,t_array(t_address)dyn_storage)": {
						"encoding": "mapping",
						"key": "t_uint256",
						"label": "mapping(uint256 => address[])",
						"numberOfBytes": "32",
						"value": "t_array(t_address)dyn_storage"
					},
					"t_mapping(t_uint256,t_array(t_uint256)dyn_storage)": {
						"encoding": "mapping",
						"key": "t_uint256",
						"label": "mapping(uint256 => uint256[])",
						"numberOfBytes": "32",
						"value": "t_array(t_uint256)dyn_storage"
					},
					"t_mapping(t_uint256,t_struct(Caballo)53_storage)": {
						"encoding": "mapping",
						"key": "t_uint256",
						"label": "mapping(uint256 => struct casaApuestas.Caballo)",
						"numberOfBytes": "32",
						"value": "t_struct(Caballo)53_storage"
					},
					"t_mapping(t_uint256,t_struct(Carrera)48_storage)": {
						"encoding": "mapping",
						"key": "t_uint256",
						"label": "mapping(uint256 => struct casaApuestas.Carrera)",
						"numberOfBytes": "32",
						"value": "t_struct(Carrera)48_storage"
					},
					"t_string_storage": {
						"encoding": "bytes",
						"label": "string",
						"numberOfBytes": "32"
					},
					"t_struct(Apuesta)64_storage": {
						"encoding": "inplace",
						"label": "struct casaApuestas.Apuesta",
						"members": [
							{
								"astId": 55,
								"contract": "Solidity_BD2/casaApuestas.sol:casaApuestas",
								"label": "monto",
								"offset": 0,
								"slot": "0",
								"type": "t_uint256"
							},
							{
								"astId": 57,
								"contract": "Solidity_BD2/casaApuestas.sol:casaApuestas",
								"label": "codCaballo",
								"offset": 0,
								"slot": "1",
								"type": "t_uint256"
							},
							{
								"astId": 59,
								"contract": "Solidity_BD2/casaApuestas.sol:casaApuestas",
								"label": "creada",
								"offset": 0,
								"slot": "2",
								"type": "t_bool"
							},
							{
								"astId": 61,
								"contract": "Solidity_BD2/casaApuestas.sol:casaApuestas",
								"label": "proporcion",
								"offset": 0,
								"slot": "3",
								"type": "t_uint256"
							},
							{
								"astId": 63,
								"contract": "Solidity_BD2/casaApuestas.sol:casaApuestas",
								"label": "dineroTransferido",
								"offset": 0,
								"slot": "4",
								"type": "t_uint256"
							}
						],
						"numberOfBytes": "160"
					},
					"t_struct(Caballo)53_storage": {
						"encoding": "inplace",
						"label": "struct casaApuestas.Caballo",
						"members": [
							{
								"astId": 50,
								"contract": "Solidity_BD2/casaApuestas.sol:casaApuestas",
								"label": "codigo",
								"offset": 0,
								"slot": "0",
								"type": "t_uint256"
							},
							{
								"astId": 52,
								"contract": "Solidity_BD2/casaApuestas.sol:casaApuestas",
								"label": "nombre",
								"offset": 0,
								"slot": "1",
								"type": "t_string_storage"
							}
						],
						"numberOfBytes": "64"
					},
					"t_struct(Carrera)48_storage": {
						"encoding": "inplace",
						"label": "struct casaApuestas.Carrera",
						"members": [
							{
								"astId": 33,
								"contract": "Solidity_BD2/casaApuestas.sol:casaApuestas",
								"label": "codigo",
								"offset": 0,
								"slot": "0",
								"type": "t_uint256"
							},
							{
								"astId": 35,
								"contract": "Solidity_BD2/casaApuestas.sol:casaApuestas",
								"label": "nombre",
								"offset": 0,
								"slot": "1",
								"type": "t_string_storage"
							},
							{
								"astId": 37,
								"contract": "Solidity_BD2/casaApuestas.sol:casaApuestas",
								"label": "estadoCarrera",
								"offset": 0,
								"slot": "2",
								"type": "t_enum(Estado)7"
							},
							{
								"astId": 39,
								"contract": "Solidity_BD2/casaApuestas.sol:casaApuestas",
								"label": "montoTotal",
								"offset": 0,
								"slot": "3",
								"type": "t_uint256"
							},
							{
								"astId": 41,
								"contract": "Solidity_BD2/casaApuestas.sol:casaApuestas",
								"label": "numeroCaballos",
								"offset": 0,
								"slot": "4",
								"type": "t_uint256"
							},
							{
								"astId": 43,
								"contract": "Solidity_BD2/casaApuestas.sol:casaApuestas",
								"label": "caballoGanador",
								"offset": 0,
								"slot": "5",
								"type": "t_uint256"
							},
							{
								"astId": 47,
								"contract": "Solidity_BD2/casaApuestas.sol:casaApuestas",
								"label": "apuestas",
								"offset": 0,
								"slot": "6",
								"type": "t_mapping(t_address,t_struct(Apuesta)64_storage)"
							}
						],
						"numberOfBytes": "224"
					},
					"t_uint256": {
						"encoding": "inplace",
						"label": "uint256",
						"numberOfBytes": "32"
					}
				}
			},
			"userdoc": {
				"methods": {}
			}
		}
	}
}