{
	"casaApuestas.sol": {
		"casaApuestas": {
			"abi": [
				{
					"inputs": [],
					"stateMutability": "nonpayable",
					"type": "constructor"
				},
				{
					"inputs": [
						{
							"internalType": "uint256",
							"name": "",
							"type": "uint256"
						}
					],
					"name": "caballos",
					"outputs": [
						{
							"internalType": "uint256",
							"name": "codigo",
							"type": "uint256"
						},
						{
							"internalType": "string",
							"name": "nombre",
							"type": "string"
						}
					],
					"stateMutability": "view",
					"type": "function"
				},
				{
					"inputs": [
						{
							"internalType": "uint256",
							"name": "",
							"type": "uint256"
						}
					],
					"name": "carreras",
					"outputs": [
						{
							"internalType": "uint256",
							"name": "codigo",
							"type": "uint256"
						},
						{
							"internalType": "string",
							"name": "nombre",
							"type": "string"
						},
						{
							"internalType": "enum casaApuestas.Estado",
							"name": "estadoCarrera",
							"type": "uint8"
						}
					],
					"stateMutability": "view",
					"type": "function"
				},
				{
					"inputs": [
						{
							"internalType": "uint256",
							"name": "",
							"type": "uint256"
						},
						{
							"internalType": "uint256",
							"name": "",
							"type": "uint256"
						}
					],
					"name": "competencias",
					"outputs": [
						{
							"internalType": "uint256",
							"name": "",
							"type": "uint256"
						}
					],
					"stateMutability": "view",
					"type": "function"
				},
				{
					"inputs": [
						{
							"internalType": "uint256",
							"name": "_codigo",
							"type": "uint256"
						},
						{
							"internalType": "string",
							"name": "_nombre",
							"type": "string"
						}
					],
					"name": "crearCarrera",
					"outputs": [],
					"stateMutability": "nonpayable",
					"type": "function"
				},
				{
					"inputs": [
						{
							"internalType": "uint256",
							"name": "_codigo",
							"type": "uint256"
						},
						{
							"internalType": "string",
							"name": "_nombre",
							"type": "string"
						}
					],
					"name": "registrarCaballo",
					"outputs": [],
					"stateMutability": "nonpayable",
					"type": "function"
				},
				{
					"inputs": [
						{
							"internalType": "uint256",
							"name": "_codCarrera",
							"type": "uint256"
						}
					],
					"name": "registrarCarrera",
					"outputs": [],
					"stateMutability": "nonpayable",
					"type": "function"
				},
				{
					"inputs": [
						{
							"internalType": "uint256",
							"name": "_codCaballo",
							"type": "uint256"
						},
						{
							"internalType": "uint256",
							"name": "_codCarrera",
							"type": "uint256"
						}
					],
					"name": "registrarEnCompetencia",
					"outputs": [],
					"stateMutability": "nonpayable",
					"type": "function"
				},
				{
					"inputs": [],
					"name": "totalCarreras",
					"outputs": [
						{
							"internalType": "uint256",
							"name": "",
							"type": "uint256"
						}
					],
					"stateMutability": "view",
					"type": "function"
				}
			],
			"devdoc": {
				"kind": "dev",
				"methods": {},
				"version": 1
			},
			"evm": {
				"assembly": "    /* \"casaApuestas.sol\":26:3212  contract casaApuestas{... */\n  mstore(0x40, 0x80)\n    /* \"casaApuestas.sol\":533:594  constructor() public{... */\n  callvalue\n  dup1\n  iszero\n  tag_1\n  jumpi\n  0x00\n  dup1\n  revert\ntag_1:\n  pop\n    /* \"casaApuestas.sol\":576:586  msg.sender */\n  caller\n    /* \"casaApuestas.sol\":564:573  anfitrion */\n  0x00\n  dup1\n    /* \"casaApuestas.sol\":564:586  anfitrion = msg.sender */\n  0x0100\n  exp\n  dup2\n  sload\n  dup2\n  0xffffffffffffffffffffffffffffffffffffffff\n  mul\n  not\n  and\n  swap1\n  dup4\n  0xffffffffffffffffffffffffffffffffffffffff\n  and\n  mul\n  or\n  swap1\n  sstore\n  pop\n    /* \"casaApuestas.sol\":26:3212  contract casaApuestas{... */\n  dataSize(sub_0)\n  dup1\n  dataOffset(sub_0)\n  0x00\n  codecopy\n  0x00\n  return\nstop\n\nsub_0: assembly {\n        /* \"casaApuestas.sol\":26:3212  contract casaApuestas{... */\n      mstore(0x40, 0x80)\n      callvalue\n      dup1\n      iszero\n      tag_1\n      jumpi\n      0x00\n      dup1\n      revert\n    tag_1:\n      pop\n      jumpi(tag_2, lt(calldatasize, 0x04))\n      shr(0xe0, calldataload(0x00))\n      dup1\n      0xf0b73b54\n      gt\n      tag_11\n      jumpi\n      dup1\n      0xf0b73b54\n      eq\n      tag_7\n      jumpi\n      dup1\n      0xf7edd6db\n      eq\n      tag_8\n      jumpi\n      dup1\n      0xf9d32e49\n      eq\n      tag_9\n      jumpi\n      dup1\n      0xfb34d0f7\n      eq\n      tag_10\n      jumpi\n      jump(tag_2)\n    tag_11:\n      dup1\n      0x5194f59c\n      eq\n      tag_3\n      jumpi\n      dup1\n      0x5ee81666\n      eq\n      tag_4\n      jumpi\n      dup1\n      0xd75262f3\n      eq\n      tag_5\n      jumpi\n      dup1\n      0xe9ec5583\n      eq\n      tag_6\n      jumpi\n    tag_2:\n      0x00\n      dup1\n      revert\n        /* \"casaApuestas.sol\":1796:1941  function registrarCaballo(uint _codigo, string memory _nombre) public isAnfitrion{... */\n    tag_3:\n      tag_12\n      0x04\n      dup1\n      calldatasize\n      sub\n      dup2\n      add\n      swap1\n      tag_13\n      swap2\n      swap1\n      tag_14\n      jump\t// in\n    tag_13:\n      tag_15\n      jump\t// in\n    tag_12:\n      stop\n        /* \"casaApuestas.sol\":127:167  mapping(uint => Carrera) public carreras */\n    tag_4:\n      tag_16\n      0x04\n      dup1\n      calldatasize\n      sub\n      dup2\n      add\n      swap1\n      tag_17\n      swap2\n      swap1\n      tag_18\n      jump\t// in\n    tag_17:\n      tag_19\n      jump\t// in\n    tag_16:\n      mload(0x40)\n      tag_20\n      swap4\n      swap3\n      swap2\n      swap1\n      tag_21\n      jump\t// in\n    tag_20:\n      mload(0x40)\n      dup1\n      swap2\n      sub\n      swap1\n      return\n        /* \"casaApuestas.sol\":1949:2238  function registrarEnCompetencia(uint _codCaballo, uint _codCarrera) public ... */\n    tag_5:\n      tag_22\n      0x04\n      dup1\n      calldatasize\n      sub\n      dup2\n      add\n      swap1\n      tag_23\n      swap2\n      swap1\n      tag_24\n      jump\t// in\n    tag_23:\n      tag_25\n      jump\t// in\n    tag_22:\n      stop\n        /* \"casaApuestas.sol\":265:290  uint public totalCarreras */\n    tag_6:\n      tag_26\n      tag_27\n      jump\t// in\n    tag_26:\n      mload(0x40)\n      tag_28\n      swap2\n      swap1\n      tag_29\n      jump\t// in\n    tag_28:\n      mload(0x40)\n      dup1\n      swap2\n      sub\n      swap1\n      return\n        /* \"casaApuestas.sol\":196:236  mapping(uint => Caballo) public caballos */\n    tag_7:\n      tag_30\n      0x04\n      dup1\n      calldatasize\n      sub\n      dup2\n      add\n      swap1\n      tag_31\n      swap2\n      swap1\n      tag_18\n      jump\t// in\n    tag_31:\n      tag_32\n      jump\t// in\n    tag_30:\n      mload(0x40)\n      tag_33\n      swap3\n      swap2\n      swap1\n      tag_34\n      jump\t// in\n    tag_33:\n      mload(0x40)\n      dup1\n      swap2\n      sub\n      swap1\n      return\n        /* \"casaApuestas.sol\":2246:2448  function registrarCarrera(uint _codCarrera) public ... */\n    tag_8:\n      tag_35\n      0x04\n      dup1\n      calldatasize\n      sub\n      dup2\n      add\n      swap1\n      tag_36\n      swap2\n      swap1\n      tag_18\n      jump\t// in\n    tag_36:\n      tag_37\n      jump\t// in\n    tag_35:\n      stop\n        /* \"casaApuestas.sol\":1603:1788  function crearCarrera(uint _codigo, string memory _nombre) public isAnfitrion{... */\n    tag_9:\n      tag_38\n      0x04\n      dup1\n      calldatasize\n      sub\n      dup2\n      add\n      swap1\n      tag_39\n      swap2\n      swap1\n      tag_14\n      jump\t// in\n    tag_39:\n      tag_40\n      jump\t// in\n    tag_38:\n      stop\n        /* \"casaApuestas.sol\":297:340  mapping(uint => uint[]) public competencias */\n    tag_10:\n      tag_41\n      0x04\n      dup1\n      calldatasize\n      sub\n      dup2\n      add\n      swap1\n      tag_42\n      swap2\n      swap1\n      tag_24\n      jump\t// in\n    tag_42:\n      tag_43\n      jump\t// in\n    tag_41:\n      mload(0x40)\n      tag_44\n      swap2\n      swap1\n      tag_29\n      jump\t// in\n    tag_44:\n      mload(0x40)\n      dup1\n      swap2\n      sub\n      swap1\n      return\n        /* \"casaApuestas.sol\":1796:1941  function registrarCaballo(uint _codigo, string memory _nombre) public isAnfitrion{... */\n    tag_15:\n        /* \"casaApuestas.sol\":657:666  anfitrion */\n      0x00\n      dup1\n      sload\n      swap1\n      0x0100\n      exp\n      swap1\n      div\n      0xffffffffffffffffffffffffffffffffffffffff\n      and\n        /* \"casaApuestas.sol\":643:666  msg.sender == anfitrion */\n      0xffffffffffffffffffffffffffffffffffffffff\n      and\n        /* \"casaApuestas.sol\":643:653  msg.sender */\n      caller\n        /* \"casaApuestas.sol\":643:666  msg.sender == anfitrion */\n      0xffffffffffffffffffffffffffffffffffffffff\n      and\n      eq\n        /* \"casaApuestas.sol\":635:705  require(msg.sender == anfitrion, \"El invocador debe ser el anfitrion\") */\n      tag_46\n      jumpi\n      mload(0x40)\n      0x08c379a000000000000000000000000000000000000000000000000000000000\n      dup2\n      mstore\n      0x04\n      add\n      tag_47\n      swap1\n      tag_48\n      jump\t// in\n    tag_47:\n      mload(0x40)\n      dup1\n      swap2\n      sub\n      swap1\n      revert\n    tag_46:\n        /* \"casaApuestas.sol\":1908:1933  Caballo(_codigo, _nombre) */\n      mload(0x40)\n      dup1\n      0x40\n      add\n      0x40\n      mstore\n      dup1\n        /* \"casaApuestas.sol\":1916:1923  _codigo */\n      dup4\n        /* \"casaApuestas.sol\":1908:1933  Caballo(_codigo, _nombre) */\n      dup2\n      mstore\n      0x20\n      add\n        /* \"casaApuestas.sol\":1925:1932  _nombre */\n      dup3\n        /* \"casaApuestas.sol\":1908:1933  Caballo(_codigo, _nombre) */\n      dup2\n      mstore\n      pop\n        /* \"casaApuestas.sol\":1888:1896  caballos */\n      0x02\n        /* \"casaApuestas.sol\":1888:1905  caballos[_codigo] */\n      0x00\n        /* \"casaApuestas.sol\":1897:1904  _codigo */\n      dup5\n        /* \"casaApuestas.sol\":1888:1905  caballos[_codigo] */\n      dup2\n      mstore\n      0x20\n      add\n      swap1\n      dup2\n      mstore\n      0x20\n      add\n      0x00\n      keccak256\n        /* \"casaApuestas.sol\":1888:1933  caballos[_codigo] = Caballo(_codigo, _nombre) */\n      0x00\n      dup3\n      add\n      mload\n      dup2\n      0x00\n      add\n      sstore\n      0x20\n      dup3\n      add\n      mload\n      dup2\n      0x01\n      add\n      swap1\n      dup2\n      tag_50\n      swap2\n      swap1\n      tag_51\n      jump\t// in\n    tag_50:\n      pop\n      swap1\n      pop\n      pop\n        /* \"casaApuestas.sol\":1796:1941  function registrarCaballo(uint _codigo, string memory _nombre) public isAnfitrion{... */\n      pop\n      pop\n      jump\t// out\n        /* \"casaApuestas.sol\":127:167  mapping(uint => Carrera) public carreras */\n    tag_19:\n      mstore(0x20, 0x01)\n      dup1\n      0x00\n      mstore\n      keccak256(0x00, 0x40)\n      0x00\n      swap2\n      pop\n      swap1\n      pop\n      dup1\n      0x00\n      add\n      sload\n      swap1\n      dup1\n      0x01\n      add\n      dup1\n      sload\n      tag_52\n      swap1\n      tag_53\n      jump\t// in\n    tag_52:\n      dup1\n      0x1f\n      add\n      0x20\n      dup1\n      swap2\n      div\n      mul\n      0x20\n      add\n      mload(0x40)\n      swap1\n      dup2\n      add\n      0x40\n      mstore\n      dup1\n      swap3\n      swap2\n      swap1\n      dup2\n      dup2\n      mstore\n      0x20\n      add\n      dup3\n      dup1\n      sload\n      tag_54\n      swap1\n      tag_53\n      jump\t// in\n    tag_54:\n      dup1\n      iszero\n      tag_55\n      jumpi\n      dup1\n      0x1f\n      lt\n      tag_56\n      jumpi\n      0x0100\n      dup1\n      dup4\n      sload\n      div\n      mul\n      dup4\n      mstore\n      swap2\n      0x20\n      add\n      swap2\n      jump(tag_55)\n    tag_56:\n      dup3\n      add\n      swap2\n      swap1\n      0x00\n      mstore\n      keccak256(0x00, 0x20)\n      swap1\n    tag_57:\n      dup2\n      sload\n      dup2\n      mstore\n      swap1\n      0x01\n      add\n      swap1\n      0x20\n      add\n      dup1\n      dup4\n      gt\n      tag_57\n      jumpi\n      dup3\n      swap1\n      sub\n      0x1f\n      and\n      dup3\n      add\n      swap2\n    tag_55:\n      pop\n      pop\n      pop\n      pop\n      pop\n      swap1\n      dup1\n      0x02\n      add\n      0x00\n      swap1\n      sload\n      swap1\n      0x0100\n      exp\n      swap1\n      div\n      0xff\n      and\n      swap1\n      pop\n      dup4\n      jump\t// out\n        /* \"casaApuestas.sol\":1949:2238  function registrarEnCompetencia(uint _codCaballo, uint _codCarrera) public ... */\n    tag_25:\n        /* \"casaApuestas.sol\":657:666  anfitrion */\n      0x00\n      dup1\n      sload\n      swap1\n      0x0100\n      exp\n      swap1\n      div\n      0xffffffffffffffffffffffffffffffffffffffff\n      and\n        /* \"casaApuestas.sol\":643:666  msg.sender == anfitrion */\n      0xffffffffffffffffffffffffffffffffffffffff\n      and\n        /* \"casaApuestas.sol\":643:653  msg.sender */\n      caller\n        /* \"casaApuestas.sol\":643:666  msg.sender == anfitrion */\n      0xffffffffffffffffffffffffffffffffffffffff\n      and\n      eq\n        /* \"casaApuestas.sol\":635:705  require(msg.sender == anfitrion, \"El invocador debe ser el anfitrion\") */\n      tag_59\n      jumpi\n      mload(0x40)\n      0x08c379a000000000000000000000000000000000000000000000000000000000\n      dup2\n      mstore\n      0x04\n      add\n      tag_60\n      swap1\n      tag_48\n      jump\t// in\n    tag_60:\n      mload(0x40)\n      dup1\n      swap2\n      sub\n      swap1\n      revert\n    tag_59:\n        /* \"casaApuestas.sol\":2057:2068  _codCarrera */\n      dup1\n        /* \"casaApuestas.sol\":2070:2083  Estado.Creada */\n      0x00\n        /* \"casaApuestas.sol\":843:850  _estado */\n      dup1\n        /* \"casaApuestas.sol\":804:850  carreras[_codCarrera].estadoCarrera == _estado */\n      0x02\n      dup2\n      gt\n      iszero\n      tag_62\n      jumpi\n      tag_63\n      tag_64\n      jump\t// in\n    tag_63:\n    tag_62:\n        /* \"casaApuestas.sol\":804:812  carreras */\n      0x01\n        /* \"casaApuestas.sol\":804:825  carreras[_codCarrera] */\n      0x00\n        /* \"casaApuestas.sol\":813:824  _codCarrera */\n      dup5\n        /* \"casaApuestas.sol\":804:825  carreras[_codCarrera] */\n      dup2\n      mstore\n      0x20\n      add\n      swap1\n      dup2\n      mstore\n      0x20\n      add\n      0x00\n      keccak256\n        /* \"casaApuestas.sol\":804:839  carreras[_codCarrera].estadoCarrera */\n      0x02\n      add\n      0x00\n      swap1\n      sload\n      swap1\n      0x0100\n      exp\n      swap1\n      div\n      0xff\n      and\n        /* \"casaApuestas.sol\":804:850  carreras[_codCarrera].estadoCarrera == _estado */\n      0x02\n      dup2\n      gt\n      iszero\n      tag_65\n      jumpi\n      tag_66\n      tag_64\n      jump\t// in\n    tag_66:\n    tag_65:\n      eq\n        /* \"casaApuestas.sol\":796:899  require(carreras[_codCarrera].estadoCarrera == _estado, \"La carrera no cumple con el estado requerido\") */\n      tag_67\n      jumpi\n      mload(0x40)\n      0x08c379a000000000000000000000000000000000000000000000000000000000\n      dup2\n      mstore\n      0x04\n      add\n      tag_68\n      swap1\n      tag_69\n      jump\t// in\n    tag_68:\n      mload(0x40)\n      dup1\n      swap2\n      sub\n      swap1\n      revert\n    tag_67:\n        /* \"casaApuestas.sol\":2100:2111  _codCarrera */\n      dup3\n        /* \"casaApuestas.sol\":1021:1022  5 */\n      0x05\n        /* \"casaApuestas.sol\":986:998  competencias */\n      0x04\n        /* \"casaApuestas.sol\":986:1011  competencias[_codCarrera] */\n      0x00\n        /* \"casaApuestas.sol\":999:1010  _codCarrera */\n      dup4\n        /* \"casaApuestas.sol\":986:1011  competencias[_codCarrera] */\n      dup2\n      mstore\n      0x20\n      add\n      swap1\n      dup2\n      mstore\n      0x20\n      add\n      0x00\n      keccak256\n        /* \"casaApuestas.sol\":986:1018  competencias[_codCarrera].length */\n      dup1\n      sload\n      swap1\n      pop\n        /* \"casaApuestas.sol\":986:1022  competencias[_codCarrera].length < 5 */\n      lt\n        /* \"casaApuestas.sol\":978:1062  require(competencias[_codCarrera].length < 5, \"La carrera ya cuenta con 5 caballos\") */\n      tag_71\n      jumpi\n      mload(0x40)\n      0x08c379a000000000000000000000000000000000000000000000000000000000\n      dup2\n      mstore\n      0x04\n      add\n      tag_72\n      swap1\n      tag_73\n      jump\t// in\n    tag_72:\n      mload(0x40)\n      dup1\n      swap2\n      sub\n      swap1\n      revert\n    tag_71:\n        /* \"casaApuestas.sol\":2132:2143  _codCaballo */\n      dup5\n        /* \"casaApuestas.sol\":1366:1367  0 */\n      0x00\n        /* \"casaApuestas.sol\":1326:1334  caballos */\n      0x02\n        /* \"casaApuestas.sol\":1326:1347  caballos[_codCaballo] */\n      0x00\n        /* \"casaApuestas.sol\":1335:1346  _codCaballo */\n      dup4\n        /* \"casaApuestas.sol\":1326:1347  caballos[_codCaballo] */\n      dup2\n      mstore\n      0x20\n      add\n      swap1\n      dup2\n      mstore\n      0x20\n      add\n      0x00\n      keccak256\n        /* \"casaApuestas.sol\":1326:1354  caballos[_codCaballo].nombre */\n      0x01\n      add\n        /* \"casaApuestas.sol\":1320:1362  bytes(caballos[_codCaballo].nombre).length */\n      dup1\n      sload\n      tag_75\n      swap1\n      tag_53\n      jump\t// in\n    tag_75:\n      swap1\n      pop\n        /* \"casaApuestas.sol\":1320:1367  bytes(caballos[_codCaballo].nombre).length != 0 */\n      sub\n        /* \"casaApuestas.sol\":1312:1402  require(bytes(caballos[_codCaballo].nombre).length != 0, \"El caballo ingresado no existe\") */\n      tag_76\n      jumpi\n      mload(0x40)\n      0x08c379a000000000000000000000000000000000000000000000000000000000\n      dup2\n      mstore\n      0x04\n      add\n      tag_77\n      swap1\n      tag_78\n      jump\t// in\n    tag_77:\n      mload(0x40)\n      dup1\n      swap2\n      sub\n      swap1\n      revert\n    tag_76:\n        /* \"casaApuestas.sol\":2164:2175  _codCarrera */\n      dup5\n        /* \"casaApuestas.sol\":1535:1536  0 */\n      0x00\n        /* \"casaApuestas.sol\":1495:1503  caballos */\n      0x02\n        /* \"casaApuestas.sol\":1495:1516  caballos[_codCarrera] */\n      0x00\n        /* \"casaApuestas.sol\":1504:1515  _codCarrera */\n      dup4\n        /* \"casaApuestas.sol\":1495:1516  caballos[_codCarrera] */\n      dup2\n      mstore\n      0x20\n      add\n      swap1\n      dup2\n      mstore\n      0x20\n      add\n      0x00\n      keccak256\n        /* \"casaApuestas.sol\":1495:1523  caballos[_codCarrera].nombre */\n      0x01\n      add\n        /* \"casaApuestas.sol\":1489:1531  bytes(caballos[_codCarrera].nombre).length */\n      dup1\n      sload\n      tag_80\n      swap1\n      tag_53\n      jump\t// in\n    tag_80:\n      swap1\n      pop\n        /* \"casaApuestas.sol\":1489:1536  bytes(caballos[_codCarrera].nombre).length != 0 */\n      sub\n        /* \"casaApuestas.sol\":1481:1571  require(bytes(caballos[_codCarrera].nombre).length != 0, \"La carrera ingresada no existe\") */\n      tag_81\n      jumpi\n      mload(0x40)\n      0x08c379a000000000000000000000000000000000000000000000000000000000\n      dup2\n      mstore\n      0x04\n      add\n      tag_82\n      swap1\n      tag_83\n      jump\t// in\n    tag_82:\n      mload(0x40)\n      dup1\n      swap2\n      sub\n      swap1\n      revert\n    tag_81:\n        /* \"casaApuestas.sol\":2187:2199  competencias */\n      0x04\n        /* \"casaApuestas.sol\":2187:2212  competencias[_codCarrera] */\n      0x00\n        /* \"casaApuestas.sol\":2200:2211  _codCarrera */\n      dup8\n        /* \"casaApuestas.sol\":2187:2212  competencias[_codCarrera] */\n      dup2\n      mstore\n      0x20\n      add\n      swap1\n      dup2\n      mstore\n      0x20\n      add\n      0x00\n      keccak256\n        /* \"casaApuestas.sol\":2218:2229  _codCaballo */\n      dup8\n        /* \"casaApuestas.sol\":2187:2230  competencias[_codCarrera].push(_codCaballo) */\n      swap1\n      dup1\n      0x01\n      dup2\n      sload\n      add\n      dup1\n      dup3\n      sstore\n      dup1\n      swap2\n      pop\n      pop\n      0x01\n      swap1\n      sub\n      swap1\n      0x00\n      mstore\n      keccak256(0x00, 0x20)\n      add\n      0x00\n      swap1\n      swap2\n      swap1\n      swap2\n      swap1\n      swap2\n      pop\n      sstore\n        /* \"casaApuestas.sol\":1413:1414  _ */\n      pop\n        /* \"casaApuestas.sol\":1073:1074  _ */\n      pop\n        /* \"casaApuestas.sol\":910:911  _ */\n      pop\n        /* \"casaApuestas.sol\":716:717  _ */\n      pop\n      pop\n        /* \"casaApuestas.sol\":1949:2238  function registrarEnCompetencia(uint _codCaballo, uint _codCarrera) public ... */\n      pop\n      pop\n      jump\t// out\n        /* \"casaApuestas.sol\":265:290  uint public totalCarreras */\n    tag_27:\n      sload(0x03)\n      dup2\n      jump\t// out\n        /* \"casaApuestas.sol\":196:236  mapping(uint => Caballo) public caballos */\n    tag_32:\n      mstore(0x20, 0x02)\n      dup1\n      0x00\n      mstore\n      keccak256(0x00, 0x40)\n      0x00\n      swap2\n      pop\n      swap1\n      pop\n      dup1\n      0x00\n      add\n      sload\n      swap1\n      dup1\n      0x01\n      add\n      dup1\n      sload\n      tag_86\n      swap1\n      tag_53\n      jump\t// in\n    tag_86:\n      dup1\n      0x1f\n      add\n      0x20\n      dup1\n      swap2\n      div\n      mul\n      0x20\n      add\n      mload(0x40)\n      swap1\n      dup2\n      add\n      0x40\n      mstore\n      dup1\n      swap3\n      swap2\n      swap1\n      dup2\n      dup2\n      mstore\n      0x20\n      add\n      dup3\n      dup1\n      sload\n      tag_87\n      swap1\n      tag_53\n      jump\t// in\n    tag_87:\n      dup1\n      iszero\n      tag_88\n      jumpi\n      dup1\n      0x1f\n      lt\n      tag_89\n      jumpi\n      0x0100\n      dup1\n      dup4\n      sload\n      div\n      mul\n      dup4\n      mstore\n      swap2\n      0x20\n      add\n      swap2\n      jump(tag_88)\n    tag_89:\n      dup3\n      add\n      swap2\n      swap1\n      0x00\n      mstore\n      keccak256(0x00, 0x20)\n      swap1\n    tag_90:\n      dup2\n      sload\n      dup2\n      mstore\n      swap1\n      0x01\n      add\n      swap1\n      0x20\n      add\n      dup1\n      dup4\n      gt\n      tag_90\n      jumpi\n      dup3\n      swap1\n      sub\n      0x1f\n      and\n      dup3\n      add\n      swap2\n    tag_88:\n      pop\n      pop\n      pop\n      pop\n      pop\n      swap1\n      pop\n      dup3\n      jump\t// out\n        /* \"casaApuestas.sol\":2246:2448  function registrarCarrera(uint _codCarrera) public ... */\n    tag_37:\n        /* \"casaApuestas.sol\":657:666  anfitrion */\n      0x00\n      dup1\n      sload\n      swap1\n      0x0100\n      exp\n      swap1\n      div\n      0xffffffffffffffffffffffffffffffffffffffff\n      and\n        /* \"casaApuestas.sol\":643:666  msg.sender == anfitrion */\n      0xffffffffffffffffffffffffffffffffffffffff\n      and\n        /* \"casaApuestas.sol\":643:653  msg.sender */\n      caller\n        /* \"casaApuestas.sol\":643:666  msg.sender == anfitrion */\n      0xffffffffffffffffffffffffffffffffffffffff\n      and\n      eq\n        /* \"casaApuestas.sol\":635:705  require(msg.sender == anfitrion, \"El invocador debe ser el anfitrion\") */\n      tag_92\n      jumpi\n      mload(0x40)\n      0x08c379a000000000000000000000000000000000000000000000000000000000\n      dup2\n      mstore\n      0x04\n      add\n      tag_93\n      swap1\n      tag_48\n      jump\t// in\n    tag_93:\n      mload(0x40)\n      dup1\n      swap2\n      sub\n      swap1\n      revert\n    tag_92:\n        /* \"casaApuestas.sol\":2334:2345  _codCarrera */\n      dup1\n        /* \"casaApuestas.sol\":1535:1536  0 */\n      0x00\n        /* \"casaApuestas.sol\":1495:1503  caballos */\n      0x02\n        /* \"casaApuestas.sol\":1495:1516  caballos[_codCarrera] */\n      0x00\n        /* \"casaApuestas.sol\":1504:1515  _codCarrera */\n      dup4\n        /* \"casaApuestas.sol\":1495:1516  caballos[_codCarrera] */\n      dup2\n      mstore\n      0x20\n      add\n      swap1\n      dup2\n      mstore\n      0x20\n      add\n      0x00\n      keccak256\n        /* \"casaApuestas.sol\":1495:1523  caballos[_codCarrera].nombre */\n      0x01\n      add\n        /* \"casaApuestas.sol\":1489:1531  bytes(caballos[_codCarrera].nombre).length */\n      dup1\n      sload\n      tag_95\n      swap1\n      tag_53\n      jump\t// in\n    tag_95:\n      swap1\n      pop\n        /* \"casaApuestas.sol\":1489:1536  bytes(caballos[_codCarrera].nombre).length != 0 */\n      sub\n        /* \"casaApuestas.sol\":1481:1571  require(bytes(caballos[_codCarrera].nombre).length != 0, \"La carrera ingresada no existe\") */\n      tag_96\n      jumpi\n      mload(0x40)\n      0x08c379a000000000000000000000000000000000000000000000000000000000\n      dup2\n      mstore\n      0x04\n      add\n      tag_97\n      swap1\n      tag_83\n      jump\t// in\n    tag_97:\n      mload(0x40)\n      dup1\n      swap2\n      sub\n      swap1\n      revert\n    tag_96:\n        /* \"casaApuestas.sol\":2362:2373  _codCarrera */\n      dup2\n        /* \"casaApuestas.sol\":1181:1182  2 */\n      0x02\n        /* \"casaApuestas.sol\":1145:1157  competencias */\n      0x04\n        /* \"casaApuestas.sol\":1145:1170  competencias[_codCarrera] */\n      0x00\n        /* \"casaApuestas.sol\":1158:1169  _codCarrera */\n      dup4\n        /* \"casaApuestas.sol\":1145:1170  competencias[_codCarrera] */\n      dup2\n      mstore\n      0x20\n      add\n      swap1\n      dup2\n      mstore\n      0x20\n      add\n      0x00\n      keccak256\n        /* \"casaApuestas.sol\":1145:1177  competencias[_codCarrera].length */\n      dup1\n      sload\n      swap1\n      pop\n        /* \"casaApuestas.sol\":1145:1182  competencias[_codCarrera].length >= 2 */\n      lt\n      iszero\n        /* \"casaApuestas.sol\":1137:1233  require(competencias[_codCarrera].length >= 2, \"La carrera debe contar con al menos 2 caballos\") */\n      tag_99\n      jumpi\n      mload(0x40)\n      0x08c379a000000000000000000000000000000000000000000000000000000000\n      dup2\n      mstore\n      0x04\n      add\n      tag_100\n      swap1\n      tag_101\n      jump\t// in\n    tag_100:\n      mload(0x40)\n      dup1\n      swap2\n      sub\n      swap1\n      revert\n    tag_99:\n        /* \"casaApuestas.sol\":2423:2440  Estado.Registrada */\n      0x01\n        /* \"casaApuestas.sol\":2385:2393  carreras */\n      dup1\n        /* \"casaApuestas.sol\":2385:2406  carreras[_codCarrera] */\n      0x00\n        /* \"casaApuestas.sol\":2394:2405  _codCarrera */\n      dup6\n        /* \"casaApuestas.sol\":2385:2406  carreras[_codCarrera] */\n      dup2\n      mstore\n      0x20\n      add\n      swap1\n      dup2\n      mstore\n      0x20\n      add\n      0x00\n      keccak256\n        /* \"casaApuestas.sol\":2385:2420  carreras[_codCarrera].estadoCarrera */\n      0x02\n      add\n      0x00\n        /* \"casaApuestas.sol\":2385:2440  carreras[_codCarrera].estadoCarrera = Estado.Registrada */\n      0x0100\n      exp\n      dup2\n      sload\n      dup2\n      0xff\n      mul\n      not\n      and\n      swap1\n      dup4\n      0x02\n      dup2\n      gt\n      iszero\n      tag_103\n      jumpi\n      tag_104\n      tag_64\n      jump\t// in\n    tag_104:\n    tag_103:\n      mul\n      or\n      swap1\n      sstore\n      pop\n        /* \"casaApuestas.sol\":1582:1583  _ */\n      pop\n        /* \"casaApuestas.sol\":716:717  _ */\n      pop\n        /* \"casaApuestas.sol\":2246:2448  function registrarCarrera(uint _codCarrera) public ... */\n      pop\n      jump\t// out\n        /* \"casaApuestas.sol\":1603:1788  function crearCarrera(uint _codigo, string memory _nombre) public isAnfitrion{... */\n    tag_40:\n        /* \"casaApuestas.sol\":657:666  anfitrion */\n      0x00\n      dup1\n      sload\n      swap1\n      0x0100\n      exp\n      swap1\n      div\n      0xffffffffffffffffffffffffffffffffffffffff\n      and\n        /* \"casaApuestas.sol\":643:666  msg.sender == anfitrion */\n      0xffffffffffffffffffffffffffffffffffffffff\n      and\n        /* \"casaApuestas.sol\":643:653  msg.sender */\n      caller\n        /* \"casaApuestas.sol\":643:666  msg.sender == anfitrion */\n      0xffffffffffffffffffffffffffffffffffffffff\n      and\n      eq\n        /* \"casaApuestas.sol\":635:705  require(msg.sender == anfitrion, \"El invocador debe ser el anfitrion\") */\n      tag_106\n      jumpi\n      mload(0x40)\n      0x08c379a000000000000000000000000000000000000000000000000000000000\n      dup2\n      mstore\n      0x04\n      add\n      tag_107\n      swap1\n      tag_48\n      jump\t// in\n    tag_107:\n      mload(0x40)\n      dup1\n      swap2\n      sub\n      swap1\n      revert\n    tag_106:\n        /* \"casaApuestas.sol\":1711:1751  Carrera(_codigo, _nombre, Estado.Creada) */\n      mload(0x40)\n      dup1\n      0x60\n      add\n      0x40\n      mstore\n      dup1\n        /* \"casaApuestas.sol\":1719:1726  _codigo */\n      dup4\n        /* \"casaApuestas.sol\":1711:1751  Carrera(_codigo, _nombre, Estado.Creada) */\n      dup2\n      mstore\n      0x20\n      add\n        /* \"casaApuestas.sol\":1728:1735  _nombre */\n      dup3\n        /* \"casaApuestas.sol\":1711:1751  Carrera(_codigo, _nombre, Estado.Creada) */\n      dup2\n      mstore\n      0x20\n      add\n        /* \"casaApuestas.sol\":1737:1750  Estado.Creada */\n      0x00\n        /* \"casaApuestas.sol\":1711:1751  Carrera(_codigo, _nombre, Estado.Creada) */\n      0x02\n      dup2\n      gt\n      iszero\n      tag_109\n      jumpi\n      tag_110\n      tag_64\n      jump\t// in\n    tag_110:\n    tag_109:\n      dup2\n      mstore\n      pop\n        /* \"casaApuestas.sol\":1691:1699  carreras */\n      0x01\n        /* \"casaApuestas.sol\":1691:1708  carreras[_codigo] */\n      0x00\n        /* \"casaApuestas.sol\":1700:1707  _codigo */\n      dup5\n        /* \"casaApuestas.sol\":1691:1708  carreras[_codigo] */\n      dup2\n      mstore\n      0x20\n      add\n      swap1\n      dup2\n      mstore\n      0x20\n      add\n      0x00\n      keccak256\n        /* \"casaApuestas.sol\":1691:1751  carreras[_codigo] = Carrera(_codigo, _nombre, Estado.Creada) */\n      0x00\n      dup3\n      add\n      mload\n      dup2\n      0x00\n      add\n      sstore\n      0x20\n      dup3\n      add\n      mload\n      dup2\n      0x01\n      add\n      swap1\n      dup2\n      tag_111\n      swap2\n      swap1\n      tag_51\n      jump\t// in\n    tag_111:\n      pop\n      0x40\n      dup3\n      add\n      mload\n      dup2\n      0x02\n      add\n      exp(0x0100, 0x00)\n      dup2\n      sload\n      dup2\n      0xff\n      mul\n      not\n      and\n      swap1\n      dup4\n      0x02\n      dup2\n      gt\n      iszero\n      tag_112\n      jumpi\n      tag_113\n      tag_64\n      jump\t// in\n    tag_113:\n    tag_112:\n      mul\n      or\n      swap1\n      sstore\n      pop\n      swap1\n      pop\n      pop\n        /* \"casaApuestas.sol\":1779:1780  1 */\n      0x01\n        /* \"casaApuestas.sol\":1762:1775  totalCarreras */\n      0x03\n      0x00\n        /* \"casaApuestas.sol\":1762:1780  totalCarreras += 1 */\n      dup3\n      dup3\n      sload\n      tag_114\n      swap2\n      swap1\n      tag_115\n      jump\t// in\n    tag_114:\n      swap3\n      pop\n      pop\n      dup2\n      swap1\n      sstore\n      pop\n        /* \"casaApuestas.sol\":1603:1788  function crearCarrera(uint _codigo, string memory _nombre) public isAnfitrion{... */\n      pop\n      pop\n      jump\t// out\n        /* \"casaApuestas.sol\":297:340  mapping(uint => uint[]) public competencias */\n    tag_43:\n      mstore(0x20, 0x04)\n      dup2\n      0x00\n      mstore\n      keccak256(0x00, 0x40)\n      dup2\n      dup2\n      sload\n      dup2\n      lt\n      tag_116\n      jumpi\n      0x00\n      dup1\n      revert\n    tag_116:\n      swap1\n      0x00\n      mstore\n      keccak256(0x00, 0x20)\n      add\n      0x00\n      swap2\n      pop\n      swap2\n      pop\n      pop\n      sload\n      dup2\n      jump\t// out\n        /* \"#utility.yul\":7:82   */\n    tag_118:\n        /* \"#utility.yul\":40:46   */\n      0x00\n        /* \"#utility.yul\":73:75   */\n      0x40\n        /* \"#utility.yul\":67:76   */\n      mload\n        /* \"#utility.yul\":57:76   */\n      swap1\n      pop\n        /* \"#utility.yul\":7:82   */\n      swap1\n      jump\t// out\n        /* \"#utility.yul\":88:205   */\n    tag_119:\n        /* \"#utility.yul\":197:198   */\n      0x00\n        /* \"#utility.yul\":194:195   */\n      dup1\n        /* \"#utility.yul\":187:199   */\n      revert\n        /* \"#utility.yul\":211:328   */\n    tag_120:\n        /* \"#utility.yul\":320:321   */\n      0x00\n        /* \"#utility.yul\":317:318   */\n      dup1\n        /* \"#utility.yul\":310:322   */\n      revert\n        /* \"#utility.yul\":334:411   */\n    tag_121:\n        /* \"#utility.yul\":371:378   */\n      0x00\n        /* \"#utility.yul\":400:405   */\n      dup2\n        /* \"#utility.yul\":389:405   */\n      swap1\n      pop\n        /* \"#utility.yul\":334:411   */\n      swap2\n      swap1\n      pop\n      jump\t// out\n        /* \"#utility.yul\":417:539   */\n    tag_122:\n        /* \"#utility.yul\":490:514   */\n      tag_178\n        /* \"#utility.yul\":508:513   */\n      dup2\n        /* \"#utility.yul\":490:514   */\n      tag_121\n      jump\t// in\n    tag_178:\n        /* \"#utility.yul\":483:488   */\n      dup2\n        /* \"#utility.yul\":480:515   */\n      eq\n        /* \"#utility.yul\":470:533   */\n      tag_179\n      jumpi\n        /* \"#utility.yul\":529:530   */\n      0x00\n        /* \"#utility.yul\":526:527   */\n      dup1\n        /* \"#utility.yul\":519:531   */\n      revert\n        /* \"#utility.yul\":470:533   */\n    tag_179:\n        /* \"#utility.yul\":417:539   */\n      pop\n      jump\t// out\n        /* \"#utility.yul\":545:684   */\n    tag_123:\n        /* \"#utility.yul\":591:596   */\n      0x00\n        /* \"#utility.yul\":629:635   */\n      dup2\n        /* \"#utility.yul\":616:636   */\n      calldataload\n        /* \"#utility.yul\":607:636   */\n      swap1\n      pop\n        /* \"#utility.yul\":645:678   */\n      tag_181\n        /* \"#utility.yul\":672:677   */\n      dup2\n        /* \"#utility.yul\":645:678   */\n      tag_122\n      jump\t// in\n    tag_181:\n        /* \"#utility.yul\":545:684   */\n      swap3\n      swap2\n      pop\n      pop\n      jump\t// out\n        /* \"#utility.yul\":690:807   */\n    tag_124:\n        /* \"#utility.yul\":799:800   */\n      0x00\n        /* \"#utility.yul\":796:797   */\n      dup1\n        /* \"#utility.yul\":789:801   */\n      revert\n        /* \"#utility.yul\":813:930   */\n    tag_125:\n        /* \"#utility.yul\":922:923   */\n      0x00\n        /* \"#utility.yul\":919:920   */\n      dup1\n        /* \"#utility.yul\":912:924   */\n      revert\n        /* \"#utility.yul\":936:1038   */\n    tag_126:\n        /* \"#utility.yul\":977:983   */\n      0x00\n        /* \"#utility.yul\":1028:1030   */\n      0x1f\n        /* \"#utility.yul\":1024:1031   */\n      not\n        /* \"#utility.yul\":1019:1021   */\n      0x1f\n        /* \"#utility.yul\":1012:1017   */\n      dup4\n        /* \"#utility.yul\":1008:1022   */\n      add\n        /* \"#utility.yul\":1004:1032   */\n      and\n        /* \"#utility.yul\":994:1032   */\n      swap1\n      pop\n        /* \"#utility.yul\":936:1038   */\n      swap2\n      swap1\n      pop\n      jump\t// out\n        /* \"#utility.yul\":1044:1224   */\n    tag_127:\n        /* \"#utility.yul\":1092:1169   */\n      0x4e487b7100000000000000000000000000000000000000000000000000000000\n        /* \"#utility.yul\":1089:1090   */\n      0x00\n        /* \"#utility.yul\":1082:1170   */\n      mstore\n        /* \"#utility.yul\":1189:1193   */\n      0x41\n        /* \"#utility.yul\":1186:1187   */\n      0x04\n        /* \"#utility.yul\":1179:1194   */\n      mstore\n        /* \"#utility.yul\":1213:1217   */\n      0x24\n        /* \"#utility.yul\":1210:1211   */\n      0x00\n        /* \"#utility.yul\":1203:1218   */\n      revert\n        /* \"#utility.yul\":1230:1511   */\n    tag_128:\n        /* \"#utility.yul\":1313:1340   */\n      tag_187\n        /* \"#utility.yul\":1335:1339   */\n      dup3\n        /* \"#utility.yul\":1313:1340   */\n      tag_126\n      jump\t// in\n    tag_187:\n        /* \"#utility.yul\":1305:1311   */\n      dup2\n        /* \"#utility.yul\":1301:1341   */\n      add\n        /* \"#utility.yul\":1443:1449   */\n      dup2\n        /* \"#utility.yul\":1431:1441   */\n      dup2\n        /* \"#utility.yul\":1428:1450   */\n      lt\n        /* \"#utility.yul\":1407:1425   */\n      0xffffffffffffffff\n        /* \"#utility.yul\":1395:1405   */\n      dup3\n        /* \"#utility.yul\":1392:1426   */\n      gt\n        /* \"#utility.yul\":1389:1451   */\n      or\n        /* \"#utility.yul\":1386:1474   */\n      iszero\n      tag_188\n      jumpi\n        /* \"#utility.yul\":1454:1472   */\n      tag_189\n      tag_127\n      jump\t// in\n    tag_189:\n        /* \"#utility.yul\":1386:1474   */\n    tag_188:\n        /* \"#utility.yul\":1494:1504   */\n      dup1\n        /* \"#utility.yul\":1490:1492   */\n      0x40\n        /* \"#utility.yul\":1483:1505   */\n      mstore\n        /* \"#utility.yul\":1273:1511   */\n      pop\n        /* \"#utility.yul\":1230:1511   */\n      pop\n      pop\n      jump\t// out\n        /* \"#utility.yul\":1517:1646   */\n    tag_129:\n        /* \"#utility.yul\":1551:1557   */\n      0x00\n        /* \"#utility.yul\":1578:1598   */\n      tag_191\n      tag_118\n      jump\t// in\n    tag_191:\n        /* \"#utility.yul\":1568:1598   */\n      swap1\n      pop\n        /* \"#utility.yul\":1607:1640   */\n      tag_192\n        /* \"#utility.yul\":1635:1639   */\n      dup3\n        /* \"#utility.yul\":1627:1633   */\n      dup3\n        /* \"#utility.yul\":1607:1640   */\n      tag_128\n      jump\t// in\n    tag_192:\n        /* \"#utility.yul\":1517:1646   */\n      swap2\n      swap1\n      pop\n      jump\t// out\n        /* \"#utility.yul\":1652:1960   */\n    tag_130:\n        /* \"#utility.yul\":1714:1718   */\n      0x00\n        /* \"#utility.yul\":1804:1822   */\n      0xffffffffffffffff\n        /* \"#utility.yul\":1796:1802   */\n      dup3\n        /* \"#utility.yul\":1793:1823   */\n      gt\n        /* \"#utility.yul\":1790:1846   */\n      iszero\n      tag_194\n      jumpi\n        /* \"#utility.yul\":1826:1844   */\n      tag_195\n      tag_127\n      jump\t// in\n    tag_195:\n        /* \"#utility.yul\":1790:1846   */\n    tag_194:\n        /* \"#utility.yul\":1864:1893   */\n      tag_196\n        /* \"#utility.yul\":1886:1892   */\n      dup3\n        /* \"#utility.yul\":1864:1893   */\n      tag_126\n      jump\t// in\n    tag_196:\n        /* \"#utility.yul\":1856:1893   */\n      swap1\n      pop\n        /* \"#utility.yul\":1948:1952   */\n      0x20\n        /* \"#utility.yul\":1942:1946   */\n      dup2\n        /* \"#utility.yul\":1938:1953   */\n      add\n        /* \"#utility.yul\":1930:1953   */\n      swap1\n      pop\n        /* \"#utility.yul\":1652:1960   */\n      swap2\n      swap1\n      pop\n      jump\t// out\n        /* \"#utility.yul\":1966:2112   */\n    tag_131:\n        /* \"#utility.yul\":2063:2069   */\n      dup3\n        /* \"#utility.yul\":2058:2061   */\n      dup2\n        /* \"#utility.yul\":2053:2056   */\n      dup4\n        /* \"#utility.yul\":2040:2070   */\n      calldatacopy\n        /* \"#utility.yul\":2104:2105   */\n      0x00\n        /* \"#utility.yul\":2095:2101   */\n      dup4\n        /* \"#utility.yul\":2090:2093   */\n      dup4\n        /* \"#utility.yul\":2086:2102   */\n      add\n        /* \"#utility.yul\":2079:2106   */\n      mstore\n        /* \"#utility.yul\":1966:2112   */\n      pop\n      pop\n      pop\n      jump\t// out\n        /* \"#utility.yul\":2118:2543   */\n    tag_132:\n        /* \"#utility.yul\":2196:2201   */\n      0x00\n        /* \"#utility.yul\":2221:2287   */\n      tag_199\n        /* \"#utility.yul\":2237:2286   */\n      tag_200\n        /* \"#utility.yul\":2279:2285   */\n      dup5\n        /* \"#utility.yul\":2237:2286   */\n      tag_130\n      jump\t// in\n    tag_200:\n        /* \"#utility.yul\":2221:2287   */\n      tag_129\n      jump\t// in\n    tag_199:\n        /* \"#utility.yul\":2212:2287   */\n      swap1\n      pop\n        /* \"#utility.yul\":2310:2316   */\n      dup3\n        /* \"#utility.yul\":2303:2308   */\n      dup2\n        /* \"#utility.yul\":2296:2317   */\n      mstore\n        /* \"#utility.yul\":2348:2352   */\n      0x20\n        /* \"#utility.yul\":2341:2346   */\n      dup2\n        /* \"#utility.yul\":2337:2353   */\n      add\n        /* \"#utility.yul\":2386:2389   */\n      dup5\n        /* \"#utility.yul\":2377:2383   */\n      dup5\n        /* \"#utility.yul\":2372:2375   */\n      dup5\n        /* \"#utility.yul\":2368:2384   */\n      add\n        /* \"#utility.yul\":2365:2390   */\n      gt\n        /* \"#utility.yul\":2362:2474   */\n      iszero\n      tag_201\n      jumpi\n        /* \"#utility.yul\":2393:2472   */\n      tag_202\n      tag_125\n      jump\t// in\n    tag_202:\n        /* \"#utility.yul\":2362:2474   */\n    tag_201:\n        /* \"#utility.yul\":2483:2537   */\n      tag_203\n        /* \"#utility.yul\":2530:2536   */\n      dup5\n        /* \"#utility.yul\":2525:2528   */\n      dup3\n        /* \"#utility.yul\":2520:2523   */\n      dup6\n        /* \"#utility.yul\":2483:2537   */\n      tag_131\n      jump\t// in\n    tag_203:\n        /* \"#utility.yul\":2202:2543   */\n      pop\n        /* \"#utility.yul\":2118:2543   */\n      swap4\n      swap3\n      pop\n      pop\n      pop\n      jump\t// out\n        /* \"#utility.yul\":2563:2903   */\n    tag_133:\n        /* \"#utility.yul\":2619:2624   */\n      0x00\n        /* \"#utility.yul\":2668:2671   */\n      dup3\n        /* \"#utility.yul\":2661:2665   */\n      0x1f\n        /* \"#utility.yul\":2653:2659   */\n      dup4\n        /* \"#utility.yul\":2649:2666   */\n      add\n        /* \"#utility.yul\":2645:2672   */\n      slt\n        /* \"#utility.yul\":2635:2757   */\n      tag_205\n      jumpi\n        /* \"#utility.yul\":2676:2755   */\n      tag_206\n      tag_124\n      jump\t// in\n    tag_206:\n        /* \"#utility.yul\":2635:2757   */\n    tag_205:\n        /* \"#utility.yul\":2793:2799   */\n      dup2\n        /* \"#utility.yul\":2780:2800   */\n      calldataload\n        /* \"#utility.yul\":2818:2897   */\n      tag_207\n        /* \"#utility.yul\":2893:2896   */\n      dup5\n        /* \"#utility.yul\":2885:2891   */\n      dup3\n        /* \"#utility.yul\":2878:2882   */\n      0x20\n        /* \"#utility.yul\":2870:2876   */\n      dup7\n        /* \"#utility.yul\":2866:2883   */\n      add\n        /* \"#utility.yul\":2818:2897   */\n      tag_132\n      jump\t// in\n    tag_207:\n        /* \"#utility.yul\":2809:2897   */\n      swap2\n      pop\n        /* \"#utility.yul\":2625:2903   */\n      pop\n        /* \"#utility.yul\":2563:2903   */\n      swap3\n      swap2\n      pop\n      pop\n      jump\t// out\n        /* \"#utility.yul\":2909:3563   */\n    tag_14:\n        /* \"#utility.yul\":2987:2993   */\n      0x00\n        /* \"#utility.yul\":2995:3001   */\n      dup1\n        /* \"#utility.yul\":3044:3046   */\n      0x40\n        /* \"#utility.yul\":3032:3041   */\n      dup4\n        /* \"#utility.yul\":3023:3030   */\n      dup6\n        /* \"#utility.yul\":3019:3042   */\n      sub\n        /* \"#utility.yul\":3015:3047   */\n      slt\n        /* \"#utility.yul\":3012:3131   */\n      iszero\n      tag_209\n      jumpi\n        /* \"#utility.yul\":3050:3129   */\n      tag_210\n      tag_119\n      jump\t// in\n    tag_210:\n        /* \"#utility.yul\":3012:3131   */\n    tag_209:\n        /* \"#utility.yul\":3170:3171   */\n      0x00\n        /* \"#utility.yul\":3195:3248   */\n      tag_211\n        /* \"#utility.yul\":3240:3247   */\n      dup6\n        /* \"#utility.yul\":3231:3237   */\n      dup3\n        /* \"#utility.yul\":3220:3229   */\n      dup7\n        /* \"#utility.yul\":3216:3238   */\n      add\n        /* \"#utility.yul\":3195:3248   */\n      tag_123\n      jump\t// in\n    tag_211:\n        /* \"#utility.yul\":3185:3248   */\n      swap3\n      pop\n        /* \"#utility.yul\":3141:3258   */\n      pop\n        /* \"#utility.yul\":3325:3327   */\n      0x20\n        /* \"#utility.yul\":3314:3323   */\n      dup4\n        /* \"#utility.yul\":3310:3328   */\n      add\n        /* \"#utility.yul\":3297:3329   */\n      calldataload\n        /* \"#utility.yul\":3356:3374   */\n      0xffffffffffffffff\n        /* \"#utility.yul\":3348:3354   */\n      dup2\n        /* \"#utility.yul\":3345:3375   */\n      gt\n        /* \"#utility.yul\":3342:3459   */\n      iszero\n      tag_212\n      jumpi\n        /* \"#utility.yul\":3378:3457   */\n      tag_213\n      tag_120\n      jump\t// in\n    tag_213:\n        /* \"#utility.yul\":3342:3459   */\n    tag_212:\n        /* \"#utility.yul\":3483:3546   */\n      tag_214\n        /* \"#utility.yul\":3538:3545   */\n      dup6\n        /* \"#utility.yul\":3529:3535   */\n      dup3\n        /* \"#utility.yul\":3518:3527   */\n      dup7\n        /* \"#utility.yul\":3514:3536   */\n      add\n        /* \"#utility.yul\":3483:3546   */\n      tag_133\n      jump\t// in\n    tag_214:\n        /* \"#utility.yul\":3473:3546   */\n      swap2\n      pop\n        /* \"#utility.yul\":3268:3556   */\n      pop\n        /* \"#utility.yul\":2909:3563   */\n      swap3\n      pop\n      swap3\n      swap1\n      pop\n      jump\t// out\n        /* \"#utility.yul\":3569:3898   */\n    tag_18:\n        /* \"#utility.yul\":3628:3634   */\n      0x00\n        /* \"#utility.yul\":3677:3679   */\n      0x20\n        /* \"#utility.yul\":3665:3674   */\n      dup3\n        /* \"#utility.yul\":3656:3663   */\n      dup5\n        /* \"#utility.yul\":3652:3675   */\n      sub\n        /* \"#utility.yul\":3648:3680   */\n      slt\n        /* \"#utility.yul\":3645:3764   */\n      iszero\n      tag_216\n      jumpi\n        /* \"#utility.yul\":3683:3762   */\n      tag_217\n      tag_119\n      jump\t// in\n    tag_217:\n        /* \"#utility.yul\":3645:3764   */\n    tag_216:\n        /* \"#utility.yul\":3803:3804   */\n      0x00\n        /* \"#utility.yul\":3828:3881   */\n      tag_218\n        /* \"#utility.yul\":3873:3880   */\n      dup5\n        /* \"#utility.yul\":3864:3870   */\n      dup3\n        /* \"#utility.yul\":3853:3862   */\n      dup6\n        /* \"#utility.yul\":3849:3871   */\n      add\n        /* \"#utility.yul\":3828:3881   */\n      tag_123\n      jump\t// in\n    tag_218:\n        /* \"#utility.yul\":3818:3881   */\n      swap2\n      pop\n        /* \"#utility.yul\":3774:3891   */\n      pop\n        /* \"#utility.yul\":3569:3898   */\n      swap3\n      swap2\n      pop\n      pop\n      jump\t// out\n        /* \"#utility.yul\":3904:4022   */\n    tag_134:\n        /* \"#utility.yul\":3991:4015   */\n      tag_220\n        /* \"#utility.yul\":4009:4014   */\n      dup2\n        /* \"#utility.yul\":3991:4015   */\n      tag_121\n      jump\t// in\n    tag_220:\n        /* \"#utility.yul\":3986:3989   */\n      dup3\n        /* \"#utility.yul\":3979:4016   */\n      mstore\n        /* \"#utility.yul\":3904:4022   */\n      pop\n      pop\n      jump\t// out\n        /* \"#utility.yul\":4028:4127   */\n    tag_135:\n        /* \"#utility.yul\":4080:4086   */\n      0x00\n        /* \"#utility.yul\":4114:4119   */\n      dup2\n        /* \"#utility.yul\":4108:4120   */\n      mload\n        /* \"#utility.yul\":4098:4120   */\n      swap1\n      pop\n        /* \"#utility.yul\":4028:4127   */\n      swap2\n      swap1\n      pop\n      jump\t// out\n        /* \"#utility.yul\":4133:4302   */\n    tag_136:\n        /* \"#utility.yul\":4217:4228   */\n      0x00\n        /* \"#utility.yul\":4251:4257   */\n      dup3\n        /* \"#utility.yul\":4246:4249   */\n      dup3\n        /* \"#utility.yul\":4239:4258   */\n      mstore\n        /* \"#utility.yul\":4291:4295   */\n      0x20\n        /* \"#utility.yul\":4286:4289   */\n      dup3\n        /* \"#utility.yul\":4282:4296   */\n      add\n        /* \"#utility.yul\":4267:4296   */\n      swap1\n      pop\n        /* \"#utility.yul\":4133:4302   */\n      swap3\n      swap2\n      pop\n      pop\n      jump\t// out\n        /* \"#utility.yul\":4308:4554   */\n    tag_137:\n        /* \"#utility.yul\":4389:4390   */\n      0x00\n        /* \"#utility.yul\":4399:4512   */\n    tag_224:\n        /* \"#utility.yul\":4413:4419   */\n      dup4\n        /* \"#utility.yul\":4410:4411   */\n      dup2\n        /* \"#utility.yul\":4407:4420   */\n      lt\n        /* \"#utility.yul\":4399:4512   */\n      iszero\n      tag_226\n      jumpi\n        /* \"#utility.yul\":4498:4499   */\n      dup1\n        /* \"#utility.yul\":4493:4496   */\n      dup3\n        /* \"#utility.yul\":4489:4500   */\n      add\n        /* \"#utility.yul\":4483:4501   */\n      mload\n        /* \"#utility.yul\":4479:4480   */\n      dup2\n        /* \"#utility.yul\":4474:4477   */\n      dup5\n        /* \"#utility.yul\":4470:4481   */\n      add\n        /* \"#utility.yul\":4463:4502   */\n      mstore\n        /* \"#utility.yul\":4435:4437   */\n      0x20\n        /* \"#utility.yul\":4432:4433   */\n      dup2\n        /* \"#utility.yul\":4428:4438   */\n      add\n        /* \"#utility.yul\":4423:4438   */\n      swap1\n      pop\n        /* \"#utility.yul\":4399:4512   */\n      jump(tag_224)\n    tag_226:\n        /* \"#utility.yul\":4546:4547   */\n      0x00\n        /* \"#utility.yul\":4537:4543   */\n      dup5\n        /* \"#utility.yul\":4532:4535   */\n      dup5\n        /* \"#utility.yul\":4528:4544   */\n      add\n        /* \"#utility.yul\":4521:4548   */\n      mstore\n        /* \"#utility.yul\":4370:4554   */\n      pop\n        /* \"#utility.yul\":4308:4554   */\n      pop\n      pop\n      pop\n      jump\t// out\n        /* \"#utility.yul\":4560:4937   */\n    tag_138:\n        /* \"#utility.yul\":4648:4651   */\n      0x00\n        /* \"#utility.yul\":4676:4715   */\n      tag_228\n        /* \"#utility.yul\":4709:4714   */\n      dup3\n        /* \"#utility.yul\":4676:4715   */\n      tag_135\n      jump\t// in\n    tag_228:\n        /* \"#utility.yul\":4731:4802   */\n      tag_229\n        /* \"#utility.yul\":4795:4801   */\n      dup2\n        /* \"#utility.yul\":4790:4793   */\n      dup6\n        /* \"#utility.yul\":4731:4802   */\n      tag_136\n      jump\t// in\n    tag_229:\n        /* \"#utility.yul\":4724:4802   */\n      swap4\n      pop\n        /* \"#utility.yul\":4811:4876   */\n      tag_230\n        /* \"#utility.yul\":4869:4875   */\n      dup2\n        /* \"#utility.yul\":4864:4867   */\n      dup6\n        /* \"#utility.yul\":4857:4861   */\n      0x20\n        /* \"#utility.yul\":4850:4855   */\n      dup7\n        /* \"#utility.yul\":4846:4862   */\n      add\n        /* \"#utility.yul\":4811:4876   */\n      tag_137\n      jump\t// in\n    tag_230:\n        /* \"#utility.yul\":4901:4930   */\n      tag_231\n        /* \"#utility.yul\":4923:4929   */\n      dup2\n        /* \"#utility.yul\":4901:4930   */\n      tag_126\n      jump\t// in\n    tag_231:\n        /* \"#utility.yul\":4896:4899   */\n      dup5\n        /* \"#utility.yul\":4892:4931   */\n      add\n        /* \"#utility.yul\":4885:4931   */\n      swap2\n      pop\n        /* \"#utility.yul\":4652:4937   */\n      pop\n        /* \"#utility.yul\":4560:4937   */\n      swap3\n      swap2\n      pop\n      pop\n      jump\t// out\n        /* \"#utility.yul\":4943:5123   */\n    tag_64:\n        /* \"#utility.yul\":4991:5068   */\n      0x4e487b7100000000000000000000000000000000000000000000000000000000\n        /* \"#utility.yul\":4988:4989   */\n      0x00\n        /* \"#utility.yul\":4981:5069   */\n      mstore\n        /* \"#utility.yul\":5088:5092   */\n      0x21\n        /* \"#utility.yul\":5085:5086   */\n      0x04\n        /* \"#utility.yul\":5078:5093   */\n      mstore\n        /* \"#utility.yul\":5112:5116   */\n      0x24\n        /* \"#utility.yul\":5109:5110   */\n      0x00\n        /* \"#utility.yul\":5102:5117   */\n      revert\n        /* \"#utility.yul\":5129:5242   */\n    tag_139:\n        /* \"#utility.yul\":5210:5211   */\n      0x03\n        /* \"#utility.yul\":5203:5208   */\n      dup2\n        /* \"#utility.yul\":5200:5212   */\n      lt\n        /* \"#utility.yul\":5190:5236   */\n      tag_234\n      jumpi\n        /* \"#utility.yul\":5216:5234   */\n      tag_235\n      tag_64\n      jump\t// in\n    tag_235:\n        /* \"#utility.yul\":5190:5236   */\n    tag_234:\n        /* \"#utility.yul\":5129:5242   */\n      pop\n      jump\t// out\n        /* \"#utility.yul\":5248:5375   */\n    tag_140:\n        /* \"#utility.yul\":5293:5300   */\n      0x00\n        /* \"#utility.yul\":5322:5327   */\n      dup2\n        /* \"#utility.yul\":5311:5327   */\n      swap1\n      pop\n        /* \"#utility.yul\":5328:5369   */\n      tag_237\n        /* \"#utility.yul\":5363:5368   */\n      dup3\n        /* \"#utility.yul\":5328:5369   */\n      tag_139\n      jump\t// in\n    tag_237:\n        /* \"#utility.yul\":5248:5375   */\n      swap2\n      swap1\n      pop\n      jump\t// out\n        /* \"#utility.yul\":5381:5508   */\n    tag_141:\n        /* \"#utility.yul\":5437:5446   */\n      0x00\n        /* \"#utility.yul\":5470:5502   */\n      tag_239\n        /* \"#utility.yul\":5496:5501   */\n      dup3\n        /* \"#utility.yul\":5470:5502   */\n      tag_140\n      jump\t// in\n    tag_239:\n        /* \"#utility.yul\":5457:5502   */\n      swap1\n      pop\n        /* \"#utility.yul\":5381:5508   */\n      swap2\n      swap1\n      pop\n      jump\t// out\n        /* \"#utility.yul\":5514:5657   */\n    tag_142:\n        /* \"#utility.yul\":5607:5650   */\n      tag_241\n        /* \"#utility.yul\":5644:5649   */\n      dup2\n        /* \"#utility.yul\":5607:5650   */\n      tag_141\n      jump\t// in\n    tag_241:\n        /* \"#utility.yul\":5602:5605   */\n      dup3\n        /* \"#utility.yul\":5595:5651   */\n      mstore\n        /* \"#utility.yul\":5514:5657   */\n      pop\n      pop\n      jump\t// out\n        /* \"#utility.yul\":5663:6208   */\n    tag_21:\n        /* \"#utility.yul\":5838:5842   */\n      0x00\n        /* \"#utility.yul\":5876:5878   */\n      0x60\n        /* \"#utility.yul\":5865:5874   */\n      dup3\n        /* \"#utility.yul\":5861:5879   */\n      add\n        /* \"#utility.yul\":5853:5879   */\n      swap1\n      pop\n        /* \"#utility.yul\":5889:5960   */\n      tag_243\n        /* \"#utility.yul\":5957:5958   */\n      0x00\n        /* \"#utility.yul\":5946:5955   */\n      dup4\n        /* \"#utility.yul\":5942:5959   */\n      add\n        /* \"#utility.yul\":5933:5939   */\n      dup7\n        /* \"#utility.yul\":5889:5960   */\n      tag_134\n      jump\t// in\n    tag_243:\n        /* \"#utility.yul\":6007:6016   */\n      dup2\n        /* \"#utility.yul\":6001:6005   */\n      dup2\n        /* \"#utility.yul\":5997:6017   */\n      sub\n        /* \"#utility.yul\":5992:5994   */\n      0x20\n        /* \"#utility.yul\":5981:5990   */\n      dup4\n        /* \"#utility.yul\":5977:5995   */\n      add\n        /* \"#utility.yul\":5970:6018   */\n      mstore\n        /* \"#utility.yul\":6035:6113   */\n      tag_244\n        /* \"#utility.yul\":6108:6112   */\n      dup2\n        /* \"#utility.yul\":6099:6105   */\n      dup6\n        /* \"#utility.yul\":6035:6113   */\n      tag_138\n      jump\t// in\n    tag_244:\n        /* \"#utility.yul\":6027:6113   */\n      swap1\n      pop\n        /* \"#utility.yul\":6123:6201   */\n      tag_245\n        /* \"#utility.yul\":6197:6199   */\n      0x40\n        /* \"#utility.yul\":6186:6195   */\n      dup4\n        /* \"#utility.yul\":6182:6200   */\n      add\n        /* \"#utility.yul\":6173:6179   */\n      dup5\n        /* \"#utility.yul\":6123:6201   */\n      tag_142\n      jump\t// in\n    tag_245:\n        /* \"#utility.yul\":5663:6208   */\n      swap5\n      swap4\n      pop\n      pop\n      pop\n      pop\n      jump\t// out\n        /* \"#utility.yul\":6214:6688   */\n    tag_24:\n        /* \"#utility.yul\":6282:6288   */\n      0x00\n        /* \"#utility.yul\":6290:6296   */\n      dup1\n        /* \"#utility.yul\":6339:6341   */\n      0x40\n        /* \"#utility.yul\":6327:6336   */\n      dup4\n        /* \"#utility.yul\":6318:6325   */\n      dup6\n        /* \"#utility.yul\":6314:6337   */\n      sub\n        /* \"#utility.yul\":6310:6342   */\n      slt\n        /* \"#utility.yul\":6307:6426   */\n      iszero\n      tag_247\n      jumpi\n        /* \"#utility.yul\":6345:6424   */\n      tag_248\n      tag_119\n      jump\t// in\n    tag_248:\n        /* \"#utility.yul\":6307:6426   */\n    tag_247:\n        /* \"#utility.yul\":6465:6466   */\n      0x00\n        /* \"#utility.yul\":6490:6543   */\n      tag_249\n        /* \"#utility.yul\":6535:6542   */\n      dup6\n        /* \"#utility.yul\":6526:6532   */\n      dup3\n        /* \"#utility.yul\":6515:6524   */\n      dup7\n        /* \"#utility.yul\":6511:6533   */\n      add\n        /* \"#utility.yul\":6490:6543   */\n      tag_123\n      jump\t// in\n    tag_249:\n        /* \"#utility.yul\":6480:6543   */\n      swap3\n      pop\n        /* \"#utility.yul\":6436:6553   */\n      pop\n        /* \"#utility.yul\":6592:6594   */\n      0x20\n        /* \"#utility.yul\":6618:6671   */\n      tag_250\n        /* \"#utility.yul\":6663:6670   */\n      dup6\n        /* \"#utility.yul\":6654:6660   */\n      dup3\n        /* \"#utility.yul\":6643:6652   */\n      dup7\n        /* \"#utility.yul\":6639:6661   */\n      add\n        /* \"#utility.yul\":6618:6671   */\n      tag_123\n      jump\t// in\n    tag_250:\n        /* \"#utility.yul\":6608:6671   */\n      swap2\n      pop\n        /* \"#utility.yul\":6563:6681   */\n      pop\n        /* \"#utility.yul\":6214:6688   */\n      swap3\n      pop\n      swap3\n      swap1\n      pop\n      jump\t// out\n        /* \"#utility.yul\":6694:6916   */\n    tag_29:\n        /* \"#utility.yul\":6787:6791   */\n      0x00\n        /* \"#utility.yul\":6825:6827   */\n      0x20\n        /* \"#utility.yul\":6814:6823   */\n      dup3\n        /* \"#utility.yul\":6810:6828   */\n      add\n        /* \"#utility.yul\":6802:6828   */\n      swap1\n      pop\n        /* \"#utility.yul\":6838:6909   */\n      tag_252\n        /* \"#utility.yul\":6906:6907   */\n      0x00\n        /* \"#utility.yul\":6895:6904   */\n      dup4\n        /* \"#utility.yul\":6891:6908   */\n      add\n        /* \"#utility.yul\":6882:6888   */\n      dup5\n        /* \"#utility.yul\":6838:6909   */\n      tag_134\n      jump\t// in\n    tag_252:\n        /* \"#utility.yul\":6694:6916   */\n      swap3\n      swap2\n      pop\n      pop\n      jump\t// out\n        /* \"#utility.yul\":6922:7345   */\n    tag_34:\n        /* \"#utility.yul\":7063:7067   */\n      0x00\n        /* \"#utility.yul\":7101:7103   */\n      0x40\n        /* \"#utility.yul\":7090:7099   */\n      dup3\n        /* \"#utility.yul\":7086:7104   */\n      add\n        /* \"#utility.yul\":7078:7104   */\n      swap1\n      pop\n        /* \"#utility.yul\":7114:7185   */\n      tag_254\n        /* \"#utility.yul\":7182:7183   */\n      0x00\n        /* \"#utility.yul\":7171:7180   */\n      dup4\n        /* \"#utility.yul\":7167:7184   */\n      add\n        /* \"#utility.yul\":7158:7164   */\n      dup6\n        /* \"#utility.yul\":7114:7185   */\n      tag_134\n      jump\t// in\n    tag_254:\n        /* \"#utility.yul\":7232:7241   */\n      dup2\n        /* \"#utility.yul\":7226:7230   */\n      dup2\n        /* \"#utility.yul\":7222:7242   */\n      sub\n        /* \"#utility.yul\":7217:7219   */\n      0x20\n        /* \"#utility.yul\":7206:7215   */\n      dup4\n        /* \"#utility.yul\":7202:7220   */\n      add\n        /* \"#utility.yul\":7195:7243   */\n      mstore\n        /* \"#utility.yul\":7260:7338   */\n      tag_255\n        /* \"#utility.yul\":7333:7337   */\n      dup2\n        /* \"#utility.yul\":7324:7330   */\n      dup5\n        /* \"#utility.yul\":7260:7338   */\n      tag_138\n      jump\t// in\n    tag_255:\n        /* \"#utility.yul\":7252:7338   */\n      swap1\n      pop\n        /* \"#utility.yul\":6922:7345   */\n      swap4\n      swap3\n      pop\n      pop\n      pop\n      jump\t// out\n        /* \"#utility.yul\":7351:7572   */\n    tag_143:\n        /* \"#utility.yul\":7491:7525   */\n      0x456c20696e766f6361646f7220646562652073657220656c20616e6669747269\n        /* \"#utility.yul\":7487:7488   */\n      0x00\n        /* \"#utility.yul\":7479:7485   */\n      dup3\n        /* \"#utility.yul\":7475:7489   */\n      add\n        /* \"#utility.yul\":7468:7526   */\n      mstore\n        /* \"#utility.yul\":7560:7564   */\n      0x6f6e000000000000000000000000000000000000000000000000000000000000\n        /* \"#utility.yul\":7555:7557   */\n      0x20\n        /* \"#utility.yul\":7547:7553   */\n      dup3\n        /* \"#utility.yul\":7543:7558   */\n      add\n        /* \"#utility.yul\":7536:7565   */\n      mstore\n        /* \"#utility.yul\":7351:7572   */\n      pop\n      jump\t// out\n        /* \"#utility.yul\":7578:7944   */\n    tag_144:\n        /* \"#utility.yul\":7720:7723   */\n      0x00\n        /* \"#utility.yul\":7741:7808   */\n      tag_258\n        /* \"#utility.yul\":7805:7807   */\n      0x22\n        /* \"#utility.yul\":7800:7803   */\n      dup4\n        /* \"#utility.yul\":7741:7808   */\n      tag_136\n      jump\t// in\n    tag_258:\n        /* \"#utility.yul\":7734:7808   */\n      swap2\n      pop\n        /* \"#utility.yul\":7817:7910   */\n      tag_259\n        /* \"#utility.yul\":7906:7909   */\n      dup3\n        /* \"#utility.yul\":7817:7910   */\n      tag_143\n      jump\t// in\n    tag_259:\n        /* \"#utility.yul\":7935:7937   */\n      0x40\n        /* \"#utility.yul\":7930:7933   */\n      dup3\n        /* \"#utility.yul\":7926:7938   */\n      add\n        /* \"#utility.yul\":7919:7938   */\n      swap1\n      pop\n        /* \"#utility.yul\":7578:7944   */\n      swap2\n      swap1\n      pop\n      jump\t// out\n        /* \"#utility.yul\":7950:8369   */\n    tag_48:\n        /* \"#utility.yul\":8116:8120   */\n      0x00\n        /* \"#utility.yul\":8154:8156   */\n      0x20\n        /* \"#utility.yul\":8143:8152   */\n      dup3\n        /* \"#utility.yul\":8139:8157   */\n      add\n        /* \"#utility.yul\":8131:8157   */\n      swap1\n      pop\n        /* \"#utility.yul\":8203:8212   */\n      dup2\n        /* \"#utility.yul\":8197:8201   */\n      dup2\n        /* \"#utility.yul\":8193:8213   */\n      sub\n        /* \"#utility.yul\":8189:8190   */\n      0x00\n        /* \"#utility.yul\":8178:8187   */\n      dup4\n        /* \"#utility.yul\":8174:8191   */\n      add\n        /* \"#utility.yul\":8167:8214   */\n      mstore\n        /* \"#utility.yul\":8231:8362   */\n      tag_261\n        /* \"#utility.yul\":8357:8361   */\n      dup2\n        /* \"#utility.yul\":8231:8362   */\n      tag_144\n      jump\t// in\n    tag_261:\n        /* \"#utility.yul\":8223:8362   */\n      swap1\n      pop\n        /* \"#utility.yul\":7950:8369   */\n      swap2\n      swap1\n      pop\n      jump\t// out\n        /* \"#utility.yul\":8375:8555   */\n    tag_145:\n        /* \"#utility.yul\":8423:8500   */\n      0x4e487b7100000000000000000000000000000000000000000000000000000000\n        /* \"#utility.yul\":8420:8421   */\n      0x00\n        /* \"#utility.yul\":8413:8501   */\n      mstore\n        /* \"#utility.yul\":8520:8524   */\n      0x22\n        /* \"#utility.yul\":8517:8518   */\n      0x04\n        /* \"#utility.yul\":8510:8525   */\n      mstore\n        /* \"#utility.yul\":8544:8548   */\n      0x24\n        /* \"#utility.yul\":8541:8542   */\n      0x00\n        /* \"#utility.yul\":8534:8549   */\n      revert\n        /* \"#utility.yul\":8561:8881   */\n    tag_53:\n        /* \"#utility.yul\":8605:8611   */\n      0x00\n        /* \"#utility.yul\":8642:8643   */\n      0x02\n        /* \"#utility.yul\":8636:8640   */\n      dup3\n        /* \"#utility.yul\":8632:8644   */\n      div\n        /* \"#utility.yul\":8622:8644   */\n      swap1\n      pop\n        /* \"#utility.yul\":8689:8690   */\n      0x01\n        /* \"#utility.yul\":8683:8687   */\n      dup3\n        /* \"#utility.yul\":8679:8691   */\n      and\n        /* \"#utility.yul\":8710:8728   */\n      dup1\n        /* \"#utility.yul\":8700:8781   */\n      tag_264\n      jumpi\n        /* \"#utility.yul\":8766:8770   */\n      0x7f\n        /* \"#utility.yul\":8758:8764   */\n      dup3\n        /* \"#utility.yul\":8754:8771   */\n      and\n        /* \"#utility.yul\":8744:8771   */\n      swap2\n      pop\n        /* \"#utility.yul\":8700:8781   */\n    tag_264:\n        /* \"#utility.yul\":8828:8830   */\n      0x20\n        /* \"#utility.yul\":8820:8826   */\n      dup3\n        /* \"#utility.yul\":8817:8831   */\n      lt\n        /* \"#utility.yul\":8797:8815   */\n      dup2\n        /* \"#utility.yul\":8794:8832   */\n      sub\n        /* \"#utility.yul\":8791:8875   */\n      tag_265\n      jumpi\n        /* \"#utility.yul\":8847:8865   */\n      tag_266\n      tag_145\n      jump\t// in\n    tag_266:\n        /* \"#utility.yul\":8791:8875   */\n    tag_265:\n        /* \"#utility.yul\":8612:8881   */\n      pop\n        /* \"#utility.yul\":8561:8881   */\n      swap2\n      swap1\n      pop\n      jump\t// out\n        /* \"#utility.yul\":8887:9028   */\n    tag_146:\n        /* \"#utility.yul\":8936:8940   */\n      0x00\n        /* \"#utility.yul\":8959:8962   */\n      dup2\n        /* \"#utility.yul\":8951:8962   */\n      swap1\n      pop\n        /* \"#utility.yul\":8982:8985   */\n      dup2\n        /* \"#utility.yul\":8979:8980   */\n      0x00\n        /* \"#utility.yul\":8972:8986   */\n      mstore\n        /* \"#utility.yul\":9016:9020   */\n      0x20\n        /* \"#utility.yul\":9013:9014   */\n      0x00\n        /* \"#utility.yul\":9003:9021   */\n      keccak256\n        /* \"#utility.yul\":8995:9021   */\n      swap1\n      pop\n        /* \"#utility.yul\":8887:9028   */\n      swap2\n      swap1\n      pop\n      jump\t// out\n        /* \"#utility.yul\":9034:9127   */\n    tag_147:\n        /* \"#utility.yul\":9071:9077   */\n      0x00\n        /* \"#utility.yul\":9118:9120   */\n      0x20\n        /* \"#utility.yul\":9113:9115   */\n      0x1f\n        /* \"#utility.yul\":9106:9111   */\n      dup4\n        /* \"#utility.yul\":9102:9116   */\n      add\n        /* \"#utility.yul\":9098:9121   */\n      div\n        /* \"#utility.yul\":9088:9121   */\n      swap1\n      pop\n        /* \"#utility.yul\":9034:9127   */\n      swap2\n      swap1\n      pop\n      jump\t// out\n        /* \"#utility.yul\":9133:9240   */\n    tag_148:\n        /* \"#utility.yul\":9177:9185   */\n      0x00\n        /* \"#utility.yul\":9227:9232   */\n      dup3\n        /* \"#utility.yul\":9221:9225   */\n      dup3\n        /* \"#utility.yul\":9217:9233   */\n      shl\n        /* \"#utility.yul\":9196:9233   */\n      swap1\n      pop\n        /* \"#utility.yul\":9133:9240   */\n      swap3\n      swap2\n      pop\n      pop\n      jump\t// out\n        /* \"#utility.yul\":9246:9639   */\n    tag_149:\n        /* \"#utility.yul\":9315:9321   */\n      0x00\n        /* \"#utility.yul\":9365:9366   */\n      0x08\n        /* \"#utility.yul\":9353:9363   */\n      dup4\n        /* \"#utility.yul\":9349:9367   */\n      mul\n        /* \"#utility.yul\":9388:9485   */\n      tag_271\n        /* \"#utility.yul\":9418:9484   */\n      0xffffffffffffffffffffffffffffffffffffffffffffffffffffffffffffffff\n        /* \"#utility.yul\":9407:9416   */\n      dup3\n        /* \"#utility.yul\":9388:9485   */\n      tag_148\n      jump\t// in\n    tag_271:\n        /* \"#utility.yul\":9506:9545   */\n      tag_272\n        /* \"#utility.yul\":9536:9544   */\n      dup7\n        /* \"#utility.yul\":9525:9534   */\n      dup4\n        /* \"#utility.yul\":9506:9545   */\n      tag_148\n      jump\t// in\n    tag_272:\n        /* \"#utility.yul\":9494:9545   */\n      swap6\n      pop\n        /* \"#utility.yul\":9578:9582   */\n      dup1\n        /* \"#utility.yul\":9574:9583   */\n      not\n        /* \"#utility.yul\":9567:9572   */\n      dup5\n        /* \"#utility.yul\":9563:9584   */\n      and\n        /* \"#utility.yul\":9554:9584   */\n      swap4\n      pop\n        /* \"#utility.yul\":9627:9631   */\n      dup1\n        /* \"#utility.yul\":9617:9625   */\n      dup7\n        /* \"#utility.yul\":9613:9632   */\n      and\n        /* \"#utility.yul\":9606:9611   */\n      dup5\n        /* \"#utility.yul\":9603:9633   */\n      or\n        /* \"#utility.yul\":9593:9633   */\n      swap3\n      pop\n        /* \"#utility.yul\":9322:9639   */\n      pop\n      pop\n        /* \"#utility.yul\":9246:9639   */\n      swap4\n      swap3\n      pop\n      pop\n      pop\n      jump\t// out\n        /* \"#utility.yul\":9645:9705   */\n    tag_150:\n        /* \"#utility.yul\":9673:9676   */\n      0x00\n        /* \"#utility.yul\":9694:9699   */\n      dup2\n        /* \"#utility.yul\":9687:9699   */\n      swap1\n      pop\n        /* \"#utility.yul\":9645:9705   */\n      swap2\n      swap1\n      pop\n      jump\t// out\n        /* \"#utility.yul\":9711:9853   */\n    tag_151:\n        /* \"#utility.yul\":9761:9770   */\n      0x00\n        /* \"#utility.yul\":9794:9847   */\n      tag_275\n        /* \"#utility.yul\":9812:9846   */\n      tag_276\n        /* \"#utility.yul\":9821:9845   */\n      tag_277\n        /* \"#utility.yul\":9839:9844   */\n      dup5\n        /* \"#utility.yul\":9821:9845   */\n      tag_121\n      jump\t// in\n    tag_277:\n        /* \"#utility.yul\":9812:9846   */\n      tag_150\n      jump\t// in\n    tag_276:\n        /* \"#utility.yul\":9794:9847   */\n      tag_121\n      jump\t// in\n    tag_275:\n        /* \"#utility.yul\":9781:9847   */\n      swap1\n      pop\n        /* \"#utility.yul\":9711:9853   */\n      swap2\n      swap1\n      pop\n      jump\t// out\n        /* \"#utility.yul\":9859:9934   */\n    tag_152:\n        /* \"#utility.yul\":9902:9905   */\n      0x00\n        /* \"#utility.yul\":9923:9928   */\n      dup2\n        /* \"#utility.yul\":9916:9928   */\n      swap1\n      pop\n        /* \"#utility.yul\":9859:9934   */\n      swap2\n      swap1\n      pop\n      jump\t// out\n        /* \"#utility.yul\":9940:10209   */\n    tag_153:\n        /* \"#utility.yul\":10050:10089   */\n      tag_280\n        /* \"#utility.yul\":10081:10088   */\n      dup4\n        /* \"#utility.yul\":10050:10089   */\n      tag_151\n      jump\t// in\n    tag_280:\n        /* \"#utility.yul\":10111:10202   */\n      tag_281\n        /* \"#utility.yul\":10160:10201   */\n      tag_282\n        /* \"#utility.yul\":10184:10200   */\n      dup3\n        /* \"#utility.yul\":10160:10201   */\n      tag_152\n      jump\t// in\n    tag_282:\n        /* \"#utility.yul\":10152:10158   */\n      dup5\n        /* \"#utility.yul\":10145:10149   */\n      dup5\n        /* \"#utility.yul\":10139:10150   */\n      sload\n        /* \"#utility.yul\":10111:10202   */\n      tag_149\n      jump\t// in\n    tag_281:\n        /* \"#utility.yul\":10105:10109   */\n      dup3\n        /* \"#utility.yul\":10098:10203   */\n      sstore\n        /* \"#utility.yul\":10016:10209   */\n      pop\n        /* \"#utility.yul\":9940:10209   */\n      pop\n      pop\n      pop\n      jump\t// out\n        /* \"#utility.yul\":10215:10288   */\n    tag_154:\n        /* \"#utility.yul\":10260:10263   */\n      0x00\n        /* \"#utility.yul\":10215:10288   */\n      swap1\n      jump\t// out\n        /* \"#utility.yul\":10294:10483   */\n    tag_155:\n        /* \"#utility.yul\":10371:10403   */\n      tag_285\n      tag_154\n      jump\t// in\n    tag_285:\n        /* \"#utility.yul\":10412:10477   */\n      tag_286\n        /* \"#utility.yul\":10470:10476   */\n      dup2\n        /* \"#utility.yul\":10462:10468   */\n      dup5\n        /* \"#utility.yul\":10456:10460   */\n      dup5\n        /* \"#utility.yul\":10412:10477   */\n      tag_153\n      jump\t// in\n    tag_286:\n        /* \"#utility.yul\":10347:10483   */\n      pop\n        /* \"#utility.yul\":10294:10483   */\n      pop\n      pop\n      jump\t// out\n        /* \"#utility.yul\":10489:10675   */\n    tag_156:\n        /* \"#utility.yul\":10549:10669   */\n    tag_288:\n        /* \"#utility.yul\":10566:10569   */\n      dup2\n        /* \"#utility.yul\":10559:10564   */\n      dup2\n        /* \"#utility.yul\":10556:10570   */\n      lt\n        /* \"#utility.yul\":10549:10669   */\n      iszero\n      tag_290\n      jumpi\n        /* \"#utility.yul\":10620:10659   */\n      tag_291\n        /* \"#utility.yul\":10657:10658   */\n      0x00\n        /* \"#utility.yul\":10650:10655   */\n      dup3\n        /* \"#utility.yul\":10620:10659   */\n      tag_155\n      jump\t// in\n    tag_291:\n        /* \"#utility.yul\":10593:10594   */\n      0x01\n        /* \"#utility.yul\":10586:10591   */\n      dup2\n        /* \"#utility.yul\":10582:10595   */\n      add\n        /* \"#utility.yul\":10573:10595   */\n      swap1\n      pop\n        /* \"#utility.yul\":10549:10669   */\n      jump(tag_288)\n    tag_290:\n        /* \"#utility.yul\":10489:10675   */\n      pop\n      pop\n      jump\t// out\n        /* \"#utility.yul\":10681:11224   */\n    tag_157:\n        /* \"#utility.yul\":10782:10784   */\n      0x1f\n        /* \"#utility.yul\":10777:10780   */\n      dup3\n        /* \"#utility.yul\":10774:10785   */\n      gt\n        /* \"#utility.yul\":10771:11217   */\n      iszero\n      tag_293\n      jumpi\n        /* \"#utility.yul\":10816:10854   */\n      tag_294\n        /* \"#utility.yul\":10848:10853   */\n      dup2\n        /* \"#utility.yul\":10816:10854   */\n      tag_146\n      jump\t// in\n    tag_294:\n        /* \"#utility.yul\":10900:10929   */\n      tag_295\n        /* \"#utility.yul\":10918:10928   */\n      dup5\n        /* \"#utility.yul\":10900:10929   */\n      tag_147\n      jump\t// in\n    tag_295:\n        /* \"#utility.yul\":10890:10898   */\n      dup2\n        /* \"#utility.yul\":10886:10930   */\n      add\n        /* \"#utility.yul\":11083:11085   */\n      0x20\n        /* \"#utility.yul\":11071:11081   */\n      dup6\n        /* \"#utility.yul\":11068:11086   */\n      lt\n        /* \"#utility.yul\":11065:11114   */\n      iszero\n      tag_296\n      jumpi\n        /* \"#utility.yul\":11104:11112   */\n      dup2\n        /* \"#utility.yul\":11089:11112   */\n      swap1\n      pop\n        /* \"#utility.yul\":11065:11114   */\n    tag_296:\n        /* \"#utility.yul\":11127:11207   */\n      tag_297\n        /* \"#utility.yul\":11183:11205   */\n      tag_298\n        /* \"#utility.yul\":11201:11204   */\n      dup6\n        /* \"#utility.yul\":11183:11205   */\n      tag_147\n      jump\t// in\n    tag_298:\n        /* \"#utility.yul\":11173:11181   */\n      dup4\n        /* \"#utility.yul\":11169:11206   */\n      add\n        /* \"#utility.yul\":11156:11167   */\n      dup3\n        /* \"#utility.yul\":11127:11207   */\n      tag_156\n      jump\t// in\n    tag_297:\n        /* \"#utility.yul\":10786:11217   */\n      pop\n      pop\n        /* \"#utility.yul\":10771:11217   */\n    tag_293:\n        /* \"#utility.yul\":10681:11224   */\n      pop\n      pop\n      pop\n      jump\t// out\n        /* \"#utility.yul\":11230:11347   */\n    tag_158:\n        /* \"#utility.yul\":11284:11292   */\n      0x00\n        /* \"#utility.yul\":11334:11339   */\n      dup3\n        /* \"#utility.yul\":11328:11332   */\n      dup3\n        /* \"#utility.yul\":11324:11340   */\n      shr\n        /* \"#utility.yul\":11303:11340   */\n      swap1\n      pop\n        /* \"#utility.yul\":11230:11347   */\n      swap3\n      swap2\n      pop\n      pop\n      jump\t// out\n        /* \"#utility.yul\":11353:11522   */\n    tag_159:\n        /* \"#utility.yul\":11397:11403   */\n      0x00\n        /* \"#utility.yul\":11430:11481   */\n      tag_301\n        /* \"#utility.yul\":11478:11479   */\n      0x00\n        /* \"#utility.yul\":11474:11480   */\n      not\n        /* \"#utility.yul\":11466:11471   */\n      dup5\n        /* \"#utility.yul\":11463:11464   */\n      0x08\n        /* \"#utility.yul\":11459:11472   */\n      mul\n        /* \"#utility.yul\":11430:11481   */\n      tag_158\n      jump\t// in\n    tag_301:\n        /* \"#utility.yul\":11426:11482   */\n      not\n        /* \"#utility.yul\":11511:11515   */\n      dup1\n        /* \"#utility.yul\":11505:11509   */\n      dup4\n        /* \"#utility.yul\":11501:11516   */\n      and\n        /* \"#utility.yul\":11491:11516   */\n      swap2\n      pop\n        /* \"#utility.yul\":11404:11522   */\n      pop\n        /* \"#utility.yul\":11353:11522   */\n      swap3\n      swap2\n      pop\n      pop\n      jump\t// out\n        /* \"#utility.yul\":11527:11822   */\n    tag_160:\n        /* \"#utility.yul\":11603:11607   */\n      0x00\n        /* \"#utility.yul\":11749:11778   */\n      tag_303\n        /* \"#utility.yul\":11774:11777   */\n      dup4\n        /* \"#utility.yul\":11768:11772   */\n      dup4\n        /* \"#utility.yul\":11749:11778   */\n      tag_159\n      jump\t// in\n    tag_303:\n        /* \"#utility.yul\":11741:11778   */\n      swap2\n      pop\n        /* \"#utility.yul\":11811:11814   */\n      dup3\n        /* \"#utility.yul\":11808:11809   */\n      0x02\n        /* \"#utility.yul\":11804:11815   */\n      mul\n        /* \"#utility.yul\":11798:11802   */\n      dup3\n        /* \"#utility.yul\":11795:11816   */\n      or\n        /* \"#utility.yul\":11787:11816   */\n      swap1\n      pop\n        /* \"#utility.yul\":11527:11822   */\n      swap3\n      swap2\n      pop\n      pop\n      jump\t// out\n        /* \"#utility.yul\":11827:13222   */\n    tag_51:\n        /* \"#utility.yul\":11944:11981   */\n      tag_305\n        /* \"#utility.yul\":11977:11980   */\n      dup3\n        /* \"#utility.yul\":11944:11981   */\n      tag_135\n      jump\t// in\n    tag_305:\n        /* \"#utility.yul\":12046:12064   */\n      0xffffffffffffffff\n        /* \"#utility.yul\":12038:12044   */\n      dup2\n        /* \"#utility.yul\":12035:12065   */\n      gt\n        /* \"#utility.yul\":12032:12088   */\n      iszero\n      tag_306\n      jumpi\n        /* \"#utility.yul\":12068:12086   */\n      tag_307\n      tag_127\n      jump\t// in\n    tag_307:\n        /* \"#utility.yul\":12032:12088   */\n    tag_306:\n        /* \"#utility.yul\":12112:12150   */\n      tag_308\n        /* \"#utility.yul\":12144:12148   */\n      dup3\n        /* \"#utility.yul\":12138:12149   */\n      sload\n        /* \"#utility.yul\":12112:12150   */\n      tag_53\n      jump\t// in\n    tag_308:\n        /* \"#utility.yul\":12197:12264   */\n      tag_309\n        /* \"#utility.yul\":12257:12263   */\n      dup3\n        /* \"#utility.yul\":12249:12255   */\n      dup3\n        /* \"#utility.yul\":12243:12247   */\n      dup6\n        /* \"#utility.yul\":12197:12264   */\n      tag_157\n      jump\t// in\n    tag_309:\n        /* \"#utility.yul\":12291:12292   */\n      0x00\n        /* \"#utility.yul\":12315:12319   */\n      0x20\n        /* \"#utility.yul\":12302:12319   */\n      swap1\n      pop\n        /* \"#utility.yul\":12347:12349   */\n      0x1f\n        /* \"#utility.yul\":12339:12345   */\n      dup4\n        /* \"#utility.yul\":12336:12350   */\n      gt\n        /* \"#utility.yul\":12364:12365   */\n      0x01\n        /* \"#utility.yul\":12359:12977   */\n      dup2\n      eq\n      tag_311\n      jumpi\n        /* \"#utility.yul\":13021:13022   */\n      0x00\n        /* \"#utility.yul\":13038:13044   */\n      dup5\n        /* \"#utility.yul\":13035:13112   */\n      iszero\n      tag_312\n      jumpi\n        /* \"#utility.yul\":13087:13096   */\n      dup3\n        /* \"#utility.yul\":13082:13085   */\n      dup8\n        /* \"#utility.yul\":13078:13097   */\n      add\n        /* \"#utility.yul\":13072:13098   */\n      mload\n        /* \"#utility.yul\":13063:13098   */\n      swap1\n      pop\n        /* \"#utility.yul\":13035:13112   */\n    tag_312:\n        /* \"#utility.yul\":13138:13205   */\n      tag_313\n        /* \"#utility.yul\":13198:13204   */\n      dup6\n        /* \"#utility.yul\":13191:13196   */\n      dup3\n        /* \"#utility.yul\":13138:13205   */\n      tag_160\n      jump\t// in\n    tag_313:\n        /* \"#utility.yul\":13132:13136   */\n      dup7\n        /* \"#utility.yul\":13125:13206   */\n      sstore\n        /* \"#utility.yul\":12994:13216   */\n      pop\n        /* \"#utility.yul\":12329:13216   */\n      jump(tag_310)\n        /* \"#utility.yul\":12359:12977   */\n    tag_311:\n        /* \"#utility.yul\":12411:12415   */\n      0x1f\n        /* \"#utility.yul\":12407:12416   */\n      not\n        /* \"#utility.yul\":12399:12405   */\n      dup5\n        /* \"#utility.yul\":12395:12417   */\n      and\n        /* \"#utility.yul\":12445:12482   */\n      tag_314\n        /* \"#utility.yul\":12477:12481   */\n      dup7\n        /* \"#utility.yul\":12445:12482   */\n      tag_146\n      jump\t// in\n    tag_314:\n        /* \"#utility.yul\":12504:12505   */\n      0x00\n        /* \"#utility.yul\":12518:12726   */\n    tag_315:\n        /* \"#utility.yul\":12532:12539   */\n      dup3\n        /* \"#utility.yul\":12529:12530   */\n      dup2\n        /* \"#utility.yul\":12526:12540   */\n      lt\n        /* \"#utility.yul\":12518:12726   */\n      iszero\n      tag_317\n      jumpi\n        /* \"#utility.yul\":12611:12620   */\n      dup5\n        /* \"#utility.yul\":12606:12609   */\n      dup10\n        /* \"#utility.yul\":12602:12621   */\n      add\n        /* \"#utility.yul\":12596:12622   */\n      mload\n        /* \"#utility.yul\":12588:12594   */\n      dup3\n        /* \"#utility.yul\":12581:12623   */\n      sstore\n        /* \"#utility.yul\":12662:12663   */\n      0x01\n        /* \"#utility.yul\":12654:12660   */\n      dup3\n        /* \"#utility.yul\":12650:12664   */\n      add\n        /* \"#utility.yul\":12640:12664   */\n      swap2\n      pop\n        /* \"#utility.yul\":12709:12711   */\n      0x20\n        /* \"#utility.yul\":12698:12707   */\n      dup6\n        /* \"#utility.yul\":12694:12712   */\n      add\n        /* \"#utility.yul\":12681:12712   */\n      swap5\n      pop\n        /* \"#utility.yul\":12555:12559   */\n      0x20\n        /* \"#utility.yul\":12552:12553   */\n      dup2\n        /* \"#utility.yul\":12548:12560   */\n      add\n        /* \"#utility.yul\":12543:12560   */\n      swap1\n      pop\n        /* \"#utility.yul\":12518:12726   */\n      jump(tag_315)\n    tag_317:\n        /* \"#utility.yul\":12754:12760   */\n      dup7\n        /* \"#utility.yul\":12745:12752   */\n      dup4\n        /* \"#utility.yul\":12742:12761   */\n      lt\n        /* \"#utility.yul\":12739:12918   */\n      iszero\n      tag_318\n      jumpi\n        /* \"#utility.yul\":12812:12821   */\n      dup5\n        /* \"#utility.yul\":12807:12810   */\n      dup10\n        /* \"#utility.yul\":12803:12822   */\n      add\n        /* \"#utility.yul\":12797:12823   */\n      mload\n        /* \"#utility.yul\":12855:12903   */\n      tag_319\n        /* \"#utility.yul\":12897:12901   */\n      0x1f\n        /* \"#utility.yul\":12889:12895   */\n      dup10\n        /* \"#utility.yul\":12885:12902   */\n      and\n        /* \"#utility.yul\":12874:12883   */\n      dup3\n        /* \"#utility.yul\":12855:12903   */\n      tag_159\n      jump\t// in\n    tag_319:\n        /* \"#utility.yul\":12847:12853   */\n      dup4\n        /* \"#utility.yul\":12840:12904   */\n      sstore\n        /* \"#utility.yul\":12762:12918   */\n      pop\n        /* \"#utility.yul\":12739:12918   */\n    tag_318:\n        /* \"#utility.yul\":12964:12965   */\n      0x01\n        /* \"#utility.yul\":12960:12961   */\n      0x02\n        /* \"#utility.yul\":12952:12958   */\n      dup9\n        /* \"#utility.yul\":12948:12962   */\n      mul\n        /* \"#utility.yul\":12944:12966   */\n      add\n        /* \"#utility.yul\":12938:12942   */\n      dup9\n        /* \"#utility.yul\":12931:12967   */\n      sstore\n        /* \"#utility.yul\":12366:12977   */\n      pop\n      pop\n      pop\n        /* \"#utility.yul\":12329:13216   */\n    tag_310:\n      pop\n        /* \"#utility.yul\":11919:13222   */\n      pop\n      pop\n      pop\n        /* \"#utility.yul\":11827:13222   */\n      pop\n      pop\n      jump\t// out\n        /* \"#utility.yul\":13228:13459   */\n    tag_161:\n        /* \"#utility.yul\":13368:13402   */\n      0x4c612063617272657261206e6f2063756d706c6520636f6e20656c2065737461\n        /* \"#utility.yul\":13364:13365   */\n      0x00\n        /* \"#utility.yul\":13356:13362   */\n      dup3\n        /* \"#utility.yul\":13352:13366   */\n      add\n        /* \"#utility.yul\":13345:13403   */\n      mstore\n        /* \"#utility.yul\":13437:13451   */\n      0x646f2072657175657269646f0000000000000000000000000000000000000000\n        /* \"#utility.yul\":13432:13434   */\n      0x20\n        /* \"#utility.yul\":13424:13430   */\n      dup3\n        /* \"#utility.yul\":13420:13435   */\n      add\n        /* \"#utility.yul\":13413:13452   */\n      mstore\n        /* \"#utility.yul\":13228:13459   */\n      pop\n      jump\t// out\n        /* \"#utility.yul\":13465:13831   */\n    tag_162:\n        /* \"#utility.yul\":13607:13610   */\n      0x00\n        /* \"#utility.yul\":13628:13695   */\n      tag_322\n        /* \"#utility.yul\":13692:13694   */\n      0x2c\n        /* \"#utility.yul\":13687:13690   */\n      dup4\n        /* \"#utility.yul\":13628:13695   */\n      tag_136\n      jump\t// in\n    tag_322:\n        /* \"#utility.yul\":13621:13695   */\n      swap2\n      pop\n        /* \"#utility.yul\":13704:13797   */\n      tag_323\n        /* \"#utility.yul\":13793:13796   */\n      dup3\n        /* \"#utility.yul\":13704:13797   */\n      tag_161\n      jump\t// in\n    tag_323:\n        /* \"#utility.yul\":13822:13824   */\n      0x40\n        /* \"#utility.yul\":13817:13820   */\n      dup3\n        /* \"#utility.yul\":13813:13825   */\n      add\n        /* \"#utility.yul\":13806:13825   */\n      swap1\n      pop\n        /* \"#utility.yul\":13465:13831   */\n      swap2\n      swap1\n      pop\n      jump\t// out\n        /* \"#utility.yul\":13837:14256   */\n    tag_69:\n        /* \"#utility.yul\":14003:14007   */\n      0x00\n        /* \"#utility.yul\":14041:14043   */\n      0x20\n        /* \"#utility.yul\":14030:14039   */\n      dup3\n        /* \"#utility.yul\":14026:14044   */\n      add\n        /* \"#utility.yul\":14018:14044   */\n      swap1\n      pop\n        /* \"#utility.yul\":14090:14099   */\n      dup2\n        /* \"#utility.yul\":14084:14088   */\n      dup2\n        /* \"#utility.yul\":14080:14100   */\n      sub\n        /* \"#utility.yul\":14076:14077   */\n      0x00\n        /* \"#utility.yul\":14065:14074   */\n      dup4\n        /* \"#utility.yul\":14061:14078   */\n      add\n        /* \"#utility.yul\":14054:14101   */\n      mstore\n        /* \"#utility.yul\":14118:14249   */\n      tag_325\n        /* \"#utility.yul\":14244:14248   */\n      dup2\n        /* \"#utility.yul\":14118:14249   */\n      tag_162\n      jump\t// in\n    tag_325:\n        /* \"#utility.yul\":14110:14249   */\n      swap1\n      pop\n        /* \"#utility.yul\":13837:14256   */\n      swap2\n      swap1\n      pop\n      jump\t// out\n        /* \"#utility.yul\":14262:14484   */\n    tag_163:\n        /* \"#utility.yul\":14402:14436   */\n      0x4c612063617272657261207961206375656e746120636f6e203520636162616c\n        /* \"#utility.yul\":14398:14399   */\n      0x00\n        /* \"#utility.yul\":14390:14396   */\n      dup3\n        /* \"#utility.yul\":14386:14400   */\n      add\n        /* \"#utility.yul\":14379:14437   */\n      mstore\n        /* \"#utility.yul\":14471:14476   */\n      0x6c6f730000000000000000000000000000000000000000000000000000000000\n        /* \"#utility.yul\":14466:14468   */\n      0x20\n        /* \"#utility.yul\":14458:14464   */\n      dup3\n        /* \"#utility.yul\":14454:14469   */\n      add\n        /* \"#utility.yul\":14447:14477   */\n      mstore\n        /* \"#utility.yul\":14262:14484   */\n      pop\n      jump\t// out\n        /* \"#utility.yul\":14490:14856   */\n    tag_164:\n        /* \"#utility.yul\":14632:14635   */\n      0x00\n        /* \"#utility.yul\":14653:14720   */\n      tag_328\n        /* \"#utility.yul\":14717:14719   */\n      0x23\n        /* \"#utility.yul\":14712:14715   */\n      dup4\n        /* \"#utility.yul\":14653:14720   */\n      tag_136\n      jump\t// in\n    tag_328:\n        /* \"#utility.yul\":14646:14720   */\n      swap2\n      pop\n        /* \"#utility.yul\":14729:14822   */\n      tag_329\n        /* \"#utility.yul\":14818:14821   */\n      dup3\n        /* \"#utility.yul\":14729:14822   */\n      tag_163\n      jump\t// in\n    tag_329:\n        /* \"#utility.yul\":14847:14849   */\n      0x40\n        /* \"#utility.yul\":14842:14845   */\n      dup3\n        /* \"#utility.yul\":14838:14850   */\n      add\n        /* \"#utility.yul\":14831:14850   */\n      swap1\n      pop\n        /* \"#utility.yul\":14490:14856   */\n      swap2\n      swap1\n      pop\n      jump\t// out\n        /* \"#utility.yul\":14862:15281   */\n    tag_73:\n        /* \"#utility.yul\":15028:15032   */\n      0x00\n        /* \"#utility.yul\":15066:15068   */\n      0x20\n        /* \"#utility.yul\":15055:15064   */\n      dup3\n        /* \"#utility.yul\":15051:15069   */\n      add\n        /* \"#utility.yul\":15043:15069   */\n      swap1\n      pop\n        /* \"#utility.yul\":15115:15124   */\n      dup2\n        /* \"#utility.yul\":15109:15113   */\n      dup2\n        /* \"#utility.yul\":15105:15125   */\n      sub\n        /* \"#utility.yul\":15101:15102   */\n      0x00\n        /* \"#utility.yul\":15090:15099   */\n      dup4\n        /* \"#utility.yul\":15086:15103   */\n      add\n        /* \"#utility.yul\":15079:15126   */\n      mstore\n        /* \"#utility.yul\":15143:15274   */\n      tag_331\n        /* \"#utility.yul\":15269:15273   */\n      dup2\n        /* \"#utility.yul\":15143:15274   */\n      tag_164\n      jump\t// in\n    tag_331:\n        /* \"#utility.yul\":15135:15274   */\n      swap1\n      pop\n        /* \"#utility.yul\":14862:15281   */\n      swap2\n      swap1\n      pop\n      jump\t// out\n        /* \"#utility.yul\":15287:15467   */\n    tag_165:\n        /* \"#utility.yul\":15427:15459   */\n      0x456c20636162616c6c6f20696e6772657361646f206e6f206578697374650000\n        /* \"#utility.yul\":15423:15424   */\n      0x00\n        /* \"#utility.yul\":15415:15421   */\n      dup3\n        /* \"#utility.yul\":15411:15425   */\n      add\n        /* \"#utility.yul\":15404:15460   */\n      mstore\n        /* \"#utility.yul\":15287:15467   */\n      pop\n      jump\t// out\n        /* \"#utility.yul\":15473:15839   */\n    tag_166:\n        /* \"#utility.yul\":15615:15618   */\n      0x00\n        /* \"#utility.yul\":15636:15703   */\n      tag_334\n        /* \"#utility.yul\":15700:15702   */\n      0x1e\n        /* \"#utility.yul\":15695:15698   */\n      dup4\n        /* \"#utility.yul\":15636:15703   */\n      tag_136\n      jump\t// in\n    tag_334:\n        /* \"#utility.yul\":15629:15703   */\n      swap2\n      pop\n        /* \"#utility.yul\":15712:15805   */\n      tag_335\n        /* \"#utility.yul\":15801:15804   */\n      dup3\n        /* \"#utility.yul\":15712:15805   */\n      tag_165\n      jump\t// in\n    tag_335:\n        /* \"#utility.yul\":15830:15832   */\n      0x20\n        /* \"#utility.yul\":15825:15828   */\n      dup3\n        /* \"#utility.yul\":15821:15833   */\n      add\n        /* \"#utility.yul\":15814:15833   */\n      swap1\n      pop\n        /* \"#utility.yul\":15473:15839   */\n      swap2\n      swap1\n      pop\n      jump\t// out\n        /* \"#utility.yul\":15845:16264   */\n    tag_78:\n        /* \"#utility.yul\":16011:16015   */\n      0x00\n        /* \"#utility.yul\":16049:16051   */\n      0x20\n        /* \"#utility.yul\":16038:16047   */\n      dup3\n        /* \"#utility.yul\":16034:16052   */\n      add\n        /* \"#utility.yul\":16026:16052   */\n      swap1\n      pop\n        /* \"#utility.yul\":16098:16107   */\n      dup2\n        /* \"#utility.yul\":16092:16096   */\n      dup2\n        /* \"#utility.yul\":16088:16108   */\n      sub\n        /* \"#utility.yul\":16084:16085   */\n      0x00\n        /* \"#utility.yul\":16073:16082   */\n      dup4\n        /* \"#utility.yul\":16069:16086   */\n      add\n        /* \"#utility.yul\":16062:16109   */\n      mstore\n        /* \"#utility.yul\":16126:16257   */\n      tag_337\n        /* \"#utility.yul\":16252:16256   */\n      dup2\n        /* \"#utility.yul\":16126:16257   */\n      tag_166\n      jump\t// in\n    tag_337:\n        /* \"#utility.yul\":16118:16257   */\n      swap1\n      pop\n        /* \"#utility.yul\":15845:16264   */\n      swap2\n      swap1\n      pop\n      jump\t// out\n        /* \"#utility.yul\":16270:16450   */\n    tag_167:\n        /* \"#utility.yul\":16410:16442   */\n      0x4c61206361727265726120696e67726573616461206e6f206578697374650000\n        /* \"#utility.yul\":16406:16407   */\n      0x00\n        /* \"#utility.yul\":16398:16404   */\n      dup3\n        /* \"#utility.yul\":16394:16408   */\n      add\n        /* \"#utility.yul\":16387:16443   */\n      mstore\n        /* \"#utility.yul\":16270:16450   */\n      pop\n      jump\t// out\n        /* \"#utility.yul\":16456:16822   */\n    tag_168:\n        /* \"#utility.yul\":16598:16601   */\n      0x00\n        /* \"#utility.yul\":16619:16686   */\n      tag_340\n        /* \"#utility.yul\":16683:16685   */\n      0x1e\n        /* \"#utility.yul\":16678:16681   */\n      dup4\n        /* \"#utility.yul\":16619:16686   */\n      tag_136\n      jump\t// in\n    tag_340:\n        /* \"#utility.yul\":16612:16686   */\n      swap2\n      pop\n        /* \"#utility.yul\":16695:16788   */\n      tag_341\n        /* \"#utility.yul\":16784:16787   */\n      dup3\n        /* \"#utility.yul\":16695:16788   */\n      tag_167\n      jump\t// in\n    tag_341:\n        /* \"#utility.yul\":16813:16815   */\n      0x20\n        /* \"#utility.yul\":16808:16811   */\n      dup3\n        /* \"#utility.yul\":16804:16816   */\n      add\n        /* \"#utility.yul\":16797:16816   */\n      swap1\n      pop\n        /* \"#utility.yul\":16456:16822   */\n      swap2\n      swap1\n      pop\n      jump\t// out\n        /* \"#utility.yul\":16828:17247   */\n    tag_83:\n        /* \"#utility.yul\":16994:16998   */\n      0x00\n        /* \"#utility.yul\":17032:17034   */\n      0x20\n        /* \"#utility.yul\":17021:17030   */\n      dup3\n        /* \"#utility.yul\":17017:17035   */\n      add\n        /* \"#utility.yul\":17009:17035   */\n      swap1\n      pop\n        /* \"#utility.yul\":17081:17090   */\n      dup2\n        /* \"#utility.yul\":17075:17079   */\n      dup2\n        /* \"#utility.yul\":17071:17091   */\n      sub\n        /* \"#utility.yul\":17067:17068   */\n      0x00\n        /* \"#utility.yul\":17056:17065   */\n      dup4\n        /* \"#utility.yul\":17052:17069   */\n      add\n        /* \"#utility.yul\":17045:17092   */\n      mstore\n        /* \"#utility.yul\":17109:17240   */\n      tag_343\n        /* \"#utility.yul\":17235:17239   */\n      dup2\n        /* \"#utility.yul\":17109:17240   */\n      tag_168\n      jump\t// in\n    tag_343:\n        /* \"#utility.yul\":17101:17240   */\n      swap1\n      pop\n        /* \"#utility.yul\":16828:17247   */\n      swap2\n      swap1\n      pop\n      jump\t// out\n        /* \"#utility.yul\":17253:17486   */\n    tag_169:\n        /* \"#utility.yul\":17393:17427   */\n      0x4c612063617272657261206465626520636f6e74617220636f6e20616c206d65\n        /* \"#utility.yul\":17389:17390   */\n      0x00\n        /* \"#utility.yul\":17381:17387   */\n      dup3\n        /* \"#utility.yul\":17377:17391   */\n      add\n        /* \"#utility.yul\":17370:17428   */\n      mstore\n        /* \"#utility.yul\":17462:17478   */\n      0x6e6f73203220636162616c6c6f73000000000000000000000000000000000000\n        /* \"#utility.yul\":17457:17459   */\n      0x20\n        /* \"#utility.yul\":17449:17455   */\n      dup3\n        /* \"#utility.yul\":17445:17460   */\n      add\n        /* \"#utility.yul\":17438:17479   */\n      mstore\n        /* \"#utility.yul\":17253:17486   */\n      pop\n      jump\t// out\n        /* \"#utility.yul\":17492:17858   */\n    tag_170:\n        /* \"#utility.yul\":17634:17637   */\n      0x00\n        /* \"#utility.yul\":17655:17722   */\n      tag_346\n        /* \"#utility.yul\":17719:17721   */\n      0x2e\n        /* \"#utility.yul\":17714:17717   */\n      dup4\n        /* \"#utility.yul\":17655:17722   */\n      tag_136\n      jump\t// in\n    tag_346:\n        /* \"#utility.yul\":17648:17722   */\n      swap2\n      pop\n        /* \"#utility.yul\":17731:17824   */\n      tag_347\n        /* \"#utility.yul\":17820:17823   */\n      dup3\n        /* \"#utility.yul\":17731:17824   */\n      tag_169\n      jump\t// in\n    tag_347:\n        /* \"#utility.yul\":17849:17851   */\n      0x40\n        /* \"#utility.yul\":17844:17847   */\n      dup3\n        /* \"#utility.yul\":17840:17852   */\n      add\n        /* \"#utility.yul\":17833:17852   */\n      swap1\n      pop\n        /* \"#utility.yul\":17492:17858   */\n      swap2\n      swap1\n      pop\n      jump\t// out\n        /* \"#utility.yul\":17864:18283   */\n    tag_101:\n        /* \"#utility.yul\":18030:18034   */\n      0x00\n        /* \"#utility.yul\":18068:18070   */\n      0x20\n        /* \"#utility.yul\":18057:18066   */\n      dup3\n        /* \"#utility.yul\":18053:18071   */\n      add\n        /* \"#utility.yul\":18045:18071   */\n      swap1\n      pop\n        /* \"#utility.yul\":18117:18126   */\n      dup2\n        /* \"#utility.yul\":18111:18115   */\n      dup2\n        /* \"#utility.yul\":18107:18127   */\n      sub\n        /* \"#utility.yul\":18103:18104   */\n      0x00\n        /* \"#utility.yul\":18092:18101   */\n      dup4\n        /* \"#utility.yul\":18088:18105   */\n      add\n        /* \"#utility.yul\":18081:18128   */\n      mstore\n        /* \"#utility.yul\":18145:18276   */\n      tag_349\n        /* \"#utility.yul\":18271:18275   */\n      dup2\n        /* \"#utility.yul\":18145:18276   */\n      tag_170\n      jump\t// in\n    tag_349:\n        /* \"#utility.yul\":18137:18276   */\n      swap1\n      pop\n        /* \"#utility.yul\":17864:18283   */\n      swap2\n      swap1\n      pop\n      jump\t// out\n        /* \"#utility.yul\":18289:18469   */\n    tag_171:\n        /* \"#utility.yul\":18337:18414   */\n      0x4e487b7100000000000000000000000000000000000000000000000000000000\n        /* \"#utility.yul\":18334:18335   */\n      0x00\n        /* \"#utility.yul\":18327:18415   */\n      mstore\n        /* \"#utility.yul\":18434:18438   */\n      0x11\n        /* \"#utility.yul\":18431:18432   */\n      0x04\n        /* \"#utility.yul\":18424:18439   */\n      mstore\n        /* \"#utility.yul\":18458:18462   */\n      0x24\n        /* \"#utility.yul\":18455:18456   */\n      0x00\n        /* \"#utility.yul\":18448:18463   */\n      revert\n        /* \"#utility.yul\":18475:18666   */\n    tag_115:\n        /* \"#utility.yul\":18515:18518   */\n      0x00\n        /* \"#utility.yul\":18534:18554   */\n      tag_352\n        /* \"#utility.yul\":18552:18553   */\n      dup3\n        /* \"#utility.yul\":18534:18554   */\n      tag_121\n      jump\t// in\n    tag_352:\n        /* \"#utility.yul\":18529:18554   */\n      swap2\n      pop\n        /* \"#utility.yul\":18568:18588   */\n      tag_353\n        /* \"#utility.yul\":18586:18587   */\n      dup4\n        /* \"#utility.yul\":18568:18588   */\n      tag_121\n      jump\t// in\n    tag_353:\n        /* \"#utility.yul\":18563:18588   */\n      swap3\n      pop\n        /* \"#utility.yul\":18611:18612   */\n      dup3\n        /* \"#utility.yul\":18608:18609   */\n      dup3\n        /* \"#utility.yul\":18604:18613   */\n      add\n        /* \"#utility.yul\":18597:18613   */\n      swap1\n      pop\n        /* \"#utility.yul\":18632:18635   */\n      dup1\n        /* \"#utility.yul\":18629:18630   */\n      dup3\n        /* \"#utility.yul\":18626:18636   */\n      gt\n        /* \"#utility.yul\":18623:18659   */\n      iszero\n      tag_354\n      jumpi\n        /* \"#utility.yul\":18639:18657   */\n      tag_355\n      tag_171\n      jump\t// in\n    tag_355:\n        /* \"#utility.yul\":18623:18659   */\n    tag_354:\n        /* \"#utility.yul\":18475:18666   */\n      swap3\n      swap2\n      pop\n      pop\n      jump\t// out\n\n    auxdata: 0xa2646970667358221220b69e26d812bdb38f6d232c5131f20773aae4807c70c8d12f4a2a7c304f6b4b4264736f6c63430008110033\n}\n",
				"bytecode": {
					"linkReferences": {},
					"object": "608060405234801561001057600080fd5b50336000806101000a81548173ffffffffffffffffffffffffffffffffffffffff021916908373ffffffffffffffffffffffffffffffffffffffff160217905550611400806100606000396000f3fe608060405234801561001057600080fd5b50600436106100885760003560e01c8063f0b73b541161005b578063f0b73b5414610115578063f7edd6db14610146578063f9d32e4914610162578063fb34d0f71461017e57610088565b80635194f59c1461008d5780635ee81666146100a9578063d75262f3146100db578063e9ec5583146100f7575b600080fd5b6100a760048036038101906100a29190610b12565b6101ae565b005b6100c360048036038101906100be9190610b6e565b61028b565b6040516100d293929190610ca0565b60405180910390f35b6100f560048036038101906100f09190610cde565b61034a565b005b6100ff6105cd565b60405161010c9190610d1e565b60405180910390f35b61012f600480360381019061012a9190610b6e565b6105d3565b60405161013d929190610d39565b60405180910390f35b610160600480360381019061015b9190610b6e565b61067f565b005b61017c60048036038101906101779190610b12565b610811565b005b61019860048036038101906101939190610cde565b610951565b6040516101a59190610d1e565b60405180910390f35b60008054906101000a900473ffffffffffffffffffffffffffffffffffffffff1673ffffffffffffffffffffffffffffffffffffffff163373ffffffffffffffffffffffffffffffffffffffff161461023c576040517f08c379a000000000000000000000000000000000000000000000000000000000815260040161023390610ddb565b60405180910390fd5b604051806040016040528083815260200182815250600260008481526020019081526020016000206000820151816000015560208201518160010190816102839190611007565b509050505050565b60016020528060005260406000206000915090508060000154908060010180546102b490610e2a565b80601f01602080910402602001604051908101604052809291908181526020018280546102e090610e2a565b801561032d5780601f106103025761010080835404028352916020019161032d565b820191906000526020600020905b81548152906001019060200180831161031057829003601f168201915b5050505050908060020160009054906101000a900460ff16905083565b60008054906101000a900473ffffffffffffffffffffffffffffffffffffffff1673ffffffffffffffffffffffffffffffffffffffff163373ffffffffffffffffffffffffffffffffffffffff16146103d8576040517f08c379a00000000000000000000000000000000000000000000000000000000081526004016103cf90610ddb565b60405180910390fd5b8060008060028111156103ee576103ed610c29565b5b6001600084815260200190815260200160002060020160009054906101000a900460ff16600281111561042457610423610c29565b5b14610464576040517f08c379a000000000000000000000000000000000000000000000000000000000815260040161045b9061114b565b60405180910390fd5b8260056004600083815260200190815260200160002080549050106104be576040517f08c379a00000000000000000000000000000000000000000000000000000000081526004016104b5906111dd565b60405180910390fd5b8460006002600083815260200190815260200160002060010180546104e290610e2a565b905003610524576040517f08c379a000000000000000000000000000000000000000000000000000000000815260040161051b90611249565b60405180910390fd5b84600060026000838152602001908152602001600020600101805461054890610e2a565b90500361058a576040517f08c379a0000000000000000000000000000000000000000000000000000000008152600401610581906112b5565b60405180910390fd5b6004600087815260200190815260200160002087908060018154018082558091505060019003906000526020600020016000909190919091505550505050505050565b60035481565b60026020528060005260406000206000915090508060000154908060010180546105fc90610e2a565b80601f016020809104026020016040519081016040528092919081815260200182805461062890610e2a565b80156106755780601f1061064a57610100808354040283529160200191610675565b820191906000526020600020905b81548152906001019060200180831161065857829003601f168201915b5050505050905082565b60008054906101000a900473ffffffffffffffffffffffffffffffffffffffff1673ffffffffffffffffffffffffffffffffffffffff163373ffffffffffffffffffffffffffffffffffffffff161461070d576040517f08c379a000000000000000000000000000000000000000000000000000000000815260040161070490610ddb565b60405180910390fd5b80600060026000838152602001908152602001600020600101805461073190610e2a565b905003610773576040517f08c379a000000000000000000000000000000000000000000000000000000000815260040161076a906112b5565b60405180910390fd5b816002600460008381526020019081526020016000208054905010156107ce576040517f08c379a00000000000000000000000000000000000000000000000000000000081526004016107c590611347565b60405180910390fd5b600180600085815260200190815260200160002060020160006101000a81548160ff0219169083600281111561080757610806610c29565b5b0217905550505050565b60008054906101000a900473ffffffffffffffffffffffffffffffffffffffff1673ffffffffffffffffffffffffffffffffffffffff163373ffffffffffffffffffffffffffffffffffffffff161461089f576040517f08c379a000000000000000000000000000000000000000000000000000000000815260040161089690610ddb565b60405180910390fd5b6040518060600160405280838152602001828152602001600060028111156108ca576108c9610c29565b5b815250600160008481526020019081526020016000206000820151816000015560208201518160010190816108ff9190611007565b5060408201518160020160006101000a81548160ff0219169083600281111561092b5761092a610c29565b5b02179055509050506001600360008282546109469190611396565b925050819055505050565b6004602052816000526040600020818154811061096d57600080fd5b90600052602060002001600091509150505481565b6000604051905090565b600080fd5b600080fd5b6000819050919050565b6109a981610996565b81146109b457600080fd5b50565b6000813590506109c6816109a0565b92915050565b600080fd5b600080fd5b6000601f19601f8301169050919050565b7f4e487b7100000000000000000000000000000000000000000000000000000000600052604160045260246000fd5b610a1f826109d6565b810181811067ffffffffffffffff82111715610a3e57610a3d6109e7565b5b80604052505050565b6000610a51610982565b9050610a5d8282610a16565b919050565b600067ffffffffffffffff821115610a7d57610a7c6109e7565b5b610a86826109d6565b9050602081019050919050565b82818337600083830152505050565b6000610ab5610ab084610a62565b610a47565b905082815260208101848484011115610ad157610ad06109d1565b5b610adc848285610a93565b509392505050565b600082601f830112610af957610af86109cc565b5b8135610b09848260208601610aa2565b91505092915050565b60008060408385031215610b2957610b2861098c565b5b6000610b37858286016109b7565b925050602083013567ffffffffffffffff811115610b5857610b57610991565b5b610b6485828601610ae4565b9150509250929050565b600060208284031215610b8457610b8361098c565b5b6000610b92848285016109b7565b91505092915050565b610ba481610996565b82525050565b600081519050919050565b600082825260208201905092915050565b60005b83811015610be4578082015181840152602081019050610bc9565b60008484015250505050565b6000610bfb82610baa565b610c058185610bb5565b9350610c15818560208601610bc6565b610c1e816109d6565b840191505092915050565b7f4e487b7100000000000000000000000000000000000000000000000000000000600052602160045260246000fd5b60038110610c6957610c68610c29565b5b50565b6000819050610c7a82610c58565b919050565b6000610c8a82610c6c565b9050919050565b610c9a81610c7f565b82525050565b6000606082019050610cb56000830186610b9b565b8181036020830152610cc78185610bf0565b9050610cd66040830184610c91565b949350505050565b60008060408385031215610cf557610cf461098c565b5b6000610d03858286016109b7565b9250506020610d14858286016109b7565b9150509250929050565b6000602082019050610d336000830184610b9b565b92915050565b6000604082019050610d4e6000830185610b9b565b8181036020830152610d608184610bf0565b90509392505050565b7f456c20696e766f6361646f7220646562652073657220656c20616e666974726960008201527f6f6e000000000000000000000000000000000000000000000000000000000000602082015250565b6000610dc5602283610bb5565b9150610dd082610d69565b604082019050919050565b60006020820190508181036000830152610df481610db8565b9050919050565b7f4e487b7100000000000000000000000000000000000000000000000000000000600052602260045260246000fd5b60006002820490506001821680610e4257607f821691505b602082108103610e5557610e54610dfb565b5b50919050565b60008190508160005260206000209050919050565b60006020601f8301049050919050565b600082821b905092915050565b600060088302610ebd7fffffffffffffffffffffffffffffffffffffffffffffffffffffffffffffffff82610e80565b610ec78683610e80565b95508019841693508086168417925050509392505050565b6000819050919050565b6000610f04610eff610efa84610996565b610edf565b610996565b9050919050565b6000819050919050565b610f1e83610ee9565b610f32610f2a82610f0b565b848454610e8d565b825550505050565b600090565b610f47610f3a565b610f52818484610f15565b505050565b5b81811015610f7657610f6b600082610f3f565b600181019050610f58565b5050565b601f821115610fbb57610f8c81610e5b565b610f9584610e70565b81016020851015610fa4578190505b610fb8610fb085610e70565b830182610f57565b50505b505050565b600082821c905092915050565b6000610fde60001984600802610fc0565b1980831691505092915050565b6000610ff78383610fcd565b9150826002028217905092915050565b61101082610baa565b67ffffffffffffffff811115611029576110286109e7565b5b6110338254610e2a565b61103e828285610f7a565b600060209050601f831160018114611071576000841561105f578287015190505b6110698582610feb565b8655506110d1565b601f19841661107f86610e5b565b60005b828110156110a757848901518255600182019150602085019450602081019050611082565b868310156110c457848901516110c0601f891682610fcd565b8355505b6001600288020188555050505b505050505050565b7f4c612063617272657261206e6f2063756d706c6520636f6e20656c206573746160008201527f646f2072657175657269646f0000000000000000000000000000000000000000602082015250565b6000611135602c83610bb5565b9150611140826110d9565b604082019050919050565b6000602082019050818103600083015261116481611128565b9050919050565b7f4c612063617272657261207961206375656e746120636f6e203520636162616c60008201527f6c6f730000000000000000000000000000000000000000000000000000000000602082015250565b60006111c7602383610bb5565b91506111d28261116b565b604082019050919050565b600060208201905081810360008301526111f6816111ba565b9050919050565b7f456c20636162616c6c6f20696e6772657361646f206e6f206578697374650000600082015250565b6000611233601e83610bb5565b915061123e826111fd565b602082019050919050565b6000602082019050818103600083015261126281611226565b9050919050565b7f4c61206361727265726120696e67726573616461206e6f206578697374650000600082015250565b600061129f601e83610bb5565b91506112aa82611269565b602082019050919050565b600060208201905081810360008301526112ce81611292565b9050919050565b7f4c612063617272657261206465626520636f6e74617220636f6e20616c206d6560008201527f6e6f73203220636162616c6c6f73000000000000000000000000000000000000602082015250565b6000611331602e83610bb5565b915061133c826112d5565b604082019050919050565b6000602082019050818103600083015261136081611324565b9050919050565b7f4e487b7100000000000000000000000000000000000000000000000000000000600052601160045260246000fd5b60006113a182610996565b91506113ac83610996565b92508282019050808211156113c4576113c3611367565b5b9291505056fea2646970667358221220b69e26d812bdb38f6d232c5131f20773aae4807c70c8d12f4a2a7c304f6b4b4264736f6c63430008110033",
					"opcodes": "PUSH1 0x80 PUSH1 0x40 MSTORE CALLVALUE DUP1 ISZERO PUSH2 0x10 JUMPI PUSH1 0x0 DUP1 REVERT JUMPDEST POP CALLER PUSH1 0x0 DUP1 PUSH2 0x100 EXP DUP2 SLOAD DUP2 PUSH20 0xFFFFFFFFFFFFFFFFFFFFFFFFFFFFFFFFFFFFFFFF MUL NOT AND SWAP1 DUP4 PUSH20 0xFFFFFFFFFFFFFFFFFFFFFFFFFFFFFFFFFFFFFFFF AND MUL OR SWAP1 SSTORE POP PUSH2 0x1400 DUP1 PUSH2 0x60 PUSH1 0x0 CODECOPY PUSH1 0x0 RETURN INVALID PUSH1 0x80 PUSH1 0x40 MSTORE CALLVALUE DUP1 ISZERO PUSH2 0x10 JUMPI PUSH1 0x0 DUP1 REVERT JUMPDEST POP PUSH1 0x4 CALLDATASIZE LT PUSH2 0x88 JUMPI PUSH1 0x0 CALLDATALOAD PUSH1 0xE0 SHR DUP1 PUSH4 0xF0B73B54 GT PUSH2 0x5B JUMPI DUP1 PUSH4 0xF0B73B54 EQ PUSH2 0x115 JUMPI DUP1 PUSH4 0xF7EDD6DB EQ PUSH2 0x146 JUMPI DUP1 PUSH4 0xF9D32E49 EQ PUSH2 0x162 JUMPI DUP1 PUSH4 0xFB34D0F7 EQ PUSH2 0x17E JUMPI PUSH2 0x88 JUMP JUMPDEST DUP1 PUSH4 0x5194F59C EQ PUSH2 0x8D JUMPI DUP1 PUSH4 0x5EE81666 EQ PUSH2 0xA9 JUMPI DUP1 PUSH4 0xD75262F3 EQ PUSH2 0xDB JUMPI DUP1 PUSH4 0xE9EC5583 EQ PUSH2 0xF7 JUMPI JUMPDEST PUSH1 0x0 DUP1 REVERT JUMPDEST PUSH2 0xA7 PUSH1 0x4 DUP1 CALLDATASIZE SUB DUP2 ADD SWAP1 PUSH2 0xA2 SWAP2 SWAP1 PUSH2 0xB12 JUMP JUMPDEST PUSH2 0x1AE JUMP JUMPDEST STOP JUMPDEST PUSH2 0xC3 PUSH1 0x4 DUP1 CALLDATASIZE SUB DUP2 ADD SWAP1 PUSH2 0xBE SWAP2 SWAP1 PUSH2 0xB6E JUMP JUMPDEST PUSH2 0x28B JUMP JUMPDEST PUSH1 0x40 MLOAD PUSH2 0xD2 SWAP4 SWAP3 SWAP2 SWAP1 PUSH2 0xCA0 JUMP JUMPDEST PUSH1 0x40 MLOAD DUP1 SWAP2 SUB SWAP1 RETURN JUMPDEST PUSH2 0xF5 PUSH1 0x4 DUP1 CALLDATASIZE SUB DUP2 ADD SWAP1 PUSH2 0xF0 SWAP2 SWAP1 PUSH2 0xCDE JUMP JUMPDEST PUSH2 0x34A JUMP JUMPDEST STOP JUMPDEST PUSH2 0xFF PUSH2 0x5CD JUMP JUMPDEST PUSH1 0x40 MLOAD PUSH2 0x10C SWAP2 SWAP1 PUSH2 0xD1E JUMP JUMPDEST PUSH1 0x40 MLOAD DUP1 SWAP2 SUB SWAP1 RETURN JUMPDEST PUSH2 0x12F PUSH1 0x4 DUP1 CALLDATASIZE SUB DUP2 ADD SWAP1 PUSH2 0x12A SWAP2 SWAP1 PUSH2 0xB6E JUMP JUMPDEST PUSH2 0x5D3 JUMP JUMPDEST PUSH1 0x40 MLOAD PUSH2 0x13D SWAP3 SWAP2 SWAP1 PUSH2 0xD39 JUMP JUMPDEST PUSH1 0x40 MLOAD DUP1 SWAP2 SUB SWAP1 RETURN JUMPDEST PUSH2 0x160 PUSH1 0x4 DUP1 CALLDATASIZE SUB DUP2 ADD SWAP1 PUSH2 0x15B SWAP2 SWAP1 PUSH2 0xB6E JUMP JUMPDEST PUSH2 0x67F JUMP JUMPDEST STOP JUMPDEST PUSH2 0x17C PUSH1 0x4 DUP1 CALLDATASIZE SUB DUP2 ADD SWAP1 PUSH2 0x177 SWAP2 SWAP1 PUSH2 0xB12 JUMP JUMPDEST PUSH2 0x811 JUMP JUMPDEST STOP JUMPDEST PUSH2 0x198 PUSH1 0x4 DUP1 CALLDATASIZE SUB DUP2 ADD SWAP1 PUSH2 0x193 SWAP2 SWAP1 PUSH2 0xCDE JUMP JUMPDEST PUSH2 0x951 JUMP JUMPDEST PUSH1 0x40 MLOAD PUSH2 0x1A5 SWAP2 SWAP1 PUSH2 0xD1E JUMP JUMPDEST PUSH1 0x40 MLOAD DUP1 SWAP2 SUB SWAP1 RETURN JUMPDEST PUSH1 0x0 DUP1 SLOAD SWAP1 PUSH2 0x100 EXP SWAP1 DIV PUSH20 0xFFFFFFFFFFFFFFFFFFFFFFFFFFFFFFFFFFFFFFFF AND PUSH20 0xFFFFFFFFFFFFFFFFFFFFFFFFFFFFFFFFFFFFFFFF AND CALLER PUSH20 0xFFFFFFFFFFFFFFFFFFFFFFFFFFFFFFFFFFFFFFFF AND EQ PUSH2 0x23C JUMPI PUSH1 0x40 MLOAD PUSH32 0x8C379A000000000000000000000000000000000000000000000000000000000 DUP2 MSTORE PUSH1 0x4 ADD PUSH2 0x233 SWAP1 PUSH2 0xDDB JUMP JUMPDEST PUSH1 0x40 MLOAD DUP1 SWAP2 SUB SWAP1 REVERT JUMPDEST PUSH1 0x40 MLOAD DUP1 PUSH1 0x40 ADD PUSH1 0x40 MSTORE DUP1 DUP4 DUP2 MSTORE PUSH1 0x20 ADD DUP3 DUP2 MSTORE POP PUSH1 0x2 PUSH1 0x0 DUP5 DUP2 MSTORE PUSH1 0x20 ADD SWAP1 DUP2 MSTORE PUSH1 0x20 ADD PUSH1 0x0 KECCAK256 PUSH1 0x0 DUP3 ADD MLOAD DUP2 PUSH1 0x0 ADD SSTORE PUSH1 0x20 DUP3 ADD MLOAD DUP2 PUSH1 0x1 ADD SWAP1 DUP2 PUSH2 0x283 SWAP2 SWAP1 PUSH2 0x1007 JUMP JUMPDEST POP SWAP1 POP POP POP POP JUMP JUMPDEST PUSH1 0x1 PUSH1 0x20 MSTORE DUP1 PUSH1 0x0 MSTORE PUSH1 0x40 PUSH1 0x0 KECCAK256 PUSH1 0x0 SWAP2 POP SWAP1 POP DUP1 PUSH1 0x0 ADD SLOAD SWAP1 DUP1 PUSH1 0x1 ADD DUP1 SLOAD PUSH2 0x2B4 SWAP1 PUSH2 0xE2A JUMP JUMPDEST DUP1 PUSH1 0x1F ADD PUSH1 0x20 DUP1 SWAP2 DIV MUL PUSH1 0x20 ADD PUSH1 0x40 MLOAD SWAP1 DUP2 ADD PUSH1 0x40 MSTORE DUP1 SWAP3 SWAP2 SWAP1 DUP2 DUP2 MSTORE PUSH1 0x20 ADD DUP3 DUP1 SLOAD PUSH2 0x2E0 SWAP1 PUSH2 0xE2A JUMP JUMPDEST DUP1 ISZERO PUSH2 0x32D JUMPI DUP1 PUSH1 0x1F LT PUSH2 0x302 JUMPI PUSH2 0x100 DUP1 DUP4 SLOAD DIV MUL DUP4 MSTORE SWAP2 PUSH1 0x20 ADD SWAP2 PUSH2 0x32D JUMP JUMPDEST DUP3 ADD SWAP2 SWAP1 PUSH1 0x0 MSTORE PUSH1 0x20 PUSH1 0x0 KECCAK256 SWAP1 JUMPDEST DUP2 SLOAD DUP2 MSTORE SWAP1 PUSH1 0x1 ADD SWAP1 PUSH1 0x20 ADD DUP1 DUP4 GT PUSH2 0x310 JUMPI DUP3 SWAP1 SUB PUSH1 0x1F AND DUP3 ADD SWAP2 JUMPDEST POP POP POP POP POP SWAP1 DUP1 PUSH1 0x2 ADD PUSH1 0x0 SWAP1 SLOAD SWAP1 PUSH2 0x100 EXP SWAP1 DIV PUSH1 0xFF AND SWAP1 POP DUP4 JUMP JUMPDEST PUSH1 0x0 DUP1 SLOAD SWAP1 PUSH2 0x100 EXP SWAP1 DIV PUSH20 0xFFFFFFFFFFFFFFFFFFFFFFFFFFFFFFFFFFFFFFFF AND PUSH20 0xFFFFFFFFFFFFFFFFFFFFFFFFFFFFFFFFFFFFFFFF AND CALLER PUSH20 0xFFFFFFFFFFFFFFFFFFFFFFFFFFFFFFFFFFFFFFFF AND EQ PUSH2 0x3D8 JUMPI PUSH1 0x40 MLOAD PUSH32 0x8C379A000000000000000000000000000000000000000000000000000000000 DUP2 MSTORE PUSH1 0x4 ADD PUSH2 0x3CF SWAP1 PUSH2 0xDDB JUMP JUMPDEST PUSH1 0x40 MLOAD DUP1 SWAP2 SUB SWAP1 REVERT JUMPDEST DUP1 PUSH1 0x0 DUP1 PUSH1 0x2 DUP2 GT ISZERO PUSH2 0x3EE JUMPI PUSH2 0x3ED PUSH2 0xC29 JUMP JUMPDEST JUMPDEST PUSH1 0x1 PUSH1 0x0 DUP5 DUP2 MSTORE PUSH1 0x20 ADD SWAP1 DUP2 MSTORE PUSH1 0x20 ADD PUSH1 0x0 KECCAK256 PUSH1 0x2 ADD PUSH1 0x0 SWAP1 SLOAD SWAP1 PUSH2 0x100 EXP SWAP1 DIV PUSH1 0xFF AND PUSH1 0x2 DUP2 GT ISZERO PUSH2 0x424 JUMPI PUSH2 0x423 PUSH2 0xC29 JUMP JUMPDEST JUMPDEST EQ PUSH2 0x464 JUMPI PUSH1 0x40 MLOAD PUSH32 0x8C379A000000000000000000000000000000000000000000000000000000000 DUP2 MSTORE PUSH1 0x4 ADD PUSH2 0x45B SWAP1 PUSH2 0x114B JUMP JUMPDEST PUSH1 0x40 MLOAD DUP1 SWAP2 SUB SWAP1 REVERT JUMPDEST DUP3 PUSH1 0x5 PUSH1 0x4 PUSH1 0x0 DUP4 DUP2 MSTORE PUSH1 0x20 ADD SWAP1 DUP2 MSTORE PUSH1 0x20 ADD PUSH1 0x0 KECCAK256 DUP1 SLOAD SWAP1 POP LT PUSH2 0x4BE JUMPI PUSH1 0x40 MLOAD PUSH32 0x8C379A000000000000000000000000000000000000000000000000000000000 DUP2 MSTORE PUSH1 0x4 ADD PUSH2 0x4B5 SWAP1 PUSH2 0x11DD JUMP JUMPDEST PUSH1 0x40 MLOAD DUP1 SWAP2 SUB SWAP1 REVERT JUMPDEST DUP5 PUSH1 0x0 PUSH1 0x2 PUSH1 0x0 DUP4 DUP2 MSTORE PUSH1 0x20 ADD SWAP1 DUP2 MSTORE PUSH1 0x20 ADD PUSH1 0x0 KECCAK256 PUSH1 0x1 ADD DUP1 SLOAD PUSH2 0x4E2 SWAP1 PUSH2 0xE2A JUMP JUMPDEST SWAP1 POP SUB PUSH2 0x524 JUMPI PUSH1 0x40 MLOAD PUSH32 0x8C379A000000000000000000000000000000000000000000000000000000000 DUP2 MSTORE PUSH1 0x4 ADD PUSH2 0x51B SWAP1 PUSH2 0x1249 JUMP JUMPDEST PUSH1 0x40 MLOAD DUP1 SWAP2 SUB SWAP1 REVERT JUMPDEST DUP5 PUSH1 0x0 PUSH1 0x2 PUSH1 0x0 DUP4 DUP2 MSTORE PUSH1 0x20 ADD SWAP1 DUP2 MSTORE PUSH1 0x20 ADD PUSH1 0x0 KECCAK256 PUSH1 0x1 ADD DUP1 SLOAD PUSH2 0x548 SWAP1 PUSH2 0xE2A JUMP JUMPDEST SWAP1 POP SUB PUSH2 0x58A JUMPI PUSH1 0x40 MLOAD PUSH32 0x8C379A000000000000000000000000000000000000000000000000000000000 DUP2 MSTORE PUSH1 0x4 ADD PUSH2 0x581 SWAP1 PUSH2 0x12B5 JUMP JUMPDEST PUSH1 0x40 MLOAD DUP1 SWAP2 SUB SWAP1 REVERT JUMPDEST PUSH1 0x4 PUSH1 0x0 DUP8 DUP2 MSTORE PUSH1 0x20 ADD SWAP1 DUP2 MSTORE PUSH1 0x20 ADD PUSH1 0x0 KECCAK256 DUP8 SWAP1 DUP1 PUSH1 0x1 DUP2 SLOAD ADD DUP1 DUP3 SSTORE DUP1 SWAP2 POP POP PUSH1 0x1 SWAP1 SUB SWAP1 PUSH1 0x0 MSTORE PUSH1 0x20 PUSH1 0x0 KECCAK256 ADD PUSH1 0x0 SWAP1 SWAP2 SWAP1 SWAP2 SWAP1 SWAP2 POP SSTORE POP POP POP POP POP POP POP JUMP JUMPDEST PUSH1 0x3 SLOAD DUP2 JUMP JUMPDEST PUSH1 0x2 PUSH1 0x20 MSTORE DUP1 PUSH1 0x0 MSTORE PUSH1 0x40 PUSH1 0x0 KECCAK256 PUSH1 0x0 SWAP2 POP SWAP1 POP DUP1 PUSH1 0x0 ADD SLOAD SWAP1 DUP1 PUSH1 0x1 ADD DUP1 SLOAD PUSH2 0x5FC SWAP1 PUSH2 0xE2A JUMP JUMPDEST DUP1 PUSH1 0x1F ADD PUSH1 0x20 DUP1 SWAP2 DIV MUL PUSH1 0x20 ADD PUSH1 0x40 MLOAD SWAP1 DUP2 ADD PUSH1 0x40 MSTORE DUP1 SWAP3 SWAP2 SWAP1 DUP2 DUP2 MSTORE PUSH1 0x20 ADD DUP3 DUP1 SLOAD PUSH2 0x628 SWAP1 PUSH2 0xE2A JUMP JUMPDEST DUP1 ISZERO PUSH2 0x675 JUMPI DUP1 PUSH1 0x1F LT PUSH2 0x64A JUMPI PUSH2 0x100 DUP1 DUP4 SLOAD DIV MUL DUP4 MSTORE SWAP2 PUSH1 0x20 ADD SWAP2 PUSH2 0x675 JUMP JUMPDEST DUP3 ADD SWAP2 SWAP1 PUSH1 0x0 MSTORE PUSH1 0x20 PUSH1 0x0 KECCAK256 SWAP1 JUMPDEST DUP2 SLOAD DUP2 MSTORE SWAP1 PUSH1 0x1 ADD SWAP1 PUSH1 0x20 ADD DUP1 DUP4 GT PUSH2 0x658 JUMPI DUP3 SWAP1 SUB PUSH1 0x1F AND DUP3 ADD SWAP2 JUMPDEST POP POP POP POP POP SWAP1 POP DUP3 JUMP JUMPDEST PUSH1 0x0 DUP1 SLOAD SWAP1 PUSH2 0x100 EXP SWAP1 DIV PUSH20 0xFFFFFFFFFFFFFFFFFFFFFFFFFFFFFFFFFFFFFFFF AND PUSH20 0xFFFFFFFFFFFFFFFFFFFFFFFFFFFFFFFFFFFFFFFF AND CALLER PUSH20 0xFFFFFFFFFFFFFFFFFFFFFFFFFFFFFFFFFFFFFFFF AND EQ PUSH2 0x70D JUMPI PUSH1 0x40 MLOAD PUSH32 0x8C379A000000000000000000000000000000000000000000000000000000000 DUP2 MSTORE PUSH1 0x4 ADD PUSH2 0x704 SWAP1 PUSH2 0xDDB JUMP JUMPDEST PUSH1 0x40 MLOAD DUP1 SWAP2 SUB SWAP1 REVERT JUMPDEST DUP1 PUSH1 0x0 PUSH1 0x2 PUSH1 0x0 DUP4 DUP2 MSTORE PUSH1 0x20 ADD SWAP1 DUP2 MSTORE PUSH1 0x20 ADD PUSH1 0x0 KECCAK256 PUSH1 0x1 ADD DUP1 SLOAD PUSH2 0x731 SWAP1 PUSH2 0xE2A JUMP JUMPDEST SWAP1 POP SUB PUSH2 0x773 JUMPI PUSH1 0x40 MLOAD PUSH32 0x8C379A000000000000000000000000000000000000000000000000000000000 DUP2 MSTORE PUSH1 0x4 ADD PUSH2 0x76A SWAP1 PUSH2 0x12B5 JUMP JUMPDEST PUSH1 0x40 MLOAD DUP1 SWAP2 SUB SWAP1 REVERT JUMPDEST DUP2 PUSH1 0x2 PUSH1 0x4 PUSH1 0x0 DUP4 DUP2 MSTORE PUSH1 0x20 ADD SWAP1 DUP2 MSTORE PUSH1 0x20 ADD PUSH1 0x0 KECCAK256 DUP1 SLOAD SWAP1 POP LT ISZERO PUSH2 0x7CE JUMPI PUSH1 0x40 MLOAD PUSH32 0x8C379A000000000000000000000000000000000000000000000000000000000 DUP2 MSTORE PUSH1 0x4 ADD PUSH2 0x7C5 SWAP1 PUSH2 0x1347 JUMP JUMPDEST PUSH1 0x40 MLOAD DUP1 SWAP2 SUB SWAP1 REVERT JUMPDEST PUSH1 0x1 DUP1 PUSH1 0x0 DUP6 DUP2 MSTORE PUSH1 0x20 ADD SWAP1 DUP2 MSTORE PUSH1 0x20 ADD PUSH1 0x0 KECCAK256 PUSH1 0x2 ADD PUSH1 0x0 PUSH2 0x100 EXP DUP2 SLOAD DUP2 PUSH1 0xFF MUL NOT AND SWAP1 DUP4 PUSH1 0x2 DUP2 GT ISZERO PUSH2 0x807 JUMPI PUSH2 0x806 PUSH2 0xC29 JUMP JUMPDEST JUMPDEST MUL OR SWAP1 SSTORE POP POP POP POP JUMP JUMPDEST PUSH1 0x0 DUP1 SLOAD SWAP1 PUSH2 0x100 EXP SWAP1 DIV PUSH20 0xFFFFFFFFFFFFFFFFFFFFFFFFFFFFFFFFFFFFFFFF AND PUSH20 0xFFFFFFFFFFFFFFFFFFFFFFFFFFFFFFFFFFFFFFFF AND CALLER PUSH20 0xFFFFFFFFFFFFFFFFFFFFFFFFFFFFFFFFFFFFFFFF AND EQ PUSH2 0x89F JUMPI PUSH1 0x40 MLOAD PUSH32 0x8C379A000000000000000000000000000000000000000000000000000000000 DUP2 MSTORE PUSH1 0x4 ADD PUSH2 0x896 SWAP1 PUSH2 0xDDB JUMP JUMPDEST PUSH1 0x40 MLOAD DUP1 SWAP2 SUB SWAP1 REVERT JUMPDEST PUSH1 0x40 MLOAD DUP1 PUSH1 0x60 ADD PUSH1 0x40 MSTORE DUP1 DUP4 DUP2 MSTORE PUSH1 0x20 ADD DUP3 DUP2 MSTORE PUSH1 0x20 ADD PUSH1 0x0 PUSH1 0x2 DUP2 GT ISZERO PUSH2 0x8CA JUMPI PUSH2 0x8C9 PUSH2 0xC29 JUMP JUMPDEST JUMPDEST DUP2 MSTORE POP PUSH1 0x1 PUSH1 0x0 DUP5 DUP2 MSTORE PUSH1 0x20 ADD SWAP1 DUP2 MSTORE PUSH1 0x20 ADD PUSH1 0x0 KECCAK256 PUSH1 0x0 DUP3 ADD MLOAD DUP2 PUSH1 0x0 ADD SSTORE PUSH1 0x20 DUP3 ADD MLOAD DUP2 PUSH1 0x1 ADD SWAP1 DUP2 PUSH2 0x8FF SWAP2 SWAP1 PUSH2 0x1007 JUMP JUMPDEST POP PUSH1 0x40 DUP3 ADD MLOAD DUP2 PUSH1 0x2 ADD PUSH1 0x0 PUSH2 0x100 EXP DUP2 SLOAD DUP2 PUSH1 0xFF MUL NOT AND SWAP1 DUP4 PUSH1 0x2 DUP2 GT ISZERO PUSH2 0x92B JUMPI PUSH2 0x92A PUSH2 0xC29 JUMP JUMPDEST JUMPDEST MUL OR SWAP1 SSTORE POP SWAP1 POP POP PUSH1 0x1 PUSH1 0x3 PUSH1 0x0 DUP3 DUP3 SLOAD PUSH2 0x946 SWAP2 SWAP1 PUSH2 0x1396 JUMP JUMPDEST SWAP3 POP POP DUP2 SWAP1 SSTORE POP POP POP JUMP JUMPDEST PUSH1 0x4 PUSH1 0x20 MSTORE DUP2 PUSH1 0x0 MSTORE PUSH1 0x40 PUSH1 0x0 KECCAK256 DUP2 DUP2 SLOAD DUP2 LT PUSH2 0x96D JUMPI PUSH1 0x0 DUP1 REVERT JUMPDEST SWAP1 PUSH1 0x0 MSTORE PUSH1 0x20 PUSH1 0x0 KECCAK256 ADD PUSH1 0x0 SWAP2 POP SWAP2 POP POP SLOAD DUP2 JUMP JUMPDEST PUSH1 0x0 PUSH1 0x40 MLOAD SWAP1 POP SWAP1 JUMP JUMPDEST PUSH1 0x0 DUP1 REVERT JUMPDEST PUSH1 0x0 DUP1 REVERT JUMPDEST PUSH1 0x0 DUP2 SWAP1 POP SWAP2 SWAP1 POP JUMP JUMPDEST PUSH2 0x9A9 DUP2 PUSH2 0x996 JUMP JUMPDEST DUP2 EQ PUSH2 0x9B4 JUMPI PUSH1 0x0 DUP1 REVERT JUMPDEST POP JUMP JUMPDEST PUSH1 0x0 DUP2 CALLDATALOAD SWAP1 POP PUSH2 0x9C6 DUP2 PUSH2 0x9A0 JUMP JUMPDEST SWAP3 SWAP2 POP POP JUMP JUMPDEST PUSH1 0x0 DUP1 REVERT JUMPDEST PUSH1 0x0 DUP1 REVERT JUMPDEST PUSH1 0x0 PUSH1 0x1F NOT PUSH1 0x1F DUP4 ADD AND SWAP1 POP SWAP2 SWAP1 POP JUMP JUMPDEST PUSH32 0x4E487B7100000000000000000000000000000000000000000000000000000000 PUSH1 0x0 MSTORE PUSH1 0x41 PUSH1 0x4 MSTORE PUSH1 0x24 PUSH1 0x0 REVERT JUMPDEST PUSH2 0xA1F DUP3 PUSH2 0x9D6 JUMP JUMPDEST DUP2 ADD DUP2 DUP2 LT PUSH8 0xFFFFFFFFFFFFFFFF DUP3 GT OR ISZERO PUSH2 0xA3E JUMPI PUSH2 0xA3D PUSH2 0x9E7 JUMP JUMPDEST JUMPDEST DUP1 PUSH1 0x40 MSTORE POP POP POP JUMP JUMPDEST PUSH1 0x0 PUSH2 0xA51 PUSH2 0x982 JUMP JUMPDEST SWAP1 POP PUSH2 0xA5D DUP3 DUP3 PUSH2 0xA16 JUMP JUMPDEST SWAP2 SWAP1 POP JUMP JUMPDEST PUSH1 0x0 PUSH8 0xFFFFFFFFFFFFFFFF DUP3 GT ISZERO PUSH2 0xA7D JUMPI PUSH2 0xA7C PUSH2 0x9E7 JUMP JUMPDEST JUMPDEST PUSH2 0xA86 DUP3 PUSH2 0x9D6 JUMP JUMPDEST SWAP1 POP PUSH1 0x20 DUP2 ADD SWAP1 POP SWAP2 SWAP1 POP JUMP JUMPDEST DUP3 DUP2 DUP4 CALLDATACOPY PUSH1 0x0 DUP4 DUP4 ADD MSTORE POP POP POP JUMP JUMPDEST PUSH1 0x0 PUSH2 0xAB5 PUSH2 0xAB0 DUP5 PUSH2 0xA62 JUMP JUMPDEST PUSH2 0xA47 JUMP JUMPDEST SWAP1 POP DUP3 DUP2 MSTORE PUSH1 0x20 DUP2 ADD DUP5 DUP5 DUP5 ADD GT ISZERO PUSH2 0xAD1 JUMPI PUSH2 0xAD0 PUSH2 0x9D1 JUMP JUMPDEST JUMPDEST PUSH2 0xADC DUP5 DUP3 DUP6 PUSH2 0xA93 JUMP JUMPDEST POP SWAP4 SWAP3 POP POP POP JUMP JUMPDEST PUSH1 0x0 DUP3 PUSH1 0x1F DUP4 ADD SLT PUSH2 0xAF9 JUMPI PUSH2 0xAF8 PUSH2 0x9CC JUMP JUMPDEST JUMPDEST DUP2 CALLDATALOAD PUSH2 0xB09 DUP5 DUP3 PUSH1 0x20 DUP7 ADD PUSH2 0xAA2 JUMP JUMPDEST SWAP2 POP POP SWAP3 SWAP2 POP POP JUMP JUMPDEST PUSH1 0x0 DUP1 PUSH1 0x40 DUP4 DUP6 SUB SLT ISZERO PUSH2 0xB29 JUMPI PUSH2 0xB28 PUSH2 0x98C JUMP JUMPDEST JUMPDEST PUSH1 0x0 PUSH2 0xB37 DUP6 DUP3 DUP7 ADD PUSH2 0x9B7 JUMP JUMPDEST SWAP3 POP POP PUSH1 0x20 DUP4 ADD CALLDATALOAD PUSH8 0xFFFFFFFFFFFFFFFF DUP2 GT ISZERO PUSH2 0xB58 JUMPI PUSH2 0xB57 PUSH2 0x991 JUMP JUMPDEST JUMPDEST PUSH2 0xB64 DUP6 DUP3 DUP7 ADD PUSH2 0xAE4 JUMP JUMPDEST SWAP2 POP POP SWAP3 POP SWAP3 SWAP1 POP JUMP JUMPDEST PUSH1 0x0 PUSH1 0x20 DUP3 DUP5 SUB SLT ISZERO PUSH2 0xB84 JUMPI PUSH2 0xB83 PUSH2 0x98C JUMP JUMPDEST JUMPDEST PUSH1 0x0 PUSH2 0xB92 DUP5 DUP3 DUP6 ADD PUSH2 0x9B7 JUMP JUMPDEST SWAP2 POP POP SWAP3 SWAP2 POP POP JUMP JUMPDEST PUSH2 0xBA4 DUP2 PUSH2 0x996 JUMP JUMPDEST DUP3 MSTORE POP POP JUMP JUMPDEST PUSH1 0x0 DUP2 MLOAD SWAP1 POP SWAP2 SWAP1 POP JUMP JUMPDEST PUSH1 0x0 DUP3 DUP3 MSTORE PUSH1 0x20 DUP3 ADD SWAP1 POP SWAP3 SWAP2 POP POP JUMP JUMPDEST PUSH1 0x0 JUMPDEST DUP4 DUP2 LT ISZERO PUSH2 0xBE4 JUMPI DUP1 DUP3 ADD MLOAD DUP2 DUP5 ADD MSTORE PUSH1 0x20 DUP2 ADD SWAP1 POP PUSH2 0xBC9 JUMP JUMPDEST PUSH1 0x0 DUP5 DUP5 ADD MSTORE POP POP POP POP JUMP JUMPDEST PUSH1 0x0 PUSH2 0xBFB DUP3 PUSH2 0xBAA JUMP JUMPDEST PUSH2 0xC05 DUP2 DUP6 PUSH2 0xBB5 JUMP JUMPDEST SWAP4 POP PUSH2 0xC15 DUP2 DUP6 PUSH1 0x20 DUP7 ADD PUSH2 0xBC6 JUMP JUMPDEST PUSH2 0xC1E DUP2 PUSH2 0x9D6 JUMP JUMPDEST DUP5 ADD SWAP2 POP POP SWAP3 SWAP2 POP POP JUMP JUMPDEST PUSH32 0x4E487B7100000000000000000000000000000000000000000000000000000000 PUSH1 0x0 MSTORE PUSH1 0x21 PUSH1 0x4 MSTORE PUSH1 0x24 PUSH1 0x0 REVERT JUMPDEST PUSH1 0x3 DUP2 LT PUSH2 0xC69 JUMPI PUSH2 0xC68 PUSH2 0xC29 JUMP JUMPDEST JUMPDEST POP JUMP JUMPDEST PUSH1 0x0 DUP2 SWAP1 POP PUSH2 0xC7A DUP3 PUSH2 0xC58 JUMP JUMPDEST SWAP2 SWAP1 POP JUMP JUMPDEST PUSH1 0x0 PUSH2 0xC8A DUP3 PUSH2 0xC6C JUMP JUMPDEST SWAP1 POP SWAP2 SWAP1 POP JUMP JUMPDEST PUSH2 0xC9A DUP2 PUSH2 0xC7F JUMP JUMPDEST DUP3 MSTORE POP POP JUMP JUMPDEST PUSH1 0x0 PUSH1 0x60 DUP3 ADD SWAP1 POP PUSH2 0xCB5 PUSH1 0x0 DUP4 ADD DUP7 PUSH2 0xB9B JUMP JUMPDEST DUP2 DUP2 SUB PUSH1 0x20 DUP4 ADD MSTORE PUSH2 0xCC7 DUP2 DUP6 PUSH2 0xBF0 JUMP JUMPDEST SWAP1 POP PUSH2 0xCD6 PUSH1 0x40 DUP4 ADD DUP5 PUSH2 0xC91 JUMP JUMPDEST SWAP5 SWAP4 POP POP POP POP JUMP JUMPDEST PUSH1 0x0 DUP1 PUSH1 0x40 DUP4 DUP6 SUB SLT ISZERO PUSH2 0xCF5 JUMPI PUSH2 0xCF4 PUSH2 0x98C JUMP JUMPDEST JUMPDEST PUSH1 0x0 PUSH2 0xD03 DUP6 DUP3 DUP7 ADD PUSH2 0x9B7 JUMP JUMPDEST SWAP3 POP POP PUSH1 0x20 PUSH2 0xD14 DUP6 DUP3 DUP7 ADD PUSH2 0x9B7 JUMP JUMPDEST SWAP2 POP POP SWAP3 POP SWAP3 SWAP1 POP JUMP JUMPDEST PUSH1 0x0 PUSH1 0x20 DUP3 ADD SWAP1 POP PUSH2 0xD33 PUSH1 0x0 DUP4 ADD DUP5 PUSH2 0xB9B JUMP JUMPDEST SWAP3 SWAP2 POP POP JUMP JUMPDEST PUSH1 0x0 PUSH1 0x40 DUP3 ADD SWAP1 POP PUSH2 0xD4E PUSH1 0x0 DUP4 ADD DUP6 PUSH2 0xB9B JUMP JUMPDEST DUP2 DUP2 SUB PUSH1 0x20 DUP4 ADD MSTORE PUSH2 0xD60 DUP2 DUP5 PUSH2 0xBF0 JUMP JUMPDEST SWAP1 POP SWAP4 SWAP3 POP POP POP JUMP JUMPDEST PUSH32 0x456C20696E766F6361646F7220646562652073657220656C20616E6669747269 PUSH1 0x0 DUP3 ADD MSTORE PUSH32 0x6F6E000000000000000000000000000000000000000000000000000000000000 PUSH1 0x20 DUP3 ADD MSTORE POP JUMP JUMPDEST PUSH1 0x0 PUSH2 0xDC5 PUSH1 0x22 DUP4 PUSH2 0xBB5 JUMP JUMPDEST SWAP2 POP PUSH2 0xDD0 DUP3 PUSH2 0xD69 JUMP JUMPDEST PUSH1 0x40 DUP3 ADD SWAP1 POP SWAP2 SWAP1 POP JUMP JUMPDEST PUSH1 0x0 PUSH1 0x20 DUP3 ADD SWAP1 POP DUP2 DUP2 SUB PUSH1 0x0 DUP4 ADD MSTORE PUSH2 0xDF4 DUP2 PUSH2 0xDB8 JUMP JUMPDEST SWAP1 POP SWAP2 SWAP1 POP JUMP JUMPDEST PUSH32 0x4E487B7100000000000000000000000000000000000000000000000000000000 PUSH1 0x0 MSTORE PUSH1 0x22 PUSH1 0x4 MSTORE PUSH1 0x24 PUSH1 0x0 REVERT JUMPDEST PUSH1 0x0 PUSH1 0x2 DUP3 DIV SWAP1 POP PUSH1 0x1 DUP3 AND DUP1 PUSH2 0xE42 JUMPI PUSH1 0x7F DUP3 AND SWAP2 POP JUMPDEST PUSH1 0x20 DUP3 LT DUP2 SUB PUSH2 0xE55 JUMPI PUSH2 0xE54 PUSH2 0xDFB JUMP JUMPDEST JUMPDEST POP SWAP2 SWAP1 POP JUMP JUMPDEST PUSH1 0x0 DUP2 SWAP1 POP DUP2 PUSH1 0x0 MSTORE PUSH1 0x20 PUSH1 0x0 KECCAK256 SWAP1 POP SWAP2 SWAP1 POP JUMP JUMPDEST PUSH1 0x0 PUSH1 0x20 PUSH1 0x1F DUP4 ADD DIV SWAP1 POP SWAP2 SWAP1 POP JUMP JUMPDEST PUSH1 0x0 DUP3 DUP3 SHL SWAP1 POP SWAP3 SWAP2 POP POP JUMP JUMPDEST PUSH1 0x0 PUSH1 0x8 DUP4 MUL PUSH2 0xEBD PUSH32 0xFFFFFFFFFFFFFFFFFFFFFFFFFFFFFFFFFFFFFFFFFFFFFFFFFFFFFFFFFFFFFFFF DUP3 PUSH2 0xE80 JUMP JUMPDEST PUSH2 0xEC7 DUP7 DUP4 PUSH2 0xE80 JUMP JUMPDEST SWAP6 POP DUP1 NOT DUP5 AND SWAP4 POP DUP1 DUP7 AND DUP5 OR SWAP3 POP POP POP SWAP4 SWAP3 POP POP POP JUMP JUMPDEST PUSH1 0x0 DUP2 SWAP1 POP SWAP2 SWAP1 POP JUMP JUMPDEST PUSH1 0x0 PUSH2 0xF04 PUSH2 0xEFF PUSH2 0xEFA DUP5 PUSH2 0x996 JUMP JUMPDEST PUSH2 0xEDF JUMP JUMPDEST PUSH2 0x996 JUMP JUMPDEST SWAP1 POP SWAP2 SWAP1 POP JUMP JUMPDEST PUSH1 0x0 DUP2 SWAP1 POP SWAP2 SWAP1 POP JUMP JUMPDEST PUSH2 0xF1E DUP4 PUSH2 0xEE9 JUMP JUMPDEST PUSH2 0xF32 PUSH2 0xF2A DUP3 PUSH2 0xF0B JUMP JUMPDEST DUP5 DUP5 SLOAD PUSH2 0xE8D JUMP JUMPDEST DUP3 SSTORE POP POP POP POP JUMP JUMPDEST PUSH1 0x0 SWAP1 JUMP JUMPDEST PUSH2 0xF47 PUSH2 0xF3A JUMP JUMPDEST PUSH2 0xF52 DUP2 DUP5 DUP5 PUSH2 0xF15 JUMP JUMPDEST POP POP POP JUMP JUMPDEST JUMPDEST DUP2 DUP2 LT ISZERO PUSH2 0xF76 JUMPI PUSH2 0xF6B PUSH1 0x0 DUP3 PUSH2 0xF3F JUMP JUMPDEST PUSH1 0x1 DUP2 ADD SWAP1 POP PUSH2 0xF58 JUMP JUMPDEST POP POP JUMP JUMPDEST PUSH1 0x1F DUP3 GT ISZERO PUSH2 0xFBB JUMPI PUSH2 0xF8C DUP2 PUSH2 0xE5B JUMP JUMPDEST PUSH2 0xF95 DUP5 PUSH2 0xE70 JUMP JUMPDEST DUP2 ADD PUSH1 0x20 DUP6 LT ISZERO PUSH2 0xFA4 JUMPI DUP2 SWAP1 POP JUMPDEST PUSH2 0xFB8 PUSH2 0xFB0 DUP6 PUSH2 0xE70 JUMP JUMPDEST DUP4 ADD DUP3 PUSH2 0xF57 JUMP JUMPDEST POP POP JUMPDEST POP POP POP JUMP JUMPDEST PUSH1 0x0 DUP3 DUP3 SHR SWAP1 POP SWAP3 SWAP2 POP POP JUMP JUMPDEST PUSH1 0x0 PUSH2 0xFDE PUSH1 0x0 NOT DUP5 PUSH1 0x8 MUL PUSH2 0xFC0 JUMP JUMPDEST NOT DUP1 DUP4 AND SWAP2 POP POP SWAP3 SWAP2 POP POP JUMP JUMPDEST PUSH1 0x0 PUSH2 0xFF7 DUP4 DUP4 PUSH2 0xFCD JUMP JUMPDEST SWAP2 POP DUP3 PUSH1 0x2 MUL DUP3 OR SWAP1 POP SWAP3 SWAP2 POP POP JUMP JUMPDEST PUSH2 0x1010 DUP3 PUSH2 0xBAA JUMP JUMPDEST PUSH8 0xFFFFFFFFFFFFFFFF DUP2 GT ISZERO PUSH2 0x1029 JUMPI PUSH2 0x1028 PUSH2 0x9E7 JUMP JUMPDEST JUMPDEST PUSH2 0x1033 DUP3 SLOAD PUSH2 0xE2A JUMP JUMPDEST PUSH2 0x103E DUP3 DUP3 DUP6 PUSH2 0xF7A JUMP JUMPDEST PUSH1 0x0 PUSH1 0x20 SWAP1 POP PUSH1 0x1F DUP4 GT PUSH1 0x1 DUP2 EQ PUSH2 0x1071 JUMPI PUSH1 0x0 DUP5 ISZERO PUSH2 0x105F JUMPI DUP3 DUP8 ADD MLOAD SWAP1 POP JUMPDEST PUSH2 0x1069 DUP6 DUP3 PUSH2 0xFEB JUMP JUMPDEST DUP7 SSTORE POP PUSH2 0x10D1 JUMP JUMPDEST PUSH1 0x1F NOT DUP5 AND PUSH2 0x107F DUP7 PUSH2 0xE5B JUMP JUMPDEST PUSH1 0x0 JUMPDEST DUP3 DUP2 LT ISZERO PUSH2 0x10A7 JUMPI DUP5 DUP10 ADD MLOAD DUP3 SSTORE PUSH1 0x1 DUP3 ADD SWAP2 POP PUSH1 0x20 DUP6 ADD SWAP5 POP PUSH1 0x20 DUP2 ADD SWAP1 POP PUSH2 0x1082 JUMP JUMPDEST DUP7 DUP4 LT ISZERO PUSH2 0x10C4 JUMPI DUP5 DUP10 ADD MLOAD PUSH2 0x10C0 PUSH1 0x1F DUP10 AND DUP3 PUSH2 0xFCD JUMP JUMPDEST DUP4 SSTORE POP JUMPDEST PUSH1 0x1 PUSH1 0x2 DUP9 MUL ADD DUP9 SSTORE POP POP POP JUMPDEST POP POP POP POP POP POP JUMP JUMPDEST PUSH32 0x4C612063617272657261206E6F2063756D706C6520636F6E20656C2065737461 PUSH1 0x0 DUP3 ADD MSTORE PUSH32 0x646F2072657175657269646F0000000000000000000000000000000000000000 PUSH1 0x20 DUP3 ADD MSTORE POP JUMP JUMPDEST PUSH1 0x0 PUSH2 0x1135 PUSH1 0x2C DUP4 PUSH2 0xBB5 JUMP JUMPDEST SWAP2 POP PUSH2 0x1140 DUP3 PUSH2 0x10D9 JUMP JUMPDEST PUSH1 0x40 DUP3 ADD SWAP1 POP SWAP2 SWAP1 POP JUMP JUMPDEST PUSH1 0x0 PUSH1 0x20 DUP3 ADD SWAP1 POP DUP2 DUP2 SUB PUSH1 0x0 DUP4 ADD MSTORE PUSH2 0x1164 DUP2 PUSH2 0x1128 JUMP JUMPDEST SWAP1 POP SWAP2 SWAP1 POP JUMP JUMPDEST PUSH32 0x4C612063617272657261207961206375656E746120636F6E203520636162616C PUSH1 0x0 DUP3 ADD MSTORE PUSH32 0x6C6F730000000000000000000000000000000000000000000000000000000000 PUSH1 0x20 DUP3 ADD MSTORE POP JUMP JUMPDEST PUSH1 0x0 PUSH2 0x11C7 PUSH1 0x23 DUP4 PUSH2 0xBB5 JUMP JUMPDEST SWAP2 POP PUSH2 0x11D2 DUP3 PUSH2 0x116B JUMP JUMPDEST PUSH1 0x40 DUP3 ADD SWAP1 POP SWAP2 SWAP1 POP JUMP JUMPDEST PUSH1 0x0 PUSH1 0x20 DUP3 ADD SWAP1 POP DUP2 DUP2 SUB PUSH1 0x0 DUP4 ADD MSTORE PUSH2 0x11F6 DUP2 PUSH2 0x11BA JUMP JUMPDEST SWAP1 POP SWAP2 SWAP1 POP JUMP JUMPDEST PUSH32 0x456C20636162616C6C6F20696E6772657361646F206E6F206578697374650000 PUSH1 0x0 DUP3 ADD MSTORE POP JUMP JUMPDEST PUSH1 0x0 PUSH2 0x1233 PUSH1 0x1E DUP4 PUSH2 0xBB5 JUMP JUMPDEST SWAP2 POP PUSH2 0x123E DUP3 PUSH2 0x11FD JUMP JUMPDEST PUSH1 0x20 DUP3 ADD SWAP1 POP SWAP2 SWAP1 POP JUMP JUMPDEST PUSH1 0x0 PUSH1 0x20 DUP3 ADD SWAP1 POP DUP2 DUP2 SUB PUSH1 0x0 DUP4 ADD MSTORE PUSH2 0x1262 DUP2 PUSH2 0x1226 JUMP JUMPDEST SWAP1 POP SWAP2 SWAP1 POP JUMP JUMPDEST PUSH32 0x4C61206361727265726120696E67726573616461206E6F206578697374650000 PUSH1 0x0 DUP3 ADD MSTORE POP JUMP JUMPDEST PUSH1 0x0 PUSH2 0x129F PUSH1 0x1E DUP4 PUSH2 0xBB5 JUMP JUMPDEST SWAP2 POP PUSH2 0x12AA DUP3 PUSH2 0x1269 JUMP JUMPDEST PUSH1 0x20 DUP3 ADD SWAP1 POP SWAP2 SWAP1 POP JUMP JUMPDEST PUSH1 0x0 PUSH1 0x20 DUP3 ADD SWAP1 POP DUP2 DUP2 SUB PUSH1 0x0 DUP4 ADD MSTORE PUSH2 0x12CE DUP2 PUSH2 0x1292 JUMP JUMPDEST SWAP1 POP SWAP2 SWAP1 POP JUMP JUMPDEST PUSH32 0x4C612063617272657261206465626520636F6E74617220636F6E20616C206D65 PUSH1 0x0 DUP3 ADD MSTORE PUSH32 0x6E6F73203220636162616C6C6F73000000000000000000000000000000000000 PUSH1 0x20 DUP3 ADD MSTORE POP JUMP JUMPDEST PUSH1 0x0 PUSH2 0x1331 PUSH1 0x2E DUP4 PUSH2 0xBB5 JUMP JUMPDEST SWAP2 POP PUSH2 0x133C DUP3 PUSH2 0x12D5 JUMP JUMPDEST PUSH1 0x40 DUP3 ADD SWAP1 POP SWAP2 SWAP1 POP JUMP JUMPDEST PUSH1 0x0 PUSH1 0x20 DUP3 ADD SWAP1 POP DUP2 DUP2 SUB PUSH1 0x0 DUP4 ADD MSTORE PUSH2 0x1360 DUP2 PUSH2 0x1324 JUMP JUMPDEST SWAP1 POP SWAP2 SWAP1 POP JUMP JUMPDEST PUSH32 0x4E487B7100000000000000000000000000000000000000000000000000000000 PUSH1 0x0 MSTORE PUSH1 0x11 PUSH1 0x4 MSTORE PUSH1 0x24 PUSH1 0x0 REVERT JUMPDEST PUSH1 0x0 PUSH2 0x13A1 DUP3 PUSH2 0x996 JUMP JUMPDEST SWAP2 POP PUSH2 0x13AC DUP4 PUSH2 0x996 JUMP JUMPDEST SWAP3 POP DUP3 DUP3 ADD SWAP1 POP DUP1 DUP3 GT ISZERO PUSH2 0x13C4 JUMPI PUSH2 0x13C3 PUSH2 0x1367 JUMP JUMPDEST JUMPDEST SWAP3 SWAP2 POP POP JUMP INVALID LOG2 PUSH5 0x6970667358 0x22 SLT KECCAK256 0xB6 SWAP15 0x26 0xD8 SLT 0xBD 0xB3 DUP16 PUSH14 0x232C5131F20773AAE4807C70C8D1 0x2F 0x4A 0x2A PUSH29 0x304F6B4B4264736F6C6343000811003300000000000000000000000000 "
				},
				"gasEstimates": {
					"creation": {
						"codeDepositCost": "1024000",
						"executionCost": "25327",
						"totalCost": "1049327"
					},
					"external": {
						"caballos(uint256)": "infinite",
						"carreras(uint256)": "infinite",
						"competencias(uint256,uint256)": "infinite",
						"crearCarrera(uint256,string)": "infinite",
						"registrarCaballo(uint256,string)": "infinite",
						"registrarCarrera(uint256)": "31528",
						"registrarEnCompetencia(uint256,uint256)": "infinite",
						"totalCarreras()": "2496"
					}
				},
				"methodIdentifiers": {
					"caballos(uint256)": "f0b73b54",
					"carreras(uint256)": "5ee81666",
					"competencias(uint256,uint256)": "fb34d0f7",
					"crearCarrera(uint256,string)": "f9d32e49",
					"registrarCaballo(uint256,string)": "5194f59c",
					"registrarCarrera(uint256)": "f7edd6db",
					"registrarEnCompetencia(uint256,uint256)": "d75262f3",
					"totalCarreras()": "e9ec5583"
				}
			},
			"storageLayout": {
				"storage": [
					{
						"astId": 3,
						"contract": "casaApuestas.sol:casaApuestas",
						"label": "anfitrion",
						"offset": 0,
						"slot": "0",
						"type": "t_address"
					},
					{
						"astId": 12,
						"contract": "casaApuestas.sol:casaApuestas",
						"label": "carreras",
						"offset": 0,
						"slot": "1",
						"type": "t_mapping(t_uint256,t_struct(Carrera)32_storage)"
					},
					{
						"astId": 17,
						"contract": "casaApuestas.sol:casaApuestas",
						"label": "caballos",
						"offset": 0,
						"slot": "2",
						"type": "t_mapping(t_uint256,t_struct(Caballo)37_storage)"
					},
					{
						"astId": 19,
						"contract": "casaApuestas.sol:casaApuestas",
						"label": "totalCarreras",
						"offset": 0,
						"slot": "3",
						"type": "t_uint256"
					},
					{
						"astId": 24,
						"contract": "casaApuestas.sol:casaApuestas",
						"label": "competencias",
						"offset": 0,
						"slot": "4",
						"type": "t_mapping(t_uint256,t_array(t_uint256)dyn_storage)"
					}
				],
				"types": {
					"t_address": {
						"encoding": "inplace",
						"label": "address",
						"numberOfBytes": "20"
					},
					"t_array(t_uint256)dyn_storage": {
						"base": "t_uint256",
						"encoding": "dynamic_array",
						"label": "uint256[]",
						"numberOfBytes": "32"
					},
					"t_enum(Estado)7": {
						"encoding": "inplace",
						"label": "enum casaApuestas.Estado",
						"numberOfBytes": "1"
					},
					"t_mapping(t_uint256,t_array(t_uint256)dyn_storage)": {
						"encoding": "mapping",
						"key": "t_uint256",
						"label": "mapping(uint256 => uint256[])",
						"numberOfBytes": "32",
						"value": "t_array(t_uint256)dyn_storage"
					},
					"t_mapping(t_uint256,t_struct(Caballo)37_storage)": {
						"encoding": "mapping",
						"key": "t_uint256",
						"label": "mapping(uint256 => struct casaApuestas.Caballo)",
						"numberOfBytes": "32",
						"value": "t_struct(Caballo)37_storage"
					},
					"t_mapping(t_uint256,t_struct(Carrera)32_storage)": {
						"encoding": "mapping",
						"key": "t_uint256",
						"label": "mapping(uint256 => struct casaApuestas.Carrera)",
						"numberOfBytes": "32",
						"value": "t_struct(Carrera)32_storage"
					},
					"t_string_storage": {
						"encoding": "bytes",
						"label": "string",
						"numberOfBytes": "32"
					},
					"t_struct(Caballo)37_storage": {
						"encoding": "inplace",
						"label": "struct casaApuestas.Caballo",
						"members": [
							{
								"astId": 34,
								"contract": "casaApuestas.sol:casaApuestas",
								"label": "codigo",
								"offset": 0,
								"slot": "0",
								"type": "t_uint256"
							},
							{
								"astId": 36,
								"contract": "casaApuestas.sol:casaApuestas",
								"label": "nombre",
								"offset": 0,
								"slot": "1",
								"type": "t_string_storage"
							}
						],
						"numberOfBytes": "64"
					},
					"t_struct(Carrera)32_storage": {
						"encoding": "inplace",
						"label": "struct casaApuestas.Carrera",
						"members": [
							{
								"astId": 26,
								"contract": "casaApuestas.sol:casaApuestas",
								"label": "codigo",
								"offset": 0,
								"slot": "0",
								"type": "t_uint256"
							},
							{
								"astId": 28,
								"contract": "casaApuestas.sol:casaApuestas",
								"label": "nombre",
								"offset": 0,
								"slot": "1",
								"type": "t_string_storage"
							},
							{
								"astId": 31,
								"contract": "casaApuestas.sol:casaApuestas",
								"label": "estadoCarrera",
								"offset": 0,
								"slot": "2",
								"type": "t_enum(Estado)7"
							}
						],
						"numberOfBytes": "96"
					},
					"t_uint256": {
						"encoding": "inplace",
						"label": "uint256",
						"numberOfBytes": "32"
					}
				}
			},
			"userdoc": {
				"kind": "user",
				"methods": {},
				"version": 1
			}
		}
	}
}