{
	"casaApuestas.sol": {
		"casaApuestas": {
			"abi": [
				{
					"inputs": [],
					"stateMutability": "nonpayable",
					"type": "constructor"
				},
				{
					"inputs": [],
					"name": "anfitrion",
					"outputs": [
						{
							"internalType": "address payable",
							"name": "",
							"type": "address"
						}
					],
					"stateMutability": "view",
					"type": "function"
				},
				{
					"inputs": [
						{
							"internalType": "uint256",
							"name": "_codCaballo",
							"type": "uint256"
						},
						{
							"internalType": "uint256",
							"name": "_codCarrera",
							"type": "uint256"
						}
					],
					"name": "apostar",
					"outputs": [],
					"stateMutability": "payable",
					"type": "function"
				},
				{
					"inputs": [
						{
							"internalType": "uint256",
							"name": "",
							"type": "uint256"
						}
					],
					"name": "caballos",
					"outputs": [
						{
							"internalType": "uint256",
							"name": "codigo",
							"type": "uint256"
						},
						{
							"internalType": "string",
							"name": "nombre",
							"type": "string"
						}
					],
					"stateMutability": "view",
					"type": "function"
				},
				{
					"inputs": [
						{
							"internalType": "uint256",
							"name": "",
							"type": "uint256"
						}
					],
					"name": "carreras",
					"outputs": [
						{
							"internalType": "uint256",
							"name": "codigo",
							"type": "uint256"
						},
						{
							"internalType": "string",
							"name": "nombre",
							"type": "string"
						},
						{
							"internalType": "enum casaApuestas.Estado",
							"name": "estadoCarrera",
							"type": "uint8"
						}
					],
					"stateMutability": "view",
					"type": "function"
				},
				{
					"inputs": [
						{
							"internalType": "uint256",
							"name": "",
							"type": "uint256"
						},
						{
							"internalType": "uint256",
							"name": "",
							"type": "uint256"
						}
					],
					"name": "competencias",
					"outputs": [
						{
							"internalType": "uint256",
							"name": "",
							"type": "uint256"
						}
					],
					"stateMutability": "view",
					"type": "function"
				},
				{
					"inputs": [
						{
							"internalType": "uint256",
							"name": "_codigo",
							"type": "uint256"
						},
						{
							"internalType": "string",
							"name": "_nombre",
							"type": "string"
						}
					],
					"name": "crearCarrera",
					"outputs": [],
					"stateMutability": "nonpayable",
					"type": "function"
				},
				{
					"inputs": [
						{
							"internalType": "uint256",
							"name": "_codigo",
							"type": "uint256"
						},
						{
							"internalType": "string",
							"name": "_nombre",
							"type": "string"
						}
					],
					"name": "registrarCaballo",
					"outputs": [],
					"stateMutability": "nonpayable",
					"type": "function"
				},
				{
					"inputs": [
						{
							"internalType": "uint256",
							"name": "_codCarrera",
							"type": "uint256"
						}
					],
					"name": "registrarCarrera",
					"outputs": [],
					"stateMutability": "nonpayable",
					"type": "function"
				},
				{
					"inputs": [
						{
							"internalType": "uint256",
							"name": "_codCaballo",
							"type": "uint256"
						},
						{
							"internalType": "uint256",
							"name": "_codCarrera",
							"type": "uint256"
						}
					],
					"name": "registrarEnCarrera",
					"outputs": [],
					"stateMutability": "nonpayable",
					"type": "function"
				},
				{
					"inputs": [],
					"name": "totalCarreras",
					"outputs": [
						{
							"internalType": "uint256",
							"name": "",
							"type": "uint256"
						}
					],
					"stateMutability": "view",
					"type": "function"
				}
			],
			"devdoc": {
				"methods": {}
			},
			"evm": {
				"assembly": "    /* \"casaApuestas.sol\":25:4357  contract casaApuestas{\r... */\n  mstore(0x40, 0x80)\n    /* \"casaApuestas.sol\":671:732  constructor() public{\r... */\n  callvalue\n    /* \"--CODEGEN--\":8:17   */\n  dup1\n    /* \"--CODEGEN--\":5:7   */\n  iszero\n  tag_1\n  jumpi\n    /* \"--CODEGEN--\":30:31   */\n  0x00\n    /* \"--CODEGEN--\":27:28   */\n  dup1\n    /* \"--CODEGEN--\":20:32   */\n  revert\n    /* \"--CODEGEN--\":5:7   */\ntag_1:\n    /* \"casaApuestas.sol\":671:732  constructor() public{\r... */\n  pop\n    /* \"casaApuestas.sol\":714:724  msg.sender */\n  caller\n    /* \"casaApuestas.sol\":702:711  anfitrion */\n  0x00\n  dup1\n    /* \"casaApuestas.sol\":702:724  anfitrion = msg.sender */\n  0x0100\n  exp\n  dup2\n  sload\n  dup2\n  0xffffffffffffffffffffffffffffffffffffffff\n  mul\n  not\n  and\n  swap1\n  dup4\n  0xffffffffffffffffffffffffffffffffffffffff\n  and\n  mul\n  or\n  swap1\n  sstore\n  pop\n    /* \"casaApuestas.sol\":25:4357  contract casaApuestas{\r... */\n  dataSize(sub_0)\n  dup1\n  dataOffset(sub_0)\n  0x00\n  codecopy\n  0x00\n  return\nstop\n\nsub_0: assembly {\n        /* \"casaApuestas.sol\":25:4357  contract casaApuestas{\r... */\n      mstore(0x40, 0x80)\n      jumpi(tag_1, lt(calldatasize, 0x04))\n      shr(0xe0, calldataload(0x00))\n      dup1\n      0xf0b73b54\n      gt\n      tag_12\n      jumpi\n      dup1\n      0xf0b73b54\n      eq\n      tag_7\n      jumpi\n      dup1\n      0xf2f6da3e\n      eq\n      tag_8\n      jumpi\n      dup1\n      0xf7edd6db\n      eq\n      tag_9\n      jumpi\n      dup1\n      0xf9d32e49\n      eq\n      tag_10\n      jumpi\n      dup1\n      0xfb34d0f7\n      eq\n      tag_11\n      jumpi\n      jump(tag_1)\n    tag_12:\n      dup1\n      0x26d1c7d0\n      eq\n      tag_2\n      jumpi\n      dup1\n      0x456f4b57\n      eq\n      tag_3\n      jumpi\n      dup1\n      0x5194f59c\n      eq\n      tag_4\n      jumpi\n      dup1\n      0x5ee81666\n      eq\n      tag_5\n      jumpi\n      dup1\n      0xe9ec5583\n      eq\n      tag_6\n      jumpi\n    tag_1:\n      0x00\n      dup1\n      revert\n        /* \"casaApuestas.sol\":3614:3948  function registrarEnCarrera(uint _codCaballo, uint _codCarrera) public \r... */\n    tag_2:\n      callvalue\n        /* \"--CODEGEN--\":8:17   */\n      dup1\n        /* \"--CODEGEN--\":5:7   */\n      iszero\n      tag_13\n      jumpi\n        /* \"--CODEGEN--\":30:31   */\n      0x00\n        /* \"--CODEGEN--\":27:28   */\n      dup1\n        /* \"--CODEGEN--\":20:32   */\n      revert\n        /* \"--CODEGEN--\":5:7   */\n    tag_13:\n        /* \"casaApuestas.sol\":3614:3948  function registrarEnCarrera(uint _codCaballo, uint _codCarrera) public \r... */\n      pop\n      tag_14\n      0x04\n      dup1\n      calldatasize\n      sub\n        /* \"--CODEGEN--\":13:15   */\n      0x40\n        /* \"--CODEGEN--\":8:11   */\n      dup2\n        /* \"--CODEGEN--\":5:16   */\n      lt\n        /* \"--CODEGEN--\":2:4   */\n      iszero\n      tag_15\n      jumpi\n        /* \"--CODEGEN--\":29:30   */\n      0x00\n        /* \"--CODEGEN--\":26:27   */\n      dup1\n        /* \"--CODEGEN--\":19:31   */\n      revert\n        /* \"--CODEGEN--\":2:4   */\n    tag_15:\n        /* \"casaApuestas.sol\":3614:3948  function registrarEnCarrera(uint _codCaballo, uint _codCarrera) public \r... */\n      dup2\n      add\n      swap1\n      dup1\n      dup1\n      calldataload\n      swap1\n      0x20\n      add\n      swap1\n      swap3\n      swap2\n      swap1\n      dup1\n      calldataload\n      swap1\n      0x20\n      add\n      swap1\n      swap3\n      swap2\n      swap1\n      pop\n      pop\n      pop\n      tag_16\n      jump\t// in\n    tag_14:\n      stop\n        /* \"casaApuestas.sol\":53:85  address payable public anfitrion */\n    tag_3:\n      callvalue\n        /* \"--CODEGEN--\":8:17   */\n      dup1\n        /* \"--CODEGEN--\":5:7   */\n      iszero\n      tag_17\n      jumpi\n        /* \"--CODEGEN--\":30:31   */\n      0x00\n        /* \"--CODEGEN--\":27:28   */\n      dup1\n        /* \"--CODEGEN--\":20:32   */\n      revert\n        /* \"--CODEGEN--\":5:7   */\n    tag_17:\n        /* \"casaApuestas.sol\":53:85  address payable public anfitrion */\n      pop\n      tag_18\n      tag_19\n      jump\t// in\n    tag_18:\n      mload(0x40)\n      dup1\n      dup3\n      0xffffffffffffffffffffffffffffffffffffffff\n      and\n      0xffffffffffffffffffffffffffffffffffffffff\n      and\n      dup2\n      mstore\n      0x20\n      add\n      swap2\n      pop\n      pop\n      mload(0x40)\n      dup1\n      swap2\n      sub\n      swap1\n      return\n        /* \"casaApuestas.sol\":3425:3606  function registrarCaballo(uint _codigo, string memory _nombre) public \r... */\n    tag_4:\n      callvalue\n        /* \"--CODEGEN--\":8:17   */\n      dup1\n        /* \"--CODEGEN--\":5:7   */\n      iszero\n      tag_20\n      jumpi\n        /* \"--CODEGEN--\":30:31   */\n      0x00\n        /* \"--CODEGEN--\":27:28   */\n      dup1\n        /* \"--CODEGEN--\":20:32   */\n      revert\n        /* \"--CODEGEN--\":5:7   */\n    tag_20:\n        /* \"casaApuestas.sol\":3425:3606  function registrarCaballo(uint _codigo, string memory _nombre) public \r... */\n      pop\n      tag_21\n      0x04\n      dup1\n      calldatasize\n      sub\n        /* \"--CODEGEN--\":13:15   */\n      0x40\n        /* \"--CODEGEN--\":8:11   */\n      dup2\n        /* \"--CODEGEN--\":5:16   */\n      lt\n        /* \"--CODEGEN--\":2:4   */\n      iszero\n      tag_22\n      jumpi\n        /* \"--CODEGEN--\":29:30   */\n      0x00\n        /* \"--CODEGEN--\":26:27   */\n      dup1\n        /* \"--CODEGEN--\":19:31   */\n      revert\n        /* \"--CODEGEN--\":2:4   */\n    tag_22:\n        /* \"casaApuestas.sol\":3425:3606  function registrarCaballo(uint _codigo, string memory _nombre) public \r... */\n      dup2\n      add\n      swap1\n      dup1\n      dup1\n      calldataload\n      swap1\n      0x20\n      add\n      swap1\n      swap3\n      swap2\n      swap1\n      dup1\n      calldataload\n      swap1\n      0x20\n      add\n      swap1\n        /* \"--CODEGEN--\":21:32   */\n      0x0100000000\n        /* \"--CODEGEN--\":8:19   */\n      dup2\n        /* \"--CODEGEN--\":5:33   */\n      gt\n        /* \"--CODEGEN--\":2:4   */\n      iszero\n      tag_23\n      jumpi\n        /* \"--CODEGEN--\":46:47   */\n      0x00\n        /* \"--CODEGEN--\":43:44   */\n      dup1\n        /* \"--CODEGEN--\":36:48   */\n      revert\n        /* \"--CODEGEN--\":2:4   */\n    tag_23:\n        /* \"casaApuestas.sol\":3425:3606  function registrarCaballo(uint _codigo, string memory _nombre) public \r... */\n      dup3\n      add\n        /* \"--CODEGEN--\":35:44   */\n      dup4\n        /* \"--CODEGEN--\":28:32   */\n      0x20\n        /* \"--CODEGEN--\":12:26   */\n      dup3\n        /* \"--CODEGEN--\":8:33   */\n      add\n        /* \"--CODEGEN--\":5:45   */\n      gt\n        /* \"--CODEGEN--\":2:4   */\n      iszero\n      tag_24\n      jumpi\n        /* \"--CODEGEN--\":58:59   */\n      0x00\n        /* \"--CODEGEN--\":55:56   */\n      dup1\n        /* \"--CODEGEN--\":48:60   */\n      revert\n        /* \"--CODEGEN--\":2:4   */\n    tag_24:\n        /* \"casaApuestas.sol\":3425:3606  function registrarCaballo(uint _codigo, string memory _nombre) public \r... */\n      dup1\n      calldataload\n      swap1\n      0x20\n      add\n      swap2\n        /* \"--CODEGEN--\":100:109   */\n      dup5\n        /* \"--CODEGEN--\":95:96   */\n      0x01\n        /* \"--CODEGEN--\":81:93   */\n      dup4\n        /* \"--CODEGEN--\":77:97   */\n      mul\n        /* \"--CODEGEN--\":67:75   */\n      dup5\n        /* \"--CODEGEN--\":63:98   */\n      add\n        /* \"--CODEGEN--\":60:110   */\n      gt\n        /* \"--CODEGEN--\":39:50   */\n      0x0100000000\n        /* \"--CODEGEN--\":25:37   */\n      dup4\n        /* \"--CODEGEN--\":22:51   */\n      gt\n        /* \"--CODEGEN--\":11:118   */\n      or\n        /* \"--CODEGEN--\":8:10   */\n      iszero\n      tag_25\n      jumpi\n        /* \"--CODEGEN--\":131:132   */\n      0x00\n        /* \"--CODEGEN--\":128:129   */\n      dup1\n        /* \"--CODEGEN--\":121:133   */\n      revert\n        /* \"--CODEGEN--\":8:10   */\n    tag_25:\n        /* \"casaApuestas.sol\":3425:3606  function registrarCaballo(uint _codigo, string memory _nombre) public \r... */\n      swap2\n      swap1\n      dup1\n      dup1\n      0x1f\n      add\n      0x20\n      dup1\n      swap2\n      div\n      mul\n      0x20\n      add\n      mload(0x40)\n      swap1\n      dup2\n      add\n      0x40\n      mstore\n      dup1\n      swap4\n      swap3\n      swap2\n      swap1\n      dup2\n      dup2\n      mstore\n      0x20\n      add\n      dup4\n      dup4\n        /* \"--CODEGEN--\":30:33   */\n      dup1\n        /* \"--CODEGEN--\":22:28   */\n      dup3\n        /* \"--CODEGEN--\":14:20   */\n      dup5\n        /* \"--CODEGEN--\":1:34   */\n      calldatacopy\n        /* \"--CODEGEN--\":99:100   */\n      0x00\n        /* \"--CODEGEN--\":93:96   */\n      dup2\n        /* \"--CODEGEN--\":85:91   */\n      dup5\n        /* \"--CODEGEN--\":81:97   */\n      add\n        /* \"--CODEGEN--\":74:101   */\n      mstore\n        /* \"--CODEGEN--\":137:141   */\n      0x1f\n        /* \"--CODEGEN--\":133:142   */\n      not\n        /* \"--CODEGEN--\":126:130   */\n      0x1f\n        /* \"--CODEGEN--\":121:124   */\n      dup3\n        /* \"--CODEGEN--\":117:131   */\n      add\n        /* \"--CODEGEN--\":113:143   */\n      and\n        /* \"--CODEGEN--\":106:143   */\n      swap1\n      pop\n        /* \"--CODEGEN--\":169:172   */\n      dup1\n        /* \"--CODEGEN--\":161:167   */\n      dup4\n        /* \"--CODEGEN--\":157:173   */\n      add\n        /* \"--CODEGEN--\":147:173   */\n      swap3\n      pop\n        /* \"casaApuestas.sol\":3425:3606  function registrarCaballo(uint _codigo, string memory _nombre) public \r... */\n      pop\n      pop\n      pop\n      pop\n      pop\n      pop\n      swap2\n      swap3\n      swap2\n      swap3\n      swap1\n      pop\n      pop\n      pop\n      tag_26\n      jump\t// in\n    tag_21:\n      stop\n        /* \"casaApuestas.sol\":173:213  mapping(uint => Carrera) public carreras */\n    tag_5:\n      callvalue\n        /* \"--CODEGEN--\":8:17   */\n      dup1\n        /* \"--CODEGEN--\":5:7   */\n      iszero\n      tag_27\n      jumpi\n        /* \"--CODEGEN--\":30:31   */\n      0x00\n        /* \"--CODEGEN--\":27:28   */\n      dup1\n        /* \"--CODEGEN--\":20:32   */\n      revert\n        /* \"--CODEGEN--\":5:7   */\n    tag_27:\n        /* \"casaApuestas.sol\":173:213  mapping(uint => Carrera) public carreras */\n      pop\n      tag_28\n      0x04\n      dup1\n      calldatasize\n      sub\n        /* \"--CODEGEN--\":13:15   */\n      0x20\n        /* \"--CODEGEN--\":8:11   */\n      dup2\n        /* \"--CODEGEN--\":5:16   */\n      lt\n        /* \"--CODEGEN--\":2:4   */\n      iszero\n      tag_29\n      jumpi\n        /* \"--CODEGEN--\":29:30   */\n      0x00\n        /* \"--CODEGEN--\":26:27   */\n      dup1\n        /* \"--CODEGEN--\":19:31   */\n      revert\n        /* \"--CODEGEN--\":2:4   */\n    tag_29:\n        /* \"casaApuestas.sol\":173:213  mapping(uint => Carrera) public carreras */\n      dup2\n      add\n      swap1\n      dup1\n      dup1\n      calldataload\n      swap1\n      0x20\n      add\n      swap1\n      swap3\n      swap2\n      swap1\n      pop\n      pop\n      pop\n      tag_30\n      jump\t// in\n    tag_28:\n      mload(0x40)\n      dup1\n      dup5\n      dup2\n      mstore\n      0x20\n      add\n      dup1\n      0x20\n      add\n      dup4\n      0x02\n      dup2\n      gt\n      iszero\n      tag_31\n      jumpi\n      invalid\n    tag_31:\n      0xff\n      and\n      dup2\n      mstore\n      0x20\n      add\n      dup3\n      dup2\n      sub\n      dup3\n      mstore\n      dup5\n      dup2\n      dup2\n      mload\n      dup2\n      mstore\n      0x20\n      add\n      swap2\n      pop\n      dup1\n      mload\n      swap1\n      0x20\n      add\n      swap1\n      dup1\n      dup4\n      dup4\n        /* \"--CODEGEN--\":23:24   */\n      0x00\n        /* \"--CODEGEN--\":8:108   */\n    tag_32:\n        /* \"--CODEGEN--\":33:36   */\n      dup4\n        /* \"--CODEGEN--\":30:31   */\n      dup2\n        /* \"--CODEGEN--\":27:37   */\n      lt\n        /* \"--CODEGEN--\":8:108   */\n      iszero\n      tag_34\n      jumpi\n        /* \"--CODEGEN--\":99:100   */\n      dup1\n        /* \"--CODEGEN--\":94:97   */\n      dup3\n        /* \"--CODEGEN--\":90:101   */\n      add\n        /* \"--CODEGEN--\":84:102   */\n      mload\n        /* \"--CODEGEN--\":80:81   */\n      dup2\n        /* \"--CODEGEN--\":75:78   */\n      dup5\n        /* \"--CODEGEN--\":71:82   */\n      add\n        /* \"--CODEGEN--\":64:103   */\n      mstore\n        /* \"--CODEGEN--\":52:54   */\n      0x20\n        /* \"--CODEGEN--\":49:50   */\n      dup2\n        /* \"--CODEGEN--\":45:55   */\n      add\n        /* \"--CODEGEN--\":40:55   */\n      swap1\n      pop\n        /* \"--CODEGEN--\":8:108   */\n      jump(tag_32)\n    tag_34:\n        /* \"--CODEGEN--\":12:26   */\n      pop\n        /* \"casaApuestas.sol\":173:213  mapping(uint => Carrera) public carreras */\n      pop\n      pop\n      pop\n      swap1\n      pop\n      swap1\n      dup2\n      add\n      swap1\n      0x1f\n      and\n      dup1\n      iszero\n      tag_35\n      jumpi\n      dup1\n      dup3\n      sub\n      dup1\n      mload\n      0x01\n      dup4\n      0x20\n      sub\n      0x0100\n      exp\n      sub\n      not\n      and\n      dup2\n      mstore\n      0x20\n      add\n      swap2\n      pop\n    tag_35:\n      pop\n      swap5\n      pop\n      pop\n      pop\n      pop\n      pop\n      mload(0x40)\n      dup1\n      swap2\n      sub\n      swap1\n      return\n        /* \"casaApuestas.sol\":141:166  uint public totalCarreras */\n    tag_6:\n      callvalue\n        /* \"--CODEGEN--\":8:17   */\n      dup1\n        /* \"--CODEGEN--\":5:7   */\n      iszero\n      tag_36\n      jumpi\n        /* \"--CODEGEN--\":30:31   */\n      0x00\n        /* \"--CODEGEN--\":27:28   */\n      dup1\n        /* \"--CODEGEN--\":20:32   */\n      revert\n        /* \"--CODEGEN--\":5:7   */\n    tag_36:\n        /* \"casaApuestas.sol\":141:166  uint public totalCarreras */\n      pop\n      tag_37\n      tag_38\n      jump\t// in\n    tag_37:\n      mload(0x40)\n      dup1\n      dup3\n      dup2\n      mstore\n      0x20\n      add\n      swap2\n      pop\n      pop\n      mload(0x40)\n      dup1\n      swap2\n      sub\n      swap1\n      return\n        /* \"casaApuestas.sol\":242:282  mapping(uint => Caballo) public caballos */\n    tag_7:\n      callvalue\n        /* \"--CODEGEN--\":8:17   */\n      dup1\n        /* \"--CODEGEN--\":5:7   */\n      iszero\n      tag_39\n      jumpi\n        /* \"--CODEGEN--\":30:31   */\n      0x00\n        /* \"--CODEGEN--\":27:28   */\n      dup1\n        /* \"--CODEGEN--\":20:32   */\n      revert\n        /* \"--CODEGEN--\":5:7   */\n    tag_39:\n        /* \"casaApuestas.sol\":242:282  mapping(uint => Caballo) public caballos */\n      pop\n      tag_40\n      0x04\n      dup1\n      calldatasize\n      sub\n        /* \"--CODEGEN--\":13:15   */\n      0x20\n        /* \"--CODEGEN--\":8:11   */\n      dup2\n        /* \"--CODEGEN--\":5:16   */\n      lt\n        /* \"--CODEGEN--\":2:4   */\n      iszero\n      tag_41\n      jumpi\n        /* \"--CODEGEN--\":29:30   */\n      0x00\n        /* \"--CODEGEN--\":26:27   */\n      dup1\n        /* \"--CODEGEN--\":19:31   */\n      revert\n        /* \"--CODEGEN--\":2:4   */\n    tag_41:\n        /* \"casaApuestas.sol\":242:282  mapping(uint => Caballo) public caballos */\n      dup2\n      add\n      swap1\n      dup1\n      dup1\n      calldataload\n      swap1\n      0x20\n      add\n      swap1\n      swap3\n      swap2\n      swap1\n      pop\n      pop\n      pop\n      tag_42\n      jump\t// in\n    tag_40:\n      mload(0x40)\n      dup1\n      dup4\n      dup2\n      mstore\n      0x20\n      add\n      dup1\n      0x20\n      add\n      dup3\n      dup2\n      sub\n      dup3\n      mstore\n      dup4\n      dup2\n      dup2\n      mload\n      dup2\n      mstore\n      0x20\n      add\n      swap2\n      pop\n      dup1\n      mload\n      swap1\n      0x20\n      add\n      swap1\n      dup1\n      dup4\n      dup4\n        /* \"--CODEGEN--\":23:24   */\n      0x00\n        /* \"--CODEGEN--\":8:108   */\n    tag_43:\n        /* \"--CODEGEN--\":33:36   */\n      dup4\n        /* \"--CODEGEN--\":30:31   */\n      dup2\n        /* \"--CODEGEN--\":27:37   */\n      lt\n        /* \"--CODEGEN--\":8:108   */\n      iszero\n      tag_45\n      jumpi\n        /* \"--CODEGEN--\":99:100   */\n      dup1\n        /* \"--CODEGEN--\":94:97   */\n      dup3\n        /* \"--CODEGEN--\":90:101   */\n      add\n        /* \"--CODEGEN--\":84:102   */\n      mload\n        /* \"--CODEGEN--\":80:81   */\n      dup2\n        /* \"--CODEGEN--\":75:78   */\n      dup5\n        /* \"--CODEGEN--\":71:82   */\n      add\n        /* \"--CODEGEN--\":64:103   */\n      mstore\n        /* \"--CODEGEN--\":52:54   */\n      0x20\n        /* \"--CODEGEN--\":49:50   */\n      dup2\n        /* \"--CODEGEN--\":45:55   */\n      add\n        /* \"--CODEGEN--\":40:55   */\n      swap1\n      pop\n        /* \"--CODEGEN--\":8:108   */\n      jump(tag_43)\n    tag_45:\n        /* \"--CODEGEN--\":12:26   */\n      pop\n        /* \"casaApuestas.sol\":242:282  mapping(uint => Caballo) public caballos */\n      pop\n      pop\n      pop\n      swap1\n      pop\n      swap1\n      dup2\n      add\n      swap1\n      0x1f\n      and\n      dup1\n      iszero\n      tag_46\n      jumpi\n      dup1\n      dup3\n      sub\n      dup1\n      mload\n      0x01\n      dup4\n      0x20\n      sub\n      0x0100\n      exp\n      sub\n      not\n      and\n      dup2\n      mstore\n      0x20\n      add\n      swap2\n      pop\n    tag_46:\n      pop\n      swap4\n      pop\n      pop\n      pop\n      pop\n      mload(0x40)\n      dup1\n      swap2\n      sub\n      swap1\n      return\n        /* \"casaApuestas.sol\":4209:4354  function apostar(uint _codCaballo, uint _codCarrera) payable public \r... */\n    tag_8:\n      tag_47\n      0x04\n      dup1\n      calldatasize\n      sub\n        /* \"--CODEGEN--\":13:15   */\n      0x40\n        /* \"--CODEGEN--\":8:11   */\n      dup2\n        /* \"--CODEGEN--\":5:16   */\n      lt\n        /* \"--CODEGEN--\":2:4   */\n      iszero\n      tag_48\n      jumpi\n        /* \"--CODEGEN--\":29:30   */\n      0x00\n        /* \"--CODEGEN--\":26:27   */\n      dup1\n        /* \"--CODEGEN--\":19:31   */\n      revert\n        /* \"--CODEGEN--\":2:4   */\n    tag_48:\n        /* \"casaApuestas.sol\":4209:4354  function apostar(uint _codCaballo, uint _codCarrera) payable public \r... */\n      dup2\n      add\n      swap1\n      dup1\n      dup1\n      calldataload\n      swap1\n      0x20\n      add\n      swap1\n      swap3\n      swap2\n      swap1\n      dup1\n      calldataload\n      swap1\n      0x20\n      add\n      swap1\n      swap3\n      swap2\n      swap1\n      pop\n      pop\n      pop\n      tag_49\n      jump\t// in\n    tag_47:\n      stop\n        /* \"casaApuestas.sol\":3956:4201  function registrarCarrera(uint _codCarrera) public \r... */\n    tag_9:\n      callvalue\n        /* \"--CODEGEN--\":8:17   */\n      dup1\n        /* \"--CODEGEN--\":5:7   */\n      iszero\n      tag_50\n      jumpi\n        /* \"--CODEGEN--\":30:31   */\n      0x00\n        /* \"--CODEGEN--\":27:28   */\n      dup1\n        /* \"--CODEGEN--\":20:32   */\n      revert\n        /* \"--CODEGEN--\":5:7   */\n    tag_50:\n        /* \"casaApuestas.sol\":3956:4201  function registrarCarrera(uint _codCarrera) public \r... */\n      pop\n      tag_51\n      0x04\n      dup1\n      calldatasize\n      sub\n        /* \"--CODEGEN--\":13:15   */\n      0x20\n        /* \"--CODEGEN--\":8:11   */\n      dup2\n        /* \"--CODEGEN--\":5:16   */\n      lt\n        /* \"--CODEGEN--\":2:4   */\n      iszero\n      tag_52\n      jumpi\n        /* \"--CODEGEN--\":29:30   */\n      0x00\n        /* \"--CODEGEN--\":26:27   */\n      dup1\n        /* \"--CODEGEN--\":19:31   */\n      revert\n        /* \"--CODEGEN--\":2:4   */\n    tag_52:\n        /* \"casaApuestas.sol\":3956:4201  function registrarCarrera(uint _codCarrera) public \r... */\n      dup2\n      add\n      swap1\n      dup1\n      dup1\n      calldataload\n      swap1\n      0x20\n      add\n      swap1\n      swap3\n      swap2\n      swap1\n      pop\n      pop\n      pop\n      tag_53\n      jump\t// in\n    tag_51:\n      stop\n        /* \"casaApuestas.sol\":3196:3417  function crearCarrera(uint _codigo, string memory _nombre) public \r... */\n    tag_10:\n      callvalue\n        /* \"--CODEGEN--\":8:17   */\n      dup1\n        /* \"--CODEGEN--\":5:7   */\n      iszero\n      tag_54\n      jumpi\n        /* \"--CODEGEN--\":30:31   */\n      0x00\n        /* \"--CODEGEN--\":27:28   */\n      dup1\n        /* \"--CODEGEN--\":20:32   */\n      revert\n        /* \"--CODEGEN--\":5:7   */\n    tag_54:\n        /* \"casaApuestas.sol\":3196:3417  function crearCarrera(uint _codigo, string memory _nombre) public \r... */\n      pop\n      tag_55\n      0x04\n      dup1\n      calldatasize\n      sub\n        /* \"--CODEGEN--\":13:15   */\n      0x40\n        /* \"--CODEGEN--\":8:11   */\n      dup2\n        /* \"--CODEGEN--\":5:16   */\n      lt\n        /* \"--CODEGEN--\":2:4   */\n      iszero\n      tag_56\n      jumpi\n        /* \"--CODEGEN--\":29:30   */\n      0x00\n        /* \"--CODEGEN--\":26:27   */\n      dup1\n        /* \"--CODEGEN--\":19:31   */\n      revert\n        /* \"--CODEGEN--\":2:4   */\n    tag_56:\n        /* \"casaApuestas.sol\":3196:3417  function crearCarrera(uint _codigo, string memory _nombre) public \r... */\n      dup2\n      add\n      swap1\n      dup1\n      dup1\n      calldataload\n      swap1\n      0x20\n      add\n      swap1\n      swap3\n      swap2\n      swap1\n      dup1\n      calldataload\n      swap1\n      0x20\n      add\n      swap1\n        /* \"--CODEGEN--\":21:32   */\n      0x0100000000\n        /* \"--CODEGEN--\":8:19   */\n      dup2\n        /* \"--CODEGEN--\":5:33   */\n      gt\n        /* \"--CODEGEN--\":2:4   */\n      iszero\n      tag_57\n      jumpi\n        /* \"--CODEGEN--\":46:47   */\n      0x00\n        /* \"--CODEGEN--\":43:44   */\n      dup1\n        /* \"--CODEGEN--\":36:48   */\n      revert\n        /* \"--CODEGEN--\":2:4   */\n    tag_57:\n        /* \"casaApuestas.sol\":3196:3417  function crearCarrera(uint _codigo, string memory _nombre) public \r... */\n      dup3\n      add\n        /* \"--CODEGEN--\":35:44   */\n      dup4\n        /* \"--CODEGEN--\":28:32   */\n      0x20\n        /* \"--CODEGEN--\":12:26   */\n      dup3\n        /* \"--CODEGEN--\":8:33   */\n      add\n        /* \"--CODEGEN--\":5:45   */\n      gt\n        /* \"--CODEGEN--\":2:4   */\n      iszero\n      tag_58\n      jumpi\n        /* \"--CODEGEN--\":58:59   */\n      0x00\n        /* \"--CODEGEN--\":55:56   */\n      dup1\n        /* \"--CODEGEN--\":48:60   */\n      revert\n        /* \"--CODEGEN--\":2:4   */\n    tag_58:\n        /* \"casaApuestas.sol\":3196:3417  function crearCarrera(uint _codigo, string memory _nombre) public \r... */\n      dup1\n      calldataload\n      swap1\n      0x20\n      add\n      swap2\n        /* \"--CODEGEN--\":100:109   */\n      dup5\n        /* \"--CODEGEN--\":95:96   */\n      0x01\n        /* \"--CODEGEN--\":81:93   */\n      dup4\n        /* \"--CODEGEN--\":77:97   */\n      mul\n        /* \"--CODEGEN--\":67:75   */\n      dup5\n        /* \"--CODEGEN--\":63:98   */\n      add\n        /* \"--CODEGEN--\":60:110   */\n      gt\n        /* \"--CODEGEN--\":39:50   */\n      0x0100000000\n        /* \"--CODEGEN--\":25:37   */\n      dup4\n        /* \"--CODEGEN--\":22:51   */\n      gt\n        /* \"--CODEGEN--\":11:118   */\n      or\n        /* \"--CODEGEN--\":8:10   */\n      iszero\n      tag_59\n      jumpi\n        /* \"--CODEGEN--\":131:132   */\n      0x00\n        /* \"--CODEGEN--\":128:129   */\n      dup1\n        /* \"--CODEGEN--\":121:133   */\n      revert\n        /* \"--CODEGEN--\":8:10   */\n    tag_59:\n        /* \"casaApuestas.sol\":3196:3417  function crearCarrera(uint _codigo, string memory _nombre) public \r... */\n      swap2\n      swap1\n      dup1\n      dup1\n      0x1f\n      add\n      0x20\n      dup1\n      swap2\n      div\n      mul\n      0x20\n      add\n      mload(0x40)\n      swap1\n      dup2\n      add\n      0x40\n      mstore\n      dup1\n      swap4\n      swap3\n      swap2\n      swap1\n      dup2\n      dup2\n      mstore\n      0x20\n      add\n      dup4\n      dup4\n        /* \"--CODEGEN--\":30:33   */\n      dup1\n        /* \"--CODEGEN--\":22:28   */\n      dup3\n        /* \"--CODEGEN--\":14:20   */\n      dup5\n        /* \"--CODEGEN--\":1:34   */\n      calldatacopy\n        /* \"--CODEGEN--\":99:100   */\n      0x00\n        /* \"--CODEGEN--\":93:96   */\n      dup2\n        /* \"--CODEGEN--\":85:91   */\n      dup5\n        /* \"--CODEGEN--\":81:97   */\n      add\n        /* \"--CODEGEN--\":74:101   */\n      mstore\n        /* \"--CODEGEN--\":137:141   */\n      0x1f\n        /* \"--CODEGEN--\":133:142   */\n      not\n        /* \"--CODEGEN--\":126:130   */\n      0x1f\n        /* \"--CODEGEN--\":121:124   */\n      dup3\n        /* \"--CODEGEN--\":117:131   */\n      add\n        /* \"--CODEGEN--\":113:143   */\n      and\n        /* \"--CODEGEN--\":106:143   */\n      swap1\n      pop\n        /* \"--CODEGEN--\":169:172   */\n      dup1\n        /* \"--CODEGEN--\":161:167   */\n      dup4\n        /* \"--CODEGEN--\":157:173   */\n      add\n        /* \"--CODEGEN--\":147:173   */\n      swap3\n      pop\n        /* \"casaApuestas.sol\":3196:3417  function crearCarrera(uint _codigo, string memory _nombre) public \r... */\n      pop\n      pop\n      pop\n      pop\n      pop\n      pop\n      swap2\n      swap3\n      swap2\n      swap3\n      swap1\n      pop\n      pop\n      pop\n      tag_60\n      jump\t// in\n    tag_55:\n      stop\n        /* \"casaApuestas.sol\":311:354  mapping(uint => uint[]) public competencias */\n    tag_11:\n      callvalue\n        /* \"--CODEGEN--\":8:17   */\n      dup1\n        /* \"--CODEGEN--\":5:7   */\n      iszero\n      tag_61\n      jumpi\n        /* \"--CODEGEN--\":30:31   */\n      0x00\n        /* \"--CODEGEN--\":27:28   */\n      dup1\n        /* \"--CODEGEN--\":20:32   */\n      revert\n        /* \"--CODEGEN--\":5:7   */\n    tag_61:\n        /* \"casaApuestas.sol\":311:354  mapping(uint => uint[]) public competencias */\n      pop\n      tag_62\n      0x04\n      dup1\n      calldatasize\n      sub\n        /* \"--CODEGEN--\":13:15   */\n      0x40\n        /* \"--CODEGEN--\":8:11   */\n      dup2\n        /* \"--CODEGEN--\":5:16   */\n      lt\n        /* \"--CODEGEN--\":2:4   */\n      iszero\n      tag_63\n      jumpi\n        /* \"--CODEGEN--\":29:30   */\n      0x00\n        /* \"--CODEGEN--\":26:27   */\n      dup1\n        /* \"--CODEGEN--\":19:31   */\n      revert\n        /* \"--CODEGEN--\":2:4   */\n    tag_63:\n        /* \"casaApuestas.sol\":311:354  mapping(uint => uint[]) public competencias */\n      dup2\n      add\n      swap1\n      dup1\n      dup1\n      calldataload\n      swap1\n      0x20\n      add\n      swap1\n      swap3\n      swap2\n      swap1\n      dup1\n      calldataload\n      swap1\n      0x20\n      add\n      swap1\n      swap3\n      swap2\n      swap1\n      pop\n      pop\n      pop\n      tag_64\n      jump\t// in\n    tag_62:\n      mload(0x40)\n      dup1\n      dup3\n      dup2\n      mstore\n      0x20\n      add\n      swap2\n      pop\n      pop\n      mload(0x40)\n      dup1\n      swap2\n      sub\n      swap1\n      return\n        /* \"casaApuestas.sol\":3614:3948  function registrarEnCarrera(uint _codCaballo, uint _codCarrera) public \r... */\n    tag_16:\n        /* \"casaApuestas.sol\":795:804  anfitrion */\n      0x00\n      dup1\n      swap1\n      sload\n      swap1\n      0x0100\n      exp\n      swap1\n      div\n      0xffffffffffffffffffffffffffffffffffffffff\n      and\n        /* \"casaApuestas.sol\":781:804  msg.sender == anfitrion */\n      0xffffffffffffffffffffffffffffffffffffffff\n      and\n        /* \"casaApuestas.sol\":781:791  msg.sender */\n      caller\n        /* \"casaApuestas.sol\":781:804  msg.sender == anfitrion */\n      0xffffffffffffffffffffffffffffffffffffffff\n      and\n      eq\n        /* \"casaApuestas.sol\":773:843  require(msg.sender == anfitrion, \"El invocador debe ser el anfitrion\") */\n      tag_66\n      jumpi\n      mload(0x40)\n      0x08c379a000000000000000000000000000000000000000000000000000000000\n      dup2\n      mstore\n      0x04\n      add\n      dup1\n      dup1\n      0x20\n      add\n      dup3\n      dup2\n      sub\n      dup3\n      mstore\n      0x22\n      dup2\n      mstore\n      0x20\n      add\n      dup1\n      data_445dd79b894b98a34a1cc7c38a5bd2de2e19478d6390b1e445457362fd7001d8\n      0x22\n      swap2\n      codecopy\n      0x40\n      add\n      swap2\n      pop\n      pop\n      mload(0x40)\n      dup1\n      swap2\n      sub\n      swap1\n      revert\n    tag_66:\n        /* \"casaApuestas.sol\":3718:3729  _codCarrera */\n      dup1\n        /* \"casaApuestas.sol\":3731:3744  Estado.Creada */\n      0x00\n        /* \"casaApuestas.sol\":1136:1143  _estado */\n      dup1\n        /* \"casaApuestas.sol\":1097:1143  carreras[_codCarrera].estadoCarrera == _estado */\n      0x02\n      dup2\n      gt\n      iszero\n      tag_68\n      jumpi\n      invalid\n    tag_68:\n        /* \"casaApuestas.sol\":1097:1105  carreras */\n      0x02\n        /* \"casaApuestas.sol\":1097:1118  carreras[_codCarrera] */\n      0x00\n        /* \"casaApuestas.sol\":1106:1117  _codCarrera */\n      dup5\n        /* \"casaApuestas.sol\":1097:1118  carreras[_codCarrera] */\n      dup2\n      mstore\n      0x20\n      add\n      swap1\n      dup2\n      mstore\n      0x20\n      add\n      0x00\n      keccak256\n        /* \"casaApuestas.sol\":1097:1132  carreras[_codCarrera].estadoCarrera */\n      0x02\n      add\n      0x00\n      swap1\n      sload\n      swap1\n      0x0100\n      exp\n      swap1\n      div\n      0xff\n      and\n        /* \"casaApuestas.sol\":1097:1143  carreras[_codCarrera].estadoCarrera == _estado */\n      0x02\n      dup2\n      gt\n      iszero\n      tag_69\n      jumpi\n      invalid\n    tag_69:\n      eq\n        /* \"casaApuestas.sol\":1089:1192  require(carreras[_codCarrera].estadoCarrera == _estado, \"La carrera no cumple con el estado requerido\") */\n      tag_70\n      jumpi\n      mload(0x40)\n      0x08c379a000000000000000000000000000000000000000000000000000000000\n      dup2\n      mstore\n      0x04\n      add\n      dup1\n      dup1\n      0x20\n      add\n      dup3\n      dup2\n      sub\n      dup3\n      mstore\n      0x2c\n      dup2\n      mstore\n      0x20\n      add\n      dup1\n      data_e91ca438e9e3f1e0e0a5b1a72a508ed5ae254b3cb59572817ac1ec6e2a488952\n      0x2c\n      swap2\n      codecopy\n      0x40\n      add\n      swap2\n      pop\n      pop\n      mload(0x40)\n      dup1\n      swap2\n      sub\n      swap1\n      revert\n    tag_70:\n        /* \"casaApuestas.sol\":3761:3772  _codCarrera */\n      dup3\n        /* \"casaApuestas.sol\":1314:1315  5 */\n      0x05\n        /* \"casaApuestas.sol\":1279:1291  competencias */\n      0x04\n        /* \"casaApuestas.sol\":1279:1304  competencias[_codCarrera] */\n      0x00\n        /* \"casaApuestas.sol\":1292:1303  _codCarrera */\n      dup4\n        /* \"casaApuestas.sol\":1279:1304  competencias[_codCarrera] */\n      dup2\n      mstore\n      0x20\n      add\n      swap1\n      dup2\n      mstore\n      0x20\n      add\n      0x00\n      keccak256\n        /* \"casaApuestas.sol\":1279:1311  competencias[_codCarrera].length */\n      dup1\n      sload\n      swap1\n      pop\n        /* \"casaApuestas.sol\":1279:1315  competencias[_codCarrera].length < 5 */\n      lt\n        /* \"casaApuestas.sol\":1271:1355  require(competencias[_codCarrera].length < 5, \"La carrera ya cuenta con 5 caballos\") */\n      tag_72\n      jumpi\n      mload(0x40)\n      0x08c379a000000000000000000000000000000000000000000000000000000000\n      dup2\n      mstore\n      0x04\n      add\n      dup1\n      dup1\n      0x20\n      add\n      dup3\n      dup2\n      sub\n      dup3\n      mstore\n      0x23\n      dup2\n      mstore\n      0x20\n      add\n      dup1\n      data_48cf4ac7fcb22fd30a2178e5656f2b40afd30f2764f5b3cd17a43f9dd083aee5\n      0x23\n      swap2\n      codecopy\n      0x40\n      add\n      swap2\n      pop\n      pop\n      mload(0x40)\n      dup1\n      swap2\n      sub\n      swap1\n      revert\n    tag_72:\n        /* \"casaApuestas.sol\":3793:3804  _codCaballo */\n      dup5\n        /* \"casaApuestas.sol\":1659:1660  0 */\n      0x00\n        /* \"casaApuestas.sol\":1619:1627  caballos */\n      0x03\n        /* \"casaApuestas.sol\":1619:1640  caballos[_codCaballo] */\n      0x00\n        /* \"casaApuestas.sol\":1628:1639  _codCaballo */\n      dup4\n        /* \"casaApuestas.sol\":1619:1640  caballos[_codCaballo] */\n      dup2\n      mstore\n      0x20\n      add\n      swap1\n      dup2\n      mstore\n      0x20\n      add\n      0x00\n      keccak256\n        /* \"casaApuestas.sol\":1619:1647  caballos[_codCaballo].nombre */\n      0x01\n      add\n        /* \"casaApuestas.sol\":1613:1655  bytes(caballos[_codCaballo].nombre).length */\n      dup1\n      sload\n      0x01\n      dup2\n      0x01\n      and\n      iszero\n      0x0100\n      mul\n      sub\n      and\n      0x02\n      swap1\n      div\n      swap1\n      pop\n        /* \"casaApuestas.sol\":1613:1660  bytes(caballos[_codCaballo].nombre).length != 0 */\n      eq\n      iszero\n        /* \"casaApuestas.sol\":1605:1695  require(bytes(caballos[_codCaballo].nombre).length != 0, \"El caballo ingresado no existe\") */\n      tag_74\n      jumpi\n      mload(0x40)\n      0x08c379a000000000000000000000000000000000000000000000000000000000\n      dup2\n      mstore\n      0x04\n      add\n      dup1\n      dup1\n      0x20\n      add\n      dup3\n      dup2\n      sub\n      dup3\n      mstore\n      0x1e\n      dup2\n      mstore\n      0x20\n      add\n      dup1\n      0x456c20636162616c6c6f20696e6772657361646f206e6f206578697374650000\n      dup2\n      mstore\n      pop\n      0x20\n      add\n      swap2\n      pop\n      pop\n      mload(0x40)\n      dup1\n      swap2\n      sub\n      swap1\n      revert\n    tag_74:\n        /* \"casaApuestas.sol\":3825:3836  _codCarrera */\n      dup5\n        /* \"casaApuestas.sol\":1828:1829  0 */\n      0x00\n        /* \"casaApuestas.sol\":1788:1796  caballos */\n      0x03\n        /* \"casaApuestas.sol\":1788:1809  caballos[_codCarrera] */\n      0x00\n        /* \"casaApuestas.sol\":1797:1808  _codCarrera */\n      dup4\n        /* \"casaApuestas.sol\":1788:1809  caballos[_codCarrera] */\n      dup2\n      mstore\n      0x20\n      add\n      swap1\n      dup2\n      mstore\n      0x20\n      add\n      0x00\n      keccak256\n        /* \"casaApuestas.sol\":1788:1816  caballos[_codCarrera].nombre */\n      0x01\n      add\n        /* \"casaApuestas.sol\":1782:1824  bytes(caballos[_codCarrera].nombre).length */\n      dup1\n      sload\n      0x01\n      dup2\n      0x01\n      and\n      iszero\n      0x0100\n      mul\n      sub\n      and\n      0x02\n      swap1\n      div\n      swap1\n      pop\n        /* \"casaApuestas.sol\":1782:1829  bytes(caballos[_codCarrera].nombre).length != 0 */\n      eq\n      iszero\n        /* \"casaApuestas.sol\":1774:1864  require(bytes(caballos[_codCarrera].nombre).length != 0, \"La carrera ingresada no existe\") */\n      tag_76\n      jumpi\n      mload(0x40)\n      0x08c379a000000000000000000000000000000000000000000000000000000000\n      dup2\n      mstore\n      0x04\n      add\n      dup1\n      dup1\n      0x20\n      add\n      dup3\n      dup2\n      sub\n      dup3\n      mstore\n      0x1e\n      dup2\n      mstore\n      0x20\n      add\n      dup1\n      0x4c61206361727265726120696e67726573616461206e6f206578697374650000\n      dup2\n      mstore\n      pop\n      0x20\n      add\n      swap2\n      pop\n      pop\n      mload(0x40)\n      dup1\n      swap2\n      sub\n      swap1\n      revert\n    tag_76:\n        /* \"casaApuestas.sol\":3861:3872  _codCarrera */\n      dup6\n        /* \"casaApuestas.sol\":3874:3885  _codCaballo */\n      dup8\n        /* \"casaApuestas.sol\":2322:2339  uint cantCaballos */\n      0x00\n        /* \"casaApuestas.sol\":2342:2354  competencias */\n      0x04\n        /* \"casaApuestas.sol\":2342:2367  competencias[_codCarrera] */\n      0x00\n        /* \"casaApuestas.sol\":2355:2366  _codCarrera */\n      dup5\n        /* \"casaApuestas.sol\":2342:2367  competencias[_codCarrera] */\n      dup2\n      mstore\n      0x20\n      add\n      swap1\n      dup2\n      mstore\n      0x20\n      add\n      0x00\n      keccak256\n        /* \"casaApuestas.sol\":2342:2374  competencias[_codCarrera].length */\n      dup1\n      sload\n      swap1\n      pop\n        /* \"casaApuestas.sol\":2322:2374  uint cantCaballos = competencias[_codCarrera].length */\n      swap1\n      pop\n        /* \"casaApuestas.sol\":2385:2400  bool caballoRep */\n      0x00\n        /* \"casaApuestas.sol\":2403:2408  false */\n      dup1\n        /* \"casaApuestas.sol\":2385:2408  bool caballoRep = false */\n      swap1\n      pop\n        /* \"casaApuestas.sol\":2423:2429  uint i */\n      0x00\n        /* \"casaApuestas.sol\":2432:2433  0 */\n      dup1\n        /* \"casaApuestas.sol\":2423:2433  uint i = 0 */\n      swap1\n      pop\n        /* \"casaApuestas.sol\":2419:2606  for(uint i = 0; i < cantCaballos; i++){\r... */\n    tag_78:\n        /* \"casaApuestas.sol\":2439:2451  cantCaballos */\n      dup3\n        /* \"casaApuestas.sol\":2435:2436  i */\n      dup2\n        /* \"casaApuestas.sol\":2435:2451  i < cantCaballos */\n      lt\n        /* \"casaApuestas.sol\":2419:2606  for(uint i = 0; i < cantCaballos; i++){\r... */\n      iszero\n      tag_79\n      jumpi\n        /* \"casaApuestas.sol\":2507:2518  _codCaballo */\n      dup4\n        /* \"casaApuestas.sol\":2475:2487  competencias */\n      0x04\n        /* \"casaApuestas.sol\":2475:2500  competencias[_codCarrera] */\n      0x00\n        /* \"casaApuestas.sol\":2488:2499  _codCarrera */\n      dup8\n        /* \"casaApuestas.sol\":2475:2500  competencias[_codCarrera] */\n      dup2\n      mstore\n      0x20\n      add\n      swap1\n      dup2\n      mstore\n      0x20\n      add\n      0x00\n      keccak256\n        /* \"casaApuestas.sol\":2501:2502  i */\n      dup3\n        /* \"casaApuestas.sol\":2475:2503  competencias[_codCarrera][i] */\n      dup2\n      sload\n      dup2\n      lt\n      tag_81\n      jumpi\n      invalid\n    tag_81:\n      swap1\n      0x00\n      mstore\n      keccak256(0x00, 0x20)\n      add\n      sload\n        /* \"casaApuestas.sol\":2475:2518  competencias[_codCarrera][i] == _codCaballo */\n      eq\n        /* \"casaApuestas.sol\":2472:2595  if(competencias[_codCarrera][i] == _codCaballo){\r... */\n      iszero\n      tag_83\n      jumpi\n        /* \"casaApuestas.sol\":2551:2555  true */\n      0x01\n        /* \"casaApuestas.sol\":2538:2555  caballoRep = true */\n      swap2\n      pop\n        /* \"casaApuestas.sol\":2574:2579  break */\n      jump(tag_79)\n        /* \"casaApuestas.sol\":2472:2595  if(competencias[_codCarrera][i] == _codCaballo){\r... */\n    tag_83:\n        /* \"casaApuestas.sol\":2453:2456  i++ */\n      dup1\n      dup1\n      0x01\n      add\n      swap2\n      pop\n      pop\n        /* \"casaApuestas.sol\":2419:2606  for(uint i = 0; i < cantCaballos; i++){\r... */\n      jump(tag_78)\n    tag_79:\n      pop\n        /* \"casaApuestas.sol\":2625:2635  caballoRep */\n      dup1\n        /* \"casaApuestas.sol\":2624:2635  !caballoRep */\n      iszero\n        /* \"casaApuestas.sol\":2616:2695  require(!caballoRep, \"Este caballo ya se encuentra registrado en esta carrera\") */\n      tag_84\n      jumpi\n      mload(0x40)\n      0x08c379a000000000000000000000000000000000000000000000000000000000\n      dup2\n      mstore\n      0x04\n      add\n      dup1\n      dup1\n      0x20\n      add\n      dup3\n      dup2\n      sub\n      dup3\n      mstore\n      0x37\n      dup2\n      mstore\n      0x20\n      add\n      dup1\n      data_dd2593dc49389a3dc12e11d6acb11a1c405e488c123ae730810838cacb526339\n      0x37\n      swap2\n      codecopy\n      0x40\n      add\n      swap2\n      pop\n      pop\n      mload(0x40)\n      dup1\n      swap2\n      sub\n      swap1\n      revert\n    tag_84:\n        /* \"casaApuestas.sol\":3897:3909  competencias */\n      0x04\n        /* \"casaApuestas.sol\":3897:3922  competencias[_codCarrera] */\n      0x00\n        /* \"casaApuestas.sol\":3910:3921  _codCarrera */\n      dup12\n        /* \"casaApuestas.sol\":3897:3922  competencias[_codCarrera] */\n      dup2\n      mstore\n      0x20\n      add\n      swap1\n      dup2\n      mstore\n      0x20\n      add\n      0x00\n      keccak256\n        /* \"casaApuestas.sol\":3928:3939  _codCaballo */\n      dup12\n        /* \"casaApuestas.sol\":3897:3940  competencias[_codCarrera].push(_codCaballo) */\n      swap1\n      dup1\n        /* \"--CODEGEN--\":39:40   */\n      0x01\n        /* \"--CODEGEN--\":33:36   */\n      dup2\n        /* \"--CODEGEN--\":27:37   */\n      sload\n        /* \"--CODEGEN--\":23:41   */\n      add\n        /* \"--CODEGEN--\":57:67   */\n      dup1\n        /* \"--CODEGEN--\":52:55   */\n      dup3\n        /* \"--CODEGEN--\":45:68   */\n      sstore\n        /* \"--CODEGEN--\":79:89   */\n      dup1\n        /* \"--CODEGEN--\":72:89   */\n      swap2\n      pop\n        /* \"--CODEGEN--\":0:93   */\n      pop\n        /* \"casaApuestas.sol\":3897:3940  competencias[_codCarrera].push(_codCaballo) */\n      0x01\n      swap1\n      sub\n      swap1\n      0x00\n      mstore\n      keccak256(0x00, 0x20)\n      add\n      0x00\n      swap1\n      swap2\n      swap1\n      swap2\n      swap1\n      swap2\n      pop\n      sstore\n        /* \"casaApuestas.sol\":1875:1876  _ */\n      pop\n      pop\n      pop\n      pop\n        /* \"casaApuestas.sol\":1706:1707  _ */\n      pop\n        /* \"casaApuestas.sol\":1366:1367  _ */\n      pop\n        /* \"casaApuestas.sol\":1203:1204  _ */\n      pop\n        /* \"casaApuestas.sol\":854:855  _ */\n      pop\n      pop\n        /* \"casaApuestas.sol\":3614:3948  function registrarEnCarrera(uint _codCaballo, uint _codCarrera) public \r... */\n      pop\n      pop\n      jump\t// out\n        /* \"casaApuestas.sol\":53:85  address payable public anfitrion */\n    tag_19:\n      0x00\n      dup1\n      swap1\n      sload\n      swap1\n      0x0100\n      exp\n      swap1\n      div\n      0xffffffffffffffffffffffffffffffffffffffff\n      and\n      dup2\n      jump\t// out\n        /* \"casaApuestas.sol\":3425:3606  function registrarCaballo(uint _codigo, string memory _nombre) public \r... */\n    tag_26:\n        /* \"casaApuestas.sol\":795:804  anfitrion */\n      0x00\n      dup1\n      swap1\n      sload\n      swap1\n      0x0100\n      exp\n      swap1\n      div\n      0xffffffffffffffffffffffffffffffffffffffff\n      and\n        /* \"casaApuestas.sol\":781:804  msg.sender == anfitrion */\n      0xffffffffffffffffffffffffffffffffffffffff\n      and\n        /* \"casaApuestas.sol\":781:791  msg.sender */\n      caller\n        /* \"casaApuestas.sol\":781:804  msg.sender == anfitrion */\n      0xffffffffffffffffffffffffffffffffffffffff\n      and\n      eq\n        /* \"casaApuestas.sol\":773:843  require(msg.sender == anfitrion, \"El invocador debe ser el anfitrion\") */\n      tag_88\n      jumpi\n      mload(0x40)\n      0x08c379a000000000000000000000000000000000000000000000000000000000\n      dup2\n      mstore\n      0x04\n      add\n      dup1\n      dup1\n      0x20\n      add\n      dup3\n      dup2\n      sub\n      dup3\n      mstore\n      0x22\n      dup2\n      mstore\n      0x20\n      add\n      dup1\n      data_445dd79b894b98a34a1cc7c38a5bd2de2e19478d6390b1e445457362fd7001d8\n      0x22\n      swap2\n      codecopy\n      0x40\n      add\n      swap2\n      pop\n      pop\n      mload(0x40)\n      dup1\n      swap2\n      sub\n      swap1\n      revert\n    tag_88:\n        /* \"casaApuestas.sol\":3534:3541  _codigo */\n      dup2\n        /* \"casaApuestas.sol\":1999:2000  0 */\n      0x00\n        /* \"casaApuestas.sol\":1959:1967  caballos */\n      0x03\n        /* \"casaApuestas.sol\":1959:1980  caballos[_codCaballo] */\n      0x00\n        /* \"casaApuestas.sol\":1968:1979  _codCaballo */\n      dup4\n        /* \"casaApuestas.sol\":1959:1980  caballos[_codCaballo] */\n      dup2\n      mstore\n      0x20\n      add\n      swap1\n      dup2\n      mstore\n      0x20\n      add\n      0x00\n      keccak256\n        /* \"casaApuestas.sol\":1959:1987  caballos[_codCaballo].nombre */\n      0x01\n      add\n        /* \"casaApuestas.sol\":1953:1995  bytes(caballos[_codCaballo].nombre).length */\n      dup1\n      sload\n      0x01\n      dup2\n      0x01\n      and\n      iszero\n      0x0100\n      mul\n      sub\n      and\n      0x02\n      swap1\n      div\n      swap1\n      pop\n        /* \"casaApuestas.sol\":1953:2000  bytes(caballos[_codCaballo].nombre).length == 0 */\n      eq\n        /* \"casaApuestas.sol\":1945:2042  require(bytes(caballos[_codCaballo].nombre).length == 0, \"Ya existe un caballo con este código\") */\n      tag_90\n      jumpi\n      mload(0x40)\n      0x08c379a000000000000000000000000000000000000000000000000000000000\n      dup2\n      mstore\n      0x04\n      add\n      dup1\n      dup1\n      0x20\n      add\n      dup3\n      dup2\n      sub\n      dup3\n      mstore\n      0x25\n      dup2\n      mstore\n      0x20\n      add\n      dup1\n      data_d6db3988662478777908c1e662b2ec848309dbbd995b7b6deab44e369aa15534\n      0x25\n      swap2\n      codecopy\n      0x40\n      add\n      swap2\n      pop\n      pop\n      mload(0x40)\n      dup1\n      swap2\n      sub\n      swap1\n      revert\n    tag_90:\n        /* \"casaApuestas.sol\":3573:3598  Caballo(_codigo, _nombre) */\n      mload(0x40)\n      dup1\n      0x40\n      add\n      0x40\n      mstore\n      dup1\n        /* \"casaApuestas.sol\":3581:3588  _codigo */\n      dup5\n        /* \"casaApuestas.sol\":3573:3598  Caballo(_codigo, _nombre) */\n      dup2\n      mstore\n      0x20\n      add\n        /* \"casaApuestas.sol\":3590:3597  _nombre */\n      dup4\n        /* \"casaApuestas.sol\":3573:3598  Caballo(_codigo, _nombre) */\n      dup2\n      mstore\n      pop\n        /* \"casaApuestas.sol\":3553:3561  caballos */\n      0x03\n        /* \"casaApuestas.sol\":3553:3570  caballos[_codigo] */\n      0x00\n        /* \"casaApuestas.sol\":3562:3569  _codigo */\n      dup6\n        /* \"casaApuestas.sol\":3553:3570  caballos[_codigo] */\n      dup2\n      mstore\n      0x20\n      add\n      swap1\n      dup2\n      mstore\n      0x20\n      add\n      0x00\n      keccak256\n        /* \"casaApuestas.sol\":3553:3598  caballos[_codigo] = Caballo(_codigo, _nombre) */\n      0x00\n      dup3\n      add\n      mload\n      dup2\n      0x00\n      add\n      sstore\n      0x20\n      dup3\n      add\n      mload\n      dup2\n      0x01\n      add\n      swap1\n      dup1\n      mload\n      swap1\n      0x20\n      add\n      swap1\n      tag_92\n      swap3\n      swap2\n      swap1\n      tag_93\n      jump\t// in\n    tag_92:\n      pop\n      swap1\n      pop\n      pop\n        /* \"casaApuestas.sol\":854:855  _ */\n      pop\n        /* \"casaApuestas.sol\":3425:3606  function registrarCaballo(uint _codigo, string memory _nombre) public \r... */\n      pop\n      pop\n      jump\t// out\n        /* \"casaApuestas.sol\":173:213  mapping(uint => Carrera) public carreras */\n    tag_30:\n      mstore(0x20, 0x02)\n      dup1\n      0x00\n      mstore\n      keccak256(0x00, 0x40)\n      0x00\n      swap2\n      pop\n      swap1\n      pop\n      dup1\n      0x00\n      add\n      sload\n      swap1\n      dup1\n      0x01\n      add\n      dup1\n      sload\n      0x01\n      dup2\n      0x01\n      and\n      iszero\n      0x0100\n      mul\n      sub\n      and\n      0x02\n      swap1\n      div\n      dup1\n      0x1f\n      add\n      0x20\n      dup1\n      swap2\n      div\n      mul\n      0x20\n      add\n      mload(0x40)\n      swap1\n      dup2\n      add\n      0x40\n      mstore\n      dup1\n      swap3\n      swap2\n      swap1\n      dup2\n      dup2\n      mstore\n      0x20\n      add\n      dup3\n      dup1\n      sload\n      0x01\n      dup2\n      0x01\n      and\n      iszero\n      0x0100\n      mul\n      sub\n      and\n      0x02\n      swap1\n      div\n      dup1\n      iszero\n      tag_94\n      jumpi\n      dup1\n      0x1f\n      lt\n      tag_95\n      jumpi\n      0x0100\n      dup1\n      dup4\n      sload\n      div\n      mul\n      dup4\n      mstore\n      swap2\n      0x20\n      add\n      swap2\n      jump(tag_94)\n    tag_95:\n      dup3\n      add\n      swap2\n      swap1\n      0x00\n      mstore\n      keccak256(0x00, 0x20)\n      swap1\n    tag_96:\n      dup2\n      sload\n      dup2\n      mstore\n      swap1\n      0x01\n      add\n      swap1\n      0x20\n      add\n      dup1\n      dup4\n      gt\n      tag_96\n      jumpi\n      dup3\n      swap1\n      sub\n      0x1f\n      and\n      dup3\n      add\n      swap2\n    tag_94:\n      pop\n      pop\n      pop\n      pop\n      pop\n      swap1\n      dup1\n      0x02\n      add\n      0x00\n      swap1\n      sload\n      swap1\n      0x0100\n      exp\n      swap1\n      div\n      0xff\n      and\n      swap1\n      pop\n      dup4\n      jump\t// out\n        /* \"casaApuestas.sol\":141:166  uint public totalCarreras */\n    tag_38:\n      sload(0x01)\n      dup2\n      jump\t// out\n        /* \"casaApuestas.sol\":242:282  mapping(uint => Caballo) public caballos */\n    tag_42:\n      mstore(0x20, 0x03)\n      dup1\n      0x00\n      mstore\n      keccak256(0x00, 0x40)\n      0x00\n      swap2\n      pop\n      swap1\n      pop\n      dup1\n      0x00\n      add\n      sload\n      swap1\n      dup1\n      0x01\n      add\n      dup1\n      sload\n      0x01\n      dup2\n      0x01\n      and\n      iszero\n      0x0100\n      mul\n      sub\n      and\n      0x02\n      swap1\n      div\n      dup1\n      0x1f\n      add\n      0x20\n      dup1\n      swap2\n      div\n      mul\n      0x20\n      add\n      mload(0x40)\n      swap1\n      dup2\n      add\n      0x40\n      mstore\n      dup1\n      swap3\n      swap2\n      swap1\n      dup2\n      dup2\n      mstore\n      0x20\n      add\n      dup3\n      dup1\n      sload\n      0x01\n      dup2\n      0x01\n      and\n      iszero\n      0x0100\n      mul\n      sub\n      and\n      0x02\n      swap1\n      div\n      dup1\n      iszero\n      tag_97\n      jumpi\n      dup1\n      0x1f\n      lt\n      tag_98\n      jumpi\n      0x0100\n      dup1\n      dup4\n      sload\n      div\n      mul\n      dup4\n      mstore\n      swap2\n      0x20\n      add\n      swap2\n      jump(tag_97)\n    tag_98:\n      dup3\n      add\n      swap2\n      swap1\n      0x00\n      mstore\n      keccak256(0x00, 0x20)\n      swap1\n    tag_99:\n      dup2\n      sload\n      dup2\n      mstore\n      swap1\n      0x01\n      add\n      swap1\n      0x20\n      add\n      dup1\n      dup4\n      gt\n      tag_99\n      jumpi\n      dup3\n      swap1\n      sub\n      0x1f\n      and\n      dup3\n      add\n      swap2\n    tag_97:\n      pop\n      pop\n      pop\n      pop\n      pop\n      swap1\n      pop\n      dup3\n      jump\t// out\n        /* \"casaApuestas.sol\":4209:4354  function apostar(uint _codCaballo, uint _codCarrera) payable public \r... */\n    tag_49:\n        /* \"casaApuestas.sol\":929:938  anfitrion */\n      0x00\n      dup1\n      swap1\n      sload\n      swap1\n      0x0100\n      exp\n      swap1\n      div\n      0xffffffffffffffffffffffffffffffffffffffff\n      and\n        /* \"casaApuestas.sol\":915:938  msg.sender != anfitrion */\n      0xffffffffffffffffffffffffffffffffffffffff\n      and\n        /* \"casaApuestas.sol\":915:925  msg.sender */\n      caller\n        /* \"casaApuestas.sol\":915:938  msg.sender != anfitrion */\n      0xffffffffffffffffffffffffffffffffffffffff\n      and\n      eq\n      iszero\n        /* \"casaApuestas.sol\":907:998  require(msg.sender != anfitrion, \"El invocador debe ser un usuario diferente al anfitrion\") */\n      tag_101\n      jumpi\n      mload(0x40)\n      0x08c379a000000000000000000000000000000000000000000000000000000000\n      dup2\n      mstore\n      0x04\n      add\n      dup1\n      dup1\n      0x20\n      add\n      dup3\n      dup2\n      sub\n      dup3\n      mstore\n      0x37\n      dup2\n      mstore\n      0x20\n      add\n      dup1\n      data_c258d99636b674a8c760b7677c129033d423282c7394402c18f597a1eab563a1\n      0x37\n      swap2\n      codecopy\n      0x40\n      add\n      swap2\n      pop\n      pop\n      mload(0x40)\n      dup1\n      swap2\n      sub\n      swap1\n      revert\n    tag_101:\n        /* \"casaApuestas.sol\":4313:4324  _codCarrera */\n      dup1\n        /* \"casaApuestas.sol\":4326:4343  Estado.Registrada */\n      0x01\n        /* \"casaApuestas.sol\":1136:1143  _estado */\n      dup1\n        /* \"casaApuestas.sol\":1097:1143  carreras[_codCarrera].estadoCarrera == _estado */\n      0x02\n      dup2\n      gt\n      iszero\n      tag_103\n      jumpi\n      invalid\n    tag_103:\n        /* \"casaApuestas.sol\":1097:1105  carreras */\n      0x02\n        /* \"casaApuestas.sol\":1097:1118  carreras[_codCarrera] */\n      0x00\n        /* \"casaApuestas.sol\":1106:1117  _codCarrera */\n      dup5\n        /* \"casaApuestas.sol\":1097:1118  carreras[_codCarrera] */\n      dup2\n      mstore\n      0x20\n      add\n      swap1\n      dup2\n      mstore\n      0x20\n      add\n      0x00\n      keccak256\n        /* \"casaApuestas.sol\":1097:1132  carreras[_codCarrera].estadoCarrera */\n      0x02\n      add\n      0x00\n      swap1\n      sload\n      swap1\n      0x0100\n      exp\n      swap1\n      div\n      0xff\n      and\n        /* \"casaApuestas.sol\":1097:1143  carreras[_codCarrera].estadoCarrera == _estado */\n      0x02\n      dup2\n      gt\n      iszero\n      tag_104\n      jumpi\n      invalid\n    tag_104:\n      eq\n        /* \"casaApuestas.sol\":1089:1192  require(carreras[_codCarrera].estadoCarrera == _estado, \"La carrera no cumple con el estado requerido\") */\n      tag_105\n      jumpi\n      mload(0x40)\n      0x08c379a000000000000000000000000000000000000000000000000000000000\n      dup2\n      mstore\n      0x04\n      add\n      dup1\n      dup1\n      0x20\n      add\n      dup3\n      dup2\n      sub\n      dup3\n      mstore\n      0x2c\n      dup2\n      mstore\n      0x20\n      add\n      dup1\n      data_e91ca438e9e3f1e0e0a5b1a72a508ed5ae254b3cb59572817ac1ec6e2a488952\n      0x2c\n      swap2\n      codecopy\n      0x40\n      add\n      swap2\n      pop\n      pop\n      mload(0x40)\n      dup1\n      swap2\n      sub\n      swap1\n      revert\n    tag_105:\n        /* \"casaApuestas.sol\":1009:1010  _ */\n      pop\n      pop\n        /* \"casaApuestas.sol\":4209:4354  function apostar(uint _codCaballo, uint _codCarrera) payable public \r... */\n      pop\n      pop\n      jump\t// out\n        /* \"casaApuestas.sol\":3956:4201  function registrarCarrera(uint _codCarrera) public \r... */\n    tag_53:\n        /* \"casaApuestas.sol\":795:804  anfitrion */\n      0x00\n      dup1\n      swap1\n      sload\n      swap1\n      0x0100\n      exp\n      swap1\n      div\n      0xffffffffffffffffffffffffffffffffffffffff\n      and\n        /* \"casaApuestas.sol\":781:804  msg.sender == anfitrion */\n      0xffffffffffffffffffffffffffffffffffffffff\n      and\n        /* \"casaApuestas.sol\":781:791  msg.sender */\n      caller\n        /* \"casaApuestas.sol\":781:804  msg.sender == anfitrion */\n      0xffffffffffffffffffffffffffffffffffffffff\n      and\n      eq\n        /* \"casaApuestas.sol\":773:843  require(msg.sender == anfitrion, \"El invocador debe ser el anfitrion\") */\n      tag_108\n      jumpi\n      mload(0x40)\n      0x08c379a000000000000000000000000000000000000000000000000000000000\n      dup2\n      mstore\n      0x04\n      add\n      dup1\n      dup1\n      0x20\n      add\n      dup3\n      dup2\n      sub\n      dup3\n      mstore\n      0x22\n      dup2\n      mstore\n      0x20\n      add\n      dup1\n      data_445dd79b894b98a34a1cc7c38a5bd2de2e19478d6390b1e445457362fd7001d8\n      0x22\n      swap2\n      codecopy\n      0x40\n      add\n      swap2\n      pop\n      pop\n      mload(0x40)\n      dup1\n      swap2\n      sub\n      swap1\n      revert\n    tag_108:\n        /* \"casaApuestas.sol\":4040:4051  _codCarrera */\n      dup1\n        /* \"casaApuestas.sol\":4053:4066  Estado.Creada */\n      0x00\n        /* \"casaApuestas.sol\":1136:1143  _estado */\n      dup1\n        /* \"casaApuestas.sol\":1097:1143  carreras[_codCarrera].estadoCarrera == _estado */\n      0x02\n      dup2\n      gt\n      iszero\n      tag_110\n      jumpi\n      invalid\n    tag_110:\n        /* \"casaApuestas.sol\":1097:1105  carreras */\n      0x02\n        /* \"casaApuestas.sol\":1097:1118  carreras[_codCarrera] */\n      0x00\n        /* \"casaApuestas.sol\":1106:1117  _codCarrera */\n      dup5\n        /* \"casaApuestas.sol\":1097:1118  carreras[_codCarrera] */\n      dup2\n      mstore\n      0x20\n      add\n      swap1\n      dup2\n      mstore\n      0x20\n      add\n      0x00\n      keccak256\n        /* \"casaApuestas.sol\":1097:1132  carreras[_codCarrera].estadoCarrera */\n      0x02\n      add\n      0x00\n      swap1\n      sload\n      swap1\n      0x0100\n      exp\n      swap1\n      div\n      0xff\n      and\n        /* \"casaApuestas.sol\":1097:1143  carreras[_codCarrera].estadoCarrera == _estado */\n      0x02\n      dup2\n      gt\n      iszero\n      tag_111\n      jumpi\n      invalid\n    tag_111:\n      eq\n        /* \"casaApuestas.sol\":1089:1192  require(carreras[_codCarrera].estadoCarrera == _estado, \"La carrera no cumple con el estado requerido\") */\n      tag_112\n      jumpi\n      mload(0x40)\n      0x08c379a000000000000000000000000000000000000000000000000000000000\n      dup2\n      mstore\n      0x04\n      add\n      dup1\n      dup1\n      0x20\n      add\n      dup3\n      dup2\n      sub\n      dup3\n      mstore\n      0x2c\n      dup2\n      mstore\n      0x20\n      add\n      dup1\n      data_e91ca438e9e3f1e0e0a5b1a72a508ed5ae254b3cb59572817ac1ec6e2a488952\n      0x2c\n      swap2\n      codecopy\n      0x40\n      add\n      swap2\n      pop\n      pop\n      mload(0x40)\n      dup1\n      swap2\n      sub\n      swap1\n      revert\n    tag_112:\n        /* \"casaApuestas.sol\":4087:4098  _codCarrera */\n      dup3\n        /* \"casaApuestas.sol\":1828:1829  0 */\n      0x00\n        /* \"casaApuestas.sol\":1788:1796  caballos */\n      0x03\n        /* \"casaApuestas.sol\":1788:1809  caballos[_codCarrera] */\n      0x00\n        /* \"casaApuestas.sol\":1797:1808  _codCarrera */\n      dup4\n        /* \"casaApuestas.sol\":1788:1809  caballos[_codCarrera] */\n      dup2\n      mstore\n      0x20\n      add\n      swap1\n      dup2\n      mstore\n      0x20\n      add\n      0x00\n      keccak256\n        /* \"casaApuestas.sol\":1788:1816  caballos[_codCarrera].nombre */\n      0x01\n      add\n        /* \"casaApuestas.sol\":1782:1824  bytes(caballos[_codCarrera].nombre).length */\n      dup1\n      sload\n      0x01\n      dup2\n      0x01\n      and\n      iszero\n      0x0100\n      mul\n      sub\n      and\n      0x02\n      swap1\n      div\n      swap1\n      pop\n        /* \"casaApuestas.sol\":1782:1829  bytes(caballos[_codCarrera].nombre).length != 0 */\n      eq\n      iszero\n        /* \"casaApuestas.sol\":1774:1864  require(bytes(caballos[_codCarrera].nombre).length != 0, \"La carrera ingresada no existe\") */\n      tag_114\n      jumpi\n      mload(0x40)\n      0x08c379a000000000000000000000000000000000000000000000000000000000\n      dup2\n      mstore\n      0x04\n      add\n      dup1\n      dup1\n      0x20\n      add\n      dup3\n      dup2\n      sub\n      dup3\n      mstore\n      0x1e\n      dup2\n      mstore\n      0x20\n      add\n      dup1\n      0x4c61206361727265726120696e67726573616461206e6f206578697374650000\n      dup2\n      mstore\n      pop\n      0x20\n      add\n      swap2\n      pop\n      pop\n      mload(0x40)\n      dup1\n      swap2\n      sub\n      swap1\n      revert\n    tag_114:\n        /* \"casaApuestas.sol\":4115:4126  _codCarrera */\n      dup4\n        /* \"casaApuestas.sol\":1474:1475  2 */\n      0x02\n        /* \"casaApuestas.sol\":1438:1450  competencias */\n      0x04\n        /* \"casaApuestas.sol\":1438:1463  competencias[_codCarrera] */\n      0x00\n        /* \"casaApuestas.sol\":1451:1462  _codCarrera */\n      dup4\n        /* \"casaApuestas.sol\":1438:1463  competencias[_codCarrera] */\n      dup2\n      mstore\n      0x20\n      add\n      swap1\n      dup2\n      mstore\n      0x20\n      add\n      0x00\n      keccak256\n        /* \"casaApuestas.sol\":1438:1470  competencias[_codCarrera].length */\n      dup1\n      sload\n      swap1\n      pop\n        /* \"casaApuestas.sol\":1438:1475  competencias[_codCarrera].length >= 2 */\n      lt\n      iszero\n        /* \"casaApuestas.sol\":1430:1526  require(competencias[_codCarrera].length >= 2, \"La carrera debe contar con al menos 2 caballos\") */\n      tag_116\n      jumpi\n      mload(0x40)\n      0x08c379a000000000000000000000000000000000000000000000000000000000\n      dup2\n      mstore\n      0x04\n      add\n      dup1\n      dup1\n      0x20\n      add\n      dup3\n      dup2\n      sub\n      dup3\n      mstore\n      0x2e\n      dup2\n      mstore\n      0x20\n      add\n      dup1\n      data_234e92a03eef93e773d3f62d6519fa001994567a49c6e3053a36d351ec2424b1\n      0x2e\n      swap2\n      codecopy\n      0x40\n      add\n      swap2\n      pop\n      pop\n      mload(0x40)\n      dup1\n      swap2\n      sub\n      swap1\n      revert\n    tag_116:\n        /* \"casaApuestas.sol\":4176:4193  Estado.Registrada */\n      0x01\n        /* \"casaApuestas.sol\":4138:4146  carreras */\n      0x02\n        /* \"casaApuestas.sol\":4138:4159  carreras[_codCarrera] */\n      0x00\n        /* \"casaApuestas.sol\":4147:4158  _codCarrera */\n      dup8\n        /* \"casaApuestas.sol\":4138:4159  carreras[_codCarrera] */\n      dup2\n      mstore\n      0x20\n      add\n      swap1\n      dup2\n      mstore\n      0x20\n      add\n      0x00\n      keccak256\n        /* \"casaApuestas.sol\":4138:4173  carreras[_codCarrera].estadoCarrera */\n      0x02\n      add\n      0x00\n        /* \"casaApuestas.sol\":4138:4193  carreras[_codCarrera].estadoCarrera = Estado.Registrada */\n      0x0100\n      exp\n      dup2\n      sload\n      dup2\n      0xff\n      mul\n      not\n      and\n      swap1\n      dup4\n      0x02\n      dup2\n      gt\n      iszero\n      tag_118\n      jumpi\n      invalid\n    tag_118:\n      mul\n      or\n      swap1\n      sstore\n      pop\n        /* \"casaApuestas.sol\":1875:1876  _ */\n      pop\n        /* \"casaApuestas.sol\":1203:1204  _ */\n      pop\n        /* \"casaApuestas.sol\":854:855  _ */\n      pop\n      pop\n        /* \"casaApuestas.sol\":3956:4201  function registrarCarrera(uint _codCarrera) public \r... */\n      pop\n      jump\t// out\n        /* \"casaApuestas.sol\":3196:3417  function crearCarrera(uint _codigo, string memory _nombre) public \r... */\n    tag_60:\n        /* \"casaApuestas.sol\":795:804  anfitrion */\n      0x00\n      dup1\n      swap1\n      sload\n      swap1\n      0x0100\n      exp\n      swap1\n      div\n      0xffffffffffffffffffffffffffffffffffffffff\n      and\n        /* \"casaApuestas.sol\":781:804  msg.sender == anfitrion */\n      0xffffffffffffffffffffffffffffffffffffffff\n      and\n        /* \"casaApuestas.sol\":781:791  msg.sender */\n      caller\n        /* \"casaApuestas.sol\":781:804  msg.sender == anfitrion */\n      0xffffffffffffffffffffffffffffffffffffffff\n      and\n      eq\n        /* \"casaApuestas.sol\":773:843  require(msg.sender == anfitrion, \"El invocador debe ser el anfitrion\") */\n      tag_120\n      jumpi\n      mload(0x40)\n      0x08c379a000000000000000000000000000000000000000000000000000000000\n      dup2\n      mstore\n      0x04\n      add\n      dup1\n      dup1\n      0x20\n      add\n      dup3\n      dup2\n      sub\n      dup3\n      mstore\n      0x22\n      dup2\n      mstore\n      0x20\n      add\n      dup1\n      data_445dd79b894b98a34a1cc7c38a5bd2de2e19478d6390b1e445457362fd7001d8\n      0x22\n      swap2\n      codecopy\n      0x40\n      add\n      swap2\n      pop\n      pop\n      mload(0x40)\n      dup1\n      swap2\n      sub\n      swap1\n      revert\n    tag_120:\n        /* \"casaApuestas.sol\":3301:3308  _codigo */\n      dup2\n        /* \"casaApuestas.sol\":2177:2178  0 */\n      0x00\n        /* \"casaApuestas.sol\":2137:2145  carreras */\n      0x02\n        /* \"casaApuestas.sol\":2137:2158  carreras[_codCarrera] */\n      0x00\n        /* \"casaApuestas.sol\":2146:2157  _codCarrera */\n      dup4\n        /* \"casaApuestas.sol\":2137:2158  carreras[_codCarrera] */\n      dup2\n      mstore\n      0x20\n      add\n      swap1\n      dup2\n      mstore\n      0x20\n      add\n      0x00\n      keccak256\n        /* \"casaApuestas.sol\":2137:2165  carreras[_codCarrera].nombre */\n      0x01\n      add\n        /* \"casaApuestas.sol\":2131:2173  bytes(carreras[_codCarrera].nombre).length */\n      dup1\n      sload\n      0x01\n      dup2\n      0x01\n      and\n      iszero\n      0x0100\n      mul\n      sub\n      and\n      0x02\n      swap1\n      div\n      swap1\n      pop\n        /* \"casaApuestas.sol\":2131:2178  bytes(carreras[_codCarrera].nombre).length == 0 */\n      eq\n        /* \"casaApuestas.sol\":2123:2221  require(bytes(carreras[_codCarrera].nombre).length == 0, \"Ya existe una carrera con este código\") */\n      tag_122\n      jumpi\n      mload(0x40)\n      0x08c379a000000000000000000000000000000000000000000000000000000000\n      dup2\n      mstore\n      0x04\n      add\n      dup1\n      dup1\n      0x20\n      add\n      dup3\n      dup2\n      sub\n      dup3\n      mstore\n      0x26\n      dup2\n      mstore\n      0x20\n      add\n      dup1\n      data_22029fc9bd0e2ef2cc87547f1b8c198f7797b26c5004a179120be0b5f25949fe\n      0x26\n      swap2\n      codecopy\n      0x40\n      add\n      swap2\n      pop\n      pop\n      mload(0x40)\n      dup1\n      swap2\n      sub\n      swap1\n      revert\n    tag_122:\n        /* \"casaApuestas.sol\":3340:3380  Carrera(_codigo, _nombre, Estado.Creada) */\n      mload(0x40)\n      dup1\n      0x60\n      add\n      0x40\n      mstore\n      dup1\n        /* \"casaApuestas.sol\":3348:3355  _codigo */\n      dup5\n        /* \"casaApuestas.sol\":3340:3380  Carrera(_codigo, _nombre, Estado.Creada) */\n      dup2\n      mstore\n      0x20\n      add\n        /* \"casaApuestas.sol\":3357:3364  _nombre */\n      dup4\n        /* \"casaApuestas.sol\":3340:3380  Carrera(_codigo, _nombre, Estado.Creada) */\n      dup2\n      mstore\n      0x20\n      add\n        /* \"casaApuestas.sol\":3366:3379  Estado.Creada */\n      0x00\n        /* \"casaApuestas.sol\":3340:3380  Carrera(_codigo, _nombre, Estado.Creada) */\n      0x02\n      dup2\n      gt\n      iszero\n      tag_124\n      jumpi\n      invalid\n    tag_124:\n      dup2\n      mstore\n      pop\n        /* \"casaApuestas.sol\":3320:3328  carreras */\n      0x02\n        /* \"casaApuestas.sol\":3320:3337  carreras[_codigo] */\n      0x00\n        /* \"casaApuestas.sol\":3329:3336  _codigo */\n      dup6\n        /* \"casaApuestas.sol\":3320:3337  carreras[_codigo] */\n      dup2\n      mstore\n      0x20\n      add\n      swap1\n      dup2\n      mstore\n      0x20\n      add\n      0x00\n      keccak256\n        /* \"casaApuestas.sol\":3320:3380  carreras[_codigo] = Carrera(_codigo, _nombre, Estado.Creada) */\n      0x00\n      dup3\n      add\n      mload\n      dup2\n      0x00\n      add\n      sstore\n      0x20\n      dup3\n      add\n      mload\n      dup2\n      0x01\n      add\n      swap1\n      dup1\n      mload\n      swap1\n      0x20\n      add\n      swap1\n      tag_125\n      swap3\n      swap2\n      swap1\n      tag_93\n      jump\t// in\n    tag_125:\n      pop\n      0x40\n      dup3\n      add\n      mload\n      dup2\n      0x02\n      add\n      exp(0x0100, 0x00)\n      dup2\n      sload\n      dup2\n      0xff\n      mul\n      not\n      and\n      swap1\n      dup4\n      0x02\n      dup2\n      gt\n      iszero\n      tag_126\n      jumpi\n      invalid\n    tag_126:\n      mul\n      or\n      swap1\n      sstore\n      pop\n      swap1\n      pop\n      pop\n        /* \"casaApuestas.sol\":3408:3409  1 */\n      0x01\n        /* \"casaApuestas.sol\":3391:3404  totalCarreras */\n      dup1\n      0x00\n        /* \"casaApuestas.sol\":3391:3409  totalCarreras += 1 */\n      dup3\n      dup3\n      sload\n      add\n      swap3\n      pop\n      pop\n      dup2\n      swap1\n      sstore\n      pop\n        /* \"casaApuestas.sol\":854:855  _ */\n      pop\n        /* \"casaApuestas.sol\":3196:3417  function crearCarrera(uint _codigo, string memory _nombre) public \r... */\n      pop\n      pop\n      jump\t// out\n        /* \"casaApuestas.sol\":311:354  mapping(uint => uint[]) public competencias */\n    tag_64:\n      mstore(0x20, 0x04)\n      dup2\n      0x00\n      mstore\n      keccak256(0x00, 0x40)\n      dup2\n      dup2\n      sload\n      dup2\n      lt\n      tag_127\n      jumpi\n      invalid\n    tag_127:\n      swap1\n      0x00\n      mstore\n      keccak256(0x00, 0x20)\n      add\n      0x00\n      swap2\n      pop\n      swap2\n      pop\n      pop\n      sload\n      dup2\n      jump\t// out\n        /* \"casaApuestas.sol\":25:4357  contract casaApuestas{\r... */\n    tag_93:\n      dup3\n      dup1\n      sload\n      0x01\n      dup2\n      0x01\n      and\n      iszero\n      0x0100\n      mul\n      sub\n      and\n      0x02\n      swap1\n      div\n      swap1\n      0x00\n      mstore\n      keccak256(0x00, 0x20)\n      swap1\n      0x1f\n      add\n      0x20\n      swap1\n      div\n      dup2\n      add\n      swap3\n      dup3\n      0x1f\n      lt\n      tag_130\n      jumpi\n      dup1\n      mload\n      not(0xff)\n      and\n      dup4\n      dup1\n      add\n      or\n      dup6\n      sstore\n      jump(tag_129)\n    tag_130:\n      dup3\n      dup1\n      add\n      0x01\n      add\n      dup6\n      sstore\n      dup3\n      iszero\n      tag_129\n      jumpi\n      swap2\n      dup3\n      add\n    tag_131:\n      dup3\n      dup2\n      gt\n      iszero\n      tag_132\n      jumpi\n      dup3\n      mload\n      dup3\n      sstore\n      swap2\n      0x20\n      add\n      swap2\n      swap1\n      0x01\n      add\n      swap1\n      jump(tag_131)\n    tag_132:\n    tag_129:\n      pop\n      swap1\n      pop\n      tag_133\n      swap2\n      swap1\n      tag_134\n      jump\t// in\n    tag_133:\n      pop\n      swap1\n      jump\t// out\n    tag_134:\n      tag_135\n      swap2\n      swap1\n    tag_136:\n      dup1\n      dup3\n      gt\n      iszero\n      tag_137\n      jumpi\n      0x00\n      dup2\n      0x00\n      swap1\n      sstore\n      pop\n      0x01\n      add\n      jump(tag_136)\n    tag_137:\n      pop\n      swap1\n      jump\n    tag_135:\n      swap1\n      jump\t// out\n    stop\n    data_22029fc9bd0e2ef2cc87547f1b8c198f7797b26c5004a179120be0b5f25949fe 59612065786973746520756e61206361727265726120636f6e20657374652063c3b36469676f\n    data_234e92a03eef93e773d3f62d6519fa001994567a49c6e3053a36d351ec2424b1 4c612063617272657261206465626520636f6e74617220636f6e20616c206d656e6f73203220636162616c6c6f73\n    data_445dd79b894b98a34a1cc7c38a5bd2de2e19478d6390b1e445457362fd7001d8 456c20696e766f6361646f7220646562652073657220656c20616e66697472696f6e\n    data_48cf4ac7fcb22fd30a2178e5656f2b40afd30f2764f5b3cd17a43f9dd083aee5 4c612063617272657261207961206375656e746120636f6e203520636162616c6c6f73\n    data_c258d99636b674a8c760b7677c129033d423282c7394402c18f597a1eab563a1 456c20696e766f6361646f7220646562652073657220756e207573756172696f206469666572656e746520616c20616e66697472696f6e\n    data_d6db3988662478777908c1e662b2ec848309dbbd995b7b6deab44e369aa15534 59612065786973746520756e20636162616c6c6f20636f6e20657374652063c3b36469676f\n    data_dd2593dc49389a3dc12e11d6acb11a1c405e488c123ae730810838cacb526339 4573746520636162616c6c6f20796120736520656e6375656e747261207265676973747261646f20656e20657374612063617272657261\n    data_e91ca438e9e3f1e0e0a5b1a72a508ed5ae254b3cb59572817ac1ec6e2a488952 4c612063617272657261206e6f2063756d706c6520636f6e20656c2065737461646f2072657175657269646f\n\n    auxdata: 0xa2646970667358221220bb747a77e9f92c0ed00cb3f69d205c77cf06dd74f6986564895c29b076d8ca0264736f6c63430006000033\n}\n",
				"bytecode": {
					"linkReferences": {},
					"object": "608060405234801561001057600080fd5b50336000806101000a81548173ffffffffffffffffffffffffffffffffffffffff021916908373ffffffffffffffffffffffffffffffffffffffff160217905550611487806100606000396000f3fe6080604052600436106100915760003560e01c8063f0b73b5411610059578063f0b73b54146102ff578063f2f6da3e146103ba578063f7edd6db146103f2578063f9d32e491461042d578063fb34d0f7146104ff57610091565b806326d1c7d014610096578063456f4b57146100db5780635194f59c146101325780635ee8166614610204578063e9ec5583146102d4575b600080fd5b3480156100a257600080fd5b506100d9600480360360408110156100b957600080fd5b810190808035906020019092919080359060200190929190505050610558565b005b3480156100e757600080fd5b506100f061095a565b604051808273ffffffffffffffffffffffffffffffffffffffff1673ffffffffffffffffffffffffffffffffffffffff16815260200191505060405180910390f35b34801561013e57600080fd5b506102026004803603604081101561015557600080fd5b81019080803590602001909291908035906020019064010000000081111561017c57600080fd5b82018360208201111561018e57600080fd5b803590602001918460018302840111640100000000831117156101b057600080fd5b91908080601f016020809104026020016040519081016040528093929190818152602001838380828437600081840152601f19601f82011690508083019250505050505050919291929050505061097f565b005b34801561021057600080fd5b5061023d6004803603602081101561022757600080fd5b8101908080359060200190929190505050610aff565b604051808481526020018060200183600281111561025757fe5b60ff168152602001828103825284818151815260200191508051906020019080838360005b8381101561029757808201518184015260208101905061027c565b50505050905090810190601f1680156102c45780820380516001836020036101000a031916815260200191505b5094505050505060405180910390f35b3480156102e057600080fd5b506102e9610bce565b6040518082815260200191505060405180910390f35b34801561030b57600080fd5b506103386004803603602081101561032257600080fd5b8101908080359060200190929190505050610bd4565b6040518083815260200180602001828103825283818151815260200191508051906020019080838360005b8381101561037e578082015181840152602081019050610363565b50505050905090810190601f1680156103ab5780820380516001836020036101000a031916815260200191505b50935050505060405180910390f35b6103f0600480360360408110156103d057600080fd5b810190808035906020019092919080359060200190929190505050610c90565b005b3480156103fe57600080fd5b5061042b6004803603602081101561041557600080fd5b8101908080359060200190929190505050610dd0565b005b34801561043957600080fd5b506104fd6004803603604081101561045057600080fd5b81019080803590602001909291908035906020019064010000000081111561047757600080fd5b82018360208201111561048957600080fd5b803590602001918460018302840111640100000000831117156104ab57600080fd5b91908080601f016020809104026020016040519081016040528093929190818152602001838380828437600081840152601f19601f82011690508083019250505050505050919291929050505061105b565b005b34801561050b57600080fd5b506105426004803603604081101561052257600080fd5b810190808035906020019092919080359060200190929190505050611226565b6040518082815260200191505060405180910390f35b6000809054906101000a900473ffffffffffffffffffffffffffffffffffffffff1673ffffffffffffffffffffffffffffffffffffffff163373ffffffffffffffffffffffffffffffffffffffff16146105fd576040517f08c379a000000000000000000000000000000000000000000000000000000000815260040180806020018281038252602281526020018061134e6022913960400191505060405180910390fd5b80600080600281111561060c57fe5b6002600084815260200190815260200160002060020160009054906101000a900460ff16600281111561063b57fe5b14610691576040517f08c379a000000000000000000000000000000000000000000000000000000000815260040180806020018281038252602c815260200180611426602c913960400191505060405180910390fd5b826005600460008381526020019081526020016000208054905010610701576040517f08c379a00000000000000000000000000000000000000000000000000000000081526004018080602001828103825260238152602001806113706023913960400191505060405180910390fd5b8460006003600083815260200190815260200160002060010180546001816001161561010002031660029004905014156107a3576040517f08c379a000000000000000000000000000000000000000000000000000000000815260040180806020018281038252601e8152602001807f456c20636162616c6c6f20696e6772657361646f206e6f20657869737465000081525060200191505060405180910390fd5b846000600360008381526020019081526020016000206001018054600181600116156101000203166002900490501415610845576040517f08c379a000000000000000000000000000000000000000000000000000000000815260040180806020018281038252601e8152602001807f4c61206361727265726120696e67726573616461206e6f20657869737465000081525060200191505060405180910390fd5b8587600060046000848152602001908152602001600020805490509050600080905060008090505b828110156108bb578360046000878152602001908152602001600020828154811061089457fe5b906000526020600020015414156108ae57600191506108bb565b808060010191505061086d565b508015610913576040517f08c379a00000000000000000000000000000000000000000000000000000000081526004018080602001828103825260378152602001806113ef6037913960400191505060405180910390fd5b600460008b81526020019081526020016000208b90806001815401808255809150506001900390600052602060002001600090919091909150555050505050505050505050565b6000809054906101000a900473ffffffffffffffffffffffffffffffffffffffff1681565b6000809054906101000a900473ffffffffffffffffffffffffffffffffffffffff1673ffffffffffffffffffffffffffffffffffffffff163373ffffffffffffffffffffffffffffffffffffffff1614610a24576040517f08c379a000000000000000000000000000000000000000000000000000000000815260040180806020018281038252602281526020018061134e6022913960400191505060405180910390fd5b8160006003600083815260200190815260200160002060010180546001816001161561010002031660029004905014610aa8576040517f08c379a00000000000000000000000000000000000000000000000000000000081526004018080602001828103825260258152602001806113ca6025913960400191505060405180910390fd5b60405180604001604052808481526020018381525060036000858152602001908152602001600020600082015181600001556020820151816001019080519060200190610af6929190611254565b50905050505050565b6002602052806000526040600020600091509050806000015490806001018054600181600116156101000203166002900480601f016020809104026020016040519081016040528092919081815260200182805460018160011615610100020316600290048015610bb15780601f10610b8657610100808354040283529160200191610bb1565b820191906000526020600020905b815481529060010190602001808311610b9457829003601f168201915b5050505050908060020160009054906101000a900460ff16905083565b60015481565b6003602052806000526040600020600091509050806000015490806001018054600181600116156101000203166002900480601f016020809104026020016040519081016040528092919081815260200182805460018160011615610100020316600290048015610c865780601f10610c5b57610100808354040283529160200191610c86565b820191906000526020600020905b815481529060010190602001808311610c6957829003601f168201915b5050505050905082565b6000809054906101000a900473ffffffffffffffffffffffffffffffffffffffff1673ffffffffffffffffffffffffffffffffffffffff163373ffffffffffffffffffffffffffffffffffffffff161415610d36576040517f08c379a00000000000000000000000000000000000000000000000000000000081526004018080602001828103825260378152602001806113936037913960400191505060405180910390fd5b806001806002811115610d4557fe5b6002600084815260200190815260200160002060020160009054906101000a900460ff166002811115610d7457fe5b14610dca576040517f08c379a000000000000000000000000000000000000000000000000000000000815260040180806020018281038252602c815260200180611426602c913960400191505060405180910390fd5b50505050565b6000809054906101000a900473ffffffffffffffffffffffffffffffffffffffff1673ffffffffffffffffffffffffffffffffffffffff163373ffffffffffffffffffffffffffffffffffffffff1614610e75576040517f08c379a000000000000000000000000000000000000000000000000000000000815260040180806020018281038252602281526020018061134e6022913960400191505060405180910390fd5b806000806002811115610e8457fe5b6002600084815260200190815260200160002060020160009054906101000a900460ff166002811115610eb357fe5b14610f09576040517f08c379a000000000000000000000000000000000000000000000000000000000815260040180806020018281038252602c815260200180611426602c913960400191505060405180910390fd5b826000600360008381526020019081526020016000206001018054600181600116156101000203166002900490501415610fab576040517f08c379a000000000000000000000000000000000000000000000000000000000815260040180806020018281038252601e8152602001807f4c61206361727265726120696e67726573616461206e6f20657869737465000081525060200191505060405180910390fd5b8360026004600083815260200190815260200160002080549050101561101c576040517f08c379a000000000000000000000000000000000000000000000000000000000815260040180806020018281038252602e815260200180611320602e913960400191505060405180910390fd5b60016002600087815260200190815260200160002060020160006101000a81548160ff0219169083600281111561104f57fe5b02179055505050505050565b6000809054906101000a900473ffffffffffffffffffffffffffffffffffffffff1673ffffffffffffffffffffffffffffffffffffffff163373ffffffffffffffffffffffffffffffffffffffff1614611100576040517f08c379a000000000000000000000000000000000000000000000000000000000815260040180806020018281038252602281526020018061134e6022913960400191505060405180910390fd5b8160006002600083815260200190815260200160002060010180546001816001161561010002031660029004905014611184576040517f08c379a00000000000000000000000000000000000000000000000000000000081526004018080602001828103825260268152602001806112fa6026913960400191505060405180910390fd5b6040518060600160405280848152602001838152602001600060028111156111a857fe5b815250600260008581526020019081526020016000206000820151816000015560208201518160010190805190602001906111e4929190611254565b5060408201518160020160006101000a81548160ff0219169083600281111561120957fe5b021790555090505060018060008282540192505081905550505050565b6004602052816000526040600020818154811061123f57fe5b90600052602060002001600091509150505481565b828054600181600116156101000203166002900490600052602060002090601f016020900481019282601f1061129557805160ff19168380011785556112c3565b828001600101855582156112c3579182015b828111156112c25782518255916020019190600101906112a7565b5b5090506112d091906112d4565b5090565b6112f691905b808211156112f25760008160009055506001016112da565b5090565b9056fe59612065786973746520756e61206361727265726120636f6e20657374652063c3b36469676f4c612063617272657261206465626520636f6e74617220636f6e20616c206d656e6f73203220636162616c6c6f73456c20696e766f6361646f7220646562652073657220656c20616e66697472696f6e4c612063617272657261207961206375656e746120636f6e203520636162616c6c6f73456c20696e766f6361646f7220646562652073657220756e207573756172696f206469666572656e746520616c20616e66697472696f6e59612065786973746520756e20636162616c6c6f20636f6e20657374652063c3b36469676f4573746520636162616c6c6f20796120736520656e6375656e747261207265676973747261646f20656e206573746120636172726572614c612063617272657261206e6f2063756d706c6520636f6e20656c2065737461646f2072657175657269646fa2646970667358221220bb747a77e9f92c0ed00cb3f69d205c77cf06dd74f6986564895c29b076d8ca0264736f6c63430006000033",
					"opcodes": "PUSH1 0x80 PUSH1 0x40 MSTORE CALLVALUE DUP1 ISZERO PUSH2 0x10 JUMPI PUSH1 0x0 DUP1 REVERT JUMPDEST POP CALLER PUSH1 0x0 DUP1 PUSH2 0x100 EXP DUP2 SLOAD DUP2 PUSH20 0xFFFFFFFFFFFFFFFFFFFFFFFFFFFFFFFFFFFFFFFF MUL NOT AND SWAP1 DUP4 PUSH20 0xFFFFFFFFFFFFFFFFFFFFFFFFFFFFFFFFFFFFFFFF AND MUL OR SWAP1 SSTORE POP PUSH2 0x1487 DUP1 PUSH2 0x60 PUSH1 0x0 CODECOPY PUSH1 0x0 RETURN INVALID PUSH1 0x80 PUSH1 0x40 MSTORE PUSH1 0x4 CALLDATASIZE LT PUSH2 0x91 JUMPI PUSH1 0x0 CALLDATALOAD PUSH1 0xE0 SHR DUP1 PUSH4 0xF0B73B54 GT PUSH2 0x59 JUMPI DUP1 PUSH4 0xF0B73B54 EQ PUSH2 0x2FF JUMPI DUP1 PUSH4 0xF2F6DA3E EQ PUSH2 0x3BA JUMPI DUP1 PUSH4 0xF7EDD6DB EQ PUSH2 0x3F2 JUMPI DUP1 PUSH4 0xF9D32E49 EQ PUSH2 0x42D JUMPI DUP1 PUSH4 0xFB34D0F7 EQ PUSH2 0x4FF JUMPI PUSH2 0x91 JUMP JUMPDEST DUP1 PUSH4 0x26D1C7D0 EQ PUSH2 0x96 JUMPI DUP1 PUSH4 0x456F4B57 EQ PUSH2 0xDB JUMPI DUP1 PUSH4 0x5194F59C EQ PUSH2 0x132 JUMPI DUP1 PUSH4 0x5EE81666 EQ PUSH2 0x204 JUMPI DUP1 PUSH4 0xE9EC5583 EQ PUSH2 0x2D4 JUMPI JUMPDEST PUSH1 0x0 DUP1 REVERT JUMPDEST CALLVALUE DUP1 ISZERO PUSH2 0xA2 JUMPI PUSH1 0x0 DUP1 REVERT JUMPDEST POP PUSH2 0xD9 PUSH1 0x4 DUP1 CALLDATASIZE SUB PUSH1 0x40 DUP2 LT ISZERO PUSH2 0xB9 JUMPI PUSH1 0x0 DUP1 REVERT JUMPDEST DUP2 ADD SWAP1 DUP1 DUP1 CALLDATALOAD SWAP1 PUSH1 0x20 ADD SWAP1 SWAP3 SWAP2 SWAP1 DUP1 CALLDATALOAD SWAP1 PUSH1 0x20 ADD SWAP1 SWAP3 SWAP2 SWAP1 POP POP POP PUSH2 0x558 JUMP JUMPDEST STOP JUMPDEST CALLVALUE DUP1 ISZERO PUSH2 0xE7 JUMPI PUSH1 0x0 DUP1 REVERT JUMPDEST POP PUSH2 0xF0 PUSH2 0x95A JUMP JUMPDEST PUSH1 0x40 MLOAD DUP1 DUP3 PUSH20 0xFFFFFFFFFFFFFFFFFFFFFFFFFFFFFFFFFFFFFFFF AND PUSH20 0xFFFFFFFFFFFFFFFFFFFFFFFFFFFFFFFFFFFFFFFF AND DUP2 MSTORE PUSH1 0x20 ADD SWAP2 POP POP PUSH1 0x40 MLOAD DUP1 SWAP2 SUB SWAP1 RETURN JUMPDEST CALLVALUE DUP1 ISZERO PUSH2 0x13E JUMPI PUSH1 0x0 DUP1 REVERT JUMPDEST POP PUSH2 0x202 PUSH1 0x4 DUP1 CALLDATASIZE SUB PUSH1 0x40 DUP2 LT ISZERO PUSH2 0x155 JUMPI PUSH1 0x0 DUP1 REVERT JUMPDEST DUP2 ADD SWAP1 DUP1 DUP1 CALLDATALOAD SWAP1 PUSH1 0x20 ADD SWAP1 SWAP3 SWAP2 SWAP1 DUP1 CALLDATALOAD SWAP1 PUSH1 0x20 ADD SWAP1 PUSH5 0x100000000 DUP2 GT ISZERO PUSH2 0x17C JUMPI PUSH1 0x0 DUP1 REVERT JUMPDEST DUP3 ADD DUP4 PUSH1 0x20 DUP3 ADD GT ISZERO PUSH2 0x18E JUMPI PUSH1 0x0 DUP1 REVERT JUMPDEST DUP1 CALLDATALOAD SWAP1 PUSH1 0x20 ADD SWAP2 DUP5 PUSH1 0x1 DUP4 MUL DUP5 ADD GT PUSH5 0x100000000 DUP4 GT OR ISZERO PUSH2 0x1B0 JUMPI PUSH1 0x0 DUP1 REVERT JUMPDEST SWAP2 SWAP1 DUP1 DUP1 PUSH1 0x1F ADD PUSH1 0x20 DUP1 SWAP2 DIV MUL PUSH1 0x20 ADD PUSH1 0x40 MLOAD SWAP1 DUP2 ADD PUSH1 0x40 MSTORE DUP1 SWAP4 SWAP3 SWAP2 SWAP1 DUP2 DUP2 MSTORE PUSH1 0x20 ADD DUP4 DUP4 DUP1 DUP3 DUP5 CALLDATACOPY PUSH1 0x0 DUP2 DUP5 ADD MSTORE PUSH1 0x1F NOT PUSH1 0x1F DUP3 ADD AND SWAP1 POP DUP1 DUP4 ADD SWAP3 POP POP POP POP POP POP POP SWAP2 SWAP3 SWAP2 SWAP3 SWAP1 POP POP POP PUSH2 0x97F JUMP JUMPDEST STOP JUMPDEST CALLVALUE DUP1 ISZERO PUSH2 0x210 JUMPI PUSH1 0x0 DUP1 REVERT JUMPDEST POP PUSH2 0x23D PUSH1 0x4 DUP1 CALLDATASIZE SUB PUSH1 0x20 DUP2 LT ISZERO PUSH2 0x227 JUMPI PUSH1 0x0 DUP1 REVERT JUMPDEST DUP2 ADD SWAP1 DUP1 DUP1 CALLDATALOAD SWAP1 PUSH1 0x20 ADD SWAP1 SWAP3 SWAP2 SWAP1 POP POP POP PUSH2 0xAFF JUMP JUMPDEST PUSH1 0x40 MLOAD DUP1 DUP5 DUP2 MSTORE PUSH1 0x20 ADD DUP1 PUSH1 0x20 ADD DUP4 PUSH1 0x2 DUP2 GT ISZERO PUSH2 0x257 JUMPI INVALID JUMPDEST PUSH1 0xFF AND DUP2 MSTORE PUSH1 0x20 ADD DUP3 DUP2 SUB DUP3 MSTORE DUP5 DUP2 DUP2 MLOAD DUP2 MSTORE PUSH1 0x20 ADD SWAP2 POP DUP1 MLOAD SWAP1 PUSH1 0x20 ADD SWAP1 DUP1 DUP4 DUP4 PUSH1 0x0 JUMPDEST DUP4 DUP2 LT ISZERO PUSH2 0x297 JUMPI DUP1 DUP3 ADD MLOAD DUP2 DUP5 ADD MSTORE PUSH1 0x20 DUP2 ADD SWAP1 POP PUSH2 0x27C JUMP JUMPDEST POP POP POP POP SWAP1 POP SWAP1 DUP2 ADD SWAP1 PUSH1 0x1F AND DUP1 ISZERO PUSH2 0x2C4 JUMPI DUP1 DUP3 SUB DUP1 MLOAD PUSH1 0x1 DUP4 PUSH1 0x20 SUB PUSH2 0x100 EXP SUB NOT AND DUP2 MSTORE PUSH1 0x20 ADD SWAP2 POP JUMPDEST POP SWAP5 POP POP POP POP POP PUSH1 0x40 MLOAD DUP1 SWAP2 SUB SWAP1 RETURN JUMPDEST CALLVALUE DUP1 ISZERO PUSH2 0x2E0 JUMPI PUSH1 0x0 DUP1 REVERT JUMPDEST POP PUSH2 0x2E9 PUSH2 0xBCE JUMP JUMPDEST PUSH1 0x40 MLOAD DUP1 DUP3 DUP2 MSTORE PUSH1 0x20 ADD SWAP2 POP POP PUSH1 0x40 MLOAD DUP1 SWAP2 SUB SWAP1 RETURN JUMPDEST CALLVALUE DUP1 ISZERO PUSH2 0x30B JUMPI PUSH1 0x0 DUP1 REVERT JUMPDEST POP PUSH2 0x338 PUSH1 0x4 DUP1 CALLDATASIZE SUB PUSH1 0x20 DUP2 LT ISZERO PUSH2 0x322 JUMPI PUSH1 0x0 DUP1 REVERT JUMPDEST DUP2 ADD SWAP1 DUP1 DUP1 CALLDATALOAD SWAP1 PUSH1 0x20 ADD SWAP1 SWAP3 SWAP2 SWAP1 POP POP POP PUSH2 0xBD4 JUMP JUMPDEST PUSH1 0x40 MLOAD DUP1 DUP4 DUP2 MSTORE PUSH1 0x20 ADD DUP1 PUSH1 0x20 ADD DUP3 DUP2 SUB DUP3 MSTORE DUP4 DUP2 DUP2 MLOAD DUP2 MSTORE PUSH1 0x20 ADD SWAP2 POP DUP1 MLOAD SWAP1 PUSH1 0x20 ADD SWAP1 DUP1 DUP4 DUP4 PUSH1 0x0 JUMPDEST DUP4 DUP2 LT ISZERO PUSH2 0x37E JUMPI DUP1 DUP3 ADD MLOAD DUP2 DUP5 ADD MSTORE PUSH1 0x20 DUP2 ADD SWAP1 POP PUSH2 0x363 JUMP JUMPDEST POP POP POP POP SWAP1 POP SWAP1 DUP2 ADD SWAP1 PUSH1 0x1F AND DUP1 ISZERO PUSH2 0x3AB JUMPI DUP1 DUP3 SUB DUP1 MLOAD PUSH1 0x1 DUP4 PUSH1 0x20 SUB PUSH2 0x100 EXP SUB NOT AND DUP2 MSTORE PUSH1 0x20 ADD SWAP2 POP JUMPDEST POP SWAP4 POP POP POP POP PUSH1 0x40 MLOAD DUP1 SWAP2 SUB SWAP1 RETURN JUMPDEST PUSH2 0x3F0 PUSH1 0x4 DUP1 CALLDATASIZE SUB PUSH1 0x40 DUP2 LT ISZERO PUSH2 0x3D0 JUMPI PUSH1 0x0 DUP1 REVERT JUMPDEST DUP2 ADD SWAP1 DUP1 DUP1 CALLDATALOAD SWAP1 PUSH1 0x20 ADD SWAP1 SWAP3 SWAP2 SWAP1 DUP1 CALLDATALOAD SWAP1 PUSH1 0x20 ADD SWAP1 SWAP3 SWAP2 SWAP1 POP POP POP PUSH2 0xC90 JUMP JUMPDEST STOP JUMPDEST CALLVALUE DUP1 ISZERO PUSH2 0x3FE JUMPI PUSH1 0x0 DUP1 REVERT JUMPDEST POP PUSH2 0x42B PUSH1 0x4 DUP1 CALLDATASIZE SUB PUSH1 0x20 DUP2 LT ISZERO PUSH2 0x415 JUMPI PUSH1 0x0 DUP1 REVERT JUMPDEST DUP2 ADD SWAP1 DUP1 DUP1 CALLDATALOAD SWAP1 PUSH1 0x20 ADD SWAP1 SWAP3 SWAP2 SWAP1 POP POP POP PUSH2 0xDD0 JUMP JUMPDEST STOP JUMPDEST CALLVALUE DUP1 ISZERO PUSH2 0x439 JUMPI PUSH1 0x0 DUP1 REVERT JUMPDEST POP PUSH2 0x4FD PUSH1 0x4 DUP1 CALLDATASIZE SUB PUSH1 0x40 DUP2 LT ISZERO PUSH2 0x450 JUMPI PUSH1 0x0 DUP1 REVERT JUMPDEST DUP2 ADD SWAP1 DUP1 DUP1 CALLDATALOAD SWAP1 PUSH1 0x20 ADD SWAP1 SWAP3 SWAP2 SWAP1 DUP1 CALLDATALOAD SWAP1 PUSH1 0x20 ADD SWAP1 PUSH5 0x100000000 DUP2 GT ISZERO PUSH2 0x477 JUMPI PUSH1 0x0 DUP1 REVERT JUMPDEST DUP3 ADD DUP4 PUSH1 0x20 DUP3 ADD GT ISZERO PUSH2 0x489 JUMPI PUSH1 0x0 DUP1 REVERT JUMPDEST DUP1 CALLDATALOAD SWAP1 PUSH1 0x20 ADD SWAP2 DUP5 PUSH1 0x1 DUP4 MUL DUP5 ADD GT PUSH5 0x100000000 DUP4 GT OR ISZERO PUSH2 0x4AB JUMPI PUSH1 0x0 DUP1 REVERT JUMPDEST SWAP2 SWAP1 DUP1 DUP1 PUSH1 0x1F ADD PUSH1 0x20 DUP1 SWAP2 DIV MUL PUSH1 0x20 ADD PUSH1 0x40 MLOAD SWAP1 DUP2 ADD PUSH1 0x40 MSTORE DUP1 SWAP4 SWAP3 SWAP2 SWAP1 DUP2 DUP2 MSTORE PUSH1 0x20 ADD DUP4 DUP4 DUP1 DUP3 DUP5 CALLDATACOPY PUSH1 0x0 DUP2 DUP5 ADD MSTORE PUSH1 0x1F NOT PUSH1 0x1F DUP3 ADD AND SWAP1 POP DUP1 DUP4 ADD SWAP3 POP POP POP POP POP POP POP SWAP2 SWAP3 SWAP2 SWAP3 SWAP1 POP POP POP PUSH2 0x105B JUMP JUMPDEST STOP JUMPDEST CALLVALUE DUP1 ISZERO PUSH2 0x50B JUMPI PUSH1 0x0 DUP1 REVERT JUMPDEST POP PUSH2 0x542 PUSH1 0x4 DUP1 CALLDATASIZE SUB PUSH1 0x40 DUP2 LT ISZERO PUSH2 0x522 JUMPI PUSH1 0x0 DUP1 REVERT JUMPDEST DUP2 ADD SWAP1 DUP1 DUP1 CALLDATALOAD SWAP1 PUSH1 0x20 ADD SWAP1 SWAP3 SWAP2 SWAP1 DUP1 CALLDATALOAD SWAP1 PUSH1 0x20 ADD SWAP1 SWAP3 SWAP2 SWAP1 POP POP POP PUSH2 0x1226 JUMP JUMPDEST PUSH1 0x40 MLOAD DUP1 DUP3 DUP2 MSTORE PUSH1 0x20 ADD SWAP2 POP POP PUSH1 0x40 MLOAD DUP1 SWAP2 SUB SWAP1 RETURN JUMPDEST PUSH1 0x0 DUP1 SWAP1 SLOAD SWAP1 PUSH2 0x100 EXP SWAP1 DIV PUSH20 0xFFFFFFFFFFFFFFFFFFFFFFFFFFFFFFFFFFFFFFFF AND PUSH20 0xFFFFFFFFFFFFFFFFFFFFFFFFFFFFFFFFFFFFFFFF AND CALLER PUSH20 0xFFFFFFFFFFFFFFFFFFFFFFFFFFFFFFFFFFFFFFFF AND EQ PUSH2 0x5FD JUMPI PUSH1 0x40 MLOAD PUSH32 0x8C379A000000000000000000000000000000000000000000000000000000000 DUP2 MSTORE PUSH1 0x4 ADD DUP1 DUP1 PUSH1 0x20 ADD DUP3 DUP2 SUB DUP3 MSTORE PUSH1 0x22 DUP2 MSTORE PUSH1 0x20 ADD DUP1 PUSH2 0x134E PUSH1 0x22 SWAP2 CODECOPY PUSH1 0x40 ADD SWAP2 POP POP PUSH1 0x40 MLOAD DUP1 SWAP2 SUB SWAP1 REVERT JUMPDEST DUP1 PUSH1 0x0 DUP1 PUSH1 0x2 DUP2 GT ISZERO PUSH2 0x60C JUMPI INVALID JUMPDEST PUSH1 0x2 PUSH1 0x0 DUP5 DUP2 MSTORE PUSH1 0x20 ADD SWAP1 DUP2 MSTORE PUSH1 0x20 ADD PUSH1 0x0 KECCAK256 PUSH1 0x2 ADD PUSH1 0x0 SWAP1 SLOAD SWAP1 PUSH2 0x100 EXP SWAP1 DIV PUSH1 0xFF AND PUSH1 0x2 DUP2 GT ISZERO PUSH2 0x63B JUMPI INVALID JUMPDEST EQ PUSH2 0x691 JUMPI PUSH1 0x40 MLOAD PUSH32 0x8C379A000000000000000000000000000000000000000000000000000000000 DUP2 MSTORE PUSH1 0x4 ADD DUP1 DUP1 PUSH1 0x20 ADD DUP3 DUP2 SUB DUP3 MSTORE PUSH1 0x2C DUP2 MSTORE PUSH1 0x20 ADD DUP1 PUSH2 0x1426 PUSH1 0x2C SWAP2 CODECOPY PUSH1 0x40 ADD SWAP2 POP POP PUSH1 0x40 MLOAD DUP1 SWAP2 SUB SWAP1 REVERT JUMPDEST DUP3 PUSH1 0x5 PUSH1 0x4 PUSH1 0x0 DUP4 DUP2 MSTORE PUSH1 0x20 ADD SWAP1 DUP2 MSTORE PUSH1 0x20 ADD PUSH1 0x0 KECCAK256 DUP1 SLOAD SWAP1 POP LT PUSH2 0x701 JUMPI PUSH1 0x40 MLOAD PUSH32 0x8C379A000000000000000000000000000000000000000000000000000000000 DUP2 MSTORE PUSH1 0x4 ADD DUP1 DUP1 PUSH1 0x20 ADD DUP3 DUP2 SUB DUP3 MSTORE PUSH1 0x23 DUP2 MSTORE PUSH1 0x20 ADD DUP1 PUSH2 0x1370 PUSH1 0x23 SWAP2 CODECOPY PUSH1 0x40 ADD SWAP2 POP POP PUSH1 0x40 MLOAD DUP1 SWAP2 SUB SWAP1 REVERT JUMPDEST DUP5 PUSH1 0x0 PUSH1 0x3 PUSH1 0x0 DUP4 DUP2 MSTORE PUSH1 0x20 ADD SWAP1 DUP2 MSTORE PUSH1 0x20 ADD PUSH1 0x0 KECCAK256 PUSH1 0x1 ADD DUP1 SLOAD PUSH1 0x1 DUP2 PUSH1 0x1 AND ISZERO PUSH2 0x100 MUL SUB AND PUSH1 0x2 SWAP1 DIV SWAP1 POP EQ ISZERO PUSH2 0x7A3 JUMPI PUSH1 0x40 MLOAD PUSH32 0x8C379A000000000000000000000000000000000000000000000000000000000 DUP2 MSTORE PUSH1 0x4 ADD DUP1 DUP1 PUSH1 0x20 ADD DUP3 DUP2 SUB DUP3 MSTORE PUSH1 0x1E DUP2 MSTORE PUSH1 0x20 ADD DUP1 PUSH32 0x456C20636162616C6C6F20696E6772657361646F206E6F206578697374650000 DUP2 MSTORE POP PUSH1 0x20 ADD SWAP2 POP POP PUSH1 0x40 MLOAD DUP1 SWAP2 SUB SWAP1 REVERT JUMPDEST DUP5 PUSH1 0x0 PUSH1 0x3 PUSH1 0x0 DUP4 DUP2 MSTORE PUSH1 0x20 ADD SWAP1 DUP2 MSTORE PUSH1 0x20 ADD PUSH1 0x0 KECCAK256 PUSH1 0x1 ADD DUP1 SLOAD PUSH1 0x1 DUP2 PUSH1 0x1 AND ISZERO PUSH2 0x100 MUL SUB AND PUSH1 0x2 SWAP1 DIV SWAP1 POP EQ ISZERO PUSH2 0x845 JUMPI PUSH1 0x40 MLOAD PUSH32 0x8C379A000000000000000000000000000000000000000000000000000000000 DUP2 MSTORE PUSH1 0x4 ADD DUP1 DUP1 PUSH1 0x20 ADD DUP3 DUP2 SUB DUP3 MSTORE PUSH1 0x1E DUP2 MSTORE PUSH1 0x20 ADD DUP1 PUSH32 0x4C61206361727265726120696E67726573616461206E6F206578697374650000 DUP2 MSTORE POP PUSH1 0x20 ADD SWAP2 POP POP PUSH1 0x40 MLOAD DUP1 SWAP2 SUB SWAP1 REVERT JUMPDEST DUP6 DUP8 PUSH1 0x0 PUSH1 0x4 PUSH1 0x0 DUP5 DUP2 MSTORE PUSH1 0x20 ADD SWAP1 DUP2 MSTORE PUSH1 0x20 ADD PUSH1 0x0 KECCAK256 DUP1 SLOAD SWAP1 POP SWAP1 POP PUSH1 0x0 DUP1 SWAP1 POP PUSH1 0x0 DUP1 SWAP1 POP JUMPDEST DUP3 DUP2 LT ISZERO PUSH2 0x8BB JUMPI DUP4 PUSH1 0x4 PUSH1 0x0 DUP8 DUP2 MSTORE PUSH1 0x20 ADD SWAP1 DUP2 MSTORE PUSH1 0x20 ADD PUSH1 0x0 KECCAK256 DUP3 DUP2 SLOAD DUP2 LT PUSH2 0x894 JUMPI INVALID JUMPDEST SWAP1 PUSH1 0x0 MSTORE PUSH1 0x20 PUSH1 0x0 KECCAK256 ADD SLOAD EQ ISZERO PUSH2 0x8AE JUMPI PUSH1 0x1 SWAP2 POP PUSH2 0x8BB JUMP JUMPDEST DUP1 DUP1 PUSH1 0x1 ADD SWAP2 POP POP PUSH2 0x86D JUMP JUMPDEST POP DUP1 ISZERO PUSH2 0x913 JUMPI PUSH1 0x40 MLOAD PUSH32 0x8C379A000000000000000000000000000000000000000000000000000000000 DUP2 MSTORE PUSH1 0x4 ADD DUP1 DUP1 PUSH1 0x20 ADD DUP3 DUP2 SUB DUP3 MSTORE PUSH1 0x37 DUP2 MSTORE PUSH1 0x20 ADD DUP1 PUSH2 0x13EF PUSH1 0x37 SWAP2 CODECOPY PUSH1 0x40 ADD SWAP2 POP POP PUSH1 0x40 MLOAD DUP1 SWAP2 SUB SWAP1 REVERT JUMPDEST PUSH1 0x4 PUSH1 0x0 DUP12 DUP2 MSTORE PUSH1 0x20 ADD SWAP1 DUP2 MSTORE PUSH1 0x20 ADD PUSH1 0x0 KECCAK256 DUP12 SWAP1 DUP1 PUSH1 0x1 DUP2 SLOAD ADD DUP1 DUP3 SSTORE DUP1 SWAP2 POP POP PUSH1 0x1 SWAP1 SUB SWAP1 PUSH1 0x0 MSTORE PUSH1 0x20 PUSH1 0x0 KECCAK256 ADD PUSH1 0x0 SWAP1 SWAP2 SWAP1 SWAP2 SWAP1 SWAP2 POP SSTORE POP POP POP POP POP POP POP POP POP POP POP JUMP JUMPDEST PUSH1 0x0 DUP1 SWAP1 SLOAD SWAP1 PUSH2 0x100 EXP SWAP1 DIV PUSH20 0xFFFFFFFFFFFFFFFFFFFFFFFFFFFFFFFFFFFFFFFF AND DUP2 JUMP JUMPDEST PUSH1 0x0 DUP1 SWAP1 SLOAD SWAP1 PUSH2 0x100 EXP SWAP1 DIV PUSH20 0xFFFFFFFFFFFFFFFFFFFFFFFFFFFFFFFFFFFFFFFF AND PUSH20 0xFFFFFFFFFFFFFFFFFFFFFFFFFFFFFFFFFFFFFFFF AND CALLER PUSH20 0xFFFFFFFFFFFFFFFFFFFFFFFFFFFFFFFFFFFFFFFF AND EQ PUSH2 0xA24 JUMPI PUSH1 0x40 MLOAD PUSH32 0x8C379A000000000000000000000000000000000000000000000000000000000 DUP2 MSTORE PUSH1 0x4 ADD DUP1 DUP1 PUSH1 0x20 ADD DUP3 DUP2 SUB DUP3 MSTORE PUSH1 0x22 DUP2 MSTORE PUSH1 0x20 ADD DUP1 PUSH2 0x134E PUSH1 0x22 SWAP2 CODECOPY PUSH1 0x40 ADD SWAP2 POP POP PUSH1 0x40 MLOAD DUP1 SWAP2 SUB SWAP1 REVERT JUMPDEST DUP2 PUSH1 0x0 PUSH1 0x3 PUSH1 0x0 DUP4 DUP2 MSTORE PUSH1 0x20 ADD SWAP1 DUP2 MSTORE PUSH1 0x20 ADD PUSH1 0x0 KECCAK256 PUSH1 0x1 ADD DUP1 SLOAD PUSH1 0x1 DUP2 PUSH1 0x1 AND ISZERO PUSH2 0x100 MUL SUB AND PUSH1 0x2 SWAP1 DIV SWAP1 POP EQ PUSH2 0xAA8 JUMPI PUSH1 0x40 MLOAD PUSH32 0x8C379A000000000000000000000000000000000000000000000000000000000 DUP2 MSTORE PUSH1 0x4 ADD DUP1 DUP1 PUSH1 0x20 ADD DUP3 DUP2 SUB DUP3 MSTORE PUSH1 0x25 DUP2 MSTORE PUSH1 0x20 ADD DUP1 PUSH2 0x13CA PUSH1 0x25 SWAP2 CODECOPY PUSH1 0x40 ADD SWAP2 POP POP PUSH1 0x40 MLOAD DUP1 SWAP2 SUB SWAP1 REVERT JUMPDEST PUSH1 0x40 MLOAD DUP1 PUSH1 0x40 ADD PUSH1 0x40 MSTORE DUP1 DUP5 DUP2 MSTORE PUSH1 0x20 ADD DUP4 DUP2 MSTORE POP PUSH1 0x3 PUSH1 0x0 DUP6 DUP2 MSTORE PUSH1 0x20 ADD SWAP1 DUP2 MSTORE PUSH1 0x20 ADD PUSH1 0x0 KECCAK256 PUSH1 0x0 DUP3 ADD MLOAD DUP2 PUSH1 0x0 ADD SSTORE PUSH1 0x20 DUP3 ADD MLOAD DUP2 PUSH1 0x1 ADD SWAP1 DUP1 MLOAD SWAP1 PUSH1 0x20 ADD SWAP1 PUSH2 0xAF6 SWAP3 SWAP2 SWAP1 PUSH2 0x1254 JUMP JUMPDEST POP SWAP1 POP POP POP POP POP JUMP JUMPDEST PUSH1 0x2 PUSH1 0x20 MSTORE DUP1 PUSH1 0x0 MSTORE PUSH1 0x40 PUSH1 0x0 KECCAK256 PUSH1 0x0 SWAP2 POP SWAP1 POP DUP1 PUSH1 0x0 ADD SLOAD SWAP1 DUP1 PUSH1 0x1 ADD DUP1 SLOAD PUSH1 0x1 DUP2 PUSH1 0x1 AND ISZERO PUSH2 0x100 MUL SUB AND PUSH1 0x2 SWAP1 DIV DUP1 PUSH1 0x1F ADD PUSH1 0x20 DUP1 SWAP2 DIV MUL PUSH1 0x20 ADD PUSH1 0x40 MLOAD SWAP1 DUP2 ADD PUSH1 0x40 MSTORE DUP1 SWAP3 SWAP2 SWAP1 DUP2 DUP2 MSTORE PUSH1 0x20 ADD DUP3 DUP1 SLOAD PUSH1 0x1 DUP2 PUSH1 0x1 AND ISZERO PUSH2 0x100 MUL SUB AND PUSH1 0x2 SWAP1 DIV DUP1 ISZERO PUSH2 0xBB1 JUMPI DUP1 PUSH1 0x1F LT PUSH2 0xB86 JUMPI PUSH2 0x100 DUP1 DUP4 SLOAD DIV MUL DUP4 MSTORE SWAP2 PUSH1 0x20 ADD SWAP2 PUSH2 0xBB1 JUMP JUMPDEST DUP3 ADD SWAP2 SWAP1 PUSH1 0x0 MSTORE PUSH1 0x20 PUSH1 0x0 KECCAK256 SWAP1 JUMPDEST DUP2 SLOAD DUP2 MSTORE SWAP1 PUSH1 0x1 ADD SWAP1 PUSH1 0x20 ADD DUP1 DUP4 GT PUSH2 0xB94 JUMPI DUP3 SWAP1 SUB PUSH1 0x1F AND DUP3 ADD SWAP2 JUMPDEST POP POP POP POP POP SWAP1 DUP1 PUSH1 0x2 ADD PUSH1 0x0 SWAP1 SLOAD SWAP1 PUSH2 0x100 EXP SWAP1 DIV PUSH1 0xFF AND SWAP1 POP DUP4 JUMP JUMPDEST PUSH1 0x1 SLOAD DUP2 JUMP JUMPDEST PUSH1 0x3 PUSH1 0x20 MSTORE DUP1 PUSH1 0x0 MSTORE PUSH1 0x40 PUSH1 0x0 KECCAK256 PUSH1 0x0 SWAP2 POP SWAP1 POP DUP1 PUSH1 0x0 ADD SLOAD SWAP1 DUP1 PUSH1 0x1 ADD DUP1 SLOAD PUSH1 0x1 DUP2 PUSH1 0x1 AND ISZERO PUSH2 0x100 MUL SUB AND PUSH1 0x2 SWAP1 DIV DUP1 PUSH1 0x1F ADD PUSH1 0x20 DUP1 SWAP2 DIV MUL PUSH1 0x20 ADD PUSH1 0x40 MLOAD SWAP1 DUP2 ADD PUSH1 0x40 MSTORE DUP1 SWAP3 SWAP2 SWAP1 DUP2 DUP2 MSTORE PUSH1 0x20 ADD DUP3 DUP1 SLOAD PUSH1 0x1 DUP2 PUSH1 0x1 AND ISZERO PUSH2 0x100 MUL SUB AND PUSH1 0x2 SWAP1 DIV DUP1 ISZERO PUSH2 0xC86 JUMPI DUP1 PUSH1 0x1F LT PUSH2 0xC5B JUMPI PUSH2 0x100 DUP1 DUP4 SLOAD DIV MUL DUP4 MSTORE SWAP2 PUSH1 0x20 ADD SWAP2 PUSH2 0xC86 JUMP JUMPDEST DUP3 ADD SWAP2 SWAP1 PUSH1 0x0 MSTORE PUSH1 0x20 PUSH1 0x0 KECCAK256 SWAP1 JUMPDEST DUP2 SLOAD DUP2 MSTORE SWAP1 PUSH1 0x1 ADD SWAP1 PUSH1 0x20 ADD DUP1 DUP4 GT PUSH2 0xC69 JUMPI DUP3 SWAP1 SUB PUSH1 0x1F AND DUP3 ADD SWAP2 JUMPDEST POP POP POP POP POP SWAP1 POP DUP3 JUMP JUMPDEST PUSH1 0x0 DUP1 SWAP1 SLOAD SWAP1 PUSH2 0x100 EXP SWAP1 DIV PUSH20 0xFFFFFFFFFFFFFFFFFFFFFFFFFFFFFFFFFFFFFFFF AND PUSH20 0xFFFFFFFFFFFFFFFFFFFFFFFFFFFFFFFFFFFFFFFF AND CALLER PUSH20 0xFFFFFFFFFFFFFFFFFFFFFFFFFFFFFFFFFFFFFFFF AND EQ ISZERO PUSH2 0xD36 JUMPI PUSH1 0x40 MLOAD PUSH32 0x8C379A000000000000000000000000000000000000000000000000000000000 DUP2 MSTORE PUSH1 0x4 ADD DUP1 DUP1 PUSH1 0x20 ADD DUP3 DUP2 SUB DUP3 MSTORE PUSH1 0x37 DUP2 MSTORE PUSH1 0x20 ADD DUP1 PUSH2 0x1393 PUSH1 0x37 SWAP2 CODECOPY PUSH1 0x40 ADD SWAP2 POP POP PUSH1 0x40 MLOAD DUP1 SWAP2 SUB SWAP1 REVERT JUMPDEST DUP1 PUSH1 0x1 DUP1 PUSH1 0x2 DUP2 GT ISZERO PUSH2 0xD45 JUMPI INVALID JUMPDEST PUSH1 0x2 PUSH1 0x0 DUP5 DUP2 MSTORE PUSH1 0x20 ADD SWAP1 DUP2 MSTORE PUSH1 0x20 ADD PUSH1 0x0 KECCAK256 PUSH1 0x2 ADD PUSH1 0x0 SWAP1 SLOAD SWAP1 PUSH2 0x100 EXP SWAP1 DIV PUSH1 0xFF AND PUSH1 0x2 DUP2 GT ISZERO PUSH2 0xD74 JUMPI INVALID JUMPDEST EQ PUSH2 0xDCA JUMPI PUSH1 0x40 MLOAD PUSH32 0x8C379A000000000000000000000000000000000000000000000000000000000 DUP2 MSTORE PUSH1 0x4 ADD DUP1 DUP1 PUSH1 0x20 ADD DUP3 DUP2 SUB DUP3 MSTORE PUSH1 0x2C DUP2 MSTORE PUSH1 0x20 ADD DUP1 PUSH2 0x1426 PUSH1 0x2C SWAP2 CODECOPY PUSH1 0x40 ADD SWAP2 POP POP PUSH1 0x40 MLOAD DUP1 SWAP2 SUB SWAP1 REVERT JUMPDEST POP POP POP POP JUMP JUMPDEST PUSH1 0x0 DUP1 SWAP1 SLOAD SWAP1 PUSH2 0x100 EXP SWAP1 DIV PUSH20 0xFFFFFFFFFFFFFFFFFFFFFFFFFFFFFFFFFFFFFFFF AND PUSH20 0xFFFFFFFFFFFFFFFFFFFFFFFFFFFFFFFFFFFFFFFF AND CALLER PUSH20 0xFFFFFFFFFFFFFFFFFFFFFFFFFFFFFFFFFFFFFFFF AND EQ PUSH2 0xE75 JUMPI PUSH1 0x40 MLOAD PUSH32 0x8C379A000000000000000000000000000000000000000000000000000000000 DUP2 MSTORE PUSH1 0x4 ADD DUP1 DUP1 PUSH1 0x20 ADD DUP3 DUP2 SUB DUP3 MSTORE PUSH1 0x22 DUP2 MSTORE PUSH1 0x20 ADD DUP1 PUSH2 0x134E PUSH1 0x22 SWAP2 CODECOPY PUSH1 0x40 ADD SWAP2 POP POP PUSH1 0x40 MLOAD DUP1 SWAP2 SUB SWAP1 REVERT JUMPDEST DUP1 PUSH1 0x0 DUP1 PUSH1 0x2 DUP2 GT ISZERO PUSH2 0xE84 JUMPI INVALID JUMPDEST PUSH1 0x2 PUSH1 0x0 DUP5 DUP2 MSTORE PUSH1 0x20 ADD SWAP1 DUP2 MSTORE PUSH1 0x20 ADD PUSH1 0x0 KECCAK256 PUSH1 0x2 ADD PUSH1 0x0 SWAP1 SLOAD SWAP1 PUSH2 0x100 EXP SWAP1 DIV PUSH1 0xFF AND PUSH1 0x2 DUP2 GT ISZERO PUSH2 0xEB3 JUMPI INVALID JUMPDEST EQ PUSH2 0xF09 JUMPI PUSH1 0x40 MLOAD PUSH32 0x8C379A000000000000000000000000000000000000000000000000000000000 DUP2 MSTORE PUSH1 0x4 ADD DUP1 DUP1 PUSH1 0x20 ADD DUP3 DUP2 SUB DUP3 MSTORE PUSH1 0x2C DUP2 MSTORE PUSH1 0x20 ADD DUP1 PUSH2 0x1426 PUSH1 0x2C SWAP2 CODECOPY PUSH1 0x40 ADD SWAP2 POP POP PUSH1 0x40 MLOAD DUP1 SWAP2 SUB SWAP1 REVERT JUMPDEST DUP3 PUSH1 0x0 PUSH1 0x3 PUSH1 0x0 DUP4 DUP2 MSTORE PUSH1 0x20 ADD SWAP1 DUP2 MSTORE PUSH1 0x20 ADD PUSH1 0x0 KECCAK256 PUSH1 0x1 ADD DUP1 SLOAD PUSH1 0x1 DUP2 PUSH1 0x1 AND ISZERO PUSH2 0x100 MUL SUB AND PUSH1 0x2 SWAP1 DIV SWAP1 POP EQ ISZERO PUSH2 0xFAB JUMPI PUSH1 0x40 MLOAD PUSH32 0x8C379A000000000000000000000000000000000000000000000000000000000 DUP2 MSTORE PUSH1 0x4 ADD DUP1 DUP1 PUSH1 0x20 ADD DUP3 DUP2 SUB DUP3 MSTORE PUSH1 0x1E DUP2 MSTORE PUSH1 0x20 ADD DUP1 PUSH32 0x4C61206361727265726120696E67726573616461206E6F206578697374650000 DUP2 MSTORE POP PUSH1 0x20 ADD SWAP2 POP POP PUSH1 0x40 MLOAD DUP1 SWAP2 SUB SWAP1 REVERT JUMPDEST DUP4 PUSH1 0x2 PUSH1 0x4 PUSH1 0x0 DUP4 DUP2 MSTORE PUSH1 0x20 ADD SWAP1 DUP2 MSTORE PUSH1 0x20 ADD PUSH1 0x0 KECCAK256 DUP1 SLOAD SWAP1 POP LT ISZERO PUSH2 0x101C JUMPI PUSH1 0x40 MLOAD PUSH32 0x8C379A000000000000000000000000000000000000000000000000000000000 DUP2 MSTORE PUSH1 0x4 ADD DUP1 DUP1 PUSH1 0x20 ADD DUP3 DUP2 SUB DUP3 MSTORE PUSH1 0x2E DUP2 MSTORE PUSH1 0x20 ADD DUP1 PUSH2 0x1320 PUSH1 0x2E SWAP2 CODECOPY PUSH1 0x40 ADD SWAP2 POP POP PUSH1 0x40 MLOAD DUP1 SWAP2 SUB SWAP1 REVERT JUMPDEST PUSH1 0x1 PUSH1 0x2 PUSH1 0x0 DUP8 DUP2 MSTORE PUSH1 0x20 ADD SWAP1 DUP2 MSTORE PUSH1 0x20 ADD PUSH1 0x0 KECCAK256 PUSH1 0x2 ADD PUSH1 0x0 PUSH2 0x100 EXP DUP2 SLOAD DUP2 PUSH1 0xFF MUL NOT AND SWAP1 DUP4 PUSH1 0x2 DUP2 GT ISZERO PUSH2 0x104F JUMPI INVALID JUMPDEST MUL OR SWAP1 SSTORE POP POP POP POP POP POP JUMP JUMPDEST PUSH1 0x0 DUP1 SWAP1 SLOAD SWAP1 PUSH2 0x100 EXP SWAP1 DIV PUSH20 0xFFFFFFFFFFFFFFFFFFFFFFFFFFFFFFFFFFFFFFFF AND PUSH20 0xFFFFFFFFFFFFFFFFFFFFFFFFFFFFFFFFFFFFFFFF AND CALLER PUSH20 0xFFFFFFFFFFFFFFFFFFFFFFFFFFFFFFFFFFFFFFFF AND EQ PUSH2 0x1100 JUMPI PUSH1 0x40 MLOAD PUSH32 0x8C379A000000000000000000000000000000000000000000000000000000000 DUP2 MSTORE PUSH1 0x4 ADD DUP1 DUP1 PUSH1 0x20 ADD DUP3 DUP2 SUB DUP3 MSTORE PUSH1 0x22 DUP2 MSTORE PUSH1 0x20 ADD DUP1 PUSH2 0x134E PUSH1 0x22 SWAP2 CODECOPY PUSH1 0x40 ADD SWAP2 POP POP PUSH1 0x40 MLOAD DUP1 SWAP2 SUB SWAP1 REVERT JUMPDEST DUP2 PUSH1 0x0 PUSH1 0x2 PUSH1 0x0 DUP4 DUP2 MSTORE PUSH1 0x20 ADD SWAP1 DUP2 MSTORE PUSH1 0x20 ADD PUSH1 0x0 KECCAK256 PUSH1 0x1 ADD DUP1 SLOAD PUSH1 0x1 DUP2 PUSH1 0x1 AND ISZERO PUSH2 0x100 MUL SUB AND PUSH1 0x2 SWAP1 DIV SWAP1 POP EQ PUSH2 0x1184 JUMPI PUSH1 0x40 MLOAD PUSH32 0x8C379A000000000000000000000000000000000000000000000000000000000 DUP2 MSTORE PUSH1 0x4 ADD DUP1 DUP1 PUSH1 0x20 ADD DUP3 DUP2 SUB DUP3 MSTORE PUSH1 0x26 DUP2 MSTORE PUSH1 0x20 ADD DUP1 PUSH2 0x12FA PUSH1 0x26 SWAP2 CODECOPY PUSH1 0x40 ADD SWAP2 POP POP PUSH1 0x40 MLOAD DUP1 SWAP2 SUB SWAP1 REVERT JUMPDEST PUSH1 0x40 MLOAD DUP1 PUSH1 0x60 ADD PUSH1 0x40 MSTORE DUP1 DUP5 DUP2 MSTORE PUSH1 0x20 ADD DUP4 DUP2 MSTORE PUSH1 0x20 ADD PUSH1 0x0 PUSH1 0x2 DUP2 GT ISZERO PUSH2 0x11A8 JUMPI INVALID JUMPDEST DUP2 MSTORE POP PUSH1 0x2 PUSH1 0x0 DUP6 DUP2 MSTORE PUSH1 0x20 ADD SWAP1 DUP2 MSTORE PUSH1 0x20 ADD PUSH1 0x0 KECCAK256 PUSH1 0x0 DUP3 ADD MLOAD DUP2 PUSH1 0x0 ADD SSTORE PUSH1 0x20 DUP3 ADD MLOAD DUP2 PUSH1 0x1 ADD SWAP1 DUP1 MLOAD SWAP1 PUSH1 0x20 ADD SWAP1 PUSH2 0x11E4 SWAP3 SWAP2 SWAP1 PUSH2 0x1254 JUMP JUMPDEST POP PUSH1 0x40 DUP3 ADD MLOAD DUP2 PUSH1 0x2 ADD PUSH1 0x0 PUSH2 0x100 EXP DUP2 SLOAD DUP2 PUSH1 0xFF MUL NOT AND SWAP1 DUP4 PUSH1 0x2 DUP2 GT ISZERO PUSH2 0x1209 JUMPI INVALID JUMPDEST MUL OR SWAP1 SSTORE POP SWAP1 POP POP PUSH1 0x1 DUP1 PUSH1 0x0 DUP3 DUP3 SLOAD ADD SWAP3 POP POP DUP2 SWAP1 SSTORE POP POP POP POP JUMP JUMPDEST PUSH1 0x4 PUSH1 0x20 MSTORE DUP2 PUSH1 0x0 MSTORE PUSH1 0x40 PUSH1 0x0 KECCAK256 DUP2 DUP2 SLOAD DUP2 LT PUSH2 0x123F JUMPI INVALID JUMPDEST SWAP1 PUSH1 0x0 MSTORE PUSH1 0x20 PUSH1 0x0 KECCAK256 ADD PUSH1 0x0 SWAP2 POP SWAP2 POP POP SLOAD DUP2 JUMP JUMPDEST DUP3 DUP1 SLOAD PUSH1 0x1 DUP2 PUSH1 0x1 AND ISZERO PUSH2 0x100 MUL SUB AND PUSH1 0x2 SWAP1 DIV SWAP1 PUSH1 0x0 MSTORE PUSH1 0x20 PUSH1 0x0 KECCAK256 SWAP1 PUSH1 0x1F ADD PUSH1 0x20 SWAP1 DIV DUP2 ADD SWAP3 DUP3 PUSH1 0x1F LT PUSH2 0x1295 JUMPI DUP1 MLOAD PUSH1 0xFF NOT AND DUP4 DUP1 ADD OR DUP6 SSTORE PUSH2 0x12C3 JUMP JUMPDEST DUP3 DUP1 ADD PUSH1 0x1 ADD DUP6 SSTORE DUP3 ISZERO PUSH2 0x12C3 JUMPI SWAP2 DUP3 ADD JUMPDEST DUP3 DUP2 GT ISZERO PUSH2 0x12C2 JUMPI DUP3 MLOAD DUP3 SSTORE SWAP2 PUSH1 0x20 ADD SWAP2 SWAP1 PUSH1 0x1 ADD SWAP1 PUSH2 0x12A7 JUMP JUMPDEST JUMPDEST POP SWAP1 POP PUSH2 0x12D0 SWAP2 SWAP1 PUSH2 0x12D4 JUMP JUMPDEST POP SWAP1 JUMP JUMPDEST PUSH2 0x12F6 SWAP2 SWAP1 JUMPDEST DUP1 DUP3 GT ISZERO PUSH2 0x12F2 JUMPI PUSH1 0x0 DUP2 PUSH1 0x0 SWAP1 SSTORE POP PUSH1 0x1 ADD PUSH2 0x12DA JUMP JUMPDEST POP SWAP1 JUMP JUMPDEST SWAP1 JUMP INVALID MSIZE PUSH2 0x2065 PUSH25 0x6973746520756E61206361727265726120636F6E2065737465 KECCAK256 PUSH4 0xC3B36469 PUSH8 0x6F4C612063617272 PUSH6 0x726120646562 PUSH6 0x20636F6E7461 PUSH19 0x20636F6E20616C206D656E6F73203220636162 PUSH2 0x6C6C PUSH16 0x73456C20696E766F6361646F72206465 PUSH3 0x652073 PUSH6 0x7220656C2061 PUSH15 0x66697472696F6E4C61206361727265 PUSH19 0x61207961206375656E746120636F6E20352063 PUSH2 0x6261 PUSH13 0x6C6F73456C20696E766F636164 PUSH16 0x7220646562652073657220756E207573 PUSH22 0x6172696F206469666572656E746520616C20616E6669 PUSH21 0x72696F6E59612065786973746520756E2063616261 PUSH13 0x6C6F20636F6E20657374652063 0xC3 0xB3 PUSH5 0x69676F4573 PUSH21 0x6520636162616C6C6F20796120736520656E637565 PUSH15 0x747261207265676973747261646F20 PUSH6 0x6E2065737461 KECCAK256 PUSH4 0x61727265 PUSH19 0x614C612063617272657261206E6F2063756D70 PUSH13 0x6520636F6E20656C2065737461 PUSH5 0x6F20726571 PUSH22 0x657269646FA2646970667358221220BB747A77E9F92C 0xE 0xD0 0xC 0xB3 0xF6 SWAP14 KECCAK256 0x5C PUSH24 0xCF06DD74F6986564895C29B076D8CA0264736F6C63430006 STOP STOP CALLER "
				},
				"gasEstimates": {
					"creation": {
						"codeDepositCost": "1051000",
						"executionCost": "21960",
						"totalCost": "1072960"
					},
					"external": {
						"anfitrion()": "1076",
						"apostar(uint256,uint256)": "infinite",
						"caballos(uint256)": "infinite",
						"carreras(uint256)": "infinite",
						"competencias(uint256,uint256)": "2160",
						"crearCarrera(uint256,string)": "infinite",
						"registrarCaballo(uint256,string)": "infinite",
						"registrarCarrera(uint256)": "infinite",
						"registrarEnCarrera(uint256,uint256)": "infinite",
						"totalCarreras()": "1094"
					}
				},
				"methodIdentifiers": {
					"anfitrion()": "456f4b57",
					"apostar(uint256,uint256)": "f2f6da3e",
					"caballos(uint256)": "f0b73b54",
					"carreras(uint256)": "5ee81666",
					"competencias(uint256,uint256)": "fb34d0f7",
					"crearCarrera(uint256,string)": "f9d32e49",
					"registrarCaballo(uint256,string)": "5194f59c",
					"registrarCarrera(uint256)": "f7edd6db",
					"registrarEnCarrera(uint256,uint256)": "26d1c7d0",
					"totalCarreras()": "e9ec5583"
				}
			},
			"storageLayout": {
				"storage": [
					{
						"astId": 3,
						"contract": "casaApuestas.sol:casaApuestas",
						"label": "anfitrion",
						"offset": 0,
						"slot": "0",
						"type": "t_address_payable"
					},
					{
						"astId": 9,
						"contract": "casaApuestas.sol:casaApuestas",
						"label": "totalCarreras",
						"offset": 0,
						"slot": "1",
						"type": "t_uint256"
					},
					{
						"astId": 13,
						"contract": "casaApuestas.sol:casaApuestas",
						"label": "carreras",
						"offset": 0,
						"slot": "2",
						"type": "t_mapping(t_uint256,t_struct(Carrera)33_storage)"
					},
					{
						"astId": 17,
						"contract": "casaApuestas.sol:casaApuestas",
						"label": "caballos",
						"offset": 0,
						"slot": "3",
						"type": "t_mapping(t_uint256,t_struct(Caballo)38_storage)"
					},
					{
						"astId": 22,
						"contract": "casaApuestas.sol:casaApuestas",
						"label": "competencias",
						"offset": 0,
						"slot": "4",
						"type": "t_mapping(t_uint256,t_array(t_uint256)dyn_storage)"
					}
				],
				"types": {
					"t_address": {
						"encoding": "inplace",
						"label": "address",
						"numberOfBytes": "20"
					},
					"t_address_payable": {
						"encoding": "inplace",
						"label": "address payable",
						"numberOfBytes": "20"
					},
					"t_array(t_uint256)dyn_storage": {
						"base": "t_uint256",
						"encoding": "dynamic_array",
						"label": "uint256[]",
						"numberOfBytes": "32"
					},
					"t_enum(Estado)7": {
						"encoding": "inplace",
						"label": "enum casaApuestas.Estado",
						"numberOfBytes": "1"
					},
					"t_mapping(t_address,t_struct(Apuesta)43_storage)": {
						"encoding": "mapping",
						"key": "t_address",
						"label": "mapping(address => struct casaApuestas.Apuesta)",
						"numberOfBytes": "32",
						"value": "t_struct(Apuesta)43_storage"
					},
					"t_mapping(t_uint256,t_array(t_uint256)dyn_storage)": {
						"encoding": "mapping",
						"key": "t_uint256",
						"label": "mapping(uint256 => uint256[])",
						"numberOfBytes": "32",
						"value": "t_array(t_uint256)dyn_storage"
					},
					"t_mapping(t_uint256,t_struct(Caballo)38_storage)": {
						"encoding": "mapping",
						"key": "t_uint256",
						"label": "mapping(uint256 => struct casaApuestas.Caballo)",
						"numberOfBytes": "32",
						"value": "t_struct(Caballo)38_storage"
					},
					"t_mapping(t_uint256,t_struct(Carrera)33_storage)": {
						"encoding": "mapping",
						"key": "t_uint256",
						"label": "mapping(uint256 => struct casaApuestas.Carrera)",
						"numberOfBytes": "32",
						"value": "t_struct(Carrera)33_storage"
					},
					"t_string_storage": {
						"encoding": "bytes",
						"label": "string",
						"numberOfBytes": "32"
					},
					"t_struct(Apuesta)43_storage": {
						"encoding": "inplace",
						"label": "struct casaApuestas.Apuesta",
						"members": [
							{
								"astId": 40,
								"contract": "casaApuestas.sol:casaApuestas",
								"label": "monto",
								"offset": 0,
								"slot": "0",
								"type": "t_uint256"
							},
							{
								"astId": 42,
								"contract": "casaApuestas.sol:casaApuestas",
								"label": "codCaballo",
								"offset": 0,
								"slot": "1",
								"type": "t_uint256"
							}
						],
						"numberOfBytes": "64"
					},
					"t_struct(Caballo)38_storage": {
						"encoding": "inplace",
						"label": "struct casaApuestas.Caballo",
						"members": [
							{
								"astId": 35,
								"contract": "casaApuestas.sol:casaApuestas",
								"label": "codigo",
								"offset": 0,
								"slot": "0",
								"type": "t_uint256"
							},
							{
								"astId": 37,
								"contract": "casaApuestas.sol:casaApuestas",
								"label": "nombre",
								"offset": 0,
								"slot": "1",
								"type": "t_string_storage"
							}
						],
						"numberOfBytes": "64"
					},
					"t_struct(Carrera)33_storage": {
						"encoding": "inplace",
						"label": "struct casaApuestas.Carrera",
						"members": [
							{
								"astId": 24,
								"contract": "casaApuestas.sol:casaApuestas",
								"label": "codigo",
								"offset": 0,
								"slot": "0",
								"type": "t_uint256"
							},
							{
								"astId": 26,
								"contract": "casaApuestas.sol:casaApuestas",
								"label": "nombre",
								"offset": 0,
								"slot": "1",
								"type": "t_string_storage"
							},
							{
								"astId": 28,
								"contract": "casaApuestas.sol:casaApuestas",
								"label": "estadoCarrera",
								"offset": 0,
								"slot": "2",
								"type": "t_enum(Estado)7"
							},
							{
								"astId": 32,
								"contract": "casaApuestas.sol:casaApuestas",
								"label": "apuestas",
								"offset": 0,
								"slot": "3",
								"type": "t_mapping(t_address,t_struct(Apuesta)43_storage)"
							}
						],
						"numberOfBytes": "128"
					},
					"t_uint256": {
						"encoding": "inplace",
						"label": "uint256",
						"numberOfBytes": "32"
					}
				}
			},
			"userdoc": {
				"methods": {}
			}
		}
	}
}